:020000040000FA
:0600000006EF28F01200DB
:020006001200E6
:06000800DCEF11F0120014
:02000E000001EF
:06001000020304050607CF
:020016001200D6
:06001800DCEF11F0120004
:02001E000500DB
:100020005750000019020000020000005550000067
:1000300017020000020000005150000011020000F1
:100040000400000050500000FF010000010000000B
:0C00500047500000000200000900000002
:04005C00000012008E
:10006000F4EC0CF049E800EBE6FFD6CFE6FF73ECCA
:1000700022F041E9E750026E025027E00206ABECA5
:100080000AF0036EB251046EB351056EB451066EA0
:10009000ABEC0AF0076EB251086EB351096EB45161
:1000A0000A6E07EBB5FE08EBB6FE09EBB7FE0AEBEE
:1000B000B8FED950030FD6EC0AF0D8803E0EB155E9
:1000C000000E00EC0DF0E4E2D7D74AE9E7CFD9FF04
:1000D00012000EEC0BF081E955E8A5EC10F00009D8
:1000E00001E1ECD20E014BB53ED3016B6051040B24
:1000F00001E0010E030BF36EFC0E0115F310016F0E
:1001000060510197080B01E001876051030B010862
:1001100002E1010E01D0000E019BE8B0018B60519D
:10012000019D800B01E0018D60AF05D0018F61CE94
:1001300004FE62CE05FE67CE0AFE66CE09FE4B9532
:100140006051030B010A01E128D2020A01E17CD1CE
:10015000030A01E0AED2016A040E015C0AE2ECEC93
:100160000CF0EF50000803E2ECEC0CF0EF06012A73
:10017000F3D70E01655162E00A0E655D01E299D286
:10018000020ECEEC0AF00A6E030ECEEC0AF00B6EF5
:10019000040ECEEC0AF0106E050ECEEC0AF0116ED5
:1001A000060ECEEC0AF00C6E070ECEEC0AF00D6EC9
:1001B000080ECEEC0AF00E6E090ECEEC0AF00F6EB1
:1001C000016B60510197080B01E001870151030B9E
:1001D000000904E1101C59E1111C57E146510E18A9
:1001E0000AE147510F1807E148510C1804E1495141
:1001F0000D1801E15ED2016A040E015C1BE2ECEC19
:100200000CF0EF5015E0F0EC0AF00E50EE1810E193
:100210000F50ED180DE1F0EC0AF055EC0BF0EFCFBC
:10022000B1FE0A0E0E01CEEC0AF00E01B15D02E045
:10023000012AE2D7040E015C03E20E014B9D39D284
:10024000016A040E015C06E2ECEC0CF0EF5002E0F7
:10025000012AF7D7040E015C14E2F0EC0AF00EEB71
:10026000EEFF0FEBEDFF0A0E09EC0DF0F0EC0AF0DB
:1002700055EC0BF0E552E750EF6EECEC0CF0030E92
:10028000EF6E0E010181019335D048510A1801E04B
:1002900010D249510B1801E00CD24651101801E060
:1002A00008D24751111801E004D2010ECEEC0AF039
:1002B000040B20E00EEC0CF00CEB02F00DEB03F065
:1002C0000EEB04F00FEB05F0B3EC0CF00A0E0E0190
:1002D00089EC0CF0EFCF0AF000010B6B300E0C6FC5
:1002E0000E010D0E456F5D6B5D8B4A51D7EC0CF026
:1002F0000E0101850B0ECEEC0AF001E07AD00C0E57
:10030000CEEC0AF0300863E00C0ECEEC0AF0420AA4
:100310005CE0530A01E0CDD1126A040E125C0AE2DD
:100320000D0E1224CEEC0AF0E66E125057EC0BF0D4
:10033000122AF3D78D0E446F110ECEEC0AF0800B0B
:1003400001E04491110E26EC0CF0120E2AEC0CF098
:1003500048CE42FE49CE43FE5EDB0E01516FFF0EDA
:10036000515D08E051513EEC0DF0EFCF44FE448565
:10037000448704D08D0E446F40BF4491A2DB0E0130
:10038000516FFF0E515D1EE2126A010E125C0CE20B
:10039000130E122409EC0DF0515152EC0DF01250D5
:1003A0008FEC0CF0122AF1D70A0EE66EE66A0E0107
:1003B0005151B0EC0BF00E0151518EEC0BF00E01CF
:1003C000508101D05091509374D14B9F72D10A0E3D
:1003D000CEEC0AF00201075D01E06BD10E014D5138
:1003E0000E1801E066D14E510F1801E062D14B9713
:1003F00060D14B9D0B0E655D086F0B0E6325066F7C
:10040000000E6421076F0CEB02FE0DEB03FE080EDD
:10041000CEEC0AF0FF080AE1090ECEEC0AF0FF0864
:1004200005E161CE04FE62CE05FE07D0018F080E05
:100430006325046F000E6421056F018D08510008CB
:1004400001E337D14B8535D1040E136E1324CEEC66
:100450000AF04D0807E0040E1324CEEC0AF05D0804
:1004600001E027D14BA90AD07DEC26F009C288FE15
:100470000AC289FE0BC28AFE0CC28BFE0E014BA182
:1004800018D163CEE9FF64CEEAFFEFCF42FE010E42
:1004900089EC0CF0EFCF43FE020E26EC0CF0030EBD
:1004A0002AEC0CF01350CEEC0AF0FF0801E001D169
:1004B0001328CEEC0AF0146E040E0B5D01E3F9D0A4
:1004C000BFEC0BF062EC0CF001E2F3D0A0EC0DF00D
:1004D00004C2EFFFA0EC0DF0070E63EC0DF009CEA7
:1004E000EFFFA0EC0DF0EEEC0AF00ACEEFFF0B519F
:1004F00034EC0DF042CEEEFF43CEEDFF85EC0CF078
:10050000EF6A85EC0CF0EF8CBFEC0BF0060BE842C9
:100510000E01B16F0E0185EC0CF00E01B151030B11
:10052000F36EFC0EEF14F310EF6EBFEC0BF0080B44
:1005300004E00E0185EC0CF0EF86BFEC0BF062ECF2
:100540000CF004E30E0185EC0CF0EF8A016A040E56
:10055000015C0FE201500E01EA6A0425E96E0551C3
:10056000EA22EF50E66E0B5117EC0DF094EC0DF013
:10057000EED7016A010E015C0DE2070E132401247F
:1005800009EC0DF0A0EC0DF00A0E01EC0BF094EC70
:100590000DF0F0D70E010B2B8CD063CEE9FF64CEAB
:1005A000EAFFEF50030A61E0010A01E082D0030E86
:1005B000CEEC0AF04EE1010E89EC0CF0EFCF46FED6
:1005C000020E89EC0CF0EFCF47FE1EEC0BF00E0193
:1005D0004B83BF0E446F016A040E015C03E2CBEC57
:1005E0000CF0FAD7465103E1406B416B03D047CE84
:1005F00041FE406B48CE42FE49CE43FE62DA0E0118
:100600004A6F4A515DEC0BF0016A010E015C0AE28F
:10061000040E012409EC0DF04A5152EC0DF094EC5B
:100620000DF0F3D759EC0DF056EC0DF0F3EC0AF0A9
:100630000A0EE66EE66A0E014A51B0EC0BF00E01AE
:100640004A518EEC0BF0DA0EE66E3E0E3BEC0BF0F0
:1006500030D04A6948694969C6EC0BF0F3EC0AF0FE
:1006600059EC0DF0F6EC0AF022D0016A040E015CA0
:1006700003E2CBEC0CF0FAD7F5D9156EFF0E155C42
:1006800018E0155074EC0CF0200B13E0016A0A0E10
:10069000015C05E20150C1EC0CF0012AF8D7E2EC54
:1006A0000CF0F3EC0AF056EC0DF013EC0BF091ECBF
:1006B0000CF00E014BB502D0B3EC11F0ABEC0AF02C
:1006C000026EB251036EB351046EB451056E0E0149
:1006D0004BA323D04BAD21D0D950020FE96EDACF16
:1006E000EAFF3851EE5C0E01B16F0E013951EE5840
:1006F0000E01B26F0E013A51EE580E01B36F0E01AA
:100700003B51D4EC0BF0FF083F0E0754000E085489
:10071000000E095402E20E014B9D0E0150A323D09E
:1007200050B121D0D950020FE96EDACFEAFF59510A
:10073000EE5C0E01B16F0E015A51EE580E01B26F10
:100740000E015B51EE580E01B36F0E015C51D4ECFB
:100750000BF06C08DC0E0754020E0854000E09540E
:1007600002E20E01509356E9E7CFD9FF12000EECDA
:100770000BF084E90E015D6B0050030BF36EFC0E71
:100780005D15F3105D6F0150021001E15D855D5153
:10079000040B02E0000E01D0010E5D9BE8B05D8B02
:1007A0005D8F01EB5EFE02EB5FFE4CEC0BF00AEF9F
:1007B0000CF00DEC0DF0016A0A0E015C08E201502C
:1007C0004FEC0DF002E1015003D0012AF5D7FF0EE6
:1007D000EBEF0BF0F4EC0CF042E8FF0E005C28E1CC
:1007E000CA0EE66E3E0E3BEC0BF0026A040E025C93
:1007F0000CE2030ED8800254EA6A000FE96E020E82
:10080000EA2231EC0BF0022AF1D7BB0EE66E3E0E67
:100810003BEC0BF0F5EC0BF0B10EE66E3E0E3BEC54
:100820000BF0FCEC0BF0A50EE66E3E0E37EC0DF077
:100830005D0EE66E3E0E3BEC0BF0FF0E005C5EE1E3
:10084000026A0A0E025C01E3ACD002504FEC0DF0DC
:1008500053E002EBE6FF13EC0DF077EC0CF077ECD5
:100860000CF072EC0DF0010B02E0590E01D04E0EAF
:1008700041EC0DF0025074EC0CF0020B02E0590E4A
:1008800001D04E0E41EC0DF0025074EC0CF0080B50
:1008900011E00250DDEC0CF031EC0BF0025076EC84
:1008A0000DF002505CEC0DF031EC0BF002507AECE4
:1008B0000DF002D0A3EC0DF041E972EC0DF0040B49
:1008C00008E0036A040E035C04E20250C4EC0CF07E
:1008D000F9D7ADEC0DF0036A040E035C03E229ECDA
:1008E0000DF0FAD7036A010E035C04E20250DAEC61
:1008F0000CF0F9D72FEC0DF0022AA3D700504FECE3
:100900000DF04FE000EBE6FF13EC0DF077EC0CF090
:10091000200EA9EC0DF0010B02E0590E01D04E0E95
:10092000A9EC0DF0020B02E0590E01D04E0EA9EC1D
:100930000DF0080B11E00050DDEC0CF031EC0BF089
:10094000005076EC0DF000505CEC0DF031EC0BF04B
:1009500000507AEC0DF002D0A3EC0DF041E9ADECC3
:100960000DF0005074EC0CF0040B08E0036A040E68
:10097000035C04E20050C4EC0CF0F9D7ADEC0DF0D0
:10098000036A040E035C03E229EC0DF0FAD7036A54
:10099000010E035C04E20050DAEC0CF0F9D72FEC06
:1009A0000DF06BEF0CF00DEC0DF00E0150917DECA5
:1009B00026F009C259FE0AC25AFE0BC25BFE0CC2E7
:1009C0005CFE0E01406B416B1EEC0DF0100EEF6EE5
:1009D000016A040E015C09E20150EA6A000FE96E47
:1009E000020EBCEC0CF0012AF4D7016A010E015C86
:1009F00005E201507FEC0DF0012AF8D7E66AE66ABD
:100A0000400EE66E0E0EE66EFBEC08F044E90E01B9
:100A10005083EBEF0BF00DEC0DF0016A0A0E015C58
:100A20001EE201504FEC0DF018E0015074EC0CF098
:100A3000080B13E0015082EC0CF0EECFB1FEEFCFCB
:100A4000B2FE0E0140510E01B11907E10E014151F4
:100A50000E01B21902E1015003D0012ADFD7FF0EC7
:100A6000EBEF0BF00EEC0BF081E942E8016A0A0EA5
:100A7000015C24E201504FEC0DF01EE0015074ECDB
:100A80000CF0040B19E0026A040E025C13E224EC81
:100A90000DF0EACFB3FE02500E01EA6AE924E96ED6
:100AA000B351EA22EFCFB1FE2EEC0CF0B15D04E1C0
:100AB000022AEAD7015003D0012AD9D7FF0E6BEFE3
:100AC0000CF00EEC0BF081E942E801680E0144A540
:100AD00002D0C8DF03D044A702D09DDF016EFF0E15
:100AE000015C02E166DE016EFF0E015C2CE001504C
:100AF0003EEC0DF044CEEFFF0E0144A510D0026A8B
:100B0000040E025C0CE22EEC0CF0E66E24EC0DF010
:100B1000EACFB2FE02508FEC0CF0022AF1D70E01A0
:100B200044A707D0015082EC0CF040CEEEFF41CE3E
:100B3000EDFF0150A4EC0AF042CEEEFF43CEEDFFF4
:100B400001505DEC0BF001506BEF0CF00EEC0BF074
:100B500085E941E8056A040E055C14E205500224AB
:100B60001AEC0CF0EFCFB1FE05500024E96E000E38
:100B70000120EA6EEF500E01B15D02E0000E03D0DD
:100B8000052AE9D7010EEBEF0BF00DEC0DF00E018D
:100B90004551016E456BE6EC0AF0040EEF6EE6EC93
:100BA0000AF046CEEFFFE6EC0AF047CEEFFF010E6B
:100BB000E66E040EE66E010EE66ED9DD43E900092D
:100BC00010E00E014B8D7DEC26F009C238FE0AC202
:100BD00039FE0BC23AFE0CC23BFE01EB45FE010E94
:100BE00003D001EB45FE000EEBEF0BF0F4EC0CF044
:100BF00044E80BEC22F00E0146694769340E486F59
:100C0000120E496F056A0A0E055C05E20550C1EC3B
:100C10000CF0052AF8D70E014B6B4C6B506B006B38
:100C200073EC26F00E01456B056A040E055C08E2C4
:100C3000055067EC0DF0E9EC0BF0EF6A052AF5D7EB
:100C4000056A0A0E055C05E205505DEC0BF0052A0D
:100C5000F8D7005045E076EC0BF01FEC0CF0200EBE
:100C60000201045D0AE2F6EC0AF0E66E1FEC0CF0FD
:100C70000E01461D04E1471D02E1000E67D013EC92
:100C80000BF0E66E1FEC0CF082EC0BF01FEC0CF09E
:100C900068EC0BF040EC0BF01FEC0CF0F6EC0AF0FB
:100CA000E66E1FEC0CF044EC0DF0E66E1FEC0CF061
:100CB000510EE66E3E0E37EC0DF0490EE66E3E0E1E
:100CC0003BEC0BF0FCEC0BF03E0EE66E3E0E3BEC0C
:100CD0000BF0F5EC0BF01EEC0BF00E014B8310D07B
:100CE00059EC0DF076EC0BF06EEC0DF082EC0BF0A5
:100CF0006EEC0DF006EC0DF056EC0DF0F3EC0AF096
:100D0000026A02960298028A029C028200500294B1
:100D1000E8B00284000E036E020E046E02EBE6FFE2
:100D200003EBE6FF04EBE6FF44EC0FF043E91EECB7
:100D30000BF004C2E6FF5EEC0CF00E01008768ECDD
:100D40000BF0D6CF4FFEF094F08A010E45E9E7CFC5
:100D5000D9FF1200F4EC0CF041E80050020A19E04F
:100D6000030A10E0010A2AE10E014BA904D006ECA7
:100D70000DF00E014B99E66A6FEC0CF00EE00E01DF
:100D80004C811AD0E6686FEC0CF007E00E014C9134
:100D900013D0E6686FEC0CF002E1010E10D00E01EA
:100DA0004C91F3DE000902E1020E09D00E014BADB9
:100DB00003D069EC00F0FAD7000E01D0FF0EEBEF84
:100DC0000BF0F4EC0CF0E66A00EBE6FF0DEC0FF034
:100DD00042E9000908E000EB04F276EC0BF06EEC5F
:100DE0000DF0010E01D0000E0AEF0CF0F4EC0CF047
:100DF0000050030809E300EB05F268EC0BF082EC0D
:100E00000BF097EC21F046E90AEF0CF00EEC0BF03A
:100E100086E94EE8010E076E086A096A0A6A02014D
:100E200004510B6E066A040E065C05E20650A0DB58
:100E3000EF68062AF8D70E010B6B4B81066A200E6D
:100E4000065C5CE207EBB1FE08EBB2FE09EBB3FE19
:100E50000AEBB4FE06501F0B04E00E0103EC0CF08D
:100E6000FDE19EEC0BF048E02E0EE66E3E0E3BECF4
:100E70000BF006EBE6FF9BEC25F041E906EBE6FF05
:100E80005EEC0CF03AEC0DF0070EEF6E9FDB04C247
:100E9000EFFF010EE66E000EE66EE66A68DC43E9DF
:100EA0005ADB36EC0CF023EC0CF001E026D953DBD6
:100EB0003EEC0CF010EBB5FE11EBB6FE12EBB7FEFC
:100EC00013EBB8FED9500C0F71DB0450040DF3CFB7
:100ED000F6FFF4CFF7FF700EF6264F0EF722B15152
:100EE0000900F55CB2510900F558B3510900F558F5
:100EF000B4510900F558D7E2062AA1D70BEBE6FF5B
:100F00005EEC0CF00E014B910B514FE9E7CFD9FF8E
:100F1000120084DB83E94AE8030E036E00041CE13F
:100F20001ADB46EC0CF03FDD0E0150A311D023EC90
:100F30000CF001E0E2D894EC0CF0F6E226DE89EB4E
:100F400005F08AEB06F08BEB07F08CEB08F0ECD7A2
:100F500050A1C2D05151C5D0005001E0C1D0FF0E08
:100F6000015C20E10E01010EB16FB26BB36BB46B8B
:100F7000020104511F0B04E00E0103EC0CF0FDE133
:100F8000B1CEE6FFB2CEE6FFB3CEE6FFB4CEE6FFCB
:100F90000A0EE66E3BDF45E9000903E10306E2E1E4
:100FA0009BD0016A015034EC0DF0EECF42FEEDCF44
:100FB00043FE046A040E045C0BE2015017EC0DF0D2
:100FC000045025DBEF50E66E045071DB042AF2D7A3
:100FD00049DD0E014A6FFF0E4A5D07E1D9EC03F0CF
:100FE0000E014A6FFF0801E177D04A51C1EC0CF0C5
:100FF000015034EC0DF0EECFB1FEEFCFB2FE4A510E
:10100000A3DAB1CEEEFFB2CEEDFF046A040E045CAB
:1010100009E20150ADDAEE52A2EC0CF0040E85ECC0
:101020000DF0F4D70E014A513EEC0DF0EF84046A46
:10103000010E045C0BE201509BDA0A0E63EC0DF02A
:10104000A2EC0CF0090E85EC0DF0F2D70E014A511E
:101050003EEC0DF0EF824A513EEC0DF0EF8A4A5122
:101060003EEC0DF0EF80015083DAEFCFE6FF5EEC4F
:101070000CF00E014A5168DAEECF48FEEDCF49FE82
:1010800085DB3AEC0DF0010EEF6EA0DA00CEEFFF3B
:10109000046A010E045C05E204507FEC0DF0042AA2
:1010A000F8D7010EE66E4A514FDA040EAADAE9CFFC
:1010B000E6FFEACFE6FFB7EC03F043E94CDAE6DB04
:1010C0000E014A5174EC0CF0100B08E1BCDB01E09E
:1010D00014D894EC0CF0F4E2FF0E03D04A5101D086
:1010E000FF0E4BE9E7CFD9FF120069EC00F00E01CB
:1010F0004B51040B01E0010E12000E014B95B3EFB2
:1011000011F0F4EC0CF08ADB48CE02F049CE03F08B
:10111000046905699FDA0E015D6B5D8500505D977E
:10112000E8B05D87B9DA76D379DA83E949E8015026
:101130004FEC0DF059E0020108510DE000010B5198
:101140000AE00E014B874FCE07F201508AEC0DF0FA
:10115000060E036E04D0020E036E0E014B9706C2FC
:1011600000F003EB01F00150EFD9EFCF02F0015096
:10117000DDEC0CF0EFCF03F00150C4DBEFCF04F057
:1011800001505CEC0DF0EFCF05F0EDDB4F514F2B34
:1011900000010A6F24DBE8B05D8798EC0DF022E0D7
:1011A0000E014BA723D0D7D9046EB251056EB351AF
:1011B000066EB451076E47DB01E09FDF0E014BB7AF
:1011C00002D0010E14D0C7D969DB08EBB5FE09EBDC
:1011D000B6FE0AEBB7FE0BEBB8FED950040F60EC7D
:1011E0000DF0E9E20E014B97000E01D0010E4AE925
:1011F000E7CFD9FF120012DA85E953E8020108515E
:101200000AE000010B5107E00E014B874FCE07F2B9
:10121000060E076E04D0020E076E0E014B970150AA
:1012200063E0066A040E065C09E20650022402DB53
:10123000EF50E66E06503BDA062AF4D713DC056E53
:10124000FF0E055C10E1EADA0269036904690569C9
:1012500001DAC5DAE8B05D8702EB5EFE03EB5FFE04
:101260004B971ADA8BD005503FDB080BECE00201FC
:10127000085103E005508AEC0DF00001040E006FE8
:1012800007EB01F0055060D9EFCF02F0055095DB78
:10129000EFCF03F0055036DBEFCF04F005505CECE8
:1012A0000DF0EFCF05F0D6D99ADAE8B05D8798EC6B
:1012B0000DF05FE00E014BA746D04DD9EFDAC3DA4F
:1012C00001E01BDF0E014BA73ED045D9CFDA0CEB76
:1012D000B5FE0DEBB6FE0EEBB7FE0FEBB8FED95028
:1012E000080FEEDBECE245D00001040E006F07EBC7
:1012F00001F048CE02F049CE03F002EBE9FF03EB28
:10130000EAFFEFCF04F0022895DAEFCF05F0A2D97B
:1013100002EBE9FF03EBEAFFEFCF4DFE02288ADA8A
:10132000EFCF4EFE5CDAE8B05D8798EC0DF021E07F
:101330000E014BA722D00FD9A1DA85DA01E0DDDE5C
:101340000E014BB702D0010E19D005D9146EB2515F
:10135000156EB351166EB451176E14EBB5FE15EB46
:10136000B6FE16EBB7FE17EBB8FED950100FA8DB90
:10137000E4E20E014B97000E01D0010E54E9E7CFD5
:10138000D9FF12004BD987E90550020A02E0030A8F
:1013900002E1000E01D0000E3DD240D986E94FE8AF
:1013A00002010451086ED7D80CDA0E014B8F066A81
:1013B000030E065C70E2010E116E126A136A146A63
:1013C000076A0E014BAF56D0C6D80D6EB2510E6EE5
:1013D000B3510F6EB451106E0DEBB5FE0EEBB6FEB1
:1013E0000FEBB7FE10EBB8FED950090FDFD8D8804D
:1013F0003C0EB155780E04DB39E28DEB09F08EEB33
:101400000AF08FEB0BF090EB0CF007501F0832E363
:1014100011EBB1FE12EBB2FE13EBB3FE14EBB4FE14
:1014200007501F0B03E00E01EED9FEE187D905E15D
:10143000072A07501F08ECE22AD01A0EE66E3E0E6D
:101440001AD907EBE6FF9BEC25F041E907EBE6FF35
:1014500035DA072A0E01F2DA410EEF6EB7D804C270
:10146000EFFFE66A04EBE6FF5FDE42E9ECD9A9E0B4
:1014700044DEA7D70E014BBF0AD0F20EE66E3D0E3A
:10148000F6DAEF0EE66E3D0EF6D8010E0AD02EEC1F
:1014900000F0062A8DD708EBE6FF10DA0E014B9F0D
:1014A000000E50E9E7CFD9FF12009EDA43E8FF0EA5
:1014B000005C1EE1026A0A0E025C3DE20250EFDAB5
:1014C00013E0025011DA200B0FE0D4DAEFD902500A
:1014D0006EDA036A046AFF0E035C0F0E045804E21E
:1014E000032A000E0422F7D702504BDA022AE3D770
:1014F0000050D5DA25E00050F7D9200B21E00E018D
:101500004A51005C1DE1456B61D8D0D900504FDADB
:10151000036A046AFF0E035C0F0E045804E2032AF8
:10152000000E0422F7D7026A0A0E025C04E202509F
:1015300028DA022AF9D746DAB9DABBDA54D866DAF9
:1015400044E9E7CFD9FF12000A0D49DA000EE92677
:10155000010EEA2212007DEC26F009C2B1FE0AC299
:10156000B2FE0BC2B3FE0CC2B4FE0E01B1511200AA
:101570000B0D35DA0C0EE9260E0EEA221200040ECF
:10158000A2DAE9CF5EFEEACF5FFE31DAE9CFE6FF0D
:10159000EACFE6FFDBEC0FF046E91200BAD9EF50D4
:1015A0001200E66E79EC25F041E91200E96EDACF1F
:1015B000EAFFEE50B55DB16FEE50B659B26FEE5026
:1015C000B759B36FEE50B859B46F12004551452B5F
:1015D000EA6A000FE96E000EEA221200080E21D21C
:1015E000015067EF0DF050DA91EF0CF0020EE66E4D
:1015F000E66AF3C1E6FFF4C1E6FF460EE66E0E0EA4
:10160000120061DAE9CFB1FEEACFB2FE12000E019C
:10161000EA6AE924E96EB251EA221200D9CFE6FF64
:10162000E1CFD9FF1200020EE66EE66AE9C1E6FFDD
:10163000EAC1E6FF480EE66E0E0E1200480EE66E98
:101640000E0EE66E460EE66E0E0EE66E07EC0FF020
:1016500044E9120088D90E014F514F2B00010A6F47
:101660001200EFCFE6FF13EF0DF0D880240EB15536
:10167000F40E00EF0DF0E66E5EEC25F042E912008C
:10168000640EE66EE66AEFC1E6FFF0C1E6FF000E0B
:10169000E66E010EE66E1200AAD95ECEE6FF5FCEC0
:1016A000E6FFDBEC0FF046E91200020EBAD1EA6A5F
:1016B0003C0FE96E0E0EEA223FD2040D90D9330E94
:1016C000E926000EEA22EE6AEE6AEE6AEE6A12007F
:1016D000020105510E01030BF36EF346F346F34688
:1016E000F346CF0E0015F310006F1200010EE66EE8
:1016F000E66AEBC1E6FFECC1E6FF040EE66E020E01
:10170000E66E1200010EE66EE66AEDC1E6FFEEC17E
:10171000E6FF050EE66E020EE66E12000A0DF3CF2E
:10172000B3FEF4CFB4FE000E0E01B327010EB423B6
:10173000B3CEE6FFB4CEE6FF6EEF0DF0D9CFE9FFF2
:10174000DACFEAFFEE500E01B117EE50B217EE50AD
:10175000B317EE50B417B151B211B311B411120056
:101760000A0D0101EF51F3240E01B16F0101F05197
:10177000F4200E01B26FB1CEE6FFE66E1200D95032
:10178000140FE96EDACFEAFFEF50120040694169A9
:10179000480EE66E0E0EE66E400EE66E0E0EE66E1D
:1017A00007EC0FF044E91200EE580E01B46FB1518E
:1017B000066EB251076EB351086EB451096E0650F1
:1017C0001200096EB2510A6EB3510B6EB4510C6E19
:1017D0001200030E26D142E9E7CFD9FF12000E0115
:1017E0005D6B5D8B00505D97120047CEE6FF1BD905
:1017F00046CEE6FF13EF0DF049CEE6FF14D948CEF2
:10180000E6FF13EF0DF0D890B137B237B337B437E6
:10181000E806120041E9E7CFD9FF120006C200F046
:101820000001020E016F120004C2E6FF9BEC25F0DE
:1018300041E91200E96E000E0320EA6E120073EC1B
:1018400021F046E9120051DC0009120062D8EFCF06
:1018500040FE12005ED8EFCF41FE12000250EA6A4D
:101860003C0FE96E0E0EEA22EF5012000C6EB251E0
:101870000D6EB3510E6EB4510F6E1200106EB25158
:10188000116EB351126EB451136E1200056EB25147
:10189000066EB351076EB451086E1200086EB25155
:1018A000096EB3510A6EB4510B6E1200030EEF6E47
:1018B0005D6B5D8B5D815D935D8F1200E1EC06F0E9
:1018C00041E91200300BE842E842E842E8420108F0
:1018D0001200050EA6D043E9E7CFD9FF1200BCECF9
:1018E00011F041E900091200C9D8EF50120035D9B2
:1018F000ADEF0DF03F0E55DE3F0E53DE3F0E51DED5
:101900003F0E120021DE55EF0BF01AD9090E63EFDE
:101910000DF0EA6A6325E96E6451EA22120077DE6F
:101920000BD1E66E6EEF0DF016DE4BDF09EBB5FE68
:101930000AEBB6FE0BEBB7FE0CEBB8FED950050F69
:1019400060EF0DF0E9CFB3FEEACFB4FE04500E0114
:10195000EA6AE924E96EB451EA22EF50E66E0E011C
:101960004A51A4EF0AF048CE06F049CE07F046CE21
:1019700008F047CE09F01200EA22EF50E66E26DEAC
:10198000DBD07CD8EF6A1200DFDD040E3ADE030EF6
:10199000D8800354C5D00150EA6A6125E96E6251CE
:1019A000EA22EF50E66E015082DE012A1200CCDD01
:1019B000BFEF0AF077D80350B3D0C6DDE92A000E96
:1019C000EA2212000E014A69466947694869496975
:1019D00035DE0E014B93120003DEE9EF0BF0F3CF7F
:1019E000E9FFF4CFEAFF120019DE82E9120045CECA
:1019F000E6FF000EE66E000EE66E5DCEE6FF12001C
:101A0000B255000EB355000EB455120039DE6EEF1C
:101A10000DF00E01C3DDE66E120000DE81E941E843
:101A2000120063EF0DF088EC25F041E91200A0DD13
:101A3000EE52E9CFB1FEEACFB2FE12000B0E456FB7
:101A4000C5DDEF6AE6EF0AF001507EDD040E63EFBC
:101A50000DF05A0EE66E3E0E0EDE032A12000D0E3B
:101A6000A0DD0A0ED1EF0AF083DD69EF0CF003DE92
:101A700014EF0CF00E01456BE6EF0AF065DDEEEFBA
:101A80000AF08FDD77EF0CF0010EE66EE66AF5C125
:101A9000E6FFF6C1E6FF4A0EE66E0E0E120024DFE8
:101AA000800B120051DD090E01EF0BF09FDD91EF6D
:101AB0000CF0B9DD91EF0CF025DFE92AEA221200E3
:101AC00075DD35EF0BF0E926000EEA221200080D55
:101AD00086DF680EE9260E0EEA22120097EC21F04E
:101AE00046E912003AD8025074EF0CF02DDDB9DD52
:101AF00077EF0CF007DFEFCFE6FF88EF25F0EA6A1B
:101B0000190FE96E020EBCEF0CF07BDD045007DF0D
:101B1000042A1200F7DEEECF4DFEEDCF4EFE12008E
:101B200076DD9FDD032A12000150F9DE012A120042
:101B30004A513DDF00091200E552E750EF6E1200F6
:101B40000B51B8EF0AF0D6DE9CDFD4DEE66E79EFFB
:101B500025F097DF005074EF0CF0200ED1EF0AF063
:101B600030EC14F081E950E8060E016E026E036E4F
:101B7000050E046E056E040E066E076E086E030EEB
:101B8000096E0A6E020E0B6E0C6E010E0D6E0E6E5D
:101B90000F6E106E03500E01B36FB46B050EB3CE13
:101BA000B1FEB4CEB2FE000A06E00E01D890B13705
:101BB000B237E804FBE1B1CEF3FFB2CEF4FF51E956
:101BC000E7CFD9FF120030EC14F083E941E8F05080
:101BD000200B01E0010E036EF09A8B940E0101EBD5
:101BE000B1FEB26BB1CEE6FF8AEC27F041E900EB23
:101BF000E6FF8AEC27F041E98B840350E8B0F08AD5
:101C0000E8A0F09AD3EF14F030EC14F081E943E847
:101C10008D50020B01E0010E016E8B50040B01E0B0
:101C2000010E026EF050200B01E0010E036EF09ADF
:101C30008D828B9499EC27F00101AD6F99EC27F020
:101C40000101AE6F0150E8B08D82E8A08D92025084
:101C5000E8B08B84E8A08B940350E8B0F08AE8A049
:101C6000F09A44E9E7CFD9FF120030EC14F083E991
:101C700052E8030E116E11501106000901E1C1D0A6
:101C8000126A0101FF6B106A00501FE0810EE7EC41
:101C900014F0146A0D6A050E0D5C0EE2B5DF010149
:101CA000AEBF142A010EE66EE66AE66AE66A02EC48
:101CB00024F044E90D2AEFD71450020806E2105030
:101CC000102A0408E6E2000E9ED0F09A010EE7EC1E
:101CD00014F0B30EEFEC14F0210EE7EC14F0010E4B
:101CE0005DEC14F0046A136A8B94B80EE66E8AEC0D
:101CF00027F041E9AA0EE66E8AEC27F041E90E6A68
:101D00000F6A020E0124045C3DE281AA20D0030E7A
:101D1000135C13E21350020A09E0030A04E0010A0B
:101D20000AE12D0E01D0D40EE66E02D001EBE6FFE3
:101D30008AEC27F041E9132AE2D7045034EC15F07D
:101D4000EFCFE6FF8AEC27F041E9042AD8D70EEB63
:101D5000B1FE0FEBB2FE0E2A000E0F220E01B151A2
:101D6000FE08FF0EB255CDE28B841250122A1408E1
:101D700009E329EC15F044EC15F0050E5DEC14F0C8
:101D8000F08A7FD78B8429EC15F044EC15F03CDF0A
:101D9000F08A200E01016415000830E265C1B2F13D
:101DA00035EC14F0056EB251066EB351076EB451A6
:101DB000086E0101FF5122E135EC14F0096EB251B9
:101DC0000A6EB3510B6EB4510C6E09EBB5FE0AEB03
:101DD000B6FE0BEBB7FE0CEBB8FED950050FE96E63
:101DE000DACFEAFF69EC14F0350EB1550C0EB2559E
:101DF000000EB355000EB455DCE23DD7010E036E64
:101E000001D0036A035053E9E7CFD9FF120030EC49
:101E100014F085E9000ED7EF14F030EC14F083E9EC
:101E2000200E015C02E3000E19D00150690DF3CFC2
:101E3000B3FEF4CFB4FE400E0E01B327A10EB423BF
:101E40000050B325B16F000EB421B26FB1CEE6FFE2
:101E500016EC14F0140E5DEC14F0010ED7EF14F034
:101E600030EC14F082E90050070802E2000E0AD0BC
:101E700000500E01B16FB26B100EB113980EA5ECAD
:101E800014F0010ED7EF14F030EC14F084E941E8BF
:101E900000EBAFF101EBB0F102EBB1F18B848D827D
:101EA0008B9E8A98D6CFB3F10101B469046A020E01
:101EB000045C06E2045008EC14F0EF6A042AF7D739
:101EC000D9CFE9FFDACFEAFFEF50040B0EE021ECA7
:101ED00014F073EC21F046E9040E0101DE27000E38
:101EE000DF23E02305EC15F00DD00101DD6BDE6B87
:101EF000DF6BE06B05EC15F00101010EDD6FDE6BB1
:101F0000DF6BE06B046A080E045C13E20450F76AAE
:101F10000E0FF66E000EF7220800F550E66E045024
:101F2000EA6AE10FE96E010EEA2215EC15F0042AC7
:101F3000EAD7810EE3EC14F0830E3AEC15F0B70EFD
:101F4000E66EC40E16EC14F0D00EE66EA70E16EC7C
:101F500014F0230EE66EC60E16EC14F0010EE7EC3C
:101F600014F0FEDDF3CFB1FEF4CFB2FE040E0E018D
:101F7000B113940EA5EC14F0100EE66E980E16EC4C
:101F800014F0AC0EE66EC20E16EC14F0210EE7EC67
:101F900014F0050E5DEC14F029EC15F0810EE3EC65
:101FA00014F044EC15F0000EE66EE66A0CDE42E931
:101FB000010ED3EF14F030EC14F087E945E800503F
:101FC000280802E2000EBDD0039C4EEC14F0030B77
:101FD000010801E1038E03EB64F10101B351B32B5E
:101FE0000101656FC0EC14F0DBEC14F055EC14F05B
:101FF000020E086E4EEC14F0400B0EE0076A2DEC5A
:1020000014F0075C09E207500424E96E000E052075
:10201000EA6E1BEC14F0F3D74EEC14F0040B0BE15A
:10202000C6EC14F02DEC14F0E66E04EBE6FF05EBC5
:10203000E6FF55EC14F04EEC14F0800B1AE0076A42
:102040002DEC14F0075C09E20750EA6AB025E96E4E
:10205000B151EA221BEC14F0F3D7C6EC14F00AECF1
:1020600015F0E66E0AEC15F0085C7FEC14F055EC08
:1020700014F04EEC14F0080B3EE0076A040E075C07
:1020800008E20750EA6ADD0FE96E010EEA22D3DBAF
:10209000F5D70101DD2B000EDE23DF23E023DD5128
:1020A00005E1030EDE1502E105EC15F0EBEC14F092
:1020B000EF6A88EB0BF0076A0050075C03E2FDEC67
:1020C00014F0FAD7E10EE66E010EE66E00EBE6FFC5
:1020D0000BEBE6FFDBEC14F07BEC20F046E9020EA4
:1020E0000826C6EC14F00024050FE66E050E0B5C06
:1020F0007FEC14F00FD0076A0050075C03E2FDECA0
:1021000014F0FAD7C6EC14F000EBE6FF01EBE6FFA3
:1021100002EBE6FFCADB0E010AEBB1FEB26BEBECA1
:1021200014F0B1CEEFFFEBEC14F009EBEFFF01017F
:10213000AF51020B01E0010EE66E08EBE6FF95DD04
:1021400042E946E9E7CFD9FF12008ADB81E94CE892
:1021500081A6F084016A050E015C32E286DB026E24
:10216000B251036EB351046EB451056E015057DB8A
:10217000EF5024E00150F6EC14F00250EE5C0350F6
:10218000EE580450EE580550EE5818E202EBB5FE3A
:1021900003EBB6FE04EBB7FE05EBB8FE0150F6EC20
:1021A00014F097DB240EB155F40EB255000EB35562
:1021B000000EB45503E2015032DBEF6A012ACBD79F
:1021C000FF0E0101B45D01E0A6D0016A020E015CC0
:1021D00001E3C4D0F3EC14F0EF50010B01E1BCD0EB
:1021E00041EC15F0EFCF60FEF3EC14F0FAEC14F0D4
:1021F000EFCF65FE020E066E0E0160AD02D02DDB44
:1022000006260E0160AF0BD041EC15F00650E92414
:10221000616F000EEA20626F20DB062602D0616B40
:10222000626B0E0160A77DD041EC15F0EACFB2FEE3
:10223000040E06240E01EA6AE924E96EB251EA228C
:10224000EF5067E10E0160AF4FD0076A0A0E075CDE
:1022500015E260DB080E1EDBEF50800B0DE061CE57
:10226000E6FF62CEE6FF56DB040E14DB77DBA6EC5E
:1022700005F044E9000902E1072AE8D70A0E075CE5
:1022800033E20C6A040E0C5C1CE241EC15F0E9CF61
:10229000B3FEEACFB4FE06500C240E01EA6AE9242C
:1022A000E96EB451EA22EF50E66ED950080FB16FD3
:1022B0000C50EA6AB125E96EDA50EA22B6DB0C2A44
:1022C000E1D730DBEE50085CEE500958EE500A586A
:1022D000EE500B581EE326DB08EBEEFF09EBEEFF9A
:1022E0000AEBEEFF0BEBEFFF050E0626E10EE66EA6
:1022F000010EE66E78DB7EDBEF50D8800654E66E8A
:1023000006EBE6FFBEDB2ADBADEC20F046E9000978
:1023100004E169DBEF6A000E22D0020E06240E01F2
:1023200001D00650655FADDB0650E924636F000EF7
:10233000EA20646F58DBEF50020B03E0190E666F62
:1023400001D0666B50DBEF50040B01E0010E676FAC
:1023500001EBB4F1010E03D0012A38D7000E4DE98C
:10236000E7CFD9FF1200020E0101B45D04E2B451BF
:102370004FDAEF6AB469120073DA82E941E800507B
:10238000FF0A0BE0FF0A02E0000E15D0810E72DB9F
:10239000010E1DDB39DC8D820DD0090E18DB0A0E13
:1023A0008CDA026A050E025C05E2025038DAEF6A46
:1023B000022AF8D7010EF7D2D8CFE4FFE0CFE4FF2E
:1023C000E46EDACFE4FFE2CFDAFFE9CFE4FFEACF51
:1023D000E4FF09C2E4FF0AC2E4FF0BC2E4FF0CC23F
:1023E000E4FFF6CFE4FFF7CFE4FFF5CFE4FFF3CF50
:1023F000E4FFF4CFE4FFFACFE4FF0EEEB1F00E0EEF
:10240000E80403E3EECFE4FFFBD7E65229DA81E9E3
:1024100050E8F050200B01E1C2D1F050040B01E173
:10242000BED18B9481AAB5D18B848D9299EC27F083
:10243000026E036A020E035C06E2C2DAEF50010B81
:1024400002E0032AF7D7040E025C03E1010E066ED8
:1024500001D0066A490E025C07E2025005E0020E56
:10246000035C0DE306500BE18D82F094010EAFDAB0
:10247000810E00DB730EB3DA810EA9DA79D1016A1D
:10248000046A056A83A676D1065007E099EC27F026
:10249000E66ECFDA0150012A07D099EC27F0E66EFC
:1024A000DDDA0150012A0101EA6AF925E96EFA51E3
:1024B000EA22BBDA0250015CE3E304EC0EF0010116
:1024C000AEAFD2D78D82810E7EDA06503BE0030E8E
:1024D0000714020822E109EBF9F1F9C1FAF101014F
:1024E000F96B0A50F9250B6E000EFA210C6E48DAD2
:1024F000D950070FE66EDACFE6FFC4D90D500B189E
:102500000FE10E500C180CE10101B251085C03E11F
:102510000101010EFF6F016A2BD1020E035C02E381
:10252000016A98D09EDA07EBEFFFA8DA08EBEFFF1D
:1025300098DA020EAFD909EBEFFF93DA030EAAD9AE
:102540000AEBEFFF83DA02EBEFFF8BDAE9CFFDF165
:10255000EACFFEF17BDAEF50FE0F0101EA6AFD25BA
:10256000E96EFE51EA22EFCFFBF1FBC1FCF1FB6B00
:1025700075DA6CDAEF04EA6AF925E96EFA51EA22B3
:10258000EF50FB250B6E000EFC210C6E6ADAEF504B
:10259000040B04E166DAEF50400B09E0000EE66E32
:1025A000E66A54DAEF50FE0FE66E58DA18D0E8D932
:1025B00055DAE9CFE6FFEACFE6FF42DA4ED9E66E1A
:1025C000B0C1E6FFB1C1E6FF3BDA40DAEF50FC0FE5
:1025D000E66E44DA020E0101F927000EFA23F9C172
:1025E000E6FFFAC1E6FF4ED90D500B1830E10E5050
:1025F0000C182DE1E5D9EF84E3D90101AD51010BB0
:1026000002E0EF8201D0EF9210682BDAEF50400B1E
:1026100025E00F6A22D90F5C21E223DAE9CFFAF133
:10262000EACFFBF1020E0F240101EA6AE924E96E08
:10263000FB51EA22EFCFF9F10F500101EA6AB02510
:10264000E96EB151EA22EF500101F95D05E0016A3E
:10265000FDD9EF6A19DA08D70F2ADCD702DAEF5072
:10266000200B35E011DA0F6A040E0F5C07E298D9EF
:10267000EF50E66E3CD9D9D90F2AF6D70101060EE4
:10268000646FFCD9EFCF65F1E66EE66A020EE66E86
:1026900092D9F8D801010EEBF9F1FA6BF9C166F1A4
:1026A0000DEB67F1020E09D9E66A040EE66E35EC11
:1026B0000EF042E9810E87D90F6A040E0F5C07E223
:1026C00016D9EF50E66E6CD9B0D90F2AF6D70F6A3B
:1026D000050E0F5C28E20F50A2D8EF5019E00F5002
:1026E0009ED8EE52EFCFF9F1C9D9EF500101F95D53
:1026F0000FE10F5094D8020ECDD80B50EE1808E120
:102700000C50ED1805E116D90F5070D930D90BD007
:10271000FF0E105C06E10F5082D8EF5002E18FEB04
:1027200010F00F2AD5D7050E0F5C22E3050E105CC2
:1027300017E2105074D8010EEF6EA0D9EF50E66E7C
:1027400010506DD8EE5271D9105069D8020EA2D82F
:102750000BEBEEFF0CEBEDFFEDD8105047D907D98E
:102760000101020EF96F72D9F951EF5E29D9EF809C
:102770008BD914D004EBF9F105EBFAF1042A000E21
:1027800005220101F951FE08FF0EFA5501E37AD640
:102790006BD699EC27F00101AD6F8B84F094F2A415
:1027A00009D0F2AA07D0F2940201152B155102E1CB
:1027B0000201162BCBEC23F051E9E7CFD9FFE5520C
:1027C0000EEEBEF00E0EE80403E3E5CFEDFFFBD7FF
:1027D000E5CFFAFFE5CFF4FFE5CFF3FFE5CFF5FF57
:1027E000E5CFF7FFE5CFF6FFE5CF0CF2E5CF0BF233
:1027F000E5CF0AF2E5CF09F2E5CFEAFFE5CFE9FF41
:10280000E5CFDAFFE550E5CFE0FFE5CFD8FF1000D8
:102810004B0D06D9600EE926000EEA221200080DC3
:10282000FFD8B50EE926010EEA221200E66EE3ECAF
:102830000DF042E91200EF50E66ECDD8F6D8072A27
:102840001200040EE66EE66AF1C1E6FFF2C1E6FF91
:10285000DD0EE66E010EE66E120001010AEF15F0C4
:10286000D9CFE6FFE1CFD9FF12007DEC26F009C2F7
:10287000B1FE0AC2B2FE0BC2B3FE0CC2B4FE0E0120
:10288000B1511200B1EC26F045E9F3500D6EF45051
:102890000E6E1200E926000EEA221200D950030F34
:1028A000E96EDACFEAFFEF501200B1EC26F045E90D
:1028B000F350096EF4500A6E1200E66EE66A61EC9F
:1028C00024F042E91200EE52E9CFF9F1EACFFAF131
:1028D0001200EE50B55DB16FEE50B659B26FEE50CA
:1028E000B759B36FEE50B859B46FD8801200A1D861
:1028F0000F50EA6AF925E96EDA50EA2212000E0159
:10290000B26B640FB16F010EB223B1CEE6FFB2CE4F
:10291000E6FF120007500A0D83D8000EE926010ECB
:10292000EA2212000750040D7BD8330EE926000E70
:10293000EA2212007DEC26F009C2F9F10AC2FAF18E
:102940000BC2FBF10CC2FCF11200B213B1CEE6FFD8
:10295000B2CEE6FFE3EC0DF042E91200E9CFB1FEA2
:10296000EACFB2FEE9CFE6FFEACFE6FF120009C2E6
:10297000EEFFFAC1EEFFFBC1EEFFFCC1EEFF12005D
:10298000000EE66EE66A020EE66E120009EBE6FF46
:102990000AEBE6FF1200EE52E92A000EEA221200CC
:1029A0000F5034EF15F042E9E7CFD9FF120041E9AB
:1029B000E7CFD9FF1200640EE66E010EE66E12003C
:1029C000035008EF14F0E66ECA0E16EF14F0E66E30
:1029D000820E16EF14F00850082A34EF15F0E66E58
:1029E000800E16EF14F0015008EF14F018DF040EFB
:1029F0004AEF14F04A0E4AEF14F007500124E96E32
:102A0000000E0220EA6E1BEF14F01BDF97EC21F0A2
:102A100046E91200AF51780BE842E842E842120062
:102A2000F3CFE9FFF4CFEAFF1200E552E750EF6E73
:102A300012000101D950070FF96FDACFFAF1120035
:102A400021DF0DEBE6FF0EEBE6FF1200B9DFFAEF38
:102A500014F0810EBCDF730EEFEF14F0B1DF63EF03
:102A600014F0AEDFEE521200EA6A640FE96E010E56
:102A7000EA221200A8DF330EEFEF14F0A1DFCBEF54
:0E2A800014F0B1DFEE521200830EE3EF14F0FB
:022A8E0090DBDB
:102A900086E90150010600090CE002EBE6FF03EBBA
:102AA000E6FF00EBE6FF69DBF4E1B21DF2E1010EA7
:102AB00001D0000E41E9E5CFDAFFE7CFD9FF1200E0
:102AC00077DB89E97BE80A6A0B6A02EBF6FF03EB26
:102AD000F7FF04EBF8FF0800F550096E095001E11B
:102AE0002DD3250E095C01E01BD30C6A0D6A0E6A1A
:102AF0000F6A106A2DDB2D0E095C0CE02B0E095CB1
:102B000009E0200E095C06E0230E095C03E0300EAC
:102B1000095C15E10950300A10E0130A0CE0030AC1
:102B200008E00B0A04E0060AE5E10C80E3D70C821A
:102B3000E1D70C84DFD70C86DDD70C88DBD72A0ED3
:102B4000095C13E1A5DB0DE30C801CEBB1FE1DEB72
:102B5000B2FE0E01B16DB21F000EB223B1510D6E67
:102B600002D09CEB0DF0F4DA07D0126A3FDB02E0F2
:102B70006BDBFCD792EB0DF00CB00C982E0E095CC1
:102B800015E1E6DA2A0E095C08E182DB04E29CEB3F
:102B90000EF0010E0F6EDCDA09D0126A27DB02E0BC
:102BA00053DBFCD792EB0EF0010E0F6E680E095C42
:102BB00007E1CEDA680E095C1DE1030E106E19D034
:102BC000740E095C16E07A0E095C13E0480E095C8D
:102BD00006E0540E095C03E05A0E095C02E1020EA5
:102BE00007D06C0E095C03E06A0E095C03E1010E7C
:102BF000106EAEDA09506E0A01E16ED21E0A01E1D2
:102C000028D1200A01E125D13F0A01E1FDD01A0AAD
:102C100001E1FAD00D0A01E1F7D0200A01E1F4D078
:102C20003A0A01E1F1D0200A01E1EED0260A01E1E1
:102C3000EAD00D0A01E1E7D01A0A01E19ED0200A8C
:102C40003BE0300A1AE0460A0EE0250A01E072D2A3
:102C5000D950020FE96E000EDA20EA6E010EEE5E28
:102C6000000EEE5AEE5A0FDB250EE66E86DA03E111
:102C7000B21D01E159D20A2A5BD2116A0D50010836
:102C800003E20D04116EF5DA115007E0010E0C1489
:102C900004E16DDA01E048D2116AD3DAEF50096E2F
:102CA000CBDA03E1B21D01E13FD20A2A000E0B226A
:102CB0005EDA01E13FD238D2020E105C08E1030E69
:102CC0004EDAEE50176EEE50186EEF5007D0E7DA7E
:102CD000B36BB151176EB251186EB351196E17EB39
:102CE000E6FF18EBE6FF19EBE6FF32EC27F043E9CD
:102CF00009C2B1FE0AC2B2FE0BC2B3FE0E01B1514F
:102D00001C6EB2511D6E0F5006E01C500E5C03E2AB
:102D10000E501C6E1D6A1C500D5C02E29CEB0DF007
:102D200050DA05E00D500E5C02E28EEB0DF00CB0B7
:102D300004D01DDA01E0F8D1116A126A17EBF6FF30
:102D400018EBF7FF19EBF8FF0800F550096E095072
:102D500010E00D50125C0DE26FDA03E1B21D01E1EB
:102D6000E3D10A2A000E0B22122AD950170F55DA86
:102D7000EBD7FDD901E1DED1D7D163DAEE501A6E7F
:102D8000ED501B6E1AEBE6FF1BEBE6FF24EC27F081
:102D900042E9F3501C6EF4501D6E0F5006E01C50BB
:102DA0000E5C03E20E501C6E1D6A1C500D5C02E2AC
:102DB0009CEB0DF006DA05E00D500E5C02E28EEBA6
:102DC0000DF00CB004D0D3D901E0AED1116A126A73
:102DD0001AEBE9FF1BEBEAFFEF50096E09500FE019
:102DE0000D50125C0CE228DA03E1B21D01E19CD126
:102DF0000A2A000E0B22122A1A2A1B22E9D7B7D957
:102E000001E198D191D10C8E10040AE1040EA7D9EA
:102E1000EE50136EEE50146EEE50156EEF5032D031
:102E2000030E105C16E10CAE0CD00BDAEFCFB1FE46
:102E30000E01B26BB36BB46BB1AF23D0B269B3699F
:102E40001FD0FFD9EFCFB1FE0E01B151136E146A3E
:102E500020D0020E105C0CE10CAE06D0030E7FD920
:102E6000B6D9B3AF0ED00CD0030E79D9B0D909D0F2
:102E70000CAE0AD014DAB36BB46BB2AF02D0B36944
:102E8000B469BCD9166E07D00ADAB151136EB251CB
:102E9000146E156A166A0F5002E1010E0E6E1E6A5C
:102EA0001F6AD950400FE66E000EDA20E66EE5523A
:102EB000E550436EE750426E416A116A0A0E106E89
:102EC0000950780A12E0200A10E0280A0CE0200AD3
:102ED0000AE03F0A06E00D0A02E0200A08E1020EBD
:102EE00005D0080E03D0080E0926100E106E0CBE79
:102EF00002D00C920C94800E0C1417E0163415E3DB
:102F0000E668E668E668E66842D992EC22F0E552A7
:102F1000E5CFB4FEE5CFB3FEE5CFB2FEE7CFB1FE1D
:102F20000E016CD9166E2D0E07D00CA202D02B0EFE
:102F300003D00CA404D0200E206E1E2A01D0206ADB
:102F40000E5005E1135014101510161061E00E011B
:102F5000260EB16F500EB26F000EB36F83D9F2EC34
:102F600022F0E552E5CFB7FEE5CFB6FEE5CFB5FEE0
:102F7000E7CFB4FE0E01B151B425F36EB251B521C5
:102F8000F46EB351B621F86EF4CFF7FFF3CFF6FF2E
:102F90000800F550126E580E095C05E1610E125CD6
:102FA00002E3200E125E5ED9EFEC22F0E552E5500E
:102FB000166EE550156EE550146EE750136E42EB39
:102FC000E9FF43EBEAFF4206000E435A12EBEFFF24
:102FD0001E2A1350141015101610B9E10CA619D0A2
:102FE0006F0E095C06E10E501E5C13E31E280E6E88
:102FF00010D0780E095C09E0580E095C06E0620EFC
:10300000095C03E0420E095C04E1020E1F6E01D070
:103010001E6A100E0C1407E00D500E5C04E20F50F7
:1030200002E18DEB0EF00E501E5C03E21E500E5EB0
:1030300001D00E6A0E501E241F24D8800D5407E2C2
:103040000E500D5CD8801E54D8801F54116E010E96
:103050000C1406E1115004E08AD866E10AD9116A1D
:10306000205007E010D920EBE6FF87D802E1B21D1F
:103070005BE01F500BE007D9300EE66E7ED802E110
:10308000B21D52E0D9D802E1B21D4EE00E501F5CD5
:1030900002E21F500E5E300EE66E0EEBE6FFDCD84D
:1030A00043E1422A000E432242EBE9FF43EBEAFFF1
:1030B000EF50126E125008E0E6D812EBE6FF5DD832
:1030C000F0E1B21DEEE130D052D82EE10E501E24B8
:1030D00011241F240A262CD01050030A1CE0010AD8
:1030E00014E0030A07E0ADD8C9D80AEBEEFF0BEBFA
:1030F000EDFF20D08BD8B46BB2AF02D0B369B46906
:10310000A0D84ED8B4CEEEFF15D080D8B2BFB369E8
:1031100098D846D80FD095D8B1D80AEBEFFF0AD08F
:103120008BD805E1B21D03E1F368F4680BD00A2ADD
:10313000000E0B22D950020F70D8CDD40AEBF3FF4A
:103140000BEBF4FF7CE9E5CFDAFFE7CFD9FF120004
:10315000D950020F62D80800F550096E1200005EC7
:10316000000E015A00EBE9FF01EBEAFF1200200E0E
:10317000E66E11EBE6FF2CEF19F057EC27F043E970
:10318000F3CFB1FEF4CFB2FE0E01F31C120013EB2D
:10319000E6FF14EBE6FF15EBE6FF16EBE6FF120089
:1031A0006DD8B1CEEEFFB2CEEEFFB3CEEEFF120081
:1031B000D9CFE6FFDACFE6FFE1CFD9FFE2CFDAFFE2
:1031C00012001C500D5C116E54D80F501200EECF3F
:1031D000B1FEEECFB2FEEFCFB3FE0E01B46B120024
:1031E000EECFB1FEEFCFB2FE0E0112000950E66E37
:1031F000E66AD6EC27F042E9F3501200B151136EA3
:10320000B251146EB351156EB45112000AEBB1FEF7
:103210000BEBB2FE0E01B36B1200E96E000EDA206A
:10322000EA6EEF2AEECFF6FF000EEF22EECFF7FFA9
:10323000EF22EECFF8FF120026D809EBE6FFBDEF34
:1032400018F0020EAFEF18F00A0E1202F350092424
:10325000D00F126EA8EF18F016D847EC15F044E91D
:103260000009120010EBE6FFE66AE66AE66AC7EFBD
:1032700018F011500A26000E0B221200EE50EFCF6C
:10328000EAFFE96E120005EBE6FF06EBE6FF12002F
:10329000D8DFEE501C6EED501D6E1D341200D1DFD4
:0432A000F0EF18F043
:0C32A400D9CFE6FFE1CFD9FF81E952E865
:1032B0000368046A056A0E6A0F6A106A116A126A64
:1032C00035EC23F055EC25F0940EE66E3D0EE66EDF
:1032D0005EEC25F042E97D0EE66E3D0EE66E5EEC9C
:1032E00025F042E9620EE66E3D0EE66E5EEC25F0DC
:1032F00042E9470EE66E3D0EE66E5EEC25F042E9D1
:103300002F0EE66E3D0EE66E5EEC25F042E9140EE1
:10331000E66E3D0EE66E5EEC25F042E9F90EE66ED5
:103320003C0EE66E5EEC25F042E9DA0EE66E3C0EEF
:10333000E66E5EEC25F042E9C30EE66E3C0EE66EEC
:103340005EEC25F042E9830EE66E3C0EE66E5EEC26
:1033500025F042E9430EE66E3C0EE66E5EEC25F08B
:1033600042E9010EE66E3C0EE66E5EEC25F042E9A7
:10337000C10EE66E3B0EE66E5EEC25F042E97F0E76
:10338000E66E3B0EE66E5EEC25F042E93F0EE66E21
:103390003B0EE66E5EEC25F042E93A0EE66E3B0E21
:1033A000E66E5EEC25F042E989948996010EE66EA0
:1033B000E66A1A0EE66E3B0EE66E96EC23F044E9E2
:1033C0008150010B1BE1010EE66EF6EC05F041E9C0
:1033D000010814E1010EE66EE66AFE0EE66E3A0E94
:1033E000E66E96EC23F044E9B10EE66E3A0EE66E18
:1033F0005EEC25F042E981A0FED796D0E66AF6ECB5
:1034000005F041E9970EE66E3A0EE66E5EEC25F0A9
:1034100042E9E66AE66A870EE66E3A0EE66E96ECDA
:1034200023F044E9E668E668E668E6680A0EE66EB8
:1034300006EC07F045E9026E025049E06D0EE66EBB
:103440003A0EE66E5EEC25F042E9016A0250015C3C
:103450003EE2630EE66E3A0EE66E5EEC25F042E961
:1034600001500B0DF3CFE9FFF4CFEAFF0C0EE92674
:103470000E0EEA22EFCFE6FF9BEC25F041E9590E54
:10348000E66E3A0EE66E5EEC25F042E901500B0D59
:10349000F3CFE9FFF4CFEAFF0C0EE9260E0EEA2285
:1034A000070EE926000EEA22EFCFE6FF88EC25F0B2
:1034B00041E901500B0DF3CFE9FFF4CFEAFF0C0E09
:1034C000E9260E0EEA22EF50036E012ABFD7FF0E47
:1034D000035C06E003EBE6FFE1EC06F041E908D00F
:1034E000380EE66E3A0EE66E5EEC25F042E99AD7AB
:1034F000E66AF6EC06F041E9E66AE66A89EC07F06E
:1035000042E9016E230EE66E3A0EE66E5EEC25F0A1
:1035100042E9010EE66E04C2E6FF040EE66E3A0EC4
:10352000E66E96EC23F044E98984E668EAEC03F061
:1035300041E9E66AE66AE70EE66E390EE66E96EC5B
:1035400023F044E975EC08F0000901E180D00E0198
:1035500001A707D0DE0EE66E390EE66E5EEC25F0B2
:1035600042E90E010151030B000908E0C20EE66EAC
:10357000390EE66E5EEC25F042E907D0A80EE66E45
:10358000390EE66E5EEC25F042E909CEE6FF88ECE6
:1035900025F041E90E0101AD34D0A10EE66E390EE1
:1035A000E66E5EEC25F042E90E0101AF16D0010E89
:1035B0000E01EA6A0425E96E0551EA22EFCFE6FF23
:1035C00088EC25F041E904CEE9FF05CEEAFFEFCF14
:1035D000E6FF88EC25F041E914D0016A040E015C95
:1035E00010E2030ED88001540E01EA6A0425E96E48
:1035F0000551EA22EFCFE6FF88EC25F041E9012AE8
:10360000EDD79E0EE66E390EE66E5EEC25F042E9D1
:10361000016A0E010851015C0EE201500E01EA6AD6
:103620000625E96E0751EA22EFCFE6FF79EC25F097
:1036300041E9012AEED789767DEC08F0112A11EBD9
:10364000E6FF10EBE6FF75EC23F042E947D10E50A0
:1036500003082AE2E66AE66A7F0EE66E390EE66E37
:1036600096EC23F044E95B0EE66E390EE66E5EECF6
:1036700025F042E9010EE66EAAEC06F041E9E668A3
:10368000E668E668E668E66ACDEC09F045E90E6AA8
:103690000F6AE66A04C2E6FF3C0EE66E390EE66E7D
:1036A00096EC23F044E902D0010E0F6E0F5001E1B9
:1036B00015D10F6AE66AAAEC06F041E90400C08061
:1036C000F292F19CF288F092F198F088A8A2FED7CD
:1036D0000300F298F098C090B7EC23F0126E020E3F
:1036E000E66EAAEC06F041E9000813E2260EE66E4B
:1036F000390EE66E5EEC25F042E90E2AE66A0EEB24
:10370000E6FF090EE66E390EE66E96EC23F044E90C
:103710000AD00E5007E011EBE6FF10EBE6FF75EC68
:1037200023F042E90E6A1250020A62E0030A01E045
:10373000D4D00E010B0E456F060EE66E04EBE6FFCD
:1037400073EC22F041E9E750000915E10E01455103
:10375000452BEA6A000FE96E000EEA220D0EEF6EAD
:103760000E014551452BEA6A000FE96E000EEA2270
:103770000A0EEF6E2FD0016A150E015C2BE2060EC9
:10378000E66E04EBE6FF73EC22F041E9E750FF0F31
:10379000150DF3CFB1FEF4CFB2FEA80E0E01B12786
:1037A0004B0E0E01B22301500E01F76AB125F66EE1
:1037B000B251F7220800F550E66E0E014551452B37
:1037C000EA6A000FE96E000EEA22E552E750EF6E5A
:1037D000012AD2D7042AE66A81EC08F041E911EB0C
:1037E000E6FF102A10EBE6FF75EC23F042E976D0F5
:1037F0000E010B0E456F060EE66E05EBE6FF73EC51
:1038000022F041E9E750000915E10E014551452B31
:10381000EA6A000FE96E000EEA220D0EEF6E0E014D
:103820004551452BEA6A000FE96E000EEA220A0EA6
:10383000EF6E2FD0016A0B0E015C2BE2060EE66ED6
:1038400005EBE6FF73EC22F041E9E750FF0F0B0DAB
:10385000F3CFB1FEF4CFB2FE110E0E01B1274C0E24
:103860000E01B22301500E01F76AB125F66EB25176
:10387000F7220800F550E66E0E014551452BEA6A25
:10388000000FE96E000EEA22E552E750EF6E012AC2
:10389000D2D7052A010EE66EE66A94EC08F042E9FA
:1038A000000912E1F60EE66E380EE66E5EEC25F0CB
:1038B00042E9010EE66EE66AE60EE66E380EE66E48
:1038C00096EC23F044E901D0102A11EBE6FF10EB4F
:1038D000E6FF75EC23F042E901D000D033D653E97E
:0638E000E7CFD9FF120042
:0A38E60020556E696361737420467B
:1038F00061696C6564000D0A556E696361737420BB
:103900004661696C65640D0A00436F6E6E65637491
:10391000696F6E204C6F7374202020202025642056
:1039200054696D6573000D0A4461746120526571BC
:1039300075657374204661696C6564002052657317
:10394000796E6368726F6E697A65642020746F2087
:103950004368616E6E656C202564000D0A526573C4
:10396000796E6368726F6E697A696E6720746865D4
:1039700020436F6E6E656374696F6E2E2E2E00523B
:103980006573796E6368726F6E697A696E672074A9
:10399000686520436F6E6E656374696F6E003A20D0
:1039A000002066726F6D2000556E6963617374202C
:1039B0005061636B65742077697468205253534972
:1039C000200042726F616463617374205061636BA5
:1039D00065742077697468205253534920005365F9
:1039E000637572656420005242303A2042726F6102
:1039F000646361737420205242323A20556E6963C9
:103A00006173740020436F6E6E656374656420504B
:103A100065657220206F6E204368616E6E656C2054
:103A20002564000D0A436F6E6E656374696F6E20C6
:103A300043726561746564000D0A4E6F20537569A9
:103A40007461626C652050414E2C20526573636135
:103A50006E6E696E672E2E2E002020205253534921
:103A60003A20004368616E6E656C3A20000D0A4191
:103A70006374697665205363616E20526573756C5B
:103A800074733A200D0A00416374697665205363AC
:103A9000616E6E696E67000D0A5374617274696EAF
:103AA0006720416374697665205363616E2E2E2E04
:103AB000000D0A4E6574776F726B20467265657AE9
:103AC0006572204665617475726520697320656E44
:103AD00061626C65642E2054686572652077696C3C
:103AE0006C206265206E6F2068616E642D73686162
:103AF0006B652070726F636573732E0D0A00204E24
:103B00006574776F726B20467265657A65722020E6
:103B10002020454E41424C45440046656174757213
:103B200065204D6957692044656D204D52463439F2
:103B30005841204E6F64652032000D0A0D0A000DB9
:103B40000A2020202020202020202020202020208B
:103B500020202020202077696C6C20626520746F03
:103B600067676C65642075706F6E20726563656948
:103B700076696E67206D657373616765732E000DDE
:103B80000A2020202020202020202020202020204B
:103B900020202020202050494344454D205A206FAA
:103BA00072204578706C6F726572203136206465C2
:103BB0006D6F20626F617264732E204C4544203219
:103BC000000D0A202020202020202020202020203E
:103BD0002020202020202020427574746F6E203217
:103BE00020746F20756E696361737420656E6372F3
:103BF0007970746564206D657373616765206F6E9D
:103C0000000D0A20202020202020202020202020FD
:103C100020202020202020205075736820427574B9
:103C2000746F6E203120746F2062726F6164636103
:103C300073742061206D6573736167652E20507504
:103C40007368000D0A202020202020202020202022
:103C500020202020202020202020746F20696E64E6
:103C6000696361746520697420697320636F6E6E87
:103C7000656374656420746F207468652070656581
:103C8000722E000D0A20202020202020202020201D
:103C900020202020202020202020506F77657220B7
:103CA0006F6E2074686520626F61726420756E7437
:103CB000696C204C45442031206C6967687473201E
:103CC0007570000D0A20202044656D6F20496E73C9
:103CD0007472756374696F6E3A000D0A202020209B
:103CE000205246205472616E736365697665723A3C
:103CF000204D524634395841000D0A202020202002
:103D00002020202020202020204C454420323A2012
:103D1000524133000D0A2020202020202020202086
:103D2000202020204C454420313A20524132000DC1
:103D30000A4F757470757420436F6E66696775728B
:103D40006174696F6E3A000D0A2020202020202027
:103D500020202020427574746F6E20323A20524227
:103D600032000D0A20202020202020202020204268
:103D70007574746F6E20313A20524230000D0A493A
:103D80006E70757420436F6E6669677572617469D1
:103D90006F6E3A000D0A5374617274696E67204E3B
:103DA0006F64652032206F662046656174757265A8
:103DB0002044656D6F20666F72204D6957692854E5
:103DC0004D2920537461636B202E2E2E00525820F3
:103DD0004D657373616765733A20253364005458E9
:103DE000204D657373616765733A20253364000D58
:103DF0000A000D0A526573796E6368726F6E697A94
:103E0000656420436F6E6E656374696F6E20746FB6
:103E1000204368616E6E656C20000D0A436865631F
:103E20006B696E67204368616E6E656C20000D0AD9
:103E30005363616E204368616E6E656C2000536849
:103E40006F7274416464723A002050414E49443AA2
:103E5000004368616E6E656C3A002020000D0A41D7
:103E60007661696C61626C65206E6F6465730D0AC2
:103E700048616E646C652052582044432050414E86
:103E800049442041444452204C4F4E475F414444F2
:103E9000522020202020202020504545525F494EAE
:103EA000464F0D0A0020204368616E6E656C3A2013
:103EB00000202050414E49443A2000202053686F92
:103EC000727420416464723A20000D0A0D0A416444
:103ED00064726573733A203078000D0A4A6F696E18
:103EE00020746865206E6574776F726B20737563DC
:0C3EF0006365737366756C6C790D0A00D5
:043EFC00EFD985E98C
:103F000049E802EBE9FF03EBEAFFEE50056EED50E6
:103F1000066ECCD9EE50076EED50086E096A0A6A3B
:103F2000370E0B6E9E0E0C6E0D6A200E0D5C5CE261
:103F30000E010838F00BB86F07380F0BB8130738AD
:103F4000F00BB76F07EBB9FE08EBBAFE050ED89081
:103F5000BA33B933E804FBE1A1D90750B525B36FF3
:103F60000850B621B46F030E0914BD6FBE6B010E6D
:103F7000D890BD37BE37E806FBE12ED90526B251F1
:103F800006220B5009260C500A220638F00BB86F97
:103F900005380F0BB8130538F00BB76F05EBB9FEFA
:103FA00006EBBAFE050ED890BA33B933E804FBE14C
:103FB00075D90550B525B36F0650B621B46F0A38D0
:103FC000E8441F0BBD6FBE6B030EBD17000EBE177E
:103FD000010ED890BD37BE37E806FBE1FDD80726B5
:103FE000B25108220D2AA1D702EBE9FF03EBEAFF49
:103FF00005EBEEFF06EBEDFF59D907EBEEFF08EB03
:10400000EDFF4AE9E7CFD9FF12000AD901E0010E1E
:104010000B6EF29E096A0850095C2DE20A6A030ED3
:104020000A5C0BE20A5034D9EF50E66E0A50F2D81F
:10403000E552E750EF6E0A2AF2D709EB10F202EBD5
:10404000E6FF03EBE6FF0D0EE66E020EE66E56DFB0
:1040500044E90A6A040E0A5C0CE22FD90AE20A500B
:10406000D9D8EFCFB1FEFBD80E01B151EF1A0A2A11
:10407000F1D7092AD0D70B50E8B0F28EE8A0F29E13
:1040800045E9E7CFD9FF1200CBD801E0010E0B6E56
:10409000F29E096A040E095C05E20950F9D8EF6A3C
:1040A000092AF8D7096A0850095C1CE20A6A040E5A
:1040B0000A5C0CE202D90AE2D2D8EFCFB1FE0A5074
:1040C000E7D80E01B151EF1A0A2AF1D702EBE6FF49
:1040D00003EBE6FF00EBE6FF01EBE6FF0FDF44E951
:1040E000092AE1D70B50E8B0F28EE8A0F29E45E92C
:1040F000E7CFD9FF1200C6D801E0010E086EF29E8C
:1041000080D803500224B5D8040E075C0AE2075099
:1041100081D8EF50E66E0350022407249AD8D4D8F1
:10412000F3D7076A030E075C0AE20350075C04E258
:1041300007508FD8EF5001D0000ECBD8F3D761D8FD
:10414000040E0224E66E78D80850E8B0F28EE8A09B
:10415000F29E43E9E7CFD9FF120094D801E0010EA7
:10416000086EF29E076A030E075C0AE20350075CC2
:1041700004E207506ED8EF5001D0000EAAD8F3D752
:1041800040D802EBE6FF58D83CD803500224FE0F7B
:1041900070D8020E075C16E207503CD8EFCFB1FE94
:1041A00003500224FE0F072454D8EF500E01B15DD6
:1041B00007E00850E8B0F28EE8A0F29E000E08D0AA
:1041C000072AE7D70850E8B0F28EE8A0F29E010E69
:1041D00043E9E7CFD9FF12000E01BD510024E96E7B
:1041E000BE510120EA6EEE500924BB6FED500A204B
:1041F000BC6FB351BB19B16FB451BC19B26FB1519F
:1042000012000D0EE66E020EE66E00EBE6FF01EB0D
:10421000E6FF1200EA6A0D0FE96E020EEA221200B2
:104220005DD888E944E80450FC0BE842E842010FFD
:10423000086EF250800B120003500E010424B16F7F
:10424000000E0520B26FB1CEE6FFE66EDEDE47E976
:1042500012000424E96E000E0520EA6E1200040E1E
:104260000902F3500A240524E96E000E0620EA6EC6
:104270001200E66E04EBE6FF05EBE6FF05DF47E91B
:10428000076A12002BD887E942E8F250800B12002F
:104290000024E96E000E0120EA6E12000E01B751F3
:1042A000B919B56FB851BA19B66F1200020E0224CF
:1042B000E96E000E0320EA6E1200040E0902F350AC
:1042C0000A24D88004541200E552E750EF6E072A02
:1042D0001200E66E07509EDF64EF21F0D9CFE6FFB3
:0642E000E1CFD9FF12003E
:0A42E600DBD887E941E8F250800BB5
:1042F00001E0010E076EF29E8C9A030EC3D80050A7
:1043000001100BE099EC27F0E66ECED8E552E750AD
:10431000EF6E0006000E015AF2D78C8A0750E8B003
:10432000F28EE8A0F29E42E9E7CFD9FF1200B7D89B
:1043300087E942E8076AF250800B01E0010E086E3F
:10434000F29E8C9A050EE66EB7D899EC27F0076EB0
:104350008C8A2EEC00F007B0F4D78C9A060EE66E2D
:10436000ABD88C8A2EEC00F08C9A020E8BD8076AA0
:104370000050011018E098D8EFCFE6FF9DD8000656
:10438000000E015A072A07500E010224B16F000ED9
:104390000320B26FB1513F0BEBE18C8A075002262C
:1043A000000E0322CED78C8A0850E8B0F28EE8A027
:1043B000F29E43E9E7CFD9FF120071D885E9F70EE5
:1043C000E96E010EEA6E0E01EE500224B16FED505F
:1043D0000320B26FB36BB335000EB31907E6D88074
:1043E000000EB155800EB255000EB35502E2000E1C
:1043F0000ED000EBE9FF01EBEAFFF7C1EEFFF8C1D9
:10440000EDFF01010250F7270350F823010E41E9A7
:10441000E7CFD9FF120043D881E941E8010E016ED0
:104420000101F76BF86BE90EE66E010EE66E020E07
:1044300023D8EB0EE66E010E43D8ED0EE66E010EAC
:104440003FD8EF0EE66E010EE66E640E15D8F10E43
:10445000E66E010EE66E040E0FD8F30EE66E010E48
:10446000E66E020E09D8F50EE66E010E29D801504F
:1044700042E9E7CFD9FF1200E66EE66A9EDF44E923
:1044800001161200E66E18D80E0103EBB1FEB26BF6
:10449000B1CEE6FF11D802EBE6FF5CEF22F0D9CFF8
:1044A000E6FFE1CFD9FF120004EBE9FF05EBEAFFDD
:1044B000042A000E052212008AEC27F041E91200BE
:0844C000E66E010E3CEF22F054
:0844C80042E8D9CFE6FFDACF8C
:1044D000E6FFE1CFD9FFE2CFDAFF86E9036A1200F7
:1044E000F3DF038003D0F0DF01D00382026A080EFD
:1044F000E76ED890013602360050025C02E3026E8D
:10450000012AE72EF7D703B2120003B081EB00F0C7
:1045100003A082EB00F0E552E5CFDAFFE7CFD9FF49
:1045200043E9120044E8D9CFE6FFDACFE6FFE1CF56
:10453000D9FFE2CFDAFF8EE980EB08F081EB09F0DA
:1045400082EB0AF083EB0BF004500802F350006E8C
:10455000F450016E04500902F3500126000EF420BD
:10456000026E04500A02F3500226000EF420036E7D
:1045700004500B02F350032605500802F3500126A5
:10458000F4500222000E032205500902F3500226C5
:10459000F450032205500A02F35003260650080285
:1045A000F3500226F450032206500902F35003266A
:1045B00007500802F3500326E552E5CFDAFFE7CFB4
:1045C000D9FF48E9000C45E8D9CFE6FFDACFE6FF8E
:1045D000E1CFD9FFE2CFDAFF8FE90C6A1200F3DFF7
:1045E0000C8003D0F0DF01D00C820B6A0A6A096AE2
:1045F000086A200EE76ED890043605360636073670
:10460000083609360A360B360050085C0150095846
:1046100002500A5803500B5809E30050085E01503D
:10462000095A02500A5A03500B5A042AE72EE4D7BB
:104630000CB212000CB00AD088EB00F089EB01F04C
:104640008AEB02F08BEB03F00CA008D084EB00F0B7
:1046500085EB01F086EB02F087EB03F0E552E5CF46
:0A466000DAFFE7CFD9FF49E91200A5
:06466A007B0ED36EC09030
:10467000550EA76EAA0EA76E0E01FF91050EE86FEC
:10468000060EE96F130EF66F050ED76F550EA76E67
:10469000AA0EA76EFF810F0148693F0E496FF19E78
:1046A00092689368946895689668896A8A6A8C6A41
:1046B0008D6A938093849294929694948B84959E21
:1046C0008C8E9386938A949E9398949CC00EC76E0A
:1046D000210EC66E969295868D82F196959A8C8A59
:1046E000F28EF094F08A06EF25F087D883E925EC66
:1046F00025F00150E66EE66ADE0EE66E3D0EE66ED1
:1047000073D80050E66EE66ACD0EE66E3D0EE66E9C
:10471000E66AA00EE66E0E0EE66EEBEC26F047E9BA
:1047200039EC25F041E9E7CFD9FF120066D885E9D9
:1047300041E825EC25F00150E66EE66A02EBE6FF63
:1047400003EBE6FF51D839EC25F000500CE0056A88
:10475000080E055C08E2FA0EE66EE66A61EC24F0EB
:1047600042E9052AF5D742E9E7CFD9FF120045D83B
:1047700081E944E881B004D081A0FED7010E07D0C2
:1047800081B404D081A4FED7020E01D0000E45E909
:10479000E7CFD9FF1200F250100B04E0F250020BE9
:1047A00001E0F292F050100B04E0F050020B01E037
:1047B000F092F250080B04E0F250010B01E0F2908D
:1047C000A050020B05E0A150020B02E0A1928974F7
:1047D000A4AE09D0A49EBFEC24F0050EE66EE66AF6
:1047E00061EC24F042E91200E66A900EE66E0E0ECD
:1047F000E66EEBEC26F047E91200D9CFE6FFE1CFF9
:04480000D9FF1200CA
:0C480400D9CFE6FFE1CFD9FF85E944E8F9
:1048100054D000EBE6FF01EBE6FF02EBE6FF03EB13
:10482000E6FF140EE66EE66AE66AE66A92EC22F0AD
:10483000E552E5CFB4FEE5CFB3FEE5CFB2FEE7CF5C
:10484000B1FE0E01B151056EB251066EB351076E45
:10485000B451086ED950050FE96EDACFEAFFAF0EFA
:10486000EE5E000EEE5A000EEE5A000EEE5A0834BE
:1048700008E205502D08000E0654000E0754000EE5
:10488000085401E31AD0083408E205500008000E6D
:104890000654000E0754000E08540FE20000D950D1
:1048A000050FE96EDACFEAFF2A0EEE5E000EEE5A31
:1048B000000EEE5A000EEE5AE6D745E9E7CFD9FFD3
:1048C0001200D9CFE6FFE1CFD9FF83E944E800EB3E
:1048D000E6FF01EBE6FFE66AE66AD00EE66E070E3B
:1048E000E66EE66AE66A92EC22F0E552E5CFB4FEA7
:1048F000E5CFB3FEE5CFB2FEE7CFB1FE0E01B15179
:10490000036EB251046EB351056EB451066ED950A8
:10491000030FE96EDACFEAFFAA0EEE5E000EEE5A42
:10492000000EEE5A000EEE5A063408E20350C30899
:10493000000E0454000E0554000E065402E31BD072
:104940001AD0063408E203500008000E0454000E8A
:104950000554000E06540FE20000D950030FE96E13
:10496000DACFEAFF270EEE5E000EEE5A000EEE5A88
:0E497000000EEE5AE6D745E9E7CFD9FF120058
:02497E00020134
:104980001151135D03E31251145D2CE271B0FED797
:1049900002011151135D11E21351EA6A8C0FE96EA5
:1049A0000E0EEA22EF50756E132B1151135D1AE1B2
:1049B000125118E1718447EF25F01251145D12E293
:1049C00014516DD8EF5004E1145169D8200EEF6EE8
:1049D000145165D8EF50756E142B1251145D02E11D
:1049E000718455D81200D9CFE6FFE1CFD9FF83E912
:1049F00071B4FED70201136B146B01EB11F200EBE3
:104A000012F2718041E9E7CFD9FF1200530E9512DF
:104A1000A49E736AF00E746E280E726E716AA38E75
:104A2000F28EF28C34D80E017C0E8C6F810E8D6F5D
:104A30008E6BE66A030EE66ED6DF42E9C80EE66EBE
:104A4000E66A61EC24F042E91200D9CFE6FFE1CF3B
:104A5000D9FF81E941E8016A200E015C06E20150BC
:104A60001ED8200EEF6E012AF7D742E9E7CFD9FF13
:104A700012000E017C0E8C6F320E8D6F8E6B200E2D
:104A80008F6FE66E040EE66EAEDF42E912002C0E6A
:104A9000E66E010EE66E61EC24F042E91200EA6A6D
:0A4AA000900FE96E0E0EEA221200DC
:064AAA009584949C240E8B
:104AB000A86E900E9C6E190EAB6E1200D9CFE6FF59
:104AC000E1CFD9FF83E941E800EBF6FF01EBF7FF07
:104AD000002A000E01220800F550036E035005E085
:104AE00003EBE6FF06D841E9EFD742E9E7CFD9FF6C
:104AF00012004ED8A8A2FED700EBA9FF41E9E7CFEC
:104B0000D9FF12009CA202D09C989C88AA50120047
:104B10003FD841E880EB02F000380F0B0F0B006E1E
:104B200000502BD80F0E0214006E005026D842E918
:104B3000E7CFD9FF12002CD8640E005C05E3640EA9
:104B4000E66E00EBE6FF2AD80A0E005C09E30A0EC7
:104B5000E66E640EE66E00EBE6FF73EC22F01ED804
:104B60000A0EE66E00EBE6FF73EC22F041E9E75037
:104B700004D841E9E7CFD9FF1200F76A370FF66E84
:104B8000500EF7220800F5CFE6FFB3DF41E912002F
:104B9000D9CFE6FFE1CFD9FF82E9120070EC22F015
:084BA00041E9E750BDEF25F0EB
:084BA80020B2202020B22020E1
:104BB000B220B22020202020B220B20D0AB220B2B2
:104BC00020B220B2202020B22020B22020B220200B
:104BD0000D0AB22020B22020B220B220B22020B292
:104BE0002020B220B20D0AB22020B22020B220B282
:104BF0002020B220B220B22020B20D0AB22020B272
:104C00002020B220B2202020B220B2202020B20DDD
:104C10000AB2B2B22020B2B2B2B20D0AB22020B2B1
:104C200020B22020200D0AB22020B220B2B2B2B2AF
:104C30000D0AB22020B220B22020200D0AB2B2B25A
:084C40002020B2B2B2B20D0A4D
:084C48001E0EF66E000EF76E61
:104C5000000EF86E00010900F550FB6F0900F550D9
:104C6000FC6F03E1FB6701D03DD00900F550F66F02
:104C70000900F550F76F0900F550F86F09000900B9
:104C8000F550E96E0900F550EA6E090009000900C7
:104C9000F550F96F0900F550FA6F09000900F6CFD9
:104CA000FDF0F7CFFEF0F8CFFFF0F6C0F6FFF7C04B
:104CB000F7FFF8C0F8FF0001F95302E1FA5307E0EB
:104CC0000900F550EE6EF907F8E2FA07F9D7FDC0D2
:104CD000F6FFFEC0F7FFFFC0F8FF0001FB07000E64
:064CE000FC5BBFD71200CF
:0A4CE600040ED56EF184F294F28AF8
:104CF000D58E0201156B166B1200D9CFE6FFE1CFFE
:104D0000D9FF81E946E8036A046AF29AF250040B7B
:104D100001E0010E056ED650016ED750026EF250C2
:104D2000040B01E0010E066E0650055CEFE1055034
:104D300006E0F2940201152B155101E1162B020138
:104D40001551032616510426F28A01EB09F202EBF3
:104D50000AF203EB0BF204EB0CF247E9E7CFD9FFC1
:024D600012003F
:0E4D6200D9CFE6FFE1CFD9FF86E943E880EB29
:104D700006F081EB07F00206023425E203EBE9FFBF
:104D800004EBEAFF032A000E0422EFCFB1FEB1CEFE
:104D9000B2FE0E01B16BB151061AB251071A086A80
:104DA000080E085CE8E20750800B08E0D890063651
:104DB0000736210E061A100E071A03D0D8900636B1
:104DC0000736082AEDD706EBF3FF07EBF4FF44E9BB
:064DD000E7CFD9FF12003D
:0A4DD600D9CFE6FFDACFE6FFE1CF08
:104DE000D9FFE2CFDAFF87E944E8D9CFE6FFDACF8F
:104DF000E6FFE552E5500A6EE750096E09EBE6FF63
:104E00000AEBE6FF00EBE6FF01EBE6FF02EBE6FF55
:104E1000D950030FE66E000EDA20E66E60EC15F056
:104E200047E9F350076EF450086E03EBE9FF04EB1B
:104E3000EAFFEF6A07EBF3FF08EBF4FF45E9E5CF84
:084E4000DAFFE7CFD9FF1200F1
:084E4800FE0EE3CFE9FFFF0EAF
:104E5000E3CFEAFFF36AF46AEE5203E0F34AF42A7E
:104E6000FBD71200FF0EE3CFF8FFE552FF0EE3CFB2
:104E7000F7FFE552FF0EE3CFF6FFE552E66AE66A7A
:104E8000E66A0900F55209E0FD0EE32A05E1FE0E8F
:104E9000E32A02E1FF0EE32AF4D7FD0EE3CF09F285
:0E4EA000FE0EE3CF0AF2FF0EE3CF0BF212007C
:024EAE00D9CF5A
:104EB000E6FFDACFE6FFE1CFD9FFE2CFDAFF85E9FF
:104EC000013415E200EBE9FF01EBEAFFEECFF3FF5F
:104ED000EDCFF4FFEE2A000EEF22F3CFE9FFF4CF7F
:104EE000EAFF02EBEFFFEF50F36EF46A0DD0FE0E17
:104EF000005C05E102EBE6FFF8EC27F004D002EBE2
:104F0000E6FF03EC00F041E941E9E5CFDAFFE7CF46
:044F1000D9FF1200B3
:0C4F140026D89E96C950026EC69E00EB87
:104F2000C9FFC6BEFBD79EA6FED742E9E7CFD9FF91
:104F30001200E66AEFDF41E9C950120012D8A49EC0
:104F4000729E00EB75FF72BEFBD7A4AEFED7A49E87
:104F500042E9E7CFD9FF1200E66AF0DF41E9755078
:104F60001200D9CFE6FFE1CFD9FF82E941E8120074
:104F700078000000B40000002C0100001C020000BA
:104F8000FC030000BC0700003C0F00003C1E0000BA
:104F90003C3C00003C7800003CF000003CE001009C
:0C4FA0003CC003003C8007003C000F00F8
:044FAC00F36AF46A46
:104FB000FF0EE124E96EFF0EE220EA6EED6607D0F7
:104FC0002F0EEF6404D03A0EEF6001D0F32A1200E6
:104FD000C00EF36E00EE00F00E0E01D81200EA6073
:104FE00002D0EE6AFCD7F350E9601200EE6AFCD7FB
:104FF000FF0EE350ADBA04D0B06AAC8EAD8A949C7B
:0C500000ADA2FED7AE6EF36EF46A120093
:04500C001DEE00F0A5
:105010002DEE00F0F86A24EC26F00BEC00F052ECD8
:0650200019F0FBD712009D
:0A5026003031323334353637383973
:075030006162636465660024
:095037003031323334353637389C
:07504000394142434445469B
:0950470002776655000004FF0029
:01505000005F
:04505100000000005B
:02505500000059
:0250570002193C
:01FFF800EC1C
:01FFF900F611
:01FFFA00D82E
:01FFFB00FB0A
:00000001FF
