:020000040000fa
:080000000002040000000000f2
:020000040000fa
:100008009c0600009c0600009c0600009c06000060
:100018009c0600009c0600009c0600009c06000050
:100028009c0600009c0600009c0600009c06000040
:100038009c0600009c0600009c0600009c06000030
:100048009c0600009c0600009c0600009c06000020
:100058009c0600009c0600009c0600009c06000010
:100068009c0600009c0600009c0600009c06000000
:100078009c0600009c0600009c0600009c060000f0
:100088009c0600009c0600009c060000e802000098
:100098009c0600009c0600009c0600009c060000d0
:1000a8009c0600009c0600009c0600009c060000c0
:1000b8009c0600009c0600009c0600009c060000b0
:1000c8009c0600009c0600009c0600009c060000a0
:1000d8009c0600009c0600009c0600009c06000090
:1000e8009c0600009c0600009c0600009c06000080
:1000f8009c0600009c0600009c0600009c06000070
:100108009c0600009c0600009c0600009c0600005f
:100118009c0600009c0600009c0600009c0600004f
:100128009c0600009c0600009c0600009c0600003f
:100138009c0600009c0600009c0600009c0600002f
:100148009c0600009c0600009c0600009c0600001f
:100158009c0600009c0600009c0600009c0600000f
:100168009c0600009c0600009c0600009c060000ff
:100178009c0600009c0600009c0600009c060000ef
:100188009c0600009c0600009c0600009c060000df
:100198009c0600009c0600009c0600009c060000cf
:1001a8009c0600009c0600009c0600009c060000bf
:1001b80002c400009c0600009c0600009c0600008b
:1001c8009c0600009c0600009c0600009c0600009f
:1001d8009c0600009c0600009c0600009c0600008f
:1001e8009c0600009c0600009c0600009c0600007f
:0801f8009c0600009c060000bb
:020000040000fa
:100208009c0600009c0600009c0600009c0600005e
:100218009c0600009c0600009c0600009c0600004e
:100228009c0600009c0600009c0600009c0600003e
:100238009c0600009c0600009c0600009c0600002e
:100248009c0600009c0600009c0600009c0600001e
:100258009c0600009c0600009c0600009c0600000e
:100268009c0600009c0600009c0600009c060000fe
:100278009c0600009c0600009c0600009c060000ee
:100288009c0600009c0600009c060000e802000096
:100298009c0600009c0600009c0600009c060000ce
:1002a8009c0600009c0600009c0600009c060000be
:1002b8009c0600009c0600009c0600009c060000ae
:1002c8009c0600009c0600009c0600009c0600009e
:1002d8009c0600009c0600009c0600009c0600008e
:1002e8009c0600009c0600009c0600009c0600007e
:1002f8009c0600009c0600009c0600009c0600006e
:100308009c0600009c0600009c0600009c0600005d
:100318009c0600009c0600009c0600009c0600004d
:100328009c0600009c0600009c0600009c0600003d
:100338009c0600009c0600009c0600009c0600002d
:100348009c0600009c0600009c0600009c0600001d
:100358009c0600009c0600009c0600009c0600000d
:100368009c0600009c0600009c0600009c060000fd
:100378009c0600009c0600009c0600009c060000ed
:100388009c0600009c0600009c0600009c060000dd
:100398009c0600009c0600009c0600009c060000cd
:1003a8009c0600009c0600009c0600009c060000bd
:1003b80002c400009c0600009c0600009c06000089
:1003c8009c0600009c0600009c0600009c0600009d
:1003d8009c0600009c0600009c0600009c0600008d
:1003e8009c0600009c0600009c0600009c0600007d
:0803f8009c0600009c060000b9
:020000040000fa
:10040000cf0e21000eaf24000e0188000000000076
:100410000c000700e0612f00010020000f00070022
:10042000000020000000e000020032000000020096
:100430000000000096030200000000000040da0007
:100440000000fe0040c020000000e000020032007a
:10045000002020009001880000000600a102880012
:10046000800078000000eb001a003700e2804000b6
:1004700054a0b4009101ba00e280400054a0b4003e
:100480009102ba00e280400054a0b4000002eb00e8
:10049000472bde00f507b200a6018800602ce100c2
:1004a00008003a000049eb000201e80002003900b0
:1004b0003420ec0002f0a0008301e900f9ff3e00c7
:1004c000040037006128e100010032000082eb00e7
:1004d000040007001101ba000200e000e3ff3a0047
:1004e0000000060004d0a300e20f49001c00390000
:1004f000810278003549ba000201e80002003900a3
:100500003420ec0002f0a0008301e9000f0032006b
:100510002549ba000201e800020039003420ec004d
:1005200002f0a0008301e900080032000400e000ae
:100530000600320015c9ba000201e80002003900c5
:100540003420ec0002f0a0008301e9008180e80083
:1005500054a0b4000300e000e2ff3a0000000600ef
:100560009102ba00055978008301e900f7ff3200d3
:10057000c82ade00055978008301e900f3ff320044
:100580000400e000f1ff320011d9ba00eeff37009d
:1005900070e6040000000000fce50400000000001c
:1005a000dae5040000000000e0f0040000000000b4
:1005b000acf004000000000032ed04000000000078
:1005c00092ea04000000000094eb04000000000028
:1005d00000a0fe003600f800849fbe00869fbe008b
:1005e0003200f80004202000940188009048800028
:1005f000a148800061004000e080480090488800e9
:10060000a14888001421ef008760a90096e002004d
:10061000000000003200f9004f03be004f02be0090
:100620003600f9000080fe00004006001421ef00b3
:10063000e0392000d00888008760a9009760a800f2
:100640001fe1a800000006000000eb000027880062
:10065000102788002027880030278800402788003e
:100660005027880060278800e224a900e204a9003e
:10067000c5c2a800c1c2a900d902a900c822a90008
:10068000c802a800103a8000f00bb20061042000fc
:100690007205200023742000814978008249780087
:1006a000804978001036800003fc2f0003006000b2
:1006b000b000b3001036880004368000f00f2c0024
:1006c0000000620004a020000400700000368800d2
:1006d0008001fd00ac26b6008001fd00103a8000cc
:1006e0000060a000237420008149780082497800ce
:1006f00080497800000006007ada0200000000005d
:1007000040c0b30082c50200000000006297840070
:100710008000eb00802e2900b8f6020000000000e7
:1007200042c5020000000000000006000600fa00ba
:10073000f1ff0700c4ff0700c04c29000eed0200c6
:1007400000000000b9ff07008001eb0022d32e005b
:1007500021a92e0040b92e0068f002000000000020
:1007600021398000f0cf2f00008060000080a000c1
:1007700020398800a08720000048eb00c4b40200a4
:10078000000000005ada020000000000c0488800a3
:10079000f1c0b300214098003140980022db0200f4
:1007a00000000000e00f5000fcff320066805700a0
:1007b00096ed02000000000066805700e4db0200b6
:1007c00000000000f5ff3700e4874700889fbe0067
:1007d0008a9fbe008c9fbe008e1f780070488000ec
:1007e00001002000e50f5000e08f580024013e007a
:1007f000006001000500370021013700900037003c
:100800001f013700070137001901370084da0200a1
:1008100000000000002c29006ad102000000000046
:10082000f0c0b300a187200080487800002c290088
:10083000ead302000000000000047800012c290027
:10084000604c2900c6d3020000000000f400140030
:10085000c288de00f2132000000051000080d100a9
:10086000624c29004cd3020000000000c848800000
:10087000002c2900ead302000000000000077800e5
:10088000002c2900ead302000000000000027800da
:10089000002c290084bf9f00ead302000000000062
:1008a00080067800002c2900ead302000000000036
:1008b00000067800002c2900ead3020000000000a6
:1008c00000057800002c2900ead302000000000097
:1008d00080057800002c2900ead302000000000007
:1008e00080047800002c2900ead3020000000000f8
:1008f000800078000fba9700b40db00074011700a3
:100900004291de0002024200748016004280de0046
:1009100000024200f4011600c299de00c508200062
:100920008b824200740115004291de000281420078
:10093000748014004280de0000014100f480100049
:10094000c288de0001014100881f7800801feb0093
:10095000a72c2900062024008002eb00030242009d
:10096000730c200071072000100f200024e9020002
:1009700000000000002c2900ead302000000000063
:1009800080057800002c2900ead302000000000056
:1009900000067800002c2900ead3020000000000c5
:1009a00000057800002c2900ead3020000000000b6
:1009b00080047800002c2900ead302000000000027
:1009c00000047800002c2900ead302000000000097
:1009d00080007800c20820000c01410074821500dc
:1009e00042a2de0004024100f4011500c299de00bb
:1009f000748114004291de00f4801000c288de0091
:100a00000101410008014100801feb00072d290072
:100a100016c0b3000500240003024200d30f2000db
:100a200021042000100b20006cf2020000000000e6
:100a30005000200070488800100020007600370029
:100a400084da020000000000c8488000002c290061
:100a5000ead302000000000000077800002c290003
:100a6000ead302000000000000027800002c2900f8
:100a700084bf9f00ead302000000000080067800d7
:100a8000002c2900ead302000000000000067800d4
:100a9000002c2900ead302000000000000057800c5
:100aa000002c2900ead30200000000008005780035
:100ab000002c2900ead30200000000008004780026
:100ac000002c2900ead3020000000000800078001a
:100ad0000fba9700b40db000740117004291de0008
:100ae00002024200748016004280de0000024200d2
:100af000f4011600c299de00c50820008b82420076
:100b0000740115004291de000281420074801400dd
:100b10004280de0000014100f4801000c288de0047
:100b200001014100881f7800801feb00c72d2900bc
:100b3000062024008002eb0003024200730c200018
:100b400071072000200f200024e9020000000000af
:100b5000002c2900ead30200000000008005780084
:100b6000002c2900ead302000000000000067800f3
:100b7000002c2900ead302000000000000057800e4
:100b8000002c2900ead30200000000008004780055
:100b9000002c2900ead302000000000000047800c5
:100ba000002c2900ead30200000000008000780039
:100bb000c20820000c0141007482150042a2de0030
:100bc00004024100f4011500c299de007481140092
:100bd0004291de00f4801000c288de000101410075
:100be00008014100801feb00672d290016c0b300eb
:100bf0000500240003024200d30f2000210420003e
:100c0000200b20006cf202000000000050002000c9
:100c1000704888003000200080488800e687570030
:100c20001700370021398000f0cf2f0000806000ce
:100c30000080a0002039880081488000e08f5000ab
:100c400003003a0062978400802e290005003700d7
:100c5000e28f500008003a00a29884008000eb0068
:100c600000312900acf6020000000000020037004d
:100c7000f0cf2f002427b6008048800070488800fd
:100c8000100020004f0778004f06be004f05be0041
:100c90004f04be004f00b100000006007248800003
:100ca000e10f510003003200e30f510021003a0030
:100cb00010003700120f2000910f11001d003a00a4
:100cc000e80f500005003a004000200070488800fe
:100cd000200020008048880004003700e60f500004
:100ce00002003a00402c290011003700a02c2900f6
:100cf0000f003700220f2000910f11000d003a0065
:100d0000e80f500005003a004000200070488800bd
:100d10000000eb008048880004003700e60f500018
:100d200002003a00202e290001003700c02d2900c2
:100d300090109800100005000040da000000fe004e
:100d4000839f68000100e00002003d006000100089
:100d5000e08018000300e00002003d006001110087
:100d6000e0811900050007004f00e00002003b0091
:100d700060001000e0801800000006006022b8004b
:100d8000060220000000d0008180d2000482d20040
:100d90008582d2000000a0000202520083825a0025
:100da000030031000202420083824a000000a100d9
:100db0000603e900f3ff3a0000000600020ab9004a
:100dc000001bb9000200b80081004200810043000e
:100dd00000000600e8874700889fbe008a9fbe008b
:100de0008c9fbe008e1f7800e18b2000f2458000b2
:100df000e00f51000b003a0064814000f24588008a
:100e000042468800a10098003146880021419000a8
:100e10000204a000a2409800614190000204a000da
:100e2000e2409800670440004244de004244dd0096
:100e300030468000ce912000c90e21008e845400df
:100e400026002000801f7800110009008604d800c9
:100e5000000378004f0078008880e800818240001d
:100e60008001eb006146b800f40e21000e02520032
:100e700008024200010037000a007800a0409000fc
:100e8000e1806000020032000a003700120878009a
:100e900010017800a2409000e1806000fbff32006a
:100ea00088004000810f510002003900e00f54001b
:100eb00049003d0010057800800f5500eeff3e0010
:100ec0008e0f550003003900e18b2000810f550083
:100ed000e9ff390041468000810f50004f003a0081
:100ee000e08b2000800f55004c003a008301e800a1
:100ef000e18f5100e0ff3600860f540002003600fb
:100f0000890f54000d0039006148b900b2ff2f006d
:100f1000030020000000510081805900800f56001e
:100f2000818f5e0007003d00110009000982d80092
:100f30000980b90080057800030037008505780036
:100f400001003700880578000b00780084bf9f00ff
:100f5000e5b79f00f6b79f00730007000fba970030
:100f6000efb297007fb39700e10f40002b003200f3
:100f7000414680008008780041468000e4814000be
:100f800021419000830f5000020032000204a000b3
:100f9000010037000204a100a2409800e48555003a
:100fa0008b0540000b0878004b468800e18b200041
:100fb000810d780042468000a24090000104a0000c
:100fc00021419800a04090000104a1002140980018
:100fd0008001eb00a8ff370031468800810f5100e7
:100fe000070036001101be005246880063468800a3
:100ff00090087800324680008000eb002141980084
:101000003346800003087800a04090000104a0004f
:101010002140980064004000010037000000eb0010
:101020004f0778004f06be004f05be004f04be00bc
:101030008f00b100000006006400500030468800b8
:10104000a04090000104a10021409800000006008b
:10105000889fbe008a9fbe0080047800010478004b
:10106000648154009205780069f99700610161007c
:101070000200320009007800efff07000800780046
:1010800054ff070000047800e00f54001b003200fa
:10109000890f54001900320068bd970008055500fb
:1010a00042d5de00098055004280de000a0178004a
:1010b000800f550001003600000178004211dd006c
:1010c0000800be0011000700890f54000b0031001a
:1010d0004255dd000a054400890f5500070036001f
:1010e00089045500c2ccde00c24cdd0089044400f6
:1010f0005046800061468000808cbe000800780069
:101100004f05be004f04be000000060080017800bd
:1011100002003700b15978000201e900e00f5100e8
:10112000fcff3a0000000600889fbe008a1f78007e
:1011300000057800d9488000e08f540005003a008f
:10114000090078000f0007000084eb00890f5000b1
:1011500008003500d8488000e00f55000500320037
:101160000a00440007000700e00f500001003d00a6
:101170000084eb00080078004f0578004f04be00a3
:1011800000000600e00f500004003a00c19120006a
:10119000d148880080007800060037008080eb008e
:1011a000c20e2100820f500002003e00d04888008d
:0c11b0008000eb00010078000000060049
:020000040000fa
:1011bc0000000000200000007e0000001100000074
:1011cc0004840000010000000495000001000000f0
:1011dc0007a600000100000009b700000100000094
:1011ec0008d90000010000000cea0000010000001a
:1011fc000a0c000002000000042e00000200000097
:10120c00053f000002000000055000000200000035
:10121c0008610000020000000872000002000000db
:10122c00048300000200000005940000020000008e
:10123c0004a500000200000006b600000200000039
:10124c0008c700000200000008d8000002000000df
:10125c0008e900000200000008fa0000020000008b
:10126c00080b000003000000081c00000300000035
:10127c00082d000003000000083e000003000000e1
:10128c00084f00000300000008600000030000008d
:10129c000471000003000000048200000300000041
:1012ac00089300000300000008a4000003000000e5
:1012bc0008b500000300000006c600000300000093
:1012cc000cd700000300000009f900000300000027
:1012dc00091b000004000000093d00000400000090
:1012ec000a5f0000040000000881000004000000f8
:1012fc0008920000040000000aa300000400000093
:10130c000ac500000400000006e70000040000000d
:10131c0005f80000040000000909000005000000a9
:10132c00082b0000050000000d3c0000050000002b
:10133c000a5e0000050000000b80000005000000a4
:10134c0009a20000050000000bc40000050000000d
:10135c0009e6000005000000070800000600000078
:10136c0008190000060000000a2a00000600000010
:10137c00094c0000060000000d6e00000600000085
:10138c00099000000600000008b2000006000000f2
:10139c0007c300000600000005d400000600000092
:1013ac0006e500000600000005f60000060000003f
:1013bc0007070000070000000618000007000000e7
:1013cc000829000007000000083a00000700000090
:1013dc00094b000007000000076d0000070000002b
:1013ec00097e00000700000008a0000007000000b4
:1013fc0005b100000700000008c200000700000053
:10140c0009d300000700000004f5000007000000ed
:10141c000406000008000000081700000800000087
:10142c0004280000080000000e390000080000002d
:10143c00095b000008000000097d000008000000a6
:10144c00099f00000800000009c10000080000000e
:10145c0006e300000800000007f40000080000008c
:10146c000705000009000000091600000900000033
:10147c0008380000090000000b49000009000000ba
:10148c00086b000009000000087c00000900000047
:10149c00078d000009000000059e000009000000f7
:1014ac0008af00000900000005c0000009000000a2
:1014bc0008d100000900000000000000000000003e
:1014cc000000000000000000000000000000000010
:1014dc000000000000000000000000000000000000
:1014ec0006060000060600000606000006000000c6
:1014fc0006060000000000000000000000000000d4
:10150c0000360000363600003600000000000000f7
:10151c0000000000000000000000000000000000bf
:10152c0000000000000000000078000000680000cf
:10153c0000ff000000ff0000002c00000034000041
:10154c0000ff000000ff000000160000001e00005d
:10155c00000000000000000000000000000000007f
:10156c000000000000080000083e00003f0b0000d7
:10157c001f7c0000687f00003f080000080000008e
:10158c00000000000000000000000000000000004f
:10159c000e0100009b000000db0000005b0000005f
:1015ac00fb030000ee060000d0060000d806000089
:1015bc00c8060000840300000000000000000000ca
:1015cc00000000000000000000000000000000000f
:1015dc0000000000380000007c0000006c000000df
:1015ec006c000000380000003c030000f601000015
:1015fc00e6010000fe010000fc03000000000000fa
:10160c0000000000000000000000000000000000ce
:10161c0000060000060600000600000000000000a6
:10162c0000000000000000000000000000000000ae
:10163c0000000000180c00000c060000060600005c
:10164c0006060000060c00000c180000000000004c
:10165c000000000000030000060400000c0c000059
:10166c000c0c00000c0c0000040600000300000031
:10167c000000000000180000187e00007e3c0000f6
:10168c003c240000000000000000000000000000ee
:10169c00000000000000000000000000181800000e
:1016ac00187f00007f1800001800000000000000e8
:1016bc00000000000000000000000000000000001e
:1016cc000000000000000000000000000602000006
:1016dc0003000000000000000000000000000000fb
:1016ec0000000000000000000f0f000000000000d0
:1016fc0000000000000000000000000000000000de
:10170c0000000000000000000000000000000000cd
:10171c0006060000000000000000000000000000b1
:10172c000030000030180000180c00000c060000ff
:10173c000603000003000000000000000000000091
:10174c00000000001c3e00006363000063630000a7
:10175c00636300003e1c000000000000000000005d
:10176c0000000000001800001e1f00001a180000e6
:10177c0018180000181800001800000000000000e5
:10178c0000000000000000003e7f000062600000ce
:10179c00303800001c0600007f7f000000000000b5
:1017ac000000000000000000003e00007f60000010
:1017bc00601c000078600000607f00001f000000cb
:1017cc0000000000000000000000000030380000a5
:1017dc003c3c0000363300007f7f000030300000be
:1017ec00000000000000000000000000003e0000af
:1017fc003e060000063e00007e600000607f000098
:10180c001f000000000000000000000000000000ad
:10181c003c3e0000060300003f7f000063630000b5
:10182c007e3c0000000000000000000000000000f2
:10183c00007f00007f3000003038000018180000d6
:10184c000c0c00000600000000000000000000006e
:10185c00000000003e7f0000637700003e3e000069
:10186c00736300007f3e00000000000000000000d9
:10187c0000000000001e00003f630000637f0000ba
:10188c007e600000303e00001e00000000000000e2
:10189c000000000000000000000000000606000030
:1018ac000000000000000000060600000000000020
:1018bc000000000000000000000000000006000016
:1018cc0006000000000000000006000002030000fb
:1018dc0000000000000000000000000000400000bc
:1018ec00701c0000061c000070400000000000008e
:1018fc0000000000000000000000000000000000dc
:10190c00000000007e7e0000007e00007e000000d3
:10191c0000000000000000000000000000000000bb
:10192c00000200000e380000603800000e020000bb
:10193c00000000000000000000000000000000009b
:10194c00000e00001f180000180c00000606000016
:10195c00000600000600000000000000000000006f
:10196c00000000000000000000f000000118000062
:10197c00030c000006e6000006b6000006b60000e8
:10198c0006f6000006e6000003040000001c000040
:10199c0001f0000001000000000000000000000049
:1019ac0000000000000000000000000000380000f3
:1019bc0000280000006c0000006c0000006c0000af
:1019cc0000c6000000fe000000fe000000830000c6
:1019dc000183000001000000000000000000000076
:1019ec0000000000000000000000000000000000eb
:1019fc00007e000000fe000000c6000000c60000d3
:101a0c00007e000000fe000000c6000000c60000c2
:101a1c0000fe0000007e000000000000000000003e
:101a2c0000000000000000000000000000000000aa
:101a3c000000000000f8000000fc0000000c00009a
:101a4c000006000000060000000600000006000072
:101a5c00000e000000fc000000f800000000000078
:101a6c00000000000000000000000000000000006a
:101a7c000000000000000000003e000000fe00001e
:101a8c0000c60000018600000186000001860000ef
:101a9c000186000001c6000000fe0000003e0000b0
:101aac00000000000000000000000000000000002a
:101abc0000000000000000007e7e00000606000012
:101acc007e7e0000060600007e7e00000000000006
:101adc000000000000000000007e00007e060000f8
:101aec00067e00007e0600000606000006000000d0
:101afc0000000000000000000000000000000000da
:101b0c0000f0000001fc0000010c000000060000c9
:101b1c0000e6000001e6000001860000018e0000d6
:101b2c0001fc000001f800000100000000000000b2
:101b3c000000000000000000000000000000000099
:101b4c0000000000008600000186000001860000f5
:101b5c000186000001fe000001fe0000018600006d
:101b6c0001860000018600000186000001000000d3
:101b7c000000000000000000000000000000000059
:101b8c00000000001e1e00000c0c00000c0c0000dd
:101b9c000c0c00001e1e00000000000000000000e5
:101bac0000000000001800001818000018180000b1
:101bbc001818000018180000181800001f0f00005b
:101bcc000000000000000000000000000086000083
:101bdc0001c600000066000000360000001e000078
:101bec00003e0000007600000066000000c6000009
:101bfc000086000001000000000000000000000052
:101c0c0000000000000000000000000006060000bc
:101c1c000606000006060000060600007e7e000098
:101c2c0000000000000000000000000000000000a8
:101c3c00000000000e0e00000e0e00001e0f000033
:101c4c001e0f0000160d0000b60d0000b60d0000b2
:101c5c00a60c0000e60c0000660c00000000000062
:101c6c000000000000000000000000000000000068
:101c7c000000000000000000860100008e01000042
:101c8c009e0100009e010000b6010000b60100009c
:101c9c00e6010000c6010000c6010000860100003c
:101cac000000000000000000000000000000000028
:101cbc00000000000000000000000000f800000020
:101ccc00fc0100008e030000060300000603000068
:101cdc0006030000060300008e030000fc01000058
:101cec00f8000000000000000000000000000000f0
:101cfc0000000000000000000000000000000000d8
:101d0c007e000000fe000000c6000000c6000000bf
:101d1c00fe0000003e00000006000000060000006f
:101d2c00060000000600000000000000000000009b
:101d3c000000000000000000000000000000000097
:101d4c0000000000f8000000fc0100008e03000001
:101d5c000603000006030000060300000603000053
:101d6c008e030000fc010000f8000000c001000020
:101d7c0080030000000000000000000000000000d4
:101d8c0000000000000000007e000000fe000000cb
:101d9c00c6000000c60000007e0000003e000000ef
:101dac0066000000e6000000c6000000860100008e
:101dbc000000000000000000000000000000000017
:101dcc0000000000003c00003e060000061e000063
:101ddc003c300000303e00001e00000000000000ff
:101dec000000000000000000ffff000018180000b9
:101dfc001818000018180000181800000000000047
:101e0c0000000000000000000000000000000000c6
:101e1c00860100008601000086010000860100009a
:101e2c00860100008601000086010000860100008a
:101e3c00fc00000078000000000000000000000022
:101e4c000000000000000000000000000000000086
:101e5c00000000008301000083010000c6000000a8
:101e6c00c6000000c60000006c0000006c00000002
:101e7c006c0000003800000038000000000000007a
:101e8c000000000000000000000000000000000046
:101e9c00000000000000000043180000e3180000e0
:101eac00e3180000a60c0000b60d0000b60d0000f3
:101ebc00b4050000140500001c0700001c070000fe
:101ecc000000000000000000000000000000000006
:101edc00000000000000000000000000c70100002e
:101eec00c60000006c0000006c0000003800000010
:101efc00380000006c000000ee000000c60000007e
:101f0c008301000000000000000000000000000041
:101f1c00000000000000000000c300006666000026
:101f2c003c3c0000181800001818000018000000b5
:101f3c000000000000000000000000007f7f000097
:101f4c0030380000180c00000e0600007f7f0000e7
:101f5c00000000000000000000000000000e000067
:101f6c000606000006060000060600000606000035
:101f7c00060600000e00000000000000000000003b
:101f8c0003030000060600000c0c000018180000eb
:101f9c0030300000000000000000000000000000d5
:101fac00000e00000c0c00000c0c00000c0c0000cf
:101fbc000c0c00000c0c00000e00000000000000d7
:101fcc0000000000081c0000143600002263000012
:101fdc0000000000000000000000000000000000f5
:101fec0000000000000000000000000000000000e5
:101ffc000000000000000000000000003f00000096
:10200c00000000001c180000300000000000000060
:10201c0000000000000000000000000000000000b4
:10202c00000000000000000000000000003c000068
:10203c007c6000007c660000667e00006c00000086
:10204c00000000000000000000000000000600007e
:10205c0000060000000600000076000000fe0000f4
:10206c0000c6000000c6000000c6000000c600004c
:10207c0000fe0000007600000000000000000000e0
:10208c000000000000000000000000000000000044
:10209c00000000003c3e00000606000006060000a2
:1020ac003e3c0000000000000000000000000000aa
:1020bc0000000000c0000000c0000000c0000000d4
:1020cc00dc000000fc000000c6000000c6000000a0
:1020dc00c6000000c6000000fe000000dc0000008e
:1020ec0000000000000000000000000000000000e4
:1020fc000000000000000000003c00007c660000b6
:10210c007e060000067c0000780000000000000045
:10211c0000000000001c00001e0600000f0f000055
:10212c00060600000606000006060000000000007f
:10213c0000000000000000000000000000fc000097
:10214c0066660000663c0000067e0000fec60000cd
:10215c00e67c00000000000000000000000600000b
:10216c0000060000000600000076000000fe0000e3
:10217c0000c6000000c6000000c6000000c600003b
:10218c0000c6000000c600000000000000000000b7
:10219c00000000000000000000000000000600002d
:1021ac0006000000060600000606000006060000f9
:1021bc000606000000000000000000000000000007
:1021cc000c0c0000000c00000c0c00000c0c0000af
:1021dc000c0c00000c0c00000f07000000000000ad
:1021ec000006000006060000e6660000361e000031
:1021fc003e36000066c60000000000000000000033
:10220c00000000000606000006060000060600009e
:10221c000606000006060000060000000000000094
:10222c0000000000000000000000000000000000a2
:10223c0000000000007600000efe00001fc600002b
:10224c0018c6000018c6000018c6000018c600000a
:10225c0018c600001800000000000000000000007c
:10226c000000000000000000000000000000000062
:10227c0000000000000000000076000000fe0000de
:10228c0000c6000000c6000000c6000000c600002a
:10229c0000c6000000c600000000000000000000a6
:1022ac000000000000000000000000000000000022
:1022bc0000000000000000000000000000380000da
:1022cc00007c000000c6000000c6000000c6000034
:1022dc0000c60000007c0000003800000000000078
:1022ec0000000000000000000000000000000000e2
:1022fc0000000000000000000000000000000000d2
:10230c000076000000fe000000c6000000c60000c1
:10231c0000c6000000c60000007e00000076000031
:10232c00000600000006000000060000000000008f
:10233c000000000000000000000000000000000091
:10234c000000000000dc000000fc000000c60000e3
:10235c0000c6000000c6000000c6000000fe000021
:10236c0000dc000000c0000000c0000000c0000045
:10237c000000000000000000000000000000000051
:10238c00363e00000e0600000606000006060000a1
:10239c000000000000000000000000000000000031
:1023ac00003c00003e0600001e380000303e0000dd
:1023bc001e000000000000000000000000000000f3
:1023cc00080c00003e3e00000c0c00000c0c000041
:1023dc003c3800000000000000000000000000007d
:1023ec0000000000000000000000000000000000e1
:1023fc00c6000000c6000000c6000000c6000000b9
:10240c00c6000000c6000000fe000000dc0000005a
:10241c0000000000000000000000000000000000b0
:10242c00000000000000000000c30000c3660000b4
:10243c00663c00003c3c000018000000000000005e
:10244c000000000000000000000000000000000080
:10245c00000000000023000006530000065300009b
:10246c000256000003de000003de0000038c0000b7
:10247c00018c0000010000000000000000000000c2
:10248c000000000000000000000000000000000040
:10249c00e76600003c180000383c000066c30000f2
:1024ac000000000000000000000000000000000020
:1024bc0000c30000e7660000667c00003c3c0000a6
:1024cc00181800000f0700000000000000000000ba
:1024dc00000000003e3e0000181800000c0c00002c
:1024ec003e3e000000000000000000000000000064
:1024fc00001800001c0c00000c0c0000070f000062
:10250c000c0c00000c1c0000180000000000000067
:10251c000018000018180000181800001818000007
:10252c0018180000181800001818000018000000f7
:10253c000000000000030000070600000606000073
:10254c001c1e000006060000060700000300000029
:10255c00000000000000000000000000000c000063
:10256c007e300000000000000000000000000000b1
:10257c000000000000000000de88000000000000e9
:10258c00e2140000000100000000000060210000c7
:10259c000001000000000000de2d00000001000022
:1025ac00000000006c610000000100000000000051
:1025bc00fa940000000100000000000078a1000067
:1025cc0000010000000000000000000010000000ee
:1025dc00f092000000000000c3180000242100004d
:1025ec00a631000028420000cb5a00002c630000ea
:1025fc00cf7b0000518c0000b294000034a5000089
:10260c00b6b5000059ce0000bad600007def000030
:10261c00ffff0000000000000000000010000000a0
:10262c001893000000000000a210000045290000d3
:10263c00a631000028420000cb5a00002c63000099
:10264c00ae73000030840000b294000055ad000061
:10265c00f7bd000059ce0000bad600003ce70000e0
:10266c00ffff00000001000000010000000100005d
:10267c0000010000ff000000ff000000ff00000050
:10268c00fe000000fe000000fd000000fc00000049
:10269c00fb000000fa000000f9000000f800000048
:1026ac00f7000000f6000000f5000000f300000049
:1026bc00f2000000f1000000ef000000ed0000004f
:1026cc00ec000000ea000000e8000000e60000005a
:1026dc00e4000000e2000000e0000000de0000006a
:1026ec00db000000d9000000d7000000d40000007f
:1026fc00d2000000cf000000cc000000ca00000097
:10270c00c7000000c4000000c1000000be000000b3
:10271c00bb000000b8000000b5000000b2000000d3
:10272c00af000000ab000000a8000000a5000000f6
:10273c00a10000009e0000009a000000960000001e
:10274c00930000008f0000008b0000008800000048
:10275c0084000000800000007c0000007800000075
:10276c0074000000700000006c00000068000000a5
:10277c0064000000600000005c00000058000000d5
:10278c00530000004f0000004b0000004700000009
:10279c00420000003e0000003a000000350000003e
:1027ac00310000002c000000280000002400000074
:1027bc001f0000001b0000001600000012000000ab
:1027cc000d000000090000000400000000000000e3
:1027dc00707200006f6d00007074000020610000ca
:1027ec007070000065610000727300002e00000024
:1027fc00756e0000746900006c20000074680000a5
:10280c0065200000636100006c69000062720000ca
:10281c0061740000696f00006e00000070720000af
:10282c0065730000736900006e670000206f000084
:10283c006e200000746800006520000073630000c7
:10284c0072650000656500006e0000007265000096
:10285c00736500007420000074680000652000009f
:10286c00626f000061720000642000007768000055
:10287c00696c000065000000546f000020520000dd
:10288c0045500000454100005420000063610000e9
:10289c006c6900006272000061740000696f0000d6
:1028ac006e2c0000006300006f6e00007469000065
:1028bc006e750000652e0000005400006f7500005e
:1028cc0063680000207300006372000065650000ff
:1028dc006e200000746f0000007300006372000033
:1028ec00656500006e200000636100006c690000eb
:1028fc006272000061740000696f00006e2e0000af
:10290c000050000065720000666f0000726d0000e0
:10291c00696e000067200000746f00007563000092
:10292c006800000014f10000526500007472000091
:10293c0079000000507200006573000073200000e5
:10294c0026200000526500006c65000061730000d9
:10295c006500000063690000726300006c65000094
:10296c00006f00006e2000007468000065200000fd
:10297c00666900006c6c00006564000000000000db
:10298c003420000042500000500000000200000003
:10299c000300000006000000000100000100000020
:1029ac00060a00000f0000000c080000040e0000d6
:0829bc0000000000c0920000c1
:020000040000fa
:1029c400000400004f000000500000000000000060
:1029d400c318000024210000a63100002842000092
:1029e400cb5a00002c630000cf7b0000518c000008
:1029f400b294000034a50000b6b5000059ce000022
:102a0400bad600007def0000ffff000000000000c8
:102a140000000000000000000000000000000000b2
:102a240000000000000000000000000000000000a2
:102a34000000000000000000000000000000000092
:102a44000000000000000000000000000000000082
:102a54000000000000000000000000000000000072
:102a64000000000000000000000000000000000062
:102a74000000000000000000000000000000000052
:102a84000000000000000000000000000000000042
:102a94000000000000000000000000000000000032
:102aa4000000000000000000000000000000000022
:102ab4000000000000000000000000000000000012
:102ac4000000000000000000000000000000000002
:102ad40000000000000000000000000000000000f2
:102ae40000000000000000000000000000000000e2
:102af40000000000000000000000000000000000d2
:102b040000000000000000000000000000000000c1
:102b140000000000000000000000000000000000b1
:102b2400111100001101000000000000000000006d
:102b34000000000000000000000000000000000091
:102b44000000000000000000000000000000000081
:102b54000000000000000000000000000000000071
:102b64000000000000000000000000000011000050
:102b740021220000221100000100000000000000da
:102b84000000000000000000000000000000000041
:102b94000000000000000000000000000000000031
:102ba4000000000000000000000000000000000021
:102bb40000000000000000000000000011210000df
:102bc4003233000033230000120100000000000033
:102bd40000000000000000000000000000000000f1
:102be40000000000000000000000000000000000e1
:102bf40000000000000000000000000000000000d1
:102c0400000000000000000000100000213300005c
:102c1400545500005544000023110000000000003a
:102c240000000000000000000000000000000000a0
:102c34000000000000000000000000000000000090
:102c44000000000000000000000000000000000080
:102c540000000000000000000011000032540000d9
:102c6400768800007867000035220000010000002b
:102c74000000000000000000000000000000000050
:102c84000000000000000000000000000000000040
:102c94000000000000000000000000000000000030
:102ca4000000000000000000102100005386000016
:102cb400a9cb0000bc8900005734000012010000b9
:102cc4000000000000000000000000000000000000
:102cd40000000000000000000000000000000000f0
:102ce40000000000000000000000000000000000e0
:102cf40000000000000000002142000075a900004f
:102d0400dcee0000eebd0000794600002311000057
:102d140000000000000000000000000000000000af
:102d2400000000000000000000000000000000009f
:102d3400000000000000000000000000000000008f
:102d440000000000001000003254000097db000077
:102d5400eebc0000dbee0000ac68000034120000a2
:102d6400010000000000000000000000000000005e
:102d7400000000000000000000000000000000004f
:102d8400000000000000000000000000000000003f
:102d9400000000000021000043760000caee00009d
:102da400bdb90000abeb0000de8a00005623000032
:102db40011000000000000000000000000000000fe
:102dc40000000000000000000000000000000000ff
:102dd40000000000000000000000000000000000ef
:102de400000000001132000064a80000ecde0000c6
:102df40089ec0000cea90000edbd0000683500009c
:102e040012010000000000000000000000000000ab
:102e140000000000000000000000000000000000ae
:102e2400000000000000000000000000000000009e
:102e3400001000002143000086da0000ee8c000040
:102e4400b8de0000ee8c0000d9de00009b570000c5
:102e5400231100000000000000000000000000003a
:102e6400000000000000000000000000000000005e
:102e7400000000000000000000000000000000004e
:102e84000011000032640000a8ed0000ce880000ac
:102e9400dcdd0000ddcd000098ec0000be79000010
:102ea40035120000010000000000000000000000d6
:102eb400000000000000000000000000000000000e
:102ec40000000000000000000000000000000000fe
:102ed4001021000053860000dbee00007bc80000d8
:102ee400ddcd0000dcdd00008cc90000ee9b00009d
:102ef4005724000011000000000000000000000042
:102f040000000000000000000000000000000000bd
:102f140000000000000000000000000000000000ad
:102f24001132000075b90000edae000087dc00002e
:102f3400dd5a0000a5dd0000dd890000ecce0000b4
:102f4400794500002201000000000000000000009c
:102f5400000000000000000000000000000000006d
:102f6400000000000000000000000000001000004d
:102f74002153000097db0000ee7a0000c8dd00005a
:102f8400ad15000052da0000dd9d0000b8ee00002f
:102f94009c570000341200000000000000000000f4
:102fa400000000000000000000000000000000001d
:102fb40000000000000000000000000000110000fc
:102fc40042750000b9ee0000ae970000dddd0000a0
:102fd4004a11000011a40000dddd000089eb0000af
:102fe400ce8a00004623000011000000000000000b
:102ff40000000000000000000000000000000000cd
:10300400000000000000000000000000102100008b
:1030140054970000ebde00007ad90000dd8d00003b
:103024001311000011410000d8dd00009db800001c
:10303400eeac000068340000120100000000000043
:10304400000000000000000000000000000000007c
:103054000000000000000000000000002143000008
:1030640075c90000ee9d000097dd0000cd3800001a
:10307400111100001111000083dd0000dd8a000041
:10308400eade00008a460000231100000000000070
:10309400000000000000000000000000000000002c
:1030a4000000000000000000001000003264000076
:1030b400a7ec0000de790000dadd00008c130000cc
:1030c400111100001111000031c80000ddad000035
:1030d400a8ed0000ad6800003412000001000000fb
:1030e40000000000000000000000000000000000dc
:1030f40000000000000000001021000043860000d2
:10310400caee00009da70000ddcd000028110000dc
:10311400111100001111000011820000dcdd00001b
:103124008bda0000de8b0000562300001100000043
:10313400000000000000000000000000000000008b
:1031440000000000000000001132000064a800002c
:10315400ecce000078dc0000dd7c000012110000e1
:10316400111100001111000011210000c7dd000041
:10317400cd980000edbd000079350000120100007b
:10318400000000000000000000000000000000003b
:1031940000000000001000002143000086da000057
:1031a400ee8c0000b8dd0000bd2700001111000006
:1031b40011110000111100001111000072db000058
:1031c400dd8b0000c9ee00009b57000023110000b6
:1031d40000000000000000000000000000000000eb
:1031e400000000000011000032650000b8ed00008e
:1031f400be870000dcdd00005b110000111100003f
:1032040011110000111100001111000021b500007e
:10321400ddcd000098ec0000be79000045120000ee
:103224000100000000000000000000000000000099
:10323400000000001021000053860000dbee0000b7
:103244007bc80000ddad0000151100001111000065
:1032540011110000111100001111000011520000a1
:10326400dadd00009cc80000ee9b0000572400003b
:103274001100000000000000000000000000000039
:10328400000000001132000075b90000edae00002e
:1032940087dd0000dd5a000011110000111100004b
:1032a4001111000011110000111100001111000092
:1032b400a5dd0000dd890000ecce000079450000aa
:1032c40022010000000000000000000000000000d7
:1032d400001000002153000097eb0000ee7a00007c
:1032e400c9dd0000ad14000011110000111100002f
:1032f4001111000011110000111100001111000042
:1033040041da0000dd9d0000b8ee0000ac5700007b
:103314003412000000000000000000000000000063
:103324000011000032750000b9ee0000ad970000f6
:10333400dddd00003a110000111100001111000040
:1033440011110000111100001111000011110000f1
:1033540011a40000dcdd000089eb0000ce7a00003f
:103364004512000001000000000000000000000001
:103374000021000053970000ebde000079d9000023
:10338400dd8d000013110000111100001111000067
:1033940011110000111100001111000011110000a1
:1033a40011310000d8dd0000ada80000eeac000033
:1033b400572400001100000000000000000000007d
:1033c4001032000064b80000ee9d000097dd00009c
:1033d400cd3800001111000011110000111100007e
:1033e4001111000011110000111100001111000051
:1033f4001111000083dc0000dd8a0000eace000029
:1034040079350000120000000000000000000000f8
:103414001032000085da0000de790000dbdd0000f8
:103424008c12000011110000111100001111000094
:103434001111000011110000111100001111000000
:103444001111000021c80000ddbd0000a8ee00003d
:103454008b46000013010000000000000000000083
:103464001143000096eb0000adb80000ddcd000074
:1034740027110000111100001111000011110000aa
:1034840011110000111100001111000011110000b0
:103494001111000011720000dcdd00009beb000044
:1034a400ad570000230100000000000000000000f0
:1034b40021530000a7ed00009bdc0000dd7c000030
:1034c400121100001111000011110000111100006f
:1034d4001111000011110000111100001111000060
:1034e4001111000011210000c7dd0000ceca000048
:1034f400ce5800002301000000000000000000007e
:1035040021530000b7de0000cbde0000cd27000011
:10351400111100001111000011110000111100001f
:10352400111100001111000011110000111100000f
:10353400111100001121000072dc0000eecd00002a
:10354400ed690000240100000000000000000000fc
:1035540021530000d7cd0000ecde00007c220000e7
:1035640011110000111100001111000011110000cf
:1035740011110000111100001111000011110000bf
:10358400111100001121000032c70000eede00001e
:10359400dd6c0000240100000000000000000000b9
:1035a40021530000b7de0000ecce000037230000fa
:1035b400121100001111000011110000111100007e
:1035c400111100001111000011110000111100006f
:1035d400111100001121000032740000ecde000023
:1035e400ed5a00002401000000000000000000006b
:1035f4001143000096ed0000cd8a0000572300001f
:10360400121100001111000011110000111100002d
:10361400111100001111000011110000111100001e
:10362400111100001122000033850000b9dd0000f3
:10363400ce5700002301000000000000000000003d
:103644001032000075d90000eedd00007c3400006b
:1036540022110000111100001111000011110000cd
:1036640011110000111100001111000011110000ce
:10367400111100001122000043c60000edee00000d
:103684008c46000012010000000000000000000051
:103694001032000054a70000ecee00007e3400005d
:1036a400221100001111000011110000111100007d
:1036b400111100001111000011110000111100007e
:1036c400111100001132000054e70000eebd0000ab
:1036d4006834000012000000000000000000000038
:1036e4001021000043860000daee00008e45000041
:1036f40023110000d1dd00001dd10000dd1d0000fc
:10370400111100001111000011110000111100002d
:10371400111100002132000054e70000ee9b00006c
:10372400572300001100000000000000000000000a
:103734000011000032640000b9ee00009e45000054
:1037440023110000d1dd00001dd10000dd1d0000ab
:1037540011110000111100001111000011110000dd
:10376400111100002132000064e80000ce7a00004c
:1037740035120000010000000000000000000000fd
:103784000010000021530000a7ed00009e46000039
:1037940023110000d1dd00001dd10000dd1d00005b
:1037a400111100001111000011110000111100008d
:1037b400111100002132000065e90000be6800001c
:1037c40024110000000000000000000000000000c0
:1037d400000000001042000096eb00009e4600002e
:1037e40023110000d1dd00001dd10000dd1d00000b
:1037f400111100001111000011110000111100003d
:10380400111100002142000075e90000ad570000cd
:103814002301000000000000000000000000000080
:10382400000000001032000085eb00009e460000fe
:1038340023110000212200001221000022120000a6
:1038440011110000111100001111000011110000ec
:10385400111100002143000075ea00009d4600009c
:103864001200000000000000000000000000000042
:10387400000000000031000075ea0000ae560000b0
:10388400231100001111000011110000111100009a
:10389400111100001111000011110000111100009c
:1038a400111100002143000075ea00009c4600004d
:1038b40012000000000000000000000000000000f2
:1038c400000000000031000075ea0000ae56000060
:1038d40023110000d1dd00001dd10000dd1d00001a
:1038e4001111000011c10000dddd0000dddd00006c
:1038f400cd1100002143000075ea00009c46000041
:1039040012000000000000000000000000000000a1
:10391400000000000031000075ea0000ae5600000f
:1039240023110000d1dd00001dd10000dd1d0000c9
:103934001111000011d10000dddd0000dddd00000b
:10394400dd1100002143000075ea00009c460000e0
:103954001200000000000000000000000000000051
:10396400000000000031000075ea0000ae560000bf
:1039740023110000d1dd00001dd10000dd1d000079
:103984001111000011d10000dddd0000dddd0000bb
:10399400dd1100002143000075ea00009c46000090
:1039a4001200000000000000000000000000000001
:1039b400000000000031000075ea0000ae5600006f
:1039c40023110000d1dd00002dd20000dd1d000018
:1039d4001111000011d10000dddd0000dddd00006b
:1039e400dd1100002143000075ea00009c46000040
:1039f40012000000000000000000000000000000b1
:103a0400000000000031000075ea0000ae5600001e
:103a14002311000011110000111100001111000008
:103a24001111000011d10000dddd0000dddd00001a
:103a3400dd1100002143000075ea00009c460000ef
:103a44001200000000000000000000000000000060
:103a5400000000000031000075ea0000ae560000ce
:103a640023110000111100001111000011110000b8
:103a74001111000011d10000dddd0000dddd0000ca
:103a8400dd1100002143000075ea00009c4600009f
:103a94001200000000000000000000000000000010
:103aa400000000000031000075ea0000ae5600007e
:103ab4002311000011110000111100001111000068
:103ac4001111000011d10000dddd0000dddd00007a
:103ad400dd1100002143000075ea00009c4600004f
:103ae40012000000000000000000000000000000c0
:103af400000000000031000075ea0000ae5600002e
:103b04002311000011110000111100001111000017
:103b14001111000011d10000dddd0000dddd000029
:103b2400dd1100002143000075ea00009c460000fe
:103b3400120000000000000000000000000000006f
:103b4400000000000031000075ea0000ae560000dd
:103b540023110000111100001111000011110000c7
:103b64001111000011d10000dddd0000dddd0000d9
:103b7400dd1100002143000075ea00009c460000ae
:103b8400120000000000000000000000000000001f
:103b9400000000000031000075ea0000ae5600008d
:103ba4002311000011110000111100001111000077
:103bb4001111000011d10000dddd0000dddd000089
:103bc400dd1100002143000075ea00009c4600005e
:103bd40012000000000000000000000000000000cf
:103be400000000000031000075ea0000ae5600003d
:103bf4002311000011110000111100001111000027
:103c04001111000011d10000dddd0000dddd000038
:103c1400dd1100002143000075ea00009c4600000d
:103c2400120000000000000000000000000000007e
:103c3400000000000031000075ea0000ae560000ec
:103c440023110000111100001111000011110000d6
:103c54001111000011d10000dddd0000dddd0000e8
:103c6400dd1100002143000075ea00009c460000bd
:103c7400120000000000000000000000000000002e
:103c8400000000000031000075ea0000ae5600009c
:103c94002311000011110000111100001111000086
:103ca4001111000011d10000dddd0000dddd000098
:103cb400dd1100002143000075ea00009c4600006d
:103cc40012000000000000000000000000000000de
:103cd400000000000031000075da0000ae5700005b
:103ce4002311000011110000111100001111000036
:103cf4001111000011d10000dddd0000dddd000048
:103d0400dd1100002143000076ea00008c3600003b
:103d1400120000000000000000000000000000008d
:103d2400000000000021000074da0000ae5700001b
:103d340023120000111100001111000011110000e4
:103d44001111000011d10000dddd0000dddd0000f7
:103d5400dd1100002143000086ea00008b350000dd
:103d6400120000000000000000000000000000003d
:103d7400000000000021000064d90000ae570000dc
:103d84003412000011110000111100001111000083
:103d94001111000011d10000dddd0000dddd0000a7
:103da400dd1100002253000086eb00008b3500007b
:103db40012000000000000000000000000000000ed
:103dc400000000000021000064c90000be8800005b
:103dd400786600006666000066660000666600009d
:103de4006666000036d20000dddd0000dddd000087
:103df400dd2200007687000099eb00007a35000090
:103e040001000000000000000000000000000000ad
:103e1400000000000021000053b80000ce9900000b
:103e2400887700006666000066660000666600002b
:103e34006666000046d30000dddd0000dddd000025
:103e4400dd33000077980000aaed0000793400000b
:103e5400010000000000000000000000000000005d
:103e6400000000000021000053a70000ed9a0000ac
:103e74009988000077770000777700007777000053
:103e84007777000057d40000dddd0000dddd0000a1
:103e9400dd44000088a90000badd000068240000a9
:103ea400010000000000000000000000000000000d
:103eb400000000000010000042960000ebab000080
:103ec400998900008888000088880000888800009c
:103ed4008888000068e60000eeee0000eeee0000c8
:103ee400ee66000098a90000cbae00005723000046
:103ef40001000000000000000000000000000000bd
:103f0400000000000010000032750000e9cd000040
:103f1400ab89000088880000888800008888000039
:103f2400888800008888000088880000888800004d
:103f34008888000099ba0000dc8d00004612000059
:103f4400010000000000000000000000000000006c
:103f5400000000000010000021640000a8ee000032
:103f6400decc0000bbbb0000bbbb0000bbbb000041
:103f7400bbbb0000bbbb0000bbbb0000bbbb000065
:103f8400bbbb0000dced0000de6800003512000061
:103f9400000000000000000000000000000000001d
:103fa40000000000000000002143000076b900007a
:103fb400edee0000eeee0000eeee0000eeee00008e
:103fc400eeee0000eeee0000eeee0000eeee00007d
:103fd400eeee0000eece00008a5600002311000031
:103fe40000000000000000000000000000000000cd
:103ff40000000000000000001132000054860000a0
:1040040099ba0000bbbb0000bbbb0000bbbb0000f7
:10401400bbbb0000bbbb0000bbbb0000bbbb0000c4
:10402400bbbb0000aa890000673400001201000035
:10403400000000000000000000000000000000007c
:1040440000000000000000001021000043540000a4
:10405400768700008888000088880000888800002f
:10406400888800008888000088880000888800000c
:1040740088880000776600004523000011000000d6
:10408400000000000000000000000000000000002c
:1040940000000000000000000011000022330000b6
:1040a4004455000055550000555500005555000075
:1040b4005555000055550000555500005555000054
:1040c4005555000045440000231200000100000083
:1040d40000000000000000000000000000000000dc
:1040e400000000000000000000000000112100009a
:1040f4002233000033330000333300003333000035
:104104003333000033330000333300003333000013
:1041140033330000332200001211000000000000bd
:10412400000000000000000000000000000000008b
:10413400000000000000000000000000001100006a
:10414400111100002122000022220000222200007e
:10415400222200002222000022220000222200004b
:1041640022120000111100000100000000000000f4
:10417400000000000000000000000000000000003b
:10418400000000000000000000000000000000002b
:1041940000000000101100001111000011110000b6
:1041a4001111000011110000111100001111000083
:1041b40011010000000000000000000000000000e9
:1041c40000000000000000000000000000000000eb
:1041d40000000000000000000000000000000000db
:1041e40000000000000000000000000000000000cb
:1041f40000000000000000000000000000000000bb
:1042040000000000000000000000000000000000aa
:10421400000000000000000000000000000000009a
:10422400000000000000000000000000000000008a
:10423400000000000000000000000000000000007a
:10424400000000000000000000000000000000006a
:10425400000000000000000000000000000000005a
:10426400000000000000000000000000000000004a
:10427400000000000000000000000000000000003a
:10428400000000000000000000000000000000002a
:10429400000000000000000000000000000000001a
:1042a400000000000000000000000000000000000a
:1042b40000000000000000000000000000040000f6
:1042c4004f0000005000000000000000c318000070
:1042d40024210000a631000028420000cb5a00002f
:1042e4002c630000cf7b0000518c0000b2940000ce
:1042f40034a50000b6b5000059ce0000bad60000bf
:104304007def0000ffff000000000000000000003f
:104314000000000000000000000000000000000099
:104324000000000000000000000000000000000089
:104334000000000000000000000000000000000079
:104344000000000000000000000000000000000069
:1045a40000000000000000000000000000300000d7
:1045b40003000000000000000000000000000000f4
:1045c40000000000000000000000000000000000e7
:1045d40000000000000000000000000000000000d7
:1045e40000000000000000000000000000000000c7
:1045f4000000000000000000000000002077000020
:10460400770200000000000000000000000000002d
:104614000000000000000000000000000000000096
:104624000000000000000000000000000000000086
:104634000000000000000000000000000000000076
:1046440000000000000000000000000083150000ce
:1046540051380000000000000000000000000000cd
:104664000000000000000000000000000000000046
:104674000000000000000000000000000000000036
:104684000000000000000000000000000000000026
:10469400000000000000000000400000486200002c
:1046a4002684000004000000000000000000000058
:1046b40000000000000000000000000000000000f6
:1046c40000000000000000000000000000000000e6
:1046d40000000000000000000000000000000000d6
:1046e40000000000000000000075000032d9000046
:1046f4009d2300005700000000000000000000009f
:1047040000000000000000000000000000000000a5
:104714000000000000000000000000000000000095
:104724000000000000000000000000000000000085
:10473400000000000000000060270000a3dd00006e
:10474400dd3a0000720600000000000000000000d6
:104754000000000000000000000000000000000055
:104764000000000000000000000000000000000045
:104774000000000000000000000000000000000035
:10478400000000000010000077420000dadd0000a5
:10479400ddad0000247700000100000000000000ef
:1047a4000000000000000000000000000000000005
:1047b40000000000000000000000000000000000f5
:1047c40000000000000000000000000000000000e5
:1047d400000000000071000027a40000ddbd0000ff
:1047e400dbdd00004a72000017000000000000003a
:1047f40000000000000000000000000000000000b5
:1048040000000000000000000000000000000000a4
:104814000000000000000000000000000000000094
:10482400000000001067000052db0000dd5b0000a8
:10483400b5dd0000bd250000760100000000000089
:104844000000000000000000000000000000000064
:104854000000000000000000000000000000000054
:104864000000000000000000000000000000000044
:104874000000000081260000b5dd0000bd15000029
:1048840051db0000dd5b0000621800000000000046
:104894000000000000000000000000000000000014
:1048a4000000000000000000000000000000000004
:1048b40000000000000000000000000000000000f4
:1048c4000020000059620000dddd00004a110000f4
:1048d40011a40000dddd00002695000002000000a8
:1048e40000000000000000000000000000000000c4
:1048f40000000000000000000000000000000000b4
:1049040000000000000000000000000000000000a3
:104914000092000024b70000dd9d00001311000088
:1049240011310000d9dd00007b42000029000000a5
:104934000000000000000000000000000000000073
:104944000000000000000000000000000000000063
:104954000000000000000000000000000000000053
:104964003049000072dd0000dd3800001111000044
:104974001111000083dd0000dd2700009403000016
:104984000000000000000000000000000000000023
:104994000000000000000000000000000000000013
:1049a4000000000000000000000000000000000003
:1049b40084230000d8dd00008d12000011110000d6
:1049c4001111000021d80000dd8d000032480000e4
:1049d40000000000000000000000000000000000d3
:1049e40000000000000000000000000000000000c3
:1049f4000000000000000000000000000050000063
:104a040038820000ddbd00002711000011110000f4
:104a14001111000011720000dbdd0000288300008a
:104a2400050000000000000000000000000000007d
:104a34000000000000000000000000000000000072
:104a440000000000000000000000000000760000ec
:104a540032da0000dd7b00001211000011110000a9
:104a64001111000011210000b7dd0000ad2300008a
:104a740067000000000000000000000000000000cb
:104a84000000000000000000000000000000000022
:104a9400000000000000000000000000712700007a
:104aa40093dd0000bd27000011110000111100006a
:104ab400111100001111000072db0000dd3900004b
:104ac4007217000000000000000000000000000059
:104ad40000000000000000000000000000000000d2
:104ae40000000000000000000010000077420000f9
:104af400dbdd00006b11000011110000111100003a
:104b0400111100001111000011b60000ddbd0000fc
:104b140024770000010000000000000000000000f5
:104b24000000000000000000000000000000000081
:104b340000000000000000000071000026b5000025
:104b4400ddbd00001511000011110000111100005d
:104b5400111100001111000011510000dbdd0000f3
:104b64005b6200001700000000000000000000006d
:104b74000000000000000000000000000000000031
:104b840000000000000000001068000052db00007c
:104b9400dd5b000011110000111100001111000073
:104ba400111100001111000011110000b5dd000009
:104bb400bd25000086010000000000000000000088
:104bc40000000000000000000000000000000000e1
:104bd400000000000000000082250000b6dd000097
:104be400ad1400001111000011110000111100009a
:104bf40011110000111100001111000041da000030
:104c0400dd6b0000522800000000000000000000de
:104c14000000000000000000000000000000000090
:104c2400000000000020000059620000dddd0000eb
:104c34003a110000111100001111000011110000bf
:104c440011110000111100001111000011a3000046
:104c5400dddd0000269500000200000000000000d9
:104c64000000000000000000000000000000000040
:104c7400000000000093000023d70000dd9d000029
:104c84001311000011110000111100001111000096
:104c94001111000011110000111100001131000068
:104ca400d9dd00007d320000390000000000000062
:104cb40000000000000000000000000000000000f0
:104cc400000000003049000072dd0000dd28000013
:104cd4001111000011110000111100001111000048
:104ce4001111000011110000111100001111000038
:104cf40082dd0000dd2700009403000000000000b6
:104d0400000000000000000000000000000000009f
:104d14000000000084220000d9dd00007b120000a6
:104d240011110000111100001111000011110000f7
:104d340011110000111100001111000011110000e7
:104d440021b70000dd9d00002248000000000000a3
:104d5400000000000000000000000000000000004f
:104d64000040000038830000ddbd00002711000072
:104d740011110000111100001111000011110000a7
:104d84001111000011110000111100001111000097
:104d940011720000dbdd0000388300000400000015
:104da40000000000000000000000000000000000ff
:104db4000084000032da0000dd7b000012110000e4
:104dc4001111000011110000111100001111000057
:104dd4001111000011110000111100001111000047
:104de40011210000b7dd0000ad23000048000000e1
:104df40000000000000000000000000000000000af
:104e040020370000a3dd0000bd26000011110000c2
:104e14001111000011110000111100001111000006
:104e240011110000111100001111000011110000f6
:104e34001111000062db0000dd3a00007302000083
:104e4400000000000000000000000000000000005e
:104e540060160000d7dd00005b1100001111000096
:104e640011110000111100001111000011110000b6
:104e740011110000111100001111000011110000a6
:104e84001111000011b50000dd7d00006106000075
:104e9400000000000000000000000000000000000e
:104ea40040270000b6ad00001511000011110000ec
:104eb4001111000011110000111100001111000066
:104ec4001111000011110000111100001111000056
:104ed4001111000011510000da6b0000720400008f
:104ee40000000000000000000000000000000000be
:104ef4000076000065460000341100001111000026
:104f04001111000011110000111100001111000015
:104f14001111000011110000111100001111000005
:104f240011110000115200006456000067000000d7
:104f3400000000000000000000000000000000006d
:104f440000300000979900004a1100001111000080
:104f540011110000111100001111000011110000c5
:104f640011110000111100001111000011110000b5
:104f74001111000011a20000987900000300000044
:104f8400000000000000000000000000000000001d
:104f94000000000010110000471100001111000072
:104fa4001111000011110000111100001111000075
:104fb4001111000011110000111100001111000065
:104fc4001111000011a200001101000000000000f6
:104fd40000000000000000000000000000000000cd
:104fe4000000000000000000471100001111000043
:104ff400d1dd00002dd20000dd1d000011110000e4
:105004001111000011110000111100001111000014
:105014001111000011a200000000000000000000b7
:10502400000000000000000000000000000000007c
:1050340000000000000000004711000011110000f2
:10504400d1dd00002dd20000dd1d00001111000093
:1050540011110000111100001111000011110000c4
:105064001111000011a20000000000000000000067
:10507400000000000000000000000000000000002c
:1050840000000000000000004711000011110000a2
:10509400d1dd00002dd20000dd1d00001111000043
:1050a4001111000011110000111100001111000074
:1050b4001111000011a20000000000000000000017
:1050c40000000000000000000000000000000000dc
:1050d4000000000000000000471100001111000052
:1050e400d1dd00002dd20000dd1d000011110000f3
:1050f4001111000011110000111100001111000024
:105104001111000011a200000000000000000000c6
:10511400000000000000000000000000000000008b
:105124000000000000000000471100001111000001
:10513400212200001221000022120000111100009f
:1051440011110000111100001111000011110000d3
:105154001111000011a20000000000000000000076
:10516400000000000000000000000000000000003b
:1051740000000000000000004711000011110000b1
:105184001111000011110000111100001111000093
:105194001111000011110000111100001111000083
:1051a4001111000011a20000000000000000000026
:1051b40000000000000000000000000000000000eb
:1051c4000000000000000000471100001111000061
:1051d400d1dd00002dd20000dd1d00001111000002
:1051e40011d10000dddd0000dddd0000dd11000077
:1051f4001111000011a200000000000000000000d6
:10520400000000000000000000000000000000009a
:105214000000000000000000471100001111000010
:10522400d1dd00002dd20000dd1d000011110000b1
:1052340011d10000dddd0000dddd0000dd11000026
:105244001111000011a20000000000000000000085
:10525400000000000000000000000000000000004a
:1052640000000000000000004711000011110000c0
:10527400d1dd00002dd20000dd1d00001111000061
:1052840011d10000dddd0000dddd0000dd110000d6
:105294001111000011a20000000000000000000035
:1052a40000000000000000000000000000000000fa
:1052b4000000000000000000471100001111000070
:1052c400d1dd00002dd20000dd1d00001111000011
:1052d40011d10000dddd0000dddd0000dd11000086
:1052e4001111000011a200000000000000000000e5
:1052f40000000000000000000000000000000000aa
:10530400000000000000000047110000111100001f
:105314001111000011110000111100001111000001
:1053240011d10000dddd0000dddd0000dd11000035
:105334001111000011a20000000000000000000094
:105344000000000000000000000000000000000059
:1053540000000000000000004711000011110000cf
:1053640011110000111100001111000011110000b1
:1053740011d10000dddd0000dddd0000dd110000e5
:105384001111000011a20000000000000000000044
:105394000000000000000000000000000000000009
:1053a400000000000000000047110000111100007f
:1053b4001111000011110000111100001111000061
:1053c40011d10000dddd0000dddd0000dd11000095
:1053d4001111000011a200000000000000000000f4
:1053e40000000000000000000000000000000000b9
:1053f400000000000000000047110000111100002f
:105404001111000011110000111100001111000010
:1054140011d10000dddd0000dddd0000dd11000044
:105424001111000011a200000000000000000000a3
:105434000000000000000000000000000000000068
:1054440000000000000000004711000011110000de
:1054540011110000111100001111000011110000c0
:1054640011d10000dddd0000dddd0000dd110000f4
:105474001111000011a20000000000000000000053
:105484000000000000000000000000000000000018
:10549400000000000000000047110000111100008e
:1054a4001111000011110000111100001111000070
:1054b40011d10000dddd0000dddd0000dd110000a4
:1054c4001111000011a20000000000000000000003
:1054d40000000000000000000000000000000000c8
:1054e400000000000000000047110000111100003e
:1054f4001111000011110000111100001111000020
:1055040011d10000dddd0000dddd0000dd11000053
:105514001111000011a200000000000000000000b2
:105524000000000000000000000000000000000077
:1055340000000000000000004711000011110000ed
:1055440011110000111100001111000011110000cf
:1055540011d10000dddd0000dddd0000dd11000003
:105564001111000011a20000000000000000000062
:105574000000000000000000000000000000000027
:10558400000000000000000047110000111100009d
:10559400111100001111000011110000111100007f
:1055a40011d10000dddd0000dddd0000dd110000b3
:1055b4001111000011a20000000000000000000012
:1055c40000000000000000000000000000000000d7
:1055d400000000000000000047110000111100004d
:1055e400111100001111000011110000111100002f
:1055f40011d10000dddd0000dddd0000dd11000063
:105604001111000011a200000000000000000000c1
:105614000000000000000000000000000000000086
:1056240000000000000000004711000011110000fc
:1056340011110000111100001111000011110000de
:1056440011d10000dddd0000dddd0000dd11000012
:105654001111000011a20000000000000000000071
:105664000000000000000000000000000000000036
:1056740000000000000000004711000011110000ac
:10568400111100001111000011110000111100008e
:1056940011d10000dddd0000dddd0000dd110000c2
:1056a4001111000011a20000000000000000000021
:1056b40000000000000000000000000000000000e6
:1056c40000000000000000004741000055550000a4
:1056d400555500005555000055550000555500001e
:1056e40025d10000dddd0000dddd0000dd1100005e
:1056f4005555000015a20000000000000000000045
:105704000000000000000000000000000000000095
:105714000000000000000000573100005555000053
:1057240055550000555500005555000055550000cd
:1057340025d10000dddd0000dddd0000dd1100000d
:105744005555000014830000000000000000000014
:105754000000000000000000000000000000000045
:1057640000000000000000007421000055550000f6
:10577400555500005555000055550000555500007d
:1057840025d10000dddd0000dddd0000dd110000bd
:1057940055550000126600000000000000000000e3
:1057a40000000000000000000000000000000000f5
:1057b4000000000000000000a011000032440000be
:1057c40044440000444400004444000044440000b5
:1057d40024d10000dddd0000dddd0000dd2100005e
:1057e40044230000111a0000000000000000000023
:1057f40000000000000000000000000000000000a5
:1058040000000000000000007015000011110000ed
:1058140011110000111100001111000011110000fc
:1058240011210000121100001111000011110000db
:1058340011110000510700000000000000000000ea
:105844000000000000000000000000000000000054
:10585400000000000000000000b7000068440000e1
:105864004444000044440000444400004444000014
:105874004444000044440000444400004444000004
:10588400447500007b0000000000000000000000e0
:105894000000000000000000000000000000000004
:1058a400000000000000000000000000637700001a
:1058b400777700007777000077770000777700002c
:1058c400777700007777000077770000777700001c
:1058d4007736000000000000000000000000000017
:1058e40000000000000000000000000000000000b4
:1058f40000000000000000000000000000000000a4
:105904000000000000000000000000000000000093
:105914000000000000000000000000000000000083
:105bb4000000000000000000000400008c00000051
:105bc400bb00000000000000c318000024210000f6
:105bd400a631000028420000cb5a00002c630000cc
:105be400cf7b0000518c0000b294000034a500006b
:105bf400b6b5000059ce0000bad600007def000013
:105c0400ffff0000001000002222000022220000fa
:105c14002222000022220000122100001222000091
:105c24002112000022220000222200001222000081
:105c34001222000022220000111100002122000083
:105c44002222000022210000222200002222000041
:105c54002222000022220000122100003233000020
:105c64003322000022110000010000002143000043
:105c740044260000635400004401000000b4000006
:105c8400ddbd0000bbbc0000bd88000098a9000079
:105c9400cbbb00007a880000330200000010000033
:105ca40000000000000000000000000000000000f0
:105cb40000000000100100000001000000000000ce
:105cc40010110000222200002222000022220000e3
:105cd40022220000222200002212000022120000d0
:105ce40012220000222200001222000022220000c0
:105cf40022120000112100002222000022220000b2
:105d0400222200003232000022220000222200005f
:105d1400222200002211000032330000332200004e
:105d2400215300001301000020530000442300000d
:105d3400561200006401000031ca0000cccb000000
:105d4400dccb0000ab89000078a90000abab0000fd
:105d54009b880000361200000000000000000000d4
:105d6400000000000000000000000000000000002f
:105d740000000000011100001101000011210000c9
:105d840032230000222200003322000022220000dd
:105d94002222000022220000121100001221000021
:105da40022220000222200002222000022120000ef
:105db40021220000222200002222000022220000d0
:105dc40022320000222200002222000022220000af
:105dd400222200003333000022220000316500003b
:105de4003412000021330000343100003522000059
:105df4006412000072dc0000dccc0000cbbc0000ac
:105e0400bdaa000089b90000aa8a00009987000091
:105e140024650000141000001100000011000000af
:105e2400000000000000000000000000100000005e
:105e340011110000010000001121000033330000a3
:105e440033330000332200003222000022220000fb
:105e54002221000011110000112100002222000063
:105e6400222200002222000022120000222200002e
:105e740032220000222200003233000033330000bb
:105e840022220000222200002233000022320000dd
:105e94003433000023220000317600004623000042
:105ea4002133000033430000346500003832000021
:105eb400c7dd0000cdbb0000cccc0000cbbb000094
:105ec400baaa000098980000b855000065bb00000d
:105ed4008a66000035110000000000000000000088
:105ee400000000000000000000000000001000009e
:105ef40000000000112100002232000033330000b2
:105f0400332200002222000022330000231200006a
:105f140011110000111100002122000032230000a1
:105f2400222200002222000022220000333300003b
:105f340023230000333300003333000033230000f5
:105f4400221200001122000022320000442300002b
:105f54002222000052880000571200002233000061
:105f640043460000437400005a610000dccd000089
:105f7400bbbc0000ccbc0000bcba0000baba000034
:105f84009a9900009844000086ca0000cbbc000027
:105f9400891400001001000000000000000000004f
:105fa40001000000000000000000000000000000ec
:105fb40011210000222200003333000033230000ab
:105fc40043230000223200002312000011110000bc
:105fd400222200002222000022220000322200009d
:105fe400222300002222000032220000323300006b
:105ff4003333000033330000333300003322000016
:10600400112100002132000023220000223100006f
:106014007588000048010000213300007337000038
:1060240074a800005ba30000cdcc0000cccc000021
:10603400ccbb0000cbcb0000aabb00009a8a0000b6
:1060440069330000a5bb0000bb9b0000ba38000008
:1060540022220000121000000000000001000000d5
:1060640000110000010000000000000011210000e8
:1060740022320000333300003323000033330000a6
:10608400322200001211000011210000222200001f
:106094002222000023320000333300003332000098
:1060a400223300003222000032220000223200009b
:1060b4003333000023330000322200002222000088
:1060c400223200002322000022630000889900008d
:1060d400270000002033000054220000959b00009c
:1060e40015d90000bbcb0000dccd0000ccab000018
:1060f400a8db0000acbb00009b7a00003942000022
:10610400b89b0000cb8b0000da4b00006555000003
:1061140024110000011000000111000011210000f1
:1061240011010000000000001121000011320000e4
:106134002222000033220000222200002322000039
:106144001111000021110000112200002222000080
:1061540032230000223300003322000023220000f7
:10616400222200002222000022220000222200001b
:10617400222200002122000011110000224200000e
:106184002312000041860000a979000003000000ea
:1061940010330000343100007426000061bd00009b
:1061a400b9cc0000bccc0000cb8b000087cb000036
:1061b400aba900007a6900004793000089a9000098
:1061c400bbbc0000a96a0000977900004553000099
:1061d4001321000012110000111100001101000030
:1061e4000000000022110000111100001121000024
:1061f40022220000222200001111000011110000cf
:10620400221200001121000022220000222200009c
:106214002222000022220000333200002222000049
:10622400222200002222000022220000222200005a
:10623400221200001111000011420000342200005b
:10624400749800009937000000000000004200002c
:106254006666000089260000b68b0000bacc0000f8
:10626400bbcc0000bc7a000078b90000ba990000e9
:106274007a98000044a400009aa80000aac900006b
:106284008bb90000a98a00005655000014110000c3
:1062940011000000001100001100000000000000c7
:1062a4002222000011110000111100002111000030
:1062b40022220000111100001121000022220000fe
:1062c40022220000222200002222000022220000ba
:1062d40022220000232200002222000011210000bb
:1062e40022220000222200002222000022110000ab
:1062f40011120000014200003342000086990000a0
:1063040058020000000000000052000077750000f1
:10631400ab660000dbba0000dccd0000cccd000091
:10632400bc7b000088aa0000989a0000a9760000af
:1063340034950000aa990000a9ba0000cb97000088
:10634400ac8a000066680000131100002100000000
:106354000000000000000000000000002212000005
:1063640011110000211100001100000011110000a2
:10637400111100001111000001110000223200006f
:1063840033230000332200002232000022220000c6
:10639400221200001111000011110000222200003d
:1063a400222200002222000022110000110000001d
:1063b40001420000336300008899000025000000ba
:1063c400000000001075000056960000799500004a
:1063d400ddcc0000ddcc0000cccc0000bbaa00006a
:1063e40099b90000aa9a00009966000014a7000059
:1063f40099880000b9790000ba790000cb790000cf
:10640400967a000003000000110100000000000063
:106414000000000000000000221200001122000011
:106424001211000011100000110000000000000013
:10643400101100001111000021220000333300006c
:106444003332000022220000222200001211000038
:10645400111100001111000021220000221100007e
:10646400121100001111000011110000104300006e
:1064740033750000774700001200000000000000a0
:106484004155000075a9000097db0000ddbd000048
:10649400cccc0000ccba0000cbac0000bbaa0000fe
:1064a400898900007857000013960000998800003d
:1064b40087990000cbb80000a86900009747000046
:1064c40002000000000000000000000000000000c6
:1064d40000000000222200002122000012210000fe
:1064e400111100001111000011110000112200000f
:1064f4002222000022220000222200002222000088
:1065040022220000111100001111000011110000dd
:1065140011210000121100001211000011110000dd
:106524001111000011110000114300005455000026
:106534004513000011000000000000004343000068
:1065440065aa000076dd0000bccc0000bc9b000006
:10655400caba0000bbcc0000aabb0000ab88000094
:106564006a4600001295000066980000b88a000090
:10657400899700007865000089240000000000006d
:1065840000000000001100000011000001000000e4
:1065940022220000222200002221000022220000e8
:1065a40022120000111100002122000032230000f9
:1065b400221200002211000011110000221100001b
:1065c400111100001111000011110000111100003f
:1065d4001111000000110000111100001111000040
:1065e4000100000021540000553400001311000084
:1065f40011000000000000005365000077db00007c
:10660400d9dd0000bccd0000bb89000098ab0000c0
:10661400dd9a0000ba9c0000995700006534000020
:1066240011760000ac4300007a67000098b60000c1
:106634009c96000088250000000000000000000077
:106644002154000045120000110100001122000035
:106654002221000022220000222200002212000037
:106664002222000012220000223200002322000015
:10667400121100001111000011110000111100008d
:1066840011110000110100000100000000010000d0
:106694001011000011110000001100001021000071
:1066a40032540000342300001111000011000000d6
:1066b400002000005466000055b60000dddd000037
:1066c400dcbc0000ab88000089ba00009aca000054
:1066d4007bd90000899a0000641400001153000063
:1066e400758a000095a70000789c000046b700005a
:1066f4005a12000000000000001000003264000084
:10670400892500003202000010220000221100003e
:1067140022220000121100001111000011110000ca
:106724001121000022220000222200002222000067
:1067340011110000111100001121000012110000bc
:1067440011110000111100001111000011110000bd
:106754001111000011110000212200002243000049
:10676400332200001211000011000000002000007c
:106774006656000075da0000ddcc0000bdcc0000d8
:10678400bc8a000088b800009bb90000ab9a0000e6
:10679400797600005814000001a600004767000045
:1067a400355300004684000057960000461200004e
:1067b4000000000000310000546500005555000041
:1067c4003503000000210000111200002222000005
:1067d400111100001211000011110000111000002d
:1067e40011210000222200002222000022120000b7
:1067f400111100001111000011110000121100000c
:1068040011110000111100001111000011110000fc
:106814001121000022220000323300002322000054
:106824001211000011000000004000006733000056
:1068340096dc0000cccc0000bdcb0000dcac00003a
:1068440088b80000bca9000099a900007a7500006e
:106854003912000000500000576500003454000055
:106864004564000043880000361200000000000068
:106874002043000076980000677700007607000048
:106884000011000011220000222200002222000038
:106894002222000022110000111100001111000039
:1068a4001121000022220000221200001122000007
:1068b400110000001111000011110000111100005d
:1068c400111100001111000011110000112100002c
:1068d4002221000032340000223200001211000094
:1068e400110000000062000067550000b7bd000001
:1068f400a9dd0000ccbd0000cbcc0000abb900008a
:10690400ab980000b97800008846000045010000fb
:1069140000300000766700003732000022140000c7
:1069240073680000130200000010000042660000bb
:1069340076a90000999a0000970b0000002100003e
:106944002222000022220000323300002222000012
:106954002222000022210000111100001121000058
:106964001121000022220000111100001111000069
:10697400111100001101000010110000111100009c
:1069840010000000000000000011000012110000bf
:106994003134000022330000121100001100000005
:1069a4000054000066770000c99c0000a9dc0000c8
:1069b400dccd0000bccc0000cccb0000baa90000a8
:1069c400a87a000097250000420000000010000093
:1069d40052570000453300001110000085380000b4
:1069e4002101000000310000549700009978000054
:1069f400a97900009709000000220000222200006b
:106a0400223200003333000033330000332200000d
:106a140022220000121100002222000012110000a4
:106a240011210000110100001111000011000000eb
:106a34000000000000000000000000000000000052
:106a44000000000001100000121100004134000099
:106a54003233000011110000010000002055000035
:106a640076990000dcaa0000bbdd0000cccc00005d
:106a7400cccc0000ccbb0000aaab000079a900007c
:106a840076380000220100000000000032440000bb
:106a9400642500000110000087260000210000008a
:106aa4001032000065870000a98900009968000081
:106ab40066050000002200001111000021120000f0
:106ac40011110000223300002322000022110000d3
:106ad40011110000111100002222000012210000f7
:106ae400110100001011000001100000101000003e
:106af400011100000000000001100000111100004d
:106b04001111000023110000423400002223000070
:106b140012110000010000004078000075ca000056
:106b2400ddcd0000dccc0000ddcc0000bbdc0000cf
:106b3400cccc0000bcb90000798600005757000097
:106b44001200000000000000213200004337000062
:106b540010430000671300002200000010420000f0
:106b64007667000075a90000bb9b00006608000062
:106b74001022000021120000221200001111000056
:106b84001111000011110000211100002222000047
:106b94001211000022220000221100001121000025
:106ba4001111000011110000111100001111000059
:106bb4001111000021220000221200001111000016
:106bc400322200005334000022220000121100007f
:106bd400110000007147000086db0000ddbc0000ee
:106be400bdcc0000dccd0000cbdd0000acbb000060
:106bf400bab800007b97000048740000130000003e
:106c040000000000222200003255000042750000fe
:106c140024120000120000001042000065990000d8
:106c240099aa0000aa8c000065060000102200004a
:106c34002222000022220000222200002212000050
:106c44001111000011210000222200002222000064
:106c54002322000022120000212200002211000041
:106c64001121000011210000111100001111000078
:106c74001121000022220000121100002123000033
:106c84004434000033220000021000000100000020
:106c940073650000a8dc0000cdcc0000bcab000094
:106ca400aacb0000cccc0000bbbb0000caa90000ea
:106cb40089780000785300001211000000000000e1
:106cc400531200001145000052540000131100003b
:106cd400000000002053000085ba0000bb8a0000b9
:106ce400998b000077070000102200001221000099
:106cf4002222000022220000222200001122000091
:106d0400222200003322000022220000222200005e
:106d140012110000111100002212000011110000d4
:106d240011110000111100001111000010110000d8
:106d3400111100001111000022430000453400002d
:106d440033320000021000000100000064a50000be
:106d5400cadd0000ddcc0000bb99000099a9000049
:106d6400cdcb0000ccaa0000bb9900007a560000ed
:106d74007546000012110000011000006424000098
:106d84002123000031230000110100000011000044
:106d940041870000a78900008888000099790000d5
:106da400a9090000102200001211000011110000b6
:106db4001111000021110000112100002223000004
:106dc40033330000232200001211000011110000cf
:106dd4001111000011110000111100001101000037
:106de400101100001110000010110000111100001a
:106df400111100001152000055340000333200001c
:106e0400131100001110000054770000dddd0000b4
:106e1400ddcc0000dcab0000a9990000cbac000085
:106e2400bbab0000ab9b00008977000064590000f5
:106e34001211000022210000664500002212000009
:106e4400121100001101000000110000519800000f
:106e540088880000897500008846000076060000d6
:106e64001022000012010000101100001111000096
:106e74001111000011110000212200002222000043
:106e84003222000022120000111100001111000032
:106e94001111000011110000111100001111000066
:106ea4001111000011210000111100001111000046
:106eb4001153000055350000342200001211000067
:106ec4001120000066c50000ddcc0000ccdd000010
:106ed400cddd0000bd980000b9ad0000caad0000d2
:106ee400baca0000ab680000665600001221000018
:106ef4005322000046350000212200002222000017
:106f0400120000000010000083ba0000bbaa0000b9
:106f14007a86000077560000770700001011000001
:106f240021110000111100001111000021110000b5
:106f3400211200002122000022220000222300004e
:106f44002222000021120000121100001211000080
:106f54001111000011110000212200002222000062
:106f640022220000222200002222000022550000da
:106f74005555000025110000211100000172000088
:106f840075da0000bc9a0000dbcd0000cdcc000017
:106f9400cdab0000cadc0000acdb00008d8b000030
:106fa400cd9c000078750000456800005521000064
:106fb40053460000122100002212000011110000ab
:106fc40000100000b6bb0000aa790000689700001a
:106fd40067650000880800001011000011210000fe
:106fe4001211000011110000111100001111000014
:106ff400221200002232000033230000222200006b
:10700400222200001122000012220000221100009e
:10701400211200002211000022220000222200007e
:1070240022320000332200003244000055440000a4
:10703400441200001111000010560000b6bd0000fb
:1070440099aa0000dcdd0000dccc0000cdcd0000fe
:10705400dcbc0000cca90000db7c000094cc000068
:10706400a8780000db9b00006c540000565600001a
:107074000111000012220000110000000040000075
:1070840089770000a88a000087a900006a540000dc
:1070940076070000211100001122000022220000c6
:1070a4001212000011110000111100001122000041
:1070b40022220000222200001121000022220000ce
:1070c40011110000222200002222000022220000ce
:1070d400222200002222000023230000222200009a
:1070e40032220000434500006634000033440000af
:1070f4002321000062780000dadd0000bbdb000021
:10710400cdcb0000badd0000ddcd0000abdb00001c
:10711400bc8a0000a9bb00005bb80000cddc000005
:10712400bd57000059740000665400003532000059
:107134002312000011110000112100008435000009
:1071440095ab0000689600005966000067050000d2
:107154001111000021110000222200001211000070
:107164002211000011110000111100001112000081
:10717400111200002121000022220000222100001f
:1071840022220000222200002222000022320000db
:107194002333000033330000333300002222000085
:1071a4005345000066340000233200008667000067
:1071b40057750000cddd0000dedd0000cdcd000000
:1071c400ddcc0000bdcc0000ccbb0000bccb00007b
:1071d40078cb000099980000ba9a000077c50000a7
:1071e4004b680000355400004522000012210000c5
:1071f40011110000113100004433000075780000c3
:1072040055430000436700006507000011110000aa
:1072140011110000121100001111000033220000ae
:1072240011110000111100001111000011210000c2
:10723400222200002222000022220000223200002a
:10724400222200002222000022220000222200002a
:1072540022220000332300002211000053330000d7
:1072640055440000232100004277000097da000013
:10727400dddd0000cdcc0000ddbb0000dadd000068
:10728400bdcc0000ccbc0000aaac00009b97000061
:10729400cb8a00006754000043aa00004676000031
:1072a40036540000241100002211000000110000d7
:1072b40000100000326300007679000045030000ee
:1072c4005176000066060000111100001121000033
:1072d40022110000111100004333000012100000bd
:1072e4001111000011110000111100001122000001
:1072f4002223000022220000222200002222000079
:107304002222000022230000222200002222000068
:1073140022220000222100004542000055440000c2
:107324002322000031860000dcdd0000dddd0000ea
:10733400dddd0000dd9a0000c9bd0000bdcc000009
:10734400ccbc0000abab00009c960000a8bc0000c5
:1073540068980000967c0000a46600004633000094
:10736400340100002111000011110000114100003e
:10737400988700007879000035540000859a000051
:1073840089060000122100002222000022120000bf
:1073940021220000433300002311000011110000da
:1073a400111100001211000011110000222200002e
:1073b40022220000222200002222000022220000b9
:1073c4002223000022220000222200003222000098
:1073d40032320000453200005544000023220000f0
:1073e40052c80000dddd0000dddc0000dddc000053
:1073f400dd9a0000cacd00009ccb0000aaba0000b0
:10740400bd9b0000bb98000077cc0000aba9000036
:10741400dc9a000098560000543400002311000048
:1074240021110000111100001162000089660000a2
:10743400786700008887000098cb00008b06000066
:10744400112200002222000012220000211100005b
:10745400222200002222000012210000121100004a
:107464002122000022220000222200002222000009
:1074740022220000222200002222000022220000f8
:1074840022220000222200002222000022420000c8
:1074940045330000554400002332000073db000034
:1074a400dddd0000dddd0000dddd0000ddab000022
:1074b400dadd0000ccab0000bbaa0000bc9a0000df
:1074c400aabc000088870000b9ab0000ad9700009b
:1074d400793500003334000022210000122100001d
:1074e40011110000115200007756000045430000be
:1074f400a89a0000a9cc000069070000211100002f
:107504002222000022220000112100002222000079
:10751400222200002222000021110000111100008b
:107524002122000022220000222200002212000058
:10753400212200002122000022110000222200004a
:107544001222000022110000004200005632000006
:10755400553400002332000086db0000dddc00002f
:10756400cddb0000dcdd0000ddcc0000dccc000065
:10757400dcad0000baab00008abb0000aadb00004f
:10758400aaaa0000cb8c00008978000047230000e1
:107594004422000011320000121200000111000008
:1075a400115200006676000088870000aaaa000035
:1075b4008997000057060000111100001111000006
:1075c40021220000222200002222000022220000a8
:1075d40022120000222100001111000021220000cb
:1075e40011110000111100002112000011110000fe
:1075f4002111000011110000111100001100000000
:107604001200000000420000454200006534000002
:107614002343000096dd0000bcba0000dccb000070
:10762400dddd0000dddd0000dddd0000cdbc00009f
:10763400bab900007ba90000bbdb0000cbac0000a2
:1076440078360000946900002542000035210000ce
:10765400113200001211000001010000116300004a
:1076640077a80000bbaa0000aa9a00007844000092
:1076740054050000112100002222000022220000f3
:1076840022220000332200002222000022210000d6
:107694001122000012110000212200001212000029
:1076a400111100001122000022110000111100002c
:1076b4001111000011110000110000000000000071
:1076c40000530000135200005644000022430000ff
:1076d400a7cd0000aaaa0000bbcc0000cddd0000ad
:1076e400dddd0000bddc0000ccbb0000bb9b000066
:1076f400a9ab0000a99a0000865700005535000088
:1077040064560000244300002421000011320000cc
:1077140012110000110000002176000075aa00007b
:107724009aa90000ba990000883700007306000087
:107734001222000023220000222200002222000044
:107744002222000022220000222200001221000036
:107754001111000021220000222200002211000049
:10776400111100001111000011110000111100008d
:107774001121000022110000011100002155000018
:10778400135200005644000012520000c8dd0000ed
:10779400cccc0000aab90000dccd0000ddcc000098
:1077a400bcbc0000cbcd0000cccd00009bda0000b7
:1077b400bbb9000089a80000ab6900005533000084
:1077c40033220000131100001022000011100000e9
:1077d400011100005189000077a8000099a8000059
:1077e400a99a0000aa79000077070000222200006d
:1077f4002222000022210000222200002222000076
:107804002222000022220000222200001111000086
:107814002122000032220000221100001111000078
:1078240011110000111100001111000001110000dc
:107834001111000001110000214500001262000036
:107844004545000013620000dcdd0000ddcd0000d2
:10785400bbaa0000cbbc0000cbdd0000acbd000027
:10786400abdc0000ddcc0000cdca0000bcdc0000b5
:10787400dcdd0000bd680000764400002321000028
:1078840001110000000000001021000001100000a0
:107894006278000079a800009b99000099cc000050
:1078a4009a770000780700001112000021110000ef
:1078b4001111000011110000112200002222000009
:1078c40022220000222200002212000011210000c6
:1078d40022220000222200001211000011110000d7
:1078e400121100000110000000000000111100003e
:1078f400010000002045000013630000444500001f
:1079040013a20000ddcd0000cddd0000ccab0000f3
:10791400cbbc0000cadd0000bacb0000cdbc000027
:10792400bbbb0000dcdd00009dbc0000a7b900006b
:107934005a340000543300000211000000210000fa
:107944000121000012120000111000004276000014
:10795400a8aa0000a8990000aa8a0000a98800002b
:10796400a9090000121100001111000011110000fa
:10797400111100001111000011110000112100006b
:107984002222000022220000112100002211000006
:107994001111000011110000112200002201000049
:1079a40000000000000000000000000000100000c3
:1079b40030550000135300005445000022d7000046
:1079c400dddd0000dccc0000dcbd0000bacc000032
:1079d400dcbc0000abcb0000bbbb0000cddc000076
:1079e4008acc00009c66000067530000242300003a
:1079f400000100000000000000100000122100003f
:107a04001111000011110000317400009898000059
:107a140088880000a958000045550000750500003d
:107a240022120000111100001111000010110000b9
:107a34001111000011110000111100002122000099
:107a440011110000111100001101000000000000dc
:107a540000110000111000001100000010110000be
:107a6400001100000000000010000000205500007c
:107a7400244300005435000031da0000ddcd00005d
:107a8400bcdb0000dcbd0000dbbc0000ccbc0000a3
:107a9400dddd0000baca0000cccb0000adbb0000a5
:107aa400bc3c00002422000031130000020000004e
:107ab400000000000000000011220000221100005c
:107ac400112100001241000057a70000897900002d
:107ad40065750000879a00006908000021220000f3
:107ae400111100001111000011110000111100000a
:107af40011110000111100001111000011110000fa
:107b0400111100000101000000000000000000004d
:107b1400000000000000000011010000001100003e
:107b24000100000000000000306600001432000074
:107b34005414000093de0000dddd0000cbcc000017
:107b4400ccd90000bcbc0000cadb0000c8bd0000ea
:107b5400bdab0000ddcc0000cd7a000088540000ed
:107b64003321000043130000120000000100000054
:107b7400001000000111000021020000111100009a
:107b8400014000005667000074960000494300005d
:107b94004554000056040000222200002222000066
:107ba4001122000012120000211100001111000026
:107bb400111100001110000011000000000000006d
:107bc40000000000000000000000000000000000b1
:107bd400000000001101000000100000000000007f
:107be400000000003066000024430000441300003d
:107bf400c5dd0000bccd0000ccba0000cbbc000049
:107c0400badb0000cccb0000bb9a00009aca00008b
:107c1400abbb00009a9b00007596000064670000ef
:107c2400345400005523000012000000003300000b
:107c34000111000021110000111100002174000045
:107c440078860000878800008967000067240000a8
:107c54002203000021110000212200002222000042
:107c64002222000022220000222200001111000022
:107c740011000000111100000000000000000000cd
:107c840000000000000000000000000000000000f0
:107c940000000000010000000000000000000000df
:107ca400316600002433000044320000dcdd0000b3
:107cb400cddc0000ccba0000ccdb0000cdbb000062
:107cc400cbdb0000acca0000cbab0000cd990000b8
:107cd400ba9a000089bc0000bc580000444500006a
:107ce4002300000010000000102200000111000019
:107cf40011110000111100003176000099a9000053
:107d040099cb0000bd7800006745000033050000f2
:107d14001111000011220000223300002222000071
:107d24002222000033230000221100001110000061
:107d3400000000000000000000000000000000003f
:107d4400000000000000000000000000001000001f
:107d54001101000000110000111100003165000044
:107d64002433000055a40000dccd0000cdcd00007c
:107d7400cccc0000cccb0000ddab0000bacb0000c3
:107d8400bacb0000d8cc0000cbab0000aacb0000db
:107d9400ecce000078440000342300001200000000
:107da400000000002112000000100000011100007a
:107db40021110000717700008877000098ba000054
:107dc4009a79000055550000660600001111000064
:107dd40011110000112100001211000011220000f5
:107de40022220000221100001111000000000000f6
:107df400001000000000000000000000000000006f
:107e04000000000000110000111100001111000019
:107e1400112100001122000032540000243300001c
:107e240066c70000cddd0000cdaa0000cbca00006b
:107e3400bbac0000cbba0000bbbb0000bcc9000057
:107e4400cbcd0000cccc0000bdde0000dc880000ff
:107e5400a97a000044220000010000000010000084
:107e64001211000000100000111100001121000087
:107e74008579000097990000a9990000997800007d
:107e8400878800006605000022120000111100001e
:107e94001111000012110000111100001111000055
:107ea400111100000111000000000000000000009a
:107eb400000000000000000000000000101100009d
:107ec40011110000212200002222000022220000c1
:107ed40011220000325500003433000065ca00004e
:107ee400bccd0000ddab0000bbbc0000abcc00008f
:107ef400ccbb0000bbcc0000bccb0000dcdd000030
:107f0400bcdd0000ac8900007653000088570000f7
:107f140033220000000000001010000001000000e7
:107f2400000000002012000011200000655600002f
:107f34007677000077880000888800008899000020
:107f4400aa0a0000222200001211000011110000f0
:107f540011210000111100001101000000000000b7
:107f6400010000000000000000000000000000000c
:107f74001111000011110000111100001111000075
:107f840022220000222200001221000022220000ee
:107f9400225400003433000075db0000dbbc000019
:107fa400bccc0000ccbd00009cbb0000bcbc0000ed
:107fb400aaab0000bbcc0000abac0000988a000068
:107fc4007632000022450000442300002311000003
:107fd400000000001210000000000000000000007b
:107fe40030120000112000005455000055650000b7
:107ff40067860000898900007777000098080000f0
:10800400222200002221000022220000111100007f
:108014001211000011110000110000000100000005
:108024000000000000100000011100001111000008
:108034001111000021120000212200002222000060
:10804400221200001111000012110000215400003e
:1080540034330000a4dd0000cbbb0000abba000049
:10806400cccc0000a9ab0000bbbb0000aba9000056
:10807400cbab00008b89000066250000537700001d
:10808400786b0000271000001111000000100000a0
:108094001201000000000000000000004004000085
:1080a40011210000637700007777000087550000f6
:1080b400757900006555000044040000112100009a
:1080c400222200002222000022220000222200009c
:1080d40022220000111100002222000022220000ae
:1080e40012110000111100001111000022220000e1
:1080f400222200002222000022220000221200007c
:108104001122000012220000215400004423000028
:10811400d6bd0000cdbb0000abbb0000bbac000073
:10812400aabc0000aaaa0000dbac0000abab0000b4
:10813400aa98000067450000b9de00008d470000e2
:10814400132000005465000003000000100000002c
:1081540000000000000000004004000011110000b5
:1081640031650000767800008857000086690000b9
:10817400876700006606000001110000212200004c
:1081840022220000222200002222000022230000da
:1081940022220000212200002222000022220000cc
:1081a400121100001111000011220000222200000f
:1081b400222100003223000022220000222200009b
:1081c400222200002253000044230000dbbc0000f4
:1081d400cdba0000bcbb00009b9b0000aacc0000f1
:1081e400aa9a0000aa9a0000ab990000c8aa00004d
:1081f40089a90000ddcd00006923000010520000b1
:10820400a89a00006a0300001000000000000000ab
:10821400000000004214000021110000102300009f
:10822400337600007778000098990000999900004f
:10823400a809000011110000111100001112000022
:10824400212200002222000021220000222300001b
:10825400221100002222000022220000222200001b
:10826400121100001111000011210000221200005f
:1082740022220000222200003223000022220000d9
:108284002242000054730000cddb0000bcbb0000a0
:108294009bab0000cbbc0000bacc0000aaaa000033
:1082a400ab690000cbbb0000c8ca0000cccc000006
:1082b4009c5700003435000010b50000ac8b000062
:1082c4008a470000130100000000000000000000c5
:1082d40041130000113100003334000065770000c1
:1082e4008789000077a800007a88000088090000c8
:1082f40011220000111100001111000011210000d1
:10830400222200001122000022220000222200006a
:10831400211200002122000022220000222200005b
:10832400121100001122000022220000222200006b
:108334002212000022220000222200002243000018
:1083440044b40000cccb0000abbc0000baaa0000cf
:10835400cabb0000dcab0000aaaa00009b8a000094
:10836400aaaa0000badc0000ddab0000573100000f
:108374006418000041b80000ac9a0000879800001f
:10838400460000000000000000000000421500004c
:108394001141000056530000778800007a770000ee
:1083a4006687000089a900009909000021220000c5
:1083b40022220000122100001121000022210000cd
:1083c40022220000222200002222000022120000a9
:1083d40011110000222200002222000022110000bc
:1083e400212200002222000022220000221100008b
:1083f40011110000212200002222000044c80000c4
:10840400dbcb0000b9aa0000cbcc0000baba000054
:1084140099c90000aabb00009a980000a8ab00000c
:10842400dddc0000ac460000337500006a16000075
:1084340092bc0000cc8c0000c89b0000a704000084
:1084440042850000020000003214000011420000c6
:10845400567500007687000098a900008b5700002d
:1084640086990000880700002222000022220000d2
:10847400121100001111000021220000222200002c
:1084840022220000333300002211000011110000e9
:1084940011110000212200002221000022220000ec
:1084a40022220000222200002211000011210000db
:1084b400121100001221000044d90000adbd0000db
:1084c400acda0000bc8a0000a9d80000cb8c000004
:1084d400cdaa0000cbcb00009dcb0000a99d0000dd
:1084e400662300003297000035530000dabc000018
:1084f400dcad0000b64900008667000078950000f6
:10850400050000004314000011430000534500001f
:1085140055770000676700007667000076a80000c2
:108524008b08000033220000121200001112000018
:108534002122000022220000222200002222000028
:108544003323000022120000211100002222000027
:1085540022220000222100002233000022220000f7
:10856400222200001212000011110000111100005b
:108574001111000062dc0000dcbb0000bd9c0000a7
:10858400c89c0000da7d0000979b0000c88c0000a6
:10859400c9690000c538000084420000343200007c
:1085a400baa9000046940000ac69000067480000c6
:1085b400a5690000472500006612000000000000c5
:1085c4003214000011310000869900009a890000dd
:1085d400978b00008977000068770000460500004b
:1085e40022220000221200002111000011220000aa
:1085f4002222000022220000222200002222000067
:108604002212000011220000222200002222000077
:108614002222000022220000222200002222000046
:1086240011110000111100001111000011110000be
:1086340061cc0000bdac0000baaa0000cc890000e7
:108644009abb0000ab9800009cd900007ac90000d6
:10865400685600002435000042a70000b937000026
:1086640084db00007a4400001221000073870000bc
:10867400aa37000043030000000000004314000078
:108684001142000097aa0000cbbc000099760000bc
:108694007777000067870000880900002222000025
:1086a40012110000211200001122000021220000fa
:1086b40012110000112100002221000022110000eb
:1086c4001122000022220000222200003222000097
:1086d40022220000111100001111000011110000ec
:1086e40011110000110100001122000092cd0000c0
:1086f400bbab0000d9ba0000cb9a0000ac9a0000d2
:108704009a9b00009bc90000aaaa0000aa58000076
:108714005533000083dd00007ba30000ddbb0000b7
:108724008b3600000271000047a80000bc3800002e
:108734003201000002100000431400002174000004
:10874400aa88000098bb0000aa890000789800005d
:10875400a8cb0000cc0c0000222200002212000052
:108764001111000011220000222200001211000049
:108774001111000011110000221200002222000039
:1087840022120000212200002222000022120000f6
:10879400111100001111000012110000111100004c
:1087a4001111000011110000a3bc0000bb8b0000dc
:1087b400bba90000aaab00008abc0000aabb000051
:1087c40099cb0000baba00008a8900004563000012
:1087d400cabb0000579700007946000046730000aa
:1087e40035a60000688700006936000024010000f7
:1087f4001110000043140000317600008689000047
:10880400585400007788000098890000a89b000055
:10881400ca0a0000112200002222000021220000c6
:108824002223000022220000222100001111000056
:108834001111000022220000122100002112000068
:108844001122000011110000212200001212000068
:10885400111100001100000011110000212200007c
:1088640022120000c6ab0000bdba00008baa0000b3
:1088740099bb0000ba880000999b0000aa980000e8
:10888400cacb00007855000055b80000dcac0000ed
:10889400977b0000783200008645000023430000e7
:1088a4006379000088140000336300001510000091
:1088b40033340000215400006399000088870000cd
:1088c400aaab0000bbbb0000aa7a00007705000039
:1088d40011110000211100002222000032230000a7
:1088e4002211000022220000222200001121000097
:1088f40022220000222200001111000011110000a8
:1089040011110000112200001211000011110000c9
:108914001111000011210000222200002232000067
:10892400c9cb0000bbbb0000a9ba0000aaaa000082
:10893400898a000097990000bb98000078760000af
:1089440077550000b9cd0000a89d0000759b00007c
:1089540068a600009a1800000000000032670000ba
:108964007702000010720000382100004415000056
:108974001162000088a900007976000057550000b4
:1089840076990000996a0000560300002211000045
:1089940022220000121100002121000021220000e7
:1089a40022220000221200002112000022220000d4
:1089b4002222000012110000111100001111000008
:1089c4001111000001110000112200001211000019
:1089d400222200002222000033520000dbbc0000ef
:1089e400a9aa0000cabb0000aa9a0000999c000032
:1089f400a9da00009aba00008a56000067970000be
:108a0400ccbb0000dc7c0000978c000064cb000031
:108a1400ba6b0000010000007768000068030000e2
:108a24000060000068460000532400001075000038
:108a34008956000065970000363200005476000025
:108a44005754000067060000112100002222000094
:108a54002221000021210000212200002222000006
:108a64002222000012110000111100002221000036
:108a74002211000011110000111100001111000059
:108a84000111000011110000111100001122000059
:108a94002122000022620000db9c00009baa00004f
:108aa400bbab0000b99b0000a9ac0000baba00003f
:108ab400b9bc0000bb69000075bb0000dcde00002f
:108ac400cd670000c9690000b7bd0000cbcc000031
:108ad40079860000bb6a0000593300000171000070
:108ae40088650000332300004066000065560000de
:108af40075890000575400005544000036300000ca
:108b0400760600001111000011210000222200004d
:108b14002222000022220000222200002222000041
:108b24002222000021110000212200002212000054
:108b34001111000011110000222200002222000065
:108b44001111000011110000111100001111000099
:108b540011720000dcbb00009bb900009aab00005e
:108b640089980000a9a80000cb970000cb780000ea
:108b740087870000a9dc0000eede00007b84000093
:108b8400aaa70000bbad0000abdb0000bcbc00002a
:108b9400ab9b00006923000002a30000997700004a
:108ba400232400003155000054660000668700004d
:108bb4008786000078570000242100007406000016
:108bc4000010000011110000111100002222000009
:108bd40022220000222200002212000022120000a1
:108be40011100000112200002212000011210000c7
:108bf4002222000022220000222200002222000061
:108c040011110000111100001111000011a3000046
:108c1400ccba00009cb800009a9a00007897000033
:108c24009aaa00008ac80000ac98000077b7000038
:108c3400ddde0000edcd0000499300007aa80000bd
:108c4400a99d0000a9bb00009baa00007898000021
:108c54007802000034b60000a97b00003433000021
:108c640031550000777700006777000076780000c0
:108c74007766000013310000850600000010000034
:108c84001112000011110000122100002222000024
:108c94002222000012110000111100000000000047
:108ca40010110000111100002222000022220000f5
:108cb40022220000222200002222000012110000c1
:108cc400111100001122000012b40000cd9c00001c
:108cd400bb9b0000a9bb000089ba000078780000a3
:108ce400666b0000b99b0000aadb0000cddd00002c
:108cf400dddd00004a740000babb000099aa000040
:108d0400aaa90000aacb00007ba800008a130000d7
:108d140077980000baba00002633000021740000de
:108d24009899000089680000557700005565000097
:108d3400768700006806000011110000222200005e
:108d44002222000022110000111100001111000064
:108d540011110000110100000000000011110000b9
:108d64001121000022220000222200002222000001
:108d740022220000222200002222000022120000ef
:108d84001122000012c60000bdaa0000abbb000007
:108d9400ab9800009aaa0000a98900007868000036
:108da40085980000cadd0000adcd0000cdcd0000e7
:108db4009c34000074cc0000abbb0000aa88000007
:108dc40099990000bb9a00009a580000b9990000d4
:108dd400cabb0000464400001275000087a90000c9
:108de400bbab00009b88000089870000cabb000061
:108df400ab090000112100002233000023220000ef
:108e040022220000121100001111000011110000b3
:108e140011110000101100001111000011110000c7
:108e2400212200002222000022220000222200002f
:108e34002222000022320000221200001111000040
:108e440012d70000cdb90000ab8b0000ba79000046
:108e540096770000b7b70000d976000077ca000003
:108e6400bccd0000bbcb0000cd9a0000cc27000095
:108e740045840000cdbb000078860000a97a00007c
:108e8400ba8a00006898000089b80000ba9b000004
:108e9400443400002286000088890000669800009f
:108ea40099860000a8aa000099aa0000ca09000037
:108eb40011120000223300002322000012220000bd
:108ec40022220000221100001122000012110000d1
:108ed4001111000011110000110000001111000017
:108ee40011110000222200002222000011120000b1
:108ef40022220000221100001111000041dc0000b8
:108f04009bba0000acdb00009b870000cbbc0000d8
:108f14003bb300008dd30000adc90000ddb90000f3
:108f24008aca00007d8a0000b79d0000588b0000ab
:108f3400b9a800006bc800009aa90000bc88000012
:108f440088780000a58b0000c8bb000048330000ef
:108f540022530000888800008349000065870000d0
:108f640077aa000098780000670800002222000019
:108f740022220000222200002222000022220000dd
:108f84002222000021120000111100001111000022
:108f94002211000001000000001000001111000067
:108fa40022220000112200001122000012220000df
:108fb400122200001221000061dd0000aabd0000a1
:108fc400bd870000dcbd000069770000d7480000c1
:108fd40054a9000068cd0000aacd0000d89d00006f
:108fe4009c9900008adc000096dc0000cdc80000db
:108ff400ba9b0000dcbb00009c99000097ab00000a
:109004008aca0000cbcd00005b3400005267000028
:109014005466000077680000869900008877000095
:10902400ba9a0000780900002222000022110000f0
:10903400222200002222000022220000222200001c
:109044001211000011210000112100001211000072
:1090540011010000000000000011000011110000c7
:109064002112000021220000111100001111000042
:109074001111000061bc0000baba0000cdab0000c1
:109084008b990000dc9d000058a70000657d00005e
:10909400c5bb000099ba0000caab0000b667000067
:1090a400cccc0000bdcb00009a590000c7bc000026
:1090b400abcb00009aa70000988c000087cb00007f
:1090c400bbcd00004a3300005255000098680000f0
:1090d40034860000c8a900009a6600008888000051
:1090e4007709000022120000111100002122000063
:1090f400222200002222000022220000221200006c
:10910400222200002122000012110000111100008f
:109114000000000000000000001100001111000018
:1091240011120000111100001111000011220000a1
:1091340092cd0000ca9b0000aaaa00009baa0000ce
:10914400ba8a00009b7a000087360000b9980000b4
:1091540088a90000b99b000088650000bacb000014
:10916400bdbb0000759d0000b8ac0000a9bc0000a8
:1091740059a50000a88a0000a8bc0000acbb0000f0
:109184008b23000052860000baab0000998a0000cd
:109194008897000098aa000057460000670700005f
:1091a4002211000011110000111100002122000001
:1091b400222200002222000022220000222200009b
:1091c40022220000221100001211000012110000de
:1091d4000100000000000000111100001111000046
:1091e400111100001101000011110000c4bc0000a5
:1091f400ccbb0000bb9b0000bbab0000b9ca0000a5
:109204008bb8000058120000ba990000659800005d
:1092140089aa000089a90000baac0000cb8b000029
:1092240062cc0000a8bc0000ab790000035200002f
:109234007878000089ab0000aab900008b340000e4
:1092440043660000b9bb0000bcbb000057a9000086
:10925400a8bb0000babb000099090000222200004c
:10926400222200002221000022220000121100000c
:1092740022220000222200002222000022220000da
:1092840022220000222200002222000012110000eb
:109294001111000011110000111100000100000063
:1092a4001111000011210000d8cc0000bccc00003a
:1092b400cda90000a88a0000a8870000a8ab000080
:1092c40078810000ac670000659900007b9700007e
:1092d40079ab0000bacd0000cc9b00007988000077
:1092e4009abb00009a480000015200004566000045
:1092f40099ba0000a98900009a350000538700003c
:10930400a8ac0000abaa0000999b0000a99a000039
:1093140099ca0000ac0b00001122000022220000b8
:109324002222000022220000222200002222000029
:10933400112200002122000022220000222200002b
:10934400222200002222000012110000111100004c
:109354001111000011110000011000001111000092
:1093640011510000ddbb0000cdba0000bcab000011
:10937400988a0000886600009798000027b20000d1
:109384009b3500003367000077a6000098aa000010
:1093940089ba0000bc8c0000b9ab000067980000db
:1093a40088360000646600005578000089a9000032
:1093b400ba9a0000782700007587000088aa000088
:1093c400999900009998000099ba0000aaa9000090
:1093d400bb0b00001121000012210000112100002c
:1093e400212200002222000022220000222200006a
:1093f4002122000022220000222200002322000059
:10940400222200002222000012210000121100007a
:10941400111100000011000011110000228200004f
:10942400cddb0000bccc0000bb6b0000bbaa00007d
:10943400997a0000b87800002697000069140000ab
:109444004265000056880000a9990000baba0000dd
:10945400cc8a0000b6aa00009a8900006754000074
:10946400657600005488000067750000bcca0000df
:1094740088340000657600008898000099a90000ef
:10948400a9ab0000aa9900009b8600008806000092
:109494001111000011110000111100001111000040
:1094a40021220000222200002222000022220000a9
:1094b4002222000022220000222200002222000098
:1094c40022220000221100001111000011110000dd
:1094d400001000001121000011c80000ccdd0000c4
:1094e400ccca0000ac8a000088dc00008b8a000033
:1094f400b68c000064590000342300003287000059
:109504002387000088770000a8ca0000bba70000da
:10951400a9c90000cc9900006955000055660000f7
:109524006466000077970000bcb90000792300004e
:10953400638700008888000099ba0000baab000075
:10954400a9890000675600002402000011110000e0
:10955400111100001111000011110000222200005d
:1095640022220000222200002222000022220000e7
:1095740022220000232200002222000011110000f8
:109584001111000011110000111100000110000060
:109594001101000061dd0000dcbc0000bcbb000068
:1095a400b8cb00007aba0000aa99000077ab00009b
:1095b40065350000221100003356000021650000cb
:1095c40057960000a9aa00009a37000087ca000035
:1095d400aa9a0000878b0000789800009857000032
:1095e40078750000aba700004733000043980000e3
:1095f400b9bc0000dbbc0000dbbb0000bbbc00004e
:1096040088790000460200002211000012110000b7
:1096140011110000111100001111000011210000ae
:109624002222000022220000222200002222000026
:10963400222200001212000011110000111100007a
:10964400111100001111000011110000110100009e
:10965400c6dd0000ddcd0000cdbb0000babb0000bc
:10966400cc8b0000988600006986000079250000f4
:1096740011210000733600001144000033850000fe
:10968400899a0000aa3a0000a8aa0000a88a00004b
:1096940087bb0000999a0000a85700003584000099
:1096a4008a7600003633000043a70000bacc0000dd
:1096b40089890000a8bc0000cbcc0000ccaa000023
:1096c400690600002222000022120000111100008d
:1096d40011110000111100001111000012110000fd
:1096e4002112000022220000222100001211000099
:1096f40011110000111100001111000011110000de
:10970400011100001111000011510000dccc000017
:10971400dddc0000cdbd0000bbbb0000d8ab000009
:1097240098560000a7770000cd1400001121000016
:1097340052340000103100003166000097bc000074
:10974400b96a000097cb0000bbaa000088ba0000e9
:10975400a88b00006685000002b400008956000052
:1097640045350000648700009879000067750000a3
:1097740077cb0000cbcc0000db9b0000880b000003
:1097840033330000232200002222000011110000c4
:10979400111100001111000011110000111100003d
:1097a40022220000221100001111000011100000fb
:1097b4000110000011110000101100000010000041
:1097c4001111000001b20000ddcc0000ddcd00006d
:1097d400bcdb0000bdac0000abbb00007956000050
:1097e40085790000d8040000111100002311000045
:1097f400111100002144000095ad000099bb000048
:10980400948c00009aa900008a7600008648000023
:109814003246000021640000972500005224000015
:1098240065870000a98a000086a90000abbb000080
:10983400cbdc0000bbdc0000ab09000023330000dc
:1098440033220000223300002222000021120000f3
:10985400121100001111000011110000111100007b
:1098640022110000110000000000000000000000b0
:1098740000000000000000000000000011110000c2
:1098840010dc0000ddcd0000cddc0000ccbb00000e
:10989400db9a0000d8cb0000ac890000538900009b
:1098a40095140000211000001311000011000000a5
:1098b4001122000084aa0000dcde00008898000069
:1098c4008bcb0000ac47000034330000827a0000e8
:1098d4002166000097340000223300004776000020
:1098e400a8bb00007956000097ba0000ccbc000069
:1098f4009988000078080000233300002322000028
:109904002223000032320000222200002222000022
:109914002222000022210000122200002212000054
:1099240011000000101000001111000001000000df
:1099340000000000100100000011000080cd0000b4
:10994400cddb0000bcbc0000cadd000095dc0000db
:10995400aca80000787600005896000098430000f8
:10996400112100001121000001000000102100005d
:1099740052cb0000cadd000049e30000eecc000039
:10998400cd5700004753000092450000a428000072
:1099940054330000324400003586000098aa0000c9
:1099a4006954000098b70000dd7c000034220000f8
:1099b400730900002223000022220000222200005a
:1099c4002222000022220000222200002222000083
:1099d40022220000222200002212000011010000b5
:1099e40010100000111100001110000000110000ff
:1099f400110100001000000080dd0000dcdd00002b
:109a0400ddcd0000bcaa0000bd9b0000cd6b0000b2
:109a1400dbbd00006c42000005aa0000210000002c
:109a2400011000000000000000110000227300007b
:109a3400ecbd0000a6de0000edee0000cdab0000a2
:109a44005554000085ac000012540000433300005c
:109a54002144000054540000679600007868000018
:109a64006777000087790000233200008708000030
:109a740012110000222200002222000022220000f3
:109a840022220000222200002222000022220000c2
:109a94002222000022110000111100001111000007
:109aa400111100001111000011110000111100002a
:109ab40000000000d8cd0000dddd0000aadd0000bc
:109ac400cdcc0000c98b000088cd00008987000040
:109ad40088450000437500000610000011000000d6
:109ae400000000000011000032950000caed0000e3
:109af400eedd0000bcab00009967000035430000b8
:109b04001662000015880000332300003121000094
:109b14002563000098590000345400007577000054
:109b24005754000088660000a905000021220000a7
:109b34001221000022220000222200002222000022
:109b44002222000022220000222200002222000001
:109b54002222000022220000212200001121000004
:109b64001211000011110000111100001141000038
:109b7400dbdd0000ddcd0000ccbb0000aacb000083
:109b8400bcbb00007aaa00009c880000a859000011
:109b940033770000251100000000000000000000e1
:109ba4000010000021440000a6bb0000adab000083
:109bb4005844000064330000445500007844000019
:109bc40036430000342100003212000023750000e7
:109bd40087aa0000897800008835000055640000d9
:109be40077580000640800001121000022110000d1
:109bf4002222000022220000222200002222000051
:109c04002222000022220000222200002222000040
:109c14002222000021120000111100001211000084
:109c2400112100002211000011710000cccd0000b0
:109c3400cdad0000aabb0000aab90000bcda000048
:109c4400acab0000bbba000088390000323500001c
:109c540024110000000000000000000000000000cb
:109c6400113300008686000069470000342200009a
:109c740043630000688600009b33000051460000e7
:109c8400362100002333000052760000779800004c
:109c94009aaa0000aa250000416600006677000029
:109ca400870b0000001000001111000011220000b9
:109cb4002222000022220000222200002222000090
:109cc4002222000022220000222200002222000080
:109cd40012110000111100001111000011220000e6
:109ce4002222000012b50000bcdd0000ddcd000022
:109cf400bc990000aba80000a9b90000d8a90000d5
:109d0400a9ba0000787a000035130000220100008f
:109d140000000000000000000000000021540000ca
:109d24005487000077140000111100001173000023
:109d34006866000088560000635600003521000064
:109d440033320000656500006588000088a90000c2
:109d5400875800005386000088a80000ab0b000061
:109d64001111000011110000112100002222000035
:109d740022220000222200002222000022220000cf
:109d840022220000222200002222000022120000cf
:109d94001111000011110000211200002122000005
:109da40032d90000ddec0000dddc0000ccaa0000ac
:109db400aa8a0000bbab0000c9890000b9aa000050
:109dc4008b96000038110000120000000000000013
:109dd40000000000000000001143000046a800003d
:109de400bb0600001111000022740000546600003c
:109df40076660000867600003412000032330000dc
:109e0400767600007799000069660000679b000081
:109e140088b90000abda0000cd0a0000111100007f
:109e24001111000011110000112200002222000073
:109e340022220000222200002222000022320000fe
:109e4400232200002222000022220000121100001e
:109e540011110000111100001111000072dc00004a
:109e6400dddd0000cccd0000bcbc0000888b000010
:109e7400bbab0000abab0000789a0000b8870000d1
:109e84004b11000001000000000000000000000071
:109e9400000000001132000076850000dc6b000039
:109ea400223200002384000067550000765600002b
:109eb400864600004312000042430000677700001a
:109ec400789800007875000099bc0000bbbb0000c6
:109ed400aaaa0000ba090000111100001111000023
:109ee40011110000111100001111000022110000d5
:109ef400112200002222000022220000222200005f
:109f04003222000022220000121100001111000070
:109f14002222000022220000c6dd0000dddd000058
:109f2400ddcd0000ccdd0000ab7b00009aab00006f
:109f34009a9a00006ba60000a88a0000571100003e
:109f4400010000000000000000000000000000000c
:109f54001122000073560000c9dd000057530000b1
:109f640045a70000aa570000665600009813000099
:109f74004322000023520000676700008797000017
:109f84009888000088cb0000dc8c000075870000f6
:109f940078030000111100001111000011110000dc
:109fa4001111000011110000111100001111000025
:109fb400212200002222000022220000222200008e
:109fc400222300002222000022220000222200007c
:109fd40022320000ebdd0000bcda0000ddbd000031
:109fe400cccc0000dda9000088790000aa9a00000a
:109ff40098870000788a00006527000001000000af
:10a004000000000000000000000000002123000008
:10a01400624b000084db0000ce890000a8ab000086
:10a02400aa89000068770000a913000053230000e8
:10a0340032620000544500008599000088aa00009f
:10a044009aa90000cc8a00003475000025040000a1
:10a054002112000011120000112100002122000031
:10a0640022220000222200002222000022110000ed
:10a0740011110000212200002222000032220000df
:10a08400222200002222000022220000226200007c
:10a09400ddcd0000bca80000cbcd0000bdca00008f
:10a0a400bb9b0000c79a00008a9b000088890000bf
:10a0b4003789000035160000000000000000000091
:10a0c40000000000001000001282000059970000f8
:10a0d40034a40000edbe0000ca8c00009889000082
:10a0e400668800006a2200005323000023850000d4
:10a0f400453300004396000079990000aaba000095
:10a10400bb5a000013210000310700001122000097
:10a11400212200002222000012220000221100004d
:10a12400212200002222000022220000122100002d
:10a1340022220000222200002222000022320000fb
:10a14400222200002222000022c50000dddd0000e2
:10a15400ddcc0000cbcc0000bdbb0000ab8b00000d
:10a16400acab00007b9900007aa700005a94000071
:10a1740037010000000000000000000000000000a3
:10a1840000000000006000007c8300002822000022
:10a19400b6ee0000dd8c0000a97a0000869800006d
:10a1a4005814000064330000136500006777000052
:10a1b40045750000a8ab0000ab770000a87900004b
:10a1c4003622000064080000111100001112000082
:10a1d400212200002222000022220000222100006d
:10a1e400222200002222000022220000222200005b
:10a1f400222200002222000022220000222200004b
:10a204002222000032d90000dddd0000dddd000087
:10a21400ddcd0000ccbb0000abab0000bcb900003e
:10a22400bb970000ac680000997400006a0100004c
:10a23400000000000000000000000000000000001a
:10a2440000500000cc5a00006513000052da0000f0
:10a25400decd0000bc89000067870000983500004f
:10a2640066530000235500007798000068770000cb
:10a2740096bb00008937000054850000ab780000cd
:10a28400a9090000111100001111000011110000b2
:10a2940022220000222200002222000022210000ab
:10a2a400222200002222000022220000222200009a
:10a2b4002222000022220000332300002322000077
:10a2c40052dd0000dddd0000dddd0000ddcd00003d
:10a2d400ccab0000cacd0000abab0000b5bc0000a5
:10a2e4007858000096290000450200000000000094
:10a2f40000000000000000000000000000810000d9
:10a30400edad0000a35a000010620000dbdd000088
:10a31400bdba00008a580000549500008b65000007
:10a32400246400007687000078870000b99c000050
:10a334004379000067a70000ddcd0000dd0c0000bc
:10a344001111000011110000111000001111000082
:10a3540022220000222200002322000022220000e8
:10a3640022220000222200002222000022220000d9
:10a37400222200003333000033320000d3dd00001a
:10a38400dcdd0000dddd0000dddd0000ccdd0000f3
:10a39400ada70000dcdd00004c950000ac5a0000c5
:10a3a40022780000430100000012000000000000b9
:10a3b400000000000000000000810000ddbd00007e
:10a3c40023ed000049320000b5de0000ab88000038
:10a3d4006d78000049b600007d450000234400006c
:10a3e40086980000999900007a4400006684000071
:10a3f4009abb0000bbca0000dd0b00001211000074
:10a404001222000022110000222200002222000059
:10a414002222000022220000222200002222000028
:10a42400112200002122000032220000223200000a
:10a434003233000033330000cddd0000dddd0000e9
:10a44400ddbb0000dddd00009ba70000c99b000010
:10a4540064c70000989c000088bb0000738a000059
:10a46400130000000063000025000000000000004d
:10a4740000000000009100006bb5000081e90000bd
:10a48400dd18000053ba00008b65000075a60000bb
:10a4940039b50000886600002442000066560000ba
:10a4a4004564000087b80000b99b000098cb000009
:10a4b400bbac00008807000022220000212200001b
:10a4c4002212000021220000222200002222000089
:10a4d400222200002222000022110000111100009b
:10a4e4001121000022220000333300003333000026
:10a4f40033820000dddc0000dddd0000ddb900009a
:10a50400ddcd00008a67000078d900009c88000037
:10a51400667200009aa6000049520000240100005f
:10a524000053000044340000220100000000000039
:10a53400002000001244000093da0000de5b0000fb
:10a54400425500003597000086a7000087a8000048
:10a55400a9760000243200004455000076980000db
:10a5640099ba0000bacc0000bbab000087780000a9
:10a574008a0a000022220000222200002222000077
:10a5840022220000222200002222000022220000b7
:10a5940022220000111100002121000022210000cc
:10a5a40022210000223300003333000043d800008e
:10a5b400ddcd0000dddd0000dddd0000ddcd0000cf
:10a5c400bc8a0000779900009b69000015620000b6
:10a5d4009768000088360000231100001044000032
:10a5e40044340000331300000000000000000000a9
:10a5f4001030000098bd0000aa8800003522000039
:10a6040062ac000078a800008a860000ab680000f5
:10a614002423000064870000988900009a990000b0
:10a62400aabb0000cccd00008b7700008708000097
:10a6340022220000223300003323000032330000c2
:10a6440033330000222200002222000022220000d4
:10a654002222000011210000222200001221000009
:10a664002232000033330000b4dd0000ddbc000002
:10a67400dcdd0000dddd0000cddd0000abaa000064
:10a6840068870000bb69000014620000675800007e
:10a69400a6460000122200001133000043340000db
:10a6a40033340000000000002012000000300000dd
:10a6b400b94a00003443000024110000a3bc000088
:10a6c4006aba00007986000047670000243200005f
:10a6d400869800009a99000078a80000a9ba0000a2
:10a6e400babb0000bbaa0000aa0900002222000095
:10a6f40032330000333300002222000033220000f2
:10a704002222000022220000222200002222000035
:10a714002222000022220000222100002122000027
:10a7240022220000ecdd0000bc880000dbdd00001c
:10a73400dddd0000ddcb00009a9b000076b8000050
:10a7440089980000355600006468000086570000b0
:10a754001122000011320000444400003344000080
:10a7640000000000412400000020000098260000a2
:10a774002101000020000000519b0000a9aa000054
:10a784009989000035780000352100007698000092
:10a7940089870000679700009aaa0000ab9900001f
:10a7a400cbbc00009a0900002222000022330000e2
:10a7b4002322000022220000222200002222000084
:10a7c4002222000022220000222100002222000076
:10a7d4002222000022220000221200001192000016
:10a7e400dedd0000ac980000dcdd0000eddd0000e3
:10a7f400dd9900007979000088cb00009988000079
:10a80400b99d000033640000880800001122000094
:10a8140011320000444400003443000001000000f1
:10a824002046000001100000b814000000100000d1
:10a8340043020000217600009a8800009858000026
:10a84400436600002331000075760000678700002e
:10a85400b98b0000aaaa000088880000999900001a
:10a864009a08000022220000232200002222000075
:10a8740022110000212200002222000022220000d6
:10a8840023220000222200002222000022230000b2
:10a89400232200002222000012d70000dddd000088
:10a8a400cdaa0000dddd0000bddc0000dd9a000063
:10a8b4008967000099ab0000abaa0000cb9c0000a4
:10a8c4002462000067010000111000001132000032
:10a8d40044440000335400000100000020890000bb
:10a8e40002100000a43900000040000066250000aa
:10a8f4002163000077590000947a00008754000017
:10a90400123000006576000077760000b9bb0000c5
:10a91400bb9b00007799000077880000990a00002b
:10a9240022220000222200003233000022230000f1
:10a934002222000022220000221200002122000014
:10a9440022220000222200002222000022220000f3
:10a954002222000032db0000bcb90000ddcc000084
:10a96400dddd0000aadc0000edcd0000ab870000b7
:10a97400989a0000b89a000098aa00003862000073
:10a9840025000000010000001033000044440000d2
:10a994003453000001000000106500001312000091
:10a9a400824c000012400000b948000042650000db
:10a9b400868c000085990000b9470000142000002f
:10a9c4007577000077770000a9ab0000ba8a000011
:10a9d4008868000076870000980a0000333300007e
:10a9e40032330000333300003333000033330000cc
:10a9f4003333000023220000212200002222000021
:10aa04002222000022220000222200002222000032
:10aa140032db00009d870000dddd0000ddbd0000ad
:10aa2400c9cd0000ee9d0000db8a0000888800008c
:10aa34006a88000087a80000494200001300000053
:10aa440001000000004400004444000033430000bf
:10aa5400020000000030000045420000956a00003a
:10aa640025610000bb9a000066860000a9990000d9
:10aa740089a70000ab69000014200000867800005c
:10aa8400779800008999000099990000aa8900002c
:10aa94008899000076090000323300003333000047
:10aaa400333300002333000032330000332300002b
:10aab4003222000033220000222200002222000061
:10aac40022220000222200002222000022d90000bb
:10aad400adc90000dddd0000cdbc0000dcdd000000
:10aae400ae26000084bd0000bb7a0000876700002a
:10aaf4009878000067330000121100000100000084
:10ab040010330000444400003343000003100000ed
:10ab1400132000006496000088c9000078660000d5
:10ab240098dc000079970000b79900007ac700000c
:10ab3400ac7a0000143000008699000098aa000046
:10ab44009b99000088aa0000aabb00009aba0000e2
:10ab54008906000022220000323200003333000054
:10ab6400333300002332000033230000323300006b
:10ab740033330000232200002222000012220000ae
:10ab8400222200002222000022b90000acdc0000d6
:10ab9400dddd00009bdb0000dddc00004b3300004a
:10aba40033c90000bb990000a68900009969000020
:10abb40045230000121100000000000010430000b3
:10abc400444400003343000014200000232000000c
:10abd40096b900006a790000aa7a000077ba0000ea
:10abe400aa88000083a800009aba000099470000d0
:10abf4002620000095ab000088aa0000bbcc000012
:10ac0400baab0000b9cd0000bcbb0000ba0900001b
:10ac140021220000222200003232000033330000df
:10ac24002332000033330000333300003333000099
:10ac340023220000222200002222000022220000ff
:10ac44003222000022a50000ccdd0000dddd000082
:10ac540099dc0000addd00001611000010a4000016
:10ac6400aa8a00009a660000885800003322000077
:10ac740012000000000000000043000045440000f2
:10ac840033430000241000003352000085ca000042
:10ac94009cc70000cc7b000096aa0000ab570000c4
:10aca40095ca0000cc8b00008646000038310000b5
:10acb400a5ab000099aa0000aaba0000ddcc0000f0
:10acc400abcd0000aa9a0000980c000022220000dc
:10acd4002222000022220000223200002222000050
:10ace40032320000333300003333000033330000ca
:10acf400232200003323000022220000223200001d
:10ad040023720000dddd0000ddbd0000a9db0000d2
:10ad14009dca00000200000000940000998a00000f
:10ad24004534000085450000332300001201000073
:10ad340000000000015400004443000033430000bd
:10ad4400241000002243000084aa0000ddaa0000b1
:10ad5400cdac0000b9870000dc570000c9cb00006f
:10ad6400cd7c0000966600002930000075aa000022
:10ad7400aa98000099aa0000a9ba0000baab000082
:10ad8400babc000099070000122200003233000010
:10ad940022220000222200001221000022320000a0
:10ada4003333000033330000332200002233000029
:10adb400332300002222000022220000227100001e
:10adc400bbbc0000dddd0000dc9d00006769000005
:10add40000000000107500008725000023230000f8
:10ade4003323000033230000120100000010000090
:10adf40000530000443300003343000024110000da
:10ae040061360000b3aa0000dd8d0000ddbb000048
:10ae1400ad730000ab990000aadd0000bcbc0000cb
:10ae240069980000492100004495000068870000eb
:10ae3400989c00009bcb00009aca0000ddbc000077
:10ae4400bc0800001122000043230000323200003d
:10ae540022220000222200001222000022330000dd
:10ae6400333200002222000032330000332300007a
:10ae7400222200002222000022710000dddd0000f9
:10ae8400a9dd0000bbcd0000a826000001000000e1
:10ae94002034000066130000232100002433000046
:10aea40034230000120100000000000010420000e2
:10aeb400443300003343000024100000b268000053
:10aec400aa870000dc8b0000d6bc00004ab4000056
:10aed400a97900009bdc00007aca00006a8a00009d
:10aee40058310000349800009aa900009ab9000073
:10aef400d8cd00007b750000c9dd0000dd0c00002a
:10af0400112100003322000022220000222200002e
:10af1400222200002211000011220000222200003f
:10af240022120000212200003332000033230000eb
:10af34002222000022610000cd8a000088c900009e
:10af4400dd9c0000274100000311000011320000c5
:10af54002532000012220000234300003433000095
:10af64002201000000000000004200004433000001
:10af7400334300003421000062a90000b97a0000c4
:10af8400dbac0000a5cd000025a80000b8780000c7
:10af94008a98000068b600008ba7000078210000a2
:10afa4005466000087a90000ba9c0000a8db0000da
:10afb400cccc0000abcb0000bd0a00001111000096
:10afc400112200001222000022220000222200008e
:10afd400222200002211000022220000222200006e
:10afe400112200003232000033330000332200000b
:10aff40022410000bd89000077b80000dd9b0000fd
:10b00400341000000210000021320000232200004e
:10b0140022210000324400003433000022010000e9
:10b0240000000000005200003533000033330000fc
:10b0340033110000609a0000ba6c0000c9ac000033
:10b0440067cb000089bb00008a97000069330000c9
:10b0540023d700009b68000096220000657600005c
:10b0640076aa0000babb0000bacb0000bbcc00003b
:10b07400bdba0000cd0c0000111100001111000038
:10b0840011220000122200002222000022220000cd
:10b0940022220000222200002222000012210000ad
:10b0a400222200002232000033220000222200006b
:10b0b400bd7a000087c80000dd7c0000120000009b
:10b0c40000110000112100001232000012210000c2
:10b0d400324300003333000022010000000000006e
:10b0e4000052000034330000333300003301000009
:10b0f40061bb0000ab8a0000babd00007aa8000062
:10b10400baba00007b780000b937000042c90000d9
:10b114007b430000863200004476000086a90000cc
:10b12400baac0000b99b0000aa990000cb9a0000b9
:10b134008909000011110000111100001112000012
:10b1440011220000222200002222000022220000fc
:10b1540011220000222200002222000022220000ec
:10b16400222200002232000032520000cd8b000067
:10b1740087db0000dd5a000002000000001100001f
:10b18400112100002222000021220000324400008c
:10b1940034330000220100000000000000420000df
:10b1a40033330000333300002301000073cc00006c
:10b1b400aa990000b9bc0000bc880000bba900002b
:10b1c40087ab00007989000087ba0000aa740000e8
:10b1d400883200006587000077a90000998a000082
:10b1e400979b000078870000bb680000870a000076
:10b1f40001000000011100001111000011110000f4
:10b2040011110000111100001111000011220000a1
:10b21400222200002222000022220000222200001a
:10b224002232000033420000ddcd000089dd000041
:10b23400cd380000020000000000000021220000c0
:10b244002222000022220000224300004433000096
:10b254002201000000000000003100003323000040
:10b26400333300002311000054880000aa88000032
:10b27400baaa0000ba690000ca9a000077970000d1
:10b28400aa8b000076ab00008987000087240000a9
:10b294007488000068a80000889b000098aa000039
:10b2a40099b9000079870000990a000000000000a5
:10b2b4000010000010100000111100001111000016
:10b2c40011110000111100001111000021210000d2
:10b2d400222200002222000022220000122200006a
:10b2e40022310000dddd0000cddd00008c250000f2
:10b2f40003000000001100002211000023220000be
:10b3040021220000224300003433000023110000f6
:10b31400000000000020000033330000333300003d
:10b324002302000050780000ba9a0000579a0000e7
:10b33400a9890000a9a900007aa70000db4a00003f
:10b3440064a80000a989000087380000767700000f
:10b354008888000098ba0000abaa0000aaca0000be
:10b36400ab890000870800000000000010110000f5
:10b374001010000011110000111100001111000043
:10b38400111100001111000011110000222200000f
:10b3940022110000111100001121000022410000bf
:10b3a400dddd0000ddcd0000482300003203000095
:10b3b4001122000022220000221200003223000089
:10b3c4002143000034330000231200000100000078
:10b3d4000031000043330000333300002301000038
:10b3e40071ba0000bbba00002599000098990000ca
:10b3f400aaca000089aa0000cd790000a98600002d
:10b40400a9880000a95900008687000088880000e8
:10b4140098ba0000cb9a000088a90000ca8a0000ec
:10b42400650600000000000000100000111100007b
:10b43400211200001111000011110000111100006f
:10b44400111100001111000021220000221200003d
:10b45400111100001121000022410000dddd000077
:10b46400ddbd0000463200009517000011120000f7
:10b474002122000022220000322300002133000098
:10b4840033330000231200000000000000320000eb
:10b49400443300003333000022210000749900007b
:10b4a400cbba000058ba0000ab9b0000b9ac000056
:10b4b40087ca00009c770000a788000099680000f4
:10b4c40099780000877600008988000099a9000017
:10b4d400b9aa0000aa890000baaa00004804000022
:10b4e40011110000110100001111000011110000e0
:10b4f40011110000111100001111000011110000c0
:10b50400211100002122000022120000111100006c
:10b514001121000022520000dcdd0000cd7c00007f
:10b5240034540000a9260000222200002222000038
:10b5340022220000222200001232000033440000c4
:10b544003312000001000000003100003433000019
:10b55400333300002341000067a70000bbb800009c
:10b564008cb50000cb8a0000a98c000087ca0000bb
:10b574007c960000a9990000aa580000a676000055
:10b584007877000088980000a98900008978000075
:10b5940099880000997800005703000011110000f9
:10b5a400111100001111000011110000111100000f
:10b5b40022120000111100001112000021220000cb
:10b5c4002222000022220000222200002122000068
:10b5d40022530000dbdd0000bd580000348500006c
:10b5e4008a580000222100002222000022220000aa
:10b5f40022110000223200003344000033230000f3
:10b604000100000000420000343300003333000026
:10b614002342000089750000baaa0000bb73000031
:10b62400c98a000099aa000089ba00008a8800002b
:10b63400cbab00007a5600006579000087890000d2
:10b6440099880000a7ab00007966000045650000fa
:10b654008777000077060000111100001111000027
:10b66400111100001111000011110000212200002d
:10b6740022220000121100001122000023220000e7
:10b684002222000032230000222200002262000055
:10b69400dcdd0000bd56000043970000a96a0000ed
:10b6a4002322000022230000222200002311000094
:10b6b4002232000033330000332300001200000064
:10b6c4000032000034330000333300002341000013
:10b6d40066760000a98b0000c9850000ac8a0000d2
:10b6e400baab00008aa800007a660000caab00006a
:10b6f4006b74000077ac0000769800009977000026
:10b7040075aa000099670000667700008888000029
:10b714007707000011110000011000000111000062
:10b72400111100001111000011110000112200007c
:10b734002211000021220000222200002222000007
:10b74400333300002222000022710000cbdc000011
:10b75400ad44000064aa0000aa36000022210000c3
:10b7640032330000233200002311000012320000a3
:10b7740033330000332300002200000000420000a5
:10b7840044330000333300002222000053980000a9
:10b794009abc0000db580000b8aa0000bb89000076
:10b7a4007888000077780000c8bb00005956000074
:10b7b400a5bc0000859800009b99000088870000c4
:10b7c4009a9800006865000066670000760600002d
:10b7d40011110000111100001111000001110000ed
:10b7e40011110000111100001112000011120000cb
:10b7f40022220000323300003222000032330000e3
:10b804003222000022810000bcdb000079560000d7
:10b81400a5ba00006913000022320000333300008f
:10b8240023330000121000002132000033330000e3
:10b8340043230000220000000042000044330000c3
:10b84400333300001231000059a6000096ab00000b
:10b85400aa570000d58900009baa000078c7000001
:10b8640055750000cabd0000a5680000859c000055
:10b8740087a900008a970000898700008a88000051
:10b884008967000055540000780800001111000079
:10b89400111100001111000010110000111100001d
:10b8a40011110000211100001122000022220000c9
:10b8b4002233000033230000222200002222000051
:10b8c40022930000bbbb00006c630000ab89000046
:10b8d400462200001233000023320000322300000d
:10b8e4001211000012210000333300004423000031
:10b8f4001101000000410000443300003333000014
:10b90400127200005777000077b800008a9900008f
:10b91400c77a0000b88a000087a90000abb600000f
:10b9240089ab0000b6460000a5bd0000968a000061
:10b934009899000087ba0000bb9a0000a9bb0000d8
:10b94400ba870000870b00001111000011110000dc
:10b95400111100001111000011110000111100005b
:10b9640012220000222200002222000022220000d3
:10b97400232200002222000022220000228700004d
:10b98400cadc0000589700008859000024220000f7
:10b99400323300002333000033230000112200005f
:10b9a4002221000032330000432300001101000073
:10b9b40000410000443400003333000023520000ef
:10b9c40067a8000068a80000aaa80000b7890000c2
:10b9d400ba8a000097a90000bbaa0000ab8b000044
:10b9e4009958000074880000978a00008878000045
:10b9f40098990000a9ab0000aa9a00008aaa000046
:10ba0400ba0d000011110000111100001111000005
:10ba14001111000011110000111100002122000079
:10ba24002222000022220000222200002222000002
:10ba3400222200002222000042ab0000cced0000d4
:10ba44008a9a000099360000222200003322000066
:10ba540032330000332200002122000022220000a1
:10ba640033330000432300001101000000410000b3
:10ba740044340000333300002322000075660000c4
:10ba840098b900009b9b0000bbaa000099790000b4
:10ba9400a89900008aa800009a880000796a00002a
:10baa40054650000988a000098990000aaaa000032
:10bab400aaab0000aaba0000bb9a0000ab0a0000bf
:10bac40021220000121100001111000011110000c8
:10bad40011110000101100001121000022220000a9
:10bae4002222000022220000222200002222000042
:10baf4002232000042cb0000bccc00009b89000035
:10bb040047220000113200003333000022320000cb
:10bb140033120000211300002121000033440000ef
:10bb240033330000121100000042000044340000ce
:10bb3400333300002311000052780000a8ca00002b
:10bb4400bbbb0000bb9b000088b900009a8a0000c0
:10bb5400b8cb00009d9800005746000064480000e0
:10bb64008889000088880000a9aa00008a8700004c
:10bb740098aa0000889a000099070000112100008b
:10bb84001111000022110000111100001111000018
:10bb940011110000111100002122000022220000d6
:10bba4002222000022220000222200002222000081
:10bbb40032b700008b650000a96700001311000074
:10bbc400213300003333000033320000331100000e
:10bbd400321300001121000033440000333300000d
:10bbe400121200000032000044340000333300001d
:10bbf4002311000041990000b8bc0000a9a900006d
:10bc0400a9aa0000aacb0000ac770000a7aa0000f4
:10bc1400899b000035760000975900009898000031
:10bc240088a90000b9aa0000abba0000bc890000d2
:10bc3400989a0000ba0900001211000011110000c6
:10bc44001111000011110000111100001111000068
:10bc54001111000011110000212200002212000025
:10bc6400222200002222000022220000227400006e
:10bc74005933000053230000111100002232000048
:10bc8400333400003333000023110000321300006a
:10bc9400202100003344000033230000122200005e
:10bca400003100004444000033230000220100005e
:10bcb40051a90000a89a00008a98000088a80000f2
:10bcc400abab0000ab980000687b0000a77b0000d2
:10bcd40064a80000ab590000a9aa0000aba90000a9
:10bce400bbaa0000cabb0000dccd0000dcbc000025
:10bcf4009a0a000011110000111100001111000036
:10bd040011110000121100001111000011110000a6
:10bd14001111000022220000222200002222000031
:10bd240022220000222200002232000025230000eb
:10bd340011110000112100002232000033330000f1
:10bd440033330000121100004313000020220000ce
:10bd540032430000332300001222000001310000ae
:10bd640044440000332300002211000030b70000d7
:10bd740088890000a8aa00008a8700009a9b000016
:10bd8400aa99000088a90000ac7a00008589000007
:10bd940099360000a7bb0000abba0000bbba000094
:10bda400cbbb0000cbcc0000bbcb0000ac09000037
:10bdb40022220000222100001211000021110000a3
:10bdc40011220000121100001111000012220000c3
:10bdd400222200002222000032330000333300000c
:10bde4002322000022220000121100000111000091
:10bdf40021220000223300003333000033230000eb
:10be0400112200004313000010220000323300000e
:10be140033220000222100000120000044330000ee
:10be2400332200002211000041a6000099ba00004c
:10be340088cc0000999a0000899a00009988000033
:10be440077980000ab8a000086590000892700001b
:10be5400a6ba0000abaa0000aab90000bcaa000060
:10be6400bbbb0000abaa0000ab090000112100001d
:10be740022220000222200002222000022220000ae
:10be840022220000222200001222000022220000ae
:10be94003333000033230000323300003333000017
:10bea400333300002212000011220000223200006d
:10beb4003333000033330000331300002122000029
:10bec400441300001021000032330000333300001b
:10bed400121100001220000044230000221200006e
:10bee4002211000051b90000aa67000085ac0000cf
:10bef4008ba9000069b900009a79000066b90000b6
:10bf0400ba7b0000965a000078470000a6aa0000f9
:10bf1400abbb0000abca0000cbab00009ab9000079
:10bf2400ba9a0000aa0900001111000011220000b1
:10bf340022220000222200002222000022220000ed
:10bf440022220000122100002222000022230000ed
:10bf54003222000022320000333300003333000069
:10bf6400222200002222000022220000333300009b
:10bf74004434000033220000222200004413000055
:10bf8400102200003243000033330000121100007d
:10bf9400212100003423000022220000221100008d
:10bfa4006188000069370000729b000079980000e6
:10bfb40069c900008a77000047b70000cb7a000007
:10bfc400867800008a340000a6aa0000aaba0000fd
:10bfd400bcaa0000dbcc0000bbaa0000babb000076
:10bfe4009b0a000011110000112100002222000010
:10bff400221100001122000022220000222200004f
:10c00400222200002222000022220000222200001c
:10c0140022320000333300003333000022220000b8
:10c024002232000022320000333300003344000087
:10c0340033220000333200004402000010220000ca
:10c044003244000033330000231100002122000099
:10c054004433000023110000221100006267000035
:10c06400878a000089b500009999000068b700002c
:10c074009c86000058a700008a780000758700009d
:10c084008a34000085aa000099a90000bacb0000f8
:10c09400aaba0000bbbc0000cb9a000088080000cc
:10c0a40011110000122100001222000011110000e1
:10c0b400212100002222000022220000222200006e
:10c0c400222200002222000032220000332200003b
:10c0d400222200002223000033220000222200003a
:10c0e4003233000043440000343300003332000094
:10c0f40033320000340200002033000033440000d7
:10c1040033330000231100001021000044330000e9
:10c1140022110000221100009368000075db00006a
:10c12400ada50000a9ab0000789700009b77000044
:10c1340039b800009a670000876400007923000082
:10c144008599000099a90000a9aa00008ab90000f5
:10c15400ccbc0000aba9000089080000111100004c
:10c164001111000011110000111100001112000042
:10c1740011210000222200002222000022220000bd
:10c184003233000022220000333300003333000036
:10c194003322000022320000222200003233000049
:10c1a40044440000443400003333000033330000bf
:10c1b4003401000021330000334400003333000015
:10c1c400230100001121000044340000220100007a
:10c1d400211100008369000087ba0000cb790000b8
:10c1e40086ac00008a9700008989000008b9000025
:10c1f400aa890000685200007b15000096ba00006e
:10c20400aaba0000aacb0000abca0000cdcb000044
:10c21400bc890000b80a00001111000011110000cf
:10c22400111100001122000012220000111100005f
:10c2340011210000122200002222000023320000fb
:10c244002233000033330000333300003333000063
:10c254002222000033330000333300003333000064
:10c264004344000033340000333300002401000051
:10c274002144000033440000333300002301000054
:10c28400112100004434000022010000212200009a
:10c294008688000088bb0000cc5b0000a5aa0000d3
:10c2a4009ba8000098980000478300009b8400002e
:10c2b400596400005415000065980000aabb0000f2
:10c2c400ccdd0000ac9a0000aa99000098cb0000d5
:10c2d400aa0c0000000400008c000000bb00000059
:10c2e40000000000a210000045290000a631000053
:10c2f40028420000cb5a00002c630000ae730000fb
:10c3040030840000b294000055ad0000f7bd000079
:10c3140059ce0000bad600003ce70000ffff000041
:10c324000000000000000000000000000000000009
:10c3340000000000000000000000000000000000f9
:10c3440000000000000000000000000000000000e9
:10c3540000000000000000000000000000000000d9
:10c3640000000000000000000000000000000000c9
:10c3740000000000000000000000000000000000b9
:10c384000000000020540000767800009999000015
:10c394009a78000056440000432300001111000065
:10c3a4001100000000000000003200001200000034
:10c3b4000000000000000000000000000000000079
:10c3c4000000000000000000000000000000000069
:10c3d4000000000000000000000000000000000059
:10c3e4000000000000000000000000000000000049
:10c3f4000000000000000000000000000000000039
:10c404000000000000000000000000000000000028
:10c414000000000000000000000000000000000018
:10c424000000000000000000000000000000000008
:10c4340000000000000000000000000000000000f8
:10c444002054000076880000999900009a88000022
:10c45400574500004433000022220000121100005e
:10c464000100000020340000120000000000000061
:10c4740000000000000000000000000000000000b8
:10c4840000000000000000000000000000000000a8
:10c494000000000000000000000000000000000098
:10c4a4000000000000000000000000000000000088
:10c4b4000000000000000000000000000000000078
:10c4c4000000000000000000000000000000000068
:10c4d4000000000000000000000000000000000058
:10c4e4000000000000000000000000000000000048
:10c4f40000000000000000000000000010540000d4
:10c504007788000099aa0000aa89000067550000f6
:10c514004433000032330000231200000100000005
:10c52400423400002200000000000000000000006f
:10c5340000000000000000000000000000000000f7
:10c5440000000000000000000000000000000000e7
:10c5540000000000000000000000000000000000d7
:10c5640000000000000000000000000000000000c7
:10c5740000000000000000000000000000000000b7
:10c5840000000000000000000000000000000000a7
:10c594000000000000000000000000000000000097
:10c5a4000000000000000000000000000000000087
:10c5b4000000000000000000105300007788000015
:10c5c400a8aa0000aa89000078670000553400007a
:10c5d40033540000363300001221000053350000ac
:10c5e4001300000000000000000000000000000034
:10c5f4000000000000000000000000000000000037
:10c604000000000000000000000000000000000026
:10c614000000000000000000000000000000000016
:10c624000000000000000000000000000000000006
:10c6340000000000000000000000000000000000f6
:10c6440000000000000000000000000000000000e6
:10c6540000000000000000000000000000000000d6
:10c6640000000000000000000000000000000000c6
:10c67400000000001053000077880000a8aa000002
:10c68400aa9a00008878000056450000436500001f
:10c6940067650000253200006446000023010000a5
:10c6a4000000000000000000000000000000000086
:10c6b4000000000000000000000000000000000076
:10c6c4000000000000000000000000000000000066
:10c6d4000000000000000000000000000000000056
:10c6e4000000000000000000000000000000000046
:10c6f4000000000000000000000000000000000036
:10c704000000000000000000000000000000000025
:10c714000000000000000000000000000000000015
:10c724000000000000000000000000000000000005
:10c734000053000077880000a8aa0000aaaa0000fd
:10c74400898800006755000054860000787700004f
:10c75400364200006645000023010000000000008e
:10c764000000000000000000001100001111000092
:10c774001111000000000000000000000000000093
:10c7840000000000000000000000000000000000a5
:10c794000000000000000000000000000000000095
:10c7a4000000000000000000000000000000000085
:10c7b4000000000000000000000000000000000075
:10c7c4000000000000000000000000000000000065
:10c7d4000000000000000000000000000000000055
:10c7e40000000000000000000000000000520000f3
:10c7f40076880000a8aa0000aaaa00009a8800006f
:10c8040078560000558700008888000058540000be
:10c814007645000033010000000000000000000025
:10c8240000210000322300002232000022220000f6
:10c8340012010000000000000000000000000000e1
:10c8440000000000000000000000000000000000e4
:10c8540000000000000000000000000000000000d4
:10c8640000000000000000000000000000000000c4
:10c8740000000000000000000000000001000000b3
:10c8840000000000000000000000000000000000a4
:10c894000000000000000000000000000000000094
:10c8a4000000000000000000006100007688000025
:10c8b400a8aa0000aaaa0000aa89000088670000ac
:10c8c40065870000888800007856000066550000df
:10c8d4003401000000000000001100003244000098
:10c8e40043340000333300003333000033220000ac
:10c8f4001200000000000000000000000000000022
:10c904000000000000000000000000000000000023
:10c914000000000000000000000000000000000013
:10c924000000000000000000000000000000000003
:10c9340000000000001000000200000000000000e1
:10c9440000000000000000000000000000000000e3
:10c9540000000000000000000000000000000000d3
:10c96400000000000051000076880000a8aa000022
:10c97400aaaa0000aa9a000088880000668700001e
:10c98400989900008967000077560000341200006f
:10c994000000000000320000544500004454000030
:10c9a40055440000343300004333000022010000ea
:10c9b4000000000000000000000100000000000072
:10c9c4000000000000000000000000000000000063
:10c9d4000000000000000000000000000000000053
:10c9e4000000000000000000000000000000000043
:10c9f4000010000013000000000000000000000010
:10ca04000000000000000000000000000000000022
:10ca14000000000000000000000000000000000012
:10ca24000041000076880000a99a0000aaaa00002c
:10ca3400aaaa00009a88000067880000999a00005a
:10ca4400998800008867000045120000000000007b
:10ca54000053000055550000556500005555000071
:10ca6400555500004544000023110000000000005b
:10ca740000000000000200000000000000000000b0
:10ca840000000000000000000000000000000000a2
:10ca94000000000000000000000000000000000092
:10caa4000000000000000000000000000021000061
:10cab400230100000000000000000000000000004e
:10cac4000000000000000000000000000000000062
:10cad4000000000000000000000000001031000011
:10cae40076770000a9aa0000aaaa0000aaaa00005a
:10caf400aa8900007888000099aa0000aa89000089
:10cb04008877000056240000110000000063000034
:10cb14005555000066670000556500006656000024
:10cb24005644000023110000000000000000000033
:10cb340010020000000000000000000000000000df
:10cb440000000000000000000000000000000000e1
:10cb540000000000000000000000000000000000d1
:10cb6400000000000000000000320000330100005b
:10cb740000000000000000000000000000000000b1
:10cb840000000000000000000000000000000000a1
:10cb94000000000000000000102100006476000086
:10cba40098aa000099aa0000aaaa0000aa89000075
:10cbb4008888000099aa0000aa9a000088880000ca
:10cbc4006645000023110000216500006666000030
:10cbd400876800006676000077660000564400000f
:10cbe400120100000000000000000000210300000a
:10cbf4000000000000000000000000000000000031
:10cc04000000000000000000000000000000000020
:10cc14000000000000000000000000000000000010
:10cc24000000000000330000340300000000000096
:10cc340000000000000000000000000000000000f0
:10cc440000000000000000000000000000000000e0
:10cc540000000000112200005376000098aa000092
:10cc64009999000099aa0000999900008888000009
:10cc7400a9aa0000aaaa000088880000785500002c
:10cc84003434000043660000669700008978000091
:10cc94007788000077660000553400001201000018
:10cca400000000000000000032030000000000004b
:10ccb4000000000000000000000000000000000070
:10ccc4000000000000000000000000000000000060
:10ccd4000000000000000000000000000010000040
:10cce40021430000340200000000000000000000a6
:10ccf4000000000000000000000000000000000030
:10cd0400000000000000000000000000000000001f
:10cd1400112100004366000087aa000099990000d1
:10cd2400999900009999000089880000a9aa000037
:10cd3400aaaa000089880000895600005554000002
:10cd440055660000979a00008988000087880000d3
:10cd54007867000046240000110000000000000075
:10cd64000020000033030000000000000000000069
:10cd740000000000000000000000000000000000af
:10cd8400000000000000000000000000000000009f
:10cd94000000000000000000001100003245000007
:10cda4003403000000000000000000000000000048
:10cdb400000000000000000000000000000000006f
:10cdc400000000000000000000100000112200001c
:10cdd4003364000098aa0000999900009999000012
:10cde4009999000099880000a9aa0000aaaa000045
:10cdf400aa99000088780000565500006598000044
:10ce0400aa9a0000898800008889000088670000c9
:10ce14004623000001000000000000000031000073
:10ce240034030000000000000000000000000000c7
:10ce340000000000000000000000000000000000ee
:10ce440000000000000000000000000000000000de
:10ce5400000000002032000053650000460300007b
:10ce640000000000000000000000000000000000be
:10ce7400000000000000000000000000001100009d
:10ce840011010000001100001132000033530000b2
:10ce940077a90000998800009999000099aa0000d8
:10cea40099880000a9aa0000aaaa0000aaaa000062
:10ceb400888800007766000086aa0000aa9a00000d
:10cec40089880000998900008857000045120000f5
:10ced40001000000000000000043000034030000d3
:10cee400000000000000000000000000000000003e
:10cef400000000000000000000000000000000002e
:10cf0400000000000000000000000000000000001d
:10cf140010330000556600004612000000000000b7
:10cf240000000000000000000000000000000000fd
:10cf340000000000000000001011000011110000aa
:10cf440011110000113200003343000076a80000e4
:10cf5400998800009899000099aa00009a99000005
:10cf6400a9aa0000abaa0000aaaa000099880000a0
:10cf74008877000097aa0000aaaa000099990000e7
:10cf8400a999000078560000341100000000000048
:10cf940000000000204400003303000000000000f3
:10cfa400000000000000000000000000000000007d
:10cfb400000000000000000000000000000000006d
:10cfc400000000000000000000000000104200000b
:10cfd400556600004612000000000000000000003a
:10cfe400000000000000000000000000000000003d
:10cff40000000000101100001111000011110000c8
:10d004002132000033430000669800008988000044
:10d014008899000099aa0000aa990000aaba000001
:10d02400abaa0000aaaa00009a8900008898000010
:10d03400a9aa0000aaaa0000aaaa0000aa9a0000ad
:10d0440078560000230100000000000000000000ea
:10d054004244000033030000000000000000000010
:10d0640000000000000000000000000000000000bc
:10d0740000000000000000000000000000000000ac
:10d08400000000000000000020330000656500007f
:10d094004612000000000000000000000000000034
:10d0a400000000000000000000000000000000007c
:10d0b40010110000111100001111000021320000b4
:10d0c40033430000568600008988000087890000e9
:10d0d40098aa0000aa990000aaba0000abaa00000e
:10d0e400aa9a00009a88000098a90000baaa000031
:10d0f400aaaa0000aaaa0000aa9a00008856000062
:10d10400230100000000000000100000443400006f
:10d1140043040000000000000000000000000000c4
:10d1240000000000000000000000000000000000fb
:10d1340000000000000000000000000000000000eb
:10d144000000000020330000446400004513000088
:10d1540000000000000000000000000000000000cb
:10d164000000000000000000000000002022000079
:10d17400221100001111000021320000334300008d
:10d1840066860000888800008788000088a900005f
:10d19400aaaa0000aaaa0000bbaa0000aaaa00002a
:10d1a4009a990000a9aa0000bbaa0000bbbb00001a
:10d1b400bbab0000ab9a00008846000011000000e1
:10d1c4000000000000320000443300004405000069
:10d1d400000000000000000000000000000000004b
:10d1e400000000000000000000000000000000003b
:10d1f400000000000000000000000000000000002b
:10d204001022000033540000560300000000000008
:10d21400000000000000000000000000000000000a
:10d224000000000000000000203200002211000075
:10d234002122000022320000334300006676000001
:10d24400887700007888000088990000aaaa000066
:10d25400aaba0000bbaa0000aaaa0000aa9900006a
:10d26400a9bb0000bbbb0000bbbb0000bbcb0000e4
:10d27400ab9a0000782500000100000000000000c7
:10d284001032000033330000540500000000000099
:10d29400000000000000000000000000000000008a
:10d2a400000000000000000000000000000000007a
:10d2b4000000000000000000000000001011000049
:10d2c400325400005503000000000000000000007c
:10d2d400000000000000000000000000000000004a
:10d2e400000000002133000033110000222200005e
:10d2f4003233000033430000666600008677000086
:10d304008787000088980000aaaa0000aaba000033
:10d31400cbaa0000abaa0000aaaa0000babb000076
:10d32400dcbc0000bbbb0000bbcb0000ab9a000020
:10d33400681300000100000000100000113200001a
:10d344003343000055050000000000000000000009
:10d3540000000000000000000000000000000000c9
:10d3640000000000000000000000000000000000b9
:10d374000000000000000000001100003254000012
:10d384005503000000000000000000000000000041
:10d394000000000000000000000000000000000089
:10d3a4002133000033220000222300003233000026
:10d3b400334300006656000075770000878800003c
:10d3c40088880000a9aa0000aaba0000dbab00000c
:10d3d400abaa0000babb0000bbcc0000dddd00003e
:10d3e400bcbb0000bbbb0000ab9a000047120000ae
:10d3f400000000001011000021320000334400003e
:10d4040055040000000000000000000000000000bf
:10d414000000000000000000000000000000000008
:10d4240000000000000000000000000000000000f8
:10d43400000000000010000021530000550400000b
:10d4440000000000000000000000000000000000d8
:10d454000000000000000000000000003133000064
:10d464003322000032230000333300003343000032
:10d474006656000055770000888800007876000022
:10d4840088a90000aaaa0000dbab0000abaa000038
:10d49400bbbb0000bbdd0000dddd0000dddc000007
:10d4a400bbcc0000ab9a0000361100000010000055
:10d4b4001111000022320000335400005504000012
:10d4c4000000000000000000000000000000000058
:10d4d4000000000000000000000000000000000048
:10d4e4000000000000000000000000000000000038
:10d4f400000000002153000055130000000000004c
:10d504000000000000000000000000000000000017
:10d51400000000000000000021330000332200005e
:10d5240033330000333300003344000065560000f9
:10d534005476000088880000786500008898000010
:10d54400aaaa0000dcab0000bbbb0000bbbb000010
:10d55400bbdd0000dddd0000dddd0000dddd000001
:10d56400ab8a000024010000001100001222000018
:10d574002233000043550000550400000000000061
:10d584000000000000000000000000000000000097
:10d594000000000000000000000000000000000087
:10d5a4000000000000000000000000000000000077
:10d5b4002143000055250000000000000000000089
:10d5c4000000000000000000000000000000000057
:10d5d4000000000021330000342200004333000027
:10d5e40033430000434400006546000044650000e6
:10d5f400888800006755000086880000a9aa0000fa
:10d60400dcbb0000bbbb0000bbbb0000bbdc0000fc
:10d61400dddd0000dddd0000dddd0000ab7a0000b3
:10d6240023110000112100002232000033330000d6
:10d6340054550000450400000000000000000000f4
:10d6440000000000000000000000000000000000d6
:10d6540000000000000000000000000000000000c6
:10d664000000000000000000000000001033000073
:10d67400451400000000000000000000000000004d
:10d684000000000000000000000000000000000096
:10d6940022330000343300005434000033440000cb
:10d6a40044440000654600003354000087680000cd
:10d6b4005555000076870000a9aa0000dcbb0000d5
:10d6c400bbcb0000bbbb0000bbdb0000dddd00000a
:10d6d400dded0000eede0000ab5800002322000068
:10d6e4003323000022320000344400005655000069
:10d6f40045040000000000000000000000000000dd
:10d704000000000000000000000000000000000015
:10d714000000000000000000000000000000000005
:10d72400000000000000000010320000442300004c
:10d7340001000000000000000000000000000000e4
:10d744000000000000000000000000002242000071
:10d754005533000054450000444400004444000094
:10d76400554600003343000075560000555500002f
:10d7740066770000a8aa0000dcbb0000bbcb000059
:10d78400ddbb0000bbdb0000dddd0000ddee0000e2
:10d79400eede0000ab4700003333000055340000d8
:10d7a4002233000043750000565500004404000075
:10d7b4000000000000000000000000000000000065
:10d7c4000000000000000000000000000000000055
:10d7d4000000000000000000000000000000000045
:10d7e400000000001021000043230000010000009d
:10d7f4000000000000000000000000000000000025
:10d804000000000000100000324300005633000006
:10d8140064450000444400004444000045340000d2
:10d8240033330000435500004454000055660000a3
:10d8340087aa0000cabc0000cbdd0000dddd0000cb
:10d84400ddbb0000dddd0000eedd0000eebe00000b
:10d854009a5500005555000055460000333300002a
:10d864005456000055440000440400000000000029
:10d8740000000000000000000000000000000000a4
:10d884000000000000000000000000000000000094
:10d894000000000000000000000000000000000084
:10d8a40000210000332300000100000000000000fc
:10d8b4000000000000000000000000000000000064
:10d8c400001000002332000065440000656600007b
:10d8d4004444000044330000443400002222000089
:10d8e40033430000343300004556000086a900008d
:10d8f400babb0000cbdd0000dddd0000dddb000095
:10d90400dded0000eedd0000eebd00007a660000f3
:10d914006666000066560000454400006456000038
:10d924005544000044040000000000000000000012
:10d9340000000000000000000000000000000000e3
:10d9440000000000000000000000000000000000d3
:10d954000000000000000000000000000031000092
:10d96400331300000100000000000000000000006c
:10d974000000000000110000000000000020000072
:10d984002332000055440000656700004444000051
:10d99400343300003334000022220000222200002d
:10d9a400323300004554000086990000babb0000e1
:10d9b400cbdd0000dddd0000dddd0000dded00007d
:10d9c400deed0000eead000079770000777700000f
:10d9d4006666000055550000665600004545000087
:10d9e40044040000000000000000000000000000eb
:10d9f4000000000000000000000000000000000023
:10da04000000000000000000000000000000000012
:10da14000000000000000000004100003513000079
:10da240001000000000000000000000000000000f1
:10da3400112200000000000000200000234200002a
:10da4400554400006457000045440000343300008e
:10da5400333300002222000012220000223300008f
:10da64004444000075980000babb0000cbed0000f0
:10da7400eedd0000dddd0000ddee0000dded000088
:10da8400eeab00007988000088880000776600000b
:10da94006565000077560000554500004404000009
:10daa4000000000000000000000000000000000072
:10dab4000000000000000000000000000000000062
:10dac4000000000000000000000000000000000052
:10dad4000000000000520000551300000100000087
:10dae40000000000000000000010000022230000dd
:10daf4000000000000210000233200006445000003
:10db040054680000564400003433000032330000ef
:10db140011110000111100001132000044440000f2
:10db240075980000aaaa0000cbed0000eede00000c
:10db3400dddd0000ddee0000dded0000de9a00001a
:10db440099990000998900007867000056760000d2
:10db540078660000665500005504000000000000cf
:10db640000000000000000000000000000000000b1
:10db740000000000000000000000000000000000a1
:10db84000000000000000000000000000000000091
:10db940000630000572300000100000000000000a3
:10dba40000000000002000003323000000000000fb
:10dbb4000021000012210000654500005478000097
:10dbc40066440000342300003223000012110000d8
:10dbd4001111000021330000436400007698000016
:10dbe400aaaa0000caed0000eeee0000dddd000090
:10dbf400edee0000ddee0000ceaa0000aaaa0000af
:10dc0400aa99000088670000668700007867000012
:10dc140066660000660600000000000000000000c8
:10dc240000000000000000000000000000000000f0
:10dc340000000000000000000000000000000000e0
:10dc4400000000000000000000000000008500004b
:10dc54007935000001000000000000000000000011
:10dc64000031000033130000000000000032000007
:10dc74001121000054340000638800006655000040
:10dc840034220000222200001211000011110000b1
:10dc9400213300004354000076a80000aaaa000023
:10dca400caed0000eeee0000dddd0000eeee000047
:10dcb400ddee0000beaa0000aaaa0000aa99000096
:10dcc4008878000077880000777700007777000075
:10dcd40077070000000000000000000000000000c2
:10dce4000000000000000000000000000000000030
:10dcf4000000000000000000000000000000000020
:10dd04000000000000000000109700009947000088
:10dd140012000000000000000100000000320000ba
:10dd24004424000000000000101300001111000042
:10dd34006434000054880000675600003422000058
:10dd440022320000121100001111000021330000e2
:10dd54004365000097aa0000aaaa0000caed0000cb
:10dd6400eeee0000deed0000eeee0000edee000051
:10dd7400bdba0000aaaa0000aaaa00008878000080
:10dd840087880000777800008888000098090000e0
:10dd9400000000000000000000000000000000007f
:10dda400000000000000000000000000000000006f
:10ddb400000000000000000000000000000000005f
:10ddc4000000000030a900009a36000001000000a5
:10ddd4000030000023000000204300004524000020
:10dde4000000000020130000111100005434000052
:10ddf40054880000685600003423000022320000da
:10de040013110000111100002133000044750000bb
:10de140098aa0000aaaa0000caed0000eeee0000d5
:10de2400eeee0000eede0000edee0000acbb000004
:10de3400abaa0000aaaa0000898800008888000014
:10de440088880000889900009909000000000000fb
:10de540000000000000000000000000000000000be
:10de640000000000000000000000000000000000ae
:10de7400000000000000000000000000000000009e
:10de840040aa00008a04000010420000238400001d
:10de94004612000032440000562300000000000037
:10dea40010120000111100005433000064980000a7
:10deb400786600003533000033330000121100008f
:10dec400112200003343000044750000a9ba000089
:10ded400aaaa0000cbed0000eeee0000eeee00007a
:10dee400eede0000edee0000babb0000bbbb00009c
:10def400aaaa000088880000888800009899000079
:10df0400a9aa0000aa0a0000000000000000000006
:10df140000000000000000000000000000000000fd
:10df240000000000000000000000000000000000ed
:10df340000000000000000000000000070bb0000b2
:10df4400590100003186000067a800007a2500000e
:10df54004455000055240000000000001012000089
:10df64001111000054440000549800008877000008
:10df74004634000033430000231100002232000025
:10df84003354000055960000aaba0000abaa000062
:10df9400cbed0000eeee0000eeee0000eede000041
:10dfa400edce0000babb0000bbbb0000ab99000083
:10dfb400888800008888000099aa0000aaaa0000a6
:10dfc400aa0a000000000000000000000000000099
:10dfd400000000000000000000000000000000003d
:10dfe400000000000000000000000000000000002d
:10dff400000000000010000092ad00001821000095
:10e004007498000088ba0000aa69000065560000f0
:10e01400551400000011000011110000101100003f
:10e0240054440000549800008887000066440000af
:10e034004444000023220000324300004455000001
:10e0440055960000aabb0000bbbb0000dcee00003c
:10e05400eeee0000eeee0000eeee0000eece00006c
:10e06400bbdb0000bdbb0000ab890000888800005a
:10e0740088880000aaaa0000aaaa0000aa0a000030
:10e08400000000000000000000000000000000008c
:10e09400000000000000000000000000000000007c
:10e0a400000000000000000000000000000100006b
:10e0b40000100000b5ad000027520000979a000040
:10e0c40098bb0000abaa00009968000077670000c5
:10e0d40077450000221200000011000053440000a4
:10e0e40065980000888800006646000044440000eb
:10e0f40033320000435500006556000065a7000058
:10e10400bbbb0000bbcb0000ddee0000eeee000068
:10e11400eeee0000eeee0000eead0000bbdb000012
:10e12400cdbb0000ab8900008877000088a8000000
:10e13400aaaa0000aaaa0000aa0a0000000000007f
:10e1440000000000000000000000000000000000cb
:10e1540000000000000000000000000000000000bb
:10e164000000000000000000000100000141000068
:10e17400c9ad000046860000a99a0000a9bb0000b2
:10e18400abaa0000aaaa0000aa9a000078560000d0
:10e19400341300000100000064440000658800009e
:10e1a400898900007866000055550000343300006a
:10e1b400436600007766000066a90000dbbd00002e
:10e1c400bbdc0000edee0000eeee0000eeee000021
:10e1d400eeee0000eead0000dbdb0000ddbb000076
:10e1e400aa8800008888000088a90000aaaa000064
:10e1f400aaaa0000aa0a0000000000000000000013
:10e20400000000000000000000000000000000000a
:10e2140000000000000000000000000000010000f9
:10e22400000000000011000042a70000ecae000056
:10e2340087a80000bbaa0000babb0000bbbb00005b
:10e24400aaba0000ab9a00007866000044230000dc
:10e254000100000053440000758800008899000004
:10e2640069660000666500003543000054670000dd
:10e274007756000076aa0000dbdb0000dddd00003d
:10e28400edee0000eeee0000eeee0000eeee00001b
:10e29400eeac0000bbdb0000ddbb000089880000a1
:10e2a4008888000098aa0000baaa0000aaaa000060
:10e2b400aa0a0000000000000000000000000000a6
:10e2c400000000000000000000000000000000004a
:10e2d40000000000000000001011000011120000f6
:10e2e40011420000a8ca0000eeae000099ca000066
:10e2f400acaa0000cabc0000ddbd0000bbab00003e
:10e30400aa89000078550000443300001110000071
:10e314005444000075880000989900007866000055
:10e3240066660000554400006578000067550000eb
:10e3340097ba0000dddd0000dddd0000eeee000038
:10e34400eeee0000eeee0000eeee0000deaa0000ad
:10e35400bbdb0000ddbb0000998800009999000038
:10e36400aaaa0000bbaa0000aaaa0000aa0a0000e8
:10e374000000000000000000000000000000000099
:10e384000000000000000000000000000000000089
:10e3940000000000003300004355000065a70000a2
:10e3a400cbed0000eeae0000caed0000abaa000009
:10e3b400cabc0000ddbb0000bbaa00009a880000b4
:10e3c4006755000045340000122100005554000038
:10e3d4007688000098990000786600006666000060
:10e3e400555500007588000067770000a9ba000041
:10e3f400dddd0000ddee0000eeee0000eeee0000dc
:10e40400eeee0000eeee0000deaa0000bbdd000030
:10e41400ddbb0000aa990000aaaa0000aaba000065
:10e42400bbbb0000aaaa0000aa0a0000000000006a
:10e4340000000000000000000000000000000000d8
:10e4440000000000000000000000000000000000c8
:10e454000054000075980000a9db0000eeee0000f7
:10e46400eece0000edce0000abaa0000cbdd000034
:10e47400ddab0000aaaa00008978000066660000ef
:10e484005534000023210000665400006688000013
:10e49400989a0000786600006566000066550000e2
:10e4a4008688000078880000a9db0000ddee00000b
:10e4b400eeee0000eeee0000eeee0000eeee0000e8
:10e4c400eeee0000ceba0000bbdd0000ddbb0000b4
:10e4d400aaaa0000aaaa0000aabb0000bbbb0000b5
:10e4e400abaa0000ab0a000000000000000000001e
:10e4f4000000000000000000000000000000000018
:10e5040000000000000000000000000000640000a3
:10e5140087aa0000cbee0000eeee0000eeee000055
:10e52400eebd0000aaba0000dcbd0000bbaa0000da
:10e53400aa890000776700005555000044350000a3
:10e54400232200006665000065880000989a000098
:10e554007866000066770000676600008788000020
:10e5640088990000badc0000edee0000eeee000039
:10e57400eeee0000eeee0000eeee0000eeee000027
:10e58400ceba0000bbcc0000ddbd0000abaa000089
:10e59400aaaa0000bacc0000ddbc0000bbcb00007e
:10e5a400bb0b0000000000000000000000000000a1
:10e5b4000000000000000000000000000000000057
:10e5c40000000000000000000083000099ba000071
:10e5d400eeee0000eeee0000eeee0000eebe0000f7
:10e5e400bbbb0000dcbb0000aaaa00009a780000b4
:10e5f400565500003443000033340000233100003a
:10e604006555000065870000989a0000786700004f
:10e6140077770000787600008898000098ba0000a8
:10e62400dcdd0000eeee0000eeee0000eeee000099
:10e63400eeee0000eeee0000eeee0000bdbb0000ca
:10e64400bbcb0000dddd0000bbaa0000bbbb0000ab
:10e65400cbdd0000cdbb0000dcdd0000bc0b000006
:10e6640000000000000000000000000000000000a6
:10e674000000000000000000000000000000000096
:10e684000000000000920000aaeb0000eeee000083
:10e69400eeee0000eeee0000eebe0000bbbc00009b
:10e6a400bcaa00009a990000995800004443000055
:10e6b400343300003332000022210000545500009e
:10e6c40066760000989a000078770000778800004a
:10e6d4007877000088880000a8cc0000dddd000009
:10e6e400eeee0000eeee0000eeee0000eeee0000b6
:10e6f400eeee0000eeee0000bdbb0000bbdc00004f
:10e70400dddd0000bcbb0000bbbb0000dbdd0000a6
:10e71400cddb0000dddd0000bd0b000000000000cb
:10e7240000000000000000000000000000000000e5
:10e7340000000000000000000000000000000000d5
:10e7440000910000daee0000eeee0000eeee0000b4
:10e75400eeee0000eece0000cbbd0000ab9a000050
:10e76400999900006846000033220000232200002b
:10e7740032220000122100004366000046650000ba
:10e78400989a000088770000878800007898000035
:10e7940088880000d9ee0000eeed0000eeee0000e7
:10e7a400eeee0000eeee0000eeee0000eeee0000f5
:10e7b400eeee0000cdbb0000cbdd0000eddd00007f
:10e7c400cdbb0000bbbb0000dcdd0000cddc0000e5
:10e7d400edde0000bd0b00000000000000000000a2
:10e7e4000000000000000000000000000000000025
:10e7f4000000000000000000000000000081000094
:10e80400ecee0000eeee0000eeee0000eeee000096
:10e81400eeee0000dcab00009a990000997900004c
:10e824004523000010010000001000001121000029
:10e83400122100005476000035640000879a00001d
:10e844008888000088880000889900008888000073
:10e85400ebee0000eeee0000eeee0000eeee000047
:10e86400eeee0000eeee0000eeee0000eeee000034
:10e87400decc0000dced0000eede0000cdbb0000cd
:10e88400bbbb0000dddd0000dddd0000eede0000ce
:10e89400bd0b0000000000000000000000000000ac
:10e8a4000000000000000000000000000000000064
:10e8b400000000000000000011610000edee000007
:10e8c400eeee0000eeee0000eeee0000eeee0000d4
:10e8d400bc9a0000889a00008945000012010000db
:10e8e40000000000003000002012000011110000a0
:10e8f4006477000034540000879900008888000081
:10e90400888800008898000089a80000eeee0000c6
:10e91400eeee0000eeee0000eeee0000eeee000083
:10e92400eeee0000eeee0000eeee0000eedd000084
:10e93400edee0000eeee0000ddbb0000bbcb0000fe
:10e94400dddd0000dddd0000eede0000bd0b0000bb
:10e9540000000000000000000000000000000000b3
:10e9640000000000000000000000000000000000a3
:10e974000010000011510000edee0000eeee00006a
:10e98400eeee0000eeee0000eede00009a990000cc
:10e99400a97a00002410000011010000000000000a
:10e9a4000021000000110000111100008578000012
:10e9b400345300007699000088880000889800008d
:10e9c4009899000099c90000eeee0000eeee0000f8
:10e9d400eeee0000eeee0000eeee0000eeee0000c3
:10e9e400eeee0000eeee0000eeee0000eeee0000b3
:10e9f400eeee0000ddbd0000bbdc0000ddde00004b
:10ea0400dded0000eede0000bd0b000000000000a4
:10ea140000000000000000000000000000000000f2
:10ea240000000000000000000000000000110000d1
:10ea340011410000ecee0000eeee0000eeee0000ee
:10ea4400eeee0000eede00009a790000562300008e
:10ea5400010000000010000000000000111100007f
:10ea6400001000001111000053880000345300000e
:10ea7400659800008888000088980000a9aa000012
:10ea8400aaea0000eeee0000eeee0000eeee00005a
:10ea9400eeee0000eeee0000eeee0000eeee000002
:10eaa400eede0000eeee0000eeee0000eeee000002
:10eab400dedd0000dddd0000eede0000dded000047
:10eac400eede0000dd0d000000000000000000008c
:10ead4000000000000000000000000000000000032
:10eae40000000000000000000011000011310000cf
:10eaf400ebee0000eeee0000eeee0000eeee0000a5
:10eb0400ee9e00008a1200000100000001010000d6
:10eb140000100000001100001111000001000000ad
:10eb240011110000118500003543000056970000c4
:10eb34008888000088990000a9aa0000baee0000a5
:10eb4400eeee0000eeee0000eeee0000eeee000051
:10eb5400eeee0000eeee0000eeee0000eeed000042
:10eb6400eeee0000eeee0000eeee0000dedd000052
:10eb7400ddee0000eeee0000eeee0000eede000042
:10eb8400dd0e000000000000000000000000000096
:10eb94000000000000000000000000000000000071
:10eba400000000001011000011110000ebee000045
:10ebb400eeee0000eeee0000eeee0000eebe000011
:10ebc40038110000000100001100000000110000d5
:10ebd40001110000111100000100000011110000da
:10ebe400116100003653000055860000888800003b
:10ebf40098990000aaba0000dbee0000eeee0000d7
:10ec0400eeee0000eeee0000eeee0000eeee000090
:10ec1400eeee0000eeee0000eeed0000eeee000081
:10ec2400eeee0000eeee0000dedd0000ddee0000a2
:10ec3400eeee0000eeee0000eede0000ed0e000051
:10ec440000000000000000000000000000000000c0
:10ec540000000000000000000000000000000000b0
:10ec64000011000011110000e9ee0000eeee0000ba
:10ec7400eeee0000eeee0000eede000014110000e7
:10ec84001111000011110000111100000111000008
:10ec940011110000100100001111000011210000e9
:10eca40047340000558600008888000098aa0000b8
:10ecb400aaba0000edee0000eeee0000eeee000059
:10ecc400eeee0000eeee0000eeee0000eeee0000d0
:10ecd400eeee0000dddd0000eeee0000eeee0000e2
:10ece400eeee0000eeee0000eeee0000eeee0000b0
:10ecf400eeee0000eeee0000ee0e0000000000005c
:10ed040000000000000000000000000000000000ff
:10ed140000000000000000000000000011110000cd
:10ed240011220000d5ee0000eeee0000eeee000031
:10ed3400eeee0000eebd0000121100001111000003
:10ed44001111000011120000111100001111000036
:10ed540011010000101100001111000044440000d2
:10ed6400557500008888000098aa0000aadb0000fe
:10ed7400eeee0000eeee0000eeee0000eeee00001f
:10ed8400eeee0000eeee0000eeee0000eede00001f
:10ed9400dddd0000eeee0000eeee0000eeee000021
:10eda400eeee0000eeee0000eeee0000eeee0000ef
:10edb400eeee0000ee0e0000000000000000000077
:10edc400000000000000000000000000000000003f
:10edd40000000000000000001111000011220000da
:10ede400b2ee0000eeee0000eeee0000eeee0000eb
:10edf400ae250000111100001111000032230000a3
:10ee04002224000011110000111100001101000062
:10ee1400101100001111000042650000556500004a
:10ee24008888000098aa0000aaed0000eeee000019
:10ee3400eeee0000eeee0000eeee0000eeee00005e
:10ee4400eeee0000eeee0000eeee0000dddd000070
:10ee5400eeee0000eeee0000eeee0000eeee00003e
:10ee6400eeee0000eeee0000eeee0000eeee00002e
:10ee7400ee0e000000000000000000000000000092
:10ee8400000000000000000000000000000000007e
:10ee9400001000001111000021220000a2ee000069
:10eea400eeee0000eeee0000eeee0000ae220000fa
:10eeb400111100000110000043240000222400006e
:10eec40012110000111100001111000010110000b6
:10eed400111100002184000066650000878800008d
:10eee40099aa0000baee0000eeee0000eeee00007b
:10eef400eeee0000eeee0000eeee0000eeee00009e
:10ef0400eeee0000eede0000dddd0000eeee0000bf
:10ef1400eeee0000eeee0000eeee0000eeee00007d
:10ef2400eeee0000eeee0000eeee0000ee0d00004e
:10ef340000000000000000000000000000000000cd
:10ef440000000000000000000000000000110000ac
:10ef54001111000021320000d5ee0000eeee000099
:10ef6400eeee0000eeee0000ae23000044220000ae
:10ef7400221200003222000033330000112200006c
:10ef840022210000111100001100000000100000f7
:10ef940011600000565500008798000099aa0000ef
:10efa400aaec0000eeee0000eeee0000eeee000033
:10efb400eeee0000eeee0000eeee0000eeee0000dd
:10efc400eedd0000dddd0000eeee0000eeee000000
:10efd400eeee0000eeee0000eeee0000eeee0000bd
:10efe400eeee0000eeee0000de0c0000000000007b
:10eff400000000000000000000000000000000000d
:10f0040000000000000000000011000011110000c9
:10f0140021840000eeee0000eeee0000eeee0000b3
:10f02400cedb0000ee880000ae12000021120000ca
:10f0340021100000333300001132000022220000ae
:10f044001111000001000000001100000000000088
:10f054002155000087880000a9aa0000aaca000060
:10f06400eeee0000eeee0000eeee0000eeee00002c
:10f07400eeee0000eeee0000eeee0000eeed00001d
:10f08400eeed0000eeee0000eeee0000eeee00000d
:10f09400eeee0000eeee0000eeee0000eeee0000fc
:10f0a400eeee0000cd0b00000000000000000000a8
:10f0b400000000000000000000000000000000004c
:10f0c40000000000001100001111000073eb0000ab
:10f0d400eeee0000eeee0000eeee0000aeca000020
:10f0e400eeee0000de170000220100001110000007
:10f0f40033220000313200002323000022110000db
:10f1040001000000100100000000000011210000b7
:10f1140086880000a9aa0000aaba0000edee00004b
:10f12400eeee0000eeee0000eeee0000eeee00006b
:10f13400eeee0000eeee0000eeee0000eeed00005c
:10f14400eeee0000eeee0000eeee0000eeee00004b
:10f15400eeee0000eeee0000eeee0000eede00004b
:10f16400bc0a0000000000000000000000000000d5
:10f17400000000000000000000000000000000008b
:10f184001011000011620000daee0000eeee000043
:10f19400eeee0000eeee0000ceaa0000eeee00005f
:10f1a400ee4b000022220000123200004433000023
:10f1b400232200002133000032210000011100004d
:10f1c40010010000000000000010000093980000ef
:10f1d40099aa0000aaca0000edee0000eeee0000bd
:10f1e400eeee0000edee0000eeee0000eeee0000ac
:10f1f400eeee0000eeee0000eeee0000eeee00009b
:10f20400eeee0000eeee0000eeee0000eeee00008a
:10f21400eeee0000eeee0000eecd0000ab0a0000c2
:10f2240000000000000000000000000000000000da
:10f2340000000000000000000000000000100000ba
:10f2440042c90000eeee0000eeee0000eeee00001b
:10f25400deab0000edab0000eeee0000de7c000053
:10f264001221000022330000335500004512000033
:10f2740021110000421300003201000000110000bf
:10f2840000000000002000007777000087a900003c
:10f29400aada0000eeee0000eeee0000eeee000052
:10f2a400edee0000eeee0000eeee0000eeee0000eb
:10f2b400eeee0000eeee0000eeee0000eeee0000da
:10f2c400eeee0000eeee0000eeee0000eeee0000ca
:10f2d400eeee0000decd0000aa0a000000000000ef
:10f2e400000000000000000000000000000000001a
:10f2f400000000000000000000210000b6ee000045
:10f30400eeee0000eeda0000eeee0000ad67000065
:10f31400c9cd0000edee0000be9c000035230000c6
:10f324002332000032340000862600001121000040
:10f33400313200002500000000010000120000002e
:10f34400001100003366000086a80000aaca00006d
:10f35400edee0000eeee0000eeee0000eeee00003a
:10f36400eeee0000eeee0000eeee0000eeee000029
:10f37400eeee0000eeee0000eeee0000eeee000019
:10f38400eeee0000eeee0000eeee0000eeee000009
:10f39400ddac0000aa09000000000000000000002d
:10f3a4000000000000000000000000000000000059
:10f3b4000000000010620000daee0000eeee000033
:10f3c400cddb0000eece00008c32000074eb0000b8
:10f3d400edee0000ce9a000025210000323200003c
:10f3e40022110000435800002122000011310000c6
:10f3f40012110000121100001100000000110000a1
:10f404001174000076aa0000aada0000edee0000f4
:10f41400eeee0000eeee0000eeee0000eeee000078
:10f42400eeee0000eeee0000eeee0000eeee000068
:10f43400eeee0000eeee0000eeee0000eeee000058
:10f44400eeee0000eeee0000eeee0000ddac00009b
:10f45400aa090000000000000000000000000000f5
:10f464000000000000000000000000000000000098
:10f4740010a40000dbee0000eeee0000bded000085
:10f48400ee7c00002632000033b70000edee0000f1
:10f49400ce8a00001511000032440000241200003e
:10f4a4002234000044120000111100001222000056
:10f4b40023200000131100000010000010210000a0
:10f4c40034330000aaea0000ddee0000eeee000096
:10f4d400eeee0000eeee0000eeee0000eeee0000b8
:10f4e400eeee0000eeee0000eeee0000eeee0000a8
:10f4f400eeee0000eeee0000eeee0000eeee000098
:10f50400eeee0000eede0000cdab00009a08000035
:10f5140000000000000000000000000000000000e7
:10f5240000000000000000000000000010a6000021
:10f53400dcee0000eeee0000bced00006d160000f5
:10f544002265000045730000ebee0000de89000038
:10f554001422000021540000343300002213000060
:10f5640044230000215100002131000013950000c4
:10f57400370100000000000010100000111200000c
:10f58400a3420000deee0000eeee0000eeee00000e
:10f59400eeee0000eeee0000eeee0000eeee0000f7
:10f5a400eeee0000eeee0000eeee0000eeee0000e7
:10f5b400eeee0000eeee0000eeee0000eeee0000d7
:10f5c400eedd0000bcaa0000990700000000000066
:10f5d4000000000000000000000000000000000027
:10f5e400000000000000000010960000dcee0000a7
:10f5f400eeee0000bded00002b110000634700009b
:10f6040045660000d7ee0000ee8a000024220000c8
:10f61400335400004535000022120000213500005b
:10f624002111000011330000528900002500000060
:10f63400000000000011000011120000126100001f
:10f6440076ee0000deee0000eeee0000eeee0000ce
:10f65400eeee0000eeee0000eeee0000eeee000036
:10f66400eeee0000eeee0000eeee0000eeee000026
:10f67400eeee0000eeee0000eeee0000eedd000027
:10f68400acaa0000790700000000000000000000a0
:10f694000000000000000000000000000000000066
:10f6a4000000000000940000daee0000eeee00001e
:10f6b400ddde000008410000344300005455000022
:10f6c400a5ee0000ee7b000024210000324400007f
:10f6d400445400003412000022630000221200008f
:10f6e4002111000084470000010000000000000018
:10f6f40000110000110100001131000021eb000095
:10f70400eeee0000eeee0000eeee0000eeee000085
:10f71400eeee0000eeee0000eeee0000eeee000075
:10f72400eeee0000eeee0000eeee0000eeee000065
:10f73400eeee0000eeee0000decd0000ab9a00001d
:10f744006806000000000000000000000000000047
:10f7540000000000000000000000000000000000a5
:10f7640000940000daed0000eeee0000dddc0000a5
:10f7740017110000121100005354000075eb000033
:10f78400ee9d0000252200003333000033430000c7
:10f794003312000021420000261200001222000051
:10f7a40074240000000000000100000000000000bc
:10f7b400110000001111000031eb0000eeee00001a
:10f7c400eeee0000eeee0000eeee0000eeee0000c5
:10f7d400eeee0000eeee0000eeee0000eeee0000b5
:10f7e400eeee0000eeee0000eeee0000eeee0000a5
:10f7f400eeee0000ddcd0000aa89000066060000e0
:10f8040000000000000000000000000000000000f4
:10f8140000000000000000000000000000a4000040
:10f82400bbed0000eeee0000dd89000011210000b8
:10f83400111100004334000064da0000eead000052
:10f84400363200003433000033330000331200003a
:10f85400112200002622000033240000431200007d
:10f864001011000001000000101000000000000052
:10f874000020000072ee0000eeee0000eeee00004c
:10f88400eeee0000eeee0000eeee0000eeee000004
:10f89400eeee0000eeee0000eeee0000eeee0000f4
:10f8a400eeee0000eeee0000eeee0000eeee0000e4
:10f8b400ddbc0000aa69000056050000000000003d
:10f8c4000000000000000000000000000000000034
:10f8d400000000000000000000a30000bbdc0000ea
:10f8e400eeee0000ac1b000012110000112100001c
:10f8f4004542000064b80000eece00006934000008
:10f9040033220000223200003322000011120000d2
:10f914001612000032120000321200001111000011
:10f92400010000001011000000110000001100008f
:10f9340071ee0000eeee0000eeee0000eeee0000d0
:10f94400eeee0000eeee0000eeee0000eeee000043
:10f95400eeee0000eeee0000eeee0000eeee000033
:10f96400eeee0000eeee0000eeee0000cdab000087
:10f974009a67000046050000000000000000000037
:10f984000000000000000000000000000000000073
:10f994000000000000a20000bbec0000eece00005e
:10f9a4009b120000211100001121000043340000cb
:10f9b40055a50000eede00009a4700002322000057
:10f9c4002222000032230000111100003521000022
:10f9d400311200003211000001100000001000007c
:10f9e40001000000111100001011000061ed000081
:10f9f400eeee0000eeee0000eeee0000eeee000093
:10fa0400eeee0000eeee0000eeee0000eeee000082
:10fa1400eeee0000ddec0000eeee0000eeee000085
:10fa2400eeee0000eeee0000ddab00009a560000a2
:10fa34004504000000000000000000000000000079
:10fa440000000000000000000000000000000000b2
:10fa540000a20000badc0000ee9e00005512000077
:10fa64000021000013110000214200005496000000
:10fa7400ecde0000aa7900004534000033220000c7
:10fa840022220000111100003301000022110000a5
:10fa940021120000101100000101000000110000fb
:10faa400110100001111000032e90000eeee000027
:10fab400eeee0000eeee0000eeee0000eeee0000d2
:10fac400eeee0000eeee0000eeee0000eede0000d2
:10fad400cddb0000eeee0000eeee0000eeee0000e6
:10fae400eeee0000debc0000796600004405000074
:10faf4000000000000000000000000000000000002
:10fb0400000000000000000000000000009200005f
:10fb1400baec0000ee7d000012110000011000009c
:10fb2400112100002232000064860000bade0000c9
:10fb3400aa890000666600007745000022220000c2
:10fb44001111000023000000111100001112000027
:10fb54001112000011110000111100001111000018
:10fb64001121000013820000edee0000eeee000013
:10fb7400eeee0000eeee0000eeee0000eeee000011
:10fb8400eeee0000eeee0000eede0000bddb000055
:10fb9400eeee0000eeee0000eeee0000eeee0000f1
:10fba400ceab0000795600004404000000000000c1
:10fbb4000000000000000000000000000000000041
:10fbc400000000000000000000710000aaed000029
:10fbd400be270000111000001110000011110000d8
:10fbe4001231000086870000a9db0000aa990000fa
:10fbf40088970000aa790000352200001111000046
:10fc0400120000001111000000110000001100009a
:10fc14001121000011110000111100000210000058
:10fc240011110000e7ee0000eeee0000eeee000021
:10fc3400eeee0000eeee0000eeee0000eeee000050
:10fc4400eeee0000ddde0000bddb0000eeee0000a5
:10fc5400eeee0000eeee0000eeee0000ceaa000094
:10fc64007956000034040000000000000000000089
:10fc74000000000000000000000000000000000080
:10fc84000000000000300000baee00005a2100001d
:10fc940012000000111100001211000010210000d8
:10fca4004665000087aa0000898800008899000042
:10fcb400aaaa00005833000012110000010000003d
:10fcc40010000000000000000020000021110000ce
:10fcd40011110000010000000010000011100000cc
:10fce40092ee0000eeee0000eeee0000eeee0000fc
:10fcf400eeee0000eeee0000eeee0000eede0000a0
:10fd0400ddee0000bddb0000eeee0000eeee0000d4
:10fd1400eeee0000eeee0000ce9b000078560000f0
:10fd24003404000000000000000000000000000097
:10fd340000000000000000000000000000000000bf
:10fd440000200000b9ee000028220000120000008c
:10fd5400111100002211000011510000796300000c
:10fd640078a900006876000076880000a9aa00003f
:10fd74008a3400000210000001000000100000009e
:10fd8400000000000010000011120000110000002b
:10fd940000000000001100000110000081ef0000cd
:10fda400eeee0000eeee0000eeee0000eeee0000df
:10fdb400eeee0000eeee0000eede0000ddee0000f0
:10fdc400cddb0000eeee0000eeee0000eeee0000f3
:10fdd400eeee0000cdaa00007856000033050000c6
:10fde400000000000000000000000000000000000f
:10fdf40000000000000000000000000000200000df
:10fe0400c7ee000088140000110100002111000059
:10fe140022230000119300009a38000067a7000015
:10fe2400484400003364000076a8000089450000bf
:10fe3400131100000000000010000000000000008a
:10fe44000011000012210000110000000011000048
:10fe5400111100000110000051eb0000eeee000053
:10fe6400eeee0000eeee0000eeee0000eeee00001e
:10fe7400eeee0000eedd0000ddee0000dddd000052
:10fe8400eeee0000eeee0000eeee0000eeee0000fe
:10fe9400bdaa0000786600005505000000000000bf
:10fea400000000000000000000000000000000004e
:10feb400000000000000000000110000d6ee000069
:10fec4006b1300000010000011110000215300000a
:10fed40037c80000ab4900005385000035330000eb
:10fee4003322000032740000664500002310000035
:10fef40000000000000000000000000000100000ee
:10ff04001121000012110000111100001111000054
:10ff14000111000011e80000eeee0000eeee00001a
:10ff2400eeee0000eeee0000eeee0000eeee00005d
:10ff3400dedd0000ddde0000dddd0000eeee0000b1
:10ff4400eeee0000eeee0000eede0000abaa0000d4
:10ff54008878000045040000000000000000000054
:10ff6400000000000000000000000000000000008d
:10ff74000000000000100000e7ee0000380400005c
:10ff840000100000111100001143000036d90000d8
:10ff9400ab69000035650000253300002312000022
:10ffa400214400003543000013110000110000003b
:10ffb400000000000000000000000000111100001b
:10ffc40011110000111100001111000001110000b5
:10ffd40021e90000eeee0000eeee0000eeee00007f
:10ffe400eeee0000eeee0000eeee0000dedd0000be
:10fff400dddd0000dddd0000eeee0000eeee0000d1
:020000040001f9
:10000400eeee0000eede0000abaa00008867000000
:100014004404000000000000000000000000000094
:1000240000000000000000000000000000000000cc
:1000340000200000d817000011110000000100008a
:10004400111200001152000014da0000bd6a000011
:100054003453000024320000222200001131000039
:1000640022430000331100000100000000000000e2
:100074000000000000000000101100001111000039
:1000840011110000113100001111000021e80000dd
:10009400eeee0000eeee0000eeee0000eeee0000ec
:1000a400eeee0000eeee0000dddd0000dddd000020
:1000b400dddd0000eeee0000eeee0000eeee0000ee
:1000c400eedd0000abaa00008868000034040000e4
:1000d400000000000000000000000000000000001c
:1000e40000000000000000000000000000200000ec
:1000f4006601000010000000000100001011000063
:100104003134000012e90000de5a000024320000fd
:10011400131100001111000012110000214300000e
:1001240013110000000000000000000000000000a7
:100134000000000000010000000000001111000098
:10014400113100001111000031eb0000eeee00004f
:10015400eeee0000eeee0000eeee0000eeee00002b
:10016400eede0000dddd0000bcdd0000dded0000a2
:10017400eeee0000eeee0000eeee0000eedd00001c
:10018400abaa00009a6800004404000000000000cc
:10019400000000000000000000000000000000005b
:1001a400000000000000000000000000001100003a
:1001b4001101000000000000101100003266000070
:1001c40026d60000de5a000023220000221100007f
:1001d400111100001111000022330000221100004f
:1001e400010000000000000000000000000000000a
:1001f40000110000000000000000000011010000d8
:100204001111000041ea0000eeee0000eeee0000e5
:10021400eeee0000eeee0000eeee0000eedd00007b
:10022400dddd0000bcdd0000dded0000eeee0000d1
:10023400eeee0000eeee0000debd0000abaa000012
:100244009a6800004504000000000000000000005f
:10025400000000000000000000000000000000009a
:100264000000000011300000041000001101000023
:1002740000000000101100005168000023d20000ab
:10028400de6a0000231200001101000000100000cb
:1002940011120000111100002211000000000000e2
:1002a4000000000000000000000000000011000039
:1002b4000000000000000000000000000011000029
:1002c40021c60000eeee0000eeee0000eeee0000af
:1002d400eeee0000eeee0000cebb0000ddcd00002f
:1002e400bbdd0000edee0000eeee0000eeee0000df
:1002f400eedd0000ddbd0000abaa00009a7900002d
:10030400560500000000000000000000000000008e
:1003140000000000000000000000000000000000d9
:10032400015100004a01000000100000001100000b
:10033400102100003245000013b10000de7b0000f4
:10034400232200001101000000110000121100001e
:100354000110000021000000101000000000000047
:100364000000000000000000001000001100000068
:1003740000010000000000001011000021e900004d
:10038400eeee0000eeee0000eeee0000eeee0000f9
:10039400eeee0000bcba0000dbcd0000bbdd0000c7
:1003a400eeee0000eeee0000eeee0000eedd0000ea
:1003b400bbbb0000aaaa00009a79000066060000f0
:1003c4000000000000000000000000000000000029
:1003d40000000000000000000000000011410000c7
:1003e400bb04000000000000000000001132000007
:1003f4001132000012b20000bcab00003522000034
:100404001100000000210000222200000100000071
:1004140010000000100000000000000000000000b8
:100424000000000000100000111100001110000075
:10043400001100001111000071ed0000eeee00004b
:10044400eeee0000eeee0000eeee0000eece000058
:10045400abba0000cbcd0000dbdd0000eeee000007
:10046400eeee0000eeee0000debd0000bbbb0000bf
:10047400aaaa00009a890000660700000000000094
:100484000000000000000000000000000000000068
:100494000000000000000000000000004511000002
:1004a4000000000000000000111200000121000003
:1004b40012910000baab00003622000011110000b6
:1004c400102200002333000012000000100100007d
:1004d4000000000000000000000000000000000018
:1004e40000110000111100001111000000110000a2
:1004f40011310000a7ee0000eeee0000eeee000069
:10050400eeee0000eeee0000eebd0000a9ba000021
:10051400cbcd0000cbed0000eeee0000eeee0000cf
:10052400eeee0000ddbc0000abba0000aaaa000099
:100534009a89000067060000000000000000000027
:1005440000000000000000000000000000000000a7
:100554000000000000000000001000000100000086
:1005640000000000211200000110000023410000df
:10057400aaaa000048230000110100001011000085
:1005840032330000130000000000000000000000ef
:100594000000000000000000000000000010000047
:1005a4002101000000000000001000001181000083
:1005b400ddee0000eeee0000eeee0000eeee0000d8
:1005c400eeee0000ee9b000098aa0000cbbc0000f9
:1005d400cbdd0000eeee0000eeee0000eede0000eb
:1005e400ccbb0000aaaa0000aaaa000099890000b6
:1005f400770600000000000000000000000000007a
:1006040000000000000000000000000000000000e6
:10061400104100000510000011120000001000003d
:1006240012220000222100002211000099aa0000d9
:1006340058130000111100001111000021220000c4
:100644001200000000000000000000000000000094
:100654000000000000000000000000000000000096
:10066400000000000000000011750000ebee000027
:10067400eeee0000eeee0000eeee0000eeee000006
:10068400ce79000097a90000aaba0000bbdd0000e3
:10069400dded0000eeee0000eede0000bbaa00007f
:1006a400aaaa0000aaaa00009988000088070000ee
:1006b4000000000000000000000000000000000036
:1006c40000000000000000000000000010610000b5
:1006d4001523000045010000002200001210000054
:1006e400112100002301000096aa000058230000f5
:1006f400111100001111000021110000010000007f
:1007040000000000000000000000000000000000e5
:1007140000000000000000000000000000000000d5
:100724000000000031880000ecee0000eeee000056
:10073400eeee0000eeee0000eeee00009c6700001e
:1007440086990000aaaa0000bbdd0000dded0000d0
:10075400eeee0000eecd0000abaa0000aaaa000055
:10076400aaaa000099880000880700000100000080
:100774000000000000000000000000000000000075
:10078400000000001100000011410000235200008d
:100794004912000010210000001000001111000097
:1007a4000000000082a9000069240000111200006a
:1007b40011110000112100001200000000000000cf
:1007c4001101000000000000000000000000000013
:1007d4000000000000000000000000000010000005
:1007e40031d90000eeee0000eeee0000eeee000067
:1007f400eeee0000eede00006746000065880000b3
:10080400aaaa0000aacb0000dded0000eeee000075
:10081400eecd0000bbaa0000aa990000a99900002f
:100824009999000088080000010000000000000001
:100834001012000000000000000000000010000082
:1008440011010000002100002623000032120000e4
:10085400101100000111000012110000111100001c
:1008640062a9000079240000112100001211000087
:100874001111000011000000000000001100000030
:100884000000000000000000000100000000000063
:1008940000000000000000000010000011e400004f
:1008a400eeee0000eeee0000eeee0000eeee0000d4
:1008b400ee9e00004434000044880000a9aa000011
:1008c400aabb0000dded0000eeee0000decd00006e
:1008d400bbaa0000aa990000a999000099990000f8
:1008e4008808000000000000000000001011000053
:1008f40001000000000000000000000011110000d1
:100904001020000007000000210200001021000058
:1009140021220000121100001111000041a8000062
:10092400793400001111000022110000111100009f
:100934001101000010000000110000000010000070
:10094400000000002411000000000000100000005e
:10095400000000000010000011620000edee000035
:10096400deed0000eeee0000eeee0000ee490000c9
:100974004533000033870000a8aa0000babb00007a
:10098400dded0000eeee0000eebc0000abaa0000be
:10099400aaaa0000aa9900008899000099080000fa
:1009a4000000000000000000000000000000000043
:1009b40000000000001000001111000011110000df
:1009c400010000002101000010110000212200009c
:1009d400122100001212000032a800006945000034
:1009e400111100002111000011110000110100007b
:1009f4001011000011000000100000000030000081
:100a04003811000000000000000100000000000098
:100a14000011000011520000eeee0000deed0000b7
:100a2400eeee0000eeee0000ae460000433400009f
:100a34003364000097a90000aabb0000dded0000ac
:100a4400eeee0000decd0000abaa0000aaaa000072
:100a54009a880000889900009909000000000000ad
:100a64000000000000000000000000000000000082
:100a740000100000111100001111000043000000db
:100a8400110100000010000011010000111100000c
:100a94002211000041a600008a3500000110000068
:100aa40011110000111100001111000010110000bb
:100ab4001100000000000000006100002700000099
:100ac40000000000001000000000000010100000f2
:100ad40011a20000eeee0000dded0000eeee0000dd
:100ae400eeee00007c340000453400003343000087
:100af40075990000aabb0000dded0000eeee0000d9
:100b0400decd0000abaa0000aaaa00009a8800006b
:100b1400889900009909000000000000000000000e
:100b240000000000000000000000000000100000b1
:100b34001111000011210000a903000010000000a1
:100b4400110000000000000011110000111100004c
:100b540032a600009a2600000110000012110000c5
:100b6400111100001111000011110000110000000a
:100b740000000000007300002600000000000000d8
:100b8400000000000000000000000000114100000f
:100b9400eeee0000dded0000eeee0000eebd000024
:100ba40048330000753300002342000076a800009b
:100bb400aabb0000dded0000eeee0000decd00007b
:100bc400abaa0000aaaa00009a8800008898000036
:100bd400990a00000000000000000000000000006e
:100be40000000000000100000010000011100000cf
:100bf400101100004100000000100000110100006d
:100c040011110000111100001121000042a6000082
:100c1400ab26000011110000111100001211000098
:100c2400110000001111000011000000000000007c
:100c34000063000004000000000000000000000049
:100c4400000000001100000011310000ecee000073
:100c5400dded0000eeee0000de9a000025520000fb
:100c6400635300002232000065a80000aaba000005
:100c7400dded0000eeee0000eecd0000abaa0000ba
:100c8400bbab0000aa89000088980000990a000004
:100c9400000000000000000000100000111100001e
:100ca40000000000001100001111000011010000fb
:100cb40020100000010000001101000010110000cc
:100cc400111100001111000083db0000ae4500008b
:100cd4003423000011110000121100001111000052
:100ce400111100001100000000000000006300006a
:100cf40004000000000000000000000000000000ec
:100d04001112000010410000edde0000cbed0000e8
:100d1400eeee0000be7900002422000044430000ef
:100d24003521000084990000aaba0000ddee00001d
:100d3400eeee0000eedd0000acba0000bbbb00002c
:100d4400aa9a0000888800009909000000000000a9
:100d5400000000000011000011110000110000004b
:100d640000110000111100001111000010400000da
:100d74001600000001000000102100001111000005
:100d840011220000c7ed0000bdaa00007966000032
:100d940034110000121100001111000000000000c5
:100da40011000000000000000062000004100000b8
:100db40000010000000000000000000020110000fd
:100dc40001110000d5dd0000ccee0000eeee0000c5
:100dd4009d5600002411000053340000121200003c
:100de40094990000aaba0000ddee0000eeee0000c7
:100df400eede0000bcbb0000bbbb0000aa9a0000f2
:100e0400888800008809000000000000000000003d
:100e1400001000001111000000000000001100008b
:100e24001111000011110000011000000100000068
:100e34000010000000110000113100004594000072
:100e4400eecd0000a9a90000aa89000066350000c3
:100e5400111000001100000000000000110000004b
:100e640000000000008400000410000011010000d4
:100e7400000000000000000001110000011100004a
:100e8400c5cd0000dbee0000eede0000693400009a
:100e94002211000032330000122100009399000057
:100ea400a9ba0000ddee0000eeee0000eede000068
:100eb400bbcc0000dcac0000aaaa000088880000bb
:100ec400880800000000000000000000000000008e
:100ed40010110000000000000011000000100000cc
:100ee40011110000000100003201000000010000a7
:100ef4001011000031b700009ced0000dd8a0000f5
:100f04008898000099790000668800004511000067
:100f14001111000011110000110000000000000078
:100f24001094000003000000000000000000000016
:100f340000000000000000001111000083ac00005c
:100f4400ebee0000ee9e00004424000011110000ae
:100f5400312300003311000094990000a9ba000065
:100f6400edee0000eeee0000eede0000bbdd000062
:100f7400ddab0000aa9a0000898800008808000000
:100f8400000000000000000000000000001100004c
:100f94000000000000110000011000000111000019
:100fa40011010000653200006515000022260000d2
:100fb400a5ee0000eede0000aa990000888800007b
:100fc4007888000077760000aa580000131100000a
:100fd4001132000021000000000000000095000014
:100fe40003000000000000000000000000000000fa
:100ff400000000001111000061cb0000edee0000c4
:10100400ee5b0000331200001111000011220000f9
:101014003221000094890000a9ba0000ddee00002e
:10102400eeee0000eede0000cbdd0000ddab0000e4
:10103400aaaa000099980000890700000010000087
:10104400111100000000000000000000000000007a
:1010540000110000111100001132000033120000d1
:1010640052a700009d54000079990000ecee0000a6
:10107400eeee0000bcab00009a99000088770000f7
:1010840088770000a8ab000069240000113200003a
:1010940011010000001100000054000001000000d4
:1010a400000000000000000000000000000000003c
:1010b4001111000071db0000eeee0000ee360000be
:1010c4002211000011110000110100002111000083
:1010d40083890000a9ba0000dcee0000eeee0000f7
:1010e400eede0000dcdd0000ddab0000aaaa00009b
:1010f40099990000890700000010000011110000f8
:1011040011010000000000000000000000110000b8
:1011140011210000333300003312000031a7000016
:1011240059c90000ceec0000eeed0000eeee000028
:10113400eece0000bcab00009a7900008789000065
:1011440099a90000aaaa0000468600001410000015
:101154000100000011220000000000000000000057
:101164000000000000000000111000001111000038
:1011740071ee0000eeee00009e230000121100004c
:10118400111100001001000001110000518800003d
:10119400a9ba0000dbee0000eeee0000eede000077
:1011a400dddd0000ddbb0000aaaa00009989000073
:1011b4008807000000100000111100001111000048
:1011c40001000000000000000010000021220000c7
:1011d40033320000332300001182000083ec00004e
:1011e400eeee0000eeee0000eeee0000eeee00008b
:1011f400eedd0000cdac000089a90000aaaa000021
:1012040098db00009cb900001910000011100000c8
:1012140012120000000000000000000000000000a6
:1012240000000000101100001121000081ef0000f7
:10123400eeee00005b22000011110000111100000d
:10124400111100000110000031770000a9aa00006c
:10125400dbee0000eeee0000eede0000dddd00005f
:10126400cdbb0000aaaa00009a89000088070000ec
:101274000000000011010000111100001101000024
:1012840000000000001000002122000033330000a1
:10129400332300002153000095ca0000dcee000057
:1012a400eeee0000eeee0000eeee0000eeee0000ca
:1012b400eede0000cdaa0000aaaa00007997000083
:1012c400cced00009e23000000420000020100005b
:1012d400000000000000000000000000000000000a
:1012e400101200001112000051eb0000ee9e0000ed
:1012f4004932000011110000111100001111000009
:101304001110000021960000a9aa0000dbee0000e5
:10131400eeee0000eeee0000eede0000bdbb0000cd
:10132400bbaa00009a8800008806000000000000a4
:101334001101000010110000111100000110000043
:101344001111000022120000233300003323000097
:101354002133000054980000a956000076ba00001a
:10136400dddd0000ddee0000eeee0000eeee00003c
:10137400eeab000099aa00009a67000098da00001a
:10138400eebd000004210000120100000000000076
:101394000000000000000000000000000012000037
:1013a4001111000041ec0000de6b00005933000015
:1013b40011110000111100001111000011110000a1
:1013c4001195000099a90000daee0000eeee00008d
:1013d400eeee0000eede0000bdbb0000bbaa000084
:1013e400aa89000088070000000100000000000036
:1013f4001011000011110000121100001121000051
:1014040013210000323200001221000011110000eb
:1014140033640000685500004554000097a900009b
:10142400aadb0000edee0000eeee0000eeab0000e3
:1014340099970000aa89000068880000eece000099
:101444005312000012010000000000000000000020
:101454000000000000000000001100001113000053
:1014640072ee0000ad6700007a2200002112000035
:10147400221100001111000001110000116100008f
:101484008aa80000daee0000eeee0000eeee0000a6
:10149400eede0000bdbb0000bbaa0000aa8900006c
:1014a4008806000000000000001000000111000088
:1014b400101100001111000011110000313300005f
:1014c4002243000043330000221100002154000095
:1014d400456600005565000095aa0000aabb0000ff
:1014e400edee0000eeee0000eebd0000aa9a000052
:1014f400897800008877000096bb00009a100000ed
:1015040022010000000000000000000000000000b4
:1015140000000000001100001111000071bf000064
:10152400898700005a2100002221000011310000a7
:101534001111000011110000112100007698000023
:10154400baee0000eeee0000eeee0000eede00006b
:10155400bdbb0000bbaa0000aa89000088070000e8
:101564000000000010110000111100001111000012
:10157400111100001111000021330000323300006a
:1015840032320000121100001143000045540000e3
:101594006587000065980000aaba0000dbed000032
:1015a400eeee0000eeee0000deab0000aa790000d3
:1015b4005555000066b600008d10000002000000c2
:1015c4000000000000000000000000000000000017
:1015d4000010000010140000a54a000098980000b4
:1015e4003943000012220000111000001111000004
:1015f400111000001111000054970000baed000012
:10160400eeee0000eeee0000eedd0000dddd000099
:10161400bbaa0000aa99000088070000000000008f
:101624000011000011110000101100001111000040
:1016340000000000212200002232000033230000b9
:1016440011210000124300004354000054550000cf
:101654006586000078990000aadc0000edee000029
:10166400edee0000eede0000bc8a00003522000032
:1016740011210000560000000200000000000000dc
:101684000000000000000000000000000010000046
:1016940011110000833600009897000025430000d4
:1016a400222200002200000010010000111200009c
:1016b4001111000064a70000daed0000eeee000056
:1016c400eeee0000eedd0000dddd0000bbab00004f
:1016d400aa9a000099070000000000001011000001
:1016e40011110000011000001101000000000000b1
:1016f4001022000022220000222200001112000009
:1017040032330000344300004334000043550000ea
:1017140067760000a9ca0000cded0000eecc000001
:10172400bb9a0000894500004444000023220000c5
:101734001121000013000000000000000000000060
:101744000000000000000000000000001111000073
:1017540062550000a9970000153200002422000001
:10176400121000001101000000110000111100000e
:1017740062a80000baed0000eeee0000eeee0000fc
:10178400eedd0000dddd0000bbbb0000aaaa000006
:101794008908000000000000001100001111000081
:1017a40011110000010000000000000010210000e1
:1017b40022330000221200001121000043430000e4
:1017c40044350000445500004444000054530000d4
:1017d4008798000099aa0000aa570000641100002d
:1017e4002112000032430000444400002312000090
:1017f40001000000000000000000000000000000e4
:1018040000000000000000000111000095750000b8
:10181400aba9000023310000232200005412000071
:1018240010010000112300002211000052a8000042
:10183400badd0000dded0000eeee0000eedd00009c
:10184400dddd0000bdbb0000baab0000990900005b
:101854000000000000000000010000001011000062
:10186400001000000100000010110000221100000f
:101874001112000001110000313300003344000054
:101884003323000023220000212200002211000043
:101894008478000045230000111100005323000048
:1018a40033430000444400003413000000000000ef
:1018b4000000000000000000000000000000000024
:1018c400000000000011000084780000aa8a0000d3
:1018d40012210000232100005412000032150000e0
:1018e400113600003222000040a80000badc0000db
:1018f400dded0000eeee0000eedd0000dddd0000b9
:10190400cdbd0000bbab0000aa0b0000000000002e
:1019140000100000010000000001000000100000a1
:1019240001000000002000001212000031650000d8
:1019340025110000213300002222000023110000a1
:101944002111000011210000112100006545000053
:101954003312000032420000a83700003233000086
:101964003334000044340000010000000000000093
:101974000000000000000000000000000000000063
:101984000010000041970000ab9a00001311000002
:10199400223300003201000045370000003300000c
:1019a4002111000011a50000bacb0000dded0000fc
:1019b400eeee0000eedd0000dddd0000ddcd000018
:1019c400cbac0000ca0d00001101000001110000a1
:1019d40011010000000000000010000011000000d0
:1019e400001000001133000084b900005a120000f6
:1019f400212200001111000011110000111100003a
:101a04001100000011310000341200001221000006
:101a140022740000aa2700001121000033330000c3
:101a24003333000023110000000000000000000018
:101a34000000000000000000000000000020000082
:101a440053860000ab6a000013110000213300002c
:101a54004401000062220000011000001111000086
:101a640011920000aabb0000cced0000eeee0000d5
:101a7400dedd0000dddc0000ddcd0000dccd00009b
:101a8400dc0e000010110000111100001101000013
:101a9400000000000000000011010000011000001f
:101aa40011530000b9dd0000be48000023110000fe
:101ab40011110000111100001111000011000000ab
:101ac400112200002212000022410000446500009f
:101ad40099240000112100007435000044750000b1
:101ae4008738000000000000000000000000000033
:101af4000000000000000000113000008898000081
:101b04009a79000012010000203400002300000034
:101b1400103100002100000011110000119100009b
:101b2400aaaa0000bbdd0000eeee0000dddd00002f
:101b3400cdcb0000dddd0000eeee0000ee0e000077
:101b4400001100001111000011110000000000003c
:101b5400001000001111000011110000109300008a
:101b6400ebee0000eecd0000141100001110000097
:101b740011110000111100001121000011000000da
:101b840010110000114200004465000058230000b9
:101b940011740000dbab0000aadb0000bd6b000089
:101ba400121100000000000000000000000000000e
:101bb4001011000011300000aa870000999600005f
:101bc4001201000010430000123100002231000015
:101bd400211000001111000011410000aaaa000008
:101be400cadd0000eeee0000dddd0000bdcb00002c
:101bf400dded0000eeee0000ee0e0000001100002e
:101c04001212000001110000001100001100000078
:101c1400112200001100000020c70000eeee0000b9
:101c2400eeae0000121100000100000010100000d0
:101c3400112100001101000010000000111100002a
:101c440011110000225400003433000042c8000087
:101c5400eeee0000eede0000ac9a00005813000027
:101c6400111100000000000000000000001100003d
:101c74001130000068850000aa3500002201000030
:101c84000031000012310000241100001011000086
:101c94001100000011010000a8aa0000baed000024
:101ca400dded0000eede0000bddb0000edee000027
:101cb400eeee0000ee0e00001110000011220000f4
:101cc4001111000021110000111100001111000078
:101cd4001111000052c90000eeee0000ee7c00007d
:101ce4001211000011110000110000001111000078
:101cf4001111000012110000111100001111000057
:101d0400222200002222000043a90000cccc0000c3
:101d1400bbab0000786600005614000021120000de
:101d2400110000000000000010010000107300000a
:101d3400679700008a1600002101000000200000bf
:101d44002211000027010000000000001011000013
:101d540010110000a6a90000aadd0000bcdd0000ef
:101d6400eeee0000cedc0000eeee0000eeee000031
:101d7400ee0e0000111100001121000012110000ec
:101d840013110000002100001111000011110000c6
:101d940053a90000eeee0000ee390000120000002e
:101da40012110000011000001111000011110000b7
:101db4001111000011110000111100002212000085
:101dc400111100003175000089770000773500009b
:101dd4002332000012110000111200001100000053
:101de40010320000111100002087000066880000f6
:101df4007a250000211200000110000022120000c8
:101e04002301000000100000100000001011000069
:101e1400a1a90000badd0000abba0000edee00009d
:101e2400eeee0000eeee0000eeee0000ee0e00001e
:101e340010110000111100002132000012000000f6
:101e440000110000221200001211000042a800003c
:101e5400ecee0000ce25000003100000110100008c
:101e64000100000011110000110100001111000017
:101e740011110000011000001111000011000000f8
:101e8400323300003333000022210000111100001e
:101e94001111000011310000111100001143000064
:101ea40047010000518800004544000054460000ea
:101eb4001125000001100000121100003100000083
:101ec40000000000000000000111000081a90000d2
:101ed400dabd0000aaaa0000dbed0000eeee00006f
:101ee400eeee0000eeee0000ee0e00000011000029
:101ef4001111000022340000110000001021000024
:101f0400432300001311000021860000caee0000e4
:101f14009e44000025110000011100000100000092
:101f24000000000011000000101100001111000059
:101f34000000000000100000001000002332000028
:101f4400323300002133000011110000111200008f
:101f5400233100001221000021340000243100004c
:101f64008566000094770000996600002412000042
:101f7400111000001111000000000000000000001a
:101f8400101200000110000011a90000dbab0000da
:101f9400aaaa0000badb0000eede0000ddee0000bd
:101fa400eeee0000ee0e0000111100000100000032
:101fb4003023000011010000102100003412000041
:101fc400221100001163000088db0000becb00007a
:101fd4005712000011010000000000000011000071
:101fe40011000000000000001201000000000000c9
:101ff4000000000000200000321300003324000021
:102004003145000045430000144300004421000012
:1020140011110000214300002582000089660000a0
:102024003254000055660000352100001201000002
:102034002111000002000000000000001033000025
:102044000210000011a50000ddab0000aaaa0000e8
:10205400aabb0000dbdd0000ddee0000eeee0000b8
:10206400ee0e00000100000010000000331100001b
:1020740001000000102100003312000001110000d3
:102084001231000045640000daee0000ee17000093
:102094001101000000000000001100001100000008
:1020a40010110000010000000010000011110000d8
:1020b40011320000231300003324000011430000f8
