:020000040000fa
:080000000002040000000000f2
:020000040000fa
:10000800a6060000a6060000a6060000a606000038
:10001800a6060000a6060000a6060000a606000028
:10002800a6060000a6060000a6060000a606000018
:10003800a6060000a6060000a6060000a606000008
:10004800a6060000a6060000a6060000a6060000f8
:10005800a6060000a6060000a6060000a6060000e8
:10006800a6060000a6060000a6060000a6060000d8
:10007800a6060000a6060000a6060000a6060000c8
:10008800a6060000a6060000a6060000e80200007a
:10009800a6060000a6060000a6060000a6060000a8
:1000a800a6060000a6060000a6060000a606000098
:1000b800a6060000a6060000a6060000a606000088
:1000c800a6060000a6060000a6060000a606000078
:1000d800a6060000a6060000a6060000a606000068
:1000e800a6060000a6060000a6060000a606000058
:1000f800a6060000a6060000a6060000a606000048
:10010800a6060000a6060000a6060000a606000037
:10011800a6060000a6060000a6060000a606000027
:10012800a6060000a6060000a6060000a606000017
:10013800a6060000a6060000a6060000a606000007
:10014800a6060000a6060000a6060000a6060000f7
:10015800a6060000a6060000a6060000a6060000e7
:10016800a6060000a6060000a6060000a6060000d7
:10017800a6060000a6060000a6060000a6060000c7
:10018800a6060000a6060000a6060000a6060000b7
:10019800a6060000a6060000a6060000a6060000a7
:1001a800a6060000a6060000a6060000a606000097
:1001b800ca810000a6060000a6060000a6060000e8
:1001c800a6060000a6060000a6060000a606000077
:1001d800a6060000a6060000a6060000a606000067
:1001e800a6060000a6060000a6060000a606000057
:0801f800a6060000a6060000a7
:020000040000fa
:10020800a6060000a6060000a6060000a606000036
:10021800a6060000a6060000a6060000a606000026
:10022800a6060000a6060000a6060000a606000016
:10023800a6060000a6060000a6060000a606000006
:10024800a6060000a6060000a6060000a6060000f6
:10025800a6060000a6060000a6060000a6060000e6
:10026800a6060000a6060000a6060000a6060000d6
:10027800a6060000a6060000a6060000a6060000c6
:10028800a6060000a6060000a6060000e802000078
:10029800a6060000a6060000a6060000a6060000a6
:1002a800a6060000a6060000a6060000a606000096
:1002b800a6060000a6060000a6060000a606000086
:1002c800a6060000a6060000a6060000a606000076
:1002d800a6060000a6060000a6060000a606000066
:1002e800a6060000a6060000a6060000a606000056
:1002f800a6060000a6060000a6060000a606000046
:10030800a6060000a6060000a6060000a606000035
:10031800a6060000a6060000a6060000a606000025
:10032800a6060000a6060000a6060000a606000015
:10033800a6060000a6060000a6060000a606000005
:10034800a6060000a6060000a6060000a6060000f5
:10035800a6060000a6060000a6060000a6060000e5
:10036800a6060000a6060000a6060000a6060000d5
:10037800a6060000a6060000a6060000a6060000c5
:10038800a6060000a6060000a6060000a6060000b5
:10039800a6060000a6060000a6060000a6060000a5
:1003a800a6060000a6060000a6060000a606000095
:1003b800ca810000a6060000a6060000a6060000e6
:1003c800a6060000a6060000a6060000a606000075
:1003d800a6060000a6060000a6060000a606000065
:1003e800a6060000a6060000a6060000a606000055
:0803f800a6060000a6060000a5
:020000040000fa
:100400004f1021000eaf24000e01880000000000f4
:100410000c00070000292b00010020000f0007003e
:10042000000020000000e000020032000000020096
:100430000000000096030200000000000040da0007
:100440000000fe0020c720000000e0000200320093
:10045000002020009001880000000600a102880012
:10046000800078000000eb001a003700e2804000b6
:1004700054a0b4009101ba00e280400054a0b4003e
:100480009102ba00e280400054a0b4000002eb00e8
:10049000472bde00f507b200a6018800602ce100c2
:1004a00008003a000049eb000201e80002003900b0
:1004b0003420ec0002f0a0008301e900f9ff3e00c7
:1004c000040037006128e100010032000082eb00e7
:1004d000040007001101ba000200e000e3ff3a0047
:1004e0000000060004d0a300e20f49001c00390000
:1004f000810278003549ba000201e80002003900a3
:100500003420ec0002f0a0008301e9000f0032006b
:100510002549ba000201e800020039003420ec004d
:1005200002f0a0008301e900080032000400e000ae
:100530000600320015c9ba000201e80002003900c5
:100540003420ec0002f0a0008301e9008180e80083
:1005500054a0b4000300e000e2ff3a0000000600ef
:100560009102ba00055978008301e900f7ff3200d3
:10057000c82ade00055978008301e900f3ff320044
:100580000400e000f1ff320011d9ba00eeff37009d
:10059000e0a40400000000006ca4040000000000bf
:1005a0004aa404000000000050af04000000000056
:1005b0001caf040000000000a2ab0400000000001b
:1005c00002a904000000000004aa040000000000ca
:1005d00000a0fe003600f800849fbe00869fbe008b
:1005e0003200f80004202000940188005049800067
:1005f0006149800061004000e08048005049880067
:10060000614988001421ef008760a900069f02005d
:10061000000000003200f9004f03be004f02be0090
:100620003600f9000080fe00004006001421ef00b3
:10063000e0392000d00888008760a9009760a800f2
:100640001fe1a800000006000000eb000027880062
:10065000102788002027880030278800402788003e
:100660005027880060278800e224a900e204a9003e
:10067000c5c2a800c1c2a900d902a900c822a90008
:10068000c802a800103a8000f00bb20061042000fc
:100690007205200023742000814978008249780087
:1006a000804978001036800003fc2f0003006000b2
:1006b000b000b3001036880004368000f00f2c0024
:1006c0000000620004a020000400700000368800d2
:1006d0008001fd00ac26b6008001fd00103a8000cc
:1006e0000060a000237420008149780082497800ce
:1006f0008049780000000600ea980200000000002f
:1007000040c0b300de83020000000000b29a840003
:100710008000eb00203529002ab302000000000011
:100720009e83020000000000000006000600fa00a0
:10073000f1ff0700c4ff0700405429007eab020010
:1007400000000000b9ff07008001eb0022ba2a0078
:1007500021902a0040a02a00d8ae0200000000002c
:1007600021398000f0cf2f00008060000080a000c1
:1007700020398800208620000048eb00ce6d020062
:1007800000000000ca9802000000000080498800b4
:10079000f1c0b300214098003140980092990200c6
:1007a00000000000e00f5000fcff320066805700a0
:1007b00006ac02000000000066805700549a020058
:1007c00000000000f5ff3700e6874700889fbe0065
:1007d0008a9fbe008c9fbe008e1f7800304980002b
:1007e00001002000e50f5000e08f580029013e0075
:1007f0000060010005003700260137009300370034
:10080000240137000c0137001e013700f498020064
:1008100000000000a02c29006e7002000000000003
:10082000f0c0b3002186200080487800a02c290069
:10083000967002000000000080047800a12c2900be
:1008400000532900567202000000000048032000f7
:1008500089005400c288de00f21d20000000510013
:100860000080d10002532900a8910200000000007e
:1008700089498000a02c2900967002000000000029
:1008800000017800a02c290082bf9f009670020012
:100890000000000000027800a02c2900f4b79f009f
:1008a000967002000000000000077800a02c2900cc
:1008b000967002000000000080067800a02c29003d
:1008c000967002000000000080057800a02c29002e
:1008d000967002000000000000067800a02c29009d
:1008e000967002000000000000057800a02c29008e
:1008f0009670020000000000800078007fb2970030
:10090000b40db0000fb99700020154004291de000f
:10091000020242000e0054004280de00000242004b
:100920008d015400c299de00c50820008c8242006f
:100930000b0154004291de00028142000a00540083
:100940004280de000001410081005400c288de00c8
:1009500001014100891f7800801feb00472e29000c
:10096000062024008002eb000302420073112000e5
:10097000710c2000100f200094a70200000000005e
:10098000a02c2900967002000000000000067800ec
:10099000a02c29009670020000000000800678005c
:1009a000a02c29009670020000000000800578004d
:1009b000a02c2900967002000000000000057800bd
:1009c000a02c29009670020000000000800478002e
:1009d000a02c290096700200000000008000780022
:1009e000c20820000d0141000c02540042a2de00aa
:1009f000040241008b015400c299de000a01540038
:100a00004291de0081005400c288de0001014100f5
:100a100009014100801feb00a72f290016c0b30079
:100a20000500240003024200d31420002109200005
:100a3000100b2000dcb0020000000000500020007d
:100a4000304988001000200078003700f498020038
:100a50000000000089498000a02c29009670020047
:100a60000000000000017800a02c290082bf9f0038
:100a7000967002000000000000047800a02c2900fd
:100a8000967002000000000000077800a02c2900ea
:100a9000967002000000000080067800a02c29005b
:100aa000967002000000000080057800a02c29004c
:100ab000967002000000000000067800a02c2900bb
:100ac000967002000000000000057800a02c2900ac
:100ad000967002000000000080007800b40d200035
:100ae00008024200480320000fb997000201540099
:100af0004291de00020242000e0054004280de00fd
:100b0000000242008d015400c299de00c508200099
:100b10008c8242000b0154004291de0002814200af
:100b20000a0054004280de000001410081005400b0
:100b3000c288de0001014100891f7800801feb00a0
:100b400067322900062024008002eb0003024200e5
:100b500073112000710c2000200f200094a70200c8
:100b600000000000a02c2900967002000000000088
:100b700000067800a02c29009670020000000000fa
:100b800080067800a02c290096700200000000006a
:100b900080057800a02c290096700200000000005b
:100ba00000057800a02c29009670020000000000cb
:100bb00080047800a02c290096700200000000003c
:100bc00080007800c20820000d0141000c02540092
:100bd00042a2de00040241008b015400c299de00f3
:100be0000a0154004291de0081005400c288de00f8
:100bf0000101410009014100801feb00073129007c
:100c000016c0b3000500240003024200d3142000e4
:100c100021092000200b2000dcb0020000000000b1
:100c200050002000304988003000200040498800f2
:100c3000e68757001700370021398000f0cf2f00da
:100c4000008060000080a0002039880041498000b9
:100c5000e08f500003003a00b29a8400203529004a
:100c600005003700e28f500008003a00f29b840034
:100c70008000eb00a03729001eb302000000000036
:100c800002003700f0cf2f002427b6004049800033
:100c900030498800100020004f0778004f06be0042
:100ca0004f05be004f04be006f00b10000000600fb
:100cb00032498000e10f510003003200e30f510080
:100cc00021003a0010003700120f2000910f110090
:100cd0001d003a00e80f500005003a0040002000d7
:100ce0003049880020002000404988000400370077
:100cf000e60f500002003a00e02c290011003700f6
:100d0000402e29000f003700220f2000910f110004
:100d10000d003a00e80f500005003a0040002000a6
:100d2000304988000000eb0040498800040037008b
:100d3000e60f500002003a00c033290001003700de
:100d40006032290090109800100005000040da0081
:100d50000000fe00839f68000100e00002003d00eb
:100d600060001000e08018000300e00002003d0079
:100d700060011100e0811900050007004f00e0004c
:100d800002003b0060001000e08018000000060038
:100d90006022b800060220000000d0008180d2004e
:100da0000482d2008582d2000000a000020252001c
:100db00083825a00030031000202420083824a000b
:100dc0000000a1000603e900f3ff3a00000006005e
:100dd000020ab900001bb9000200b80081004200fd
:100de0008100430000000600e8874700889fbe009e
:100df0008a9fbe008c9fbe008e1f7800618d2000f0
:100e0000b2468000e00f51000b003a0064814000c0
:100e1000b246880002478800a1009800f146880089
:100e2000214190000204a000a2409800614190007e
:100e30000204a000e2409800670440004244de0043
:100e40004244dd00f04680004e932000491021000e
:100e50008e84540026002000801f780011000900b5
:100e60008604d800000378004f0078008880e800ee
:100e7000818240008001eb006146b80074102100bf
:100e80000e02520008024200010037000a007800fa
:100e9000a0409000e1806000020032000a003700ac
:100ea0001208780010017800a2409000e1806000f4
:100eb000fbff320088004000810f51000200390022
:100ec000e00f540049003d0010057800800f5500e8
:100ed000eeff3e008e0f550003003900618d2000ab
:100ee000810f5500e9ff390001478000810f500054
:100ef0004f003a00608d2000800f55004c003a00f2
:100f00008301e800e18f5100e0ff3600860f5400b6
:100f100002003600890f54000d0039006148b90005
:100f2000b2ff2f0003002000000051008180590013
:100f3000800f5600818f5e0007003d001100090000
:100f40000982d8000980b9008005780003003700c5
:100f50008505780001003700880578000b007800cf
:100f600084bf9f00e5b79f00f6b79f00730007009e
:100f70000fba9700efb297007fb39700e10f4000e0
:100f80002b00320001478000800878000147800074
:100f9000e481400021419000830f500002003200a4
:100fa0000204a000010037000204a100a240980042
:100fb000e48555008b0540000b0878000b4788003e
:100fc000618d2000810d780002478000a2409000d2
:100fd0000104a00021419800a04090000104a1005c
:100fe000214098008001eb00a8ff3700f1468800ff
:100ff000810f5100070036001101be001247880022
:101000002347880090087800f24680008000eb00bb
:1010100021419800f346800003087800a04090002a
:101020000104a00021409800640040000100370046
:101030000000eb004f0778004f06be004f05be00d2
:101040004f04be008f00b100000006006400500095
:10105000f0468800a04090000104a10021409800c3
:1010600000000600889fbe008a9fbe0080047800b2
:1010700001047800648154009205780069f99700b2
:10108000610161000200320009007800efff0700f3
:101090000800780054ff070000047800e00f5400b7
:1010a0001b003200890f54001900320068bd970000
:1010b0000805550042d5de00098055004280de005b
:1010c0000a017800800f5500010036000001780009
:1010d0004211dd000800be0011000700890f540016
:1010e0000b0031004255dd000a054400890f550010
:1010f0000700360089045500c2ccde00c24cdd007a
:10110000890444001047800021478000808cbe0085
:10111000080078004f05be004f04be000000060026
:101120008001780002003700b15978000201e9001f
:10113000e00f5100fcff3a0000000600889fbe004f
:101140008a1f78000005780099498000e08f5400dc
:1011500005003a00090078000f0007000084eb004a
:10116000890f50000800350098498000e00f5500b5
:10117000050032000a00440007000700e00f50009d
:1011800001003d000084eb00080078004f05780066
:101190004f04be0000000600e00f500004003a00bb
:1011a00041932000914988008000780006003700b4
:1011b0008080eb0042102100820f500002003e00b0
:1011c000904988008000eb000100780000000600d4
:020000040000fa
:1011d00000000000200000007e0000001100000060
:1011e00004840000010000000495000001000000dc
:1011f00007a600000100000009b700000100000080
:1012000008d90000010000000cea00000100000005
:101210000a0c000002000000042e00000200000082
:10122000053f000002000000055000000200000021
:1012300008610000020000000872000002000000c7
:10124000048300000200000005940000020000007a
:1012500004a500000200000006b600000200000025
:1012600008c700000200000008d8000002000000cb
:1012700008e900000200000008fa00000200000077
:10128000080b000003000000081c00000300000021
:10129000082d000003000000083e000003000000cd
:1012a000084f000003000000086000000300000079
:1012b000047100000300000004820000030000002d
:1012c000089300000300000008a4000003000000d1
:1012d00008b500000300000006c60000030000007f
:1012e0000cd700000300000009f900000300000013
:1012f000091b000004000000093d0000040000007c
:101300000a5f0000040000000881000004000000e3
:1013100008920000040000000aa30000040000007e
:101320000ac500000400000006e7000004000000f9
:1013300005f8000004000000090900000500000095
:10134000082b0000050000000d3c00000500000017
:101350000a5e0000050000000b8000000500000090
:1013600009a20000050000000bc4000005000000f9
:1013700009e6000005000000070800000600000064
:1013800008190000060000000a2a000006000000fc
:10139000094c0000060000000d6e00000600000071
:1013a000099000000600000008b2000006000000de
:1013b00007c300000600000005d40000060000007e
:1013c00006e500000600000005f60000060000002b
:1013d00007070000070000000618000007000000d3
:1013e0000829000007000000083a0000070000007c
:1013f000094b000007000000076d00000700000017
:10140000097e00000700000008a00000070000009f
:1014100005b100000700000008c20000070000003e
:1014200009d300000700000004f5000007000000d9
:101430000406000008000000081700000800000073
:1014400004280000080000000e3900000800000019
:10145000095b000008000000097d00000800000092
:10146000099f00000800000009c1000008000000fa
:1014700006e300000800000007f400000800000078
:10148000070500000900000009160000090000001f
:1014900008380000090000000b49000009000000a6
:1014a000086b000009000000087c00000900000033
:1014b000078d000009000000059e000009000000e3
:1014c00008af00000900000005c00000090000008e
:1014d00008d100000900000000000000000000002a
:1014e00000000000000000000000000000000000fc
:1014f00000000000000000000000000000000000ec
:1015000006060000060600000606000006000000b1
:1015100006060000000000000000000000000000bf
:1015200000360000363600003600000000000000e3
:1015300000000000000000000000000000000000ab
:1015400000000000000000000078000000680000bb
:1015500000ff000000ff0000002c0000003400002d
:1015600000ff000000ff000000160000001e000049
:10157000000000000000000000000000000000006b
:101580000000000000080000083e00003f0b0000c3
:101590001f7c0000687f00003f080000080000007a
:1015a000000000000000000000000000000000003b
:1015b0000e0100009b000000db0000005b0000004b
:1015c000fb030000ee060000d0060000d806000075
:1015d000c8060000840300000000000000000000b6
:1015e00000000000000000000000000000000000fb
:1015f00000000000380000007c0000006c000000cb
:101600006c000000380000003c030000f601000000
:10161000e6010000fe010000fc03000000000000e5
:1016200000000000000000000000000000000000ba
:101630000006000006060000060000000000000092
:10164000000000000000000000000000000000009a
:1016500000000000180c00000c0600000606000048
:1016600006060000060c00000c1800000000000038
:101670000000000000030000060400000c0c000045
:101680000c0c00000c0c000004060000030000001d
:101690000000000000180000187e00007e3c0000e2
:1016a0003c240000000000000000000000000000da
:1016b00000000000000000000000000018180000fa
:1016c000187f00007f1800001800000000000000d4
:1016d000000000000000000000000000000000000a
:1016e00000000000000000000000000006020000f2
:1016f00003000000000000000000000000000000e7
:1017000000000000000000000f0f000000000000bb
:1017100000000000000000000000000000000000c9
:1017200000000000000000000000000000000000b9
:10173000060600000000000000000000000000009d
:101740000030000030180000180c00000c060000eb
:10175000060300000300000000000000000000007d
:10176000000000001c3e0000636300006363000093
:10177000636300003e1c0000000000000000000049
:1017800000000000001800001e1f00001a180000d2
:1017900018180000181800001800000000000000d1
:1017a00000000000000000003e7f000062600000ba
:1017b000303800001c0600007f7f000000000000a1
:1017c0000000000000000000003e00007f600000fc
:1017d000601c000078600000607f00001f000000b7
:1017e0000000000000000000000000003038000091
:1017f0003c3c0000363300007f7f000030300000aa
:10180000000000000000000000000000003e00009a
:101810003e060000063e00007e600000607f000083
:101820001f00000000000000000000000000000099
:101830003c3e0000060300003f7f000063630000a1
:101840007e3c0000000000000000000000000000de
:10185000007f00007f3000003038000018180000c2
:101860000c0c00000600000000000000000000005a
:10187000000000003e7f0000637700003e3e000055
:10188000736300007f3e00000000000000000000c5
:1018900000000000001e00003f630000637f0000a6
:1018a0007e600000303e00001e00000000000000ce
:1018b000000000000000000000000000060600001c
:1018c000000000000000000006060000000000000c
:1018d0000000000000000000000000000006000002
:1018e00006000000000000000006000002030000e7
:1018f00000000000000000000000000000400000a8
:10190000701c0000061c0000704000000000000079
:1019100000000000000000000000000000000000c7
:10192000000000007e7e0000007e00007e000000bf
:1019300000000000000000000000000000000000a7
:10194000000200000e380000603800000e020000a7
:101950000000000000000000000000000000000087
:10196000000e00001f180000180c00000606000002
:10197000000600000600000000000000000000005b
:10198000000000000000000000f00000011800004e
:10199000030c000006e6000006b6000006b60000d4
:1019a00006f6000006e6000003040000001c00002c
:1019b00001f0000001000000000000000000000035
:1019c00000000000000000000000000000380000df
:1019d00000280000006c0000006c0000006c00009b
:1019e00000c6000000fe000000fe000000830000b2
:1019f0000183000001000000000000000000000062
:101a000000000000000000000000000000000000d6
:101a1000007e000000fe000000c6000000c60000be
:101a2000007e000000fe000000c6000000c60000ae
:101a300000fe0000007e000000000000000000002a
:101a40000000000000000000000000000000000096
:101a50000000000000f8000000fc0000000c000086
:101a6000000600000006000000060000000600005e
:101a7000000e000000fc000000f800000000000064
:101a80000000000000000000000000000000000056
:101a90000000000000000000003e000000fe00000a
:101aa00000c60000018600000186000001860000db
:101ab0000186000001c6000000fe0000003e00009c
:101ac0000000000000000000000000000000000016
:101ad00000000000000000007e7e000006060000fe
:101ae0007e7e0000060600007e7e000000000000f2
:101af0000000000000000000007e00007e060000e4
:101b0000067e00007e0600000606000006000000bb
:101b100000000000000000000000000000000000c5
:101b200000f0000001fc0000010c000000060000b5
:101b300000e6000001e6000001860000018e0000c2
:101b400001fc000001f8000001000000000000009e
:101b50000000000000000000000000000000000085
:101b600000000000008600000186000001860000e1
:101b70000186000001fe000001fe00000186000059
:101b800001860000018600000186000001000000bf
:101b90000000000000000000000000000000000045
:101ba000000000001e1e00000c0c00000c0c0000c9
:101bb0000c0c00001e1e00000000000000000000d1
:101bc000000000000018000018180000181800009d
:101bd0001818000018180000181800001f0f000047
:101be000000000000000000000000000008600006f
:101bf00001c600000066000000360000001e000064
:101c0000003e0000007600000066000000c60000f4
:101c1000008600000100000000000000000000003d
:101c200000000000000000000000000006060000a8
:101c30000606000006060000060600007e7e000084
:101c40000000000000000000000000000000000094
:101c5000000000000e0e00000e0e00001e0f00001f
:101c60001e0f0000160d0000b60d0000b60d00009e
:101c7000a60c0000e60c0000660c0000000000004e
:101c80000000000000000000000000000000000054
:101c90000000000000000000860100008e0100002e
:101ca0009e0100009e010000b6010000b601000088
:101cb000e6010000c6010000c60100008601000028
:101cc0000000000000000000000000000000000014
:101cd000000000000000000000000000f80000000c
:101ce000fc0100008e030000060300000603000054
:101cf00006030000060300008e030000fc01000044
:101d0000f8000000000000000000000000000000db
:101d100000000000000000000000000000000000c3
:101d20007e000000fe000000c6000000c6000000ab
:101d3000fe0000003e00000006000000060000005b
:101d40000600000006000000000000000000000087
:101d50000000000000000000000000000000000083
:101d600000000000f8000000fc0100008e030000ed
:101d7000060300000603000006030000060300003f
:101d80008e030000fc010000f8000000c00100000c
:101d900080030000000000000000000000000000c0
:101da00000000000000000007e000000fe000000b7
:101db000c6000000c60000007e0000003e000000db
:101dc00066000000e6000000c6000000860100007a
:101dd0000000000000000000000000000000000003
:101de00000000000003c00003e060000061e00004f
:101df0003c300000303e00001e00000000000000eb
:101e00000000000000000000ffff000018180000a4
:101e10001818000018180000181800000000000032
:101e200000000000000000000000000000000000b2
:101e30008601000086010000860100008601000086
:101e40008601000086010000860100008601000076
:101e5000fc0000007800000000000000000000000e
:101e60000000000000000000000000000000000072
:101e7000000000008301000083010000c600000094
:101e8000c6000000c60000006c0000006c000000ee
:101e90006c00000038000000380000000000000066
:101ea0000000000000000000000000000000000032
:101eb000000000000000000043180000e3180000cc
:101ec000e3180000a60c0000b60d0000b60d0000df
:101ed000b4050000140500001c0700001c070000ea
:101ee00000000000000000000000000000000000f2
:101ef000000000000000000000000000c70100001a
:101f0000c60000006c0000006c00000038000000fb
:101f1000380000006c000000ee000000c600000069
:101f2000830100000000000000000000000000002d
:101f3000000000000000000000c300006666000012
:101f40003c3c0000181800001818000018000000a1
:101f50000000000000000000000000007f7f000083
:101f600030380000180c00000e0600007f7f0000d3
:101f7000000000000000000000000000000e000053
:101f80000606000006060000060600000606000021
:101f9000060600000e000000000000000000000027
:101fa00003030000060600000c0c000018180000d7
:101fb00030300000000000000000000000000000c1
:101fc000000e00000c0c00000c0c00000c0c0000bb
:101fd0000c0c00000c0c00000e00000000000000c3
:101fe00000000000081c00001436000022630000fe
:101ff00000000000000000000000000000000000e1
:1020000000000000000000000000000000000000d0
:102010000000000000000000000000003f00000081
:10202000000000001c18000030000000000000004c
:1020300000000000000000000000000000000000a0
:10204000000000000000000000000000003c000054
:102050007c6000007c660000667e00006c00000072
:10206000000000000000000000000000000600006a
:1020700000060000000600000076000000fe0000e0
:1020800000c6000000c6000000c6000000c6000038
:1020900000fe0000007600000000000000000000cc
:1020a0000000000000000000000000000000000030
:1020b000000000003c3e000006060000060600008e
:1020c0003e3c000000000000000000000000000096
:1020d00000000000c0000000c0000000c0000000c0
:1020e000dc000000fc000000c6000000c60000008c
:1020f000c6000000c6000000fe000000dc0000007a
:1021000000000000000000000000000000000000cf
:102110000000000000000000003c00007c660000a1
:102120007e060000067c0000780000000000000031
:1021300000000000001c00001e0600000f0f000041
:10214000060600000606000006060000000000006b
:1021500000000000000000000000000000fc000083
:1021600066660000663c0000067e0000fec60000b9
:10217000e67c0000000000000000000000060000f7
:1021800000060000000600000076000000fe0000cf
:1021900000c6000000c6000000c6000000c6000027
:1021a00000c6000000c600000000000000000000a3
:1021b0000000000000000000000000000006000019
:1021c00006000000060600000606000006060000e5
:1021d00006060000000000000000000000000000f3
:1021e0000c0c0000000c00000c0c00000c0c00009b
:1021f0000c0c00000c0c00000f0700000000000099
:102200000006000006060000e6660000361e00001c
:102210003e36000066c6000000000000000000001e
:10222000000000000606000006060000060600008a
:102230000606000006060000060000000000000080
:10224000000000000000000000000000000000008e
:1022500000000000007600000efe00001fc6000017
:1022600018c6000018c6000018c6000018c60000f6
:1022700018c6000018000000000000000000000068
:10228000000000000000000000000000000000004e
:1022900000000000000000000076000000fe0000ca
:1022a00000c6000000c6000000c6000000c6000016
:1022b00000c6000000c60000000000000000000092
:1022c000000000000000000000000000000000000e
:1022d00000000000000000000000000000380000c6
:1022e000007c000000c6000000c6000000c6000020
:1022f00000c60000007c0000003800000000000064
:1023000000000000000000000000000000000000cd
:1023100000000000000000000000000000000000bd
:102320000076000000fe000000c6000000c60000ad
:1023300000c6000000c60000007e0000007600001d
:10234000000600000006000000060000000000007b
:10235000000000000000000000000000000000007d
:102360000000000000dc000000fc000000c60000cf
:1023700000c6000000c6000000c6000000fe00000d
:1023800000dc000000c0000000c0000000c0000031
:10239000000000000000000000000000000000003d
:1023a000363e00000e06000006060000060600008d
:1023b000000000000000000000000000000000001d
:1023c000003c00003e0600001e380000303e0000c9
:1023d0001e000000000000000000000000000000df
:1023e000080c00003e3e00000c0c00000c0c00002d
:1023f0003c38000000000000000000000000000069
:1024000000000000000000000000000000000000cc
:10241000c6000000c6000000c6000000c6000000a4
:10242000c6000000c6000000fe000000dc00000046
:10243000000000000000000000000000000000009c
:10244000000000000000000000c30000c3660000a0
:10245000663c00003c3c000018000000000000004a
:10246000000000000000000000000000000000006c
:102470000000000000230000065300000653000087
:102480000256000003de000003de0000038c0000a3
:10249000018c0000010000000000000000000000ae
:1024a000000000000000000000000000000000002c
:1024b000e76600003c180000383c000066c30000de
:1024c000000000000000000000000000000000000c
:1024d00000c30000e7660000667c00003c3c000092
:1024e000181800000f0700000000000000000000a6
:1024f000000000003e3e0000181800000c0c000018
:102500003e3e00000000000000000000000000004f
:10251000001800001c0c00000c0c0000070f00004d
:102520000c0c00000c1c0000180000000000000053
:1025300000180000181800001818000018180000f3
:1025400018180000181800001818000018000000e3
:10255000000000000003000007060000060600005f
:102560001c1e000006060000060700000300000015
:10257000000000000000000000000000000c00004f
:102580007e3000000000000000000000000000009d
:102590000000000000000000e888000000200000ab
:1025a000000000005a15000000010000500000006b
:1025b0004f0000001c040000000000007e0c000022
:1025c00000000000040000000020000000000000e7
:1025d0007619000000010000500000004f000000cc
:1025e0003f020000000000007e0c00000000000020
:1025f000040000000020000000000000b61b0000e6
:1026000000010000bb0000008c000000d425000089
:10261000000000008e3300000000000004000000f5
:1026200000200000000000008a41000000010000be
:10263000bb0000008c0000006a1b000000000000ce
:102640008e330000000000000400000000200000a5
:1026500000000000f45c00000001000050000000d9
:102660004f00000029040000000000007e0c000064
:102670000000000004000000002000000000000036
:102680001e61000000010000500000004f0000002b
:10269000f8050000000000007e0c000000000000b3
:1026a0000400000000000000000000001000000016
:1026b0005a93000000000000c3180000242100000d
:1026c000a631000028420000cb5a00002c63000015
:1026d000cf7b0000518c0000b294000034a50000b4
:1026e000b6b5000059ce0000bad600007def00005c
:1026f000ffff0000000000000000000010000000cc
:102700008293000000000000a21000004529000094
:10271000a631000028420000cb5a00002c630000c4
:10272000ae73000030840000b294000055ad00008c
:10273000f7bd000059ce0000bad600003ce700000b
:10274000ffff000000010000000100000001000088
:1027500000010000ff000000ff000000ff0000007b
:10276000fe000000fe000000fd000000fc00000074
:10277000fb000000fa000000f9000000f800000073
:10278000f7000000f6000000f5000000f300000074
:10279000f2000000f1000000ef000000ed0000007a
:1027a000ec000000ea000000e8000000e600000085
:1027b000e4000000e2000000e0000000de00000095
:1027c000db000000d9000000d7000000d4000000aa
:1027d000d2000000cf000000cc000000ca000000c2
:1027e000c7000000c4000000c1000000be000000df
:1027f000bb000000b8000000b5000000b2000000ff
:10280000af000000ab000000a8000000a500000021
:10281000a10000009e0000009a0000009600000049
:10282000930000008f0000008b0000008800000073
:1028300084000000800000007c00000078000000a0
:1028400074000000700000006c00000068000000d0
:1028500064000000600000005c0000005800000000
:10286000530000004f0000004b0000004700000034
:10287000420000003e0000003a0000003500000069
:10288000310000002c00000028000000240000009f
:102890001f0000001b0000001600000012000000d6
:1028a0000d0000000900000004000000000000000e
:1028b000707200006f6d00007074000020610000f5
:1028c0007070000065610000727300002e0000004f
:1028d000756e0000746900006c20000074680000d0
:1028e00065200000636100006c69000062720000f6
:1028f00061740000696f00006e00000070720000db
:1029000065730000736900006e670000206f0000af
:102910006e200000746800006520000073630000f2
:1029200072650000656500006e00000072650000c1
:1029300073650000742000007468000065200000ca
:10294000626f000061720000642000007768000080
:10295000696c000065000000546f00002052000008
:102960004550000045410000542000006361000014
:102970006c6900006272000061740000696f000001
:102980006e2c0000006300006f6e00007469000090
:102990006e750000652e0000005400006f75000089
:1029a000636800002073000063720000656500002a
:1029b0006e200000746f000000730000637200005e
:1029c000656500006e200000636100006c69000016
:1029d0006272000061740000696f00006e2e0000da
:1029e0000050000065720000666f0000726d00000c
:1029f000696e000067200000746f000075630000be
:102a00006800000014f100005265000074720000bc
:102a10007900000050720000657300007320000010
:102a200026200000526500006c6500006173000004
:102a30006500000063690000726300006c650000bf
:102a4000006f00006e200000746800006520000028
:102a5000666900006c6c0000656400000000000006
:102a60003420000042500000502000002d200000c3
:102a7000436f00006d70000072650000737300000a
:102a80006564000000000000020000000300000078
:102a9000060000000001000001000000060a00001e
:102aa0000f0000000c080000040e000000000000f1
:042ab000ca920000c6
:020000040000fa
:102ab40063600000f16700000860000060600000cf
:102ac400382c0000a1a20000b8cc000050c30000c4
:102ad400e9740000944e0000f2f90000eac000001e
:102ae4009e4d0000534c0000966e0000db1a00005f
:102af400796e0000d7b50000daf70000ffff000090
:102b0400330c00001a20000028280000c8480000e8
:102b14008c3200004525000025220000140a000024
:102b24002a1a0000191b00002b0b00001152000090
:102b340028a00000681c0000121a0000eaa200008d
:102b44002c480000c8380000a3900000b28e00009a
:102b54008a74000053250000fc0600000a280000c7
:102b640006b70000ad3c0000bda7000033dc000048
:102b740004bf0000cd8a00004ea500002bef00002a
:102b8400bc7b0000b7b70000d20d0000afcd000041
:102b94000246000021d300006fbf0000db73000079
:102ba400fbdd00009a0c0000bc0600002a3a00007d
:102bb400979d00007ab7000077e70000ead700008d
:102bc400f7ba0000c2f00000182800006894000062
:102bd400b2e20000cdbd0000ce370000e756000091
:102be400bedd00009b6100008ad3000040010000ac
:102bf40045e70000b65b0000ef7a000076dc0000d9
:102c04007bd7000073f30000deec0000709c000032
:102c1400068200008c7b00007bae0000e3ce000047
:102c2400ddbb000067670000bcd9000057890000c5
:102c3400cb40000050980000dc7e0000577d00006f
:102c4400e2ee0000d93b0000777b00004ebe00009e
:102c54009b1d0000ae820000dd40000041a3000087
:102c6400d29d00006fd70000b5df0000b91b000043
:102c7400b5f40000ee5d0000a02300002b5d000011
:102c8400b106000036d000003860000098540000ff
:102c94009db80000bb56000034e80000d6dd0000fb
:102ca400b93b0000decd000001060000363600000e
:102cb400e39c00004a770000be5b000037fd000083
:102cc400ee5d00002f410000c1250000400300001c
:102cd4005f9f0000ebc2000016d80000028a0000cb
:102ce40021d300005fdf0000abba000079b7000019
:102cf4005758000050d00000f1060000c840000002
:102d0400ac810000ade800005c7a0000f2dd000058
:102d1400dce9000077cf00005a000000d3a90000ce
:102d240060f30000ddbb00005daf0000ee61000059
:102d340031500000c028000065f900009b7b0000b2
:102d440095b70000eef6000008830000d4190000d7
:102d5400029d0000b9e20000ed5a00000c030000df
:102d6400414100007cea0000dddc0000e577000062
:102d7400cf6a00000882000041d300009dbb000020
:102d8400ddb70000ee750000a3c700001e38000088
:102d9400c6ce000055dc0000b95b0000230400002f
:102da40051a70000781c000018d800006ff700003d
:102db400a2050000362c0000c6ee0000ee5500000f
:102dc4001784000082a20000db770000bb410000f2
:102dd400818d000062a00000a0510000ea8e000076
:102de400b7fb0000804100001c0d000053260000ca
:102df400a8b80000151200007bae000048060000d1
:102e0400c26300006cad0000285c00009d2000003f
:102e140030b00000e79c0000408d00003d680000d9
:102e24008cdd0000bd1b000025880000043000007c
:102e3400620f000014630000afdf0000559d000026
:102e4400bcbb000056040000599d0000233800005c
:102e5400f6d60000206200000f640000dcbb000016
:102e6400b5c0000018b3000012440000014b00007c
:102e7400ee80000062af00000aee00004290000005
:102e840071f700002a210000318600000c0c0000bc
:102e94006f000000031b000068200000d4850000c0
:102ea400c0a80000d88100008831000064d0000070
:102eb4007c070000187b0000e78000006108000028
:102ec40055d700007aeb00005ee50000edbb000082
:102ed4003d420000e8ea0000144f0000dcdd000081
:102ee400bbe200005db700009b300000d862000028
:102ef40041e7000069af0000d7ee0000b87b000096
:102f0400561d00005d19000030b00000efdc000029
:102f14009dfd00007a6d0000b832000023c400005b
:102f240079cb0000dfce000046c40000188a000000
:102f340081c70000ef9e00003b7500002e020000d8
:102f4400a66e0000fbbd0000d3f70000b01900001e
:102f540027a8000058740000e7dd0000d9b700007e
:102f6400992a000050750000d7cf0000beb90000b8
:102f740057a30000844d00009dd10000f1770000ac
:102f8400f7ee0000e6a80000c0cd00007b7300004f
:102f9400ce5c0000199b0000bd460000256f0000b8
:102fa400eebd00008d52000081f90000e3ed000049
:102fb400d9ae0000706c0000ea9400008c5b000045
:102fc40077de00003d070000f58700008051000017
:102fd400e9cd0000777700006b4c0000b05800008a
:102fe400ace400007cec0000edbb00001e370000e8
:102ff40021a80000ba900000e56f0000ded50000b3
:103004006153000067140000f2fc0000ddde0000e4
:103014000c68000004430000126900009fab00002c
:10302400b2e00000c5bb0000b240000084ec000028
:103034003ca000003a4400005205000026fa0000bb
:103044009def0000e661000055970000f2e20000e9
:103054005c1500003ce900000b800000427a00008f
:103064009e1b000036750000a92f0000f7650000c4
:1030740020120000aa800000d3b40000d75800003a
:10308400d539000095be000084c500001a34000044
:1030940025800000d52900002a0900000111000044
:1030a400923a0000e7d2000057730000dd90000060
:1030b4000a190000c3d2000057eb00008059000039
:1030c4001523000098810000eae60000605100002a
:1030d40007b70000f7e000005d200000384b000057
:1030e40058dd000045900000babb000054500000b9
:1030f400a77b0000891800007570000030aa00004a
:103104008e560000ea6e0000ad0b0000c7a600005a
:10311400aeec0000558f0000199200003ac5000083
:10312400129000003a2100004c7500006daf0000c1
:10313400ba4d000091d50000a5dc00005c0700003a
:103144002c370000d1d5000029050000b7bd0000d0
:1031540046530000777200005f470000451a0000e4
:103164000c9800005d020000ab5300002a6b0000c5
:103174009ff90000baca000014a90000025100001f
:103184000cde0000716e000066470000394c000040
:103194009ddb000065b000003ae30000f219000076
:1031a400abde0000569a0000a0a800005bfe000001
:1031b4007616000050210000148400005f01000016
:1031c400ab730000e9580000b9eb00006e86000004
:1031d4000a9200003a500000865b00003db30000f4
:1031e400b30300000a3200009ebd0000038100000a
:1031f400b41900002b4f0000af430000ca6e00005a
:10320400e0220000e6e50000d9d50000707500005a
:103214003030000073d700009d5e000037e40000ea
:103224000a4e00004031000065c50000bb7b000071
:1032340067760000a38100003b6f0000ef6500008b
:1032440098a20000d4fd0000c0100000ddf90000c9
:10325400f61d00000638000087de00002c02000086
:10326400964c00006d33000077a100009bb700006e
:10327400aa3300001dad0000a2060000965900000c
:1032840021650000ede80000ee2b00004f73000004
:1032940045af0000f881000045a700004b2800005e
:1032a4003a70000075c100006c800000020b000041
:1032b400176300000c0000002c6c000018d0000004
:1032c40001a800003c5100004201000042b8000087
:1032d4001ac8000002a80000c510000031ad0000ab
:1032e400683a00000000000063600000f16700001d
:1032f4000860000060600000382c0000a1a20000fb
:10330400b8cc000050c30000e9740000944e0000e3
:10331400f2f90000eac000009e4d0000534c00008a
:10332400966e0000db1a0000796e0000d7b500002d
:10333400daf70000ffff0000338c0000026a00008f
:103344000303000066a20000942900009497000083
:1033540033110000a3ae000059340000d0820000f5
:10336400086500000e1e0000496a00002d2c0000b4
:1033740084d50000951a0000dd9c0000ab1c000001
:103384004e50000059820000fae20000bb770000b2
:10339400ad8a0000d8080000281300002877000038
:1033a400ba750000f7ee00005a950000724600005e
:1033b400fcea00000ad5000097dc0000dd7b000079
:1033c400fbae000057910000387e0000e3d20000fd
:1033d400836e0000df8d0000de7a000077af00000e
:1033e4006a1900005e0300001bd50000806a00001b
:1033f40044030000816a000093240000f0280000c8
:10340400538800004cba00007bd700004b500000ea
:1034140070c90000ddbb00006a530000f104000025
:10342400f624000095ed000077e700000a0b000089
:103434000a1a0000debc00005bed0000a489000055
:103444005399000081670000d1dd0000bb16000025
:1034540082400000d07c0000f7ae0000fa140000a7
:103464009cd10000dca200007ce300006eaf0000f1
:10347400104800009d22000090610000e4810000db
:103484004359000080450000d3dd0000bdea000080
:103494008260000050740000fbae00004633000060
:1034a4002b7600007565000046b70000ee5600005c
:1034b4000b410000d42900006ebf0000bb56000081
:1034c400391d0000abb2000042f50000c9700000d5
:1034d400e3c00000065a0000620d00006c600000aa
:1034e4008cdd0000be9b00002d08000007db0000ff
:1034f400eeee0000c51a00007b850000e02000000d
:1035040046a800000307000036a600008102000060
:1035140019a000001813000044020000a0d8000005
:103524006bc3000030b0000049750000dbdd000013
:10353400b5220000c8ea00001c6f0000ddcd0000c9
:103544000ed2000040530000068e0000312b000014
:1035540041140000b01800004bec00004d56000070
:10356400be0e00008e310000640000008cbd00001f
:103574005a2300004b14000065e0000018d300003b
:1035840010440000034d000018b10000d7a2000051
:10359400741300001ec40000080000000cec0000be
:1035a400b94a0000c8b10000e7600000d18c0000f7
:1035b40014c40000080000000c6c00008b660000be
:1035c400a4bc0000d7820000146300006806000059
:1035d400ae55000046180000a8600000bef80000c8
:1035e400ee5e0000354c0000658200008249000058
:1035f400b7ef00005a150000c3bd00009c20000076
:10360400761d00003588000011600000ebdd00002d
:10361400da440000781e000075500000dfb6000098
:1036240056140000bbba0000c05b0000d94500007e
:103634000807000096a50000ba9900006057000032
:10364400179400001286000094ba00000ca6000033
:10365400cff40000c2ae00006ed100008c4a00001e
:10366400e40000001410000074c70000a14e000024
:10367400102d000025800000d45d0000bcab0000cc
:103684007be90000ae2c0000aa3a0000b4740000ec
:1036940030a00000ea140000958400008088000037
:1036a400b03a00006cfe0000c56b0000efc50000de
:1036b400bb20000030e80000d4c10000c1a8000015
:1036c400bae10000a7ce0000311400000e5400003f
:1036d400a1ea00004243000045310000d485000007
:1036e4001b62000053270000d28c0000aeae000025
:1036f400441100009b3a0000a134000074750000de
:103704000b0400008d5c00006040000005a2000076
:103714004ed1000045590000500a00005d5d0000d4
:103724000172000081a5000008cb00007481000034
:10373400ece80000ea180000b6670000b86000007a
:1037440080d200006a0c0000650c00000cc9000067
:10375400e5180000c00c00008bb2000051400000ce
:10376400630000000000000063600000e9610000e5
:10377400d8cd0000c0c000007058000042450000d1
:1037840071990000a1860000d3e90000289d000083
:10379400e4f30000d58100003d9b0000a6980000e2
:1037a4002cdd0000b6350000f2dc0000ae6b00003a
:1037b400b5ef0000ffff000067100000508200001a
:1037c40002210000452100002520000002b1000074
:1037d4009440000094a00000a022000088a30000f0
:1037e4008890000037320000360600000a330000db
:1037f400322800003abb0000a825000087b800006a
:10380400303200006cb90000bb770000f79e000066
:10381400bd1d0000335600009ede00005dd5000093
:1038240061cc0000c4200000c000000007020000ba
:103834008c0c00008c400000525000000901000074
:1038440080c600000a810000291000002108000041
:1038540035d70000c80800002a2b000008320000f9
:103864005d3100005898000051210000d845000047
:10387400394c000028850000d1f00000d4990000e4
:10388400d37700004eaf0000eeac000058b9000042
:103894007af50000ec0e000033210000061400004d
:1038a400c028000028c8000028a8000068a4000060
:1038b400aca40000640c0000335e0000504800001b
:1038c40011ee0000549800009d300000d3950000d4
:1038d400404e0000374c0000351100005234000007
:1038e40036310000345500004a1100002aba0000a5
:1038f40073e70000cce900003d7b00005775000031
:10390400ee5c0000d5350000b35d000025550000d5
:10391400444000009041000010e6000076060000dc
:10392400a0e100000c8200008ac600002000000014
:103934003142000051500000501000006e3a000067
:10394400c45800002390000024d80000682500001b
:10395400231300006365000025c300003237000014
:1039640065a0000016670000935400000ba300003c
:10397400e3770000cfee00003e730000e6f40000a1
:10398400ee5d0000ab660000ccd80000119a000088
:10399400babb00002bcd000054100000c9f1000098
:1039a400c0700000029a000006330000c0580000f6
:1039b40059480000106c00003cc80000371000009b
:1039c400b72a00002b830000ed560000067a0000a1
:1039d4000a680000910b0000503c0000a82300007e
:1039e4005c480000c9d80000d9cd0000b92400000b
:1039f4002af10000ced90000dd7b0000ceec0000ef
:103a0400d9b300006bd70000ae5900003367000043
:103a1400b8b400009d3a0000bda7000053040000a4
:103a240018de0000a0500000815a0000007200005f
:103a34002b480000bfb3000032d0000050a00000ab
:103a4400e9f00000c05000000691000046c60000e6
:103a540050a0000024a80000080e000042c300008b
:103a6400d20e00000f46000045e3000062f30000a0
:103a740092150000d18b0000cf9e0000018200004f
:103a8400dda700004faf0000da3d0000ab2b0000c3
:103a9400d3780000e9ee0000ddb3000077590000a0
:103aa400003d00002d000000365d000090910000f4
:103ab40001ee000076a000001b8d0000800e0000c7
:103ac400848400008b32000048c4000048090000d0
:103ad400888c0000c0410000a36c00000c0e0000a4
:103ae40037900000e9c900001d330000d51900001b
:103af400148c000043940000a6ce000016bd000004
:103b0400b9fb0000f49d0000b367000056af00004d
:103b1400b8bd000066f70000ec2a00004ba70000c7
:103b24001db300004f770000dff200004e0d0000cf
:103b3400551100006414000000c60000a822000013
:103b4400c878000020690000048900005565000061
:103b5400501a0000043b00001e6800000cd0000056
:103b6400b5ca0000488900004911000028a70000d8
:103b7400e4a400002ce40000d8b60000b2920000d7
:103b84009941000000180000ab2500006a8900007c
:103b94007b7700009ed9000073e600007477000074
:103ba400fbe90000d52b0000ab320000dd2700004c
:103bb40077ae0000dcbd000067650000d6f40000ad
:103bc4004ad7000060610000457000001003000047
:103bd4004d57000012840000c524000088810000b5
:103be400488700004a4a0000c646000048c6000054
:103bf400839400003b99000028950000cc980000b5
:103c0400690e0000f4b00000535a00005aa70000e7
:103c1400dab60000ee5d0000677600009fd9000070
:103c240053550000b1730000d7cc0000aa1900005e
:103c34002e4b000066ad000058750000b27b0000fa
:103c4400e7ca0000aeb0000050110000416000005f
:103c5400e482000030030000c45400004541000029
:103c640030ad0000886400001ed80000ed70000034
:103c740011410000412100004627000063a7000015
:103c8400b6990000114c0000404d000041e50000d1
:103c9400a5ab0000d36e0000ef02000086cb00004d
:103ca400d93d0000d51d0000ab660000cc5a0000d1
:103cb4005966000032750000d5cc000095bb0000a9
:103cc4004e4f00005fd3000095960000212c0000a9
:103cd400a80800008d5500007060000003ed00008e
:103ce400110400000346000041600000382b00006e
:103cf4001b43000012230000d87b000070d3000097
:103d040019800000a6030000435d00001594000024
:103d1400d44a0000c3a60000554e0000bd7b00003d
:103d2400e62e00002852000057cd0000dcb9000048
:103d34006ad60000cc34000091e50000333b00005b
:103d440076560000eeaa00003c5d000039ad00008c
:103d54008a19000012a5000010d3000041c600001b
:103d640008800000fc210000007600003e380000be
:103d740046610000868300001c2f000008610000db
:103d8400093800001b97000096bb00008332000036
:103d9400a463000068e90000cae90000b7ef00006e
:103da400ee0500001abe0000ebf400009add0000ee
:103db400ab3a00003b2b0000c2850000a7cd0000f9
:103dc400ec6800009f7900007ac700008acc0000ec
:103dd400e9ee00004cf00000240f00008a310000de
:103de4002145000088cb0000910b000005a80000cd
:103df400083000007e840000a04c000041e7000071
:103e04009050000057610000902b00009c9d000022
:103e14005357000095dd000005260000f5d9000089
:103e2400a7760000ed3e0000b36a0000f7ea000048
:103e34008e2c000037a10000a96900003376000031
:103e4400747500004eaf000048ed0000548100007e
:103e54002475000090070000a049000042090000fa
:103e6400921c000081a90000450800006430000095
:103e7400cc70000010800000041a0000b0ec0000b8
:103e84000a0900003511000006c700005570000043
:103e94006af90000ed9b000077f700009cdd00004c
:103ea400dd39000063f50000dd590000bbe60000c9
:103eb400cc0c00004f350000112c00005be3000027
:103ec4005c9500003e630000db9c0000691d00005f
:103ed400a0c0000003aa000076150000020500003f
:103ee40034b4000014140000826400007e650000f5
:103ef4002521000084c100008cc00000e0630000a4
:103f040014000000db200000a06800001462000020
:103f1400a20c00006232000028840000a485000086
:103f24006ebb00007bf70000ce9e0000d51d000094
:103f34009dbb0000669d0000aabe0000d9390000a8
:103f44002b45000044300000b8b400006bea0000c8
:103f5400f28a0000396e0000dba3000040810000fb
:103f64002760000094d20000a96a0000c404000085
:103f74002c80000005610000610c00004b21000052
:103f8400b0300000410600004029000067630000d3
:103f9400903a0000a0e9000069610000a5b70000a4
:103fa400ee9e0000d97b0000664f000057c700005a
:103fb4008ed900003b570000cfaa00002c8b0000d4
:103fc400106100005ce600009e6e00001aec000028
:103fd400d61200003ecd00000d640000ba6100005e
:103fe400486a000068a800002933000083a200008a
:103ff400a010000038c10000812300000e6a0000f8
:104004003ed400006021000014c300008dc00000f5
:10401400c50d0000d074000087740000e36900003f
:1040240077ce00009cd900007bfa0000ce9a0000f5
:104034008e1d00007b560000ce5c00005955000028
:104044006a290000c4100000000c00009e1000004b
:10405400d71400006770000049ac0000e05c000069
:1040640036230000bdbc00008c9d0000011100003f
:1040740097080000f7030000d31100002c8d000006
:10408400c24d0000573400003251000032020000db
:104094009b9e0000941e0000ba7d0000ef4a0000c1
:1040a400a0e300004f9f000059bd000073f500001d
:1040b4008c9d0000151d00006eae00008c0c0000ed
:1040c40006650000e9e60000464a000022c500003b
:1040d40019c20000c05a0000c4290000ad6c0000e1
:1040e400e5cc000059d30000b9190000c0ae0000af
:1040f4003582000094b20000e0120000189c000019
:1041040008a10000e10e00000a73000070850000a1
:1041140003f4000087a100008992000031d8000058
:10412400f4900000b4f200009373000056de000027
:10413400b9730000760f0000b0f80000ddb5000090
:1041440072450000d5740000552700006048000047
:1041540007850000bb1a00000b0a0000b45a0000d7
:104164002832000002c3000065fa0000cc8a000077
:1041740095950000d339000019940000a085000033
:1041840038b800001416000082c4000001b000001a
:1041940004020000c71f0000a29e000011100000ce
:1041a400127400003431000032060000a51d000026
:1041b40085d00000b299000077560000ed0600009b
:1041c40065250000506600005a5d0000b9b2000089
:1041d400cc42000009180000fd4600002e29000012
:1041e400aa8c000002ed00006a8a0000c0280000ca
:1041f4004d6d00005fd9000039330000238d0000ad
:1042040015540000d08000002210000058ba0000ad
:10421400439d00000caa000096400000ae6600001a
:10422400141000000096000075d000004423000024
:10423400a80c00002a66000080450000342300001a
:104244008343000045e90000a9bb000067ef0000bc
:1042540000730000ea6e000060e80000efd900007f
:1042640059d90000161e00000e8a000048450000bf
:104274002367000073010000e7740000612500005b
:1042840060c0000094a5000097ae0000dc3d000073
:104294003b8d00004300000054530000c392000013
:1042a4008c200000c4f5000090c200001229000018
:1042b40042810000f24600004ac10000266000006e
:1042c40006430000a17b0000dbed0000bb7b000087
:1042d400f69e0000b9730000f6f40000dd3500001e
:1042e400bb770000eda800009eee00005122000004
:1042f4000cce000097460000a14e0000a52a000045
:104304004242000040d3000053670000ce5c00002e
:10431400b5aa0000279500000dd1000024800000fc
:10432400a5480000654800009d0a00008e010000b9
:1043340084f100008aca00002e260000c64a00004c
:104344004cc00000aaa700003875000005b00000aa
:10435400f8da0000b37a0000d569000060c00000fc
:10436400ec3e0000b5b20000b3a2000022580000e9
:1043740008e8000047200000e11a000014020000d1
:10438400cacc00000ac10000adbb00007677000073
:10439400cdec00002e6700001780000057cf00000e
:1043a400824a0000b0da00001b6400001122000001
:1043b4005309000040c20000cbd90000d5c400005e
:1043c400d8080000647a0000cad2000053770000c5
:1043d40081a1000032730000e6ca0000b3a7000008
:1043e40081c50000c0cc0000aab000005237000014
:1043f4006088000009a40000a82800002a1b00000f
:104404002a830000aa6a0000c7f60000e59d0000a8
:104414001d1d0000332b0000577200000ac000006d
:104424004a2b0000901b0000952100005528000035
:1044340022af0000024d000016800000982e0000fc
:10444400181400000a3400001d580000120800006f
:1044540084940000df0500009a7e000067f50000e8
:10446400ca990000c01200000cd80000d4e8000073
:104474002c4f00008904000086a70000629a000007
:104484002bb00000bd0200006e08000004ce000046
:10449400e8e80000e82c0000ed7000002b030000a9
:1044a400868c000010a3000000220000844100005c
:1044b400452f00006a26000085c5000041700000f9
:1044c400a8a90000094800004a210000ed280000c6
:1044d40030b90000dc3d00007b770000ef8c000069
:1044e4009d6b00004fad0000dd7500006a75000093
:1044f400465a00009890000062b00000929b0000b1
:1045040029380000ab000000d3660000f3ae0000c1
:10451400ddab0000aada0000cac30000802100005d
:10452400030b00005c600000ca81000005bb0000b2
:10453400a2100000ac64000044aa00004e42000037
:10454400434300005541000049b50000a8f40000b1
:10455400d69e000059b70000cf0200002b8e000049
:10456400d5a70000eeac0000b9dd0000db7d000043
:10457400764e000045a900006b460000a8620000ca
:10458400b01b0000d000000050b400000b6c000011
:10459400dbbd0000aa320000637a00007a6a0000e2
:1045a4000787000000520000890200002cc60000aa
:1045b40040d900001d1c000007a00000e20100001b
:1045c400989a00002019000019980000d98c000066
:1045d4005c4200005d5c00004015000041d8000012
:1045e400b6bd000033570000ddb900007be70000d2
:1045f400ccd90000b3770000f69c00005979000084
:10460400bb660000ca99000015150000b7670000da
:10461400e784000084850000310200000b150000cf
:1046240050490000d1590000bea20000ab7d00003b
:1046340065560000481900003ba400009e160000c7
:104644001282000026750000686d0000875c00007f
:10465400d42b000083db00001ece0000ae690000f6
:1046640026c600002eca00008a49000015b70000c3
:10467400eeee0000be7d0000f6f40000aebb0000cc
:1046840077cf0000aebe0000bda700006be50000c0
:10469400eee800001d670000efec00000d8f000045
:1046a4002c4900000b31000005b70000590400003c
:1046b400155b00004ca70000aece00009816000069
:1046c40099960000ce0a00004fe50000b082000079
:1046d4004b4800005151000009d10000363500005c
:1046e4005286000066e3000060a00000e9ca0000f2
:1046f400466d0000e9e10000a5670000efde000060
:10470400bb7b0000f62c0000a88c00003cb300002a
:104714007bcf0000e98a0000d333000067ec00007f
:104724009a5500007ed400003bc3000034c400004e
:10473400155200000f190000ba1800009756000027
:10474400843a00003ba70000a7b20000c3ca0000df
:1047540042630000786d00000433000017e100009c
:104764007a60000068090000061b00008702000050
:104774005dee0000543e0000fd160000d0d10000a4
:1047840067ee0000eebe000005aa0000f8f6000087
:10479400ac5a0000337b0000fae90000aef40000dc
:1047a40010e70000556e000065660000212a000035
:1047b400e0c200000f5800001024000097550000cc
:1047c400ba32000007960000a5b1000081cd0000b8
:1047d40003120000cec6000042b00000a4a30000f3
:1047e40084d4000094810000b11400005d9d000099
:1047f40080a600002b190000b6dd0000b90b0000f4
:1048040006b300004eee000005990000be7a0000d9
:10481400f59c0000692b0000f6640000cc980000b1
:1048240056b3000024cd0000cdd800008411000050
:104834009c4200001c670000b4570000549a00001a
:1048440086b40000ceea00006403000027140000d0
:1048540020e100006cac00002c080000f30700000d
:1048640052f50000aa0c0000f186000091910000ae
:10487400ab110000c8f40000a01300004093000036
:10488400815100007a770000d6a90000b3730000bc
:104894004eaf0000dab5000077f60000ee19000014
:1048a400e567000056af0000bc3300006b46000013
:1048b40018a80000ea0200009b9e0000d4990000a2
:1048c40056910000ded100003ee300007437000082
:1048d4001b3800004e95000014c1000026020000a1
:1048e400fb070000a84d00001a04000070720000cd
:1048f400058500008c510000f16d000088d3000094
:10490400efae0000065600004eab000077af00008b
:10491400da3300006bd500009e8e0000f69d000087
:10492400abd700004eaf0000343500003601000064
:104934002665000090f1000041e5000061ae000032
:10494400ce2b000066ad00003c930000c90e0000b1
:104954003117000066280000521300001be8000015
:104964001f45000048ad000008240000199c000009
:10497400c28c000042410000b17a0000fbee00004e
:104984009db30000b7ef000080f20000ea99000038
:104994003b6b000077ad0000eeda0000bdea0000da
:1049a400f6aa000055a700007b3a00002bdc0000ab
:1049b400955d000080dd00000721000021600000fb
:1049c400d11d000094560000d6d10000be6a00003c
:1049d40055e70000f4700000369400003c0300002a
:1049e400f2040000241a0000c0990000005a0000dc
:1049f4005032000000f300009f930000ab5300000e
:104a0400aa890000b2f30000b4bb00007b7600006a
:104a1400dd3900000d710000fed900003dbb00002f
:104a240076560000afdc00007dfb0000f49a000025
:104a34000ab3000029990000aa4e0000a6c0000095
:104a440016290000b0bc0000611400004c2e0000c8
:104a54005fb100007bd50000aa590000152e0000ac
:104a640021ac000030a300008d2100004e0700009f
:104a74003724000085200000810f00002b0900006e
:104a840040d5000047b0000070500000988b000033
:104a940092f30000f2b30000ab560000ed3e0000bc
:104aa4007316000068f60000de3b0000c002000040
:104ab40072f60000cad500002b670000b58500001f
:104ac400879a0000a6840000a9380000ab8000008b
:104ad4004d170000645000002c2b00005d350000d1
:104ae4006be50000ae9900001de60000c56c0000f7
:104af400422800006d5d000021450000a42600004e
:104b04002b2c000085820000ba3f0000a120000089
:104b1400d3850000809100007ae60000ccaa000052
:104b24009d77000080a900007dcf00009ed3000087
:104b3400c0c2000060f60000addd00003b3b000099
:104b440057ac0000ce0c00000566000009610000af
:104b54004101000025410000607d000013080000b1
:104b6400ccaa000033570000ac9c0000b5aa00009a
:104b7400b29c00001d120000dc080000f3c100001c
:104b84006d26000024d3000019c1000058d1000094
:104b940055280000c9d50000553800000918000048
:104ba400e267000077af00003abd0000075800003c
:104bb4006fec00005d7d0000e7ee000099b300009b
:104bc400a7f60000dcb90000737700006f46000010
:104bd400193000002f800000ea3100000145000078
:104be40046810000a48a0000ca150000b3670000d3
:104bf400ce3c000033ab0000bc8200005d1000001e
:104c0400d6cc0000833b00001fe2000078210000a6
:104c140070ea000064040000f57d000040750000a7
:104c2400a9ab000070b200008bab0000f0220000c2
:104c3400702600005d7d00007acf0000a9bb000053
:104c4400bb4e00009fdd0000b37b0000f79d000019
:104c5400bb730000f72c0000df1900006512000090
:104c640062cc0000040c00001246000050f1000069
:104c740007ac0000f6560000ac5a00003173000087
:104c840055d70000ca8e0000959c000028c500007e
:104c9400ad22000034fd0000c0ec0000837500006c
:104ca4007f0400000c42000085830000811900008d
:104cb400fd3a000030b100009fb90000b377000056
:104cc400d7190000603b0000ecf40000eedd0000aa
:104cd40067ef0000749d000099930000961e000089
:104ce400aca200000cee000028090000401c0000eb
:104cf4006a5800003203000058be0000af8c000068
:104d0400700d00002d6500005582000036930000f0
:104d1400e08100000c0e00000e5000001b03000098
:104d2400d42e0000867400001105000080ed000000
:104d340000150000e710000053c300005bc0000032
:104d440084720000fbce0000dedb0000c006000021
:104d5400eadd0000bbbb000080bd0000d5b500004b
:104d6400bbf70000d8a80000281900000a4300007f
:104d74005abd0000e0940000a0280000e4180000e0
:104d8400bebc0000b3320000b5b400007d56000084
:104d940026870000227200008314000016d600004b
:104da40030370000839a0000b1600000ab0c0000b3
:104db400d24400008c42000044260000dfbb000007
:104dc4007b17000058990000dedc0000b3e7000008
:104dd400d4ed0000137b0000f7ae0000068600004f
:104de4007b55000047880000b1a20000b3b000006a
:104df40010b80000630d00008c1f000026a0000006
:104e04006e870000b0f40000926900009ece00009e
:104e1400ae210000612c0000e0b0000000a60000fc
:104e240041680000e80b000020b7000062c00000e9
:104e3400a68300001b4b0000066900002ace000078
:104e44002ec2000047810000ed5e0000608b000070
:104e54007dcf0000aedb0000c04e0000eaac0000d5
:104e640059a7000056ef00009e350000bb740000f7
:104e74005a4a0000ba49000048a800003230000035
:104e84004f1800003382000073880000624900005c
:104e9400455b00007b470000677a0000ba8a000087
:104ea40012b3000022520000de1700000437000095
:104eb400a7d10000fae3000060d20000304d0000ea
:104ec400c5d80000c5e800000ea8000019b3000012
:104ed400ebcc0000edb30000bb4f0000df5e000030
:104ee40073ea0000f4ea0000b333000077cd000059
:104ef400eadc0000b3270000c2c500005519000019
:104f0400e80800000125000046b00000030d000081
:104f1400cb66000002ab0000dcbd000015e9000018
:104f2400aec60000ace00000d83300008695000057
:104f3400b382000002a8000066030000039e000084
:104f440011d40000a03400004c550000310e0000c4
:104f54005d720000e7ec00005950000017f50000f6
:104f6400f4dd0000d5bb00004eef00003a7d0000e8
:104f7400e3cc000069600000abe30000cdb90000a1
:104f84000a17000013650000706b00004908000058
:104f94001c36000082850000e51d0000e5c000000d
:104fa40022bf000032340000145c00000243000001
:104fb4001b63000050c70000332000008d54000024
:104fc40040a300001ad80000990a000051310000e3
:104fd4004e3b00007ef60000eed9000055a700000d
:104fe4004fed00005e7300007ad70000eedd000094
:104ff4007b4e000002730000d3990000bdf700004f
:10500400ee740000acac000072010000252e00001c
:10501400605b000010d20000356a0000ad9c000007
:105024000e740000fccc00008af600008e340000f0
:10503400689a000081a500004b460000416400000e
:1050440067c300004a200000a0e90000c0e6000099
:1050540046ea0000a93d000067ef0000aede000054
:10506400bd67000035a800009174000066cf000001
:10507400e93b000077f70000dc5d0000d359000035
:1050840016dc0000116e0000ac040000540d00009a
:10509400eec200002b080000092a0000a4860000cc
:1050a400959500009777000000c10000cc550000e2
:1050b4005cd0000006860000222400001d3200009f
:1050c400a23800005a1000005a2e00000389000084
:1050d40010130000e3d20000dbb70000f70000006b
:1050e4005bbd00007be70000ecde0000b36700005e
:1050f400d5ea0000dd67000056af000099d100003a
:1051040055660000a4e40000eaa20000ac0c000014
:105114007493000010240000f6810000a6870000ac
:1051240084860000a6a60000b775000076960000ed
:1051340097cf0000e08000009403000050d70000e7
:10514400434c00001760000084060000172c000088
:10515400d3020000b32f0000d0f400002577000034
:105164004fef00005ebd0000ebcc000099950000fd
:10517400ab770000ef5e0000bdf20000f4ea00002f
:10518400eece000034d50000e0f200008a6c00008e
:1051940075010000502b000043080000acd500004e
:1051a4008145000050310000b9bc0000bcbc0000c7
:1051b4003db40000b432000035d400008545000041
:1051c40010a500008c8100009501000048f5000046
:1051d40013a80000c7a90000a4180000e2a2000060
:1051e4007c6d0000efd90000dd40000083d7000093
:1051f400acda0000b36a0000d5ed000035ab000066
:1052040057af00009a910000eeba0000f35e000070
:10521400afbb0000b0420000482a00003334000055
:10522400b2800000a603000053400000594500006e
:10523400477800005b6600007b7a00001a1b0000c0
:1052440023c2000078650000780700000d660000a6
:10525400bc2200006c2c000045290000d845000049
:10526400f9f600009eb30000bbf60000ec9e0000bf
:105274003d7b0000d599000055b3000056cd0000d9
:105284005a3d0000f3c40000aace00009577000048
:10529400cf6600002a0b000004ad000098950000c2
:1052a400c50c000031dd00004944000051500000ed
:1052b40040d90000b8ac0000bc620000c6cc0000bd
:1052c4009933000057700000821d00002a0400007a
:1052d4006d640000284300005b470000d0b8000064
:1052e400800c0000618100006d7000000a2900003c
:1052f4003e7b00001b68000036b0000004db0000a9
:1053040075660000d5aa0000d5990000a7770000b3
:105314009f38000075e60000cc9c0000701300006c
:1053240053810000ad6b0000babb0000dc850000b7
:10533400c1210000e32800002c680000686c000014
:10534400925a0000de0e00002c850000ab3a0000eb
:105354003a380000a10d000019480000250700009c
:10536400b243000008ee00007e5800007d050000f6
:1053740002ce00002e5b000080c900007bcf00003d
:10538400ae550000a7760000df590000bd6a00009a
:10539400d5ec0000ae550000ab760000ddb900008e
:1053a400bb3a0000dc30000045c2000071c70000b9
:1053b4009a590000ed330000dc2000006e17000055
:1053c400157400000c0b00002eef0000a82a00004a
:1053d4004f6b0000ef5c00003993000013d2000013
:1053e400241000005484000097f10000424800009b
:1053f4004d320000681e000000b100005c4e000049
:10540400dc3e0000bd130000d8640000dfb50000de
:105414006be60000c9550000bb670000cd580000d2
:10542400b1fa0000ee9d0000356e0000c6a5000034
:105434005962000093f600009ce900003931000035
:105444007b3900008b5300002b1300008391000074
:1054540088a000005358000069590000fb8c00002c
:1054640095dd0000e16d0000333b0000d8610000d1
:10547400e100000031cb0000d8180000ee15000058
:10548400c4e8000006a8000037af0000e87200007e
:1054940073ed0000de350000b78000002dbb000076
:1054a4001ba700007b80000079ea0000f4dc000008
:1054b400d32b0000e7a60000291b00004d37000095
:1054c4000dbe0000b5e70000ceda00006d9e0000be
:1054d4006de9000015530000591900009c450000b7
:1054e400049d0000835d000043cb0000d3d3000083
:1054f400cbd20000cb560000747300001883000068
:105504006a510000f8f800001da80000f9ae000080
:10551400080d000022480000f90000006d61000041
:105524000a260000ddb90000b37b0000ef9c0000f8
:10553400137300006ed500004e9f00007da2000092
:10554400e7640000e65100008b16000027130000fa
:10555400a35d00002bdd0000a6ac0000c94c0000d8
:10556400f75800009ae90000ae9a0000062c0000eb
:105574000e8000006e3700006c9b000039ab000009
:10558400737a00007767000079460000b91b0000b9
:105594002b240000609000001a48000042c800005c
:1055a4008d250000441500009878000066ef000087
:1055b4009a5d0000abce000074ce0000dabd00009e
:1055c4007ac600009c9b00005527000033c20000ef
:1055d400544c00009d960000ef3400006fb90000a9
:1055e4005de5000022a4000058dc0000beca0000f3
:1055f400dc99000099010000e4760000a7e90000ae
:10560400c09a00007126000030bb0000a6b700005d
:105614007770000082ab00003a500000d701000010
:10562400320c0000a10800006bfe00001a290000e3
:10563400a1540000ae4a00009380000089fd0000e0
:10564400e6ae0000d3b30000d6cc00009a350000cb
:105654007bf60000c9550000ab56000045840000ed
:105664001a370000dfad00005e7c00007777000091
:10567400b719000053a10000fb8a00003d1600008a
:10568400468c00004c020000ce2200008a25000057
:10569400ab3a000066ec00005ed500005931000012
:1056a40063c50000e93300003cd0000060470000ff
:1056b400e422000021580000e64700002d8100008c
:1056c40016ef0000d9dd0000bd7b0000e5aa000054
:1056d400d55d00007b8000005da50000d3bb000009
:1056e4007675000075ba0000269f0000da1d0000e0
:1056f4003ebd0000d2cd0000add8000074590000ba
:10570400467b0000a69900000aa3000020d00000f8
:1057140074c30000b2b60000ce88000090f200000e
:105724008e1900009d2b0000669f0000e21200000d
:1057340084a5000074480000430c0000dc5b0000fa
:105744005504000037b80000a1ed00001a0600005f
:1057540048a70000efd80000eabd0000bbba000073
:1057640057cd0000dcbd0000ab630000e6ec000098
:10577400553300004e9d0000ae0800000ddd000012
:1057840071670000cdf40000ea0a0000a3360000af
:1057940057650000e7e40000ca0e000011e30000b2
:1057a400645100000163000013c5000090e4000090
:1057b40099c000009618000030530000afaa000002
:1057c4002a870000b6df00008da00000f908000061
:1057d400a5310000833c0000f26100007412000057
:1057e400584b0000afdc0000056c0000bf750000e2
:1057f4004d9f0000b97b0000464500005979000028
:10580400e8ce0000b32b0000e6960000cece0000e8
:10581400583600004b020000189b0000e9e5000028
:105824004c020000451600008a2e0000a2820000ef
:10583400491d00002b2b0000cbc2000081fd00009d
:10584400f199000059610000cc900000f1130000b0
:10585400454500004858000040c70000b0e1000082
:10586400c12d0000088d000064e30000a0db0000ef
:105874007b56000002730000d2aa000059330000d6
:10588400e7ac0000bc3500006b570000575800001f
:10589400fa74000060570000bb6600007a4f0000f5
:1058a400cae900005dd900008c0c0000e519000075
:1058b40019cc00000c090000196e0000c12a000078
:1058c40002a500009d610000a9d30000cd8c00005a
:1058d40042ca0000c2430000d2d90000c02e00001a
:1058e400538400009a0e00008902000078450000ed
:1058f400ce080000f5030000502e0000e9f6000079
:105904009cd90000ab760000afde0000397b0000bc
:10591400e59a00005dbb000076ee0000d99d000012
:1059240059ba0000fbce0000bdb30000e927000017
:1059340033b70000ef3d00007da60000b26d00000b
:1059440077560000a43100006361000047aa0000fc
:10595400b1b20000435a00006a58000069670000b1
:1059640078480000a88b000099410000199b0000b2
:10597400a02000006aa300005a110000da7300009e
:1059840087570000561000005074000067f70000ad
:10599400ec9d0000b356000077ce000058b900001b
:1059a400e2f40000f4d3000015ed0000ed2b00003c
:1059b400efbc0000bb570000ddb200006af9000034
:1059c400eeb50000c0de0000d39e0000d5b3000099
:1059d4003395000099160000cf2c000057560000a4
:1059e400310c00000d4900004b6b00006f6f00008c
:1059f400ab080000575100002c6100000357000061
:105a040041b00000240e00001a3100001010000004
:105a1400441a00007b8700009bbf0000f8cc000004
:105a2400ae3900003b660000cdaa0000983e00009d
:105a34006b550000d789000035330000cab7000059
:105a4400dfbd0000f7f60000ace70000e4aa0000a8
:105a5400152b0000e7ae0000dc3d00007b55000084
:105a6400c58c00000a260000936d00002bab0000db
:105a74004d8c00000d43000081290000bdbc0000d6
:105a8400aca200003c4d0000d8b00000156400003a
:105a9400ba100000b4900000043b0000195200004a
:105aa400e3210000672e000070fc00006e39000046
:105ab4003b070000d8e20000dddd0000b9ab0000c8
:105ac400a22200002d7b0000e7ec000055b7000087
:105ad40041ed000060af0000925d0000bb67000074
:105ae400ae5a0000b5720000d5e90000ea150000c6
:105af4005dc20000c0aa00007a9700009ab10000bd
:105b040062c900008c9900009d190000a1e5000005
:105b1400a1a9000065ed0000196c0000b03200007e
:105b24000b160000d4e000005a0f0000b50300007b
:105b340002aa00003f8e0000ed05000026b200001e
:105b4400d533000066ad00005ad900005991000019
:105b5400d13a0000e3d40000ddb50000c0f6000037
:105b6400c11c00009312000050070000a463000051
:105b7400e64c000060eb000026620000e7cc000069
:105b840053bb0000dd5c0000844a0000db570000ca
:105b9400ee5e00003dbb0000a3b30000fdd4000096
:105ba400eed500009ca00000e14d000065a40000bb
:105bb40074220000004f000084500000001e00000a
:105bc400da160000ba7e000076e70000eaee000074
:105bd4005d950000d3ca0000b76f0000bf590000f4
:105be400560e0000acbf0000779f00003e3b000053
:105bf400eb8c0000ba6b0000cbd90000dd1500006f
:105c04006d2b0000ab76000075650000cce8000049
:105c1400dcb100006bb600008b890000525b000011
:105c240047670000da8c0000996d00002b560000d5
:105c3400cd5c0000758a000013d800003d0600000a
:105c4400155d000010f70000c3ec00006080000048
:105c5400c72a0000647a000045d00000f1ce00009d
:105c6400ec5d00006b6e0000cf6e00003fbd0000d5
:105c7400c77a000073ef0000e5b5000027ef0000cd
:105c8400eeec00003a550000dbb500007d6e00002c
:105c940044f70000ce150000d927000066ad0000cf
:105ca400dcd30000d1510000b1b40000fbc40000fb
:105cb4006e0f000063a50000e08e00008e660000f9
:105cc400cfd40000f6f20000553300002ad20000c1
:105cd40039500000d20b00002490000005c10000e0
:105ce400932d0000a026000027b80000470f0000f5
:105cf400848a00008977000057ed0000dddb000096
:105d04007e6700006f660000f97500008f90000048
:105d140095190000675700009dbd00003177000011
:105d2400cecc0000ae3b0000d3ee00009c3d000052
:105d3400b16b0000f69d0000dd730000664e0000ac
:105d44005fdd000075ea0000f4d9000068930000ec
:105d5400a0f4000090b40000f20c000060d9000030
:105d64005ebe00006b56000005a7000012ac0000e8
:105d740052520000828e0000882900000ac10000ef
:105d8400dac00000e056000001b4000084dc00002a
:105d9400b36b0000d7d90000d5dd000033ef00005d
:105da400cc8d0000589e00005a7b000074f7000060
:105db400cc5d0000a75600006f4b0000078d00006b
:105dc4001ace00008a3c00000e6c00006dcf00006b
:105dd4005a3e0000a3a70000fdf40000eeb300004b
:105de4005ec6000041a10000333200004cda00001e
:105df4004eac00009c950000d6d1000051ce0000ae
:105e0400099f000030800000a448000048590000a9
:105e1400290800006fd40000408b0000b649000040
:105e2400674f0000cd060000d6770000ab76000077
:105e340075cd0000ae6a000037db000039a3000016
:105e440063e50000ced900001da90000bb4e000090
:105e5400efdd00005d3a000077c700009a9500006e
:105e64007b22000097ae0000e85a0000b1670000f2
:105e7400cdee00006ee50000a0b600005dab0000b2
:105e840067760000754c00009fb100002adc00001a
:105e94002d9d00005d0900003d160000c163000057
:105ea400d642000030e7000043b30000ec9100004c
:105eb4003da000003e18000030af00009eea000044
:105ec400de11000021b400006b660000ea8c0000c3
:105ed4004e6000008b600000d79a0000d3dd000004
:105ee4004967000056ec0000595d0000c91c000021
:105ef40054510000d1b900007ad50000ce6e0000e4
:105f040013e70000b49d0000bbf70000ec0e000096
:105f14005fb900006237000030b500007242000033
:105f2400021c0000a3d200004094000035e00000f1
:105f340020ba000071660000cf990000b32b000066
:105f440081ee00006b5f0000b1ba0000a271000096
:105f54004d7a0000eacc0000eae9000095ab0000ad
:105f6400779d00003d330000bbb2000063d6000003
:105f7400ee5900001e8c000041ae000069330000a1
:105f840077ad0000ec9c0000651a0000dcbe000048
:105f940062cd0000ea55000033670000af9c0000aa
:105fa40035f30000d41a00006e9400005171000013
:105fb400a4ee000019dc000074500000120d000073
:105fc400bcbb00001bd80000965900003da3000094
:105fd400ab2300006dfa00000cf500004db3000087
:105fe4004d8d0000d3cb000097cd000058d50000a4
:105ff400b96b00004fcf0000ced50000e93300009c
:106004003acc000052d20000422b0000807e0000f7
:1060140099550000a15e0000dade0000b10a00001c
:10602400d89400009931000073d70000aa950000ad
:10603400bbb900004151000027a80000083300004c
:1060440015420000439a0000484200008ad0000034
:10605400e25d000050a9000009d800009639000054
:10606400b33b00007bf70000aa990000553b0000f9
:106074002ad40000a66700008a380000a586000024
:1060840075ac00009cb900006bd7000099ae00000d
:106094006dab000066750000a6870000a4960000a2
:1060a40085740000a4970000ee390000d56100005b
:1060b400925a0000d631000063e60000ca95000041
:1060c40020e70000b7750000b0c1000032290000cd
:1060d40096f1000001480000d20700000d6d000099
:1060e4009d38000073f70000cca90000355d000066
:1060f4001d770000babb0000b6f50000a444000000
:1061040002bb0000f4ed0000caed00001de5000034
:106114002b4e0000ed5e0000bef20000e49900008a
:1061240099990000c0a600007a4a00005af90000bc
:10613400f43d00003b2b000095930000db81000040
:106144008ddf00005dbb000056af0000ec4c00008a
:106154000f53000061820000998e00006cac0000b7
:1061640032720000d1000000ec1f000024de0000a9
:10617400bdb3000067cf0000ee1d0000a7ab000018
:1061840076ad00009a590000be3a0000d5540000d4
:1061940049d00000384c0000313500007cda0000a2
:1061a400ca550000b3cc0000db4f0000ad9a0000dc
:1061b400d5de00005d310000634600007845000034
:1061c400e9ea0000e5ee0000c6ce000033760000e8
:1061d400eeb90000bde7000036b0000081df00002a
:1061e40051e90000c6a4000084180000074700001d
:1061f40072be0000105c000010640000c131000099
:10620400601f0000f82c0000300d00009ce9000025
:106214009ed1000096d9000056a900002aa80000cb
:10622400586c000026e8000062dc0000da39000047
:106234006b95000015b000006fda0000d5be0000b9
:106244007be60000ac150000e1a600002d5d000017
:1062540065660000c6ce0000cb7700009de9000013
:10626400ec5c0000b1070000d87b00005b950000e7
:10627400c986000014810000a0960000b41000003c
:106284003ccb0000c2120000233000004eef00009f
:106294009cb900007be70000ecde0000ddbb0000e1
:1062a4006fac00009e110000b6bc0000fcac000006
:1062b40088a000006290000089800000a1610000b5
:1062c4001a30000028b20000a69f00000616000045
:1062d40063bb000056740000a7b50000326d0000d7
:1062e400e90c0000733500004d6900009f51000067
:1062f400995e00005a7e0000faf4000099db000069
:10630400b33b0000b88d00008d910000c341000034
:1063140050100000ca110000000f00007482000039
:10632400fb2a00008c9b0000ee9e000001f500009b
:1063340053f70000ae590000bdbb000032ac0000b2
:10634400b5f20000060b000068cc000019e800005c
:1063540055970000a96b000067ee00009ed2000074
:10636400336b000065570000599b000087910000c3
:106374009b620000ca740000d520000095d4000080
:10638400f69500005d6d0000c0260000fee90000e7
:106394003bc0000006270000a73200006848000048
:1063a400cd18000032060000093500001fa50000ca
:1063b400db070000b4030000d8d5000003f600009a
:1063c400f5760000df9e000075e30000f49a0000fb
:1063d400cee00000cea90000228a000002a0000046
:1063e400d915000041a500009655000077ee000085
:1063f40075cc0000e83e0000bdc60000ddc400000e
:10640400b8a900004a3100006dba0000899200006a
:10641400b17b0000d90a0000a01b0000a6ef000019
:106424003ab30000676600004705000087320000a9
:10643400c8ed0000caf00000f95f000050d0000071
:1064440080ba00005702000090c2000006d8000085
:10645400191200006c3800000b4c00008f7b000008
:106464004edd00009d7a000067cd00008a8a00009e
:10647400b2880000693300009c410000a5110000af
:10648400b0230000ab18000074fa0000d45d0000d3
:10649400cfc70000efce00009c0d0000770f000076
:1064a4009ee40000ba44000023c40000d8c80000e1
:1064b400c5b400006dc60000aacc0000901900000d
:1064c400dbef0000d69800002815000073a200003e
:1064d4000ca00000c032000012a300000064000001
:1064e400d200000094640000181a0000ee8200003c
:1064f40046360000f6ac0000da3b0000fb6c0000fe
:10650400f6ed0000bd3900004eac0000ab140000f5
:1065140019400000a313000040c7000017bf00008b
:10652400d9bb0000ecde0000db77000067570000f9
:1065340087860000b4ae0000110a00007136000026
:106544005674000009090000499f0000569100009c
:10655400915e0000de5e0000094c0000b61c0000e5
:10656400e8250000004a000024800000cbb30000ae
:106574001bc000004a6e0000d5dd0000b3670000b8
:106584004e760000779c0000ed6c0000ef70000078
:10659400752e000065830000f4c80000058d00001e
:1065a400a69e00007afb0000eeee00009ed50000df
:1065b40033d300004d9d0000c5920000443b000011
:1065c4008c9500000d1500005593000067440000f1
:1065d4009a840000949600008787000074a4000049
:1065e400ad640000554400009ac00000460000005d
:1065f40045250000f8f80000ade300006dd0000070
:10660400002400006850000066770000d5aa00004e
:10661400391d00002b2200008dcb00005521000005
:1066240011230000a0e80000b20c0000d8240000f0
:10663400887000004931000076090000ad70000048
:10664400317300003651000034120000522e000055
:106654006d070000362200003b4c0000435300004d
:10666400ca2300005238000040c300001a5800003a
:106674004c070000f7f40000c04300001e85000032
:1066840067ce00009e5d0000bb6a0000f7aa000010
:106694009d7b00006e01000013cd0000ae0e0000d3
:1066a4004b2300005315000068b400000b1a0000cf
:1066b400b7b5000065ba00009b2800003927000028
:1066c40067b40000cd3600000e74000033530000a0
:1066d400543600000e2a00002b070000d6be00002e
:1066e400ab5400001dd30000d2ca0000dbb9000087
:1066f400d19a000000f00000a0870000254f0000a0
:10670400a1ad00007b400000a13e000073f5000035
:106714008a9500003b6f0000ac5c0000b9ab000040
:10672400a2ca000054180000366e0000a31800002e
:1067340012d200005e2e000002540000579c00009c
:1067440091d60000119600001c660000aa680000a3
:106754006c9400009a9a0000dad10000b1b20000f3
:106764003d220000b8ad000063c500006a6e000061
:106774001c8500000ca400005b0600000c34000023
:10678400a39b000077df0000dcbd000003ec0000e9
:1067940088750000ed5e00007db2000073e7000024
:1067a400aaee00006916000082420000b0d4000086
:1067b400eaec0000b662000037a800005551000062
:1067c4001292000056960000d65600006622000081
:1067d400646400005c560000563e00003333000041
:1067e4002d7d000076c70000ced50000b7ce000096
:1067f4007261000014330000d04e0000242c00000d
:10680400f5170000810600001fcf0000eed900003c
:10681400d3d10000bd7b0000f5ea0000d5150000cf
:10682400b3760000b47b00000bc200007be40000e0
:1068340046650000ad770000b28100003a5a0000be
:10684400d2430000cbc20000dadc00009c850000cb
:106854009c9c0000d38100009dc900008ad20000e6
:10686400997b0000806d0000e0550000bb380000fb
:106874009172000029dc00000ed80000d42d000025
:10688400887d00000c3c0000f4780000e6ee000077
:10689400eaea000059ab000067cd0000ca5e0000c0
:1068a400b6a200002b1c000061ba00005271000067
:1068b400d8c90000bbe10000c1ae0000cb57000006
:1068c40085a7000085cd0000107600005652000018
:1068d4000e4a00004f6f00009f3e0000a3a300007b
:1068e400e3f400009d9e0000d2f600000a6600005a
:1068f40094e4000087d200003386000058f40000be
:10690400faee00001ef0000070f50000dd950000b6
:106914001d950000ab660000cd680000afe80000e4
:106924004a55000087990000aea800009ce40000ce
:10693400dd720000fb5c0000e78a0000d5ab0000bc
:106944003a330000ca5700000a0700002b1b00005e
:1069540025850000b8b60000ceec000058350000d4
:106964006be50000992e00009352000055160000bc
:10697400f0f40000ac22000072b30000113a0000f1
:10698400fb01000001490000c01800005d71000017
:10699400faec0000de530000bb6700001f9f0000fc
:1069a400d50500006c620000997700009a8a000007
:1069b400c1060000418400009a220000a79b000049
:1069c4002c790000bbef000054cf00008cce0000f7
:1069d400b48e00002ca5000060650000e5560000a0
:1069e40057630000e76900009533000057ed00008d
:1069f400da1d000025ac000068c800000ea90000e4
:106a0400ed840000e0fd000053780000ea870000f8
:106a140058700000143400003f730000facc0000ea
:106a2400dedd0000abbb0000d7ac0000ae9e000072
:106a340059b500003c6a00008a3900007cd400008b
:106a44008c210000a1a600005943000069db00006e
:106a5400bbbb00003d2b0000abda00006644000025
:106a640088a40000180b0000a7a6000097bb000034
:106a740096ae000058bd0000ba7c000045a5000099
:106a84009912000030bd00000bc20000fb9300000f
:106a94005872000015300000c5400000c21d0000ff
:106aa40018a500007b760000ee9e0000be260000c4
:106ab4006366000049160000c2f400008033000041
:106ac40051a90000c2410000b7ee00009ddd0000a6
:106ad400d3990000de3e0000c33400002d580000ae
:106ae40039b400007c46000046f90000b4dd000023
:106af4009de6000021ad0000ab2b000056720000a3
:106b0400a224000019140000f38d000095950000e4
:106b140095820000a0030000ca670000569f000091
:106b24003abb00007af50000d63d000015110000c4
:106b3400d33400005d990000e0a6000037be0000d9
:106b44005dbb0000384a000020e90000f6dd0000cb
:106b5400bdbb0000ba22000042a6000076a70000d8
:106b6400aaa4000094b5000057b40000ef9c0000f4
:106b7400e35c000099be0000fcee0000d9bb0000fd
:106b84003c600000c305000020e60000a3160000de
:106b940068c60000c6c6000046970000ef42000029
:106ba400e60a0000cedc00005dbb0000fcce000065
:106bb4005d9f0000a96b0000a29400002a9c0000c5
:106bc4001919000060090000bef10000ee5e00002b
:106bd400e5b700009e4600005bef0000adee00004c
:106be400c8ad0000f0dc000056eb0000aaec000089
:106bf400d236000063e60000cc2a000097b40000ff
:106c040096590000bb7700009fba0000cb2d00000e
:106c1400049e00001a4600003615000014130000fc
:106c2400c0400000370200004d8b0000825a000073
:106c3400e977000077df0000bd3b00007bf900002e
:106c4400c9d9000029c7000067cc0000e9d80000ba
:106c54005ddc000025cc0000c0900000ac0a000000
:106c6400317d000062f60000d6c600009777000070
:106c74002582000077750000a79600002eb300005f
:106c8400dcda000091a60000e294000016e60000a1
:106c94009ad20000be630000e7ec000019a70000d0
:106ca40077af0000018d0000132800002aa1000026
:106cb40014640000d0840000099e0000aa6900004a
:106cc400023b00007de70000ddb300005de9000049
:106cd40015370000e7740000a4150000cd5a000029
:106ce400e6190000a4c20000c81000000c6c0000eb
:106cf4004943000086c100005c260000dfba0000a2
:106d040017ed0000146a00003abd00006d79000020
:106d1400fb8a0000956500002a4600002ea10000b1
:106d240065330000404d000091dd0000ab810000a0
:106d3400899700000b3d00001e05000041c90000ba
:106d440013040000818600003bdf0000b87b0000d4
:106d5400163a000090df0000553e000073760000f4
:106d6400a6680000d2f400008c0e00003365000019
:106d74004101000017170000136300006170000058
:106d8400a234000098b100007755000087a90000e4
:106d940052d200009a8a0000155d00006dab00001d
:106da4003354000094810000f56a0000e7ac000051
:106db40099a0000041fa0000eef20000760e0000f7
:106dc400700000002b1b000041a60000862100007b
:106dd400e64300003c03000014da000072f70000f0
:106de400ee1e000090e30000cfde00005dbd000059
:106df4002aa300007d770000a6480000527a000014
:106e0400c43200003721000060830000c3d90000b1
:106e1400c4d8000004e4000074060000839d000050
:106e24005e260000ce2a0000c09e000078d6000036
:106e3400aeca000036f7000074150000a3b60000c7
:106e440019b3000066560000ac580000b96b00008e
:106e540017a8000028e00000844c00003bc3000099
:106e6400e63e0000e10000009cbf0000dedc000004
:106e7400ddd30000019e0000463900003d6b000098
:106e840076d900008ece000019a60000612900000a
:106e9400196d0000e1c0000022c30000c8c5000055
:106ea400c5d8000085810000c15100008541000063
:106eb400618600009a220000a302000043e0000063
:106ec400ec950000ab660000769a0000569800002e
:106ed4002a960000cde800006c4f000007f6000081
:106ee400dd560000cf3c0000bd67000016270000ff
:106ef40038e90000a19800000ba5000085040000fb
:106f040027dd0000bbbb000066c600009dbb00007f
:106f14006fef0000de9d000059590000d971000098
:106f24007a660000c7ce0000b9c60000291d000023
:106f34001c100000d34d00008049000047c1000030
:106f44008d5100006087000008830000803300003a
:106f540093620000d9ac00008e19000011ce00002d
:106f640069ca000086a5000065e90000ed3b000049
:106f7400bb570000ad020000b6c8000066ce00009a
:106f8400e2800000a643000041e400001624000053
:106f9400786a00004f490000e83a0000304c0000d5
:106fa4005681000066380000ee0200009b8a000053
:106fb40033570000af5e0000757a00008e4a00006f
:106fc400523a000023300000fd820000dc1e000065
:106fd40002340000bd9300004960000089250000d0
:106fe400834300009aaa00006272000079e4000062
:106ff40094aa0000f610000021830000d4b200001f
:10700400f2b200009dc00000d6780000f9cc000068
:10701400f28e000099e0000058350000328600002e
:10702400374c000091f30000e9ed00003d3b000007
:1070340081090000fdee0000aa3b00006fcf0000b4
:10704400ae6e00009f3100006bc70000ac19000059
:10705400ab2c00009254000019800000ad01000028
:1070640063a00000db83000081740000aab000006c
:10707400509300008f900000c34e00000fa7000043
:10708400d4b600009ed60000993b0000dd45000008
:10709400144a0000cbcb0000cb570000aede00004a
:1070a400d5d5000091510000d63e0000830b0000ae
:1070b400986500008c6100004059000009d500006b
:1070c400f4b90000eda00000c99900009367000026
:1070d400dfcd0000bddd0000d5d1000091d500005a
:1070e400d1be0000c2d300004918000034220000c1
:1070f400ea02000074bb000033300000cb1a000029
:10710400b83a00004dcd0000524d0000dc3d0000b7
:107114002bad00006de50000ccce0000e5ab000017
:107124003345000014da00002aca00006774000026
:10713400029b0000d8ab00003a3b000066960000ba
:1071440071420000cc56000006d90000a16c00007a
:10715400841a0000b7370000817d00003b60000006
:1071640062bc0000737700009d5a0000cbde000073
:10717400dd550000ede90000c05e00009c31000018
:10718400a857000002720000bbb1000033b3000036
:1071940080b0000042ca0000b48e000093150000c5
:1071a40069330000ee5400004edf00003eb30000df
:1071b400eaf800009a2a000011830000b699000042
:1071c40033560000cd06000096c10000ab760000e7
:1071d400cfda0000d5c9000006cd000094a000005d
:1071e400440900004e970000e0100000879800005a
:1071f400be7300000d30000039ce0000be7d0000db
:10720400f78e0000b7b10000f1c90000dd330000c3
:1072140097750000cecc00007455000016020000e3
:10722400f5c600009d410000a68b00002828000040
:107234002b4c0000db99000055b90000aaaa0000fd
:107244007cd70000aa8e0000e6150000b37600008b
:10725400cd7400005753000098ba0000ba03000030
:1072640098d8000077ad0000de79000076cf0000ea
:10727400ee5d0000e01100004323000023680000dd
:10728400928700009a0e00000e17000025a500004a
:10729400a5c0000040bf00003bf30000ceda0000b0
:1072a400bb620000820200004b5600007501000022
:1072b4007b71000011c600004ae0000022c60000f5
:1072c400d915000068ba00008a80000071500000df
:1072d400eba9000039c70000cf5400004f5b000049
:1072e400b53a00007cea0000a9330000dd6d00001f
:1072f4006e160000864b000057030000fbf60000ea
:10730400bbee00009e5900007d16000058d7000017
:10731400f02000000c330000829b00000fb6000038
:10732400c2480000b908000014ea00002b6f0000f6
:10733400cf3d0000050c0000e129000033bb000034
:107344005c4d00008055000083320000683400006a
:1073540099310000c4c5000019640000ba9200000d
:1073640073cb0000aabb0000abce0000aed9000076
:10737400d97e000027fc0000e4e90000b3350000da
:10738400d3d20000340d00004a570000ad9a00002b
:10739400317300001530000037ad0000deb5000089
:1073a400672600003b6800002a1b00009a5c00006e
:1073b4008ca00000d3c00000300f000014ee0000c9
:1073c4000636000036ee0000cc4d0000cf0400006d
:1073d4008645000069bb0000aa320000b0c9000065
:1073e400093600005d00000058ce0000008b00004c
:1073f40009150000c1440000b3cd0000abee00004d
:10740400f6de0000ddbd0000b6180000e8e0000074
:10741400bb7b0000f6640000cef0000004360000e0
:107424008c330000da670000cc9900007d7a0000fc
:10743400d6290000a0000000306f0000384300008f
:10744400dba8000042200000738d0000c07900001a
:10745400176a0000fadd0000bb2b000081dd00008c
:10746400b11500006ac00000946d0000922600006f
:10747400acac0000a86200006c02000076bb000007
:1074840080130000d8740000814d000019ab000087
:10749400daef0000745f0000dbe30000b565000074
:1074a40065e50000ec3b000055a70000b2ba0000ff
:1074b400220c00004d660000cc5a0000396b00001d
:1074c400e78d0000b3d50000a5c0000024c1000072
:1074d40023a80000882800006060000083f90000f1
:1074e400c0040000043200003ff100006c570000ab
:1074f400c7c90000bb730000d41d00008155000003
:10750400bb910000aa9100009092000032b00000ec
:1075140078010000978d000060d300004d14000036
:1075240093560000eeac0000babd000066e900000e
:1075340059d50000153b00002aba0000666400001b
:107544006ceb00005e5e0000a118000092d6000003
:10755400be720000d79c000015b70000cf9c00004d
:10756400597d00007a2f0000a83d0000034b000065
:1075740023d00000725e000010120000034a0000d5
:107584004a8e00007b3b0000cb770000dc9d0000ae
:107594006d220000c0240000001e00002a570000d5
:1075a40034720000819a00001e6400000a0a000080
:1075b40043c1000084590000bb7200004eae0000bd
:1075c400493f0000ddb90000bb6b00007aa6000053
:1075d400b1f20000f5d9000019d300009452000064
:1075e400cbca000080550000f6ae0000d3bb0000fb
:1075f400cfec0000dd7500001652000037210000ba
:10760400cc8700006558000070640000ecad0000f9
:107614006a3f000071b7000046080000d44500002e
:107624005014000032120000523400007236000080
:10763400869a00006e020000329d00003171000045
:10764400f7ea0000ae5d00007bab000056ec0000e2
:10765400da5500005db10000d3dc0000e9640000ed
:10766400b57300009b9100004b5900001bb0000053
:107674000fbe000073f60000aa990000a76700007f
:1076840075420000c7df0000059100001d0f0000d7
:107694004d4500004641000067bb0000db6f000061
:1076a400df8d000062620000608000000e3b00007d
:1076b400c3dd0000ee0400004e5b00008cc500003a
:1076c40067560000cddc0000096c0000a6ed000048
:1076d4005ed90000beba0000b2b300007dd700003e
:1076e400aa9200000ea30000d4f60000f295000058
:1076f40033bb0000a6cf0000ae680000df9d000091
:10770400d1ce0000c5c80000c0880000dc5c0000c9
:1077140042320000ddd80000e9ee0000d9ce0000be
:10772400bb6700002d40000095340000b4840000c5
:1077340070760000819800006e0800004c3d000047
:10774400c6ca0000822100001dc000000ed900003e
:10775400aa5d000099a70000669500004f5f000035
:10776400d55d0000b6ba0000b3bd00005da5000001
:10777400a423000063450000c7ec0000194000008a
:107784006b2b0000db670000728100002a180000e8
:107794000101000084f10000b086000013300000f5
:1077a400ac0c000041f50000468f00002a330000b5
:1077b400a8490000270800002e83000080b10000c3
:1077c4000a9a00009f61000050000000bb9d000069
:1077d40029a0000062d70000acf00000592b000083
:1077e4003b570000aeac00005a7e0000db2b0000cb
:1077f40065c50000cace0000768b0000b2f200001e
:107804008e8e000019bb000056af00005a750000b0
:107814000a6800001907000068a0000007d90000ea
:1078240074780000af4f000051c9000011540000eb
:107834002d790000281b000031430000d292000083
:1078440091b2000022c8000074500000923400007d
:1078540074060000874c000021300000fa54000038
:107864006702000033cf0000a9ce00005567000076
:107874002b570000b6ad0000ec58000019d90000e9
:10788400d60e000032fd0000f4ac00008e9500001e
:10789400a7ba000052d9000020d3000056480000c7
:1078a4005d540000d878000024c40000f4bd00003a
:1078b4006e46000053c5000021ed000029a0000021
:1078c400e92000003341000045810000910b0000d5
:1078d4002851000029960000cc3c0000bd2b00007c
:1078e40062d70000ead900003bd70000b49f000033
:1078f4009a530000bebc000063660000c6cc0000c2
:107904008af6000032600000e1b8000072e700006f
:10791400aa5500009dbb00005679000000fb000042
:107924009e82000028010000af880000303d000066
:1079340008d8000095ac00003109000059a90000e6
:10794400064f00004d460000c62e0000c660000031
:10795400b7830000d28c0000b2630000faf200008a
:10796400dd3b00007ab600009eee00005ad900000c
:10797400d37e0000aa660000daca000099ab0000ba
:10798400229600009555000094770000cc58000022
:10799400d9d9000059310000b363000066450000e6
:1079a400385200001b18000032d900008c3400004b
:1079b400da1100000c6c00006345000098b400006c
:1079c4007645000028c1000027e4000080a60000de
:1079d4002b0300004d770000029b0000eed4000052
:1079e40059ba00006bd50000eee20000935d000080
:1079f400c0c200001c5800005d9c00005e5d0000d9
:107a0400159600005ad90000de390000b363000067
:107a1400f9ea0000ca34000057600000e2290000bf
:107a24006743000009110000f09400000aa400005c
:107a3400080300001249000077ee0000ee0d00007c
:107a4400739e0000be3200004b1900005c2500004c
:107a54002a0b0000824b000022500000d0180000c6
:107a640041dc00009e560000b6b20000fb6400003a
:107a7400eb9a0000ae5d0000abbb00005654000062
:107a8400a59d00005a9d00005d520000be06000046
:107a9400d89a0000292f00005d350000333d000016
:107aa4000d180000bbe50000eca000002e2900002a
:107ab4003c680000e0f500002bb80000fd51000018
:107ac40078fa0000ce5a00009794000055ab0000ed
:107ad400cc800000b9140000584200002b0b0000b9
:107ae4000a4100002a000000484900000054000038
:107af400113c000063d600009edb0000113b000037
:107b040056ed000006760000f2ca00002b4e00007d
:107b1400ec8e00000c5b0000baa7000075060000a4
:107b2400b0ee0000689f00003523000023350000fc
:107b34002dbd00000cea000076a80000f9e000006a
:107b4400669f000011b000002803000061a500003a
:107b5400c63d0000b72b0000c3960000eeca00002b
:107b640014060000176c0000c6420000c0f20000ba
:107b740000580000bcc000004d170000328c00000b
:107b84005c3600006df50000aaf00000ab9d00001b
:107b9400b3570000551c00000f2d00003db5000038
:107ba4007769000046eb00009cf60000955d00003c
:107bb400d33b0000dbbb00003a3a0000d343000093
:107bc400432a00003804000061cd00005470000016
:107bd4008c42000006db0000a1650000e4e4000024
:107be400ddbb00007392000057770000ba29000043
:107bf400090100005d6e0000a40c00009ada000088
:107c04003136000076510000065600007d8e0000db
:107c140060d300008bc20000cbcb0000777400005f
:107c2400cd3c00005eb50000a3ab00007de5000084
:107c3400ea6d00009dab0000b7b900002ddd000027
:107c44003bad00006bc60000ccf600005dbb00003d
:107c540067ad0000dcbd0000abbd00009d1b000053
:107c640039bd0000c04a00001b680000fdd40000bc
:107c74007eea00004ec40000f48e000048150000a7
:107c8400a0d30000c1590000135400008e0100006d
:107c9400dd0e0000361d000018f00000c03e00009c
:107ca400d28a00008c150000ab5600006c0700005f
:107cb40046e90000f4950000bb570000adee00005b
:107cc4009e19000051d2000031bd0000aba300009a
:107cd40062c60000cc950000ab570000cdea00005e
:107ce4005ab500008b1700006baf0000090c0000b0
:107cf4009c5600009f790000db3500006ba6000055
:107d040019a800009d660000044a0000de6000001f
:107d14006f21000099ae0000549a00003663000001
:107d2400e7ec0000d9bb000057cd0000ac5c0000bc
:107d340031b300006bc50000ac8e0000caac00007b
:107d440090d4000019400000b7af00005ab50000fd
:107d54006a350000b0a000009cb500009a4b0000fa
:107d6400117900007c190000a5c10000e174000035
:107d74007acf000099d900009dee0000c096000063
:107d840097310000c87800002145000061450000db
:107d9400456000008a040000b60a000080e100008b
:107da4000e3200005d300000a8620000c5a900008a
:107db400ddc0000096510000c7ce0000595d0000f0
:107dc4003b4e0000cf9d000011ee000096e2000043
:107dd400d1d1000009ec00000caf0000ea6a0000f9
:107de4009fb10000aa630000d64c0000767000002a
:107df4006063000075bd0000d1f60000eed4000001
:107e040095e90000c2820000a01c00000aac00003a
:107e14004f0400008d4000004c900000e942000037
:107e24000c46000010d300001d670000eed80000cf
:107e3400b3720000e5ca000055ab00004eaf00006d
:107e4400295f0000beaa000073b6000069d90000d3
:107e5400f4c8000019a0000071d6000055c000004d
:107e64004ab5000073c60000ac5d00009cc8000069
:107e740003600000b0720000006a00007c4900004a
:107e8400a4710000b0b20000202800009583000017
:107e9400cd3200001256000000990000ae2c000004
:107ea400a4c40000600800006c710000282b0000ce
:107eb40031060000ae5c000031ab00006b06000030
:107ec400b0c70000be7a0000f58c00008cea000008
:107ed400e5d50000292b000056470000ae5c0000e9
:107ee400b51a000018070000a7760000df3900006b
:107ef4007b670000cf2c0000585f00001b3e000091
:107f0400f6860000ec78000055f000000015000033
:107f1400a43600001712000074160000565000002a
:107f240002d600001f400000d319000021a6000063
:107f34000b1a00006cef0000e85c0000010c00006c
:107f440085590000c0ba0000a2630000e59a000051
:107f5400aad60000ce99000066cb000077af0000df
:107f6400065700004da70000cfec00003ebd000006
:107f740006d4000006060000166100008ab0000066
:107f8400820000005ab40000435b00004d820000f0
:107f94008cb000006e08000030c50000380b0000f3
:107fa4000b8000006357000009d80000a47600008d
:107fb40001d10000828e0000cb660000eeea0000d2
:107fc4003833000073160000b03b0000d0510000ad
:107fd4003e630000755700005b640000a7fa0000d0
:107fe40032500000e9bb000073cf0000aadd00009e
:107ff400bb570000af020000cf1d000020010000ad
:1080040021700000ba800000359d0000c08300008c
:10801400c3100000a6b00000a29200008b30000044
:10802400383b0000017d000021a40000e0020000b4
:108034009a100000100c0000dcb900002abd0000fa
:10804400754d0000f7ca0000cc9d0000b32a000063
:10805400d3760000eeaa00009e16000055e1000051
:10806400be0c00003483000071ea0000f4ea000052
:10807400593b000077cd00005ac50000891a000062
:1080840018e00000424c0000d90800006aa6000075
:1080940012b4000054000000557800004a2000008b
:1080a400d3410000216300000cea00009a9b000009
:1080b40080070000021300003b320000cd8b00005b
:1080c40066570000cec800003cd9000055ee000001
:1080d400befd0000745500005b45000097c9000018
:1080e400326000004b6c0000cfaa0000db67000088
:1080f4007603000093e400006c2e00006842000048
:10810400411f0000a3810000996e00000466000076
:10811400012b00003c6300002317000026a0000090
:10812400e92e0000a040000002fa00000314000041
:108134005482000049e90000ed5d00009d5b0000f1
:1081440067ce0000ccd800003ea700002d620000de
:1081540079570000456900007b97000049eb000057
:10816400aa9900002b7700009d0600001abd0000ac
:108174000758000083700000800a00005d210000a1
:1081840025410000a4a100000290000091600000bd
:10819400672b0000838d0000377600000625000061
:1081a4003f600000c1630000c2a4000000b20000f0
:1081b40007680000ae80000022d000003aa0000052
:1081c400e9930000334a00006faf00005dba00007d
:1081d40072750000c5f40000d9e50000963b00006c
:1081e40066a50000b7a70000542a0000b7ce00001f
:1081f4009c0900004ca300005d3b0000cfec000094
:1082040059bd0000b2930000035100000cc00000ef
:1082140062c00000c8180000da9f000084b40000a7
:108224002e810000ad6900001770000003c3000038
:1082340084510000116200003a300000aa4100009d
:108244003d4a000045c10000e6cc0000f65d000098
:10825400a72b0000dbd6000000cb0000ad4e0000d1
:108264008e9d0000ab3a000033820000aa45000056
:10827400a7010000abf1000055a70000815d0000dc
:10828400f3d300007b3a000077c00000477f000072
:1082940084c00000c31b00004290000060870000ff
:1082a400f6160000a0b60000005d00000f4a0000b2
:1082b400f12a00008c400000272300009bae000040
:1082c400d4d60000d1b10000fb4c0000f4d2000071
:1082d40055b3000057cc000098e10000de3c0000dc
:1082e400bb25000032250000443400007506000060
:1082f400b08100007d770000cdac00005533000054
:10830400679c00005ec50000c3c0000000000000c0
:1083140063600000e9610000d8cd0000c0c0000027
:10832400b0480000c055000073990000a186000009
:10833400d3e90000289d0000e4750000c506000094
:108344002d9b0000a6840000aefd0000be37000097
:10835400f2dc0000ae6b000036cf0000ffff00002f
:1083640067200000192800008494000055cc000008
:108374009c390000ab220000ccc500005959000014
:1083840050500000102400006424000044ba00008f
:1083940031b800004def0000009a0000de1100002b
:1083a400eeea000062ac0000a424000024c800002f
:1083b400c8a00000604200003dd300000542000058
:1083c400ca3b000066ae00005ad50000991e0000aa
:1083d400ea6200006c640000ac2c0000c4c8000019
:1083e400e0640000a24400003dd3000083cb000001
:1083f4003b560000004d0000af4800000f35000060
:10840400310e000031330000165200000c3600001b
:1084140015a60000b6e90000b33a00002ac2000025
:108424005c9d000053d30000535500008d520000a2
:10843400dc94000019a90000663c0000c4f40000ac
:10844400559d00001de90000a12100006d150000ec
:10845400e56600004e690000ae700000d305000020
:1084640005a10000114d0000360800002a03000099
:108474009b0e0000727c0000687b000047470000f0
:108484004448000099ab000031c40000744500006a
:108494002365000025230000604c000013e5000064
:1084a400131c00008a12000021a60000831c000097
:1084b4009f0a000034bd0000222c00002dd40000cf
:1084c40004a4000054d00000c8c50000d9c40000b2
:1084d400180400009488000048430000024c000087
:1084e400d8c5000003a10000a6cf0000eae8000000
:1084f400486b00009f310000b3330000bd3c000016
:108504000c9c0000248d0000425c00005d420000d1
:10851400425d00004c8c00009d8d00009518000009
:10852400f13900000f6200003a8e000094e0000070
:1085340058d60000b172000016c40000f8f4000020
:108544008e990000b366000076740000a4bb00009e
:10855400824c00000f0e00000d0d00004d050000c0
:10856400e25000005717000065480000d8e30000ff
:10857400701e000018280000624f0000090200006d
:1085840086650000e52b000057810000416700006c
:1085940005380000e577000094870000a90000007a
:1085a4008d4b00000e0d00004d4b00000f4d0000e0
:1085b4004d0b00000b8300009a8e0000cbf30000eb
:1085c40060600000648c0000dd740000c59400004d
:1085d400b2190000ab660000424200001e640000b5
:1085e4003a280000845c0000950500001553000043
:1085f400d3d20000da330000d2ca0000cad300008c
:10860400c25c000020f10000aac800008cc7000072
:108614007463000013ac0000b28200004ac1000081
:1086240020d3000067ce000004e200008e0e00009c
:10863400902f0000803100001b6a000062e20000fd
:108644009c96000036bd0000b3a20000bca300004d
:108654001c180000c9100000d38d0000709b00009e
:108664002ea00000e86c000082d5000067820000a4
:108674008ace000069ed000020d3000081a0000034
:10868400136c00007a670000476700005868000018
:1086940048680000daf40000599d00001ded000058
:1086a4001d150000e96e00002ae000008051000062
:1086b40030c600006dba0000a09100002b560000e7
:1086c400b70b0000082a000019a70000cc800000a6
:1086d4009a3e0000136c0000faaa000099a0000062
:1086e400a49f00003a63000015d00000f40e0000bf
:1086f400603a0000856600005d430000ec7e0000e7
:10870400075b00006c1400009cea0000862e000049
:108714002b0800002c100000050500008d8c0000c3
:1087240083cb000057ce0000ec000000870d000052
:10873400c474000060d8000094a70000b5ad000028
:10874400029900000ef400004eb800002b24000033
:10875400609c0000719b00002e6000001c9a0000c9
:10876400e68600009629000004c00000f91c000001
:1087740068ba000073d900008a9900001d33000014
:1087840080a60000cf9a0000b9720000d56a0000ec
:10879400b0e300003bca0000a7830000e899000092
:1087a4002b670000568400009940000002c60000b8
:1087b40005770000c808000038e10000325d0000c1
:1087c400116800007ada00000c5000007201000009
:1087d400a697000099ab0000768100004c070000ca
:1087e4003a7a00000634000095020000ab15000040
:1087f40048c0000038e10000315d0000c1380000cd
:1088040035150000b7e90000616d0000c0f80000f4
:10881400eb9c0000013300007dd600002ca000007a
:10882400e1bb0000a0a60000774000004c17000048
:108834007031000071660000c16d0000ba4b000089
:108844008a2b00005a660000555000005282000036
:10885400b9bd0000ad030000983a0000208100007b
:10886400be1b0000642400003084000076af0000ca
:10887400dabd00007bf70000ead50000b33a00003f
:10888400dc200000b5a100008bb100000b2b000020
:10889400ce900000513200000e09000043f30000a6
:1088a4009982000091920000a0a2000092120000a0
:1088b400c8f40000b28e0000f20a000070560000f6
:1088c4005ab500006b37000038d50000acdc00005e
:1088d4000d060000a7570000cfaa000050050000b5
:1088e4003bdd0000c8d8000038040000b7e90000f0
:1088f4008246000021a1000068a600002b1a000097
:108904001b0b0000820c0000079a00009ed600009a
:1089140056de0000dede00003103000064fa0000d1
:1089240069700000bcee0000da7d0000670f0000f3
:10893400c4f400000c61000046b00000766300003f
:10894400e75000009ca6000033600000375d000083
:1089540049490000196c00007a5800006939000088
:108964003064000040410000b3eb0000f6ea000070
:10897400d5400000b37700009fb900007b170000ca
:1089840064fc0000ea590000ee42000020c300002d
:1089940081e10000e71200008a330000dc8100005e
:1089a40079350000185d0000d610000068ba000098
:1089b40091b2000031d80000f4d0000072600000d1
:1089c400fe2f0000031900000f3200001d68000094
:1089d400ec5d000020b80000b3fb0000ccea00000e
:1089e4005966000082a00000e80700007a31000008
:1089f400048f0000e90c000040d30000d1620000a5
:108a040015e4000076700000ede00000921a00000a
:108a1400066c00007674000054a4000082c20000ba
:108a2400e6ce00006a70000088df00008580000048
:108a3400d55d00002ac000001c270000a4a400008b
:108a4400040c000018bc0000a63b000087aa00002c
:108a5400a29b00006ea20000e40c000074b90000a8
:108a6400b34b0000aa9b00004b2a0000b058000042
:108a74000f6d0000033a0000fe0e0000243e0000cb
:108a8400ef4000004daf000002360000a1140000ca
:108a94004191000013120000ea8a0000c77400002c
:108aa4000163000057110000541100002563000009
:108ab40060130000c3c40000d8c5000005680000ae
:108ac400ba710000487b0000466800006859000045
:108ad4003bd80000f4d3000040d300006f03000033
:108ae4008d7e0000fbee0000deea00000865000059
:108af4002563000060ed00006ae2000012860000b9
:108b0400df74000023170000b4ea000043c900002a
:108b140029d4000018580000bb01000041a800003f
:108b24009bb100007369000018b00000b628000073
:108b34005f01000036fd00002ec40000f477000041
:108b440040d30000dd8d00008d4300004d940000f3
:108b5400c0d200002ef800004c57000074460000fc
:108b6400355d0000c0c8000039cc000038050000a5
:108b74006cba00002bb00000767600000e050000f1
:108b8400d6a20000c0b20000f8d400009ed30000ba
:108b9400a020000001060000fcbb0000bbef0000a9
:108ba400f6cd0000025500007d6e0000c07000008c
:108bb400011a00008ecf00007460000030a3000092
:108bc40099ae00006c940000ea9200009a0600003e
:108bd40034dc0000d8c50000041400006d26000039
:108be400c6ae0000616d00002b770000ed060000aa
:108bf4009b7e00001b1800002e770000dfed0000b4
:108c0400ad4a0000038200003057000097140000b2
:108c140042a600001b1a00000bc300004d07000011
:108c2400656e000005650000a350000097d40000a5
:108c34007417000060ad00000f8c00005e2500007a
:108c440050be0000720d0000699b00000935000051
:108c54001d180000eaf70000debe00005b5b0000a8
:108c6400595e00005e9e0000960600000cb30000f2
:108c74003057000057bc0000a63b00009ac2000019
:108c84004d170000540200009bee000014ea00009f
:108c9400920200006cfa0000821a00002dc000004d
:108ca40036110000d0f900002e2e0000a53300007c
:108cb40080a60000035d00000d0a000075a00000fe
:108cc400eb5700005776000080ca0000fad4000079
:108cd400d472000060a40000e23500003d280000ca
:108ce40014660000ba8000009232000028a400003c
:108cf400948d0000525c000043320000c2800000ea
:108d0400a61b0000194300004a7a000090e9000005
:108d1400ab560000014d0000bf07000031fd00000c
:108d2400de2c000050750000589100001e56000013
:108d340056010000f20000003ed3000093c300007f
:108d440061e10000ae6000000c3600005d480000e8
:108d540031d5000035a4000022cd0000c544000038
:108d6400d948000059080000545a00001a3b00007a
:108d7400839a000007ab00004ebd00007df70000a1
:108d8400ee2e000038d80000cf410000eac10000f8
:108d9400f4b40000f68a000074600000f8b3000028
:108da400e1310000bdb50000d2940000111e0000a6
:108db40003400000d248000050310000c4240000e9
:108dc400b903000058e500002b8100007a0500007b
:108dd40060d3000043ca000056c000004c7f00006e
:108de400074a000032d000005a160000d8320000b2
:108df4000001000076dc0000860b00004c9f0000a0
:108e0400092a000090400000cd350000231700001f
:108e140015500000d34c000050300000c524000061
:108e2400a42300003d0c000068ba000011d4000027
:108e3400f4540000507d0000073200001d180000ab
:108e4400a3ef0000debe0000db0b0000ae4200001a
:108e54003a2a0000dac1000005f400000c4e0000bc
:108e6400dca600001bac00009c650000063400007a
:108e7400d940000099410000c1d9000015680000e4
:108e8400ba020000d0f4000010a00000e9190000ac
:108e940061260000c0bc0000280c0000361d000044
:108ea4001cec000060d30000df8100002d5800009e
:108eb400b37b000035a4000011050000023300005c
:108ec40067e2000031dd000061550000178b0000ef
:108ed40080930000728b00009b900000914b000077
:108ee40018300000dc05000080ce00000d010000f9
:108ef400363600002ad200004c81000069060000ca
:108f0400c8010000a67800009752000050850000b8
:108f1400771a00006e3a0000b0240000de0d000055
:108f24006a21000000dd00000dac0000ad56000019
:108f340071e1000036bd00006077000024a300004a
:108f4400615b0000fa8a00002a55000097d00000f7
:108f540050150000a8e900002e210000333a00005b
:108f6400cadd000080cd00005c65000048190000e7
:108f74003b0d000054af0000c24d00003f0700004d
:108f8400327d0000f54c0000b0c3000041410000f8
:108f940084db000074810000496b0000251400008c
:108fa4004b66000074ec00005a950000991a00000a
:108fb400162a000002ea000055080000404c000098
:108fc4006f0700006557000060e0000038030000f0
:108fd4006d9d0000062a0000daef0000bc8300004b
:108fe40082730000bb6f0000efdd0000bd1a0000bb
:108ff4001c300000abf0000099ce0000c820000037
:10900400b0750000ad7a0000d0f4000059330000c0
:109014008021000039330000a33c0000bddc0000c7
:1090240015d80000e41700000c760000499d0000ec
:10903400016c000093ba0000010b00000323000040
:10904400e7d00000d4b00000d4e50000a0da0000ae
:10905400ee2e0000ccf40000b5bb00006f9f0000b2
:10906400059900000ee90000fae00000319d0000bf
:10907400d1f10000e45a0000b7b6000095b3000037
:1090840056820000e3090000d44a000031010000c8
:10909400e6ad000014600000b1de0000d959000004
:1090a40001cc000028c00000c04900000366000095
:1090b400f995000040c70000de7900000b3700007e
:1090c400fdf60000edbb0000bbc10000c1be000006
:1090d40012a70000e9e000005e8a0000d3f200005d
:1090e40037eb0000da570000ec5e0000058e00004c
:1090f400a75d0000c09a00003e0d0000541e000051
:1091040007bb00009402000083340000332d0000ec
:109114002dd50000d439000004d80000e728000051
:109124005b05000034ef00002edc0000f435000085
:10913400c0720000783700002860000066ac0000b0
:10914400da850000c374000060a500002824000034
:10915400e8b40000e2d40000bb750000334f000007
:10916400ad01000096af00007781000041090000c6
:10917400ec07000000fb0000be820000022100009a
:1091840040d3000067cc000004e60000f234000085
:109194006079000006ec0000b04e0000df0500001e
:1091a4002e600000a0e00000de2a000090e900002c
:1091b40033c100008db40000ddb80000dc0e0000f7
:1091c4002cb900005397000003d30000c1ba00007b
:1091d400536f0000578300004c0700003a1e000044
:1091e400d88700000975000035110000520c0000fa
:1091f40005560000a7500000d34300004b3b00007d
:10920400d2cb000057ee0000423200001c64000084
:109214003ab000009c5f000005690000e5ec000026
:10922400c66100007a480000e98c000095b7000090
:1092340041290000e0ed0000396000006a030000ed
:1092440056950000a02e00000cd000003c13000036
:1092540065c50000b4900000b48e000019c0000081
:109264005002000076330000807500006a4500005b
:10927400c7ca0000db080000b38100001a760000b2
:10928400814d000007370000d080000029730000e2
:10929400d56a00006ca60000a7b40000af3a000035
:1092a4000d510000be770000d5ae00003b7b0000ee
:1092b40081ca00003bcb0000d3430000435d0000a3
:1092c4004c95000095800000452b0000d8f4000068
:1092d400b472000060410000058c0000815d000054
:1092e40088180000859800007ee60000ee5e00000d
:1092f40070db0000e90c0000b0710000737a00001c
:109304003737000016d300009b670000ee82000090
:109314002adf0000074c0000cbbb0000c10900009d
:1093240026d40000c4d90000d8440000d93000007d
:1093340035340000b51d0000687a00007a79000019
:1093440039b000002d33000063c60000ae3b0000be
:10935400c84e00007fb70000179400003aef0000e9
:1093640082da000093a70000ef9e0000053600009b
:1093740012f60000603300007dd20000aad700007e
:1093840070d30000f7ec000001b600004067000055
:1093940046800000bbb90000464a00008ac00000b5
:1093a4008ab400000c6800007a79000039a8000033
:1093b40018ec000058710000e62e0000bae9000025
:1093c400772000002db20000db770000cf02000000
:1093d400d3d200005e6c0000a64f0000bc05000064
:1093e400f7ea0000e9bd0000ab81000086670000d9
:1093f400b81900002b810000bae8000042c0000048
:109404001e9300005bea00008c5900001dc00000a0
:10941400565e00000530000057dd00000415000012
:109424008b480000e02c0000d0cd00006f810000cc
:10943400ae06000059720000f6ce0000db7b00008f
:10944400584d00006f7c0000035700007f070000a8
:1094540064780000a5ab0000b200000023a800005f
:1094640069280000a4180000526600009ad2000087
:109474003e0b00005202000076740000bc7e000027
:10948400870a0000ee9d000001460000c3bd0000f5
:10949400b3d0000086d900003bac0000a60b00004e
:1094a400262200001cb4000067560000c7ac000070
:1094b4004e48000037c8000040010000588a0000f0
:1094c400a59400009b840000b48300004ba9000015
:1094d4008e1900009d2b0000dea100000370000027
:1094e400beba0000bb1b0000528d000063350000b3
:1094f4005d400000301000006e3a0000b09a000099
:109504005c590000a522000020080000325d000024
:10951400115400008eb50000569800000497000016
:10952400814c00009f010000ec3500009dc4000048
:10953400301d000062050000b06c0000b87b000024
:109544000fd400002ec3000062ba0000a0a00000e7
:10955400e31b000084e9000095e000006e8a00002f
:109564000048000018940000898300003b4c000070
:1095740082410000e5180000b8970000f40a0000da
:109584003d600000a0140000d8dd000020d30000de
:10959400eff2000062310000dd1000001e9e0000aa
:1095a400f3ba000080810000c20800000c730000c0
:1095b40090bb000019c100008e370000750e00003a
:1095c4009b0e00000af5000095ab000076a1000098
:1095d400190e00008be100007bb0000084740000d1
:1095e400ef2e00001f660000c00800000ac2000041
:1095f4004ddf000067210000c8c00000086c0000b7
:109604002809000032c200004c4f0000340b000057
:10961400066600005260000069000000ec150000be
:1096240010340000fd2d000086e900002023000016
:109634005ec20000fd2a000002e90000a1820000d1
:109644004d170000001100008aee000026600000a3
:10965400d3810000d9f100002d9a0000e1a8000098
:10966400691f00000c3000004c0700009aa00000a5
:109674007415000026bb0000570800006238000083
:109684008462000004f900000bd80000fe2d0000e5
:10969400059b00008eee0000f47b0000c49a0000dd
:1096a400be0900002ab900004e150000dce00000ed
:1096b400525600005241000098ee0000042c0000b5
:1096c4000cc00000a6a300003b9d000018b70000da
:1096d4000b8000003a0e00008b600000a62b0000f7
:1096e400818c000074560000515200008138000043
:1096f4001e640000ba6200004b5a00006a3b00007e
:10970400b04e0000c6880000536c00006e47000095
:109714004f330000e0de00002e2c000064d6000071
:1097240029bb0000001b00005d4600004ae0000069
:109734008ea4000022780000285000004030000071
:10974400212c0000b41d000018a90000abde0000ad
:10975400a099000074170000d3f400007b3c0000c3
:10976400584c00006f810000c89d0000bbfd000044
:10977400ae6300009d10000030fb00000b000000f1
:109784004d37000002750000b3190000c12d000020
:109794006dc50000d076000050b50000790a0000c5
:1097a400cda80000b7ef000030c20000ea2c000092
:1097b4007a6e0000029a00005e0c00004d900000da
:1097c400eb800000faef0000892b0000310a000052
:1097d4000a1800002b1900001a2900002b2b000086
:1097e400014d00001700000059a00000d806000039
:1097f400eea7000062180000862e0000706f0000c3
:109804000f5a0000ed0100000cd90000245800009c
:10981400097900006e15000090f0000006050000b4
:109824008d0b0000b09b0000a56800006ca4000034
:1098340008b4000008dc0000499f00000c0a000086
:1098440019680000f30e0000c30e000024a70000f6
:1098540063d400004d0200004ed00000d2e30000ab
:10986400deea0000b7ab0000816400008d900000c8
:1098740022300000d84300005d850000140500007c
:109884009d8400008d180000217d000090f20000ee
:109894007260000057ef00001676000007230000f6
:1098a40039fd00002c460000bdaa0000b80d0000e0
:1098b40024010000d4b9000036fd0000e4d9000002
:1098c400b7ef0000f6cd0000315500005636000019
:1098d4003232000069530000135400003434000095
:1098e400027600005f19000081ad000062410000b3
:1098f400e3b40000b615000030b70000e306000032
:1099040077d70000ac4200006ba500000a8000007d
:10991400c3e50000eced000077e700007a8c00005e
:109924004a5e0000bf7d0000776e000096aa00002a
:10993400a291000091920000a073000084a2000094
:1099440092a00000a1100000285b000081e200004a
:10995400a6a400006cd50000aa5b00006498000077
:10996400be04000094050000f7be00007d5700000f
:10997400a366000064bc00001d6800007a97000024
:1099840028b00000fba2000022a4000064e2000052
:10999400023400005848000049190000d8cc0000e7
:1099a4006610000010500000343100005ef5000025
:1099b4000a33000079a3000005cc0000ea59000036
:1099c4001c680000a62f000003b5000038f7000053
:1099d400bccd0000155300004a75000005260000a8
:1099e4009e7b00009d220000c0ca0000d4c4000079
:1099f40058490000d84500005931000050d10000fa
:109a040050780000aa390000a84000001610000099
:109a1400145a0000ec7400008f800000d3f700009b
:109a2400ac9a000089d60000f71000009876000078
:109a340007ec0000766d0000c164000077d70000d9
:109a4400b4eb0000efde000075a90000280100005f
:109a5400bbd70000a6c000002ad50000149800005f
:109a64009d8c0000833a000055210000e956000057
:109a740048280000b1ec00001d5e0000f3810000e6
:109a84000153000089de0000b3990000020a0000bf
:109a9400f7bb0000f73800001c4d00009c43000099
:109aa40042970000be7b000057ad0000a2080000f2
:109ab400ecd8000085980000082900002503000068
:109ac4006d1000006c7100006784000098ce0000e7
:109ad40028680000a88800005ead00006204000051
:109ae4004c0600007aaf00006c0a000028b20000a7
:109af400eede000011070000c65f000070480000a1
:109b0400e9eb000077730000554100006326000074
:109b1400cec60000428a00004e6a000042420000a5
:109b24004a2500002ad00000462c00004a250000e7
:109b340083d50000e96700005775000062f4000057
:109b4400f9960000ec06000099de000029080000e8
:109b54000c06000067930000945b0000efd6000041
:109b64009a19000081070000ec85000004950000ac
:109b7400d49400008c5500009c85000040950000a2
:109b8400ac80000000280000d5170000110a000076
:109b9400f6cc000030f4000091ab0000c5a000003a
:109ba4008ec400001a6900006002000051740000b5
:109bb400754a0000d9f10000ee5c00002630000078
:109bc4004a8100007d180000254100002131000079
:109bd4002123000021500000570f0000d4f800009a
:109be40000390000be100000afe90000c080000092
:109bf40049770000433700007dd10000ee370000b4
:109c0400efce0000cd06000086b00000a0a2000048
:109c1400b309000030e00000efcd000072570000ef
:109c2400068d0000082800000b0a00009a2a000094
:109c34001a0a0000190100004b6400005061000082
:109c4400032a00008d130000b1240000f8bb0000bb
:109c5400f0920000f3ee0000ea59000061180000e1
:109c6400e33300008b760000dd790000372f00001d
:109c7400548800004151000058500000d1290000d0
:109c840064da00009b7b0000ab2a00005d41000009
:109c9400ae07000096900000c68c00004ac0000089
:109ca400061300003064000018c10000b12a00004f
:109cb40068f4000012c30000f07b000067e10000bc
:109cc40035d60000bd3d00009569000018e3000092
:109cd4009193000076bd0000795700002b0400002a
:109ce400aa860000149500008c520000da76000069
:109cf400dd030000c64d00001ab00000cf040000d0
:109d0400345d0000990100005c070000422b000054
:109d14004341000045e10000260c0000c7df0000bd
:109d2400db0b000037fd0000dcea0000ca30000055
:109d34008c51000088c20000556f0000f7a9000094
:109d440003bd00000dea000080180000b6b5000055
:109d5400afbc00000dec0000974f00005f55000001
:109d6400690a0000345d000008d40000a601000068
:109d740025160000503d000022c8000004540000d5
:109d8400f11c00003d5c0000904d00005f55000098
:109d940019660000826e0000bac10000ae770000b0
:109da400518a0000207300008404000005140000a0
:109db400dd520000dba10000930f000011c600007b
:109dc400a0d9000042500000526100005050000031
:109dd40004b700003e800000512b00003009000051
:109de400cde5000077df0000219900003ebb0000b4
:109df40002d30000748500009def00003440000091
:109e04005d47000041a00000630300002b930000a5
:109e14002b56000066940000810600001dbb000064
:109e24004c98000004a00000a60300004b010000b1
:109e3400f03800002f300000f41a0000dfa3000007
:109e44009b8e000008f70000b3ab00002ac200009c
:109e54008cd10000c35d0000e1f80000bb0e0000df
:109e640011410000464500004125000065c1000085
:109e7400c9b300002cd20000977b0000b818000082
:109e8400a7940000ade800007415000016640000fb
:109e9400809800002e0800004c500000e03a0000ba
:109ea4008c51000020100000353f00008146000066
:109eb40068e0000045db0000de550000c07e0000c5
:109ec40027ba0000e9820000d7de0000650b00001d
:109ed400835b000006c10000e6270000567b0000fb
:109ee40006b700009a820000c64f00004bd2000063
:109ef400808d00006ca800000a5000004b1b00007d
:109f0400d68200007a810000eaf40000bb880000d9
:109f140076c10000bdd50000ab3a00002a30000035
:109f240052a40000c0f30000771600002ce00000eb
:109f3400e69e0000b3d90000cdd5000099a600002c
:109f4400a9aa0000c6ca0000428a00002ea600008a
:109f5400cec20000f0c900004141000078fb0000bf
:109f64004cf10000259a0000e9770000514c0000f4
:109f74004fc70000483300000a370000c405000042
:109f8400416d000047210000c1200000915b0000ea
:109f94007bb300004c82000055400000ad0100007e
:109fa400432500006763000041d800001819000031
:109fb400747e0000c2100000e83f000014b70000e7
:109fc400df450000361d0000d8510000ecc8000039
:109fd400c08c0000d53400006066000064000000fe
:109fe4002677000043130000a1970000f7a20000a9
:109ff40054c00000e330000042c000008c2b00007d
:10a004008c980000d764000004bb0000df1000003f
:10a01400ad1c0000033a00007d0f0000a2db00002d
:10a024000d3400007d5600000696000051370000f4
:10a0340068720000334a000053bb0000762f000012
:10a044004a1900003c5b0000001a00008a5100001d
:10a0540012440000193d0000043700008b1d00006d
:10a064005fa100003a1d000061fa0000bdbd0000c0
:10a0740020d30000d1c300005dd000008045000063
:10a08400006200007a60000086f20000a57b0000f8
:10a0940059ca0000e06400000eca00009f4a000094
:10a0a40008b70000c323000040f1000018c20000fc
:10a0b400f0730000bb810000dd31000098e1000076
:10a0c40077410000bd56000060cf0000022d000063
:10a0d400cd300000067a000081fb0000020200007f
:10a0e4008a460000aec200001bef0000558300004a
:10a0f4009b48000082a00000924100001152000021
:10a10400ee420000021e00001c3a0000022800007b
:10a11400b1ba000067d700006da00000e93000006c
:10a124007f800000faf10000b32a0000d1cb0000c8
:10a1340077410000c7dd000060df0000081a00005e
:10a14400091a0000096d0000dab30000da140000f7
:10a15400e4640000452500002590000095300000cf
:10a16400c3c10000d10a0000ee8d000014220000db
:10a174000a9a000073ab0000779d00003e0b0000bc
:10a18400ebd60000dfdb00000b360000bd3300001f
:10a194000d6300004ccf000015120000aa4200001d
:10a1a4008c8a00004213000077ad000036030000e3
:10a1b40006bb000080920000b2b1000010b800009d
:10a1c4008d0700008f19000050830000151800004f
:10a1d400a9cb0000114e0000dfbb00001268000094
:10a1e400fa69000058c00000ec590000bd0b0000e3
:10a1f400647a00003ae6000078240000d8180000d1
:10a20400452100004601000065c7000055ab000071
:10a214003c94000041c50000a591000031ca000033
:10a224002482000080220000b8bd000027d800006e
:10a2340088d40000e69800003d630000d5e90000e2
:10a244003dd0000041a600007b67000020d3000041
:10a25400389d0000e5680000a60b000038b200003d
:10a2640002e300009041000040080000d8a2000072
:10a27400561200009cb900002a420000185c00003d
:10a28400d86200009da70000162c000045240000a1
:10a29400c873000095d3000081dd0000b4dd000028
:10a2a40090340000730f000032cc000001ec000079
:10a2b40078a20000b738000012450000955d000048
:10a2c400191900009480000095840000a232000057
:10a2d400e3b4000055110000ca600000d30500007b
:10a2e40019b10000986e0000d881000068c2000017
:10a2f400cf4900006f0300008df80000404c0000bf
:10a304003fbb00001a6e00003ab200003e6000003d
:10a31400603a00002a070000790a00008112000058
:10a3240008280000e3370000adcc00005401000011
:10a33400d71600008a200000b7a3000059210000ae
:10a34400607800001391000093d20000dd520000f9
:10a3540041a3000078a7000021a60000ef0600003a
:10a36400cd6e000081a6000047390000c041000006
:10a3740008f1000038280000a52b0000aa290000dd
:10a384001b8100006a370000b0a10000492b0000c7
:10a394002b550000a0650000160300003c99000046
:10a3a400230a00008427000070d30000e7b90000ee
:10a3b40098b8000080da0000f4e00000047f000098
:10a3c4000fc9000074980000b1900000c420000080
:10a3d400a0c00000cea00000c8240000a0a8000077
:10a3e400081e0000457600005c5100006902000070
:10a3f4002ee9000041c500002d030000a408000060
:10a404005681000095c4000002820000496f0000dc
:10a41400c1a30000bf400000e0e900006a6c000036
:10a42400dcbe000002140000f0200000fe9e0000cc
:10a43400d59000008099000039130000b91d000078
:10a44400092e00009e800000ce07000057aa0000dd
:10a45400c02e00008d900000d18a00004c570000ef
:10a464006845000007ea0000ef8100004c35000059
:10a47400b010000084ba00005f50000030e8000013
:10a484001dd40000f47500006ece000026c6000046
:10a4940029c0000078850000ba1d00003c27000098
:10a4a4008a3e00000e0c000036dd00009901000019
:10a4b4009cf70000194100006e7600005cd6000095
:10a4c40065ca0000082d00001205000020250000c8
:10a4d40070a200003a58000025b80000a5ba000098
:10a4e400083a0000a8f10000aec6000004d800003d
:10a4f4006e7000002e9d000049d0000074c500005d
:10a5040095cc0000e03000000067000019a30000b3
:10a5140065b30000d4180000056000008d00000041
:10a52400b0e90000c56a000088340000e0080000bb
:10a53400357d0000af87000071a90000b1b20000b2
:10a5440053d900000a340000d3670000cc44000053
:10a55400f43d0000402e0000063a0000c8910000bf
:10a5640001e20000729000004d4e0000cb56000046
:10a57400ab410000bbda00000c500000d393000094
:10a5840061c500001e500000c4f000000dd800009a
:10a59400f47b0000b3540000839200008395000014
:10a5a4008c520000810100000f4b000091a00000bc
:10a5b400114c0000b8e90000106f000083c30000d4
:10a5c40057010000d4d200008206000047f30000c7
:10a5d400ed750000ae260000cab000008e3c0000fd
:10a5e4009ae90000420200008e6f0000ef81000033
:10a5f400f2fe0000be4a00001525000017670000a7
:10a6040053c5000016600000171900009c59000093
:10a61400efae0000d90500001ec20000ec8000006f
:10a62400860c0000442f0000247c00001dc40000a0
:10a6340040de000000450000a5d20000f1b7000094
:10a644007b57000055a60000998000004d8700004c
:10a65400a6c8000024160000014800009a54000017
:10a66400007a0000f0ea0000dd33000040c300007f
:10a67400e6860000a9080000069b00000809000007
:10a684004d810000997e00000f340000ee060000aa
:10a6940032bd000083130000cded000040670000d0
:10a6a400834700007b80000065940000eb94000069
:10a6b4007767000057ae000004b60000c54c0000e8
:10a6c40005050000e0e90000bd850000059a0000d2
:10a6d4007c19000081a600001f0500003530000031
:10a6e400ee6500009a280000014b000022210000c2
:10a6f400c5c9000033570000424d0000df7d000053
:10a70400e6ce00001af00000183f0000072c0000fd
:10a7140042c10000da410000b630000002fb000034
:10a724008da000009a6f0000fb9c0000b77700002a
:10a73400bb8000006157000099d60000e10a0000c8
:10a744000f19000081290000880900005d600000e5
:10a75400c8ad0000790d0000ca4900002a4000007d
:10a76400a72800001b0b00004e0100009afe000009
:10a77400166200003a680000fc75000056270000cd
:10a78400dc74000048320000610400000dc10000c8
:10a7940030a600001aa500008a2a0000a92d000096
:10a7a400050d0000eb0200008b8a00008a8e000079
:10a7b400f23200007061000066a40000085200003c
:10a7c40037150000d9f4000044500000b0470000e1
:10a7d4008326000029040000958c000014a70000c3
:10a7e40074c20000dc0e000019dd00009d39000079
:10a7f400a39300001d1a00002ab00000d007000037
:10a804007a31000068f90000dc900000ca99000069
:10a814006fc00000996e0000d6cc00008ef20000dc
:10a824008ef2000015ab000081e500008d110000e0
:10a83400a896000062080000412e0000e60b00000c
:10a84400412d00002f330000485e00005614000024
:10a854006c0600009a0e00009e450000b8770000c8
:10a8640007620000fa4c000088e90000f082000052
:10a8740040110000d4cb0000305c00001e790000c1
:10a88400f2dc00001b70000027fa00001cd000005e
:10a89400fcca0000f64e0000d0040000895b0000f2
:10a8a4009b0800002835000029c10000cd060000e7
:10a8b400ea030000f50f0000e6810000e7b50000a0
:10a8c4000418000019050000033b00005642000074
:10a8d40046b30000400d00001b50000051d300009f
:10a8e400d9c100000ecb0000ffa00000400500000d
:10a8f40076da00008d8c0000950500009b9a00001c
:10a9040011450000ebdd0000b36b00003a8100004c
:10a9140066cf0000b83d000067a7000024300000a7
:10a924003f080000c10b00007a500000730d0000c6
:10a93400d48e00008c56000082b600009d040000f6
:10a944000ccb000057ae0000829900007e16000078
:10a954005cf3000081ca000077e80000901a000050
:10a96400c47400006363000065c50000e0a9000032
:10a97400a7e00000f3240000e0ee0000feaa0000bf
:10a9840055950000d3cf0000bc9d0000a7cc00006b
:10a99400e0c40000040f0000186000001616000058
:10a9a40002b6000023e70000791a0000417300009a
:10a9b400b2800000e2b4000095b00000e12c000079
:10a9c40070c500000a4c0000926c00000cd000001e
:10a9d400bc030000229400008494000041a60000ff
:10a9e4001b870000cc580000195600008618000090
:10a9f400b75f00003d730000d5ac0000f4190000ff
:10aa0400b7de0000ed6500005114000042040000b0
:10aa1400bb10000068e00000f25e000076a40000b5
:10aa240031ac0000a01000009c3a000073e5000067
:10aa34002de400006a1b0000e47600004648000094
:10aa440001030000ea870000092b00001a19000026
:10aa540081ba00004cc6000029190000a1ae000014
:10aa640021c0000032ef0000f65b000088e900001e
:10aa7400d35700007566000074bc00003b1700004b
:10aa84002c240000841c0000a9c2000045ef000033
:10aa9400d6a6000057290000290a00002941000019
:10aaa400daac0000895d00002bd000004c070000e8
:10aab400d5ab0000c074000008c90000f98600008e
:10aac400c64a0000cece0000c056000097620000c7
:10aad400886b00005a680000ea540000606d0000b2
:10aae400003600007d2f00003008000081090000be
:10aaf40073da0000ee590000024a0000282d00001d
:10ab040083c20000fd9d0000ed5100008a4a000050
:10ab14008aa00000561f0000a85c00002a9b0000c9
:10ab2400b10b0000dded0000b05600002748000026
:10ab34001a180000a9460000a04e0000a3b30000ac
:10ab44006b4800006a7b0000ea8c000055bb0000e3
:10ab5400208e000007360000682b000043430000ed
:10ab6400d3b60000f50a000030c100000d07000054
:10ab740016c10000224b0000bd660000ccb00000ee
:10ab8400740600003a5d0000005200004487000093
:10ab94004c8700000e380000411300000db800007f
:10aba400d6860000484100009a450000a034000009
:10abb400a3280000e4ec00001c120000129a00001c
:10abc400da56000031730000d51d0000f07000005b
:10abd400d7bd00003d5d0000c07600009362000018
:10abe40018030000b2e90000c0bc00006a3600008f
:10abf40063ba0000aa330000b043000008f200006a
:10ac04003e680000847b0000f92d000084e9000008
:10ac1400c0dc00003a130000ea7600004648000059
:10ac2400eb110000345900000dec0000f71a00008d
:10ac3400199b0000383b00009b38000087a60000e9
:10ac440097ad00003c750000f6ed0000bb3300003a
:10ac5400bb67000075ba000082e60000de800000d9
:10ac640031830000301d0000e8a80000a4d00000db
:10ac740095d30000458d000054940000c01d0000d1
:10ac8400705000003dbc000002c90000eda00000af
:10ac9400a0e10000809700005ed0000024a900001d
:10aca400046a00004e3b0000bb980000ba84000018
:10acb400bab800008404000083c7000006c3000083
:10acc40053800000de310000720600009a2f00005d
:10acd40084dc00002c600000149c00005aba0000c0
:10ace4007aa50000b2a10000b25200008810000052
:10acf400d0ed000040cb000083560000ec82000041
:10ad0400b439000080a60000efdd0000bd6b000038
:10ad140035a4000004060000f7cd0000c1d30000f4
:10ad240003a000008e23000023300000768d000075
:10ad34005d8c000095950000810d00002625000023
:10ad4400c19600000a570000600900001fac000013
:10ad54006c0c000034dd000004a5000049c60000ae
:10ad6400009400005bd5000025a40000a8ac0000fe
:10ad740018220000642400002a68000066a4000071
:10ad8400e4b0000062d700001d980000e9670000ed
:10ad94004173000060dc00000c900000b61d000050
:10ada400643000005041000048c8000030550000e5
:10adb40015180000bb4a0000c04e000019a800008e
:10adc400372f0000a8980000ea6a00002c640000f5
:10add400e4b40000c2dc0000c8d80000d8c40000fd
:10ade400c5040000a549000023e00000387d0000f0
:10adf400f52c000061600000dbde000088d100005b
:10ae0400d59c0000c1180000a87e0000e9ae000037
:10ae1400d3300000d3ef00009e3d0000bde60000eb
:10ae2400142f0000b06300000e0d000016f00000a7
:10ae340048a9000071cb0000ce2800002145000085
:10ae4400255800004d0a0000ea82000000b9000005
:10ae540025ab0000d4c100006510000030ca00001a
:10ae6400914c0000570800006e5b00009d25000017
:10ae74000c9a0000216600004c520000026700009a
:10ae8400c9490000ab7600009f7900000b2e00003a
:10ae94000a400000d32a000067ef0000f021000000
:10aea4008a190000a03d000002820000c13b00009e
:10aeb400efee0000f350000086d70000d3820000bc
:10aec4004a4a0000424a00008e2e0000a9330000c6
:10aed40081ad0000a612000053970000d276000056
:10aee4000ba4000080310000e898000031ab0000a2
:10aef4005288000051c1000044190000d8300000fd
:10af0400034f00005c4c0000043500009840000032
:10af14004e3f00007b1a00009cd10000f91800008d
:10af2400e015000003b80000b09800000cac00006d
:10af34000fce00008a08000042b3000097220000f0
:10af4400b84200007172000049050000b6270000f5
:10af54004b6e0000af5e0000757b00006fb6000012
:10af6400902000003c4100001aac00006a9f0000e1
:10af7400390d0000d8580000761600003254000045
:10af84003254000004e9000000b600009a4f0000ab
:10af9400814d0000df0b000009210000a0e9000042
:10afa400c0ec00002d0800001e02000000f60000a6
:10afb400048000009d61000060e3000007dc0000e5
:10afc4009d110000003500004ec100009d000000ee
:10afd40041a500001013000063a7000013a00000a7
:10afe4006cb500006656000004ac00006b0900005c
:10aff400343d0000a37500009529000030f70000df
:10b004001a0a000019aa000080db00003b8200003d
:10b014008cc0000066c100005bf000007c0a0000e8
:10b02400241b0000f2090000821300008a220000a1
:10b03400342800008240000023a90000359000005d
:10b0440096230000b4ad0000013200001d0800008a
:10b054009c5700009e390000b37b0000754500003a
:10b064005a98000088220000d8f90000028c0000e1
:10b0740002c50000e9d30000bbc40000806d0000dd
:10b08400790500002541000075c80000c08100005a
:10b09400e0b2000095ab0000807d0000336000004a
:10b0a400c500000029640000f9400000fe170000fc
:10b0b40012040000f6170000c116000004af0000df
:10b0c400048a0000590a000031080000c11a000077
:10b0d4001d100000d3810000961800009676000031
:10b0e400969700009b2a000083ca000009a0000074
:10b0f400e9020000c072000057a100003dad00004d
:10b10400a34a000015d400008f00000096ad000093
:10b11400e0e100002c010000c1850000c0ca00006d
:10b124006f35000062fc0000191c0000ab8a0000af
:10b1340046a00000f157000025210000d0a4000023
:10b14400ed9b000077e7000054990000a143000044
:10b154003c90000056130000d81e0000066000005a
:10b164008a34000056820000781100005466000002
:10b1740039bb00003306000076b80000ba84000032
:10b18400b8090000aa8200005a6b000086d00000b3
:10b19400fcd50000b8f20000d6de000055d0000057
:10b1a400a215000016ab00004a26000040d700009c
:10b1b400283a00002b03000053570000db2900004d
:10b1c40060250000af0a000034160000327200004f
:10b1d400270000008d7100000601000065230000b7
:10b1e4002363000045500000592e0000a46c0000a9
:10b1f40028a40000a8680000a2620000d89a0000f9
:10b2040036a500007c6600009a8a000010ac00009d
:10b214008929000000f4000085e000004a60000075
:10b22400dc830000a6730000eedd000085860000cc
:10b234000c23000083010000a8770000a46800002c
:10b24400022a0000a79300003b6e0000ef3b0000c1
:10b254001d2e0000043100001ca40000099a000007
:10b26400f91500008c8400008d5500000c5d000071
:10b274005d9d0000459c00005dc0000083660000e9
:10b28400aa4d00009d69000046210000a16900004c
:10b29400a6c00000a051000014040000956e000038
:10b2a40002c600004c020000824b000041f5000081
:10b2b40035680000021a0000623a0000a8af0000de
:10b2c400081a0000031000005034000006a6000015
:10b2d4001d21000043d70000146000000d20000071
:10b2e4000e3300001dda0000350600004dad0000ed
:10b2f400004d0000177400004e0d000015360000cc
:10b30400725100003206000016a10000c66d000054
:10b31400333b00005bcb0000dc5c00005d8100007f
:10b32400494e000001ec00000e45000017650000c6
:10b33400602700007aef00002af00000bcf3000050
:10b344006d680000c8000000dd2500000c2a000024
:10b35400e240000023020000c0660000bbb300000e
:10b3640071f00000a9bb0000b5820000d0c6000047
:10b3740019240000ae0500008580000095960000a9
:10b38400b2b30000a96a000048880000a9a0000028
:10b39400b38b00003168000070350000b86d000008
:10b3a400666500003bb00000436300000a4a0000e9
:10b3b400a1820000e09e00000fa800008635000076
:10b3c400dc3300000b3c0000f17c00001bdc0000bf
:10b3d400800500009b0e0000ee4b00001b030000e4
:10b3e4006d060000760900000c810000e59700005e
:10b3f400cb3200007341000050070000189a00008f
:10b40400624000002161000064a40000029a000070
:10b414005d310000523600000c710000710600001e
:10b4240015720000a9d3000066a60000cf04000036
:10b4340056590000a05600002c03000038240000d8
:10b444008dc0000031b0000072150000645e000081
:10b454001b1c0000367c00009012000006d800007f
:10b4640073070000571b000040470000ba98000013
:10b47400182b00001d9e0000a30200004df00000e8
:10b48400e08e00008db1000010680000f01d000087
:10b49400942d0000802500009aab0000b2910000ba
:10b4a400b18b00008a5300006a59000047f900007c
:10b4b400cc990000332200004c440000c0e300009b
:10b4c40011a000002290000019d400006b28000095
:10b4d4009c010000317e0000d7d90000bb6700004a
:10b4e4002133000071a00000f24b0000c9440000a9
:10b4f400195400007a1900002a0700009b28000054
:10b504002b4d0000ba570000059b00008313000078
:10b5140004e50000166000008237000004f6000015
:10b52400608d00009c5d00008d5d00004c8000007b
:10b5340045bd000089920000b34b0000e874000090
:10b5440060bf00006b660000b82b00003064000090
:10b55400048c00000d4100004d1100006025000026
:10b5640022c80000683000007d260000d4f50000e9
:10b5740077d60000be0600009b2e00000069000084
:10b58400ca080000192900002902000083260000cf
:10b59400cd55000049e90000dd5900002f78000076
:10b5a400390900002af6000099040000848c000088
:10b5b4004d80000069120000342600000c74000065
:10b5c400bbb20000910b0000c8f4000055b30000aa
:10b5d40056cd0000ac0400002509000043450000de
:10b5e40050f300005289000041c10000585000008f
:10b5f40000d80000715d0000bd0a0000e481000075
:10b60400d3ab00006f4300004c07000006bb0000f2
:10b6140082b2000092920000b110000028060000df
:10b624005c4200004d8c0000debe0000eb530000c5
:10b63400860f00006b820000aa14000041a00000e5
:10b6440083810000751f000030500000824d00000f
:10b6540081b50000a24b0000686800006a07000082
:10b66400b0560000df7d00003a07000014ee000031
:10b674008a4600004cc00000001000005200000088
:10b68400fa910000a178000006a800005b03000006
:10b694000efe00005bbc000090f200000e9400005f
:10b6a40022950000404100000c0a0000dc34000038
:10b6b40017970000ebef0000e6990000c0cb0000f4
:10b6c4006170000079630000e80200000c0f0000c4
:10b6d400e31000006085000018e2000002cc0000c6
:10b6e400a3a50000e5ed000033810000cdcb0000f0
:10b6f400dd6f0000fcc0000031a4000024c0000085
:10b7040000ea0000411b0000037d0000ea0800007d
:10b7140034bd0000b31c0000143c0000b34e000014
:10b72400f1300000402b00000e900000c1a000008a
:10b73400c10100002160000089180000e29a0000a5
:10b74400f27b00001d8a0000e9c00000623800009e
:10b75400c4c50000c5280000b5dc00002dd40000dd
:10b7640038c4000014980000de530000cbca000067
:10b77400a6cf00009839000073d50000296f00009f
:10b7840015610000d03800001ab800002b07000033
:10b794004c7200000c0200000a1d00002b67000020
:10b7a400a6a50000b50300008d9f0000b98b000022
:10b7b4000be6000076060000d05c000024d00000f8
:10b7c4007445000017570000e360000013e3000015
:10b7d400924c00006523000065f80000982f0000db
:10b7e4003045000002ab000055970000b2f600009f
:10b7f40070130000636000005b240000d425000087
:10b80400b42c000023ad0000a32c0000a36c0000a6
:10b81400e52a00002f6500006346000050bd0000cb
:10b82400092a00003895000040330000bd0c0000d8
:10b83400d3660000ce700000734900004b03000083
:10b844004da70000219900000e6e000010000000ba
:10b85400ebd500003053000060890000e5040000cf
:10b864008a3c0000217000008f1b000052ce0000b3
:10b874003997000066a40000a5010000fd03000044
:10b88400caa80000aeae0000a9a0000039d600008e
:10b89400f68c0000d4f6000095d50000c2860000a6
:10b8a4004ca0000086ae000010300000352a0000d5
:10b8b4001a8100008ab20000c49900001d2e000005
:10b8c400c0cc00003c7d0000d5ca00005d880000ab
:10b8d4001e250000303f0000998000001c1f00005e
:10b8e400e2ea0000026c0000ab1a00001b410000f9
:10b8f400da36000060600000a46c0000a45400006c
:10b9040012160000eeaa00006c2c00000c7400005b
:10b91400023000004ed300009cd30000da40000047
:10b92400bddd0000b0d00000e55d0000aac000004d
:10b9340070570000100400003b500000015c000040
:10b944009a050000ccaa00007033000036360000cf
:10b954006d590000350b0000c974000060c0000080
:10b9640083c60000f195000080f90000dc1400009b
:10b9740098f200004036000018830000dd0e00003d
:10b984004c2e00002ec60000cea10000aa2000000c
:10b9940049900000a88b000089b300008b7300005d
:10b9a4006a5a0000797b0000c78c0000f090000008
:10b9b400f60e000013500000190d00000c71000079
:10b9c40041460000d8080000c5d400000e770000ee
:10b9d40060ca00000d5e0000b10a000034130000cc
:10b9e4000700000063600000f167000008600000c9
:10b9f4006060000058240000e0aa0000b9cc0000f8
:10ba040050c30000e9740000944e0000f2ba000034
:10ba140062830000964d000053420000d77e000070
:10ba2400df1b0000796e0000d73500009be70000a3
:10ba3400ffff0000338c0000824100000d04000071
:10ba4400a675000074740000cc10000023a8000048
:10ba5400ce210000d2c50000c5250000448b0000a3
:10ba6400a0ba00008488000050200000c820000014
:10ba7400a8ae0000311c0000a4ae00009d1100001f
:10ba84008fcb0000c07200002d6100002075000003
:10ba940053590000406c000021ac0000ea8a000009
:10baa400228000000a1d00003b410000ca42000041
:10bab4005b23000098180000189200003a58000018
:10bac400b028000053a80000688f0000600c00003c
:10bad4009a9100000e560000173a00003d830000c2
:10bae40029b00000a3cc0000138b0000baa600000c
:10baf400f0900000e91900001de10000a1500000d1
:10bb0400d0960000312300003c7400003aa60000e7
:10bb1400810a00001d200000e7c300009501000019
:10bb240015020000d9a50000980600003645000063
:10bb34008462000001180000068200008dc300002a
:10bb44000418000006260000623500000e330000d1
:10bb5400200b0000cd4200002012000021a90000ab
:10bb6400ed2b00005775000086bb000042780000f2
:10bb7400a6ad000068ea00001cc400009dc00000df
:10bb840012ae00006dbb0000ce9c0000b973000033
:10bb9400774f000006440000a1500000389a0000ce
:10bba400bd020000e186000060650000adb7000042
:10bbb400cfce00009e39000073e70000edbd000009
:10bbc40019600000e314000025d00000fddb000034
:10bbd400a2040000b2380000e5d60000dece00006a
:10bbe4007220000098710000fa2c0000c8c1000007
:10bbf400aa8500001801000098a80000065400005f
:10bc0400e7ba00006d6f0000657900005a68000013
:10bc1400685a0000f9f40000db73000041ea0000f8
:10bc2400d09d0000c7c0000010000000d25f0000db
:10bc34007abb0000bb3c00004c49000049490000ad
:10bc440031b400006cfa00009d280000a03e000002
:10bc5400ccf40000550800008a8a00006d7b0000c7
:10bc6400cbc30000180300003a2a00005419000056
:10bc740083ca00004ff60000624d00005f530000cd
:10bc84004061000072ab00003a8c000091a10000fa
:10bc940031ad00006c860000bb400000eaf40000f7
:10bca400334000009d53000059d10000fd5b0000ab
:10bcb4000e4a00004d7b000032800000c9290000bc
:10bcc400c0c2000039b400008d4d0000a1f4000092
:10bcd40066360000d02100001c680000ea14000051
:10bce40032410000d6ce000051030000b1cb000069
:10bcf40004430000422a000018130000b783000028
:10bd04002c460000cb280000022d0000206f00000c
:10bd1400dca80000065b000013200000ee18000001
:10bd2400da2a0000ae3000006d2f000030690000f8
:10bd3400cf50000045310000adad000003280000e5
:10bd4400967200003a120000c22d0000150c00008b
:10bd540001e60000a4d20000dba0000094d500009e
:10bd6400118e0000e4950000860a000050ae000029
:10bd740068dd0000ab0e0000e1260000880500002d
:10bd84000373000048c200004d600000c884000036
:10bd9400a6b60000b3230000a90300002782000018
:10bda400a9730000a1be000013b00000080e00003b
:10bdb4002d1100000f380000990300008e6300006d
:10bdc4002e840000ba020000b0ba0000a57300007f
:10bdd400591d000098c00000eac20000817c0000e8
:10bde4004d8500001db90000e0280000e744000074
:10bdf400a84b0000080e0000057b000097a9000076
:10be0400c5030000a6ce00003542000060470000d4
:10be14002d5800001d070000baba0000e33d0000e1
:10be24004c650000d3400000112f0000004c0000be
:10be34002cae0000650c00003b7a0000c1690000d4
:10be4400068b00003ac60000b21400004f680000e0
:10be540060ba0000963200006ec7000054e700008c
:10be640008120000d93e000087310000cd05000013
:10be74006460000013300000404c00004b190000c7
:10be840021e60000a9220000ab530000303200007c
:10be940076010000b92f0000252800001568000075
:10bea40056050000c89800003486000093b50000d1
:10beb400a1ae000026c6000042480000ea020000cd
:10bec400040400000515000095a60000ee650000be
:10bed400293200000e6d0000ef00000067760000bc
:10bee400a03f00004ee700002a2b0000090a0000d2
:10bef40032220000855f0000025000009da0000077
:10bf0400e0a40000b36c000005a2000046c60000d7
:10bf1400c6c60000ce260000c6c60000caad00009a
:10bf24008ea7000063410000a246000048e600001e
:10bf34001584000009030000450a0000cf4a0000f0
:10bf44003a8800000bc2000040620000fb1d0000a4
:10bf54001f20000095dc00008e940000f405000012
:10bf640052330000800a000003ef00007833000021
:10bf7400a4c10000d50900006ebb000063290000c5
:10bf8400285800009c2e0000829c00001004000031
:10bf94009280000006190000deec0000612c000015
:10bfa4001445000018780000474c00005030000091
:10bfb4009d8900000105000028580000006500006c
:10bfc400ae9d000065150000884000001838000090
:10bfd40053580000d0500000830100000d80000081
:10bfe4002cdc00007cd600009ba10000500c00005b
:10bff400ae2e000004e80000147600007475000002
:10c004004d42000020070000ee61000011680000ae
:10c014005311000014340000862900006d620000f2
:10c02400425700009700000032e70000fad90000f0
:10c034006806000007600000369f00000e33000011
:10c04400b414000023bf00003968000080b400006d
:10c05400dfdd0000a3ce0000a0e00000a22a000063
:10c0640008f30000761a0000ba3200008879000054
:10c074008a370000ceee00005103000019d1000001
:10c0840004350000b0190000c3de00002650000093
:10c09400480b000016dd000039bb0000a7120000a9
:10c0a40058e600009ecc000011820000840d0000c0
:10c0b4001b360000ff020000c1d40000bb67000073
:10c0c400cf9c0000019500006c90000070340000cb
:10c0d400d444000053a60000600e000051a70000e5
:10c0e40038f50000cedd0000b3770000efde00007d
:10c0f400cd140000c6ee0000c0440000583c00000f
:10c1040028a60000ec3c00007366000076b800002e
:10c11400302c000060d000003c9c0000800800002f
:10c124005e6000008a510000867300004ad000005f
:10c13400d4090000a40b0000620300008e18000064
:10c14400f1860000145f00005007000080880000a2
:10c15400168c0000700100001b980000648600002b
:10c1640050d6000066860000cd380000b081000083
:10c17400451100006d66000090700000133400004b
:10c184006c7300006b530000c36200001cc8000005
:10c19400c0e40000084600008536000075880000f1
:10c1a400b27600003506000085f60000502c000031
:10c1b400c6010000832600001de80000378100004e
:10c1c40032b0000081890000a01200004921000063
:10c1d4000d8b000071400000000e00008222000060
:10c1e400b0ba0000226c0000353400000a80000060
:10c1f40004640000319e0000f601000004380000d1
:10c20400a86300004f4f0000e8400000c11c00007c
:10c214009897000005dc000009aa0000636800008c
:10c224009909000004840000db430000a3600000bf
:10c23400a00100000000000063600000f16700003e
:10c24400086000006060000058240000e0aa0000bc
:10c25400b9cc000050c30000e9740000944e000003
:10c26400f2ba000062830000964d000053420000c1
:10c27400d77e0000df1b0000796e0000d735000078
:10c284009be70000ffff0000330c0000312000009a
:10c2940020080000028c0000849500002919000089
:10c2a400191b00002b11000054280000a8e4000012
:10c2b4001c1200001aea0000a24c000040a1000079
:10c2c40080a2000073680000597900007a98000089
:10c2d400a9900000207e0000e38c000042db0000f7
:10c2e40057ad00005a550000116600008257000047
:10c2f4009da0000062480000dbae0000db6f000080
:10c30400efae0000ce70000005da00008cdd000006
:10c314006e900000371500009d53000077cc00009c
:10c32400e9e80000e8980000b1260000dc540000b1
:10c3340009bb0000bf05000015810000fe74000069
:10c344000e6d00007f1d0000e902000004a700003c
:10c35400aac200004c8c0000b1f900001be80000e8
:10c3640001a000003f430000cb760000bd8d00001b
:10c3740000520000a137000056570000840100005d
:10c384002913000065740000670a00003a87000062
:10c39400a695000097b70000ef7800007d3e0000ee
:10c3a4001ca40000eed80000fdd5000015e5000037
:10c3b400407f00009b080000a11a000028600000d4
:10c3c40014520000b6620000f5aa0000ddb70000b8
:10c3d400ffef00000399000013ba0000f4df00002f
:10c3e400bddd0000bb770000030d00005511000007
:10c3f40044330000ae740000c7990000d7770000f2
:10c40400dffd00007fdf00000352000016da0000a9
:10c41400fae60000fffb0000776f000077af000032
:10c42400c970000045310000504000003164000034
:10c43400f9ed00009a69000040c9000039190000b4
:10c4440060750000a1d3000081ec00009eb20000e2
:10c45400d7dd000061ca000028ea00009c4a000001
:10c46400779d00008d080000997e0000a72700003a
:10c474002c1400000ada00006ecf000009770000d7
:10c48400d9be00002f03000025c000000583000072
:10c49400db6e0000832c00006c0f00000f81000095
:10c4a400a90b0000690300007aa80000f4750000dd
:10c4b40095ab0000109200003ac50000e0e50000d2
:10c4c4006723000042b1000080ed00003d6e0000d3
:10c4d400c2480000162b0000a6dc0000e8c10000e2
:10c4e400a62c0000b474000076380000aaba00003c
:10c4f40053700000e35c0000511400006e8b0000d8
:10c5040040f6000088610000ea2e00003398000025
:10c51400bb520000db570000aeea00004c8700006d
:10c52400aa360000dd1a0000a1820000a2ee00007d
:10c534009586000023c40000b4b600005d770000b7
:10c54400cedc0000b90b00000c38000030570000ae
:10c55400e83800009aba00005bb100008660000071
:10c5640065ad0000b7cf0000ce9e00003973000017
:10c57400e79d00003de000007034000075dc000021
:10c584008dae00006e9e00001048000022e5000001
:10c59400d6de0000ce72000020980000711a000060
:10c5a400ec7f0000d5c600007da80000ea4a000028
:10c5b4006fdd000057030000069d0000ebb600008d
:10c5c400b3950000e5690000a1c00000243100001b
:10c5d400fdf600005c600000908b00001ed9000096
:10c5e40097810000a44e0000c0a80000f4f50000ec
:10c5f4007b900000fed20000dbdd0000e56100005e
:10c604004a4a00004a8a000021650000d3ef000076
:10c6140044010000f5dd0000d88f00001c2100005b
:10c62400824e00006daf0000ef830000d2d3000003
:10c63400b6b90000e56e00008c0e00001d19000064
:10c64400aa8c000041e50000277b00008102000065
:10c65400c7ef0000572100005282000000300000a4
:10c664003afe0000ce03000085c90000adea0000d8
:10c674003046000086c60000b4f2000019ee000047
:10c6840002290000d3cf0000007500004e7d000099
:10c69400074c000009300000030500000c530000a3
:10c6a40077fc0000ab050000a5a600003d190000c2
:10c6b4004c0c00000c01000016ce0000a16d00001f
:10c6c4006c0a0000a5370000b38100000ef90000d9
:10c6d400b3370000039e0000560500009d4a000089
:10c6e4006ffd0000cf060000593b0000470d00001d
:10c6f400c44f0000130c000009a90000604c0000a6
:10c70400dc0e0000b4380000f5170000d062000011
:10c7140058cc000081ac0000bd070000f2c6000048
:10c724008d6a0000561000003f400000dc3100001c
:10c73400b44500005c610000da1e0000a08f000018
:10c744004fdc00005b1d00000e4d0000d3400000d4
:10c754006b4f00009ced0000068a0000a59c0000c1
:10c764008e840000682c0000150c000071cd0000c0
:10c7740060280000b90d00004a5900003bcf0000ba
:10c78400669900000ac1000012e90000ee0c0000e6
:10c7940050fa00006cdd0000ab0e000051170000e1
:10c7a40020160000ec3a000095250000e126000068
:10c7b4002864000052db0000bb5d000061ea000059
:10c7c400daba0000c1c9000073ea00005c56000038
:10c7d400a8c700002c82000043530000c4030000db
:10c7e4004ee6000080e30000786500009830000009
:10c7f40044340000785900002d580000ddd20000b8
:10c80400b9ac00000e2c00006011000050b2000012
:10c81400d6540000389100000b8e0000f295000001
:10c82400d024000028100000bc3c00003718000091
:10c834009cd600007a9800005a3c000060ea000090
:10c844005c23000004760000d4820000d3c2000000
:10c854008e70000065a80000baed00007960000049
:10c8640075c700007b980000caa60000810d000077
:10c874000426000016d70000348600001dbd000009
:10c8840010750000d0a4000000530000e77a0000f7
:10c89400bc870000b12c0000c513000028a20000d2
:10c8a40090090000e4950000326e00004757000034
:10c8b400b73c0000179c000048b70000cf6100009f
:10c8c4004c73000001190000d80400000c10000093
:10c8d400d35200004688000079a20000087b0000c3
:10c8e40097e500002a18000019bb000000a300000f
:10c8f4008329000025280000156800005605000063
:10c90400c89800003486000093b50000a1ae000072
:10c914002ec6000042cb000061fe0000706a0000d9
:10c92400cb06000095f2000042530000f7b200006d
:10c934001419000087b6000075740000809200008e
:10c944000ed000001fa70000739500008580000032
:10c9540045e0000072580000b838000095820000dd
:10c96400d50900004e3a0000cb960000200a0000d2
:10c974002a0500005d5c00004c8c0000855b000013
:10c984001d4f0000c7820000448d00002a61000092
:10c99400e10c0000cc6d000061c200004091000079
:10c9a400c2b30000920e0000e2820000309000004a
:10c9b400d8760000c707000048250000afc8000073
:10c9c40084c600001b83000062c80000f67b0000e0
:10c9d400994000008581000077bc00008169000057
:10c9e400050e0000b6dd0000b1140000142c000098
:10c9f4007ebd0000069600000e800000855a0000ef
:10ca0400dbed0000fb400000830c00006ff600002b
:10ca1400301600008a2200000cbc0000232600000f
:10ca2400287800001d290000410b00001a010000b5
:10ca3400d3a9000035500000e6da00005956000082
:10ca4400810800008481000033850000050d00008a
:10ca54007fad00000d8700006710000050e9000062
:10ca6400f73700001728000031f90000ac37000048
:10ca740043a10000185c00009d0b0000d0290000b9
:10ca84006f910000d23d0000381f0000ad17000078
:10ca940002d90000b487000045a000004c45000006
:10caa40050d0000018a6000074d20000bd2a000077
:10cab40053440000c1060000cc970000b7ef00000b
:10cac40083cc0000b97e0000369a0000c1a10000aa
:10cad4002cbd0000ac1d000066e80000519400006d
:10cae4007c0900002a0f0000de6b000000850000b6
:10caf4009bee0000ee5100006750000070710000d2
:10cb04001184000079fb0000da7e0000e47c000060
:10cb1400cea00000085400000732000042f10000db
:10cb2400c6d90000396a000020f1000026a80000e0
:10cb3400818b0000f7a30000941b00008a290000e9
:10cb4400b7d60000834200005ab00000e8ce0000cf
:10cb5400d93d0000c00800006e3b0000992300008e
:10cb6400040900009bbd0000e8ea000072210000f7
:10cb7400064c0000bd7b0000f60c000010dc000039
:10cb8400b90b000009470000c353000068ea000025
:10cb94005e59000041d40000294e0000bd7300001e
:10cba400f7ec0000ddbb00007733000085210000b6
:10cbb400fc63000068ea00004ec10000e24100008e
:10cbc40031650000e799000033b30000c3a0000002
:10cbd400ca04000017a10000aa0b0000398100005c
:10cbe400085e0000608a0000518600007396000011
:10cbf400a0940000cf8a0000c1db0000b305000050
:10cc0400b1010000c759000061c80000e5bd000083
:10cc140060f00000b2b30000626800004a14000033
:10cc240041c40000961e0000947a0000069800009b
:10cc3400546f0000e500000085930000cd10000053
:10cc4400cada0000806c0000c753000019a6000077
:10cc540028ea00000c530000960300000d2c00008d
:10cc64007ebd0000ce0c0000126e00008286000023
:10cc7400cbde0000ae550000135c000082480000cb
:10cc84007c30000007960000ddca00004e7e0000e4
:10cc9400fdff0000ff5e00000b880000b2ed000005
:10cca4007fdf0000df9b0000137a0000aac20000af
:10ccb40055180000a5a2000006b500004776000044
:10ccc4009dda00000bac0000a7fb0000c0060000ca
:10ccd40026fe000005d60000d3a700006757000019
:10cce400a2b700004f800000cd830000d4b2000042
:10ccf4008ef600008e5d0000aff700008343000055
:10cd0400aee90000deea00000e600000f51000004d
:10cd1400e68a000056ef000083da00004bc00000f2
:10cd2400cc9800005ab60000eb2e0000d8df0000bb
:10cd34009bf7000082db0000112e000018ed0000bc
:10cd440008600000fbcb0000d8d90000c405000037
:10cd5400d82e0000d100000047570000779800004b
:10cd64008b31000028bc0000311a000030c00000e4
:10cd74001cac000024a40000e49c00007ac2000063
:10cd84000ac80000129800009ee100000a6e00002c
:10cd9400e76000006b3d0000814300002da400000b
:10cda4006de500008c99000033670000807200007c
:10cdb4000576000055500000b54e0000a9ed0000b6
:10cdc400bb760000efee0000c2680000b8a00000cf
:10cdd400db0e0000f477000079470000459a00005c
:10cde4002b86000007d000000d3400007201000003
:10cdf40015420000caf800008d830000f8db000033
:10ce0400c5440000994000003391000001ea00008d
:10ce14006f3c00003e400000b29a0000285500001c
:10ce2400830f0000000000000200fa00203a800096
:10ce34007000600002003200104120000100370041
:10ce440030822000f0bf9f00e6e4a900e6c4a900f8
:10ce5400ea04a900e3e4a900e3c4a900ed24a900bd
:10ce6400e3a4a900e384a900e364a900e344a900be
:10ce7400e0e4a900ecc4a900f07f2e000026b6006f
:10ce8400003020000026b700f0f32f000026b60083
:10ce940000a6a9000086a9000046a9008018200069
:10cea40050308800300020000426b70009e6a900ad
:10ceb40009c6a9000986a9000946a9000926a900ee
:10cec40009a6a8000906a90041308000f0f92f0046
:10ced400008060000060a00040308800f0ff230064
:10cee4000c26b600c0442000ffb89700808f500085
:10cef40003003600f07f2c000c26b600210037001a
:10cf0400ffb89700808f50001e003e00ffb99700c5
:10cf1400801f7800110009000380d8008001780088
:10cf24004f007800e7816100cb19dd00623080009a
:10cf3400f17f2c000101610003017100623088005f
:10cf44007fb99700811f7800110009000280d80082
:10cf540001007800cf007800e00f50000900320093
:10cf6400603080004b00de000040e8006700600095
:10cf74004b00dd0062308000810061008080700021
:10cf8400613088000fe6a8001026ef0002e6ef00eb
:10cf940006a6ef0005e6a80005c6a8000586a800b9
:10cfa40005a6a800f09f2f000426b6000506a900d8
:10cfb400400620004eb202000000000000302000b5
:10cfc4000226b70001e6a800400620004eb2020087
:10cfd400000000000080fa000000060000000600c7
:10cfe4000080fb00204388002500320020388000a8
:10cff4007f00600070001000e10f5000fbff340060
:10d0040040438000cf80de00020020000380250022
:10d01400020070008380700034438000cfa2de00e1
:10d024004c29dd00c421de00830171004c21dd00a8
:10d034000200700083807000003888001138880076
:10d044000000000060438000cf80de00020020006a
:10d054000390250002007000838070005443800018
:10d06400cfa2de004c29dd00c421de008301710063
:10d074004c21dd0002007000838070000c0037003a
:10d08400203880007f00600070001000e10f500025
:10d09400fbff3400000020000180250000388800d8
:10d0a4001138880000000000f0102f00d1912500f5
:10d0b40000388800113888000000000000000600d5
:10d0c400304388004143880052438800634388000a
:10d0d40020438000e00f500001003200c0ff070031
:10d0e40000000600e4874700889fbe008a9fbe00b8
:10d0f4008c9fbe008e1f7800800578008204780023
:10d104004fb597003fb197002fb0970028388000a3
:10d114007f446400fdff3a0038388000e00f54007b
:10d12400fdff35006838800088bf9f007e3880008e
:10d134008d3880009c3880006b38880071388800f6
:10d1440089388800933888000800200009202600c8
:10d154000802720089827200043888001538880039
:10d1640000000000080020000930260008037300b6
:10d17400898373000638880017388800000000008f
:10d184007fab9700070020004c3cdd00c434de0078
:10d19400890474004c34dd006fab97000700200055
:10d1a40006037400878374000800200009402600e9
:10d1b40008037300898373000638880017388800d1
:10d1c4000000000001302000810f500002003200f6
:10d1d400e00f50000a003a000fb397006f0363009a
:10d1e40007002000080020000960260008037300df
:10d1f400898373000638880017388800000000000f
:10d20400e00f5500010032002a002000e00f510019
:10d21400010032004200200001002000060020002e
:10d224000770260006007000878070001fb3970007
:10d234000700200006007000878070006152b8006b
:10d24400040070008580700003002000020070005c
:10d2540083807000003888001138880000000000c6
:10d26400203880007f406000fdff3a0030388000a5
:10d27400e00f5000fdff35000fb8970060388800bc
:10d284007e3888008d3888009c3888001000200083
:10d294004f0778004f06be004f05be004f04be0086
:10d2a4004f00b10000000600e4874700889fbe00dd
:10d2b4008a9fbe008c9fbe008e1f78008005780078
:10d2c400820478004fb597003fb197002fb09700c4
:10d2d400283880007f446400fdff3a00383880001d
:10d2e400e00f5400fdff35006838800088bf9f00c0
:10d2f4007e3880008d3880009c3880006b38880030
:10d304007138880089388800933888000800200024
:10d3140009202600080272008982720004388800fd
:10d32400153888000000000008002000093026009d
:10d33400080373008983730006388800173888004f
:10d34400000000007fab9700070020004c3cdd008c
:10d35400c434de00890474004c34dd006fab9700e4
:10d36400070020000603740087837400080020006f
:10d374000940260008037300898373000638880077
:10d38400173888000000000001302000810f500091
:10d3940002003200e00f50000a003a000fb3970079
:10d3a4006f036300070020000800200009602600c6
:10d3b40008037300898373000638880017388800cf
:10d3c40000000000e00f5500010032002a00200098
:10d3d400e00f510001003200420020000100200053
:10d3e4000600200007702600060070008780700089
:10d3f4001fb39700070020000600700087807000ac
:10d404006152b800040070008580700003002000a1
:10d414000200700083807000003888001138880092
:10d4240000000000203880007f406000fdff3a00cb
:10d4340030388000e00f5000fdff35000fb8970032
:10d44400603888007e3888008d3888009c388800d1
:10d45400100020004f0778004f06be004f05be00a5
:10d464004f04be004f00b100000006000000fa00a7
:10d47400889fbe008a9fbe00283880007f446400d5
:10d48400fdff3a0038388000e00f5400fdff3500fe
:10d494006b3880007a3880008938800098388000a2
:10d4a4006038880071388800823888009338880092
:10d4b4000000200001202600000272008182720018
:10d4c400043888001538880000000000000020009f
:10d4d400013026000003730081837300063888003e
:10d4e40017388800000000000fb8970001002000e2
:10d4f4004c09dd00c401de00830171004c01dd0034
:10d504007fb097000100200000007100818071004d
:10d514000200200003402600020070008380700097
:10d52400003888001138880000000000000e200038
:10d5340001702600003888001138880000000000bf
:10d54400203880007f406000fdff3a0030388000c2
:10d55400e00f5000fdff35006b3888007a388800f2
:10d564008938880098388800100020004f05be00d4
:10d574004f04be000080fa00000006000000fa001c
:10d58400889fbe008a9fbe00081e2000083db80088
:10d59400082cb800ffb29700851f7800ffb29700ef
:10d5a400851f78008002eb00851f780007062000a5
:10d5b400871f780007082000871f7800851f7800e0
:10d5c400851f780006034500e0834d0004024400f3
:10d5d400e0824c0034ff0700ee8757001000200063
:10d5e4004f05be004f04be000080fa000000060094
:10d5f400e8874700889fbe008a9fbe008c9fbe00bc
:10d604008e1f7800000578008203780004077800f4
:10d6140085bf9f00263880007f4363000006eb002f
:10d624005f003a006101150007014100f2b79f0055
:10d634006180100003004000e0b79f009643800023
:10d64400a74380006638880096438000a743800083
:10d6540077388800b6438000c74380008638880046
:10d66400b6438000c743800097388800610cb90036
:10d67400a1388000fd7f20008d806000cfd5de00c2
:10d68400010178008c0178000800be00e806020061
:10d69400000000000002450081824d0006002000c9
:10d6a400072026000603720087837200063888006c
:10d6b40017388800000000000fb897008c0f500046
:10d6c4000d003a00a03880008d0660000d0178003e
:10d6d4008fb997000800be00e806020000000000b1
:10d6e4000000450081804d006172b90004005000c3
:10d6f400858058000c003700a03880008d0660003b
:10d704000d0178008c0178000800be00e8060200d4
:10d71400000000000000450081804d006172b900e6
:10d724000000420081804a000a0020000b302600dd
:10d734000a0570008b8570000a3888001b38880041
:10d74400000000007fb097006101b9004c1add00b1
:10d75400c412de00850272004c12dd006fb1970026
:10d764006110b90000007200818072000200200084
:10d774000340260002007000838070000038880097
:10d784001138880000000000000e200001702600ff
:10d794000038880011388800000000001c002000b8
:10d7a4000c0078004f0778004f06be004f05be00fe
:10d7b4004f04be008f00b100000006002243800029
:10d7c400e00f51000c00320032438000820f500001
:10d7d4003600350052438000820f500033003c0075
:10d7e40042438000828f5000300035006243800045
:10d7f400828f50002d003c00b2438000c343800060
:10d8040082388800b2438000c34380009338880084
:10d81400223880007f01610070011100e30f510084
:10d82400fbff340022862000124178000281fb00b5
:10d834006f01610003002000040020000560260041
:10d844000401710085817100023888001338880052
:10d8540000000000041e2000048ab9006101b90020
:10d8640004004100858049000200200003302600a6
:10d87400020070008380700000388800113888002e
:10d88400000000001000210001402600003888003c
:10d8940011388800000000000006200001702600f6
:10d8a40000388800113888000000000000000600dd
:10d8b4000200fa000001eb00f2bf9f0012c0b300a7
:10d8c400e00f50003f003500e08f50003d00350070
:10d8d400f31d2000830f50003a003c00f310200099
:10d8e400838f500037003c00223880007f41610064
:10d8f400fdff3a0032388000e00f5100fdff350093
:10d904007243800083438000623888007243800041
:10d9140083438000733888000f82e9006121b800d6
:10d924008238880093388800223880007f016100a3
:10d9340070011100e30f5100fbff3400041e2000ae
:10d94400048ab9006101b9000400410085804900de
:10d954000200200003202600020070008380700073
:10d964000038880011388800000000000000200002
:10d9740001302600003888001138880000000000bb
:10d98400100021000140260000388800113888006a
:10d9940000000000000e20000170260000388800fe
:10d9a4001138880000000000203880007f406000ab
:10d9b400fdff3a0030388000e00f5000fdff3500d5
:10d9c4007fb99700024078000080fa00000006004a
:10d9d400889fbe000002780010002000820f5200d1
:10d9e4006b003c00838f500069003c0020438000a2
:10d9f400e00f50000e00320030438000800f5200d0
:10da040001003d000002780050438000800f510067
:10da1400010034000001780040438000808f5000f2
:10da240001003d008000780060438000180037004a
:10da3400f01d2000800f5200010034000002780025
:10da4400e00f520001003d000002eb00f010200046
:10da5400808f50000100340080007800e08f500077
:10da640001003d008000eb00f01d2000800f5100fc
:10da74000100340000017800e00f510001003d0076
:10da84000001eb00e08f510005003500f01020008c
:10da9400808f5100030034008001780001003700ba
:10daa4008001eb0025388000ffc262000000eb001b
:10dab40037003a0076438000874380008638880028
:10dac40076438000874380009738880020862000b2
:10dad400104078000083fb006f0363000700200000
:10dae400080020000960260008037300898373007e
:10daf400063888001738880000000000061e200041
:10db0400068bb9006124b9000603440087834c00e6
:10db1400080020000930260008037300898373007d
:10db24000638880017388800000000000300e80069
:10db340001005000cf80de000600200007402600d0
:10db440006007000878070000201e80004015100a3
:10db5400cf91de004c1bdd00c413de00870373008d
:10db64004c13dd00060070008780700000388800c8
:10db74001138880000000000000620000170260013
:10db840000388800113888000000000010002000d0
:10db94004f04be0000000600203880007f40600073
:10dba400fdff3a00000028003438800000026200c3
:10dbb400fdff3a0070438000814380008038880074
:10dbc40070438000814380009138880020862000c3
:10dbd400104078000080fb006f006000010020000e
:10dbe40002002000036026000200700083807000a1
:10dbf40000388800113888000000000004388800cc
:10dc040000002000013026001138880000000000c8
:10dc140000112000e14126000038880011388800f6
:10dc24000000000040062000017026000038880033
:10dc34001138880000000000203880007f40600018
:10dc4400fdff3a0030388000e00f5000fdff350042
:10dc540000000600ea874700889fbe008a9fbe0036
:10dc64008c9fbe008e1f78000004be0082057800e1
:10dc74000305780000408000e00f50002e003a00b9
:10dc84008b0f5400090032008a8f54002a003a0096
:10dc94008b0f54000c00340009057800080078004c
:10dca4000b047800800578000a0037008a8f54003e
:10dcb4000700340088057800090078008a04780099
:10dcc40000057800030037000905780001003700db
:10dcd40088057800208020008040eb0090cf100061
:10dce4000b0032008b0f540005003a000801e800d5
:10dcf4000800e9008a0178008900780008003700ec
:10dd04008900e9008a01e8000b017800030037006c
:10dd14008a0178000b0178008900780008007800f7
:10dd24002bff0700e00f5000a50032002b408800b5
:10dd34003a408800a10037002b4088003a40880010
:10dd44008b0f540022003a008a8f540003003400e1
:10dd5400090078008a047800000578001c0020007f
:10dd64008005eb000c0744008806e9001500370025
:10dd74008b05e80000408000808f550002003a00c7
:10dd84000c00a2008005eb00e00f56000c003200ee
:10dd94000800be0089fe07008040eb0020802000c0
:10dda40090cf100006003200890078000e00780041
:10ddb40082fe0700890078000d0078007ffe0700ce
:10ddc4008904e800890f5500e9ff3d007b00370016
:10ddd4008a8f540022003a008b0f54000300340051
:10dde400080078000b047800800578001c002000ef
:10ddf4000005eb000c8744008906e9001500370094
:10de04000a05e80000408000800f550002003a0037
:10de14000c00a2000005eb00e00f56000c003200dd
:10de24000800be0065fe07008040eb002080200053
:10de340090cf1000060032008e00780008007800b1
:10de44005efe07008d007800080078005bfe070086
:10de54000804e800888f5500e9ff3d0057003700ab
:10de6400888555001e00200002003b008b05ea0057
:10de74000087eb00090555001000200080bf9f00bb
:10de840003003b000a05ea008080eb0081bf9f008d
:10de94008a8f55000e003d000800be0047fe0700b3
:10dea4000e0078000fbf970080bf9f000b00780022
:10deb4008a057800000578000800780009047800d5
:10dec4008004780010002000f0b79f0004003700a1
:10ded4000800be0039fe07008000eb00f1b79f0088
:10dee4000b804500d0b79f000a054500eab79f00a4
:10def4000b0655001a0020008006eb002d003700a9
:10df0400e00f5600040035008fb897008184440068
:10df14005fb09700000656000e044400efb097006f
:10df2400010646008d06e80000408000808f560000
:10df340002003a000a00a2008006eb00e00f550040
:10df44001c0032007fb09700e00f50000d0032003b
:10df5400880078000900780018fe07000040eb00f4
:10df640021802000914f1000120032000900e800c7
:10df74008800780011fe07000900e9008800780095
:10df84000b0037000800be000cfe07006fe8970086
:10df940021802000914f1000060032008900e80023
:10dfa4000800780005fe07008900e90008007800f1
:10dfb40002fe07008b05e900d1ff3b0010002000a2
:10dfc4004f0778004f06be004f05be004f04be0049
:10dfd400af00b10000000600889fbe008a9fbe000b
:10dfe40000047800203880007f406000fdff3a0084
:10dff40030388000e00f5000fdff350029388000e4
:10e00400c54cde00e7c4640021388000f0f12f0025
:10e01400008060000006b300203888000b06200052
:10e024000a08200010002000801f780081002000d2
:10e03400811f7800801feb008b1f78008a1f7800f7
:10e04400801f7800801f78006033b8000602be008d
:10e05400c28020008001eb0028009000b8009000ee
:10e0640091fc0700ee875700e00f5000edff3200ef
:10e07400203880007f406000fdff3a003038800087
:10e08400e00f5000fdff3500678064004500dd00af
:10e0940029388000f1f12f008184640080847400a9
:10e0a4002938880028009000b80090000200200061
:10e0b400032025000201700083817000023888006b
:10e0c4001338880000000000584088004f05be0047
:10e0d4004f04be000000060010017800cf91de005e
:10e0e400e50f5100e08f59000e003e000260010070
:10e0f40005003700070037000a0037000900370021
:10e104000100370006003700b28f02000000000053
:10e1140000000600c48f020000000000000006009a
:10e12400adff07000000060051408000810f500041
:10e1340002003a0090408000000006008000eb00de
:10e14400908f100003003a001000900030009000ff
:10e154000000060000000500881f780000447800d5
:10e16400f0438000e00f50003f003a002138800067
:10e17400ff806000f0801000e28f50004d003400fa
:10e1840020862000904078003086200090cf100038
:10e194000a003200014878000182fb0005002000db
:10e1a4000200200003002500020172008381720036
:10e1b4000238880013388800000000009243800071
:10e1c400a34380006238880092438000a343800008
:10e1d4007338880032408000cf91de0004002000b4
:10e1e40005a025000401710085817100264080008e
:10e1f400cfb3de004c3add00c432de00850272008b
:10e204004c32dd0004017100858171000238880000
:10e2140013388800000000000800fb00cf80de00f7
:10e224000200200003382500020070008380700083
:10e234000038880011388800000000008080200029
:10e2440011c0b30090cf100005003a00a0002000d8
:10e2540001382500003888001138880000000000cb
:10e2640010002000f0438800f0438000e10f5000cc
:10e274000b003a00223880007f0161000000eb00af
:10e28400800f51000b003a00313880000102b200c7
:10e2940002007800808f500006003a00f1438800a5
:10e2a400c039800020408800d13980003140880086
:10e2b400100020004f04780000000600f287470099
:10e2c400889fbe008a9fbe008c9fbe008e1f780070
:10e2d4000004780081bf9f00203880007f406000e8
:10e2e400fdff3a0030388000e00f5000fdff35009c
:10e2f400223880004511de00674761002438800021
:10e30400f0f12f00000162000206b30022388800f9
:10e314000906200010002000801f780081002000e2
:10e32400811f7800801feb00891f780001082000fe
:10e33400811f7800801f7800801f78006033b80048
:10e344000602be0062fd2f000f0141008001eb00b8
:10e354001fb597002a009000ba009000d2fb070076
:10e36400ee875700e00f5000eaff320020388000ab
:10e374007f406000fdff3a00000028003238800032
:10e3840000016100fdff3a00bfb697004fb097004f
:10e39400f0b79f00d8438800020678008d00fb0088
:10e3a400e1b79f007e8157006114b8002800370050
:10e3b4008d4f5000260035006fed97008a4f5000b6
:10e3c40023003c000002fb006fb0970000025200e3
:10e3d4000482e800c225dd0010002000801f7800c0
:10e3e400801f7800801feb0001062000811f780049
:10e3f40001082000811f7800801f7800801f7800aa
:10e404006033b8000b0278008002eb000801be0004
:10e414001fb597002a009000ba009000a2fb0700e5
:10e42400ee875700e00f5000ebff320020388000e9
:10e434007f406000fdff3a0030388000e00f50005c
:10e44400fdff3500afe097000180fb0000064600a9
:10e45400d143800031407800c28720000049780011
:10e46400d1438800ef4f5000d1ff3c000e057800e7
:10e47400e7016500c519dd0024388000f1f12f00a3
:10e484008100620083807000213888000c007800cd
:10e494004f0778004f06be004f05be004f04be0074
:10e4a4002f01b1000000060011017800cf91de00b9
:10e4b400e50f5100e08f590012003e000260010098
:10e4c400080037000a0037000e0037000d0037003f
:10e4d4000100370009003700ca9102000000000063
:10e4e40000000600cc9102000000000000000600bd
:10e4f4002092020000000000000006006fff0700e9
:10e5040000000600000005000800fa00889fbe0015
:10e514008a9fbe008c1f7800000678002138800096
:10e52400ffc06000fdff3a0030388000e00f50006b
:10e53400fdff35002a3880004555de00674565003b
:10e5440022388000f1f12f00810061000106b30040
:10e5540021388800728057006104b8000b0620003f
:10e5640011002000811f780080002000801f7800a7
:10e57400801feb008b1f780000082000801f7800ac
:10e58400811f7800811f78006033b8000602be0046
:10e594000801be002c009000bc00900042fb070064
:10e5a400ee875700e00f5000edff32002038800066
:10e5b4007f406000fdff3a0030388000e00f5000db
:10e5c400fdff3500670065004500dd002a38800046
:10e5d400f1f12f0001056500000575002a38880057
:10e5e4002fb897004f0678004f05be004f04be00b9
:10e5f4000080fa00000006009000780003002f005d
:10e604008381600002002200828f510002003a00e0
:10e614004000900000000600e08f50000b003a001c
:10e624000080e8001000be0064004000e080480064
:10e634009201800000f0a4008180d2009101880042
:10e644001000780092018800000006000000050018
:10e654009000780003002f008381600002002200f4
:10e66400828f510002003a00500090000000060022
:10e67400e08f50000b003a000080e8001000be005c
:10e6840062004000e08048009201800000f0a40095
:10e694008180d200910188001000780092018800e6
:10e6a40000000600000005002f3eb000889fbe0059
:10e6b4008a9fbe008c9fbe008e1f7800e4ef9f00ef
:10e6c40062014100e0814900980180000203780062
:10e6d40006f0a4008383d200970188001605780011
:10e6e4009801880062014100e0814900980180009e
:10e6f4000203780006f0a4008383d2009701880007
:10e70400160378009801880062014100e081490005
:10e71400970180000204780008f0a4008384d200ea
:10e724009901880018027800f4af9f0097018800cf
:10e7340062014100e08149009701800002047800f1
:10e7440008f0a4008384d20099018800180278009c
:10e75400e4af9f009701880062044100e08449000f
:10e76400e70163008301ea00cf19de004331de00d4
:10e7740002814100b2b79f0095067800e08f5600f1
:10e7840003003a00cab79f00fdef9f001300370053
:10e79400350190003fb3970002b1b900020578003b
:10e7a400cf95de000a0144008b814c0025069000c1
:10e7b40043e5de00cfd5de000a037800cfd3de00c8
:10e7c400060441008784490095029000c5b79f0064
:10e7d40067466600fcef9f000d037800efeb97009f
:10e7e400e2cf530001003a0006034300031e200059
:10e7f400830f530003003e0080024300838f5200c6
:10e8040002003600021e200000035100223880005e
:10e814007f416100fdff3a00030028003538800085
:10e8240083826200fdff3a0022c12f000f014100e4
:10e834006115b8006a3888007b3888007c43800002
:10e844008d4380008c3888007c4380008d43800099
:10e854009d388800053888000a0020000b20260017
:10e864001b3888000000000081bf9f00f31d2000ba
:10e8740080815100830f530004003600021e2000e3
:10e8840000015100d2b79f0001003700d6b79f00a6
:10e894007fea97000481fb00130020008219dd0049
:10e8a40083e79f000007eb00eeb79f000e4178005e
:10e8b400efe997000304a2008382fb008502ea00cb
:10e8c400cf2ade00d5af9f005fb397006136b80052
:10e8d4004c6add00c462de00850272004c62dd0019
:10e8e4001c0020000d4026000c0372008d83720072
:10e8f40096b79f00a7b79f006102b900b4af9f000d
:10e90400c5af9f000805be007e0037007feb97006f
:10e91400e04f53000b003200900180000a017800a0
:10e9240002f0a4008b81d200930188001241780088
:10e934009001880061024500e0824d008fe197005c
:10e94400020037000a02be00ffe997008039800008
:10e954004f00de00e04f5000020032002ec12f00b5
:10e964000f074700203880007f406000fdff3a0019
:10e97400010028003038800001006000fdff3a00eb
:10e9840027c12f008f834300000378004800200034
:10e994002f003700e0cf51000a003a0090018000b8
:10e9a4000401780002f0a4008581d200930188005c
:10e9b400124178009001880061024200e0824a001e
:10e9c40013c0b30082c061000600320080398000a9
:10e9d4004f00de00e04f500008003200100020001d
:10e9e40009003700803980004f00de00814f50005d
:10e9f400040032000000eb00030037006fa897000a
:10ea0400010037007fa8970081398000cf08de001d
:10ea1400e0cf500008003200e1006300040032003f
:10ea24000800dd001e4f70000e07e80003003700e9
:10ea34006f4f600001003700801b78000603e80078
:10ea4400dfa897000100630001003a0083c1410080
:10ea54005fb09700800f5300ceff39009fb097003e
:10ea6400013888002fb29700143888000000000095
:10ea74000fbc97008041eb00091e2000240e2000eb
:10ea840005702600110037000940b8003fab97001d
:10ea9400cfab97000000430081804b0006002000ac
:10eaa4000730260006007000878070000038880058
:10eab40011388800000000000438880015388800e8
:10eac400000000000804e8008341e800efeb970031
:10ead40087cf5100ecff39000780fb008fb8970007
:10eae4008080400081bf9f003fb697008006eb0006
:10eaf4000c0545008d854d00efb297008502e800b6
:10eb0400e5b79f006fb39700cfb39700870f53000b
:10eb140004003100f01020008fb89700808f50005f
:10eb24007aff3600203880007f406000fdff3a0005
:10eb340030388000e00f5000fdff35004f077800ab
:10eb44004f06be004f05be004f04be00ef1fb100cc
:10eb54004f1eb10000000600cf3fb000e68747001b
:10eb6400889fbe008a9fbe008c9fbe008e1f7800c7
:10eb740084f79f0034c0b300e4e79f000ff39700cd
:10eb8400e14f530002003a0086437800e7e79f0014
:10eb940062014100e081490098018000020378008d
:10eba40006f0a4008383d20097018800160278003f
:10ebb400f4b79f009801880062014100e081490098
:10ebc400980180000203780006f0a4008383d20039
:10ebd40097018800160278009801880004077800dd
:10ebe40062014100e08149000206be000b012000e1
:10ebf4000003eb0001057800000178000c00be0062
:10ec04008601430027bf2f008f8343008381430085
:10ec1400970180000c04780008f0a4008d84d200d1
:10ec24009901880018047800970188008809780001
:10ec340062064600e0864e000603e8008b05e90004
:10ec4400efff3a00820378000001be008a007800da
:10ec54000700780006022000070020000606410095
:10ec6400878649008403d100610162000281430068
:10ec7400c2b79f00150578008b0f550002003a00bb
:10ec84000b04780011003700a505900035019000b1
:10ec9400cfb3970002b9b90002047800cf94de0024
:10eca4000801460089814e00618465008b04d1000f
:10ecb400090378008003eb000606410087864900bb
:10ecc40095029000f5b79f000a0744000ff19700e2
:10ecd400e24f510002003a008e0147000100370064
:10ece4008e017800021e2000828f510003003e0036
:10ecf40080824100828f520002003600031e2000f1
:10ed040080815100223880007f416100fdff3a007c
:10ed1400050028003238800005016100fdff3a003b
:10ed240025c12f008f824200653888007238880020
:10ed34007a4380008b4380008a3888007a438000bd
:10ed44008b4380009b3888000ff297000482fb00fd
:10ed5400a4b79f0004c4b900080778006173b80021
:10ed64000a0020000b2026000a0473008b84730021
:10ed740008388800193888000000000081037800f2
:10ed8400f21d200000015100828f51000200360064
:10ed9400031e200080815100d3b79f000001eb00c7
:10eda400e2b79f008ff097008182fb008502e900a3
:10edb400d5af9f00dfb197000e8551000b002000f6
:10edc4004c5cdd00c454de00890474004c54dd0046
:10edd4001a0020000b4026000a0274008b82740083
:10ede400e4af9f00f5af9f00cf80de0007027800fc
:10edf40002477800b0af9f00c1af9f007c0037008e
:10ee040081398000cf08de00e0cf500002003200dc
:10ee140022c12f000f014100203880007f40600094
:10ee2400fdff3a0003002800313880008380600031
:10ee3400fdff3a000c04be002ac12f000f05450057
:10ee440081027800efe397000700fb004b002000ed
:10ee540021fd2f008f8040008c88be00dfae97001c
:10ee64002d0037008080620009003a009101800083
:10ee74000803780006f0a4008983d2009701880073
:10ee8400164778009101880061044400e0844c0036
:10ee940081398000cf09de008e80fb00e0cf510075
:10eea400060032008d29de00e1816100c219dd0017
:10eeb4008388de00ef806000090037008d29de00c2
:10eec400e1816100c219dd008388de00ef8060000b
:10eed4008180400023bf2f008f814100e3807800b0
:10eee40083398000cf19de00e0cf510008003200e2
:10eef400e1816200040032008b08dd0012c9700059
:10ef04000201e800030037006fc960000100370008
:10ef1400011d78008502e8005fb39700868f5200d8
:10ef2400d0ff390027fd2f008f8343001706be0052
:10ef34006fa8970000388800ffa897001138880050
:10ef440000000000840178008040eb00071e2000d0
:10ef54000a0020000b302600280e2000097026002d
:10ef640094af9f00014378000f0037000718b800e2
:10ef74003faa9700cfaa97000000420081804a0070
:10ef84000a0070008b8070000038880011388800f7
:10ef940000000000083888001938880000000000cc
:10efa4008301e8000643e8008ff29700854f530081
:10efb400eeff39001faa97002fb397000602420004
:10efc400cfb3970087b79f004fb8de0090b79f007c
:10efd40007fe2f008f8343001703be00060646007a
:10efe40087864e006fb097000000e800e0b79f00ee
:10eff400efb09700ffb19700838f500003003100fa
:10f00400f1102000810f52007dff3600203880006f
:10f014007f406000fdff3a0030388000e00f500070
:10f02400fdff35004f0778004f06be004f05be00b8
:10f034004f04be00ef1fb100ef1fb1006f00b1001d
:10f04400000006000200fa0002002f001001610017
:10f0540001002200810f510002003a00500090008c
:10f064003200370021388000ffc06000fdff3a0005
:10f07400010028003238800001016100fdff3a00e0
:10f0840066388000753880008438800093388000aa
:10f09400b00090002000900060388800713888002b
:10f0a4008f83e9006138b80080388800913888007f
:10f0b4001000200001202600003888001138880044
:10f0c4000000000002388800000020000130260003
:10f0d40011388800000000001000240001402600c0
:10f0e400003888001138880000000000600e2000fd
:10f0f40001702600003888001138880000000000e4
:10f10400203880007f406000fdff3a0030388000e6
:10f11400e00f5000fdff3500663888007538880020
:10f1240084388800933888007fb897000080fa00fc
:10f13400000006000200fa0002002f001001610026
:10f1440001002200810f510002003a0040009000ab
:10f154003200370021388000ffc06000fdff3a0014
:10f16400010028003238800001016100fdff3a00ef
:10f1740066388000753880008438800093388000b9
:10f18400b00090002000900060388800713888003a
:10f194008f83e9006138b80080388800913888008e
:10f1a4002000200001202600003888001138880043
:10f1b4000000000002388800000020000130260012
:10f1c40011388800000000001000240001402600cf
:10f1d400003888001138880000000000600e20000c
:10f1e40001702600003888001138880000000000f3
:10f1f400203880007f406000fdff3a0030388000f6
:10f20400e00f5000fdff350066388800753888002f
:10f2140084388800933888007fb897000080fa000b
:10f2240000000600cf3fb0006f0fb000889fbe0003
:10f234008a9fbe008c9fbe008e1f78000007780056
:10f2440001057800f2b79f00c3ef9f0030c0b30000
:10f25400e0e79f00e1cf510002003a0083407800cc
:10f26400e1e79f00203880007f406000fdff3a0006
:10f27400010028003838800001046400fdff3a00d2
:10f284007fb19700b2009000a2019000633888001b
:10f294007138880025b02f008f824200612bb8009e
:10f2a400863888009738880036002000072026001a
:10f2b40006388800173888000000000008388800e5
:10f2c40006002000073026001738880000000000e0
:10f2d40016002000174026000638880017388800da
:10f2e40000000000660e2000077026000638880023
:10f2f40017388800000000000200780084bf9f00d7
:10f304008cff070080027800e18062008580400065
:10f31400a1b79f000fba970094027800888f52001b
:10f324000b00320024039000cfb3de00c604b0000b
:10f334000780b00034049000088cb9000801430031
:10f34400e0814b0014029000c4b79f00080037000e
:10f354007fb097003bff0700c0b79f007fb09700c6
:10f3640074ff070080027800c2042000030020001c
:10f374000a0078004fed9700e24f550002003a0072
:10f38400058242000100370005027800071e2000b4
:10f39400870f520003003e008e044200878f540002
:10f3a40002003600041e20000e025200f71d200049
:10f3b4008e835300870f520002003600041e200083
:10f3c4000e025200d4b79f00612db8004c5cdd00e2
:10f3d400c454de00890474004c54dd00160020007f
:10f3e40007402600060274008782740084b79f00d9
:10f3f40095b79f008000eb0001447800cfea9700a6
:10f404008582fb00f5af9f000505e900caaf9f00a8
:10f414005fb297006125b8004c5edd00c456de0083
:10f424008d0676004c56dd0006057600878576004d
:10f43400daaf9f00ebaf9f006172b900a4af9f00e9
:10f44400b5af9f00010778000206be00ffb5970024
:10f45400af003700223880007f416100fdff3a0091
:10f46400040028003338800084816100fdff3a00e5
:10f47400243880004522de00e743620026388000fd
:10f48400f5f12f00850263000560a000253888008f
:10f49400bb0290002b0590006a38880075388800fc
:10f4a40022b22f0082824700853888009338880072
:10f4b40004002000052026000402760085827600e0
:10f4c40004388800153888000000000003388800dc
:10f4d4000330260013388800000000000fb29700a4
:10f4e400043888009fb29700153888000000000097
:10f4f400640e200005702600043888001538880042
:10f5040000000000223880007f416100fdff3a00c6
:10f51400050028003338800085816100fdff3a0032
:10f52400678263004522dd0026388000f5f12f0054
:10f5340085026300048272002438880084398000c4
:10f544004f22de00834f52000200320041c12f00df
:10f554008f8040008002eb0046c12f000f03430060
:10f564002ab22f000a814700efe197008304fb00d1
:10f57400470020004fad97002500370089816200c5
:10f5840001003a0032447800833980004f1ade00cb
:10f594008881fb00e04f5200060032000a2ade0098
:10f5a400610262004222dd008499de00ef81610085
:10f5b400090037000a2ade00610262004222dd00ef
:10f5c4008499de00ef8161008381410024b02f0023
:10f5d4000f024200e4817900843980004f22de006a
:10f5e400e04f5200080032006182620004003200e1
:10f5f4008719dd0091c871008100e800030037001d
:10f60400efc8610001003700031b78008502e800a1
:10f61400dfb19700838f5200d8ff39002238800071
:10f624007f416100fdff3a00040028003338800068
:10f6340084816100fdff3a0044c12f000f024200a3
:10f6440064388800733888007443800085438000e0
:10f65400843888007443800085438000953888008e
:10f66400033888000400200005202600153888008f
:10f67400000000005faa970004388800efaa9700f2
:10f68400153888000000000080047800051e200062
:10f69400260e20000770260003427800fbb79f0067
:10f6a400110037000549b8002fad9700bfad970092
:10f6b4000201450083814d000a0020000b30260022
:10f6c4000a0171008b8171000238880013388800a8
:10f6d4000000000006388800173888000000000089
:10f6e4008904e8000442e800cfed97008b4f5200f4
:10f6f400ecff3900ffb597007fa997000200400096
:10f70400afb1970003064600e0864e000e07e800fe
:10f714004fb29700840f570003003100f31020000c
:10f72400830f50004bff3600203880007f4060007c
:10f73400fdff3a0030388000e00f5000fdff350037
:10f744004f0778004f06be004f05be004f04be00b1
:10f75400ef1fb100ef1fb1006f0fb10000000600f2
:10f76400cf3fb0006f02b000889fbe008a9fbe00ea
:10f774008c9fbe008e1f780000077800010578007a
:10f78400e2b79f0083ef9f00203880007f40600035
:10f79400fdff3a00010028003838800001046400ad
:10f7a400fdff3a006fb09700b00090002001900078
:10f7b400623888007138880023bd2f008f81410092
:10f7c400611bb8008638880097388800360020000e
:10f7d400072026000638880017388800000000003b
:10f7e40008388800060020000730260017388800f3
:10f7f400000000001600220007402600063888009a
:10f804001738880000000000660e200007702600ec
:10f81400063888001738880000000000f4b79f00fd
:10f8240044fe0700d0b79f00e70260007fb2970054
:10f83400888f52000400320085ff2f00850060008d
:10f84400e8804000d1b79f0094027800e08f520016
:10f854000c00320024039000cfb3de000605b00094
:10f864000780b000340490005fb097000884b900aa
:10f8740008014300e0814b001402900094b79f00fc
:10f88400080037006fb09700eefd070090b79f00a7
:10f894006fb0970027fe0700800278000205200061
:10f8a400030020000a0078008fe89700e2cf5000a0
:10f8b40002003a0005824200010037000502780088
:10f8c400071e2000870f520003003e008e044200f2
:10f8d400878f540002003600041e20000e025200de
:10f8e400f71d20008e835300870f5200020036005c
:10f8f400041e20000e025200b4b79f00612db80010
:10f904004c5cdd00c454de00890474004c54dd00fa
:10f914001600200007402600060274008782740047
:10f92400f4af9f0085b79f008000eb00a1b79f0054
:10f934008fea97000504a2008582fb008502ea0095
:10f94400cf2ade00c5af9f003fb297006125b80003
:10f954004c5edd00c456de008d0676004c56dd009c
:10f964000602760087827600d4af9f00e5af9f0041
:10f974006172b900a4af9f00b5af9f000206be003c
:10f9840001477800b7003700223880007f416100ca
:10f99400fdff3a00040028003338800084816100b0
:10f9a400fdff3a00243880004522de0067436200f0
:10f9b400f5f12f008002fd000427b6008002fd004f
:10f9c4006fb19700b2029000220290006438880060
:10f9d4007538880062bd2f00828247008538880010
:10f9e40093388800040020000520260004027600d5
:10f9f40085827600043888001538880000000000ed
:10fa040003388800040020000530260015388800db
:10fa140000000000ffa99700033888000fb2970088
:10fa24001438880000000000640e200005702600d1
:10fa3400043888001538880000000000223880004f
:10fa44007f416100fdff3a00050028003338800043
:10fa540085816100fdff3a00670263004522dd00f5
:10fa640026388000f5f12f008502630004827200bd
:10fa740024388800843980004f22de00834f5200ee
:10fa84000200320041c12f008f80400045bd2f008d
:10fa9400ef857a0022bd2f006f0579008003eb000b
:10faa4000743780048c12f000f04440063bd2f00b2
:10fab400038147004900200025003700e04f530030
:10fac40002003a003247780016c0b30006426700cd
:10fad4000700320083398000cf19de0015002000b2
:10fae400e0cf510008003a008b027800060037008e
:10faf40083398000cf19de008002eb0084cf5100ef
:10fb040001003a008a027800843980004f22de0026
:10fb1400e04f5200080032006182630004003200aa
:10fb24008929dd0091c871008100e80003003700d5
:10fb3400efc8620001003700051c78008703e80065
:10fb44004faa97008481630001003a0006434300f2
:10fb5400bfb29700858f5300d8ff39002238800048
:10fb64007f416100fdff3a00040028003338800023
:10fb740084816100fdff3a0044c12f000f0242005e
:10fb8400643888007338880074438000854380009b
:10fb94008438880074438000854380009538880049
:10fba400033888000400200005202600153888004a
:10fbb400000000005fa99700023888006faa970030
:10fbc4001438880000000000000578000b1e200097
:10fbd4000800200009302600260e200007702600a9
:10fbe400800278000342780081bf9f000f00370035
:10fbf4000b51b8002fa89700bfa89700020140003e
:10fc040083814800080171008981710002388800ed
:10fc14001338880000000000063888001738880070
:10fc2400000000000a05e8000442e8008fe897009d
:10fc3400814f5200eeff3900050078008fb897001d
:10fc44000fe997008281fb0003004000dfb19700b9
:10fc540003064600e0864e002fb297000402e80037
:10fc6400a4b79f00afb297001fb19700828f5200d4
:10fc740003003100f3102000830f500042ff3600d0
:10fc8400203880007f406000fdff3a00303880005b
:10fc9400e00f5000fdff35004f0778004f06be000f
:10fca4004f05be004f04be00ef1fb100ef1fb100af
:10fcb4006f02b100000006000200fa0002002f00eb
:10fcc4001001610001002200810f510002003a007e
:10fcd400200890003300370021388000ffc0600006
:10fce400fdff3a0001002800323880000101610064
:10fcf400fdff3a0066388000753880008438800043
:10fd040093388000b0009000200090006038880094
:10fd1400713888008f83e9006138b8008038880022
:10fd24009138880002388800000020000120260055
:10fd3400113888000000000002388800000020000c
:10fd44000130260011388800000000001000240053
:10fd540001402600003888001138880000000000a7
:10fd6400600e2000017026000038880011388800d9
:10fd740000000000203880007f406000fdff3a0052
:10fd840030388000e00f5000fdff350066388800f1
:10fd94007538880084388800933888007fb89700c5
:10fda4004880de000080fa0000000600cf3fb0006b
:10fdb4008f03b000889fbe008a9fbe008c9fbe0048
:10fdc4008e1f7800c0b79f00b1b79f00020778006c
:10fdd400c3e79f0094b79f00263880007f03630029
:10fde400700313008002eb00e30f5300350134006d
:10fdf400258620009542780085e79f009e027800c2
:10fe040007002f008783620006002200868f5300bc
:10fe140013013a0000bc2f000f0040001500090038
:10fe24003e5878006001b1006e01b10065034300e3
:10fe3400060878001700200024bc2f0087377a00ba
:10fe4400068028001700200040bc2f000f0040004f
:10fe54000688be006f836200e4025300e18f520003
:10fe640034003e00203880007f406000fdff3a00ef
:10fe7400060028003538800086826200fdff3a00c3
:10fe840064034700be0390001603780066388800b8
:10fe940077388800068028001700200086388800fc
:10fea40097388800053888000600200007102700ce
:10feb400173888000000000005388800060020007c
:10fec4000720270017388800000000000e0b900060
:10fed4009e0b9000020020000340270002017300e3
:10fee4008381730002388800133888000000000002
:10fef400203880007f406000fdff3a0002002800a7
:10ff04003538800082826200fdff3a00e2398000c9
:10ff140062016100850f5100cf003a00e53980008d
:10ff2400e1826200828f5200cb003a008082eb00b3
:10ff3400e40037008082eb00e00f5300e1003a0058
:10ff4400640347001603be0074845700068cbe0089
:10ff540025388000c52ade00e7c26200e5df9f0085
:10ff64006e059000fe059000465cdd004a53de00fd
:10ff740006037400ca5bde008604780089bf9f0014
:10ff8400ca4cdd0089045500d9b79f002038800091
:10ff94007f406000fdff3a0030388000e00f5000e1
:10ffa400fdff35002b388000f9f12f0089846500ae
:10ffb4000906b3002938880060bd2f0080854700fa
:10ffc4000fbd97006066b80033003700054020007d
:10ffd4000002eb0062bd2f000f01410084014100cb
:10ffe40004004600e0804e0000047800cf84de0068
:10fff400f48357001703be000800430089804b00b8
:020000040001f9
:100004009201800000f0a4008180d2009101880058
:1000140090497800920188000402e8008502e90012
:10002400ecff3a00203880007f0060007000100070
:10003400e30f5000fbff340010002000801f780005
:1000440001402000811f7800801feb000206200081
:10005400821f780004082000841f7800801f780025
:10006400801f78000c03be006022b800a2042f0099
:10007400130020000b0078008000eb008af40700d6
:1000840006402000070020000c0643008d864b002c
:100094000a05e900ee875700e00f5500cbff3a0050
:1000a4008fbb9700613cb8004a4bdd00c643de00bd
:1000b400870373004a43dd000a0678001200370004
:1000c40069bd2f008f8444008c8244000c004300df
:1000d400e0804b0000017800cf81de00f4845700fb
:1000e4001904be000200440083804c009401800087
:1000f40000f0a4008180d20091018800904a780029
:10010400940188000c06e8005fb09700800f560049
:10011400ebff3900203880007f0060007000100081
:10012400e30f5000fbff340015002000851f78000a
:10013400cfb09700811f7800801feb0008062000d5
:10014400881f780008082000881f7800851f780021
:10015400851f78006022b800a2042f00130020003d
:100164000b0078008000eb004ff40700ee87570087
:10017400203880007f406000fdff3a00080028001e
:100184003538800088826200fdff3a006fd99700fd
:10019400e7036100c53bdd0028388000f6f12f003d
:1001a400060364000703730026388800a6042f00a2
:1001b40017002000663888007738880008802800f7
:1001c400190020008838880097388800053888008e
:1001d40006002000071027001738880000000000e0
:1001e40005388800060020000720270017388800fb
:1001f400000000000e0b90009e0b900002002000f7
:1002040003402700020173008381730002388800d1
:100214001338880000000000203880007f40600010
:10022400fdff3a0002002800353880008282620017
:10023400fdff3a00e239800062016100850f510040
:1002440005003a00e6398000610363008082eb0018
:10025400820f53001b0032000ebc2f000f07470013
:100264000e00780094fe070080027800e1cf52006f
:1002740003003200e4cf52000e003a0007003700ba
:100284001fb29700cfe197000e017800bfb097002e
:100294004fb0970032fd0700060037001fb29700e9
:1002a400cfe197000e017800bfb097004fb09700e0
:1002b400dcfb0700208620000fe29700044878004a
:1002c40015002000050078004f0778004f06be0097
:1002d4004f05be004f04be00ef1fb100ef1fb10079
:1002e4008f03b10000000600263880007f436300be
:1002f400fdff3a000700280036388000070363003a
:10030400fdff3a006038880071388800063888009c
:1003140000002000011027001138880000000000b0
:10032400823888009338880006388800000020004e
:100334000120270011388800000000000000200080
:100344000140270000027200818272000438880094
:10035400153888000000000007003700e0398000ed
:10036400c003b200810f500003003200e039800066
:10037400c043b20000000600e1398000e280600062
:10038400f6ff3200e0398000c043b20000000600ee
:1003940000a0fe003600f800849fbe00869fbe00c9
:1003a4009080a90050388000700060001000320076
:1003b4000a87a900c0488000e00f50000c003200fa
:1003c400e2488000d14880002ab302000000000007
:1003d4007191200080487800e04f500004003a00fa
:1003e400c0488000a04088000000eb00c04888009e
:1003f4004f03be004f02be003600f9000080fe002d
:10040400004006000a87a9000887a800a080a80069
:100414000000060021388000ffc0600010002000aa
:1004240002003a00303880004f00de000000060071
:100434000200fa00889fbe00004478000188200072
:100444008008eb000180e8000008eb006a804000af
:100454000008eb000080e8000008eb000080e800e2
:100464000008eb000080e8000008eb000081eb00ce
:1004740070408000804f5400340039008040800078
:10048400804f540031003e00604080004a00de008e
:1004940063006000e10f50002c003c00d1bf9f00be
:1004a400dcff07000001eb00dfb89700820f50006b
:1004b40026003a005040800010007800e10f500000
:1004c40008003200e50f50000a003200820f50008d
:1004d4001b003a0008407800e08f02000000000092
:1004e4001200370008407800489002000000000025
:1004f4000e00370009102000c080200090846400a2
:100504000081eb0011003a000840780012f7070060
:10051400890f50000c003200c03980002040880050
:10052400d039800030408800050037000188200061
:10053400084078004a9002000000000002003700e2
:10054400120020000100370000017800020078004a
:100554004f04be000080fa000000060000002400e2
:1005640001003700000000008139800080806000b5
:10057400fcff3a003107a90031e7a900000006009a
:10058400881f7800c4a2a800c0a2a9004487a800bc
:10059400303a8000f01fb20001c024000100700056
:1005a400303a880020f207000004eb002838880065
:1005b4002839880038398800483888005838880035
:1005c40088398800b839880098398800c839880083
:1005d400d839880008388800183888002238800004
:1005e400f1f12f00010161000004200000017100fd
:1005f4002238880022398000810061000080700068
:10060400203988002139800080ff2f00008060009d
:100614000000a0002039880026c7a8002647a800ab
:100624002687a9002607a80026a7a9002627a80030
:100634002667a80026e7a900011e2000e1388800eb
:1006440000112000f0388800a1388800b0388800f4
:10065400d020200000398800e011200010398800e3
:100664006b4040002be7b700080078002ae7b7008a
:10067400a0c0b3002de7b700080078002ce7b7004e
:100684002ac7bf00b042b0002ee7b7002cc7bf0096
:100694006c4040002fe7b7002ec7bf0028e7b70023
:1006a4002fc7bf0029e7b70000b0240001002000d5
:1006b40090438800a1438800b0438800c143880068
:1006c4007043880081438800c0388800d838880087
:1006d4003ea7ef002727a800a0ff0700f0ff2c008b
:1006e4002427b6009080a900a080a90005e7a800ef
:1006f400400620004eb20200000000002707a800b8
:100704002086200008487800f3102000f21d200005
:100714008800780008007800adf407004006200047
:100724004eb2020000000000084078002cf20700de
:100734004f0478000000060060912000104078000b
:10074400e44f50000c003e00670060004500dd00ef
:1007540022388000f1f12f000101610000017100d5
:1007640022388800223980008100610000807000f6
:100774002039880031e7a8000000060031e7a9000d
:1007840022388000f1f12f000101610000042000f3
:100794000001710022388800223980008100610044
:1007a4000080700020398800000006008039800035
:1007b4004f00de00000006000080fb000100200066
:1007c40061005000e080580062912000e70f500063
:1007d400e08f580013003e0000600100070037005e
:1007e400080037000f003700080037000d003700fd
:1007f4000c0037000b003700060037000049eb00ff
:100804000600370010c0b3000300370020c0b30057
:100814000100370030c0b300004978000040eb000d
:100824000000060040c0b3000049780000c0eb009f
:10083400000006000002780000c0eb00e00f520048
:100844001c0032008102410003102000838f5200fb
:1008540018003e003107a8008001eb0006002400c8
:100864001000370001c0410030e7b7008382410027
:1008740085024200154078008083fb0015409000fb
:100884004800dd000700700090398800010037003f
:10089400000000008039800006006000fcff3a0080
:1008a4008301e800828f5100eeff39003107a9006f
:1008b4000040eb00000006003043880041438800fc
:1008c4005243880063438800000006000080fb0058
:1008d4002043880000000600889fbe008a9fbe0057
:1008e4008c1f7800000578000104780082057800e8
:1008f400030678000c820200000000000002eb00f6
:10090400840f5000090032000d0037008800780081
:1009140009007800e06b0200000000008904e80090
:10092400898f5500f9ff3d000804e800880f560040
:10093400020035008a047800f9ff37001400200013
:10094400040078004f0678004f05be004f04be0037
:1009540000000600ea874700889fbe008a9fbe0009
:100964008c9fbe008e1f78000004be000205be00ee
:100974000c82020000000000800078000000eb0000
:10098400808f5000af003a002a4088003b40880026
:100994008a0f540025003a008b8f54000300340062
:1009a400090078008b047800800578001c00200082
:1009b4000005eb000c0744008806e9001800370026
:1009c4000a05e80000408000800f550002003a004c
:1009d4000c00a2000005eb00e00f56000f003200ef
:1009e4000800be00e06b0200000000008040eb0045
:1009f4002080200090cf1000080032008900780089
:100a04000e007800e06b020000000000890078000e
:100a14000d007800e06b0200000000008904e8008b
:100a2400898f5500e6ff3d00850037008b8f540009
:100a340025003a008a0f54000300340008007800af
:100a44000a047800000578001c0020008005eb00f3
:100a54000c8744008906e900180037008b05e8007c
:100a640000408000808f550002003a000c00a20074
:100a74008005eb00e00f56000f0032000800be00b6
:100a8400e06b0200000000008040eb0020802000aa
:100a940090cf1000080032008e0078000800780023
:100aa400e06b0200000000008d0078000800780070
:100ab400e06b0200000000000804e800880f550005
:100ac400e6ff3d005e003700080555001e002000cb
:100ad40002003b000a05ea000087eb008985550007
:100ae4001000200080bf9f0003003b008b05ea003c
:100af4008080eb0081bf9f008b0f55000f003d00ed
:100b04000800be00e06b0200000000000e00780048
:100b14000fbf970080bf9f000a0078000b05780084
:100b240080057800080078000904780080047800c3
:100b340010002000f0b79f00050037000800be0039
:100b4400e06b0200000000008000eb00f1b79f00a2
:100b54000a004500d0b79f008b854500ebb79f0086
:100b64000a8655001b0020008006eb003200370087
:100b7400e00f5600040035008fb8970081844400cc
:100b84005fb09700000656000e044400efb09700d3
:100b9400010646008d06e80000408000808f560064
:100ba40002003a000b00a2008006eb00e08f550023
:100bb400210032007fb09700e00f50000f00320098
:100bc4008800780009007800e06b02000000000053
:100bd4000040eb0021802000914f100016003200ed
:100be4000900e80088007800e06b020000000000c3
:100bf4000900e900880078000d0037000800be00f5
:100c0400e06b0200000000006fe8970021802000e4
:100c1400914f1000080032008900e80008007800b5
:100c2400e06b0200000000008900e9000800780081
:100c3400e06b0200000000000a05e900ccff3b0065
:100c4400100020004f0778004f06be004f05be007d
:100c54004f04be00af00b10000000600f3102000f6
:100c6400f21d20006000b800ea6c020000000000e1
:100c74008000eb00810f5000f8ff32002140880013
:100c84003140880000000600881f78000004eb0053
:100c94000840880020802000084878002840880008
:100ca40038408800c2820200000000002086200034
:100cb40008487800ce6d020000000000084078006b
:100cc400f2670200000000008080200008487800dd
:100cd4009080200000c8eb004f047800000006005c
:100ce400af02b000889fbe008a9fbe008c9fbe00ea
:100cf4008e1f7800f0b79f0081b79f0082bf9f00ce
:100d040003077800c4b79f00b5b79f00c6ef9f00e4
:100d14006125b90052502b00030020000a00be00d8
:100d2400e80602000000000081af9f003fb097007a
:100d34006104b90052502b00030020000800be00db
:100d4400e806020000000000f1a79f00c055dd0086
:100d54000a0020000c0024001d0020000a00560098
:100d64008b805e00b0af9f00c1af9f00c044dd0028
:100d7400080020000800560089805e0090af9f00a4
:100d8400a1af9f008fb09700810347008783d100f4
:100d9400d7b79f008701e800a3b79f000fb897005b
:100da400ffb09700810440000984d1008801e80065
:100db40093b79f004fe897000085fb008a007800f6
:100dc4000104b200f1af9f00e1016500e3af9f00b1
:100dd4000fb897000000e900e0a79f008a007800a0
:100de4000102b200d1a79f00d8af9f00ffb69700c1
:100df4008fb497000fbe97004fb497008abf9f002f
:100e04003fb597000c820200000000000002780049
:100e1400e00f5200d4013a00144280000500200083
:100e2400f10f5200e08f5a00f6ff3e00046001000b
:100e3400110037005a003700440137007b003700a7
:100e44005601370094003700a2013700ad00370087
:100e5400b3013700c70037007e013700e1003700d7
:100e64008d013700f90037005c01370012013700ab
:100e740069013700140037008fa9970003438800e5
:100e84007fa09700f0428800cfa897009142880085
:100e9400afa9970083428800e8428800da428800bc
:100ea4008002eb00c5428800b54288007842880081
:100eb4001400200064428800554288004a42880099
:100ec4003542880025428800b5428000f442800003
:100ed400848f520003003400240020001442880050
:100ee4001a013700c4428000544288002542880019
:100ef400e642800005438000850f520010003c004c
:100f040095428000e08f5200050034000603e9009a
:100f1400e6428800e58242000602520001003700e2
:100f2400e3824200040242000482420094428800a8
:100f3400c44280000402e800c4428800050037006f
:100f44000402e800c4428800840f530001003d00fd
:100f5400e442880085428000b4428000e08f520061
:100f640006003400d64280000603e900d642880019
:100f7400e58242000602520001003700e38242008b
:100f8400040242000482420084428800b442800089
:100f94000402e800b44288001400200014428800cf
:100fa40075428000e4428000848f520004003a00bd
:100fb400d642800044428000860f5200c2ff3200b5
:100fc4006fa89700e00f500016003200858254008d
:100fd4005642800006825400848f520002003d0075
:100fe400a5428800020037000402e900a4428800f8
:100ff4000603460044428000848254003442800048
:1010040004024600a3428000060178000400be00ea
:10101400ea6c02000000000080057800e08f5500b3
:1010240053013200340020003b0137008fb8970091
:10103400628260001600320074428000040246009e
:101044005542800005034600860f5200020034001a
:10105400a442880001003700a64288004442800070
:101064000403460085825400344280008481540085
:101074000601780085007800a0428000ea6c020036
:101084000000000080057800e08f55003801320030
:1010940054002000200137008fb99700648261005a
:1010a400160032007442800004024600264280008a
:1010b40086024600850f520002003400a4428800d4
:1010c40001003700a54288004442800084024600a3
:1010d400644280000402470086014700050178004d
:1010e40084007800a0428000ea6c02000000000046
:1010f40080057800e08f55001d0132007400200047
:10110400050137000fb8970068026000170032002d
:101114007442800084024700264280000602470091
:10112400848f520002003400a54288000200370078
:101134000402e800a44288000603460064428000da
:10114400840246004442800084014700060178007e
:10115400a142800005007800ea6c02000000000053
:1011640080057800e08f55000101320094002000d2
:10117400e90037008fb897007082600017003200d2
:1011840074428000840247005642800006024700f1
:10119400848f520002003400a54288000200370008
:1011a4000402e800a442880034428000848256008d
:1011b40006835600444280008401470005017800fc
:1011c400a142800006007800ea6c020000000000e2
:1011d40080057800e08f5500e5003200b40020005f
:1011e400cd003700dfa19700e08f510015003200d9
:1011f4007442800004825600564280008682560063
:10120400850f520002003d00a4428800010037000f
:10121400a542880034428000840247004442800092
:101224000482560086014700a24280000400be00ea
:10123400ea6c02000000000080057800e08f550091
:10124400cb003200d4002000b30037007fa8970001
:10125400e00f5000160032007442800004825600f1
:101264002642800086825600850f520002003d000f
:10127400a442880001003700a54288000683540078
:101284004442800084825600644280008481540079
:10129400a24280008600780005007800ea6c020013
:1012a4000000000080057800e08f5500b000320097
:1012b400f400200098003700cfe89700e0cf5000fa
:1012c40018003d00744280000483540025428000cd
:1012d40005825400840f530002003d00a64288009a
:1012e400020037000402e900a4428800644280003e
:1012f40004835600444280000482540085825600d0
:10130400a34280000601780084007800050078007c
:10131400ea6c02000000000080057800e08f5500b0
:1013240093003200e342800073428800c042800090
:1013340060428800d142800041428800b34280006c
:101344003342880014012000730037008d0f5600cb
:1013540002003a00890f57007f0032000fb897004f
:10136400620260000b0032000c0345008902e800b1
:101374000c024400dfb19700060178000400be00af
:10138400ea6c02000000000080057800e08f550040
:1013940077003200440020005f0037008fb89700c8
:1013a400648260000b0032000c0245008c02440091
:1013b4008e01780004017800afb097000500780032
:1013c400ea6c02000000000080057800e08f550000
:1013d40067003200e40020004f0037008fb9970007
:1013e400708261000a0032008e0244000d02e8009f
:1013f4008e0145005fa997000400be00ea6c02005c
:101404000000000080057800e08f5500580032008d
:1014140004012000400037000fb897006802600004
:101424000a0032000e0244008e0145000c017800cf
:10143400840078001fb09700ea6c020000000000ee
:1014440080057800e08f550049003200a400200098
:10145400310037008d0f56001c003200cfe8970092
:10146400e0cf50000a003d000a82540088815400f5
:101474005fa99700840078000d007800ea6c0200f0
:101484000000000080057800e08f5500380032002d
:10149400c400200020003700efa99700e08f51001e
:1014a4000a0032000a825400888154006fa1970018
:1014b400840078001fb09700ea6c0200000000006e
:1014c40080057800e08f5500290032006400200078
:1014d400110037008e8f54001f0032007fa8970040
:1014e400e00f50000b003200088256008a8256003a
:1014f400dfb19700040178008900780005007800c6
:10150400ea6c02000000000080057800e08f5500be
:1015140017003200840020001442880039fe37008e
:101524004feb97000602b2000b003200ffb09700a9
:10153400cfb1970003815000bfb1970003805000e2
:101544008e01e900afb09700ea6c020000000000d1
:10155400e00f5000070032000000eb00104288004a
:1015640010002000030037000000eb0001003700ea
:101574000b0078004f0778004f06be004f05be00f1
:101584004f04be00af02b100000006000f02b0001d
:10159400889fbe008a9fbe008c9fbe008e1f78006d
:1015a400a0b79f0091b79f0082b79f00f3af9f0041
:1015b400e4af9f000c8202000000000000057800e8
:1015c4008002eb00850f5500fc003a006fa89700dd
:1015d4006104b90052502b00030020000800be0033
:1015e400e806020000000000810278008502e8009d
:1015f400a5af9f00c044dd000800200006002400c1
:10160400170020000804530089845b00efa89700aa
:101614008a8f5000ab003200090178000100780085
:10162400b0b79f00160020008a017800a20037009e
:101634008301e80005408000858f510002003a00d4
:101644000600a2008001eb00e00f53008c00320082
:101654009fb097003fb09700808550008fb09700ef
:10166400010745008b0078000e00780082bf9f00c0
:10167400f3b79f00e6b79f00e06b02000000000094
:101684001fb097000a005000d0af9f00bfb0970072
:101694000fb0970000864000dfa897000c00780088
:1016a400e06b020000000000bfb097007fa8970025
:1016b40080844000890078000e007800e06b02000e
:1016c40000000000ffa8970081004500c1af9f0003
:1016d4000c007800e06b0200000000002fb09700bf
:1016e4000a005000b0af9f0089007800e06b020050
:1016f40000000000afb097003fb097000084500096
:10170400cfa8970008007800e06b020000000000fa
:10171400dfa8970008007800e06b020000000000da
:101724008b0078003fa89700e06b020000000000e7
:101734000fb99700ffb197006fb397000040eb001b
:1017440021802000914f10004d0032008b02e900ef
:10175400850078000e007800d5b79f00e06b02008a
:10176400000000000b02e800840078000e007800fe
:10177400c4b79f00e06b0200000000008c06e80084
:10178400dfa897000d007800e06b02000000000065
:101794000c06e900dfa897000c007800e06b02005b
:1017a400000000008905e9008b0078000e00780035
:1017b400e06b0200000000008904e8008900780062
:1017c4000e007800e06b020000000000cfa8970034
:1017d4000d007800e06b020000000000cfa8970025
:1017e4000c007800e06b0200000000008b00780021
:1017f4003fa89700e06b0200000000008900780019
:101804003fa89700e06b0200000000008804e80095
:10181400cfa8970009007800e06b020000000000e8
:101824000804e900cfa8970008007800e06b0200e4
:1018340000000000dfa8970009007800e06b0200b8
:1018440000000000dfa8970008007800e06b0200a9
:1018540000000000cfb097003fa89700e06b0200a3
:1018640000000000dfb097003fa89700e06b020083
:10187400000000006fb39700ffb197000fb9970005
:10188400e00f510008003400bfb097008100e90068
:10189400b1b79f0065014100010055000000400000
:1018a4000001410003003700630141008a00450044
:1018b400010141000a05e8002fa89700800f550098
:1018c4005bff34008fb097002fb09700808f5000db
:1018d4000b0032009fb097006fa8970080845000df
:1018e400890178000fb19700890078002fb0970024
:1018f4002c6e020000000000e00f5000f8ff3200e0
:10190400ffa897001fb09700808f50000b00320093
:10191400afb097006fa8970080845000ffa997008c
:10192400090178009fb09700090078002c6e02002e
:1019340000000000e00f5000f8ff32008fb0970065
:101944002fb09700808f500005003a00150020004a
:10195400ffa897001fb09700808f50001700320037
:10196400efa897000fb0970080844000ffa997006c
:10197400090178009fb09700090078002c6e0200de
:1019840000000000e00f5000f8ff3200efa89700bd
:101994007fa8970000844000880178000fb1970069
:1019a400880078002fb097002c6e02000000000021
:1019b400e00f5000f8ff3200150020000500780009
:1019c4004f0778004f06be004f05be004f04be000f
:1019d4000f02b10000000600f0874700889fbe0098
:1019e4008a9fbe008c9fbe008e1f7800000778007f
:1019f4000106780082bf9f00830678008405780082
:101a04008c8256008582d1008c824200d5b79f001b
:101a1400615cb90052502b00030020000800be0096
:101a2400e806020000000000a1b79f00c044dd00ea
:101a340008002000060024001700200008005300be
:101a440089805b00b0b79f00c1b79f0098802000d9
:101a54008fb8970081804500f1b79f000b005700b5
:101a6400e0b79f000fbd97000c8202000000000049
:101a740000027800e00f5200fd003a00744180003b
:101a840005002000e90f5200e08f5a00f6ff3e00e7
:101a940004600100090037001e0037002d003700e4
:101aa4009b0037007f003700450037006300370094
:101ab400b5003700cf003700e40037001842780043
:101ac400e14f420002003a008d0178000300370024
:101ad400f04f420004003a00dfb197007fb1970055
:101ae4008c007800030037008d0178007fb19700e7
:101af400dfb097006fb09700ea6c020000000000ae
:101b040080027800e08f5200db00320014002000d5
:101b1400b30037000002eb00848f5500b20032009e
:101b24002fb09700f0418800cfb0970001428800a1
:101b3400eb418800d441880015002000b54188009d
:101b4400cb418800a4418800f01020009041880017
:101b540084418800d5418000f6418000868f520080
:101b64000400340074002000e08f55009c003a000b
:101b74009d003700a541880004428000e00f520018
:101b840006003400e64180000603e900e6418800cf
:101b9400650242008682520001003700630242005f
:101ba400858242000502420004428800d44180003c
:101bb4000402e800d44188005400200074418800e5
:101bc400c5418000e4418000848f52006c003200e3
:101bd400184078000082fb006f026200150032009a
