:020000040000FA
:060000007DEF46F0120046
:020006001200E6
:0600080062EF2DF0120072
:02000E000001EF
:06001000020304050607CF
:020016001200D6
:0600180062EF2DF0120062
:02001E000300DD
:1000200073770000A902000001000000378D000076
:100030009802000009000000358D0000A7020000B2
:0400400002000000BA
:0C00440000001200D9CFE6FFE1CFD9FF89
:1000500082E949E800EBE6FFD6CFE6FF13EC42F079
:1000600041E9E750026E025056E0020634EC45F0DA
:100070003CCF80F23DCF81F23ECF82F23FCF83F280
:1000800002018051036E8151046E8251056E8351CD
:10009000066E34EC45F03CCF80F23DCF81F23ECF8E
:1000A00082F23FCF83F202018051076E8151086EC8
:1000B0008251096E83510A6E07EB84F208EB85F2D8
:1000C00009EB86F20AEB87F2D950030FE96EDACF1B
:1000D000EAFFEE500201845D0201806FEE500201E2
:1000E00085590201816FEE50020186590201826F2B
:1000F000EE50020187590201836FD880270E02015A
:100100008055000E8155000E8255000E835501E288
:1001100001D0BFD7A8D74AE9E7CFD9FF1200D9CF7E
:10012000E6FFE1CFD9FF81E962E80AEC2BF0000994
:1001300002E1C1EF0DF00001A7A502D024EF0FF0FE
:100140000001616B0001D451040B01E0010E0001BC
:10015000030BF36EFC0E6115F310616F00010001DB
:10016000D45100016197080B01E061870001D4516F
:10017000030B010802E1010E01D0000E0001619B9A
:10018000E8B0618B00010001D4510001619D800B3A
:1001900001E0618D0001D4AF06D00001618FD5C0B0
:1001A00064F0D6C065F0DBC06AF0DAC069F0000127
:1001B000A7950001D451030B010A02E112EF09F0E7
:1001C000020A02E15DEF06F0030A02E0BBEF0DF068
:1001D0000A0E0001D95D02E2BCEF0DF0020E000133
:1001E000EA6AD725E96ED851EA22EF500A6E030E6B
:1001F0000001EA6AD725E96ED851EA22EF500B6E6A
:10020000040E0001EA6AD725E96ED851EA22EF50C0
:10021000106E050E0001EA6AD725E96ED851EA2270
:10022000EF50116E060E0001EA6AD725E96ED8512B
:10023000EA22EF500C6E070E0001EA6AD725E96E3C
:10024000D851EA22EF500D6E080E0001EA6AD72558
:10025000E96ED851EA22EF500E6E090E0001EA6AEB
:10026000D725E96ED851EA22EF500F6E0001616B7D
:1002700000010001D45100016197080B01E0618782
:1002800000016151030B000905E1101C01E1111C83
:1002900001E00BD10001A2510E1802E1A3510F1889
:1002A00009E10001A4510C1802E1A5510D1802E169
:1002B000BCEF0DF0D7C0E9FFD8C0EAFFEF5001084E
:1002C00037E2D7C0E9FFD8C0EAFFEF060001A16B13
:1002D000016A0001D951015C16E201500001EA6A8D
:1002E000D725E96ED851EA22EF50E66E0001A15100
:1002F000A12BEA6A000FE96E000EEA22E552E750F0
:10030000EF6E012AE6D7D4C0D1F0140EE66E9CDE63
:1003100041E9A1C0E6FF000EE66E000EE66ED1C018
:10032000E6FFD2C0E6FFD3C0E6FF75EC29F046E950
:10033000016A040E015C3EE20150080DF3CFE9FFB3
:10034000F4CFEAFFDC0EE926000EEA22030EE926CE
:10035000000EEA22EF502CE00150080DF3CFE9FF28
:10036000F4CFEAFFDC0EE926000EEA220E50EE186A
:1003700002E10F50ED181CE10150080DF3CFE9FF29
:10038000F4CFEAFFDC0EE926000EEA22020EE9268F
:10039000000EEA22EFCF80F20A0E0001EA6AD725AA
:1003A000E96ED851EA22EF500201805D01E102D0EE
:1003B000012ABFD7040E015C02E2BCEF0DF0016A16
:1003C000040E015C13E20150080DF3CFE9FFF4CFF6
:1003D000EAFFDC0EE926000EEA22030EE926000EF3
:1003E000EA22EF5001E102D0012AEAD7040E015CB3
:1003F00058E20150080DF3CFE9FFF4CFEAFFDC0E1D
:10040000E926000EEA220EEBEEFF0FEBEDFF0A0EDF
:100410000001EA6AD725E96ED851EA22EF50E66E6C
:100420000150080DF3CFE9FFF4CFEAFFDC0EE92617
:10043000000EEA22020EE926000EEA22E552E750FB
:10044000EF6E0150080DF3CFE9FFF4CFEAFFDC0EA9
:10045000E926000EEA22030EE926000EEA22030E28
:10046000EF6E34EC45F03CCF80F23DCF81F23ECFD1
:1004700082F23FCF83F20150080DF3CFE9FFF4CFB2
:10048000EAFFDC0EE926000EEA22040EE926000E41
:10049000EA2280C2EEFF81C2EEFF82C2EEFF83C27B
:1004A000EEFF00016181619386D00001A4510A181A
:1004B00002E1A5510B1801E089D30001A2511018E7
:1004C00002E1A351111801E081D3010E0001EA6A93
:1004D000D725E96ED851EA22EF50040B6CE09EC29A
:1004E00000F00001020E016F0CEB02F00DEB03F0C7
:1004F0000EEB04F00FEB05F0A4C006F0A5C007F06A
:10050000A2C008F0A3C009F00A0E0001EA6AD725CC
:10051000E96ED851EA22EFCF0AF000010B6B00011F
:10052000300E0C6F00010D0EA16F0001A3510F5C86
:100530000DE0E66A0EEBE6FF0FEBE6FF0CEBE6FFE5
:100540000DEBE6FF28EC0FF045E933D00001D16B4D
:100550000001D18B0EEB9CF00FEB9DF00CEB9EF0AD
:100560000DEB9FF003EC18F0016EFF0E015C12E042
:1005700001500A0DF3CFE9FFF4CFEAFF960EE9260A
:10058000010EEA22040EE926000EEA22E9CFD2F09B
:10059000EACFD3F0A1C0E6FF000EE66E000EE66ED5
:1005A000D1C0E6FFD2C0E6FFD3C0E6FF75EC29F06C
:1005B00046E9000161850B0E0001EA6AD725E96E64
:1005C000D851EA22EF5001E0C0D20C0E0001EA6AD5
:1005D000D725E96ED851EA22EF50300801E19ED2CA
:1005E0000C0E0001EA6AD725E96ED851EA22EF50D5
:1005F000110A01E1C6D1010A01E08ED20001BEB3A9
:1006000054D034EC45F03CCFCDF03DCFCEF03ECFD2
:10061000CFF03FCFD0F0080E0001EA6AD725E96E8F
:10062000D851EA22EFCFC0F0090E0001EA6AD725BF
:10063000E96ED851EA22EFCFC1F0126A040E125CC3
:1006400016E2020E12240B0F0001EA6AD725E96EAA
:10065000D851EA22EF50E66E1250EA6AC20FE96EF4
:10066000000EEA22E552E750EF6E122AE7D70001AA
:10067000BE830001BE91126A010E125C15E2110EDA
:1006800012240001EA6AD725E96ED851EA22EF5018
:10069000E66E1250EA6AC60FE96E000EEA22E552D3
:1006A000E750EF6E122AE8D76BD1080E0001EA6A14
:1006B000D725E96ED851EA22EF500001C05D0CE168
:1006C000090E0001EA6AD725E96ED851EA22EF50F7
:1006D0000001C15D01E154D10001C051C11101E02F
:1006E000B8D0126A040E125C26E20D0E122400012C
:1006F000EA6AD725E96ED851EA22EF50E66E125029
:10070000EA6AC90FE96E000EEA22E552E750EF6E81
:100710001250EA6AC90FE96E000EEA22EF50E66E47
:100720001250EA6A980FE96E000EEA22E552E7508D
:10073000EF6E122AD7D7080E0001EA6AD725E96EB4
:10074000D851EA22EFCFC7F0090E0001EA6AD72597
:10075000E96ED851EA22EFCFC8F0C7C09CF0C8C0FC
:100760009DF0A4C09EF0A5C09FF003EC18F000011E
:10077000BF6FFF0E0001BF5D67E100018D0EA06F2E
:1007800000019CAF02D00001A0914FEC19F00001D4
:10079000BF6FFF0E0001BF5D57E2126A010E125CCF
:1007A00029E2110E12240001EA6AD725E96ED85118
:1007B000EA22EF50E66E0001BF510A0DF3CFE9FFC8
:1007C000F4CFEAFF960EE926010EEA22090EE92689
:1007D000000EEA22E9CF80F2EACF81F21250020144
:1007E000EA6A8025E96E8151EA22E552E750EF6E10
:1007F000122AD4D70A0EE66EE66A0001BF510A0D2E
:10080000020102017051F3240201806F0201020112
:100810007151F4200201816F80C2E6FF81C2E6FFC0
:100820000001BF510A0DF3CF82F2F4CF83F2960E8E
:1008300002018227010E0201832382C2E6FF83C2E6
:10084000E6FFFCEC3FF046E90001BE830001BE81FB
:1008500097D05C0EE66E770EE66E9BEC43F042E9B5
:1008600000010B0EA16F0001A151A12BEA6A000F3C
:10087000E96E000EEA22EF6A0001A151A12BEA6A9B
:10088000000FE96E000EEA22110EEF6E126A040EDE
:10089000125C28E20D0E12240001EA6AD725E96EE7
:1008A000D851EA22EF50E66E1250EA6AC90FE96E9B
:1008B000000EEA22E552E750EF6E1250EA6AC90FC5
:1008C000E96E000EEA22EF50E66E0001A151A12B65
:1008D000EA6A000FE96E000EEA22E552E750EF6E79
:1008E000122AD5D7080E0001EA6AD725E96ED85139
:1008F000EA22EFCFC7F0090E0001EA6AD725E96EB8
:10090000D851EA22EFCFC8F00001A151A12BEA6A29
:10091000000FE96E000EEA22C7C0EFFF0001A151EF
:10092000A12BEA6A000FE96E000EEA22C8C0EFFFB1
:10093000126A010E125C17E2110E12240001EA6A1B
:10094000D725E96ED851EA22EF50E66E0001A15199
:10095000A12BEA6A000FE96E000EEA22E552E75089
:10096000EF6E122AE6D7E66AE66AC00EE66E000E61
:10097000E66E23EC21F044E90001BE830001BE8154
:10098000CCD0136A040E135C15E20D0E1324000183
:10099000EA6AD725E96ED851EA22EF50E66E135085
:1009A000EA6A980FE96E000EEA22E552E750EF6E10
:1009B000132AE8D700018D0EA06F110E0001EA6A1C
:1009C000D725E96ED851EA22EF50800B02E00001F2
:1009D000A091110E0001EA6AD725E96ED851EA22EA
:1009E000EFCF9CF0120E0001EA6AD725E96ED851CC
:1009F000EA22EFCF9DF0A4C09EF0A5C09FF003ECCB
:100A000018F00001BF6FFF0E0001BF5D16E000018E
:100A1000BF510A0DF3CFE9FFF4CFEAFF960EE926A6
:100A2000010EEA22080EE926000EEA22EFCFA0F01E
:100A30000001A0850001A08708D000018D0EA06FE5
:100A400000019CAF02D00001A0914FEC19F0000111
:100A5000BF6FFF0E0001BF5D5AE2136A010E135C07
:100A600029E2130E13240001EA6AD725E96ED85152
:100A7000EA22EF50E66E0001BF510A0DF3CFE9FF05
:100A8000F4CFEAFF960EE926010EEA22090EE926C6
:100A9000000EEA22E9CF80F2EACF81F21350020180
:100AA000EA6A8025E96E8151EA22E552E750EF6E4D
:100AB000132AD4D70A0EE66EE66A0001BF510A0D6A
:100AC000020102017051F3240201806F0201020150
:100AD0007151F4200201816F80C2E6FF81C2E6FFFE
:100AE0000001BF510A0DF3CF82F2F4CF83F2960ECC
:100AF00002018227010E0201832382C2E6FF83C224
:100B0000E6FFFCEC3FF046E90001BE8102D00001A7
:100B1000BE910001BE9301D000D016D00A0E000194
:100B2000EA6AD725E96ED851EA22EF5002019F5DAB
:100B300009E10001A9510E1802E1AA510F1802E1C2
:100B40000001A797BCEF0DF040D00B0E0001D95D5E
:100B50000001686F0B0E0001D7250001666F000EC3
:100B60000001D8210001676F0CEB62F00DEB63F020
:100B7000080E0001EA6AD725E96ED851EA22EF5043
:100B8000FF080FE1090E0001EA6AD725E96ED85186
:100B9000EA22EF50FF0805E1D5C064F0D6C065F049
:100BA0000CD00001618F080E0001D7250001646F91
:100BB000000E0001D8210001656F0001618D000168
:100BC0006851000802E20001A78575D0D7C0E9FF8F
:100BD000D8C0EAFFEF5000086EE2D7C0E9FFD8C0E6
:100BE000EAFFEF060001A16B016A0001D951015C27
:100BF00016E201500001EA6AD725E96ED851EA22CF
:100C0000EF50E66E0001A151A12BEA6A000FE96ED8
:100C1000000EEA22E552E750EF6E012AE6D7000106
:100C2000A351115C37E100010B5134E1300E00019A
:100C30000C5D30E10001D16B0001D18B10EB9CF019
:100C400011EB9DF003EC18F0016EFF0E015C21E04A
:100C500001500A0DF3CFE9FFF4CFEAFF960EE92623
:100C6000010EEA22040EE926000EEA22E9CFD2F0B4
:100C7000EACFD3F0A1C0E6FF000EE66E000EE66EEE
:100C8000D1C0E6FFD2C0E6FFD3C0E6FF75EC29F085
:100C900046E911D00001D451080B01E0010EE66EC7
:100CA00010EBE6FF11EBE6FF0AEBE6FF0BEBE6FFCE
:100CB00028EC0FF045E9BCEF0DF0040E146E040EA5
:100CC00014240001EA6AD725E96ED851EA22EF50D0
:100CD0004D0802E0BCEF0DF0030E0001EA6AD725D3
:100CE000E96ED851EA22EF50156E010E15EBF3FFB5
:100CF000155204E0D890E836F306FCE1166E020EB9
:100D00000001EA6AD725E96ED851EA22EF5003E1E3
:100D100016500001BC13060E14240001EA6AD72500
:100D2000E96ED851EA22EF50E66E1550EA6AAC0F30
:100D3000E96E000EEA22E552E750EF6E0001A78946
:100D4000D7C0E9FFD8C0EAFFEFCF9EF0010E000147
:100D5000EA6AD725E96ED851EA22EFCF9FF0020E5A
:100D60000001EA6AD725E96ED851EA22EFCF9CF05C
:100D7000030E0001EA6AD725E96ED851EA22EFCFC7
:100D80009DF003EC18F0176EFF0E175C04E13EECCB
:100D900012F0176E31D0016A040E015C29E217507F
:100DA0000A0DF3CFE9FFF4CFEAFF960EE926010E14
:100DB000EA22040EE926000EEA22E9CF81F2EACF08
:100DC00082F201500201EA6A8125E96E8251EA222B
:100DD000EFCF80F201500001EA6AD525E96ED651C5
:100DE000EA22EF500201805D01E002D0012AD4D74F
:100DF000040E015C01E31768FF0E175C01E3A7D046
:100E000017500A0DF3CFE9FFF4CFEAFF960EE9265B
:100E1000010EEA229EC0EEFF9FC0EDFF17500A0DA3
:100E2000F3CFE9FFF4CFEAFF960EE926010EEA229E
:100E3000020EE926000EEA229CC0EEFF9DC0EDFFE7
:100E4000016A040E015C27E201500001EA6AD5251F
:100E5000E96ED651EA22EF50E66E17500A0DF3CF35
:100E6000E9FFF4CFEAFF960EE926010EEA22040E0E
:100E7000E926000EEA22E9CF80F2EACF81F20150A2
:100E80000201EA6A8025E96E8151EA22E552E750C3
:100E9000EF6E012AD6D717500A0DF3CFE9FFF4CF32
:100EA000EAFF960EE926010EEA22080EE926000E58
:100EB000EA22EF6A17500A0DF3CFE9FFF4CFEAFFF9
:100EC000960EE926010EEA22080EE926000EEA2215
:100ED000EF8217500A0DF3CFE9FFF4CFEAFF960E29
:100EE000E926010EEA22080EE926000EEA22EF802A
:100EF00017500A0DF3CFE9FFF4CFEAFF960EE9266B
:100F0000010EEA22080EE926000EEA22EF841750AD
:100F10000A0DF3CFE9FFF4CFEAFF960EE926010EA2
:100F2000EA22080EE926000EEA22EF8617500A0D83
:100F3000F3CFE9FFF4CFEAFF960EE926010EEA228D
:100F4000080EE926000EEA22EF8E0001A7890001B3
:100F5000A7A90AD034EC45F03CCFFCF03DCFFDF022
:100F60003ECFFEF03FCFFFF00001A7A159D1D7C07F
:100F7000E9FFD8C0EAFFEFCF9EF0010E0001EA6A58
:100F8000D725E96ED851EA22EFCF9FF0020E00017B
:100F9000EA6AD725E96ED851EA22EFCF9CF0030E1A
:100FA0000001EA6AD725E96ED851EA22EFCF9DF019
:100FB00014500001EA6AD725E96ED851EA22EF50B1
:100FC000FF0801E02DD114280001EA6AD725E96E57
:100FD000D851EA22EF50186E040E00016B5D01E358
:100FE0001FD1D950180FE96EDACFEAFFEF50300B5E
:100FF000E842E842E842E842010801E211D100017A
:101000006B510B0DF3CFE9FFF4CFEAFF6C0EE9262D
:10101000000EEA229CC2EFFF00016B510B0DF3CFD3
:10102000E9FFF4CFEAFF6C0EE926000EEA22070E74
:10103000E926000EEA2269C0EFFF00016B510B0D9B
:10104000F3CFE9FFF4CFEAFF6C0EE926000EEA22A7
:10105000080EE926000EEA226AC0EFFF00016B517C
:101060000B0DF3CFE9FFF4CFEAFF6C0EE926000E7B
:10107000EA22050EE926000EEA229EC0EEFF9FC07E
:10108000EDFF00016B510B0DF3CFE9FFF4CFEAFF49
:101090006C0EE926000EEA22090EE926000EEA226D
:1010A000EF6A00016B510B0DF3CFE9FFF4CFEAFFBC
:1010B0006C0EE926000EEA22090EE926000EEA224D
:1010C000EF8CD950180FE96EDACFEAFFEF50060B1C
:1010D000E8420201806F00016B510B0DF3CFE9FF75
:1010E000F4CFEAFF6C0EE926000EEA22090EE9268B
:1010F000000EEA2202018051030BF36EFC0EEF1486
:10110000F310EF6ED950180FE96EDACFEAFFEF5007
:10111000080B10E000016B510B0DF3CFE9FFF4CF8A
:10112000EAFF6C0EE926000EEA22090EE926000EFF
:10113000EA22EF86D950180FE96EDACFEAFFEF50B6
:10114000300BE842E842E842E842010810E30001BF
:101150006B510B0DF3CFE9FFF4CFEAFF6C0EE926DC
:10116000000EEA22090EE926000EEA22EF8A016A41
:10117000040E015C25E201500001EA6A6425E96E73
:101180006551EA22EF50E66E00016B510B0DF3CF73
:10119000E9FFF4CFEAFF6C0EE926000EEA22EE52D8
:1011A000E9CF80F2EACF81F201500201EA6A80259C
:1011B000E96E8151EA22E552E750EF6E012AD8D755
:1011C000016A010E015C2AE2070E142401240001C9
:1011D000EA6AD725E96ED851EA22EF50E66E00019F
:1011E0006B510B0DF3CFE9FFF4CFEAFF6C0EE9264C
:1011F000000EEA220A0EE926000EEA22E9CF80F26A
:10120000EACF81F201500201EA6A8025E96E81513C
:10121000EA22E552E750EF6E012AD3D700016B2B8B
:10122000BCEF0DF0D7C0E9FFD8C0EAFFEF50070AC6
:1012300002E19AEF0DF0040A01E144D3010A01E151
:10124000BDD1030A02E0B9EF0DF01A6A02019D5107
:10125000010802E2BAEF0DF0016A040E015C14E22B
:1012600001500001EA6AD525E96ED651EA22EF5015
:10127000E66E0150EA6A980FE96E000EEA22E55226
:10128000E750EF6E012AE9D7EDEC18F0196EFF0E6A
:10129000195C43E102019D51000802E2BAEF0DF032
:1012A0000001B70EA06FA4C09EF0A5C09FF04FEC48
:1012B00019F0196EFF0E195C07E1010E1A6E00019C
:1012C000FE0E9C6F9D692CD10A0EE66EE66A1950DF
:1012D0000A0D020102017051F3240201806F020124
:1012E00002017151F4200201816F80C2E6FF81C2C8
:1012F000E6FF19500A0DF3CF82F2F4CF83F2960E77
:1013000002018227010E0201832382C2E6FF83C20B
:10131000E6FFFCEC3FF046E924D019500A0DF3CF6C
:10132000E9FFF4CFEAFF960EE926010EEA22080E45
:10133000E926000EEA22EF50080B13E019500A0DBF
:10134000F3CFE9FFF4CFEAFF960EE926010EEA2279
:10135000020EE926000EEA22EECF9CF0EDCF9DF0C2
:10136000DFD0FF0E195C01E1DBD0192800019C6F72
:10137000A3C09DF0A4C09EF0A5C09FF0020E000186
:10138000BD5D45E1010E0001EA6AD725E96ED8513D
:10139000EA22EF50400B3BE000019C511C6E9D5136
:1013A0001D6E00019C6B010E1B6E080E1B5C28E27B
:1013B0001BEB9DF003EC18F01E6EFF0E1E5C1EE191
:1013C00000019C6B1BEB9DF0010E1BEBF3FF1B520E
:1013D00004E0D890E836F306FCE10001BC13010EEE
:1013E000E66EE66A7AC2E6FF7BC2E6FFBC0EE66EF8
:1013F000000EE66EFCEC3FF046E902D01B2AD5D782
:10140000080E1B5C04E11CEB9CF01DEB9DF0000141
:10141000BF0EA06F010E0001EA6AD725E96ED85110
:10142000EA22EF50010B04E10001A09100019C8F22
:101430004FEC19F0196E19500A0DF3CFE9FFF4CFF4
:10144000EAFF960EE926010EEA22080EE926000EB2
:10145000EA22EF88016A010E015C28E2020E0124F3
:101460000001EA6AD725E96ED851EA22EF50E66E0C
:1014700019500A0DF3CFE9FFF4CFEAFF960EE926E3
:10148000010EEA22090EE926000EEA22E9CF80F2D7
:10149000EACF81F201500201EA6A8025E96E8151AA
:1014A000EA22E552E750EF6E012AD5D711D0195044
:1014B0000A0DF3CFE9FFF4CFEAFF960EE926010EFD
:1014C000EA22080EE926000EEA22EF6A020E1A6EE0
:1014D0000A0EE66EE66A19500A0D02010201705109
:1014E000F3240201806F020102017151F420020114
:1014F000816F80C2E6FF81C2E6FF19500A0DF3CF6B
:1015000082F2F4CF83F2960E02018227010E0201CD
:10151000832382C2E6FF83C2E6FFFCEC3FF046E98C
:101520000001020E006F9CC001F09DC002F01AEB9A
:1015300003F0016A010E015C14E20150EA6AA70F90
:10154000E96E020EEA22EF50E66E040E0124EA6A0A
:10155000000FE96E000EEA22E552E750EF6E012A15
:10156000E9D70001050EA16F1950040DF3CFE9FF73
:10157000F4CFEAFF330EE926000EEA22EE6AEE6AA5
:10158000EE6AEE6A010EE66E19500A0DF3CFE9FF1E
:10159000F4CFEAFF960EE926010EEA22040EE926B0
:1015A000000EEA22E9CF80F2EACF81F280C2E6FFA4
:1015B00081C2E6FF04EC12F043E9DCD2030E000125
:1015C000EA6AD725E96ED851EA22EF5001E03CD112
:1015D000010E0001EA6AD725E96ED851EA22EFCF61
:1015E000A2F0020E0001EA6AD725E96ED851EA227C
:1015F000EFCFA3F00001A25125E1470EE66E770E72
:10160000E66E9BEC43F042E90001010EBD6F000164
:10161000BD510001030BF36EF346F90E6015F31094
:10162000606F070E0001A3150201806F010E020119
:10163000805304E0E846FE0B8007FCE1010F000147
:10164000BC1313D0320EE66E770EE66E9BEC43F0C1
:1016500042E90001BD6B0001BD510001030BF36EB7
:10166000F346F90E6015F310606F010EE66EE66A40
:101670007CC2E6FF7DC2E6FFBD0EE66E000EE66EA2
:10168000FCEC3FF046E9A40EE66E000EE66EA20EFC
:10169000E66E000EE66E1FEC28F044E90001A78319
:1016A0000001BF0EA06F016A040E015C14E201503C
:1016B0000001EA6AD525E96ED651EA22EF50E66EBE
:1016C0000150EA6A980FE96E000EEA22E552E750EF
:1016D000EF6E012AE9D70001A25104E100019C6BE1
:1016E0009D6B04D0A3C09DF000019C6BA4C09EF034
:1016F000A5C09FF04FEC19F00001A66F0001A651A4
:10170000040DF3CFE9FFF4CFEAFF330EE926000E14
:10171000EA22EE6AEE6AEE6AEE6A016A010E015C86
:1017200029E2040E01240001EA6AD725E96ED851A6
:10173000EA22EF50E66E0001A6510A0DF3CFE9FF51
:10174000F4CFEAFF960EE926010EEA22090EE926F9
:10175000000EEA22E9CF80F2EACF81F201500201C5
:10176000EA6A8025E96E8151EA22E552E750EF6E80
:10177000012AD4D7020EE66EE66A6AC2E6FF6BC2A1
:10178000E6FFA40EE66E000EE66EFCEC3FF046E9C6
:10179000020EE66EE66A74C2E6FF75C2E6FFA20EAE
:1017A000E66E000EE66EFCEC3FF046E9010EE66EDA
:1017B000E66A76C2E6FF77C2E6FFA60EE66E000E88
:1017C000E66EFCEC3FF046E90A0EE66EE66A0001C2
:1017D000A6510A0D020102017051F3240201806F2B
:1017E000020102017151F4200201816F80C2E6FF03
:1017F00081C2E6FF0001A6510A0DF3CF82F2F4CFB9
:1018000083F2960E02018227010E0201832382C217
:10181000E6FF83C2E6FFFCEC3FF046E9010EE66E10
:10182000E66A7AC2E6FF7BC2E6FFBC0EE66E000EF9
:10183000E66EFCEC3FF046E9100EE66E770EE66EC3
:101840009BEC43F042E93DD00001A6690001A46988
:10185000A56900019C699D69A40EE66E000EE66E06
:101860009C0EE66E000EE66E1FEC28F044E9010EB9
:10187000E66EE66A76C2E6FF77C2E6FFA60EE66E81
:10188000000EE66EFCEC3FF046E9020EE66EE66AFC
:101890006AC2E6FF6BC2E6FFA40EE66E000EE66EBD
:1018A000FCEC3FF046E9020EE66EE66A74C2E6FF23
:1018B00075C2E6FFA20EE66E000EE66EFCEC3FF08F
:1018C00046E958D1016A040E015C14E2015000019E
:1018D000EA6AD525E96ED651EA22EF50E66E01504C
:1018E000EA6A980FE96E000EEA22E552E750EF6EC1
:1018F000012AE9D7EDEC18F01F6EFF0E1F5C01E125
:1019000039D11F500A0DF3CFE9FFF4CFEAFF960E4D
:10191000E926010EEA22080EE926000EEA22EF501F
:10192000200B01E106D10001A6511F5C38E01F50D9
:101930000A0DF3CFE9FFF4CFEAFF960EE926010E78
:10194000EA22080EE926000EEA22EF6A0A0EE66E87
:10195000E66A1F500A0D020102017051F3240201D0
:10196000806F020102017151F4200201816F80C277
:10197000E6FF81C2E6FF1F500A0DF3CF82F2F4CFDB
:1019800083F2960E02018227010E0201832382C296
:10199000E6FF83C2E6FFFCEC3FF046E9CAD0016AED
:1019A0000A0E015C01E378D001500A0DF3CFE9FF84
:1019B000F4CFEAFF960EE926010EEA22080EE92688
:1019C000000EEA22EF50800B56E001500A0DF3CFD3
:1019D000E9FFF4CFEAFF960EE926010EEA22080E8F
:1019E000E926000EEA22EF50200B45E00001A65147
:1019F000015C41E00001A16B0001A151A12BEA6A49
:101A0000000FE96E000EEA22030EEF6E0001D16BAB
:101A10000001D18B0001D181D1930001D18F015000
:101A20000A0DF3CFE9FFF4CFEAFF960EE926010E87
:101A3000EA22040EE926000EEA22E9CFD2F0EACF2C
:101A4000D3F0A1C0E6FF000EE66E000EE66ED1C038
:101A5000E6FFD2C0E6FFD3C0E6FF75EC29F046E909
:101A6000206A216AFF0E205C0F0E215804E2202A12
:101A7000000E2122F7D701500A0DF3CFE9FFF4CF72
:101A8000EAFF960EE926010EEA22080EE926000E6C
:101A9000EA22EF6A012A84D70001A6690001A2693F
:101AA000A3690001A469A569A40EE66E000EE66EA6
:101AB000A20EE66E000EE66E1FEC28F044E900016F
:101AC000A793010EE66EE66A76C2E6FF77C2E6FFEE
:101AD000A60EE66E000EE66EFCEC3FF046E9020E46
:101AE000E66EE66A74C2E6FF75C2E6FFA20EE66E17
:101AF000000EE66EFCEC3FF046E9020EE66EE66A8A
:101B00006AC2E6FF6BC2E6FFA40EE66E000EE66E4A
:101B1000FCEC3FF046E9640EE66EE66A70C2E6FF52
:101B200071C2E6FF960EE66E010EE66EFCEC3FF02B
:101B300046E920D002019D51020801E21BD00001BC
:101B4000A7A316D0010E0001EA6AD725E96ED85185
:101B5000EA22EF5002019C5D01E00CD00001BD5172
:101B600007E0140EE66E24EC00F041E955EC18F0A5
:101B700001D000D001D000D00001A7B502D04FECB9
:101B80002DF034EC45F03CCF80F23DCF81F23ECFDA
:101B900082F23FCF83F202018051026E8151036EC7
:101BA0008251046E8351056E0001A7A950D0D9500F
:101BB000020FE96EDACFEAFF0001FC51EE5C020190
:101BC000806F0001FD51EE580201816F0001FE514E
:101BD000EE580201826F0001FF51EE580201836F3F
:101BE000D880960E02018055980E8155000E8255C0
:101BF000000E83552CE20001A799010EE66EE66AFD
:101C00007AC2E6FF7BC2E6FFBC0EE66E000EE66E11
:101C1000FCEC3FF046E9080EE66EE66A78C2E6FFA5
:101C200079C2E6FFAC0EE66E000EE66EFCEC3FF00D
:101C300046E9640EE66EE66A70C2E6FF71C2E6FF30
:101C4000960EE66E010EE66EFCEC3FF046E9016A88
:101C5000040E015C57E20150080DF3CFE9FFF4CF09
:101C6000EAFFDC0EE926000EEA22030EE926000E4A
:101C7000EA22EF50000844E202EB84F203EB85F223
:101C800004EB86F205EB87F20150080DF3CFE9FF74
:101C9000F4CFEAFFDC0EE926000EEA22040EE92664
:101CA000000EEA22EE500201845D0201806FEE50C8
:101CB000020185590201816FEE500201865902012D
:101CC000826FEE50020187590201836FD880960E11
:101CD00002018055980E8155000E8255000E8355E5
:101CE0000FE20150080DF3CFE9FFF4CFEAFFDC0E5D
:101CF000E926000EEA22030EE926000EEA22EF6A28
:101D0000012AA6D70001BEA39FD00001BEA16FD0BB
:101D1000F20EE66E760EE66E9BEC43F042E90001B1
:101D20000B0EA16F0001A151A12BEA6A000FE96E11
:101D3000000EEA22EF6A0001A151A12BEA6A000F0E
:101D4000E96E000EEA22110EEF6E226A040E225C8A
:101D500015E22250EA6AC20FE96E000EEA22EF5045
:101D6000E66E0001A151A12BEA6A000FE96E000E98
:101D7000EA22E552E750EF6E222AE8D70001A1518E
:101D8000A12BEA6A000FE96E000EEA22C0C0EFFF45
:101D90000001A151A12BEA6A000FE96E000EEA22B0
:101DA000C1C0EFFF226A010E225C15E22250EA6AEE
:101DB000C60FE96E000EEA22EF50E66E0001A15157
:101DC000A12BEA6A000FE96E000EEA22E552E75005
:101DD000EF6E222AE8D7E66AE66AC70EE66E000EC4
:101DE000E66E23EC21F044E90001BE932DD0D950DA
:101DF000020FE96EDACFEAFF0001CD51EE5C02017D
:101E0000806F0001CE51EE580201816F0001CF5169
:101E1000EE580201826F0001D051EE580201836F2B
:101E200002018051066E8151076E8251086E835106
:101E3000096E0650C208C90E0754010E0854000E60
:101E4000095402E20001BE9363E9E7CFD9FF120013
:101E5000D9CFE6FFE1CFD9FF86E943E8070E0214A8
:101E6000066E0001A351065C3EE10150800803E2CA
:101E7000000EC6D238D00001D16B0001D18B0050CA
:101E80000001D197E8B0D18701EB9CF002EB9DF007
:101E900003EC18F0076EFF0E075C13E007500A0D05
:101EA000F3CFE9FFF4CFEAFF960EE926010EEA220E
:101EB000040EE926000EEA22E9CFD2F0EACFD3F0F1
:101EC00002D0000E9DD2A1C0E6FF000EE66E000E0D
:101ED000E66ED1C0E6FFD2C0E6FFD3C0E6FF75ECE8
:101EE00029F046E98DD2010E06EBF3FF065204E01D
:101EF000D890E836F306FCE10001BC15000801E3C8
:101F000092D00650EA6AB40FE96E000EEA22EFCFD3
:101F100080F2030E0201805D3BE30650EA6AB40FD3
:101F2000E96E000EEA22EF6A010E06EBF3FF06529D
:101F300004E0D890E836F306FCE1FF0A0001BC1784
:101F40000650EA6AAC0FE96E000EEA22EF6A010E53
:101F5000E66EE66A7AC2E6FF7BC2E6FFBC0EE66E7C
:101F6000000EE66EFCEC3FF046E9080EE66EE66A0F
:101F700078C2E6FF79C2E6FFAC0EE66E000EE66EB2
:101F8000FCEC3FF046E955EC18F0000E39D24BD08E
:101F90000001D16B0001D18B00500001D197E8B056
:101FA000D18700019C6B06EB9DF003EC18F0076EE7
:101FB000FF0E075C13E007500A0DF3CFE9FFF4CFE3
:101FC000EAFF960EE926010EEA22040EE926000E2B
:101FD000EA22E9CFD2F0EACFD3F001D024D0A1C0D9
:101FE000E6FF000EE66E000EE66ED1C0E6FFD2C040
:101FF000E6FFD3C0E6FF75EC29F046E900090AE1E7
:102000000650EA6AB40FE96E000EEA22EF2A000ECB
:10201000F7D109D00650EA6AB40FE96E000EEA2241
:10202000EF6A010EEDD1076A080E075C01E3CAD022
:102030000750EA6AAC0FE96E000EEA22EFCF80F299
:10204000010E06EBF3FF065204E0D890E836F306E3
:10205000FCE102018015000801E3B2D00750EA6AF2
:10206000B40FE96E000EEA22EFCF80F2030E0201F8
:10207000805D5CE30750EA6AB40FE96E000EEA2265
:10208000EF6A010E07EBF3FF075204E0D890E83641
:10209000F306FCE1FF0A0001BC170750EA6AAC0F27
:1020A000E96E000EEA22EF6A010EE66EE66A7AC277
:1020B000E6FF7BC2E6FFBC0EE66E000EE66EFCECB1
:1020C0003FF046E9080EE66EE66A78C2E6FF79C29E
:1020D000E6FFAC0EE66E000EE66EFCEC3FF046E965
:1020E0000001BD5103E055EC18F01DD00001A16BBB
:1020F0000001A151A12BEA6A000FE96E000EEA224D
:10210000070EEF6E0001A151A12BEA6A000FE96EE4
:10211000000EEA229CC2EFFF010EE66E000EE66E94
:10212000E66A72D943E9000E6BD14AD00001D16B47
:102130000001D18B00500001D197E8B0D187000198
:102140009C6B07EB9DF003EC18F0076EFF0E075C2D
:1021500013E007500A0DF3CFE9FFF4CFEAFF960E24
:10216000E926010EEA22040EE926000EEA22E9CF52
:10217000D2F0EACFD3F001D025D0A1C0E6FF000E07
:10218000E66E000EE66ED1C0E6FFD2C0E6FFD3C019
:10219000E6FF75EC29F046E9000909E10750EA6A13
:1021A000B40FE96E000EEA22EF2A000E29D1075083
:1021B000EA6AB40FE96E000EEA22EF6A010E20D13E
:1021C000072A32D7020E0001BD5D01E1E0D0000117
:1021D000D16B0001D18B00500001D197E8B0D187BD
:1021E0000001BD052CE1076A040E075C27E200012F
:1021F000A6510A0DF3CFE9FFF4CFEAFF960EE926C8
:10220000010EEA22040EE926000EEA22E9CF80F24E
:10221000EACF81F207500201EA6A8025E96E815116
:10222000EA22EF50E66E0750EA6A980FE96E000E58
:10223000EA22E552E750EF6E072AD6D77CD0076A2C
:10224000080E075C11E20001BC510CE0010E07EB27
:10225000F3FF075204E0D890E836F306FCE10009EA
:1022600001E002D0072AECD7080E075C05E207EB75
:102270009DF000019C6B03D000019C6B9D6B03ECF7
:1022800018F0086E0A0E085C2BE2076A040E075C61
:1022900026E208500A0DF3CFE9FFF4CFEAFF960ECD
:1022A000E926010EEA22040EE926000EEA22E9CF11
:1022B00080F2EACF81F207500201EA6A8025E96ED6
:1022C0008151EA22EF50E66E0750EA6A980FE96EF4
:1022D000000EEA22E552E750EF6E072AD7D72BD03F
:1022E000076A040E075C27E20001A6510A0DF3CF2E
:1022F000E9FFF4CFEAFF960EE926010EEA22040E6A
:10230000E926000EEA22E9CF80F2EACF81F20750F7
:102310000201EA6A8025E96E8151EA22EF50E66EF9
:102320000750EA6A980FE96E000EEA22E552E7507C
:10233000EF6E072AD6D70001A6510A0DF3CFE9FFA9
:10234000F4CFEAFF960EE926010EEA22040EE926F2
:10235000000EEA22E9CFD2F0EACFD3F0A1C0E6FF27
:10236000000EE66E000EE66ED1C0E6FFD2C0E6FFBC
:10237000D3C0E6FF75EC29F046E9000904E100014D
:10238000B42B000E3DD00001B46B010E39D000011A
:10239000D16B0001D18B00500001D197E8B0D187FB
:1023A00006EB9DF000019C6B0001A6510A0DF3CFD6
:1023B000E9FFF4CFEAFF960EE926010EEA22040EA9
:1023C000E926000EEA22E9CFD2F0EACFD3F0A1C08D
:1023D000E6FF000EE66E000EE66ED1C0E6FFD2C04C
:1023E000E6FFD3C0E6FF75EC29F046E9000904E1F9
:1023F0000001B42B000E04D00001B46B010E00D01C
:1024000044E9E7CFD9FF1200D9CFE6FFE1CFD9FFEA
:1024100084E90001D16B00500001030BF36EFC0E48
:10242000D115F310D16F0150021002E10001D185E6
:1024300000010001D151040B02E0000E01D0010E99
:102440000001D19BE8B0D18B0001D18F01EBD2F01C
:1024500002EBD3F0A1C0E6FF000EE66E000EE66EC2
:10246000D1C0E6FFD2C0E6FFD3C0E6FF75EC29F08D
:1024700046E900D041E9E7CFD9FF1200D9CFE6FF06
:10248000E1CFD9FF81E941E8016A0A0E015C15E25A
:1024900001500A0DF3CFE9FFF4CFEAFF960EE926CB
:1024A000010EEA22080EE926000EEA22EF50800B08
:1024B00002E1015004D0012AE8D7FF0E00D042E922
:1024C000E7CFD9FF1200D9CFE6FFE1CFD9FF82E9EC
:1024D00042E8FF0E005C48E1E20EE66E760EE66E24
:1024E0009BEC43F042E9026A040E025C0FE2030E29
:1024F000D8800254EA6A980FE96E020EEA22EFCF02
:10250000E6FFCAEC43F041E9022AEED7D30EE66EAD
:10251000760EE66E9BEC43F042E9A3C0E6FFCAEC00
:1025200043F041E9A2C0E6FFCAEC43F041E9C90E1D
:10253000E66E760EE66E9BEC43F042E9A5C0E6FF40
:10254000CAEC43F041E9A4C0E6FFCAEC43F041E91C
:10255000BD0EE66E760EE66E9BEC43F042E99CC241
:10256000E6FFF4EC43F041E9750EE66E760EE66E9A
:102570009BEC43F042E9FF0E005C01E09DD1026A52
:102580000A0E025C01E397D102500A0DF3CFE9FF76
:10259000F4CFEAFF960EE926010EEA22080EE9269C
:1025A000000EEA22EF50800B01E183D102EBE6FF3F
:1025B000CAEC43F041E9200EE66EB6EC43F041E987
:1025C000200EE66EB6EC43F041E9200EE66EB6EC66
:1025D00043F041E9200EE66EB6EC43F041E9200EEF
:1025E000E66EB6EC43F041E902500A0DF3CFE9FF85
:1025F000F4CFEAFF960EE926010EEA22080EE9263C
:10260000000EEA22EF50010B06E0590EE66EB6EC22
:1026100043F041E905D04E0EE66EB6EC43F041E9D9
:10262000200EE66EB6EC43F041E9200EE66EB6EC05
:1026300043F041E902500A0DF3CFE9FFF4CFEAFF7E
:10264000960EE926010EEA22080EE926000EEA227D
:10265000EF50020B06E0590EE66EB6EC43F041E98E
:1026600005D04E0EE66EB6EC43F041E9200EE66E64
:10267000B6EC43F041E9200EE66EB6EC43F041E9DA
:1026800002500A0DF3CFE9FFF4CFEAFF960EE926D8
:10269000010EEA22080EE926000EEA22EF50080B8E
:1026A0005AE002500A0DF3CFE9FFF4CFEAFF960E8D
:1026B000E926010EEA22E92A000EEA22EFCFE6FF20
:1026C000CAEC43F041E902500A0DF3CFE9FFF4CF21
:1026D000EAFF960EE926010EEA22EFCFE6FFCAECEA
:1026E00043F041E9200EE66EB6EC43F041E9200EDE
:1026F000E66EB6EC43F041E902500A0DF3CFE9FF74
:10270000F4CFEAFF960EE926010EEA22020EE92630
:10271000000EEA22E92A000EEA22EFCFE6FFCAEC19
:1027200043F041E902500A0DF3CFE9FFF4CFEAFF8D
:10273000960EE926010EEA22020EE926000EEA2292
:10274000EFCFE6FFCAEC43F041E9200EE66EB6ECAF
:1027500043F041E937D03F0EE66EB6EC43F041E975
:102760003F0EE66EB6EC43F041E93F0EE66EB6EC86
:1027700043F041E93F0EE66EB6EC43F041E9200E2E
:10278000E66EB6EC43F041E9200EE66EB6EC43F09F
:1027900041E93F0EE66EB6EC43F041E93F0EE66ECE
:1027A000B6EC43F041E93F0EE66EB6EC43F041E98A
:1027B0003F0EE66EB6EC43F041E9200EE66EB6EC55
:1027C00043F041E902500A0DF3CFE9FFF4CFEAFFED
:1027D000960EE926010EEA22080EE926000EEA22EC
:1027E000EF50040B26E0036A040E035C22E2025061
:1027F0000A0DF3CFE9FFF4CFEAFF960EE926010EAA
:10280000EA22040EE926000EEA22E9CF80F2EACF9E
:1028100081F2030ED88003540201EA6A8025E96E32
:102820008151EA22EFCFE6FFCAEC43F041E9032AE7
:10283000DBD7200EE66EB6EC43F041E9036A040EE6
:10284000035C09E2720EE66E760EE66E9BEC43F0D8
:1028500042E9032AF4D7036A010E035C20E2025026
:102860000A0DF3CFE9FFF4CFEAFF960EE926010E39
:10287000EA22090EE926000EEA22E9CF80F2EACF29
:1028800081F203500201EA6A8025E96E8151EA2251
:10289000EFCFE6FFCAEC43F041E9032ADDD70D0E86
:1028A000E66EB6EC43F041E90A0EE66EB6EC43F094
:1028B00041E9022A65D695D100500A0DF3CFE9FF10
:1028C000F4CFEAFF960EE926010EEA22080EE92669
:1028D000000EEA22EF50800B01E183D100EBE6FF0E
:1028E000CAEC43F041E9200EE66EB6EC43F041E954
:1028F000200EE66EB6EC43F041E9200EE66EB6EC33
:1029000043F041E9200EE66EB6EC43F041E9200EBB
:10291000E66EB6EC43F041E900500A0DF3CFE9FF53
:10292000F4CFEAFF960EE926010EEA22080EE92608
:10293000000EEA22EF50010B06E0590EE66EB6ECEF
:1029400043F041E905D04E0EE66EB6EC43F041E9A6
:10295000200EE66EB6EC43F041E9200EE66EB6ECD2
:1029600043F041E900500A0DF3CFE9FFF4CFEAFF4D
:10297000960EE926010EEA22080EE926000EEA224A
:10298000EF50020B06E0590EE66EB6EC43F041E95B
:1029900005D04E0EE66EB6EC43F041E9200EE66E31
:1029A000B6EC43F041E9200EE66EB6EC43F041E9A7
:1029B00000500A0DF3CFE9FFF4CFEAFF960EE926A7
:1029C000010EEA22080EE926000EEA22EF50080B5B
:1029D0005AE000500A0DF3CFE9FFF4CFEAFF960E5C
:1029E000E926010EEA22E92A000EEA22EFCFE6FFED
:1029F000CAEC43F041E900500A0DF3CFE9FFF4CFF0
:102A0000EAFF960EE926010EEA22EFCFE6FFCAECB6
:102A100043F041E9200EE66EB6EC43F041E9200EAA
:102A2000E66EB6EC43F041E900500A0DF3CFE9FF42
:102A3000F4CFEAFF960EE926010EEA22020EE926FD
:102A4000000EEA22E92A000EEA22EFCFE6FFCAECE6
:102A500043F041E900500A0DF3CFE9FFF4CFEAFF5C
:102A6000960EE926010EEA22020EE926000EEA225F
:102A7000EFCFE6FFCAEC43F041E9200EE66EB6EC7C
:102A800043F041E937D03F0EE66EB6EC43F041E942
:102A90003F0EE66EB6EC43F041E93F0EE66EB6EC53
:102AA00043F041E93F0EE66EB6EC43F041E9200EFB
:102AB000E66EB6EC43F041E9200EE66EB6EC43F06C
:102AC00041E93F0EE66EB6EC43F041E93F0EE66E9B
:102AD000B6EC43F041E93F0EE66EB6EC43F041E957
:102AE0003F0EE66EB6EC43F041E9200EE66EB6EC22
:102AF00043F041E900500A0DF3CFE9FFF4CFEAFFBC
:102B0000960EE926010EEA22080EE926000EEA22B8
:102B1000EF50040B26E0036A040E035C22E200502F
:102B20000A0DF3CFE9FFF4CFEAFF960EE926010E76
:102B3000EA22040EE926000EEA22E9CF80F2EACF6B
:102B400081F2030ED88003540201EA6A8025E96EFF
:102B50008151EA22EFCFE6FFCAEC43F041E9032AB4
:102B6000DBD7200EE66EB6EC43F041E9036A040EB3
:102B7000035C09E2720EE66E760EE66E9BEC43F0A5
:102B800042E9032AF4D7036A010E035C20E20050F5
:102B90000A0DF3CFE9FFF4CFEAFF960EE926010E06
:102BA000EA22090EE926000EEA22E9CF80F2EACFF6
:102BB00081F203500201EA6A8025E96E8151EA221E
:102BC000EFCFE6FFCAEC43F041E9032ADDD70D0E53
:102BD000E66EB6EC43F041E90A0EE66EB6EC43F061
:102BE00041E95B0EE66E760EE66E9BEC43F042E941
:102BF000BCC0E6FFCAEC43F041E93A0EE66E760E41
:102C0000E66E9BEC43F042E9026A080E025C30E299
:102C100002EBE6FFCAEC43F041E9200EE66EB6ECAB
:102C200043F041E9200EE66EB6EC43F041E9200E98
:102C3000E66EB6EC43F041E9200EE66EB6EC43F0EA
:102C400041E90250EA6AAC0FE96E000EEA22EFCFCA
:102C5000E6FFCAEC43F041E90D0EE66EB6EC43F038
:102C600041E90A0EE66EB6EC43F041E9022ACDD7FF
:102C700043E9E7CFD9FF1200D9CFE6FFE1CFD9FF73
:102C800081E941E80001BE91020E0001BD5D01E055
:102C900056D10001BEB340D034EC45F03CCFCDF06E
:102CA0003DCFCEF03ECFCFF03FCFD0F00001C06B94
:102CB000C16B016A040E015C13E20150EA6A980FCD
:102CC000E96E020EEA22EF50E66E0150EA6AC20F88
:102CD000E96E000EEA22E552E750EF6E012AEAD7CC
:102CE0000001BE830001BE91016A010E015C13E286
:102CF0000150EA6AA70FE96E020EEA22EF50E66E73
:102D00000150EA6AC60FE96E000EEA22E552E7506A
:102D1000EF6E012AEAD711D10001C051C11101E1C2
:102D20006ED10001A2510001C01904E10001A351BC
:102D30000001C11901E101D100010B0EA16F0001D9
:102D4000A151A12BEA6A000FE96E000EEA22EF6A98
:102D50000001A151A12BEA6A000FE96E000EEA22E0
:102D6000110EEF6E016A040E015C15E20150EA6A71
:102D7000980FE96E020EEA22EF50E66E0001A151B3
:102D8000A12BEA6A000FE96E000EEA22E552E75035
:102D9000EF6E012AE8D70001A151A12BEA6A000FCA
:102DA000E96E000EEA22A2C0EFFF0001A151A12BA3
:102DB000EA6A000FE96E000EEA22A3C0EFFF016A83
:102DC000010E015C15E20150EA6AA70FE96E020EDE
:102DD000EA22EF50E66E0001A151A12BEA6A000F32
:102DE000E96E000EEA22E552E750EF6E012AE8D7BD
:102DF000016A040E015C13E20150EA6AC20FE96E37
:102E0000000EEA22EF50E66E0150EA6A980FE96E72
:102E1000000EEA22E552E750EF6E012AEAD7C0C061
:102E20009CF0C1C09DF0EFD80001BF6FFF0E000104
:102E3000BF5D12E00001BF510A0DF3CFE9FFF4CFEF
:102E4000EAFF960EE926010EEA22080EE926000E98
:102E5000EA22EFCFA0F008D000018C0EA06F000195
:102E60009CBF02D00001A081A4C09EF0A5C09FF02D
:102E700016DA0001BF6F016A010E015C27E2015002
:102E8000EA6AC60FE96E000EEA22EF50E66E000114
:102E9000BF510A0DF3CFE9FFF4CFEAFF960EE92602
:102EA000010EEA22090EE926000EEA22E9CF80F29D
:102EB000EACF81F201500201EA6A8025E96E815170
:102EC000EA22E552E750EF6E012AD6D7E66AE66AB3
:102ED000C00EE66E000EE66E23EC21F044E9000120
:102EE000BE930001BE810A0EE66EE66A0001BF5184
:102EF0000A0D020102017051F3240201806F0201E8
:102F000002017151F4200201816F80C2E6FF81C28B
:102F1000E6FF0001BF510A0DF3CF82F2F4CF83F236
:102F2000960E02018227010E0201832382C2E6FF70
:102F300083C2E6FFFCEC3FF046E961D00AD034ECF6
:102F400045F03CCFCDF03DCFCEF03ECFCFF03FCFE0
:102F5000D0F000019C6B9D6B00010B0EA16F000176
:102F6000A151A12BEA6A000FE96E000EEA22EF6A76
:102F70000001A151A12BEA6A000FE96E000EEA22BE
:102F8000100EEF6E016A040E015C15E20150EA6A50
:102F9000980FE96E020EEA22EF50E66E0001A15191
:102FA000A12BEA6A000FE96E000EEA22E552E75013
:102FB000EF6E012AE8D7016A010E015C15E20150AB
:102FC000EA6AA70FE96E020EEA22EF50E66E0001F0
:102FD000A151A12BEA6A000FE96E000EEA22E55228
:102FE000E750EF6E012AE8D7E66AE66A9C0EE66EC5
:102FF000000EE66E23EC21F044E90001BE8342E9B5
:10300000E7CFD9FF1200D9CFE6FFE1CFD9FF81E9A1
:1030100041E8016A0A0E015C42E201500A0DF3CF59
:10302000E9FFF4CFEAFF960EE926010EEA22080E28
:10303000E926000EEA22EF50800B2FE001500A0D26
:10304000F3CFE9FFF4CFEAFF960EE926010EEA225C
:10305000080EE926000EEA22EF50080B1EE0015090
:103060000A0DF3CFE9FFF4CFEAFF960EE926010E31
:10307000EA22020EE926000EEA22EECF80F2EFCF1E
:1030800081F200019C510201801904E100019D516F
:103090000201811902E1015004D0012ABBD7FF0EC1
:1030A00000D042E9E7CFD9FF1200D9CFE6FFE1CF48
:1030B000D9FF81E941E80001A16B0001A151A12BD9
:1030C000EA6A000FE96E000EEA22A4C0EFFF0001D9
:1030D000A151A12BEA6A000FE96E000EEA22A5C0F9
:1030E000EFFF0001A151A12BEA6A000FE96E000E6B
:1030F000EA22A2C0EFFF0001A151A12BEA6A000F52
:10310000E96E000EEA22A3C0EFFF0001A151A12B3E
:10311000EA6A000FE96E000EEA22EF680001A15191
:10312000A12BEA6A000FE96E000EEA2260C0EFFFF1
:103130000001A151A12BEA6A000FE96E000EEA22FC
:10314000EF6A0001A151A12BEA6A000FE96E000E9F
:10315000EA22EF6A0001A151A12BEA6A000FE96E91
:10316000000EEA224D0EEF6E0001A151A12BEA6A7A
:10317000000FE96E000EEA22410EEF6E0001A15130
:10318000A12BEA6A000FE96E000EEA22BCC0EFFF35
:10319000016A010E015C15E20150EA6AA70FE96EAF
:1031A000020EEA22EF50E66E0001A151A12BEA6A5D
:1031B000000FE96E000EEA22E552E750EF6E012A99
:1031C000E8D7030EE66E000EE66EE66A04EC12F037
:1031D00043E942E9E7CFD9FF1200D9CFE6FFE1CFBB
:1031E000D9FF81E942E8016A0A0E015C52E201500E
:1031F0000A0DF3CFE9FFF4CFEAFF960EE926010EA0
:10320000EA22080EE926000EEA22EF50800B3FE08A
:1032100001500A0DF3CFE9FFF4CFEAFF960EE9263D
:10322000010EEA22080EE926000EEA22EF50040BF6
:103230002EE0026A040E025C28E201500A0DF3CF70
:10324000E9FFF4CFEAFF960EE926010EEA22040E0A
:10325000E926000EEA22E9CF81F2EACF82F202509B
:103260000201EA6A8125E96E8251EA22EFCF80F2FB
:103270000250EA6A980FE96E000EEA22EF5002014E
:10328000805D01E004D0022AD5D7015004D0012A84
:10329000ABD7FF0E00D043E9E7CFD9FF1200D9CF5B
:1032A000E6FFE1CFD9FF81E942E801680001A0A56E
:1032B00003D093DF016E05D00001A0A702D0A3DEEA
:1032C000016EFF0E015C03E13EEC12F0016EFF0E99
:1032D000015C6EE001500A0DF3CFE9FFF4CFEAFF85
:1032E000960EE926010EEA22080EE926000EEA22D1
:1032F000A0C0EFFF0001A0A52AD0026A040E025C64
:1033000026E20250EA6A980FE96E000EEA22EF50B8
:10331000E66E01500A0DF3CFE9FFF4CFEAFF960EF7
:10332000E926010EEA22040EE926000EEA22E9CF80
:1033300080F2EACF81F202500201EA6A8025E96E4A
:103340008151EA22E552E750EF6E022AD7D70001F9
:10335000A0A712D001500A0DF3CFE9FFF4CFEAFF86
:10336000960EE926010EEA22020EE926000EEA2256
:103370009CC0EEFF9DC0EDFF01500A0DF3CFE9FFA9
:10338000F4CFEAFF960EE926010EEA229EC0EEFF78
:103390009FC0EDFF0150040DF3CFE9FFF4CFEAFF2A
:1033A000330EE926000EEA22EE6AEE6AEE6AEE6A53
:1033B000015000D043E9E7CFD9FF1200D9CFE6FF93
:1033C000E1CFD9FF85E941E8056A040E055C16E204
:1033D00005500224E96E000E0320EA6EEFCF80F262
:1033E00005500024E96E000E0120EA6EEF50020144
:1033F000805D02E0000E04D0052AE7D7010E00D060
:1034000042E9E7CFD9FF1200D9CFE6FFE1CFD9FFDC
:1034100082E944E898EC40F00001A269A369000148
:10342000340EA46F120EA56F056A0A0E055C11E238
:1034300005500A0DF3CFE9FFF4CFEAFF960EE92617
:10344000010EEA22080EE926000EEA22EF6A052A9A
:10345000ECD7056A080E055C10E20550EA6AAC0F6D
:10346000E96E000EEA22EF6A0550EA6AB40FE96ECF
:10347000000EEA22EF6A052AEDD70001BC6B0001BD
:10348000BD6B0001A76BA86B0001BE6B0001606BF8
:1034900029EC45F00001A16B056A0A0E055C10E2FB
:1034A0000550040DF3CFE9FFF4CFEAFF330EE92610
:1034B000000EEA22EE6AEE6AEE6AEE6A052AEDD79F
:1034C000005001E1E2D0010EE66EE66A6CC2E6FF52
:1034D0006DC2E6FF9C0EE66E020EE66EBEEC3FF09D
:1034E00046E9200E02019C5D02E3000E95D1020E1A
:1034F000E66EE66A74C2E6FF75C2E6FFA20EE66EED
:10350000000EE66EBEEC3FF046E90001A21D01E1AF
:10351000A31D02E1000E80D1020EE66EE66A6AC2C9
:10352000E6FF6BC2E6FFA40EE66E000EE66EBEEC92
:103530003FF046E9010EE66EE66A6EC2E6FF6FC234
:10354000E6FF9D0EE66E020EE66EBEEC3FF046E92B
:1035500002019D510001030BF36EF346F346F3465F
:10356000F346CF0E6015F310606F640EE66EE66AE8
:1035700070C2E6FF71C2E6FF960EE66E010EE66EC1
:10358000BEEC3FF046E9020EE66EE66A74C2E6FF64
:1035900075C2E6FFA20EE66E000EE66EBEEC3FF0D0
:1035A00046E9010EE66EE66A76C2E6FF77C2E6FFFE
:1035B000A60EE66E000EE66EBEEC3FF046E9080E83
:1035C000E66EE66A78C2E6FF79C2E6FFAC0EE66E0A
:1035D000000EE66EBEEC3FF046E9010EE66EE66ACE
:1035E0007AC2E6FF7BC2E6FFBC0EE66E000EE66E18
:1035F000BEEC3FF046E9010EE66EE66A7CC2E6FFED
:103600007DC2E6FFBD0EE66E000EE66EBEEC3FF03C
:1036100046E9310EE66E760EE66E9BEC43F042E92B
:103620009CC2E6FFF4EC43F041E9290EE66E760E0B
:10363000E66E9BEC43F042E9A5C0E6FFCAEC43F01E
:1036400041E9A4C0E6FFCAEC43F041E91E0EE66E74
:10365000760EE66E9BEC43F042E9A3C0E6FFCAECAF
:1036600043F041E9A2C0E6FFCAEC43F041E9A40EF1
:10367000E66E000EE66EA20EE66E000EE66E1FEC23
:1036800028F044E90001A7837ED0020EE66EE66AC8
:103690006AC2E6FF6BC2E6FFA40EE66E000EE66E9F
:1036A000FCEC3FF046E9010EE66EE66A6CC2E6FF0E
:1036B0006DC2E6FF9C0EE66E020EE66EFCEC3FF07D
:1036C00046E9010EE66EE66A6EC2E6FF6FC2E6FFED
:1036D0009D0EE66E020EE66EFCEC3FF046E9640ECF
:1036E000E66EE66A70C2E6FF71C2E6FF960EE66E0F
:1036F000010EE66EFCEC3FF046E9020EE66EE66A6D
:1037000074C2E6FF75C2E6FFA20EE66E000EE66E1C
:10371000FCEC3FF046E9010EE66EE66A76C2E6FF93
:1037200077C2E6FFA60EE66E000EE66EFCEC3FF0FA
:1037300046E9080EE66EE66A78C2E6FF79C2E6FF61
:10374000AC0EE66E000EE66EFCEC3FF046E9010EB4
:10375000E66EE66A7AC2E6FF7BC2E6FFBC0EE66E64
:10376000000EE66EFCEC3FF046E9010EE66EE66AFE
:103770007CC2E6FF7DC2E6FFBD0EE66E000EE66E81
:10378000FCEC3FF046E9026A02960298028A029C2B
:10379000028200500294E8B00284980E036E020E7A
:1037A000046E02EBE6FF03EBE6FF04EBE6FF7CECC6
:1037B00028F043E9A40EE66E000EE66EA20EE66E59
:1037C000000EE66E1FEC28F044E99CC2E6FF28D804
:1037D00041E9000160810001608702019D51000103
:1037E000030BF36EF346F346F346F346CF0E601534
:1037F000F310606F0001608D0001BD510001030BEB
:10380000F36EF346F90E6015F310606FD6CFABF090
:10381000F094F08A010E00D045E9E7CFD9FF1200FD
:10382000D9CFE6FFE1CFD9FF82E9E66A00EBE6FFF8
:103830002AEC28F042E9000912E000EB9CF2010EAC
:10384000E66EE66A6CC2E6FF6DC2E6FF9C0EE66EAF
:10385000020EE66EFCEC3FF046E9010E02D0000ECF
:1038600000D041E9E7CFD9FF1200D9CFE6FFE1CF81
:10387000D9FF82E90050030801E21DD000EB9DF260
:1038800002019D510001030BF36EF346F346F3462C
:10389000F346CF0E6015F310606F010EE66EE66A18
:1038A0006EC2E6FF6FC2E6FF9D0EE66E020EE66E8A
:1038B000FCEC3FF046E941E9E7CFD9FF1200D9CF50
:1038C000E6FFE1CFD9FF86E94EE8010E076E086AF0
:1038D000096A0A6A02019C510B6E066A040E065CB4
:1038E0000DE206500B0DF3CFE9FFF4CFEAFF6C0EAB
:1038F000E926000EEA22EF68062AF0D700016B6B7A
:103900000001A781066A200E065C01E3BFD007EB29
:1039100080F208EB81F209EB82F20AEB83F20650A7
:103920001F0B08E00201D890803781378237833738
:10393000E806F9E1D9CFE9FFDACFEAFFEE5002015C
:103940008017EE5002018117EE5002018217EE50EF
:10395000020183170201805181118211831101E15B
:1039600093D00E0EE66E760EE66E9BEC43F042E9C7
:1039700006EBE6FFF4EC43F041E906EBE6FF50DF2F
:1039800041E90001A16B0001A151A12BEA6A000FDE
:10399000E96E000EEA22070EEF6E0001A151A12B85
:1039A000EA6A000FE96E000EEA229CC2EFFF010EE8
:1039B000E66E000EE66EE66A04EC12F043E934ECC3
:1039C00045F03CCF80F23DCF81F23ECF82F23FCF37
:1039D00083F2020180510C6E81510D6E82510E6E88
:1039E00083510F6EC6DA000901E0CCDA34EC45F001
:1039F0003CCF80F23DCF81F23ECF82F23FCF83F2C7
:103A000002018051106E8151116E8251126E8351EC
:103A1000136E10EB84F211EB85F212EB86F213EBCE
:103A200087F2D9500C0FE96EDACFEAFFEE500201AF
:103A3000845D0201806FEE50020185590201816FA1
:103A4000EE50020186590201826FEE500201875941
:103A50000201836F0450040DF3CFF6FFF4CFF7FF9C
:103A60002A0EF6268C0EF722020180510900F55C21
:103A700081510900F55882510900F5588351090018
:103A8000F55801E201D0AED7062A3DD70BEBE6FF91
:103A9000C7DE41E90001A79100016B5100D04FE959
:103AA000E7CFD9FF1200D9CFE6FFE1CFD9FF83E9F5
:103AB0004AE8030E036E000413E13CEC16F000012B
:103AC000BEA305D056DA000901E05CDAF8D70001A0
:103AD000BEA103D00001BF5148D2FF0E46D243D24F
:103AE000005001E040D2FF0E015C26E10201010E10
:103AF000806F816B826B836B02019C511F0B08E00E
:103B00000201D8908037813782378337E806F9E1A0
:103B100080C2E6FF81C2E6FF82C2E6FF83C2E6FF03
:103B20000A0EE66ECCDE45E9000905E1030602E176
:103B3000FF0E1BD2DBD7016A01500B0DF3CFE9FF5B
:103B4000F4CFEAFF6C0EE926000EEA22050EE92604
:103B5000000EEA22EECF9EF0EDCF9FF0046A040E35
:103B6000045C23E201500B0DF3CFE9FFF4CFEAFF31
:103B70006C0EE926000EEA22EE52E9CF80F2EACF7F
:103B800081F204500201EA6A8025E96E8151EA223D
:103B9000EF50E66E0450EA6A980FE96E000EEA22D2
:103BA000E552E750EF6E042ADAD7EDEC18F0000189
:103BB000A66FFF0E0001A65D08E13EEC12F00001C9
:103BC000A66FFF0802E1FF0ED0D10001A6510A0D39
:103BD000F3CFE9FFF4CFEAFF960EE926010EEA22C1
:103BE000080EE926000EEA22EF6A01500B0DF3CF12
:103BF000E9FFF4CFEAFF6C0EE926000EEA22050E7B
:103C0000E926000EEA22EECF80F2EFCF81F200012A
:103C1000A6510A0DF3CFE9FFF4CFEAFF960EE9268D
:103C2000010EEA2280C2EEFF81C2EDFF046A040E9B
:103C3000045C37E201500B0DF3CFE9FFF4CFEAFF4C
:103C40006C0EE926000EEA22EE52E9CF82F2EACFAC
:103C500083F204500201EA6A8225E96E8351EA2266
:103C6000EF50E66E0001A6510A0DF3CFE9FFF4CF45
:103C7000EAFF960EE926010EEA22040EE926000E5E
:103C8000EA22E9CF80F2EACF81F204500201EA6A27
:103C90008025E96E8151EA22E552E750EF6E042A51
:103CA000C6D70001A6510A0DF3CFE9FFF4CFEAFF12
:103CB000960EE926010EEA22080EE926000EEA22F7
:103CC000EF84046A010E045C3AE201500B0DF3CF5D
:103CD000E9FFF4CFEAFF6C0EE926000EEA220A0E95
:103CE000E926000EEA22E9CF82F2EACF83F20450FD
:103CF0000201EA6A8225E96E8351EA22EF50E66EFC
:103D00000001A6510A0DF3CFE9FFF4CFEAFF960EAA
:103D1000E926010EEA22090EE926000EEA22E9CF81
:103D200080F2EACF81F204500201EA6A8025E96E4E
:103D30008151EA22E552E750EF6E042AC3D7000111
:103D4000A6510A0DF3CFE9FFF4CFEAFF960EE9265C
:103D5000010EEA22080EE926000EEA22EF82000197
:103D6000A6510A0DF3CFE9FFF4CFEAFF960EE9263C
:103D7000010EEA22080EE926000EEA22EF8A00016F
:103D8000A6510A0DF3CFE9FFF4CFEAFF960EE9261C
:103D9000010EEA22080EE926000EEA22EF80015009
:103DA0000B0DF3CFE9FFF4CFEAFF6C0EE926000E0E
:103DB000EA22EFCFE6FF34DD41E90001A6510A0D0A
:103DC000F3CFE9FFF4CFEAFF960EE926010EEA22CF
:103DD000EECFA4F0EDCFA5F000019C699D69A40E83
:103DE000E66E000EE66E9C0EE66E000EE66E1FECB2
:103DF00028F044E90001A16B0001A151A12BEA6A5E
:103E0000000FE96E000EEA22010EEF6E0001A151D3
:103E1000A12BEA6A000FE96E000EEA2260C0EFFFF4
:103E2000046A010E045C15E20450EA6AA70FE96E09
:103E3000020EEA22EF50E66E0001A151A12BEA6AC0
:103E4000000FE96E000EEA22E552E750EF6E042AF9
:103E5000E8D7010EE66E0001A6510A0DF3CFE9FF87
:103E6000F4CFEAFF960EE926010EEA22040EE926B7
:103E7000000EEA22E9CF80F2EACF81F280C2E6FFAB
:103E800081C2E6FF04EC12F043E934EC45F03CCF8C
:103E900080F23DCF81F23ECF82F23FCF83F202012A
:103EA0008051056E8151066E8251076E8351086EF6
:103EB0000001A6510A0DF3CFE9FFF4CFEAFF960EF9
:103EC000E926010EEA22080EE926000EEA22EF504A
:103ED000100B46E14ED8000901E054D834EC45F00F
:103EE0003CCF80F23DCF81F23ECF82F23FCF83F2D2
:103EF00002018051096E81510A6E82510B6E83510D
:103F00000C6E09EB84F20AEB85F20BEB86F20CEBFC
:103F100087F2D950050FE96EDACFEAFFEE500201C1
:103F2000845D0201806FEE50020185590201816FAC
:103F3000EE50020186590201826FEE50020187594C
:103F40000201836FD880960E02018055980E81552C
:103F5000000E8255000E835502E2FF0E06D0A8D750
:103F60000001A65102D0FF0E00D04BE9E7CFD9FFE8
:103F700012008FEC00F00001A751040B01E0010ECC
:103F800000D012000001A7954FEC2DF01200D9CF00
:103F9000E6FFE1CFD9FF82E99EC200F00001020EE8
:103FA000016FA4C002F0A5C003F000010469000184
:103FB0000569A4C006F0A5C007F0A2C008F0A3C020
:103FC00009F00001AB51AB2B00010A6F0001D16B6E
:103FD0000001D18500500001D197E8B0D187A1C080
:103FE000E6FF000EE66E000EE66ED1C0E6FFD2C020
:103FF000E6FFD3C0E6FF75EC29F046E900D041E9C1
:10400000E7CFD9FF1200D9CFE6FFE1CFD9FF83E98F
:1040100049E801500A0DF3CFE9FFF4CFEAFF960E0D
:10402000E926010EEA22080EE926000EEA22EF50E8
:10403000800B02E1000E03D10201A0511CE000013F
:104040000B5119E00001A787ABC09FF201500A0D88
:10405000F3CFE9FFF4CFEAFF960EE926010EEA223C
:10406000020EE926000EEA22EECFA9F0EDCFAAF06B
:10407000060E036E04D0020E036E0001A7979EC2C7
:1040800000F003EB01F001500A0DF3CFE9FFF4CF8C
:10409000EAFF960EE926010EEA22EFCF02F0015068
:1040A0000A0DF3CFE9FFF4CFEAFF960EE926010EE1
:1040B000EA22E92A000EEA22EFCF03F001500A0DAE
:1040C000F3CFE9FFF4CFEAFF960EE926010EEA22CC
:1040D000020EE926000EEA22EFCF04F001500A0D8D
:1040E000F3CFE9FFF4CFEAFF960EE926010EEA22AC
:1040F000020EE926000EEA22E92A000EEA22EFCF9C
:1041000005F0A4C006F0A5C007F0A2C008F0A3C047
:1041100009F00001AB51AB2B00010A6F00EBE6FF89
:1041200001500A0DF3CFE9FFF4CFEAFF960EE9261E
:10413000010EEA22020EE926000EEA22EECFE6FF89
:10414000EECFE6FF01500A0DF3CFE9FFF4CFEAFF0F
:10415000960EE926010EEA22EECFE6FFEECFE6FF4D
:1041600028EC0FF045E9000905E10001A797000ED2
:1041700066D063D00001A7A760D034EC45F03CCFF7
:1041800080F23DCF81F23ECF82F23FCF83F2020137
:104190008051046E8151056E8251066E8351076E07
:1041A000E8DE000901E0EEDE0001A7B702D0010E53
:1041B00046D034EC45F03CCF80F23DCF81F23ECF8B
:1041C00082F23FCF83F202018051086E8151096E65
:1041D00082510A6E83510B6E08EB84F209EB85F273
:1041E0000AEB86F20BEB87F2D950040FE96EDACFB7
:1041F000EAFFEE500201845D0201806FEE50020181
:1042000085590201816FEE50020186590201826FC9
:10421000EE50020187590201836FD880960E020189
:104220008055980E8155000E8255000E835504E28C
:104230000001A797000E03D0B3D7010E00D04AE9C2
:10424000E7CFD9FF1200D9CFE6FFE1CFD9FF85E94B
:1042500053E80201A0510AE000010B5107E0000100
:10426000A787ABC09FF2060E076E04D0020E076E42
:104270000001A797015001E15FD1066A040E065CB8
:1042800013E206500224E96E000E0320EA6EEF509E
:10429000E66E0650EA6A980FE96E000EEA22E552D1
:1042A000E750EF6E062AEAD7EDEC18F0056EFF0E28
:1042B000055C3AE19EC200F00001020E016F0001B0
:1042C0000269000103690001046900010569A4C0D5
:1042D00006F0A5C007F0A2C008F0A3C009F00001D5
:1042E000AB51AB2B00010A6F0001D16B0001D18BE8
:1042F00000500001D197E8B0D18702EBD2F003EB78
:10430000D3F00001A797A1C0E6FF000EE66E000EF5
:10431000E66ED1C0E6FFD2C0E6FFD3C0E6FF75EC83
:1043200029F046E9BFD108D105500A0DF3CFE9FFC6
:10433000F4CFEAFF960EE926010EEA22080EE926DE
:10434000000EEA22EF50080B01E1B4D70201A051A0
:1043500012E005500A0DF3CFE9FFF4CFEAFF960E05
:10436000E926010EEA22020EE926000EEA22EECF2D
:10437000A9F0EDCFAAF00001040E006F07EB01F0E9
:1043800005500A0DF3CFE9FFF4CFEAFF960EE926B8
:10439000010EEA22EFCF02F005500A0DF3CFE9FF3C
:1043A000F4CFEAFF960EE926010EEA22E92A000E72
:1043B000EA22EFCF03F005500A0DF3CFE9FFF4CF67
:1043C000EAFF960EE926010EEA22020EE926000E09
:1043D000EA22EFCF04F005500A0DF3CFE9FFF4CF46
:1043E000EAFF960EE926010EEA22020EE926000EE9
:1043F000EA22E92A000EEA22EFCF05F0A4C006F077
:10440000A5C007F0A2C008F0A3C009F00001AB519D
:10441000AB2B00010A6F00EBE6FF05500A0DF3CF4E
:10442000E9FFF4CFEAFF960EE926010EEA22020E1A
:10443000E926000EEA22EECFE6FFEECFE6FF0550BA
:104440000A0DF3CFE9FFF4CFEAFF960EE926010E3D
:10445000EA22EECFE6FFEECFE6FF28EC0FF045E9CB
:10446000000905E10001A797000E1CD163D00001EF
:10447000A7A760D034EC45F03CCF80F23DCF81F26D
:104480003ECF82F23FCF83F202018051086E81510C
:10449000096E82510A6E83510B6E6BDD000901E0DB
:1044A00071DD0001A7B702D0010EFCD034EC45F05D
:1044B0003CCF80F23DCF81F23ECF82F23FCF83F2FC
:1044C000020180510C6E81510D6E82510E6E83512E
:1044D0000F6E0CEB84F20DEB85F20EEB86F20FEB18
:1044E00087F2D950080FE96EDACFEAFFEE500201E9
:1044F000845D0201806FEE50020185590201816FD7
:10450000EE50020186590201826FEE500201875976
:104510000201836FD880960E02018055980E815556
:10452000000E8255000E835504E20001A797000E8D
:10453000B9D0B3D7010EB6D00001040E006F07EB5F
:1045400001F0A4C002F0A5C003F002EBE9FF03EB09
:10455000EAFFEFCF04F00228E96E000E0320EA6EB6
:10456000EFCF05F0A4C006F0A5C007F0A2C008F088
:10457000A3C009F00001AB51AB2B00010A6F02EBA5
:10458000E9FF03EBEAFFEFCFA9F00228E96E000E86
:104590000320EA6EEFCFAAF002EBE9FF03EBEAFF9C
:1045A000EFCF9CF00228E96E000E0320EA6EEFCFF9
:1045B0009DF000EBE6FF9CC0E6FF9DC0E6FFA4C0B7
:1045C000E6FFA5C0E6FF28EC0FF045E9000905E18C
:1045D0000001A797000E66D063D00001A7A760D0A6
:1045E00034EC45F03CCF80F23DCF81F23ECF82F2F9
:1045F0003FCF83F202018051106E8151116E8251C2
:10460000126E8351136EB5DC000901E0BBDC0001C2
:10461000A7B702D0010E46D034EC45F03CCF80F273
:104620003DCF81F23ECF82F23FCF83F20201805133
:10463000146E8151156E8251166E8351176E14EBF4
:1046400084F215EB85F216EB86F217EB87F2D95060
:10465000100FE96EDACFEAFFEE500201845D02012D
:10466000806FEE50020185590201816FEE50020108
:1046700086590201826FEE50020187590201836F51
:10468000D880960E02018055980E8155000E8255F5
:10469000000E835504E20001A797000E03D0B3D7A4
:1046A000010E00D054E9E7CFD9FF1200D9CFE6FFC1
:1046B000E1CFD9FF87E90550020A68E0030A64E008
:1046C000010A01E065D00001A26BA36B0001A6699D
:1046D0000001340EA46F120EA56FA40EE66E000E3C
:1046E000E66EA20EE66E000EE66E1FEC28F044E9C0
:1046F0000001A7830001020EBD6F0001BD51000142
:10470000030BF36EF346F90E6015F310606F0001B2
:10471000010EBC6F020EE66EE66A74C2E6FF75C259
:10472000E6FFA20EE66E000EE66EFCEC3FF046E9F8
:10473000020EE66EE66A6AC2E6FF6BC2E6FFA40EF0
:10474000E66E000EE66EFCEC3FF046E9010EE66E0A
:10475000E66A7CC2E6FF7DC2E6FFBD0EE66E000E95
:10476000E66EFCEC3FF046E9010EE66EE66A7AC2C0
:10477000E6FF7BC2E6FFBC0EE66E000EE66EFCECCA
:104780003FF046E9010E07D0000E05D0000E03D021
:1047900000D0000E00D041E9E7CFD9FF1200D9CFF9
:1047A000E6FFE1CFD9FF82E943E8FF0E005C01E0BC
:1047B000C6D0026A0A0E025C74E202500A0DF3CF00
:1047C000E9FFF4CFEAFF960EE926010EEA22080E71
:1047D000E926000EEA22EF50800B52E002500A0D4B
:1047E000F3CFE9FFF4CFEAFF960EE926010EEA22A5
:1047F000080EE926000EEA22EF50200B41E00001EE
:10480000A16B0001A151A12BEA6A000FE96E000E15
:10481000EA22030EEF6E0001D16B0001D18B000183
:10482000D181D1930001D18F02500A0DF3CFE9FF5E
:10483000F4CFEAFF960EE926010EEA22040EE926DD
:10484000000EEA22E9CFD2F0EACFD3F0A1C0E6FF12
:10485000000EE66E000EE66ED1C0E6FFD2C0E6FFA7
:10486000D3C0E6FF75EC29F046E9036A046AFF0E3F
:10487000035C0F0E045804E2032A000E0422F7D74B
:1048800002500A0DF3CFE9FFF4CFEAFF960EE926B6
:10489000010EEA22080EE926000EEA22EF6A022A39
:1048A00089D70001A6690001A269A3690001A46972
:1048B000A569A40EE66E000EE66EA20EE66E000E70
:1048C000E66E1FEC28F044E90001A793020EE66EA5
:1048D000E66A74C2E6FF75C2E6FFA20EE66E000E3F
:1048E000E66EFCEC3FF046E9020EE66EE66A6AC24E
:1048F000E6FF6BC2E6FFA40EE66E000EE66EFCEC71
:104900003FF046E9010EE66EE66A76C2E6FF77C240
:10491000E6FFA60EE66E000EE66EFCEC3FF046E902
:10492000640EE66EE66A70C2E6FF71C2E6FF960E9E
:10493000E66E010EE66EFCEC3FF046E9A1D10050B8
:104940000A0DF3CFE9FFF4CFEAFF960EE926010E38
:10495000EA22080EE926000EEA22EF50800B01E160
:104960008FD100500A0DF3CFE9FFF4CFEAFF960E86
:10497000E926010EEA22080EE926000EEA22EF508F
:10498000200B01E1FBD00001A651005C01E0F6D054
:104990000001A16B0001A151A12BEA6A000FE96E91
:1049A000000EEA22030EEF6E0001D16B0001D18BE5
:1049B0000001D181D1930001D18F00500A0DF3CFB6
:1049C000E9FFF4CFEAFF960EE926010EEA22040E73
:1049D000E926000EEA22E9CFD2F0EACFD3F0A1C057
:1049E000E6FF000EE66E000EE66ED1C0E6FFD2C016
:1049F000E6FFD3C0E6FF75EC29F046E9036A046AD6
:104A0000FF0E035C0F0E045804E2032A000E04227A
:104A1000F7D7026A0A0E025C63E202500A0DF3CF76
:104A2000E9FFF4CFEAFF960EE926010EEA22080E0E
:104A3000E926000EEA22EF50800B41E002500A0DF9
:104A4000F3CFE9FFF4CFEAFF960EE926010EEA2242
:104A5000080EE926000EEA22EF50200B30E002504B
:104A60000001A65D2CE002500A0DF3CFE9FFF4CF60
:104A7000EAFF960EE926010EEA22040EE926000E50
:104A8000EA22E9CFD2F0EACFD3F0A1C0E6FF000ED0
:104A9000E66E000EE66ED1C0E6FFD2C0E6FFD3C0E0
:104AA000E6FF75EC29F046E9036A046AFF0E035C31
:104AB0000F0E045804E2032A000E0422F7D7025016
:104AC0000A0DF3CFE9FFF4CFEAFF960EE926010EB7
:104AD000EA22080EE926000EEA22EF6A022A9AD795
:104AE0000001A6690001A269A3690001A469A56982
:104AF000A40EE66E000EE66EA20EE66E000EE66EE8
:104B00001FEC28F044E90001A793020EE66EE66A66
:104B100074C2E6FF75C2E6FFA20EE66E000EE66EF8
:104B2000FCEC3FF046E9020EE66EE66A6AC2E6FF7A
:104B30006BC2E6FFA40EE66E000EE66EFCEC3FF0E4
:104B400046E9010EE66EE66A76C2E6FF77C2E6FF48
:104B5000A60EE66E000EE66EFCEC3FF046E9640E33
:104B6000E66EE66A70C2E6FF71C2E6FF960EE66E7A
:104B7000010EE66EFCEC3FF046E982D000500A0DD3
:104B8000F3CFE9FFF4CFEAFF960EE926010EEA2201
:104B9000080EE926000EEA22EF50200B71E000011A
:104BA000A651005C6DE00001A16B0001A151A12B99
:104BB000EA6A000FE96E000EEA22030EEF6E0001B2
:104BC000D16B0001D18B0001D181D1930001D18F34
:104BD00000500A0DF3CFE9FFF4CFEAFF960EE92665
:104BE000010EEA22040EE926000EEA22E9CFD2F0F5
:104BF000EACFD3F0A1C0E6FF000EE66E000EE66E2F
:104C0000D1C0E6FFD2C0E6FFD3C0E6FF75EC29F0C5
:104C100046E900500A0DF3CFE9FFF4CFEAFF960E04
:104C2000E926010EEA22080EE926000EEA22EF6AC2
:104C30000A0EE66EE66A00500A0D0201020170518A
:104C4000F3240201806F020102017151F42002017C
:104C5000816F80C2E6FF81C2E6FF00500A0DF3CFEC
:104C600082F2F4CF83F2960E02018227010E020136
:104C7000832382C2E6FF83C2E6FFFCEC3FF046E9F5
:084C800044E9E7CFD9FF12005F
:084C8800D9CFE6FFE1CFD9FF0F
:104C900081E950E8060E016E060E026E060E036EE6
:104CA000050E046E050E056E040E066E040E076EEC
:104CB000040E086E030E096E030E0A6E020E0B6ED2
:104CC000020E0C6E010E0D6E010E0E6E010E0F6EB9
:104CD000010E106E03500201826F836B050E82C2BB
:104CE00080F283C281F2000A06E00201D890803788
:104CF0008137E804FBE180C2F3FF81C2F4FF00D0FA
:104D000051E9E7CFD9FF1200D9CFE6FFE1CFD9FFB4
:104D100083E941E8F050200B01E0010E036EF09AA8
:104D20008B94020101EB80F2816B80C2E6FF33ECD1
:104D300046F041E900EBE6FF33EC46F041E98B84B5
:104D40000350E8B0F08AE8A0F09A42E9E7CFD9FF33
:104D50001200D9CFE6FFE1CFD9FF81E943E88D50BA
:104D6000080B01E0010E016E8B50040B01E0010EF7
:104D7000026EF050200B01E0010E036EF09A8D865A
:104D80008B9447EC46F00F01006F47EC46F00F01A3
:104D9000016F0150E8B08D86E8A08D960250E8B012
:104DA0008B84E8A08B940350E8B0F08AE8A0F09AD6
:104DB00044E9E7CFD9FF1200D9CFE6FFE1CFD9FF11
:104DC00083E952E8030E116E11501106000901E14A
:104DD0002FD1126A0201A96B106A005023E0810EE4
:104DE000E66E820EE66E90DF42E9146A0D6A050EE9
:104DF0000D5C0EE2AEDF0F0101BF142A010EE66E5C
:104E0000E66AE66AE66AD5EC42F044E90D2AEFD795
:104E10001450020807E21050102A040802E2000EA3
:104E20000AD1E3D7F09A010EE66E820EE66E6CDFD1
:104E300042E9B30EE66E800EE66E66DF42E9210EB1
:104E4000E66E820EE66E60DF42E9010EE66EE66A0D
:104E500034EC43F042E9046A136A8B94B80EE66EB0
:104E600033EC46F041E9AA0EE66E33EC46F041E938
:104E70000E6A0F6A020E0124045C5FE282A82FD042
:104E8000030E135C1DE21350020A11E0030A09E04D
:104E9000010A01E012D02D0EE66E33EC46F041E936
:104EA0000DD0D40EE66E33EC46F041E907D001EBAD
:104EB000E6FF33EC46F041E901D000D0132A0CD0D4
:104EC0000450EA6A000FE96E020EEA22EFCFE6FF15
:104ED00033EC46F041E9042A0E6A0F6A2DD00EEB3E
:104EE00080F20FEB81F20E2A000E0F220201805198
:104EF000FE08FF0E815520E28B841250122A1408FE
:104F000001E21BD0810EE66E820EE66EFDDE42E906
:104F1000730EE66E800EE66EF7DE42E9830EE66EF5
:104F2000CA0EE66EF1DE42E9050EE66EE66A34EC84
:104F300043F042E9F08A4ED79DD78B84810EE66E0E
:104F4000820EE66EE1DE42E9730EE66E800EE66EDC
:104F5000DBDE42E9830EE66ECA0EE66ED5DE42E97E
:104F6000F8DEF08A200E0201001500085DE201C2A1
:104F700005FF34EC45F03CCF80F23DCF81F23ECFCF
:104F800082F23FCF83F202018051056E8151066E9D
:104F90008251076E8351086E0201A95103E0010E90
:104FA000036E47D034EC45F03CCF80F23DCF81F228
:104FB0003ECF82F23FCF83F202018051096E8151D0
:104FC0000A6E82510B6E83510C6E09EB84F20AEB70
:104FD00085F20BEB86F20CEB87F2D950050FE96EE8
:104FE000DACFEAFFEE500201845D0201806FEE50DD
:104FF000020185590201816FEE50020186590201BA
:10500000826FEE50020187590201836FD880A10E92
:1050100002018055070E8155000E8255000E835502
:1050200001E201D0B9D703D0010E036E02D0CCD675
:10503000036A035000D053E9E7CFD9FF1200D9CF5C
:10504000E6FFE1CFD9FF85E9000E00D041E9E7CFC7
:10505000D9FF1200D9CFE6FFE1CFD9FF83E9200EB7
:10506000015C02E3000E24D00150690DF3CF82F2FF
:10507000F4CF83F2400E02018227A10E02018323A6
:105080000050020182250201806F000E020183217F
:105090000201816F80C2E6FF81C2E6FF35DE42E990
:1050A000140EE66EE66A34EC43F042E9010E00D0DD
:1050B00041E9E7CFD9FF1200D9CFE6FFE1CFD9FF11
:1050C00082E90050070802E2000E12D000500201EF
:1050D000806F816B100E02018013980E0201811304
:1050E00080C2E6FF81C2E6FF0FDE42E9010E00D07A
:1050F00041E9E7CFD9FF1200D9CFE6FFE1CFD9FFD1
:1051000084E941E800EB02FF01EB03FF02EB04FF3F
:105110008B848D868B9A8B96D6CF06FF0F010769FD
:10512000046A020E045C0DE204504B0DF3CFE9FF5C
:10513000F4CFEAFF000EE926010EEA22EF6A042A04
:10514000F0D7D9CFE9FFDACFEAFFEF50040B26E022
:10515000040EE66EE66A72C2E6FF73C2E6FF300E28
:10516000E66E0F0EE66EBEEC3FF046E9040E0F0150
:105170003127000E0F013223000E0F013323040EDE
:10518000E66EE66A72C2E6FF73C2E6FF300EE66EB6
:105190000F0EE66EFCEC3FF046E919D00F01306BC4
:1051A000316B326B336B040EE66EE66A72C2E6FF59
:1051B00073C2E6FF300EE66E0F0EE66EFCEC3FF0BB
:1051C00046E90F01010E306F316B326B336B046AAD
:1051D000080E045C14E20450F76A0E0FF66E000E1F
:1051E000F7220800F550E66E0450EA6A340FE96EC3
:1051F0000F0EEA22E552E750EF6E042AE9D7810E3E
:10520000E66ECA0EE66E80DD42E9830EE66ECA0ED9
:10521000E66E7ADD42E9330EE66E800EE66E74DDF0
:1052200042E9B70EE66EC40EE66E6EDD42E9D00EC0
:10523000E66EA70EE66E68DD42E9230EE66EC60E48
:10524000E66E62DD42E9010EE66E820EE66E5CDD20
:1052500042E91ADDF3CF80F2F4CF81F2040E0201AD
:105260008013940E0201811380C2E6FF81C2E6FF23
:105270004BDD42E9100EE66E980EE66E45DD42E922
:10528000AC0EE66EC20EE66E3FDD42E9210EE66E22
:10529000820EE66E39DD42E9050EE66EE66A34EC12
:1052A00043F042E9810EE66E820EE66E2DDD42E9A4
:1052B000730EE66E800EE66E27DD42E9810EE66E25
:1052C000CA0EE66E21DD42E9830EE66ECA0EE66E78
:1052D0001BDD42E9000EE66EE66A16DD42E9010ECC
:1052E00000D042E9E7CFD9FF1200D9CFE6FFE1CFE6
:1052F000D9FF87E945E80050280802E2000E86D170
:10530000039CD950030FE96EDACFEAFFEF50030B8D
:10531000010801E1038E03EB00F20F010651062B99
:105320000201016F000EE66EE66A020EE66E000EE6
:10533000E66E020EE66E6CEC45F045E9F350096E40
:10534000F4500A6E020E086ED950030FE96EDACFE0
:10535000EAFFEF50400B1DE0076A0F010251780B86
:10536000E842E842E842075C14E207500424E96E90
:10537000000E0520EA6EEF50E66E0850082AEA6A31
:10538000000FE96E020EEA22E552E750EF6E072A9F
:10539000E4D7D950030FE96EDACFEAFFEF50040BE0
:1053A00016E109EBE6FF0AEBE6FF0F010251780B6D
:1053B000E842E842E842E66E04EBE6FF05EBE6FF72
:1053C0006CEC45F045E9F350096EF4500A6ED95083
:1053D000030FE96EDACFEAFFEF50800B41E0076A76
:1053E0000F010251780BE842E842E842075C15E2FF
:1053F00007500F01EA6A0325E96E0451EA22EF50D3
:10540000E66E0850082AEA6A000FE96E020EEA22E8
:10541000E552E750EF6E072AE3D709EBE6FF0AEB08
:10542000E6FF0F010251780BE842E842E842E66EDF
:105430000F010251780BE842E842E842085C0201A1
:10544000816B000F806F020E812380C2E6FF81C254
:10545000E6FF6CEC45F045E9F350096EF4500A6E36
:10546000D950030FE96EDACFEAFFEF50080B01E1E4
:1054700082D0076A040E075C14E20750EA6A300F14
:10548000E96E0F0EEA22EF50E66E0850082AEA6A2B
:10549000000FE96E020EEA22E552E750EF6E072A8E
:1054A000E9D70F01302B000E3123322333230F01B4
:1054B000305112E1030E0F0131150EE1040EE66EBC
:1054C000E66A72C2E6FF73C2E6FF300EE66E0F0EAA
:1054D000E66EFCEC3FF046E90850082AEA6A000F45
:1054E000E96E020EEA22EF6A88EB0BF0076A0050C1
:1054F000075C14E207500124E96E000E0220EA6EF8
:10550000EF50E66E0850082AEA6A000FE96E020EB4
:10551000EA22E552E750EF6E072AE9D7340EE66E2D
:105520000F0EE66E00EBE6FF0BEBE6FF000EE66EFD
:10553000020EE66E2AEC38F046E9020E082609EB68
:10554000E6FF0AEBE6FF020E0024050FE66E050EED
:105550000B5C0201816B000F806F020E812380C201
:10556000E6FF81C2E6FF6CEC45F045E9F350096EB9
:10557000F4500A6E29D0076A0050075C14E2075005
:105580000124E96E000E0220EA6EEF50E66E08502C
:10559000082AEA6A000FE96E020EEA22E552E75095
:1055A000EF6E072AE9D709EBE6FF0AEBE6FF00EB0F
:1055B000E6FF01EBE6FF02EBE6FF6CEC45F045E9A8
:1055C000F350096EF4500A6E02010AEB80F2816B0F
:1055D0000850082AEA6A000FE96E020EEA2280C229
:1055E000EFFF0850082AEA6A000FE96E020EEA226D
:1055F00009EBEFFF0F010251020B01E0010EE66E15
:1056000008EBE6FFDCEC26F042E900D046E9E7CF04
:10561000D9FF1200D9CFE6FFE1CFD9FF81E94CE8ED
:1056200081A6F084016A050E015C01E378D034ECB8
:1056300045F03CCF80F23DCF81F23ECF82F23FCFAA
:1056400083F202018051026E8151036E8251046E19
:105650008351056E0150080DF3CFE9FFF4CFEAFF47
:10566000080EE9260F0EEA22EF5057E00150080D10
:10567000F3CFE9FFF4CFEAFF080EE9260F0EEA2286
:10568000040EE926000EEA220250EE5C0350EE58AA
:105690000450EE580550EE5840E202EB84F203EB62
:1056A00085F204EB86F205EB87F20150080DF3CF8B
:1056B000E9FFF4CFEAFF080EE9260F0EEA22040EF6
:1056C000E926000EEA22EE500201845D0201806F9D
:1056D000EE50020185590201816FEE500201865998
:1056E0000201826FEE50020187590201836FD88058
:1056F000960E02018055980E8155000E8255000EBF
:1057000083550BE20150080DF3CFE9FFF4CFEAFF18
:10571000080EE9260F0EEA22EF6A012A84D7FF0E4F
:105720000F01075D02E0000EB6D1016A020E015CB6
:1057300001E3AFD101504B0DF3CFE9FFF4CFEAFF06
:10574000000EE926010EEA22EF50010B01E19FD184
:1057500001504B0DF3CFE9FFF4CFEAFF000EE9262D
:10576000010EEA22EE52EFCFD4F001504B0DF3CFF1
:10577000E9FFF4CFEAFF000EE926010EEA224A0E05
:10578000E926000EEA22EFCFD9F0020E066E0001E4
:10579000D4AD07D00F010251780BE842E842E8424D
:1057A00006260001D4AF21D001504B0DF3CFE9FF05
:1057B000F4CFEAFF000EE926010EEA22EE52E9CF0D
:1057C00080F2EACF81F20650020180250001D56FF8
:1057D000000E020181210001D66F0F010251780BEA
:1057E000E842E842E842062603D00001D56BD66BBA
:1057F0000001D4A709D101504B0DF3CFE9FFF4CF3D
:10580000EAFF000EE926010EEA22EE52E9CF80F20D
:10581000EACF81F2040E06240201EA6A8025E96ECD
:105820008151EA22EF500DE001504B0DF3CFE9FF1B
:10583000F4CFEAFF000EE926010EEA22EF6A000E1D
:105840002AD10001D4AF9CD0076A0A0E075C33E26C
:1058500007500A0DF3CFE9FFF4CFEAFF960EE926D1
:10586000010EEA22080EE926000EEA22EF50800B14
:1058700020E0D5C0E6FFD6C0E6FF07500A0DF3CF03
:10588000E9FFF4CFEAFF960EE926010EEA22040EA4
:10589000E926000EEA22E9CF80F2EACF81F280C247
:1058A000E6FF81C2E6FFDEEC19F044E9000901E001
:1058B00002D0072ACAD70A0E075C62E20C6A040EFD
:1058C0000C5C2BE201504B0DF3CFE9FFF4CFEAFF64
:1058D000000EE926010EEA22EE52E9CF82F2EACF6B
:1058E00083F206500C240201EA6A8225E96E835194
:1058F000EA22EF50E66E0201D950080F806FDACF2E
:1059000081F20C500201EA6A8025E96E8151EA2297
:10591000E552E750EF6E0C2AD2D70750040DF3CFB3
:10592000E9FFF4CFEAFF330EE926000EEA22EE503B
:10593000085CEE500958EE500A58EE500B580EE233
:1059400001504B0DF3CFE9FFF4CFEAFF000EE9263B
:10595000010EEA22EF6A000E9ED012D00750040D0D
:10596000F3CFE9FFF4CFEAFF330EE926000EEA2277
:1059700008EBEEFF09EBEEFF0AEBEEFF0BEBEFFFA0
:10598000050E0626340EE66E0F0EE66E01504B0D28
:10599000F3CFE9FFF4CFEAFF000EE926010EEA2279
:1059A0004A0EE926000EEA22EF50D8800654E66E31
:1059B00006EBE6FF01504B0DF3CFE9FFF4CFEAFF12
:1059C000000EE926010EEA22EE52E9CF80F2EACF7C
:1059D00081F280C2E6FF81C2E6FF9DEC38F046E925
:1059E00000090DE101504B0DF3CFE9FFF4CFEAFFC1
:1059F000000EE926010EEA22EF6A000E4CD0020EDC
:105A000006240001D95F03D006500001D95F015080
:105A10004B0DF3CFE9FFF4CFEAFF000EE926010EAC
:105A2000EA22EE52E9CF80F2EACF81F2065002017B
:105A300080250001D76F000E020181210001D86F7F
:105A400001504B0DF3CFE9FFF4CFEAFF000EE9263A
:105A5000010EEA22EF50020B04E00001190EDA6F8A
:105A600002D00001DA6B01504B0DF3CFE9FFF4CF08
:105A7000EAFF000EE926010EEA22EF50040B01E0D6
:105A8000010E0001DB6F01EB07FF010E04D0012ABC
:105A90004DD6000E00D04DE9E7CFD9FF1200020E1F
:105AA0000F01075D0EE20F0107514B0DF3CFE9FF28
:105AB000F4CFEAFF000EE926010EEA22EF6A0F0199
:105AC00007691200D8CFE4FFE0CFE4FFE46EDACF3D
:105AD000E4FFE2CFDAFFE9CFE4FFEACFE4FF3CCF17
:105AE000E4FF3DCFE4FF3ECFE4FF3FCFE4FFF6CF3E
:105AF000E4FFF7CFE4FFF5CFE4FFF3CFE4FFF4CF0B
:105B0000E4FFFACFE4FF02EE80F00E0EE80403E3B8
:105B1000EECFE4FFFBD7E652D9CFE6FFE1CFD9FFC6
:105B200081E950E8F050200B02E12BEF32F0F05009
:105B3000040B02E12BEF32F08B9482A825EF32F0B8
:105B40008B848D9647EC46F0026E036A020E035C6E
:105B500010E203504B0DF3CFE9FFF4CFEAFF000E44
:105B6000E926010EEA22EF50010B01E102D0032ADF
:105B7000EDD7040E025C03E1010E066E01D0066A49
:105B8000490E025C07E2025005E0020E035C30E3BE
:105B900006502EE18D86F094010EE66E820EE66EC2
:105BA00084EC26F042E9810EE66ECA0EE66E84ECC5
:105BB00026F042E9330EE66E800EE66E84EC26F0A7
:105BC00042E9730EE66E800EE66E84EC26F042E942
:105BD000810EE66E820EE66E84EC26F042E9830EBC
:105BE000E66ECA0EE66E84EC26F042E92AEF32F049
:105BF000016A046A056A81A813EF32F0065015E0C5
:105C000047EC46F0E66E0101D950070FFA6FDACF84
:105C1000FBF10150012A0101EA6AFA25E96EFB5104
:105C2000EA22E552E750EF6E1DD047EC46F0E66EF3
:105C300003504B0DF3CFE9FFF4CFEAFF000EE92646
:105C4000010EEA22EE52E9CFFAF1EACFFBF1015060
:105C5000012A0101EA6AFA25E96EFB51EA22E552BE
:105C6000E750EF6E0250015C01E2DAD3A9EC26F0B6
:105C70000F0101AF8FD78D86810EE66ECA0EE66EDC
:105C800084EC26F042E9065001E18DD0030E0714A2
:105C900002083EE109EBFAF1FAC1FBF10101FA6BEE
:105CA0000A500101FA250B6E000EFB210C6E000E4E
:105CB000E66EE66A020EE66ED950070FE66EDACFA0
:105CC000E6FF6CEC45F045E9F3500D6EF4500E6EB6
:105CD0000D500B1802E10E500C1809E0016A830EFA
:105CE000E66ECA0EE66E84EC26F042E953D70F0149
:105CF0000551085C03E10201010EA96F016A830EE0
:105D0000E66ECA0EE66E84EC26F042E9A3D30CD010
:105D1000020E035C09E3016A830EE66ECA0EE66EAC
:105D200084EC26F042E936D703504B0DF3CFE9FF60
:105D3000F4CFEAFF000EE926010EEA22EE5207EB4D
:105D4000EFFF03504B0DF3CFE9FFF4CFEAFF000E56
:105D5000E926010EEA22EE52E92A000EEA2208EBB9
:105D6000EFFF03504B0DF3CFE9FFF4CFEAFF000E36
:105D7000E926010EEA22EE52020EE926000EEA2280
:105D800009EBEFFF03504B0DF3CFE9FFF4CFEAFF30
:105D9000000EE926010EEA22EE52030EE926000E5D
:105DA000EA220AEBEFFF03504B0DF3CFE9FFF4CFEC
:105DB000EAFF000EE926010EEA224A0EE926000E4D
:105DC000EA2202EBEFFF03504B0DF3CFE9FFF4CFD4
:105DD000EAFF000EE926010EEA22EE52E9CFFEF1BB
:105DE000EACFFFF103504B0DF3CFE9FFF4CFEAFF09
:105DF000000EE926010EEA224A0EE926000EEA22EA
:105E0000EF50FE0F0101EA6AFE25E96EFF51EA221A
:105E1000EFCFFCF1FCC1FDF10101FC6B03504B0D18
:105E2000F3CFE9FFF4CFEAFF000EE926010EEA22E4
:105E3000EE52E9CFFAF1EACFFBF103504B0DF3CF6D
:105E4000E9FFF4CFEAFF000EE926010EEA224A0E2E
:105E5000E926000EEA22EF040101EA6AFA25E96E5A
:105E6000FB51EA22EF500101FC250B6E000EFD21D3
:105E70000C6E03504B0DF3CFE9FFF4CFEAFF000E99
:105E8000E926010EEA22EE52EF50040B0EE1035018
:105E90004B0DF3CFE9FFF4CFEAFF000EE926010E28
:105EA000EA22EE52EF50400B2FE0000EE66EE66A5B
:105EB00003504B0DF3CFE9FFF4CFEAFF000EE926C4
:105EC000010EEA224A0EE926000EEA22EF50FE0FEA
:105ED000E66E03504B0DF3CFE9FFF4CFEAFF000E5F
:105EE000E926010EEA22EE52E9CFFAF1EACFFBF100
:105EF000FAC1E6FFFBC1E6FF6CEC45F045E9F35063
:105F00000D6EF4500E6E6AD0000EE66EE66A020E5A
:105F1000E66E03504B0DF3CFE9FFF4CFEAFF000E1E
:105F2000E926010EEA22EE52E9CFFAF1EACFFBF1BF
:105F3000FAC1E6FFFBC1E6FF6CEC45F045E9F35022
:105F40000D6EF4500E6E0DEBE6FF0EEBE6FF0F014B
:105F50000251780BE842E842E842E66E03CFE6FFE2
:105F600004CFE6FF6CEC45F045E9F3500D6EF450BC
:105F70000E6E0DEBE6FF0EEBE6FF03504B0DF3CF7D
:105F8000E9FFF4CFEAFF000EE926010EEA224A0EED
:105F9000E926000EEA22EF50FC0FE66E03504B0D8F
:105FA000F3CFE9FFF4CFEAFF000EE926010EEA2263
:105FB000EE52E9CFFAF1EACFFBF1020E0101FA2726
:105FC000000E0101FB23FAC1E6FFFBC1E6FF6CEC0A
:105FD00045F045E9F3500D6EF4500E6E0D500B1860
:105FE00002E10E500C1818E0016A03504B0DF3CF7C
:105FF000E9FFF4CFEAFF000EE926010EEA224A0E7D
:10600000E926000EEA22EF6A830EE66ECA0EE66EFD
:1060100084EC26F042E9BED503504B0DF3CFE9FFE7
:10602000F4CFEAFF000EE926010EEA22EF840350C6
:106030004B0DF3CFE9FFF4CFEAFF000EE926010E86
:10604000EA220F010F010051010B02E0EF8201D0A3
:10605000EF92106803504B0DF3CFE9FFF4CFEAFF46
:10606000000EE926010EEA22EE52EF50400B47E007
:106070000F6A0F010251780BE842E842E8420F5CD8
:106080003EE203504B0DF3CFE9FFF4CFEAFF000EE1
:10609000E926010EEA22EE52E9CFFBF1EACFFCF14C
:1060A000020E0F240101EA6AFB25E96EFC51EA2287
:1060B000EFCFFAF10F500F01EA6A0325E96E0451A0
:1060C000EA22EF500101FA5D18E0016A03504B0D1E
:1060D000F3CFE9FFF4CFEAFF000EE926010EEA2232
:1060E0004A0EE926000EEA22EF6A830EE66ECA0E19
:1060F000E66E84EC26F042E94DD50F2ABAD703505C
:106100004B0DF3CFE9FFF4CFEAFF000EE926010EB5
:10611000EA22EE52EF50200B01E181D0830EE66EB1
:10612000CA0EE66E84EC26F042E90F6A040E0F5C9C
:106130001AE20F50EA6A000FE96E020EEA22EF50EF
:10614000E66E0101D950070FFA6FDACFFBF10F505D
:106150000101EA6AFA25E96EFB51EA22E552E750AD
:10616000EF6E0F2AE3D70201060E006F03504B0DAE
:10617000F3CFE9FFF4CFEAFF000EE926010EEA2291
:10618000EE52E92A000EEA22EFCF01F2000EE66E8F
:10619000E66A020EE66E000EE66E020EE66E6CEC2D
:1061A00045F045E9F3500D6EF4500E6E01010EEB13
:1061B000FAF1FB6BFAC102F20DEB03F2020EE66E8E
:1061C000E66A34EC43F042E9E66A040EE66EDCEC83
:1061D00026F042E9810EE66ECA0EE66E84EC26F0E9
:1061E00042E90F6A040E0F5C1AE20101D950070F51
:1061F000FA6FDACFFBF10F500101EA6AFA25E96E76
:10620000FB51EA22EF50E66E0F50EA6A000FE96E8A
:10621000020EEA22E552E750EF6E0F2AE3D70F6A2B
:10622000050E0F5C73E20F50080DF3CFE9FFF4CFBA
:10623000EAFF080EE9260F0EEA22EF5054E00F5055
:10624000080DF3CFE9FFF4CFEAFF080EE9260F0EA1
:10625000EA22EE52EFCFFAF103504B0DF3CFE9FFF4
:10626000F4CFEAFF000EE926010EEA22EE52E92AF7
:10627000000EEA22EF500101FA5D35E10F50080DE2
:10628000F3CFE9FFF4CFEAFF080EE9260F0EEA226A
:10629000020EE926000EEA220B50EE1802E10C5025
:1062A000ED1821E134EC45F03CCFFAF13DCFFBF1A4
:1062B0003ECFFCF13FCFFDF10F50080DF3CFE9FFCA
:1062C000F4CFEAFF080EE9260F0EEA22040EE926B3
:1062D000000EEA22FAC1EEFFFBC1EEFFFCC1EEFFA9
:1062E000FDC1EEFF13D0FF0E105C0EE10F50080D44
:1062F000F3CFE9FFF4CFEAFF080EE9260F0EEA22FA
:10630000EF5002E18FEB10F00F2A8AD7050E0F5CD9
:1063100001E27ED0050E105C5CE21050080DF3CF58
:10632000E9FFF4CFEAFF080EE9260F0EEA22010E7C
:10633000EF6E03504B0DF3CFE9FFF4CFEAFF000EF1
:10634000E926010EEA22EE52E92A000EEA22EF5077
:10635000E66E1050080DF3CFE9FFF4CFEAFF080E08
:10636000E9260F0EEA22EE52E552E750EF6E10508A
:10637000080DF3CFE9FFF4CFEAFF080EE9260F0E70
:10638000EA22020EE926000EEA220BEBEEFF0CEBEE
:10639000EDFF34EC45F03CCFFAF13DCFFBF13ECFC1
:1063A000FCF13FCFFDF11050080DF3CFE9FFF4CF22
:1063B000EAFF080EE9260F0EEA22040EE926000E77
:1063C000EA22FAC1EEFFFBC1EEFFFCC1EEFFFDC108
:1063D000EEFF0101020EFA6F03504B0DF3CFE9FF00
:1063E000F4CFEAFF000EE926010EEA224A0EE92662
:1063F000000EEA220101FA51EF5E03504B0DF3CF7C
:10640000E9FFF4CFEAFF000EE926010EEA22EF8051
:10641000830EE66ECA0EE66E84EC26F042E91AD0D0
:10642000046A056A0FD004EBFAF105EBFBF1042ACC
:10643000000E05220101FA51FE08FF0EFB5502E293
:10644000CAEF2DF0FBEF2DF005D047EC46F00F0121
:10645000006F8B84F094F2A40AD0F2AA08D0F294D0
:106460000201A52B0201A55102E10201A62B03ECBA
:1064700042F051E9E7CFD9FFE55202EE8DF00E0E62
:10648000E80403E3E5CFEDFFFBD7E5CFFAFFE5CF67
:10649000F4FFE5CFF3FFE5CFF5FFE5CFF7FFE5CF5D
:1064A000F6FFE5CF3FFFE5CF3EFFE5CF3DFFE5CF70
:1064B0003CFFE5CFEAFFE5CFE9FFE5CFDAFFE550A6
:0A64C000E5CFE0FFE5CFD8FF1000A4
:0664CA0090DB86E90150A1
:1064D000010600090CE002EBE6FF03EBE6FF00EB30
:1064E000E6FF69DBF4E1811DF2E1010E01D0000E4F
:1064F00041E9E5CFDAFFE7CFD9FF120077DB89E981
:106500007BE80A6A0B6A02EBF6FF03EBF7FF04EB8A
:10651000F8FF0800F550096E095001E12DD3250E52
:10652000095C01E01BD30C6A0D6A0E6A0F6A106ADF
:106530002DDB2D0E095C0CE02B0E095C09E0200E12
:10654000095C06E0230E095C03E0300E095C15E1EE
:106550000950300A10E0130A0CE0030A08E00B0AA5
:1065600004E0060AE5E10C80E3D70C82E1D70C8455
:10657000DFD70C86DDD70C88DBD72A0E095C13E148
:10658000A5DB0DE30C801CEB80F21DEB81F2020118
:10659000806D811F000E812380510D6E02D09CEB17
:1065A0000DF0F4DA07D0126A3FDB02E06BDBFCD7B8
:1065B00092EB0DF00CB00C982E0E095C15E1E6DAAA
:1065C0002A0E095C08E182DB04E29CEB0EF0010E6E
:1065D0000F6EDCDA09D0126A27DB02E053DBFCD74E
:1065E00092EB0EF0010E0F6E680E095C07E1CEDA39
:1065F000680E095C1DE1030E106E19D0740E095C63
:1066000016E07A0E095C13E0480E095C06E0540EB1
:10661000095C03E05A0E095C02E1020E07D06C0E21
:10662000095C03E06A0E095C03E1010E106EAEDA4C
:1066300009506E0A01E16ED21E0A01E128D1200A3A
:1066400001E125D13F0A01E1FDD01A0A01E1FAD0AA
:106650000D0A01E1F7D0200A01E1F4D03A0A01E184
:10666000F1D0200A01E1EED0260A01E1EAD00D0ABC
:1066700001E1E7D01A0A01E19ED0200A3BE0300A8E
:106680001AE0460A0EE0250A01E072D2D950020F44
:10669000E96E000EDA20EA6E010EEE5E000EEE5A92
:1066A000EE5A0FDB250EE66E86DA03E1811D01E16D
:1066B00059D20A2A5BD2116A0D50010803E20D0477
:1066C000116EF5DA115007E0010E0C1404E16DDAD9
:1066D00001E048D2116AD3DAEF50096ECBDA03E158
:1066E000811D01E13FD20A2A000E0B225EDA01E190
:1066F0003FD238D2020E105C08E1030E4EDAEE50A3
:10670000176EEE50186EEF5007D0E7DA826B8051AB
:10671000176E8151186E8251196E17EBE6FF18EB58
:10672000E6FF19EBE6FF04EC45F043E93CCF80F2CD
:106730003DCF81F23ECF82F2020180511C6E815129
:106740001D6E0F5006E01C500E5C03E20E501C6ED6
:106750001D6A1C500D5C02E29CEB0DF050DA05E066
:106760000D500E5C02E28EEB0DF00CB004D01DDA81
:1067700001E0F8D1116A126A17EBF6FF18EBF7FF88
:1067800019EBF8FF0800F550096E095010E00D50A4
:10679000125C0DE26FDA03E1811D01E1E3D10A2A07
:1067A000000E0B22122AD950170F55DAEBD7FDD95C
:1067B00001E1DED1D7D163DAEE501A6EED501B6ED7
:1067C0001AEBE6FF1BEBE6FFF6EC44F042E9F35070
:1067D0001C6EF4501D6E0F5006E01C500E5C03E260
:1067E0000E501C6E1D6A1C500D5C02E29CEB0DF0FD
:1067F00006DA05E00D500E5C02E28EEB0DF00CB0F7
:1068000004D0D3D901E0AED1116A126A1AEBE9FFC4
:106810001BEBEAFFEF50096E09500FE00D50125CC0
:106820000CE228DA03E1811D01E19CD10A2A000E65
:106830000B22122A1A2A1B22E9D7B7D901E198D1D3
:1068400091D10C8E10040AE1040EA7D9EE50136EFC
:10685000EE50146EEE50156EEF5032D0030E105CF9
:1068600016E10CAE0CD00BDAEFCF80F20201816B97
:10687000826B836B80AF23D0816982691FD0FFD97F
:10688000EFCF80F202018051136E146A20D0020E05
:10689000105C0CE10CAE06D0030E7FD9B6D982AFE6
:1068A0000ED00CD0030E79D9B0D909D00CAE0AD0D5
:1068B00014DA826B836B81AF02D082698369BCD9A1
:1068C000166E07D00ADA8051136E8151146E156A64
:1068D000166A0F5002E1010E0E6E1E6A1F6AD95031
:1068E000400FE66E000EDA20E66EE552E550436E8C
:1068F000E750426E416A116A0A0E106E0950780A1A
:1069000012E0200A10E0280A0CE0200A0AE03F0A00
:1069100006E00D0A02E0200A08E1020E05D0080E8A
:1069200003D0080E0926100E106E0CBE02D00C9279
:106930000C94800E0C1417E0163415E3E668E66834
:10694000E668E66842D932EC42F0E552E5CF83F2E0
:10695000E5CF82F2E5CF81F2E7CF80F202016CD978
:10696000166E2D0E07D00CA202D02B0E03D00CA455
:1069700004D0200E206E1E2A01D0206A0E5005E1A0
:10698000135014101510161061E00201140E806FE0
:106990008D0E816F000E826F83D992EC42F0E5522A
:1069A000E5CF86F2E5CF85F2E5CF84F2E7CF83F23B
:1069B000020180518325F36E81518421F46E82514E
:1069C0008521F86EF4CFF7FFF3CFF6FF0800F550FE
:1069D000126E580E095C05E1610E125C02E3200E96
:1069E000125E5ED98FEC42F0E552E550166EE5502E
:1069F000156EE550146EE750136E42EBE9FF43EB62
:106A0000EAFF4206000E435A12EBEFFF1E2A135014
:106A1000141015101610B9E10CA619D06F0E095CF0
:106A200006E10E501E5C13E31E280E6E10D0780E89
:106A3000095C09E0580E095C06E0620E095C03E09F
:106A4000420E095C04E1020E1F6E01D01E6A100E98
:106A50000C1407E00D500E5C04E20F5002E18DEBC8
:106A60000EF00E501E5C03E21E500E5E01D00E6A48
:106A70000E501E241F24D8800D5407E20E500D5CCA
:106A8000D8801E54D8801F54116E010E0C1406E1DC
:106A9000115004E08AD866E10AD9116A205007E053
:106AA00010D920EBE6FF87D802E1811D5BE01F5083
:106AB0000BE007D9300EE66E7ED802E1811D52E070
:106AC000D9D802E1811D4EE00E501F5C02E21F503A
:106AD0000E5E300EE66E0EEBE6FFDCD843E1422A96
:106AE000000E432242EBE9FF43EBEAFFEF50126E48
:106AF000125008E0E6D812EBE6FF5DD8F0E1811D08
:106B0000EEE130D052D82EE10E501E2411241F2465
:106B10000A262CD01050030A1CE0010A14E0030AD4
:106B200007E0ADD8C9D80AEBEEFF0BEBEDFF20D0A4
:106B30008BD8836B81AF02D082698369A0D84ED88D
:106B400083C2EEFF15D080D881BF826998D846D81D
:106B50000FD095D8B1D80AEBEFFF0AD08BD805E15A
:106B6000811D03E1F368F4680BD00A2A000E0B22A2
:106B7000D950020F70D8CDD40AEBF3FF0BEBF4FF22
:106B80007CE9E5CFDAFFE7CFD9FF1200D950020F39
:106B900062D80800F550096E1200005E000E015A1E
:106BA00000EBE9FF01EBEAFF1200200EE66E11EBAD
:106BB000E6FF4AEF36F0E2EC45F043E9F3CF80F22E
:106BC000F4CF81F20201F31C120013EBE6FF14EB89
:106BD000E6FF15EBE6FF16EBE6FF12006DD880C26C
:106BE000EEFF81C2EEFF82C2EEFF1200D9CFE6FFB8
:106BF000DACFE6FFE1CFD9FFE2CFDAFF12001C5077
:106C00000D5C116E54D80F501200EECF80F2EECF13
:106C100081F2EFCF82F20201836B1200EECF80F29D
:106C2000EFCF81F2020112000950E66EE66A4DECE8
:106C300046F042E9F35012008051136E8151146EF8
:106C40008251156E835112000AEB80F20BEB81F238
:106C50000201826B1200E96E000EDA20EA6EEF2A62
:106C6000EECFF6FF000EEF22EECFF7FFEF22EECFD2
:106C7000F8FF120026D809EBE6FFDBEF35F0020E35
:106C8000CDEF35F00A0E1202F3500924D00F126E28
:106C9000C6EF35F016D865EC32F044E90009120071
:106CA00010EBE6FFE66AE66AE66AE5EF35F01150BA
:106CB0000A26000E0B221200EE50EFCFEAFFE96E1B
:106CC000120005EBE6FF06EBE6FF1200D8DFEE5000
:106CD0001C6EED501D6E1D341200D1DF0EEF36F02C
:106CE000D9CFE6FFE1CFD9FF85E949E802EBE9FF1B
:106CF00003EBEAFFEE50056EED50066E020E022425
:106D0000E96E000E0320EA6EEE50076EED50086E3D
:106D1000096A0A6A370E0B6E9E0E0C6E0D6A200E03
:106D20000D5C01E3C1D002010838F00B876F073812
:106D30000F0B87130738F00B866F020107EB88F201
:106D400008EB89F2050ED89089338833E804FBE11B
:106D5000020102018651020188190201846F0201B9
:106D600002018751020189190201856F0750020152
:106D700084250201826F0850020185210201836F80
:106D8000030E020109148C6F8D6B010E0201D89065
:106D90008C378D37E806FBE102018C510024E96E47
:106DA0008D510120EA6E0201EE5009248A6FED50E8
:106DB0000A208B6F02010201825102018A1902012D
:106DC000806F02010201835102018B190201816F60
:106DD000020180510526815106220B5009260C50D4
:106DE0000A2202010638F00B876F05380F0B871354
:106DF0000538F00B866F020105EB88F206EB89F28D
:106E0000050ED89089338833E804FBE102010201C2
:106E10008651020188190201846F02010201875123
:106E2000020189190201856F0550020184250201C2
:106E3000826F0650020185210201836F02010A3828
:106E4000E8441F0B8C6F8D6B030E02018C17000E34
:106E500002018D17010E0201D8908C378D37E8069C
:106E6000FBE102018C510024E96E8D510120EA6E94
:106E70000201EE5009248A6FED500A208B6F020147
:106E80000201825102018A190201806F020102018E
:106E9000835102018B190201816F02018051072683
:106EA000815108220D2A3BD702EBE9FF03EBEAFFF1
:106EB00005EBEEFF06EBEDFF020E0224E96E000E7D
:106EC0000320EA6E07EBEEFF08EBEDFF4AE9E7CFA0
:106ED000D9FF1200D9CFE6FFE1CFD9FF88E944E816
:106EE0000450FC0BE842E842010F086EF250800BA0
:106EF00001E0010E0B6EF29E096A0850095C47E240
:106F00000A6A030E0A5C13E20A500024E96E000EBE
:106F10000120EA6EEF50E66E0A50EA6AA10FE96EB0
:106F2000020EEA22E552E750EF6E0A2AEAD709EB91
:106F3000A4F202EBE6FF03EBE6FFA10EE66E020E03
:106F4000E66ECEDE44E90A6A040E0A5C1EE2040E16
:106F50000902F3500A24D880045401E316D00A50E1
:106F6000EA6AA10FE96E020EEA22EFCF80F2040E68
:106F70000902F3500A240524E96E000E0620EA6E89
:106F800002018051EF1A0A2ADFD7092AB6D70B501F
:106F9000E8B0F28EE8A0F29E45E9E7CFD9FF1200F3
:106FA000D9CFE6FFE1CFD9FF88E944E80450FC0BD4
:106FB000E842E842010F086EF250800B01E0010E3A
:106FC0000B6EF29E096A040E095C09E20950002466
:106FD000E96E000E0120EA6EEF6A092AF4D7096A09
:106FE0000850095C2EE20A6A040E0A5C1EE2040ED6
:106FF0000902F3500A24D880045401E316D0040E89
:107000000902F3500A240524E96E000E0620EA6EF8
:10701000EFCF80F20A500024E96E000E0120EA6EE4
:1070200002018051EF1A0A2ADFD702EBE6FF03EBD9
:10703000E6FF00EBE6FF01EBE6FF52DE44E9092A3A
:10704000CFD70B50E8B0F28EE8A0F29E45E9E7CF2B
:10705000D9FF1200D9CFE6FFE1CFD9FF87E942E897
:10706000F250800B01E0010E086EF29EA10EE66E5A
:10707000020EE66E00EBE6FF01EBE6FF0350022492
:10708000E66E04EBE6FF05EBE6FF8ADF47E9076AF9
:10709000040E075C15E20750EA6AA10FE96E020EC2
:1070A000EA22EF50E66E0350022407240424E96E1E
:1070B000000E0520EA6EE552E750EF6E072AE8D78A
:1070C000076A030E075C18E20350075C08E20750EA
:1070D0000424E96E000E0520EA6EEF5001D0000E88
:1070E000E66E0750EA6AA10FE96E020EEA22E55247
:1070F000E750EF6E072AE5D7A10EE66E020EE66EA8
:1071000000EBE6FF01EBE6FF040E0224E66E0350FF
:1071100002010424806F000E0520816F80C2E6FF0B
:1071200081C2E6FFD7DE47E90850E8B0F28EE8A05A
:10713000F29E43E9E7CFD9FF1200D9CFE6FFE1CFB6
:10714000D9FF87E942E8F250800B01E0010E086E9A
:10715000F29E076A030E075C18E20350075C08E220
:1071600007500424E96E000E0520EA6EEF5001D0AE
:10717000000EE66E0750EA6AA10FE96E020EEA22DF
:10718000E552E750EF6E072AE5D7A10EE66E020E34
:10719000E66E00EBE6FF01EBE6FF02EBE6FF0350D5
:1071A00002010424806F000E0520816F80C2E6FF7B
:1071B00081C2E6FF8FDE47E9A10EE66E020EE66EA3
:1071C00000EBE6FF01EBE6FF03500224FE0FE66E44
:1071D00004EBE6FF05EBE6FFE3DE47E9076A020E94
:1071E000075C1EE20750EA6AA10FE96E020EEA226E
:1071F000EFCF80F203500224FE0F07240424E96E2F
:10720000000E0520EA6EEF500201805D07E0085095
:10721000E8B0F28EE8A0F29E000E09D0072ADFD770
:107220000850E8B0F28EE8A0F29E010E00D043E9CB
:06723000E7CFD9FF1200B8
:0A7236005258204D657373616765BF
:10724000733A20253364005458204D657373616789
:1072500065733A202533640020556E696361737449
:10726000204661696C6564000D0A556E696361733F
:1072700074204661696C65640D0A003A200020663E
:10728000726F6D2000556E69636173742050616385
:107290006B6574207769746820525353492000420B
:1072A000726F616463617374205061636B657420F5
:1072B000776974682052535349200053656375728F
:1072C000656420005242303A2042726F616463610B
:1072D000737420205241353A20556E69636173748E
:1072E0000020436F6E6E656374656420506565723F
:1072F00020206F6E204368616E6E656C20256400EF
:10730000436F6E6E656374696E67205065657220A9
:10731000206F6E204368616E6E656C2025642000CE
:10732000206973206E6F7420737570706F7274654E
:107330006420696E2063757272656E7420636F6E6F
:10734000646974696F6E2E0D0A000D0A53656C65D1
:107350006374696F6E206F66206368616E6E656C22
:1073600020000D0A0D0A000D0A20202020202020D8
:107370002020202020202020202020202020626586
:1073800020746F67676C65642075706F6E2072651E
:1073900063656976696E67206D6573736167657390
:1073A0002E20000D0A202020202020202020202018
:1073B000202020202020202020203220746F2075C3
:1073C0006E696361737420656E637279707465644D
:1073D000206D6573736167652E204C454420322013
:1073E00077696C6C000D0A202020202020202020AE
:1073F000202020202020202020202020427574746E
:107400006F6E203120746F2062726F6164636173EC
:1074100074206D6573736167652E205075736820E5
:10742000427574746F6E000D0A20202020202020E9
:107430002020202020202020202020202020746FA9
:1074400020696E64696361746520636F6E6E656345
:1074500074696E67207769746820706565722E2084
:1074600050757368000D0A20202020202020202045
:10747000202020202020202020202020506F7765F1
:1074800072206F6E2074686520626F61726420756F
:107490006E74696C204C45442031206C69676874B7
:1074A00073207570000D0A20202044656D6F2049FF
:1074B0006E737472756374696F6E3A000D0A2020E2
:1074C0002020205246205472616E73636569766590
:1074D000723A204D524634395841000D0A2020207E
:1074E00020202020202020202020204C4544203215
:1074F0003A204437000D0A20202020202020202080
:1075000020202020204C454420313A204438000DD2
:107510000A20202020202020202020202020202081
:1075200020202020202055534220706F7274000DBF
:107530000A20202020202020202020202020202061
:10754000202020202020525332333220706F72745A
:10755000000D0A4F757470757420436F6E6669670D
:1075600075726174696F6E3A000D0A202020202028
:10757000202020202020427574746F6E20323A2023
:10758000524135000D0A20202020202020202020DC
:1075900020427574746F6E20313A20524230000DD3
:1075A0000A496E70757420436F6E66696775726103
:1075B00074696F6E3A000D0A5374617274696E6774
:1075C000204E6F64652031206F662053696D706CAA
:1075D000652044656D6F20666F72204D695769287C
:1075E000544D2920537461636B202E2E2E00536955
:1075F0006D706C65204D6957692044656D6F204D35
:10760000524634395841204E6F64652031000D0ACE
:107610005363616E204368616E6E656C2000536831
:107620006F7274416464723A002050414E49443A8A
:10763000004368616E6E656C3A000D0A526F757496
:10764000696E67205461626C650D0A636F6F7264C6
:10765000206E657874486F700D0A000D0A4B6E6FCE
:10766000776E20436F6F7264696E61746F72733AE4
:1076700020002020000D0A417661696C61626C6512
:10768000206E6F6465730D0A48616E646C652052EC
:10769000582044432050414E494420414444522004
:1076A0004C4F4E475F414444522020202020202050
:1076B00020504545525F494E464F0D0A0020204359
:1076C00068616E6E656C3A2000202050414E49443E
:1076D0003A2000202053686F727420416464723A2B
:1076E00020000D0A0D0A416464726573733A2030FC
:1076F000780073656E64696E67206F7574207365BA
:10770000636F6E6420726573706F6E73650D0A002F
:107710000D0A4A6F696E20746865206E6574776F14
:10772000726B207375636365737366756C6C790D2A
:107730000A004920616D20616E20656E64206465D9
:10774000766963650D0A004920616D206120636FD1
:107750006F7264696E61746F720D0A0073656E6496
:10776000696E67206F757420726573706F6E7365D4
:037770000D0A00FF
:017773000015
:0C777400D9CFE6FFE1CFD9FF81E946E85C
:10778000026A036A046A056A0DEC41F092EC43F068
:10779000010EE66EE66AEE0EE66E750EE66E62ECC1
:1077A00041F044E9B60EE66E750EE66E9BEC43F0D2
:1077B00042E99F0EE66E750EE66E9BEC43F042E9E1
:1077C000840EE66E750EE66E9BEC43F042E9690EA0
:1077D000E66E750EE66E9BEC43F042E9510EE66EE6
:1077E000750EE66E9BEC43F042E92F0EE66E750EC9
:1077F000E66E9BEC43F042E90F0EE66E750EE66E08
:107800009BEC43F042E9F50EE66E740EE66E9BECDF
:1078100043F042E9DB0EE66E740EE66E9BEC43F03D
:1078200042E9BC0EE66E740EE66E9BEC43F042E954
:10783000A50EE66E740EE66E9BEC43F042E9650E13
:10784000E66E740EE66E9BEC43F042E9270EE66EA0
:10785000740EE66E9BEC43F042E9E50EE66E730EA5
:10786000E66E9BEC43F042E9A30EE66E730EE66E05
:107870009BEC43F042E9670EE66E730EE66E9BECFE
:1078800043F042E9620EE66E730EE66E9BEC43F047
:1078900042E98C9E8C9CE66A04EC1AF041E9A8C28D
:1078A000E6FF10EC1CF041E9000914E14A0EE66E17
:1078B000730EE66E9BEC43F042E9A8C2E6FFF4ECDF
:1078C00043F041E9200EE66E730EE66E9BEC43F04A
:1078D00042E9A0D1E66A35EC1CF041E9010EE66E02
:1078E000A8C2E6FF000EE66E730EE66E62EC41F093
:1078F00044E9E66AE66853EC1DF042E9016EFF0ECA
:10790000015C0CE0010EE66EA8C2E6FFE10EE66E39
:10791000720EE66E62EC41F044E90AD0E66AE66A6D
:10792000E66AE66A0A0EE66EE66A56EC23F046E977
:10793000E66863EC12F041E98C8EE66AE66AC40EF2
:10794000E66E720EE66E62EC41F044E9B9EC1FF0AF
:10795000000901E180D0000161A707D0BB0EE66EEF
:10796000720EE66E9BEC43F042E900016151030B9D
:10797000000908E09F0EE66E720EE66E9BEC43F087
:1079800042E907D0850EE66E720EE66E9BEC43F080
:1079900042E969C0E6FFCAEC43F041E9000161AD8C
:1079A00034D07E0EE66E720EE66E9BEC43F042E93A
:1079B000000161AF16D0010E0001EA6A6425E96E8C
:1079C0006551EA22EFCFE6FFCAEC43F041E964C01B
:1079D000E9FF65C0EAFFEFCFE6FFCAEC43F041E9FB
:1079E00014D0016A040E015C10E2030ED880015429
:1079F0000001EA6A6425E96E6551EA22EFCFE6FFED
:107A0000CAEC43F041E9012AEDD77B0EE66E720E17
:107A1000E66E9BEC43F042E9016A00016851015CAB
:107A20000EE201500001EA6A6625E96E6751EA221A
:107A3000EFCFE6FFB6EC43F041E9012AEED78C7CAC
:107A4000C2EC1FF0052A05EBE6FF04EBE6FF37EC7E
:107A500041F042E9DED08DEC41F0066E0650020A9C
:107A600062E0030A01E0D4D000010B0EA16F060E04
:107A7000E66E02EBE6FF13EC42F041E9E750000945
:107A800015E10001A151A12BEA6A000FE96E000E79
:107A9000EA220D0EEF6E0001A151A12BEA6A000F40
:107AA000E96E000EEA220A0EEF6E2FD0016A150E63
:107AB000015C2BE2060EE66E02EBE6FF13EC42F0F1
:107AC00041E9E750FF0F150DF3CF80F2F4CF81F2BB
:107AD0007A0E02018027880E0201812301500201E3
:107AE000F76A8025F66E8151F7220800F550E66EA0
:107AF0000001A151A12BEA6A000FE96E000EEA22F3
:107B0000E552E750EF6E012AD2D7022AE66AC7ECA7
:107B10001FF041E905EBE6FF042A04EBE6FF37EC32
:107B200041F042E976D000010B0EA16F060EE66E21
:107B300003EBE6FF13EC42F041E9E750000915E1E1
:107B40000001A151A12BEA6A000FE96E000EEA22A2
:107B50000D0EEF6E0001A151A12BEA6A000FE96E34
:107B6000000EEA220A0EEF6E2FD0016A0B0E015CA6
:107B70002BE2060EE66E03EBE6FF13EC42F041E962
:107B8000E750FF0F0B0DF3CF80F2F4CF81F2E30E3D
:107B900002018027880E0201812301500201F76A49
:107BA0008025F66E8151F7220800F550E66E00013F
:107BB000A151A12BEA6A000FE96E000EEA22E552FC
:107BC000E750EF6E012AD2D7032A010EE66EE66A6D
:107BD00003EC20F042E9000912E1680EE66E720E35
:107BE000E66E9BEC43F042E9010EE66EE66A580E43
:107BF000E66E720EE66E62EC41F044E901D0042AB2
:107C000005EBE6FF04EBE6FF37EC41F042E901D07B
:0C7C100000D09CD647E9E7CFD9FF120056
:047C1C00949A94960C
:107C20009E961200D9CFE6FFE1CFD9FF81E941E866
:107C3000F050200B01E0010E016EF09A8994400E85
:107C4000E66E33EC46F041E9E66A33EC46F041E992
:107C5000E66A33EC46F041E989840150E8B0F08AE5
:107C6000E8A0F09A42E9E7CFD9FF1200D9CFE6FFAA
:107C7000E1CFD9FF81E941E8F050200B01E0010E8E
:107C8000016EF09A8994400EE66E33EC46F041E9BD
:107C9000010EE66E33EC46F041E9E66A33EC46F05D
:107CA00041E989840150E8B0F08AE8A0F09A42E9FD
:107CB000E7CFD9FF1200D9CFE6FFE1CFD9FF82E9A4
:107CC00041E8F050200B01E0010E026EF09A899419
:107CD000400EE66E33EC46F041E9120EE66E33ECF0
:107CE00046F041E900EBE6FF33EC46F041E98984D8
:107CF0000250E8B0F08AE8A0F09A42E9E7CFD9FF55
:107D00001200D9CFE6FFE1CFD9FF82E941E8F05078
:107D1000200B01E0010E026EF09A8994400EE66E8F
:107D200033EC46F041E9130EE66E33EC46F041E9E0
:107D300000EBE6FF33EC46F041E989840250E8B0FD
:107D4000F08AE8A0F09A42E9E7CFD9FF1200D9CF34
:107D5000E6FFE1CFD9FF82E9E66AADDF41E900EB5A
:107D6000E6FFCFDF41E9000000000000400EE66EB4
:107D7000A2DF41E900000000000000000000000058
:107D8000000000000000E66A96DF41E941E9E7CF24
:107D9000D9FF1200D9CFE6FFE1CFD9FF82E9E66A29
:107DA0008ADF41E9010EE66EE66A34EC43F042E90F
:107DB00000EBE6FFA6DF41E9000000000000000044
:107DC000400EE66E78DF41E9000000000000000090
:107DD00000000000E66A6FDF41E900D041E9E7CF2B
:107DE000D9FF1200D9CFE6FFE1CFD9FF82E9010E1A
:107DF000E66EE66A34EC43F042E9800EE66E5BDF45
:107E000041E900EBE6FF7DDF41E9000000000000F2
:107E10000000C00EE66E4FDF41E9000000000000E8
:107E2000000000000000E66A46DF41E941E9E7CFD3
:107E3000D9FF1200929489840A0EE66EE66A34EC49
:107E400043F042E9979C8E9C0A0EE66EE66A34EC9B
:107E500043F042E98E8CE2DEE5DE08DFE66A2BDFE6
:107E600041E90A0EE66EE66A34EC43F042E93C0E64
:107E7000E66E6DDF41E90A0EE66EE66A34EC43F029
:107E800042E90C0EE66E63DF41E90A0EE66EE66A31
:107E900034EC43F042E9010EE66E59DF41E90A0E87
:107EA000E66EE66A34EC43F042E90C0EE66E4FDF14
:107EB00041E91200D9CFE6FFE1CFD9FF81E941E8DE
:107EC000800EE66E67DF41E9016A100E015C19E27F
:107ED0000150EA6A490FE96E020EEA22EF5005E10D
:107EE000200EE66E7FDF41E90AD00150EA6A490FB1
:107EF000E96E020EEA22EFCFE6FF74DF41E9012AC4
:107F0000E4D7C00EE66E46DF41E9100E016E200E8A
:107F1000015C19E20150EA6A490FE96E020EEA2299
:107F2000EF5005E1200EE66E5DDF41E90AD0015019
:107F3000EA6A490FE96E020EEA22EFCFE6FF52DF4E
:107F400041E9012AE4D742E9E7CFD9FF1200010E47
:107F5000E66EFDDE41E9020EE66EE66A34EC43F0C1
:107F600042E9200EE66EE66A200EE66E490EE66EE7
:0C7F7000020EE66EDCEC44F045E9120065
:047F7C00D9CFE6FF74
:107F8000E1CFD9FF87E941E8F250800B01E0010E13
:107F9000076EF29E8996030EE66E33EC46F041E9D9
:107FA000020103EB80F2816B80C2E6FF33EC46F006
:107FB00041E902EBE6FF33EC46F041E900500110E5
:107FC00011E047EC46F0E66E04EBE9FF05EBEAFF53
:107FD000042A000E0522E552E750EF6E0006000E5F
:107FE000015AECD789860750E8B0F28EE8A0F29EDD
:107FF00042E9E7CFD9FF1200D9CFE6FFE1CFD9FFA1
:1080000087E942E8076AF250800B01E0010E086E32
:10801000F29E8996050EE66E33EC46F041E947EC98
:1080200046F0076E898622EC00F007B0F2D78996F9
:10803000060EE66E33EC46F041E9898622EC00F04C
:108040008996020EE66E33EC46F041E9020103EB3D
:1080500080F2816B80C2E6FF33EC46F041E902EB2F
:10806000E6FF33EC46F041E9076A0050011022E0D8
:1080700004EBE9FF05EBEAFF042A000E0522EFCF2F
:10808000E6FF33EC46F041E90006000E015A072AEC
:10809000075002010224806F000E0320816F02014D
:1080A00080513F0B06E1898607500226000E03220D
:1080B000B0D7DBD789860850E8B0F28EE8A0F29EF0
:1080C00043E9E7CFD9FF1200D9CFE6FFE1CFD9FFCF
:1080D00085E97E0EE96E020EEA6E0201EE50022480
:1080E000806FED500320816F0201826B02018235A7
:1080F000000E821907E6D880000E8055800E81554B
:10810000000E825502E2000E0FD000EBE9FF01EBFA
:10811000EAFF7EC2EEFF7FC2EDFF020102507E2722
:1081200003507F23010E00D041E9E7CFD9FF1200B1
:10813000D9CFE6FFE1CFD9FF81E941E8010E016E19
:1081400002017E6B7F6B6A0EE66E020EE66E020E19
:10815000E66EE66AB9DF44E901166C0EE66E020EC1
:10816000E66E010EE66EE66AAFDF44E901166E0EBA
:10817000E66E020EE66E010EE66EE66AA5DF44E9E3
:108180000116700EE66E020EE66E640EE66EE66A8C
:108190009BDF44E90116720EE66E020EE66E040ED7
:1081A000E66EE66A91DF44E90116740EE66E020E91
:1081B000E66E020EE66EE66A87DF44E90116760E89
:1081C000E66E020EE66E010EE66EE66A7DDF44E9BB
:1081D0000116780EE66E020EE66E080EE66EE66A90
:1081E00073DF44E901167A0EE66E020EE66E010EAA
:1081F000E66EE66A69DF44E901167C0EE66E020E61
:10820000E66E010EE66EE66A5FDF44E90116015094
:0A82100000D042E9E7CFD9FF1200C9
:06821A00700ED36EC08857
:10822000DF0EC16EC268C098926893689468956AC0
:10823000896A8A6A8B6A8C6A9380928A959E959CD9
:1082400094948B84939A8A8A93869488949A949629
:10825000C00EC76E210EC66E969693888D86F196D7
:1082600092968986F28EF0941AEC3FF01200D9CFE4
:10827000E6FFE1CFD9FF83E9A7EC3FF00150E66EBE
:10828000E66A470EE66E720EE66EE66A490EE66E26
:10829000020EE66EA9EC45F047E90050E66EE66A8C
:1082A000360EE66E720EE66EE66A590EE66E020E47
:1082B000E66EA9EC45F047E95AEC3FF041E9E7CF1B
:1082C000D9FF1200D9CFE6FFE1CFD9FF85E941E818
:1082D000A7EC3FF00150E66EE66A02EBE6FF03EB27
:1082E000E6FFE66A490EE66E020EE66EA9EC45F080
:1082F00047E95AEC3FF000500CE0056A080E055CB7
:1083000008E2FA0EE66EE66A34EC43F042E9052A2A
:10831000F5D742E9E7CFD9FF1200D9CFE6FFE1CF89
:10832000D9FF81E948E881B013D000015B510FE12A
:108330000001010E5B6F34EC45F03CCF5CF03DCFAB
:108340005DF03ECF5EF03FCF5FF0010E58D055D0CC
:1083500080BA13D000015B510FE10001010E5B6F89
:1083600034EC45F03CCF5CF03DCF5DF03ECF5EF0AD
:108370003FCF5FF0020E43D040D034EC45F03CCF0D
:1083800080F23DCF81F23ECF82F23FCF83F20201F5
:108390008051056E8151066E8251076E8351086EC1
:1083A000D950050FE96EDACFEAFF00015C51EE5CAF
:1083B0000201806F00015D51EE580201816F0001E2
:1083C0005E51EE580201826F00015F51EE580201CA
:1083D000836F02018051016E8151026E8251036EE2
:1083E0008351046E0150FF083F0E0254000E0354E7
:1083F000000E045402E200015B6B000E00D049E95C
:08840000E7CFD9FF12001200C2
:0884080042E8D9CFE6FFDACF0C
:10841000E6FFE1CFD9FFE2CFDAFF86E9036A120077
:10842000F3DF038003D0F0DF01D00382026A080E7D
:10843000E76ED890013602360050025C02E3026E0D
:10844000012AE72EF7D703B2120003B081EB00F048
:1084500003A082EB00F0E552E5CFDAFFE7CFD9FFCA
:1084600043E9120044E8D9CFE6FFDACFE6FFE1CFD7
:10847000D9FFE2CFDAFF8EE980EB08F081EB09F05B
:1084800082EB0AF083EB0BF004500802F350006E0D
:10849000F450016E04500902F3500126000EF4203E
:1084A000026E04500A02F3500226000EF420036EFE
:1084B00004500B02F350032605500802F350012626
:1084C000F4500222000E032205500902F350022646
:1084D000F450032205500A02F35003260650080206
:1084E000F3500226F450032206500902F3500326EB
:1084F00007500802F3500326E552E5CFDAFFE7CF35
:10850000D9FF48E9000C45E8D9CFE6FFDACFE6FF0E
:10851000E1CFD9FFE2CFDAFF8FE90C6A1200F3DF77
:108520000C8003D0F0DF01D00C820B6A0A6A096A62
:10853000086A200EE76ED8900436053606360736F0
:10854000083609360A360B360050085C01500958C7
:1085500002500A5803500B5809E30050085E0150BE
:10856000095A02500A5A03500B5A042AE72EE4D73C
:108570000CB212000CB00AD088EB00F089EB01F0CD
:108580008AEB02F08BEB03F00CA008D084EB00F038
:1085900085EB01F086EB02F087EB03F0E552E5CFC7
:0A85A000DAFFE7CFD9FF49E9120026
:0685AA00D9CFE6FFE1CF8E
:1085B000D9FF85E944E854D000EBE6FF01EBE6FF84
:1085C00002EBE6FF03EBE6FF190EE66EE66AE66AEB
:1085D000E66A32EC42F0E552E5CF83F2E5CF82F273
:1085E000E5CF81F2E7CF80F202018051056E815123
:1085F000066E8251076E8351086ED950050FE96EE1
:10860000DACFEAFFAF0EEE5E000EEE5A000EEE5A23
:10861000000EEE5A083408E205502D08000E0654EC
:10862000000E0754000E085401E31AD0083408E283
:1086300005500008000E0654000E0754000E0854A2
:108640000FE20000D950050FE96EDACFEAFF2A0EDB
:10865000EE5E000EEE5A000EEE5A000EEE5AE6D70F
:1086600045E9E7CFD9FF1200D9CFE6FFE1CFD9FF27
:1086700083E944E800EBE6FF01EBE6FFE66AE66A21
:10868000C40EE66E090EE66EE66AE66A32EC42F069
:10869000E552E5CF83F2E5CF82F2E5CF81F2E7CF75
:1086A00080F202018051036E8151046E8251056E89
:1086B0008351066ED950030FE96EDACFEAFFAA0E96
:1086C000EE5E000EEE5A000EEE5A000EEE5A063422
:1086D00008E20350C308000E0454000E0554000EB7
:1086E000065402E31BD01AD0063408E203500008F7
:1086F000000E0454000E0554000E06540FE2000054
:10870000D950030FE96EDACFEAFF270EEE5E000EB6
:10871000EE5A000EEE5A000EEE5AE6D745E9E7CFC4
:04872000D9FF12006B
:0C872400948E949C240EAD6E900EAC6EF2
:108730001F0EB06E1200D9CFE6FFE1CFD9FF83E95B
:1087400041E800EBF6FF01EBF7FF002A000E0122E3
:108750000800F550036E035005E003EBE6FF06D872
:1087600041E9EFD742E9E7CFD9FF1200D9CFE6FFC1
:10877000E1CFD9FF82E9ADA2FED700EBAEFF41E920
:10878000E7CFD9FF1200ACA202D0AC98AC88AF50B2
:1087900000D01200D9CFE6FFE1CFD9FF82E941E84E
:1087A00080EB02F000380F0B0F0B006E0050F76AE1
:1087B000250FF66E8D0EF7220800F5CFE6FFD6DF07
:1087C00041E90F0E0214006E0050F76A250FF66E95
:1087D0008D0EF7220800F5CFE6FFC8DF41E900D093
:1087E00042E9E7CFD9FF1200D9CFE6FFE1CFD9FFA9
:1087F00082E9640E005C12E3640EE66E00EBE6FFB5
:1088000010EC42F041E9E750F76A250FF66E8D0E45
:10881000F7220800F5CFE6FFA9DF41E90A0E005C68
:1088200016E30A0EE66E640EE66E00EBE6FF13EC4E
:1088300042F010EC42F041E9E750F76A250FF66E7E
:108840008D0EF7220800F5CFE6FF90DF41E90A0E12
:10885000E66E00EBE6FF13EC42F041E9E750F76A01
:10886000250FF66E8D0EF7220800F5CFE6FF7EDFAE
:0A88700041E941E9E7CFD9FF12000A
:06887A0020B2202020B214
:108880002020B220B22020202020B220B20D0AB237
:1088900020B220B220B2202020B22020B22020B26C
:1088A00020200D0AB22020B22020B220B220B22017
:1088B00020B22020B220B20D0AB22020B22020B275
:1088C00020B22020B220B220B22020B20D0AB22065
:1088D00020B22020B220B2202020B220B2202020BE
:1088E000B20D0AB2B2B22020B2B2B2B20D0AB220B8
:1088F00020B220B22020200D0AB22020B220B2B235
:10890000B2B20D0AB22020B220B22020200D0AB24D
:0A891000B2B22020B2B2B2B20D0ADA
:06891A001E0EF66E000EB9
:10892000F76E000EF86E02010900F550936F090012
:10893000F550946F03E1936701D03DD00900F550E5
:108940008E6F0900F5508F6F0900F550906F090088
:108950000900F550E96E0900F550EA6E09000900BA
:108960000900F550916F0900F550926F0900090058
:10897000F6CF95F2F7CF96F2F8CF97F28EC2F6FFC8
:108980008FC2F7FF90C2F8FF0201915302E19253A8
:1089900007E00900F550EE6E9107F8E29207F9D76B
:1089A00095C2F6FF96C2F7FF97C2F8FF0201930740
:0889B000000E945BBFD712001A
:0889B800FE0EE3CFE9FFFF0E04
:1089C000E3CFEAFFE9CFF3FFEACFF4FFFB0EE3507A
:1089D00003E1FC0EE35009E0FB0EE30602E2FC0EAD
:1089E000E306FD0EE350EE6EF1D71200FE0EE3CF6C
:1089F000E9FFFF0EE3CFEAFFF36AF46AEE5203E009
:108A0000F34AF42AFBD71200FF0EE3CFF8FFE5523A
:108A1000FF0EE3CFF7FFE552FF0EE3CFF6FFE5527F
:108A2000E66AE66AE66A0900F55209E0FD0EE32A05
:108A300005E1FE0EE32A02E1FF0EE32AF4D7FD0E64
:108A4000E3CF3CFFFE0EE3CF3DFFFF0EE3CF3EFF43
:028A5000120012
:0E8A5200050ED56EF184F294F28AD58E0201E3
:108A6000A56B0201A66B1200D9CFE6FFE1CFD9FFBB
:108A700081E946E8036A046AF29AF250040B01E0C5
:108A8000010E056ED650016ED750026EF250040BE7
:108A900001E0010E066E0650055CEFE1055008E0AE
:108AA000F2940201A52B0201A55102E10201A62BBD
:108AB0000201A55103260201A6510426F28A01EB08
:108AC0003CFF02EB3DFF03EB3EFF04EB3FFF00D01A
:088AD00047E9E7CFD9FF1200CE
:088AD800D9CFE6FFE1CFD9FF81
:108AE00086E943E880EB06F081EB07F002060234EA
:108AF00027E203EBE9FF04EBEAFF032A000E04225E
:108B0000EFCF80F280C281F20201806B02018051BE
:108B1000061A8151071A086A080E085C10E207500D
:108B2000800B08E0D89006360736210E061A100E84
:108B3000071A03D0D89006360736082AEDD7D6D7BD
:108B400006EBF3FF07EBF4FF00D044E9E7CFD9FFD2
:028B5000120011
:0E8B5200D9CFE6FFDACFE6FFE1CFD9FFE2CFC1
:108B6000DAFF87E944E8D9CFE6FFDACFE6FFE5523E
:108B7000E5500A6EE750096E09EBE6FF0AEBE6FFE7
:108B800000EBE6FF01EBE6FF02EBE6FFD950030F37
:108B9000E66E000EDA20E66E7EEC32F047E9F35026
:108BA000076EF450086E03EBE9FF04EBEAFFEF6A8F
:108BB00007EBF3FF08EBF4FF45E9E5CFDAFFE7CF7A
:048BC000D9FF1200C7
:0C8BC400D9CFE6FFDACFE6FFE1CFD9FF02
:108BD000E2CFDAFF85E9013415E200EBE9FF01EBB2
:108BE000EAFFEECFF3FFEDCFF4FFEE2A000EEF2207
:108BF000F3CFE9FFF4CFEAFF02EBEFFFEF50F36EA4
:108C0000F46A0DD0FE0E005C05E102EBE6FF6FECAE
:108C100046F004D002EBE6FF03EC00F041E941E945
:0A8C2000E5CFDAFFE7CFD9FF12001D
:068C2A004B000000700089
:108C30000000BB000000510100007D020000D504CF
:108C4000000085090000E5120000A5250000254B65
:108C5000000025960000252C01002558020025B0B3
:068C60000400256009007C
:0A8C6600D9CFE6FFE1CFD9FF82E984
:108C700041E89E96C950026EC69E00EBC9FFC6BE73
:108C8000FBD79EA6FED742E9E7CFD9FF1200E66ADE
:0A8C9000EADF41E9C95000D01200EC
:068C9A00F36AF46AFF0E0C
:108CA000E124E96EFF0EE220EA6EED6607D02F0E9A
:0E8CB000EF6404D03A0EEF6001D0F32A1200F8
:028CBE00400E66
:108CC000F36E00EE00F00F0E01D81200EA6002D041
:0E8CD000EE6AFCD7F350E9601200EE6AFCD7A2
:028CDE00FF0E87
:108CE000E350ADBA04D0B06AAC8EAD8A949CADA20C
:0A8CF000FED7AE6EF36EF46A1200B8
:068CFA001EEE00F02EEE5C
:108D000000F0F86A8DEC44F00BEC00F0BAEC3BF0AC
:048D1000FBD712007B
:0C8D140030313233343536373839616283
:058D20006364656600BC
:0B8D25003031323334353637383941F5
:058D30004243444546EA
:028D3500011823
:098D370001776655000004FF00FD
:020000040001F9
:01FFF800E028
:01FFFA00C541
:01FFFB00F70E
:00000001FF
