:020000040000FA
:060000005DEF24F0120088
:020006000400F4
:06000800D5EF11F012001B
:02000E001200DE
:020010001200DC
:020012000218D2
:03001400FF0000EA
:06001800D5EF11F012000B
:02001E0030317F
:0E002000323334353637383941424344454691
:02002E000001CF
:0E00300002030405060708090A0B0C0D0E0F4B
:02003E000400BC
:10004000F2480000D8010000020000001400000087
:10005000D101000003000000E5480000B2010000EB
:100060000D00000012000000D60100000200000098
:100070000000120078EC0CF049E800EBE6FFD6CF68
:10008000E6FF46EC20F041E9E750036E035027E01D
:10009000030630EC0AF0046ECA51056ECB51066EB1
:1000A000CC51076E30EC0AF0086ECA51096ECB5184
:1000B0000A6ECC510B6E59EC0BF0D950040FCDECFD
:1000C0000AF0EE50D2EC0BF0D880270EC955000E86
:1000D000CA55000ECB55000ECC55E4E2D7D74AE9FD
:1000E0005FEF0AF08EEC0CF055E85FEC0EF00009C3
:1000F00001E1FBD202015BB54FD3016B7851040BD8
:1001000001E0010E030BF36EFC0E0115F310016FFD
:1001100078510197080B01E001877851030B010822
:1001200002E1010E01D0000E019BE8B0018B785175
:10013000019D800B01E0018D78AF08D08051019FB7
:10014000E8B0018F79C204F27AC205F281C202F2EC
:1001500082C203F27FC20AF27EC209F25B95785135
:10016000030B010A01E126D2020A01E174D1030A5C
:1001700001E0B6D20A0E7D5D01E2B2D2020E3DEC84
:100180000AF00B6E030E3DEC0AF00C6E040E3DEC13
:100190000AF0116E050E3DEC0AF0126E060E3DECF3
:1001A0000AF00D6E070E3DEC0AF00E6E080E3DECE7
:1001B0000AF00F6E090E3DEC0AF0106E016B7851DB
:1001C0000197080B01E001870151030B000904E1CD
:1001D000111C64E1121C62E156510F180AE15751DB
:1001E000101807E158510D1804E159510E1801E19A
:1001F00077D2026A040E025C1BE25CEC0CF0EF505A
:1002000015E049EC0AF00F50EE1810E11050ED180F
:100210000DE149EC0AF0EBEC0BF0EFCFC9F10A0E5F
:1002200002013DEC0AF00101C95D02E0022AE2D7B9
:10023000040E025C01E254D2026A040E025C06E281
:100240005CEC0CF0EF5002E0022AF7D7040E025CDF
:1002500021E249EC0AF00FEBEEFF10EBEDFF0A0E86
:1002600068EC0CF049EC0AF0020EE9266DEC0BF09C
:100270005CEC0CF0030EEF6E47EC0CF049EC0AF06E
:100280006CEC0CF0FCC0EEFFCAC1EEFFCBC1EEFF80
:10029000CCC1EEFF02010181019334D058510B18FB
:1002A00001E01ED259510C1801E01AD25651111812
:1002B00001E016D25751121801E012D2010E3DECA6
:1002C0000AF0040B1FE070EC0BF00DEB02F00EEBEC
:1002D00003F00FEB04F010EB05F0F4EC0BF00A0E5A
:1002E0000201DEEC0BF0EFCF0AF000010B6B300ED9
:1002F0000C6F02010D0E556F716B718B65EC0CF07C
:10030000020101850B0E3DEC0AF001E07AD00C0EE3
:100310003DEC0AF0300863E00C0E3DEC0AF0110AE7
:1003200001E0DED1136A080E135C0AE20D0E1324FD
:100330003DEC0AF0E66E1350F6EC0AF0132AF3D700
:100340008D0E546F150E3DEC0AF0800B01E05491B8
:10035000150EDEEC0BF0EFCF50F2160EDEEC0BF0CC
:10036000EFCF51F258C252F259C253F29BDB020155
:10037000616FFF0E615D08E06151A9EC0CF0EFCFF9
:1003800054F25485548704D08D0E546F50BF54914D
:10039000E1DB0201616FFF0E615D1EE2136A010E77
:1003A000135C0CE2170E132468EC0CF0615104ECA2
:1003B0000CF0135002EC0CF0132AF1D70E0EE66E7F
:1003C000E66A020161510FEC0BF00201615100EC91
:1003D0000BF00201608101D06091609381D10A0E1F
:1003E0003DEC0AF00101BD5D01E07AD102015D51F1
:1003F0000F1801E075D15E51101801E071D15B97C3
:100400006FD10B0E7D5D086F0B0E7B25066F000E06
:100410007C21076F0DEB02F20EEB03F2080E3DECB0
:100420000AF0FF080AE1090E3DEC0AF0FF0805E1B9
:1004300079C204F27AC205F207D0018F080E7B253B
:10044000046F000E7C21056F018D0851000801E347
:1004500047D15B8545D1146A040E14243DEC0AF0A3
:100460004D0807E0040E14243DEC0AF05D0801E09D
:1004700037D15BA90AD04AEC23F0FCC0A3F2FDC03F
:10048000A4F2FEC0A5F2FFC0A6F202015BA128D132
:1004900081C252F282C253F21EEC0BF014503DECBA
:1004A0000AF0FF0801E01CD114283DEC0AF0156E9B
:1004B000040E0B5D01E314D16FEC0CF084EC0BF037
:1004C00001E20ED1B3EC0CF0BAC1EFFFB3EC0CF0CB
:1004D0000B0EAFEC0CF009C2EFFFB3EC0CF05CECD0
:1004E0000AF00AC2EFFFB3EC0CF0090EAFEC0CF00F
:1004F00052C2EEFF53C2EDFFC6EC0BF0EF6AC6EC42
:100500000BF0EF8C6FEC0CF0EF50060BE8420101A2
:10051000C96F0201C6EC0BF00101C951030BF36E68
:10052000FC0EEF14F310EF6E6FEC0CF0EF50080BB5
:1005300004E00201C6EC0BF0EF866FEC0CF084ECEB
:100540000BF004E30201C6EC0BF0EF8A04C2E9FFF2
:1005500005C2EAFFEF50E66E0201B3EC0CF0EE527A
:10056000E552E750EF6E010EEA6A0425E96E055187
:10057000EA22EF50E66EB3EC0CF0EE52E92A6DEC95
:100580000BF0C6EC0BF0EF8E026A010E025C0FE27C
:10059000070E1424022468EC0CF0B3EC0CF00E0EE1
:1005A0007CEC0AF0025002EC0CF0022AEED70201B9
:1005B0000B2B96D07BC2E9FF7CC2EAFFEF50030A07
:1005C00063E0010A01E08CD0030E3DEC0AF050E13B
:1005D000010EDEEC0BF0EFCF56F2020EDEEC0BF06C
:1005E000EFCF57F282EC0AF002015B83BF0E546F2B
:1005F000026A080E025C03E215EC0CF0FAD75651C1
:1006000003E1506B516B03D057C251F2506B58C28B
:1006100052F259C253F29EDA02015A6F5A51AFECAC
:100620000AF0026A010E025C0CE2040E022468EC7D
:100630000CF05A5104EC0CF0025002EC0CF0022ABF
:10064000F1D77AEC0AF008EC0CF078EC0AF00E0E18
:10065000E66EE66A02015A510FEC0BF002015A51A4
:1006600000EC0BF0670EE66E360EC8EC0AF038D0E0
:100670005A69586959692DEC0BF078EC0AF07AEC5C
:100680000AF008EC0CF02CD0805108E01EEC0BF0C6
:1006900009DA166EFF0E165C0DE122D0026A080E12
:1006A000025C03E215EC0CF0FAD723DA166EFF0EAB
:1006B000165C16E01650C0EC0BF0200B11E0026A3D
:1006C0000A0E025C05E202500BEC0CF0022AF8D78D
:1006D00052EC0CF078EC0AF008EC0CF07AEC0AF032
:1006E00002015BB502D094EC0FF030EC0AF0036E1F
:1006F000CA51046ECB51056ECC51066E026A040ECF
:10070000025C1BE25CEC0CF0EF50000814E203EB1F
:10071000CDF104EBCEF105EBCFF106EBD0F149ECD6
:100720000AF06CEC0CF0EE50010151EC0AF003E21F
:100730005CEC0CF0EF6A022AE2D7020160A32CD035
:1007400060B12AD0D950030FCDEC0AF06D51EE5CA8
:100750000101C96F02016E51EE580101CA6F020119
:100760006F51EE580101CB6F02017051EE5801013B
:10077000CC6FC951076ECA51086ECB51096ECC516E
:100780000A6E0750C208C90E0854010E0954000E23
:100790000A5402E20201609356E95FEF0AF034EC7A
:1007A0000AF088E90201716B0150030BF36EFC0E35
:1007B0007115F310716F0250031001E171857151D1
:1007C000040B02E0000E01D0010E719BE8B0718BAA
:1007D000718F02EB72F203EB73F2080E0014000843
:1007E00003E2010E746F01D0746B040E0014000854
:1007F00003E2010E756F01D0756B04EBE9FF05EBA9
:10080000EAFFEFCF76F20428E96E000E0520EA6ECB
:10081000EFCF77F2A5EC0AF07FEC0CF041E95FEF47
:100820000AF08EEC0CF041E8026A0A0E025C08E263
:100830000250B6EC0CF002E1025003D0022AF5D7C8
:10084000FF0E42E95FEF0AF078EC0CF042E8FF0E91
:10085000005C28E1570EE66E360EC8EC0AF0036A1B
:10086000080E035C0CE2070ED8800354EA6AB20F4C
:10087000E96E010EEA22A1EC0AF0032AF1D7480E34
:10088000E66E360EC8EC0AF03EEC0BF03E0EE66E5D
:10089000360EC8EC0AF045EC0BF0320EE66E360E62
:1008A00087EC0CF0EA0EE66E350EC8EC0AF0FF0E8F
:1008B000005C61E1036A0A0E035C01E3B2D00350FD
:1008C000B6EC0CF056E003EBE6FF7BEC0CF0C3EC6F
:1008D0000BF0C3EC0BF0CAEC0CF0010B02E0590E6C
:1008E00001D04E0EACEC0CF00350C0EC0BF0020B40
:1008F00002E0590E01D04E0EACEC0CF00350C0ECEF
:100900000BF0080B13E003503EEC0CF0A1EC0AF0E6
:100910000350CEEC0CF003505FEC0CF0A1EC0AF0AD
:10092000035022EC0AF062EC0BF002D0FAEC0CF06F
:1009300041E9CAEC0CF0040B08E0046A080E045C00
:1009400004E203500EEC0CF0F9D704EC0DF0046A4D
:10095000D89003E391EC0CF0FBD7046A010E045C21
:1009600006E2035004EC0CF097EC0CF0F7D799EC8E
:100970000CF0032AA0D70050B6EC0CF052E000EBCC
:10098000E6FF7BEC0CF0C3EC0BF0200E00EC0DF05E
:10099000010B02E0590E01D04E0E00EC0DF0020BDF
:1009A00002E0590E01D04E0E00EC0DF0080B13E0E2
:1009B00000503EEC0CF0A1EC0AF00050CEEC0CF034
:1009C00000505FEC0CF0A1EC0AF0005022EC0AF0B1
:1009D00062EC0BF002D0FAEC0CF041E904EC0DF003
:1009E0000050C0EC0BF0040B08E0046A080E045C35
:1009F00004E200500EEC0CF0F9D704EC0DF0046AA0
:100A0000D89003E391EC0CF0FBD7046A010E045C70
:100A100006E2005004EC0CF097EC0CF0F7D799ECE0
:100A20000CF043E95FEF0AF08EEC0CF041E80201B4
:100A300060914AEC23F0FCC06DF2FDC06EF2FEC086
:100A40006FF2FFC070F20201506B516B0B0E556FCD
:100A500070EC0AF0EF6A70EC0AF0100EEF6E026AAA
:100A6000080E025C09E20250EA6AB20FE96E010E5A
:100A7000FDEC0BF0022AF4D7026A010E025C05E2DB
:100A80000250D2EC0CF0022AF8D7E66AE66A500E61
:100A9000E66E020EE66EB6DB44E90201608342E9CF
:100AA0005FEF0AF08EEC0CF041E8026A0A0E025C7D
:100AB0001CE20250B6EC0CF016E00250C0EC0BF059
:100AC000080B11E00AEC0DF0020E8CEC0BF00201A9
:100AD00050510101C91907E1020151510101CA191F
:100AE00002E1025003D0022AE1D7FF0E42E95FEF94
:100AF0000AF08EEC0CF042E8026A0A0E025C26E272
:100B00000250B6EC0CF020E00250C0EC0BF0040BED
:100B10001BE0036A080E035C15E20AEC0DF06CECB6
:100B20000CF0EACFCBF103500101EA6AE924E96E47
:100B3000CB51EA22EFCFC9F192EC0BF0C95D04E191
:100B4000032AE8D7025003D0022AD7D7FF0E43E981
:100B50005FEF0AF08EEC0CF042E80268020154A547
:100B600002D0C7DF03D054A702D09CDF026EFF0E75
:100B7000025C02E156DE026EFF0E025C2EE00250C5
:100B8000A9EC0CF054C2EFFF020154A512D0036A85
:100B9000080E035C0EE292EC0BF0E66E0AEC0DF030
:100BA0006CEC0CF0EACFCAF1035002EC0CF0032A13
:100BB000EFD7020154A708D00AEC0DF0EBEC0BF0D4
:100BC00050C2EEFF51C2EDFF0AEC0DF052C2EEFF33
:100BD00053C2EDFF0250AFEC0AF0025043E95FEF61
:100BE0000AF034EC0AF086E941E8066A080E065C71
:100BF00014E20650022476EC0BF0EFCFC9F1065058
:100C00000024E96E000E0120EA6EEF500101C95D7B
:100C100002E0000E03D0062AE9D7010E42E95FEF99
:100C20000AF078EC0CF044E8D7EC1FF002015669AA
:100C30005769340E586F120E596F066A0A0E065C19
:100C400005E206500BEC0CF0062AF8D702015B6BAC
:100C50005C6B606B006B40EC23F00201556B066A25
:100C60000A0E065C05E20650AFEC0AF0062AF8D739
:100C7000005041E0D2EC0AF080EC0BF0200E0101B4
:100C8000BA5D09E264EC0AF080EC0BF00201561D3B
:100C900004E1571D02E1000E65D035EC0CF080EC4C
:100CA0000BF0DEEC0AF080EC0BF0BAEC0AF0EAECA8
:100CB0000AF080EC0BF064EC0AF080EC0BF029EC0D
:100CC0000CF080EC0BF0DE0EE66E350E87EC0CF0CF
:100CD000D60EE66E350EC8EC0AF045EC0BF0CB0EE6
:100CE000E66E350EC8EC0AF03EEC0BF082EC0AF032
:100CF00002015B8311D07AEC0AF0D2EC0AF0C6EC68
:100D00000CF0DEEC0AF0C6EC0CF0EAEC0AF0C6ECF3
:100D10000CF008EC0CF0ECDB036A03960398039AE2
:100D2000038C038200500394E8B00384B20E046E77
:100D3000010E056E03EBE6FF04EBE6FF05EBE6FFB5
:100D400099EC11F043E9DEDBBAC1E6FF0DD841E9C9
:100D5000020100810087BAEC0AF0D6CF5FF2F09072
:100D6000F086010E45E9ABD378EC0CF0E66A00EBB7
:100D7000E6FF13EC11F042E9000908E000EBBAF1DC
:100D8000D2EC0AF0C6EC0CF0010E01D0000E41E9E5
:100D900096D378EC0CF00050030808E300EBBBF1AD
:100DA000E9DBDEEC0AF067EC1FF046E941E987D3A6
:100DB0005BDB87E94EE8010E086E096A0A6A0B6A76
:100DC0000101BA510C6E076A040E075C05E2075078
:100DD00040DBEF68072AF8D702010B6B5B81076ADB
:100DE000200E075C01E37AD001EBCAF102EBCBF1F4
:100DF00003EBCCF10101C96BF80ECA17070ECC1733
:100E000059EC0BF007501F0B08E00101D890CD37CB
:100E1000CE37CF37D037E806F9E10101CD51C917F8
:100E2000CE51CA17CF51CB17D051CC17C951CA11C7
:100E3000CB11CC1151E0BB0EE66E350EA9DB07EBF2
:100E4000E6FF14EC22F041E907EBE6FF8DDF41E914
:100E5000A3EC0CF0070EEF6E43DBBAC1EFFF526953
:100E60005369E66A010EE66E000EE66EE66A520E01
:100E7000E66E020EE66E93DC46E9F2DA9AEC0BF0CF
:100E8000B2EC0BF001E044D9EBDAA2EC0BF011EB81
:100E9000CDF112EBCEF113EBCFF114EBD0F1D95031
:100EA0000D0F7BDBEE50D2EC0BF00450040DF3CFB2
:100EB000F6FFF4CFF7FF1E0EF626480EF722C951B3
:100EC0000900F55CCA510900F558CB510900F558E5
:100ED000CC510900F558D4E2072A82D70CEBE6FF83
:100EE00043DF41E902015B910B514FE9E8D2BCDAE3
:100EF00084E94AE8030E046E00040DE195DD020169
:100F000060A305D0B2EC0BF0FAE002D9F8D760A1EB
:100F1000F0D06151F3D0005001E0EFD0FF0E015C42
:100F200024E10101010EC96FCA6BCB6BCC6B0101CF
:100F3000BA511F0B08E00101D890C937CA37CB3727
:100F4000CC37E806F9E1C9C1E6FFCAC1E6FFCBC16B
:100F5000E6FFCCC1E6FF0A0EE66E2ADF45E900098E
:100F600003E10406DEE1C5D0016A62EC0CF0090E73
:100F7000AFEC0CF0EECF52F2EDCF53F262EC0CF08E
:100F8000EE52EFCF50F2D8EC0CF0EFCF51F28ADDF9
:100F900002015A6FFF0E5A5D06E143DC02015A6FEF
:100FA000FF0801E1A6D05A510BEC0CF062EC0CF0FA
:100FB000090EB2DB07EC0DF0C9C1EEFFCAC1EDFFAF
:100FC00062EC0CF0EE52EF50E66E07EC0DF0020E04
:100FD000E92683DBD8EC0CF0EF50E66E5A515FEC5B
:100FE0000CF0E552E750EF6E5A51A9EC0CF0EF8689
:100FF000056A010E055C19E262EC0CF00E0EAFEC16
:101000000CF0E9CFCBF1EACFCCF105500101EA6A4F
:10101000E924E96ECC51EA22EF50E66E02015A5102
:10102000F3DB0550EFDB052AE4D702015A51A9ECA6
:101030000CF0EF825A51A9EC0CF0EF8A5A51A9EC4E
:101040000CF0EF8062EC0CF0EFCFE6FF8DDE41E9B3
:10105000020107EC0DF0EECF58F2EDCF59F2FDDAB8
:10106000A3EC0CF0010EEF6E3BDA00C2EFFF056A55
:10107000010E055C05E20550D2EC0CF0052AF8D70C
:10108000080EE66E010EE66E07EC0DF0020E34DA85
:10109000EDEC0CF007EC0DF0E9CFCBF1EACFCCF1A1
:1010A000EDEC0CF0CFEC03F046E9DAD9066ECA514C
:1010B000076ECB51086ECC51096E02015A5160DBAC
:1010C000100B19E14FDB01E023D8CAD90A6ECA51CF
:1010D0000B6ECB510C6ECC510D6E0AEBCDF10BEBC0
:1010E000CEF10CEBCFF10DEBD0F1D950060FCBDBED
:1010F000E4E2FF0E03D05A5101D0FF0E4BE9DFD1DD
:1011000072EC00F002015B51040B01E0010E1200D1
:1011100002015B9594EF0FF0EBDBE2DA58C202F0CC
:1011200059C203F004690569FED90201716B71852A
:1011300000507197E8B0718718DB07DA82DB41E96C
:10114000BED192D984E949E80150B6EC0CF055E0E3
:101150000101BE510DE000010B510AE002015B8765
:101160005FC2BDF101506ED9B2DA060E046E04D032
:10117000020E046E02015B97BCC100F004EB01F0AB
:10118000015060D9EFCF02F0015078DBEFCF03F0D0
:10119000015058D9F1DA015092DBEFCF05F024DB92
:1011A0005F515F2B00010A6F63DAE8B071878DDB56
:1011B000000921E002015BA722D052D9056ECA5175
:1011C000066ECB51076ECC51086ECCDA01E0A0DF81
:1011D00002015BB702D0010E13D042D9BBDA09EB92
:1011E000CDF10AEBCEF10BEBCFF10CEBD0F1D950F6
:1011F000050F49DBEAE202015B97000E01D0010E08
:101200004AE95DD131D986E953E80101BE510AE0CE
:1012100000010B5107E002015B875FC2BDF1060EC2
:10122000086E04D0020E086E02015B97015063E065
:10123000076A080E075C09E20750022457DAEF50EC
:10124000E66E0750D3D9072AF4D753DC066EFF0E9B
:10125000065C13E145DA026903690469056963D92B
:1012600007DAE8B0718702EB72F203EB73F2746B8A
:101270007CDA5B976AD9E5DA87D0065081DA080B09
:10128000E9E00101BE5103E00650DCD820DA00019C
:10129000040E006F08EB01F00650D4D8EFCF02F037
:1012A0000650ECDAEFCF03F00650CCD865DA0650E2
:1012B00006DBEFCF05F037D9DBD9E8B071878EDADE
:1012C0005EE002015BA745D0CBD844DA4BDA01E0FF
:1012D0001FDF02015BA73DD0C3D82CDA0DEBCDF1A7
:1012E0000EEBCEF10FEBCFF110EBD0F1D950090F8F
:1012F000CADAECE244D00001040E006F08EB01F002
:1013000058C202F059C203F002EBE9FF03EBEAFF17
:10131000EFCF04F00228EAD9EFCF05F004D902EBB1
:10132000E9FF03EBEAFFEFCF5DF20228DFD9EFCF51
:101330005EF29ED9E8B0718751DA21E002015BA725
:1013400022D08ED8FFD90EDA01E0E2DE02015BB7CF
:1013500002D0010E19D084D8156ECA51166ECB5129
:10136000176ECC51186E15EBCDF116EBCEF117EBD5
:10137000CFF118EBD0F1D950110F85DAE4E2020178
:101380005B97000E01D0010E54E999D06DD888E921
:101390000550020A02E0030A02E1000E01D0000E2D
:1013A00041E98DD0A5DA43E8FF0E005C1EE1036A37
:1013B0000A0E035C3DE20350D9DA13E00350E0D992
:1013C000200B0FE0C0DA6BD903500CDB0350B6DA08
:1013D000FF0E045C0F0E055804E2042A000E0522DD
:1013E000F7D7035018DA032AE3D70050BFDA28E012
:1013F0000050C6D9200B24E002015A51005C20E1C4
:10140000556B6ED84CD90050EDDA005097DAFF0ECC
:10141000045C0F0E055804E2042A000E0522F7D7DB
:10142000036A0A0E035C04E20350F5D9032AF9D7D4
:1014300039DAEED95FD85CD8CDD867EC1FF046E931
:1014400044E93DD00E0D4FDA600EE926000EEA2287
:1014500012000F0D48DA0C0EE926020EEA221200E5
:1014600016DA0101C9511200D9CFE6FFDACFE6FF43
:10147000E1CFD9FFE2CFDAFF1200A0D9EF5012007E
:10148000E66EF4EC21F041E9120098DA9DD97FEF85
:101490000CF00250080D27DA830EE926020EEA222C
:1014A000120080D9D880960EC955980ECA55000EE4
:1014B000CB55000ECC5512000C0EAFEF0CF0E5CF63
:1014C000DAFFE7CFD9FF1200020EE66EE66AF6C039
:1014D000E6FFF7C0E6FF560EE66E020EE66E12005D
:1014E0005551552BEA6A000FE96E000EEA221200F0
:1014F000B0D92DD2BAD92BD232DAE9CFC9F1EACF9D
:10150000CAF1120072DA560EE66E020EE66E6AEC50
:1015100011F044E9120052DA58C276F259C277F259
:1015200053D921EF0CF060D902015F515F2B00010C
:101530000A6F12000101EA6AE924E96ECA51EA223F
:101540001200EFCFE6FF7BEF0CF013DA72C2E6FF7A
:1015500073C2E6FF74C2E6FF75C2E6FF1200040D17
:10156000C2D9330EE926000EEA22EE6AEE6AEE6A6E
:10157000EE6A12000101BB510201030BF36EF34648
:10158000F346F346F346CF0E0015F310006F12003A
:10159000E66EDEEC21F042E91200E96E000EDA2080
:1015A000EA6E1200010EE66EE66AEEC0E6FFEFC0DC
:1015B000E6FFBA0EE66E010EE66E1200010EE66E52
:1015C000E66AF0C0E6FFF1C0E6FFBB0EE66E010E74
:1015D000E66E12008C0EE66EE66AF2C0E6FFF3C01D
:1015E000E6FF600EE66E000EE66E1200EA6A480F35
:1015F000E96E020EEA22C6D1EED8E92AEA221200EA
:101600000E0DF3CFCBF1F4CFCCF1600E0101CB275F
:10161000000ECC23CBC1E6FFCCC1E6FF98D10E0D66
:101620000001F251F3240101C96F0001F351F420CC
:101630000101CA6FC9C1E6FFE66E120079C2E9FF77
:101640007AC2EAFFEFCF50F2010EEA6A7925E96E1D
:101650007A51EA22EFCF51F2120050695169C5D98F
:10166000500EE66E020EE66E6AEC11F044E91200CE
:101670000201716B718B00507197120057C2E6FF27
:101680003AD956C2E6FF7BEF0CF059C2E6FF33D9D8
:1016900058C2E6FF7BEF0CF0030EAFEF0CF0030E29
:1016A000EF6E716B718B71817193010E746F756F39
:1016B000120008EBCDF109EBCEF10AEBCFF10BEB09
:1016C000D0F1120088D8EFCFE6FF02EF22F083D8E6
:1016D000EECF5DF2EDCF5EF21200000EEA2252D1A3
:1016E000BCC100F00001020E016F1200E96E000E95
:1016F0000320EA6E1200EECF76F2EDCF77F2120001
:1017000045EC1FF046E91200EF50300BE842E8428A
:10171000E842E8420108120022D9EECFC9F1EFCF2A
:10172000CAF112000350EA6A480FE96E020EEA227B
:10173000EF5012000D6ECA510E6ECB510F6ECC5190
:10174000106E1200116ECA51126ECB51136ECC5135
:10175000146E1200096ECA510A6ECB510B6ECC5139
:101760000C6E1200CDDC00091200010E756F58C21C
:1017700076F259C277F212002ED8EFCF04F01200A1
:10178000E8D8EF50120040D904EF0DF0ECD80D0E60
:10179000AFEF0CF03F0E74DE3F0E72DE3F0E70DED8
:1017A0003F0E1200CD5DC96FEE50CE59CA6FEE509C
:1017B000CF59CB6FEE50D059CC6F1200EA6A7B251F
:1017C000E96E7C51EA221200D4D807D974C2E6FF30
:1017D00075C2E6FF1200020EAFEF0CF05A5102D9AB
:1017E000F3D853DE0009120058C206F059C207F0C0
:1017F00056C208F057C209F01200EA22EF50E66E16
:101800006FDEC0D097DEBED01DDE0D0E7CEF0AF07D
:101810005BDEC6EF0CF09DD8EF6A120013DE040EFB
:101820006BDE070ED8800454D4D00250EA6A7925C2
:10183000E96E7A51EA22EF50E66E0250D7DE022AB4
:10184000120058C2E6FF59C2E6FF9CEC0FF04AE9CD
:101850001200010EE66EE66AF8C0E6FFF9C0E6FF88
:101860005A0EE66E020EE66E1200020EE66EE66A92
:10187000ECC0E6FFEDC0E6FFF5EF0CF0E3DDE92A92
:10188000000EEA22120089DEEE5051EF0AF04AEC17
:1018900023F0FCC0C9F1FDC0CAF1FEC0CBF1FFC00E
:1018A000CCF1120002015A695669576958695969A1
:1018B00029DE02015B931200ECDD4CEF0BF0C2DD80
:1018C000FCEF0AF0015029EF0AF07ED88BEF0AF006
:1018D0000201D3DDE66E1200040EAFEF0CF0D9501A
:1018E000150FCDEF0AF0F3CFE9FFF4CFEAFF1200B6
:1018F000BBDD83E9120002EC22F041E9120076C25E
:10190000E6FF77C2E6FF9CEC0FF04AE9120040DEEA
:10191000BAC1E6FF14EC22F041E91200A5DD82E92C
:101920001200E70EE66E350E33DE042A1200045074
:1019300050D00D0EA5DD0A0E40EF0AF083DDA5DDC7
:10194000046A056A12000201556B70EF0AF0C6EFD7
:101950000CF078DD5CEF0AF093DDC3EF0BF0E926C5
:10196000000EEA2212000B5129EF0AF009DF800B6A
:10197000120055C2E6FF000EE66E000EE66E71C262
:10198000E6FF1200E552E750EF6E120067EC1FF021
:1019900046E9120039D80350C0EF0BF053DDD1DD1A
:1019A000C3EF0BF0EA6AD60FE96E010EFDEF0BF004
:1019B00089DFEE52E92A000EEA2212000CDFE9CF9D
:1019C00072F2EACF73F21200010E746F756F07EFB7
:1019D0000DF0B0DDB6DD042A1200E9CFE6FFEACF54
:1019E000E6FF12002FDD7BEF0BF0580EE66E020EC5
:1019F000E66E1200CFDEB0DFCDDEE66EF4EF21F052
:101A0000ABDF0050C0EF0BF0200E40EF0AF05A5150
:0A1A100022EF0AF0025022EF0AF064
:061A1A00ADEC13F085E9BC
:101A200041E8F050080B01E0010E056EF0968A9631
:101A3000010101EBC9F102EBCAF1030ED890CA33E0
:101A4000C933E804FBE17F0E0101C9158009E66E88
:101A5000B1EC14F0010101EBC9F102EBCAF1050E82
:101A6000D890C937CA37E804FBE1E00E0101C91577
:101A70001009E66E28EC14F00550E8B0F086E8A0F6
:101A8000F09642E9BBEF13F0ADEC13F084E941E8C6
:101A9000F050080B01E0010E046EF0968A9601EBFF
:101AA000E6FF28EC14F00450E8B0F086E8A0F096C9
:101AB00042E9BBEF13F0ADEC13F083E942E8F050DC
:101AC000080B01E0010E046EF0968A9600EBE6FF2B
:101AD000B1EC14F00AEC24F0036E8A860450E8B0EE
:101AE000F086E8A0F096035043E9BBEF13F0ADECAD
:101AF00013F084E942E8F050080B01E0010E056E96
:101B0000F0968A96010100EBC9F101EBCAF1030ED0
:101B1000D890CA33C933E804FBE17F0E0101C9172D
:101B2000000ECA17800EC911E66EB1EC14F0010167
:101B300000EBC9F101EBCAF1050ED890C937CA37DD
:101B4000E804FBE1E00E0101C915E66EB1EC14F00A
:101B50000AEC24F0046E8A860550E8B0F086E8A00E
:101B6000F096045043E9BBEF13F0ADEC13F082E9BB
:101B700043E88A9A036A046A2C0E035C010E045837
:101B800004E2032A000E0422F7D78A8A036A046A51
:101B90002C0E035C010E045804E2032A000E0422FA
:101BA000F7D7070EE66E550EB6EC13F0540E46EC62
:101BB00014F0026E070E0214F9E1036A046AE80EDB
:101BC000035C030E045804E2032A000E0422F7D734
:101BD000BDEC14F0E668070EB6EC13F0E668090EEB
:101BE000B6EC13F0E668030EB6EC13F0E668050EEB
:101BF000B6EC13F0026A080E025C0AE202502EEC08
:101C000014F00250E8240B0FB6EC13F0022AF3D7BD
:101C1000800EE66E020EE66EE66EB5EC14F0E66A35
:101C2000030ECFEC13F0900EE66E060ECFEC13F021
:101C3000800EE66E070ECFEC13F0100EE66E080E67
:101C4000CFEC13F0210EE66E200ECFEC13F0800ED9
:101C5000E66E750EB6EC13F0400EE66E7D0EB6EC39
:101C600013F0600EE66E7F0EB6EC13F0980EE66E83
:101C7000310EB6EC13F0950EE66E5D0EB6EC13F079
:101C80000F0EE66E020EA5EC14F0026EA00E02140A
:101C9000A008F6E1E60EE66E650EB6EC13F0030E54
:101CA0004BEC14F0020EE66E010ECFEC13F0E66A78
:101CB00035CFE6FFB8DA42E944E9BBEF13F0ADEC0B
:101CC00013F082E943E881A2F0800F013AA11ED00F
:101CD000D2C1C9F1D3C1CAF10101CB6BCC6BD89091
:101CE000CC51000A08E6400EC95D000ECA59000E2C
:101CF000CB59000ECC5906E30101D26BD36B0F0117
:101D00003A9104D00101D22B000ED3230101D169F5
:101D1000026A020E025C09E211EC14F0000803E210
:101D200002EBD1F102D0022AF4D7020E0101D15DFB
:101D300001E3F6D0010E046EC0EC14F0400B01E19B
:101D4000046A0201786B806BE3EC14F0E92A000E60
:101D5000EA22EF50CC0B036E0350080A01E1C2D017
:101D6000840A6CE0040A49E0080A38E04C0A16E0EC
:101D7000040A01E0B7D08EEC14F005E194EC14F005
:101D800002E1020178850201788F045004E063ECDF
:101D900014F0070E5CD07FEC14F06AD00201788F4B
:101DA00004500AE063EC14F00D0E6AEC14F0E70F37
:101DB00072EC14F0150E62D00101B9EC14F0EFCF03
:101DC00081F2D2EC14F00E0ECFEC14F00F0E6AEC90
:101DD00014F0E50F72EC14F0170E50D00201788564
:101DE000788F010E806F63EC14F0050E6AEC14F02E
:101DF000F50F72EC14F0070E41D08EEC14F005E1F3
:101E000094EC14F002E1020178850201788F010E52
:101E1000806F045009E17FEC14F06AEC14F0F10FCC
:101E200072EC14F00B0E2AD063EC14F0070E6AEC7F
:101E300014F0F30F72EC14F0090E20D00201788F29
:101E4000010E806F04500AE063EC14F00C0E6AEC93
:101E500014F0ED0F72EC14F00F0E10D0E3EC14F050
:101E60000C0ED5EC14F0B9EC14F0DEEC14F00E0E00
:101E70006AEC14F0EB0F72EC14F0110E02017B27E8
:101E8000000E7C230101C0EC14F0080B22E040ECB2
:101E900014F0F550010A12E0050A0EE0030A0CE006
:101EA000040A08E0050A06E0040A02E0070A09E15C
:101EB000150E05D00D0E03D0090E01D0050E02013E
:101EC0007D5F050E02017B257B6F000E7C217C6F00
:101ED00078870101C0EC14F0070B0EE0030A08E05C
:101EE000020A03E021D8000E1CD00201789102D032
:101EF00002017881789303D002017881788387EC9E
:101F000014F0EF50FE0F51EC14F0EFCF7FF287EC9E
:101F100014F0EF0451EC14F0EFCF7EF2010E01D07B
:101F2000000E44E9BBEF13F0020E0101D15D03E2A4
:101F3000A0EC13F0EF6A1200ADEC13F08CE94CE862
:101F40000D6A0E6AA9EC13F0040B02E0010E066E96
:101F5000A9EC13F0080B01E0076AA9EC13F0030BDE
:101F6000010802E1030E06D0A9EC13F0030B0009EF
:101F700002E1010E0E6E0F01365108180DE13751C6
:101F800009180AE1361D01E1371D06E0050E0C6E49
:101F90000E8C010E0F6E03D0070E0C6E0F6A0650EA
:101FA00002E0020E01D0080E0C26075002E0020EDD
:101FB00001D0080E0C26CDDB080B01E00E86C9DB34
:101FC000200B04E0C6DB040B01E10E8AC2DB030B2D
:101FD000030807E10E6A070E0C6E0F6A010E076E0A
:101FE000039A0CEBE6FFC3EC14F0080B04E00C5072
:101FF0000024050F02D00C500024E66EA4DB0EEB8B
:10200000E6FFC3EC14F0030B030804E1800EAAEC16
:1020100014F02ED0065004E0075002E0880E0DD0D8
:10202000065004E0075002E1C80E07D0065004E154
:10203000070402E18C0E01D0CC0EAAEC14F083DB75
:1020400008EBE6FF80DB09EBE6FFC3EC14F0040BC2
:1020500004E0E66878DBE6680BD006500BE004EBA2
:10206000E9FF05EBEAFFC6EC14F0042858EC14F085
:102070006ADB0BD00E6A080E0E5C07E20E500424D9
:1020800058EC14F060DB0E2AF6D70F5006E136CF7D
:10209000E6FF59DB37CFE6FF56DB075007E038CFC6
:1020A000E6FF51DB39CFE6FF4EDB09D00E6A080EA2
:1020B0000E5C05E20E50D2DB46DB0E2AF8D749DB78
:1020C000080B3DE00E6A040E0E5C0AE20E50EA6A4E
:1020D000240FE96E0F0EEA22C6EC14F00E2AF3D795
:1020E0000F01242B000E252326232723245105E14D
:1020F000030E251502E19AEC14F0070EF66E000EA1
:10210000F76E0800F5CFE6FF1EDB0E6A100E0E5CC0
:1021100011E20E50ACDB0E500101CA6B800FC96F8B
:10212000020ECA23C9C1E6FFCAC1E6FFB5EC14F02E
:102130000E2AECD7A5DBF5CFE6FF590E17DB0E6AAA
:1021400000500E5C0AE20E500124E96E000E0220DF
:10215000EA6EC6EC14F00E2AF3D70F013A81F9DAD1
:10216000200B07E0F6DA040B04E1050E0E6E3A834D
:1021700003D0010E0E6E3A93ECDA080B01E00E82EA
:102180000EEBE6FF370EF2DA3BDB106ECA51116E32
:10219000CB51126ECC51136E81A2F0800F013AB177
:1021A00004D03AA53DD03A9539D02ADB146ECA51F5
:1021B000156ECB51166ECC51176E14EBCDF115EB9D
:1021C000CEF116EBCFF117EBD0F1D950100FE96E2D
:1021D000000EDA20EA6EEE50CD5DC96FEE50CE599A
:1021E000CA6FEE50CF59CB6FEE50D059CC6FD8801C
:1021F0001A0EC955060ECA55000ECB55000ECC5509
:10220000CBE2B3DC360EE66E0F0EE66E380EE66EEF
:102210000F0EE66E5FD844E90F013A91000E01D02F
:10222000010E4DE9A8D299DA84E90B0E015C03E3B3
:1022300001501A0802E2000E10D001EB35FF0B0E20
:10224000015C100DF350030926DB040EE66E6D0EE3
:102250008DDAE66A6D0E8ADA010E41E98CD27DDAFA
:1022600083E942E80A0EE66E00EBE6FF46EC20F05A
:1022700041E9E750046E0A0EE66E00EBE6FF43EC20
:1022800020F041E9E750400DF350036E045005087B
:1022900002E2380E17D00450040802E2300E12D0C9
:1022A0000450030802E2280E0DD00450020802E296
:1022B000200E08D00450010802E2180E03D004508A
:1022C00002E0100E032603EBE6FF030E68DA010EB0
:1022D00043E951D242DA86E902EBE9FF03EBEAFF78
:1022E000EFCF38FF0228E96E000E0320EA6EEFCF31
:1022F00039FF00EBE9FF01EBEAFFEFCF36FF0028E3
:10230000E96E000E0120EA6EEFCF37FF38CFE6FF0F
:10231000070E2CDA39CFE6FF090E28DA36CFE6FFB2
:10232000030E24DA37CFE6FF050E20DA010E41E96D
:1023300022D213DA85E941E800EB21FF01EB22FF0D
:1023400002EB23FFD6CF34FF0F010B0E356F0DDCF0
:102350000F013A6B056A020E055C05E20550C8DA0A
:10236000EF6A052AF8D7D9CFE9FFDACFEAFFEF50B5
:10237000040B0CE005DA45EC1FF046E9040E0F01F2
:102380002527000E26232723D5DA0CD00F01246B36
:10239000256B266B276BCEDA0F01010E246F256BA0
:1023A000266B276B010E42E9E6D1D8CFE4FFE0CFE0
:1023B000E4FFE46EE9CFE4FFEACFE4FFFCC0E4FF12
:1023C000FDC0E4FFFEC0E4FFFFC0E4FFF6CFE4FF82
:1023D000F7CFE4FFF5CFE4FFF3CFE4FFF4CFE4FF62
:1023E000FACFE4FF01EEC9F0080EE80403E3EECFF4
:1023F000E4FFFBD7E652B1D982E949E8F050080B77
:1024000001E165D1F050010B01E161D1F090620E64
:102410003DDA046E02DA010B14E00F013A9101017A
:10242000D26BD36B0F013AA30CD0480E2FDA066E95
:10243000D950060F84DA010B02E00F013A850F0133
:102440003A93EBD9080B01E1E0D00768026A020E6B
:10245000025C07E2E6D903E182EB07F002D0022A30
:10246000F6D7020E075C01E3CCD00F013AA783D068
:102470005E0E0CDA086E0F013A9708B27FD0060E96
:10248000026E010EB9D9096E09BC02D0020E0226F5
:10249000020EB2D9096E0C0E09140C0802E1080EE6
:1024A00001D0020E0226036A080E035C0BE2025002
:1024B0000F013E6B000F88D9280FE96E0F0E6ADA04
:1024C000032AF2D7036A040E035C0BE202500F01E9
:1024D0003E6B080F79D9300FE96E0F0E5BDA032AD5
:1024E000F2D7026A0A0E025C1CE29FD90C0E62D976
:1024F000EF50800B14E0280EE66E0F0EE66E95D9B5
:10250000040E58D9E9CF3BFFEACF3CFFE9CFE6FF05
:10251000EACFE6FFF1EC05F044E9000902E1022A06
:10252000E1D70A0E025C2CE25FD9EE500F01305D5C
:10253000EE503159EE503259EE5033591FE3E868EE
:1025400030190FE1E86831190CE1E868321909E146
:10255000E868331906E148D9EE6AEE6AEE6AEE6A77
:102560000FD042D930CFEEFF31CFEEFF32CFEEFFAA
:1025700033CFEEFF05D03AA903D03A99A0D93FD086
:10258000040EE66E730EF2D8E66A030EDED9020F71
:10259000E66E02D9E552E750EF6EFED8EFCF3BFF73
:1025A000580E0F013B5D28E20F013A8B010E026EBF
:1025B000F3D8EF50020FD88002541EE302500F01EF
:1025C0003E6B000F3D6F030E3E233DCFE6FF3ECF37
:1025D000E6FF77EC0DF042E9E66EDED8EE52E9CF89
:1025E0003BFFEACF3CFF02040F01EA6AE924E96EEF
:1025F0003C51D0D9022ADCD7C0D9E66A730EB6D8CE
:1026000004D0BBD90F013A973A9907D9100B5FE074
:102610000F013AA107D03A89800EE66E590EA6D86E
:102620004ED954D0060E026E010EE6D80A6E0ABCD0
:1026300002D0020E0226020EDFD80A6E0C0E0A1419
:102640000C0802E1080E01D0020E0226036A0A0EEF
:102650000224035C07E203500F013C6B010FEDD82D
:10266000032AF5D702500F013C6B0C0FE6D8036E1E
:10267000070EF66E000EF76E0800F550035C06E0DC
:10268000800EE66E590E72D80F013A890F013AB9E1
:102690001ED0026A100E025C10E20250E8D802500E
:1026A0000F013C6BB00F3B6F020E3C233BCFE6FFAC
:1026B0003CCFE6FF5AD9022AEDD70F013A87E0D87E
:1026C000F550080DF3504009E66E590E4FD8F2A4AC
:1026D00009D0F2AA07D0F2940101D42BD45102E11F
:1026E0000101D52B03EC1FF04AE9E5CFDAFFE7CF74
:1026F000D9FFE55201EED0F0080EE80403E3E5CF80
:10270000EDFFFBD7E5CFFAFFE5CFF4FFE5CFF3FF11
:10271000E5CFF5FFE5CFF7FFE5CFF6FFE5CFFFF01B
:10272000E5CFFEF0E5CFFDF0E5CFFCF0E5CFEAFF29
:10273000E5CFE9FFE550E5CFE0FFE5CFD8FF10009A
:10274000D15178EF14F00D500D2AE66EE66AB5EF20
:1027500014F0D950030F9FEF14F0D9CFE6FFDACF72
:10276000E6FFE1CFD9FFE2CFDAFF1200E66E44ECDC
:102770000DF042E91200E5CFDAFFE7CFD9FF1200F2
:10278000040EE66EE66AF4C0E6FFF5C0E6FF240E2E
:10279000E66E0F0EE66E1200075078EF14F0E66E4C
:1027A000020EE66EB5EF14F0EE52E9CF79F2EACF01
:1027B0007AF21200E926000EEA221200EE52E9CF68
:1027C0007BF2EACF7CF212003D6F030E3E230350F2
:1027D0003D253B6F000E3E213C6F3BCFE6FFB5D859
:1027E000E66E0350EA6A12000250040DE2D8330E7E
:1027F000E926000EEA221200E66E030EA5EF14F0A1
:102800004AEC23F0FCC0C9F1FDC0CAF1FEC0CBF117
:10281000FFC0CCF10101C9511200D950040F9FEF44
:1028200014F0025065D8EF50120002500E0DC1D8BE
:10283000600EE926000EEA2212003B6F030E3C23D5
:102840003BCFE6FF3CCFE6FF77EC0DF042E912000C
:1028500088D800EBE6FF85D88A8612000F01EA6A65
:102860002225E96E2351EA22EFCFE6FF1200F76A34
:102870002E0FF66E000EF7220800F5CFE6FF1200CD
:10288000060EF66E000EF76E08001200E66E5BECA8
:102890000DF041E91200E66EE66A020EE66EB5EF53
:1028A00014F00101EA6AC925E96ECA51EA22120050
:1028B000E96E000E0520EA6EEFCFE6FF1200010E72
:1028C000E66E1B0E12007FD8030E6FD86BD8040E75
:1028D000CFEF14F002017927000E7A23010130DFD7
:1028E000EF50120002017D6F01012ADFDEEF13F0CD
:1028F000590D5FD8000EE926010EEA22120063D8B6
:10290000070E53D84FD8080E4AD8090E12005BD8CC
:10291000E9CFC9F1EACFCAF1A0EF13F043D8050E11
:1029200049DFEF50FF0812003DD8060E43DFEF509D
:10293000FF08120025DF67EC1FF046E91200E96E80
:10294000000EDA20EA6EEF501200E66E77EC0DF022
:1029500042E91200E66EF7DE0F013451342BE66EC9
:102960001200F0EC23F041E912000DEC0DF043E908
:10297000120018D80D0EDAEF13F0A1DFB6EF13F046
:1029800011D8EF501200DFDEA9EF13F0EFCFE6FF12
:10299000A3EF13F0EA22E552E750EF6E12000ADFD0
:1029A000DEEF14F0CDDEEE52120004DFEFCF81F245
:1029B0001200F3CFE9FFF4CFEAFF1200EFCF82F26B
:0C29C000BFDED4EF13F00101D2EF14F0E1
:0429CC0090DB86E92D
:1029D0000150010600090CE002EBE6FF03EBE6FF05
:1029E00000EBE6FF69DBF4E1CA1DF2E1010E01D064
:1029F000000E41E9E5CFDAFFE7CFD9FF120077DB20
:102A000089E97BE80A6A0B6A02EBF6FF03EBF7FF42
:102A100004EBF8FF0800F550096E095001E12DD3D1
:102A2000250E095C01E01BD30C6A0D6A0E6A0F6A61
:102A3000106A2DDB2D0E095C0CE02B0E095C09E001
:102A4000200E095C06E0230E095C03E0300E095CF1
:102A500015E10950300A10E0130A0CE0030A08E0FF
:102A60000B0A04E0060AE5E10C80E3D70C82E1D70B
:102A70000C84DFD70C86DDD70C88DBD72A0E095CE7
:102A800013E1A5DB0DE30C801CEBC9F11DEBCAF1D2
:102A90000101C96DCA1F000ECA23C9510D6E02D0B3
:102AA0009CEB0DF0F4DA07D0126A3FDB02E06BDB3F
:102AB000FCD792EB0DF00CB00C982E0E095C15E1D2
:102AC000E6DA2A0E095C08E182DB04E29CEB0EF0F8
:102AD000010E0F6EDCDA09D0126A27DB02E053DB4D
:102AE000FCD792EB0EF0010E0F6E680E095C07E149
:102AF000CEDA680E095C1DE1030E106E19D0740E5B
:102B0000095C16E07A0E095C13E0480E095C06E0E9
:102B1000540E095C03E05A0E095C02E1020E07D074
:102B20006C0E095C03E06A0E095C03E1010E106E95
:102B3000AEDA09506E0A01E16ED21E0A01E128D117
:102B4000200A01E125D13F0A01E1FDD01A0A01E185
:102B5000FAD00D0A01E1F7D0200A01E1F4D03A0AD7
:102B600001E1F1D0200A01E1EED0260A01E1EAD02C
:102B70000D0A01E1E7D01A0A01E19ED0200A3BE0EC
:102B8000300A1AE0460A0EE0250A01E072D2D95056
:102B9000020FE96E000EDA20EA6E010EEE5E000E04
:102BA000EE5AEE5A0FDB250EE66E86DA03E1CA1DF9
:102BB00001E159D20A2A5BD2116A0D50010803E2E1
:102BC0000D04116EF5DA115007E0010E0C1404E14A
:102BD0006DDA01E048D2116AD3DAEF50096ECBDA30
:102BE00003E1CA1D01E13FD20A2A000E0B225EDA80
:102BF00001E13FD238D2020E105C08E1030E4EDA3A
:102C0000EE50176EEE50186EEF5007D0E7DACB6B30
:102C1000C951176ECA51186ECB51196E17EBE6FFEA
:102C200018EBE6FF19EBE6FF1BEC23F043E9FCC0D1
:102C3000C9F1FDC0CAF1FEC0CBF10101C9511C6E42
:102C4000CA511D6E0F5006E01C500E5C03E20E5080
:102C50001C6E1D6A1C500D5C02E29CEB0DF050DAFC
:102C600005E00D500E5C02E28EEB0DF00CB004D0CE
:102C70001DDA01E0F8D1116A126A17EBF6FF18EBC2
:102C8000F7FF19EBF8FF0800F550096E095010E046
:102C90000D50125C0DE26FDA03E1CA1D01E1E3D1D0
:102CA0000A2A000E0B22122AD950170F55DAEBD739
:102CB000FDD901E1DED1D7D163DAEE501A6EED50C5
:102CC0001B6E1AEBE6FF1BEBE6FF0DEC23F042E96F
:102CD000F3501C6EF4501D6E0F5006E01C500E5C3D
:102CE00003E20E501C6E1D6A1C500D5C02E29CEB50
:102CF0000DF006DA05E00D500E5C02E28EEB0DF0F1
:102D00000CB004D0D3D901E0AED1116A126A1AEB2B
:102D1000E9FF1BEBEAFFEF50096E09500FE00D5081
:102D2000125C0CE228DA03E1CA1D01E19CD10A2AF7
:102D3000000E0B22122A1A2A1B22E9D7B7D901E169
:102D400098D191D10C8E10040AE1040EA7D9EE504F
:102D5000136EEE50146EEE50156EEF5032D0030E1F
:102D6000105C16E10CAE0CD00BDAEFCFC9F101010B
:102D7000CA6BCB6BCC6BC9AF23D0CA69CB691FD0F0
:102D8000FFD9EFCFC9F10101C951136E146A20D0E8
:102D9000020E105C0CE10CAE06D0030E7FD9B6D942
:102DA000CBAF0ED00CD0030E79D9B0D909D00CAE70
:102DB0000AD014DACB6BCC6BCAAF02D0CB69CC692A
:102DC000BCD9166E07D00ADAC951136ECA51146EF7
:102DD000156A166A0F5002E1010E0E6E1E6A1F6A16
:102DE000D950400FE66E000EDA20E66EE552E5504F
:102DF000436EE750426E416A116A0A0E106E095026
:102E0000780A12E0200A10E0280A0CE0200A0AE002
:102E10003F0A06E00D0A02E0200A08E1020E05D092
:102E2000080E03D0080E0926100E106E0CBE02D03C
:102E30000C920C94800E0C1417E0163415E3E6681F
:102E4000E668E668E66842D965EC20F0E552E5CF31
:102E5000CCF1E5CFCBF1E5CFCAF1E7CFC9F1010164
:102E60006CD9166E2D0E07D00CA202D02B0E03D0FB
:102E70000CA404D0200E206E1E2A01D0206A0E5011
:102E800005E1135014101510161061E00101D40E65
:102E9000C96F480ECA6F000ECB6F83D9C5EC20F006
:102EA000E552E5CFCFF1E5CFCEF1E5CFCDF1E7CFDC
:102EB000CCF10101C951CC25F36ECA51CD21F46E7C
:102EC000CB51CE21F86EF4CFF7FFF3CFF6FF080019
:102ED000F550126E580E095C05E1610E125C02E3BA
:102EE000200E125E5ED9C2EC20F0E552E550166E5F
:102EF000E550156EE550146EE750136E42EBE9FF96
:102F000043EBEAFF4206000E435A12EBEFFF1E2A84
:102F10001350141015101610B9E10CA619D06F0E2D
:102F2000095C06E10E501E5C13E31E280E6E10D0E5
:102F3000780E095C09E0580E095C06E0620E095C37
:102F400003E0420E095C04E1020E1F6E01D01E6A0E
:102F5000100E0C1407E00D500E5C04E20F5002E15D
:102F60008DEB0EF00E501E5C03E21E500E5E01D083
:102F70000E6A0E501E241F24D8800D5407E20E50F6
:102F80000D5CD8801E54D8801F54116E010E0C1495
:102F900006E1115004E08AD866E10AD9116A20508E
:102FA00007E010D920EBE6FF87D802E1CA1D5BE0FD
:102FB0001F500BE007D9300EE66E7ED802E1CA1D25
:102FC00052E0D9D802E1CA1D4EE00E501F5C02E269
:102FD0001F500E5E300EE66E0EEBE6FFDCD843E1CE
:102FE000422A000E432242EBE9FF43EBEAFFEF5097
:102FF000126E125008E0E6D812EBE6FF5DD8F0E161
:10300000CA1DEEE130D052D82EE10E501E241124FC
:103010001F240A262CD01050030A1CE0010A14E0D9
:10302000030A07E0ADD8C9D80AEBEEFF0BEBEDFFC2
:1030300020D08BD8CC6BCAAF02D0CB69CC69A0D8DA
:103040004ED8CCC1EEFF15D080D8CABFCB6998D876
:1030500046D80FD095D8B1D80AEBEFFF0AD08BD85D
:1030600005E1CA1D03E1F368F4680BD00A2A000EDB
:103070000B22D950020F70D8CDD40AEBF3FF0BEB23
:10308000F4FF7CE9E5CFDAFFE7CFD9FF1200D95092
:10309000020F62D80800F550096E1200005E000EA3
:1030A000015A00EBE9FF01EBEAFF1200200EE66E89
:1030B00011EBE6FFCBEF18F0BDEC23F043E9F3CFC3
:1030C000C9F1F4CFCAF10101F31C120013EBE6FFC2
:1030D00014EBE6FF15EBE6FF16EBE6FF12006DD8EA
:1030E000C9C1EEFFCAC1EEFFCBC1EEFF1200D9CFBE
:1030F000E6FFDACFE6FFE1CFD9FFE2CFDAFF120039
:103100001C500D5C116E54D80F501200EECFC9F157
:10311000EECFCAF1EFCFCBF10101CC6B1200EECFB5
:10312000C9F1EFCFCAF1010112000950E66EE66A5B
:103130002DEC24F042E9F3501200C951136ECA512C
:10314000146ECB51156ECC5112000AEBC9F10BEB8A
:10315000CAF10101CB6B1200E96E000EDA20EA6EB3
:10316000EF2AEECFF6FF000EEF22EECFF7FFEF22B1
:10317000EECFF8FF120026D809EBE6FF5CEF18F05F
:10318000020E4EEF18F00A0E1202F3500924D00F6F
:10319000126E47EF18F016D8E6EC14F044E9000977
:1031A000120010EBE6FFE66AE66AE66A66EF18F0E0
:1031B00011500A26000E0B221200EE50EFCFEAFF4C
:1031C000E96E120005EBE6FF06EBE6FF1200D8DF22
:1031D000EE501C6EED501D6E1D341200D1DF8FEFCE
:0231E00018F0E5
:0E31E2005258204D657373616765733A20255E
:1031F0003364005458204D657373616765733A20DA
:103200002533640020556E696361737420466169DB
:103210006C6564000D0A556E6963617374204661C4
:10322000696C65640D0A003A20002066726F6D209B
:1032300000556E6963617374205061636B6574201F
:10324000776974682052535349200042726F616459
:1032500063617374205061636B657420776974686F
:1032600020525353492000536563757265642000F2
:103270005242303A2042726F61646361737420205D
:103280005241353A20556E69636173740020436F73
:103290006E6E6563746564205065657220206F6E84
:1032A000204368616E6E656C20256400436F6E6E0E
:1032B000656374696E67205065657220206F6E20AB
:1032C0004368616E6E656C20256420002069732060
:1032D0006E6F7420737570706F7274656420696EA0
:1032E0002063757272656E7420636F6E64697469B1
:1032F0006F6E2E0D0A000D0A53656C656374696F5D
:103300006E206F66206368616E6E656C20000D0A2A
:103310000D0A000D0A20202020202020202020201F
:1033200020202020202020202020626520746F672C
:10333000676C65642075706F6E2072656365697671
:10334000696E67206D657373616765732E20000D6C
:103350000A20202020202020202020202020202083
:103360002020202020203220746F20756E69636138
:10337000737420656E63727970746564206D657313
:10338000736167652E204C454420322077696C6C50
:10339000000D0A2020202020202020202020202076
:1033A0002020202020202020427574746F6E203150
:1033B00020746F2062726F616463617374206D6545
:1033C00073736167652E205075736820427574743D
:1033D0006F6E000D0A202020202020202020202099
:1033E00020202020202020202020746F20696E645F
:1033F000696361746520636F6E6E656374696E677F
:10340000207769746820706565722E205075736826
:10341000000D0A20202020202020202020202020F5
:103420002020202020202020506F776572206F6E92
:103430002074686520626F61726420756E74696CB7
:10344000204C45442031206C696768747320757086
:10345000000D0A20202044656D6F20496E73747240
:10346000756374696F6E3A000D0A20202020205287
:1034700046205472616E736365697665723A204DB9
:10348000524632344A3430000D0A202020202020B9
:1034900020202020202020204C454420323A204467
:1034A00037000D0A2020202020202020202020204E
:1034B00020204C454420313A204438000D0A202079
:1034C00020202020202020202020202020202020FC
:1034D00020202055534220706F7274000D0A202066
:1034E00020202020202020202020202020202020DC
:1034F000202020525332333220706F7274000D0A34
:103500004F757470757420436F6E6669677572616C
:1035100074696F6E3A000D0A2020202020202020A0
:10352000202020427574746F6E20323A205241354B
:10353000000D0A202020202020202020202042755D
:1035400074746F6E20313A20524230000D0A496E79
:1035500070757420436F6E66696775726174696F08
:103560006E3A000D0A5374617274696E67204E6F73
:1035700064652032206F662053696D706C6520444D
:10358000656D6F20666F72204D69576928544D290B
:1035900020537461636B202E2E2E0053696D706C66
:1035A00065204D6957692044656D6F4D5246323430
:1035B0004A3430204E6F64652032000D0A53636137
:1035C0006E204368616E6E656C200053686F727484
:1035D000416464723A002050414E49443A004368C5
:1035E000616E6E656C3A002020000D0A41766169BB
:1035F0006C61626C65206E6F6465730D0A48616E64
:10360000646C652052582044432050414E49442068
:1036100041444452204C4F4E475F41444452202085
:10362000202020202020504545525F494E464F0D16
:103630000A0020204368616E6E656C3A20002020ED
:1036400050414E49443A2000202053686F72742044
:10365000416464723A20000D0A0D0A416464726587
:1036600073733A203078000D0A4A6F696E207468CF
:1036700065206E6574776F726B2073756363657315
:093680007366756C6C790D0A008B
:06368A00D9CFE6FFDACF04
:10369000E6FFE1CFD9FFE2CFDAFF82E946E8036A2D
:1036A000046A056A066A47EC1EF0D5EC21F0010EAB
:1036B000E66EE66A9B0EE66E350E5ED9630EE66E2A
:1036C000350E42D94C0EE66E350E3ED9310EE66E01
:1036D000350E3AD9160EE66E350E36D9FE0EE66E6A
:1036E000340E32D9DC0EE66E340E2ED9BC0EE66EE8
:1036F000340E2AD9A20EE66E340E26D9880EE66E56
:10370000340E22D9680EE66E340E1ED9510EE66EC6
:10371000340E1AD9110EE66E340E16D9D30EE66E9B
:10372000330E12D9910EE66E330E0ED94F0EE66EA1
:10373000330E0AD9130EE66E330E06D90E0EE66E60
:10374000330E02D98C9E8C9CE66A11EC06F041E99E
:10375000D7C1E6FFB4EC06F041E900090EE1F60E30
:10376000E66E320EF1D8D7C1E6FF14EC22F041E943
:10377000CC0EE66E320EE8D8E1D0E66AC9EC06F06F
:1037800041E9E66AD7C1E6FFAC0EE66E320EF4D828
:10379000E66AE66877EC07F042E9026EFF0E025C2B
:1037A000F7E0010EE66ED7C1E6FF8D0EE66E320E33
:1037B000E3D8E66824EC04F041E98C8EE66AE66A18
:1037C000700EE66E320ED8D880EC08F0000955E095
:1037D000020101A704D0670EE66E320EB5D80201D1
:1037E0000151030B000904E04B0EE66E320E03D0CC
:1037F000310EE66E320EA8D809C2E6FF02EC22F0C6
:1038000041E9020101AD1ED02A0EE66E320E9CD8AF
:10381000020101AF0CD0010EA4D804C2E9FF05C219
:10382000EAFFEFCFE6FF02EC22F041E90BD0026A9B
:10383000080E025C07E2070ED8800254020191D8FC
:10384000022AF6D7270EE66E320E7ED8026A0201F1
:103850000851025C0DE20250EA6A0625E96E075142
:10386000EA22EFCFE6FFF4EC21F041E9022AEFD79C
:103870008C7C88EC08F0062A59D0ADEC1EF0076E5F
:103880000750020A24E0030A9FE102010B0E556F64
:1038900078D8000902E198D811D0026A150E025CAE
:1038A0000DE26FD8FF0F150DF3CFC9F1F4CFCAF1B8
:1038B000A80E0101C927440E76D8F0D7032AE66A7C
:1038C0008CEC08F041E906EBE6FF052A31D0020155
:1038D0000B0E556F5FD8000902E176D811D0026A4D
:1038E0000B0E025C0DE256D8FF0F0B0DF3CFC9F1A2
:1038F000F4CFCAF1110E0101C927450E54D8F0D7F3
:10390000042A010EE66EE66AA1EC08F042E900091D
:103910000CE1140EE66E320E17D8010EE66EE66A62
:10392000040EE66E320E28D801D0052A06EBE6FF1B
:1039300005EBE6FF6FEC1EF042E946D747E9E5CF1D
:10394000DAFFE7CFD9FF1200E66EDEEC21F042E9A4
:1039500012005551552BEA6A000FE96E000EEA225B
:103960001200EA6A0425E96E0551EA22EFCFE6FF6C
:1039700002EC22F041E91200E66E8EEC1EF044E902
:103980001200060EE66E03EBE6FF46EC20F041E97E
:10399000E7501200060EE66E04EBE6FF46EC20F060
:1039A00041E9E7501200CA230250F76AC925F66EB2
:1039B000CA51F7220800F550E66E0201CADFE5524F
:1039C000E750EF6E022A12000201C3DF0D0EEF6E08
:0839D000C0DF0A0EEF6E1200C9
:0839D800949A94969E96120049
:1039E00046D901E0010E026E1ED9E66A35D9E8B06B
:1039F000F086E8A0F09611D13AD901E0010E026EEE
:103A000012D9010EE66E28D9E8B0F086E8A0F0964B
:103A100004D133D901E0010E036E05D9120E10D97D
:103A2000E8B0F086E8A0F096F8D027D901E0010EC2
:103A3000036EF9D8130E04D9E8B0F086E8A0F0962A
:103A4000ECD0D9CFE6FFDACFE6FFE1CFD9FFE2CF66
:103A5000DAFF83E9E66ADDDF41E900EBE6FFE5DF57
:103A600041E9000000000000400EE66ED2DF41E9AF
:103A70000000000000000000000000000000000046
:103A80000000E66AC6DF41E941E9E5CFDAFFE7CFAA
:103A9000D9FF1200D9CFE6FFDACFE6FFE1CFD9FF99
:103AA000E2CFDAFF83E9E66AB4DF41E9010EE66EB0
:103AB000E66A6FEC21F042E900EBE6FFB6DF41E990
:103AC0000000000000000000400EE66EA2DF41E9A9
:103AD000000000000000000000000000E66A99DF1E
:103AE00041E900D041E9E5CFDAFFE7CFD9FF120085
:103AF000D9CFE6FFDACFE6FFE1CFD9FFE2CFDAFF99
:103B000083E9010EE66EE66A6FEC21F042E9800E71
:103B1000E66E7FDF41E900EBE6FF87DF41E9000069
:103B2000000000000000C00EE66E73DF41E90000F7
:103B300000000000000000000000E66A6ADF41E9C2
:103B400041E9E5CFDAFFE7CFD9FF120092948984EB
:103B50005DD8979C8E9C5AD88E8C3EDF41DF4CDF1F
:103B6000E66A57DF41E952D83C0E7CD84FD8010EA7
:103B700032EF1EF042D882E941E8800EE66E8ADF1D
:103B800041E9026A100E025C0DE253D8EF5003E1E6
:103B9000200EE66E03D04DD8EFCFE6FFA9DF41E956
:103BA000022AF0D7C00EE66E75DF41E9100E026EF4
:103BB000200E025C0DE23DD8EF5003E1200EE66ED0
:103BC00003D037D8EFCFE6FF93DF41E9022AF0D7E1
:103BD00024D0010E3DD8020EE66EE66A6FEC21F0AD
:103BE00042E9200EE66EE66AE66E000EE66E0F0E05
:103BF000E66EF3EC22F045E91200D9CFE6FFDACF0A
:103C0000E6FFE1CFD9FFE2CFDAFF12000A0EE66E3F
:103C1000E66A6FEC21F042E9120042E9E5CFDAFFF3
:103C2000E7CFD9FF1200F0968994400EE66E43EF7D
:103C30001EF00250EA6A000FE96E0F0EEA2212002F
:103C4000E66E21D800EBE6FF1ED8898403501200EF
:103C5000E66EF7DE41E9120016D8E66A14D88984C8
:103C600002501200F5DFD2DF0C0E28EF1EF0C5DF88
:103C700082E941E8F050080B1200BFDF83E941E818
:0E3C8000F050080B1200F0EC23F041E91200A6
:023C8E00700EB6
:103C9000D36EC088DF0EC16EC268C0989268936808
:103CA0009468956A896A8A6A8B6A8C6A9380928A18
:103CB000959E959C93968A86939A8A8A93829488F5
:103CC000949A9496C00EC76E210EC66E93988A88F9
:103CD000F19A92968986F28EF090A6EF1DF0B1D8F7
:103CE00084E9E9EC1DF00150E66EE66AF30EE66E3B
:103CF000310EE66EBCD80050E66EE66AE20EE66E65
:103D0000310EE66EE66A100EE66E0F0EE66E84EC7D
:103D100023F047E9BAEC1DF041E9B2D092D886E928
:103D200041E8E9EC1DF00150E66EE66A02EBE6FFC1
:103D300003EBE6FF9CD8BAEC1DF000500CE0066ADD
:103D4000080E065C08E2FA0EE66EE66A6FEC21F0F9
:103D500042E9062AF5D742E993D073D882E948E8C8
:103D600081B006D000015B514BE174D8010E49D0FF
:103D700080BA06D000015B5143E16CD8020E41D0FD
:103D80004AEC23F0FCC0C9F1FDC0CAF1FEC0CBF182
:103D9000FFC0CCF10101C951066ECA51076ECB516B
:103DA000086ECC51096ED950060FE96E000EDA206C
:103DB000EA6E00015C51EE5C0101C96F00015D51CA
:103DC000EE580101CA6F00015E51EE580101CB6F40
:103DD00000015F51EE580101CC6FC951026ECA510A
:103DE000036ECB51046ECC51056E0250FF083F0E9E
:103DF0000354000E0454000E055402E200015B6BF4
:103E0000000E49E93DD0F250100B04E0F250020BD5
:103E100001E0F292F050100B04E0F050020B01E0D0
:103E2000F092F250080B04E0F250010B01E0F29026
:103E3000A050020B05E0A150020B02E0A1928C7E83
:103E40001200D9CFE6FFDACFE6FFE1CFD9FFE2CF0C
:103E5000DAFF1200010E5B6F4AEC23F0FCC05CF04D
:103E6000FDC05DF0FEC05EF0FFC05FF01200E66ACC
:103E7000000EE66E0F0EE66E84EC23F047E91200AA
:0A3E8000E5CFDAFFE7CFD9FF12000B
:063E8A00C6D888E941E8FA
:103E9000F250800B01E0010E086EF29E8996030E2F
:103EA000C4D8005001100BE00AEC24F0E66ECFD825
:103EB000E552E750EF6E0006000E015AF2D78986F0
:103EC0000850E8B0F28EE8A0F29E42E9BBD0A4D838
:103ED00088E942E8086AF250800B01E0010E096EA1
:103EE000F29E8996050EE66EBAD80AEC24F0086EAA
:103EF000898638EC00F008B0F4D78996060EE66E95
:103F0000AED8898638EC00F08996020E8ED8086A01
:103F10000050011018E09BD8EFCFE6FFA0D80006B4
:103F2000000E015A082A085001010224C96F000E30
:103F30000320CA6FC9513F0BEBE189860850022666
:103F4000000E0322CED789860950E8B0F28EE8A091
:103F5000F29E43E977D060D886E9FA0EE96E000E4A
:103F6000EA6E0101EE500224C96FED500320CA6FC2
:103F7000CB6BCB35000ECB1907E6D880000EC955A8
:103F8000800ECA55000ECB5502E2000E0ED000EB9B
:103F9000E9FF01EBEAFFFAC0EEFFFBC0EDFF000115
:103FA0000250FA270350FB23010E41E94BD034D8CD
:103FB00082E941E8010E026E0001FA6BFB6BEC0E28
:103FC000E66E000EE66E020E21D8EE0EE66E000ED4
:103FD0004AD8F00EE66E000E46D8F20EE66E000EDF
:103FE000E66E8C0E13D8F40EE66E000EE66E040E2E
:103FF0000DD8F60EE66E000EE66E020E07D8F80E2D
:10400000E66E000E30D8025042E91CD0E66EE66A39
:10401000A2DF44E902161200D9CFE6FFDACFE6FFAD
:10402000E1CFD9FFE2CFDAFF1200E66E18D8010126
:1040300003EBC9F1CA6BC9C1E6FF11D802EBE6FF79
:104040002FEF20F0E5CFDAFFE7CFD9FF120004EB26
:10405000E9FF05EBEAFF042A000E05221200F0EC4E
:0E40600023F041E91200E66E010E06EF20F09B
:02406E0042E826
:10407000D9CFE6FFDACFE6FFE1CFD9FFE2CFDAFF13
:1040800086E9036A1200F3DF038003D0F0DF01D07A
:104090000382026A080EE76ED8900136023600509D
:1040A000025C02E3026E012AE72EF7D703B2120088
:1040B00003B081EB00F003A082EB00F0E552E5CF06
:1040C000DAFFE7CFD9FF43E9120044E8D9CFE6FF92
:1040D000DACFE6FFE1CFD9FFE2CFDAFF8EE980EB5E
:1040E00008F081EB09F082EB0AF083EB0BF004504F
:1040F0000802F350006EF450016E04500902F350B0
:104100000126000EF420026E04500A02F35002262B
:10411000000EF420036E04500B02F35003260550EA
:104120000802F3500126F4500222000E032205502B
:104130000902F3500226F450032205500A02F350FC
:10414000032606500802F3500226F45003220650BC
:104150000902F350032607500802F3500326E552E4
:10416000E5CFDAFFE7CFD9FF48E9000C45E8D9CF22
:10417000E6FFDACFE6FFE1CFD9FFE2CFDAFF8FE942
:104180000C6A1200F3DF0C8003D0F0DF01D00C8248
:104190000B6A0A6A096A086A200EE76ED89004362C
:1041A000053606360736083609360A360B3600500D
:1041B000085C0150095802500A5803500B5809E393
:1041C0000050085E0150095A02500A5A03500B5A17
:1041D000042AE72EE4D70CB212000CB00AD088EB08
:1041E00000F089EB01F08AEB02F08BEB03F00CA0FE
:1041F00008D084EB00F085EB01F086EB02F087EB52
:1042000003F0E552E5CFDAFFE7CFD9FF49E9120025
:10421000D9CFE6FFDACFE6FFE1CFD9FFE2CFDAFF71
:1042200086E944E856D000EBE6FF01EBE6FF02EB3F
:10423000E6FF03EBE6FF190EE66EE66AE66AE66A5B
:1042400065EC20F0E552E5CFCCF1E5CFCBF1E5CF41
:10425000CAF1E7CFC9F10101C951066ECA51076E13
:10426000CB51086ECC51096ED950060FE96E000E85
:10427000DA20EA6EAF0EEE5E000EEE5A000EEE5A37
:10428000000EEE5A093408E206502D08000E0754BD
:10429000000E0854000E095401E31BD0093408E253
:1042A00006500008000E0754000E0854000E095472
:1042B00010E20000D950060FE96E000EDA20EA6E17
:1042C0002A0EEE5E000EEE5A000EEE5A000EEE5A68
:1042D000E5D745E9E5CFDAFFE7CFD9FF1200D9CF1F
:1042E000E6FFDACFE6FFE1CFD9FFE2CFDAFF84E9DC
:1042F00044E800EBE6FF01EBE6FFE66AE66AC40E7F
:10430000E66E090EE66EE66AE66A65EC20F0E552B6
:10431000E5CFCCF1E5CFCBF1E5CFCAF1E7CFC9F1DD
:104320000101C951046ECA51056ECB51066ECC51C4
:10433000076ED950040FE96E000EDA20EA6EAA0E5D
:10434000EE5E000EEE5A000EEE5A000EEE5A0734E4
:1043500008E20450C308000E0554000E0654000E77
:10436000075402E31CD01BD0073408E204500008B5
:10437000000E0554000E0654000E075410E2000013
:10438000D950040FE96E000EDA20EA6E270EEE5EB9
:10439000000EEE5A000EEE5A000EEE5AE5D745E931
:0A43A000E5CFDAFFE7CFD9FF1200E6
:0643AA00948E949C240E89
:1043B000AD6E900EAC6E1F0EB06E120061D884E927
:1043C00041E800EBF6FF01EBF7FF002A000E0122A7
:1043D0000800F550046E045005E004EBE6FF04D835
:1043E00041E9EFD742E955D04BD883E9ADA2FED7DA
:1043F00000EBAEFF41E94DD0ACA202D0AC98AC8846
:10440000AF5012003DD883E941E880EB03F000385B
:104410000F0B0F0B006E005028D80F0E0314006E08
:10442000005023D842E935D02BD883E9640E005CD4
:1044300005E3640EE66E00EBE6FF30D80A0E005C82
:1044400009E30A0EE66E640EE66E00EBE6FF46EC4C
:1044500020F024D80A0EE66E00EBE6FF46EC20F0D2
:1044600041E9E75002D841E914D0F76A1E0FF66E11
:10447000000EF7220800F5CFE6FFB6DF41E9120093
:10448000D9CFE6FFDACFE6FFE1CFD9FFE2CFDAFFFF
:104490001200E5CFDAFFE7CFD9FF120043EC20F09E
:0844A00041E9E75035EF22F07D
:0844A80020B2202020B22020E8
:1044B000B220B22020202020B220B20D0AB220B2B9
:1044C00020B220B2202020B22020B22020B2202012
:1044D0000D0AB22020B22020B220B220B22020B299
:1044E0002020B220B20D0AB22020B22020B220B289
:1044F0002020B220B220B22020B20D0AB22020B279
:104500002020B220B2202020B220B2202020B20DE4
:104510000AB2B2B22020B2B2B2B20D0AB22020B2B8
:1045200020B22020200D0AB22020B220B2B2B2B2B6
:104530000D0AB22020B220B22020200D0AB2B2B261
:084540002020B2B2B2B20D0A54
:084548003E0EF66E000EF76E48
:10455000000EF86E01010900F550C46F0900F55016
:10456000C56F03E1C46701D03DD00900F550BF6FAE
:104570000900F550C06F0900F550C16F090009002E
:10458000F550E96E0900F550EA6E090009000900CE
:10459000F550C26F0900F550C36F09000900F6CF4E
:1045A000C6F1F7CFC7F1F8CFC8F1BFC1F6FFC0C160
:1045B000F7FFC1C1F8FF0101C25302E1C35307E095
:1045C0000900F550EE6EC207F8E2C307F9D7C6C17D
:1045D000F6FFC7C1F7FFC8C1F8FF0101C407000E0D
:0645E000C55BBFD712000D
:0A45E600FE0EE3CFE9FFFF0EE3CF66
:1045F000EAFFE9CFF3FFEACFF4FFFB0EE35003E15C
:10460000FC0EE35009E0FB0EE30602E2FC0EE306BB
:10461000FD0EE350EE6EF1D71200FE0EE3CFE9FF80
:10462000FF0EE3CFEAFFF36AF46AEE5203E0F34AC7
:10463000F42AFBD71200FF0EE3CFF8FFE552FF0E7E
:10464000E3CFF7FFE552FF0EE3CFF6FFE552E66A50
:10465000E66AE66A0900F55209E0FD0EE32A05E183
:10466000FE0EE32A02E1FF0EE32AF4D7FD0EE3CFAC
:10467000FCF0FE0EE3CFFDF0FF0EE3CFFEF01200E4
:10468000050ED56EF184F294F28AD58E0101D46BB9
:10469000D56B1200D9CFE6FFDACFE6FFE1CFD9FF25
:1046A000E2CFDAFF82E946E8046A056AF29AF2503C
:1046B000040B01E0010E066ED650026ED750036E59
:1046C000F250040B01E0010E076E0750065CEFE1AB
:1046D000065006E0F2940101D42BD45101E1D52B10
:1046E0000101D4510426D5510526F28A02EBFCF0D3
:1046F00003EBFDF004EBFEF005EBFFF047E9E5CF3F
:08470000DAFFE7CFD9FF120038
:08470800D9CFE6FFDACFE6FF8E
:10471000E1CFD9FFE2CFDAFF87E944E8D9CFE6FF5E
:10472000DACFE6FFE552E5500A6EE750096E09EB75
:10473000E6FF0AEBE6FF00EBE6FF01EBE6FF02EB2C
:10474000E6FFD950030FE66E000EDA20E66EFFECAE
:1047500014F047E9F350076EF450086E03EBE9FFDD
:1047600004EBEAFFEF6A07EBF3FF08EBF4FF45E920
:0A477000E5CFDAFFE7CFD9FF120012
:06477A00D9CFE6FFDACF03
:10478000E6FFE1CFD9FFE2CFDAFF85E9013415E298
:1047900000EBE9FF01EBEAFFEECFF3FFEDCFF4FF13
:1047A000EE2A000EEF22F3CFE9FFF4CFEAFF02EB8F
:1047B000EFFFEF50F36EF46A0DD0FE0E005C05E1E2
:1047C00002EBE6FF4FEC24F004D002EBE6FF07EC2F
:1047D00000F041E941E9E5CFDAFFE7CFD9FF120068
:1047E000D9CFE6FFDACFE6FFE1CFD9FFE2CFDAFF9C
:1047F00083E941E89E96C950036EC69E00EBC9FF4F
:10480000C6BEFBD79EA6FED742E9E5CFDAFFE7CFCB
:0E481000D9FF1200E66AE4DF41E9C950120048
:02481E004B004D
:10482000000070000000BB000000510100007D028C
:104830000000D504000085090000E5120000A52550
:104840000000254B000025960000252C010025586E
:0A485000020025B0040025600900F5
:06485A00F36AF46AFF0E90
:10486000E124E96EFF0EE220EA6EED6607D02F0E1E
:0E487000EF6404D03A0EEF6001D0F32A12007C
:02487E00400EEA
:10488000F36E00EE00F00F0E01D81200EA6002D0C5
:0E489000EE6AFCD7F350E9601200EE6AFCD726
:02489E00FF0E0B
:1048A000E350ADBA04D0B06AAC8EAD8A949CADA290
:0A48B000FED7AE6EF36EF46A12003C
:0648BA001EEE00F02EEEE0
:1048C00000F0F86AA4EC22F008EC00F045EC1BF0D4
:0448D000FBD7120000
:0C48D40030313233343536373839616208
:0548E000636465660041
:0B48E5000277665544332211000004E6
:0248F000FF00C7
:0248F2000000C4
:020000040001F9
:01FFF800E028
:01FFFA00C541
:01FFFB00FB0A
:00000001FF
