:020000040000FA
:060000007FEF52F0120038
:020006001200E6
:06000800E5EF39F01200E3
:02000E000001EF
:06001000020304050607CF
:020016001200D6
:06001800E5EF39F01200D3
:02001E000400DC
:1000200044A50000BB020000040000000590000091
:10003000C1020000010000003BA50000AA02000070
:100040000900000039A50000BF0200000200000006
:1000500000001200D9CFE6FFE1CFD9FF82E949E8DD
:1000600000EBE6FFD6CFE6FFB1EC4BF041E9E750FD
:10007000026E025056E00206EAEC50F0B3C2B0FE47
:10008000B4C2B1FEB5C2B2FEB6C2B3FE0E01B051EB
:10009000036EB151046EB251056EB351066EEAECB7
:1000A00050F0B3C2B0FEB4C2B1FEB5C2B2FEB6C229
:1000B000B3FE0E01B051076EB151086EB251096E18
:1000C000B3510A6E07EBB4FE08EBB5FE09EBB6FEC2
:1000D0000AEBB7FED950030FE96EDACFEAFFEE5014
:1000E0000E01B45D0E01B06FEE500E01B5590E0158
:1000F000B16FEE500E01B6590E01B26FEE500E0107
:10010000B7590E01B36FD8803E0E0E01B055000EE8
:10011000B155000EB255000EB35501E201D0BFD764
:10012000A8D74AE9E7CFD9FF1200D9CFE6FFE1CF40
:10013000D9FF81E969E88DEC37F0000902E168EF49
:1001400015F00E0149A502D062EF19F00E01016B06
:100150000E017C51040B01E0010E0E01030BF36E46
:10016000FC0E0115F310016F0E010E017C510E0102
:100170000197080B01E001870E017C51030B010878
:1001800002E1010E01D0000E0E01019BE8B0018BCF
:100190000E010E017C510E01019D800B01E0018DCD
:1001A0000E017CAF06D00E01018F7DCE04FE7ECE07
:1001B00005FE83CE0AFE82CE09FE0E0149950E0190
:1001C0007C51030B010A02E1DCEF0DF0020A02E1AF
:1001D0006FEF0CF0030A02E062EF15F00A0E0E0159
:1001E000815D02E263EF15F0020E0E01EA6A7F25DF
:1001F000E96E8051EA22EF500A6E030E0E01EA6AA0
:100200007F25E96E8051EA22EF500B6E040E0E013D
:10021000EA6A7F25E96E8051EA22EF50106E050EE2
:100220000E01EA6A7F25E96E8051EA22EF50116ED5
:10023000060E0E01EA6A7F25E96E8051EA22EF5030
:100240000C6E070E0E01EA6A7F25E96E8051EA22E4
:10025000EF500D6E080E0E01EA6A7F25E96E80519F
:10026000EA22EF500E6E090E0E01EA6A7F25E96E52
:100270008051EA22EF500F6E0E010E017C510E01EB
:100280000197080B01E001870E010151030B0009E2
:1002900006E11050FC08FF0E115401E33DD10E01A0
:1002A00039510E1802E13A510F1809E10E013B5184
:1002B0000C1802E13C510D1802E163EF15F0016AE0
:1002C000050E015C3EE20150080DF3CFE9FFF4CFCB
:1002D000EAFF840EE9260E0EEA22030EE926000E3E
:1002E000EA22EF502CE00150080DF3CFE9FFF4CFE4
:1002F000EAFF840EE9260E0EEA220E50EE1802E105
:100300000F50ED181CE10150080DF3CFE9FFF4CFB9
:10031000EAFF840EE9260E0EEA22020EE926000EFE
:10032000EA22EFCFB0FE0A0E0E01EA6A7F25E96EDF
:100330008051EA22EF500E01B05D01E102D0012AA6
:10034000BFD7050E015C02E263EF15F0016A050EEE
:10035000015C13E20150080DF3CFE9FFF4CFEAFF8F
:10036000840EE9260E0EEA22030EE926000EEA228A
:10037000EF5001E102D0012AEAD7050E015C58E2F4
:100380000150080DF3CFE9FFF4CFEAFF840EE92610
:100390000E0EEA220EEBEEFF0FEBEDFF0A0E0E0142
:1003A000EA6A7F25E96E8051EA22EF50E66E01503D
:1003B000080DF3CFE9FFF4CFEAFF840EE9260E0E15
:1003C000EA22020EE926000EEA22E552E750EF6E1D
:1003D0000150080DF3CFE9FFF4CFEAFF840EE926C0
:1003E0000E0EEA22030EE926000EEA22030EEF6E3D
:1003F000EAEC50F0B3C2B0FEB4C2B1FEB5C2B2FE78
:10040000B6C2B3FE0150080DF3CFE9FFF4CFEAFF07
:10041000840EE9260E0EEA22040EE926000EEA22D8
:10042000B0CEEEFFB1CEEEFFB2CEEEFFB3CEEEFF1A
:10043000101C01E1111C04E10E010181019313D094
:10044000FE0E101802E1FF0E111804E10E010181E9
:10045000018309D0FD0E101802E1FF0E111803E10F
:100460000E01019101837FCEE9FF80CEEAFFEF50BC
:10047000010851E27FCEE9FF80CEEAFFEF060E01D0
:100480004CA10FD008C1E6FF090EE66E010EE66E24
:1004900004C1E6FF05C1E6FF06C1E6FFF8EC35F052
:1004A00046E90101086B016A0E018151015C16E207
:1004B00001500E01EA6A7F25E96E8051EA22EF5071
:1004C000E66E01010851082BEA6A090FE96E010E78
:1004D000EA22E552E750EF6E012AE6D77CCE04F11E
:1004E000EAEC50F0B3C200F1B4C201F1B5C202F1BE
:1004F000B6C203F1C80EE66EE66AD650E66EE66A4C
:10050000DFEC4BF0E552E5CFB1FEE7CFB0FEB0CE69
:1005100007F10E014C8188D00E013B510A1802E10F
:100520003C510B1802E0F8EF0BF00E013951101896
:1005300002E13A51111802E0F8EF0BF0010E0E0142
:10054000EA6A7F25E96E8051EA22EF50040B6CE0E5
:10055000B2C200F00001020E016F0CEB02F00DEBD5
:1005600003F00EEB04F00FEB05F03BCE06F03CCEB3
:1005700007F039CE08F03ACE09F00A0E0E01EA6A09
:100580007F25E96E8051EA22EFCF0AF000010B6B64
:100590000001300E0C6F0E010D0E386F0E013A5136
:1005A0000F5C0DE0E66A0EEBE6FF0FEBE6FF0CEBEF
:1005B000E6FF0DEBE6FF07EC1CF045E933D00E013A
:1005C000796B0E01798B0EEB42FE0FEB43FE0CEBC9
:1005D00044FE0DEB45FE9FEC23F0016EFF0E015C27
:1005E00012E001500A0DF3CFE9FFF4CFEAFF7E0ECF
:1005F000E926010EEA22040EE926000EEA22E9CFDE
:100600007AFEEACF7BFE38CEE6FF000EE66E000EE5
:10061000E66E79CEE6FF7ACEE6FF7BCEE6FFF8EC1B
:1006200035F046E90E0101850B0E0E01EA6A7F25C1
:10063000E96E8051EA22EF5002E0B7EF0BF00C0EAA
:100640000E01EA6A7F25E96E8051EA22EF503008F8
:1006500002E19DEF0BF00C0E0E01EA6A7F25E96EB8
:100660008051EA22EF50110A02E1CFEF0AF0B50AF9
:1006700002E1F7EF08F0070A02E1D1EF08F0010A02
:1006800002E197EF08F0030A02E1ABEF07F0010A7D
:1006900001E1C8D1B00A02E09BEF0BF00E0166B396
:1006A00054D0EAEC50F0B3C275FEB4C276FEB5C2C7
:1006B00077FEB6C278FE080E0E01EA6A7F25E96E63
:1006C0008051EA22EFCF68FE090E0E01EA6A7F250B
:1006D000E96E8051EA22EFCF69FE126A040E125CC5
:1006E00016E2020E12240B0F0E01EA6A7F25E96E54
:1006F0008051EA22EF50E66E1250EA6A6A0FE96E04
:100700000E0EEA22E552E750EF6E122AE7D70E01ED
:1007100066830E016691126A010E125C15E2110EDB
:1007200012240E01EA6A7F25E96E8051EA22EF5019
:10073000E66E1250EA6A6E0FE96E0E0EEA22E5527C
:10074000E750EF6E122AE8D76BD1080E0E01EA6A65
:100750007F25E96E8051EA22EF500E01685D0CE1C1
:10076000090E0E01EA6A7F25E96E8051EA22EF50F8
:100770000E01695D01E154D10E016851691101E07A
:10078000B8D0126A040E125C26E20D0E12240E017D
:10079000EA6A7F25E96E8051EA22EF50E66E125038
:1007A000EA6A710FE96E0E0EEA22E552E750EF6E2B
:1007B0001250EA6A710FE96E0E0EEA22EF50E66EF1
:1007C0001250EA6A3E0FE96E0E0EEA22E552E75039
:1007D000EF6E122AD7D7080E0E01EA6A7F25E96E5E
:1007E0008051EA22EFCF6FFE090E0E01EA6A7F25E3
:1007F000E96E8051EA22EFCF70FE6FCE42FE70CEDE
:1008000043FE3BCE44FE3CCE45FE9FEC23F00E0162
:10081000676FFF0E0E01675D67E10E018D0E4A6F77
:100820000E0142AF02D00E014A91E1EC24F00E011C
:10083000676FFF0E0E01675D57E2126A010E125CD0
:1008400029E2110E12240E01EA6A7F25E96E805119
:10085000EA22EF50E66E0E0167510A0DF3CFE9FF71
:10086000F4CFEAFF7E0EE926010EEA22090EE92600
:10087000000EEA22E9CFB0FEEACFB1FE12500E011F
:10088000EA6AB025E96EB151EA22E552E750EF6E0F
:10089000122AD4D70A0EE66EE66A0E0167510A0DD7
:1008A00001010101E851F3240E01B06F01010101C2
:1008B000E951F4200E01B16FB0CEE6FFB1CEE6FFF4
:1008C0000E0167510A0DF3CFB2FEF4CFB3FE7E0ED8
:1008D0000E01B227010E0E01B323B2CEE6FFB3CE56
:1008E000E6FF87EC4AF046E90E0166830E01668159
:1008F00097D0EE0EE66E8F0EE66E9EEC4FF042E95C
:100900000E010B0E386F0E013851382BEA6A000FBA
:10091000E96E000EEA22EF6A0E013851382BEA6ABE
:10092000000FE96E000EEA22110EEF6E126A040E3D
:10093000125C28E20D0E12240E01EA6A7F25E96E90
:100940008051EA22EF50E66E1250EA6A710FE96EAA
:100950000E0EEA22E552E750EF6E1250EA6A710F6E
:10096000E96E0E0EEA22EF50E66E0E013851382B7A
:10097000EA6A000FE96E000EEA22E552E750EF6ED8
:10098000122AD5D7080E0E01EA6A7F25E96E80513A
:10099000EA22EFCF6FFE090E0E01EA6A7F25E96EAB
:1009A0008051EA22EFCF70FE0E013851382BEA6AEF
:1009B000000FE96E000EEA226FCEEFFF0E013851F4
:1009C000382BEA6A000FE96E000EEA2270CEEFFFC4
:1009D000126A010E125C17E2110E12240E01EA6A6D
:1009E0007F25E96E8051EA22EF50E66E0E01385104
:1009F000382BEA6A000FE96E000EEA22E552E75052
:100A0000EF6E122AE6D7E66AE66A680EE66E0E0E0A
:100A1000E66E3AEC2DF044E90E0166830E01668124
:100A20009CEF0BF0020E0E01655D01E093D20D0EFE
:100A30000E01EA6A7F25E96E8051EA22EF5001E05B
:100A40009FD10E010B0E386F0E013851382BEA6A18
:100A5000000FE96E000EEA22EF6A0E013851382BC2
:100A6000EA6A000FE96E000EEA22A10EEF6E016A3B
:100A7000040E015C2AE20E0E01240E01EA6A7F25B3
:100A8000E96E8051EA22EF50E66E0150EA6A3E0FAD
:100A9000E96E0E0EEA22E552E750EF6E0E0E0124CB
:100AA0000E01EA6A7F25E96E8051EA22EF50E66E78
:100AB0000E013851382BEA6A000FE96E000EEA2267
:100AC000E552E750EF6E012AD3D77FEC24F0136E86
:100AD000FF0E135C01E0A8D00E01426B010E016E07
:100AE000100E015C0BE201EB43FE9FEC23F0136E52
:100AF000FF0E135C01E102D0012AF2D7100E015C57
:100B000001E388D00150EA6A4E0FE96E010EEA2235
:100B10000FEBEFFF0E013851382BEA6A000FE96E38
:100B2000000EEA2201EBEFFF0E019D0E4A6F3BCE55
:100B300044FE3CCE45FEE1EC24F0136E0A0E135C3D
:100B400058E2016A010E015C28E2120E01240E0136
:100B5000EA6A7F25E96E8051EA22EF50E66E135073
:100B60000A0DF3CFE9FFF4CFEAFF7E0EE926010E6E
:100B7000EA22090EE926000EEA22E9CFB0FEEACF0A
:100B8000B1FE01500E01EA6AB025E96EB151EA22C8
:100B9000E552E750EF6E012AD5D70A0E135C28E222
:100BA0000A0EE66EE66A13500A0D01010101E851D2
:100BB000F3240E01B06F01010101E951F4200E018F
:100BC000B16FB0CEE6FFB1CEE6FF13500A0DF3CF02
:100BD000B2FEF4CFB3FE7E0E0E01B227010E0E015F
:100BE000B323B2CEE6FFB3CEE6FF87EC4AF046E988
:100BF00010D00150EA6A4E0FE96E010EEA22EF684A
:100C00000E013851382BEA6A000FE96E000EEA2215
:100C1000EF6809D00E013851382BEA6A000FE96EEF
:100C2000000EEA22EF6885D013500A0DF3CFE9FFDA
:100C3000F4CFEAFF7E0EE926010EEA22020EE92633
:100C4000000EEA22EF5065E18FEB14F0145027E01C
:100C50001450EA6A4E0FE96E010EEA22EFCFB0FEA1
:100C600013500A0DF3CFE9FFF4CFEAFF7E0EE92619
:100C7000010EEA22020EE926000EEA22E92A000EFF
:100C8000EA22EF500E01B05D01E109D01450EA6A8A
:100C90004E0FE96E010EEA22EF50146ED7D71450B2
:100CA00019E113500A0DF3CFE9FFF4CFEAFF7E0EEE
:100CB000E926010EEA22020EE926000EEA22E92ABE
:100CC000000EEA22EF50EA6A4E0FE96E010EEA22A8
:100CD0000FEBEFFF13500A0DF3CFE9FFF4CFEAFF5C
:100CE0007E0EE926010EEA22020EE926000EEA2215
:100CF000E92A000EEA22EF50E66E0E013851382B39
:100D0000EA6A000FE96E000EEA22E552E750EF6E44
:100D100010D013500A0DF3CFE9FFF4CFEAFF7E0E97
:100D2000E926010EEA22080EE926000EEA22EF6A01
:100D3000D3D6E66AE66AD9500E0FE66EDACFE6FF42
:100D40003AEC2DF044E90E014C834C854C97EAECCB
:100D500050F0B3C24DFEB4C24EFEB5C24FFEB6C295
:100D600050FE120E0E014D5F7A0E0E014E5B000E0C
:100D70000E014F5B000E0E01505B0E014B81EAD05D
:100D8000016A040E015C15E20E0E01240E01EA6AEE
:100D90007F25E96E8051EA22EF50E66E0150EA6A43
:100DA0003E0FE96E0E0EEA22E552E750EF6E012A81
:100DB000E8D77FEC24F0136EFF0E135C01E1CAD07C
:100DC0000F0E016E01505DE081EB15F0166A1550B3
:100DD00056E01550EA6A4E0FE96E010EEA22EF5016
:100DE000FF0801E14CD01550EA6A4E0FE96E010E82
:100DF000EA22EFCFB0FE13500A0DF3CFE9FFF4CF94
:100E0000EAFF7E0EE926010EEA22020EE926000E16
:100E1000EA22E92A000EEA22EF500E01B05D21E13C
:100E20000150EA6A4E0FE96E010EEA22EF680E01E8
:100E3000426B01EB43FE9FEC23F0176EFF0E175C35
:100E40000FE017500A0DF3CFE9FFF4CFEAFF7E0E53
:100E5000E926010EEA22080EE926000EEA22EF6AD0
:100E60000ED01550EA6A4E0FE96E010EEA22EF50DD
:100E7000156E1650162A100801E201D0A8D70106F7
:100E8000A1D713500A0DF3CFE9FFF4CFEAFF7E0E8E
:100E9000E926010EEA22020EE926000EEA22E92ADC
:100EA000000EEA22EF50EA6A4E0FE96E010EEA22C6
:100EB000EF6813500A0DF3CFE9FFF4CFEAFF7E0E7F
:100EC000E926010EEA22080EE926000EEA22EF6A60
:100ED0000A0EE66EE66A13500A0D01010101E8519F
:100EE000F3240E01B06F01010101E951F4200E015C
:100EF000B16FB0CEE6FFB1CEE6FF13500A0DF3CFCF
:100F0000B2FEF4CFB3FE7E0E0E01B227010E0E012B
:100F1000B323B2CEE6FFB3CEE6FF87EC4AF046E954
:100F20000E014C834C854C97EAEC50F0B3C24DFE59
:100F3000B4C24EFEB5C24FFEB6C250FE120E0E0136
:100F40004D5F7A0E0E014E5B000E0E014F5B000EE0
:100F50000E01505BF1D31A6A016A040E015C15E2BE
:100F60000D0E01240E01EA6A7F25E96E8051EA2206
:100F7000EF50E66E0150EA6A3E0FE96E0E0EEA226D
:100F8000E552E750EF6E012AE8D70E01BF0E4A6F17
:100F9000110E0E01EA6A7F25E96E8051EA22EF50B8
:100FA000FF0838E17FEC24F0186E0A0E185C30E27E
:100FB0003ACE43FE010E196E016A0A0E015C12E27E
:100FC00019EB42FE9FEC23F0FF0809E1800E192483
:100FD0000E01426F9FEC23F0FF0801E103D0192AB4
:100FE000012AEBD70A0E015C12E219500E01B06F14
:100FF000B16B800E0E01D890B1BF03D0B05D000E72
:10100000B15903E219EB42FE02D0010E1A6E01D073
:1010100093D30BD00E01426B110E0E01EA6A7F25AD
:10102000E96E8051EA22EFCF43FE3BCE44FE3CCE38
:1010300045FEE1EC24F0186E0001020E006F42CE76
:1010400001F043CE02F01AEB03F0016A010E015CDD
:1010500014E20150EA6ABF0FE96E020EEA22EF5075
:10106000E66E040E0124EA6A000FE96E000EEA2221
:10107000E552E750EF6E012AE9D73ACE05F00E01AE
:10108000060E386F1850040DF3CFE9FFF4CFEAFFD6
:10109000330EE926000EEA22EE6AEE6AEE6AEE6A86
:1010A000010EE66E18500A0DF3CFE9FFF4CFEAFF08
:1010B0007E0EE926010EEA22040EE926000EEA223F
:1010C000E9CFB0FEEACFB1FEB0CEE6FFB1CEE6FF8B
:1010D000E7EC1DF043E90A0E185C28E20A0EE66E02
:1010E000E66A18500A0D01010101E851F3240E01CE
:1010F000B06F01010101E951F4200E01B16FB0CED2
:10110000E6FFB1CEE6FF18500A0DF3CFB2FEF4CFE2
:10111000B3FE7E0E0E01B227010E0E01B323B2CE36
:10112000E6FFB3CEE6FF87EC4AF046E905D30E01B1
:101130000B0E386F0E013851382BEA6A000FE96E3A
:10114000000EEA22EF6A0E013851382BEA6A000FCE
:10115000E96E000EEA22A30EEF6E016A100E015C2A
:1011600015E20150EA6A4E0FE96E010EEA22EF50D5
:10117000E66E0E013851382BEA6A000FE96E000E58
:10118000EA22E552E750EF6E012AE8D7E66AE66AFE
:10119000D9500E0FE66EDACFE6FF3AEC2DF044E9B7
:1011A000CBD2016A100E015C15E20D0E01240E0176
:1011B000EA6A7F25E96E8051EA22EF50E66E01501F
:1011C000EA6A4E0FE96E010EEA22E552E750EF6E31
:1011D000012AE8D7EAEC50F0B3C24DFEB4C24EFE8D
:1011E000B5C24FFEB6C250FE0E014B81A5D20E0114
:1011F0008251010801E3D2D10E0E1B6E1B500E016D
:10120000EA6A7F25E96E8051EA22EF501C6E016A7E
:10121000020E015C45E20F50020DF3CFB1FEF4CF98
:10122000B2FE5E0E0E01B127010E0E01B223015077
:101230000E01EA6AB125E96EB251EA22EFCFB0FEA3
:101240001B2801240E01EA6A7F25E96E8051EA22FB
:10125000EF500E01B05D22E01B2801240E01EA6A66
:101260007F25E96E8051EA22EF50E66E0F50020DA5
:10127000F3CFB0FEF4CFB1FE5E0E0E01B027010E2B
:101280000E01B12301500E01EA6AB025E96EB15199
:10129000EA22E552E750EF6E0E014B85012AB8D7DE
:1012A0000F50F80BE842E842E842EA6A3C0FE96E68
:1012B000010EEA22EFCFB0FE1B040E01EA6A7F2581
:1012C000E96E8051EA22EF50070B0E01B16F010E5B
:1012D0000E01B15304E0E846FE0BB107FCE10E013C
:1012E000B01524E11B040E01EA6A7F25E96E8051E6
:1012F000EA22EF50070B0E01B16F010E0E01B15340
:1013000004E0E846FE0BB107FCE10E01B06F0F50A0
:10131000F80BE842E842E842EA6A3C0FE96E010E47
:10132000EA220E01B051EF120E014B83016A040E46
:10133000015C14E201500E01EA6A7D25E96E7E51DE
:10134000EA22EF50E66E0150EA6A3E0FE96E0E0E99
:10135000EA22E552E750EF6E012AE9D70E01426B0F
:101360001B040E01EA6A7F25E96E8051EA22EFCF65
:1013700043FE0E018F0E4A6F3BCE44FE3CCE45FE2F
:101380007FEC24F0016E0A0E015C4FE201500A0D61
:10139000F3CFE9FFF4CFEAFF7E0EE926010EEA2241
:1013A000020EE926000EEA22EECFB0FEEFCFB1FE2C
:1013B0000E0142510E01B01904E10E0143510E011C
:1013C000B11923E001500A0DF3CFE9FFF4CFEAFF92
:1013D0007E0EE926010EEA22020EE926000EEA221E
:1013E00042CEEEFF43CEEDFF01500A0DF3CFE9FFF1
:1013F000F4CFEAFF7E0EE926010EEA22080EE92666
:10140000000EEA22EF860E014B8701500A0DF3CF42
:10141000E9FFF4CFEAFF7E0EE926010EEA22080E6C
:10142000E926000EEA22EF820AD0E1EC24F00E0158
:10143000B06F0A0E0E01B05D02E20E014B871B0475
:101440000E01EA6A7F25E96E8051EA22EF501C5CAA
:1014500001E086D00E014CA111D008C1E6FF090EB3
:10146000E66E010EE66E04C1E6FF05C1E6FF06C1A9
:10147000E6FFF8EC35F046E90E014C910101010E52
:10148000096F0101020E0A6F3BCE0BF13CCE0CF14D
:101490000101FD0E0D6F01010E693BCE0FF13CCE37
:1014A00010F139CE11F13ACE12F10E014851482B0C
:1014B0000101136F0101146B0101A40E156F0101ED
:1014C0000D0E086F01010851082BEA6A090FE96E39
:1014D000010EEA223ACEEFFF01010851082BEA6A19
:1014E000090FE96E010EEA221CEBEFFF016A020E02
:1014F000015C15E20150EA6A3C0FE96E010EEA2236
:10150000EF50E66E01010851082BEA6A090FE96EF7
:10151000010EEA22E552E750EF6E012AE8D70101F9
:10152000046B010104850101048FC80EE66EE66AB2
:10153000D650E66EE66ADFEC4BF0E552E5CFB1FE41
:10154000E7CFB0FEB0CE07F1EAEC50F0B3C200F145
:10155000B4C201F1B5C202F1B6C203F10E014C8171
:101560000F50EA6A550FE96E0E0EEA22EF5004E1C1
:101570000E014B830E014B850F50EA6A550FE96E41
:101580000E0EEA22030EEF6EEAEC50F0B3C24DFEEF
:10159000B4C24EFEB5C24FFEB6C250FECDD01D6ADB
:1015A000040E1D5C16E20B0E1D24020F0E01EA6AEA
:1015B0007F25E96E8051EA22EF50E66E1D50EA6AFF
:1015C0003E0FE96E0E0EEA22E552E750EF6E1D2A3D
:1015D000E7D70E018D0E4A6F110E0E01EA6A7F25C4
:1015E000E96E8051EA22EF50800B02E00E014A9131
:1015F000110E0E01EA6A7F25E96E8051EA22EFCFD3
:1016000042FE120E0E01EA6A7F25E96E8051EA223F
:10161000EFCF43FE3BCE44FE3CCE45FE9FEC23F095
:101620000E01676FFF0E0E01675D16E00E01675138
:101630000A0DF3CFE9FFF4CFEAFF7E0EE926010E93
:10164000EA22080EE926000EEA22EFCF4AFE0E013A
:101650004A850E014A8708D00E018D0E4A6F0E0191
:1016600042AF02D00E014A91E1EC24F00E01676F07
:10167000FF0E0E01675D5AE21D6A010E1D5C29E234
:10168000130E1D240E01EA6A7F25E96E8051EA22BD
:10169000EF50E66E0E0167510A0DF3CFE9FFF4CF6C
:1016A000EAFF7E0EE926010EEA22090EE926000E67
:1016B000EA22E9CFB0FEEACFB1FE1D500E01EA6A80
:1016C000B025E96EB151EA22E552E750EF6E1D2ACE
:1016D000D4D70A0EE66EE66A0E0167510A0D0101C3
:1016E0000101E851F3240E01B06F01010101E9513C
:1016F000F4200E01B16FB0CEE6FFB1CEE6FF0E01D1
:1017000067510A0DF3CFB2FEF4CFB3FE7E0E0E0189
:10171000B227010E0E01B323B2CEE6FFB3CEE6FF31
:1017200087EC4AF046E90E01668102D00E0166910F
:101730000E01669301D000D019D00A0E0E01EA6A9C
:101740007F25E96E8051EA22EF500201B05D09E188
:101750000E0146510E1802E147510F1802E10E0129
:1017600049970E50800800E263EF15F040D00B0E51
:101770000E01815D0E01086F0B0E0E017F250E011B
:10178000066F000E0E0180210E01076F0CEB02FEAA
:101790000DEB03FE080E0E01EA6A7F25E96E80510B
:1017A000EA22EF50FF080FE1090E0E01EA6A7F25D9
:1017B000E96E8051EA22EF50FF0805E17DCE04FE7C
:1017C0007ECE05FE0CD00E01018F080E0E017F2586
:1017D0000E01046F000E0E0180210E01056F0E0137
:1017E000018D0E010851000802E20E01498575D0F5
:1017F0007FCEE9FF80CEEAFFEF5000086EE27FCE99
:10180000E9FF80CEEAFFEF060E01386B016A0E0198
:101810008151015C16E201500E01EA6A7F25E96EF2
:101820008051EA22EF50E66E0E013851382BEA6AF9
:10183000000FE96E000EEA22E552E750EF6E012A32
:10184000E6D70E013A51115C37E100010B5134E14A
:10185000300E00010C5D30E10E01796B0E01798BC9
:1018600010EB42FE11EB43FE9FEC23F0016EFF0EE6
:10187000015C21E001500A0DF3CFE9FFF4CFEAFF4C
:101880007E0EE926010EEA22040EE926000EEA2267
:10189000E9CF7AFEEACF7BFE38CEE6FF000EE66E99
:1018A000000EE66E79CEE6FF7ACEE6FF7BCEE6FF4F
:1018B000F8EC35F046E911D00E017C51080B01E03F
:1018C000010EE66E10EBE6FF11EBE6FF0AEBE6FF1A
:1018D0000BEBE6FF07EC1CF045E963EF15F0040E97
:1018E0001E6E040E1E240E01EA6A7F25E96E8051E9
:1018F000EA22EF505D0802E063EF15F00E0149A106
:1019000059D17FCEE9FF80CEEAFFEFCF44FE010E32
:101910000E01EA6A7F25E96E8051EA22EFCF45FE8B
:10192000020E0E01EA6A7F25E96E8051EA22EFCFAE
:1019300042FE030E0E01EA6A7F25E96E8051EA221B
:10194000EFCF43FE1E500E01EA6A7F25E96E8051FB
:10195000EA22EF50FF0801E02DD11E280E01EA6AAD
:101960007F25E96E8051EA22EF501F6E040E0E01B2
:101970000B5D01E31FD1D9501F0FE96EDACFEAFFEB
:10198000EF50300BE842E842E842E842010801E249
:1019900011D10E010B510B0DF3CFE9FFF4CFEAFF8C
:1019A0000C0EE9260E0EEA22AEC2EFFF0E010B511D
:1019B0000B0DF3CFE9FFF4CFEAFF0C0EE9260E0E74
:1019C000EA22070EE926000EEA2209CEEFFF0E01F9
:1019D0000B510B0DF3CFE9FFF4CFEAFF0C0EE92614
:1019E0000E0EEA22080EE926000EEA220ACEEFFFCA
:1019F0000E010B510B0DF3CFE9FFF4CFEAFF0C0EF4
:101A0000E9260E0EEA22050EE926000EEA2244CE51
:101A1000EEFF45CEEDFF0E010B510B0DF3CFE9FFAD
:101A2000F4CFEAFF0C0EE9260E0EEA22090EE92693
:101A3000000EEA22EF6A0E010B510B0DF3CFE9FF06
:101A4000F4CFEAFF0C0EE9260E0EEA22090EE92673
:101A5000000EEA22EF8CD9501F0FE96EDACFEAFFB1
:101A6000EF50060BE8420E01B06F0E010B510B0D4B
:101A7000F3CFE9FFF4CFEAFF0C0EE9260E0EEA22BF
:101A8000090EE926000EEA220E01B051030BF36E97
:101A9000FC0EEF14F310EF6ED9501F0FE96EDACF82
:101AA000EAFFEF50080B10E00E010B510B0DF3CFC6
:101AB000E9FFF4CFEAFF0C0EE9260E0EEA22090E2A
:101AC000E926000EEA22EF86D9501F0FE96EDACF21
:101AD000EAFFEF50300BE842E842E842E8420108F2
:101AE00010E30E010B510B0DF3CFE9FFF4CFEAFF2A
:101AF0000C0EE9260E0EEA22090EE926000EEA2255
:101B0000EF8A016A040E015C25E201500E01EA6AC7
:101B10000425E96E0551EA22EF50E66E0E010B51E5
:101B20000B0DF3CFE9FFF4CFEAFF0C0EE9260E0E02
:101B3000EA22EE52E9CFB0FEEACFB1FE01500E012B
:101B4000EA6AB025E96EB151EA22E552E750EF6E3C
:101B5000012AD8D7016A010E015C2AE2060E1E2472
:101B600001240E01EA6A7F25E96E8051EA22EF50D6
:101B7000E66E0E010B510B0DF3CFE9FFF4CFEAFF38
:101B80000C0EE9260E0EEA220A0EE926000EEA22C3
:101B9000E9CFB0FEEACFB1FE01500E01EA6AB025EE
:101BA000E96EB151EA22E552E750EF6E012AD3D730
:101BB0000E010B2B63EF15F07FCEE9FF80CEEAFF1D
:101BC000EF50070A02E141EF15F0040A02E11CEFB1
:101BD00012F0010A01E1CAD2030A02E060EF15F037
:101BE000216A0201AF51010802E261EF15F00E0116
:101BF00049B302D061EF15F0016A040E015C14E2F2
:101C000001500E01EA6A7D25E96E7E51EA22EF500D
:101C1000E66E0150EA6A3E0FE96E0E0EEA22E552C8
:101C2000E750EF6E012AE9D77FEC24F0206EFF0E1B
:101C3000205C6BE020500A0DF3CFE9FFF4CFEAFF00
:101C40007E0EE926010EEA22080EE926000EEA229F
:101C5000EF50200B5AE00E013D51205C56E0205021
:101C60000A0DF3CFE9FFF4CFEAFF7E0EE926010E5D
:101C7000EA22080EE926000EEA22EF50080B45E0A2
:101C800020500A0DF3CFE9FFF4CFEAFF7E0EE926DC
:101C9000010EEA22020EE926000EEA22EECF42FEF3
:101CA000EDCF43FE0201AF51010802E261EF15F0F2
:101CB000016A010E015C28E2020E01240E01EA6AAB
:101CC0007F25E96E8051EA22EF50E66E20500A0D22
:101CD000F3CFE9FFF4CFEAFF7E0EE926010EEA22F8
:101CE000090EE926000EEA22E9CFB0FEEACFB1FEE6
:101CF00001500E01EA6AB025E96EB151EA22E552BF
:101D0000E750EF6E012AD5D7E0D10201AF510008AC
:101D100002E261EF15F00E01A70E4A6F3BCE44FEC2
:101D20003CCE45FEE1EC24F0206EFF0E205C07E186
:101D3000010E216E0E01FE0E426F4369C6D1016A8B
:101D4000010E015C28E2020E01240E01EA6A7F25E1
:101D5000E96E8051EA22EF50E66E20500A0DF3CF73
:101D6000E9FFF4CFEAFF7E0EE926010EEA22090E12
:101D7000E926000EEA22E9CFB0FEEACFB1FE01501B
:101D80000E01EA6AB025E96EB151EA22E552E75048
:101D9000EF6E012AD5D7010E0E01EA6A7F25E96EA2
:101DA0008051EA22EF50400B01E1CFD0020E0E012C
:101DB000655D60E00E010B0E386F0E013851382B57
:101DC000EA6A000FE96E000EEA22EF6A0E0138514E
:101DD000382BEA6A000FE96E000EEA22A00EEF6EC1
:101DE0000E013851382BEA6A000FE96E000EEA2224
:101DF000EF6A016A040E015C15E20150EA6A3E0FC7
:101E0000E96E0E0EEA22EF50E66E0E013851382BC5
:101E1000EA6A000FE96E000EEA22E552E750EF6E23
:101E2000012AE8D7016A010E015C15E20150EA6A55
:101E3000BF0FE96E020EEA22EF50E66E0E01385136
:101E4000382BEA6A000FE96E000EEA22E552E750ED
:101E5000EF6E012AE8D70E01426B436BE66AE66A31
:101E6000420EE66E0E0EE66E3AEC2DF044E961EF9E
:101E700015F06AD00E01426B010E236E100E235C2A
:101E800032E223EB43FE9FEC23F0226EFF0E225C36
:101E900028E10E01426B23EB43FE2350EA6A4E0F0A
:101EA000E96E010EEA22EF6A0E014C834C854C97D5
:101EB000EAEC50F0B3C24DFEB4C24EFEB5C24FFEC6
:101EC000B6C250FE120E0E014D5F7A0E0E014E5B31
:101ED000000E0E014F5B000E0E01505B0E014B8198
:101EE00002D0232ACBD7100E235C2EE10E01436BC8
:101EF000010E016E01500E01B06FB16B800E0E012C
:101F0000D890B1BF03D0B05D000EB15913E201EB20
:101F100042FE9FEC23F0FF080BE1800E01240E012E
:101F2000426F9FEC23F0FF0803E101EB42FE02D079
:101F3000012AE0D701507F0807E2010E216E0E0151
:101F4000FE0E426F4369C1D02ED03ACE43FE010E41
:101F5000016E01500E01B06FB16B800E0E01D89072
:101F6000B1BF03D0B05D000EB15913E201EB42FEE8
:101F70009FEC23F0FF080BE1800E01240E01426F5D
:101F80009FEC23F0FF0803E101EB42FE02D0012A9F
:101F9000E0D701507F0807E2010E216E0E01FE0E10
:101FA000426F436992D00E01BF0E4A6F010E0E01BF
:101FB000EA6A7F25E96E8051EA22EF50010B04E1C5
:101FC0000E014A910E01428F11D020500A0DF3CF1D
:101FD000E9FFF4CFEAFF7E0EE926010EEA22080EA1
:101FE000E926000EEA22EF6A020E216E21506DE111
:101FF0003BCE44FE3CCE45FEE1EC24F0206E0A0EC2
:10200000205C63E220500A0DF3CFE9FFF4CFEAFF32
:102010007E0EE926010EEA22080EE926000EEA22CB
:10202000EF88016A010E015C28E2020E01240E0114
:10203000EA6A7F25E96E8051EA22EF50E66E205071
:102040000A0DF3CFE9FFF4CFEAFF7E0EE926010E79
:10205000EA22090EE926000EEA22E9CFB0FEEACF15
:10206000B1FE01500E01EA6AB025E96EB151EA22D3
:10207000E552E750EF6E012AD5D70A0EE66EE66A02
:1020800020500A0D01010101E851F3240E01B06F47
:1020900001010101E951F4200E01B16FB0CEE6FF5C
:1020A000B1CEE6FF20500A0DF3CFB2FEF4CFB3FE5F
:1020B0007E0E0E01B227010E0E01B323B2CEE6FF53
:1020C000B3CEE6FF87EC4AF046E90001020E006F4E
:1020D00042CE01F043CE02F021EB03F0016A010E83
:1020E000015C14E20150EA6ABF0FE96E020EEA22B7
:1020F000EF50E66E040E0124EA6A000FE96E000E4E
:10210000EA22E552E750EF6E012AE9D73ACE05F010
:102110000E01060E386F2050040DF3CFE9FFF4CF07
:10212000EAFF330EE926000EEA22EE6AEE6AEE6A54
:10213000EE6A010EE66E20500A0DF3CFE9FFF4CFF0
:10214000EAFF7E0EE926010EEA22040EE926000EC1
:10215000EA22E9CFB0FEEACFB1FEB0CEE6FFB1CEC3
:10216000E6FFE7EC1DF043E961EF15F0030E0E0109
:10217000EA6A7F25E96E8051EA22EF5001E02CD116
:10218000010E0E01EA6A7F25E96E8051EA22EFCF47
:1021900039FE020E0E01EA6A7F25E96E8051EA22BD
:1021A000EFCF3AFE0E01395115E1D90EE66E8F0ED2
:1021B000E66E9EEC4FF042E90E01010E656F0E01D6
:1021C00065510E01030BF36EF346F90E0015F31083
:1021D000006F13D0C40EE66E8F0EE66E9EEC4FF0CD
:1021E00042E90E01656B0E0165510E01030BF36EA2
:1021F000F346F90E0015F310006F010EE66EE66A65
:10220000F6C1E6FFF7C1E6FF650EE66E0E0EE66E5E
:1022100087EC4AF046E93B0EE66E0E0EE66E390E8E
:10222000E66E0E0EE66EA2EC34F044E90E01498330
:102230000E01BF0E4A6F016A040E015C14E20150E8
:102240000E01EA6A7D25E96E7E51EA22EF50E66EC4
:102250000150EA6A3E0FE96E0E0EEA22E552E7509F
:10226000EF6E012AE9D70E01426B050E0E01EA6AF4
:102270007F25E96E8051EA22EFCF43FE3BCE44FE3C
:102280003CCE45FEE1EC24F00E013D6F0E013D51C8
:10229000040DF3CFE9FFF4CFEAFF330EE926000E79
:1022A000EA22EE6AEE6AEE6AEE6A016A010E015CEB
:1022B00029E2040E01240E01EA6A7F25E96E8051AD
:1022C000EA22EF50E66E0E013D510A0DF3CFE9FF11
:1022D000F4CFEAFF7E0EE926010EEA22090EE92676
:1022E000000EEA22E9CFB0FEEACFB1FE01500E01A6
:1022F000EA6AB025E96EB151EA22E552E750EF6E85
:10230000012AD4D70E014C894C8B4C9DEAEC50F03D
:10231000B3C24DFEB4C24EFEB5C24FFEB6C250FEB1
:10232000020EE66EE66AE2C1E6FFE3C1E6FF3B0E9F
:10233000E66E0E0EE66E87EC4AF046E9020EE66E99
:10234000E66AECC1E6FFEDC1E6FF390EE66E0E0E61
:10235000E66E87EC4AF046E9010EE66EE66AEEC1EB
:10236000E6FFEFC1E6FF3D0EE66E0E0EE66E87EC71
:102370004AF046E90A0EE66EE66A0E013D510A0D84
:1023800001010101E851F3240E01B06F01010101C7
:10239000E951F4200E01B16FB0CEE6FFB1CEE6FFF9
:1023A0000E013D510A0DF3CFB2FEF4CFB3FE7E0E07
:1023B0000E01B227010E0E01B323B2CEE6FFB3CE5B
:1023C000E6FF87EC4AF046E9A20EE66E8F0EE66E57
:1023D0009EEC4FF042E92FD00E013D690E013B69A2
:1023E0003C690E01426943693B0EE66E0E0EE66ED5
:1023F000420EE66E0E0EE66EA2EC34F044E9010EDB
:10240000E66EE66AEEC1E6FFEFC1E6FF3D0EE66E60
:102410000E0EE66E87EC4AF046E9020EE66EE66ABC
:10242000E2C1E6FFE3C1E6FF3B0EE66E0E0EE66E8E
:1024300087EC4AF046E945D30E0149A342D3016A2D
:10244000040E015C14E201500E01EA6A7D25E96E7A
:102450007E51EA22EF50E66E0150EA6A3E0FE96EC5
:102460000E0EEA22E552E750EF6E012AE9D77FEC23
:1024700024F0246EFF0E245C01E123D324500A0DC6
:10248000F3CFE9FFF4CFEAFF7E0EE926010EEA2240
:10249000080EE926000EEA22EF50200B01E1F0D2EF
:1024A0000E013D51245C01E171D124500A0DF3CF9E
:1024B000E9FFF4CFEAFF7E0EE926010EEA22020EC2
:1024C000E926000EEA22EF5001E028D1020E0E01AB
:1024D000655D01E0CBD00F0E016E01505DE081EB38
:1024E00025F0266A255056E02550EA6A4E0FE96E1F
:1024F000010EEA22EF50FF0801E14CD02550EA6AB4
:102500004E0FE96E010EEA22EFCFB0FE24500A0D05
:10251000F3CFE9FFF4CFEAFF7E0EE926010EEA22AF
:10252000020EE926000EEA22E92A000EEA22EF5006
:102530000E01B05D21E10150EA6A4E0FE96E010E15
:10254000EA22EF680E01426B01EB43FE9FEC23F0A1
:10255000276EFF0E275C0FE027500A0DF3CFE9FF2F
:10256000F4CFEAFF7E0EE926010EEA22080EE926E4
:10257000000EEA22EF6A0ED02550EA6A4E0FE96E8D
:10258000010EEA22EF50256E2650262A100801E29D
:1025900001D0A8D70106A1D724500A0DF3CFE9FF37
:1025A000F4CFEAFF7E0EE926010EEA22020EE926AA
:1025B000000EEA22E92A000EEA22EF50EA6A4E0FE4
:1025C000E96E010EEA22EF6824500A0DF3CFE9FF0D
:1025D000F4CFEAFF7E0EE926010EEA22080EE92674
:1025E000000EEA22EF6A0A0EE66EE66A24500A0D31
:1025F00001010101E851F3240E01B06F0101010155
:10260000E951F4200E01B16FB0CEE6FFB1CEE6FF86
:1026100024500A0DF3CFB2FEF4CFB3FE7E0E0E01AE
:10262000B227010E0E01B323B2CEE6FFB3CEE6FF12
:1026300087EC4AF046E90E014C834C854C97EAEC56
:1026400050F0B3C24DFEB4C24EFEB5C24FFEB6C28C
:1026500050FE120E0E014D5F7A0E0E014E5B000E03
:102660000E014F5B000E0E01505B58D00E010B0E99
:10267000386F0E013851382BEA6A000FE96E000EF0
:10268000EA22EF6A0E013851382BEA6A000FE96E30
:10269000000EEA22A00EEF6E0E013851382BEA6AC6
:1026A000000FE96E000EEA22010EEF6E016A040EC1
:1026B000015C28E224500A0DF3CFE9FFF4CFEAFFD2
:1026C0007E0EE926010EEA22040EE926000EEA2219
:1026D000E9CFB0FEEACFB1FE01500E01EA6AB025A3
:1026E000E96EB151EA22EF50E66E0E013851382BF7
:1026F000EA6A000FE96E000EEA22E552E750EF6E3B
:10270000012AD5D70E01426B436BE66AE66A420E98
:10271000E66E0E0EE66E3AEC2DF044E924500A0DFA
:10272000F3CFE9FFF4CFEAFF7E0EE926010EEA229D
:10273000080EE926000EEA22EF6A0A0EE66EE66A45
:1027400024500A0D01010101E851F3240E01B06F7C
:1027500001010101E951F4200E01B16FB0CEE6FF95
:10276000B1CEE6FF24500A0DF3CFB2FEF4CFB3FE94
:102770007E0E0E01B227010E0E01B323B2CEE6FF8C
:10278000B3CEE6FF87EC4AF046E97AD1016A0A0E39
:10279000015C73E201500A0DF3CFE9FFF4CFEAFFC9
:1027A0007E0EE926010EEA22080EE926000EEA2234
:1027B000EF50800B51E001500A0DF3CFE9FFF4CF49
:1027C000EAFF7E0EE926010EEA22080EE926000E37
:1027D000EA22EF50200B40E00E013D51015C3CE04D
:1027E0000E01386B0E013851382BEA6A000FE96E82
:1027F000000EEA22030EEF6E0E01796B0E01798B4B
:102800000E01798179930E01798F01500A0DF3CF72
:10281000E9FFF4CFEAFF7E0EE926010EEA22040E5C
:10282000E926000EEA22E9CF7AFEEACF7BFE38CE17
:10283000E6FF000EE66E000EE66E79CEE6FF7ACE7B
:10284000E6FF7BCEE6FFF8EC35F046E9640EE66E77
:10285000E66A37EC4FF042E901500A0DF3CFE9FF89
:10286000F4CFEAFF7E0EE926010EEA22080EE926E1
:10287000000EEA22EF6A012A8AD70E010B0E386F8A
:102880000E013851382BEA6A000FE96E000EEA2279
:10289000EF6A0E013851382BEA6A000FE96E000E1C
:1028A000EA22A00EEF6E0E013851382BEA6A000FB3
:1028B000E96E000EEA22010EEF6E016A040E015C61
:1028C00028E224500A0DF3CFE9FFF4CFEAFF7E0E91
:1028D000E926010EEA22040EE926000EEA22E9CFDB
:1028E000B0FEEACFB1FE01500E01EA6AB025E96EF2
:1028F000B151EA22EF50E66E0E013851382BEA6AE8
:10290000000FE96E000EEA22E552E750EF6E012A51
:10291000D5D70E01426B436BE66AE66A420EE66E5D
:102920000E0EE66E3AEC2DF044E90E013D690E0103
:1029300039693A690E013B693C693B0EE66E0E0E41
:10294000E66E390EE66E0E0EE66EA2EC34F044E949
:102950000E014993016A100E015C23E20150EA6AFC
:102960004E0FE96E010EEA22EF68246A020E245C23
:1029700016E20150020DF3CFB0FEF4CFB1FE5E0EB1
:102980000E01B027010E0E01B12324500E01EA6A98
:10299000B025E96EB151EA22EF6A242AE7D7012A6D
:1029A000DAD7016A020E015C09E20150EA6A3C0FC3
:1029B000E96E010EEA22EF6A012AF4D7010EE66EF3
:1029C000E66AEEC1E6FFEFC1E6FF3D0EE66E0E0ED3
:1029D000E66E87EC4AF046E9020EE66EE66AECC166
:1029E000E6FFEDC1E6FF390EE66E0E0EE66E87ECF1
:1029F0004AF046E9020EE66EE66AE2C1E6FFE3C18E
:102A0000E6FF3B0EE66E0E0EE66E87EC4AF046E9F8
:102A1000100EE66EE66AF4C1E6FFF5C1E6FF4E0E63
:102A2000E66E010EE66E87EC4AF046E9020EE66EAF
:102A3000E66AF0C1E6FFF1C1E6FF3C0EE66E010E6C
:102A4000E66E87EC4AF046E9200EE66EE66AF2C1D1
:102A5000E6FFF3C1E6FF5E0EE66E010EE66E87EC62
:102A60004AF046E9640EE66EE66AE8C1E6FFE9C1AF
:102A7000E6FF7E0EE66E010EE66E87EC4AF046E952
:102A800020D00201AF51020801E21BD00E0149A380
:102A900016D0010E0E01EA6A7F25E96E8051EA2206
:102AA000EF500201AE5D01E00CD00E01655107E070
:102AB000C80EE66E2AEC00F041E9F1EC23F001D0FB
:102AC00000D001D000D00E0149B502D0D2EC39F0CF
:102AD000EAEC50F0B3C2B0FEB4C2B1FEB5C2B2FE71
:102AE000B6C2B3FE0E01B051026EB151036EB251C7
:102AF000046EB351056E016A050E015C57E2015088
:102B0000080DF3CFE9FFF4CFEAFF840EE9260E0E9D
:102B1000EA22030EE926000EEA22EF50000844E202
:102B200002EBB4FE03EBB5FE04EBB6FE05EBB7FE1D
:102B30000150080DF3CFE9FFF4CFEAFF840EE92638
:102B40000E0EEA22040EE926000EEA22EE500E01D5
:102B5000B45D0E01B06FEE500E01B5590E01B16FAC
:102B6000EE500E01B6590E01B26FEE500E01B7597C
:102B70000E01B36FD880120E0E01B0557A0EB1550A
:102B8000000EB255000EB3550FE20150080DF3CF01
:102B9000E9FFF4CFEAFF840EE9260E0EEA22030EC7
:102BA000E926000EEA22EF6A012AA6D7D950020FC1
:102BB000E96EDACFEAFF0E014D51EE5C0E01B06F07
:102BC0000E014E51EE580E01B16F0E014F51EE58ED
:102BD0000E01B26F0E015051EE580E01B36F0E018F
:102BE000B051066EB151076EB251086EB351096E05
:102BF0000E014C510E0BE842000859E20650240821
:102C0000F40E0754000E0854000E09544FE24C0E07
:102C1000E96E0E0EEA6EEF500E0BE842E806F36E18
:102C2000F350070BF36EF46EF346F10EEF14F3104E
:102C3000EF6E0E010B0E386F0E013851382BEA6A19
:102C4000000FE96E000EEA22EF6A0E013851382BB0
:102C5000EA6A000FE96E000EEA22A30EEF6E016A27
:102C6000100E015C15E20150EA6A4E0FE96E010E8A
:102C7000EA22EF50E66E0E013851382BEA6A000F57
:102C8000E96E000EEA22E552E750EF6E012AE8D71E
:102C9000E66A020EE66EADEC2BF042E902EB4DFE69
:102CA00003EB4EFE04EB4FFE05EB50FE72D10E011E
:102CB0004C51700BE842E842E842E842000801E368
:102CC00079D006502408F40E0754000E0854000E64
:102CD00009546FE24C0EE96E0E0EEA6EEF50700B67
:102CE000E842E842E842E842E806F36EF350070B98
:102CF000F36EF46EF346F346F346F3468F0EEF148D
:102D0000F310EF6E0E010B0E386F0E013851382B99
:102D1000EA6A000FE96E000EEA22EF6A0E013851EE
:102D2000382BEA6A000FE96E000EEA22A40EEF6E5D
:102D30000E013851382BEA6A000FE96E000EEA22C4
:102D40003ACEEFFF0E013851382BEA6A000FE96ED8
:102D5000000EEA223ACEEFFF016A020E015C15E294
:102D60000150EA6A3C0FE96E010EEA22EF50E66E6E
:102D70000E013851382BEA6A000FE96E000EEA2284
:102D8000E552E750EF6E012AE8D70201010EB26F5B
:102D9000E66A020EE66EADEC2BF042E90201110E7E
:102DA000B26F02EB4DFE03EB4EFE04EB4FFE05EB64
:102DB00050FEEFD0FF0E01014E5D36E10E016505BC
:102DC00033E10E010E014951020B2EE0065024089A
:102DD000F40E0754000E0854000E095424E20E01AC
:102DE0000B0E386F0E013851382BEA6A000FE96E6E
:102DF000000EEA22EF6A0E013851382BEA6A000F02
:102E0000E96E000EEA22A20EEF6EE66A3DCEE6FF04
:102E100001EC2CF042E902EB4DFE03EB4EFE04EB1D
:102E20004FFE05EB50FEB5D00E014BA15CD0065015
:102E30009008D00E0754030E0854000E095452E2B5
:102E40000E014B91020E0E01655D3EE00E013A51FE
:102E5000EA6A4E0FE96E010EEA22EFCFB0FE0E01D4
:102E60003D510A0DF3CFE9FFF4CFEAFF7E0EE926CC
:102E7000010EEA22020EE926000EEA22E92A000EDD
:102E8000EA22EF500E01B05D1FE00E01426B0E0111
:102E90003A51EA6A4E0FE96E010EEA22EFCF43FE85
:102EA0009FEC23F0016E0A0E015C03E201EB3DFE94
:102EB0000BD00E01BB0E4A6F3BCE44FE3CCE45FE0E
:102EC000E1EC24F00E013D6F100EE66EE66AF4C1EF
:102ED000E6FFF5C1E6FF4E0EE66E010EE66E87ECEC
:102EE0004AF046E956D00E014BA31AD0065090087E
:102EF000D00E0754030E0854000E095410E20E01C0
:102F00004B93020EE66EE66AF0C1E6FFF1C1E6FF02
:102F10003C0EE66E010EE66E87EC4AF046E939D0CB
:102F20000E014BA51AD006509008D00E0754030E80
:102F30000854000E095410E20E014B95200EE66E67
:102F4000E66AF2C1E6FFF3C1E6FF5E0EE66E010E31
:102F5000E66E87EC4AF046E91CD00E014BA719D06B
:102F600006509008D00E0754030E0854000E095462
:102F700010E20E014B97640EE66EE66AE8C1E6FFCA
:102F8000E9C1E6FF7E0EE66E010EE66E87EC4AF0C2
:102F900046E90E014CA150D0D950020FE96EDACFAC
:102FA000EAFF01010051EE5C0E01B06F0101015119
:102FB000EE580E01B16F01010251EE580E01B26FD1
:102FC00001010351EE580E01B36F07C1E6FFE66A37
:102FD000E66AE66A3E0EE66EE66AE66AE66A18ECBD
:102FE0004CF0E552E5CFB7FEE5CFB6FEE5CFB5FE36
:102FF000E7CFB4FE0E01B0510E01B45D0E01B15128
:103000000E01B5590E01B2510E01B6590E01B35160
:103010000E01B75911E20E014C9108C1E6FF090EED
:10302000E66E010EE66E04C1E6FF05C1E6FF06C1CD
:10303000E6FFF8EC35F046E90E01655101E1A0D05C
:10304000D950020FE96EDACFEAFF0E015151EE5C62
:103050000E01B06F0E015251EE580E01B16F0E010C
:103060005351EE580E01B26F0E015451EE580E013D
:10307000B36FD880400E0E01B0553A0EB155690EAF
:10308000B2550D0EB35501E37BD00E014C894C9B1C
:103090004C9DEAEC50F0B3C24DFEB4C24EFEB5C238
:1030A0004FFEB6C250FE4DCE51FE4ECE52FE4FCE1A
:1030B00053FE50CE54FE016A100E015C61E20150D5
:1030C000EA6A550FE96E0E0EEA22EF50000856E24A
:1030D0000150EA6A550FE96E0E0EEA22EF06015022
:1030E000EA6A550FE96E0E0EEA22EF5047E10150F1
:1030F000F80BE842E842E842EA6A3C0FE96E010E4A
:10310000EA22EFCFB0FE0150070B0E01B16F010EA6
:103110000E01B15304E0E846FE0BB107FCE1FF0AE3
:103120000E01B015E66E0150F80BE842E842E842A5
:10313000EA6A3C0FE96E010EEA22E552E750EF6EB3
:10314000286A020E285C16E20150020DF3CFB0FE91
:10315000F4CFB1FE5E0E0E01B027010E0E01B123B9
:1031600028500E01EA6AB025E96EB151EA22EF6AF1
:10317000282AE7D70E014B830E014B85012A9CD7E5
:103180000E0166A39FD00E0166A16FD0840EE66E7D
:103190008F0EE66E9EEC4FF042E90E010B0E386F7B
:1031A0000E013851382BEA6A000FE96E000EEA2250
:1031B000EF6A0E013851382BEA6A000FE96E000EF3
:1031C000EA22110EEF6E296A040E295C15E22950DD
:1031D000EA6A6A0FE96E0E0EEA22EF50E66E0E0101
:1031E0003851382BEA6A000FE96E000EEA22E552E8
:1031F000E750EF6E292AE8D70E013851382BEA6ADA
:10320000000FE96E000EEA2268CEEFFF0E01385182
:10321000382BEA6A000FE96E000EEA2269CEEFFF52
:10322000296A010E295C15E22950EA6A6E0FE96EDF
:103230000E0EEA22EF50E66E0E013851382BEA6A84
:10324000000FE96E000EEA22E552E750EF6E292AE0
:10325000E8D7E66AE66A6F0EE66E0E0EE66E3AECA8
:103260002DF044E90E0166932DD0D950020FE96E7E
:10327000DACFEAFF0E017551EE5C0E01B06F0E0160
:103280007651EE580E01B16F0E017751EE580E01D6
:10329000B26F0E017851EE580E01B36F0E01B051AE
:1032A000066EB151076EB251086EB351096E0650E9
:1032B0006C08DC0E0754020E0854000E095402E29A
:1032C0000E0166936AE9E7CFD9FF1200D9CFE6FF76
:1032D000E1CFD9FF82E943E8005002E1000E2CD093
:1032E0000050EA6A4E0FE96E010EEA22EFCFB0FEFF
:1032F000100E0E01B05D02E3000E1ED0010E026E34
:1033000080EB03F0046A0350EA6A4E0FE96E010E87
:10331000EA22EF500FE00350EA6A4E0FE96E010E09
:10332000EA22EF50036E022A0450042A100801E238
:1033300001D0E9D7025000D044E9E7CFD9FF12000D
:10334000D9CFE6FFE1CFD9FF82E947E8076A00500D
:1033500010080CE301014E510BE10050EA6A4E0FD8
:10336000E96E010EEA22EF50100802E2FF0E4BD286
:103370000050F80BE842E842E842EA6A3C0FE96E86
:10338000010EEA22EFCFB0FE0050070B0E01B16F25
:10339000010E0E01B15304E0E846FE0BB107FCE15B
:1033A0000E01B01502E000502ED2026A100E025C2F
:1033B0002CE20250020DF3CFB1FEF4CFB2FE5E0E4E
:1033C0000E01B127010E0E01B2230050F80BE842A6
:1033D000E842E8420E01EA6AB125E96EB251EA22FA
:1033E000EFCFB0FE0050070B0E01B36F010E0E01C0
:1033F000B35304E0E846FE0BB307FCE10E01B01541
:1034000002E0025000D2022AD1D780EB04F0066A13
:1034100004502DE00450EA6A4E0FE96E010EEA22D4
:10342000EF500E013A5D15E1020E076E00EBE6FF6C
:103430004DDF41E90E01B06FB0CEE6FF3ACEE6FFB8
:1034400045DF41E9E552E7CFB0FE0E01B05D056E04
:103450000ED00450EA6A4E0FE96E010EEA22EF50D8
:10346000046E0650062A100801E201D0D1D7075099
:1034700032E10E013A51046E066A04502CE0045009
:10348000EA6A4E0FE96E010EEA22EF50005C15E188
:10349000010E076E3ACEE6FF19DF41E90E01B06F6B
:1034A000B0CEE6FF00EBE6FF11DF41E9E552E7CFE2
:1034B000B0FE0E01B05D056E0ED00450EA6A4E0FEC
:1034C000E96E010EEA22EF50046E0650062A10083B
:1034D00001E201D0D2D7075007E1030E076E00EBDF
:1034E000E6FFF4DE41E9056E010E026E0550025C56
:1034F00001E306D180EB04F0036A0250035C0AE2A8
:103500000450EA6A4E0FE96E010EEA22EF50046E93
:10351000032AF3D70450F80BE842E842E842EA6A8B
:103520003C0FE96E010EEA22EFCFB0FE0450070B0C
:103530000E01B16F010E0E01B15304E0E846FE0B1F
:10354000B107FCE10E01B01502E004505CD1086A3D
:10355000100E085C3EE20850EA6A4E0FE96E010E5A
:10356000EA22EFCFB0FE100E0E01B05D30E288EB24
:1035700004F0036A0250035C0AE20450EA6A4E0F48
:10358000E96E010EEA22EF50046E032AF3D70050D1
:10359000045C1DE10850F80BE842E842E842EA6AA0
:1035A0003C0FE96E010EEA22EFCFB0FE0850070B88
:1035B0000E01B16F010E0E01B15304E0E846FE0B9F
:1035C000B107FCE10E01B01502E008501CD1082A39
:1035D000BFD780EB04F0036A0250035C0AE2045098
:1035E000EA6A4E0FE96E010EEA22EF50046E032ADA
:1035F000F3D7086A100E085C2CE20850020DF3CFD6
:10360000B1FEF4CFB2FE5E0E0E01B127010E0E0127
:10361000B2230450F80BE842E842E8420E01EA6A9D
:10362000B125E96EB251EA22EFCFB0FE0450070B8C
:103630000E01B36F010E0E01B35304E0E846FE0B1A
:10364000B307FCE10E01B01502E00850DCD0082AF7
:10365000D1D7086A100E085C51E20850EA6A4E0F92
:10366000E96E010EEA22EFCFB0FE100E0E01B05D42
:1036700043E288EB04F0036A0250035C0AE2045060
:10368000EA6A4E0FE96E010EEA22EF50046E032A39
:10369000F3D70050045C30E1036A100E035C2CE2A7
:1036A0000350020DF3CFB1FEF4CFB2FE5E0E0E0159
:1036B000B127010E0E01B2230850F80BE842E84290
:1036C000E8420E01EA6AB125E96EB251EA22EFCF73
:1036D000B0FE0850070B0E01B36F010E0E01B3537D
:1036E00004E0E846FE0BB307FCE10E01B01502E072
:1036F000035089D0032AD1D7082AACD7022AF6D69C
:10370000020E075C39E180EB02F0066A0250EA6AB9
:103710004E0FE96E010EEA22EF500E013A5D1BE1F9
:103720000250F80BE842E842E842EA6A3C0FE96ED0
:10373000010EEA22EFCFB0FE0250070B0E01B16F6F
:10374000010E0E01B15304E0E846FE0BB107FCE1A7
:103750000E01B0150EE00250EA6A4E0FE96E010E3E
:10376000EA22EF50026E0650062A100801E201D04C
:10377000CDD7025048D045D00E013A51EA6A4E0FDB
:10378000E96E010EEA22EF50026E82EB04F0066A47
:103790000250EA6A4E0FE96E010EEA22EF50025C17
:1037A0002EE00050025C2BE00250F80BE842E842A9
:1037B000E842EA6A3C0FE96E010EEA22EFCFB0FE62
:1037C0000250070B0E01B16F010E0E01B15304E060
:1037D000E846FE0BB107FCE10E01B01502E082EBFA
:1037E00004F00250EA6A4E0FE96E010EEA22EF5031
:1037F000026E0650062A100801E201D0C9D7045013
:1038000002D0FF0E00D048E9E7CFD9FF1200D9CF90
:10381000E6FFE1CFD9FF86E943E882EB07F00750E6
:103820007F0802E2000ECFD101014E510BE107509B
:10383000EA6A4E0FE96E010EEA22EF50100802E22A
:10384000000EC1D1066A050E065C45E20650080D61
:10385000F3CFE9FFF4CFEAFF840EE9260E0EEA2249
:10386000030EE926000EEA22EF50000832E206506D
:10387000080DF3CFE9FFF4CFEAFF840EE9260E0E20
:10388000EA220150EE1802E10250ED1822E1065042
:10389000080DF3CFE9FFF4CFEAFF840EE9260E0E00
:1038A000EA22020EE926000EEA22EF5000010A5D2C
:1038B00010E10E014C894C8B4C9DEAEC50F0B3C2E8
:1038C0004DFEB4C24EFEB5C24FFEB6C250FE000E53
:1038D0007AD1062AB8D7066A050E065C61E2065060
:1038E000080DF3CFE9FFF4CFEAFF840EE9260E0EB0
:1038F000EA22030EE926000EEA22EF504FE10650BD
:10390000080DF3CFE9FFF4CFEAFF840EE9260E0E8F
:10391000EA22030EE926000EEA22030EEF6E06509D
:10392000080DF3CFE9FFF4CFEAFF840EE9260E0E6F
:10393000EA22020EE926000EEA220AC0EFFF065034
:10394000080DF3CFE9FFF4CFEAFF840EE9260E0E4F
:10395000EA2201EBEEFF02EBEDFFEAEC50F0B3C21E
:10396000B0FEB4C2B1FEB5C2B2FEB6C2B3FE0650DE
:10397000080DF3CFE9FFF4CFEAFF840EE9260E0E1F
:10398000EA22040EE926000EEA22B0CEEEFFB1CE06
:10399000EEFFB2CEEEFFB3CEEEFF02D0062A9CD7EA
:1039A0000E013A51075C3EE10150800803E2000E2F
:1039B0000AD138D00E01796B0E01798B00500E01BF
:1039C0007997E8B0798701EB42FE02EB43FE9FEC6A
:1039D00023F0066EFF0E065C13E006500A0DF3CFCF
:1039E000E9FFF4CFEAFF7E0EE926010EEA22040E7B
:1039F000E926000EEA22E9CF7AFEEACF7BFE02D06A
:103A0000000EE1D038CEE6FF000EE66E000EE66E48
:103A100079CEE6FF7ACEE6FF7BCEE6FFF8EC35F016
:103A200046E9D1D002EBE6FF8BDC41E9076EFF0EE1
:103A3000075C02E1000EC7D00750EA6A3E0FE96E4C
:103A4000010EEA22EFCFB0FE030E0E01B05D69E376
:103A50000750EA6A3E0FE96E010EEA22EF6A07504C
:103A6000070B0E01B16F010E0E01B15304E0E846E1
:103A7000FE0BB107FCE1FF0A0E01B06F0750F80B17
:103A8000E842E842E842EA6A3C0FE96E010EEA22A7
:103A90000E01B051EF16086A020E085C16E20750DC
:103AA000020DF3CFB0FEF4CFB1FE5E0E0E01B027D3
:103AB000010E0E01B12308500E01EA6AB025E96E2D
:103AC000B151EA22EF6A082AE7D7020EE66EE66AEB
:103AD000F0C1E6FFF1C1E6FF3C0EE66E010EE66EB8
:103AE00087EC4AF046E9200EE66EE66AF2C1E6FF90
:103AF000F3C1E6FF5E0EE66E010EE66E87EC4AF05D
:103B000046E90E014C894C8B4C9DEAEC50F0B3C257
:103B10004DFEB4C24EFEB5C24FFEB6C250FE000E00
:103B200052D00E01796B0E01798B00500E017997FE
:103B3000E8B079870E01426B07EB43FE9FEC23F060
:103B4000066EFF0E065C13E006500A0DF3CFE9FF88
:103B5000F4CFEAFF7E0EE926010EEA22040EE926E2
:103B6000000EEA22E9CF7AFEEACF7BFE09D00750A9
:103B7000EA6A3E0FE96E010EEA22EF2A000E23D018
:103B800038CEE6FF000EE66E000EE66E79CEE6FF5A
:103B90007ACEE6FF7BCEE6FFF8EC35F046E9000989
:103BA00009E10750EA6A3E0FE96E010EEA22EF2AA8
:103BB000000E09D00750EA6A3E0FE96E010EEA22B4
:103BC000EF6A010E00D044E9E7CFD9FF1200D9CF48
:103BD000E6FFE1CFD9FF84E90E01796B00500E01B9
:103BE000030BF36EFC0E7915F310796F0150021080
:103BF00002E10E0179850E010E017951040B02E0FC
:103C0000000E01D0010E0E01799BE8B0798B0E01F8
:103C1000798F01EB7AFE02EB7BFE38CEE6FF000ED9
:103C2000E66E000EE66E79CEE6FF7ACEE6FF7BCE3C
:103C3000E6FFF8EC35F046E900D041E9E7CFD9FFDF
:103C40001200D9CFE6FFE1CFD9FF81E941E8016A4F
:103C50000A0E015C15E201500A0DF3CFE9FFF4CF23
:103C6000EAFF7E0EE926010EEA22080EE926000E82
:103C7000EA22EF50800B02E1015004D0012AE8D77C
:103C8000FF0E00D042E9E7CFD9FF1200D9CFE6FFFF
:103C9000E1CFD9FF82E942E8FF0E005C48E1740EF3
:103CA000E66E8F0EE66E9EEC4FF042E9026A040E5D
:103CB000025C0FE2030ED8800254EA6AAA0FE96E92
:103CC000020EEA22EFCFE6FFCDEC4FF041E9022AE7
:103CD000EED7650EE66E8F0EE66E9EEC4FF042E973
:103CE0003ACEE6FFCDEC4FF041E939CEE6FFCDEC20
:103CF0004FF041E95B0EE66E8F0EE66E9EEC4FF0E4
:103D000042E93CCEE6FFCDEC4FF041E93BCEE6FF89
:103D1000CDEC4FF041E94F0EE66E8F0EE66E9EEC55
:103D20004FF042E9AEC2E6FFF7EC4FF041E9070E73
:103D3000E66E8F0EE66E9EEC4FF042E9FF0E005CE1
:103D400001E09DD1026A0A0E025C01E397D10250A4
:103D50000A0DF3CFE9FFF4CFEAFF7E0EE926010E4C
:103D6000EA22080EE926000EEA22EF50800B01E15C
:103D700083D102EBE6FFCDEC4FF041E9200EE66E79
:103D8000B9EC4FF041E9200EE66EB9EC4FF041E995
:103D9000200EE66EB9EC4FF041E9200EE66EB9EC6C
:103DA0004FF041E9200EE66EB9EC4FF041E90250C8
:103DB0000A0DF3CFE9FFF4CFEAFF7E0EE926010EEC
:103DC000EA22080EE926000EEA22EF50010B06E077
:103DD000590EE66EB9EC4FF041E905D04E0EE66E95
:103DE000B9EC4FF041E9200EE66EB9EC4FF041E935
:103DF000200EE66EB9EC4FF041E902500A0DF3CF08
:103E0000E9FFF4CFEAFF7E0EE926010EEA22080E52
:103E1000E926000EEA22EF50020B06E0590EE66E8C
:103E2000B9EC4FF041E905D04E0EE66EB9EC4FF01B
:103E300041E9200EE66EB9EC4FF041E9200EE66E46
:103E4000B9EC4FF041E902500A0DF3CFE9FFF4CF8E
:103E5000EAFF7E0EE926010EEA22080EE926000E90
:103E6000EA22EF50080B5AE002500A0DF3CFE9FFA7
:103E7000F4CFEAFF7E0EE926010EEA22E92A000EBF
:103E8000EA22EFCFE6FFCDEC4FF041E902500A0DF8
:103E9000F3CFE9FFF4CFEAFF7E0EE926010EEA2216
:103EA000EFCFE6FFCDEC4FF041E9200EE66EB9EC26
:103EB0004FF041E9200EE66EB9EC4FF041E90250B7
:103EC0000A0DF3CFE9FFF4CFEAFF7E0EE926010EDB
:103ED000EA22020EE926000EEA22E92A000EEA2270
:103EE000EFCFE6FFCDEC4FF041E902500A0DF3CFE2
:103EF000E9FFF4CFEAFF7E0EE926010EEA22020E68
:103F0000E926000EEA22EFCFE6FFCDEC4FF041E9C3
:103F1000200EE66EB9EC4FF041E937D03F0EE66E69
:103F2000B9EC4FF041E93F0EE66EB9EC4FF041E9D4
:103F30003F0EE66EB9EC4FF041E93F0EE66EB9EC8C
:103F40004FF041E9200EE66EB9EC4FF041E9200E4A
:103F5000E66EB9EC4FF041E93F0EE66EB9EC4FF07A
:103F600041E93F0EE66EB9EC4FF041E93F0EE66ED7
:103F7000B9EC4FF041E93F0EE66EB9EC4FF041E984
:103F8000200EE66EB9EC4FF041E902500A0DF3CF76
:103F9000E9FFF4CFEAFF7E0EE926010EEA22080EC1
:103FA000E926000EEA22EF50040B26E0036A040E15
:103FB000035C22E202500A0DF3CFE9FFF4CFEAFFDF
:103FC0007E0EE926010EEA22040EE926000EEA2200
:103FD000E9CFB0FEEACFB1FE030ED88003540E0144
:103FE000EA6AB025E96EB151EA22EFCFE6FFCDECE7
:103FF0004FF041E9032ADBD7200EE66EB9EC4FF013
:1040000041E9036A040E035C09E2040EE66E8F0EBA
:10401000E66E9EEC4FF042E9032AF4D7036A010EE4
:10402000035C20E202500A0DF3CFE9FFF4CFEAFF70
:104030007E0EE926010EEA22090EE926000EEA228A
:10404000E9CFB0FEEACFB1FE03500E01EA6AB02517
:10405000E96EB151EA22EFCFE6FFCDEC4FF041E936
:10406000032ADDD70D0EE66EB9EC4FF041E90A0EDA
:10407000E66EB9EC4FF041E9022A65D695D10050C1
:104080000A0DF3CFE9FFF4CFEAFF7E0EE926010E19
:10409000EA22080EE926000EEA22EF50800B01E129
:1040A00083D100EBE6FFCDEC4FF041E9200EE66E48
:1040B000B9EC4FF041E9200EE66EB9EC4FF041E962
:1040C000200EE66EB9EC4FF041E9200EE66EB9EC39
:1040D0004FF041E9200EE66EB9EC4FF041E9005097
:1040E0000A0DF3CFE9FFF4CFEAFF7E0EE926010EB9
:1040F000EA22080EE926000EEA22EF50010B06E044
:10410000590EE66EB9EC4FF041E905D04E0EE66E61
:10411000B9EC4FF041E9200EE66EB9EC4FF041E901
:10412000200EE66EB9EC4FF041E900500A0DF3CFD6
:10413000E9FFF4CFEAFF7E0EE926010EEA22080E1F
:10414000E926000EEA22EF50020B06E0590EE66E59
:10415000B9EC4FF041E905D04E0EE66EB9EC4FF0E8
:1041600041E9200EE66EB9EC4FF041E9200EE66E13
:10417000B9EC4FF041E900500A0DF3CFE9FFF4CF5D
:10418000EAFF7E0EE926010EEA22080EE926000E5D
:10419000EA22EF50080B5AE000500A0DF3CFE9FF76
:1041A000F4CFEAFF7E0EE926010EEA22E92A000E8C
:1041B000EA22EFCFE6FFCDEC4FF041E900500A0DC7
:1041C000F3CFE9FFF4CFEAFF7E0EE926010EEA22E3
:1041D000EFCFE6FFCDEC4FF041E9200EE66EB9ECF3
:1041E0004FF041E9200EE66EB9EC4FF041E9005086
:1041F0000A0DF3CFE9FFF4CFEAFF7E0EE926010EA8
:10420000EA22020EE926000EEA22E92A000EEA223C
:10421000EFCFE6FFCDEC4FF041E900500A0DF3CFB0
:10422000E9FFF4CFEAFF7E0EE926010EEA22020E34
:10423000E926000EEA22EFCFE6FFCDEC4FF041E990
:10424000200EE66EB9EC4FF041E937D03F0EE66E36
:10425000B9EC4FF041E93F0EE66EB9EC4FF041E9A1
:104260003F0EE66EB9EC4FF041E93F0EE66EB9EC59
:104270004FF041E9200EE66EB9EC4FF041E9200E17
:10428000E66EB9EC4FF041E93F0EE66EB9EC4FF047
:1042900041E93F0EE66EB9EC4FF041E93F0EE66EA4
:1042A000B9EC4FF041E93F0EE66EB9EC4FF041E951
:1042B000200EE66EB9EC4FF041E900500A0DF3CF45
:1042C000E9FFF4CFEAFF7E0EE926010EEA22080E8E
:1042D000E926000EEA22EF50040B26E0036A040EE2
:1042E000035C22E200500A0DF3CFE9FFF4CFEAFFAE
:1042F0007E0EE926010EEA22040EE926000EEA22CD
:10430000E9CFB0FEEACFB1FE030ED88003540E0110
:10431000EA6AB025E96EB151EA22EFCFE6FFCDECB3
:104320004FF041E9032ADBD7200EE66EB9EC4FF0DF
:1043300041E9036A040E035C09E2040EE66E8F0E87
:10434000E66E9EEC4FF042E9032AF4D7036A010EB1
:10435000035C20E200500A0DF3CFE9FFF4CFEAFF3F
:104360007E0EE926010EEA22090EE926000EEA2257
:10437000E9CFB0FEEACFB1FE03500E01EA6AB025E4
:10438000E96EB151EA22EFCFE6FFCDEC4FF041E903
:10439000032ADDD70D0EE66EB9EC4FF041E90A0EA7
:1043A000E66EB9EC4FF041E943E9E7CFD9FF1200DF
:1043B000D9CFE6FFE1CFD9FF81E941E80E0166914F
:1043C000020E0E01655D01E056D10E0166B340D0CC
:1043D000EAEC50F0B3C275FEB4C276FEB5C277FE09
:1043E000B6C278FE0E01686B696B016A040E015C4F
:1043F00013E20150EA6AAA0FE96E020EEA22EF50B8
:10440000E66E0150EA6A6A0FE96E0E0EEA22E55284
:10441000E750EF6E012AEAD70E0166830E0166911E
:10442000016A010E015C13E20150EA6ABF0FE96EF6
:10443000020EEA22EF50E66E0150EA6A6E0FE96E54
:104440000E0EEA22E552E750EF6E012AEAD711D1AB
:104450000E016851691101E16ED10E0139510E0151
:10446000681904E10E013A510E01691901E101D107
:104470000E010B0E386F0E013851382BEA6A000F0F
:10448000E96E000EEA22EF6A0E013851382BEA6A13
:10449000000FE96E000EEA22110EEF6E016A040EA3
:1044A000015C15E20150EA6AAA0FE96E020EEA22E7
:1044B000EF50E66E0E013851382BEA6A000FE96EB4
:1044C000000EEA22E552E750EF6E012AE8D70E010E
:1044D0003851382BEA6A000FE96E000EEA2239CE15
:1044E000EFFF0E013851382BEA6A000FE96E000E1B
:1044F000EA223ACEEFFF016A010E015C15E201509B
:10450000EA6ABF0FE96E020EEA22EF50E66E0E0174
:104510003851382BEA6A000FE96E000EEA22E552A4
:10452000E750EF6E012AE8D7016A040E015C13E23E
:104530000150EA6A6A0FE96E0E0EEA22EF50E66E4B
:104540000150EA6A3E0FE96E0E0EEA22E552E7508C
:10455000EF6E012AEAD768CE42FE69CE43FEEFD85D
:104560000E01676FFF0E0E01675D12E00E016751CD
:104570000A0DF3CFE9FFF4CFEAFF7E0EE926010E24
:10458000EA22080EE926000EEA22EFCF4AFE08D002
:104590000E018C0E4A6F0E0142BF02D00E014A81FD
:1045A0003BCE44FE3CCE45FE0CDA0E01676F016A3D
:1045B000010E015C27E20150EA6A6E0FE96E0E0EF1
:1045C000EA22EF50E66E0E0167510A0DF3CFE9FFC4
:1045D000F4CFEAFF7E0EE926010EEA22090EE92653
:1045E000000EEA22E9CFB0FEEACFB1FE01500E0183
:1045F000EA6AB025E96EB151EA22E552E750EF6E62
:10460000012AD6D7E66AE66A680EE66E0E0EE66EF8
:104610003AEC2DF044E90E0166930E0166810A0E14
:10462000E66EE66A0E0167510A0D01010101E851CB
:10463000F3240E01B06F01010101E951F4200E01D4
:10464000B16FB0CEE6FFB1CEE6FF0E0167510A0DA5
:10465000F3CFB2FEF4CFB3FE7E0E0E01B227010EF1
:104660000E01B323B2CEE6FFB3CEE6FF87EC4AF0ED
:1046700046E961D00AD0EAEC50F0B3C275FEB4C28C
:1046800076FEB5C277FEB6C278FE0E01426B436B72
:104690000E010B0E386F0E013851382BEA6A000FED
:1046A000E96E000EEA22EF6A0E013851382BEA6AF1
:1046B000000FE96E000EEA22100EEF6E016A040E82
:1046C000015C15E20150EA6AAA0FE96E020EEA22C5
:1046D000EF50E66E0E013851382BEA6A000FE96E92
:1046E000000EEA22E552E750EF6E012AE8D7016A90
:1046F000010E015C15E20150EA6ABF0FE96E020E7D
:10470000EA22EF50E66E0E013851382BEA6A000FAC
:10471000E96E000EEA22E552E750EF6E012AE8D773
:10472000E66AE66A420EE66E0E0EE66E3AEC2DF092
:1047300044E90E01668342E9E7CFD9FF1200D9CFE1
:10474000E6FFE1CFD9FF81E941E8016A0A0E015C89
:1047500042E201500A0DF3CFE9FFF4CFEAFF7E0EEB
:10476000E926010EEA22080EE926000EEA22EF50A1
:10477000800B2FE001500A0DF3CFE9FFF4CFEAFFE1
:104780007E0EE926010EEA22080EE926000EEA2234
:10479000EF50080B1EE001500A0DF3CFE9FFF4CFF4
:1047A000EAFF7E0EE926010EEA22020EE926000E3D
:1047B000EA22EECFB0FEEFCFB1FE0E0142510E0164
:1047C000B01904E10E0143510E01B11902E101508B
:1047D00004D0012ABBD7FF0E00D042E9E7CFD9FFB2
:1047E0001200D9CFE6FFE1CFD9FF81E941E80E0100
:1047F000386B0E013851382BEA6A000FE96E000E53
:10480000EA223BCEEFFF0E013851382BEA6A000F47
:10481000E96E000EEA223CCEEFFF0E013851382B34
:10482000EA6A000FE96E000EEA2239CEEFFF0E01B0
:104830003851382BEA6A000FE96E000EEA223ACEB0
:10484000EFFF0E013851382BEA6A000FE96E000EB7
:10485000EA22EF680E013851382BEA6A000FE96E40
:10486000000EEA2200CEEFFF0E013851382BEA6A23
:10487000000FE96E000EEA22EF6A0E013851382B64
:10488000EA6A000FE96E000EEA22EF6A0E01385163
:10489000382BEA6A000FE96E000EEA225D0EEF6E19
:1048A0000E013851382BEA6A000FE96E000EEA2239
:1048B000410EEF6E016A010E015C15E20150EA6AD9
:1048C000BF0FE96E020EEA22EF50E66E0E0138517C
:1048D000382BEA6A000FE96E000EEA22E552E75033
:1048E000EF6E012AE8D7030EE66E000EE66EE66A6A
:1048F000E7EC1DF043E942E9E7CFD9FF1200D9CF39
:10490000E6FFE1CFD9FF81E942E8016A0A0E015CC6
:1049100052E201500A0DF3CFE9FFF4CFEAFF7E0E19
:10492000E926010EEA22080EE926000EEA22EF50DF
:10493000800B3FE001500A0DF3CFE9FFF4CFEAFF0F
:104940007E0EE926010EEA22080EE926000EEA2272
:10495000EF50040B2EE0026A040E025C28E20150C4
:104960000A0DF3CFE9FFF4CFEAFF7E0EE926010E30
:10497000EA22040EE926000EEA22E9CFB1FEEACFD0
:10498000B2FE02500E01EA6AB125E96EB251EA2286
:10499000EFCFB0FE0250EA6A3E0FE96E0E0EEA2239
:1049A000EF500E01B05D01E004D0022AD5D70150CE
:1049B00004D0012AABD7FF0E00D043E9E7CFD9FFDF
:1049C0001200D9CFE6FFE1CFD9FF81E942E80168C3
:1049D0000E014AA503D093DF016E05D00E014AA750
:1049E00002D0ADDE016EFF0E015C03E121EC1EF092
:1049F000016EFF0E015C6EE001500A0DF3CFE9FF7E
:104A0000F4CFEAFF7E0EE926010EEA22080EE9261F
:104A1000000EEA224ACEEFFF0E014AA52AD0026A12
:104A2000040E025C26E20250EA6A3E0FE96E0E0EA8
:104A3000EA22EF50E66E01500A0DF3CFE9FFF4CF02
:104A4000EAFF7E0EE926010EEA22040EE926000E98
:104A5000EA22E9CFB0FEEACFB1FE02500E01EA6AC7
:104A6000B025E96EB151EA22E552E750EF6E022A15
:104A7000D7D70E014AA712D001500A0DF3CFE9FF94
:104A8000F4CFEAFF7E0EE926010EEA22020EE926A5
:104A9000000EEA2242CEEEFF43CEEDFF01500A0D9A
:104AA000F3CFE9FFF4CFEAFF7E0EE926010EEA22FA
:104AB00044CEEEFF45CEEDFF0150040DF3CFE9FFEC
:104AC000F4CFEAFF330EE926000EEA22EE6AEE6A20
:104AD000EE6AEE6A015000D043E9E7CFD9FF120039
:104AE000D9CFE6FFE1CFD9FF85E941E8056A040E99
:104AF000055C16E205500224E96E000E0320EA6E02
:104B0000EFCFB0FE05500024E96E000E0120EA6EE2
:104B1000EF500E01B05D02E0000E04D0052AE7D789
:104B2000010E00D042E9E7CFD9FF1200D9CFE6FF4E
:104B3000E1CFD9FF82E945E823EC4BF00E0139695A
:104B40003A690E01340E3B6F120E3C6F056A0A0E75
:104B5000055C11E205500A0DF3CFE9FFF4CFEAFF3F
:104B60007E0EE926010EEA22080EE926000EEA2250
:104B7000EF6A052AECD7056A020E055C09E20550CA
:104B8000EA6A3C0FE96E010EEA22EF6A052AF4D7C1
:104B9000056A100E055C09E20550EA6A3E0FE96EEF
:104BA000010EEA22EF6A052AF4D70E01656B0E01A9
:104BB0004C6B0E01496B0E014B6B0E01666B0E01C7
:104BC000006BDFEC50F00E01386B056A0A0E055CD5
:104BD00010E20550040DF3CFE9FFF4CFEAFF330EE6
:104BE000E926000EEA22EE6AEE6AEE6AEE6A052A0D
:104BF000EDD7005001E1F4D0010EE66EE66AE4C1A3
:104C0000E6FFE5C1E6FFAE0EE66E020EE66E49EC8B
:104C10004AF046E9200E0201AE5D02E3000ED2D159
:104C2000020EE66EE66AECC1E6FFEDC1E6FF390E64
:104C3000E66E0E0EE66E49EC4AF046E90E01391DAD
:104C400001E13A1D02E1000EBDD1020EE66EE66AF8
:104C5000E2C1E6FFE3C1E6FF3B0EE66E0E0EE66E36
:104C600049EC4AF046E9010EE66EE66AE6C1E6FF67
:104C7000E7C1E6FFAF0EE66E020EE66E49EC4AF0C3
:104C800046E90201AF510E01030BF36EF346F34602
:104C9000F346F346CF0E0015F310006F640EE66E78
:104CA000E66AE8C1E6FFE9C1E6FF7E0EE66E010EA8
:104CB000E66E49EC4AF046E9020EE66EE66AECC1A1
:104CC000E6FFEDC1E6FF390EE66E0E0EE66E49EC2C
:104CD0004AF046E9010EE66EE66AEEC1E6FFEFC174
:104CE000E6FF3D0EE66E0E0EE66E49EC4AF046E932
:104CF000020EE66EE66AF0C1E6FFF1C1E6FF3C0E89
:104D0000E66E010EE66E49EC4AF046E9200EE66ECC
:104D1000E66AF2C1E6FFF3C1E6FF5E0EE66E010E43
:104D2000E66E49EC4AF046E9100EE66EE66AF4C11A
:104D3000E6FFF5C1E6FF4E0EE66E010EE66E49ECAB
:104D40004AF046E9010EE66EE66AF6C1E6FFF7C1F3
:104D5000E6FF650EE66E0E0EE66E49EC4AF046E999
:104D6000FB0EE66E8E0EE66E9EEC4FF042E9AEC292
:104D7000E6FFF7EC4FF041E9F30EE66E8E0EE66EBD
:104D80009EEC4FF042E93CCEE6FFCDEC4FF041E91E
:104D90003BCEE6FFCDEC4FF041E9E80EE66E8E0E1D
:104DA000E66E9EEC4FF042E93ACEE6FFCDEC4FF0D6
:104DB00041E939CEE6FFCDEC4FF041E9AEC2E6FF66
:104DC00005D941E93B0EE66E0E0EE66E390EE66E33
:104DD0000E0EE66EA2EC34F044E90E01498388D051
:104DE000020EE66EE66AE2C1E6FFE3C1E6FF3B0EB5
:104DF000E66E0E0EE66E87EC4AF046E9010EE66EB0
:104E0000E66AE4C1E6FFE5C1E6FFAE0EE66E020E1D
:104E1000E66E87EC4AF046E9010EE66EE66AE6C108
:104E2000E6FFE7C1E6FFAF0EE66E020EE66E87EC28
:104E30004AF046E9640EE66EE66AE8C1E6FFE9C1BB
:104E4000E6FF7E0EE66E010EE66E87EC4AF046E95E
:104E5000020EE66EE66AECC1E6FFEDC1E6FF390E32
:104E6000E66E0E0EE66E87EC4AF046E9010EE66E3F
:104E7000E66AEEC1E6FFEFC1E6FF3D0EE66E0E0EFE
:104E8000E66E87EC4AF046E9056A020E055C09E227
:104E90000550EA6A3C0FE96E010EEA22EF6A052A24
:104EA000F4D7056A100E055C23E2066A020E065C62
:104EB00016E20550020DF3CFB0FEF4CFB1FE5E0E48
:104EC0000E01B027010E0E01B12306500E01EA6A51
:104ED000B025E96EB151EA22EF6A062AE7D70550FC
:104EE000EA6A4E0FE96E010EEA22EF68052ADAD768
:104EF000026A02960298028A029C02820050029480
:104F0000E8B00284AA0E036E020E046E02EBE6FF06
:104F100003EBE6FF04EBE6FFFFEC34F043E93B0E66
:104F2000E66E0E0EE66E390EE66E0E0EE66EA2EC24
:104F300034F044E9AEC2E6FF49D841E90E010081F0
:104F40000E0100870201AF510E01030BF36EF34611
:104F5000F346F346F346CF0E0015F310006F0E0133
:104F6000008D0E0165510E01030BF36EF346F90E31
:104F70000015F310006F0E014B6BEAEC50F0B3C25A
:104F80004DFEB4C24EFEB5C24FFEB6C250FE4DCE6F
:104F900051FE4ECE52FE4FCE53FE50CE54FE056A09
:104FA000100E055C09E20550EA6A550FE96E0E0E17
:104FB000EA22EF6A052AF4D7D6CF48FEF094F08AA9
:104FC000010E00D046E9E7CFD9FF1200D9CFE6FFA6
:104FD000E1CFD9FF82E9E66A00EBE6FFADEC34F001
:104FE00042E9000912E000EBAEF2010EE66EE66A5D
:104FF000E4C1E6FFE5C1E6FFAE0EE66E020EE66E28
:1050000087EC4AF046E9010E02D0000E00D041E9DB
:10501000E7CFD9FF1200D9CFE6FFE1CFD9FF82E970
:105020000050030801E21DD000EBAFF20201AF51C6
:105030000E01030BF36EF346F346F346F346CF0E31
:105040000015F310006F010EE66EE66AE6C1E6FF9A
:10505000E7C1E6FFAF0EE66E020EE66E87EC4AF0A1
:1050600046E941E9E7CFD9FF1200D9CFE6FFE1CF0A
:10507000D9FF86E94EE8010E076E086A096A0A6AD6
:105080000201AE510B6E066A040E065C0DE206507C
:105090000B0DF3CFE9FFF4CFEAFF0C0EE9260E0E5D
:1050A000EA22EF68062AF0D70E010B6B0E01498148
:1050B000066A200E065C01E3BFD007EBB0FE08EBEA
:1050C000B1FE09EBB2FE0AEBB3FE06501F0B08E07F
:1050D0000E01D890B037B137B237B337E806F9E1EF
:1050E000D9CFE9FFDACFEAFFEE500E01B017EE504C
:1050F0000E01B117EE500E01B217EE500E01B317AC
:105100000E01B051B111B211B31101E193D0D80E1B
:10511000E66E8E0EE66E9EEC4FF042E906EBE6FF81
:10512000F7EC4FF041E906EBE6FF50DF41E90E01F5
:10513000386B0E013851382BEA6A000FE96E000E09
:10514000EA22070EEF6E0E013851382BEA6A000F83
:10515000E96E000EEA22AEC2EFFF010EE66E000E0F
:10516000E66EE66AE7EC1DF043E9EAEC50F0B3C204
:10517000B0FEB4C2B1FEB5C2B2FEB6C2B3FE0E01FD
:10518000B0510C6EB1510D6EB2510E6EB3510F6E27
:10519000C6DA000901E0CCDAEAEC50F0B3C2B0FEA6
:1051A000B4C2B1FEB5C2B2FEB6C2B3FE0E01B0517A
:1051B000106EB151116EB251126EB351136E10EBED
:1051C000B4FE11EBB5FE12EBB6FE13EBB7FED950F1
:1051D0000C0FE96EDACFEAFFEE500E01B45D0E015E
:1051E000B06FEE500E01B5590E01B16FEE500E01C9
:1051F000B6590E01B26FEE500E01B7590E01B36FE2
:105200000450040DF3CFF6FFF4CFF7FF620EF6263D
:10521000A40EF7220E01B0510900F55CB15109004E
:10522000F558B2510900F558B3510900F55801E29B
:1052300001D0AED7062A3DD70BEBE6FFC7DE41E92A
:105240000E0149910E010B5100D04FE9E7CFD9FF74
:105250001200D9CFE6FFE1CFD9FF83E94AE8030E78
:10526000036E000413E1D8EC21F00E0166A305D013
:1052700056DA000901E05CDAF8D70E0166A103D026
:105280000E01675148D2FF0E46D243D2005001E0D2
:1052900040D2FF0E015C26E10E01010EB06FB16B32
:1052A000B26BB36B0201AE511F0B08E00E01D89038
:1052B000B037B137B237B337E806F9E1B0CEE6FF21
:1052C000B1CEE6FFB2CEE6FFB3CEE6FF0A0EE66E43
:1052D000CCDE45E9000905E1030602E1FF0E1BD221
:1052E000DBD7016A01500B0DF3CFE9FFF4CFEAFFE2
:1052F0000C0EE9260E0EEA22050EE926000EEA2221
:10530000EECF44FEEDCF45FE046A040E045C23E2BA
:1053100001500B0DF3CFE9FFF4CFEAFF0C0EE926A5
:105320000E0EEA22EE52E9CFB0FEEACFB1FE0450F3
:105330000E01EA6AB025E96EB151EA22EF50E66E3D
:105340000450EA6A3E0FE96E0E0EEA22E552E7507B
:10535000EF6E042ADAD77FEC24F00E013D6FFF0ECA
:105360000E013D5D08E121EC1EF00E013D6FFF08CE
:1053700002E1FF0ED0D10E013D510A0DF3CFE9FF3E
:10538000F4CFEAFF7E0EE926010EEA22080EE92696
:10539000000EEA22EF6A01500B0DF3CFE9FFF4CFC4
:1053A000EAFF0C0EE9260E0EEA22050EE926000E93
:1053B000EA22EECFB0FEEFCFB1FE0E013D510A0D55
:1053C000F3CFE9FFF4CFEAFF7E0EE926010EEA22D1
:1053D000B0CEEEFFB1CEEDFF046A040E045C37E2FE
:1053E00001500B0DF3CFE9FFF4CFEAFF0C0EE926D5
:1053F0000E0EEA22EE52E9CFB2FEEACFB3FE04501F
:105400000E01EA6AB225E96EB351EA22EF50E66E68
:105410000E013D510A0DF3CFE9FFF4CFEAFF7E0EF6
:10542000E926010EEA22040EE926000EEA22E9CF5F
:10543000B0FEEACFB1FE04500E01EA6AB025E96E73
:10544000B151EA22E552E750EF6E042AC6D70E01A9
:105450003D510A0DF3CFE9FFF4CFEAFF7E0EE926B6
:10546000010EEA22080EE926000EEA22EF84046A01
:10547000010E045C3AE201500B0DF3CFE9FFF4CFCB
:10548000EAFF0C0EE9260E0EEA220A0EE926000EAD
:10549000EA22E9CFB2FEEACFB3FE04500E01EA6A77
:1054A000B225E96EB351EA22EF50E66E0E013D518E
:1054B0000A0DF3CFE9FFF4CFEAFF7E0EE926010ED5
:1054C000EA22090EE926000EEA22E9CFB0FEEACF71
:1054D000B1FE04500E01EA6AB025E96EB151EA222C
:1054E000E552E750EF6E042AC3D70E013D510A0D75
:1054F000F3CFE9FFF4CFEAFF7E0EE926010EEA22A0
:10550000080EE926000EEA22EF820E013D510A0D37
:10551000F3CFE9FFF4CFEAFF7E0EE926010EEA227F
:10552000080EE926000EEA22EF8A0E013D510A0D0F
:10553000F3CFE9FFF4CFEAFF7E0EE926010EEA225F
:10554000080EE926000EEA22EF8001500B0DF3CF82
:10555000E9FFF4CFEAFF0C0EE9260E0EEA22EFCFA8
:10556000E6FF34DD41E90E013D510A0DF3CFE9FFBD
:10557000F4CFEAFF7E0EE926010EEA22EECF3BFED3
:10558000EDCF3CFE0E01426943693B0EE66E0E0E06
:10559000E66E420EE66E0E0EE66EA2EC34F044E9C4
:1055A0000E01386B0E013851382BEA6A000FE96E94
:1055B000000EEA22010EEF6E0E013851382BEA6A16
:1055C000000FE96E000EEA2200CEEFFF046A010E22
:1055D000045C15E20450EA6ABF0FE96E020EEA228B
:1055E000EF50E66E0E013851382BEA6A000FE96E73
:1055F000000EEA22E552E750EF6E042AE8D7010ECA
:10560000E66E0E013D510A0DF3CFE9FFF4CFEAFF3C
:105610007E0EE926010EEA22040EE926000EEA2299
:10562000E9CFB0FEEACFB1FEB0CEE6FFB1CEE6FFE5
:10563000E7EC1DF043E9EAEC50F0B3C2B0FEB4C2AF
:10564000B1FEB5C2B2FEB6C2B3FE0E01B051056ED8
:10565000B151066EB251076EB351086E0E013D5145
:105660000A0DF3CFE9FFF4CFEAFF7E0EE926010E23
:10567000EA22080EE926000EEA22EF50100B46E15E
:105680004ED8000901E054D8EAEC50F0B3C2B0FEA5
:10569000B4C2B1FEB5C2B2FEB6C2B3FE0E01B05185
:1056A000096EB1510A6EB2510B6EB3510C6E09EB1B
:1056B000B4FE0AEBB5FE0BEBB6FE0CEBB7FED95011
:1056C000050FE96EDACFEAFFEE500E01B45D0E0170
:1056D000B06FEE500E01B5590E01B16FEE500E01D4
:1056E000B6590E01B26FEE500E01B7590E01B36FED
:1056F000D880240E0E01B055F40EB155000EB255EF
:10570000000EB35502E2FF0E06D0A8D70E013D51A0
:1057100002D0FF0E00D04BE9E7CFD9FF120095EC85
:1057200000F00E014951040B01E0010E00D01200FF
:105730000E014995D2EC39F01200D9CFE6FFE1CF46
:10574000D9FF82E900EBE6FF010EE66E06D842E9DA
:1057500000D041E9E7CFD9FF1200D9CFE6FFE1CF72
:10576000D9FF83E9B2C200F00001020E016F3BCE07
:1057700002F03CCE03F00150020A0CE0010A06E000
:10578000020A01E00BD0000104690AD00001FE0EFC
:10579000046F06D00001FD0E046F02D0000E2DD064
:1057A000000105693BCE06F03CCE07F039CE08F08B
:1057B0003ACE09F00E014851482B00010A6F0E0144
:1057C000796B0E01798500500E017997E8B07987E1
:1057D000020E015C02E10E01798F38CEE6FF000E69
:1057E000E66E000EE66E79CEE6FF7ACEE6FF7BCE61
:1057F000E6FFF8EC35F046E900D041E9E7CFD9FF04
:105800001200D9CFE6FFE1CFD9FF83E949E8015083
:105810000A0DF3CFE9FFF4CFEAFF7E0EE926010E71
:10582000EA22080EE926000EEA22EF50800B02E180
:10583000000E1CD10201B1511CE000010B5119E016
:105840000E01498748CEB0F201500A0DF3CFE9FFAF
:10585000F4CFEAFF7E0EE926010EEA22020EE926C7
:10586000000EEA22EECF46FEEDCF47FE060E036E97
:1058700004D00E014997020E036EB2C200F003EB92
:1058800001F001500A0DF3CFE9FFF4CFEAFF7E0EDD
:10589000E926010EEA22EFCF02F001500A0DF3CF04
:1058A000E9FFF4CFEAFF7E0EE926010EEA22E92A9B
:1058B000000EEA22EFCF03F001500A0DF3CFE9FF0B
:1058C000F4CFEAFF7E0EE926010EEA22020EE92657
:1058D000000EEA22EFCF04F001500A0DF3CFE9FFEA
:1058E000F4CFEAFF7E0EE926010EEA22020EE92637
:1058F000000EEA22E92A000EEA22EFCF05F03BCEA5
:1059000006F03CCE07F039CE08F03ACE09F00E0191
:105910004851482B00010A6F00EBE6FF01500A0DC9
:10592000F3CFE9FFF4CFEAFF7E0EE926010EEA226B
:10593000020EE926000EEA22EECFE6FFEECFE6FFEA
:1059400001500A0DF3CFE9FFF4CFEAFF7E0EE926FE
:10595000010EEA22EECFE6FFEECFE6FF07EC1CF0E9
:1059600045E9000905E10E014997000E7FD07CD082
:105970000E010E014951080B01E176D001500A0DCC
:10598000F3CFE9FFF4CFEAFF7E0EE926010EEA220B
:10599000020EE926000EEA22EECFB0FEEFCFB1FEF6
:1059A000800E0E01B05D60E2EAEC50F0B3C2B0FED2
:1059B000B4C2B1FEB5C2B2FEB6C2B3FE0E01B05162
:1059C000046EB151056EB251066EB351076EA7DE7B
:1059D000000901E0ADDE0E0149B702D0010E46D04C
:1059E000EAEC50F0B3C2B0FEB4C2B1FEB5C2B2FE32
:1059F000B6C2B3FE0E01B051086EB151096EB2517C
:105A00000A6EB3510B6E08EBB4FE09EBB5FE0AEB60
:105A1000B6FE0BEBB7FED950040FE96EDACFEAFF02
:105A2000EE500E01B45D0E01B06FEE500E01B5598F
:105A30000E01B16FEE500E01B6590E01B26FEE506D
:105A40000E01B7590E01B36FD880240E0E01B05568
:105A5000F40EB155000EB255000EB35504E20E011E
:105A60004997000E03D0B3D7010E00D04AE9E7CF23
:105A7000D9FF1200D9CFE6FFE1CFD9FF85E953E87E
:105A8000015040E102EBE9FF03EBEAFFEFCF42FEFA
:105A90000228E96E000E0320EA6EEFCF43FE0E01EE
:105AA0004251FC08FF0E43552DE2FD0E0E01421936
:105AB00002E1E86843191DE0FE0E0E01421902E101
:105AC000E86843190FE0E8680E01421902E1E8684E
:105AD000431901E015D000EBE6FF010EE66E3DDE56
:105AE00042E942D200EBE6FF030EE66E36DE42E903
:105AF0003BD200EBE6FF020EE66E2FDE42E934D227
:105B0000000E32D20201B1510AE000010B5107E050
:105B10000E01498748CEB0F2060E076E04D00E0182
:105B20004997020E076E015001E15DD1066A040E2D
:105B3000065C13E206500224E96E000E0320EA6EB2
:105B4000EF50E66E0650EA6A3E0FE96E0E0EEA224C
:105B5000E552E750EF6E062AEAD77FEC24F0056E97
:105B6000FF0E055C3AE1B2C200F00001020E016FC7
:105B7000000102690001036900010469000105696F
:105B80003BCE06F03CCE07F039CE08F03ACE09F015
:105B90000E014851482B00010A6F0E01796B0E016E
:105BA000798B00500E017997E8B0798702EB7AFE85
:105BB00003EB7BFE0E01499738CEE6FF000EE66E42
:105BC000000EE66E79CEE6FF7ACEE6FF7BCEE6FFEC
:105BD000F8EC35F046E9C8D106D105500A0DF3CFEF
:105BE000E9FFF4CFEAFF7E0EE926010EEA22080E55
:105BF000E926000EEA22EF50080B01E1B4D70201BA
:105C0000B15112E005500A0DF3CFE9FFF4CFEAFFDE
:105C10007E0EE926010EEA22020EE926000EEA2295
:105C2000EECF46FEEDCF47FEB2C200F007EB01F02B
:105C300005500A0DF3CFE9FFF4CFEAFF7E0EE92607
:105C4000010EEA22EFCF02F005500A0DF3CFE9FF73
:105C5000F4CFEAFF7E0EE926010EEA22E92A000EC1
:105C6000EA22EFCF03F005500A0DF3CFE9FFF4CF9E
:105C7000EAFF7E0EE926010EEA22020EE926000E58
:105C8000EA22EFCF04F005500A0DF3CFE9FFF4CF7D
:105C9000EAFF7E0EE926010EEA22020EE926000E38
:105CA000EA22E92A000EEA22EFCF05F03BCE06F009
:105CB0003CCE07F039CE08F03ACE09F00E0148513B
:105CC000482B00010A6F00EBE6FF05500A0DF3CFE9
:105CD000E9FFF4CFEAFF7E0EE926010EEA22020E6A
:105CE000E926000EEA22EECFE6FFEECFE6FF0550F2
:105CF0000A0DF3CFE9FFF4CFEAFF7E0EE926010E8D
:105D0000EA22EECFE6FFEECFE6FF07EC1CF045E916
:105D1000000904E10E014997000E26D10E0149A7A2
:105D200060D0EAEC50F0B3C2B0FEB4C2B1FEB5C26E
:105D3000B2FEB6C2B3FE0E01B051086EB151096E8B
:105D4000B2510A6EB3510B6EEADC000901E0F0DCDF
:105D50000E0149B702D0010E07D1EAEC50F0B3C2F0
:105D6000B0FEB4C2B1FEB5C2B2FEB6C2B3FE0E0101
:105D7000B0510C6EB1510D6EB2510E6EB3510F6E2B
:105D80000CEBB4FE0DEBB5FE0EEBB6FE0FEBB7FE63
:105D9000D950080FE96EDACFEAFFEE500E01B45D7C
:105DA0000E01B06FEE500E01B5590E01B16FEE50FD
:105DB0000E01B6590E01B26FEE500E01B7590E0129
:105DC000B36FD880240E0E01B055F40EB155000EFD
:105DD000B255000EB35504E20E014997000EC4D02F
:105DE000B3D7010EC1D0B2C200F007EB01F03BCE39
:105DF00002F03CCE03F002EBE9FF03EBEAFFEFCF4A
:105E000004F00228E96E000E0320EA6EEFCF05F0E1
:105E10003BCE06F03CCE07F039CE08F03ACE09F082
:105E20000E014851482B00010A6F02EBE9FF03EB1A
:105E3000EAFFEFCF46FE0228E96E000E0320EA6E6D
:105E4000EFCF47FE02EBE9FF03EBEAFFEFCF42FEA5
:105E50000228E96E000E0320EA6EEFCF43FE00EB4E
:105E6000E6FF42CEE6FF43CEE6FF3BCEE6FF3CCE6A
:105E7000E6FF07EC1CF045E9000905E10E01499732
:105E8000000E72D06FD00E010E014951080B6AE06E
:105E900002EBE9FF03EBEAFFEFCFB0FE800E0E014D
:105EA000B05D60E2EAEC50F0B3C2B0FEB4C2B1FE45
:105EB000B5C2B2FEB6C2B3FE0E01B051106EB15102
:105EC000116EB251126EB351136E29DC000901E05C
:105ED0002FDC0E0149B702D0010E46D0EAEC50F09B
:105EE000B3C2B0FEB4C2B1FEB5C2B2FEB6C2B3FE1A
:105EF0000E01B051146EB151156EB251166EB35100
:105F0000176E14EBB4FE15EBB5FE16EBB6FE17EBF1
:105F1000B7FED950100FE96EDACFEAFFEE500E014E
:105F2000B45D0E01B06FEE500E01B5590E01B16FA8
:105F3000EE500E01B6590E01B26FEE500E01B75978
:105F40000E01B36FD880240E0E01B055F40EB1557A
:105F5000000EB255000EB35504E20E014997000E33
:105F600003D0B3D7010E00D054E9E7CFD9FF120018
:105F7000D9CFE6FFE1CFD9FF87E90550020A01E159
:105F800088D0030A01E183D0010A01E084D00E0128
:105F9000396B3A6B0E013D690E01340E3B6F120EE8
:105FA0003C6F3B0EE66E0E0EE66E390EE66E0E0E82
:105FB000E66EA2EC34F044E90E0149830E01020EB4
:105FC000656F0E0165510E01030BF36EF346F90E7A
:105FD0000015F310006F01014E6B01013C6B0101D4
:105FE0005E6B020EE66EE66AECC1E6FFEDC1E6FF0F
:105FF000390EE66E0E0EE66E87EC4AF046E9020EAA
:10600000E66EE66AE2C1E6FFE3C1E6FF3B0EE66E3E
:106010000E0EE66E87EC4AF046E9010EE66EE66A81
:10602000F6C1E6FFF7C1E6FF650EE66E0E0EE66E00
:1060300087EC4AF046E9100EE66EE66AF4C1E6FF28
:10604000F5C1E6FF4E0EE66E010EE66E87EC4AF0F5
:1060500046E9020EE66EE66AF0C1E6FFF1C1E6FF30
:106060003C0EE66E010EE66E87EC4AF046E9200E25
:10607000E66EE66AF2C1E6FFF3C1E6FF5E0EE66E8B
:10608000010EE66E87EC4AF046E9010E07D0000EDD
:1060900005D0000E03D000D0000E00D041E9E7CFBC
:1060A000D9FF1200D9CFE6FFE1CFD9FF82E941E85D
:1060B000FF0E005C01E0C1D0026A0A0E025C6FE2D2
:1060C00002500A0DF3CFE9FFF4CFEAFF7E0EE92676
:1060D000010EEA22080EE926000EEA22EF50800B9C
:1060E0004DE002500A0DF3CFE9FFF4CFEAFF7E0E38
:1060F000E926010EEA22080EE926000EEA22EF50F8
:10610000200B3CE00E01386B0E013851382BEA6A47
:10611000000FE96E000EEA22030EEF6E0E01796B9E
:106120000E01798B0E01798179930E01798F0250DE
:106130000A0DF3CFE9FFF4CFEAFF7E0EE926010E48
:10614000EA22040EE926000EEA22E9CF7AFEEACF1F
:106150007BFE38CEE6FF000EE66E000EE66E79CED0
:10616000E6FF7ACEE6FF7BCEE6FFF8EC35F046E9B7
:10617000640EE66EE66A37EC4FF042E902500A0D13
:10618000F3CFE9FFF4CFEAFF7E0EE926010EEA2203
:10619000080EE926000EEA22EF6A022A8ED70E01C7
:1061A0003D690E0139693A690E013B693C693B0E54
:1061B000E66E0E0EE66E390EE66E0E0EE66EA2EC82
:1061C00034F044E90E014993020EE66EE66AECC132
:1061D000E6FFEDC1E6FF390EE66E0E0EE66E87ECC9
:1061E0004AF046E9020EE66EE66AE2C1E6FFE3C166
:1061F000E6FF3B0EE66E0E0EE66E87EC4AF046E9D1
:10620000010EE66EE66AEEC1E6FFEFC1E6FF3D0E67
:10621000E66E0E0EE66E87EC4AF046E9640EE66E18
:10622000E66AE8C1E6FFE9C1E6FF7E0EE66E010E12
:10623000E66E87EC4AF046E9A6D100500A0DF3CF8E
:10624000E9FFF4CFEAFF7E0EE926010EEA22080EEE
:10625000E926000EEA22EF50800B01E194D10050B4
:106260000A0DF3CFE9FFF4CFEAFF7E0EE926010E17
:10627000EA22080EE926000EEA22EF50200B01E187
:1062800000D10E013D51005C01E0FBD00E01386BE6
:106290000E013851382BEA6A000FE96E000EEA222F
:1062A000030EEF6E0E01796B0E01798B0E01798171
:1062B00079930E01798F00500A0DF3CFE9FFF4CFE7
:1062C000EAFF7E0EE926010EEA22040EE926000E00
:1062D000EA22E9CF7AFEEACF7BFE38CEE6FF000E57
:1062E000E66E000EE66E79CEE6FF7ACEE6FF7BCE56
:1062F000E6FFF8EC35F046E900500A0DF3CFE9FF70
:10630000F4CFEAFF7E0EE926010EEA22080EE92606
:10631000000EEA22EF6A640EE66EE66A37EC4FF092
:1063200042E9026A0A0E025C5EE202500A0DF3CFF5
:10633000E9FFF4CFEAFF7E0EE926010EEA22080EFD
:10634000E926000EEA22EF50800B3CE002500A0DD5
:10635000F3CFE9FFF4CFEAFF7E0EE926010EEA2231
:10636000080EE926000EEA22EF50200B2BE0025027
:106370000E013D5D27E002500A0DF3CFE9FFF4CF97
:10638000EAFF7E0EE926010EEA22040EE926000E3F
:10639000EA22E9CF7AFEEACF7BFE38CEE6FF000E96
:1063A000E66E000EE66E79CEE6FF7ACEE6FF7BCE95
:1063B000E6FFF8EC35F046E9640EE66EE66A37EC87
:1063C0004FF042E902500A0DF3CFE9FFF4CFEAFFA4
:1063D0007E0EE926010EEA22080EE926000EEA22C8
:1063E000EF6A022A9FD70E013D690E0139693A69A9
:1063F0000E013B693C693B0EE66E0E0EE66E390EF1
:10640000E66E0E0EE66EA2EC34F044E90E014993FE
:10641000020EE66EE66AECC1E6FFEDC1E6FF390E5C
:10642000E66E0E0EE66E87EC4AF046E9020EE66E68
:10643000E66AE2C1E6FFE3C1E6FF3B0EE66E0E0E42
:10644000E66E87EC4AF046E9010EE66EE66AEEC1BA
:10645000E6FFEFC1E6FF3D0EE66E0E0EE66E87EC40
:106460004AF046E9640EE66EE66AE8C1E6FFE9C175
:10647000E6FF7E0EE66E010EE66E87EC4AF046E918
:1064800082D000500A0DF3CFE9FFF4CFEAFF7E0E71
:10649000E926010EEA22080EE926000EEA22EF5054
:1064A000200B71E00E013D51005C6DE00E01386B78
:1064B0000E013851382BEA6A000FE96E000EEA220D
:1064C000030EEF6E0E01796B0E01798B0E0179814F
:1064D00079930E01798F00500A0DF3CFE9FFF4CFC5
:1064E000EAFF7E0EE926010EEA22040EE926000EDE
:1064F000EA22E9CF7AFEEACF7BFE38CEE6FF000E35
:10650000E66E000EE66E79CEE6FF7ACEE6FF7BCE33
:10651000E6FFF8EC35F046E900500A0DF3CFE9FF4D
:10652000F4CFEAFF7E0EE926010EEA22080EE926E4
:10653000000EEA22EF6A0A0EE66EE66A00500A0DC5
:1065400001010101E851F3240E01B06F01010101C5
:10655000E951F4200E01B16FB0CEE6FFB1CEE6FFF7
:1065600000500A0DF3CFB2FEF4CFB3FE7E0E0E0143
:10657000B227010E0E01B323B2CEE6FFB3CEE6FF83
:0E65800087EC4AF046E942E9E7CFD9FF120066
:02658E00D9CF63
:10659000E6FFE1CFD9FF81E950E8060E016E060E55
:1065A000026E060E036E050E046E050E056E040ED9
:1065B000066E040E076E040E086E030E096E030EBF
:1065C0000A6E020E0B6E020E0C6E010E0D6E010EA7
:1065D0000E6E010E0F6E010E106E03500E01B26FA3
:1065E000B36B050EB2CEB0FEB3CEB1FE000A06E02C
:1065F0000E01D890B037B137E804FBE1B0CEF3FF1D
:10660000B1CEF4FF00D051E9E7CFD9FF1200D9CFC6
:10661000E6FFE1CFD9FF83E941E8F050200B01E02C
:10662000010E036EF09A8B940E0101EBB0FEB16B7C
:10663000B0CEE6FFFEEC51F041E900EBE6FFFEECE8
:1066400051F041E98B840350E8B0F08AE8A0F09A59
:1066500042E9E7CFD9FF1200D9CFE6FFE1CFD9FF5A
:1066600081E943E88D50020B01E0010E016E8B5071
:10667000040B01E0010E026EF050200B01E0010E50
:10668000036EF09A8D828B9412EC52F00201496FE6
:1066900012EC52F002014A6F0150E8B08D82E8A07E
:1066A0008D920250E8B08B84E8A08B940350E8B040
:1066B000F08AE8A0F09A44E9E7CFD9FF1200D9CFD9
:1066C000E6FFE1CFD9FF83E952E8030E116E1150C6
:1066D0001106000901E12FD1126A0201C16B106A93
:1066E000005023E0810EE66E820EE66E90DF42E9F6
:1066F000146A0D6A050E0D5C0EE2AEDF02014ABFA0
:10670000142A010EE66EE66AE66AE66AD8EC4EF0F6
:1067100044E90D2AEFD71450020807E21050102A5E
:10672000040802E2000E0AD1E3D7F09A010EE66EE9
:10673000820EE66E6CDF42E9B30EE66E800EE66E08
:1067400066DF42E9210EE66E820EE66E60DF42E908
:10675000010EE66EE66A37EC4FF042E9046A136A0E
:106760008B94B80EE66EFEEC51F041E9AA0EE66E8F
:10677000FEEC51F041E90E6A0F6A020E0124045C3E
:106780005FE281AA2FD0030E135C1DE21350020AB0
:1067900011E0030A09E0010A01E012D02D0EE66EB5
:1067A000FEEC51F041E90DD0D40EE66EFEEC51F056
:1067B00041E907D001EBE6FFFEEC51F041E901D0E1
:1067C00000D0132A0CD00450EA6A000FE96E020EC2
:1067D000EA22EFCFE6FFFEEC51F041E9042A0E6A0F
:1067E0000F6A2DD00EEBB0FE0FEBB1FE0E2A000E9D
:1067F0000F220E01B051FE08FF0EB15520E28B842E
:106800001250122A140801E21BD0810EE66E820E8D
:10681000E66EFDDE42E9730EE66E800EE66EF7DE92
:1068200042E9830EE66ECA0EE66EF1DE42E9050E1F
:10683000E66EE66A37EC4FF042E9F08A4ED79DD714
:106840008B84810EE66E820EE66EE1DE42E9730E07
:10685000E66E800EE66EDBDE42E9830EE66ECA0E61
:10686000E66ED5DE42E9F8DEF08A200E0201001560
:1068700000085DE201C24EF2EAEC50F0B3C2B0FE95
:10688000B4C2B1FEB5C2B2FEB6C2B3FE0E01B05183
:10689000056EB151066EB251076EB351086E02011A
:1068A000C15103E0010E036E47D0EAEC50F0B3C2D1
:1068B000B0FEB4C2B1FEB5C2B2FEB6C2B3FE0E01A6
:1068C000B051096EB1510A6EB2510B6EB3510C6EDC
:1068D00009EBB4FE0AEBB5FE0BEBB6FE0CEBB7FE14
:1068E000D950050FE96EDACFEAFFEE500E01B45D24
:1068F0000E01B06FEE500E01B5590E01B16FEE50A2
:106900000E01B6590E01B26FEE500E01B7590E01CD
:10691000B36FD880350E0E01B0550C0EB155000E78
:10692000B255000EB35501E201D0B9D703D0010E24
:10693000036E02D0CCD6036A035000D053E9E7CFF0
:10694000D9FF1200D9CFE6FFE1CFD9FF85E9000ECC
:1069500000D041E9E7CFD9FF1200D9CFE6FFE1CF60
:10696000D9FF83E9200E015C02E3000E24D0015020
:10697000690DF3CFB2FEF4CFB3FE400E0E01B22785
:10698000A10E0E01B32300500E01B2250E01B06F0F
:10699000000E0E01B3210E01B16FB0CEE6FFB1CEF5
:1069A000E6FF35DE42E9140EE66EE66A37EC4FF09C
:1069B00042E9010E00D041E9E7CFD9FF1200D9CF5B
:1069C000E6FFE1CFD9FF82E90050070802E2000E9E
:1069D00012D000500E01B06FB16B100E0E01B0134B
:1069E000980E0E01B113B0CEE6FFB1CEE6FF0FDE7A
:1069F00042E9010E00D041E9E7CFD9FF1200D9CF1B
:106A0000E6FFE1CFD9FF84E941E800EB4BF201EB6F
:106A10004CF202EB4DF28B848D828B9E8A98D6CFFE
:106A20004FF202015069046A020E045C0DE2045048
:106A30004B0DF3CFE9FFF4CFEAFF600EE926000E1D
:106A4000EA22EF6A042AF0D7D9CFE9FFDACFEAFFCA
:106A5000EF50040B26E0040EE66EE66AEAC1E6FF9C
:106A6000EBC1E6FF790EE66E020EE66E49EC4AF0E7
:106A700046E9040E02017A27000E02017B23000E74
:106A800002017C23040EE66EE66AEAC1E6FFEBC172
:106A9000E6FF790EE66E020EE66E87EC4AF046E9F6
:106AA00019D00201796B7A6B7B6B7C6B040EE66EFE
:106AB000E66AEAC1E6FFEBC1E6FF790EE66E020E7A
:106AC000E66E87EC4AF046E90201010E796F7A6BB7
:106AD0007B6B7C6B046A080E045C14E20450F76A5A
:106AE0000E0FF66E000EF7220800F550E66E045009
:106AF000EA6A7D0FE96E020EEA22E552E750EF6E78
:106B0000042AE9D7810EE66ECA0EE66E80DD42E900
:106B1000830EE66ECA0EE66E7ADD42E9330EE66E4D
:106B2000800EE66E74DD42E9B70EE66EC40EE66EC8
:106B30006EDD42E9D00EE66EA70EE66E68DD42E934
:106B4000230EE66EC60EE66E62DD42E9010EE66ECB
:106B5000820EE66E5CDD42E91ADDF3CFB0FEF4CFC3
:106B6000B1FE040E0E01B013940E0E01B113B0CE9F
:106B7000E6FFB1CEE6FF4BDD42E9100EE66E980E61
:106B8000E66E45DD42E9AC0EE66EC20EE66E3FDD16
:106B900042E9210EE66E820EE66E39DD42E9050E0F
:106BA000E66EE66A37EC4FF042E9810EE66E820E41
:106BB000E66E2DDD42E9730EE66E800EE66E27DD91
:106BC00042E9810EE66ECA0EE66E21DD42E9830ED1
:106BD000E66ECA0EE66E1BDD42E9000EE66EE66A60
:106BE00016DD42E9010E00D042E9E7CFD9FF1200DD
:106BF000D9CFE6FFE1CFD9FF87E945E80050280863
:106C000002E2000E86D1039CD950030FE96EDACF61
:106C1000EAFFEF50030B010801E1038E03EB00F2E2
:106C200002014F514F2B0201016F000EE66EE66A22
:106C3000020EE66E000EE66E020EE66E22EC51F0DB
:106C400045E9F350096EF4500A6E020E086ED950F1
:106C5000030FE96EDACFEAFFEF50400B1DE0076A41
:106C600002014B51780BE842E842E842075C14E22B
:106C700007500424E96E000E0520EA6EEF50E66E20
:106C80000850082AEA6A000FE96E020EEA22E5526D
:106C9000E750EF6E072AE4D7D950030FE96EDACF39
:106CA000EAFFEF50040B16E109EBE6FF0AEBE6FF03
:106CB00002014B51780BE842E842E842E66E04EBF1
:106CC000E6FF05EBE6FF22EC51F045E9F350096ED3
:106CD000F4500A6ED950030FE96EDACFEAFFEF5095
:106CE000800B41E0076A02014B51780BE842E84211
:106CF000E842075C15E207500201EA6A4C25E96E9A
:106D00004D51EA22EF50E66E0850082AEA6A000F59
:106D1000E96E020EEA22E552E750EF6E072AE3D74A
:106D200009EBE6FF0AEBE6FF02014B51780BE84264
:106D3000E842E842E66E02014B51780BE842E84235
:106D4000E842085C0E01B16B000FB06F020EB12378
:106D5000B0CEE6FFB1CEE6FF22EC51F045E9F350AC
:106D6000096EF4500A6ED950030FE96EDACFEAFFCC
:106D7000EF50080B01E182D0076A040E075C14E2B1
:106D80000750EA6A790FE96E020EEA22EF50E66ECA
:106D90000850082AEA6A000FE96E020EEA22E5525C
:106DA000E750EF6E072AE9D70201792B000E7A230C
:106DB0007B237C230201795112E1030E02017A1533
:106DC0000EE1040EE66EE66AEAC1E6FFEBC1E6FFFD
:106DD000790EE66E020EE66E87EC4AF046E9085040
:106DE000082AEA6A000FE96E020EEA22EF6A88EBCF
:106DF0000BF0076A0050075C14E207500124E96EAB
:106E0000000E0220EA6EEF50E66E0850082AEA6A89
:106E1000000FE96E020EEA22E552E750EF6E072AF4
:106E2000E9D77D0EE66E020EE66E00EBE6FF0BEB99
:106E3000E6FF000EE66E020EE66EADEC44F046E9AB
:106E4000020E082609EBE6FF0AEBE6FF020E00241D
:106E5000050FE66E050E0B5C0E01B16B000FB06FF7
:106E6000020EB123B0CEE6FFB1CEE6FF22EC51F028
:106E700045E9F350096EF4500A6E29D0076A0050B4
:106E8000075C14E207500124E96E000E0220EA6E4E
:106E9000EF50E66E0850082AEA6A000FE96E020E0B
:106EA000EA22E552E750EF6E072AE9D709EBE6FF41
:106EB0000AEBE6FF00EBE6FF01EBE6FF02EBE6FF85
:106EC00022EC51F045E9F350096EF4500A6E0E01C0
:106ED0000AEBB0FEB16B0850082AEA6A000FE96EAF
:106EE000020EEA22B0CEEFFF0850082AEA6A000F2D
:106EF000E96E020EEA2209EBEFFF02014B51020B91
:106F000001E0010EE66E08EBE6FF5FEC33F042E9CC
:106F100000D046E9E7CFD9FF1200D9CFE6FFE1CF95
:106F2000D9FF81E94CE881A6F084016A050E015C75
:106F300001E378D0EAEC50F0B3C2B0FEB4C2B1FEC7
:106F4000B5C2B2FEB6C2B3FE0E01B051026EB1516F
:106F5000036EB251046EB351056E0150080DF3CFAC
:106F6000E9FFF4CFEAFF510EE926020EEA22EF50C4
:106F700057E00150080DF3CFE9FFF4CFEAFF510EBF
:106F8000E926020EEA22040EE926000EEA22025049
:106F9000EE5C0350EE580450EE580550EE5840E2B7
:106FA00002EBB4FE03EBB5FE04EBB6FE05EBB7FE59
:106FB0000150080DF3CFE9FFF4CFEAFF510EE926A7
:106FC000020EEA22040EE926000EEA22EE500E011D
:106FD000B45D0E01B06FEE500E01B5590E01B16FE8
:106FE000EE500E01B6590E01B26FEE500E01B759B8
:106FF0000E01B36FD880240E0E01B055F40EB155BA
:10700000000EB255000EB3550BE20150080DF3CF40
:10701000E9FFF4CFEAFF510EE926020EEA22EF6AF9
:10702000012A84D7FF0E0201505D02E0000EB6D1A6
:10703000016A020E015C01E3AFD101504B0DF3CFA9
:10704000E9FFF4CFEAFF600EE926000EEA22EF50D6
:10705000010B01E19FD101504B0DF3CFE9FFF4CFBC
:10706000EAFF600EE926000EEA22EE52EFCF7CFE28
:1070700001504B0DF3CFE9FFF4CFEAFF600EE92694
:10708000000EEA224A0EE926000EEA22EFCF81FE28
:10709000020E066E0E017CAD07D002014B51780B3B
:1070A000E842E842E84206260E017CAF21D00150BA
:1070B0004B0DF3CFE9FFF4CFEAFF600EE926000E97
:1070C000EA22EE52E9CFB0FEEACFB1FE06500E0141
:1070D000B0250E017D6F000E0E01B1210E017E6FF5
:1070E00002014B51780BE842E842E842062603D001
:1070F0000E017D6B7E6B0E017CA709D101504B0DFB
:10710000F3CFE9FFF4CFEAFF600EE926000EEA2292
:10711000EE52E9CFB0FEEACFB1FE040E06240E0116
:10712000EA6AB025E96EB151EA22EF500DE0015054
:107130004B0DF3CFE9FFF4CFEAFF600EE926000E16
:10714000EA22EF6A000E2AD10E017CAF9CD0076ABA
:107150000A0E075C33E207500A0DF3CFE9FFF4CFC4
:10716000EAFF7E0EE926010EEA22080EE926000E4D
:10717000EA22EF50800B20E07DCEE6FF7ECEE6FFD8
:1071800007500A0DF3CFE9FFF4CFEAFF7E0EE926A0
:10719000010EEA22040EE926000EEA22E9CFB0FE33
:1071A000EACFB1FEB0CEE6FFB1CEE6FF70EC25F03F
:1071B00044E9000901E002D0072ACAD70A0E075C99
:1071C00062E20C6A040E0C5C2BE201504B0DF3CF13
:1071D000E9FFF4CFEAFF600EE926000EEA22EE5244
:1071E000E9CFB2FEEACFB3FE06500C240E01EA6AE4
:1071F000B225E96EB351EA22EF50E66E0E01D95086
:10720000080FB06FDACFB1FE0C500E01EA6AB0255C
:10721000E96EB151EA22E552E750EF6E0C2AD2D75F
:107220000750040DF3CFE9FFF4CFEAFF330EE92650
:10723000000EEA22EE50085CEE500958EE500A5853
:10724000EE500B580EE201504B0DF3CFE9FFF4CF97
:10725000EAFF600EE926000EEA22EF6A000E9ED0D9
:1072600012D00750040DF3CFE9FFF4CFEAFF330E3D
:10727000E926000EEA2208EBEEFF09EBEEFF0AEB2F
:10728000EEFF0BEBEFFF050E06267D0EE66E020EFF
:10729000E66E01504B0DF3CFE9FFF4CFEAFF600E2D
:1072A000E926000EEA224A0EE926000EEA22EF50F5
:1072B000D8800654E66E06EBE6FF01504B0DF3CF87
:1072C000E9FFF4CFEAFF600EE926000EEA22EE5253
:1072D000E9CFB0FEEACFB1FEB0CEE6FFB1CEE6FF19
:1072E00020EC45F046E900090DE101504B0DF3CFCC
:1072F000E9FFF4CFEAFF600EE926000EEA22EF6A0A
:10730000000E4CD0020E06240E01815F03D0065001
:107310000E01815F01504B0DF3CFE9FFF4CFEAFF7F
:10732000600EE926000EEA22EE52E9CFB0FEEACF67
:10733000B1FE06500E01B0250E017F6F000E0E014A
:10734000B1210E01806F01504B0DF3CFE9FFF4CF57
:10735000EAFF600EE926000EEA22EF50020B04E07D
:107360000E01190E826F02D00E01826B01504B0D7F
:10737000F3CFE9FFF4CFEAFF600EE926000EEA2220
:10738000EF50040B01E0010E0E01836F01EB50F290
:10739000010E04D0012A4DD6000E00D04DE9E7CFF2
:1073A000D9FF1200020E0201505D0EE2020150519F
:1073B0004B0DF3CFE9FFF4CFEAFF600EE926000E94
:1073C000EA22EF6A020150691200D8CFE4FFE0CF51
:1073D000E4FFE46EDACFE4FFE2CFDAFFE9CFE4FFC7
:1073E000EACFE4FFB3C2E4FFB4C2E4FFB5C2E4FFF6
:1073F000B6C2E4FFF6CFE4FFF7CFE4FFF5CFE4FF3A
:10740000F3CFE4FFF4CFE4FFFACFE4FF0EEEB0F0E9
:107410000E0EE80403E3EECFE4FFFBD7E652D9CF2C
:10742000E6FFE1CFD9FF81E950E8F050200B02E1FF
:10743000AEEF3EF0F050040B02E1AEEF3EF08B9465
:1074400081AAA8EF3EF08B848D9212EC52F0026E6E
:10745000036A020E035C10E203504B0DF3CFE9FF09
:10746000F4CFEAFF600EE926000EEA22EF50010B8E
:1074700001E102D0032AEDD7040E025C03E1010E04
:10748000066E01D0066A490E025C07E2025005E072
:10749000020E035C30E306502EE18D82F094010E63
:1074A000E66E820EE66E07EC33F042E9810EE66E80
:1074B000CA0EE66E07EC33F042E9330EE66E800E3C
:1074C000E66E07EC33F042E9730EE66E800EE66E70
:1074D00007EC33F042E9810EE66E820EE66E07ECB1
:1074E00033F042E9830EE66ECA0EE66E07EC33F027
:1074F00042E9ADEF3EF0016A046A056A83A696EFA1
:107500003EF0065015E012EC52F0E66E0101D95043
:10751000070FFA6FDACFFBF10150012A0101EA6A85
:10752000FA25E96EFB51EA22E552E750EF6E1DD0D5
:1075300012EC52F0E66E03504B0DF3CFE9FFF4CF9F
:10754000EAFF600EE926000EEA22EE52E9CFFAF1D8
:10755000EACFFBF10150012A0101EA6AFA25E96E3E
:10756000FB51EA22E552E750EF6E0250015C01E266
:10757000DAD32CEC33F002014AAF8FD78D82810E23
:10758000E66ECA0EE66E07EC33F042E9065001E102
:107590008DD0030E071402083EE109EBFAF1FAC19F
:1075A000FBF10101FA6B0A500101FA250B6E000E86
:1075B000FB210C6E000EE66EE66A020EE66ED950F6
:1075C000070FE66EDACFE6FF22EC51F045E9F35003
:1075D0000D6EF4500E6E0D500B1802E10E500C188B
:1075E00009E0016A830EE66ECA0EE66E07EC33F020
:1075F00042E953D702014E51085C03E10201010E3A
:10760000C16F016A830EE66ECA0EE66E07EC33F0B8
:1076100042E9A3D30CD0020E035C09E3016A830E96
:10762000E66ECA0EE66E07EC33F042E936D7035039
:107630004B0DF3CFE9FFF4CFEAFF600EE926000E11
:10764000EA22EE5207EBEFFF03504B0DF3CFE9FFB9
:10765000F4CFEAFF600EE926000EEA22EE52E92A94
:10766000000EEA2208EBEFFF03504B0DF3CFE9FFCA
:10767000F4CFEAFF600EE926000EEA22EE52020E77
:10768000E926000EEA2209EBEFFF03504B0DF3CF82
:10769000E9FFF4CFEAFF600EE926000EEA22EE527F
:1076A000030EE926000EEA220AEBEFFF03504B0D12
:1076B000F3CFE9FFF4CFEAFF600EE926000EEA22DD
:1076C0004A0EE926000EEA2202EBEFFF03504B0DB3
:1076D000F3CFE9FFF4CFEAFF600EE926000EEA22BD
:1076E000EE52E9CFFEF1EACFFFF103504B0DF3CF9D
:1076F000E9FFF4CFEAFF600EE926000EEA224A0E07
:10770000E926000EEA22EF50FE0F0101EA6AFE258B
:10771000E96EFF51EA22EFCFFCF1FCC1FDF101015E
:10772000FC6B03504B0DF3CFE9FFF4CFEAFF600E83
:10773000E926000EEA22EE52E9CFFAF1EACFFBF198
:1077400003504B0DF3CFE9FFF4CFEAFF600EE926BB
:10775000000EEA224A0EE926000EEA22EF04010199
:10776000EA6AFA25E96EFB51EA22EF500101FC2595
:107770000B6E000EFD210C6E03504B0DF3CFE9FF95
:10778000F4CFEAFF600EE926000EEA22EE52EF5037
:10779000040B0EE103504B0DF3CFE9FFF4CFEAFFEA
:1077A000600EE926000EEA22EE52EF50400B2FE069
:1077B000000EE66EE66A03504B0DF3CFE9FFF4CFFF
:1077C000EAFF600EE926000EEA224A0EE926000EC4
:1077D000EA22EF50FE0FE66E03504B0DF3CFE9FFA8
:1077E000F4CFEAFF600EE926000EEA22EE52E9CF5E
:1077F000FAF1EACFFBF1FAC1E6FFFBC1E6FF22ECAA
:1078000051F045E9F3500D6EF4500E6E6AD0000E43
:10781000E66EE66A020EE66E03504B0DF3CFE9FF0B
:10782000F4CFEAFF600EE926000EEA22EE52E9CF1D
:10783000FAF1EACFFBF1FAC1E6FFFBC1E6FF22EC69
:1078400051F045E9F3500D6EF4500E6E0DEBE6FF6E
:107850000EEBE6FF02014B51780BE842E842E842AA
:10786000E66E4CC2E6FF4DC2E6FF22EC51F045E960
:10787000F3500D6EF4500E6E0DEBE6FF0EEBE6FFCF
:1078800003504B0DF3CFE9FFF4CFEAFF600EE9267A
:10789000000EEA224A0EE926000EEA22EF50FC0F03
:1078A000E66E03504B0DF3CFE9FFF4CFEAFF600E15
:1078B000E926000EEA22EE52E9CFFAF1EACFFBF117
:1078C000020E0101FA27000E0101FB23FAC1E6FFB7
:1078D000FBC1E6FF22EC51F045E9F3500D6EF45088
:1078E0000E6E0D500B1802E10E500C1818E0016AD4
:1078F00003504B0DF3CFE9FFF4CFEAFF600EE9260A
:10790000000EEA224A0EE926000EEA22EF6A830EF2
:10791000E66ECA0EE66E07EC33F042E9BED50350C0
:107920004B0DF3CFE9FFF4CFEAFF600EE926000E1E
:10793000EA22EF8403504B0DF3CFE9FFF4CFEAFFC7
:10794000600EE926000EEA22020102014951010BF4
:1079500002E0EF8201D0EF92106803504B0DF3CF9D
:10796000E9FFF4CFEAFF600EE926000EEA22EE52AC
:10797000EF50400B47E00F6A02014B51780BE84291
:10798000E842E8420F5C3EE203504B0DF3CFE9FFC3
:10799000F4CFEAFF600EE926000EEA22EE52E9CFAC
:1079A000FBF1EACFFCF1020E0F240101EA6AFB258C
:1079B000E96EFC51EA22EFCFFAF10F500201EA6AB8
:1079C0004C25E96E4D51EA22EF500101FA5D18E0B5
:1079D000016A03504B0DF3CFE9FFF4CFEAFF600ECD
:1079E000E926000EEA224A0EE926000EEA22EF6A94
:1079F000830EE66ECA0EE66E07EC33F042E94DD513
:107A00000F2ABAD703504B0DF3CFE9FFF4CFEAFFAB
:107A1000600EE926000EEA22EE52EF50200B01E143
:107A200081D0830EE66ECA0EE66E07EC33F042E9B3
:107A30000F6A040E0F5C1AE20F50EA6A000FE96E3B
:107A4000020EEA22EF50E66E0101D950070FFA6FDD
:107A5000DACFFBF10F500101EA6AFA25E96EFB511A
:107A6000EA22E552E750EF6E0F2AE3D70201060E35
:107A7000006F03504B0DF3CFE9FFF4CFEAFF600E28
:107A8000E926000EEA22EE52E92A000EEA22EFCFA2
:107A900001F2000EE66EE66A020EE66E000EE66E7B
:107AA000020EE66E22EC51F045E9F3500D6EF450F3
:107AB0000E6E01010EEBFAF1FB6BFAC102F20DEB57
:107AC00003F2020EE66EE66A37EC4FF042E9E66A30
:107AD000040EE66E5FEC33F042E9810EE66ECA0EEC
:107AE000E66E07EC33F042E90F6A040E0F5C1AE20F
:107AF0000101D950070FFA6FDACFFBF10F500101E6
:107B0000EA6AFA25E96EFB51EA22EF50E66E0F5061
:107B1000EA6A000FE96E020EEA22E552E750EF6EC4
:107B20000F2AE3D70F6A050E0F5C73E20F50080DA2
:107B3000F3CFE9FFF4CFEAFF510EE926020EEA2265
:107B4000EF5054E00F50080DF3CFE9FFF4CFEAFFF8
:107B5000510EE926020EEA22EE52EFCFFAF103505F
:107B60004B0DF3CFE9FFF4CFEAFF600EE926000EDC
:107B7000EA22EE52E92A000EEA22EF500101FA5DF4
:107B800035E10F50080DF3CFE9FFF4CFEAFF510EB6
:107B9000E926020EEA22020EE926000EEA220B5026
:107BA000EE1802E10C50ED1821E1EAEC50F0B3C2FE
:107BB000FAF1B4C2FBF1B5C2FCF1B6C2FDF10F504F
:107BC000080DF3CFE9FFF4CFEAFF510EE926020ECC
:107BD000EA22040EE926000EEA22FAC1EEFFFBC1FA
:107BE000EEFFFCC1EEFFFDC1EEFF13D0FF0E105CF7
:107BF0000EE10F50080DF3CFE9FFF4CFEAFF510E6D
:107C0000E926020EEA22EF5002E18FEB10F00F2A74
:107C10008AD7050E0F5C01E27ED0050E105C5CE297
:107C20001050080DF3CFE9FFF4CFEAFF510EE9261B
:107C3000020EEA22010EEF6E03504B0DF3CFE9FF67
:107C4000F4CFEAFF600EE926000EEA22EE52E92A9E
:107C5000000EEA22EF50E66E1050080DF3CFE9FF58
:107C6000F4CFEAFF510EE926020EEA22EE52E55267
:107C7000E750EF6E1050080DF3CFE9FFF4CFEAFFA5
:107C8000510EE926020EEA22020EE926000EEA2231
:107C90000BEBEEFF0CEBEDFFEAEC50F0B3C2FAF1A8
:107CA000B4C2FBF1B5C2FCF1B6C2FDF11050080D33
:107CB000F3CFE9FFF4CFEAFF510EE926020EEA22E4
:107CC000040EE926000EEA22FAC1EEFFFBC1EEFF28
:107CD000FCC1EEFFFDC1EEFF0101020EFA6F035081
:107CE0004B0DF3CFE9FFF4CFEAFF600EE926000E5B
:107CF000EA224A0EE926000EEA220101FA51EF5E5D
:107D000003504B0DF3CFE9FFF4CFEAFF600EE926F5
:107D1000000EEA22EF80830EE66ECA0EE66E07ECD6
:107D200033F042E91AD0046A056A0FD004EBFAF185
:107D300005EBFBF1042A000E05220101FA51FE08B1
:107D4000FF0EFB5502E24DEF3AF07EEF3AF005D020
:107D500012EC52F00201496F8B84F094F2A40AD025
:107D6000F2AA08D0F2940E01BE2B0E01BE5102E120
:107D70000E01BF2B0AEC4EF051E9E7CFD9FFE552D7
:107D80000EEEBDF00E0EE80403E3E5CFEDFFFBD7EA
:107D9000E5CFFAFFE5CFF4FFE5CFF3FFE5CFF5FF41
:107DA000E5CFF7FFE5CFF6FFE5CFB6F2E5CFB5F2C9
:107DB000E5CFB4F2E5CFB3F2E5CFEAFFE5CFE9FFD7
:107DC000E5CFDAFFE550E5CFE0FFE5CFD8FF1000C3
:107DD00090DB86E90150010600090CE002EBE6FFAA
:107DE00003EBE6FF00EBE6FF69DBF4E1B11DF2E136
:107DF000010E01D0000E41E9E5CFDAFFE7CFD9FF50
:107E0000120077DB89E97BE80A6A0B6A02EBF6FF6E
:107E100003EBF7FF04EBF8FF0800F550096E09507B
:107E200001E12DD3250E095C01E01BD30C6A0D6A1C
:107E30000E6A0F6A106A2DDB2D0E095C0CE02B0E0A
:107E4000095C09E0200E095C06E0230E095C03E0F2
:107E5000300E095C15E10950300A10E0130A0CE0FD
:107E6000030A08E00B0A04E0060AE5E10C80E3D708
:107E70000C82E1D70C84DFD70C86DDD70C88DBD7EA
:107E80002A0E095C13E1A5DB0DE30C801CEBB0FEB0
:107E90001DEBB1FE0E01B06DB11F000EB123B0514C
:107EA0000D6E02D09CEB0DF0F4DA07D0126A3FDBC6
:107EB00002E06BDBFCD792EB0DF00CB00C982E0EB1
:107EC000095C15E1E6DA2A0E095C08E182DB04E2CE
:107ED0009CEB0EF0010E0F6EDCDA09D0126A27DB84
:107EE00002E053DBFCD792EB0EF0010E0F6E680E32
:107EF000095C07E1CEDA680E095C1DE1030E106E25
:107F000019D0740E095C16E07A0E095C13E0480E75
:107F1000095C06E0540E095C03E05A0E095C02E1BC
:107F2000020E07D06C0E095C03E06A0E095C03E1E7
:107F3000010E106EAEDA09506E0A01E16ED21E0A11
:107F400001E128D1200A01E125D13F0A01E1FDD05C
:107F50001A0A01E1FAD00D0A01E1F7D0200A01E185
:107F6000F4D03A0A01E1F1D0200A01E1EED0260A6C
:107F700001E1EAD00D0A01E1E7D01A0A01E19ED041
:107F8000200A3BE0300A1AE0460A0EE0250A01E02A
:107F900072D2D950020FE96E000EDA20EA6E010E9D
:107FA000EE5E000EEE5AEE5A0FDB250EE66E86DA16
:107FB00003E1B11D01E159D20A2A5BD2116A0D50C9
:107FC000010803E20D04116EF5DA115007E0010E0D
:107FD0000C1404E16DDA01E048D2116AD3DAEF50F3
:107FE000096ECBDA03E1B11D01E13FD20A2A000E8E
:107FF0000B225EDA01E13FD238D2020E105C08E1BA
:10800000030E4EDAEE50176EEE50186EEF5007D09A
:10801000E7DAB26BB051176EB151186EB251196EEA
:1080200017EBE6FF18EBE6FF19EBE6FFA6EC51F0C5
:1080300043E9B3C2B0FEB4C2B1FEB5C2B2FE0E0196
:10804000B0511C6EB1511D6E0F5006E01C500E5CFD
:1080500003E20E501C6E1D6A1C500D5C02E29CEB8C
:108060000DF050DA05E00D500E5C02E28EEB0DF0E3
:108070000CB004D01DDA01E0F8D1116A126A17EBD6
:10808000F6FF18EBF7FF19EBF8FF0800F550096E43
:10809000095010E00D50125C0DE26FDA03E1B11DE2
:1080A00001E1E3D10A2A000E0B22122AD950170F40
:1080B00055DAEBD7FDD901E1DED1D7D163DAEE5045
:1080C0001A6EED501B6E1AEBE6FF1BEBE6FF98EC09
:1080D00051F042E9F3501C6EF4501D6E0F5006E053
:1080E0001C500E5C03E20E501C6E1D6A1C500D5C91
:1080F00002E29CEB0DF006DA05E00D500E5C02E2A8
:108100008EEB0DF00CB004D0D3D901E0AED1116AE2
:10811000126A1AEBE9FF1BEBEAFFEF50096E0950F8
:108120000FE00D50125C0CE228DA03E1B11D01E111
:108130009CD10A2A000E0B22122A1A2A1B22E9D7E6
:10814000B7D901E198D191D10C8E10040AE1040E47
:10815000A7D9EE50136EEE50146EEE50156EEF5020
:1081600032D0030E105C16E10CAE0CD00BDAEFCF60
:10817000B0FE0E01B16BB26BB36BB0AF23D0B1697F
:10818000B2691FD0FFD9EFCFB0FE0E01B051136E10
:10819000146A20D0020E105C0CE10CAE06D0030E67
:1081A0007FD9B6D9B2AF0ED00CD0030E79D9B0D9E1
:1081B00009D00CAE0AD014DAB26BB36BB1AF02D0F7
:1081C000B269B369BCD9166E07D00ADAB051136E22
:1081D000B151146E156A166A0F5002E1010E0E6E4F
:1081E0001E6A1F6AD950400FE66E000EDA20E66E56
:1081F000E552E550436EE750426E416A116A0A0E3D
:10820000106E0950780A12E0200A10E0280A0CE0EB
:10821000200A0AE03F0A06E00D0A02E0200A08E10F
:10822000020E05D0080E03D0080E0926100E106E9F
:108230000CBE02D00C920C94800E0C1417E0163475
:1082400015E3E668E668E668E66842D918EC4CF0A3
:10825000E552E5CFB3FEE5CFB2FEE5CFB1FEE7CF05
:10826000B0FE0E016CD9166E2D0E07D00CA202D0F6
:108270002B0E03D00CA404D0200E206E1E2A01D099
:10828000206A0E5005E1135014101510161061E00D
:108290000E01180EB06FA50EB16F000EB26F83D92C
:1082A000B4EC4CF0E552E5CFB6FEE5CFB5FEE5CF38
:1082B000B4FEE7CFB3FE0E01B051B325F36EB1515A
:1082C000B421F46EB251B521F86EF4CFF7FFF3CFBD
:1082D000F6FF0800F550126E580E095C05E1610EBC
:1082E000125C02E3200E125E5ED9B1EC4CF0E55256
:1082F000E550166EE550156EE550146EE750136E9E
:1083000042EBE9FF43EBEAFF4206000E435A12EB51
:10831000EFFF1E2A1350141015101610B9E10CA609
:1083200019D06F0E095C06E10E501E5C13E31E2887
:108330000E6E10D0780E095C09E0580E095C06E05C
:10834000620E095C03E0420E095C04E1020E1F6E3E
:1083500001D01E6A100E0C1407E00D500E5C04E2F2
:108360000F5002E18DEB0EF00E501E5C03E21E502A
:108370000E5E01D00E6A0E501E241F24D8800D54AC
:1083800007E20E500D5CD8801E54D8801F54116E29
:10839000010E0C1406E1115004E08AD866E10AD9F6
:1083A000116A205007E010D920EBE6FF87D802E1E0
:1083B000B11D5BE01F500BE007D9300EE66E7ED892
:1083C00002E1B11D52E0D9D802E1B11D4EE00E50DC
:1083D0001F5C02E21F500E5E300EE66E0EEBE6FFF3
:1083E000DCD843E1422A000E432242EBE9FF43EB93
:1083F000EAFFEF50126E125008E0E6D812EBE6FFEB
:108400005DD8F0E1B11DEEE130D052D82EE10E5032
:108410001E2411241F240A262CD01050030A1CE00D
:10842000010A14E0030A07E0ADD8C9D80AEBEEFF51
:108430000BEBEDFF20D08BD8B36BB1AF02D0B2699C
:10844000B369A0D84ED8B3CEEEFF15D080D8B1BF57
:10845000B26998D846D80FD095D8B1D80AEBEFFFBB
:108460000AD08BD805E1B11D03E1F368F4680BD0A5
:108470000A2A000E0B22D950020F70D8CDD40AEB75
:10848000F3FF0BEBF4FF7CE9E5CFDAFFE7CFD9FF91
:108490001200D950020F62D80800F550096E120080
:1084A000005E000E015A00EBE9FF01EBEAFF12004B
:1084B000200EE66E11EBE6FFCDEF42F0CBEC51F073
:1084C00043E9F3CFB0FEF4CFB1FE0E01F31C12006E
:1084D00013EBE6FF14EBE6FF15EBE6FF16EBE6FF0A
:1084E00012006DD8B0CEEEFFB1CEEEFFB2CEEEFFF1
:1084F0001200D9CFE6FFDACFE6FFE1CFD9FFE2CF16
:10850000DAFF12001C500D5C116E54D80F5012008F
:10851000EECFB0FEEECFB1FEEFCFB2FE0E01B36BE9
:108520001200EECFB0FEEFCFB1FE0E0112000950E7
:10853000E66EE66A4FEC52F042E9F3501200B05199
:10854000136EB151146EB251156EB35112000AEB95
:10855000B0FE0BEBB1FE0E01B26B1200E96E000E25
:10856000DA20EA6EEF2AEECFF6FF000EEF22EECF12
:10857000F7FFEF22EECFF8FF120026D809EBE6FF57
:108580005EEF42F0020E50EF42F00A0E1202F3507C
:108590000924D00F126E49EF42F016D8E8EC3EF0F5
:1085A00044E90009120010EBE6FFE66AE66AE66AB3
:1085B00068EF42F011500A26000E0B221200EE5016
:1085C000EFCFEAFFE96E120005EBE6FF06EBE6FFF0
:1085D0001200D8DFEE501C6EED501D6E1D341200DF
:0685E000D1DF91EF42F033
:0A85E600D9CFE6FFE1CFD9FF85E908
:1085F00049E802EBE9FF03EBEAFFEE50056EED50B0
:10860000066E020E0224E96E000E0320EA6EEE50A2
:10861000076EED50086E096A0A6A370E0B6E9E0EE1
:108620000C6E0D6A200E0D5C01E3C1D00E010838FE
:10863000F00BB76F07380F0BB7130738F00BB66F97
:108640000E0107EBB8FE08EBB9FE050ED890B93362
:10865000B833E804FBE10E010E01B6510E01B81962
:108660000E01B46F0E010E01B7510E01B9190E01C2
:10867000B56F07500E01B4250E01B26F08500E0100
:10868000B5210E01B36F030E0E010914BC6FBD6B53
:10869000010E0E01D890BC37BD37E806FBE10E0194
:1086A000BC510024E96EBD510120EA6E0E01EE506E
:1086B0000924BA6FED500A20BB6F0E010E01B251B2
:1086C0000E01BA190E01B06F0E010E01B3510E0169
:1086D000BB190E01B16F0E01B0510526B151062232
:1086E0000B5009260C500A220E010638F00BB76F0A
:1086F00005380F0BB7130538F00BB66F0E0105EBFD
:10870000B8FE06EBB9FE050ED890B933B833E804CD
:10871000FBE10E010E01B6510E01B8190E01B46F46
:108720000E010E01B7510E01B9190E01B56F0550BA
:108730000E01B4250E01B26F06500E01B5210E01D7
:10874000B36F0E010A38E8441F0BBC6FBD6B030EFC
:108750000E01BC17000E0E01BD17010E0E01D890C0
:10876000BC37BD37E806FBE10E01BC510024E96EC1
:10877000BD510120EA6E0E01EE500924BA6FED5092
:108780000A20BB6F0E010E01B2510E01BA190E0183
:10879000B06F0E010E01B3510E01BB190E01B16F86
:1087A0000E01B0510726B15108220D2A3BD702EB2A
:1087B000E9FF03EBEAFF05EBEEFF06EBEDFF020E30
:1087C0000224E96E000E0320EA6E07EBEEFF08EBD1
:1087D000EDFF4AE9E7CFD9FF1200D9CFE6FFE1CF9D
:1087E000D9FF88E944E80450FC0BE842E842010F55
:1087F000086EF250800B01E0010E0B6EF29E096ACA
:108800000850095C47E20A6A030E0A5C13E20A5048
:108810000024E96E000E0120EA6EEF50E66E0A5069
:10882000EA6AB70FE96E020EEA22E552E750EF6EF0
:108830000A2AEAD709EBBAF202EBE6FF03EBE6FFFE
:10884000B70EE66E020EE66ECEDE44E90A6A040E4C
:108850000A5C1EE2040E0902F3500A24D880045474
:1088600001E316D00A50EA6AB70FE96E020EEA2257
:10887000EFCFB0FE040E0902F3500A240524E96E7E
:10888000000E0620EA6E0E01B051EF1A0A2ADFD759
:10889000092AB6D70B50E8B0F28EE8A0F29E45E95F
:1088A000E7CFD9FF1200D9CFE6FFE1CFD9FF88E9A2
:1088B00044E80450FC0BE842E842010F086EF25015
:1088C000800B01E0010E0B6EF29E096A040E095C3A
:1088D00009E209500024E96E000E0120EA6EEF6AF9
:1088E000092AF4D7096A0850095C2EE20A6A040EC4
:1088F0000A5C1EE2040E0902F3500A24D8800454D4
:1089000001E316D0040E0902F3500A240524E96E8F
:10891000000E0620EA6EEFCFB0FE0A500024E96E8A
:10892000000E0120EA6E0E01B051EF1A0A2ADFD7BD
:1089300002EBE6FF03EBE6FF00EBE6FF01EBE6FFF1
:1089400052DE44E9092ACFD70B50E8B0F28EE8A0F6
:10895000F29E45E9E7CFD9FF1200D9CFE6FFE1CF7C
:10896000D9FF87E942E8F250800B01E0010E086E62
:10897000F29EB70EE66E020EE66E00EBE6FF01EB2E
:10898000E6FF03500224E66E04EBE6FF05EBE6FF8C
:108990008ADF47E9076A040E075C15E20750EA6AB6
:1089A000B70FE96E020EEA22EF50E66E0350022482
:1089B00007240424E96E000E0520EA6EE552E75014
:1089C000EF6E072AE8D7076A030E075C18E2035028
:1089D000075C08E207500424E96E000E0520EA6EE9
:1089E000EF5001D0000EE66E0750EA6AB70FE96E4D
:1089F000020EEA22E552E750EF6E072AE5D7B70EDE
:108A0000E66E020EE66E00EBE6FF01EBE6FF040EFB
:108A10000224E66E03500E010424B06F000E052000
:108A2000B16FB0CEE6FFB1CEE6FFD7DE47E9085022
:108A3000E8B0F28EE8A0F29E43E9E7CFD9FF12003A
:108A4000D9CFE6FFE1CFD9FF87E942E8F250800BAA
:108A500001E0010E086EF29E076A030E075C18E241
:108A60000350075C08E207500424E96E000E05205D
:108A7000EA6EEF5001D0000EE66E0750EA6AB70FBB
:108A8000E96E020EEA22E552E750EF6E072AE5D7BB
:108A9000B70EE66E020EE66E00EBE6FF01EBE6FFB8
:108AA00002EBE6FF03500E010424B06F000E052018
:108AB000B16FB0CEE6FFB1CEE6FF8FDE47E9B70E6D
:108AC000E66E020EE66E00EBE6FF01EBE6FF0350FA
:108AD0000224FE0FE66E04EBE6FF05EBE6FFE3DEA5
:108AE00047E9076A020E075C1EE20750EA6AB70F01
:108AF000E96E020EEA22EFCFB0FE03500224FE0F11
:108B000007240424E96E000E0520EA6EEF500E01E2
:108B1000B05D07E00850E8B0F28EE8A0F29E000ECB
:108B200009D0072ADFD70850E8B0F28EE8A0F29EFD
:0C8B3000010E00D043E9E7CFD9FF12008E
:048B3C005258204D1E
:108B4000657373616765733A202533640054582058
:108B50004D657373616765733A2025336400205552
:108B60006E6963617374204661696C6564000D0A07
:108B7000556E6963617374204661696C65640D0AA2
:108B8000003A20002066726F6D2000556E696361A7
:108B90007374205061636B65742077697468205228
:108BA000535349200042726F6164636173742050B3
:108BB00061636B6574207769746820525353492050
:108BC000005365637572656420005242303A20425A
:108BD000726F61646361737420205242323A20558F
:108BE0006E69636173740020436F6E6E65637465B4
:108BF00064205065657220206F6E204368616E6E40
:108C0000656C20256400436F6E6E656374696E67E2
:108C1000205065657220206F6E204368616E6E651E
:108C20006C2025642000206973206E6F742073759A
:108C300070706F7274656420696E206375727265FE
:108C40006E7420636F6E646974696F6E2E0D0A0016
:108C50000D0A53656C656374696F6E206F662063DF
:108C600068616E6E656C20000D0A0D0A000D0A2009
:108C700020202020202020202020202020202020F4
:108C800020202020626520746F67676C6564207502
:108C9000706F6E20726563656976696E67206D65B9
:108CA0007373616765732E20000D0A202020202039
:108CB00020202020202020202020202020202020B4
:108CC0003220746F20756E696361737420656E6302
:108CD000727970746564206D6573736167652E20A9
:108CE0004C454420322077696C6C000D0A2020200E
:108CF0002020202020202020202020202020202074
:108D00002020427574746F6E203120746F2062725F
:108D10006F616463617374206D6573736167652E41
:108D2000205075736820427574746F6E000D0A20B0
:108D30002020202020202020202020202020202033
:108D400020202020746F20696E646963617465203F
:108D5000636F6E6E656374696E67207769746820EF
:108D6000706565722E2050757368000D0A202020F2
:108D700020202020202020202020202020202020F3
:108D80002020506F776572206F6E207468652062B6
:108D90006F61726420756E74696C204C454420319B
:108DA000206C6967687473207570000D0A2020209C
:108DB00044656D6F20496E737472756374696F6E6C
:108DC0003A000D0A20202020205246205472616E65
:108DD000736365697665723A204D5246343958415D
:108DE000000D0A20202020202020202020202020CC
:108DF000204C454420323A20524133000D0A2020B5
:108E00002020202020202020202020204C454420ED
:108E1000313A20524132000D0A4F7574707574203A
:108E2000436F6E66696775726174696F6E3A000DA3
:108E30000A20202020202020202020204275747429
:108E40006F6E20323A20524232000D0A202020203C
:108E500020202020202020427574746F6E20313A2B
:108E600020524230000D0A496E70757420436F6EB7
:108E700066696775726174696F6E3A000D0A5374A2
:108E8000617274696E67204E6F64652031206F6671
:108E90002053696D706C652044656D6F20666F723C
:108EA000204D69576928544D292050524F20537442
:108EB00061636B202E2E2E0053696D706C65204D02
:108EC0006957692050524F20204D5246343958413D
:108ED000204E6F64652031000D0A5363616E20439C
:108EE00068616E6E656C200053686F7274416464D3
:108EF000723A002050414E49443A004368616E6E18
:108F0000656C3A002020000D0A417661696C61624F
:108F10006C65206E6F6465730D0A48616E646C65E4
:108F20002052582044432050414E4944204144445B
:108F300052204C4F4E475F41444452202020202075
:108F4000202020504545525F494E464F0D0A0020D3
:108F5000204368616E6E656C3A2000202050414EBF
:108F600049443A2000202053686F727420416464A1
:108F7000723A20000D0A0D0A416464726573733AF7
:108F80002030780073656E64696E67206F75742099
:108F90007365636F6E6420726573706F6E73650DB9
:108FA0000A000D0A4A6F696E20746865206E657448
:108FB000776F726B207375636365737366756C6C22
:108FC000790D0A004920616D20616E20656E642074
:108FD0006465766963650D0A004920616D20612032
:108FE000636F6F7264696E61746F720D0A007365EE
:108FF0006E64696E67206F757420726573706F6E32
:0590000073650D0A007C
:01900500006A
:0A900600D9CFE6FFE1CFD9FF81E9E1
:1090100046E8026A036A046A056AF7EC4CF095ECCC
:109020004FF0010EE66EE66AB80EE66E8E0EE66E44
:1090300069EC4DF044E97C0EE66E8E0EE66E9EEC19
:109040004FF042E9650EE66E8E0EE66E9EEC4FF036
:1090500042E94A0EE66E8E0EE66E9EEC4FF042E955
:109060002F0EE66E8E0EE66E9EEC4FF042E9170E66
:10907000E66E8E0EE66E9EEC4FF042E9FC0EE66E5A
:109080008D0EE66E9EEC4FF042E9E10EE66E8D0E1F
:10909000E66E9EEC4FF042E9C20EE66E8D0EE66E75
:1090A0009EEC4FF042E9AB0EE66E8D0EE66E9EEC46
:1090B0004FF042E96B0EE66E8D0EE66E9EEC4FF0C1
:1090C00042E92D0EE66E8D0EE66E9EEC4FF042E903
:1090D000EB0EE66E8C0EE66E9EEC4FF042E9A90EAA
:1090E000E66E8C0EE66E9EEC4FF042E96D0EE66E7B
:1090F0008C0EE66E9EEC4FF042E9680EE66E8C0E2A
:10910000E66E9EEC4FF042E989948996E66A96EC09
:1091100025F041E9C0C2E6FFE6EC27F041E900098D
:1091200014E1500EE66E8C0EE66E9EEC4FF042E9B6
:10913000C0C2E6FFF7EC4FF041E9260EE66E8C0E5A
:10914000E66E9EEC4FF042E9A0D1E66A0BEC28F007
:1091500041E9010EE66EC0C2E6FF060EE66E8C0E19
:10916000E66E69EC4DF044E9E66AE66829EC29F020
:1091700042E9016EFF0E015C0CE0010EE66EC0C21A
:10918000E6FFE70EE66E8B0EE66E69EC4DF044E905
:109190000AD0E66AE66AE66AE66A0A0EE66EE66AF9
:1091A000B8EC2FF046E9E66846EC1EF041E9898408
:1091B000E66AE66ACA0EE66E8B0EE66E69EC4DF064
:1091C00044E98FEC2BF0000901E180D00E0101A7EA
:1091D00007D0C10EE66E8B0EE66E9EEC4FF042E9B4
:1091E0000E010151030B000908E0A50EE66E8B0E7F
:1091F000E66E9EEC4FF042E907D08B0EE66E8B0ECA
:10920000E66E9EEC4FF042E909CEE6FFCDEC4FF062
:1092100041E90E0101AD34D0840EE66E8B0EE66E90
:109220009EEC4FF042E90E0101AF16D0010E0E0187
:10923000EA6A0425E96E0551EA22EFCFE6FFCDEC9C
:109240004FF041E904CEE9FF05CEEAFFEFCFE6FF9C
:10925000CDEC4FF041E914D0016A040E015C10E23C
:10926000030ED88001540E01EA6A0425E96E055107
:10927000EA22EFCFE6FFCDEC4FF041E9012AEDD72E
:10928000810EE66E8B0EE66E9EEC4FF042E9016AAF
:109290000E010851015C0EE201500E01EA6A06253A
:1092A000E96E0751EA22EFCFE6FFB9EC4FF041E952
:1092B000012AEED7897698EC2BF0052A05EBE6FF1C
:1092C00004EBE6FF3EEC4DF042E9DED094EC4DF0CD
:1092D000066E0650020A62E0030A01E0D4D00E01D5
:1092E0000B0E386F060EE66E02EBE6FFB1EC4BF0AC
:1092F00041E9E750000915E10E013851382BEA6ABF
:10930000000FE96E000EEA220D0EEF6E0E013851CD
:10931000382BEA6A000FE96E000EEA220A0EEF6EA1
:109320002FD0016A150E015C2BE2060EE66E02EBF1
:10933000E6FFB1EC4BF041E9E750FF0F150DF3CF1D
:10934000B0FEF4CFB1FE800E0E01B027A00E0E01CC
:10935000B12301500E01F76AB025F66EB151F72224
:109360000800F550E66E0E013851382BEA6A000FFE
:10937000E96E000EEA22E552E750EF6E012AD2D7DD
:10938000022AE66A9DEC2BF041E905EBE6FF042A90
:1093900004EBE6FF3EEC4DF042E976D00E010B0EF9
:1093A000386F060EE66E03EBE6FFB1EC4BF041E9D9
:1093B000E750000915E10E013851382BEA6A000F19
:1093C000E96E000EEA220D0EEF6E0E013851382BB9
:1093D000EA6A000FE96E000EEA220A0EEF6E2FD045
:1093E000016A0B0E015C2BE2060EE66E03EBE6FF54
:1093F000B1EC4BF041E9E750FF0F0B0DF3CFB0FE9E
:10940000F4CFB1FEE90E0E01B027A00E0E01B1237C
:1094100001500E01F76AB025F66EB151F72208002F
:10942000F550E66E0E013851382BEA6A000FE96EEE
:10943000000EEA22E552E750EF6E012AD2D7032A46
:10944000010EE66EE66A01EC2CF042E9000912E139
:109450006E0EE66E8B0EE66E9EEC4FF042E9010E4C
:10946000E66EE66A5E0EE66E8B0EE66E69EC4DF019
:1094700044E901D0042A05EBE6FF04EBE6FF3EECED
:109480004DF042E901D000D09CD647E9E7CFD9FFA3
:029490001200C8
:0E949200D9CFE6FFE1CFD9FF87E941E8F250DC
:1094A000800B01E0010E076EF29E8C9A030EE66EB1
:1094B000FEEC51F041E90E0103EBB0FEB16BB0CE12
:1094C000E6FFFEEC51F041E902EBE6FFFEEC51F065
:1094D00041E90050011011E012EC52F0E66E04EB8D
:1094E000E9FF05EBEAFF042A000E0522E552E750EA
:1094F000EF6E0006000E015AECD78C8A0750E8B0D8
:10950000F28EE8A0F29E42E9E7CFD9FF1200D9CF50
:10951000E6FFE1CFD9FF87E942E8076AF250800B06
:1095200001E0010E086EF29E8C9A050EE66EFEECCE
:1095300051F041E912EC52F0076E8C8A28EC00F0F1
:1095400007B0F2D78C9A060EE66EFEEC51F041E9B8
:109550008C8A28EC00F08C9A020EE66EFEEC51F03C
:1095600041E90E0103EBB0FEB16BB0CEE6FFFEECBD
:1095700051F041E902EBE6FFFEEC51F041E9076AE8
:109580000050011022E004EBE9FF05EBEAFF042A9A
:10959000000E0522EFCFE6FFFEEC51F041E9000698
:1095A000000E015A072A07500E010224B06F000E68
:1095B0000320B16F0E01B0513F0B06E18C8A0750BA
:1095C0000226000E0322B0D7DBD78C8A0850E8B001
:1095D000F28EE8A0F29E43E9E7CFD9FF1200D9CF7F
:1095E000E6FFE1CFD9FF85E9F80EE96E010EEA6EDC
:1095F0000E01EE500224B06FED500320B16F0E014A
:10960000B26B0E01B235000EB21907E6D880000E1B
:10961000B055800EB155000EB25502E2000E0FD0CB
:1096200000EBE9FF01EBEAFFF8C1EEFFF9C1EDFF46
:1096300001010250F8270350F923010E00D041E93F
:10964000E7CFD9FF1200D9CFE6FFE1CFD9FF81E9FB
:1096500041E8010E016E0101F86BF96BE20EE66E56
:10966000010EE66E020EE66EE66AB9DF44E9011607
:10967000E40EE66E010EE66E010EE66EE66AAFDF00
:1096800044E90116E60EE66E010EE66E010EE66E88
:10969000E66AA5DF44E90116E80EE66E010EE66E05
:1096A000640EE66EE66A9BDF44E90116EA0EE66E9A
:1096B000010EE66E040EE66EE66A91DF44E90116DD
:1096C000EC0EE66E010EE66E020EE66EE66A87DFCF
:1096D00044E90116EE0EE66E010EE66E010EE66E30
:1096E000E66A7DDF44E90116F00EE66E010EE66ED5
:1096F000020EE66EE66A73DF44E90116F20EE66ECC
:10970000010EE66E200EE66EE66A69DF44E9011698
:10971000F40EE66E010EE66E100EE66EE66A5FDF90
:1097200044E90116F60EE66E010EE66E010EE66ED7
:10973000E66A55DF44E90116015000D042E9E7CF5F
:04974000D9FF12003B
:0C97440042E8D9CFE6FFDACFE6FFE1CF24
:10975000D9FFE2CFDAFF86E9036A1200F3DF038064
:1097600003D0F0DF01D00382026A080EE76ED890C2
:10977000013602360050025C02E3026E012AE72E37
:10978000F7D703B2120003B081EB00F003A082EB25
:1097900000F0E552E5CFDAFFE7CFD9FF43E9120049
:1097A00043E8D9CFE6FFDACFE6FFE1CFD9FFE2CF3A
:1097B000DAFF89E9066A1200F3DF068001D0F0DFE4
:1097C00001AEE9EF4BF0006C011EE86A012206B021
:1097D000067E03AEF1EF4BF0026C031EE86A032233
:1097E000067E7AEC4CF003BE13EF4CF006AE08D0C8
:1097F000026C031EE86A0322046C051EE86A052257
:1098000006B006D084EB00F085EB01F006A004D092
:1098100082EB00F083EB01F0E552E5CFDAFFE7CF12
:10982000D9FF45E9000C06BEF8EF4BF0E9DFFF0C6D
:1098300044E8D9CFE6FFDACFE6FFE1CFD9FFE2CFA8
:10984000DAFF8EE980EB08F081EB09F082EB0AF099
:1098500083EB0BF004500802F350006EF450016EDD
:1098600004500902F3500126000EF420026E045049
:109870000A02F3500226000EF420036E04500B027D
:10988000F350032605500802F3500126F45002223B
:10989000000E032205500902F3500226F450032261
:1098A00005500A02F350032606500802F350022620
:1098B000F450032206500902F35003260750080211
:1098C000F3500326E552E5CFDAFFE7CFD9FF48E9A9
:1098D000000C43E8D9CFE6FFDACFE6FFE1CFD9FFAE
:1098E000E2CFDAFF89E9066A1200F3DF068003D0CF
:1098F000F0DF01D00682056A046A100EE76ED89088
:1099000002360336043605360050045C0150055813
:1099100005E30050045E0150055A022AE72EF0D7F5
:1099200006B2120006B006D084EB00F085EB01F021
:1099300006A004D082EB00F083EB01F0E552E5CF06
:10994000DAFFE7CFD9FF45E9120045E8D9CFE6FFB6
:10995000DACFE6FFE1CFD9FFE2CFDAFF8FE90C6A79
:109960001200F3DF0C8003D0F0DF01D00C820B6A11
:109970000A6A096A086A200EE76ED890043605362E
:1099800006360736083609360A360B360050085CAC
:109990000150095802500A5803500B5809E300506F
:1099A000085E0150095A02500A5A03500B5A042A01
:1099B000E72EE4D70CB212000CB00AD088EB00F00E
:1099C00089EB01F08AEB02F08BEB03F00CA008D0DE
:1099D00084EB00F085EB01F086EB02F087EB03F0FF
:0E99E000E552E5CFDAFFE7CFD9FF49E91200E3
:0299EE007B0EEE
:1099F000D36EC090550EA76EAA0EA76E0E01FF91F2
:109A00000E01060EE96F0E01130EF66F0E01050E24
:109A1000D76F550EA76EAA0EA76E0E01FF810F011C
:109A200048690F013F0E496FF19E926893689468F0
:109A300095689668896A8A6A8C6A8D6A95948C841E
:109A4000949C8B9C938093849294929694948B8410
:109A5000959E8C8E9386938A949E9398C00EC76E23
:109A6000210EC66E969295868D82F196959A8C8A75
:109A7000F28EF094F08A87EC4EF01200D9CFE6FF18
:109A8000E1CFD9FF83E9AEEC4EF00150E66EE66A15
:109A90004D0EE66E8B0EE66EE66A890EE66E020EDF
:109AA000E66E5FEC51F047E90050E66EE66A3C0E68
:109AB000E66E8B0EE66EE66A990EE66E020EE66EB6
:109AC0005FEC51F047E9C6EC4EF041E9E7CFD9FF32
:109AD0001200D9CFE6FFE1CFD9FF85E941E8AEEC2E
:109AE0004EF00150E66EE66A02EBE6FF03EBE6FF9E
:109AF000E66A890EE66E020EE66E5FEC51F047E90B
:109B0000C6EC4EF000500CE0056A080E055C08E259
:109B1000FA0EE66EE66A37EC4FF042E9052AF5D711
:109B200042E9E7CFD9FF1200D9CFE6FFE1CFD9FF55
:109B300081E948E881B013D000015B510FE10001D9
:109B4000010E5B6FEAEC50F0B3C25CF0B4C25DF0A2
:109B5000B5C25EF0B6C25FF0010E58D055D081B4E8
:109B600013D000015B510FE10001010E5B6FEAECC5
:109B700050F0B3C25CF0B4C25DF0B5C25EF0B6C2E4
:109B80005FF0020E43D040D0EAEC50F0B3C2B0FE1A
:109B9000B4C2B1FEB5C2B2FEB6C2B3FE0E01B05140
:109BA000056EB151066EB251076EB351086ED950B1
:109BB000050FE96EDACFEAFF00015C51EE5C0E01A1
:109BC000B06F00015D51EE580E01B16F00015E51A2
:109BD000EE580E01B26F00015F51EE580E01B36FE7
:109BE0000E01B051016EB151026EB251036EB3510C
:109BF000046E0150FF083F0E0254000E0354000E85
:109C0000045402E200015B6B000E00D049E9E7CF8B
:109C1000D9FF1200A4AE09D0A49E16EC4EF0050E9A
:0C9C2000E66EE66A37EC4FF042E91200F5
:049C2C000201BB5125
:109C30000201BD5D05E30201BC510201BE5D52E2BD
:109C400071B0FED70201BB510201BD5D1CE20201F1
:109C5000BD51EA6A850FE96E020EEA22EF50756E79
:109C60000201BD2B0201BB510201BD5D0BE10201EE
:109C7000BC5108E171842C0EE66E010EE66E37ECE5
:109C80004FF042E92FD00201BC510201BE5D2AE231
:109C90000201BE51EA6A890FE96E020EEA22EF5014
:109CA00009E10201BE51EA6A890FE96E020EEA2259
:109CB000200EEF6E0201BE51EA6A890FE96E020EB4
:109CC000EA22EF50756E0201BE2B0201BC51020167
:109CD000BE5D08E171842C0EE66E010EE66E37EC77
:109CE0004FF042E91200D9CFE6FFE1CFD9FF83E977
:109CF00071B4FED70201BD6B0201BE6B01EBBBF27A
:109D000000EBBCF2718041E9E7CFD9FF1200530E9E
:109D10009512A49E736AF00E746E280E726E716AAC
:109D2000A38EF28EF28C2C0EE66E010EE66E37ECF0
:109D30004FF042E902017C0E856F0201810E866FB1
:109D40000201876BE66A030EE66ECDDF42E9C80EBC
:109D5000E66EE66A37EC4FF042E91200D9CFE6FF33
:109D6000E1CFD9FF81E941E8016A200E015C0AE2F6
:109D70000150EA6A890FE96E020EEA22200EEF6EA8
:109D8000012AF3D742E9E7CFD9FF120002017C0E86
:109D9000856F0201320E866F0201876B0201200E71
:109DA000886F200EE66E040EE66E9DDF42E912001B
:109DB000D9CFE6FFE1CFD9FF85E944E854D000EBE5
:109DC000E6FF01EBE6FF02EBE6FF03EBE6FF140E16
:109DD000E66EE66AE66AE66A18EC4CF0E552E5CF14
:109DE000B3FEE5CFB2FEE5CFB1FEE7CFB0FE0E0188
:109DF000B051056EB151066EB251076EB351086E87
:109E0000D950050FE96EDACFEAFFAF0EEE5E000E15
:109E1000EE5A000EEE5A000EEE5A083408E20550D3
:109E20002D08000E0654000E0754000E085401E3DE
:109E30001AD0083408E205500008000E0654000E3F
:109E40000754000E08540FE20000D950050FE96EC8
:109E5000DACFEAFF2A0EEE5E000EEE5A000EEE5A40
:109E6000000EEE5AE6D745E9E7CFD9FF1200D9CF69
:109E7000E6FFE1CFD9FF83E944E800EBE6FF01EB21
:109E8000E6FFE66AE66AD00EE66E070EE66EE66A62
:109E9000E66A18EC4CF0E552E5CFB3FEE5CFB2FE32
:109EA000E5CFB1FEE7CFB0FE0E01B051036EB15168
:109EB000046EB251056EB351066ED950030FE96EB0
:109EC000DACFEAFFAA0EEE5E000EEE5A000EEE5A50
:109ED000000EEE5A063408E20350C308000E045484
:109EE000000E0554000E065402E31BD01AD00634AF
:109EF00008E203500008000E0454000E0554000E42
:109F000006540FE20000D950030FE96EDACFEAFFE2
:109F1000270EEE5E000EEE5A000EEE5A000EEE5ABE
:0A9F2000E6D745E9E7CFD9FF1200AC
:069F2A009584949C240EB6
:109F3000A86E900E9C6E190EAB6E1200D9CFE6FF84
:109F4000E1CFD9FF83E941E800EBF6FF01EBF7FF32
:109F5000002A000E01220800F550036E035005E0B0
:109F600003EBE6FF06D841E9EFD742E9E7CFD9FF97
:109F70001200D9CFE6FFE1CFD9FF82E9A8A2FED730
:109F800000EBA9FF41E9E7CFD9FF12009CA202D064
:109F90009C989C88AA5000D01200D9CFE6FFE1CF50
:109FA000D9FF82E941E880EB02F000380F0B0F0B7C
:109FB000006E0050F76A290FF66EA50EF722080012
:109FC000F5CFE6FFD6DF41E90F0E0214006E005018
:109FD000F76A290FF66EA50EF7220800F5CFE6FF07
:109FE000C8DF41E900D042E9E7CFD9FF1200D9CF5D
:109FF000E6FFE1CFD9FF82E9640E005C12E3640E54
:10A00000E66E00EBE6FFAEEC4BF041E9E750F76A95
:10A01000290FF66EA50EF7220800F5CFE6FFA9DF9F
:10A0200041E90A0E005C16E30A0EE66E640EE66E67
:10A0300000EBE6FFB1EC4BF0AEEC4BF041E9E75042
:10A04000F76A290FF66EA50EF7220800F5CFE6FF96
:10A0500090DF41E90A0EE66E00EBE6FFB1EC4BF053
:10A0600041E9E750F76A290FF66EA50EF7220800BE
:10A07000F5CFE6FF7EDF41E941E9E7CFD9FF1200E6
:10A0800020B2202020B22020B220B2202020202088
:10A09000B220B20D0AB220B220B220B2202020B2EB
:10A0A0002020B22020B220200D0AB22020B2202091
:10A0B000B220B220B22020B22020B220B20D0AB2CB
:10A0C0002020B22020B220B22020B220B220B22024
:10A0D00020B20D0AB22020B22020B220B2202020CF
:10A0E000B220B2202020B20D0AB2B2B22020B2B209
:10A0F000B2B20D0AB22020B220B22020200D0AB246
:10A100002020B220B2B2B2B20D0AB22020B220B2E8
:10A110002020200D0AB2B2B22020B2B2B2B20D0A93
:10A120001E0EF66E000EF76E000EF86E00010900AE
:10A13000F550FB6F0900F550FC6F03E1FB6701D0A0
:10A140003DD00900F550F66F0900F550F76F090092
:10A15000F550F86F09000900F550E96E0900F55057
:10A16000EA6E090009000900F550F96F0900F55081
:10A17000FA6F09000900F6CFFDF0F7CFFEF0F8CF37
:10A18000FFF0F6C0F6FFF7C0F7FFF8C0F8FF0001D8
:10A19000F95302E1FA5307E00900F550EE6EF907B2
:10A1A000F8E2FA07F9D7FDC0F6FFFEC0F7FFFFC0DF
:0EA1B000F8FF0001FB07000EFC5BBFD712009A
:02A1BE00040E8D
:10A1C000D56EF184F294F28AD58E0E01BE6B0E012B
:10A1D000BF6B1200D9CFE6FFE1CFD9FF81E946E896
:10A1E000036A046AF29AF250040B01E0010E056E54
:10A1F000D650016ED750026EF250040B01E0010EF2
:10A20000066E0650055CEFE1055008E0F2940E0181
:10A21000BE2B0E01BE5102E10E01BF2B0E01BE513D
:10A2200003260E01BF510426F28A01EBB3F202EBC2
:10A23000B4F203EBB5F204EBB6F200D047E9E7CF96
:04A24000D9FF120030
:0CA24400D9CFE6FFE1CFD9FF86E943E85F
:10A2500080EB06F081EB07F00206023427E203EB05
:10A26000E9FF04EBEAFF032A000E0422EFCFB0FE61
:10A27000B0CEB1FE0E01B06B0E01B051061AB15155
:10A28000071A086A080E085C10E20750800B08E005
:10A29000D89006360736210E061A100E071A03D07C
:10A2A000D89006360736082AEDD7D6D706EBF3FF47
:0EA2B00007EBF4FF00D044E9E7CFD9FF12001E
:02A2BE00D9CFF6
:10A2C000E6FFDACFE6FFE1CFD9FFE2CFDAFF87E999
:10A2D00044E8D9CFE6FFDACFE6FFE552E5500A6E53
:10A2E000E750096E09EBE6FF0AEBE6FF00EBE6FF3D
:10A2F00001EBE6FF02EBE6FFD950030FE66E000E1E
:10A30000DA20E66E01EC3FF047E9F350076EF450B7
:10A31000086E03EBE9FF04EBEAFFEF6A07EBF3FFDC
:10A3200008EBF4FF45E9E5CFDAFFE7CFD9FF1200EC
:10A33000FE0EE3CFE9FFFF0EE3CFEAFFF36AF46A14
:10A34000EE5203E0F34AF42AFBD71200FF0EE3CFEC
:10A35000F8FFE552FF0EE3CFF7FFE552FF0EE3CF24
:10A36000F6FFE552E66AE66AE66A0900F55209E098
:10A37000FD0EE32A05E1FE0EE32A02E1FF0EE32AC9
:10A38000F4D7FD0EE3CFB3F2FE0EE3CFB4F2FF0E2F
:06A39000E3CFB5F212005C
:0AA39600D9CFE6FFDACFE6FFE1CFF2
:10A3A000D9FFE2CFDAFF85E9013415E200EBE9FFDE
:10A3B00001EBEAFFEECFF3FFEDCFF4FFEE2A000E44
:10A3C000EF22F3CFE9FFF4CFEAFF02EBEFFFEF500C
:10A3D000F36EF46A0DD0FE0E005C05E102EBE6FFC1
:10A3E00071EC52F004D002EBE6FF03EC00F041E91F
:0CA3F00041E9E5CFDAFFE7CFD9FF12000A
:04A3FC00D9CFE6FFD0
:10A40000E1CFD9FF82E941E89E96C950026EC69E0F
:10A4100000EBC9FFC6BEFBD79EA6FED742E9E7CF39
:10A42000D9FF1200E66AEADF41E9C95000D0120004
:10A43000D9CFE6FFE1CFD9FF82E941E8A49E729E21
:10A4400000EB75FF72BEFBD7A4AEFED7A49E42E917
:10A45000E7CFD9FF1200E66AEBDF41E9755000D083
:02A460001200E8
:0EA4620078000000B40000002C0100001C0275
:10A470000000FC030000BC0700003C0F00003C1E75
:10A4800000003C3C00003C7800003CF000003CE058
:0EA4900001003CC003003C8007003C000F00B0
:02A49E00F36A5F
:10A4A000F46AFF0EE124E96EFF0EE220EA6EED662B
:10A4B00007D02F0EEF6404D03A0EEF6001D0F32ADC
:02A4C000120088
:0EA4C200C00EF36E00EE00F00E0E01D8120078
:10A4D000EA6002D0EE6AFCD7F350E9601200EE6A3F
:02A4E000FCD7A7
:0EA4E200FF0EE350ADBA04D0B06AAC8EAD8A66
:0EA4F000949CADA2FED7AE6EF36EF46A12001D
:02A4FE001DEE51
:10A5000000F02DEE00F0F86A90EC50F00BEC00F04B
:08A5100003EC48F0FBD7120038
:08A5180030313233343536379F
:09A520003839616263646566006C
:07A5290030313233343536C6
:09A53000373839414243444546E5
:02A53900011807
:05A53B000177665500E8
:04A5400000FF001107
:04A544000000000013
:01FFF800EC1C
:01FFF900F611
:01FFFA00D82E
:01FFFB00FB0A
:00000001FF
