:020000040000fa
:08000000485d0400000000004f
:020000040000fa
:100400000a00fa0044002000b4bf9f00c0bf9f0054
:10041000d2bf9f00e3bf9f00f1bf9f006a805700db
:1004200000c0da005fb89700efb897000080fa00cc
:10043000000006000a00fa0080017800e20f500078
:1004400028003e00e0808000e10f500008003200ec
:10045000802320000000e00005003200042320007b
:100460002523200046232000800178000400370067
:100470000422200025222000462220008322200082
:10048000144090000004e000040035008009eb00f7
:10049000144090000074a000104298001540900095
:1004a0000028a30003003a00154090000024a0009b
:1004b000904298008001eb00070037001540900043
:1004c0000008a300fdff320063c078000000fb00bd
:1004d000000b78008301e800828f5100f7ff3a009b
:1004e0000800370030002000b0bf9f00c3bf9f004e
:1004f000d1bf9f00e2bf9f006a80570000c0da00b2
:100500006fb99700020078000080fa000000060032
:10051000889fbe0080047800f08080000000e0002a
:1005200003003a00100007000000e0000a00350058
:10053000f08080000900e00002003a00000478002a
:10054000060037000004780009004000060007009c
:100550000000e00001003d000084eb00080078008e
:100560004f04be0000000600800078000000e0009c
:1005700004003a0000022100f080880001017800a8
:10058000060037000081eb0000122100808f500030
:1005900002003e00f18088000001eb0002007800bc
:1005a00000000600881f7800000478005001be009b
:1005b0004000be000400400085804800060149005c
:1005c00087814900009cbe000294be000400e10047
:1005d0000588e1000690e1000798e1000200310083
:1005e000680044001008e8004f047800000006008e
:1005f000f4874700889fbe008a9fbe008c9fbe0084
:100600008e1f78000205be000004be00d4b79f0014
:10061000e5b79f00f6b79f0087bf9f000000eb0083
:10062000c0b79f00b0b79f00a0b79f0090b79f00d2
:1006300080b79f000d042000bfb097004fb0970017
:10064000000140000000e0000f003d004f08de0008
:1006500000007100c0b79f009e00070001003d0030
:1006600012002000a100070001003d001200200040
:10067000a6000700b1000700b60007000f00400009
:10068000c8ff0700220037004f08de000006710097
:10069000ccb79f008f00070001003d001200200032
:1006a0009200070001003d001200200097000700a3
:1006b000a20007000fb297009fb297002fb39700d8
:1006c000bfb39700a90007000000520081805a00c4
:1006d00002015b0083815b0080b79f0091b79f00a0
:1006e000a2b79f00b3b79f000007eb009f00070071
:1006f0000020e10001a8e10002b0e10003b8e10040
:10070000010031001e0020000e005600c0b79f00ff
:100710004fb297000400e0000700350010002000f1
:10072000010020006011b800080470008984700086
:100730000a0571008b8571008d06e900beff3a0045
:100740000400e00003003d00820007000f004000ad
:1007500094ff07004fa897000000e00004003a0053
:100760000fb497009fb497002fb59700bfb59700bf
:10077000940007004f0778004f06be004f05be00eb
:100780004f04be004f01b10000000600881f780032
:1007900018002000881f780095ff07008f87e90068
:1007a0004f04780000000600801feb0090ff070058
:1007b0008f87e90000000600889fbe008a9fbe0068
:1007c0008c1f78006e00070007003d0073000700d3
:1007d000e00f5b00e08f5b0007003d003200070088
:1007e0000006eb00040037003400070002003d0063
:1007f0002a0007001c00200072000700e3ff07002a
:100800000203be000002be000c00e0000100320046
:10081000220007000400be000601be004f0678005b
:100820004f05be004f04be0000000600889fbe00ba
:100830008a9fbe008c1f78005100070005003d0014
:1008400056000700e00f5b00e08f5b0006003d00f4
:10085000040037001900070003003d006000b800e5
:100860006011b8001000070056000700ceff070017
:100870000203be000002be000c00e00001003200d6
:10088000060007000400be000601be004f06780007
:100890004f05be004f04be00000006006000b80017
:1008a0006011b80000003700040250008582580033
:1008b0000603590087835900000006000006eb007c
:1008c000e00f5200e08f5a00e00f5b00e08f5b000a
:1008d000000006000180400090b79f000001eb007f
:1008e0008fb097000100e0000000060002007000d9
:1008f00090b79f000180400080b79f000001eb008f
:10090000ffa897000100e000000006000200700050
:1009100080b79f00018040006faa9700cf20de00c3
:1009200001007000f0af9f000402420025000700a4
:100930004f18de000002720000000600e4af9f00c6
:100940000804440089844c000a054d008b854d0045
:10095000000006003fb29700cfb297005fb3970048
:10096000efb3970000fe2f00000006003fb0970095
:10097000cfb097005fb19700efb19700000006007d
:100980000205be000004be00e00f5000e08f5800da
:10099000e00f5900e08f5900000006006000b80029
:1009a0006011b80008045000898458000a055900f5
:1009b0008b8559001c002000e00f5200e08f5a0088
:1009c000000006000800be000a01be00000006008c
:1009d0002800fa00889fbe008a9fbe008c9fbe0040
:1009e00003866b00060307000028a30064003a009a
:1009f0000128a30067003a000008a30062003a0043
:100a00000108a30065003a001e009000be08900097
:100a100081064000ed3fb100f4805700ee019000e8
:100a2000111ab8008e099000311bb8009e09900081
:100a3000311cb800511db800f4855700460007006e
:100a4000fe0190003a0007008b85e8003e00070099
:100a50008e09900040000700ee019000340007006e
:100a60008b85e800380007008e09900040000700e1
:100a70009e0990001b18b800890440000a854800b0
:100a8000fe019000340007008b85e8003800070065
:100a9000ee019000300007008e0990001b18b8008e
:100aa000890440000a8548000a98a30008003a001b
:100ab0000402420085824a0006034b0087834b00f4
:100ac00008044c0089844c000a054d008d06e9009d
:100ad00084827200850273004c3add008502720048
:100ae0000100320015002000443ade001400b2007c
:100af0004538de00cb45dd000b007000c540de0050
:100b0000cb4ddd008b8070004549de00cb55dd000c
:100b10000b017100c551de000d037800d102070002
:100b200003f0a1000cf0a70003f0a000c8023700fa
:100b30001b18b8008502400006834800e0834b0084
:100b400060044c00070037001b18b8000603400083
:100b500087834800faff37001b18b800870340005e
:100b600008844800e0844c0060054d000000060049
:100b70001b18b8000804400089844800faff3700b9
:100b80000108a300af023a005800be005801be00a1
:100b9000e3ff37000008a300aa023a000904780026
:100ba000f9ff370081037800da0207000001be0078
:100bb0006000b8000478a30013003a006220e1004e
:100bc00015003e000d0039008301d1000281d300e1
:100bd0008180d3008301d1000281d3008180d300c2
:100be0008301d1000281d3008180d3000538b00099
:100bf000c42add00f300b2008381720007f0a70071
:100c000003f0a00000000600f3ff2700f2ff2f0012
:100c10006110b900fbff370003ff2700f7ff370023
:100c20008f1fd100d00207008f87e9000000e0008d
:100c300000000600801feb00cb0207008f87e90051
:100c40000000e000000006001400fa00889fbe00cb
:100c50008a9fbe008c9fbe000004be000205be003d
:100c6000680047000a90be000890be00e702070037
:100c70000070a7000bf0a1009e0990000e099000e3
:100c8000fe0090006e0090009e0290003443200011
:100c9000848252000a00320010003c00b4fc2f0095
:100ca0000428e1001f0034008301d1000281d30039
:100cb0008180d3000080d3008502e800faff3a006b
:100cc0000b00e00062023b0060001000e0801800b2
:100cd00060011900e08119005d023700b4002000b6
:100ce0000428e10007003d0000004000818048002a
:100cf00002014900838149008502e900faff3a00b8
:100d0000efff3700f3ff2700f2ff2f006110b9005b
:100d10000b00e0004e023b00030028000200200010
:100d2000010037006011b8006000b80048023700c9
:100d3000889fbe008a9fbe00030578000300e00084
:100d4000050035000b003c000082700004027100b9
:100d5000300032000700370060001000e08018000b
:100d600060011900e081190002003b0001f02d0034
:100d7000280037000004be000200be006011b80069
:100d80006b092000950220000182cf000a00390083
:100d90000541b1000082cf00070039000541b100d4
:100da0000982cf00040039000541b1000882cf005c
:100db000010039000541b100054252001200320025
:100dc0000a003b0082817100610164008100d10052
:100dd0000080d3008984d3000884d3008b05e80009
:100de0000442e800f7ff3a00070037000804440017
:100df00089844c0000004800818048008b05e90090
:100e00000442e900f9ff3a00a70207000af0a70030
:100e100001f0a0004f05be004f04be000000060018
:100e2000c70207000509780000000600809feb005c
:100e30004d0207008f87e9000000e0000000060077
:100e40002800fa00889fbe008a9fbe008c9fbe00cb
:100e500003866b00ea0107006400e10044003200f1
:100e60006408e1004a0032006100e10046003200ff
:100e70006108e10049003200ec0647006000b8005c
:100e80003d02be003d03be00f48657006011b8006d
:100e90003d04be003d05be007d0320000b00370071
:100ea0000000a0008d06e900130032000402420099
:100eb00085824a0006034b0087834b0000004000f8
:100ec00081804800020149008381490008025200e4
:100ed00089825a000a035b008b835b00f0ff3b00b2
:100ee0000802420089824a000a034b008b834b00b0
:100ef0008d06e900edff3a0084827200868272005e
:100f0000f707b2008782720001003200150020004e
:100f10001e0490003e0b900006035400e63fb00014
:100f20000368a300070032000000a7000500a0002e
:100f30008301d1000281d3008180d3000080d300df
:100f40000603e8008301d1000281d3008180d30031
:100f50000080d3000002eb000482d200c101070030
:100f600003f0a1000cf0a70003f0a000b8013700c7
:100f7000640247006408e100b20132003400be00a0
:100f80003401be00f6ff37006108e100ad01320018
:100f90006011b8006000b800f1ff370003ff2700c0
:100fa00002002000fbff37001400fa00889fbe00fb
:100fb0008a9fbe008c9fbe000004be000205be00da
:100fc000680047000a90be000890be000f020700ac
:100fd0000070a7000bf0a1000bf8a30016003a0068
:100fe0009e0290003043200080825200b0fe2f000d
:100ff0000028e1000d003c00b0fc2f000028e100bb
:101000000d0034001e0990008e0890007e009000b4
:101010000501b0000201d1008180d3000080d3001f
:101020008502e800fbff3a00890137000100280033
:1010300000002000860137006000b80084013700fe
:10104000889fbe008a9fbe00010578000100e00075
:101050000400350008003c000000e00020003200e1
:101060000500370060001000e080180002003b001f
:1010700001f02c001a0037000004be006011b80017
:101080006b0920000982cf00020039000882cf00de
:101090000441b000694252000e00320008003b00db
:1010a00082817100610164008904d1000884d30049
:1010b0008b05e8000442e800f9ff3a00050037001c
:1010c0000804440089844c008b05e9000442e900cf
:1010d000fbff3a00f40107000af0a70001f0a000ae
:1010e0004f05be004f04be000000060003f0a20042
:1010f000889fbe008a9fbe008c1f78001d020700db
:10110000240233006450e1004f0032006420e1000b
:101110005200320003826c0007003b000905d0003a
:101120000306d000820f54000c065d000200390057
:10113000020032008901780003067800858255009c
:1011400004003d000003fd008103fd008502ea006c
:101150008b854200840f720002003b00600010008b
:10116000e08018006011b8000005eb007a28e1006b
:101170000a00390006007800c75ddd00f707b200fd
:10118000878075002d003700828171000a01780088
:10119000610560008180d1000080d3008502e900f4
:1011a000f9ff3b00060440008784480002003b0032
:1011b00060041400e0841c000988a30007003200ca
:1011c0008a81710082817100610164008904d1000b
:1011d0000884d3008b05e800170037000978a300c6
:1011e00013003a000b00e000130034008b05e90007
:1011f0000804440089844c000a4474000978a30060
:101200000d003a000b00e000070034008b05e900f8
:101210000804440089844c0001003a000b002000bf
:101220000978a300f7ff32000001eb00020037004d
:10123000828171000a0178009b0107000cf0a70071
:1012400001f0a000dc0137006420e10002003a0058
:10125000838f6c00dc0133000801be000200be0079
:10126000d501370007f0a200000037002800fa007f
:10127000889fbe008a9fbe008c9fbe000706780034
:10128000878669000c003b0003047800870478001f
:1012900008f0a10009f0a100840f5000858f5800cc
:1012a000860f5900890f5c00030033000cf0a20088
:1012b00001003a000cf0a100d10007006400e10039
:1012c0005f003200780147006408e10061003200ed
:1012d0006c014700748557003200be001201be0049
:1012e0003a04be001a05be001e039000be0a90001c
:1012f0008503530006003d000004fd008104fd004d
:101300000205fd008305fd008703ea000503780060
:101310000df8a3000400320060041400e0841c00f7
:1013200060051d00e0851d006022b8007d032000df
:101330000d38e1008006eb000b0039004433dd007e
:10134000f300b20083017300390037008482720019
:101350000d027800e10664008b85d1000a85d30078
:101360008984d3000884d3008703e900f7ff3b009a
:1013700008004000898048000a0149008b8149002b
:1013800004003b0060001000e080180060011900bc
:10139000e08119000358a300090032008d82720019
:1013a00084827200610260008301d1000281d30057
:1013b0008180d3000080d3000603e8001b003700c3
:1013c0000348a30017003a000600e00017003400ad
:1013d0000603e9000d00a3000000480081804800da
:1013e00002014900838149000348a3000f003a002d
:1013f0000600e000090034000603e9000000400098
:1014000081804800020149008381490001003a00bf
:101410000003eb000348a300f5ff32006022b80090
:101420000200370084827200618266008d0007002e
:1014300003f0a1000cf0a70003f0a0008400370027
:10144000640147006408e10002003a000df8a300bf
:101450007c003a003200be001201be007c00370062
:101460001400fa00889fbe008a9fbe008c9fbe00b9
:101470000004be000205be00680047000a90be00de
:101480000890be00e10007000070a7000bf0a1006b
:101490000bf8a30020003a009e0990000e0990006e
:1014a000fe0090006e0090009e02900034432000e9
:1014b00084825200660032000a003c00b4fc2f0017
:1014c0000428e100140034008301d1000281d3001c
:1014d0008180d3000080d3008502e800faff3a0043
:1014e0005b003700b40020000428e10007003c0046
:1014f00000004000818048000201490083814900ca
:101500008502e900faff3a00510037000300280085
:1015100002002000010037006011b8006000b80030
:101520004b003700889fbe00830478000300e00072
:101530002c00350003003c000082700004027100a2
:101540002600320036432000c50020008383cf00f0
:101550000a0039000541b1008283cf00070039003d
:101560000541b1008183cf00040039000541b1007d
:101570008083cf00010039000541b10085c35300cd
:101580006022b800120032000a003b008482720020
:10159000610260008301d1000281d3008180d30009
:1015a0000080d3000603e8008743e800f7ff3a0015
:1015b0000700370000004000818048000201490018
:1015c000838149000603e9008743e900f9ff3a00f7
:1015d0002400070009f0a70003f0a0004f04be009c
:1015e0000000060060001000e08018006001190093
:1015f000e0811900d3ff3b00033e2c00f7ff3700ca
:10160000680447000294be000094be00fc0447003a
:101610008694be008494be00090078007b00070019
:10162000080078007900070099007800814f700069
:101630000b003b000800be00e60007004f00b100b1
:1016400003003700f3ff2700f2ff2f006110b900fd
:101650004f06be004f05be004f04be000080fa00da
:101660000000060018002000570020000804530066
:101670000d003d000600200097fc2f000740e10010
:101680001e00340084827200610260008301d10078
:101690000281d3008180d3000080d3000804e800d9
:1016a000f8ff3a0047002000610460000504740060
:1016b000040464000d00320061004000e080480036
:1016c00060014900e081490003b8a500070032002d
:1016d0000603e8006538e10004003a008301d10008
:1016e0000281d3008180d3000080d300f87f2000e6
:1016f0000830e10003003500080378006000b800fe
:101700006011b8004433dd00f300b20083017300c0
:1017100000000600c70ade00f107b200f50fb200b4
:1017200008003200e1cf4200020032000170a00048
:1017300024000500810f700001003200040805003c
:1017400044000500810f700002003a0014000500fb
:101750008502e9000000400081c04800fcff3b001a
:101760000170a00024000500889fbe008a9fbe0073
:101770008c9fbe000404be000605be00809fbe0014
:10178000829fbe00a1000700040678000800be008a
:101790000a01be009d000700840678004f03be00ca
:1017a0004f02be008d4f76007fb0970013003300cc
:1017b000f0ff2f008b8f6b0006003b000d066600cc
:1017c0000c00a7000a00370007f0a6001000200058
:1017d0000a003700880f5200898f5a008a0f5b0079
:1017e0008b8f5b00030039001000200001003e00d9
:1017f0000000200007f0a7000000ea004f06be002e
:101800004f05be004f04be000000060080007800b7
:101810005002be005003be004439de00f700b200a3
:10182000f37f200003016100090032000218e1008b
:1018300016003a00850172008301730083817300f2
:101840000008200015003a00400020001300370077
:1018500085017200830173008381730005003a00e3
:1018600004a8be0006a8be00100020000b00370030
:101870000201e9000402420085824a0006034b008f
:1018800087834b000748a300f9ff32000740a00000
:1018900004a8be0006a8be0020002000800098001a
:1018a0009200980000000600810020006180550031
:1018b0000b003d000b00200061fe2f000100e10045
:1018c0001d00340082817100610164008904d1002f
:1018d0000884d3000000e800faff3a0071002000fd
:1018e0006100640003007000020060000900320023
:1018f00061044400e0844c000988a5000500320022
:101900008b05e8006808e10002003a008904d10074
:101910000884d300f20f20000258e10005003d00ca
:10192000c75ddd00f907b200898075000800780006
:10193000000006000bf827008b007800000005006f
:101940000003be0073ff07006220e10002003200c6
:101950000600be0005000500e507b100f107b20072
:1019600004f023008480700007f0a70001f0a000bd
:10197000240005000004be0066ff07000003be004f
:101980000405be000200be0062ff0700844f750020
:10199000000006000200be006450e10005003600b1
:1019a0006420e100020036000968a30001003a004b
:1019b0000800be000160a0004f0678004f05be0081
:1019c0004f04be0000000600f0ff2f00f1ff2700cb
:1019d000f9ff3700e48240001078a30007003200ce
:1019e000640240001178a3003400be001401be0060
:1019f000040032000330a700000006003500be00de
:101a00001501be000330a0000000060005ff2700fe
:101a100005826100070032000428e1000100320065
:101a2000240005000600070001003a0044000500fc
:101a30000408050002000700f9ff3a001400050041
:101a40006f82610081027000850271008502720060
:101a5000000006000c00fa00889fbe000004780019
:101a6000cfb09700f0ff2700d0bf9f008004eb00ad
:101a700099bf9f0088bf9f00a8bf9f00200c200037
:101a8000b0bf9f0078815700708057002600070084
:101a90000fb89700094878000fb897000804500065
:101aa000080078004f04be000080fa000000060025
:101ab0000c00fa00889fbe0000047800cfb09700a9
:101ac000f0ff2700d0bf9f008004eb0099bf9f006c
:101ad00088bf9f00a8bf9f00200c2000b0bf9f00c0
:101ae0007881570070805700b40307000fb8970043
:101af000094878000fb897000804500008007800e3
:101b00004f04be000080fa00000006008001eb00d8
:101b100002003700817178008301e800828f510054
:101b2000fcff3a0000000600fe874700889fbe00c9
:101b30008a9fbe008c9fbe008e1f7800f0b79f006a
:101b40000107780082bf9f000000eb00b0b79f0044
:101b5000e60237008006eb0050c2b30080cf500091
:101b6000090032000100fb00ffb09700790b07006d
:101b7000e10f4000dd023200bfb097008100e800b5
:101b8000b1b79f00d90237009e407800b0c2b300c1
:101b900080cf50001300320007003c006b40500023
:101ba00080cf50000d0032006340400080cf5000d5
:101bb00013003a000d003700d0c2b30080cf5000b0
:101bc000040032006340400080cf50000c003a0017
:101bd000080037000d30a000070037000d00a000fe
:101be000050037000d10a000030037000db0a00065
:101bf000010037000d20a0000e07e800e2ff3700cb
:101c00000d18a300010032000d00a1000d38a30043
:101c1000010032000d20a1000100fb0002fd2f0099
:101c200002004000e90f50000e003e000002eb00f1
:101c3000d4af9f00820178005fae97006a60b90060
:101c40001e01fb000001410003014100d2af9f00d3
:101c50005e00fb0003004000e90f50000b003e0057
:101c6000f5ff37000000eb00d0af9f00a0c2b3002b
:101c700080cf500005003a008fb8970041017800ee
:101c800081bf9f00d2af9f000e07e8000002eb006b
:101c9000c4b79f00e0c2b3009e4f100018003a0086
:101ca0000de0a0008e00e80064405000914f10004d
:101cb00002003200010778000c0037000fbe9700c9
:101cc0004c0078008cbf9f00c0b79f000e87e800d3
:101cd0000b0037004fb297006a20b90000004100a6
:101ce00003004000c0b79f000e07e8001e01fb0084
:101cf00003fd2f0003004100e90f5000f5ff3600ff
:101d0000be407800e1d79f00c0c6b30080cf50002e
:101d1000220032000f003c006940500080cf50008c
:101d20007700320004003c000104e000730232003e
:101d30006b4050000f00370040c6b30080cf50000a
:101d4000930032006540400080cf50008b003a0085
:101d50008f00370030c7b30080cf50001a00320028
:101d600007003c006440500080cf5000110032005a
:101d70000040e80080cf500080003a000f0037009c
:101d800050c7b30080cf5000800032006340400055
:101d900080cf500079003a00090037000000280089
:101da0000d48a30001003a00000120008086760063
:101db000d3ff37000d60a000750037000d50a00064
:101dc0000d70a000720037000fbe97004c00780025
:101dd0008cbf9f00000478000000e00001003a0082
:101de00028fc20008004eb00010037008104e8009b
:101df00089007800088044001004e000fbff3a00ee
:101e00004fb097000000e00003003200890f50003f
:101e100001003100800478008000eb00e1af9f00fa
:101e20005fa99700890f5100020036000900510098
:101e3000e0af9f004368de00e10660001b003a004f
:101e40000d06780009003700ffb09700000220005f
:101e5000c00a0700e10f4000030032003fb29700c4
:101e60000402e800b4b79f000c06e8006fa89700d2
:101e7000800f5600f4ff3a008080eb00e1af9f0036
:101e80000a003700880078003100fb000104780068
:101e9000ffb09700af0a0700e10f400003003200d7
:101ea0003fb197000201e800b2b79f000900e900c6
:101eb00080047800e10f4000f2ff3a000006eb00da
:101ec0000d00e0000a003a0008023700ffb097005a
:101ed000000220009f0a0700e10f400003003200cb
:101ee0003fb297000402e800b4b79f000c06e80078
:101ef0006fa89700800f5600f4ff3a00fb013700ef
:101f00008fb897004100780081bf9f00cf80de002e
:101f100001017800820178000205be000004be00c5
:101f20000203be000002be004822de00482edd0093
:101f300004027600e4d79f000d48a3000a00320097
:101f40000404e00008003200e14f420006003200c5
:101f500071fd2f000f804000044878001840980061
:101f60002900200002003700f0d79f001900200050
:101f700072fd2f000f044100a1ff370064fd2f0008
:101f80000f044200190020009dff37000d0cb30024
:101f90000d007800000cb20028003a000d00e000af
:101fa00005003d000fbe97004c05be004c04be006e
:101fb0008cbf9f00140037000d48a3000b003200b7
:101fc0000fb997004200be0082bf9f004f89de001c
:101fd000cf91de000002be00020378008203780089
:101fe0000605be000404be00070037000fba9700c4
:101ff0004400780084bf9f0000047800cfc4de0056
:10200000090578008a057800e00f5400e08f5c0035
:10201000e00f5d00e08f5d001f003d003d00b3005c
:102020006000b8006011b8000804500089845800ae
:102030000a0559008b855900170037000d00e00094
:1020400005003d000fbe97004c05be004c04be00cd
:102050008cbf9f00100037000d48a300070032001e
:102060000fba97004400be0084bf9f006011b80003
:102070000205be000004be00070037000fbe970037
:102080004c0078008cbf9f000004780009002000fd
:102090000a0020000b0020004fb097000000e00075
:1020a00007003a00e00f5400e08f5c00e00f5d0095
:1020b000e08f5d0002003a0011002000c1b79f00d0
:1020c0000d017800020cb200e2b79f00000420006e
:1020d000800f51002d00320003003c000200e000a0
:1020e000080032003a003700000820006fb2970065
:1020f000800f520014003200000c2000800f5200ac
:1021000033003a0014c0b30025bf20000b00370095
:102110000400fb004300dd00050040005001be004c
:102120004000be000040e10001c8e10002d0e10033
:1021300003d8e100250039000442e800f44f5200c2
:10214000f3ff3a002100370014c0b30025b7200088
:102150000b0037000400fb004300dd0005004000d9
:102160005001be004000be000040e10001c8e10097
:1021700002d0e10003d8e100140039000442e80075
:10218000f04f5200f3ff3a001000370014c0b300c4
:1021900025ac20000b0037000400fb004300dd00ed
:1021a000050040005001be004000be000040e100bc
:1021b00001c8e10002d0e10003d8e10003003900ca
:1021c0000442e800f64f5200f3ff3a00e4d79f00c4
:1021d0006fd697000c00fb00cfb09700810f500026
:1021e00002003d00e1d79f00040037004fb1970087
:1021f000800f510001003d00c0b79f005faa97000b
:102200000400e00004003200638066000200320037
:102210000402e900d4af9f000de8a3000b003200d8
:102220005fae97004fb09700800f560003003c0050
:102230008000eb00d1af9f00040037005fa997003a
:102240004fb2970004015100d2af9f00408c200094
:102250000080660001842000810f500006003a00d3
:102260005fae97000c00e000110032000c06e900a0
:10227000dcaf9f000e003700008c2000008066005d
:1022800001882000810f500009003a005fa89700e4
:10229000e20f500003003c008000eb00d1af9f0034
:1022a000030037005fa997000281e900d2af9f00c9
:1022b0006fd297000400fb000006eb00dcb79f0024
:1022c000dfa89700808f500002003400008050008b
:1022d000d0b79f000d28a30053003200e1806600b4
:1022e0000d18a3000c003200d00220000100e00015
:1022f00001003a000080e900ffb09700950907004f
:10230000e10f4000270032003fb197000201e800d2
:10231000b2b79f00230037000100e000090032003f
:10232000ffb09700000220008a090700e10f40007b
:102330001c0032003fb297000402e800b4b79f00cf
:1023400018003700008c2000008066000188200003
:10235000810f500013003a00ffb0970000032000e7
:102360007c090700e10f4000030032003fb69700f0
:102370000c06e800bcb79f00800520000d58a300a4
:1023800001003a0080072000ffb0970071090700a4
:10239000e10f4000030032003fb097000000e8006a
:1023a000b0b79f00dfb097000100e0000f003200df
:1023b0000006eb00ffb0970000032000650907004e
:1023c000e10f4000030032003fb197000201e80036
:1023d000b2b79f000c06e8005fb29700840f56006a
:1023e000f4ff3a000006eb00dcb79f004fb0970007
:1023f0008000e900c308dd0020bf2000008040000d
:1024000090b79f0020b720000080400080b79f0059
:1024100020ac200080804000f1af9f008000eb00e6
:10242000a1b79f009b0037005fb197000200e0005a
:1024300011003200688066000f003a000006780044
:10244000ffb097000002200042090700e10f4000a2
:10245000030032003fb297000402e800b4b79f00c7
:102460000c06e8005fb09700800f5600f4ff3a00ba
:102470008000eb00d1b79f00e18066000d18a3003b
:102480000c003200d00220000100e00001003a0000
:102490000080e900ffb097002e090700e10f40001f
:1024a0000e0032003fb197000201e800b2b79f0072
:1024b0000a0037000100e00008003200ffb097007a
:1024c0000002200023090700e10f40000300320052
:1024d0003fb297000402e800b4b79f00008c2000d0
:1024e0008080660000842000808f500009003a0040
:1024f000ffb097000003200016090700e10f40001d
:10250000baff32003fb697000c06e800bcb79f0048
:10251000b6ff370000882000808f5000b3ff3a00dc
:10252000ffb09700000320000a090700e10f4000f8
:10253000030032003fb097000000e800b0b79f00f2
:10254000800520000d58a30001003a0080072000fc
:10255000ffb09700ff080700e10f4000a3ff320023
:10256000bfb097008100e800b1b79f009fff370020
:10257000000420006fb19700800f51002700320047
:1025800003003c000200e000080032002c0037008d
:10259000000820006fb29700800f52001100320037
:1025a000000c2000800f520025003a001fb6970053
:1025b0003c02be002c03be000800be000a01be00a3
:1025c00072f80700a4002000050020006033b80066
:1025d00075f8070004c3b30004424000e4d79f002d
:1025e000170037009cfc20000d58a30001003a00a2
:1025f000acfd20000fb097003002be002003be00eb
:102600000800be000a01be0060f807006f0060000d
:102610006c467800ecd79f0009003700ffa89700b0
:102620003102be002103be000800be000a01be0048
:1026300056f80700674060000043b000e0d79f00f5
:102640006fd197000200fb00ffb09700c1080700a0
:10265000e10f4000030032003fb297000402e8009f
:10266000b4b79f002fb697000c06e800acb79f00e8
:102670001fb097006800500090b79f008fb0970080
:10268000e880500081b79f007fa997006801510042
:10269000f2af9f002fb297004fb697008c0f5200f9
:1026a000b3ff3a000d38a300100032005fb097006e
:1026b0000000e0000d0034000006eb00ffb09700c2
:1026c00000022000a3080700e10f400003003200d1
:1026d000bfb097008100e800b1b79f000c06e8008a
:1026e0005fb19700820f5600f4ff3a00be407800b9
:1026f000e1d79f000104e00016fd3a003fb09700cb
:102700004f0778004f06be004f05be004f04be00c5
:10271000ef01b10000000600889fbe008a9fbe0046
:1027200080407800d0c6b30080cf5000290036002a
:102730000185fb0042062000110009000285d80037
:1027400000017800010478004311dd002be6200031
:102750000b0141006022b8000600200007fe2300a4
:102760000288900092889000b2899000228990009f
:1027700097f80700a9002000809fbe001100090003
:102780000984d800000478004f00be004344dd00f7
:102790000b04440048229000d82290006823900047
:1027a000f82390008af80700801f78000102780063
:1027b000110009000985d8000102fd004f007800d2
:1027c0004322dd000b0242005403be004402be005f
:1027d0001f0037000180fb0029e62000eacf5000ef
:1027e00014003600a2002000110009000280d80069
:1027f00000017800010478004311dd000901410067
:102800006022b8000600200007fe2300422090004e
:10281000d2209000f2219000622190006cf8070015
:102820004344dd00090444003802be002803be0012
:10283000070037004300dd00090040006022b800b7
:102840000600200007fe23005001be004000be002d
:102850005ff807004f05be004f04be0000000600f1
:10286000889fbe008a1f7800804078000004e00046
:1028700021003d008040ea00d0c6b30080cf500068
:10288000090034008104fb00420620001100090009
:102890008204d80000017800010078004311dd00b7
:1028a0002ae620001f0037000100fb0023e620007d
:1028b00039003700a2002000110009000200d800f2
:1028c00000017800010078004311dd0003014100a0
:1028d0004300dd00030040003002be002003be00c4
:1028e00042209000d2209000f221900062219000be
:1028f00037f807002e003700d0c6b30080cf500055
:10290000230034008104fb0042062000110009006e
:102910008204d80000017800010078004311dd0036
:102920002af120000a014100a8002000110009003e
:102930000800d8004300dd000a004000402290005b
:10294000d022900060239000f02390000288900035
:1029500092889000b2899000228990001cf80700ac
:10296000801f780001027800110009008804d80057
:102970000102fd004f0078000402fb004322dd004d
:102980000a0242005403be004402be00d8ff3700d2
:102990000100fb0023f12000eacf5000c5ff3c00fe
:1029a0004300dd00030040005001be004000be00b7
:1029b0004f0578004f04be0000000600ef04b00091
:1029c000889fbe008a9fbe008c9fbe008e1f78002d
:1029d0006022b8006033b800e4a79f00f5a79f000d
:1029e00086af9f0097af9f00a0af9f00b1af9f0041
:1029f000c2af9f008002eb0095a79f00c807370079
:102a00008001eb0050c2b30080cf500009003200bb
:102a10000100fb00afa89700ce070700e10f4000c0
:102a2000bf0732001fa397000603e80096a79f0088
:102a3000bb073700bfab970097407800b0c2b30028
:102a400080cf50001900320007003c006b4050005e
:102a500080cf5000100032006340400080cf500013
:102a600021003a0016003700d0c2b30080cf5000da
:102a7000040032006340400080cf50001a003a004a
:102a8000140037000330a0003fac97000804e800b2
:102a9000b8af9f00e7ff37000300a000bfac97006e
:102aa0008904e800b9af9f00e2ff37000310a000df
:102ab0003fad97000a05e800baaf9f00ddff370081
:102ac00003b0a000bfad97008b05e800bbaf9f002f
:102ad000d8ff37000320a0003fa897000000e800bf
:102ae000b0af9f00d3ff37000318a30001003200ee
:102af0000300a1000338a300010032000320a1005d
:102b00000100fb0002fd2f0002004000e90f500011
:102b100010003e008000eb00e1979f000202780069
:102b20006f9197006a10b900bfaa97001501fb00ca
:102b30000001410004014100e2979f005500fb00a5
:102b4000b5af9f0004004000e90f50000d003e00ab
:102b5000f3ff37000003eb00e6979f00a0c2b3002d
:102b600080cf500007003a00cfab970047047800b1
:102b7000c7af9f00e8979f00bfac97008904e800ab
:102b8000b9af9f00e0c2b3003fad97009a4f10006d
:102b900021003a00830678000de0a0008a00e800da
:102ba00064405000914f100004003200b1af9f000c
:102bb0008005eb00aba79f00100037004fa89700df
:102bc000c0007800c0af9f00a1a79f003fa9970059
:102bd0000281e800b2af9f00130037002fa29700d8
:102be0006a20b9000000410003004000a0a79f0038
:102bf000bfaa97008502e800b5af9f003fab9700e2
:102c00001601fb0003fd2f0003004100e90f5000f7
:102c1000f2ff360004003700830678000dc0a000e4
:102c20008003eb00a7a79f003fac9700b840780057
:102c3000b8af9f00e1679f0070c6b30080cf50001f
:102c40003c00320017003c006440500080cf500030
:102c50008f0032000e003c007c40500080cf5000be
:102c60003300320006003c000104e000320732006d
:102c700000c0e90080cf5000aa003a0029003700c8
:102c800080c5b30080cf5000a6003a002d00370069
:102c900050c6b30080cf5000230032001f003c001c
:102ca000a700370000c7b30080cf500025003200d6
:102cb0000a003c006440500080cf500011003200f8
:102cc0006340400080cf50001c003200664050003e
:102cd00080cf500093003a009900370050c7b300ee
:102ce00080cf5000950032006340400080cf5000fc
:102cf000150032006540500080cf500089003a0036
:102d000013003700000028000d48a30001003a001e
:102d10000001200080867600c3ff37000da0a000d0
:102d2000870037000d50a0000d80a0008400370000
:102d30000d50a0000d90a000810037000d60a00094
:102d40007f0037000d50a0000d70a0007c00370000
:102d5000cfac970049007800c9af9f00e0a79f0063
:102d60000000e00002003a00cbfe2000eba79f002d
:102d70000000eb00f0a79f00020037008100e80090
:102d8000f1a79f00ffa097006fa19700028040006d
:102d90001004e000f9ff3a00afa197000300e00043
:102da000040032007fa29700848f5100010031009f
:102db000f3a79f007fa097000005eb006f9397009b
:102dc000800f530001003600000553004368de0009
:102dd000e104600019003a00090478000900370096
:102de000afa8970000022000da060700e10f4000bc
:102df000030032009fa397008703e80097a79f0076
:102e00000804e8008a0f5400f5ff3a000085eb0043
:102e10000a003700efa097003100fb00e1a79f00f8
:102e2000afa89700cb060700e10f40000300320077
:102e30001fa497000804e80098a79f00ffa597002b
:102e40000b00e900f0a79f00e10f4000f1ff3a00fe
:102e50000004eb000900e0000a003a00b006370069
:102e6000afa8970000022000ba060700e10f40005b
:102e7000030032001fa197000201e80092a79f0003
:102e80000804e8008a0f5400f5ff3a00a406370052
:102e9000cfa9970043007800c3af9f00cf80de002a
:102ea00001017800820178000203be000002be002a
:102eb000e0a79f00f1a79f0082af9f0093af9f0004
:102ec0004822de00482cdd0004027400e4679f0005
:102ed0000d48a3000c0032000404e0000a00320098
:102ee000e14f42000800320079fa2f000f804400c1
:102ef000044878004fcd97001a4098002b0020001e
:102f0000fba79f0003003700f0679f001000200020
:102f1000f0a79f0071fa2f008f804000e1a79f006b
:102f20009dff370062fa2f000f014100e2a79f00ca
:102f300013002000f3a79f0097ff37000d0cb3008c
:102f400000702000008266008a0432000dc8a300d1
:102f50000200320064002000a4a79f000d48a300d7
:102f6000090032004fa897004005be004004be0093
:102f7000c0af9f00d89f9f00e99f9f00fa9f9f00ce
:102f80008ba79f00080037004fa997004200be00a2
:102f9000c2af9f0003f70700d09f9f00e19f9f00f3
:102fa000f29f9f0083a79f006022b8006033b800a3
:102fb0005f989700ef9897007f9997008fa19700ef
:102fc00017f707000000e0000a003d005f9a970035
:102fd000ef9a97007f9b97008fa3970007f0a200be
:102fe000d49f9f00e59f9f00f69f9f0087a79f00ab
:102ff0003d00b3000000eb00d0979f006022b800b6
:103000006033b8005f989700ef9897007f9997001a
:103010008fa1970007f707000000e000350032009d
:103020005f989700ef9897007f9997008fa197007e
:1030300005f707003ef70700a5fa2f000f814200b1
:1030400077f707005f9097000000e9006300b90080
:10305000a2002000110009000200d8008000fd003d
:10306000d1979f000100e00002003d000100e9004f
:10307000d0979f005f9497000840ea00f8fd070092
:103080005f9a9700ef9a97007f9b97008fa3970016
:103090004ff60700909f9f00a19f9f00b29f9f0047
:1030a000c39f9f006022b8000600200007ff230096
:1030b000dbf607000000e00002003d000800e90028
:1030c0000b0037006022b8000600200047022400f1
:1030d0001f989700af9897003f999700cf99970056
:1030e00052f707000000e000020035000800e80089
:1030f000d0979f005f939700d6a79f000600e0003f
:1031000003003c0010c0b300e0679f0002003700de
:10311000afcb9700e7679f000d0678000c10b20058
:1031200008003a000d98a3007e0232005fa49700c9
:10313000e40f440003003500afa49700890f54004a
:10314000f90135002fa597000a00e00004003200c5
:103150000d98a300020032000a05e900aaa79f000b
:10316000afa5970020c1b300f28f550001003e00cb
:103170004fc09700e0679f006022b8006033b8003e
:103180005f989700ef9897007f9997008fa197001d
:10319000a8f607000000e000740032006f66970098
:1031a000afc897000cc05000adfd07000002be0084
:1031b0000203be005f989700ef9897007f999700f1
:1031c0008fa197001ef707000004be000205be0095
:1031d0000002be000203be00d49f9f00e59f9f0037
:1031e000f69f9f0087a79f006ff707000001be00b2
:1031f000e00f5000e08f58000200350090f7070004
:103200000900370061006000010020008301d10047
:103210000281d300020070008380700088f70700ed
:103220000001be00b2f707005ef607000002be0014
:103230000203be000800be000a01be0009f8070034
:103240006022b8000600200007fe2300f7f6070002
:103250000000e0000a0035006022b80006002000ef
:1032600007fe23000800be000a01be00fff70700aa
:10327000d09f9f00e19f9f00f29f9f0083a79f0028
:103280005f989700ef9897007f9997008fa197001c
:1032900045f707000002be006033b8000c00fb00d9
:1032a0004304dd0029dc200009004400d000900028
:1032b00060019000f0019000400090000020e100cb
:1032c00001a8e10002b0e10003b8e10010003900fc
:1032d0000400200005002a009699290097fb23008e
:1032e0005f989700ef9897007f9997008fa19700bc
:1032f000b7f50700d09f9f00e19f9f00f29f9f00be
:1033000083a79f00dfa297000500e80016003700a2
:10331000090044005001be004000be000020e10052
:1033200001a8e10002b0e10003b8e1000f003100a4
:103330006022b80006002000470224005f98970032
:10334000ef9897007f9997008fa19700a0f507004d
:10335000d09f9f00e19f9f00f29f9f0083a79f0047
:103360005fa397000600e900d0979f004968de0040
:103370006100600080cf9f000004e0004000320048
:1033800000802000008666003d003a002fa49700d0
:10339000f40f54000200340049012000a9a79f0047
:1033a0005f989700ef9897007f9997008fa19700fb
:1033b000fdf607000004be000c0578008c057800bf
:1033c0000b0037002fa097000000e900a0a79f0086
:1033d000a4002000050020006033b8000800be00f3
:1033e0000a01be00e9f407000205be000004be00a9
:1033f000e00f5400e08f5c00e00f5d00e08f5d00a7
:103400000b003200a4002000050020006033b8004b
:103410000800be000a01be00e3f40700e00f500000
:10342000e08f5800e00f5900e08f5900e5ff3200af
:10343000ef6097000100fb002fa19700800f510063
:103440000f003d0002c0500005fd07000002be0055
:103450000203be005f989700ef9897007f9997004e
:103460008fa1970076f60700d09f9f00e19f9f00f5
:10347000f29f9f0083a79f00cfc19700e3679f0043
:103480006f929700afa297000500520065065000aa
:103490000500e00002003a000db8a3000100320070
:1034a0006606500063806600010032000c06e900e9
:1034b0000d28a30026003200e18066000d18a3004d
:1034c0000c003200d00220000100e00001003a00b0
:1034d0000080e900afa897001e050700e10f40003b
:1034e000180032001fa397000603e80096a79f006c
:1034f000140037000100e00012003200afa897006e
:103500000002200013050700e10f40000d0032000b
:103510009fa397008703e80097a79f000900370043
:10352000afa89700000320000a050700e10f400044
:10353000030032001fa497000804e80098a79f002a
:103540000c06e9000c00e000f5ff3c002e003700ff
:103550000d38a3000a0032000b003700afa8970017
:1035600000022000fb040700e10f400003003200ce
:103570009fa497008904e80099a79f000c06e90022
:103580000c00e000f5ff3c00e18066000d18a30090
:1035900013003200d00220000100e00001003a00d8
:1035a0000080e900afa89700ea040700e10f40009f
:1035b000150032001fa597000a05e8009aa79f0092
:1035c00011003700e8a79f00f9a79f008aaf9f006e
:1035d0009baf9f008045eb00eb679f0080003700aa
:1035e0000100e00008003200afa8970000022000b0
:1035f000d8040700e10f4000030032001fa097002d
:103600000000e80090a79f005f989700ef98970050
:103610007f9997008fa1970063f607000004be0012
:103620006055b800ef6097000100fb004300dd002b
:103630002edc20000e0040003002be002003be0041
:103640000800be000a01be0050f407000003b000ed
:10365000afa89700bf040700e10f4000030032004d
:103660001fa197000201e80092a79f00ef61970059
:103670000300fb004300dd000e0040003002be00ee
:103680002003be000800be000a01be0046f4070089
:103690000205be000004be00e0a79f00f1a79f0046
:1036a00082af9f0093af9f00afa297000500e0009c
:1036b00002003a000db8a30049003200afa89700fd
:1036c000e0022000a3040700e10f400003003200e5
:1036d0001fa397000603e80096a79f00ef639700db
:1036e0000700fb00afa0970000805000809f9f0064
:1036f000240037000fc997000204e00005003200e3
:10370000e00f5400e08f5c00e00f5d00e08f5d0093
:10371000acff32000000fb004300dd002edc200087
:103720000e0040003002be002003be000800be00b4
:103730000a01be0015f407000003b000afa897000f
:1037400084040700e10f4000030032009fa19700ae
:103750008301e80093a79f006f6297000400fb00bd
:103760004300dd000e0040003002be002003be001a
:103770000800be000a01be000bf407000205be00ef
:103780000004be00ef6297000540e900e0679f007b
:10379000e14f4000d7ff3a00e8a79f00f9a79f003c
:1037a0008aaf9f009baf9f000004eb000900370029
:1037b000afa897000003200066040700e10f400057
:1037c000030032001fa397000603e80096a79f009e
:1037d0000804e8008f9b9700870f5400f4ff3a001d
:1037e0000d58a30009003200afa897005004200034
:1037f00058040700e10f40000c0032001fa497009e
:103800000804e80098a79f0008003700afa89700b9
:10381000500620004f040700e10f40000300320073
:103820009fa497008904e80099a79f005f909700e4
:103830000000e0000b003d000000ea00d0979f0070
:10384000afa89700d002200042040700e10f40001b
:103850000c0032001fa597000a05e8009aa79f00f8
:1038600008003700afa89700b00220003904070015
:10387000e10f4000030032009fa597008b05e80090
:103880009ba79f005f909700a800200011000900ef
:103890000800d8000003b000afa897002d0407006f
:1038a000e10f4000030032001fa097000000e80075
:1038b00090a79f00df909700110009008800d800b2
:1038c0008000fd000003b000afa8970021040700ae
:1038d000e10f4000030032009fa097008100e80044
:1038e00091a79f000d38a3000d0432000c00e000ea
:1038f0000b0434000004eb00afa897000002200086
:1039000014040700e10f4000030032001fa19700dc
:103910000201e80092a79f000804e8008c0f540001
:10392000ff033200f4ff3700dfa197000300e0003f
:1039300004003d002fa29700030052000000e900a0
:10394000a0a79f005f989700ef9897007f99970036
:103950008fa19700c2f607000205be000004be005a
:103960000c42780025dc20000b0037000400fb002f
:103970004300dd00050040005001be004000be00d5
:103980000040e10001c8e10002d0e10003d8e100fd
:10399000030039000442e800f44f5200f3ff3a00fc
:1039a000e4679f000400fb00afa29700008752006d
:1039b000f80f57000d003c000e40780056fb070042
:1039c0000002be000203be005f989700ef989700c8
:1039d0007f9997008fa1970024f60700d09f9f0042
:1039e000e19f9f00f29f9f0083a79f000e407800f9
:1039f0009bfb0700d0af9f00e1af9f00f2af9f009d
:103a000083b79f00e00f5400e08f5c00e00f5d0083
:103a1000e08f5d00040035000800be000a01be0012
:103a2000c0f607001300370010002000010020003e
:103a30006011b80008006000898060000a01610020
:103a40008b8161008b03d1000a83d3008982d3006c
:103a50000882d300000072008180720002017300ae
:103a600083817300aff607000002be000203be00b0
:103a7000fef507000002be000203be005f9897003b
:103a8000ef9897007f9997008fa19700f5f50700b1
:103a90000002be000203be005fa89700efa89700d7
:103aa0007fa997008fb19700c9f307006cf6070054
:103ab0000205be000004be000006eb00080037004f
:103ac000a4002000050020006033b8000800be00fc
:103ad0000a01be002df307000205be000004be006f
:103ae0000c035700a6a79f008e0f56001d00320042
:103af0000c06e800a4002000050020006033b80098
:103b00000800be000a01be0027f30700e00f5000c6
:103b1000e08f5800e00f5900e08f5900e8ff3200b5
:103b200010003700afa39700f88f53000d003c0042
:103b300007407800f8fa07000002be000203be004a
:103b40005f989700ef9897007f9997008fa1970053
:103b5000c6f50700d09f9f00e19f9f00f29f9f0046
:103b600083a79f005fa49700e90f540015003c0055
:103b70006022b8006033b8005f989700ef98970014
:103b80007f9997008fa197002af407000000e000ba
:103b9000360032005f989700ef9897007f99970062
:103ba0008fa197002ef60700e00f5000e08f58001d
:103bb000e00f5900e08f59002c003a00e10f54004b
:103bc0002a0034000400200005002e00b6e0220088
:103bd000170124001f989700af9897003f9997000e
:103be000cf9997000ef407000000e00003003d00ad
:103bf000dfa4970073805400020037005fa5970090
:103c000072005500d0979f002f68970014fb0700a3
:103c1000909f9f00a19f9f00b29f9f00c39f9f0006
:103c20000002be000203be005f989700ef98970065
:103c30007f9997008fa1970081f4070008f607008d
:103c4000e0a79f00f1a79f0082af9f0093af9f0066
:103c50006000b8006011b800d0b79f00e1b79f00c6
:103c6000f2b79f0083bf9f00340037005f98970032
:103c7000ef9897007f9997008fa19700f8f50700bc
:103c8000e0a79f00f1a79f0082af9f0093af9f0026
:103c9000e00f5000e08f5800e00f5900e08f59000e
:103ca000020035001ff60700170037001000200043
:103cb000010020006011b8006fa29700ffa29700da
:103cc0000fab97009fab97000400600085806000f9
:103cd00006016100878161008703d1000683d3005c
:103ce0008582d3000482d3000000720081807200bc
:103cf00002017300838173000af607000002be0010
:103d00000203be0059f507000002be000203be0018
:103d10005f989700ef9897007f9997008fa1970081
:103d200050f50700d0b79f00e1b79f00f2b79f00a2
:103d300083bf9f000000eb00d0979f0014c0b3002a
:103d400025dc20000f0037000400fb004300dd00ed
:103d5000050340003600be002601be006fa4970098
:103d6000ffa497000fad97009fad97000040e100c2
:103d700001c8e10002d0e10003d8e10003003900ee
:103d80000442e800f44f5200efff3a00e4679f005e
:103d90000400fb00afa4970000804400df90970070
:103da000010040006f959700000655004b68de004b
:103db00061006000004778000004e00002003a0063
:103dc0000900e000010032000c06e9006380660093
:103dd000010032000c06e9000d28a3002600320085
:103de000e18066000d18a3000c003200d002200014
:103df0000100e00001003a000080e900afa8970050
:103e0000d4020700e10f4000180032009fa5970080
:103e10008b05e8009ba79f00140037000100e0001d
:103e200012003200afa8970000022000c90207006c
:103e3000e10f40000d0032001fa097000000e800d5
:103e400090a79f0009003700afa89700000320004b
:103e5000c0020700e10f4000030032009fa097005e
:103e60008100e80091a79f000c06e9000c00e0002b
:103e7000f5ff3c003f0037000d38a3000a00320078
:103e80000b003700afa8970000022000b102070026
:103e9000e10f4000030032001fa197000201e8007b
:103ea00092a79f000c06e9000c00e000f5ff3c0023
:103eb000e18066000d18a3000c003200d002200043
:103ec0000100e00001003a000080e900afa897007f
:103ed000a0020700e10f4000260032009fa19700da
:103ee0008301e80093a79f00220037000100e00053
:103ef00020003200afa897000002200095020700c2
:103f0000e10f40001b0032001fa297000402e800ee
:103f100094a79f00170037000000fb004300dd005e
:103f200021dc2000010040003002be002003be0062
:103f30006fa09700ffa097000fa997009fa9970077
:103f400012f20700a4002000050020006033b80032
:103f500015f207000003b000afa897007d0207002c
:103f6000e10f4000030032009fa297008502e800a5
:103f700095a79f006f6397000640e900e0679f00e8
:103f8000e14f4000e4ff3a000b003700afa8970074
:103f9000000320006f020700e10f40000300320021
:103fa0009fa397008703e80097a79f005f90970063
:103fb0000000e900d0979f005f9097000000e000ac
:103fc000f2ff3c002fa49700f20f540003003400ce
:103fd00020c1b300e0679f0002003700cfc4970004
:103fe000e9679f00ef6097000100fb002fa5970095
:103ff00000005500f0979f000104e00002003a0025
:104000000e04e00008003200afa89700e002200094
:1040100050020700e10f4000030032009fa5970007
:104020008b05e8009ba79f006f6097000cfa0700c4
:104030000002be000203be005fb09700efb0970021
:104040007fb197008fb9970061f2070004f5070070
:104050001e0037000000fb004300dd002edc2000c6
:104060000e0040003002be002003be000800be006b
:104070000a01be00c5f10700a400200005002000d1
:104080006033b800c8f107000003b000afa8970084
:1040900030020700e10f4000030032001fa097002c
:1040a0000000e80090a79f00ef6097000100fb0070
:1040b0004300dd000e0040003002be002003be00c1
:1040c0000800be000a01be00b7f107000205be00ed
:1040d0000004be006f6197000240e900e0679f00a6
:1040e000e14f4000dbff3a00e8a79f00f9a79f00df
:1040f0008aaf9f009baf9f000004eb0009003700d0
:10410000afa897000003200012020700e10f400053
:10411000030032009fa197008301e80093a79f004e
:104120000804e8007f929700840f5400f4ff3a00df
:104130000d38a300fa0132000c00e000f801340051
:104140000004eb00afa89700000220000102070066
:10415000e10f4000030032009fa297008502e800b3
:1041600095a79f000804e8008c0f5400ec01320072
:10417000f4ff37000d007800000cb20032003a0066
:104180000d00e00009003d004fa897004005be006b
:104190004004be00c0af9f00e8a79f00f9a79f00a2
:1041a0008aaf9f009baf9f00160037000d48a30009
:1041b000090032004fa997004200be00c2af9f0025
:1041c0004f89de00cf91de000002be0002037800be
:1041d0008203780007003700cfa9970043007800da
:1041e000c3af9f0000027800cfa2de000503780075
:1041f00086037800e4a79f00f5a79f0086af9f0085
:1042000097af9f006fa49700ffa497000fad970092
:104210009fad9700e00f5400e08f5c00e00f5d0061
:10422000e08f5d0026003d003d00b3006000b80057
:104230006011b80008045000898458000a0559002c
:104240008b8559001a0037000d00e00005003d0085
:104250004faa97004401be004400be00c4af9f00b7
:10426000070037000d48a3000a003200cfaa9700cc
:104270004500be00c5af9f000401780084017800ae
:10428000e0a79f00f1a79f0082af9f0093af9f0020
:104290000b0037004fab970046007800c6af9f0079
:1042a00000047800090020000a0020000b00200014
:1042b000e8a79f00f9a79f008aaf9f009baf9f00d0
:1042c000afa497000900e0000b003a006fa0970030
:1042d000ffa097000fa997009fa99700e00f50003b
:1042e000e08f5800e00f5900e08f590002003a00bb
:1042f00011002000a1a79f000d0678000c0cb20051
:1043000000042000800f56003400320003003c00ff
:104310000c00e000070032004500370000082000d4
:10432000800f560018003200000c2000800f56004d
:104330003f003a0014c0b30025dc20000f00370016
:104340000400fb004300dd00050040005001be00fa
:104350004000be006fa49700ffa497000fad970028
:104360009fad97000040e10001c8e10002d0e100ec
:1043700003d8e1002d0039000442e800f44f520058
:10438000efff3a002900370014c0b30025d4200005
:104390000f0037000400fb004300dd000500400073
:1043a0005001be004000be006fa49700ffa497001c
:1043b0000fad97009fad97000040e10001c8e100fc
:1043c00002d0e10003d8e100180039000442e800ff
:1043d000f04f5200efff3a001400370014c0b30052
:1043e00025c920000f0037000400fb004300dd005a
:1043f000050040005001be004000be006fa49700c1
:10440000ffa497000fad97009fad97000040e1001b
:1044100001c8e10002d0e10003d8e1000300390047
:104420000442e800f64f5200efff3a00e4679f00b5
:10443000ef6497000900fb002fa597008a0f50003a
:1044400002003d00ea679f0004003700afa5970017
:10445000808f550001003d00a0a79f006f9097003e
:104460000000e000050032006380660003003200b7
:10447000ef9097008100e900e1979f000de8a3000d
:104480000b0032006f919700afa19700830f51008e
:1044900003003c000002eb00e4979f00040037009b
:1044a000ef9297002fa3970086825200e5979f0016
:1044b000408c20000080660001842000810f5000a5
:1044c00006003a00ef9397000700e0001100320069
:1044d0008703e900e7979f000e003700008c20005b
:1044e0000080660001882000810f500009003a001a
:1044f0006f949700e20f540003003c008004eb002f
:10450000e9979f00030037006f9597000a85e9003f
:10451000ea979f00ef6597000b00fb008000eb001f
:10452000b1a79f006f919700800f510002003400e7
:1045300000005100b0a79f000d28a3004f003200db
:10454000e18066000d18a3000c003200d0022000ac
:104550000100e00001003a000080e900afa89700e8
:10456000fc000700e10f4000270032009fa19700e8
:104570008301e80093a79f00230037000100e000bb
:1045800009003200afa8970000022000f1000700e8
:10459000e10f40001c0032001fa297000402e80057
:1045a00094a79f0018003700008c20000080660050
:1045b00001882000810f500013003a00afa8970037
:1045c00000032000e3000700e10f40000300320079
:1045d0009fa297008502e80095a79f008005200014
:1045e0000d58a30001003a0080072000afa89700f3
:1045f000d8000700e10f4000030032001fa397001e
:104600000603e80096a79f00bfa397000700e000fd
:104610000f0032000004eb00afa897000003200059
:10462000cc000700e10f4000030032009fa4970078
:104630008904e80099a79f000804e8003fa59700b7
:104640008a0f5400f4ff3a008005eb00bba79f00df
:104650002fa097008000e900c308dd0020dc2000c7
:104660008085400020d420000085400020c9200023
:10467000808440000007eb0094003700bfa0970043
:104680000100e00011003200688066000f003a006f
:1046900000047800afa8970000022000ad000700da
:1046a000e10f4000030032001fa197000201e80063
:1046b00092a79f000804e800bfa19700830f540051
:1046c000f4ff3a000002eb00b4a79f00e18066000f
:1046d0000d18a3000c003200d00220000100e00001
:1046e00001003a000080e900afa897009900070098
:1046f000e10f40000e0032009fa297008502e80003
:1047000095a79f000a0037000100e0000800320072
:10471000afa89700000220008e000700e10f4000c4
:10472000030032001fa397000603e80096a79f002e
:10473000008c20008080660000842000808f500064
:1047400009003a00afa8970000032000810007008d
:10475000e10f4000beff32009fa397008703e800ef
:1047600097a79f00baff370000882000808f500075
:10477000b7ff3a00afa897000003200075000700bc
:10478000e10f4000030032001fa497000804e80076
:1047900098a79f00800520000d58a30001003a0053
:1047a00080072000afa897006a000700e10f4000d3
:1047b000a7ff32009fa497008904e80099a79f00f3
:1047c000a3ff370000042000800f560028003200ad
:1047d00003003c000c00e000070032002e00370010
:1047e00000082000800f560012003200000c20004c
:1047f000800f560028003a003b02be002b03be008b
:104800006fa09700ffa097000fa997009fa997009e
:10481000deef0700a4002000050020006033b80090
:10482000e1ef070004c3b30004424000e4679f00c7
:104830001900370038ff20000d58a30001003a008e
:10484000480021003a02be002a03be006fa0970074
:10485000ffa097000fa997009fa99700cbef070033
:104860006f00600068447800e8679f000a00370026
:104870003902be002903be006fa09700ffa0970079
:104880000fa997009fa99700c0ef0700674060003d
:104890000043b000e0679f00ef6297000500fb0057
:1048a000afa897002b000700e10f40000300320083
:1048b0001fa397000603e80096a79f000e07e800d5
:1048c000e885550068055500e8845400afa39700bb
:1048d000870f5700bbff3a000d38a30010003200cd
:1048e0003fa497000800e0000d0034000004eb0036
:1048f000afa897000002200016000700e10f40005b
:10490000030032009fa497008904e80099a79f0044
:104910000804e8003fa597008a0f5400f4ff3a000e
:10492000bfad9700bb407800bbaf9f00e1679f0021
:104930000104e00032f83a001fa097004f0778000a
:104940004f06be004f05be004f04be00ef04b1008d
:1049500000000600889fbe00000178000104780076
:10496000b10090000118a3003d0032000198a3009f
:1049700003003a00180090000000e00038003a0000
:104980000190a0003104980082047800f90fb20071
:10499000180090000000e00002003a00280090009b
:1049a000000c78003800900000b8a3000600320028
:1049b00000a8a30004003200210020006011b8000c
:1049c0000800780049000700b80090000100780056
:1049d00000b0a10030049800ea8f540005003a00ae
:1049e0000178a30003003a0088007800d00020007e
:1049f000d8ff07009800900058009000808f50006a
:104a00000b0032000100e800100498001800780044
:104a100009587800000c780011c0b3006001210033
:104a200001487800ea8f5400060032000f0037007a
:104a30008800780009407800c600070080047800ec
:104a40000a003700380090000088a30006003200fa
:104a50000800780095000700e10f400002003a00ce
:104a60008084eb0001003700a900200009007800d5
:104a70004f04be0000000600881f78000004780084
:104a800040009000110020006011b8005cee0700ab
:104a90000001be00180090000000e00002003d0090
:104aa0000000eb0010049800280090000000e000d7
:104ab00008003200380090000098a3000500320082
:104ac00018009000cf80de00020040008380480084
:104ad0000400370018009000cf80de000000510075
:104ae000818059004f047800000006000400fa009d
:104af000889fbe008a9fbe008c1f78000006780049
:104b000092bf9f00a3bf9f00010478003000900077
:104b10000040a100300698002c0090000000e0004a
:104b200006003a004c00900035ee0700e10f40000f
:104b3000e08f480057003a0054003700e18f5000e2
:104b400005003200e28f50000c0032000100e0004e
:104b5000200032004d0037000c007800c6ff07002f
:104b60001fb99700afb99700020140008381480048
:104b700092bf9f00a3bf9f00160037000c00780073
:104b80004a0007004c009000110020006011b8009e
:104b90001bee07000005be004c0090008800780066
:104ba0006011b80016ee07000004be004c00900033
:104bb0008000eb000a01be0011ee07001fba97004b
:104bc000afba97000402440085824c0094bf9f0056
:104bd000a5bf9f000c007800a7ff07001fba970031
:104be000afba97000001520081815a0003003200e1
:104bf0003c00900000b0a000300698003c029000fd
:104c00000408a3000f003200620362000d003a00a6
:104c1000e00f5100e08f59000a0035009c0290001f
:104c20006128b900800f5100818f590005003c00b8
:104c300002805200100698001c0e41000600780009
:104c4000150037000498a300050032001c009000f6
:104c50000000e000020032000c00780013000700a2
:104c60008000eb0011069800ac029000050e780061
:104c70004c0090001fb99700afb99700e0ed070016
:104c8000e00f5000e08f580002003d000080eb0074
:104c9000010037000000eb004f0678004f05be0012
:104ca0004f04be000080fa0000000600881f780054
:104cb00000047800300090000008a30007003200d4
:104cc000800078000120b20004003a00110498002e
:104cd000a8009000010c7800170037000018a3000e
:104ce000190032000098a30017003200a8009000bd
:104cf0000100e00014003200180190000200e00002
:104d00001100320048009000caed070098009000a2
:104d1000810f500003003200380090000003b30000
:104d2000300498000000eb00100498002800900068
:104d3000000c7800380090000058a30002003200f8
:104d40000080eb00010037000000eb004f0478000a
:104d5000000006000200fa00889fbe00a0ff9f002e
:104d60000104780031009000e200600004003a0085
:104d70000003b300300498001104980018003700b5
:104d8000d80490000900e0001a003a006c006000ae
:104d900004003a003300070020049800e10f4000af
:104da00011003a0029049800590498003800900036
:104db0000020a000300498001904980048009000da
:104dc00012002000e68057009aed0700e10f500026
:104dd0001f003200380090000003b3003004980038
:104de0000080eb001c0037000020200050049800d9
:104df0000a00370018019000a800900048009000b9
:104e00008ced070098009000810f500003003200e5
:104e1000380090000003b300300498001000200018
:104e20001004980028009000aff89700014878001f
:104e300028009000000ce800b80090000080eb0013
:104e40000158a30004003a000190a000310498002a
:104e5000aff897000180fb004f04be000080fa000d
:104e600000000600c18080000100e0000300320065
:104e700011007800c0808800030037000020200067
:104e8000a3ed070080007800e18f400002003a00a7
:104e9000906e2600d0808800010078000000060097
:104ea000c180800001087800c080880000000600f2
:104eb0002c43a800d2c2a800d2e2a800c0e2a900f8
:104ec000c0c2a900d922a800dee2a800df02a90022
:104ed000dec2a900e302a900e2c2a900c642a900fd
:104ee000c622a900ca42a800ca22a800d922a80046
:104ef000d902a800e1132000111288000000280048
:104f00000012880011138800001388008220a90075
:104f10008240a900b2c0a800b2a0a900b280a90036
:104f2000ae40a800ae20a900ae00a9002c43a80006
:104f3000d382a900d782a80087a0a9008680a900f3
:104f4000e442a800e302070000000600889fbe00bc
:104f50000044780081447800610307000880fb006a
:104f6000801f780080892d00801f7800e0a6200037
:104f7000b8f207000980fb00801f7800808a2d00ae
:104f8000801f7800e0a72000b2f207001603070098
:104f9000e88757004f04be0000000600889fbe004f
:104fa0008a1f7800000478000145780082047800a8
:104fb0004b0307000a80fb00801f7800881f7800e1
:104fc000e0a62000baf2070007030700e4875700b5
:104fd0000900e000060032000044eb00a00f2000b2
:104fe0005e0107000844e800e84f5400fbff3a0068
:104ff0004f0578004f04be00000006000c00fa00c8
:10500000881f7800d4c2bf000068a3000c003a00db
:10501000b00ae20027003a001800200088558800f6
:105020006e8057006f0107001fb89700afb8970058
:1050300090558800a1558800080078001e003700b0
:10504000d442e2000c003500b00ae20019003a0038
:1050500010002000805588006a8057006101070019
:105060003fb89700cfb8970090558800a1558800a9
:10507000200020001000370066805700590107000b
:105080005fb89700efb8970092558000a355800055
:105090000200500083805800f2ff2300820f50006e
:1050a000e08f5800030036000000eb0080558800b8
:1050b000010037000000eb004f0478000080fa0088
:1050c00000000600889fbe008a9fbe008c9fbe0025
:1050d00077ff0700df010700120020008040eb008f
:1050e000e02d2d00adff0700e02f2d00e2010700ad
:1050f00060332d00e0010700d0342d00de010700f1
:1051000080362d00dc01070030382d00da01070061
:10511000b0392d00d8010700d03b2d00d601070083
:10512000803d2d00d4010700203f2d00d201070053
:1051300010412d00d001070080422d00ce01070054
:1051400080462d00cc010700604a2d00ca010700ef
:10515000804e2d00c8010700a0522d00c601070097
:1051600060562d00c4010700c4e2a900c4c2a90012
:105170000000eb00dd0b0700bfcabf00aa0c070050
:105180000000e000c20032000040eb00b50c070058
:10519000f1ab20009140780012002000d05a2d0081
:1051a0007eff07008040eb0000c0eb00150d0700fc
:1051b000e14f400006003200f1ab20009140780042
:1051c00012002000d05c2d0074ff0700040037009f
:1051d0006011b800a1c0b3000040eb001d0f070034
:1051e00000c0eb005b090700c4e2a8000001eb006f
:1051f0008040eb00c05e2d0068ff07008045eb009b
:105200000b4678000b4578008b447800ddc0b30076
:105210009b0d07000000e00042003200ec68ab008c
:105220000200320090602d0093010700604780006b
:10523000630060000300320020612d008e01070032
:1052400002003700e0622d008b010700f5c8bf00a7
:10525000a4010700ecc8ab001300320080642d00ed
:10526000850107000004eb00ece8ab00070032000a
:1052700080478000104090009a010700804780001e
:1052800010407800970107000700370008007800f9
:10529000f008b50030409000920107000804e800d3
:1052a000e40f5400f9ff3a00f0642d00720107008a
:1052b000f448e200090032000044eb000880fb00e3
:1052c0009147800060c07800780107000844e8003a
:1052d000f4c8bf000044e100f8ff3900c4c2bf00b9
:1052e0004600de00610060000004a2004600dd0010
:1052f000412c2000914078000164a10080c0700022
:105300008000fd00c4e2b7008000fd00610d0700d1
:105310008944e800894078000a4078000bff0700c4
:10532000bbff370035ff0700e14f5000030032009c
:10533000e24f5000b6ff3a0025003700b0c0b3007e
:1053400067e8b7000b80fb00620020001100090035
:105350000280d8000104e00007003a000d00780048
:105360003fe8b700a0c0b30040e8b7000d007800e8
:1053700067e8b7000e0037000180fb007500b90038
:1053800092222d00820040000001eb0043832000a8
:105390006b4041000080fb0031f079000201e80021
:1053a000f50f5100faff3a0000c2b30067e8b700fa
:1053b0008b45e8000000eb00390d07000a45e800c6
:1053c000894078000a407800e0fe070090ff37002f
:1053d000b0c0b30067e8b7000c80fb00620020009b
:1053e000110009000280d8000104e00007003a0023
:1053f0000d0078003fe8b700a0c0b30040e8b70058
:105400000d00780067e8b7000e0037000180fb0050
:105410006b00b900c2292d00820040000001eb00a2
:10542000438320006b4041000080fb0031f0790095
:105430000201e800eb0f5100faff3a0060c1b3002f
:1054400067e8b7000c46e800110020000040eb00c0
:10545000440d0700000478000000e00007003a0057
:1054600020652d000401070012002000884078000c
:1054700050662d00c9fe0700010037000a45e8000c
:10548000894078000a407800b0fe070060ff3700ce
:10549000b0562d00f8000700bfcabf001c0107006e
:1054a00030582d00f40007000000eb004f06be004e
:1054b0004f05be004f04be00000006000400fa00c5
:1054c000820220000202b8000289b9008502410070
:1054d000e4bf9f00f5bf9f0040fd2f00f1ff2f00ac
:1054e0006fb99700ffb99700020040008380480021
:1054f000e0bf9f00f1bf9f006fb89700ffb8970013
:10550000e00f5000e08f58000d003c001100370004
:105510006fb89700ffb897006b005000e08058000c
:10552000e0bf9f00f1bf9f006fb89700ffb89700e2
:10553000e00f5000e08f580006003400f4ff370001
:105540006fb89700ffb89700e00f5000e08f580049
:10555000efff3c000080fa00000006000200fa00a5
:10556000889fbe008a1f7800800478000004eb004a
:105570004ac0b300110037008aff9f000ff8970060
:105580000040e90080ff9f000ff89700e14f4000c6
:10559000090032009001200001002000c7ff070031
:1055a0000ff897000040e90080ff9f000ff8970078
:1055b000e14f4000f7ff3a000804e800888f5400ec
:1055c000edff3a004f0578004f04be000080fa005e
:1055d00000000600800220008008880011e1a80079
:1055e0000000060032088000530880000288be00d8
:1055f00000000600889fbe008a9fbe0080057800dc
:10560000010478008204780097c0bf004500de00e6
:105610006145600097a0a900d782a90030c0b300ff
:10562000e80107004840de00e60107000840780076
:10563000e40107000900e000060032000b047800d6
:1056400089844500e7010700005c7800890f540059
:10565000fcff3a00d782a800e1406500c508dd00e4
:1056600097c0bf000054a1000140700097e0b70050
:105670004f05be004f04be0000000600889fbe001c
:105680008a9fbe008c9fbe0000057800010678004e
:105690008205780097c0bf004500de00e14660004b
:1056a00097a0a900d782a90050c0b300c501070088
:1056b000cc01070000447800d782a800ce01070083
:1056c0000808a300f7ff3a00d782a90060c0b30022
:1056d000bc010700d782a800c7010700d782a90034
:1056e00020c0b300b70107004860de00b501070025
:1056f0000c407800b30107000b00e00011003200fd
:105700000a04be0038407800ae0107008904e900b1
:105710000a4054000080fb00800046000100780031
:10572000f003b20004003a00d782a8000106780016
:105730000805be00dbff37000b004500880f500056
:10574000f0ff3a00d782a800e1c06600c508dd007e
:1057500097c0bf000054a1000140700097e0b7005f
:105760004f06be004f05be004f04be0000000600fd
:105770000002be0022558000800041008001eb0045
:1057800000002800808f500004003e00820a78004c
:1057900004007800a42ab40013002000030078005d
:1057a00000000600881f7800a42aef0001a920004d
:1057b00020002000eeff07006104600021a9200006
:1057c00010002000eaff07000004640041a9200047
:1057d00010002000e6ff07000004640061a920001b
:1057e00040062000e2ff07000004640081a92000b9
:1057f00040002000deff070000046400a1a9200093
:1058000020002000daff070000046400c1a9200086
:1058100010002000d6ff070000046400e1a920006a
:1058200080002000d2ff07000004640001aa2000cd
:1058300010002000ceff07000004640021aa200011
:1058400010002000caff0700000064004f04780029
:1058500000000600c0002000c011880087c0a90019
:105860003222ef00000820008011880031e2a800f9
:105870003342a80000000600881f7800b04078007e
:10588000000478000104e0000600320001407800c6
:105890000600070038407800804078000004e000ef
:1058a000faff3a004f0478000000060080407800bc
:1058b00033c2bf000008a300fdff32000180fb00df
:1058c000a01188000000060087c0bf000068a30088
:1058d000fdff3200b011800087c0a9000080fb00ee
:1058e00000000600889fbe008084fb004448de0064
:1058f000888b2d0060407c00ecff07006f80640007
:1059000060407c00e9ff07004f04be000000060075
:10591000889fbe000080fb00a200200001047800e8
:10592000110009000280d8000104fd000080fb0086
:10593000898b2d0060c07c00dcff07000884fb0021
:1059400068c07c00d9ff07004f04be0000000600bd
:10595000d802a900d822a900d842a900d862a9007b
:10596000d882a900d8a2a900d8c2a900d8e2a9006b
:10597000c7e2a900d2a2a900d6a2a9004700dd0073
:10598000b22c2000124178000274a1000041710085
:1059900002007800cbe2b70061c16000dcc2bf004a
:1059a0000004a10002407000dce2b7008181fb002e
:1059b0000301d1006141610002414100dcc2bf002e
:1059c0000014a10002407000dce2b7004219de00c2
:1059d000614161004211dd00dcc2bf000024a10072
:1059e00002407000dce2b7004319de006141610053
:1059f0004311dd00dcc2bf000034a1000240700092
:105a0000dce2b7004419de00614161004411dd00b1
:105a1000dcc2bf000044a10002407000dce2b7001d
:105a20004519de00614161004511dd00dcc2bf00a7
:105a30000054a10002407000dce2b700c619de008d
:105a4000e1c16100c619dd00dcc2bf000064a10035
:105a500003407000dce2b7008180fb00c708de0075
:105a6000c708dd00dcc2bf000074a1000140700067
:105a7000dce2b7000000000000000000d682a800b1
:105a80000000000000000000000000000000000016
:105a90000000000000000000000000000000000006
:105aa00000000000d682a900d802a800d822a800d1
:105ab000d842a800d862a800d882a800d8a2a8001e
:105ac000d8c2a800d8e2a800c7e2a800d2a2a800c5
:105ad00000000600881f7800020220008200780083
:105ae000e0a6200009f007000044eb000800780061
:105af0008eeab700d682a900d6a2a900d802a900d2
:105b0000d822a900d842a900d862a900d882a90049
:105b1000d8a2a900d8c2a900d8e2a900d2a2a9009f
:105b2000c7e2a900d282a900800220008bfe0700f4
:105b3000cbe2a900dc02a800dc22a800dc42a9001c
:105b4000dc62a900dc82a900dca2a900dcc2a900f9
:105b5000dce2a9000000000000000000d682a800de
:105b6000100020000100200054fe0700d682a9008a
:105b70002000200079fe07000844e800e34f5400ad
:105b8000f6ff3a0081c3b3000040eb0070ff07004e
:105b9000500020000100200048fe070061c0b30053
:105ba0000040eb006aff07005000200001002000c9
:105bb00042fe0700c1c0b3000040eb0064ff0700d5
:105bc00050002000010020003cfe070011c0b3007f
:105bd0000040eb005eff0700200020005ffe070092
:105be0004f04780000000600889fbe008a1f7800de
:105bf00021c0b3000040eb0055ff0700200020004b
:105c000056fe07008004eb00e8a62000880078001c
:105c10001804e00008003a0009417800e4a62000da
:105c200003c2b3000280fb0003707a000241e80067
:105c3000ef4f5100fbff36009140780010c0b300d9
:105c400043ff070050002000010020001bfe07005a
:105c50008904e8000804e800f08f5400ebff3a00e4
:105c600001ccb3000040eb0039ff070050002000da
:105c70000100200011fe0700e8a720000ac2b300bf
:105c8000880078001804e00008003a000941780014
:105c9000e4a6200003c2b3000280fb0003707a0078
:105ca0000241e800ff4f5100fbff360091407800b1
:105cb00010c0b30026ff07005000200001002000a4
:105cc000fefd07008944e8000804e8008acf54007c
:105cd000ebff3a004f0578004f04be0000000600bd
:105ce00011c0b3000040eb0019ff070020002000a6
:105cf0001afe07000202200082007800e0a62000c1
:105d000082ef07000000060081027800e20f5000d9
:105d10000a003a001b0037000041eb00f0a620000b
:105d20000241e8001004e000050032000000e80035
:105d3000f04f510002003200f9ff37000041eb0044
:105d40008001eb00e4a620008280fb000380fb00c2
:105d50006540780080707a000241e8000280fb0014
:105d60000000e90060407a000004e0000300320017
:105d70008301e800fe4f5100f3ff36009aff070051
:105d8000000006006e4ae200ecff3200e2ff37003e
:105d90008540a900411280000080fb00401288006d
:105da00085c0bf000028a300fdff320000000600f0
:105db0000040eb00f6ff0700401280000080fb006f
:105dc000000006008820a900411380000080fb002d
:105dd0004013880088c0bf000018a300fdff3200f8
:105de000000006000040eb00f6ff070040138000b3
:105df0000080fb000000060000000000000006001c
:105e00000800fa00889fbe008a9fbe008c9fbe00db
:105e1000310880000081fb00110009008280d80059
:105e20008000fd00804578000004e000150032008d
:105e3000004578000080eb0000deb9000a45e9006b
:105e400074805700e7fd07006fb49700ffb4970018
:105e500070805700e3fd07000fb897009fb89700c8
:105e60000800500089805800e2032000820f500093
:105e7000e08f5800f6ff36000cc04500804f5500fb
:105e8000eeff3a004f06be004f05be004f04be00b5
:105e90000080fa00000006001000fa00889fbe0093
:105ea0008a9fbe008c1f78007c0f07000000e00076
:105eb000550432009041800064026000b5043a004d
:105ec00004007800ece8b700034080004219de00cf
:105ed0006101610060478000c1ff2f000100600088
:105ee00002007000e88061000030a1000100700035
:105ef0006047880004407800e3816100e18f510031
:105f000001003a0003407800e1006000c508dd00b0
:105f1000604780000050a100010070000240800036
:105f20008200d1000104b2000060a10001007000f5
:105f3000604788000278a30003003200ece8a80064
:105f4000104080008047880008c8bf00f6e8b7000e
:105f500007c8bf00f5e8b7003248a9000540800037
:105f600063826200e10f5200a7023200e30f520089
:105f7000fc0132000400e00020043a0060802000b0
:105f800091c0b30090cf10001c0436002140800067
:105f9000214090000080fb0003f02f000304640008
:105fa00000047400314090004800dd00f20f200032
:105fb0000204640000047400414090000080fb0073
:105fc0008384640080847400d14390004838dd00ed
:105fd0008284640080847400614090000080fb0033
:105fe0000305650000057500714390004830dd0031
:105ff0000205650000057500014890000080fb0067
:106000008385650080857500914990004818dd0002
:10601000828565008085750004007800ece8b70093
:10602000e8806200604780000030a100010070003d
:10603000604788006300600003003a0009067800aa
:10604000e18f440056003a000b0678005043800070
:10605000808f550003003a0040438000800f5500b8
:10606000e60332002140800011407800e14f5000eb
:106070001e0036008048e9000040eb0067e8b700ea
:106080000648e2000f00320080417800468320007d
:1060900025408000648020001442780067c8bf005b
:1060a0000081fb008380fb00e1c07a0001717b006e
:1060b0000040e80067e8b7008341e800041ce10005
:1060c000f6ff390000c8bf0044e9b70040c1b30083
:1060d0004bff070073862000934178004283200025
:1060e000204a8000314a80005c0e0700204080007a
:1060f000ea014000b1942000b29620001104e000b3
:106100000600320063805000900f560003003a00f2
:1061100071f89700934f5000b8033200e8804000b8
:10612000810f5100f5ff3a000000eb00b194200010
:106130001104e000050032000000e800e8804000a3
:10614000e40f500013003200f9ff37000084fb0019
:106150004344dd00899420000cb47c000880e800f2
:106160000900400021408000a148900001487800cb
:1061700031c0b300114098007a80570019fd070024
:10618000090444003fb19700cfb197002204980062
:1061900033049800ec08a800ec28a9004000370060
:1061a00040438000800f540035013a005043800086
:1061b000808f540032013a0021408000114090004d
:1061c0000028a30036003200accabf0034e8b70094
:1061d00020c0b30035e8b7000a00780036e8b70001
:1061e0000600780037e8b7000b00780038e8b70001
:1061f0000300780039e8b70068c8bf003ae8b70084
:1062000069c8bf003be8b7006ac8bf003ce8b700f8
:106210006bc8bf003de8b700214890003ee8b700da
:106220003f68ef0000c3b30040e8b700d0c0b30040
:1062300067e8b700b186200091407800011ce100ba
:10624000040032000001eb000a00be00d603070084
:10625000120037004469ef0044a9a8009b4388005e
:106260005a4988000e070700e14f40000500320040
:10627000a2c0b3000440bc00c0882000000141005f
:10628000324a8800738620009341780042832000c0
:10629000204a8000314a8000f00d0700ec48a80039
:1062a00022408000324890000004e000db003a0009
:1062b000c248900000c3b30080cf5000cd00320030
:1062c000f0cf500003003200f1cf50004b033a00f2
:1062d0008c003700a04380006204600019003a007f
:1062e00076805700bffc07005fb19700efb19700c1
:1062f00022448800334488002140800001489000f7
:1063000076e8b7001148900077e8b7008800780079
:106310008387200022408000028040005048900087
:1063200080f079008100e800e48f5000faff3a0025
:106330007428a8007408a900125090007ce8b700e7
:106340002e033700024890006187200091407800ba
:106350000104e10005003a00124890007287200015
:10636000124178000204e100240332007608e200c2
:1063700031003a000001eb0021408000038820003a
:10638000d4862000010041005048900000f17900bf
:1063900000717a000201e800e40f5100f9ff3a00b1
:1063a000014890007ee8b700114890007fe8b700f0
:1063b0007ec8bf0072e8b7007fc8bf0073e8b700af
:1063c0004143800051498800b506070075e8b700d1
:1063d000e14f400015003a00d0c8b3002ce9b700e7
:1063e0007248e20001003d002c09a900fc060700ec
:1063f00075e8b700e14f40000c003200a2c0b300c6
:106400000440bc00808820008201400021408000c0
:106410009150900091499800b15480008100410052
:1064200000004100a200200094fc07007428a8008e
:106430007408a800f1023700206b2d000efd070044
:106440003f68ef0010c1b30040e8b700d0c0b30010
:1064500067e8b7000002eb002340800006882000b8
:106460004583200003004200d048900001727b0069
:1064700072862000124178000280fb0001f07a0051
:106480008240e8000100780067e8b7000402e800f5
:10649000e40f5200f3ff3a00034890007ee8b70093
:1064a000134890007fe8b7000180fb00e4872000dc
:1064b0001442780004f07a000140e8000080fb00fc
:1064c000f68720001643780006f07a00634041000a
:1064d00067e8b7000080fb009351900003f07a005a
:1064e0006440410067e8b7000001eb008000eb006a
:1064f000608720007d0907007428a8007408a800a0
:10650000be0237008000eb00d386200022408000ce
:10651000028040005048900080f079008100e8003f
:10652000e48f5000faff3a00d0c8b3002ce9b7005e
:10653000125090000004e00001003d002c09a90069
:10654000214080001150900072e8b7002150900067
:1065500073e8b700414380005149880050060700a6
:1065600075e8b700e14f400008003200a2c0b30058
:106570000440bc0000892000624078002ce9b7008c
:106580002c49a8002c69a80005003700d0c8b3002a
:106590002ce9b7007248e20001003d002c09a90077
:1065a0008f06070075e8b700e14f40000e0032008b
:1065b000a2c0b3000440bc008088200082014000db
:1065c00021408000b150900091499800b154800062
:1065d0008100410000004100a200200027fc0700cc
:1065e0007408a800010037007408a9007428a900e5
:1065f0008202370022489000d2aa2000124178007f
:106600000204e1007d023a0070498000808f55004d
:106610007a023a003268a9007802370006c8bf0043
:106620006b405000f4e8b700214080006b804000d0
:10663000904788007a47880001489000e14f400069
:1066400006003a0011489000e14f400003003a0074
:10665000134080008347880004003700ece8a8005e
:10666000204080006800400080478800ecc8a800f7
:10667000f448e200610232003248a8005f023700ad
:1066800021408000114078000004e0005b023200ed
:106690008048e9000040eb0067e8b7000648e200e8
:1066a0000f003200804178004683200025408000a2
:1066b000648020001442780067c8bf000081fb009e
:1066c0008380fb00e1c07a0001717b000040e8009c
:1066d00067e8b7008341e800041ce100f6ff3900d9
:1066e000b486200014427800043ce10017003a0010
:1066f0003f48e20015003a0000c3b3004048e30001
:1067000012003a004469ef0044a9a8009c438800a5
:10671000e3050700e14f400038023200a2c0b30099
:106720000440bc00c088200000014100324a8800bb
:10673000738620009341780042832000204a800025
:10674000314a8000c50c07002c023700024080004f
:106750004311de00610161000800be0092020700e3
:10676000260237002240800082489000d0c4b30047
:1067700080cf500021023a00324090008081fb001f
:10678000100020008300dd00224090000004e000a3
:1067900003003a00014078004149b70041e9b700e1
:1067a0002140800010932000a14a9000857178005c
:1067b0003288a800114078002ae9b7001140900003
:1067c0002be9b7002140900072e8b70031409000fb
:1067d00073e8b700b205070080417800e14f400040
:1067e00005003a00cd03070080417800e14f4000ea
:1067f0002b0032000e00370014408000a2c0b3000e
:106800000440bc00c0882000800041000001eb0073
:1068100062407a00914f100005003a000201e80042
:106820008100e800e40f51001d003200f8ff37003e
:106830000382fb0003407800a2c0b3000440bc0008
:10684000818820005349800003b178000280e8006d
:106850009543800005b078006401410001004100cb
:106860008000eb001340800061d879008100e800cf
:10687000e48f5000fcff3a006a20b9000289200032
:10688000020040000048eb001010a0001000a00023
:106890001020a0001030a0001070a0003288a800c6
:1068a0003288ab0006003200728057004dfb0700b3
:1068b0007fb597008fbd97004a4b88005b4b8800df
:1068c0003208ab00cd013200214080001140780039
:1068d0002ae9b700114090002be9b7002140900051
:1068e00072e8b7003140900073e8b7004140900073
:1068f000e14f4000c1013a00d1419000918f20004a
:1069000091407800e3cf5000bc013e000382fb00c1
:106910004420de0063006000e10f5000b7013c003e
:1069200001407800c2c0b3000440bc00a18f200029
:10693000a5aa20009542780005f178006800410082
:1069400001004000568f200016437800064878006a
:106950006a8f20001a4578001a40980066004100ae
:106960005b4980000bb078006a01410001014100e1
:106970000049eb001260a0000400d1006300600039
:10698000c1ff2f0012896000120970000338a300b4
:10699000010032001230a000f9c8bf00c2c0b3002d
:1069a0000440bc0040902000000141001250a000b3
:1069b0008000eb00938f2000934178000340780023
:1069c000c2c0b3000440bc00a58f200084478000f3
:1069d000010041000500400064c3780016409800a3
:1069e0008100e800e48f5000f9ff3a000280420085
:1069f00021408000b1489000314898000340e800f1
:106a0000f9e8b7007d01370021408000114078008f
:106a1000e24f50009400320003003e00e14f50006e
:106a200076013a0005003700e34f500003013200c1
:106a3000e74f500071013a0060013700b0aa200012
:106a40001ac0b300904f15006c013e000000eb002f
:106a5000d286200011408000617178000000e800bb
:106a6000e40f5000fcff3a004005070000447800a6
:106a7000e14f400017003a00ab4ae2005f013a00e4
:106a800070cbb3002ce9b700404380005049880028
:106a90005305070000447800e14f400004003a002d
:106aa000e0ff2f009043880011c0b300560037006c
:106ab000a2c0b3000440bc00b1548000810041007a
:106ac0008088200000004100a2002000ebfa0700af
:106ad00018003700a2c0b3000440bc0068004100a9
:106ae00081882000608078000038a3001100320007
:106af0000280e80060807800904388008040eb00ce
:106b0000410037007268ef000800780073e8b700b2
:106b10000880fb00120020000010dd004149b70092
:106b200041e9b7000155800010942000d3fa070016
:106b30001b0037000840e80072e8b7006bc8bf00d0
:106b400073e8b70041438000514988002094200039
:106b500022c0b300904f110011003a002040800085
:106b6000104090000068a3000d003200994380009f
:106b70007268ef0018c0b3000004fd0073e8b700ae
:106b80000004fd00c6040700e14f4000ddff3200b5
:106b90000844e800e84f5400f7ff3a0099438800a2
:106ba000f0cbb3002ce9b7002040800010409000eb
:106bb0000008a30002003a002c09a90072e8a8000e
:106bc0000705070000447800a2c0b3000440bc00e1
:106bd00082017800e8004100808820008080400029
:106be0001140a00022408000224190009240980075
:106bf000b15480008180410000804100a20020004b
:106c00009efa07008040eb0020c0b30034e8b700d4
:106c100072c8bf0035e8b70073c8bf0036e8b700d8
:106c20000100780037e8b700becabf0038e8b700f7
:106c300050c0b30067e8b7000881fb004210dd00d8
:106c4000a1802000010040000008eb003010780017
:106c50006a11b900c08820000000410011c0b300d3
:106c600092020700e5003700314090000004e00088
:106c70005e003a00114090006ae8b70020408000b2
:106c8000204090006be8b7006a48e2000f003a002d
:106c9000906c2d00f8fa070010c0b30042e9b7006d
:106ca000f828a800f848a900b18620009140780093
:106cb000e7806000100020000100dd000040e800d7
:106cc0004149b70041e9b70005003700e06d2d00ec
:106cd000e9fa07004269ef00f828a900f848a9007e
:106ce00011558000120020002094200063fa070054
:106cf00081862000a0862000b30a07003228a80061
:106d0000f0cbb3002ce9b7000000eb00d2862000e6
:106d100011408000617178000000e800e40f50002d
:106d2000fcff3a006a48e20002003a007228ef00d5
:106d3000030037006bc8bf0073e8b7007268ef004c
:106d40004143800051498800a50407006ce8b70062
:106d50000081fb004210dd00a18020000100400006
:106d60000008eb00301078006a10b9008888200015
:106d700080004400204080004040900090489800ef
:106d80008154800022002000808620003bfa07000a
:106d9000d154800022002000a086200037fa07008e
:106da000e154800012002000c086200033fa070062
:106db0006cc8bf00a2c0b3000440bc00b154800046
:106dc0008100410008004100a20020002bfa0700ca
:106dd00001558000120020001094200027fa0700bf
:106de000306f2d00a4fa0700840037006ce8ef0034
:106df0000080eb004043880090438800818620009b
:106e000020872000700a0700e15480001200200053
:106e1000c086200019fa070081548000220020005b
:106e20008086200015fa0700d1548000220020003f
:106e3000a086200011fa0700700037000000eb0068
:106e4000d286200011408000617178000000e800c7
:106e5000e40f5000fcff3a00440407008040780033
:106e6000e14f400065003200a2c0b3000440bc0006
:106e700068004100848820008401400013007800ed
:106e80000058a3005d003200c586200095427800be
:106e9000050ce100070032008049eb00b15480008e
:106ea0008100410004004100a2002000f3f9070026
:106eb000520037008004eb00088920008a882000f7
:106ec0008045eb001cc0b3006a48b9008000780020
:106ed0006800400060007d000078a30019003200c7
:106ee0000058a30017003200094078006c48e30006
:106ef0001400320030c0b30034e8b7000c00780052
:106f000067e8b7000b00780044e9b70044a9a8007f
:106f10004409a80044e9a800648040000a00400039
:106f2000304a88008c41780042832000204a80004b
:106f3000314a8000c90a0700f0ff20000000e90084
:106f4000feff3a00004ceb008904e8006a044400ac
:106f5000ea8f5400dcff3a006ce8ef000080eb00a1
:106f6000504388004043880081862000a08620008e
:106f7000150a07003228a900e15480001200200001
:106f8000c0862000bdf90700d154800022002000f7
:106f9000a0862000b9f9070081548000220020005b
:106fa00080862000b5f90700b15480004206200019
:106fb00080882000b1f9070010003700b0aa200037
:106fc00022c0b300904f11000c003e003228ab00ed
:106fd0000a00320011409000a3aa200093417800db
:106fe0000304e10005003a004249e20003003200d8
:106ff00040c1b30082fb0700be0307003248ab006c
:1070000001003a00dd0b07006e80570075f907009c
:107010001fbc9700afbc97003288ab001500320050
:10702000404b8000514b80000000540081805c0088
:1070300044422f00840f5000e08f58000d003600ae
:107040003288a90001558000120020001094200011
:107050008af90700f154800082002000109320007c
:1070600086f90700b1548000420620008088200085
:1070700082f907000802be00b294200046422f00a9
:10708000070020000044eb00b39620001204e0004b
:10709000070032000200e80030055200a0855a00c7
:1070a000860f5500878f5d00010036000849780083
:1070b00068014100828f5100f4ff3a00a043800034
:1070c0000018a300330032000008a300270032009c
:1070d00050712d00e8f907003f68ef0010c1b300c0
:1070e00040e8b700d0c0b30067e8b700828720004f
:1070f00044832000c68720008040780081427800c9
:107100000180fb0032707a008140e800860f510058
:10711000faff3a000180fb006b8720009b45780056
:107120000b707a000140e8000080fb0071872000ae
:107130009140780001707a0063c042000080fb003b
:10714000c28720001241780002707a0064c04200b9
:1071500067e8b7000001eb008000eb00e08720004b
:10716000620607007428a9000a0037002044800046
:10717000314480000000520081805a00c2c62d00b8
:1071800023002000820f5000838f5800010036003a
:107190007428a9004f0678004f05be004f04be00ba
:1071a0000080fa0000000600889fbe008a9fbe0093
:1071b0008c9fbe0081017800820578004808de00bf
:1071c000674560006bc8bf000054e1001b003a0037
:1071d00000c8b30080cf50002f013e004469ef008b
:1071e00044a9a800e1006100c308dd00204a800036
:1071f0000030a10001007000204a880093438800fd
:1072000027030700e14f400023013200a2c0b30072
:107210000440bc00c088200000014100324a8800c0
:10722000738620009341780042832000204a80002a
:10723000314a8000090a0700180137001494200021
:10724000144278008a84fb00120020000914dd003b
:107250000480fb00080060004240a90041003400a7
:107260009393200069c07900e24f5000110036006e
:107270008040eb0081f4790008c0ea00044060001f
:1072800041e9b7001893200081747c00015580000b
:1072900010942000f9f80700f154800082002000cb
:1072a00008007800f5f80700120307000000eb0063
:1072b000fa0037000041eb000200780044e9b70013
:1072c00044a9a800e1806500c308dd00204a8000d1
:1072d0000030a10001007000204a88000001fd007c
:1072e00072e8b7000001fd000005fd0073e8b7007b
:1072f0000005fd00ea020700e14f400019003200de
:10730000a2c0b3000440bc00c088200000014100be
:10731000324a88007386200093417800428320001f
:10732000204a8000314a8000cc0907000001780023
:107330000000e00006003a009193200069c0780048
:107340000040e80080f4780002007800d3003700a5
:107350008040eb00909320008174780010002000a2
:10736000ce0037008000eb00199320008046eb0030
:107370001c0020000c8065004302dd0061c07c0021
:107380000080fb00000064004240a900410034007e
:107390009393200061c07900e24f50001a0036003c
:1073a0008df079000160dd0000c0ea004169b6009f
:1073b0008df07c00015580000c01780010942000b5
:1073c000aef80700f1548000820020000900780028
:1073d000aaf807004249e200a6003a0070c0b300d4
:1073e00034e8b700aacabf0035e8b70020c0b30030
:1073f00067e8b7008c4078000000eb00ab000700a6
:107400000000eb00a50037000d00780044e9b7004c
:1074100044a9a800204a80000030a10004007000a8
:10742000204a88008006fd0072e8b7008006fd0053
:107430008000fd0073e8b7008000fd00980207009f
:10744000e14f4000160032000084fb00a2c0b300f0
:107450000440bc00c088200000014100324a88007e
:10746000738620009341780042832000204a8000e8
:10747000314a800079090700000178000000e0002f
:107480007f003200909320000d74780010002000df
:10749000820037008100e800e88f5000b7ff3a0013
:1074a0002294200012417800e24f51005000320037
:1074b0004469ef0044a9a800e1806500c308dd002d
:1074c000204a80000030a10001007000204a88009e
:1074d000e14f51000b003a006cc8bf00a2c0b300de
:1074e0000440bc00c088200080004100d0862000fd
:1074f0001287200031587800800f51002900320097
:10750000fcff370013942000934178008000eb00cb
:10751000140020000304e000020032000120dd001e
:1075200005003a008100e800e88f5000f9ff3a00ba
:107530007228ef00040037008000fd0073e8b700f8
:107540008000fd007268ef0055020700e94f50000f
:107550000a003e00a2c0b3000440bc00c088200066
:1075600000004100d186200012872000b05878002a
:10757000828f50000b003200fcff37006cc8bf0048
:10758000a2c0b3000440bc00c088200080004100bd
:10759000d08620001287200031587800820f5000da
:1075a000fdff3a006cc8bf00a2c0b3000440bc009d
:1075b000c088200000014100324a88007386200004
:1075c0009341780042832000204a8000314a8000a5
:1075d000220907000000e00002003a003969ec00cf
:1075e0002e0037003969ef00100020002b00370013
:1075f0000041eb000200780044e9b70044a9a8006c
:10760000e1806500c308dd00204a80000030a10051
:1076100001007000204a88000a00780073e8b70073
:107620000200780072e8b7006cc8bf00a2c0b300c7
:107630000440bc00c088200000014100324a88009c
:10764000738620009341780042832000204a800006
:10765000314a8000010907000000e00002003a0002
:107660003969ec000d0037003969ef001000200087
:107670000a0037001f0207000000eb000700370078
:107680009193200068c078000040e80000f4780082
:1076900002007800010037000000eb004f06be003a
:1076a0004f05be004f04be000000060080017800b8
:1076b0004469ef00e3806000204a8000c2ff2f0091
:1076c0000200600001007000204a88000300e00012
:1076d00001003a004449a800204a8000c200de00b0
:1076e0000100a200e1806000c508dd000050a1009b
:1076f00001007000204a880044e9a800334a88004d
:10770000738620009341780042832000204a800045
:10771000314a8000d1080700000006000000eb009d
:1077200083882000000178006a00b90068004000ea
:10773000608079000078a300040032000200e800b5
:10774000ea0f5000f7ff3a00f20f20000200780025
:1077500000000600889fbe008a9fbe008c1f780034
:1077600080447800e14f400018003a0030732d004b
:1077700041f8070098aa20005aaa20002840780063
:1077800058f80700880f5500fcff3a0030742d00b0
:1077900039f807006bc8bf0052f807006ac8bf007d
:1077a00050f8070020752d0033f8070069c8bf00a6
:1077b0004cf8070068c8bf004af80700c0752d00e4
:1077c0002df80700aacabf0051f8070080762d00e7
:1077d00029f80700e1cf44007d003a000005eb00e6
:1077e0001b8920008c8820008a0478006a50b90028
:1077f000680040000c044000180078000078a300e6
:107800006e0032000a40780036f8070000c2b3006c
:1078100026f8070000c2b30024f8070000c2b30036
:1078200022f8070000c2b30020f8070000c2b3002e
:107830001ef807001844780061406400e14f5000d2
:1078400003003a0090c5b30018f8070002003700a3
:10785000e0c4b30015f8070000c2b30013f8070036
:1078600000c2b30011f807006a48b9006800400080
:1078700060007e000018a3000300320090c5b30032
:107880000af8070002003700e0c4b30007f8070059
:1078900000c2b30005f8070000c2b30003f80700f8
:1078a0006a48b9006800400060007e000038a3000c
:1078b0000f0032000bf897000af807007bf09700e2
:1078c00008f8070000c2b300f8f7070000c2b300d1
:1078d000f6f707002bf8970002f807001bf897004f
:1078e00000f8070000c2b300f0f7070016003700e9
:1078f000f0c3b300edf70700f0c3b300ebf70700e8
:10790000f0c3b300e9f70700f0c3b300e7f70700df
:1079100000c2b300e5f7070000c2b300e3f70700b9
:10792000f0c3b300e1f70700f0c3b300dff70700cf
:10793000f0c3b300ddf70700f0c3b300dbf70700c7
:1079400000c2b300d9f707006a48b9008000780088
:107950006800400082882000600079000028a300b1
:107960000800320067804000820440000044eb00c1
:1079700029407800dbf707000844e800e44f540092
:10798000fbff3a0000c2b300c8f707000044eb0059
:10799000007b2d00b8f707000844e800e44f5400ce
:1079a000fbff3a001b407800cef70700d0c0b300c1
:1079b000bef70700a0c0b300bcf707000a05e80047
:1079c000ea854500ea0f55008000320086ff370047
:1079d0000985fb0009407800a2c0b3000440bc0048
:1079e0000089200000044100180078000078a300fe
:1079f0007600320009407800baf7070000c2b300f1
:107a0000aaf7070000c2b300a8f7070000c2b3003e
:107a1000a6f7070000c2b300a4f7070000c2b30036
:107a2000a2f707001844780061406400e14f50005d
:107a300003003a0090c5b3009cf70700020037002e
:107a4000e0c4b30099f7070000c2b30097f707003e
:107a500000c2b30095f707006a50b9000289200000
:107a6000600079000018a3000300320090c5b30045
:107a70008ef7070002003700e0c4b3008bf7070061
:107a800000c2b30089f7070000c2b30087f7070000
:107a90006a50b9000004780068004000898820001e
:107aa00060807c000038a300120032000800e8006b
:107ab00060c07c008bf7070068c07c0089f7070076
:107ac00000c2b30079f7070000c2b30077f70700e0
:107ad0006300440060c07c0082f707000880e80073
:107ae00060c07c007ff7070000c2b3006ff707009b
:107af00016003700f0c3b3006cf70700f0c3b30003
:107b00006af70700f0c3b30068f70700f0c3b300db
:107b100066f7070000c2b30064f7070000c2b300b5
:107b200062f70700f0c3b30060f70700f0c3b300cb
:107b30005ef70700f0c3b3005cf70700f0c3b300c3
:107b40005af7070000c2b30058f707006a50b9009f
:107b50008000780068004000828820006000790082
:107b60000028a30008003200678040008204400023
:107b70000044eb00294078005af707000844e80069
:107b8000e44f5400fbff3a0000c2b30047f7070080
:107b90000044eb00007b2d0037f707000844e800a5
:107ba000e44f5400fbff3a006a50b90002892000fc
:107bb00002004000104090004af70700d0c0b30018
:107bc0003af70700a0c0b30038f70700307b2d005c
:107bd00029f7070041c9bf0042f70700a07c2d002c
:107be00025f707000004eb001993200008407800f7
:107bf0003cf7070000c2b3002cf7070000c2b30037
:107c00002af7070000c2b30028f7070000c2b3003c
:107c100026f7070068c07c0032f70700d0c0b30029
:107c200022f70700a0c0b30020f707000804e8000f
:107c3000e80f5400edff3a004f0678004f05be00f4
:107c40004f04be00000006000800fa00881f7800fc
:107c50007408a9002094200021c0b30090cf100028
:107c60006b003a00a04380006204600013003a00f9
:107c70006a8057005bf607003fb89700cfb89700bf
:107c80002044880031448800b84388000800780008
:107c90008287200061aa2000617178000000e8005e
:107ca000e40f5000fcff3a007428a8007408a900f3
:107cb000becabf007ce8b70076003700b54380003d
:107cc0000500e0007300320050438000808f5200b6
:107cd000700032003f68ef0010c1b30040e8b70009
:107ce000d0c0b30067e8b7000041780061aa200067
:107cf00043832000a4aa20000280fb0031f0790019
:107d00000241e800848f5000fbff3a000280fb0034
:107d1000a18620009140780001f079000240e8003f
:107d20000080fb00b18620009140780001f07900ce
:107d300002c0e8000080fb00e1ab20009140780029
:107d400001f079006340410067e8b7000000eb00f4
:107d5000d286200081872000617178000000e80051
:107d6000e40f5000fcff3a00954388004c000700e8
:107d700075e8b700e14f400006003200a2c0b30032
:107d80000440bc0000892000624078002ce9b70064
:107d900005003700c0c8b3002ce9b7007248e20004
:107da000010035002c09a80040438000504988009c
:107db0008b00070075e8b700a2c0b3000440bc0008
:107dc0008888200002014400c1872000914078008b
:107dd000114998000001eb008000eb006087200053
:107de000420307007428a9007408a80075c8bf00e2
:107df000a2c0b3000440bc00b15480008100410027
:107e000008004100a20020001cf6070021003700f6
:107e100066805700f3f507005fb89700efb897004a
:107e200020448800314488000000eb009043880023
:107e30003fe8b70000c1b30040e8b700d0c0b300ce
:107e400067e8b7000041780061aa20004483200061
:107e5000a3aa20000280fb0031707a000241e800f2
:107e6000838f5000fbff3a000280fb00e1ab200053
:107e70009140780001707a000240e80067e8b7009e
:107e80000001eb008000eb002087200017030700b3
:107e90007428a8004f0478000080fa000000060053
:107ea000964380008001eb00a48820008588200094
:107eb000030178006a18b9006800400060807a0009
:107ec0000078a300040032000038a3000200320052
:107ed000940f1300050032008301e8006a0242009b
:107ee000ea8f5100f2ff3a00f20f20000200780002
:107ef000000006008040eb0068c8bf0034e8b7000f
:107f000069c8bf0035e8b7006ac8bf0036e8b700e7
:107f10006bc8bf0037e8b70038e8ef00f8c8bf000b
:107f200039e8b7008000fd003ae8b7003be8b70049
:107f30008000fd00d0c4b3003ce8b7006c405000a6
:107f40003de8b70041c9bf003ee8b700becabf0068
:107f50003fe8b700c0c0b30067e8b70031c0b30066
:107f60000000eb00d1fd0700000006008001eb00df
:107f700084882000030178006a18b9008000780026
:107f80006800400060007a000078a3000e00320014
:107f90000028a3000c003200648040000400400070
:107fa000d18620001587200010437800914f5300a0
:107fb00005003a000000e8008100e800858f5000cd
:107fc00005003200f8ff37008301e800ea8f510016
:107fd000e8ff3a00f20f20000200780000000600df
:107fe0002cc9bf000028a30003003200dfff0700f8
:107ff00080417800040037000038a30004003200fc
:10800000a7ff070080417800e1cf410004003a005b
:10801000c2fd070080417800e14f4000230032009c
:108020008382fb0003407800a2c0b3000440bc0080
:10803000680041008188200001004000c4922000b7
:1080400014427800044878000428a3000700320096
:108050006400410001004000d1862000128720000a
:1080600031587800828f5000fdff3a000438a30099
:10807000050032006a28b9000080e80082882000ec
:1080800091438000013079006a28b900828820007d
:1080900054498000043178004228dd00a18020008e
:1080a000010040000008eb00301078000380fb0066
:1080b0000000060000027800810178000001eb005a
:1080c000e44079006340790080cf50000200320024
:1080d0000000eb00040037000201e800e40f51004b
:1080e000f7ff3a001000200000000600889fbe0045
:1080f0008a9fbe006055b80080047800a9f507008b
:108100006aa8ef0040232100404388000089200036
:108110000041eb00418f2000024878006a004000d7
:10812000808f5000fcff3a000000eb00129320000b
:108130000044eb00919320000870790008f078006b
:108140000000e800e80f5000fbff3a000004fd00cb
:1081500041e9b70042e9b7000004fd003228ef0012
:108160000004fd0074e8b700f8e8b7000004fd0063
:1081700018f507000800780067e8b700a080200025
:108180006011b800218320000298be00808f50004b
:10819000fdff3a000900e0004d00320091548000dc
:1081a00012002000a0aa200012f50700a0aa2000bb
:1081b000f1c1b30090cf100097003e00d154800071
:1081c00022002000a08620000af50700504380000e
:1081d000e10f400090003200815480002200200016
:1081e0008086200003f50700a154800012002000c3
:1081f000b0aa2000fff40700b1aa20009140780047
:10820000e3c06000c408dd00f8c8bf00f2ccb300d2
:108210000240600001407000f8e8b700b1548000ef
:108220004206200080882000f2f40700d15480002c
:1082300022002000a0862000eef40700e154800018
:1082400012002000c0862000eaf40700f1548000ec
:108250008200200010932000e6f407000155800002
:108260001200200010942000e2f407001155800055
:108270001200200020942000def40700b07e2d00c4
:108280007df50700aacabf00a1f50700407f2d00b9
:1082900079f5070069c8bf0092f5070068c8bf00fc
:1082a00090f50700c07f2d0073f507006bc8bf0075
:1082b0008cf507006ac8bf008af507008186200098
:1082c000a0862000400507003228a80024003700bf
:1082d000815480002200200080862000e7f40700ff
:1082e0009154800012002000a0aa2000e3f40700af
:1082f000a154800012002000b0aa2000dff4070083
:10830000b15480004206200080882000dbf4070082
:10831000d154800022002000a0862000d7f407005e
:10832000e154800012002000c0862000d3f4070032
:10833000f15480008200200010932000cff4070049
:10834000015580001200200010942000cbf407009b
:10835000115580001200200020942000c7f407006f
:1083600000f02f00000565000a30a1000a40a100be
:108370000a50a0000a60a1000a10a00061806400f9
:108380004200dd000a20a100000575006baa200054
:108390000a00be003b05070081862000a086200061
:1083a00009050700aacabf001f000700f808a800b7
:1083b000f868a800b1aa200091407800e3c06000ee
:1083c000c408dd00f8c8bf00f2ccb3000240600072
:1083d00001407000f8e8b700f8c8a8002194200018
:1083e00091407800e3c0600081c04000f8c8bf0041
:1083f00092cfb3000240600001407000f8e8b7007f
:108400003008800030e9b70087a0a90097a0a80035
:1084100010002000010037000000eb004f05be00f7
:108420004f04be0000000600881f7800004478005a
:108430008040eb00e60407000000e0000700320087
:1084400008007800aaeab7009154800012002000ca
:10845000a0aa200089f40700100020004f04780033
:1084600000000600e34f50000c003e00abeab700ee
:10847000634160004411dd00f8c8bf00f1ccb300d7
:108480000140600002407000f8e8b700a15480008d
:1084900012002000b0aa200078f4070000000600b7
:1084a000ec874700889fbe008a9fbe008c9fbe005d
:1084b0008e1f7800004278000206be00aacabf00e4
:1084c00080f79f00a18f200080c1eb00a2922000c6
:1084d00083487800ec804000810f5100fcff3a0097
:1084e000f968ef003208a8008005eb000487fb0064
:1084f00010002000010020000b0178000201e900bb
:10850000030033000000400081804800fbff37007b
:108510000c0160000d8060006102b800c020dd0029
:10852000000020006112b800040070008580700017
:10853000e00f5000e08f58002300320070802d00c3
:10854000cdf407000b407800f1f407000b407800f1
:10855000b5ff070070c0b30034e8b700aacabf0077
:1085600035e8b70020c0b30067e8b70011c0b3001a
:108570000000eb004dfc07007880570019f407005d
:108580004fb49700dfb49700c270dd0060672d0024
:1085900000854000ba0007000000e0000100320042
:1085a000bc000700748057000ef407006fb09700fe
:1085b000ffb097000800500089805800ba0f5000a3
:1085c000aa8f5800f3ff36008b05e8000002200058
:1085d000808f5500c6ff3a000ff0970092ff07000a
:1085e0003208a900f9c8bf000080fb004f077800df
:1085f0004f06be004f05be004f04be00cf00b100c5
:10860000000006000800fa00889fbe008a9fbe0096
:10861000e1cf50000e003a008bfd07000400370048
:10862000970007000000e0000100320099000700f9
:10863000a04380000018a300f9ff3a000008a3003f
:108640008900320075c8bf008080fb0087003700ba
:108650000104e00084003a0038c0b3001a00200092
:108660000b002000e14f4000030032000f003700f4
:108670000844e9007c003200aacabf000080fb0069
:108680000a01be000000e9000300330002014100be
:1086900083814900fbff3700a0c0b30080ff0700c3
:1086a0000004e000f2ff32000040eb008084fb0099
:1086b000c2c0b3000440bc00e6004100a08f20000f
:1086c000e100780051498800000141000200e80003
:1086d000d186200012872000b0587800810f510009
:1086e000fdff3a0021fe07006ce8b700e14f4000b3
:1086f00004003a0009fc07006ce8b700e14f4000b5
:10870000590032006cc8bf000083fb00a2c0b30058
:108710000440bc0082027800e80041008488200008
:108720000040eb0080707a006c48b900e601400020
:10873000a28f2000e301790083327a00020040001a
:108740000000e800e48042008480400042c0b300a2
:10875000b05878000241e900fdff3a006a30b900e4
:108760006800400088882000080040001020a00019
:108770006c49b900a58f200002824200344a900063
:10878000144098001010a0001050a0001000a0008d
:1087900062c07a0024ff07006cc8bf00a2c0b3000b
:1087a0000440bc0062017c004243880072a8ef00d4
:1087b00081862000208720000304070011c0b30039
:1087c0000100780034e8b700f8c8bf0035e8b7000a
:1087d000becabf0036e8b70030c0b30067e8b700d4
:1087e0006cc8bf00a2c0b3000440bc0064014100db
:1087f00008004100adfb07007080570079f30700c7
:108800000fbc97009fbc97000e0037001c000700ac
:108810000000e000010032001e0007006c805700dd
:1088200070f307002fb89700bfb8970008005000fa
:108830008980580042422f00820f5000e08f58007c
:1088400009003e006cc8bf008080fb00a2c0b300de
:108850000440bc0000892000620078000048a300aa
:10886000eaff320001003700f10f2000010078001c
:108870004f05be004f04be000080fa000000060055
:1088800085f50700904180004200de006100600035
:10889000000006003248a900b805070000000600e5
:1088a00000027800accabf0034e8b70021c0b300b2
:1088b0000100780035e8b7008386200093417800f6
:1088c0000300780036e8b700928620001241780055
:1088d0000200780037e8b70080c0eb008000fd00a0
:1088e00038e8b70039e8b7008000fd0003007800e1
:1088f0003ae8b700020078003be8b7006ac8bf005a
:108900003ce8b7006bc8bf003de8b700019320000a
:1089100091407800010078003ee8b7008140e8000f
:108920000100780030e9b7004469ef004449a8002d
:10893000610062004300dd00214a80000130a10097
:1089400080807000214a880073862000934178005f
:1089500042832000204a8000314a80003f04070003
:10896000000006000800fa00889fbe00810278001f
:108970008081fb00a2c0b3000440bc00008920003d
:10898000620078008000eb000078a3005300320002
:10899000ae0ae2000c0032003f48e2000a0032005a
:1089a0003268a80030c9bf00adeab7006a18b90044
:1089b0000080e8008288200060007900704988000b
:1089c00061c0b300020037003268a90021c0b300c3
:1089d000accabf0034e8b7000100780035e8b70042
:1089e0006a18b900800078008388200003024000e4
:1089f0001440780036e8b7000101e80062c0790051
:108a000037e8b7000181e800030141001240780017
:108a100038e8b7006380400060c0790039e8b700eb
:108a200068c8bf003ae8b70069c8bf003be8b700b4
:108a30006ac8bf003ce8b7006bc8bf003de8b7009c
:108a400030c9bf003ee8b7000040e80030e9b70099
:108a5000920078001400780005017800d2f9070030
:108a60000000e00003003a003268a90080007800ae
:108a70001a0037003268ab00170032006c805700d4
:108a8000d8f207002fbc9700bfbc97007cff0700ff
:108a90000000e000010032007eff07003268ab00fa
:108aa0000d00320068805700cef207004fb89700e3
:108ab000dfb89700080050008980580042422f001c
:108ac000820f5000e08f5800f0ff36003268a90096
:108ad0008000eb0001003700110020000100780049
:108ae0004f04be000080fa00000006001000fa00eb
:108af000889fbe008a1f7800000478000205780075
:108b0000ae0ae200070032003f48e20005003200f2
:108b10003268a80030c9bf00adeab70069c0b30031
:108b2000020037003268a90029c0b3000100e0004c
:108b30007d0032000000eb00d1862000e870780054
:108b40000000e800e40f5000fcff3a0007fd0700ba
:108b5000e14f400026003a00accabf0034e8b7003d
:108b600020c0b30035e8b70000c0eb0036e8b7001e
:108b700037e8b70038e8b70039e8b70068c8bf0081
:108b80003ae8b70069c8bf003be8b7006ac8bf0051
:108b90003ce8b7006bc8bf003de8b70030c9bf0074
:108ba0003ee8b7000040e80030e9b7004469ef0054
:108bb00044a9a800e1006500c308dd00204a800048
:108bc0000030a10001007000204a8800384a880067
:108bd0003268a90073862000934178004283200008
:108be000204a8000314a80009c030700950037002e
:108bf0008081fb00a2c0b3000440bc0068004100bb
:108c000081882000608078000038a300d2ff320005
:108c1000ae0ae200030032000280e80060807800c3
:108c20007049880040c0b30034e8b70009007800fc
:108c300035e8b7006a18b900800078008388200002
:108c4000030240001440780036e8b7000101e80054
:108c500062c0790037e8b7000181e80003014100f4
:108c60001240780038e8b7006380400060c07900a7
:108c700039e8b70068c8bf003ae8b70069c8bf0064
:108c80003be8b7006ac8bf003ce8b7006bc8bf004c
:108c90003de8b70030c9bf003ee8b7000040e8003b
:108ca00030e9b70092007800140078000a017800db
:108cb0003df907000000e00002003a003268a90018
:108cc000600037003268ab005d00320076805700ec
:108cd00044f207005fb49700efb49700e8fe070086
:108ce0000000e00001003200eafe07003268ab003d
:108cf00053003200728057003af207007fb09700ad
:108d00008fb89700080050008980580042422f0019
:108d1000820f5000e08f5800f0ff36003268a90043
:108d20000000eb004700370040c0b30034e8b70054
:108d30000900780035e8b7008286200012417800eb
:108d40000200780036e8b70093862000934178004f
:108d50000300780037e8b7008800780031407800d9
:108d600038e8b7001140780039e8b7000200780011
:108d70003ae8b700030078003be8b7006ac8bf00d4
:108d80003ce8b7006bc8bf003de8b70030c9bf0082
:108d90003ee8b7000040e80030e9b700184078002e
:108da0002ee9b700114078002fe9b700184078008d
:108db00072e8b7001140780073e8b7009143800073
:108dc000404380000a017800f7f807000000e00047
:108dd00002003a003268a9001a0037003268ab007e
:108de000170032006e805700fef107001fbc97008d
:108df000afbc9700a2fe07000000e00001003200b7
:108e0000a4fe07003268ab000d0032006a805700f4
:108e1000f4f107003fb89700cfb897000800500062
:108e20008980580042422f00820f5000e08f580086
:108e3000f0ff36003268a9000000eb0001003700a7
:108e4000100020004f0578004f04be000080fa009b
:108e5000000006008000eb000004e0001f003a0064
:108e60006a28ef006ce8ef004023210040438800af
:108e700081862000a0862000530207003228a80027
:108e800020c0b30042e9b700f828a900f848a800bc
:108e900010c0b30041e9b700d15480002200200087
:108ea000a0862000f5f107008154800022002000f8
:108eb00080862000f1f1070011558000120020008b
:108ec00020942000edf107000155800012002000e1
:108ed00010942000e9f10700110020000100780043
:108ee00000000600889fbe008a9fbe008c1f78008d
:108ef00080457800e14f40003f003a008004eb00dd
:108f0000088920008a8820008045eb001cc0b3003f
:108f10006a48b900800078006800400060007d0069
:108f20000078a300160032000058a300140032009d
:108f300030c0b30034e8b7000c00780067e8b70031
:108f40000b00780044e9b70044a9a8004409a80030
:108f500044e9a800648040000a004000304a8800cc
:108f60008c41780042832000204a8000314a8000f2
:108f7000ba020700f0ff20000000e900feff3a00ff
:108f8000004ceb008904e8006a044400ea8f5400b6
:108f9000dfff3a006ce8ef000080eb0050438800f0
:108fa0004043880081862000a0862000060207003a
:108fb0003228a900d154800022002000a086200081
:108fc000aef107008154800022002000808620003e
:108fd000aaf10700e154800012002000c0862000a2
:108fe000a6f10700b15480004206200080882000ce
:108ff000a2f107007b0037008080fb00a2c0b30015
:109000000440bc00680041008488200060007a00b1
:109010000078a300730032000058a30071003200f2
:109020006cc8bf00005ce1004f003a0030c0b300e4
:1090300034e8b70013c0b3000300780067e8b70056
:109040004469ef0044a9a8004409a80044e9a80025
:109050006400410004004000304a88004283200040
:10906000204a8000314a80007c0207000000eb00ab
:10907000f1ff20000000e800810f5000fdff3a00e2
:109080008004eb00088920008a8820006a48b90023
:10909000800078006800400060007d000078a30038
:1090a000130032000058a300110032006cc8bf004a
:1090b000004ce1000e003200648040000a004000d5
:1090c000304a880073862000934178004283200054
:1090d000204a8000314a8000600207000000eb0057
:1090e000f1ff20000000e800810f5000fdff3a0072
:1090f000004ceb008904e8006a044400ea8f540045
:10910000e2ff3a006ce8ef000080eb00504388007b
:109110004043880081862000a0862000aa01070025
:109120003228a900d154800022002000a08620000f
:1091300052f1070081548000220020008086200028
:109140004ef10700e154800012002000c08620008c
:109150004af10700b15480004206200080882000b8
:1091600046f107001f0037000045eb0030c0b30098
:1091700034e8b70013c0b3000300780067e8b70015
:109180000a00780044e9b70044a9a8004409a800ef
:1091900044e9a8006a0cb9006400440089882000f2
:1091a00009004000304a880042832000204a8000a5
:1091b000314a800029020700680444000904440081
:1091c0000a4c78000b407800a2c0b3000440bc00f9
:1091d000b15480008100410009004100a20020003c
:1091e00026f107004f0678004f05be004f04be0071
:1091f00000000600889fbe0080047800810278008d
:109200000004780038027800980178000001eb0033
:1092100077e32900066e2c00c418dd004518de0037
:10922000808068008380400063006100000040008f
:1092300005004000100041008080680001024200eb
:1092400007014100c420dd004520de008080680069
:10925000810042004a10de00660060000500400008
:10926000100041008080680081814100860f51001c
:10927000e9ff3a00840c7800030c78004f04be002c
:1092800000000600889fbe008a9fbe008c9fbe0023
:109290008e1f7800000278000207780083047800af
:1092a0000180fb004200de000046e80020003200a2
:1092b000040578008005eb0068ab20008186fb0088
:1092c0008b4078000000eb00697478000000e80033
:1092d000e30f5000fcff3a0001007800b9eab70044
:1092e0008e00780008007800c2ff07004259dd00b8
:1092f0008a007800880178000d027800a5ab200074
:10930000840f510006003d001143780033406b008c
:10931000805878000201e800858f5100f8ff3a007c
:109320008b05e800640545008b4f5600e4ff3e00c6
:109330004f0778004f06be004f05be004f04be0029
:1093400000000600889fbe008a9fbe008c9fbe0062
:109350000002780001467800820678000304780055
:109360000180fb004200de000040e80080457800fc
:109370008000eb000041eb0082707c008100e8007f
:10938000e48f500016003200fbff37000a0178001e
:109390008000eb000c82fb00c249dd00038040002e
:1093a000800f520006003400088040009042780090
:1093b00032c86a008100e800e48f5000f7ff3a00ed
:1093c0008d007800080078008aff07008904e80013
:1093d0006405450089cf550006003600ebff3700d5
:1093e0000004e00003003200040578008004eb0074
:1093f000e6ff37004f06be004f05be004f04be001b
:1094000000000600889fbe008a9fbe00800478008e
:1094100001447800024578008305780082c040004e
:1094200063ab20000b017800c6ff07000880fb003b
:109430008a80fb00010040008080440060ab200077
:10944000a2ab2000b0587800820f5000fdff3a0018
:109450000000eb008040eb00804f5400010036001c
:10946000e0c07c0063ab200001f079000000e80060
:10947000e30f5000f7ff3a00e44045000880fb008e
:10948000008044000b0178007eff07004f05be00fe
:109490004f04be0000000600889fbe008a9fbe00e9
:1094a0008c9fbe00800578008144780002467800d9
:1094b000830678000000eb008040eb0080cf540072
:1094c00001003600e0c07d006aab200001707d0025
:1094d0000000e800e30f5000f7ff3a000984fb00aa
:1094e0000b0044008a0178000d0178008c40780060
:1094f00064ff07008cc0440081c0e9008a01780045
:109500000d0178000b0078008eff07000c80fb0037
:10951000080040000b0040000080e9008a0078004d
:1095200082ab20009141780090cf510002003200c0
:109530000000eb00050037008100e8000000e800b3
:10954000828f5000f7ff3a00100020004f06be0047
:109550004f05be004f04be000000060000c2b3006d
:10956000180007006f0060007900b9007900400022
:1095700000000600889fbe00800478007809200063
:10958000184478004544de006104640097a0a900f7
:10959000ca22a9004800de00fdf10700094078005a
:1095a000fbf10700ca22a8004544dd0097c0bf00b8
:1095b0000054a1000840700097e0b7004f04be00bf
:1095c00000000600881f7800780920001844780001
:1095d0004544de006104640097a0a900ca22a900e6
:1095e0000064a000eaf10700f1f10700ca22a80018
:1095f0004544dd0071092000914078000154a1002c
:1096000088c070008000fd0097e0b7008000fd007a
:109610000080fb004f04780000000600881f7800df
:1096200078092000184478004544de006104640095
:1096300097a0a900ca42a900d5f10700ca42a80014
:109640004544dd0097c0bf000054a10008407000f1
:1096500097e0b7004f04780000000600ea87470053
:10966000889fbe008a9fbe008c9fbe008e1f780020
:1096700080457800810678003cc0b3004600370082
:109680000047eb000000eb00e05588000d00e00013
:109690000c0032000044780019c4b30080c2b3004b
:1096a000c8ff07000080fb000000d100894f500078
:1096b000040036000844e800e64f54003900320048
:1096c000f6ff370000c2b300b900070090ac2100dc
:1096d000a8ff07000b407800d0ff07000b04e00054
:1096e000090032008044eb000004eb00eaa22000f5
:1096f00068407d00c9ff07008944e8000804e800cd
:1097000089cf5500faff3a0000c8b300a80007004f
:10971000ba0ae20003003a0087c0bf000058a30065
:10972000fbff3200ba2aef0000c2b300a00007001e
:1097300000c6b3009e0007002ecabf000058a30059
:109740001a0032002fcabf00f4e9b7007680570034
:10975000a4ef07005fb49700efb49700bc0ae200e3
:1097600012003a00728057009eef07007fb097000a
:109770008fb89700080050008980580052c320001d
:10978000820f5000e08f5800f4ff36000e47e800cb
:10979000e54f5700bbff3a000c46e900e14f460099
:1097a000b7ff3a000000eb00010037001000200076
:1097b0004f0778004f06be004f05be004f04be00a5
:1097c000af00b100000006000000eb000000060042
:1097d000881f7800004478000000eb00ff4f540021
:1097e0001b003e0040c6200062ff07000884fb000b
:1097f00080812d00684078000080fb0001e020009f
:10980000010070005bff070080832d006840780036
:109810000080fb0000c0a00056ff070000c2b3009c
:10982000630007006005200052ff070000c4b3007a
:109830005f000700f0c021004eff070000c2b30028
:109840005b00070000c6b3005900070010002000ad
:109850004f047800000006008000eb00e74f500046
:1098600006003e000080fb0000004000014f230086
:10987000010070003fff0700110020000100780088
:1098800000000600889fbe000004be00804f8800d4
:10989000914f88004001200030ef0700ca22a80045
:1098a000ca42a80030088000f5e9b700f6e9ef00e9
:1098b0000001eb0025042000c49620008041eb004d
:1098c0000590b90003707a000201e800e20f510030
:1098d000fbff3a006400640011003200c1548000b4
:1098e0004200200020a2200042ef0700004020009c
:1098f000010020001251800023518000020140002d
:10990000838148001251880023518800c15480008f
:109910004200200020a2200058ef07000900370075
:10992000222aef00242aef00c154800042002000c8
:1099300020a2200051ef07001300200013518800df
:10994000242aef000000eb0062a22000818c2d0091
:10995000617178000000e800e80f5000fcff3a0059
:1099600088852d0089892d003800780001ff0700c7
:10997000888f5400fcff3a0000c2b3000c000700bf
:1099800060052000fbfe070000c4b30008000700cc
:10999000f0c02100f7fe070000c6b3000400070076
:1099a00097a0a800100020004f04be000000060091
:1099b000881f78000044780000c4b300804f540032
:1099c0001700320006003e000804e0001e003200ce
:1099d00000c2b300804f54001e003a00150037004b
:1099e00000c6b300804f54000800320000c8b30026
:1099f000804f540017003a0060092000ddfe070088
:109a000008007800f7e9b70012003700600720006f
:109a1000d8fe070000c6b300f7e9b7000d00370015
:109a200060052000d3fe070000c4b300f7e9b700cb
:109a30000800370060032000cefe070000c2b3001c
:109a4000f7e9b7000300370060012000c9fe0700f6
:109a5000f769ef004f04780000000600889fbe0001
:109a60008a1f78000002be00020578008344780057
:109a70008000eb0080c2b30080cf510083003e0025
:109a80004220de000000a200610060004600dd0010
:109a90000460a1000002720063006200e10f500048
:109aa00001003a000470a000040078002eeab7001c
:109ab000f5c9bf002feab7000040e800f5e9b7009c
:109ac000840378000468a3005c003a000e003700ad
:109ad0000440780084c0e8008180fb008481fb00a2
:109ae000e2a22000e3c17a00837079000402e8005a
:109af0000040e8000080fb00860f5000f4ff3500b6
:109b000004c4e8000100370028c0b3000778a300b0
:109b100051003a000a0037000881fb008380fb00f7
:109b2000e0a22000e1c07a00017178000844e8005a
:109b30008341e8000380fb00840f5000f6ff3500ee
:109b40000738a3004c00320021a22000e3a220002d
:109b500062a220000880fb0031f079000844e80090
:109b6000828f5000fbff3a0010518000215180008d
:109b700061004000e08048001051880021518800b9
:109b8000224ae20007003a0023cabf0063006000d7
:109b900004003a00c15480004200200020a22000ae
:109ba000b6ee07000881fb008040eb00e0a2200039
:109bb000017178008840e8000904e00002003a00e2
:109bc000014478000a0037000a0178000144780057
:109bd0008041eb00e4a220000880fb0032707a0094
:109be0000844e8008341e80083cf5400faff3a00bc
:109bf00063a2200009417800e0a2200001fe0700d6
:109c000008c4e800070037008880fb00e0a22000bd
:109c1000b27078000844e8008341e80083cf540024
:109c2000f9ff3a00f009d500e10060000840780033
:109c30008afe07008000780014003700804f800003
:109c40004300de006f0360000002eb004240a90009
:109c50009fff3c00acff3700804f80004300de00d8
:109c60006f0260004240a900b5ff3400954f8000ac
:109c70008041eb00a8ff37000904e000e9ff320053
:109c80000a0178008041eb00dfff37000100780017
:109c90004f0578004f04be0000000600ee87470025
:109ca000889fbe008a9fbe008c9fbe008e1f7800da
:109cb000a89f200029a220007680570049ee0700c7
:109cc0005fb19700efb197001800e0000c00320080
:109cd00028009000b8009000800f5100818f59003b
:109ce00007003600000051008180590042422f00d9
:109cf000820f5000e08f580001003600000ceb008e
:109d000068044400888f5400ebff3a00609f2000f5
:109d100080c1eb0090cf110091003a000001eb00f0
:109d20002a042000cb962000dd9620000246780011
:109d3000020478000a90b900800078000b0040000f
:109d400010407800614060008200320061c07e00f7
:109d500000e8b700000420000100400060c07e0061
:109d600006e8b700014080002ec0b3000168a300e0
:109d700004003200804f80004300de006f4060002e
:109d800000c7e8000178a3000b0032000ac0b90048
:109d9000008045000000e8000e81fb00020040004a
:109da00010408800804f80004300de006f4060005c
:109db00000474700010037000228ef000140800003
:109dc0000138a300550032000e81fb0082bf9f00c6
:109dd000640041000ac1b9000000410060c07e007b
:109de0000004e000040032000040eb0000f17d00c0
:109df0000000eb005b0037000178a3003300320065
:109e00008004eb00e9ef9f006a48b9000001780088
:109e1000680040008488200060007a000078a30079
:109e20000600320011408000640041000400400040
:109e3000a0f807000000e00004003a008904e800f0
:109e4000ea8f540021003200eeff37000001eb00e2
:109e50002004200000c0b90080027800d1962000c4
:109e60008fb997000280410000804200e0c1780075
:109e70007a825700037279000201e800e40f510072
:109e8000f7ff3a006fe897000082fb003fb19700b0
:109e9000cfb197004220dd00a180200001004000ea
:109ea000b00f1100a08f1900040036000040eb0035
:109eb00080f27d000000eb002a0037004220dd0028
:109ec000a1802000010040000288be0065474700d5
:109ed0000ac0b900020420000001410062c17e00f6
:109ee0008b0440000900e8000e41510063a22000ed
:109ef0008e40780068fd07000000e00002003a0094
:109f0000804c7800170037000e4078000648b500f6
:109f100000c0e90006e8b700020037000e407800f4
:109f20000668b5000ac0b900008045000000e800de
:109f30000e81fb000200400020408800f9c9bf00ec
:109f400007e8b7000c007800f6e9b7001000200021
:109f5000040037000201e800e20f510073ff3a00ed
:109f60000000eb004f0778004f06be004f05be0013
:109f70004f04be00ef00b10000000600f6c9bf00ac
:109f8000e14f500007003e000080fb00220420004b
:109f90000280b900c39620000041eb008271780076
:109fa000f6e9ef000000060000a0fe003600f80011
:109fb000849fbe00869fbe003400f800040020008d
:109fc000a401880086c0bf000048a300040032003e
:109fd00096c0bf000048a300010032008680a9009f
:109fe00000c6b300f749e30005003a0080c2b300a1
:109ff00074fd07000080fb000000d100f8e9b70005
:10a000003400f9004f03be004f02be003600f900d5
:10a010000080fe000040060000a0fe003600f800b0
:10a02000849fbe00869fbe00889fbe008a9fbe00a0
:10a030008c9fbe008e1f78003400f80004002000c2
:10a04000a4018800f487470087c0bf000058a30020
:10a05000ff00320097c0bf000058a300fc00320090
:10a0600000c6b300f749e300e3003a00f8c9bf00b7
:10a07000f9e9b700ca42a9004def07008044780013
:10a08000ca42a8000001eb0024042000c39620006f
:10a09000824578000490b9000080410010407800ab
:10a0a00061406000040032008245e8000201e800df
:10a0b000e20f5100f6ff3a00094078000014a200b8
:10a0c0000080fb000000e900cf06de008940e900c7
:10a0d000e0c3b30080cf500004003e00e1cf550044
:10a0e0000e0036000d04e0000c003a00a0c1b300e1
:10a0f00034fd07000018a300c1003200ca42a900c5
:10a100002bef0700ca42a800a0c1b3002dfd070035
:10a110000018a300ba003200f8ff37008980fb0066
:10a12000d1bf9f000904e000b50032000046eb00fb
:10a130000007eb000d04e00008003200ca42a9004d
:10a140001bef07008c80fb00f280500080f07f0046
:10a150000c46e800ca42a8000b003700ca42a9001a
:10a160000b84fb000c85fb0011ef0700210420008d
:10a1700001c1b90002054500d196200000f5780024
:10a180000c46e800ca42a800894f56008c003900ee
:10a190000d04e00016003200efe9970063806100d3
:10a1a000e20f500008003a007fe89700439f20002c
:10a1b000934178000304e10091003a001000200070
:10a1c000e05588008e003700e1cf5500c7ff3e0004
:10a1d0000b80fb00220420000280b900d2962000f0
:10a1e000037079000000e800ffe897000170790033
:10a1f0000b85fb002004200000d0b90003042000e0
:10a2000080814100d29620008971790060407900f8
:10a210000068a30080003a00160037000081e800c3
:10a220002004200000d0b90000014100d096200099
:10a23000e24078000380fb0060c07a00814f50004c
:10a24000080032002004200000d0b9000004b00053
:10a250008041eb00d296200003707900a3ff370005
:10a260008041eb008341e8000380fb00800f520037
:10a27000eaff3c002004200000d0b900d296200064
:10a28000624078000058a3001b0032008001eb0000
:10a29000e0a22000e34078007281570001f17900cc
:10a2a0008301e800e28f5100faff3a0060c0b3007a
:10a2b0002eeab7002004200000d0b9000000e8001a
:10a2c000d2962000604079002feab70087a0a9004d
:10a2d0008000eb0003407800e0fc07000000eb008a
:10a2e000e1a2200072815700e27078000000e800cf
:10a2f000e20f5000fbff3a0080c2eb008004eb004d
:10a30000a39f20002004200000d0b9000003e80033
:10a31000d796200009427800130178000200e0007f
:10a3200004003200e6c07b0023409000814f5000c3
:10a3300028003200e1cf420003003a000200e000b2
:10a3400001003a00844278008904e800e881410075
:10a35000e58f54002d003200eeff37000584fb002e
:10a360004344dd00ab9f20001000200000b47d00be
:10a370002004200000d0b9000000e8008881e80037
:10a38000d29620006040790080f17d006a805700fd
:10a3900094ec07000b0444003fb89700cfb8970037
:10a3a00020049800310498002004200000d0b90057
:10a3b000c2962000000141001204a00010003700e6
:10a3c0000e07e800dfb897008e8f50000c003200b7
:10a3d00058ff37006e80570082ec07004348dd00cd
:10a3e000e19f2000010040001fb99700afb997001e
:10a3f0000288be000200370010002000d0558800ff
:10a4000087a0a9000000000011003700e4cf52002f
:10a41000e5ff3e00d1ff3700804f80004300de00a3
:10a420006f0260004240a90092ff34002004200027
:10a4300000d0b9000080e800d2962000604079008a
:10a44000954f8000954f50007eff3a0084ff370003
:10a450004f01b1003400f9004f0778004f06be00ed
:10a460004f05be004f04be004f03be004f02be00aa
:0ca470003600f9000080fe0000400600ed
:020000040000fa
:020000040002f8
:04aff800fdfa00005e
:020000040000fa
:020000040002f8
:04affc007a3f000098
:020000040000fa
:100008007a5d00007a5d00007a5d00007a5d00008c
:100018007a5d00007a5d00007a5d00007a5d00007c
:100028007a5d00007a5d00007a5d00007a5d00006c
:100038007a5d00007a5d00007a5d00007a5d00005c
:100048007a5d00007a5d00007a5d00007a5d00004c
:100058007a5d00007a5d00007a5d00007a5d00003c
:100068007a5d00007a5d00007a5d00007a5d00002c
:10007800d44f00007a5d00007a5d00007a5d0000d0
:100088007a5d00007a5d00007a5d00007a5d00000c
:100098007a5d00000c5000007a5d00007a5d000077
:1000a8007a5d00007a5d00007a5d00007a5d0000ec
:1000b8007a5d00007a5d00007a5d00007a5d0000dc
:1000c8007a5d00007a5d00007a5d00007a5d0000cc
:1000d8007a5d00007a5d00007a5d00007a5d0000bc
:1000e8007a5d00007a5d00007a5d00007a5d0000ac
:1000f8007a5d00007a5d00007a5d00007a5d00009c
:100108007a5d00007a5d00007a5d00007a5d00008b
:100118007a5d00007a5d00007a5d00007a5d00007b
:100128007a5d00007a5d00007a5d00007a5d00006b
:100138007a5d00007a5d00007a5d00007a5d00005b
:100148007a5d00007a5d00007a5d00007a5d00004b
:100158007a5d00007a5d00007a5d00007a5d00003b
:100168007a5d00007a5d00007a5d00007a5d00002b
:100178007a5d00007a5d00007a5d00007a5d00001b
:100188007a5d00007a5d00007a5d00007a5d00000b
:100198007a5d00007a5d00007a5d00007a5d0000fb
:1001a8007a5d00007a5d00007a5d00007a5d0000eb
:1001b8007a5d00007a5d00007a5d00007a5d0000db
:1001c8007a5d00007a5d00007a5d00007a5d0000cb
:1001d8007a5d00007a5d00007a5d00007a5d0000bb
:1001e8007a5d00007a5d00007a5d00007a5d0000ab
:0801f8007a5d00007a5d000051
:020000040000fa
:100208007a5d00007a5d00007a5d00007a5d00008a
:100218007a5d00007a5d00007a5d00007a5d00007a
:100228007a5d00007a5d00007a5d00007a5d00006a
:100238007a5d00007a5d00007a5d00007a5d00005a
:100248007a5d00007a5d00007a5d00007a5d00004a
:100258007a5d00007a5d00007a5d00007a5d00003a
:100268007a5d00007a5d00007a5d00007a5d00002a
:10027800d44f00007a5d00007a5d00007a5d0000ce
:100288007a5d00007a5d00007a5d00007a5d00000a
:100298007a5d00000c5000007a5d00007a5d000075
:1002a8007a5d00007a5d00007a5d00007a5d0000ea
:1002b8007a5d00007a5d00007a5d00007a5d0000da
:1002c8007a5d00007a5d00007a5d00007a5d0000ca
:1002d8007a5d00007a5d00007a5d00007a5d0000ba
:1002e8007a5d00007a5d00007a5d00007a5d0000aa
:1002f8007a5d00007a5d00007a5d00007a5d00009a
:100308007a5d00007a5d00007a5d00007a5d000089
:100318007a5d00007a5d00007a5d00007a5d000079
:100328007a5d00007a5d00007a5d00007a5d000069
:100338007a5d00007a5d00007a5d00007a5d000059
:100348007a5d00007a5d00007a5d00007a5d000049
:100358007a5d00007a5d00007a5d00007a5d000039
:100368007a5d00007a5d00007a5d00007a5d000029
:100378007a5d00007a5d00007a5d00007a5d000019
:100388007a5d00007a5d00007a5d00007a5d000009
:100398007a5d00007a5d00007a5d00007a5d0000f9
:1003a8007a5d00007a5d00007a5d00007a5d0000e9
:1003b8007a5d00007a5d00007a5d00007a5d0000d9
:1003c8007a5d00007a5d00007a5d00007a5d0000c9
:1003d8007a5d00007a5d00007a5d00007a5d0000b9
:1003e8007a5d00007a5d00007a5d00007a5d0000a9
:0803f8007a5d00007a5d00004f
:020000040000fa
:10a47c0020b200002020000020b2000020200000ac
:10a48c00b2200000b220000020200000202000009c
:10a49c00b2200000b20d00000ab2000020b2000091
:10a4ac0020b2000020b200002020000020b20000ea
:10a4bc0020200000b220000020b20000202000006c
:10a4cc000d0a0000b220000020b200002020000085
:10a4dc00b2200000b2200000b220000020b2000028
:10a4ec0020200000b2200000b20d00000ab20000d3
:10a4fc0020200000b220000020b2000020b200009a
:10a50c0020200000b2200000b2200000b220000089
:10a51c0020b200000d0a0000b220000020b20000a2
:10a52c0020200000b2200000b220000020200000fb
:10a53c00b2200000b220000020200000b20d00006c
:10a54c000ab20000b2b2000020200000b2b200003b
:10a55c00b2b200000d0a0000b220000020b20000d0
:10a56c0020b2000020200000200d00000ab20000e4
:10a57c0020200000b2200000b2b20000b2b20000f5
:10a58c000d0a0000b220000020b2000020b2000032
:10a59c0020200000200d00000ab20000b2b2000022
:10a5ac0020200000b2b20000b2b200000d0a000080
:10a5bc00536900006d7000006c650000204d0000b8
:10a5cc006957000069200000446500006d6f0000b1
:10a5dc00204d000052460000383900005841000060
:10a5ec00204e00006f640000652000003100000068
:10a5fc000d0a0000537400006172000074690000c1
:10a60c006e670000204e00006f64000065200000a3
:10a61c00312000006f66000020530000696d0000bf
:10a62c00706c000065200000446500006d6f000038
:10a63c00206600006f720000204d0000695700007a
:10a64c0069280000544d00002920000053740000bc
:10a65c00616300006b2000002e2e00002e00000015
:10a66c000d0a0000496e0000707500007420000097
:10a67c00436f00006e660000696700007572000091
:10a68c0061740000696f00006e3a0000000d00005c
:10a69c000a200000202000002020000020200000c4
:10a6ac00202000002020000042750000747400007f
:10a6bc006f6e0000203100003a2000005244000070
:10a6cc00360000000d0a00002020000020200000b1
:10a6dc00202000002020000020200000204200004c
:10a6ec0075740000746f00006e200000323a000098
:10a6fc002052000044370000000d00000a4f0000fb
:10a70c00757400007075000074200000436f000029
:10a71c006e660000696700007572000061740000cd
:10a72c00696f00006e3a0000000d00000a20000066
:10a73c00202000002020000020200000202000000d
:10a74c0020200000202000002020000020200000fd
:10a75c002020000020200000525300003233000063
:10a76c0032200000706f000072740000000d0000b9
:10a77c000a200000202000002020000020200000e3
:10a78c00202000002020000020200000204c000091
:10a79c0045440000203100003a2000004431000004
:10a7ac00300000000d0a00002020000020200000d6
:10a7bc00202000002020000020200000202000008d
:10a7cc00202000004c45000044200000323a0000dc
:10a7dc0020440000390000000d0a00002020000079
:10a7ec00202000002052000046200000547200007f
:10a7fc00616e0000736300006569000076650000ff
:10a80c00723a0000204d000052460000383900001a
:10a81c0058410000000d00000a200000202000001c
:10a82c00446500006d6f0000204900006e7300004d
:10a83c007472000075630000746900006f6e000094
:10a84c003a0000000d0a000020200000202000002b
:10a85c0020200000202000002020000020200000ec
:10a86c0020200000202000002020000020200000dc
:10a87c00205000006f77000065720000206f000010
:10a88c006e2000007468000065200000626f0000fc
:10a89c006172000064200000756e00007469000095
:10a8ac006c2000004c4500004420000031200000ca
:10a8bc006c6900006768000074730000207500006c
:10a8cc00700000000d0a0000202000002020000075
:10a8dc00202000002020000020200000202000006c
:10a8ec00202000002020000020200000202000005c
:10a8fc00207400006f200000696e00006469000085
:10a90c006361000074650000206300006f6e00003e
:10a91c006e65000063740000696e00006720000023
:10a92c007769000074680000207000006565000005
:10a93c00722e0000205000007573000068000000ab
:10a94c000d0a000020200000202000002020000024
:10a95c0020200000202000002020000020200000eb
:10a96c0020200000202000002020000020420000b9
:10a97c0075740000746f00006e2000003120000020
:10a98c00746f000020620000726f000061640000b0
:10a99c006361000073740000206d0000657300009b
:10a9ac0073610000676500002e20000050750000e8
:10a9bc00736800002042000075740000746f000082
:10a9cc006e0000000d0a0000202000002020000076
:10a9dc00202000002020000020200000202000006b
:10a9ec00202000002020000020200000202000005b
:10a9fc0020320000207400006f200000756e0000f3
:10aa0c00696300006173000074200000656e000033
:10aa1c00637200007970000074650000642000000f
:10aa2c006d6500007373000061670000652e000007
:10aa3c00204c00004544000020320000207700002c
:10aa4c00696c00006c0000000d0a00002020000062
:10aa5c0020200000202000002020000020200000ea
:10aa6c0020200000202000002020000020200000da
:10aa7c00202000002062000065200000746f0000a0
:10aa8c00676700006c6500006420000075700000b2
:10aa9c006f6e0000207200006563000065690000a5
:10aaac00766900006e670000206d00006573000081
:10aabc007361000067650000732e00002000000029
:10aacc000d0a00000d0a0000000d00000a530000e2
:10aadc00656c000065630000746900006f6e000017
:10aaec00206f00006620000063680000616e0000ab
:10aafc006e6500006c2000000020000069730000ef
:10ab0c00206e00006f740000207300007570000050
:10ab1c00706f000072740000656400002069000012
:10ab2c006e2000006375000072720000656e0000fc
:10ab3c0074200000636f00006e64000069740000f4
:10ab4c00696f00006e2e00000d0a0000004300002b
:10ab5c006f6e00006e65000063740000696e00008b
:10ab6c006720000050650000657200002020000086
:10ab7c006f6e000020430000686100006e6e0000e4
:10ab8c00656c0000202500006420000000200000ff
:10ab9c00436f00006e6e000065630000746500007a
:10abac006420000050650000657200002020000049
:10abbc006f6e000020430000686100006e6e0000a4
:10abcc00656c000020250000640000005244000069
:10abdc00363a000020420000726f000061640000f1
:10abec0063610000737400002020000052440000d8
:10abfc00373a0000205500006e69000063610000c8
:10ac0c00737400000053000065630000757200004f
:10ac1c006564000020000000427200006f610000bb
:10ac2c006463000061730000742000005061000038
:10ac3c00636b0000657400002077000069740000ed
:10ac4c00682000005253000053490000200000000f
:10ac5c00556e0000696300006173000074200000f1
:10ac6c0050610000636b00006574000020770000e9
:10ac7c006974000068200000525300005349000022
:10ac8c002000000020660000726f00006d200000a4
:10ac9c00003a0000200000000d0a0000556e000074
:10acac0069630000617300007420000046610000bd
:10acbc00696c0000656400000d0a000000200000b3
:10accc00556e000069630000617300007420000081
:10acdc0046610000696c0000656400000000000023
:10acec007800000000000000b4000000000000002c
:10acfc002c010000000000001c02000000000000fd
:10ad0c00fc03000000000000bc0700000000000075
:10ad1c003c0f0000000000003c1e00000000000082
:10ad2c003c3c0000000000003c78000000000000eb
:10ad3c003cf00000000000003ce0000001000000be
:10ad4c003cc00000030000003c8000000700000035
:10ad5c003c0000000f000000736500006e640000f2
:10ad6c00696e0000672000006f7500007420000001
:10ad7c0072650000737000006f6e00007365000058
:10ad8c000d0a000000490000206100006d20000049
:10ad9c0061200000636f00006f72000064690000a6
:10adac006e610000746f0000720d00000a0000005c
:10adbc0049200000616d0000206100006e20000041
:10adcc00656e000064200000646500007669000078
:10addc00636500000d0a0000000d00000a4a000027
:10adec006f6900006e200000746800006520000090
:10adfc006e650000747700006f7200006b2000001d
:10ae0c0073750000636300006573000073660000d7
:10ae1c00756c00006c7900000d0a000000730000d6
:10ae2c00656e0000646900006e670000206f000012
:10ae3c007574000020730000656300006f6e0000e5
:10ae4c006420000072650000737000006f6e0000db
:10ae5c00736500000d0a0000000d00000a0d0000d3
:10ae6c000a41000064640000726500007373000006
:10ae7c003a20000030780000002000002053000031
:10ae8c00686f0000727400002041000064640000d0
:10ae9c00723a000020000000202000005041000009
:10aeac004e490000443a0000200000002020000021
:10aebc0043680000616e00006e6500006c3a000093
:10aecc00200000000d0a00004176000061690000be
:10aedc006c610000626c0000652000006e6f000069
:10aeec0064650000730d00000a480000616e0000ec
:10aefc00646c0000652000005258000020440000e3
:10af0c0043200000504100004e4900004420000046
:10af1c004144000044520000204c00004f4e000001
:10af2c00475f000041440000445200002020000014
:10af3c0020200000202000002020000050450000b0
:10af4c00455200005f4900004e4600004f0d0000c6
:10af5c000a00000020200000000d00000a4b000039
:10af6c006e6f0000776e0000204300006f6f0000d2
:10af7c0072640000696e0000617400006f72000062
:10af8c00733a0000200000000d0a0000526f000010
:10af9c0075740000696e00006720000054610000a9
:10afac00626c0000650d00000a6300006f6f00000a
:10afbc0072640000206e0000657800007448000088
:10afcc006f7000000d0a0000004300006861000073
:10afdc006e6e0000656c00003a000000205000000e
:10afec00414e0000494400003a0000005368000044
:10affc006f7200007441000064640000723a00003b
:10b00c00000d00000a530000636100006e20000078
:10b01c0043680000616e00006e6500006c2000004b
:10b02c00000000004f4f00004f4f00004f4f00003a
:10b03c004f4f00004f4f00004f4f00004f4f00008c
:10b04c004f4f00004f4f00004f4f00004f4f00007c
:10b05c005050000050500000505000005050000064
:10b06c005050000022240000262800002a2c00004a
:10b07c002e30000032340000373900003b3d000018
:10b08c003f41000043300000474a00004c4e000096
:10b09c0005070000070900000b0d0000111400004b
:10b0ac00161800003600000084020000090400009d
:10b0bc00090600000c080000c10a00007d0c00000d
:10b0cc00640e0000141000000012000000140000b8
:10b0dc000016000038180000c81a00000d1c0000f3
:10b0ec00001e0000722000003822000038240000ee
:10b0fc000726000000280000002a0000692c000030
:10b10c00812e00007e30000096320000f8340000e2
:10b11c008836000040380000003a0000e83c00008f
:10b12c00003e000054580000204d000065730000e4
:10b13c007361000067650000733a00002025000071
:10b14c006400000052580000204d000065730000a0
:10b15c007361000067650000733a00002025000051
:10b16c006400000030310000323300003435000040
:10b17c0036370000383900004142000043440000db
:10b18c004546000000010000020300000405000019
:04b19c0006070000a2
:020000040000fa
:10b1a000b00a00000600000000000000be0a000017
:10b1b000020000000200000001180000c00a0000a8
:10b1c0000200000000000000900a000016000000cd
:10b1d000000000006e0a00002200000000000000d5
:10b1e000a60a00000a0000000200000001776600c5
:10b1f0005500000004ff00000000000000080000ef
:10b200006c01000000000000b60a0000040000000d
:10b2100000000000ba0a0000040000000200000064
:10b2200000000000000000006c09000002010000a6
:10b2300000000000c20a0000d0010000020000006f
:10b2400001000000000000000000080000000000f5
:10b2500000000000004000000000000000000000ae
:10b2600000020000000000000000000010000000cc
:10b27000000000000000800000000000000000004e
:10b28000000004000000000000000000002000009a
:10b2900000000000000000000001000000000000ad
:10b2a0000000000008000000000000000000400056
:10b2b000000000000000000000000200000000008c
:10b2c000000000000010000000000000000000006e
:10b2d00080000000000000000000000004000000ea
:10b2e000000000000000200000000000000000003e
:10b2f0000000010000000000000000000008000045
:10b3000000000000000000004000000000000000fd
:10b31000000000000200000000000000000010001b
:10b32000000000000000000000800100000000009c
:10b3300000000000001000000000000000000000fd
:10b3400000010000000000000000000010000000ec
:10b3500000000000000000000100000000000000ec
:10b3600000001000000000000000000000000100cc
:10b3700000000000000000000010000000000000bd
:10b3800000000000000100000000000000000000bc
:10b39000100000000000000000000000010000009c
:10b3a000000000000000100000000000000000008d
:10b3b000000001000000000000000000001000007c
:10b3c000000000000000000000010000000000007c
:10b3d000000000001001000000000000000000005c
:10b3e0000a000000000000000000640000000000ef
:10b3f0000000000000e80300000000000000000062
:10b4000010270000000000000000a00086010000de
:10b4100000000000004042000f000000000000009b
:10b42000809698000000000000000000e1f5050093
:10b43000000000000000ca009a3b0000000000006d
:10b4400000e40b005402000000000000e876480011
:10b450001700000000001000a5d4e8000000000064
:10b4600000a072004e18090000000000407a100091
:10b47000f35a000000008000c6a47e008d03000087
:10b480000000c1006ff2860023000000008a5d000a
:10b49000784563000100000064a7b300b6e00d002a
:10b4a0000000e80089042300c78a0000c20f0000e2
:10b4b0002a00000002000000286e75006c6c290054
:10b4c000003031003233340035363700383941002e
:10b4d00042434400454600003031320033343500e9
:10b4e0003637380039616200636465006600000029
:10b4f000920c0000d00100000200000001000000da
:10b500000000000000000800000000000000000033
:10b5100000400000000000000000000000020000e9
:10b52000000000000000000010000000000000000b
:10b530000000800000000000000000000000040087
:10b5400000000000000000000020000000000000db
:10b5500000000000000100000000000000000000ea
:10b560000800000000000000000040000000000093
:10b5700000000000000002000000000000000000c9
:10b58000001000000000000000000000800000002b
:10b5900000000000000000000400000000000000a7
:10b5a000000020000000000000000000000001007a
:10b5b0000000000000000000000800000000000083
:10b5c000000000004000000000000000000000003b
:10b5d0000200000000000000000010000000000059
:10b5e00000000000008001000000000000000000da
:10b5f000001000000000000000000000000100003a
:10b60000000000000000000010000000000000002a
:10b610000000000001000000000000000000100019
:10b620000000000000000000000001000000000019
:10b6300000000000001000000000000000000000fa
:10b6400000010000000000000000000010000000e9
:10b6500000000000000000000100000000000000e9
:10b6600000001000000000000000000000000100c9
:10b6700000000000000000000010000000000000ba
:10b6800000000000000100000000000000000000b9
:10b690001001000000000000000000000a0000008f
:10b6a0000000000000006400000000000000000036
:10b6b00000e8030000000000000000001027000068
:10b6c000000000000000a000860100000000000053
:10b6d000004042000f00000000000000809698002b
:10b6e0000000000000000000e1f50500000000007f
:10b6f0000000ca009a3b00000000000000e40b00bc
:10b700005402000000000000e87648001700000026
:10b7100000001000a5d4e8000000000000a07200a6
:10b720004e18090000000000407a1000f35a000093
:10b7300000008000c6a47e008d0300000000c10050
:10b740006ff2860023000000008a5d0078456300e8
:10b750000100000064a7b300b6e00d000000e8009f
:10b7600089042300c78a0000ec0f00002a000000b3
:10b7700002000000286e75006c6c2900003031005a
:10b780003233340035363700383941004243440003
:10b79000454600003031320033343500363738004a
:10b7a000396162006364650066000000620e00009b
:10b7b0006001000002000000000000000000000026
:10b7c000f03f00000000a0009999b9003f00000080
:10b7d0000040e1007a843f0000000000e04d62007c
:10b7e000503f00000000e000e2361a003f00000079
:10b7f0000080b500f8e43e0000000000a0f7c6009d
:10b80000b03e00000000a000f2d77a003e00000029
:10b8100000e08e0079453e0000000000e00b2e00a5
:10b82000113e00000000e000df7cdb003d00000076
:10b830000000a1009cc73b0000000000004c480035
:10b84000b439000000000000206ca10037000000a7
:10b8500000000000000000000000000000000000e8
:10b8600000000000000000000000000000000000d8
:10b8700000000000000000000000000000000000c8
:10b8800000000000000000000000000000000000b8
:10b8900000000000000000000000000000000000a8
:10b8a00000000000000000000000f0003f00000069
:10b8b0000000000000244000000000000000000024
:10b8c000594000000000000000408f0040000000d0
:10b8d0000000000088c340000000000000006a0073
:10b8e000f84000000000000080842e0041000000ad
:10b8f0000000d00012634100000000000084d70067
:10b90000974100000000000065cdcd00410000001f
:10b9100000205f00a002420000000000801daf0078
:10b920001544000000004000593e29004600000078
:10b930000000000000f07f00000000000000000098
:10b94000f07f0000000000000000f0007f00000019
:10b950000000000000f07f00000000000000000078
:10b96000f07f0000000000000000f0007f000000f9
:10b970000000000000f07f00000000000000000058
:10b98000f07f0000000000000000f0007f000000d9
:10b990001610000002000000000000001810000057
:10b9a00002000000000000001a1000000200000069
:10b9b000000000001c100000020000000200000057
:10b9c000010000001e100000020000000000000046
:04b9d0000000000073
:020000040000fa
:10b9d40091018800800078000000eb00150037001a
:10b9e400e280400032a0b4009101ba00e28040003d
:10b9f40032a0b4009102ba00e280400032a0b40048
:10ba04000002eb00472bde00f507b200602ce100da
:10ba140004003a000059eb008301e900fdff3e00f9
:10ba2400040037006128e100010032000082eb00cd
:10ba3400040007001101ba000200e000e8ff3a0028
:10ba4400000006003159ba008301e9000c003200fd
:10ba54002159ba008301e900080032000400e00023
:10ba640003003a00e280400032a0b400f5ff370042
:10ba740011d9ba008301e900faff3a008100e80015
:10ba8400e180400032a0b400000006000f12210043
:10ba9400007f220000018800000000000c00070065
:10baa400008d250001002000c9ff070000002000d0
:10bab4000000e0000200320000000200000000006c
:10bac40062280200000000000040da000000fe00ce
:10bad4004440a900206920000000e0000300320077
:10bae40000002000a00188004440a80000000600d7
:020000040000fa
:04baf4000000fe0050
:00000001FF
