:020000040000FA
:06000000CAEF24F012001B
:020006001200E6
:0600080055EF10F012009C
:02000E000001EF
:06001000020304050607CF
:020016001200D6
:0600180055EF10F012008C
:02001E000500DB
:10002000E0490000F701000002000000DC49000088
:10003000ED01000004000000DA490000F5010000B5
:1000400002000000D1490000B70E000009000000C6
:0C005000CF490000F30100000200000096
:04005C00000012008E
:100060002EEC0CF049E800EBE6FFD6CFE6FFDDEC26
:100070001FF041E9E750036E035027E003060DEC43
:100080000AF0046ECA51056ECB51066ECC51076E54
:100090000DEC0AF0086ECA51096ECB510A6ECC51B4
:1000A0000B6E08EBCDF109EBCEF10AEBCFF10BEBC8
:1000B000D0F1D950040F42EC0AF0D8803E0EC95559
:1000C000000E1EEC0CF0E4E2D7D74AE948EF0AF044
:1000D00043EC0CF055E848EC0FF0000901E1F4D2D4
:1000E0000001A9B54ED3616BBC51040B01E0010EB8
:1000F000030BF36EFC0E6115F310616FBC51619739
:10010000080B01E06187BC51030B010802E1010EFD
:1001100001D0000E619BE8B0618BBC51619D800BEA
:1001200001E0618DBCAF05D0618FBDC064F0BEC081
:1001300065F0C3C06AF0C2C069F0A995BC51030B59
:10014000010A01E134D2020A01E191D1030A01E07E
:10015000B6D20A0EC15D01E2B2D2020EA0EC0BF0E3
:100160000B6E030EA0EC0BF00C6E040EA0EC0BF06B
:10017000116E050EA0EC0BF0126E060EA0EC0BF04B
:100180000D6E070EA0EC0BF00E6E080EA0EC0BF03F
:100190000F6E090EA0EC0BF0106EBC516197080BAE
:1001A00001E061876151030B000906E11150FC0871
:1001B000FF0E125401E380D099510F180AE19A51B1
:1001C000101807E19B510D1804E19C510E1801E134
:1001D00076D2FE0E115CFF0E125801E270D2026A56
:1001E000050E025C1BE20FEC0CF0EF5015E03AEC50
:1001F0000AF00F50EE1810E11050ED180DE13AEC36
:100200000AF095EC0AF0EFCFC9F10A0E0001A0EC5C
:100210000BF00101C95D02E0022AE2D7050E025C83
:1002200001E24DD2026A050E025C06E20FEC0CF010
:10023000EF5002E0022AF7D7050E025C22E23AEC08
:100240000AF00FEBEEFF10EBEDFF0A0E7FEC0CF067
:100250003AEC0AF095EC0AF0E552E750EF6E0FEC3D
:100260000CF0030EEF6EFAEC0BF03AEC0AF012EC25
:100270000CF0E1C1EEFFCAC1EEFFCBC1EEFFCCC175
:10028000EEFF111C06E1121C04E100016181619383
:1002900048D0FE0E111806E1FF0E121803E100010E
:1002A000618108D0FD0E11183CE1FF0E121839E1F2
:1002B00000016191618335D09B510B1801E0FFD1A2
:1002C0009C510C1801E0FBD19951111801E0F7D1B4
:1002D0009A51121801E0F3D1010EA0EC0BF0040BBF
:1002E00020E039EC0BF00DEB02F00EEB03F00FEB1E
:1002F00004F010EB05F088EC0AF00A0E00012FEC78
:100300000AF0EFCF0AF000010B6B300E0C6F00010A
:100310000D0E986FB96BB98B9D51E0EC0BF000019D
:1003200061850B0E0001A0EC0BF001E076D00C0E05
:10033000A0EC0BF0300860E00C0EA0EC0BF0110A02
:1003400001E0BDD1136A040E135C0BE20B0E132403
:10035000020FA0EC0BF0E66E1350ABEC0AF0132A80
:10036000F2D78D0EAA6F110EA0EC0BF0800B01E0FE
:10037000AA91110E2FEC0AF0EFCFA2F0120E2FEC83
:100380000AF06EEC0BF060DB0001AD6FFF0EAD5DAF
:1003900008E0AD519AEC0BF0EFCFAAF0AA85AA873E
:1003A00004D08D0EAA6FA2BFAA91A7DB0001AD6F8A
:1003B000FF0EAD5D1EE2136A010E135C0CE2130E1C
:1003C00013247FEC0CF0AD517BEC0CF01350B2EC2D
:1003D0000BF0132AF1D70A0EE66EE66A0001AD5162
:1003E00007EC0BF00001AD51EDEC0AF00001AC811F
:1003F00001D0AC91AC9363D10A0EA0EC0BF00E01CE
:10040000BD5D08E10001A6510F1804E1A7511018C5
:1004100001E1A9970F50800852D10B0EC15D686FA2
:100420000B0EBF25666F000EC021676F0DEB62F0EB
:100430000EEB63F0080EA0EC0BF0FF080AE1090ECA
:10044000A0EC0BF0FF0805E1BDC064F0BEC065F094
:1004500007D0618F080EBF25646F000EC021656F45
:10046000618D6851000801E32AD1A98528D1040EC5
:10047000146E1424A0EC0BF05D0807E0040E1424A5
:10048000A0EC0BF04D0801E01AD1A9A118D1BFC012
:10049000E9FFC0C0EAFFEFCFA4F0010E2FEC0AF095
:1004A000EFCFA5F0020E2FEC0AF0EFCFA2F0030E73
:1004B0002FEC0AF0EFCFA3F01450A0EC0BF0FF08E4
:1004C00001E0FDD01428A0EC0BF0156E040E6B5D5E
:1004D00001E3F5D0FDEC0AF075EC0BF001E2EFD092
:1004E000C0EC0CF0BBCEEFFFC0EC0CF0070E86ECBE
:1004F0000CF069C0EFFFC0EC0CF046EC0AF06AC0EB
:10050000EFFF6B515EEC0CF0A4C0EEFFA5C0EDFF59
:10051000AEEC0BF0EF6AAEEC0BF0EF8CFDEC0AF0FA
:10052000060BE8420101C96F0001AEEC0BF00101BE
:10053000C951030BF36EFC0EEF14F310EF6EFDECDC
:100540000AF0080B04E00001AEEC0BF0EF86FDECC6
:100550000AF075EC0BF004E30001AEEC0BF0EF8A4F
:10056000026A040E025C0FE202500001EA6A64258E
:10057000E96E6551EA22EF50E66E6B5135EC0CF0F6
:10058000B4EC0CF0EED7026A010E025C0DE2060E2E
:10059000142402247FEC0CF0C0EC0CF00A0E64EC86
:1005A0000AF0B4EC0CF0F0D700016B2B88D0BFC080
:1005B000E9FFC0C0EAFFEF50030A59E0010A01E079
:1005C0007ED0030EA0EC0BF048E1010E2FEC0AF0F8
:1005D000EFCF99F0020E2FEC0AF0EFCF9AF07CECFF
:1005E0000AF00001A983BF0EAA6F026A040E025C22
:1005F00003E2D4EC0BF0FAD7A26B050E2FEC0AF055
:100600006EEC0BF07ADA00019D6F9D51B1EC0AF0AF
:10061000026A010E025C0AE2040E02247FEC0CF076
:100620009D517BEC0CF0B4EC0CF0F3D783EC0CF0A8
:10063000F2EC0BF055EC0AF00A0EE66EE66A0001E9
:100640009D5107EC0BF000019D51EDEC0AF0320ECC
:10065000E66E340ECAEC0AF032D09D699B699C6943
:1006600016EC0BF055EC0AF071EC0AF026D0A9A3B9
:1006700026D0026A040E025C03E2D4EC0BF0FAD737
:100680000ADA166EFF0E165C1AE016506AEC0CF0D1
:10069000200B15E0026A0A0E025C05E202508AECA9
:1006A0000CF0022AF8D705EC0CF055EC0AF0F2EC4D
:1006B0000BF083EC0CF0A0EC0AF0C5EC0BF00001A1
:1006C000A9B502D04CEC10F00DEC0AF0036ECA5143
:1006D000046ECB51056ECC51066E026A050E025CAB
:1006E00021E20FEC0CF0EF5000081AE203EBCDF121
:1006F00004EBCEF105EBCFF106EBD0F13AEC0AF0CA
:1007000012EC0CF0EE500101E3EC0BF0D880120E6D
:10071000C9557A0E1EEC0CF003E20FEC0CF0EF6AF8
:10072000022ADCD70001ACA32CD0ACB12AD0D9501E
:10073000030F61EC0CF0B551EE5C0101C96F0001D3
:10074000B651EE580101CA6F0001B751EE580101D0
:10075000CB6F0001B851EE580101CC6FC951076E43
:10076000CA51086ECB51096ECC510A6E07506C0805
:10077000DC0E0854020E0954000E0A5402E2000175
:10078000AC9356E948EF0AF011EC0AF085E9000154
:10079000B96B0050030BF36EFC0EB915F310B96F73
:1007A0000150021001E1B985B951040B02E0000EBD
:1007B00001D0010EB99BE8B0B98BB98F01EBBAF04B
:1007C00002EBBBF097EC0AF041E948EF0AF043EC8A
:1007D0000CF041E8026A0A0E025C08E20250C9EC21
:1007E0000CF002E1025003D0022AF5D7FF0E42E9D5
:1007F00048EF0AF02EEC0CF042E8FF0E005C28E116
:10080000220EE66E340ECAEC0AF0036A040E035C94
:100810000CE2030ED8800354EA6AB70FE96E0E0E9D
:10082000EA2291EC0AF0032AF1D7130EE66E340E99
:10083000CAEC0AF024EC0BF0090EE66E340ECAEC9A
:100840000AF02BEC0BF0FD0EE66E330E3CEC0CF0D8
:10085000B50EE66E330ECAEC0AF0FF0E005C62E1E4
:10086000036A0A0E035C01E3AED00350C9EC0CF03E
:1008700057E003EBE6FF31EC0CF09DEC0BF09DEC48
:100880000BF0D0EC0CF003506AEC0CF0010B02E022
:10089000590E01D04E0E6DEC0CF003506AEC0CF0CA
:1008A000020B02E0590E01D04E0E6DEC0CF003501D
:1008B0006AEC0CF0080B0FE00350F5EC0BF091EC38
:1008C0000AF0035091EC0CF0035095EC0CF003503F
:1008D0009AEC0CF002D0C3EC0CF041E9D0EC0CF037
:1008E00003506AEC0CF0040B08E0046A040E045C8C
:1008F00004E20350CDEC0BF0F9D7D0EC0CF0046A15
:10090000040E045C03E246EC0CF0FAD7046A010E14
:10091000045C04E20350EFEC0BF0F9D74CEC0CF064
:10092000032A9FD70050C9EC0CF04DE000EBE6FF26
:1009300031EC0CF09DEC0BF0200ECCEC0CF0010B2C
:1009400002E0590E01D04E0ECCEC0CF0020B02E08E
:10095000590E01D04E0ECCEC0CF0080B0FE00050FD
:10096000F5EC0BF091EC0AF0005091EC0CF000501B
:1009700095EC0CF000509AEC0CF002D0C3EC0CF0AB
:1009800041E9D0EC0CF000506AEC0CF0040B08E0EC
:10099000046A040E045C04E20050CDEC0BF0F9D7BD
:1009A000D0EC0CF0046A040E045C03E246EC0CF09C
:1009B000FAD7046A010E045C04E20050EFEC0BF07D
:1009C000F9D74CEC0CF043E948EF0AF043EC0CF09B
:1009D00041E80001AC9131EC23F0E1C1B5F0E2C196
:1009E000B6F0E3C1B7F0E4C1B8F00001A26BA36BAD
:1009F0000B0E986F4DEC0AF0EF6A4DEC0AF0100EFA
:100A0000EF6E026A040E025C09E20250EA6AB70F56
:100A1000E96E0E0EC8EC0BF0022AF4D7026A010E42
:100A2000025C05E202509FEC0CF0022AF8D7E66A5D
:100A3000E66AA20EE66E000EE66EAEDB44E9000149
:100A4000AC8342E948EF0AF043EC0CF041E8026A5B
:100A50000A0E025C1CE20250C9EC0CF016E00250D7
:100A60006AEC0CF0080B11E00250ABEC0BF08CECD4
:100A70000BF00001A2510101C91907E10001A351C6
:100A80000101CA1902E1025003D0022AE1D7FF0E88
:100A900042E948EF0AF043EC0CF042E8026A0A0E21
:100AA000025C27E20250C9EC0CF021E002506AEC33
:100AB0000CF0040B1CE0036A040E035C16E2025007
:100AC00006EC0AF012EC0CF0EACFCBF10350010176
:100AD000EA6AE924E96ECB51EA22EFCFC9F143EC8F
:100AE0000BF0C95D04E1032AE7D7025003D0022AC4
:100AF000D6D7FF0E43E948EF0AF043EC0CF042E88A
:100B000002680001AAA502D0C6DF03D0AAA702D0BE
:100B10009BDF026EFF0E025C02E159DE026EFF0EE9
:100B2000025C2FE002509AEC0BF0AAC0EFFF00012C
:100B3000AAA513D0036A040E035C0FE243EC0BF08A
:100B4000E66E025006EC0AF012EC0CF0EACFCAF1A5
:100B50000350B2EC0BF0032AEED70001AAA707D08E
:100B60000250ABEC0BF0A2C0EEFFA3C0EDFF0250B1
:100B700006EC0AF0A4C0EEFFA5C0EDFF0250B1ECF8
:100B80000AF0025043E948EF0AF011EC0AF086E956
:100B900041E8066A040E065C14E20650022434ECB6
:100BA0000BF0EFCFC9F106500024E96E000E0120D2
:100BB000EA6EEF500101C95D02E0000E03D0062A83
:100BC000E9D7010E42E948EF0AF02EEC0CF044E8B8
:100BD0006EEC1FF0000199699A69340E9B6F120E3A
:100BE0009C6F066A0A0E065C05E206508AEC0CF061
:100BF000062AF8D70001A96BAB6BAC6B606B27ECD6
:100C000023F00001986B066A0A0E065C05E20650A6
:100C1000B1EC0AF0062AF8D7005048E0D5EC0AF00B
:100C20003FEC0BF0200E0E01BB5D09E258EC0AF020
:100C30003FEC0BF00001991D04E19A1D02E1000E4A
:100C40006DD071EC0AF0E66E3FEC0BF0E1EC0AF0CF
:100C50003FEC0BF0BCEC0AF0A0EC0AF0E66E3FECC7
:100C60000BF058EC0AF03FEC0BF070EC0CF0E66E79
:100C70003FEC0BF0A90EE66E330E3CEC0CF0A10E2F
:100C8000E66E330ECAEC0AF02BEC0BF0960EE66E15
:100C9000330ECAEC0AF024EC0BF0BBCEE6FF96EC68
:100CA0000BF07CEC0AF00001A98311D083EC0CF06E
:100CB000D5EC0AF08DEC0CF0E1EC0AF08DEC0CF0C8
:100CC000A0EC0AF0C5EC0BF0F2EC0BF0EEDB036AE3
:100CD00003960398038A039C038200500394E8B0B0
:100CE0000384B70E046E0E0E056E03EBE6FF04EBF5
:100CF000E6FF05EBE6FF0AEC0EF043E97CEC0AF0B8
:100D0000BBCEE6FF96EC0BF0000160816087BCEC87
:100D10000AF0D6CFA8F0F094F08A010E45E9B8D3D6
:100D20002EEC0CF0E66A00EBE6FFCAEC0DF042E9AF
:100D3000000908E000EBBBFED5EC0AF08DEC0CF0EE
:100D4000010E01D0000E41E9A3D32EEC0CF00050AF
:100D5000030809E300EBBCFEBCEC0AF0E1EC0AF08E
:100D6000FEEC1EF046E941E993D35BDB87E94EE8F0
:100D7000010E086E096A0A6A0B6A0E01BB510C6EFD
:100D8000076A040E075C05E2075054DBEF68072A88
:100D9000F8D700016B6BA981076A200E075C6AE235
:100DA00008EBC9F109EBCAF10AEBCBF10BEBCCF183
:100DB00007501F0B04E001017CEC0BF0FDE1D9CFE3
:100DC000E9FFDACFEAFFEE500101C917EE50CA176A
:100DD000EE50CB17EE50CC17C951CA11CB11CC1124
:100DE00047E0860EE66E330ED5DB07EBE6FF48ECF8
:100DF00022F041E907EBE6FF96EC0BF066EC0CF015
:100E0000070EEF6E4ADBBBCEEFFF010EE66E000E63
:100E1000E66EE66AB9DC43E900DB4BEC0BF06BEC09
:100E20000BF001E021D9F9DA53EC0BF011EBCDF125
:100E300012EBCEF113EBCFF114EBD0F1D9500D0F33
:100E400021DB0450040DF3CFF6FFF4CFF7FFF80ECB
:100E5000F626480EF722C9510900F55CCA5109006F
:100E6000F558CB510900F558CC510900F558D7E297
:100E7000072A93D70CEBE6FF96EC0BF00001A99143
:100E80006B514FE905D3CDDA84E94AE8030E046ECD
:100E900000040DE19BDD0001ACA305D06BEC0BF071
:100EA000FAE0E2D8F8D7ACA1D0D0AD51D3D0005001
:100EB00001E0CFD0FF0E015C20E10101010EC96FFE
:100EC000CA6BCB6BCC6B0E01BB511F0B04E0010155
:100ED0007CEC0BF0FDE1C9C1E6FFCAC1E6FFCBC166
:100EE000E6FFCCC1E6FF0A0EE66E3FDF45E90009EA
:100EF00003E10406E2E1A9D0016A01505EEC0CF0C6
:100F0000EECFA4F0EDCFA5F0056A040E055C0BE270
:100F1000015035EC0CF00550DDDAEF50E66E05506F
:100F20001ADB052AF2D7B7DD00019D6FFF0E9D5D2C
:100F300006E14DDC00019D6FFF0801E186D09D5167
:100F40008AEC0CF001505EEC0CF0E6DB9D515EDAB1
:100F5000C9C1EEFFCAC1EDFF056A040E055C09E2D6
:100F6000015068DAEE52B4EC0BF0040EA5EC0CF074
:100F7000F4D700019D51DEDBEF84056A010E055CAC
:100F80000AE2015057DA0A0E86EC0CF0EDDB090E8E
:100F9000A5EC0CF0F3D700019D51CCDBEF829D5105
:100FA000C9DBEF8A9D51C6DBEF80015043DAEFCFFA
:100FB000E6FFBCDB00019D5129DAEECF9BF0EDCFBF
:100FC0009CF034DB66EC0CF0010EEF6E66DA60C06C
:100FD000EFFF056A010E055C05E205509FEC0CF081
:100FE000052AF8D7010EE66E9D5110DA040E6CDA70
:100FF000E9CFE6FFEACFE6FFC4EC03F043E90DDA00
:10100000066ECA51076ECB51086ECC51096E0001B5
:101010009D516AEC0CF0100B1AE15DDB01E024D865
:10102000FCD90A6ECA510B6ECB510C6ECC510D6EB1
:101030000AEBCDF10BEBCEF10CEBCFF10DEBD0F1D8
:10104000D950060F24EC0CF0E2E2FF0E03D09D51C4
:1010500001D0FF0E4BE91CD268EC00F00001A95151
:10106000040B01E0010E12000001A9954CEF10F0F5
:101070002EEC0CF000EBE6FF010EE66E03D842E921
:1010800041E906D2CED984E9F4DA9BC002F09CC0D3
:1010900003F00150020A0AE0010A06E0020A02E037
:1010A000000E15D0046904D0FE0E01D0FD0E046FB1
:1010B00005692EDA000151EC0CF0B9850050B997A2
:1010C000E8B0B987020E015C01E1B98F30DA41E97D
:1010D000DFD1A7D984E949E80150C9EC0CF057E009
:1010E0000E01BE510CE000010B5109E00001A9877F
:1010F000A8C0BDFE0150AAEC0CF0060E03D0000102
:10110000A997020E046EBFCE00F004EB01F001506F
:101110007DD9EFCF02F0015068DBEFCF03F0015033
:101120001ADBEFCF04F0015016DBC2DB6BDAE8B05C
:10113000B987B8EC0CF029E00001A951080B29E0AF
:10114000015009DBE9DA800E0101C95D22E265D9AF
:10115000056ECA51066ECB51076ECC51086EBBDAD4
:1011600001E082DF0001A9B702D0010E13D055D9EA
:10117000A2DA09EBCDF10AEBCEF10BEBCFF10CEBE0
:10118000D0F1D950050F60DBEAE20001A997000E0B
:1011900001D0010E4AE97CD144D986E953E80150D7
:1011A00030E1BFDAEFCFA2F002285EDAEFCFA3F092
:1011B0000001A251FC08FF0EA35523E2FD0EA21967
:1011C00002E1E868A31916E0FE0EA21902E1E86840
:1011D000A3190CE0E868A21901E0CBD0E868A319D4
:1011E00001E0C7D000EBE6FF010E07D000EBE6FF01
:1011F000030E03D000EBE6FF020EE66E43DF42E98A
:10120000BBD00E01BE5109E000010B5106E0000108
:10121000A987A8C0BDFE060E03D00001A997020E43
:10122000086E01505FE0076A040E075C09E2075090
:1012300002241ADAEF50E66E07508DD9072AF4D748
:101240002ADC066EFF0E065C11E113DA02690369FF
:10125000046905695DD90001D5D9E8B0B98702EB09
:10126000BAF003EBBBF0A99762D986D0065032DB07
:10127000080BEBE00E01BE5102E006506BDBBFCE67
:1012800000F008EB01F00650C1D8EFCF02F0065095
:10129000ACDAEFCF03F006505EDAEFCF04F0065081
:1012A0005ADA06DB0001AED9E8B0B98761DB5FE04E
:1012B0000001A9A746D0B1D8FED90DDA01E0D4DEED
:1012C0000001A9A73ED0A9D8E6D90DEBCDF10EEBD0
:1012D000CEF10FEBCFF110EBD0F1D950090FB4DA0A
:1012E000ECE245D0BFCE00F008EB01F09BC002F06D
:1012F0009CC003F016DAEFCF04F00228B5D9EFCF87
:1013000005F006D9A851A82B00010A6F0ADAEFCF21
:10131000A6F00228A9D9EFCFA7F00001B96BB98BCD
:101320000050B997E8B0B98723DB21E00001A9A7F5
:1013300022D073D8B8D9CFD901E096DE0001A9B781
:1013400002D0010E19D069D8156ECA51166ECB5154
:10135000176ECC51186E15EBCDF116EBCEF117EBE5
:10136000CFF118EBD0F1D950110F6EDAE4E20001A1
:10137000A997000E01D0010E54E98AD052D888E90D
:101380000550020A02E0030A02E1000E01D0000E3D
:1013900041E97ED063DA41E8FF0E005C14E1036AA4
:1013A0000A0E035C2BE20350F4DA09E0035092DAF0
:1013B000200B05E08BDA87D9035002DAA4D9035059
:1013C000A9DA032AEDD70050E4DA1EE0005082DAF1
:1013D000200B1AE000019D51005C16E1986B5DD86E
:1013E00072D90050EDD9005095DA8DD9036A0A0EF2
:1013F000035C04E203508EDA032AF9D706DAF2D945
:1014000082DA53D89DD8C1D942E942D00A0D1FDAF9
:10141000000EE926010EEA221200ECD90101C951A1
:101420001200D9CFE6FFDACFE6FFE1CFD9FFE2CF56
:10143000DAFF12000B0D0BDA6C0EE926000EEA2221
:101440001200F0D9E9CFBAF0EACFBBF0EED9E9CF7C
:10145000E6FFEACFE6FFAEEC0EF046E91200EA6ADC
:10146000BF25E96EC051EA221200E66E28EC22F098
:1014700041E912000250080DEAD9C40EE926000E17
:10148000EA2212001EDAEE50E3EF0BF0080EE4D170
:10149000E5CFDAFFE7CFD9FF12009851982BEA6A1F
:1014A000000FE96E000EEA2212001ADAC5EF0BF007
:1014B000020EE66EE66AFAC0E6FFFBC0E6FF990E92
:1014C000E66E000EE66E120021DAE9CFC9F1EACF2E
:1014D000CAF112000101EA6AE924E96ECA51EA225E
:1014E0001200020EE66EE66AF0C0E6FFF1C0E6FF0B
:1014F0009B0EE66E000E12009B0EE66E000EE66E70
:10150000990EE66E000EE66EC3EC0DF044E9120093
:101510009BC006F09CC007F099C008F09AC009F083
:101520001200EFCFE6FF31EF0CF0020E95D17DD91E
:10153000BAC0E6FFBBC0E6FFAEEC0EF046E9120013
:10154000640EE66EE66AF6C0E6FFF7C0E6FF000E40
:10155000E66E010E1200EA6A9E0FE96E000EEA22A4
:101560000BD2040D74D9330EE926000EEA22EE6A7E
:10157000EE6AEE6AEE6A12000E01BC510001030B26
:10158000F36EF346F346F346F346CF0E6015F310C1
:10159000606F1200E66E12EC22F042E91200D88071
:1015A000240EC955F40E1EEF0CF0010EE66EE66A2D
:1015B000F2C0E6FFF3C0E6FFBB0EE66E0E0EE66E6F
:1015C0001200010EE66EE66AF4C0E6FFF5C0E6FF23
:1015D000BC0EE66E0E0EE66E12000A0DF3CFCBF1D6
:1015E000F4CFCCF1000E0101CB27010ECC23CBC1EF
:1015F000E6FFCCC1E6FF8DEF0CF0D950150F61D995
:10160000EF5012004ED9B98B0050B99712000A0D55
:101610000001F651F3240101C96F0001F751F420D4
:101620000101CA6FC9C1E6FFE66E1200A269A36993
:101630009B0EE66E000EE66EA20EE66E000EE66EE5
:10164000C3EC0DF044E912009AC0E6FF0AD999C034
:10165000E6FF31EF0CF09CC0E6FF03D99BC0E6FF2C
:1016600031EF0CF0030EF8D0E96E000E0320EA6EA5
:101670001200BFCE00F00001020E016F1200DCEC80
:101680001EF046E912000350EA6A9E0FE96E000E52
:10169000EA22EF5012000D6ECA510E6ECB510F6E42
:1016A000CC51106E1200116ECA51126ECB51136ED6
:1016B000CC51146E1200096ECA510A6ECB510B6EDA
:1016C000CC510C6E1200030EEF6EB96BB98BB98161
:1016D000B993B98F1200C0DC00091200EFCFA3F05C
:1016E0009BC0A4F09CC0A5F01200300BE842E84279
:1016F000E842E84201081200D890C937CA37CB3710
:10170000CC37E8061200640EE66EE66A06EC21F0BD
:1017100042E91200050EA0D0EECFC9F1EFCFCAF119
:10172000120002EBE9FF03EBEAFF120090EC06F077
:1017300041E912006BDE46EF0AF032D9D0EF0CF02F
:101740008EDEEF5012003F0E90DE3F0E8EDE3F0E1B
:101750008CDE3F0E12005ADE95EF0AF011D9090E09
:1017600086EF0CF0B7DE08D1E9CFCBF1EACFCCF1B0
:1017700005500101EA6AE924E96ECC51EA22EF50F2
:10178000E66E00019D5106EF0AF0E66E8DEF0CF05B
:10179000EA22EF50E66E81DEEFD038DE040E94DEF2
:1017A000030ED8800454DCD00250EA6ABD25E96EED
:1017B000BE51EA22EF50E66E0250CDDE022A120040
:1017C00025DE21EF0AF0CD5DC96FEE50CE59CA6F0C
:1017D000EE50CF59CB6FEE50D059CC6F12008BD852
:1017E0000450BED065DE8DEF0CF010DEE92A000E4D
:1017F000EA22120031EC23F0E1C1C9F1E2C1CAF1E1
:10180000E3C1CBF1E4C1CCF1120000019D699969FB
:101810009A699B699C6970DE0001A99312002ADE17
:1018200032EF0BF0040E86EF0CF098C0E6FF000ECE
:10183000E66E000EE66EB9C0E6FF1200CA55000E55
:10184000CB55000ECC5512001DDECFEF0AF0F3CFC2
:10185000E9FFF4CFEAFF120086EF0CF0E2DD83E946
:10186000120036EC22F041E91200E4DDEE52E9CF3D
:10187000C9F1EACFCAF112008DDEBBCEE6FF48EC1B
:1018800022F041E91200CDDD82E91200B20EE66ECF
:10189000330E80DE042A12000D0EE7DD0A0E35EF4E
:1018A0000AF0A851A82B00010A6F0001B96B1200C1
:1018B000E92AEA22EFCF05F088EF0AF0BBDD8AEFD4
:1018C0000BF0E96E000EDA20EA6E12000001986B50
:1018D0004DEF0AF02FDFEF501200C7DD9DEF0BF048
:1018E000010EE66EE66AFCC0E6FFFDC0E6FF9D0E57
:1018F000E66E000E12008ADD090E64EF0AF00001A8
:101900001FDFE66E1200EDDDC5EF0BF0E926000EDD
:10191000EA2212000FDFEF6A1200FEEC1EF046E929
:10192000120074DDFEDD9DEF0BF015DFE92AEA22DF
:1019300091EF0AF010DFEFCFE6FF36EF22F0EA6A10
:10194000F30FE96E010EC8EF0BF0BEDD05500ADFA4
:10195000052A120000DFEECFA6F0EDCFA7F01200AF
:10196000B9DDDFDD042A12000250FCDE022A12007B
:101970009D5126DF00091200E552E750EF6E12007C
:101980006B511AEF0AF0DFDEA8DFDDDEE66E28EF2E
:1019900022F0A0DF800B1200A0DF00506AEF0CF0F5
:0619A000200E35EF0AF0F5
:0A19A60020EC13F082E941E8200E66
:1019B000E66E2BD841E9026E0F0E0214010F190DCD
:1019C000F350F36EF46A42E933EF13F020EC13F0B6
:1019D00084E941E8F050200B01E0010E046EF09A1A
:1019E0008D92010101EBC9F1CA6BC9C1E6FF4AEC56
:1019F00024F041E9AEEC13F08D820450E8B0F08A97
:101A0000E8A0F09A42E933EF13F020EC13F083E9F9
:101A100042E8F050200B01E0010E046EF09A8D9226
:101A2000400E0010006EAEEC13F056EC24F0036E86
:101A30008D820450E8B0F08AE8A0F09A035043E9A0
:101A400033EF13F020EC13F083E941E8F050200B62
:101A500001E0010E036EF09A8B94AEEC13F08B84D0
:101A60000350E8B0F08AE8A0F09A42E933EF13F0AF
:101A700020EC13F084E94EE8030E106E10501006AF
:101A8000000901E17BD0116A0101F66B0E6A00507A
:101A900011E0280EE66EB9DF41E90F6E0F407F0BB3
:101AA0000F6E0F50410806E20E500E2A0408F1E2B4
:101AB000000E66D0200EC0EC13F0C90EE66E1A0EB2
:101AC000E66EE1EC13F001EBE6FFBCDF41E9056AED
:101AD0000150055C09E20550D1EC13F0EFCFE6FFB1
:101AE000B1DF41E9052AF4D7800EC0EC13F0010103
:101AF000F55103E1F050040BFAE0F56B90EC13F0B4
:101B0000200E01016415000836E265C187FE62EC13
:101B100013F0066ECA51076ECB51086ECC51096E98
:101B20000101F65128E162EC13F00A6ECA510B6E06
:101B3000CB510C6ECC510D6E0AEBCDF10BEBCEF10F
:101B40000CEBCFF10DEBD0F1D950060FE96E000E82
:101B5000DA20EA6E82EC13F0350EC9550C0ECA5528
:101B6000000ECB55000ECC55DBE21150112A0308B4
:101B700001E284D789D7010E046E01D0046A0450B3
:101B80004FE933EF13F020EC13F086E9000E41E942
:101B900033EF13F020EC13F084E9200E015C02E334
:101BA000000E1FD0640EE66E0C0EE66EE1EC13F034
:101BB0000150F76AD60FF66E460EB4EC13F00E0E17
:101BC00074EC13F00150F76AF60FF66E460EB4ECA3
:101BD00013F0100E74EC13F054EC13F090EC13F0BF
:101BE000010E41E933EF13F020EC13F083E90050CC
:101BF000070802E2000E0BD00050E8240101C96F73
:101C0000CA6BF00EC913340E74EC13F0010E41E9E7
:101C100033EF13F020EC13F085E941E800EB84FE8C
:101C200001EB85FE02EB86FE140EE66EE66A06EC1C
:101C300021F042E98D828B84D6CF88FE0E0189691E
:101C4000056A020E055C06E2055019EC13F0EF6A16
:101C5000052AF7D7D9CFE9FFDACFEAFFEF50040B17
:101C60000EE038EC13F0DCEC1EF046E9040E0E0139
:101C7000AC27000EAD23AE23D7EC13F00DD00E0130
:101C8000AB6BAC6BAD6BAE6BD7EC13F00E01010E12
:101C9000AB6FAC6BAD6BAE6B056A080E055C14E206
:101CA0000550F76A0E0FF66E000EF7220800F55089
:101CB000E66E0550EA6AAF0FE96E0E0EEA22E552B3
:101CC000E750EF6E052AE9D7056A05501F0813E3B0
:101CD000F76A0534FE0BF66EF736160EF626470E3B
:101CE000F7220900F5CFE6FF0900F5CFE6FFE1ECAA
:101CF00013F0052AEAD754EC13F0600EC0EC13F091
:101D0000F08A010E42E933EF13F020EC13F083E97F
:101D100000501DE0200A15E0600A0EE0200A07E0EE
:101D2000E00A19E1860E6FEC13F0800E0ED0660EFD
:101D30006FEC13F0600E09D0460E6FEC13F0400EFE
:101D400004D0260E6FEC13F0200E8A6F04D0060E1E
:101D50006FEC13F08A6B41E933EF13F020EC13F0D2
:101D600088E943E80050280802E2000E8FD044ECD6
:101D700013F0040B02E0000E01D0010E039CE8B04A
:101D8000038C44EC13F0030B010801E1038E03EB19
:101D900064F10E018851882B0101656F020E096EF6
:101DA00044EC13F0400B0EE0086A7BEC13F0085C87
:101DB00009E208500424E96E000E0520EA6E29ECC1
:101DC00013F0F3D744EC13F0040B44EC13F0800B46
:101DD0000EE0086A7BEC13F0085C09E20850EA6A3E
:101DE0008525E96E8651EA2229EC13F0F3D744ECFD
:101DF00013F0080B3AE0086A040E085C09E2085088
:101E0000EA6AAB0FE96E0E0EEA2229EC13F0F4D762
:101E10000E01AB2B000EAC23AD23AE23AB5105E17D
:101E2000030EAC1502E1D7EC13F00950092AD1ECEE
:101E300013F0EF6A89EB0AF0086A0050085C03E2CD
:101E4000C9EC13F0FAD7AF0EE66E0E0EE66E00EB9D
:101E5000E6FF0AEBE6FF640EE66E010EE66E23EC8B
:101E60001BF046E9020E092607D0086A0050085CFC
:101E700003E2C9EC13F0FAD70E018451020B01E022
:101E8000010EE66E09EBE6FFF3DD42E944E9EBD330
:101E9000D7DB82E94CE8026A050E025C36E262ECAE
:101EA00013F0036ECA51046ECB51056ECC51066E11
:101EB0004CEC13F0EF5027E04CEC13F0020EBCECAE
:101EC00013F00350EE5C0450EE580550EE580650E7
:101ED000EE5819E203EBCDF104EBCEF105EBCFF1B7
:101EE00006EBD0F1D9DB020EBCEC13F082EC13F060
:101EF000240EC955F40ECA55000ECB55000ECC5514
:101F000002E2CADBEF6A022AC7D7FF0E0E01895D23
:101F100001E0A8D0026A020E025C01E3BAD00250CE
:101F200088DBEF50010B01E1B2D0C5EC13F0EFCF2D
:101F3000BCF0E5EC13F0EFCFC1F0020E076E00012C
:101F4000BCAD02D0D8DB07260001BCAF0BD0C5EC7E
:101F500013F00750E924BD6F000EEA20BE6FCBDB03
:101F6000072602D0BD6BBE6B0001BCA781D0C5ECBB
:101F700013F0EACFCAF1040E07240101EA6AE9244A
:101F8000E96ECA51EA22EF506AE10001BCAF53D0BA
:101F9000086A0A0E085C15E2C8DB080EEDDBEF509C
:101FA000800B0DE0BDC0E6FFBEC0E6FFBEDB040E49
:101FB000E3DBCBDBC5EC05F044E9000902E1082ACC
:101FC000E8D70A0E085C37E20D6A040E0D5C20E2C9
:101FD000DCDBE9CFCBF1EACFCCF107500D240101D6
:101FE000EA6AE924E96ECC51EA22EF50E66ED95054
:101FF000090FC96F000EDA20CA6F0D50EA6AC925B1
:10200000E96ECA51EA22E552E750EF6E0D2ADDD79C
:1020100094DBEE50095CEE500A58EE500B58EE502F
:102020000C581DE38ADB09EBEEFF0AEBEEFF0BEB2E
:10203000EEFF0CEBEFFF050E0726AF0EE66E0E0E61
:10204000E66EC3DBEF50D8800754E66E07EBE6FF81
:102050009CDB7BDB53EC1BF046E9000905E10250F9
:10206000E8DAEF6A000E16D0020E0724000101D054
:102070000750C15F8ADB0750E924BF6F000EEA20DA
:10208000C06F8CCEC2F002EB89FE010E03D0022A93
:1020900042D7000E4DE9E7D2020E0E01895D04E23F
:1020A0008951C7DAEF6A89691200D8CFE4FFE0CF1F
:1020B000E4FFE46EE9CFE4FFEACFE4FFE1C1E4FF2F
:1020C000E2C1E4FFE3C1E4FFE4C1E4FFF6CFE4FFD3
:1020D000F7CFE4FFF5CFE4FFF3CFE4FFF4CFE4FF65
:1020E000FACFE4FF01EEC9F00E0EE80403E3EECFF1
:1020F000E4FFFBD7E652D9CFE6FFDACFE6FFE1CF28
:10210000D9FFE2CFDAFF82E94DE8F050040B01E19C
:1021100056D2F050200B01E152D2600E0E018A5DC2
:1021200001E048D2280EE66E70DC41E9E8407F0B02
:102130000E018B6F8BCE8CFE8B9456EC24F0036ECD
:102140008B84046A020E045C10E20450420DF3CF4B
:10215000E9FFF4CFEAFF000EE9260E0EEA22EF5067
:10216000010B01E102D0042AEDD7020E035C03E16A
:10217000010E076E01D0076A400E035C07E20350B0
:1021800005E0020E045C14E3075012E11A0EE66E3D
:102190003CDC41E90C6E0CA20AD08B9456EC24F086
:1021A0008B841A0EE66E31DC41E90C6EF4D705D251
:1021B000026A0350056E066A010E055C000E0658A1
:1021C00001E2F7D10506000E065A075018E08B947D
:1021D00056EC24F0E66E0101D950080FE56F000EB1
:1021E000DA20E66F0250022A0101EA6AE525E96E6B
:1021F000E651EA22E552E750EF6E8B841FD08B94B4
:1022000056EC24F0E66E0450420DF3CFE9FFF4CF14
:10221000EAFF000EE9260E0EEA22EE52E9CFE5F1C2
:10222000EACFE6F10250022A0101EA6AE525E96EE9
:10223000E651EA22E552E750EF6E8B840350025CD0
:1022400001E2B6D1075030E0030E081402080AE19B
:102250000E018751095C03E10101010EF66F026A6C
:10226000ACD105D0020E045C02E3026A8FD70450A1
:10227000420DF3CFE9FFF4CFEAFF000EE9260E0E80
:10228000EA22EE5208EBEFFF0450420DF3CFE9FFD4
:10229000F4CFEAFF000EE9260E0EEA22EE52E92AFA
:1022A000000EEA2209EBEFFF0450420DF3CFE9FFE5
:1022B000F4CFEAFF000EE9260E0EEA22410EE926CF
:1022C000000EEA2203EBEFFF0E680450420DF3CF3D
:1022D000E9FFF4CFEAFF000EE9260E0EEA22EE52E5
:1022E000EF50400B40E00D6A0E018451780BE8423C
:1022F000E842E8420D5C37E20450420DF3CFE9FFBB
:10230000F4CFEAFF000EE9260E0EEA22EE52E9CFE4
:10231000E6F1EACFE7F1020E0D240101EA6AE625B3
:10232000E96EE751EA22EFCFE5F10D500E01EA6ABE
:102330008525E96E8651EA22EF500101E55D11E045
:10234000026A0450420DF3CFE9FFF4CFEAFF000E1A
:10235000E9260E0EEA22410EE926000EEA22EF6A75
:1023600015D70D2AC1D70450420DF3CFE9FFF4CFA2
:10237000EAFF000EE9260E0EEA22EE52EF50200B85
:1023800058E00D6A020E0D5C1BE20D50EA6A640F04
:10239000E96E010EEA22EF50E66E0101D950080FF6
:1023A000E56F000EDA20E66F0D500101EA6AE525BF
:1023B000E96EE651EA22E552E750EF6E0D2AE2D7C8
:1023C0000101060E646F0450420DF3CFE9FFF4CF14
:1023D000EAFF000EE9260E0EEA22EE52E92A000E6E
:1023E000EA22EFCF65F1F094E66A020EE66E38EC71
:1023F0000DF042E90D6A020E0D5C1BE20101D9509D
:10240000080FE56F000EDA20E66F0D500101EA6A51
:10241000E525E96EE651EA22EF50E66E0D50EA6AD4
:10242000640FE96E010EEA22E552E750EF6E0D2AC5
:10243000E2D70D6A050E0D5C5FE20D50060DF3CF7D
:10244000E9FFF4CFEAFF8D0EE9260E0EEA22EF50E7
:1024500040E00D50060DF3CFE9FFF4CFEAFF8D0EFB
:10246000E9260E0EEA22EE52EFCFE5F10450420DBE
:10247000F3CFE9FFF4CFEAFF000EE9260E0EEA22C1
:10248000EE52E92A000EEA22EF500101E55D21E15A
:1024900031EC23F0E1C1E5F1E2C1E6F1E3C1E7F19E
:1024A000E4C1E8F10D50060DF3CFE9FFF4CFEAFFE8
:1024B0008D0EE9260E0EEA22020EE926000EEA2211
:1024C000E5C1EEFFE6C1EEFFE7C1EEFFE8C1EEFFBA
:1024D00013D0FF0E0E5C0EE10D50060DF3CFE9FF99
:1024E000F4CFEAFF8D0EE9260E0EEA22EF5002E14C
:1024F0008DEB0EF00D2A9ED7050E0D5C58E3050EF0
:102500000E5C4AE20E50060DF3CFE9FFF4CFEAFF6E
:102510008D0EE9260E0EEA22010EEF6E0450420DDA
:10252000F3CFE9FFF4CFEAFF000EE9260E0EEA2210
:10253000EE52E92A000EEA22EF50E66E0E50060D2A
:10254000F3CFE9FFF4CFEAFF8D0EE9260E0EEA2263
:10255000EE52E552E750EF6E31EC23F0E1C1E5F1C8
:10256000E2C1E6F1E3C1E7F1E4C1E8F10E50060D86
:10257000F3CFE9FFF4CFEAFF8D0EE9260E0EEA2233
:10258000020EE926000EEA22E5C1EEFFE6C1EEFFEB
:10259000E7C1EEFFE8C1EEFF0450420DF3CFE9FFC3
:1025A000F4CFEAFF000EE9260E0EEA22EF8005D0F6
:1025B00003D603D00101010EF56FF0940000F2A4E0
:1025C0000AD0F2AA08D0F2940101F12B0101F151D5
:1025D00002E10101F22B8FEC1EF04EE9E5CFDAFFAC
:1025E000E7CFD9FFE55201EED6F00E0EE80403E383
:1025F000E5CFEDFFFBD7E5CFFAFFE5CFF4FFE5CF61
:10260000F3FFE5CFF5FFE5CFF7FFE5CFF6FFE5CF29
:10261000E4F1E5CFE3F1E5CFE2F1E5CFE1F1E5CF9C
:10262000EAFFE5CFE9FFE550E5CFE0FFE5CFD8FFD2
:102630001000420DC1D8000EE9260E0EEA2212004B
:10264000D9CFE6FFDACFE6FFE1CFD9FFE2CFDAFF5D
:102650001200EF50E66E0950092AA3D8E552E75060
:10266000EF6E082A1200E5CFDAFFE7CFD9FF12009C
:10267000040EE66EE66AF8C0E6FFF9C0E6FFAB0EB0
:10268000E66E0E0EE66E1200D950030FE96E000ED4
:10269000DA20EA6EEF5012000250060D8DD88D0E32
:1026A000E9260E0EEA221200200E6AD8460EE66EC9
:1026B000E66A87D8400E64D80F0EE66E1C0EE66EF2
:1026C000E1EF13F031EC23F0E1C1C9F1E2C1CAF14D
:1026D000E3C1CBF1E4C1CCF10101C9511200E66EB6
:1026E000E66A6FD80E011200CA13C9C1E6FFCAC15B
:1026F000E6FFE1EF13F00E018451780BE842E84267
:10270000E8421200EE50CD5DC96FEE50CE59CA6F4F
:10271000EE50CF59CB6FEE50D059CC6FD88012000D
:10272000200E2ED8600EC0EF13F008500A0D44D8CA
:10273000000EE926010EEA2212000850040D3CD8D2
:10274000330EE926000EEA221200E9CFC9F1EACFE2
:10275000CAF1E9CFE6FFEACFE6FF120000EBE6FFA1
:102760004AEC24F041E91200F7220800F55001017B
:10277000C96FCA6BC9511200E926000EEA22120085
:10278000E66E85EC0EF041E91200025052DFEE5287
:10279000120008500124E96E000E0220EA6E29EFB3
:1027A00013F0EA6A640FE96E010EEA22120060DF9C
:1027B000FEEC1EF046E91200F3CFE9FFF4CFEAFF8A
:1027C0001200E6EC0CF042E91200025032DF410E3A
:0427D000BCEF13F057
:0C27D40090DB86E90150010600090CE0D2
:1027E00002EBE6FF03EBE6FF00EBE6FF69DBF4E15B
:1027F000CA1DF2E1010E01D0000E41E9E5CFDAFF7A
:10280000E7CFD9FF120077DB89E97BE80A6A0B6A18
:1028100002EBF6FF03EBF7FF04EBF8FF0800F550BF
:10282000096E095001E12DD3250E095C01E01BD38F
:102830000C6A0D6A0E6A0F6A106A2DDB2D0E095C98
:102840000CE02B0E095C09E0200E095C06E0230E6B
:10285000095C03E0300E095C15E10950300A10E014
:10286000130A0CE0030A08E00B0A04E0060AE5E19B
:102870000C80E3D70C82E1D70C84DFD70C86DDD740
:102880000C88DBD72A0E095C13E1A5DB0DE30C8075
:102890001CEBC9F11DEBCAF10101C96DCA1F000E85
:1028A000CA23C9510D6E02D09CEB0DF0F4DA07D0AB
:1028B000126A3FDB02E06BDBFCD792EB0DF00CB051
:1028C0000C982E0E095C15E1E6DA2A0E095C08E187
:1028D00082DB04E29CEB0EF0010E0F6EDCDA09D015
:1028E000126A27DB02E053DBFCD792EB0EF0010EFD
:1028F0000F6E680E095C07E1CEDA680E095C1DE117
:10290000030E106E19D0740E095C16E07A0E095C85
:1029100013E0480E095C06E0540E095C03E05A0E11
:10292000095C02E1020E07D06C0E095C03E06A0E3E
:10293000095C03E1010E106EAEDA09506E0A01E186
:102940006ED21E0A01E128D1200A01E125D13F0AF9
:1029500001E1FDD01A0A01E1FAD00D0A01E1F7D038
:10296000200A01E1F4D03A0A01E1F1D0200A01E1A4
:10297000EED0260A01E1EAD00D0A01E1E7D01A0AF9
:1029800001E19ED0200A3BE0300A1AE0460A0EE040
:10299000250A01E072D2D950020FE96E000EDA204A
:1029A000EA6E010EEE5E000EEE5AEE5A0FDB250EB9
:1029B000E66E86DA03E1CA1D01E159D20A2A5BD22A
:1029C000116A0D50010803E20D04116EF5DA115081
:1029D00007E0010E0C1404E16DDA01E048D2116A3F
:1029E000D3DAEF50096ECBDA03E1CA1D01E13FD221
:1029F0000A2A000E0B225EDA01E13FD238D2020E23
:102A0000105C08E1030E4EDAEE50176EEE50186EB1
:102A1000EF5007D0E7DACB6BC951176ECA51186E69
:102A2000CB51196E17EBE6FF18EBE6FF19EBE6FF4B
:102A3000F2EC23F043E9E1C1C9F1E2C1CAF1E3C11B
:102A4000CBF10101C9511C6ECA511D6E0F5006E039
:102A50001C500E5C03E20E501C6E1D6A1C500D5C77
:102A600002E29CEB0DF050DA05E00D500E5C02E244
:102A70008EEB0DF00CB004D01DDA01E0F8D1116A34
:102A8000126A17EBF6FF18EBF7FF19EBF8FF0800D7
:102A9000F550096E095010E00D50125C0DE26FDA2E
:102AA00003E1CA1D01E1E3D10A2A000E0B22122A1A
:102AB000D950170F55DAEBD7FDD901E1DED1D7D1C7
:102AC00063DAEE501A6EED501B6E1AEBE6FF1BEB4D
:102AD000E6FFE4EC23F042E9F3501C6EF4501D6E67
:102AE0000F5006E01C500E5C03E20E501C6E1D6A77
:102AF0001C500D5C02E29CEB0DF006DA05E00D5077
:102B00000E5C02E28EEB0DF00CB004D0D3D901E0E4
:102B1000AED1116A126A1AEBE9FF1BEBEAFFEF5024
:102B2000096E09500FE00D50125C0CE228DA03E147
:102B3000CA1D01E19CD10A2A000E0B22122A1A2A70
:102B40001B22E9D7B7D901E198D191D10C8E10049D
:102B50000AE1040EA7D9EE50136EEE50146EEE503B
:102B6000156EEF5032D0030E105C16E10CAE0CD097
:102B70000BDAEFCFC9F10101CA6BCB6BCC6BC9AFDC
:102B800023D0CA69CB691FD0FFD9EFCFC9F10101AA
:102B9000C951136E146A20D0020E105C0CE10CAE09
:102BA00006D0030E7FD9B6D9CBAF0ED00CD0030E12
:102BB00079D9B0D909D00CAE0AD014DACB6BCC6B72
:102BC000CAAF02D0CB69CC69BCD9166E07D00ADA7D
:102BD000C951136ECA51146E156A166A0F5002E17C
:102BE000010E0E6E1E6A1F6AD950400FE66E000E6F
:102BF000DA20E66EE552E550436EE750426E416AD8
:102C0000116A0A0E106E0950780A12E0200A10E0CC
:102C1000280A0CE0200A0AE03F0A06E00D0A02E05A
:102C2000200A08E1020E05D0080E03D0080E09267E
:102C3000100E106E0CBE02D00C920C94800E0C1470
:102C400017E0163415E3E668E668E668E66842D9F8
:102C5000FCEC1FF0E552E5CFCCF1E5CFCBF1E5CFB1
:102C6000CAF1E7CFC9F101016CD9166E2D0E07D05C
:102C70000CA202D02B0E03D00CA404D0200E206E88
:102C80001E2A01D0206A0E5005E1135014101510B1
:102C9000161061E00101AE0EC96F490ECA6F000E39
:102CA000CB6F83D95CEC20F0E552E5CFCFF1E5CFD7
:102CB000CEF1E5CFCDF1E7CFCCF10101C951CC2563
:102CC000F36ECA51CD21F46ECB51CE21F86EF4CF04
:102CD000F7FFF3CFF6FF0800F550126E580E095CAF
:102CE00005E1610E125C02E3200E125E5ED959EC22
:102CF00020F0E552E550166EE550156EE550146E65
:102D0000E750136E42EBE9FF43EBEAFF4206000E89
:102D1000435A12EBEFFF1E2A135014101510161011
:102D2000B9E10CA619D06F0E095C06E10E501E5CCD
:102D300013E31E280E6E10D0780E095C09E0580EC1
:102D4000095C06E0620E095C03E0420E095C04E1E6
:102D5000020E1F6E01D01E6A100E0C1407E00D50FB
:102D60000E5C04E20F5002E18DEB0EF00E501E5C83
:102D700003E21E500E5E01D00E6A0E501E241F2468
:102D8000D8800D5407E20E500D5CD8801E54D880B8
:102D90001F54116E010E0C1406E1115004E08AD884
:102DA00066E10AD9116A205007E010D920EBE6FF4E
:102DB00087D802E1CA1D5BE01F500BE007D9300E37
:102DC000E66E7ED802E1CA1D52E0D9D802E1CA1DE2
:102DD0004EE00E501F5C02E21F500E5E300EE66E9B
:102DE0000EEBE6FFDCD843E1422A000E432242EB21
:102DF000E9FF43EBEAFFEF50126E125008E0E6D80D
:102E000012EBE6FF5DD8F0E1CA1DEEE130D052D8FA
:102E10002EE10E501E2411241F240A262CD01050FF
:102E2000030A1CE0010A14E0030A07E0ADD8C9D880
:102E30000AEBEEFF0BEBEDFF20D08BD8CC6BCAAFCB
:102E400002D0CB69CC69A0D84ED8CCC1EEFF15D04A
:102E500080D8CABFCB6998D846D80FD095D8B1D8FA
:102E60000AEBEFFF0AD08BD805E1CA1D03E1F36836
:102E7000F4680BD00A2A000E0B22D950020F70D82A
:102E8000CDD40AEBF3FF0BEBF4FF7CE9E5CFDAFFDF
:102E9000E7CFD9FF1200D950020F62D80800F550D1
:102EA000096E1200005E000E015A00EBE9FF01EB13
:102EB000EAFF1200200EE66E11EBE6FFCFEF17F0EF
:102EC00017EC24F043E9F3CFC9F1F4CFCAF10101C3
:102ED000F31C120013EBE6FF14EBE6FF15EBE6FF25
:102EE00016EBE6FF12006DD8C9C1EEFFCAC1EEFFB6
:102EF000CBC1EEFF1200D9CFE6FFDACFE6FFE1CF7C
:102F0000D9FFE2CFDAFF12001C500D5C116E54D8CD
:102F10000F501200EECFC9F1EECFCAF1EFCFCBF1D7
:102F20000101CC6B1200EECFC9F1EFCFCAF1010164
:102F300012000950E66EE66A9AEC24F042E9F3507A
:102F40001200C951136ECA51146ECB51156ECC517B
:102F500012000AEBC9F10BEBCAF10101CB6B1200B5
:102F6000E96E000EDA20EA6EEF2AEECFF6FF000ED1
:102F7000EF22EECFF7FFEF22EECFF8FF120026D8B8
:102F800009EBE6FF60EF17F0020E52EF17F00A0EA2
:102F90001202F3500924D00F126E4BEF17F016D81F
:102FA000EAEC13F044E90009120010EBE6FFE66AD0
:102FB000E66AE66A6AEF17F011500A26000E0B2245
:102FC0001200EE50EFCFEAFFE96E120005EBE6FFCC
:102FD00006EBE6FF1200D8DFEE501C6EED501D6EC2
:0A2FE0001D341200D1DF93EF17F04B
:062FEA005258204D6573F2
:102FF00073616765733A20253364005458204D652A
:103000007373616765733A202533640020556E69D8
:1030100063617374204661696C6564000D0A556EC6
:103020006963617374204661696C65640D0A003AD6
:1030300020002066726F6D2000556E6963617374A5
:10304000205061636B657420776974682052535314
:1030500049200042726F6164636173742050616340
:103060006B6574207769746820525353492000536C
:1030700065637572656420005242303A2042726F77
:1030800061646361737420205242323A20556E6944
:10309000636173740020436F6E6E656374656420B2
:1030A0005065657220206F6E204368616E6E656C9E
:1030B00020256400436F6E6E656374696E672050EF
:1030C00065657220206F6E204368616E6E656C20AE
:1030D00025642000206973206E6F742073757070F2
:1030E0006F7274656420696E2063757272656E74A8
:1030F00020636F6E646974696F6E2E0D0A000D0A8D
:1031000053656C656374696F6E206F6620636861D8
:103110006E6E656C20000D0A0D0A000D0A2020203D
:10312000202020202020202020202020202020209F
:103130002020626520746F67676C65642075706F0E
:103140006E20726563656976696E67206D6573735D
:10315000616765732E20000D0A202020202020208A
:10316000202020202020202020202020202032204D
:10317000746F20756E696361737420656E63727914
:1031800070746564206D6573736167652E204C45AE
:103190004420322077696C6C000D0A20202020200A
:1031A000202020202020202020202020202020201F
:1031B000427574746F6E203120746F2062726F617B
:1031C0006463617374206D6573736167652E20504D
:1031D00075736820427574746F6E000D0A2020208C
:1031E00020202020202020202020202020202020DF
:1031F0002020746F20696E64696361746520636F59
:103200006E6E656374696E67207769746820706597
:1032100065722E2050757368000D0A202020202032
:10322000202020202020202020202020202020209E
:10323000506F776572206F6E2074686520626F61D1
:10324000726420756E74696C204C45442031206C8A
:103250006967687473207570000D0A20202044652A
:103260006D6F20496E737472756374696F6E3A0086
:103270000D0A20202020205246205472616E736374
:1032800065697665723A204D524638395841000DCD
:103290000A20202020202020202020202020204C18
:1032A000454420323A20524133000D0A202020208C
:1032B000202020202020202020204C454420313A6E
:1032C00020524132000D0A4F757470757420436F9F
:1032D0006E66696775726174696F6E3A000D0A20D7
:1032E00020202020202020202020427574746F6E22
:1032F00020323A20524232000D0A20202020202085
:103300002020202020427574746F6E20313A2052A4
:103310004230000D0A496E70757420436F6E666905
:103320006775726174696F6E3A000D0A5374617249
:1033300074696E67204E6F64652032206F6620537B
:10334000696D706C652044656D6F20666F72204DED
:1033500069576928544D292050524F205374616396
:103360006B202E2E2E0053696D706C65204D6957B1
:10337000692050524F20204D524638395841204E36
:103380006F64652032000D0A5363616E20436861EB
:103390006E6E656C200053686F7274416464723A9B
:1033A000002050414E49443A004368616E6E656C9E
:1033B0003A002020000D0A417661696C61626C65FB
:1033C000206E6F6465730D0A48616E646C652052EF
:1033D000582044432050414E494420414444522007
:1033E0004C4F4E475F414444522020202020202053
:1033F00020504545525F494E464F0D0A002020435C
:1034000068616E6E656C3A2000202050414E494440
:103410003A2000202053686F727420416464723A2D
:1034200020000D0A0D0A416464726573733A2030FE
:1034300078000D0A4A6F696E20746865206E6574A5
:10344000776F726B207375636365737366756C6CED
:04345000790D0A00E8
:0C34540065D986E949E802EBE9FF03EBCB
:10346000EAFFEE50066EED50076ECBD9EE50086EB7
:10347000ED50096E0A6A0B6A370E0C6E9E0E0D6EC9
:103480000E6A200E0E5C5CE201010938F00BD06F71
:1034900008380F0BD0130838F00BCF6F08EBD1F1C1
:1034A00009EBD2F1050ED890D233D133E804FBE119
:1034B000A0D90850CD25CB6F0950CE21CC6F030E7B
:1034C0000A14D56FD66B010ED890D537D637E806DB
:1034D000FBE12FD90626CA5107220C500A260D50AF
:1034E0000B220738F00BD06F06380F0BD0130638BD
:1034F000F00BCF6F06EBD1F107EBD2F1050ED890B0
:10350000D233D133E804FBE174D90650CD25CB6F1B
:103510000750CE21CC6F0B38E8441F0BD56FD66B0C
:10352000030ED517000ED617010ED890D537D63713
:10353000E806FBE1FED80826CA5109220E2AA1D7C7
:1035400002EBE9FF03EBEAFF06EBEEFF07EBEDFF13
:1035500058D908EBEEFF09EBEDFF4AE90ED1E0D8B0
:1035600024D901E0010E0C6EF29E0A6A09500A5C31
:103570002DE20B6A030E0B5C0BE20B5034D9EF50BB
:10358000E66E0B50F4D8E552E750EF6E0B2AF2D7F7
:103590000AEBECF102EBE6FF03EBE6FFE90EE66E69
:1035A000010EE66E57DF44E90B6A040E0B5C0CE279
:1035B0002FD90AE20B50DBD8EFCFC9F101D90101B5
:1035C000C951EF1A0B2AF1D70A2AD0D70C50E8B00C
:1035D000F28EE8A0F29E45E9D0D0A2D8E6D801E06C
:1035E000010E0C6EF29E0A6A040E0A5C05E20A5095
:1035F000FAD8EF6A0A2AF8D70A6A09500A5C1CE26C
:103600000B6A040E0B5C0CE203D90AE2D9D8EFCFA7
:10361000C9F10B50E8D80101C951EF1A0B2AF1D7B3
:1036200002EBE6FF03EBE6FF00EBE6FF01EBE6FF54
:1036300011DF44E90A2AE1D70C50E8B0F28EE8A085
:10364000F29E45E99AD0F0D801E0010E096EF29E93
:1036500085D803500224BED8040E085C0AE2085044
:1036600086D8EF50E66E03500224082498D8D7D8A5
:10367000F3D7086A030E085C0AE20350085C04E210
:1036800008508DD8EF5001D0000ED4D8F3D766D8AB
:10369000040E0224E66E76D80950E8B0F28EE8A057
:1036A000F29E43E96AD0C0D801E0010E096EF29E95
:1036B000086A030E085C0AE20350085C04E2085042
:1036C0006ED8EF5001D0000EB5D8F3D747D802EB33
:1036D000E6FF58D843D803500224FE0F7BD8020ED1
:1036E000085C16E2085043D8EFCFC9F1035002241A
:1036F000FE0F082454D8EF500101C95D07E00950BE
:10370000E8B0F28EE8A0F29E000E08D0082AE7D7B3
:103710000950E8B0F28EE8A0F29E010E43E92DD0E8
:10372000D9CFE6FFDACFE6FFE1CFD9FFE2CFDAFF6C
:1037300012000101D5510024E96ED6510120EA6E34
:10374000EE500A24D36FED500B20D46FCB51D31918
:10375000C96FCC51D419CA6FC9511200E90EE66E77
:10376000010EE66E00EBE6FF01EBE6FF1200EA6AEF
:10377000E90FE96E010EEA221200E5CFDAFFE7CF8A
:10378000D9FF1200035001010424C96F000E052067
:10379000CA6FC9C1E6FFE66EE2DE47E91200042403
:1037A000E96E000E0520EA6E120089E944E8045033
:1037B000FC0BE842E842010F096EF250800B120048
:1037C000040E0A02F3500B240524E96E000E0620B5
:1037D000EA6E1200E66E04EBE6FF05EBE6FFFDDEA7
:1037E00047E9086A12000024E96E000E0120EA6E23
:1037F00012000101CF51D119CD6FD051D219CE6F26
:103800001200020E0224E96E000E0320EA6E12007E
:10381000040E0A02F3500B24D88004541200E5521F
:10382000E750EF6E082A12007BDF88E942E8F25089
:0E383000800B1200E66E08509ADF0FEF1CF0BE
:02383E00D9CFE0
:10384000E6FFDACFE6FFE1CFD9FFE2CFDAFF82E988
:1038500046E8036A046A056A066ABEEC1DF009ECD4
:1038600022F0010EE66EE66A660EE66E330E56D95B
:103870002A0EE66E330E3AD9130EE66E330E36D9A3
:10388000F80EE66E320E32D9DD0EE66E320E2ED90D
:10389000C50EE66E320E2AD9AA0EE66E320E26D973
:1038A0008F0EE66E320E22D9700EE66E320E1ED9E3
:1038B000590EE66E320E1AD9190EE66E320E16D970
:1038C000DB0EE66E310E12D9990EE66E310E0ED970
:1038D000570EE66E310E0AD91B0EE66E310E06D972
:1038E000160EE66E310E02D989948996E66AE5ECE9
:1038F00005F041E9F4C1E6FF90EC06F041E900096A
:103900000EE1FE0EE66E300EF1D8F4C1E6FF48EC93
:1039100022F041E9D40EE66E300EE8D8E1D0E66A36
:10392000A5EC06F041E9E66AF4C1E6FFB40EE66EE6
:10393000300EF4D8E66AE66843EC07F042E9026E1E
:10394000FF0E025CF7E0010EE66EF4C1E6FF950E95
:10395000E66E300EE3D8E668FAEC03F041E98984BC
:10396000E66AE66A780EE66E300ED8D82CEC08F0DF
:10397000000955E0000161A704D06F0EE66E300E1D
:10398000B5D800016151030B000904E0530EE66E47
:10399000300E03D0390EE66E300EA8D869C0E6FFAF
:1039A00036EC22F041E9000161AD1ED0320EE66E28
:1039B000300E9CD8000161AF0CD0010EA4D864C0B9
:1039C000E9FF65C0EAFFEFCFE6FF36EC22F041E900
:1039D0000BD0026A040E025C07E2030ED880025488
:1039E000000191D8022AF6D72F0EE66E300E7ED84F
:1039F000026A00016851025C0DE20250EA6A662523
:103A0000E96E6751EA22EFCFE6FF28EC22F041E9A8
:103A1000022AEFD7897634EC08F0062A59D039EC1F
:103A20001EF0076E0750020A24E0030A9FE100011E
:103A30000B0E986F78D8000902E198D811D0026A6D
:103A4000150E025C0DE26FD8FF0F150DF3CFC9F113
:103A5000F4CFCAF1100E0101C927450E76D8F0D770
:103A6000032AE66A38EC08F041E906EBE6FF052A8E
:103A700031D000010B0E986F5FD8000902E176D8B3
:103A800011D0026A0B0E025C0DE256D8FF0F0B0D2F
:103A9000F3CFC9F1F4CFCAF1790E0101C927450E60
:103AA00054D8F0D7042A010EE66EE66A69EC08F0F5
:103AB00042E900090CE11C0EE66E300E17D8010E2B
:103AC000E66EE66A0C0EE66E300E28D801D0052AA6
:103AD00006EBE6FF05EBE6FFFBEC1DF042E946D7FF
:103AE00047E9E5CFDAFFE7CFD9FF1200E66E12EC27
:103AF00022F042E912009851982BEA6A000FE96E11
:103B0000000EEA221200EA6A6425E96E6551EA2293
:103B1000EFCFE6FF36EC22F041E91200E66E1AEC38
:103B20001EF044E91200060EE66E03EBE6FFDDEC44
:103B30001FF041E9E7501200060EE66E04EBE6FFC7
:103B4000DDEC1FF041E9E7501200CA230250F76A8A
:103B5000C925F66ECA51F7220800F550E66E00013D
:103B6000CADFE552E750EF6E022A12000001C3DF00
:0C3B70000D0EEF6EC0DF0A0EEF6E1200AB
:043B7C007B0ED36E7B
:103B8000C090550EA76EAA0EA76E0E01FF91050EEE
:103B9000E86F060EE96F130EF66F050ED76F550E20
:103BA000A76EAA0EA76EFF810F0148693F0E496FED
:103BB000F19E92689368946895689668896A8A6AA3
:103BC0008C6A8D6A9380938492949296958E938654
:103BD0009586938A949E9398949CC00EC76E210EEE
:103BE000C66E949496928B848D82F186959A8C8A77
:103BF000F28EB2EF21F0BCD884E9D1EC21F0015073
:103C0000E66EE66AFB0EE66E2F0EE66EC7D8005033
:103C1000E66EE66AEA0EE66E2F0EE66EE66AB80E0D
:103C2000E66E010EE66EABEC23F047E9E4EC21F022
:103C300041E9BDD09DD886E941E8D1EC21F00150A1
:103C4000E66EE66A02EBE6FF03EBE6FFA7D8E4ECDC
:103C500021F000500CE0066A080E065C08E2FA0E3D
:103C6000E66EE66A06EC21F042E9062AF5D742E95B
:103C70009ED07ED882E948E881B006D000015B5131
:103C80004BE17FD8010E49D081B406D000015B51D1
:103C900043E177D8020E41D031EC23F0E1C1C9F104
:103CA000E2C1CAF1E3C1CBF1E4C1CCF10101C951D8
:103CB000066ECA51076ECB51086ECC51096ED950B1
:103CC000060FE96E000EDA20EA6E00015C51EE5C30
:103CD0000101C96F00015D51EE580101CA6F000179
:103CE0005E51EE580101CB6F00015F51EE580101AA
:103CF000CC6FC951026ECA51036ECB51046ECC51C8
:103D0000056E0250FF083F0E0354000E0454000ECF
:103D1000055402E200015B6B000E49E948D0F25005
:103D2000100B04E0F250020B01E0F292F050100B85
:103D300004E0F050020B01E0F092F250080B04E0B6
:103D4000F250010B01E0F290A050020B05E0A150EF
:103D5000020B02E0A1928974A4AE09D0A49E6CEC7F
:103D600021F0050EE66EE66A06EC21F042E912004B
:103D7000D9CFE6FFDACFE6FFE1CFD9FFE2CFDAFF16
:103D80001200010E5B6F31EC23F0E1C15CF0E2C187
:103D90005DF0E3C15EF0E4C15FF01200E66AA80ED8
:103DA000E66E010EE66EABEC23F047E91200E5CFBC
:083DB000DAFFE7CFD9FF120092
:083DB800C6D888E941E8F25089
:103DC000800B01E0010E086EF29E8C9A030EC4D89F
:103DD000005001100BE056EC24F0E66ECFD8E5520F
:103DE000E750EF6E0006000E015AF2D78C8A085099
:103DF000E8B0F28EE8A0F29E42E9BBD0A4D888E9F0
:103E000042E8086AF250800B01E0010E096EF29E52
:103E10008C9A050EE66EBAD856EC24F0086E8C8AA1
:103E20002EEC00F008B0F4D78C9A060EE66EAED8F1
:103E30008C8A2EEC00F08C9A020E8ED8086A005004
:103E4000011018E09BD8EFCFE6FFA0D80006000EC7
:103E5000015A082A085001010224C96F000E0320EC
:103E6000CA6FC9513F0BEBE18C8A08500226000E45
:103E70000322CED78C8A0950E8B0F28EE8A0F29ED9
:103E800043E977D060D886E9FE0EE96E000EEA6E4F
:103E90000101EE500224C96FED500320CA6FCB6BB5
:103EA000CB35000ECB1907E6D880000EC955800E21
:103EB000CA55000ECB5502E2000E0ED000EBE9FF12
:103EC00001EBEAFFFEC0EEFFFFC0EDFF0001025074
:103ED000FE270350FF23010E41E94BD034D882E97D
:103EE00041E8010E026E0001FE6BFF6BF00EE66E04
:103EF000000EE66E020E21D8F20EE66E000E4AD8D3
:103F0000F40EE66E000E46D8F60EE66E000EE66E75
:103F1000640E13D8F80EE66E000EE66E040E0DD891
:103F2000FA0EE66E000EE66E020E07D8FC0EE66E86
:103F3000000E30D8025042E91CD0E66EE66AA2DFDD
:103F400044E902161200D9CFE6FFDACFE6FFE1CF4F
:103F5000D9FFE2CFDAFF1200E66E18D8010103EBB9
:103F6000C9F1CA6BC9C1E6FF11D802EBE6FFC6EF83
:103F70001FF0E5CFDAFFE7CFD9FF120004EBE9FF2E
:103F800005EBEAFF042A000E052212004AEC24F099
:0C3F900041E91200E66E010E9DEF1FF0EB
:043F9C0042E8D9CF4F
:103FA000E6FFDACFE6FFE1CFD9FFE2CFDAFF86E91D
:103FB000036A1200F3DF038003D0F0DF01D0038235
:103FC000026A080EE76ED890013602360050025C95
:103FD00002E3026E012AE72EF7D703B2120003B004
:103FE00081EB00F003A082EB00F0E552E5CFDAFFB1
:103FF000E7CFD9FF43E9120044E8D9CFE6FFDACF93
:10400000E6FFE1CFD9FFE2CFDAFF8EE980EB08F0DF
:1040100081EB09F082EB0AF083EB0BF0045008020D
:10402000F350006EF450016E04500902F350012663
:10403000000EF420026E04500A02F3500226000E15
:10404000F420036E04500B02F350032605500802BF
:10405000F3500126F4500222000E032205500902FB
:10406000F3500226F450032205500A02F3500326AF
:1040700006500802F3500226F450032206500902AB
:10408000F350032607500802F3500326E552E5CF0C
:10409000DAFFE7CFD9FF48E9000C45E8D9CFE6FFC2
:1040A000DACFE6FFE1CFD9FFE2CFDAFF8FE90C6A82
:1040B0001200F3DF0C8003D0F0DF01D00C820B6A1A
:1040C0000A6A096A086A200EE76ED8900436053637
:1040D00006360736083609360A360B360050085CB5
:1040E0000150095802500A5803500B5809E3005078
:1040F000085E0150095A02500A5A03500B5A042A0A
:10410000E72EE4D70CB212000CB00AD088EB00F016
:1041100089EB01F08AEB02F08BEB03F00CA008D0E6
:1041200084EB00F085EB01F086EB02F087EB03F007
:0E413000E552E5CFDAFFE7CFD9FF49E91200EB
:02413E00D9CFD7
:10414000E6FFDACFE6FFE1CFD9FFE2CFDAFF86E97B
:1041500044E856D000EBE6FF01EBE6FF02EBE6FF9A
:1041600003EBE6FF140EE66EE66AE66AE66AFCEC2E
:104170001FF0E552E5CFCCF1E5CFCBF1E5CFCAF1A9
:10418000E7CFC9F10101C951066ECA51076ECB5183
:10419000086ECC51096ED950060FE96E000EDA2078
:1041A000EA6EAF0EEE5E000EEE5A000EEE5A000EF4
:1041B000EE5A093408E206502D08000E0754000E8E
:1041C0000854000E095401E31BD0093408E20650DC
:1041D0000008000E0754000E0854000E095410E2A7
:1041E0000000D950060FE96E000EDA20EA6E2A0EA2
:1041F000EE5E000EEE5A000EEE5A000EEE5AE5D7B5
:1042000045E9E5CFDAFFE7CFD9FF1200D9CFE6FFC6
:10421000DACFE6FFE1CFD9FFE2CFDAFF84E944E865
:1042200000EBE6FF01EBE6FFE66AE66AD00EE66E1B
:10423000070EE66EE66AE66AFCEC1FF0E552E5CF93
:10424000CCF1E5CFCBF1E5CFCAF1E7CFC9F1010160
:10425000C951046ECA51056ECB51066ECC51076E22
:10426000D950040FE96E000EDA20EA6EAA0EEE5E57
:10427000000EEE5A000EEE5A000EEE5A073408E217
:104280000450C308000E0554000E0654000E0754D7
:1042900002E31CD01BD0073408E204500008000ED3
:1042A0000554000E0654000E075410E20000D950C9
:1042B000040FE96E000EDA20EA6E270EEE5E000EA5
:1042C000EE5A000EEE5A000EEE5AE5D745E9E5CF5C
:0842D000DAFFE7CFD9FF12006D
:0842D8000101ED51EF5D03E36C
:1042E000EE51F05D2CE271B0FED70101ED51EF5DB2
:1042F00011E2EF51EA6AA40FE96E010EEA22EF50D3
:10430000756EEF2BED51EF5D1AE1EE5118E17184FE
:10431000F2EF21F0EE51F05D12E2F0516BD8EF5068
:1043200004E1F05167D8200EEF6EF05163D8EF50E2
:10433000756EF02BEE51F05D02E1718453D81200DE
:104340005FD884E971B4FED70101EF6BF06B01EB2C
:10435000EDF100EBEEF1718041E9E5CFDAFFE7CF57
:10436000D9FF1200530E9512A49E736AF00E746E5C
:10437000280E726E716AA38EF28EF28C33D8010110
:104380007C0EA46F810EA56FA66BE66A030EE66E27
:10439000D7DF42E9C80EE66EE66A06EC21F042E994
:1043A00012002ED882E941E8026A200E025C06E281
:1043B000025020D8200EEF6E022AF7D742E9E5CF4F
:1043C000DAFFE7CFD9FF120001017C0EA46F320E95
:1043D000A56FA66B200EA76FE66E040EE66EB0DF2B
:1043E00042E912002C0EE66E010EE66E06EC21F09C
:1043F00042E91200EA6AA80FE96E010EEA221200F1
:10440000D9CFE6FFDACFE6FFE1CFD9FFE2CFDAFF7F
:02441000120098
:0E4412009584949C240EA86E900E9C6E190E3C
:10442000AB6E120061D884E941E800EBF6FF01EBC6
:10443000F7FF002A000E01220800F550046E045018
:1044400005E004EBE6FF04D841E9EFD742E955D097
:104450004BD883E9A8A2FED700EBA9FF41E94DD0D4
:104460009CA202D09C989C88AA5012003DD883E957
:1044700041E880EB03F000380F0B0F0B006E00508B
:1044800028D80F0E0314006E005023D842E935D00F
:104490002BD883E9640E005C05E3640EE66E00EB46
:1044A000E6FF30D80A0E005C09E30A0EE66E640EE1
:1044B000E66E00EBE6FFDDEC1FF024D80A0EE66E98
:1044C00000EBE6FFDDEC1FF041E9E75002D841E9DF
:1044D00014D0F76ABF0FF66E490EF7220800F5CF29
:1044E000E6FFB6DF41E91200D9CFE6FFDACFE6FFFB
:1044F000E1CFD9FFE2CFDAFF1200E5CFDAFFE7CF55
:10450000D9FF1200DAEC1FF041E9E75069EF22F021
:1045100020B2202020B22020B220B2202020202053
:10452000B220B20D0AB220B220B220B2202020B2B6
:104530002020B22020B220200D0AB22020B220205C
:10454000B220B220B22020B22020B220B20D0AB296
:104550002020B22020B220B22020B220B220B220EF
:1045600020B20D0AB22020B22020B220B22020209A
:10457000B220B2202020B20D0AB2B2B22020B2B2D4
:10458000B2B20D0AB22020B220B22020200D0AB211
:104590002020B220B2B2B2B20D0AB22020B220B2B4
:1045A0002020200D0AB2B2B22020B2B2B2B20D0A5F
:1045B0001E0EF66E000EF76E000EF86E0101090079
:1045C000F550DC6F0900F550DD6F03E1DC6701D0C9
:1045D0003DD00900F550D76F0900F550D86F09009C
:1045E000F550D96F09000900F550E96E0900F55042
:1045F000EA6E090009000900F550DA6F0900F5506C
:10460000DB6F09000900F6CFDEF1F7CFDFF1F8CF5D
:10461000E0F1D7C1F6FFD8C1F7FFD9C1F8FF01011A
:10462000DA5302E1DB5307E00900F550EE6EDA07DA
:10463000F8E2DB07F9D7DEC1F6FFDFC1F7FFE0C123
:0E464000F8FF0101DC07000EDD5BBFD71200A2
:02464E00040E58
:10465000D56EF184F294F28AD58E0101F16BF26B82
:104660001200D9CFE6FFDACFE6FFE1CFD9FFE2CFE4
:10467000DAFF82E946E8046A056AF29AF250040B0E
:1046800001E0010E066ED650026ED750036EF25056
:10469000040B01E0010E076E0750065CEFE10650C7
:1046A00006E0F2940101F12BF15101E1F22B01013D
:1046B000F1510426F2510526F28A02EBE1F103EBF7
:1046C000E2F104EBE3F105EBE4F147E9E5CFDAFFD2
:0646D000E7CFD9FF120044
:0A46D600535353535353535353539C
:1046E0005353535353535353535354545454545494
:1046F0005454545454541D202225282B2E30333624
:10470000393C3F4144474A304F520A0D10121215AE
:10471000181B2023262926008402090409060C08F8
:10472000C10A770C630E1910001200140016381815
:10473000C81A0D1C001E72203822382407260028B3
:10474000002A692C812E7E309632F8348836403823
:06475000003AE83C003EC7
:0A475600D9CFE6FFDACFE6FFE1CF8E
:10476000D9FFE2CFDAFF87E944E8D9CFE6FFDACF15
:10477000E6FFE552E5500A6EE750096E09EBE6FFE9
:104780000AEBE6FF00EBE6FF01EBE6FF02EBE6FFDC
:10479000D950030FE66E000EDA20E66E03EC14F03B
:1047A00047E9F350076EF450086E03EBE9FF04EBA2
:1047B000EAFFEF6A07EBF3FF08EBF4FF45E9E5CF0B
:0847C000DAFFE7CFD9FF120078
:0847C800FE0EE3CFE9FFFF0E36
:1047D000E3CFEAFFF36AF46AEE5203E0F34AF42A05
:1047E000FBD71200FF0EE3CFF8FFE552FF0EE3CF39
:1047F000F7FFE552FF0EE3CFF6FFE552E66AE66A01
:10480000E66A0900F55209E0FD0EE32A05E1FE0E15
:10481000E32A02E1FF0EE32AF4D7FD0EE3CFE1F134
:0E482000FE0EE3CFE2F1FF0EE3CFE3F1120054
:02482E00D9CFE0
:10483000E6FFDACFE6FFE1CFD9FFE2CFDAFF85E985
:10484000013415E200EBE9FF01EBEAFFEECFF3FFE5
:10485000EDCFF4FFEE2A000EEF22F3CFE9FFF4CF05
:10486000EAFF02EBEFFFEF50F36EF46A0DD0FE0E9D
:10487000005C05E102EBE6FFBCEC24F004D002EBA7
:10488000E6FF03EC00F041E941E9E5CFDAFFE7CFCD
:04489000D9FF12003A
:0C48940020D89E96C950036EC69E00EB13
:1048A000C9FFC6BEFBD79EA6FED720D0E66AF2DFC0
:1048B00041E9C95012000FD8A49E729E00EB75FF0B
:1048C00072BEFBD7A4AEFED7A49E10D0E66AF3DF7B
:1048D00041E975501200D9CFE6FFDACFE6FFE1CF0C
:1048E000D9FFE2CFDAFF83E941E8120042E9E5CFE0
:0848F000DAFFE7CFD9FF120047
:0848F80078000000B40000008C
:104900002C0100001C020000FC030000BC0700009A
:104910003C0F00003C1E00003C3C00003C780000C6
:104920003CF000003CE001003CC003003C8007007C
:044930003C000F0038
:0C493400F36AF46AFF0EE124E96EFF0E46
:10494000E220EA6EED6607D02F0EEF6404D03A0E37
:08495000EF6001D0F32A120010
:08495800C00EF36E00EE00F04A
:104960000E0E01D81200EA6002D0EE6AFCD7F350B6
:08497000E9601200EE6AFCD7B9
:08497800FF0EE350ADBA04D0BC
:10498000B06AAC8EAD8A949CADA2FED7AE6EF36ECB
:04499000F46A1200B3
:0C4994001DEE00F02DEE00F0F86AD8ECEB
:0E49A00022F00BEC00F01FEC1CF0FBD7120015
:0249AE003031A6
:0F49B000323334353637383961626364656600F7
:0149BF0030C7
:0F49C00031323334353637383941424344454676
:0149CF0002E5
:0149D00018CE
:0949D100027766550000FF001199
:0249DA000000DB
:0449DC0000000000D7
:0249E0000000D5
:01FFF800EC1C
:01FFF900F611
:01FFFA00D82E
:01FFFB00FB0A
:00000001FF
