:020000040000fa
:080000000002040000000000f2
:020000040000fa
:10000800180300001803000018030000180300007c
:10001800180300001803000018030000180300006c
:10002800180300001803000018030000180300005c
:10003800180300001803000018030000180300004c
:10004800b4a40100180300001803000018030000fe
:10005800180300001803000018030000180300002c
:10006800180300001803000018030000180300001c
:10007800180300001803000018030000180300000c
:1000880018030000180300001803000018030000fc
:1000980018030000180300001803000018030000ec
:1000a80018030000180300001803000018030000dc
:1000b80018030000180300001803000018030000cc
:1000c80018030000180300001803000018030000bc
:1000d80018030000180300001803000018030000ac
:1000e800180300001803000018030000180300009c
:1000f800180300001803000018030000180300008c
:10010800180300001803000018030000180300007b
:10011800180300001803000018030000180300006b
:10012800180300001803000018030000180300005b
:10013800180300001803000018030000180300004b
:10014800180300001803000018030000180300003b
:10015800180300001803000018030000180300002b
:10016800180300001803000018030000180300001b
:10017800180300001803000018030000180300000b
:1001880018030000180300001803000018030000fb
:1001980018030000180300001803000018030000eb
:1001a80018030000180300001803000018030000db
:1001b80018030000180300001803000018030000cb
:1001c80018030000180300001803000018030000bb
:1001d80018030000180300001803000018030000ab
:1001e800180300001803000018030000180300009b
:0801f8001803000018030000c9
:020000040000fa
:10020800180300001803000018030000180300007a
:10021800180300001803000018030000180300006a
:10022800180300001803000018030000180300005a
:10023800180300001803000018030000180300004a
:10024800b4a40100180300001803000018030000fc
:10025800180300001803000018030000180300002a
:10026800180300001803000018030000180300001a
:10027800180300001803000018030000180300000a
:1002880018030000180300001803000018030000fa
:1002980018030000180300001803000018030000ea
:1002a80018030000180300001803000018030000da
:1002b80018030000180300001803000018030000ca
:1002c80018030000180300001803000018030000ba
:1002d80018030000180300001803000018030000aa
:1002e800180300001803000018030000180300009a
:1002f800180300001803000018030000180300008a
:100308001803000018030000180300001803000079
:100318001803000018030000180300001803000069
:100328001803000018030000180300001803000059
:100338001803000018030000180300001803000049
:100348001803000018030000180300001803000039
:100358001803000018030000180300001803000029
:100368001803000018030000180300001803000019
:100378001803000018030000180300001803000009
:1003880018030000180300001803000018030000f9
:1003980018030000180300001803000018030000e9
:1003a80018030000180300001803000018030000d9
:1003b80018030000180300001803000018030000c9
:1003c80018030000180300001803000018030000b9
:1003d80018030000180300001803000018030000a9
:1003e8001803000018030000180300001803000099
:0803f8001803000018030000c7
:020000040000fa
:100400004fcb21000eff27000e01880000000000e6
:100410000c000700e0d32700110020000f000700a8
:10042000000020000000e000020032000000020096
:100430000000000068a30200010000000040da0094
:100440000000fe00c0ca23000000e00002003200ed
:10045000002020009001880000000600a102880012
:10046000800078000000eb001a003700e2804000b6
:1004700054a0b4009101ba00e280400054a0b4003e
:100480009102ba00e280400054a0b4000002eb00e8
:10049000472bde00f507b200a6018800602ce100c2
:1004a00008003a000049eb000201e80002003900b0
:1004b0003420ec0002f0a0008301e900f9ff3e00c7
:1004c000040037006128e100010032000082eb00e7
:1004d000040007001101ba000200e000e3ff3a0047
:1004e0000000060004d0a300e20f49001c00390000
:1004f000810278003549ba000201e80002003900a3
:100500003420ec0002f0a0008301e9000f0032006b
:100510002549ba000201e800020039003420ec004d
:1005200002f0a0008301e900080032000400e000ae
:100530000600320015c9ba000201e80002003900c5
:100540003420ec0002f0a0008301e9008180e80083
:1005500054a0b4000300e000e2ff3a0000000600ef
:100560009102ba00055978008301e900f7ff3200d3
:10057000c82ade00055978008301e900f3ff320044
:100580000400e000f1ff320011d9ba00eeff37009d
:100590000c44040001000000a264040001000000fb
:1005a000ce63040001000000786704000100000031
:1005b000420b040001000000b60504000100000029
:1005c000ea05040001000000607a04000100000058
:1005d0000e7a040001000000007d0400010000000c
:1005e0009e8f040001000000608f040001000000e5
:1005f000d2800400010000006e80040001000000b1
:100600007482040001000000229504000100000033
:10061000ee94040001000000aa790400010000002b
:100620000a770400010000000c78040001000000bb
:100630000040da000000fe00889fbe008a9fbe00d6
:100640008c1f7800d7000700de00330003866c00a3
:100650006450e1002e0032006420e10033003200db
:100660006150e1002f0032006120e10031003200d2
:1006700085855500eb07b000090020000804200024
:10068000050037000804440089844c000a0031004a
:100690000603430087834b000001530081815b0008
:1006a000f8ff33000203be000800a0000804440065
:1006b00089844c00f6ff3900c639dd0083017300e0
:1006c00001003200130020008904d1000884d30007
:1006d0000998a300050032000800a7000300a0004d
:1006e0008904d1000884d3008b05e8008904d10077
:1006f0000884d3000001eb000281d2006e000700e5
:1007000001f0a1000cf0a70001f0a000b600370036
:100710006420e100b80032000801be000200be0003
:10072000f7ff37006120e100b30032006000b8003d
:10073000f3ff37000000200001f82700f0ff37002a
:10074000839f68000100e00002003d00600010008f
:10075000e08018000300e00002003d00600111008d
:10076000e0811900db0007004f00e00002003b00c1
:1007700060001000e0801800000006000001be00cc
:10078000730007000470a70003f0a1006509b10021
:10079000160032000d0035006828e1000600350023
:1007a000f0ff2f00f1ff27000300e00013003b00e3
:1007b0000100280000000500000040008180480082
:1007c0008502e900fcff3a0008003700f88f42007c
:1007d00002003c008000eb00000005008100d10019
:1007e0000080d3008502e800fcff3a000300e0002f
:1007f00002003b0060001000e080180000000600ce
:10080000881f7800010478000100e00005003d0029
:1008100060001000e080180002003b0001f02c0096
:10082000030037000400070008f0a70001f0a00053
:100830004f04780000000600889fbe008a9fbe001b
:10084000010578000000e000180032000004be003e
:100850006011b8006b0920000982cf000200390046
:100860000882cf000441b000694252000e003200fd
:1008700008003b0082817100610164008904d1009d
:100880000884d3008b05e8000442e800f9ff3a0031
:10089000050037000804440089844c008b05e900fa
:1008a0000442e900fbff3a00030007004f05be00c9
:1008b0004f04be000000060081002000618055004a
:1008c0000b003d000b00200061fe2f000100e10045
:1008d0001d00340082817100610164008904d1002f
:1008e0000884d3000000e800faff3a0071002000fd
:1008f0006100640003007000020060000900320023
:1009000061044400e0844c000988a5000500320021
:100910008b05e8006808e10002003a008904d10074
:100920000884d300f20f20000258e10005003d00ca
:10093000c75ddd00f907b200898075000800780006
:10094000000006000bf827008b007800000005006f
:10095000c70ade00f107b200f50fb200080032004e
:10096000e1cf4200020032000170a0002400050027
:10097000810f7000010032000408050044000500ea
:10098000810f700002003a00140005008502e900a2
:100990000000400081c04800fcff3b000170a00047
:1009a000240005000004be00e9ff07000003be00ac
:1009b0000405be000200be00e5ff0700844f75007d
:1009c000000006000200be006450e1000500360091
:1009d0006420e100020036000968a30001003a002b
:1009e0000800be000160a0004f0678004f05be0061
:1009f0004f04be0000000600f0ff2f00f1ff2700ab
:100a0000f9ff3700889fbe008a9fbe008c1f7800c8
:100a1000e4ff0700ebff330003866c006450e10045
:100a2000240032006420e100270032006150e10020
:100a3000220032006120e100210032008b8542005b
:100a4000eb07b1000134b800003ab80008044200d6
:100a500089844a00013ab8000030b800888040001c
:100a600009014a0004003300000040008180480072
:100a7000020149008b05e900c909dd00830170000e
:100a80000100320013002000c814de004814dd000d
:100a90004709de001200b200c808de0008847000ba
:100aa00085ff070001f0a1000cf0a70001f0a000f5
:100ab000cdff37006120e100cfff32000801be000a
:100ac0000200be00f7ff37006150e100fcff3a0072
:100ad000c9ff37006022b800060220000000d000e5
:100ae0008180d2000482d2008582d2000000a00062
:100af0000202520083825a000300310002024200c7
:100b000083824a000000a1000603e900f3ff3a00d7
:100b100000000600efff07000400be000000060012
:100b2000020ab900001bb9000200b80081004200af
:100b30008100430000000600e8874700889fbe0050
:100b40008a9fbe008c9fbe008e1f7800a1cf200020
:100b5000d2678000e00f51000b003a006481400032
:100b6000d267880022688800a10098001168880078
:100b7000214190000204a000a24098006141900031
:100b80000204a000e2409800670440004244de00f6
:100b90004244dd00106880004ed1200049cb210086
:100ba0008e84540026002000801f78001100090068
:100bb0008604d800000378004f0078008880e800a1
:100bc000818240008001eb006146b80074cb2100b7
:100bd0000e02520008024200010037000a007800ad
:100be000a0409000e1806000020032000a0037005f
:100bf0001208780010017800a2409000e1806000a7
:100c0000fbff320088004000810f510002003900d4
:100c1000e00f540049003d0010057800800f55009a
:100c2000eeff3e008e0f550003003900a1cf2000db
:100c3000810f5500e9ff390021688000810f5000c5
:100c40004f003a00a0cf2000800f55004c003a0022
:100c50008301e800e18f5100e0ff3600860f540069
:100c600002003600890f54000d0039006148b900b8
:100c7000b2ff2f00030020000000510081805900c6
:100c8000800f5600818f5e0007003d0011000900b3
:100c90000982d8000980b900800578000300370078
:100ca0008505780001003700880578000b00780082
:100cb00084bf9f00e5b79f00f6b79f004209070079
:100cc0000fba9700efb297007fb39700e10f400093
:100cd0002b003200216880008008780021688000a5
:100ce000e481400021419000830f50000200320057
:100cf0000204a000010037000204a100a2409800f5
:100d0000e48555008b0540000b0878002b688800af
:100d1000a1cf2000810d780022688000a2409000c1
:100d20000104a00021419800a04090000104a1000e
:100d3000214098008001eb00a8ff3700116888006f
:100d4000810f5100070036001101be003268880093
:100d50004368880090087800126880008000eb00eb
:100d6000214198001368800003087800a04090009b
:100d70000104a000214098006400400001003700f9
:100d80000000eb004f0778004f06be004f05be0085
:100d90004f04be008f00b100000006006400500048
:100da00010688800a04090000104a1002140980034
:100db00000000600889fbe008a9fbe008004780065
:100dc00001047800648154009205780069f9970065
:100dd000610161000200320009007800efff0700a6
:100de0000800780054ff070000047800e00f54006a
:100df0001b003200890f54001900320068bd9700b3
:100e00000805550042d5de00098055004280de000d
:100e10000a017800800f55000100360000017800bb
:100e20004211dd000800be0011000700890f5400c8
:100e30000b0031004255dd000a054400890f5500c2
:100e40000700360089045500c2ccde00c24cdd002c
:100e5000890444003068800041688000808cbe00b6
:100e6000080078004f05be004f04be0000000600d9
:100e70008001780002003700b15978000201e900d2
:100e8000e00f5100fcff3a00000006000c00fa00e1
:100e9000889fbe0000047800f0ff2700d0bf9f00ad
:100ea0008004eb0099bf9f0088bf9f00a8bf9f00f0
:100eb000200c2000b0bf9f0078815700cfb0970072
:100ec000708057006d0007000fb897000948780040
:100ed0008fb89700088050004f04be000080fa00d1
:100ee00000000600889fbe008a9fbe00d1c6b300e6
:100ef000e04f500025003d000040ea000004fb00e8
:100f0000814f50000b003400420620001100090000
:100f10000204d80001007800a90020001100090097
:100f20000900d800690040004300dd00aab5200098
:100f300023003700ea4f500011003400a2002000c7
:100f4000110009000204d800010478008000780034
:100f5000e9804000c308dd00a0b52000810040000a
:100f60004344dd00080040003002be002003be0004
:100f70005101be004100be00600a07003400370086
:100f80004344dd00a0b520002c0037000004fb0026
:100f9000814f50001c00340042062000110009005f
:100fa0000204d80001007800a90020001100090007
:100fb0000900d800690040004300dd00aaaa200013
:100fc000000045003002be002003be008b09200057
:100fd0008a8545003b00be002b01be00470a070082
:100fe000809fbe00110009000904d80001047800a8
:100ff0004f00be004344dd00080545003a02be0034
:101000002a03be00dcff3700ea4f5000090034001d
:10101000a2002000110009000204d8000104780099
:1010200080007800e9804000c308dd00a0aa20000d
:10103000caff37004344dd00a0aa20000804400096
:10104000180078009800900028019000b8019000e6
:1010500080037800010378008202780003027800a0
:101060000700780086007800050178008401780088
:101070004f05be004f04be0000000600ef03b000a5
:10108000889fbe008a9fbe008c9fbe008e1f780086
:10109000c0b79f00c1a79f00b2af9f000000eb0048
:1010a000a0b79f0087073700cfa097008100e80016
:1010b000c1a79f0055c2b30085cf550006003a0076
:1010c000810278008005eb0001c3b3000cc2b300bd
:1010d000b7c2b300130037004fb19700b2029000bf
:1010e0000504b20004003200920378008b4b7800b4
:1010f0000709e800070037008b02fb00cfb097001c
:10110000050078007b07070080027800e18f42002d
:101110006c073200afb197008301e800a3b79f00ce
:10112000680737008506780035477800d4c2b300d9
:10113000844f57000900320005003c008c4f5700d7
:1011400008003200874f57000c003a0007003700b4
:10115000814f570009003a00060037000b30a0000d
:10116000f0ff37000b00a000eeff37000b10a000cf
:10117000ecff37000b20a000eaff3700e283650098
:10118000010032000b00a100e8836500010032007d
:101190000b20a1008e03fb000703b100e98f530071
:1011a0000d003e008d037800020020006a10b90097
:1011b0003701fb000203b1000001410087067800ff
:1011c0001700fb000003b100e90f5000f7ff3600e5
:1011d000c2af9f000a0037000003eb00c6af9f00bc
:1011e000a5c2b300854f570005003a00bfab97007a
:1011f00047047800b7af9f00c8af9f008d06e80096
:10120000e5c2b3009dcf12001a003a000be0a00027
:10121000bbb79f000d077800e4c25200decf12007a
:10122000030032008e037800000020000a0037001f
:101230003fad9700ca057800baaf9f00dbaf9f00b3
:101240008e06e800ccc6b3003fb197000e00370011
:101250006a00b9000000410087067800b700fb0073
:1012600002fd2f0001014100e90f5100f8ff360097
:10127000030037000bc0a000bbb79f000000eb00cd
:10128000d0af9f00efff37000d00780030477800a7
:10129000800678008c4f57002e003200b2b79f00b6
:1012a000c0a79f00c5c6b300854f570014003c007f
:1012b0004bc6b3008b4f57002400320009003c009e
:1012c000f4c25200854f570032003200ebc2420098
:1012d000854f5700af003200e04f5700d1003a0071
:1012e000fd06370065c6b300854f57001f0032006a
:1012f000e3c24200854f5700ca003a00130037008e
:101300003bc7b3008b4f57002a00320007003c0058
:10131000f5c6b300854f5700190032008542e8003a
:10132000854f5700bf003a001a00370055c7b30079
:10133000854f5700c2003200e3c24200854f57007c
:10134000b8003a00ee779f0016003700ee779f0056
:10135000bf00370070006100010120000100320071
:101360000100280001017100c7ff3700ee779f00e0
:10137000bfb0970001a0a000b1b79f00b400370034
:10138000ee779f003fb197000260a000b2b79f00c8
:10139000af003700ee779f00bfb197000350a00069
:1013a000b3b79f003fb297000470a000b4b79f008e
:1013b000a7003700ee779f00bfaa97004507780087
:1013c000b5af9f00deb79f00e00f570002003a0064
:1013d000c7cc2000d7b79f00dfb397000007eb0012
:1013e000010037000e07e80067407f00e04f500023
:1013f000fcff3a000e047800e8b79f00dfac9700ce
:10140000e08f5400050032006fb597008a8f5400ba
:101410000200310089057800ebb79f00efb3970019
:101420000007eb004fa89700870f5000010036001f
:1014300007075000bfb09700688660002f003a0091
:101440008e0578000dc2b300afb497004fb497007b
:101450000e003700380090000004b2000400320093
:10146000180078000d487800000ce80005003700ef
:1014700088007800000220009e060700e10f40006f
:10148000010032008904e8008b05e900e08f550077
:10149000f0ff3a00a9b79f000087eb001700370064
:1014a0003d0090000004b200090032009d01780068
:1014b000080178003240780080497800830ee80007
:1014c00002047800e04f500008003a001000370096
:1014d000080178003200fb00020478008d007800db
:1014e00084060700e10f4000090032002fb1970089
:1014f0000201e800a2b79f00050037005fb4970023
:10150000efb497007fb597008fbd9700cfb69700d7
:10151000890378008704e900e08f5300e0ff3a0078
:10152000d8b79f00e9b79f00fab79f008bbf9f0015
:10153000870f5600630632008e0578000dc2b30097
:10154000afb497004fb497000e00370038009000fa
:101550000004b20004003200180078000d48780042
:10156000000ce80005003700880078000002200029
:1015700060060700e10f4000010032008904e80026
:101580008b05e900e08f5500f0ff3a00a9b79f00f6
:101590004c063700bfa8970041077800b1af9f0005
:1015a0000e027800cfa2de000503780086037800e3
:1015b000e4af9f00f5af9f0086b79f0097b79f00ed
:1015c0004822de00482cdd0004027400e4779f000e
:1015d000bfb49700708764000a003200e04f5200e9
:1015e00008003200e14f420006003200f4779f000d
:1015f0004fdd97008a7f9f002b002000ebb79f00f4
:10160000040037004fd89700f0779f0011002000aa
:10161000e1b79f0072fb2f0002814700d2b79f0005
:1016200076ff3700ee779f0063fb2f008381470032
:10163000d3b79f0014002000e4b79f006fff37006e
:10164000ee779f00bfb29700050cb300b5b79f00bf
:101650000e7020003fb397008e046300ac0332008d
:101660000e0021000e076300020032006700200018
:10167000d7af9f003fb497007007640009003200a5
:101680003faa97004401be004400be00b4af9f00d3
:10169000e0af9f00f1af9f0082b79f0093b79f001c
:1016a00015003700bfaa97004500be00b5af9f00e8
:1016b000150807008003780081047800020578008f
:1016c00007067800090478008a0678000307780086
:1016d0000c007800880078000d0178008e017800f9
:1016e0000004be000205be00e8af9f00f9af9f00f6
:1016f0008ab79f009bb79f006022b8006033b80094
:101700006fa89700ffa897000fb197009fb19700af
:101710004f070700e00f50000c003d006fa8970036
:10172000ffa897000fb197009fb1970003f0a200a8
:10173000e0af9f00f1af9f0082b79f0093b79f007b
:10174000bfb097003100b300b1b79f000007eb00b6
:10175000de9f9f006022b8006033b8006fa897003a
:10176000ffa897000fb197009fb197009c07070053
:101770008e0f5000470032006fa89700ffa8970017
:101780000fb197009fb19700d3080700a2fb2f006d
:101790000f014100560807005f9897000000e9001c
:1017a0006300b900a2002000811f78001100090029
:1017b0000200d800cf007800d09f9f008e0f50000d
:1017c00002003d000000e900d09f9f005f99970054
:1017d000d2b79f000240ea00c2fd07006faa97003f
:1017e000ffaa97000fb397009fb397004308070025
:1017f000b0a79f00a1a79f0092a79f0083a79f006b
:101800006022b8000600200007ff230001067800d0
:101810000207780083067800000478008c047800c2
:101820000e0578008d0578000800be000a01be0094
:1018300007070700e00f500003003d00dfb19700ed
:101840000307e900120037006022b80006002000fc
:10185000470224003fa097002fa697001fa79700dc
:101860008fa69700000478008c0478000e0578009d
:101870008d0578000800be000a01be00f9060700c9
:10188000e00f5000030035005fb297000407e80046
:10189000de9f9f00dfaa9700f88f520076003c0081
:1018a000854378000783fb00d6b79f00d0c6b300fe
:1018b00080cf53002a0036004b062000110009009b
:1018c0000b83d8008005780081067800f2854500fa
:1018d000c35cdd00acb52000890446006022b8007e
:1018e0000600200007fe23003900be002901be00cb
:1018f00002080700ae00200080037800811f7800f6
:10190000110009008e86d8008003fd00cf0078000a
:10191000e9834300c33bdd00870346003702be0076
:101920001703be00f50707000004be000205be0055
:10193000dfb39700801f78000103780011000900d1
:101940008e83d8000103fd004f0078004333dd0093
:10195000060346003602be001603be00180037001c
:10196000eacf530019003600aa0020005fb49700a8
:10197000110009000a84d8000003780001077800ec
:1019800069034300c335dd00adb520008b854600fb
:101990006022b8000600200007fe23003b00be00c6
:1019a0002b01be00d50707000004be000205be00e3
:1019b0004377dd000e8746003e02be002e03be00c8
:1019c0000800be000a01be0009003700dfb497001e
:1019d000434ddd00aeb520000a0747006022b80085
:1019e0000600200007fe23003e00be002e01be00c0
:1019f000c207070001077800800278000e06780011
:101a00008206780083037800050478008c0478004f
:101a10000d057800870578000802be000a03be00a5
:101a20006fa89700ffa897000fb197009fb197008c
:101a30000a06070080037800810478000205780018
:101a400007067800090478008a0678000307780002
:101a50000c007800880078000d0178008e01780075
:101a60000002be000203be00e4af9f00f5af9f007e
:101a700086b79f0097b79f00df9a9700d5b79f0062
:101a8000e98f520016003c006022b8006033b800b5
:101a90006fa89700ffa897000fb197009fb197001c
:101aa000cf060700e00f50004c0032006fa89700ef
:101ab000ffa897000fb197009fb19700310707006b
:101ac000e00f5000e08f5800e00f5900e08f590000
:101ad00042003a005fb39700e10f53003f0034002b
:101ae0000400200005002e00b6e0220017012400ab
:101af0003fa197002fa697009fa697000fa79700da
:101b0000020478008c0478000d0578008e057800ba
:101b10000800be000a01be004d060700e00f50009d
:101b200003003d00dfb397007380530002003700cd
:101b30005fb4970072005400d09f9f002f789700e9
:101b4000e8fc0700b0a79f00a1a79f0092a79f00f5
:101b500083a79f000006be00820378000307780079
:101b60000c04be00070578008e0578000802be0050
:101b70000a03be006fa89700ffa897000fb1970057
:101b80009fb197003c060700fe060700800378001f
:101b90008104780002057800870278000307780046
:101ba000050478008e0578000800be000a01be001a
:101bb000d0b79f00e1b79f00f2b79f0083bf9f009f
:101bc0008000eb00e1af9f00a1af9f00d1a79f0075
:101bd00001027800f49f9f001c0037006fa8970057
:101be000ffa897000fb197009fb19700e506070087
:101bf0000002be00d4b79f00e5b79f00f2b79f0078
:101c000083bf9f000400be000f0707000002be0054
:101c10000203be006fa89700ffa897000fb19700be
:101c20009fb19700aa070700800578000107780098
:101c3000ebaf9f008e037800a7af9f00d2a79f0055
:101c4000f39f9f000007eb00de9f9f0027c120004d
:101c50001bc0b300070478000c0037003800be003a
:101c60003801be005fb29700efb297007fb39700d4
:101c70008fbb97000020e10001a8e10002b0e10065
:101c800003b8e100030039008b45e800f4cf5500ac
:101c9000f2ff3a00eb779f00df9e9700cfaa9700f4
:101ca0008d8652005fab9700868656008b05fb0041
:101cb0008b855600cbaf9f00e00f5300020032002f
:101cc0008b05e900cbaf9f00bfb39700e3856300ae
:101cd000030032004fac97000804e900c8af9f0032
:101ce000bfb49700e48364004c003200e2836400d8
:101cf00061866400e08f53001b0032004fb59700ef
:101d0000ba0390000704b200090032009a03780079
:101d1000bec2b300e00f5600010032000ec7e8005b
:101d20008e4b7800cfb59700870de8000a0037008a
:101d3000bd022000870f5600010032008d86e800aa
:101d4000cfb097000d0078006a0407008003780088
:101d5000e18f4300280032002fb097000000e80018
:101d6000a0b79f0024003700870f560022003200e2
:101d7000cfb09700b10590000b04b200050032000f
:101d80009103780005c2b300854b78008708e8000e
:101d900006003700cfb0970000022000550407006e
:101da00080037800e18f4300130032002fb19700c9
:101db0000201e800a2b79f000f0037003800900032
:101dc0000004b20004003200180078000d487800ca
:101dd000000ce800050037008800780000032000b0
:101de00044040700e10f4000010032000a05e8004a
:101df0008904e900040037000dc3b300cfac97009d
:101e00002fb597004fb49700e08f5400ebff3c00d4
:101e1000c9af9f00aab79f00a2003700bfb19700cb
:101e2000e8856100878f550018003a000f003700e1
:101e3000380090000004b20004003200180078005e
:101e40000d487800000ce800050037008800780095
:101e50000002200027040700e10f400001003200cb
:101e60000a05e8008904e900040037000dc2b30048
:101e7000cfac97002fb597004fb49700e08f540078
:101e8000ebff3c00c9af9f00aab79f003fb297008d
:101e9000e203620061066200e08f53001b00320023
:101ea000cfb29700b50390000704b20009003200da
:101eb00095037800bec2b300e00f56000100320067
:101ec0000ec7e8008e4b78004fb39700070be80071
:101ed0000a003700bd022000870f560001003200c3
:101ee0008d86e800cfb097000d0078000104070050
:101ef00080037800e18f43006a003200afb397009f
:101f00008703e800a7b79f0066003700870f5600d9
:101f1000640032004fb49700b80590000b04b20083
:101f2000050032009803780005c2b300854b7800a5
:101f3000070ce80006003700cfb097000002200031
:101f4000ec03070080037800e18f43005500320066
:101f5000afb497008904e800a9b79f00510037008b
:101f6000bc0190000304b2000200fb00e08f5100ae
:101f7000270032001c077800bfb09700e08f5000a8
:101f800008003d004300dd00008046003002be0036
:101f90002003be000800be000a01be00b60707000d
:101fa0000f0037005fb19700e00f510006003200cc
:101fb0004300dd00008046001001be000800be00a6
:101fc000c4fa0700060037004300dd006d01780009
:101fd000811f7800110009000284d800cf0078002a
:101fe000a2002000811f7800110009000200d80023
:101ff00001007800cf0078000043b000004f780067
:102000000e0ee800e04f500022003a002e0037008c
:102010003fb29700830f520008003d004300dd00ef
:10202000008046003002be002003be000800be0053
:102030000a01be00900707000d003700dfb29700cd
:10204000e08f5200060032004300dd0000804600b1
:102050001001be000800be009efa07000400370011
:102060004300dd006d017800110009000284d800f2
:10207000a2002000110009000200d8000100780031
:102080000003b0008c0078009a030700e10f4000c5
:102090000d0032002fb397000603e800a6b79f009b
:1020a00009003700bfb3970070866300adc0200001
:1020b0005fb49700efb497007fb597008fbd97008e
:1020c000dcb79f004fb697006f7097000041e900a2
:1020d000e2779f00e04f5000a1ff3a001100370067
:1020e000380090000004b2000400320018007800ac
:1020f0000a487800000ce8000500370088007800e6
:10210000000320007b030700e10f400001003200c4
:102110008904e8005f9897000000e900d09f9f00c5
:10212000030037000ac3b300afb497004fb4970061
:102130005f989700e00f5000e9ff3c00a9b79f00af
:102140005fac9700f20f5400030034002701200019
:10215000e7779f0002003700afdc9700e9779f0028
:102160006f7797008e03fb005fad970087035500e4
:10217000d7af9f00e04f570011003200cfb5970056
:10218000bb0390000704b200050032001b05780075
:10219000e5c2b300054d78008a0de8000500370060
:1021a000cfb09700e002200052030700e10f40008b
:1021b000030032002fb097000000e800a0b79f0096
:1021c0006f70970047fb07000002be000203be00cd
:1021d000efae97002fae9700dfa497007f9d97008a
:1021e0000d0078008c007800090178008a017800e1
:1021f000c205070063050700000678008104780027
:10220000020578008c027800030778000504780046
:102210008e0578000802be000a03be00d4b79f00f6
:10222000e5b79f00f6b79f0087bf9f00bfb297003a
:1022300070826200850678004fb697000407780028
:102240007a0037008401fb00e08f56000b003d0050
:10225000c319dd00a6c02000830143003302be0085
:102260002303be005fb09700efb097007fb19700e7
:102270008fb997000007070009003700e00f5700eb
:1022800009003200c319dd00a7c02000838143008c
:102290001301be005fb09700efb097000dfa070082
:1022a0000004780009003700c319dd00a9c0200030
:1022b000698479005fb59700809fbe001100090016
:1022c0000885d800000478004f00be00bc019000d3
:1022d0000304b200080032001c0278000bc3b300f4
:1022e0008b414400034a7800040ee800e0cf51001f
:1022f00009003a000b0037000303200088814100e9
:102300008c00780003007800fa0207008001780052
:10231000e18f4100030032002fb097000000e80079
:10232000a0b79f00ef7097008101fb00e08f56007f
:1023300014003d00cfc4de00090578008a0578004e
:10234000c319dd00a2c02000830141003302be009a
:102350002303be000800be000a01be0042070700ba
:102360005fb29700efb297007fb397008fbb9700e3
:102370000002520081825a0002035b0083835b00eb
:102380001e003700e00f570012003200cfc4de00fd
:10239000c319dd00a5c02000838142001301be00e7
:1023a0000800be00def907005fb39700efb39700a7
:1023b0000001530081815b00e2a79f00f3a79f000b
:1023c0008004eb0089af9f000005eb009aaf9f00ef
:1023d0000e003700c319dd00abc02000eb8179008f
:1023e00003c0b9005fb197000000510000027800ff
:1023f000050020000600200007002000e4a79f0041
:10240000f5a79f0086af9f0097af9f006fa497002e
:10241000ffa497000fad97009fad9700d8b79f001e
:10242000e9b79f00fab79f008bbf9f00ef7197003d
:102430000342e900e4779f00e0cf510081ff3a00ba
:102440000f003700380090000004b2000400320092
:10245000180078000e487800000ce80005003700ee
:102460008800780000032000a2020700e10f40006e
:10247000010032000a05e8008904e9000400370081
:102480000ec3b300dfac97002fb597004fb4970091
:10249000e08f5400ebff3a00d9af9f00aab79f002e
:1024a000bfb49700e88264005fad97008a8f520046
:1024b00084023200cfad9700e08f550081023400d6
:1024c0000ec2b3008b0478002fb597004fb497006d
:1024d000380090000004b2000400320018007800b8
:1024e0000e487800000ce8000500370088007800ee
:1024f000000220007f020700e10f400001003200cf
:102500000a05e8008904e900f1ff3a006c0237008f
:102510003fb597000a0cb200890f550045003a00fc
:102520003fb097008a0f500005003d003fac970078
:102530004803be004802be00b8af9f00120037003b
:10254000bfb49700f08364008a8f530013003200f9
:102550003fa897004005be00b0af9f001007900055
:102560004ff7de008a0278000b0678008e037800b1
:10257000050478008c0478000e0578008705780043
:102580000802be000a03be00d4b79f00e5b79f0053
:10259000f6b79f0087bf9f000b003700bfaa9700c8
:1025a00045047800b5af9f0008007800cf80de00ba
:1025b0000101780082017800d0b79f00e1b79f0049
:1025c000f2b79f0083bf9f005fb29700efb2970002
:1025d0007fb397008fbb9700e00f5200e08f5a0047
:1025e000e00f5b00e08f5b003a003d00bfb2970058
:1025f0003500b300b5b79f006022b8006033b80063
:102600005fb49700efb497007fb597008fbd970038
:102610000804520089845a000a055b008b855b0020
:10262000d8b79f00e9b79f00fab79f008bbf9f0004
:10263000280037003fb59700e00f550005003d002a
:102640003faa97004401be004400be00b4af9f0003
:1026500010003700bfb29700f08362001200320012
:102660003fac97004803be00b8af9f0086027800d9
:1026700007067800090778008906780005047800c5
:102680008c0478000e0578008d0578000800be00e7
:102690000a01be00d0b79f00e1b79f00f2b79f00cc
:1026a00083bf9f000b003700bfa89700410478004c
:1026b000b1af9f000802780005002000060020004e
:1026c00007002000d4b79f00e5b79f00f6b79f0032
:1026d00087bf9f00dfaa9700e08f52000d003a00ed
:1026e00016002000d6af9f005fb49700efb49700ac
:1026f0007fb597008fbd9700e00f5400e08f5c001e
:10270000e00f5d00e08f5d00020032008004eb000e
:10271000d9af9f003fb597000a0cb200eaaf9f0007
:102720000e0420008e0f55003400320003003c00e0
:10273000e00f550049003a00070037000708200065
:10274000efad9700878f550014003200070c200072
:10275000878f550041003a0027c120001ec0b300fa
:102760003700be003701be005fb49700efb497009a
:102770007fb597008fbd97000040e10001c8e100e0
:1027800002d0e10003d8e100330039000e47e80031
:10279000f44f5700f2ff3a002f0037001ec0b3007d
:1027a00000012000010020006011b8005fb2970016
:1027b000efb297007fb397008fbb97000020e10036
:1027c00001a8e10002b0e10003b8e10022003900f5
:1027d000450020000000d0008180d2000281d2009c
:1027e0008381d2008502e900faff3a000e47e80033
:1027f000f04f5700edff3a00170037001ec0b3003e
:1028000080002000010020006011b8005fb4970034
:10281000efb497007fb597008fbd97000040e100af
:1028200001c8e10002d0e10003d8e1000a0039004c
:10283000390020000000d0008180d2000281d20047
:102840008381d2008904e900faff3a000e47e800cc
:10285000f54f5700edff3a00ee779f006f75970038
:102860000a07fb00dfad97008b0f570002003d0009
:10287000eb779f00050037005fa897008e0f500090
:1028800002003d008e007800d1af9f004fa9970055
:10289000e00f510005003200bfb19700e3836100f3
:1028a000020032000201e900c2af9f0007002400cd
:1028b0003fb297008703620009003200cfaa970059
:1028c0005fab9700868f520003003400868252006f
:1028d000c5af9f00020037008003eb00c7af9f0029
:1028e0006f7497000807fb008004eb00a9af9f00fe
:1028f0004fad97008e0f5500020034008e05550035
:10290000abaf9f003fb09700e40560004c00320081
:10291000e205600061076000e08f55001b00320097
:10292000cfb09700b10590000b04b200090032004f
:1029300091067800bbc2b300e00f570001003200df
:102940008bc5e8008b4e78004fb197000d09e80069
:102950000a003700bd0220008b0f57000100320033
:102960008d86e800cfb097000d0078006101070068
:1029700080027800e18f420018003200afb197006a
:102980008301e800a3b79f00140037008b0f5700a6
:10299000120032004fb29700b40390000704b20057
:1029a000050032009405780005c2b300854d78001b
:1029b0000b0ae80006003700cfb0970000022000a5
:1029c0004c01070080027800e18f420003003200d2
:1029d000afb297008502e800a5b79f002fab970024
:1029e000e00f5300650032000dc3b3008604780089
:1029f0002fb597004fb49700380090000004b20044
:102a000004003200180078000d487800000ce8003f
:102a1000050037008800780000032000350107001a
:102a2000e10f4000010032000a05e8008904e900d6
:102a3000f1ff3a00a9af9f00aab79f004f003700ef
:102a4000afab97008b8f5300180032003fb4970054
:102a5000e803640015003a000dc2b300afac970064
:102a60002fb597004fb49700380090000004b200d3
:102a700004003200180078000d487800000ce800cf
:102a800005003700880078000002200019010700c7
:102a9000e10f4000010032000a05e8008904e90066
:102aa000f1ff3a00a9af9f00aab79f00bfb49700fb
:102ab000e285640061876400e08f55001b003200ee
:102ac0004fb59700ba0590000b04b2000900320020
:102ad0009a067800bbc2b300e00f57000100320035
:102ae0008bc5e8008b4e7800cfb597008d0de800c0
:102af0000a003700bd0220008b0f57000100320092
:102b00008d86e800cfb097000d007800f90007002f
:102b100080027800e18f4200180032002fb0970049
:102b20000000e800a0b79f00140037008b0f57008b
:102b300012003200cfb09700b10390000704b2003a
:102b4000050032009105780005c2b300854d78007c
:102b50008b08e80006003700cfb097000002200085
:102b6000e400070080027800e18f42000300320099
:102b70002fb197000201e800a2b79f00dfa99700dc
:102b80008305e900425add00c4af9f00635eb900cf
:102b90008c027800d5a79f00c35ddd00a7c0200090
:102ba000878545003fb3970070036300f69f9f0041
:102bb000bfb397000702b200e79f9f000b077800a2
:102bc000a20037005fac97000804e900d8af9f006f
:102bd000efac97000a0420008a8f54007100320085
:102be00003003c00e08f54007d003a0007003700ee
:102bf00000082000efad9700808f5500550032008f
:102c0000000c2000808f550075003a003fb09700ff
:102c1000e00f50001f003d003e02be002e03be002c
:102c20005fb09700efb097007fb197008fb9970022
:102c30009104070000047800e8779f000804fb0077
:102c4000cfc4de00090578008a0578003e02be0088
:102c50002e03be000800be000a01be0002050700e8
:102c60005fb49700efb497007fb597008fbd9700d2
:102c70000004540081845c0002055d0083855d00d2
:102c8000d8b79f00e9b79f00fab79f008bbf9f009e
:102c90002c003700ff9c9700e08f54001c0032008e
:102ca0005fb69700efb697003e04be002e05be004b
:102cb0000801be000c00be0086f70700e0779f0009
:102cc0000000fb00cf80de000801be0094f7070083
:102cd0000000560081805e008003780001037800c8
:102ce0000002eb00070078008600780004017800fd
:102cf000840178000203be000002be00d4b79f002a
:102d0000e5b79f00f6b79f0087bf9f000d00370013
:102d10009e047800dfb29700811f7800110009003f
:102d20008982d800cf007800a2002000811f78009f
:102d3000110009000280d80001007800cf0078005f
:102d4000e0779f006f7397000643b000e6779f001f
:102d500023003700b4cb2000ef9b9700e08f530097
:102d600001003200a4ca20005fb09700efb09700c6
:102d70007fb197008fb997004fac97000804e90026
:102d8000050033008301d1000281d3008180d3008c
:102d90000080d300f9ff37006f00600064407800c6
:102da0000e0037005fb09700efb097007fb197003b
:102db0008fb99700dfa497008904e900050033006c
:102dc0008301d1000281d3008180d3000080d30031
:102dd000f9ff3700674060000043b000e0779f00d4
:102de0004fb597003a0090000004b200070032008f
:102df0001a0178006f70970000497800020de80012
:102e0000e04f500007003a0009003700ef759700c7
:102e10000b00fb00cfb0970036000700e10f400029
:102e2000030032002fb097000000e800a0b79f0019
:102e3000cfa89700e4805000c1af9f005fa197002a
:102e400063015100d2a79f0068075700dfa99700d0
:102e5000e08f51005bff3a003fb29700e80262004a
:102e6000838f520017003200afaa9700e08f520004
:102e7000140034000bc2b300850478002fb597000e
:102e80004fb49700380090000004b20004003200f4
:102e9000180078000b487800000ce80005003700a7
:102ea000880078000002200012000700e10f4000b7
:102eb000010032000a05e8008904e900f1ff3a0048
:102ec000aab79f004fa3970096457800eb779f0025
:102ed000e0cf550074f83a002fb097004f07780004
:102ee0004f06be004f05be004f04be00ef03b10009
:102ef00000000600889fbe0001047800b800900022
:102f0000628160008084eb003c0032008101780027
:102f10000320b2001801900002003a00830f510014
:102f200036003a000190a000310498008004780037
:102f3000f90fb200e00f510002003a0028009000a3
:102f4000000c7800ea8f540006003a000100780077
:102f50000008b20003003a0088007800d00020008a
:102f6000e4ff070018009000d8009000810f500087
:102f70000b0032000000e8001004980018007800f0
:102f800009487800000ce80010c0b300a1d0200070
:102f900080487800ea8f540018003a000500370096
:102fa0008800780009407800170007008004780046
:102fb00012003700380090000010b2000f003200fd
:102fc00018019000a8009000480090004f000700f2
:102fd00098009000810f50000400320038009000eb
:102fe0000003b300300498008084eb000000eb0085
:102ff0001004980028009000000c78000900780068
:103000004f04be00000006000200fa00889fbe00c8
:10301000a0ff9f00010478003800900000017800b4
:103020000204b20034003a00e2006000828f5000d7
:1030300005003a000003b300300498001104980022
:103040000080eb002e003700d8049000e08f540081
:1030500006003a0012002000e68057004800900069
:103060002a0007001904980023003700a8009000e8
:10307000e08f500008003a00d1d0200021049800d1
:10308000010c7800210020005104980011049800e0
:103090000030a0003004980018019000a8009000b3
:1030a0004800900019000700280090008080eb0085
:1030b00011049800aff8970001487800000ce80070
:1030c0002ff89700ea4f50000b003a0038009000ac
:1030d0000010b2000800320018019000a800900013
:1030e00048009000090007000000eb001004980061
:1030f000a8009000010c7800aff897000100fb00d9
:103100004f04be000080fa00000006000a00fa002a
:10311000e20f500021003e0080688000e10f500067
:1031200006003200852320004423200023232000b2
:1031300000232000e08f520004003a008522200086
:103140004422200023222000002220000600280024
:103150009003630002003a00870a780010087300a9
:10316000004020001300600001003a0013a0a000fe
:103170000200780006003700930278000510b200c4
:10318000fdff3200b102fb00050a78000000e900f3
:10319000e00f5000f8ff3a0008003700330020002d
:1031a000b3bf9f00c0bf9f00d1bf9f00e2bf9f0081
:1031b0006a80570000c0da006fb9970002007800fb
:1031c0000080fa0000000600889fbe008a1f780079
:1031d0000005780099688000e08f540005003a00ef
:1031e000090078000f0007000084eb00890f5000f1
:1031f0000800350098688000e00f55000500320097
:103200000a00440007000700e00f500001003d00e5
:103210000084eb00080078004f0578004f04be00e2
:1032200000000600e00f500004003a0041d12000e9
:103230009168880080007800060037008080eb00ed
:1032400042cb2100820f500002003e0090688800af
:103250008000eb0001007800000006002800fa0062
:10326000889fbe008a9fbe008c9fbe000706780024
:10327000878669000c003b0003047800870478000f
:1032800008f0a10009f0a100840f5000858f5800bc
:10329000860f5900890f5c00030033000cf0a20078
:1032a00001003a000cf0a100fe0007006400e100fc
:1032b0005f003200780147006408e10061003200dd
:1032c0006c014700748557003200be001201be0039
:1032d0003a04be001a05be001e039000be0a90000c
:1032e0008503530006003d000004fd008104fd003d
:1032f0000205fd008305fd008703ea000503780051
:103300000df8a3000400320060041400e0841c00e7
:1033100060051d00e0851d006022b8007d032000cf
:103320000d38e1008006eb000b0039004433dd006e
:10333000f300b20083017300390037008482720009
:103340000d027800e10664008b85d1000a85d30068
:103350008984d3000884d3008703e900f7ff3b008a
:1033600008004000898048000a0149008b8149001b
:1033700004003b0060001000e080180060011900ac
:10338000e08119000358a300090032008d82720009
:1033900084827200610260008301d1000281d30047
:1033a0008180d3000080d3000603e8001b003700b3
:1033b0000348a30017003a000600e000170034009d
:1033c0000603e9000d00a3000000480081804800ca
:1033d00002014900838149000348a3000f003a001d
:1033e0000600e000090034000603e9000000400088
:1033f00081804800020149008381490001003a00b0
:103400000003eb000348a300f5ff32006022b80080
:103410000200370084827200618266007500070036
:1034200003f0a1000cf0a70003f0a000b1003700ea
:10343000640147006408e10002003a000df8a300af
:10344000a9003a003200be001201be00a9003700f8
:103450008f1fd1003e0307008f87e9000000e000c6
:1034600000000600809feb00390307008f87e9000a
:103470000000e000000006002800fa00889fbe005f
:103480008a9fbe008c9fbe0003866b0085000700ec
:103490006400e100440032006408e1004a003200a8
:1034a0006100e100460032006108e100490032009d
:1034b000ec0647006000b8003d02be003d03be00c0
:1034c000f48657006011b8003d04be003d05be0003
:1034d0007d0320000b0037000000a0008d06e900ee
:1034e000130032000402420085824a0006034b00aa
:1034f00087834b00000040008180480002014900a2
:10350000838149000802520089825a000a035b0045
:103510008b835b00f0ff3b000802420089824a0077
:103520000a034b008b834b008d06e900edff3a0048
:103530008482720086827200f707b200878272006e
:1035400001003200150020001e0490003e0b900088
:1035500006035400e63fb0000368a30007003200f2
:103560000000a7000500a0008301d1000281d30064
:103570008180d3000080d3000603e8008301d100de
:103580000281d3008180d3000080d3000002eb00d1
:103590000482d2001700070003f0a1000cf0a7007e
:1035a00003f0a00053003700640247006408e10004
:1035b0004d0032003400be003401be00f6ff37007b
:1035c0006108e100480032006011b8006000b800f6
:1035d000f1ff370003ff270002002000fbff370048
:1035e000801feb00da0207008f87e9000000e0008f
:1035f00000000600180020005700200008045300b7
:103600000d003d000600200097fc2f000740e10060
:103610001e00340084827200610260008301d100c8
:103620000281d3008180d3000080d3000804e80029
:10363000f8ff3a00470020006104600005047400b0
:10364000040464000d00320061004000e080480086
:1036500060014900e081490003b8a500070032007d
:103660000603e8006538e10004003a008301d10058
:103670000281d3008180d3000080d300f87f200036
:103680000830e10003003500080378006000b8004e
:103690006011b8004433dd00f300b2008301730011
:1036a00000000600680447000294be000094be00bb
:1036b000fc0447008694be008494be000900780094
:1036c000ec02070008007800ea0207009900780081
:1036d000814f70000b003b000800be00c5020700d0
:1036e0004f00b10003003700f3ff2700f2ff2f0067
:1036f0006110b9004f06be004f05be004f04be006a
:103700000080fa00000006008103780090f40700b2
:103710000001be006000b8000478a30013003a0066
:103720006220e10015003e000d0039008301d10048
:103730000281d3008180d3008301d1000281d300b4
:103740008180d3008301d1000281d3008180d30026
:103750000538b000c42add00f300b2008381720096
:1037600007f0a70003f0a00000000600f3ff270009
:10377000f2ff2f006110b900fbff370003ff2700a5
:10378000f7ff37001400fa00889fbe008a9fbe0032
:103790008c9fbe000004be000205be00680047000a
:1037a0000a90be000890be00b20207000070a70099
:1037b0000bf0a1000bf8a30020003a009e09900036
:1037c0000e099000fe0090006e0090009e02900096
:1037d0003443200084825200c6ff32000a003c00bd
:1037e000b4fc2f000428e100140034008301d10050
:1037f0000281d3008180d3000080d3008502e800dd
:10380000faff3a00bbff3700b40020000428e100b3
:1038100007003c0000004000818048000201490090
:10382000838149008502e900faff3a00b1ff3700c1
:103830000300280002002000010037006011b800da
:103840006000b800abff3700889fbe0000827000a8
:10385000040271002400320036432000c50020001d
:103860008383cf000a0039000541b1008283cf0075
:10387000070039000541b1008183cf000400390001
:103880000541b1008083cf00010039000541b1003e
:1038900085c353006022b800120032000a003b00ca
:1038a00084827200610260008301d1000281d30032
:1038b0008180d3000080d3000603e8008743e8003e
:1038c000f7ff3a0007003700000040008180480001
:1038d00002014900838149000603e9008743e900aa
:1038e000f9ff3a0043ff07004f04be000000060046
:1038f0000a02070005097800000006002800fa0007
:10390000889fbe008a9fbe008c9fbe0003866b000e
:1039100064ff07000028a30064003a000128a30008
:1039200067003a000008a30062003a000108a30003
:1039300065003a001e009000be089000810640001d
:10394000ed3fb100f4805700ee019000111ab8006d
:103950008e099000311bb8009e099000311cb80000
:10396000511db800f485570046000700fe01900085
:103970003a0007008b85e8003e0007008e099000a2
:1039800040000700ee019000340007008b85e8003e
:10399000380007008e099000400007009e09900043
:1039a0001b18b800890440000a854800fe019000f9
:1039b000340007008b85e80038000700ee01900016
:1039c000300007008e0990001b18b80089044000e1
:1039d0000a8548000a98a30008003a000402420041
:1039e00085824a0006034b0087834b0008044c0085
:1039f00089844c000a054d008d06e900848272001e
:103a0000850273004c3add0085027200010032002d
:103a100015002000443ade001400b2004538de00f4
:103a2000cb45dd000b007000c540de00cb4ddd0056
:103a30008b8070004549de00cb55dd000b01710025
:103a4000c551de000d037800eafe070003f0a10077
:103a50000cf0a70003f0a00026ff37001b18b800e9
:103a60008502400006834800e0834b0060044c0060
:103a7000070037001b18b800060340008783480082
:103a8000faff37001b18b80087034000088448007d
:103a9000e0844c0060054d00000006001b18b800d3
:103aa0000804400089844800faff37000108a30099
:103ab0000dff3a005800be005801be00e3ff37007a
:103ac0000008a30008ff3a0009047800f9ff370056
:103ad00007f0a200e1fd37001400fa00889fbe0045
:103ae0008a9fbe008c9fbe000005be000206be007d
:103af000680047000c90be000a90be00dd01070080
:103b00006400e1001a00320016003e006100e1008e
:103b10001a0032006e049000fe0490000e0b90001c
:103b20009e0b90006011b8009e0590000b38b1000c
:103b3000d501200082817100610164008703d100fa
:103b40000683d3008984d3000884d3008502e9006a
:103b5000f8ff3a0058f307000df0a70001f0a000ad
:103b6000e4fe3700f1ff2700f0ff2f00e1fe3700f1
:103b700001f8270000002000f7ff37006000b800c0
:103b8000f5ff37000800fa00889fbe008a9fbe003c
:103b900084bf9f0095bf9f00a6bf9f00b7bf9f0037
:103ba0003004be002005be000fba97009fba9700f0
:103bb0002fbb9700bfbb97000404440085844c00d2
:103bc00006054d0087854d000898be000a90be008e
:103bd0000440e10005c8e10006d0e10007d8e1009b
:103be00002003100680040001008e8004f05be00e8
:103bf0004f04be000080fa0000000600fe87470068
:103c0000889fbe008a9fbe008c9fbe008e1f7800da
:103c1000d0b79f00e1b79f00f2b79f0083bf9f001e
:103c200084b79f0095b79f00a6b79f00b7b79f00c6
:103c30008000eb00f1af9f00e1af9f00d1af9f008c
:103c4000c1af9f00b1af9f00010678000d042000b6
:103c5000ccb79f000605be000404be007fae9700ef
:103c60006faf97005fa89700e00f56000f003d0070
:103c7000cf71de000c01460002817100f2af9f009f
:103c80005d0007004f20de00818040008100700051
:103c9000640007000802be000a03be0060fd2f009a
:103ca0000f004000b7ff07001d003700520007005b
:103cb0004f21de0081804000810071005900070023
:103cc0003faa9700cfaa97005fab9700efab970092
:103cd0000800520089805a000a015b008b815b005a
:103ce000b0af9f00c1af9f00d2af9f00e3af9f0076
:103cf0004f70de000c01460002007000130020002f
:103d00000820e10009a8e1000ab0e1000bb8e100d9
:103d1000010039008001eb0003005000f0af9f006c
:103d20007fae9700e00f56000f0035001000200016
:103d3000010020006011b8005fb29700efb2970059
:103d40007fb397008fbb97000402700085827000dc
:103d50000603710087837100d4b79f00e5b79f0009
:103d6000f6b79f0087bf9f00cfb297008502e8009b
:103d7000c5b79f008d8f5200b8ff3a000c01780044
:103d8000e00f510007003d000fb297009fb297006f
:103d90002fb39700bfb3970060fd2f000f004000c6
:103da00078ff0700ffa09700e08f500008003a005e
:103db0003fac9700cfac97005fad9700efad970099
:103dc000d8b79f00e9b79f00fab79f008bbf9f004d
:103dd0005fb09700efb097007fb197008fb9970061
:103de0004f0778004f06be004f05be004f04be00cf
:103df000ef01b100000006004f01de008e00470019
:103e000081007100c1af9f00afa897004f09de008d
:103e10000000400000007100b0af9f001faa970093
:103e200000000600a1af9f000e0007004f18de0043
:103e3000040242000002720094af9f0009000700d4
:103e40000000400081804800020149008381490050
:103e5000b0b79f00c1b79f00d2b79f00e3b79f00e4
:103e6000000006001fb09700afb097003fb1970069
:103e7000cfb1970000000600881f780018002000ce
:103e8000881f78005dff07008f87e9004f047800e6
:103e900000000600801feb0058ff07008f87e90035
:103ea00000000600889fbe008a9fbe008c1f78001d
:103eb0006044b8006055b8000800e1000988e100de
:103ec0000a90e1000b98e1000d003d000000540055
:103ed00081805c0002015d0083815d001c00200088
:103ee0000820e10009a8e1000ab0e1000bb8e100f8
:103ef0000b003d00210007000006eb000800370022
:103f00000006eb00e00f5200e08f5a00e00f5b006c
:103f1000e08f5b0002003d00180007001c0020003d
:103f2000d5ff07008005780001057800820478003d
:103f3000030478000b0278008a02780009037800f5
:103f400088037800e00f5600060032006000b800d9
:103f50006011b80004025000858258000603590021
:103f6000878359000400be000601be004f0678009a
:103f70004f05be004f04be000000060004025400be
:103f800085825c0006035d0087835d0000000600fb
:103f9000889fbe008a9fbe008c1f78006044b800d6
:103fa0006055b8000800e1000988e1000a90e100ce
:103fb0000b98e1000b003d000000540081805c0084
:103fc00002015d0083815d001c0020000820e100eb
:103fd00009a8e1000ab0e1000bb8e1000b003d00c8
:103fe000060037000006eb00e00f5200e08f5a0099
:103ff000e00f5b00e08f5b0004003d000402540012
:1040000085825c0006035d0087835d00a1ff0700d9
:1040100080057800010578008204780003047800a8
:104020000b0278008a027800090378008803780080
:10403000e00f5600060032006000b8006011b800c2
:1040400004025000858258000603590087835900f6
:104050000400be000601be004f0678004f05be00fa
:104060004f04be0000000600889fbe008a9fbe006d
:104070008c1f78000006eb00e00f5000e08f580026
:10408000e00f5900e08f590007003d006044b80080
:104090006055b8000000540081805c0002015d00a2
:1040a00083815d001c002000e00f5200e08f5a0069
:1040b000e00f5b00e08f5b0007003d006044b8004c
:1040c0006055b8000402540085825c0006035d0060
:1040d00087835d000c00a2008d0007000203be0074
:1040e0000002be00e00f5600060032006000b8007b
:1040f0006011b80004025000858258000603590080
:10410000878359000400be000601be004f067800f8
:104110004f05be004f04be00000006000003be00b5
:104120000bf207006220e100020032000600be0030
:1041300005000500e507b100f107b20004f0230017
:104140008480700007f0a70001f0a00024000500a3
:10415000889fbe008a9fbe008c9fbe000404be00e4
:104160000605be00809fbe00829fbe002f00070094
:10417000040678000800be000a01be002b000700fc
:10418000840678004f03be004f02be008d4f7600bc
:104190007fb0970013003300f0ff2f008b8f6b0070
:1041a00006003b000d0666000c00a7000a00370061
:1041b00007f0a600100020000a003700880f520008
:1041c000898f5a008a0f5b008b8f5b0003003900d8
:1041d0001000200001003e000000200007f0a700b2
:1041e0000000ea004f06be004f05be004f04be00af
:1041f00000000600e48240001078a30007003200af
:10420000640240001178a3003400be001401be0017
:10421000040032000330a700000006003500be0095
:104220001501be000330a0000000060005ff2700b6
:1042300005826100070032000428e100010032001d
:10424000240005000600070001003a0044000500b4
:104250000408050002000700f9ff3a0014000500f9
:104260006f82610081027000850271008502720018
:1042700000000600800078005002be005003be001f
:104280004439de00f700b200f37f20000301610033
:10429000090032000218e10016003a0085017200a0
:1042a00083017300838173000008200015003a0029
:1042b0004000200013003700850172008301730065
:1042c0008381730005003a0004a8be0006a8be0062
:1042d000100020000b0037000201e9000402420038
:1042e00085824a0006034b0087834b000748a300e2
:1042f000f9ff32000740a00004a8be0006a8be00d7
:104300002000200080009800920098000000060025
:10431000889fbe008a9fbe008c9fbe000404b80028
:104320000506b8008904460060854e000606b80000
:104330000a054600e0854e000706b8008b054600da
:10434000040eb800890446000a854e00e0854d0041
:10435000050eb8000a0546008b854e00060eb80013
:104360008b0546000416b8000a0546008b854e00f2
:104370000516b8008b054600041eb8008b054600e4
:104380000800be000a01be004f06be004f05be0079
:084390004f04be00000006000e
:020000040000fa
:104398000000000030000000390000004800000064
:1043a80022300000000000002298000001000000f8
:1043b8002200000003000000226800000400000042
:1043c80022d000000500000022380000070000008d
:1043d80022a0000008000000220800000a000000d7
:1043e800227000000b00000022d800000c00000022
:1043f80000000000000000000000000000000000b5
:1044080000000000000000000000000000000000a4
:104418000000000000000000000000000000000094
:104428000000000000000000000000000000000084
:104438000000000000000000000000000000000074
:104448000000000000000000000000000000000064
:104458000000000000000000000000000000000054
:10446800000000000000000000e000001f00000045
:1044780000000000fc7f00000000000000fe0000bb
:10448800ff01000000800000ffff000003000000a3
:1044980080ff0000ff07000000c00000ffff0000d1
:1044a8000f000000e0ff0000ff1f000000e0000018
:1044b800fffc00001f000000f03f0000f03f00007c
:1044c80000f000001fe000003f000000f01f0000a7
:1044d800e03f000000f800000fe000007f0000004f
:1044e800f80f0000c07f000000f800000fc00000b7
:1044f8007f000000f80f0000c07f000000fc0000f3
:104508000fc000007f000000fc0f0000c0ff00008b
:1045180000fc000007800000ff000000fc0700000e
:1045280080ff000000fc000007800000ff00000082
:10453800fc07000080ff000000fc0000078000006e
:10454800ff000000fc07000080ff000000fc0000e6
:1045580007800000ff000000fc07000080ff00004b
:1045680000fc000007800000ff000000fc070000be
:1045780080ff000000fc000007800000ff00000032
:10458800fc07000080ff000000fc00000fc00000d6
:10459800ff000000f80f0000c0ff000000f8000056
:1045a8000fc000007f000000f80f0000c07f00006f
:1045b80000f800000fc000007f000000f80f0000a6
:1045c800e07f000000f000001fe000003f00000056
:1045d800f01f0000e03f000000f000003ff0000086
:1045e8003f000000e0ff0000fc1f000000e00000aa
:1045f800ffff00001f000000c0ff0000ff0f0000c9
:1046080000800000ffff00000700000000ff00001e
:10461800ff03000000000000feff00000100000092
:1046280000fc0000ff00000000000000e01f000088
:104638000000000000000000000000000000000072
:104648000000000000000000000000000000000062
:104658000000000000000000000000000000000052
:104668000000000000000000000000000000000042
:104678000000000000000000000000000000000032
:104688000000000000000000000000000000000022
:104698000000000000000000000000000000000012
:1046a8000000000000000000000000000000000002
:1046b80000000000000000000000000000000000f2
:1046c80000000000000000000000000000000000e2
:1046d80000000000000000000000000000000000d2
:1046e80000000000000000000000000000000000c2
:1046f80000000000000000000000000000000000b2
:1047080000000000000000000000000000000000a1
:104718000000000000000000000000000000000091
:104728000000000000000000000000000000000081
:104738000000000000000000000000000000000071
:104748000000000000ff00000000000000800000e2
:10475800ff00000000000000c0ff00000000000093
:1047680000f00000ff00000000000000f8ff00005b
:104778000000000000fc0000ff0000000000000036
:10478800feff00000000000000ff0000ff00000026
:1047980000c00000ffff000000000000e0ff000074
:1047a800ff00000000f00000ffff00000000000014
:1047b800f8bf0000ff00000000f000009fff0000ad
:1047c80000000000e0870000ff00000000e000009b
:1047d80083ff000000000000c0810000ff0000000f
:1047e8000080000080ff0000000000000080000042
:1047f800ff0000000000000080ff00000000000033
:1048080000800000ff0000000000000080ff0000a2
:104818000000000000800000ff0000000000000011
:1048280080ff00000000000000800000ff00000082
:104838000000000080ff0000000000000080000071
:10484800ff0000000000000080ff000000000000e2
:1048580000800000ff0000000000000080ff000052
:104868000000000000800000ff00000000000000c1
:1048780080ff00000000000000800000ff00000032
:104888000000000080ff0000000000000080000021
:10489800ff0000000000000080ff00000000000092
:1048a80000800000ff0000000000000080ff000002
:1048b8000000000000800000ff0000000000000071
:1048c80080ff00000000000000800000ff000000e2
:1048d8000000000080ff00000000000000800000d1
:1048e800ff0000000000000080ff00000000000042
:1048f80000800000ff000000000000000000000031
:10490800000000000000000000000000000000009f
:10491800000000000000000000000000000000008f
:10492800000000000000000000000000000000007f
:10493800000000000000000000000000000000006f
:10494800000000000000000000000000000000005f
:10495800000000000000000000000000000000004f
:10496800000000000000000000000000000000003f
:10497800000000000000000000000000000000002f
:10498800000000000000000000000000000000001f
:10499800000000000000000000000000000000000f
:1049a80000000000000000000000000000000000ff
:1049b80000000000000000000000000000000000ef
:1049c80000000000000000000000000000000000df
:1049d80000000000000000000000000000000000cf
:1049e80000000000000000000000000000000000bf
:1049f80000000000000000000000000000000000af
:104a0800000000000000000000f000003f0000006f
:104a180000000000feff00000000000080ff000012
:104a2800ff03000000e00000ffff00000700000097
:104a3800f0ff0000ff0f000000f80000ffff00007b
:104a48001f000000fcff0000ff3f000000f800000e
:104a5800ffff00003f000000f01f0000f03f0000d3
:104a680000e0000007e000007f000000c001000037
:104a7800e07f00000080000000c000007f00000010
:104a880000000000c07f00000000000000c000001f
:104a98007f00000000000000c07f00000000000050
:104aa80000e000007f00000000000000e03f000080
:104ab8000000000000e000003f00000000000000cf
:104ac800f03f00000000000000f000001f000000a0
:104ad80000000000f81f00000000000000fc0000bb
:104ae8000f00000000000000fe07000000000000aa
:104af80000ff00000700000000800000ff03000026
:104b080000000000c0ff00000100000000c000001d
:104b1800ff00000000000000e07f0000000000002f
:104b280000f000003f00000000000000f81f000037
:104b38000000000000fc00000f0000000000000062
:104b4800fe0700000000000000ff00000300000056
:104b580000800000ff01000000000000c0ff00000e
:104b68000000000000e000007f00000000000000de
:104b7800f03f00000000000000f80000ffff000008
:104b8800ff000000fcff0000ffff000000fc000029
:104b9800ffff0000ff000000fcff0000ffff000017
:104ba80000fc0000ffff0000ff000000fcff000009
:104bb800ffff000000fc0000ffff0000ff000000f6
:104bc800fcff0000ffff00000000000000000000e4
:104bd80000000000000000000000000000000000cd
:104be80000000000000000000000000000000000bd
:104bf80000000000000000000000000000000000ad
:104c0800000000000000000000000000000000009c
:104c1800000000000000000000000000000000008c
:104c2800000000000000000000000000000000007c
:104c3800000000000000000000000000000000006c
:104c4800000000000000000000000000000000005c
:104c5800000000000000000000000000000000004c
:104c6800000000000000000000000000000000003c
:104c7800000000000000000000000000000000002c
:104c8800000000000000000000000000000000001c
:104c9800000000000000000000000000000000000c
:104ca80000000000000000000000000000000000fc
:104cb80000000000000000000000000000000000ec
:104cc80000000000000000000000000000000000dc
:104cd800000000000000000000f800001f000000b5
:104ce80000800000ffff000001000000e0ff00005e
:104cf800ff07000000f80000ffff00000f000000a1
:104d0800fcff0000ff1f000000f80000ffff00008c
:104d18003f000000f0ff0000ff3f000000e000003f
:104d28007ffe00007f000000e0030000f07f00002d
:104d380000c0000000e000007f000000000000004c
:104d4800e07f00000000000000c000007f000000bd
:104d580000000000c07f00000000000000c000004c
:104d68007f00000000000000c03f000000000000bd
:104d780000e000003f00000000000000f01f0000fd
:104d88000000000000f800001f0000000000000004
:104d9800fe0f000000000000feff000003000000fe
:104da80000fe0000ff01000000000000fe3f0000c0
:104db8000000000000fe0000ff01000000000000ed
:104dc800feff00000700000000fe0000ff1f0000bb
:104dd80000000000c0ff00003f00000000000000cd
:104de800f83f00000000000000e000007f00000025
:104df80000000000c07f00000000000000c00000ac
:104e0800ff0000000000000080ff0000000000001c
:104e180000800000ff0000000000000080ff00008c
:104e28000000000000800000ff00000000000000fb
:104e3800c0ff00000000000000c00000ff000000ec
:104e480004000000e07f0000003c000000f00000cb
:104e58007f000000fc030000fe7f000000fc000053
:104e6800ffff00003f000000fcff0000ff1f0000e4
:104e780000fc0000ffff00000f000000fcff000026
:104e8800ff07000000fc0000ffff00000300000017
:104e9800f0ff0000ff00000000000000ff0f00000e
:104ea80000000000000000000000000000000000fa
:104eb80000000000000000000000000000000000ea
:104ec80000000000000000000000000000000000da
:104ed80000000000000000000000000000000000ca
:104ee80000000000000000000000000000000000ba
:104ef80000000000000000000000000000000000aa
:104f08000000000000000000000000000000000099
:104f18000000000000000000000000000000000089
:104f28000000000000000000000000000000000079
:104f38000000000000000000000000000000000069
:104f48000000000000000000000000000000000059
:104f58000000000000000000000000000000000049
:104f68000000000000000000000000000000000039
:104f78000000000000000000000000000000000029
:104f88000000000000000000000000000000000019
:104f98000000000000000000000000000000000009
:104fa80000000000000000000000000000000000f9
:104fb8000000000000fc00000700000000000000e6
:104fc800fc0700000000000000fe000007000000d1
:104fd80000000000ff0700000000000000ff0000c4
:104fe8000700000000800000ff070000000000002c
:104ff800c0ff00000700000000c00000ff0700001d
:1050080000000000e0ff00000700000000f00000c2
:10501800ff07000000000000f0ff0000070000008c
:1050280000f80000ff07000000000000fcfd000081
:105038000700000000fc0000fd0700000000000061
:10504800fefc00000700000000ff0000fc07000055
:10505800000000007ffc000007000000807f0000c7
:10506800fc070000008000003ffc00000700000073
:10507800c01f0000fc07000000e000001ffc00004b
:1050880007000000e00f0000fc07000000f000002f
:105098000ffc000007000000f8070000fc070000f4
:1050a80000f8000003fc000007000000fc030000fb
:1050b800fc07000000fe000001fc000007000000e3
:1050c800fe000000fc07000000ff0000ffff0000da
:1050d800ff000000ffff0000ffff000000ff0000ce
:1050e800ffff0000ff000000ffff0000ffff0000bf
:1050f80000ff0000ffff0000ff000000ffff0000ae
:10510800ffff000000ff0000ffff0000ff0000009d
:1051180000000000fc0700000000000000fc000088
:105128000700000000000000fc070000000000006d
:1051380000fc00000700000000000000fc07000061
:105148000000000000fc0000070000000000000054
:10515800fc0700000000000000fc00000700000041
:1051680000000000fc070000000000000000000034
:105178000000000000000000000000000000000027
:105188000000000000000000000000000000000017
:105198000000000000000000000000000000000007
:1051a80000000000000000000000000000000000f7
:1051b80000000000000000000000000000000000e7
:1051c80000000000000000000000000000000000d7
:1051d80000000000000000000000000000000000c7
:1051e80000000000000000000000000000000000b7
:1051f80000000000000000000000000000000000a7
:105208000000000000000000000000000000000096
:105218000000000000000000000000000000000086
:105228000000000000000000000000000000000076
:105238000000000000000000000000000000000066
:105248000000000000000000000000000000000056
:105258000000000000000000000000000000000046
:105268000000000000000000000000000000000036
:105278000000000000000000000000000000000026
:1052880000c00000ffff00000f000000c0ff00008a
:10529800ff0f000000e00000ffff00000f0000000b
:1052a800e0ff0000ff0f000000e00000ffff00002b
:1052b8000f000000e0ff0000ff0f000000e000000a
:1052c800ffff00000f000000e0ff0000ff0f0000dc
:1052d80000e000003f00000000000000e01f0000a8
:1052e8000000000000e000001f00000000000000b7
:1052f800e01f00000000000000e000001f000000a8
:1053080000000000e01f00000000000000e00000b6
:105318001f00000000000000e01f00000000000067
:1053280000f00000ff3f000000000000f0ff000058
:10533800ff01000000f00000ffff00000300000074
:10534800f0ff0000ff07000000f00000ffff000072
:105358000f000000f0ff0000ff1f000000f0000039
:10536800ffff00003f000000c09f0000ff3f00005b
:105378000000000000f800003f00000000000000ee
:10538800f07f00000000000000e000007f00000047
:1053980000000000e07f00000000000000c00000e6
:1053a8007f00000000000000c07f00000000000037
:1053b80000c000007f00000000000000c07f000067
:1053c8000000000000c000007f0000000000000096
:1053d800e07f00000000000000e000003f00000047
:1053e80018000000f03f00000078000000f80000fe
:1053f8003f000000f89f0000ff1f000000f80000b9
:10540800ffff00001f000000f8ff0000ff0f000072
:1054180000f80000ffff000007000000f8ff000090
:10542800ff03000000f80000ffff0000010000007b
:10543800e0ff00007f00000000000000fe07000001
:105448000000000000000000000000000000000054
:105458000000000000000000000000000000000044
:105468000000000000000000000000000000000034
:105478000000000000000000000000000000000024
:105488000000000000000000000000000000000014
:105498000000000000000000000000000000000004
:1054a80000000000000000000000000000000000f4
:1054b80000000000000000000000000000000000e4
:1054c80000000000000000000000000000000000d4
:1054d80000000000000000000000000000000000c4
:1054e80000000000000000000000000000000000b4
:1054f80000000000000000000000000000000000a4
:105508000000000000000000000000000000000093
:105518000000000000000000000000000000000083
:105528000000000000000000000000000000000073
:105538000000000000000000000000000000000063
:10554800000000000000000000000000fc1f000038
:1055580000000000c0ff00001f00000000f0000075
:10556800ff1f000000000000f8ff00001f000000ff
:1055780000fe0000ff1f000000000000ffff000009
:105588001f00000080ff0000ff1f000000800000d7
:10559800ff0f000010000000c0ff00000000000026
:1055a80000e000007f00000000000000e01f000095
:1055b8000000000000f000001f00000000000000d4
:1055c800f00f00000000000000f0000007000000dd
:1055d80000000000f80700000000000000f80000cc
:1055e8000700000000000000f8070000ff000000ae
:1055f80000f80000c3ff000003000000f8f30000fb
:10560800ff07000000fc0000fbff00000f00000087
:10561800fcfb0000ff1f000000fc0000ffff000073
:105628003f000000fcff0000ff3f000000fc0000fe
:105638007ff800007f000000fc3f0000e07f0000d2
:1056480000fc00001fc00000ff000000fc0f00006d
:10565800c0ff000000fc00000fc00000ff000000b9
:10566800fc07000080ff000000fc0000078000002d
:10567800ff000000fc07000080ff000000fc0000a5
:1056880007800000ff000000f80f000080ff000006
:1056980000f800000fc00000ff000000f80f000035
:1056a800c0ff000000f800001fc000007f000000dd
:1056b800f01f0000e07f000000f000003ff0000055
:1056c8007f000000e0ff0000fd3f000000e0000058
:1056d800ffff00003f000000c0ff0000ff1f0000a8
:1056e80000800000ffff00000f00000000ff000026
:1056f800ff07000000000000feff0000030000009c
:1057080000f80000ff00000000000000c03f00009b
:105718000000000000000000000000000000000081
:105728000000000000000000000000000000000071
:105738000000000000000000000000000000000061
:105748000000000000000000000000000000000051
:105758000000000000000000000000000000000041
:105768000000000000000000000000000000000031
:105778000000000000000000000000000000000021
:105788000000000000000000000000000000000011
:105798000000000000000000000000000000000001
:1057a80000000000000000000000000000000000f1
:1057b80000000000000000000000000000000000e1
:1057c80000000000000000000000000000000000d1
:1057d80000000000000000000000000000000000c1
:1057e80000000000000000000000000000000000b1
:1057f80000000000000000000000000000000000a1
:105808000000000000000000000000000000000090
:105818000000000000000000000000000000000080
:1058280000fc0000ffff0000ff000000fcff00007c
:10583800ffff000000fc0000ffff0000ff00000069
:10584800fcff0000ffff000000fc0000ffff00005d
:10585800ff000000fcff0000ffff000000fc00004c
:10586800ffff0000ff000000fcff0000ff7f0000ba
:105878000000000000c000007f00000000000000e1
:10588800e03f00000000000000e000003f000000d2
:1058980000000000f03f00000000000000f00000e1
:1058a8001f00000000000000f81f000000000000ba
:1058b80000f800000f00000000000000f80f0000d2
:1058c8000000000000fc00000700000000000000cd
:1058d800fc0700000000000000fe000007000000b8
:1058e80000000000fe0300000000000000ff0000b0
:1058f8000300000000000000ff010000000000009d
:1059080080ff00000100000000800000ff00000090
:105918000000000080ff00000000000000c0000040
:10592800ff00000000000000c07f00000000000031
:1059380000e000007f00000000000000e03f0000e1
:105948000000000000f000003f0000000000000020
:10595800f01f00000000000000f000001f00000021
:1059680000000000f81f00000000000000f8000020
:105978000f00000000000000fc0f00000000000005
:1059880000fc00000700000000000000fe07000007
:105998000000000000fe00000300000000000000fe
:1059a800ff0300000000000000ff000003000000eb
:1059b80000000000ff0100000000000080ff000060
:1059c8000100000000800000ff000000000000004f
:1059d800c0ff000000000000000000000000000000
:1059e80000000000000000000000000000000000af
:1059f800000000000000000000000000000000009f
:105a0800000000000000000000000000000000008e
:105a1800000000000000000000000000000000007e
:105a2800000000000000000000000000000000006e
:105a3800000000000000000000000000000000005e
:105a4800000000000000000000000000000000004e
:105a5800000000000000000000000000000000003e
:105a6800000000000000000000000000000000002e
:105a7800000000000000000000000000000000001e
:105a8800000000000000000000000000000000000e
:105a980000000000000000000000000000000000fe
:105aa80000000000000000000000000000000000ee
:105ab80000000000000000000000000000000000de
:105ac80000000000000000000000000000000000ce
:105ad80000000000000000000000000000000000be
:105ae800000000000000000000f000003f0000007f
:105af80000000000feff00000100000000ff0000a1
:105b0800ff07000000c00000ffff00000f000000ba
:105b1800e0ff0000ff1f000000e00000ffff0000a2
:105b28003f000000f0ff0000ff3f000000f0000011
:105b38003ff000003f000000f81f0000e07f000079
:105b480000f800001fe000007f000000f80f0000d0
:105b5800c07f000000f800000fc000007f000000b8
:105b6800f80f0000c07f000000f800001fe00000f0
:105b78007f000000f01f0000e03f000000f0000080
:105b88003ff000003f000000e07f0000f81f000029
:105b980000e00000fffc00001f000000c0ff000044
:105ba800ff0f000000800000ffff0000070000005a
:105bb80000ff0000ff01000000000000fc7f000063
:105bc8000000000000fc0000ff00000000000000d2
:105bd800ffff00000300000080ff0000ff07000037
:105be80000e00000ffff00000f000000e0ff0000e1
:105bf800fc1f000000f000003ff800003f0000001c
:105c0800f81f0000f07f000000f800000fe000001f
:105c18007f000000fc0f0000c07f000000fc0000b7
:105c28000fc00000ff000000fc07000080ff00001c
:105c380000fc000007800000ff000000fc070000d7
:105c480080ff000000fc00000f800000ff00000043
:105c5800fc0f0000c0ff000000fc00001fe0000077
:105c68007f000000f83f0000f07f000000f800000f
:105c7800ffff00007f000000f0ff0000ff3f000072
:105c880000e00000ffff00001f000000c0ff000050
:105c9800ff0f000000800000ffff00000700000069
:105ca80000fe0000ff01000000000000f03f0000bf
:105cb80000000000000000000000000000000000dc
:105cc80000000000000000000000000000000000cc
:105cd80000000000000000000000000000000000bc
:105ce80000000000000000000000000000000000ac
:105cf800000000000000000000000000000000009c
:105d0800000000000000000000000000000000008b
:105d1800000000000000000000000000000000007b
:105d2800000000000000000000000000000000006b
:105d3800000000000000000000000000000000005b
:105d4800000000000000000000000000000000004b
:105d5800000000000000000000000000000000003b
:105d6800000000000000000000000000000000002b
:105d7800000000000000000000000000000000001b
:105d8800000000000000000000000000000000000b
:105d980000000000000000000000000000000000fb
:105da80000000000000000000000000000000000eb
:105db800000000000000000000f000000f000000dc
:105dc80000000000fc7f00000000000000ff000051
:105dd800ff01000000800000ffff0000030000003a
:105de800c0ff0000ff07000000e00000ffff000008
:105df8000f000000f0ff0000ff1f000000f000008f
:105e0800fffe00001f000000f83f0000f03f000008
:105e180000f800001fe000003f000000f80f00003d
:105e2800e07f000000fc00000fc000007f000000c1
:105e3800fc0f0000c07f000000fc000007c000004d
:105e48007f000000fc07000080ff000000fc00004d
:105e580007800000ff000000fc07000080ff000032
:105e680000fc000007800000ff000000fc0f00009d
:105e7800c0ff000000fc00000fc00000ff00000091
:105e8800f80f0000e0ff000000f800001ff000001d
:105e9800ff000000f87f0000f8ff000000f000009d
:105ea800ffff0000ff000000f0ff0000ffff000000
:105eb80000e00000ff7f0000ff000000c0ff0000be
:105ec8007fff000000800000ff3f00007f0000000f
:105ed80000ff00000f7f000000000000f8830000b2
:105ee8007f00000000000000807f0000000000002c
:105ef800008000007f00000000000000803f0000dc
:105f08000000000000c000003f000000000000008a
:105f1800e03f00000000000000f000001f0000004b
:105f280000000000f81f00000000000000fc000056
:105f38000f00000020c00000ff07000000e0000084
:105f4800ffff000007000000e0ff0000ff03000063
:105f580000e00000ffff000001000000e0ff00007b
:105f68007f00000000e00000ff3f0000000000008c
:105f7800e0ff00000f00000000e00000ff0000004c
:105f88000000000000000000000000000000000009
:105f980000000000000000000000000000000000f9
:105fa80000000000000000000000000000000000e9
:105fb80000000000000000000000000000000000d9
:105fc80000000000000000000000000000000000c9
:105fd80000000000000000000000000000000000b9
:105fe80000000000000000000000000000000000a9
:105ff8000000000000000000000000000000000099
:106008000000000000000000000000000000000088
:1060180000000000200000007e00000015000000c5
:106028000484000001000000059900000100000040
:1060380008ae0000010000000bc3000001000000d2
:1060480009ed0000010000000f1700000200000029
:106058000c41000002000000056b00000200000077
:106068000680000002000000069500000200000003
:1060780009aa00000200000009d400000200000084
:1060880005fe0000020000000513000003000000e8
:106098000528000003000000073d00000300000081
:1060a8000952000003000000097c00000300000002
:1060b80009a600000300000009d00000030000004a
:1060c80009fa000003000000092400000400000091
:1060d800094e0000040000000978000004000000d8
:1060e80009a200000400000009cc00000400000020
:1060f80005f6000004000000050b00000500000084
:106108000920000005000000094a00000500000001
:106118000974000005000000089e0000050000004a
:106128000fb30000050000000bdd000005000000b3
:106138000b070000060000000b31000006000000fd
:106148000c5b0000060000000a8500000600000045
:106158000aaf0000060000000cd90000060000008d
:106168000d03000007000000072d000007000000d5
:1061780007420000070000000b570000070000005e
:10618800098100000700000010ab000007000000b4
:106198000dd50000070000000dff000007000000fb
:1061a8000b290000080000000d5300000800000043
:1061b8000b7d00000800000009a70000080000008f
:1061c80009d10000080000000dfb000008000000d5
:1061d8000a25000009000000104f00000900000017
:1061e8000a790000090000000ba300000900000064
:1061f80009cd00000900000006f7000009000000b2
:10620800070c00000a000000062100000a00000038
:10621800093600000a000000076000000a000000bc
:106228000a7500000a0000000a9f00000a0000002a
:106238000ac900000a00000008f300000a00000074
:106248000a0800000b0000000a3200000b000000e2
:10625800075c00000b000000097100000b00000043
:106268000a9b00000b00000005c500000b000000a1
:1062780005da00000b0000000aef00000b00000028
:10628800051900000c000000102e00000c00000092
:106298000a5800000c0000000a8200000c000000f0
:1062a8000aac00000c0000000ad600000c00000038
:1062b800070000000d000000081500000d00000098
:1062c800072a00000d0000000a3f00000d00000032
:1062d800096900000d0000000d9300000d0000008a
:1062e80009bd00000d00000009e700000d000000d6
:1062f800081100000e000000062600000e00000035
:10630800093b00000e000000066500000e000000ba
:10631800097a00000e0000000000000000000000e4
:106328000000000000000000000000000000000065
:106338000000000000000000000000000000000055
:106348000000000000000000000e00000e0e00001b
:106358000e0e00000e0e00000e0000000e0e0000d3
:106368000e00000000000000000000000000000017
:10637800000000006666000066660000000000007d
:106388000000000000000000000000000000000005
:1063980000000000000000000000000000000000f5
:1063a8000000000000b0000001b0000001900000f3
:1063b80001fc000003fc000003d8000000d8000026
:1063c80000fe000001fe0000014c0000006c00000f
:1063d800006c000000000000000000000000000049
:1063e80000000000000000000000000000000000a5
:1063f800000000000010000000100000007c0000f9
:10640800007e000000160000001e0000007c000056
:1064180000f8000000d0000000d2000000fe0000dc
:10642800007c0000001000000010000000000000c8
:106438000000000000000000000000000000000054
:10644800000000000000000000000000003c000008
:106458000c7e0000066600000666000003e60000e9
:1064680001fe00001ffc00003fc000003360000078
:1064780033300000333000003f1800001e000000d9
:106488000000000000000000000000000000000004
:1064980000000000000000000000000000000000f4
:1064a8000078000000fc000000cc000000cc0000d8
:1064b800007c000000380000007c00000eee0000a8
:1064c80006ce0000078e000003fc000007f800005d
:1064d8000f000000000000000000000000000000a5
:1064e800000000000000000000000000000600009e
:1064f8000606000006000000000000000000000082
:106508000000000000000000000000000000000083
:106518000000000000000000381800000c0c00000b
:106528000e06000006060000060600000e0c00001d
:106538000c180000380000000000000000000000f7
:1065480000070000060c00000c1c000018180000d2
:1065580018180000181c00000c0c000006070000aa
:106568000000000000000000000000000000000023
:10657800100000001000000092000000fe00000063
:1065880038000000280000006c0000006c000000cb
:1065980000000000000000000000000000000000f3
:1065a80000000000000000000000000000000000e3
:1065b80000000000000000000000000000000000d3
:1065c80000000000000000000000000000000000c3
:1065d800300000003000000030000000fe01000024
:1065e800fe01000030000000300000003000000014
:1065f8000000000000000000000000000000000093
:106608000000000000000000000000000000000082
:106618000000000000000000000000000000000072
:1066280000000000000000000c0c0000060600003e
:106638000000000000000000000000000000000052
:106648000000000000000000000f00000f00000024
:106658000000000000000000000000000000000032
:106668000000000000000000000000000000000022
:106678000000000000000000000e00000e0e0000e8
:106688000000000000000000000000000000000002
:10669800006000007030000038180000180c00007e
:1066a8000c0e0000060700000300000000000000b8
:1066b80000000000000000000000000000000000d2
:1066c80000000000380000007c000000ee00000020
:1066d800ee000000ee000000ee000000ee000000fa
:1066e800ee000000ee000000ee0000007c0000005c
:1066f800380000000000000000000000000000005a
:106708000000000000000000000000000000000081
:106718000000000000000000700000007800000089
:106728007c0000007600000070000000700000008f
:106738007000000070000000700000007000000091
:106748007000000070000000000000000000000061
:106758000000000000000000000000000000000031
:1067680000000000000000000000000078000000a9
:10677800fe000000e6000000e0000000e00000006d
:106788006000000070000000380000001c000000dd
:106798000c000000fe000000fe00000000000000e9
:1067a80000000000000000000000000000000000e1
:1067b80000000000000000000000000000000000d1
:1067c8007c000000fe000000e4000000e000000083
:1067d800e00000003800000078000000e000000041
:1067e800e0000000e20000007e0000003e00000023
:1067f8000000000000000000000000000000000091
:106808000000000000000000000000000000000080
:1068180000000000e0000000f0000000f0000000b0
:10682800f8000000ec000000ec000000e6000000aa
:10683800e7000000ff010000ff010000e000000089
:10684800e000000000000000000000000000000060
:106858000000000000000000000000000000000030
:1068680000000000000000007c0000007c00000028
:106878000c0000000e0000007e0000007e000000fa
:10688800e0000000e0000000e0000000e20000007e
:106898007e0000003e000000000000000000000034
:1068a80000000000000000000000000000000000e0
:1068b8000000000000000000000000007000000060
:1068c8007c0000000c0000000e00000076000000b4
:1068d800fe000000ee000000ee000000ee000000e8
:1068e800ee0000007c0000003800000000000000fe
:1068f8000000000000000000000000000000000090
:10690800000000000000000000000000000000007f
:10691800fe000000fe000000e00000006000000033
:106928007000000070000000300000003800000017
:1069380038000000180000001c0000001c000000c7
:10694800000000000000000000000000000000003f
:10695800000000000000000000000000000000002f
:10696800000000007c000000fe000000ee000000b7
:10697800ee000000ee0000007c0000007c0000003b
:10698800ee000000ee000000ee000000fe00000037
:106998007c00000000000000000000000000000073
:1069a80000000000000000000000000000000000df
:1069b8000000000000000000380000007c0000001b
:1069c800ee000000ee000000ee000000ee00000007
:1069d800fe000000dc000000e00000006000000095
:1069e8007c0000001c000000000000000000000007
:1069f800000000000000000000000000000000008f
:106a08000000000000000000000e00000e0e000054
:106a180000000000000e00000e0e00000000000044
:106a2800000000000000000000000000000000005e
:106a3800000000000e0e00000e0000000000000024
:106a4800000c00000c06000006000000000000001a
:106a5800000000000000000000000000000000002e
:106a68000000000080000000e0000000700000004e
:106a78001c000000060000001c0000007800000058
:106a8800e00000008000000000000000000000009e
:106a980000000000000000000000000000000000ee
:106aa80000000000000000000000000000000000de
:106ab80000000000000000000000000000000000ce
:106ac80000000000fe000000fe00000000000000c2
:106ad800fe000000fe0000000000000000000000b2
:106ae800000000000000000000000000000000009e
:106af800000000000000000000000000000000008e
:106b0800000000000000000000000000020000007b
:106b18000e0000001c00000070000000c000000013
:106b2800700000003c0000000e00000002000000a1
:106b3800000000000000000000000000000000004d
:106b4800000000000000000000000000000000003d
:106b5800000000003e7f00007260000070380000f6
:106b68001c0c0000001c00001c1c000000000000a1
:106b7800000000000000000000000000000000000d
:106b88000000000000e0000007f800000f1c0000f3
:106b980018cc000033e6000033360000333600001e
:106ba8003336000033f600001fe600000e0c00002c
:106bb80000f8000007f000000300000000000000db
:106bc80000000000000000000000000000000000bd
:106bd80000000000000000000070000000f8000045
:106be80000d8000000d8000000dc0000018c000084
:106bf800018c000001fe000003fe000003060000f7
:106c0800030700000707000006000000000000005e
:106c1800000000000000000000000000000000006c
:106c280000000000000000000000000000fc000060
:106c380000fc0000039c0000039c0000039c000073
:106c480003fc000001fc0000019c0000039c000004
:106c5800039c000003fc000001fc00000000000091
:106c6800000000000000000000000000000000001c
:106c7800000000000000000000000000000000000c
:106c880000f0000003f80000031c0000030e0000e1
:106c9800000e0000000e0000000e0000000e0000b4
:106ca800000e0000001c000002fc000003f00000c1
:106cb80003000000000000000000000000000000c9
:106cc80000000000000000000000000000000000bc
:106cd8000000000000fc000000fc0000019c000017
:106ce800031c0000071c0000071c0000071c000014
:106cf800071c0000071c0000079c000003fc0000a4
:106d080001fc00000000000000000000000000007e
:106d1800000000000000000000000000000000006b
:106d2800000000000000000000fc000001fc000062
:106d3800011c0000001c0000001c000000fc0000fa
:106d480001fc0000011c0000001c0000001c0000e9
:106d580000fc000001fc0000010000000000000031
:106d6800000000000000000000000000000000001b
:106d780000000000000000000000000000fc00000f
:106d880001fc0000011c0000001c0000001c0000a9
:106d980000fc000001fc0000011c0000001c0000b9
:106da800001c0000001c0000001c00000000000087
:106db80000000000000000000000000000000000cb
:106dc80000000000000000000000000000000000bb
:106dd80000f0000003f80000073c0000020e00006d
:106de800000e000000ce000007ce0000070e0000d5
:106df800070e0000071c000007f8000007f000005d
:106e08000300000000000000000000000000000077
:106e1800000000000000000000000000000000006a
:106e280000000000001c0000071c0000071c0000f8
:106e3800071c0000071c000007fc000007fc0000fe
:106e4800071c0000071c0000071c0000071c0000ae
:106e5800071c000007000000000000000000000000
:106e6800000000000000000000000000000000001a
:106e7800003e00003e1c00001c1c00001c1c000002
:106e88001c1c00001c3e00003e000000000000002a
:106e9800000000000000000000000000383800007a
:106ea800383800003838000038380000383800001a
:106eb80038380000383800001f0f000000000000bc
:106ec800000000000000000000000000001c00009e
:106ed800079c0000039c000001dc000001fc00008e
:106ee800007c000000fc000000dc000001dc000069
:106ef800019c0000039c0000031c00000700000028
:106f08000000000000000000000000000000000079
:106f18000000000000000000000000000000000069
:106f2800001c0000001c0000001c0000001c0000e9
:106f3800001c0000001c0000001c0000001c0000d9
:106f4800001c0000001c000000fc000001fc000008
:106f58000100000000000000000000000000000028
:106f68000000000000000000000000000000000019
:106f780000000000003c00003c3c00003c3c0000dd
:106f88003c3c00003c6c0000366c0000366c000095
:106f9800366c000033cc000033cc000033cc00004a
:106fa800318c0000310000000000000000000000eb
:106fb80000000000000000000000000000000000c9
:106fc8000000000000000000001c0000061c00007b
:106fd800063c0000063c0000066c0000066c000041
:106fe80006cc000006cc0000068c0000078c0000d0
:106ff800070c0000070c000007000000000000005c
:107008000000000000000000000000000000000078
:1070180000000000000000000000000000f0000078
:1070280001fc0000071c0000070e00000e0e000007
:107038000e0e00000e0e00000e0e00000e0e0000d8
:107048000e1c000007fc000007f000000100000013
:107058000000000000000000000000000000000028
:107068000000000000000000000000000000000018
:1070780000fc000000fc0000019c0000039c0000d4
:10708800039c0000039c000003fc000001fc0000be
:10709800001c0000001c0000001c0000001c000078
:1070a80000000000000000000000000000000000d8
:1070b80000000000000000000000000000000000c8
:1070c8000000000000f0000001fc0000071c0000a8
:1070d800070e00000e0e00000e0e00000e0e00003f
:1070e8000e0e00000e0e00000e1c000007fc000033
:1070f80007f0000001800000030000000700000006
:107108000e00000000000000000000000000000069
:10711800000000000000000000fc000000fc00006f
:10712800019c0000039c0000039c000003fc00007d
:1071380001fc000000dc0000019c0000019c000034
:10714800031c0000031c00000700000000000000f2
:107158000000000000000000000000000000000027
:10716800000000000000000000000000007800009f
:1071780000fe0000004e0000000e0000000e00009f
:10718800003c00000078000000e0000000e0000083
:1071980000e20000007e0000003e00000000000049
:1071a80000000000000000000000000000000000d7
:1071b80000000000000000000000000000000000c7
:1071c80000ff000001ff0000013800000038000047
:1071d80000380000003800000038000000380000c7
:1071e80000380000003800000038000000380000b7
:1071f8000000000000000000000000000000000087
:107208000000000000000000000000000000000076
:1072180000000000001c0000071c0000071c000004
:10722800071c0000071c0000071c0000071c0000ca
:10723800071c0000071c0000071c000007f80000de
:1072480003f0000001000000000000000000000042
:107258000000000000000000000000000000000026
:107268000000000000000000008300000387000009
:10727800038600000186000001ce000001cc00005a
:1072880000cc000000fc000000fc000000780000ba
:1072980000780000007800000000000000000000f6
:1072a80000000000000000000000000000000000d6
:1072b8000000000000000000000000000083000043
:1072c800c1870000e1c6000063c6000063c6000075
:1072d800636e0000766c0000366c0000362c0000ef
:1072e80034280000143800001c18000018000000a2
:1072f8000000000000000000000000000000000086
:107308000000000000000000000000000000000075
:107318000087000003ce000001ce000001fc000041
:1073280000780000007800000078000000fc0000f1
:1073380000ec000000ce000001860000018700007c
:107348000300000000000000000000000000000032
:107358000000000000000000000000000000000025
:10736800000000000007000007860000038e0000f0
:1073780001dc000001dc0000007800000070000063
:107388000070000000700000007000000070000035
:107398000070000000000000000000000000000075
:1073a80000000000000000000000000000000000d5
:1073b800000000000000000000ff000001ff0000c6
:1073c80001c0000000e0000000700000003800006c
:1073d80000180000001c0000000e0000000600005d
:1073e80000ff000001ff0000010000000000000095
:1073f8000000000000000000000000000000000085
:1074080000000000001e00001e0600000606000026
:107418000606000006060000060600000606000034
:107428001e1e000000000000000000000000000018
:1074380003070000060e00000c0c000018180000de
:1074480038300000706000000000000000000000fc
:107458000000000000000000001e00001e180000d0
:107468001818000018180000181800001818000054
:10747800181800001e1e0000000000000000000098
:1074880000000000000000000000000010000000e4
:1074980038000000380000006c0000006c0000009c
:1074a800c6000000c60000008301000000000000c4
:1074b80000000000000000000000000000000000c4
:1074c80000000000000000000000000000000000b4
:1074d80000000000000000000000000000000000a4
:1074e8000000000000000000000000000000000094
:1074f800000000007f000000000000000000000005
:1075080000000000003800000030000000600000ab
:107518000000000000000000000000000000000063
:107528000000000000000000000000000000000053
:107538000000000000000000000000000000000043
:107548000000000000000000000000000000000033
:107558000000000000000000000000000000000023
:10756800000000000000000000f8000000fc00001f
:1075780001c4000001f8000001fe000001ce000077
:1075880001ce000001fe000001bc00000100000067
:1075980000000000000000000000000000000000e3
:1075a800000000000000000000000000000e0000c5
:1075b800000e0000000e0000000e00000076000023
:1075c80000fe000000ce000001ce000001ce000049
:1075d80001ce000001ce000001fe00000076000090
:1075e8000000000000000000000000000000000093
:1075f8000000000000000000000000000000000083
:1076080000000000787c00000e0e00000e0e000046
:107618000e7c000078000000000000000000000060
:10762800000000000000000000000000c001000091
:10763800c0010000c0010000c0010000b801000046
:10764800fc010000ce0100008e0100008e01000048
:107658008e010000ce010000fc010000b80100000e
:107668000000000000000000000000000000000012
:107678000000000000000000000000000000000002
:1076880000000000000000000000000000000000f2
:1076980078000000fc0000008e010000fe010000e0
:1076a800fe0100000e0000000e000000fc010000ba
:1076b800f8010000000000000000000000000000c9
:1076c800000000000000000000000000007800003a
:1076d8007c1c00001c3e00003e1c00001c1c00001e
:1076e8001c1c00001c1c0000000000000000000022
:1076f8000000000000000000000000000000000082
:1077080000000000000000000000000000fc000075
:1077180001fe000001c6000000c6000000fe0000d7
:10772800007800000006000000fe000000fc0000d9
:10773800018700000183000001ff0000007e0000b7
:107748000000000000000000000000000000000031
:10775800000e0000000e0000000e0000000e0000e9
:1077680000f6000000fe000001ce000001ce00007f
:1077780001ce000001ce000001ce000001ce0000c5
:1077880001ce000001000000000000000000000021
:1077980000000000000000000000000000000000e1
:1077a800000e00000e0000000e0e00000e0e00007d
:1077b8000e0e00000e0e00000e000000000000007b
:1077c8000000000000000000000000001c1c000079
:1077d800001c00001c1c00001c1c00001c1c0000dd
:1077e8001c1c00001c1c00001f0f000000000000f3
:1077f8000000000000000000000e0000000e000065
:10780800000e0000000e0000008e000003ce0000f5
:1078180001e6000000760000007e000000ee000097
:1078280000ce000000ce0000018e00000300000022
:107838000000000000000000000000000000000040
:1078480000000000000000000e0e00000e0e0000f8
:107858000e0e00000e0e00000e0e00000e0e0000b0
:107868000e00000000000000000000000000000002
:107878000000000000000000000000000000000000
:107888000000000000000000f63c0000fe7f000041
:10789800ce7300008e7100008e7100008e710000a2
:1078a8008e7100008e7100008e71000000000000d3
:1078b80000000000000000000000000000000000c0
:1078c80000000000000000000000000000000000b0
:1078d800000000000000000000000000f6000000aa
:1078e800fe010000ce010000ce010000ce01000024
:1078f800ce010000ce010000ce010000ce01000044
:10790800000000000000000000000000000000006f
:10791800000000000000000000000000000000005f
:10792800000000000000000000000000000000004f
:1079380078000000fc000000ce010000ce0100002d
:10794800ce010000ce010000ce010000fc000000c6
:1079580078000000000000000000000000000000a7
:10796800000000000000000000000000000000000f
:1079780000000000000000000000000000000000ff
:107988000000000076000000fe000000ce010000ac
:10799800ce010000ce010000ce010000ce010000a3
:1079a800fe000000760000000e0000000e0000003f
:1079b8000e0000000e0000000000000000000000a3
:1079c80000000000000000000000000000000000af
:1079d8000000000000000000b8010000fc010000e9
:1079e800ce0100008e0100008e0100008e01000013
:1079f800ce010000fc010000b8010000c001000039
:107a0800c0010000c0010000c0010000000000002b
:107a180000000000000000000000000000760000e8
:107a28007e1e00000e0e00000e0e00000e0e00005e
:107a3800000000000000000000000000000000003e
:107a480000000000000000003c7e00000e1e000048
:107a58003c700000707e00003e0000000000000046
:107a680000000000000000000000000000180000f6
:107a78001c3e00003e1c00001c1c00001c1c0000da
:107a88003c3800000000000000000000000000007a
:107a980000000000000000000000000000000000de
:107aa800000000000000000000ce000001ce000031
:107ab80001ce000001ce000001ce000001ce000082
:107ac80001ce000001fe000001bc00000100000022
:107ad800000000000000000000000000000000009e
:107ae800000000000000000000000000000000008e
:107af80000000000000000000000000000c70000b7
:107b080001c7000001c6000000ee000000ee000002
:107b1800006c0000006c0000003800000038000015
:107b2800000000000000000000000000000000004d
:107b3800000000000000000000000000000000003d
:107b4800000000000000000000000000000000002d
:107b580000e3000018e700001ca700001cb60000a6
:107b68000db600000db600000dbc0000071c00009b
:107b7800071c0000070000000000000000000000d3
:107b880000000000000000000000000000000000ed
:107b980000000000000000000000000000000000dd
:107ba8000000000000c7000001ee0000006c0000ab
:107bb800007c000000380000007c0000006c000021
:107bc80000c6000000c7000001000000000000001f
:107bd800000000000000000000000000000000009d
:107be800000000000000000000000000000000008d
:107bf800000000000000000000c7000001c70000ee
:107c080001c6000000ee000000ec0000006c00005f
:107c1800006c000000380000003800000038000048
:107c280000180000001f0000000f00000000000006
:107c3800000000000000000000000000000000003c
:107c48007e7e000030380000181c00000c7e00000a
:107c58007e0000000000000000000000000000009e
:107c680000000000383c00000c0c00000c0c000068
:107c78000f0700000c0c00000c0c00000c3c00006e
:107c880038000000000000000000000000000000b4
:107c9800003000000030000000300000003000001c
:107ca800003000000030000000300000003000000c
:107cb80000300000003000000030000000300000fc
:107cc80000300000003000000030000000300000ec
:107cd800003000000000000000000000000000006c
:107ce800000700000f0c00000c0c00000c3c00000a
:107cf800380c00000c0c00000c0c00000f070000f2
:107d0800000000000000000000000000000000006b
:107d1800000000000000000000000000000000005b
:107d280000000000000000001c000000fe00000031
:107d380070000000000000000000000000000000cb
:107d4800000000000000000000000000000000002b
:107d5800000000000000000000000000cca10000ae
:107d6800000000000cb0000000000000785e000079
:107d780000010000000000007e700000000100000b
:107d880000000000848200000001000000000000e4
:107d98008a940000000100000000000090a6000086
:107da800000100000000000096b80000000100007b
:107db8000000000024cc00000001000000000000ca
:107dc8001c0000007e0000001b0000001094000052
:107dd8000100000010ca00000100000011000000ae
:107de80002000000115100000200000005a200007e
:107df8000200000006bd0000020000000ad80000d2
:107e0800020000000b0e0000030000000b440000fd
:107e180003000000107a00000300000010b000000a
:107e28000300000006e60000030000000701000050
:107e380004000000071c0000040000000a370000ce
:107e480004000000096d00000400000005a3000004
:107e58000400000008be00000400000005d900006e
:107e6800040000000bf40000040000000b2a0000ce
:107e7800050000000b600000050000000b960000e4
:107e8800050000000bcc0000050000000b020000fc
:107e9800060000000b380000060000000b6e000012
:107ea800060000000ba40000060000000bda00002a
:107eb800060000000b100000070000000546000047
:107ec8000700000005610000070000000a7c0000b0
:107ed800070000000ab20000070000000ae80000de
:107ee800070000000a1e00000800000013540000ec
:107ef800080000000ea50000080000000cdb0000d0
:107f0800080000000c110000090000000e470000e6
:107f1800090000000b7d0000090000000bb3000001
:107f2800090000000de90000090000000f1f000013
:107f38000a000000075500000a0000000770000052
:107f48000a0000000d8b00000a0000000bc10000b1
:107f58000a00000013f700000a0000000f480000a4
:107f68000b0000000e7e00000b0000000cb40000a7
:107f78000b0000000eea00000b0000000d200000be
:107f88000c0000000b5600000c0000000d8c0000d7
:107f98000c0000000fc200000c0000000ff80000e9
:107fa8000c000000142e00000d0000000e7f0000e1
:107fb8000d0000000eb500000d0000000ceb0000e5
:107fc8000d000000072100000e0000000b3c00001f
:107fd8000e000000087200000e0000000b8d00006b
:107fe8000e0000000bc300000e00000007f900009f
:107ff8000e0000000b1400000f0000000c4a0000e7
:108008000f0000000a8000000f0000000cb60000fe
:108018000f0000000bec00000f000000072200001a
:10802800100000000c3d0000100000000d7300005f
:108038001000000006a900001000000006c400009f
:10804800100000000cdf0000100000000615000002
:108058001100000014300000110000000d81000024
:10806800110000000cb70000110000000ced00002a
:10807800110000000c230000120000000959000044
:1080880012000000098f00001200000008c500005f
:10809800120000000ce00000120000000b160000a7
:1080a80013000000104c0000130000000c820000b8
:1080b800130000000bb80000130000000aee0000d7
:1080c800130000000824000014000000053f000011
:1080d80014000000085a0000140000000b7500008e
:1080e8001400000000000000000000000000000074
:1080f8000030000000380000003c0000003e000096
:10810800003f0000803f0000c03f0000e03f00004b
:10811800f03f0000f83f0000fc3f0000f83f00007f
:10812800f03f0000e03f0000c03f0000803f00003b
:10813800003f0000003e0000003c00000038000046
:1081480000300000000000000000000000000000f7
:108158000000000000000000000000000c0000000b
:108168001c0000003c0000007c000000fc00000037
:10817800fc010000fc030000fc070000fc0f0000ed
:10818800fc1f0000fc3f0000fc1f0000fc0f00006b
:10819800fc070000fc030000fc010000fc000000dc
:1081a8007c0000003c0000001c0000000c000000e7
:1081b80000000000000000000000000000000000b7
:1081c80000000000000000000000000000000000a7
:1081d8000100000080030000008000000300000090
:1081e8008003000000c0000007000000c007000076
:1081f80000e000000f000000e00f000000e00000b9
:108208000f000000f01f000000f000001f00000039
:10821800f01f000000f800003f000000f83f0000d9
:1082280000f800003f000000fc7f000000fc000098
:108238007f000000fc7f000000fe0000ff0000003f
:10824800feff000000fe0000ff000000000000002c
:108258000000000000000000000000000000000016
:108268000000000000000000000000000000000006
:10827800feff000000fe0000ff000000feff0000ff
:1082880000fc00007f000000fc7f000000fc0000f4
:108298007f000000f83f000000f800003f000000e9
:1082a800f83f000000f000001f000000f01f000071
:1082b80000f000001f000000e00f000000e00000d8
:1082c8000f000000e00f000000c0000007000000e1
:1082d800c0070000008000000300000080030000c9
:1082e8000080000003000000000100000000000002
:1082f8000000000000000000000000000000000076
:108308000000000000000000000000000000000065
:108318000000000000000000000000000000000055
:108328000000000000000000000000000000000045
:10833800000000000000000000000000080c000021
:108348000c0c00000c0c00000c0c00000c0c0000c5
:108358000c0c0000040000000c0c00000c000000d5
:108368000000000000000000000000000000000005
:108378000000000000000000cc000000cc0000005d
:10838800cc000000cc000000cc000000cc000000b5
:10839800cc000000c4000000000000000000000045
:1083a80000000000000000000000000000000000c5
:1083b80000000000000000000000000000000000b5
:1083c80000000000000000000000000000000000a5
:1083d8000000000000000000000000000000000095
:1083e8000000000000000000000000000000000085
:1083f80060020000200300002001000020010000ae
:10840800fc070000900100009000000098000000a8
:10841800fe030000480000004c000000440000007b
:1084280064000000000000000000000000000000e0
:108438000000000000000000000000000000000034
:108448000000000000000000000000000000000024
:10845800000000006000000060000000f80100005b
:108468006c03000066010000660000006e0000005a
:108478007c000000f8010000e0010000e0030000bb
:108488006003000062030000620300006601000050
:10849800fc00000060000000600000000000000018
:1084a80000000000000000000000000000000000c4
:1084b80000000000000000000000000000000000b4
:1084c8000000000000000000383000002418000000
:1084d800660c0000660400006606000066030000e3
:1084e800a40100009c380000c06400006066000021
:1084f8002066000010660000182400000c1c000014
:108508000000000000000000000000000000000063
:108518000000000000000000000000000000000053
:10852800000000000000000000000000e001000062
:1085380030030000180300001803000018010000b1
:108548009801000078000000787e00007c1c000084
:10855800cc180000c6190000861b0000060f00009a
:10856800060e00000c1a0000f87100000000000060
:1085780000000000000000000000000000000000f3
:10858800000000000000000000000000000c0000d7
:108598000c0c00000c0c00000c0c00000400000087
:1085a80000000000000000000000000000000000c3
:1085b80000000000000000000000000000000000b3
:1085c8000060000030100000080c00000c040000df
:1085d8000606000006060000060600000606000063
:1085e800040c00000c0800001830000060000000b7
:1085f8000000000000000000030600000c08000056
:108608001818000010300000303000003030000032
:108618003030000030100000181800000804000076
:108628000603000000000000000000000000000039
:1086380000300000003000000022000001ae000001
:10864800037800000078000000ae0000012200005e
:1086580001300000003000000000000000000000b1
:108668000000000000000000000000000000000002
:1086780000000000000000000000000000000000f2
:1086880000000000000000000000000000000000e2
:1086980000000000000000000000000000000000d2
:1086a80000000000000000000000000000000000c2
:1086b8000000000000000000000000000030000082
:1086c800003000000030000000fe00000130000013
:1086d8000030000000300000003000000000000002
:1086e8000000000000000000000000000000000082
:1086f8000000000000000000000000000000000072
:108708000000000000000000000000000000000061
:108718000000000000000000000000000000000051
:10872800000000000e0f00000c0c00000402000006
:108738000000000000000000000000000000000031
:108748000000000000000000000000000000000021
:10875800000000007e000000000000000000000093
:108768000000000000000000000000000000000001
:1087780000000000000000000000000000000000f1
:1087880000000000000000000000000000000000e1
:108798000c0c00000c0000000000000000000000ad
:1087a80000000000000000000000000000020000bf
:1087b80000030000000100008001000080010000ab
:1087c80080000000c0000000c00000006000000041
:1087d80060000000200000003000000030000000b1
:1087e8001000000018000000180000000c00000035
:1087f8000c00000004000000060000000600000055
:10880800020000000000000000000000000000005e
:108818000000000000000000000000000000000050
:108828000000000000000000f0000000c801000087
:108838008c0100008403000006030000060300000a
:1088480006030000060300000603000006030000fc
:10885800060100000c0100008c0000007000000000
:108868000000000000000000000000000000000000
:1088780000000000000000000000000000000000f0
:1088880000000000000000000000000000000000e0
:108898000000000060000000780000006400000094
:1088a8006000000060000000600000006000000040
:1088b8006000000060000000600000006000000030
:1088c8006000000060000000fc03000000000000e1
:1088d8000000000000000000000000000000000090
:1088e8000000000000000000000000000000000080
:1088f8000000000000000000000000000000000070
:1089080078000000c4010000860100008201000018
:1089180080010000c0000000c000000060000000ee
:108928003000000030000000180000000c010000ba
:1089380006010000fe010000000000000000000029
:10894800000000000000000000000000000000001f
:10895800000000000000000000000000000000000f
:10896800000000000000000000000000f800000007
:10897800cc01000086010000800100008001000099
:1089880040000000f000000080010000000300002b
:10899800000300000003000000030000860100003f
:1089a8007800000000000000000000000000000047
:1089b80000000000000000000000000000000000af
:1089c800000000000000000000000000000000009f
:1089d8000000000000000000c0000000e0000000ef
:1089e800e0000000d0000000d8000000c80000002f
:1089f800c4000000c6000000c2000000ff03000021
:108a0800c0000000c0000000c0000000f00300002b
:108a1800000000000000000000000000000000004e
:108a2800000000000000000000000000000000003e
:108a3800000000000000000000000000000000002e
:108a48000000000000010000fc000000040000001d
:108a580004000000060000007e000000c2000000c4
:108a680080010000800100008001000080010000fa
:108a780080000000c30000003c000000000000006f
:108a880000000000000000000000000000000000de
:108a980000000000000000000000000000000000ce
:108aa80000000000000000000000000000000000be
:108ab80080010000600000001800000008000000ad
:108ac8000c000000f60000008e0100000603000004
:108ad8000603000006030000060300000c01000066
:108ae8008c010000f0000000000000000000000001
:108af800000000000000000000000000000000006e
:108b0800000000000000000000000000000000005d
:108b1800000000000000000000000000000000004d
:108b2800fc030000020100000201000080010000b7
:108b380080000000c000000040000000600000004d
:108b48002000000030000000300000001800000085
:108b58000800000000000000000000000000000005
:108b680000000000000000000000000000000000fd
:108b780000000000000000000000000000000000ed
:108b88000000000000000000f8000000cc01000018
:108b980086010000860100008e010000dc00000054
:108ba800f0000000c80100008c030000060300006c
:108bb80006030000060300008c0100007800000096
:108bc800000000000000000000000000000000009d
:108bd800000000000000000000000000000000008d
:108be800000000000000000000000000000000007d
:108bf80000000000f00000008c010000840100006b
:108c08000603000006030000060300000603000038
:108c18008c030000780300000001000080010000c0
:108c2800c0000000200000001c0000000000000040
:108c3800000000000000000000000000000000002c
:108c4800000000000000000000000000000000001c
:108c58000000000000000000000c00000c0c0000e8
:108c68000000000000000000000c00000c0c0000d8
:108c780000000000000000000000000000000000ec
:108c880000000000000000000000000000000000dc
:108c98000c0c00000c0000000000000000000000a8
:108ca8000e0f00000c0c0000040200000000000081
:108cb80000000000000000000000000000000000ac
:108cc800000000000000000000000000000000009c
:108cd800000000000000000000000000000100008b
:108ce800e00100003c000000060000001c0000003d
:108cf800f0000000800100000000000000000000fb
:108d0800000000000000000000000000000000005b
:108d1800000000000000000000000000000000004b
:108d2800000000000000000000000000000000003b
:108d3800000000000000000000000000000000002b
:108d4800000000000000000000000000000000001b
:108d5800fe0100000000000000000000fe0100000d
:108d680000000000000000000000000000000000fb
:108d780000000000000000000000000000000000eb
:108d880000000000000000000000000000000000db
:108d980000000000000000000000000000000000cb
:108da80000000000000000000000000000000000bb
:108db80000000000060000003c000000e001000088
:108dc80080010000f00000001e000000020000000a
:108dd800000000000000000000000000000000008b
:108de800000000000000000000000000000000007b
:108df800000000000000000000000000000000006b
:108e080000000000f8000000cc010000860100000e
:108e1800860100008001000080010000c000000001
:108e2800600000006000000030000000300000001a
:108e380030000000100000000000000030000000ba
:108e480030000000300000000000000000000000ba
:108e5800000000000000000000000000000000000a
:108e680000000000000000000000000000000000fa
:108e780000000000000000000000000000000000ea
:108e8800000000003f000000c0700000003000003b
:108e9800c0000000188000000108000080010000e8
:108ea8000c97000003840000180300004618000017
:108eb800036600001803000066180000036600003f
:108ec8001803000066180000016e000098010000f9
:108ed800cc9c0000008c000073000000180000000b
:108ee8000038000080000000e0e000000180000081
:108ef8001f0000000000000000000000000000004b
:108f08000000000000000000000000000000000059
:108f18000000000000000000000000000040000009
:108f280000c0000000a0000000a0000001a0000098
:108f380001100000011000000310000003f80000f9
:108f48000308000006080000060400000c040000e6
:108f58000c1f00001e0000000000000000000000c0
:108f680000000000000000000000000000000000f9
:108f780000000000000000000000000000000000e9
:108f8800000000000000000000fe0000008d00004e
:108f9800030c0000030c0000030c0000038c00000d
:108fa80001fc0000018c0000030c0000070c00000d
:108fb800060c0000060c0000060c000003ff000071
:108fc8000100000000000000000000000000000098
:108fd8000000000000000000000000000000000089
:108fe8000000000000000000000000000000000079
:108ff8000000000000c00000073000000c0800005e
:10900800000c00000004000000060000000600003c
:10901800000600000006000000060000000c00002a
:10902800000c00000838000004e000000300000005
:109038000000000000000000000000000000000028
:109048000000000000000000000000000000000018
:109058000000000000000000000000000000000008
:1090680000fe0000010d0000070c00000e0c0000bf
:109078000c0c0000180c0000180c0000180c000064
:10908800180c0000180c0000180c00000c0c000054
:109098000e0c000007ff00000100000000000000a7
:1090a80000000000000000000000000000000000b8
:1090b80000000000000000000000000000000000a8
:1090c80000000000000000000000000000ff000099
:1090d800030c0000020c0000020c0000000c000051
:1090e800000c000000fc0000018c0000000c0000d7
:1090f800000c0000000c0000000c0000040c000034
:1091080006ff00000300000000000000000000004f
:109118000000000000000000000000000000000047
:109128000000000000000000000000000000000037
:10913800000000000000000000ff0000030c000019
:10914800020c0000020c0000000c0000000c0000e3
:1091580000fc0000018c0000000c0000000c000066
:10916800000c0000000c0000000c0000003f000094
:1091780000000000000000000000000000000000e7
:1091880000000000000000000000000000000000d7
:1091980000000000000000000000000000000000c7
:1091a8000000000000e000000310000006080000b6
:1091b800000c000000060000000600000006000089
:1091c800008600000f06000006060000060c0000de
:1091d800060c00000618000006f000000100000060
:1091e8000000000000000000000000000000000077
:1091f8000000000000000000000000000000000067
:109208000000000000000000000000000000000056
:10921800003f00007e0c0000180c0000180c000035
:10922800180c0000180c000018fc00001f0c0000af
:10923800180c0000180c0000180c0000180c000096
:10924800180c0000183f00007e000000000000001d
:109258000000000000000000000000000000000006
:1092680000000000000000000000000000000000f6
:10927800003f00000c0c00000c0c00000c0c00005f
:109288000c0c00000c0c00000c0c00003f0000004f
:1092980000000000000000000000000000000000c6
:1092a80000000000000000007e18000018180000f0
:1092b80018180000181800001818000018180000e6
:1092c800181800001808000004030000000000003f
:1092d8000000000000000000000000000000000086
:1092e8000000000000000000003f00000f0c00001c
:1092f800020c0000018c0000004c0000006c000013
:10930800003c0000006c000000ec000000cc0000f5
:10931800008c0000010c0000030c0000063f000058
:109328001c00000000000000000000000000000019
:109338000000000000000000000000000000000025
:109348000000000000000000000000000000000015
:1093580000000000003f0000000c0000000c0000ae
:10936800000c0000000c0000000c0000000c0000c5
:10937800000c0000000c0000000c0000000c0000b5
:10938800000c0000040c000002ff000003000000b5
:1093980000000000000000000000000000000000c5
:1093a80000000000000000000000000000000000b5
:1093b80000000000000000000000000000000000a5
:1093c800000000000000000000000000001e000077
:1093d800c00100001ce00000001c0000e0000000cc
:1093e8003cf00000002c0000d00000006cd0000011
:1093f800006c0000c8000000ccc8000000cc0000d1
:10940800cc0000008cc50000008c0000c7000000e4
:109418000cc30000000c0000c30000001ee10000a7
:109428000300000000000000000000000000000031
:109438000000000000000000000000000000000024
:109448000000000000000000000000000000000014
:109458000000000000000000000000000000000004
:10946800000000000f7e00000c1800001c1800000f
:109478003c1800002c1800004c180000cc18000004
:109488008c1900000c1900000c1b00000c1e0000b9
:109498000c1c00000c1c00003f180000000000001d
:1094a80000000000000000000000000000000000b4
:1094b80000000000000000000000000000000000a4
:1094c8000000000000000000000000000000000094
:1094d800e003000018060000080c00000c0c000057
:1094e80006180000061800000618000006180000fc
:1094f80006180000061800000c0c00000c04000000
:1095080018020000f0010000000000000000000048
:109518000000000000000000000000000000000043
:109528000000000000000000000000000000000033
:10953800000000000000000000000000fe01000024
:109548000d0300000c0600000c0600000c060000cd
:109558000c0600000c030000fc0000000c000000da
:109568000c0000000c0000000c0000000c000000c3
:109578003f000000000000000000000000000000a4
:1095880000000000000000000000000000000000d3
:1095980000000000000000000000000000000000c3
:1095a8000000000000000000e003000018060000b2
:1095b800080c00000c0c000006180000061800003b
:1095c800061800000618000006180000061800001b
:1095d8000c0c00000c0c000018060000f001000044
:1095e8000003000000060000003800000000000032
:1095f8000000000000000000000000000000000063
:109608000000000000000000000000000000000052
:1096180000000000fe0100000d0300000c06000021
:109628000c0600000c0600000c030000fc00000003
:10963800cc000000cc0000008c0100000c030000ee
:109648000c0300000c0600003f1c00000000000096
:109658000000000000000000000000000000000002
:1096680000000000000000000000000000000000f2
:1096780000000000000000000000000000000000e2
:10968800f80000008c010000060000000600000041
:109698000e0000003c000000f8000000e00100009f
:1096a8008003000000030000020300000201000024
:1096b800860100007c00000000000000000000009f
:1096c8000000000000000000000000000000000092
:1096d8000000000000000000000000000000000082
:1096e800000000000000000000000000ff0f000064
:1096f80061080000610800006000000060000000d0
:1097080060000000600000006000000060000000d1
:1097180060000000600000006000000060000000c1
:10972800f801000000000000000000000000000038
:109738000000000000000000000000000000000021
:109748000000000000000000000000000000000011
:1097580000000000000000003f7e00000c18000020
:109768000c1800000c1800000c1800000c18000061
:109778000c1800000c1800000c1800000c18000051
:109788000c180000180c000038060000e003000068
:1097980000000000000000000000000000000000c1
:1097a80000000000000000000000000000000000b1
:1097b80000000000000000000000000000000000a1
:1097c800000000001f3c00000c1800000c080000fe
:1097d80018080000180c00001804000030060000eb
:1097e8003002000020020000600300006001000059
:1097f800c0010000c001000080000000000000005f
:109808000000000000000000000000000000000050
:109818000000000000000000000000000000000040
:109828000000000000000000000000000000000030
:109838000000000000000000000000001fc200003f
:10984800070c0000060100000c060000010c0000d7
:10985800070100000c8d0000010800008d000000c9
:10986800988900000098000098000000989800006f
:1098780000d00000d00000007070000000700000f0
:109888007000000070600000002000006000000010
:1098980000000000000000000000000000000000c0
:1098a80000000000000000000000000000000000b0
:1098b80000000000000000000000000000000000a0
:1098c8000000000000000000000000000000000090
:1098d800003f00001f0c00000c18000006380000b4
:1098e8000330000001e0000001c0000000c00000db
:1098f80001a0000001300000031800000608000065
:109908000e0c00000c1f00003e00000000000000cc
:10991800000000000000000000000000000000003f
:10992800000000000000000000000000000000002f
:109938000000000000000000000000000007000018
:109948003e0c00000c180000041800000230000053
:109958000360000001e0000001c0000000c000003a
:1099680000c0000000c0000000c0000000c00000ef
:1099780000f00000030000000000000000000000ec
:1099880000000000000000000000000000000000cf
:1099980000000000000000000000000000000000bf
:1099a800000000000000000000fc000007040000a8
:1099b800030200000380000001c0000000c0000096
:1099c8000060000000700000003000000018000077
:1099d80000180000000c00000406000004fe00004f
:1099e8000700000000000000000000000000000068
:1099f800000000000000000000000000000000005f
:109a0800003e0000060600000606000006060000ec
:109a1800060600000606000006060000060600000e
:109a28000606000006060000060600003e000000cc
:109a3800000000000000000000000000020000001c
:109a48000600000006000000040000000c000000f2
:109a580008000000180000001800000010000000b6
:109a6800300000003000000020000000600000000e
:109a78004000000040000000c0000000800000001e
:109a880080010000800100000001000000030000c8
:109a980000020000000000000000000000000000bc
:109aa800000000003e300000303000003030000080
:109ab800303000003030000030300000303000001e
:109ac800303000003030000030300000303e000000
:109ad800000000000000000000000000000000007e
:109ae80000200000006000000070000000d00000ae
:109af80000d800000088000000880000018c0000e9
:109b08000104000003040000030200000300000039
:109b1800000000000000000000000000000000003d
:109b2800000000000000000000000000000000002d
:109b3800000000000000000000000000000000001d
:109b4800000000000000000000000000000000000d
:109b580000000000000000000000000000000000fd
:109b680000000000000000000000000000000000ed
:109b780000000000000000000000000000000000dd
:109b880000000000000000000000000000000000cd
:109b9800000000000000000000fe000003000000bc
:109ba80000000000000000000000000000000000ad
:109bb80000000000030600000c0800001000000070
:109bc800000000000000000000000000000000008d
:109bd800000000000000000000000000000000007d
:109be800000000000000000000000000000000006d
:109bf800000000000000000000000000000000005d
:109c0800000000000000000000000000f00000005c
:109c18008c0100008601000080010000f0010000b6
:109c28008c0100008601000086010000c6010000ca
:109c3800bc07000000000000000000000000000059
:109c4800000000000000000000000000000000000c
:109c58000000000000000000000000000c000000f0
:109c68000e0000000c0000000c0000000c000000ba
:109c78000c0000000c000000cc0100003c030000b8
:109c88001c0700000c0600000c0600000c06000073
:109c98000c0600000c0200001c010000f00000008f
:109ca80000000000000000000000000000000000ac
:109cb800000000000000000000000000000000009c
:109cc800000000000000000000000000000000008c
:109cd800000000000000000000000000000000007c
:109ce80000000000e0010000180300000c00000064
:109cf8000600000006000000060000000600000044
:109d08000c0000001c030000f00000000000000030
:109d1800000000000000000000000000000000003b
:109d2800000000000000000000000000000000002b
:109d38000000000000030000c00300000003000052
:109d480000030000000300000003000000030000ff
:109d5800f00300008803000004030000060300006d
:109d68000603000006030000060300000e030000bf
:109d7800cc0b0000380700000000000000000000c5
:109d880000000000000000000000000000000000cb
:109d980000000000000000000000000000000000bb
:109da80000000000000000000000000000000000ab
:109db800000000000000000000000000f0000000ab
:109dc8000803000004030000fe0300000600000072
:109dd80006000000060000000c0000001c03000044
:109de800f00000000000000000000000000000007b
:109df800000000000000000000000000000000005b
:109e08000000000000600000501800000c0c00006a
:109e18000c0c00007e0d00000c0c00000c0c000067
:109e28000c0c00000c3f00000000000000000000c7
:109e3800000000000000000000000000000000001a
:109e4800000000000000000000000000000000000a
:109e580000000000000000000000000000f8000002
:109e68000c8c000003060000030600000306000037
:109e7800038c000001f8000000180000001c00001e
:109e880000f80000030600000e0300000c030000a9
:109e98000c06000006fc00000100000000000000a5
:109ea800000000000000000000000000000c00009e
:109eb800000f0000000c0000000c0000000c000067
:109ec800000c0000000c000000cc0000032c000077
:109ed800061c0000060c0000060c0000060c000022
:109ee800060c0000060c0000060c000006bf00006f
:109ef8001f0000000000000000000000000000003b
:109f08000000000000000000000000000000000049
:109f180000000000000000000c0c00000000000021
:109f2800000c00000f0c00000c0c00000c0c0000d2
:109f38000c0c00003f0000000000000000000000c2
:109f4800000000000000000000000000000c0000fd
:109f58000c000000000000000c0f00000c0c0000ba
:109f68000c0c00000c0c00000c0c00000c0c000089
:109f780004020000010000000000000000000000d2
:109f880000000000000c0000000f0000000c0000a2
:109f9800000c0000000c0000000c0000000c000089
:109fa800008c0000078c000001cc0000002c000091
:109fb800003c0000006c000000cc0000008c000099
:109fc800010c0000031f00000f000000000000004b
:109fd8000000000000000000000000000000000079
:109fe8000000000000000000000000000c0f00004e
:109ff8000c0c00000c0c00000c0c00000c0c0000f9
:10a008000c0c00000c0c00000c0c00003f000000c1
:10a018000000000000000000000000000000000038
:10a028000000000000000000000000000000000028
:10a038000000000000000000000000000000000018
:10a048000000000000000000000000000000000008
:10a0580000000000000000008ee30000016d000019
:10a06800160300001c0e0000030c0000060300008d
:10a078000c060000030c0000060300000c0600009c
:10a08800030c0000060300000c06000003bf0000dc
:10a09800df0f0000000000000000000000000000ca
:10a0a80000000000000000000000000000000000a8
:10a0b8000000000000000000000000000000000098
:10a0c8000000000000000000000000000000000088
:10a0d8000000000000000000000000000000000078
:10a0e80000000000008e0000036d0000061c000048
:10a0f800060c0000060c0000060c0000060c000010
:10a10800060c0000060c000006bf00001f0000003f
:10a118000000000000000000000000000000000037
:10a128000000000000000000000000000000000027
:10a138000000000000000000000000000000000017
:10a148000000000000000000000000000000000007
:10a1580000f000000088000003040000030600006f
:10a16800060600000606000006060000060c0000b1
:10a17800021c000001f000000000000000000000c8
:10a1880000000000000000000000000000000000c7
:10a1980000000000000000000000000000000000b7
:10a1a80000000000000000000000000000000000a7
:10a1b80000000000000000000000000000ce0000c9
:10a1c800013d0000031c0000070c0000060c000005
:10a1d800060c0000060c0000060c0000021c000023
:10a1e80003ec0000000c0000000c0000000c000054
:10a1f800000c0000003f000000000000000000000c
:10a208000000000000000000000000000000000046
:10a218000000000000000000000000000000000036
:10a22800000000000000000000f0000002880000ac
:10a23800030c0000030600000306000003060000ec
:10a2480003060000030e0000038c000003780000e2
:10a2580003000000030000000300000003000000ea
:10a2680003c000000f000000000000000000000014
:10a2780000000000000000000000000000000000d6
:10a2880000000000000000000000000000000000c6
:10a298000000000000cc000001af0000019c00009d
:10a2a800001c0000000c0000000c0000000c000066
:10a2b800000c0000000c0000003f0000000000003f
:10a2c8000000000000000000000000000000000086
:10a2d8000000000000000000000000000000000076
:10a2e8000000000000000000000000000000000066
:10a2f8000000000000000000000000000000000056
:10a30800007c00000066000000060000000e00004f
:10a31800003c000000f0000000c0000000c2000087
:10a3280000c20000003e0000000000000000000025
:10a338000000000000000000000000000000000015
:10a348000000000000000000000000000000000005
:10a35800000800000c0c00000cfe00000d0c0000b2
:10a368000c0c00000c0c00000c8c000078000000a5
:10a3780000000000000000000000000000000000d5
:10a3880000000000000000000000000000000000c5
:10a3980000000000000000000000000000000000b5
:10a3a800000000000c030000ce0300000c030000b6
:10a3b8000c0300000c0300000c0300000c03000059
:10a3c8000c030000cc0b0000380700000000000060
:10a3d8000000000000000000000000000000000075
:10a3e8000000000000000000000000000000000065
:10a3f8000000000000000000000000000000000055
:10a408000000000000000000000000000000000044
:10a418009f070000040200000c0100000c0100006e
:10a4280098010000980000009000000070000000f3
:10a438006000000020000000000000000000000094
:10a448000000000000000000000000000000000004
:10a4580000000000000000000000000000000000f4
:10a4680000000000000000000000000000000000e4
:10a478000000000000000000000000001ff10000c4
:10a4880004410000842300008c230000882600007b
:10a498004836000058140000301c0000301c000032
:10a4a800300800000000000000000000000000006c
:10a4b8000000000000000000000000000000000094
:10a4c8000000000000000000000000000000000084
:10a4d8000000000000000000000000000000000074
:10a4e80000000000000000009f0700000c010000b1
:10a4f80098000000f00000006000000070000000fc
:10a50800d000000088010000040300008f0700004d
:10a518000000000000000000000000000000000033
:10a528000000000000000000000000000000000023
:10a538000000000000000000000000000000000013
:10a548000000000000000000000000000000000003
:10a55800000000009f070000040200000c0100003a
:10a568000c01000098010000980000009000000015
:10a578007000000060000000600000002000000083
:10a5880030000000100000000f000000070000006d
:10a5980000000000000000000000000000000000b3
:10a5a80000000000000000000000000000000000a3
:10a5b8000000000000000000000000000000000093
:10a5c800fe01000082010000c200000060000000df
:10a5d8002000000030000000180000000c010000fe
:10a5e80004010000fe01000000000000000000005f
:10a5f8000000000000000000000000000000000053
:10a6080000000000000000004030000010180000aa
:10a61800181800003830000030100000081e000034
:10a628003030000030300000181800001818000002
:10a638003040000000000000000000000c0c00008a
:10a648000c0c00000c0c00000c0c00000c0c0000a2
:10a658000c0c00000c0c00000c0c00000c0c000092
:10a668000c0c00000c0c00000c0c0000000000009a
:10a6780000000000020c0000181800001818000064
:10a688000c0c00000c0c000078100000080c0000f6
:10a698000c1c000018180000180800000c0200002c
:10a6a80000000000000000000000000000000000a2
:10a6b8000000000000000000000000000000000092
:10a6c8000000000000000000000000000000000082
:10a6d80000180000047c000002f2000001c2000023
:10a6e8000100000000000000000000000000000061
:10a6f8000000000000000000000000000000000052
:10a708000000000000000000000000000000000041
:10a718000000000000000000e2be0000550000003c
:10a728005300000042000000200000004500000027
:10a7380072000000720000006f000000720000004c
:10a74800000000006e0000006f00000074000000b0
:10a758002000000073000000750000007000000079
:10a76800700000006f00000072000000740000001c
:10a7780065000000640000002100000000000000e7
:10a788004600000061000000690000006c00000045
:10a7980065000000640000000000000048000000a0
:10a7a80055000000420000000000000044000000c6
:10a7b80065000000760000006900000063000000ea
:10a7c8006500000000000000450000006e00000069
:10a7d800750000006d0000006500000072000000b8
:10a7e8006100000074000000690000006f000000b4
:10a7f8006e00000000000000430000006c00000034
:10a8080069000000650000006e0000007400000090
:10a8180020000000490000006e00000069000000f0
:10a828007400000069000000610000006c00000076
:10a83800690000007a000000610000007400000058
:10a84800690000006f0000006e00000000000000ba
:10a858004f00000075000000740000002000000098
:10a868006f00000066000000200000004d0000009e
:10a87800650000006d0000006f000000720000001d
:10a888007900000000000000550000006e00000084
:10a898007300000070000000650000006300000005
:10a8a8006900000066000000690000006500000003
:10a8b800640000000000000045000000780000006f
:10a8c800690000007400000000000000540000004f
:10a8d8006f000000750000006300000068000000c1
:10a8e80020000000740000006f000000200000003d
:10a8f80070000000720000006f000000630000009c
:10a908006500000065000000640000000000000011
:10a91800410000006c0000007000000068000000aa
:10a928006100000020000000420000006c000000f0
:10a93800650000006e000000640000006500000073
:10a9480064000000200000004200000075000000c4
:10a9580074000000740000006f0000006e0000002a
:10a9680073000000000000005000000061000000bb
:10a978006e000000650000006c0000002000000070
:10a9880044000000650000006d0000006f0000003a
:10a9980000000000530000006c0000006900000087
:10a9a8006400000065000000200000005300000063
:10a9b800680000006f000000770000000000000041
:10a9c80050000000650000007200000066000000f2
:10a9d8006f000000720000006d00000061000000c0
:10a9e8006e00000063000000650000000000000029
:10a9f800430000006f0000006e00000066000000c9
:10aa08006900000067000000000000004900000025
:10aa18006e000000660000006f00000000000000eb
:10aa280055000000700000006c0000006f0000007e
:10aa380061000000640000000000000055000000f4
:10aa4800700000006c0000006f0000006100000052
:10aa580064000000200000004d00000065000000b8
:10aa68006d0000006f000000720000007900000017
:10aa78002e0000002e0000002e0000000000000044
:10aa88004100000075000000740000006f00000025
:10aa98002000000044000000650000006d00000078
:10aaa8006f000000000000003200000034000000c9
:10aab8004200000050000000500000004300000069
:10aac8006f0000006c0000006f00000072000000c2
:10aad8000000000053000000700000006500000046
:10aae800650000006400000000000000470000004e
:10aaf80072000000610000006400000069000000ae
:10ab0800650000006e000000740000007300000083
:10ab180000000000410000006c0000007000000010
:10ab28006800000061000000420000006c000000a6
:10ab3800650000006e00000064000000690000006d
:10ab48006e000000670000000000000042000000e6
:10ab580061000000630000006b0000006700000057
:10ab6800720000006f000000750000006e00000019
:10ab78006400000000000000410000006c000000bc
:10ab88007000000068000000610000000000000084
:10ab980050000000610000006c0000006c00000024
:10aba80065000000740000007400000065000000eb
:10abb8000000000042000000610000006300000087
:10abc8006b0000006c0000006900000067000000d6
:10abd800680000007400000000000000540000003d
:10abe8006f000000750000006300000068000000ae
:10abf8002000000043000000610000006c0000001d
:10ac0800690000006200000072000000610000009e
:10ac18007400000065000000000000002b00000028
:10ac2800000000002d000000000000004c000000a3
:10ac38006900000067000000680000007400000060
:10ac4800690000006e0000006700000000000000be
:10ac5800530000006500000063000000750000005c
:10ac68007200000069000000740000007900000014
:10ac780000000000450000006e00000065000000b4
:10ac8800720000006700000079000000200000004a
:10ac9800550000007300000061000000670000001c
:10aca8006500000000000000430000006f00000085
:10acb8006d000000660000006f00000072000000d8
:10acc8007400000000000000410000005500000072
:10acd800540000004f000000000000004800000081
:10ace8004500000041000000540000000000000082
:10acf800430000004f0000004f0000004c0000001f
:10ad0800000000004f000000460000004600000060
:10ad1800000000004f0000004e000000000000008e
:10ad2800550000007000000073000000740000006f
:10ad3800610000006900000072000000730000005c
:10ad480000000000440000006f00000077000000d1
:10ad58006e00000073000000740000006100000035
:10ad6800690000007200000073000000000000008d
:10ad780054000000650000006d0000007000000035
:10ad8800650000007200000061000000740000000f
:10ad9800750000007200000065000000000000005f
:10ada80053000000650000007400000070000000ff
:10adb8006f000000690000006e00000074000000d1
:10adc800000000004800000065000000610000006d
:10add8007400000000000000430000006f00000045
:10ade8006f0000006c00000000000000530000002d
:10adf8007900000073000000740000006500000086
:10ae08006d000000200000004d0000006f000000f1
:10ae1800640000006500000000000000460000001b
:10ae2800610000006e000000200000004d000000de
:10ae38006f000000640000006500000000000000d2
:10ae48003e0000003e0000003e0000003e00000002
:10ae5800000000003c0000003c0000003c00000036
:10ae68003c000000000000005600000056000000f2
:10ae78005600000056000000000000005e000000c0
:10ae88005e0000005e0000005e00000000000000a0
:10ae9800450000006e00000074000000650000001e
:10aea8007200000000000000430000006c00000079
:10aeb8006500000061000000720000000000000052
:10aec80032000000330000000000000032000000e3
:10aed8003300000031000000000000006b0000009b
:10aee8005700000068000000000000004400000057
:10aef80061000000790000007300000000000000fd
:10af0800450000006e0000007400000065000000ad
:10af180072000000200000005000000049000000fe
:10af28004e00000000000000530000006500000013
:10af38006300000075000000720000006900000056
:10af48007400000079000000200000004f0000009d
:10af58007000000074000000690000006f0000002d
:10af68006e000000730000000000000044000000b4
:10af7800690000007300000061000000720000001a
:10af88006d00000065000000640000000000000083
:10af980041000000720000006d0000006500000024
:10afa8006400000000000000530000006c00000076
:10afb80065000000650000007000000069000000e6
:10afc8006e0000006700000000000000560000004e
:10afd80061000000630000006100000074000000d0
:10afe800690000006f0000006e0000000000000013
:10aff800450000006e0000007400000065000000bd
:10b008007200000061000000690000006e0000008e
:10b01800690000006e0000006700000000000000ea
:10b02800540000006f000000640000006100000090
:10b0380079000000730000002000000055000000a7
:10b048007300000061000000670000006500000058
:10b05800000000004d0000006f0000006e000000be
:10b0680074000000680000006c0000007900000017
:10b07800200000005500000073000000610000007f
:10b088006700000065000000000000005500000097
:10b098007300000061000000670000006500000008
:10b0a8002000000048000000690000007300000054
:10b0b800740000006f0000007200000079000000ba
:10b0c800000000002a0000002000000053000000db
:10b0d8007500000070000000700000006f000000a4
:10b0e80072000000740000002000000066000000ec
:10b0f8006f00000072000000200000003200000015
:10b1080034000000620000007000000070000000c1
:10b1180020000000630000006f0000006c000000c9
:10b128006f000000720000002000000064000000b2
:10b138006500000070000000740000006800000056
:10b148002e00000000000000200000002000000089
:10b1580031000000360000002e000000370000001b
:10b16800200000004d000000690000006c00000095
:10b178006c000000690000006f0000006e00000015
:10b18800200000006d0000006f0000007200000049
:10b198006500000020000000630000006f00000050
:10b1a8006c0000006f0000007200000073000000d7
:10b1b80021000000000000004600000061000000bf
:10b1c80064000000690000006e00000067000000d5
:10b1d8002000000055000000730000006900000016
:10b1e8006e00000067000000200000004100000021
:10b1f8006c000000700000006800000061000000a2
:10b2080020000000420000006c0000006500000003
:10b218006e00000064000000690000006e0000007d
:10b2280067000000000000005600000061000000f8
:10b238007200000031000000000000002000000043
:10b24800000000004c0000006f00000061000000da
:10b2580064000000690000006e0000006700000044
:10b268002e0000002e0000002e000000000000004c
:10b2780020000000200000004400000045000000fd
:10b288004d0000004f0000002000000046000000b4
:10b298004500000041000000540000005500000077
:10b2a8005200000045000000530000003a00000072
:10b2b8000a0000000a0000002d0000002000000025
:10b2c800550000007000000020000000740000001d
:10b2d8006f00000020000000320000003400000071
:10b2e80062000000700000007000000020000000f4
:10b2f800630000006f0000006c0000006f00000099
:10b3080072000000200000006400000065000000da
:10b318007000000074000000680000000a000000cf
:10b328002d00000020000000410000006c0000001b
:10b3380070000000680000006100000020000000ac
:10b34800620000006c000000650000006e00000054
:10b3580064000000690000006e0000006700000043
:10b368000a0000002d00000020000000430000003b
:10b378006f0000006c0000006f0000007200000009
:10b38800200000006700000072000000610000005b
:10b398006400000069000000650000006e00000005
:10b3a800740000000a0000002d00000020000000ca
:10b3b8007300000063000000720000006f000000ce
:10b3c8006c0000006c000000690000006e000000c6
:10b3d800670000000a0000002d00000020000000a7
:10b3e8004d000000750000006c00000074000000b3
:10b3f800690000002d0000006200000075000000d8
:10b408006600000066000000650000007200000091
:10b41800690000006e000000670000000a000000dc
:10b428002d00000020000000540000007200000001
:10b43800610000006e000000730000007000000052
:10b448006100000072000000650000006300000059
:10b45800790000000a0000002d0000002000000014
:10b468005300000063000000720000006500000047
:10b47800650000006e00000020000000720000005f
:10b488006f000000740000006100000074000000fc
:10b49800690000006f0000006e0000000a00000054
:10b4a8002d000000200000004200000061000000a4
:10b4b800630000006b0000006c00000069000000e1
:10b4c8006700000068000000740000002000000011
:10b4d800630000006f0000006e00000074000000b0
:10b4e800720000006f0000006c0000000a000000fd
:10b4f8002d0000002000000050000000490000005e
:10b5080050000000200000005300000075000000fb
:10b5180070000000700000006f0000007200000062
:10b52800740000000a0000002d0000002000000048
:10b538004f0000006e0000002d00000063000000b6
:10b548006800000069000000700000002000000092
:10b5580031000000360000006200000069000000b1
:10b56800740000002000000050000000610000008e
:10b5780072000000610000006c0000006c00000018
:10b58800650000006c000000200000004d00000075
:10b5980061000000730000007400000065000000f6
:10b5a8007200000020000000500000006f00000042
:10b5b80072000000740000000a0000002d00000066
:10b5c800200000004500000070000000730000002b
:10b5d8006f0000006e000000200000005300000013
:10b5e800310000004400000031000000330000007a
:10b5f8003500000031000000370000002000000086
:10b608006400000069000000730000007000000082
:10b618006c000000610000007900000020000000bc
:10b62800630000006f0000006e000000740000005e
:10b63800720000006f0000006c0000006c00000049
:10b6480065000000720000000000000070000000ab
:10b65800720000006f0000006d0000007000000024
:10b66800740000002000000061000000700000006d
:10b67800700000006500000061000000720000001a
:10b68800730000002e00000000000000750000009c
:10b698006e00000074000000690000006c000000eb
:10b6a8002000000074000000680000006500000031
:10b6b8002000000063000000610000006c00000032
:10b6c80069000000620000007200000061000000d4
:10b6d80074000000690000006f0000006e000000a8
:10b6e800000000007000000072000000650000000b
:10b6f8007300000073000000690000006e00000085
:10b7080067000000200000006f0000006e000000cd
:10b7180020000000740000006800000065000000c0
:10b7280020000000730000006300000072000000a9
:10b738006500000065000000650000006e00000064
:10b7480000000000720000006500000073000000a7
:10b758006500000074000000200000007400000074
:10b768006800000065000000200000006200000082
:10b778006f0000006100000072000000640000001b
:10b788002000000077000000680000006900000049
:10b798006c0000006500000000000000540000007c
:10b7a8006f0000002000000052000000450000006b
:10b7b8005000000045000000410000005400000057
:10b7c8002000000063000000610000006c00000021
:10b7d80069000000620000007200000061000000c3
:10b7e80074000000690000006f0000006e00000097
:10b7f8002c00000000000000630000006f00000043
:10b808006e00000074000000690000006e00000077
:10b8180075000000650000002e0000000000000018
:10b82800540000006f000000750000006300000075
:10b8380068000000200000007300000063000000a2
:10b848007200000065000000650000006e00000046
:10b8580020000000740000006f00000000000000dd
:10b868007300000063000000720000006500000023
:10b87800650000006e00000020000000630000006a
:10b88800610000006c000000690000006200000018
:10b8980072000000610000007400000069000000f0
:10b8a8006f0000006e0000002e0000000000000085
:10b8b80050000000650000007200000066000000f3
:10b8c8006f000000720000006d00000069000000b9
:10b8d8006e000000670000002000000074000000f7
:10b8e8006f000000750000006300000068000000a1
:10b8f800000000000001000000010000000100003d
:10b9080000010000ff000000ff000000ff00000031
:10b91800fe000000fe000000fd000000fc0000002a
:10b92800fb000000fa000000f9000000f800000029
:10b93800f7000000f6000000f5000000f30000002a
:10b94800f2000000f1000000ef000000ed00000030
:10b95800ec000000ea000000e8000000e60000003b
:10b96800e4000000e2000000e0000000de0000004b
:10b97800db000000d9000000d7000000d400000060
:10b98800d2000000cf000000cc000000ca00000078
:10b99800c7000000c4000000c1000000be00000095
:10b9a800bb000000b8000000b5000000b2000000b5
:10b9b800af000000ab000000a8000000a5000000d8
:10b9c800a10000009e0000009a0000009600000000
:10b9d800930000008f0000008b000000880000002a
:10b9e80084000000800000007c0000007800000057
:10b9f80074000000700000006c0000006800000087
:10ba080064000000600000005c00000058000000b6
:10ba1800530000004f0000004b00000047000000ea
:10ba2800420000003e0000003a000000350000001f
:10ba3800310000002c000000280000002400000055
:10ba48001f0000001b00000016000000120000008c
:10ba58000d000000090000000400000000000000c4
:10ba68002070000069780000656c00007300000019
:10ba78005769000064740000683a00002000000064
:10ba880025730000256400002025000073000000d5
:10ba98004865000069670000687400003a200000eb
:10baa800004600005053000000460000726100008c
:10bab8006d650000732000005065000072200000d2
:10bac80053650000636f00006e6400003a200000b8
:10bad8000025000073250000312e000033660000a9
:10bae80020250000730000005050000053000000a3
:10baf80050690000786500006c7300002050000059
:10bb08006572000020530000656300006f6e00003e
:10bb1800643a00002000000025730000256c000036
:10bb28006420000025730000005000006f6c0000c6
:10bb3800796700006f6e00007320000050650000f8
:10bb48007220000053650000636f00006e640000ff
:10bb58003a2000000025000073250000312e000067
:10bb6800336600000000000040010000780000007b
:10bb7800e0010000f0000000400100006801000042
:10bb8800a0000000f0000000400100007800000064
:10bb980014f1000050000000720000006500000071
:10bba8007300000073000000200000002600000061
:10bbb8002000000052000000650000006c0000003a
:10bbc80065000000610000007300000065000000cf
:10bbd800000000006300000069000000720000001f
:10bbe800630000006c000000650000000000000019
:10bbf8006f0000006e0000002000000074000000cc
:10bc080068000000650000002000000066000000d9
:10bc1800690000006c0000006c0000006500000076
:10bc28006400000000000000b02a00003ed70000b9
:10bc3800e9000000ffff0000bbf70000ddae0000d8
:10bc48003e2600009fb600007ed700008ed300007d
:10bc58006400000000000000ddae000000000000ed
:10bc68003e26000000000000320000000000000036
:10bc78001f00000000f80000e0070000e0ff0000df
:10bc8800c9fd000010000000008000000004000052
:10bc9800f0ff000060fc00001f84000010fc0000a2
:10bca800f0870000f2ff000040fe0000a0fe000048
:10bcb800480000006f0000006d00000065000000f3
:10bcc8000000000002000000030000000600000061
:10bcd8000001000001000000010000000000000059
:08bce800000000000000000054
:020000040000fa
:10bcf00000100000300000003000000019f80000c3
:10bd000019f8000019f8000019f8000019f80000ef
:10bd100019f8000019f8000019f8000019f80000df
:10bd200019f8000019f8000019f8000019f80000cf
:10bd300019f8000019f8000019f8000019f80000bf
:10c36000ca520000aa52000019f8000019f8000093
:10c3700019f8000019f8000019f8000019f8000079
:10c3800019f8000019f8000019f8000019f8000069
:10c3900019f8000019f8000019f8000019f8000059
:10c3a00019f8000019f8000019f8000019f8000049
:10c3b00019f8000019f8000019f8000019f8000039
:10c3c00019f8000019f8000019f8000019f8000029
:10c3d00019f8000019f8000019f8000019f8000019
:10c3e00019f8000019f8000019f8000019f8000009
:10c3f00019f8000019f8000019f8000019f80000f9
:10c4000019f8000019f8000019f8000019f80000e8
:10c41000aa520000dbde0000dbde0000dbde0000f5
:10c42000dade0000ca5a000019f8000019f800000e
:10c4300019f8000019f8000019f8000019f80000b8
:10c4400019f8000019f8000019f8000019f80000a8
:10c4500019f8000019f8000019f8000019f8000098
:10c4600019f8000019f8000019f8000019f8000088
:10c4700019f8000019f8000019f8000019f8000078
:10c4800019f8000019f8000019f8000019f8000068
:10c4900019f8000019f8000019f8000019f8000058
:10c4a00019f8000019f8000019f8000019f8000048
:10c4b00019f8000019f8000019f8000019f8000038
:10c4c00019f8000019f8000019f8000019f8000028
:10c4d000aa520000dbde000038c6000038c60000ab
:10c4e000dbde0000ca5a000019f8000019f800004d
:10c4f00019f8000019f8000019f8000019f80000f8
:10c5000019f8000019f8000019f8000019f80000e7
:10c5100019f8000019f8000019f8000019f80000d7
:10c5200019f8000019f8000019f8000019f80000c7
:10c5300019f8000019f8000019f8000019f80000b7
:10c5400019f8000019f8000019f8000019f80000a7
:10c5500019f8000019f8000019f8000019f8000097
:10c5600019f8000019f8000019f8000019f8000087
:10c5700019f8000019f8000019f8000019f8000077
:10c5800019f8000019f8000019f8000019f8000067
:10c59000aa520000dbde000038c6000038c60000ea
:10c5a000dbde0000ca5a000019f8000019f800008c
:10c5b00019f8000019f8000019f8000019f8000037
:10c5c00019f8000019f8000019f8000019f8000027
:10c5d00019f8000019f8000019f8000019f8000017
:10c5e00019f8000019f8000019f8000019f8000007
:10c5f00019f8000019f8000019f8000019f80000f7
:10c6000019f8000019f8000019f8000019f80000e6
:10c6100019f8000019f8000019f8000019f80000d6
:10c6200019f8000019f8000019f8000019f80000c6
:10c6300019f8000019f8000019f8000019f80000b6
:10c6400019f8000019f8000019f8000019f80000a6
:10c65000aa520000dbde000038c6000038c6000029
:10c66000dbde0000ca5a000019f8000019f80000cb
:10c6700019f8000019f8000019f8000019f8000076
:10c6800019f8000019f8000019f8000019f8000066
:10c6900019f8000019f8000019f8000019f8000056
:10c6a00019f8000019f8000019f8000019f8000046
:10c6b00019f8000019f8000019f8000019f8000036
:10c6c00019f8000019f8000019f8000019f8000026
:10c6d00019f8000019f8000019f8000019f8000016
:10c6e00019f8000019f8000019f8000019f8000006
:10c6f00019f8000019f8000019f8000019f80000f6
:10c7000019f8000019f8000019f8000019f80000e5
:10c71000aa520000dbde000038c6000038c6000068
:10c72000dbde0000ca5a000019f8000019f800000a
:10c7300019f8000019f8000019f8000019f80000b5
:10c7400019f8000019f8000019f8000019f80000a5
:10c7500019f8000019f8000019f8000019f8000095
:10c7600019f8000019f8000019f8000019f8000085
:10c7700019f8000019f8000019f8000019f8000075
:10c7800019f8000019f8000019f8000019f8000065
:10c7900019f8000019f8000019f8000019f8000055
:10c7a00019f8000019f8000019f8000019f8000045
:10c7b00019f8000019f8000019f8000019f8000035
:10c7c00019f8000019f8000019f8000019f8000025
:10c7d000aa520000dbde000038c6000038c60000a8
:10c7e000dbde0000ca5a000019f8000019f800004a
:10c7f00019f8000019f8000019f8000019f80000f5
:10c8000019f8000019f8000019f8000019f80000e4
:10c8100019f8000019f8000019f8000019f80000d4
:10c8200019f8000019f8000019f8000019f80000c4
:10c8300019f8000019f8000019f8000019f80000b4
:10c8400019f8000019f8000019f8000019f80000a4
:10c8500019f8000019f8000019f8000019f8000094
:10c8600019f8000019f8000019f8000019f8000084
:10c8700019f8000019f8000019f8000019f8000074
:10c8800019f8000019f8000019f8000019f8000064
:10c89000aa520000dbde000038c6000038c60000e7
:10c8a000dbde0000ca5a000019f8000019f8000089
:10c8b00019f8000019f8000019f8000019f8000034
:10c8c00019f8000019f8000019f8000019f8000024
:10c8d00019f8000019f8000019f8000019f8000014
:10c8e00019f8000019f8000019f8000019f8000004
:10c8f00019f8000019f8000019f8000019f80000f4
:10c9000019f8000019f8000019f8000019f80000e3
:10c9100019f8000019f8000019f8000019f80000d3
:10c9200019f8000019f8000019f8000019f80000c3
:10c9300019f8000019f8000019f8000019f80000b3
:10c9400019f8000019f8000019f8000019f80000a3
:10c95000aa520000dbde000038c6000038c6000026
:10c96000dbde0000ca5a000019f8000019f80000c8
:10c9700019f8000019f8000019f8000019f8000073
:10c9800019f8000019f8000019f8000019f8000063
:10c9900019f8000019f8000019f8000019f8000053
:10c9a00019f8000019f8000019f8000019f8000043
:10c9b00019f8000019f8000019f8000019f8000033
:10c9c00019f8000019f8000019f8000019f8000023
:10c9d00019f8000019f8000019f8000019f8000013
:10c9e00019f8000019f8000019f8000019f8000003
:10c9f00019f8000019f8000019f8000019f80000f3
:10ca000019f8000019f8000019f8000019f80000e2
:10ca1000aa520000dbde000038c6000038c6000065
:10ca2000dbde0000ca5a000019f8000019f8000007
:10ca300019f8000019f8000019f8000019f80000b2
:10ca400019f8000019f8000019f8000019f80000a2
:10ca500019f8000019f8000019f8000019f8000092
:10ca600019f8000019f8000019f8000019f8000082
:10ca700019f8000019f8000019f8000019f8000072
:10ca800019f8000019f8000019f8000019f8000062
:10ca900019f8000019f8000019f8000019f8000052
:10caa00019f8000019f8000019f8000019f8000042
:10cab00019f8000019f8000019f8000019f8000032
:10cac00019f8000019f8000019f8000019f8000022
:10cad000aa520000dbde000038c6000038c60000a5
:10cae000dbde0000ca5a000019f8000019f8000047
:10caf00019f8000019f8000019f8000019f80000f2
:10cb000019f8000019f8000019f8000019f80000e1
:10cb100019f8000019f8000019f8000019f80000d1
:10cb200019f8000019f8000019f8000019f80000c1
:10cb300019f8000019f8000019f8000019f80000b1
:10cb400019f8000019f8000019f8000019f80000a1
:10cb500019f8000019f8000019f8000019f8000091
:10cb600019f8000019f8000019f8000019f8000081
:10cb700019f8000019f8000019f8000019f8000071
:10cb800019f8000019f8000019f8000019f8000061
:10cb9000aa520000dbde000038c6000038c60000e4
:10cba000dbde0000ca5a000019f8000019f8000086
:10cbb00019f8000019f8000019f8000019f8000031
:10cbc00019f8000019f8000019f8000019f8000021
:10cbd00019f8000019f8000019f8000019f8000011
:10cbe00019f8000019f8000019f8000019f8000001
:10cbf00019f8000019f8000019f8000019f80000f1
:10cc000019f8000019f8000019f8000019f80000e0
:10cc100019f8000019f8000019f8000019f80000d0
:10cc200019f8000019f8000019f8000019f80000c0
:10cc300019f8000019f8000019f8000019f80000b0
:10cc400019f8000019f8000019f8000019f80000a0
:10cc5000aa520000dbde000038c6000038c6000023
:10cc6000dbde0000ca5a000019f8000019f80000c5
:10cc700019f8000019f8000019f8000019f8000070
:10cc800019f8000019f8000019f8000019f8000060
:10cc900019f8000019f8000019f8000019f8000050
:10cca00019f8000019f8000019f8000019f8000040
:10ccb00019f8000019f8000019f8000019f8000030
:10ccc00019f8000019f8000019f8000019f8000020
:10ccd00019f8000019f8000019f80000aa52000025
:10cce000ca5a0000ca5a0000ca5a0000ca5a0000b4
:10ccf000ca5a0000ca5a0000ca5a0000ca5a0000a4
:10cd0000ca5a0000ca5a0000ca5a0000ca5a000093
:10cd1000aa520000fbde000038c6000038c6000042
:10cd2000dbde0000ca5a0000ca5a0000ca5a0000de
:10cd3000ca5a0000ca5a0000ca5a0000ca5a000063
:10cd4000ca5a0000ca5a0000ca5a0000ca5a000053
:10cd5000ca5a0000ca5a0000aa52000019f800007e
:10cd600019f8000019f8000019f8000019f800007f
:10cd700019f8000019f8000019f8000019f800006f
:10cd800019f8000019f8000019f8000019f800005f
:10cd900019f8000019f8000019f80000aa52000064
:10cda000dbde0000dbde0000dbde0000dbde00009f
:10cdb000dbde0000dbde0000dbde0000dbde00008f
:10cdc000dbde0000dbde0000dbde0000dbde00007f
:10cdd000fbde0000fbde000059ce000059ce000053
:10cde000fbde0000fbde0000dbde0000dbde00001f
:10cdf000dbde0000dbde0000dbde0000dbde00004f
:10ce0000dbde0000dbde0000dbde0000dbde00003e
:10ce1000dbde0000dbde0000aa52000019f8000093
:10ce200019f8000019f8000019f8000019f80000be
:10ce300019f8000019f8000019f8000019f80000ae
:10ce400019f8000019f8000019f8000019f800009e
:10ce500019f8000019f8000019f80000aa520000a3
:10ce60001bdf000059ce000059ce000059ce000053
:10ce700079ce000079ce000079ce000079ce000096
:10ce800079ce000079ce000079ce000079ce000086
:10ce900079ce000079ce000079ce000079ce000076
:10cea00079ce000079ce000079ce000079ce000066
:10ceb00079ce000079ce000079ce000079ce000056
:10cec00079ce000079ce000079ce000079ce000046
:10ced00079ce0000fbde0000aa52000019f8000025
:10cee00019f8000019f8000019f8000019f80000fe
:10cef00019f8000019f8000019f8000019f80000ee
:10cf000019f8000019f8000019f8000019f80000dd
:10cf100019f8000019f8000019f80000aa520000e2
:10cf2000dbde000018c6000018c6000018c60000ae
:10cf300018c6000018c6000018c6000018c6000079
:10cf400018c6000018c6000018c6000018c6000069
:10cf500018c6000018c6000018c6000018c6000059
:10cf600018c6000018c6000018c6000018c6000049
:10cf700018c6000018c6000018c6000018c6000039
:10cf800018c6000018c6000018c6000018c6000029
:10cf900038c60000fbde0000aa52000019f80000ad
:10cfa00019f8000019f8000019f8000019f800003d
:10cfb00019f8000019f8000019f8000019f800002d
:10cfc00019f8000019f8000019f8000019f800001d
:10cfd00019f8000019f8000019f80000aa52000022
:10cfe000fbde0000dbde0000dbde0000dbde00003d
:10cff000dbde0000dbde0000dbde0000dbde00004d
:10d00000dbde0000dbde0000dbde0000dbde00003c
:10d01000dbde0000fbde000038c6000038c6000082
:10d02000fbde0000dbde0000dbde0000dbde0000fc
:10d03000dbde0000dbde0000dbde0000dbde00000c
:10d04000dbde0000fbde0000fbde0000fbde00009c
:10d05000fbde0000fbde0000aa52000019f8000011
:10d0600019f8000019f8000019f8000019f800007c
:10d0700019f8000019f8000019f8000019f800006c
:10d0800019f8000019f8000019f8000019f800005c
:10d0900019f8000019f8000019f80000aa52000061
:10d0a000eb5a0000eb5a0000eb5a0000eb5a00006c
:10d0b000eb5a0000eb5a0000eb5a0000eb5a00005c
:10d0c000eb5a0000eb5a0000eb5a0000eb5a00004c
:10d0d000eb5a0000fbde000058ce000058c60000ee
:10d0e000fbde0000eb5a0000eb5a0000eb5a000098
:10d0f000eb5a0000eb5a0000eb5a0000eb5a00001c
:10d10000eb5a0000ca520000aa520000aa520000c6
:10d11000aa520000aa520000aa52000019f800000a
:10d1200019f8000019f8000019f8000019f80000bb
:10d1300019f8000019f8000019f8000019f80000ab
:10d1400019f8000019f8000019f8000019f800009b
:10d1500019f8000019f8000019f8000019f800008b
:10d1600019f8000019f8000019f8000019f800007b
:10d1700019f8000019f8000019f8000019f800006b
:10d1800019f8000019f8000019f8000019f800005b
:10d19000ca5a0000dbde000079ce000079ce000024
:10d1a0001be70000aa52000019f8000019f800005f
:10d1b00019f8000019f8000019f8000019f800002b
:10d1c00019f8000019f8000019f8000019f800001b
:10d1d00019f8000019f8000019f8000019f800000b
:10d1e00019f8000019f8000019f8000019f80000fb
:10d1f00019f8000019f8000019f8000019f80000eb
:10d2000019f8000019f8000019f8000019f80000da
:10d2100019f8000019f8000019f8000019f80000ca
:10d2200019f8000019f8000019f8000019f80000ba
:10d2300019f8000019f8000019f8000019f80000aa
:10d2400019f8000019f8000019f8000019f800009a
:10d25000ca5a0000fbde000099ce000079ce000023
:10d260001ce70000aa52000019f8000019f800009d
:10d2700019f8000019f8000019f8000019f800006a
:10d2800019f8000019f8000019f8000019f800005a
:10d2900019f8000019f8000019f8000019f800004a
:10d2a00019f8000019f8000019f8000019f800003a
:10d2b00019f8000019f8000019f8000019f800002a
:10d2c00019f8000019f8000019f8000019f800001a
:10d2d00019f8000019f8000019f8000019f800000a
:10d2e00019f8000019f8000019f8000019f80000fa
:10d2f00019f8000019f8000019f8000019f80000ea
:10d3000019f8000019f8000019f8000019f80000d9
:10d31000ca5a0000fbde00009ad600009ad6000030
:10d320003ce70000aa52000019f8000019f80000bc
:10d3300019f8000019f8000019f8000019f80000a9
:10d3400019f8000019f8000019f8000019f8000099
:10d3500019f8000019f8000019f8000019f8000089
:10d3600019f8000019f8000019f8000019f8000079
:10d3700019f8000019f8000019f8000019f8000069
:10d3800019f8000019f8000019f8000019f8000059
:10d3900019f8000019f8000019f8000019f8000049
:10d3a00019f8000019f8000019f8000019f8000039
:10d3b00019f8000019f8000019f8000019f8000029
:10d3c00019f8000019f8000019f8000019f8000019
:10d3d000ca5a00001be70000bad60000bad6000007
:10d3e0003ce70000aa52000019f8000019f80000fc
:10d3f00019f8000019f8000019f8000019f80000e9
:10d4000019f8000019f8000019f8000019f80000d8
:10d4100019f8000019f8000019f8000019f80000c8
:10d4200019f8000019f8000019f8000019f80000b8
:10d4300019f8000019f8000019f8000019f80000a8
:10d4400019f8000019f8000019f8000019f8000098
:10d4500019f8000019f8000019f8000019f8000088
:10d4600019f8000019f8000019f8000019f8000078
:10d4700019f8000019f8000019f8000019f8000068
:10d4800019f8000019f8000019f8000019f8000058
:10d49000ca5a00001ce70000dade0000dad60000fd
:10d4a0005ce70000aa52000019f8000019f800001b
:10d4b00019f8000019f8000019f8000019f8000028
:10d4c00019f8000019f8000019f8000019f8000018
:10d4d00019f8000019f8000019f8000019f8000008
:10d4e00019f8000019f8000019f8000019f80000f8
:10d4f00019f8000019f8000019f8000019f80000e8
:10d5000019f8000019f8000019f8000019f80000d7
:10d5100019f8000019f8000019f8000019f80000c7
:10d5200019f8000019f8000019f8000019f80000b7
:10d5300019f8000019f8000019f8000019f80000a7
:10d5400019f8000019f8000019f8000019f8000097
:10d55000ca5a00001ce70000dbde0000dade000033
:10d560005cef0000aa52000019f8000019f8000052
:10d5700019f8000019f8000019f8000019f8000067
:10d5800019f8000019f8000019f8000019f8000057
:10d5900019f8000019f8000019f8000019f8000047
:10d5a00019f8000019f8000019f8000019f8000037
:10d5b00019f8000019f8000019f8000019f8000027
:10d5c00019f8000019f8000019f8000019f8000017
:10d5d00019f8000019f8000019f8000019f8000007
:10d5e00019f8000019f8000019f8000019f80000f7
:10d5f00019f8000019f8000019f8000019f80000e7
:10d6000019f8000019f8000019f8000019f80000d6
:10d61000ca5a00001ce70000dbde0000dade000072
:10d620005cef0000aa52000019f8000019f8000091
:10d6300019f8000019f8000019f8000019f80000a6
:10d6400019f8000019f8000019f8000019f8000096
:10d6500019f8000019f8000019f8000019f8000086
:10d6600019f8000019f8000019f8000019f8000076
:10d6700019f8000019f8000019f8000019f8000066
:10d6800019f8000019f8000019f8000019f8000056
:10d6900019f8000019f8000019f8000019f8000046
:10d6a00019f8000019f8000019f8000019f8000036
:10d6b00019f8000019f8000019f8000019f8000026
:10d6c00019f8000019f8000019f8000019f8000016
:10d6d000ca5a00001ce70000dbde0000dade0000b2
:10d6e0005cef0000aa52000019f8000019f80000d1
:10d6f00019f8000019f8000019f8000019f80000e6
:10d7000019f8000019f8000019f8000019f80000d5
:10d7100019f8000019f8000019f8000019f80000c5
:10d7200019f8000019f8000019f8000019f80000b5
:10d7300019f8000019f8000019f8000019f80000a5
:10d7400019f8000019f8000019f8000019f8000095
:10d7500019f8000019f8000019f8000019f8000085
:10d7600019f8000019f8000019f8000019f8000075
:10d7700019f8000019f8000019f8000019f8000065
:10d7800019f8000019f8000019f8000019f8000055
:10d79000ca5a00001ce70000dbde0000dade0000f1
:10d7a0005cef0000aa52000019f8000019f8000010
:10d7b00019f8000019f8000019f8000019f8000025
:10d7c00019f8000019f8000019f8000019f8000015
:10d7d00019f8000019f8000019f8000019f8000005
:10d7e00019f8000019f8000019f8000019f80000f5
:10d7f00019f8000019f8000019f8000019f80000e5
:10d8000019f8000019f8000019f8000019f80000d4
:10d8100019f8000019f8000019f8000019f80000c4
:10d8200019f8000019f8000019f8000019f80000b4
:10d8300019f8000019f8000019f8000019f80000a4
:10d8400019f8000019f8000019f8000019f8000094
:10d85000ca5a00001ce70000dbde0000dade000030
:10d860005cef0000aa52000019f8000019f800004f
:10d8700019f8000019f8000019f8000019f8000064
:10d8800019f8000019f8000019f8000019f8000054
:10d8900019f8000019f8000019f8000019f8000044
:10d8a00019f8000019f8000019f8000019f8000034
:10d8b00019f8000019f8000019f8000019f8000024
:10d8c00019f8000019f8000019f8000019f8000014
:10d8d00019f8000019f8000019f8000019f8000004
:10d8e00019f8000019f8000019f8000019f80000f4
:10d8f00019f8000019f8000019f8000019f80000e4
:10d9000019f8000019f8000019f8000019f80000d3
:10d91000ca5200001be700005cef00005cef000053
:10d920005cef0000aa52000019f8000019f800008e
:10d9300019f8000019f8000019f8000019f80000a3
:10d9400019f8000019f8000019f8000019f8000093
:10d9500019f8000019f8000019f8000019f8000083
:10d9600019f8000019f8000019f8000019f8000073
:10d9700019f8000019f8000019f8000019f8000063
:10d9800019f8000019f8000019f8000019f8000053
:10d9900019f8000019f8000019f8000019f8000043
:10d9a00019f8000019f8000019f8000019f8000033
:10d9b00019f8000019f8000019f8000019f8000023
:10d9c00019f8000019f8000019f8000019f8000013
:10d9d000aa520000ca520000aa520000aa52000037
:10d9e000aa520000aa52000019f8000019f800001d
:10d9f00019f8000019f8000019f8000019f80000e3
:10da000019f8000019f8000019f8000019f80000d2
:10da100019f8000019f8000019f8000019f80000c2
:10da200019f8000019f8000019f8000019f80000b2
:10e0f00019f8000019f8000019f8000000100000dd
:10e10000300000003000000019f8000019f800008d
:10e1100019f8000019f8000019f8000019f80000bb
:10e1200019f8000019f8000019f8000019f80000ab
:10e1300019f8000019f8000019f8000019f800009b
:10e1400019f8000019f8000019f8000019f800008b
:10f0e00019f8000019f80000aa520000ca5a0000de
:10f0f000ca5a0000ca5a0000ca5a0000ca5a000080
:10f10000ca5a0000ca5a0000ca5a0000ca5a00006f
:10f11000ca5a0000ca5a0000ca5a0000ca5a00005f
:10f12000ca5a0000ca5a0000ca5a0000ca5a00004f
:10f13000ca5a0000ca5a0000ca5a0000ca5a00003f
:10f14000ca5a0000ca5a0000ca5a0000ca5a00002f
:10f15000ca5a0000ca5a0000ca5a0000ca5a00001f
:10f16000ca5a0000aa52000019f8000019f800005d
:10f1700019f8000019f8000019f8000019f800004b
:10f1800019f8000019f8000019f8000019f800003b
:10f1900019f8000019f8000019f8000019f800002b
:10f1a00019f8000019f80000aa520000dbde000088
:10f1b000dbde0000dbde0000dbde0000dbde00006b
:10f1c000dbde0000dbde0000dbde0000dbde00005b
:10f1d000dbde0000dbde0000dbde0000dbde00004b
:10f1e000dbde0000dbde0000dbde0000dbde00003b
:10f1f000dbde0000dbde0000dbde0000dbde00002b
:10f20000dbde0000dbde0000dbde0000dbde00001a
:10f21000dbde0000dbde0000dbde0000dbde00000a
:10f22000dbde0000aa52000019f8000019f8000007
:10f2300019f8000019f8000019f8000019f800008a
:10f2400019f8000019f8000019f8000019f800007a
:10f2500019f8000019f8000019f8000019f800006a
:10f2600019f8000019f80000aa5200001bdf000086
:10f2700059ce000059ce000059ce000079ce0000d2
:10f2800079ce000079ce000079ce000079ce000062
:10f2900079ce000079ce000079ce000079ce000052
:10f2a00079ce000079ce000079ce000079ce000042
:10f2b00079ce000079ce000079ce000079ce000032
:10f2c00079ce000079ce000079ce000079ce000022
:10f2d00079ce000079ce000079ce000079ce000012
:10f2e000fbde0000aa52000019f8000019f8000027
:10f2f00019f8000019f8000019f8000019f80000ca
:10f3000019f8000019f8000019f8000019f80000b9
:10f3100019f8000019f8000019f8000019f80000a9
:10f3200019f8000019f80000aa520000dbde000006
:10f3300018c6000018c6000018c6000018c6000055
:10f3400018c6000018c6000018c6000018c6000045
:10f3500018c6000018c6000018c6000018c6000035
:10f3600018c6000018c6000018c6000018c6000025
:10f3700018c6000018c6000018c6000018c6000015
:10f3800018c6000018c6000018c6000018c6000005
:10f3900018c6000018c6000018c6000038c60000d5
:10f3a000fbde0000aa52000019f8000019f8000066
:10f3b00019f8000019f8000019f8000019f8000009
:10f3c00019f8000019f8000019f8000019f80000f9
:10f3d00019f8000019f8000019f8000019f80000e9
:10f3e00019f8000019f80000aa520000fbde000026
:10f3f000dbde0000dbde0000dbde0000dbde000029
:10f40000dbde0000dbde0000dbde0000dbde000018
:10f41000dbde0000dbde0000dbde0000dbde000008
:10f42000dbde0000dbde0000dbde0000dbde0000f8
:10f43000dbde0000dbde0000dbde0000fbde0000c8
:10f44000fbde0000fbde0000fbde0000fbde000058
:10f45000fbde0000fbde0000fbde0000fbde000048
:10f46000fbde0000aa52000019f8000019f80000a5
:10f4700019f8000019f8000019f8000019f8000048
:10f4800019f8000019f8000019f8000019f8000038
:10f4900019f8000019f8000019f8000019f8000028
:10f4a00019f8000019f80000aa520000eb5a0000f9
:10f4b000eb5a0000eb5a0000eb5a0000eb5a000038
:10f4c000eb5a0000eb5a0000eb5a0000eb5a000028
:10f4d000eb5a0000eb5a0000eb5a0000eb5a000018
:10f4e000eb5a0000eb5a0000eb5a0000eb5a000008
:10f4f000eb5a0000eb5a0000eb5a0000ca52000021
:10f50000aa520000aa520000aa520000aa5200000b
:10f51000aa520000aa520000aa520000aa520000fb
:10f52000aa520000aa52000019f8000019f80000c1
:10f5300019f8000019f8000019f8000019f8000087
:10f5400019f8000019f8000019f8000019f8000077
:10f5500019f8000019f8000019f8000019f8000067
:10f5600019f8000019f8000019f8000019f8000057
:020000040001f9
:1005000019f8000019f80000001000003000000089
:100510003000000019f8000019f8000019f8000078
:1005200019f8000019f8000019f8000019f8000087
:1005300019f8000019f8000019f8000019f8000077
:1005400019f8000019f8000019f8000019f8000067
:1005500019f8000019f8000019f8000019f8000057
:1009000019f80000ef7b000030840000518c0000db
:10091000518c0000308c0000ef7b000019f80000c3
:1009200019f8000019f8000019f8000019f8000083
:1009300019f8000019f8000019f8000019f8000073
:1009400019f8000019f8000019f8000019f8000063
:1009500019f8000019f8000019f8000019f8000053
:1009600019f8000019f8000019f8000019f8000043
:1009700019f8000019f8000019f8000019f8000033
:1009800019f8000019f8000019f8000019f8000023
:1009900019f8000019f8000019f8000019f8000013
:1009a00019f8000019f8000019f8000019f8000003
:1009b00019f8000019f8000019f8000019f80000f3
:1009c0001084000092940000dbde00009ef700001f
:1009d0009ef700003ce7000055ad000030840000a9
:1009e0001084000019f8000019f8000019f8000040
:1009f00019f8000019f8000019f8000019f80000b3
:100a000019f8000019f8000019f8000019f80000a2
:100a100019f8000019f8000019f8000019f8000092
:100a200019f8000019f8000019f8000019f8000082
:100a300019f8000019f8000019f8000019f8000072
:100a400019f8000019f8000019f8000019f8000062
:100a500019f8000019f8000019f8000019f8000052
:100a600019f8000019f8000019f8000019f8000042
:100a700019f8000019f8000019f8000019f8000032
:100a800010840000b6b50000deff00005def00003e
:100a90003cef00005def0000bef70000f7bd000076
:100aa000308400001084000019f8000019f80000dc
:100ab00019f8000019f8000019f8000019f80000f2
:100ac00019f8000019f8000019f8000019f80000e2
:100ad00019f8000019f8000019f8000019f80000d2
:100ae00019f8000019f8000050840000508c000034
:100af000518c000019f8000019f8000019f80000e6
:100b000019f8000019f8000019f8000019f80000a1
:100b100019f8000019f8000019f8000019f8000091
:100b200019f8000019f8000019f8000019f8000081
:100b300019f8000019f8000019f8000019f8000071
:100b40001084000030840000f7bd0000bef70000f4
:100b50005def00003cef00005cef0000bef700001e
:100b6000f7bd0000308400001084000019f8000078
:100b700019f8000019f8000019f8000019f8000031
:100b800019f8000019f8000019f8000019f8000021
:100b900019f8000019f8000019f8000019f8000011
:100ba00019f80000508c0000718c0000b6b50000f0
:100bb000718c0000518c000019f8000019f8000039
:100bc00019f8000019f8000019f8000019f80000e1
:100bd00019f8000019f8000019f8000019f80000d1
:100be00019f8000019f8000019f8000019f80000c1
:100bf00019f8000019f8000019f8000019f80000b1
:100c000019f800001084000030840000d7bd0000f7
:100c1000bef700005def00003cef00005cef00005d
:100c2000bef70000f7bd000030840000aa520000ab
:100c300019f8000019f8000019f8000019f8000070
:100c400019f8000019f8000019f8000019f8000060
:100c500019f8000019f8000019f8000019f8000050
:100c600070840000718c0000f6bd0000dade000028
:100c700038c60000718c0000518c000019f800008b
:100c800019f8000019f8000019f8000019f8000020
:100c900019f8000019f8000019f8000019f8000010
:100ca00019f8000019f8000019f8000019f8000000
:100cb00030840000108400000000000019f80000db
:100cc00019f8000019f800001084000030840000ba
:100cd000d7bd0000bef700005def00003cef000054
:100ce0005cef0000bef70000b6b5000030840000e5
:100cf00019f8000019f8000019f8000019f80000b0
:100d000019f8000019f8000019f8000019f800009f
:100d100019f8000019f8000019f80000518c0000c3
:100d2000718c000095b500001be700001be7000078
:100d3000fbde000038c60000718c0000508400000b
:100d400019f8000019f8000019f8000019f800005f
:100d500019f8000019f8000019f8000019f800004f
:100d600019f8000019f8000019f80000ef7b0000e6
:100d700092940000f39c000030840000000000000a
:100d800019f8000019f8000019f80000108400009c
:100d900030840000d7bd0000bef700005cef00000b
:100da0003cef00005cef00009ef700009294000012
:100db0001084000019f8000019f8000019f800006c
:100dc00019f8000019f8000019f8000019f80000df
:100dd00019f8000019f8000019f80000508c000004
:100de000d2940000fbde00009df700005def0000e4
:100df0003ce70000fbde000075ad0000508c0000f9
:100e000019f8000019f8000019f8000019f800009e
:100e100019f8000019f8000019f8000019f800008e
:100e200019f8000019f8000019f8000030840000db
:100e30001ce70000bef7000034a50000308400006d
:100e40000000000019f8000019f8000019f800006f
:100e500010840000108400003ce700007def0000db
:100e60003cef00003cef00009ef70000f7bd0000e3
:100e7000ef7b000019f8000019f8000019f80000d5
:100e800019f8000019f8000019f8000019f800001e
:100e900019f8000019f8000019f80000718c000022
:100ea000d6b50000bef70000dfff0000bef700006f
:100eb0003ce70000b6b50000718c000070840000b3
:100ec00019f8000019f8000019f8000019f80000de
:100ed00019f8000019f8000019f8000019f80000ce
:100ee00019f8000019f8000019f80000308400001b
:100ef000bef700007def0000bef7000014a5000063
:100f0000308400000000000019f8000019f800000b
:100f100019f80000308400001ce700007def00009d
:100f20003cef00003cef00009ef7000038c60000d8
:100f30001084000019f8000019f8000019f80000ea
:100f400019f8000019f8000019f8000019f800005d
:100f500019f8000019f80000708c0000718c000076
:100f600078ce0000dade0000bef700003ce70000ab
:100f700075ad0000718c00003084000019f800008d
:100f800019f8000019f8000019f8000019f800001d
:100f900019f8000019f8000019f8000019f800000d
:100fa00019f8000019f8000019f80000518c000031
:100fb000bef700003cef00007def0000bef7000030
:100fc00014a500001084000019f8000019f80000b2
:100fd00010840000108400005def00007def000031
:100fe0003cef00003cef0000bef7000055ad0000f4
:100ff000ef7b000019f8000019f8000019f8000054
:1010000019f8000019f8000019f8000019f800009c
:1010100019f80000508c0000918c000058ce0000a0
:10102000bad6000079ce0000d6bd0000d29c0000e8
:10103000718c0000708c000019f8000019f8000095
:1010400019f8000019f8000019f8000019f800005c
:1010500019f8000019f8000019f8000019f800004c
:1010600019f8000019f8000019f80000518c000070
:101070007def00005cef00003cef00007def000022
:10108000bef7000014a500001084000010840000ca
:101090001084000079d60000bef700005cef00006d
:1010a0003cef00007def00007df7000010840000a1
:1010b0001084000019f8000019f8000019f8000069
:1010c00019f8000019f8000019f8000019f80000dc
:1010d000718c0000918c000058ce0000bad6000040
:1010e00058c60000708c0000718c0000718c0000ec
:1010f0001084000019f8000019f8000019f8000029
:1011000019f8000019f8000019f8000019f800009b
:1011100019f8000019f8000019f8000019f800008b
:1011200019f8000019f8000019f8000010840000f8
:10113000f7bd0000bef700005cef00003cef0000d0
:101140007def0000bef70000dbde0000dbde00000c
:101150003ce70000bef700005cef00003cef000041
:101160003cef00009ef700005def000010840000df
:10117000ef7b000019f8000019f8000019f80000d2
:1011800019f8000019f8000019f80000708c000030
:10119000918c000078ce0000bad6000058c600003e
:1011a000718c0000708c000019f8000019f8000024
:1011b00019f8000019f8000019f8000019f80000eb
:1011c00019f8000019f8000019f8000019f80000db
:1011d00019f8000019f8000019f8000019f80000cb
:1011e00019f8000019f8000019f800006d6b0000f4
:1011f0003084000079ce0000bef700005cef0000f4
:101200003cef00005def00007df700007def000087
:101210007def00005cef00003cef00003cef0000c1
:101220003cef00003cef00009ef70000fbde0000fa
:1012300030840000ef7b000019f8000019f800006e
:1012400019f8000019f80000708c0000918c000063
:1012500078ce0000bad6000058ce0000718c000095
:10126000508c000019f8000019f8000019f800006f
:1012700019f8000019f8000019f8000019f800002a
:1012800019f8000019f8000019f8000019f800001a
:1012900019f8000019f8000019f8000019f800000a
:1012a00019f8000019f8000019f8000019f80000fa
:1012b000108400003084000079ce0000bef70000ea
:1012c0005cef00003cef00003cef00003cef000052
:1012d0003cef00003cef00003cef00003cef000062
:1012e0003cef00003cef00003cef00009ef70000e8
:1012f000fbde000030840000ef7b000019f80000e6
:1013000019f8000050840000918c000058ce0000b5
:10131000bad6000058ce0000718c0000508c00003e
:1013200019f8000019f8000019f8000019f8000079
:1013300019f8000019f8000019f8000019f8000069
:1013400019f8000019f8000019f8000019f8000059
:1013500019f8000019f8000019f8000019f8000049
:1013600019f8000019f8000019f8000019f8000039
:1013700019f80000108400003084000079ce0000cd
:10138000bef700005cef00003cef00003cef000007
:101390003cef00005def00009ef700003cef000016
:1013a0003cef00001ce7000059ce000039c60000e9
:1013b0005def0000fbde00003084000010840000c0
:1013c00050840000718c0000f7bd000099d6000029
:1013d00058ce0000718c0000708c000019f80000dd
:1013e00019f8000019f8000019f8000019f80000b9
:1013f00019f8000019f8000019f8000019f80000a9
:1014000019f8000019f8000019f8000019f8000098
:1014100019f8000019f8000019f8000019f8000088
:1014200019f8000019f8000019f8000019f8000078
:1014300019f8000019f80000108400003084000042
:1014400059ce0000bef700009df700009df7000098
:10145000bef700009ef700009ef700009ef7000018
:101460003cef000039c6000018c6000018c6000096
:1014700018c600005def0000fbde000030840000b5
:10148000508c000054ad0000d6bd0000d6bd000059
:10149000718c0000708c000019f8000019f8000031
:1014a00019f8000019f8000019f8000019f80000f8
:1014b00019f8000019f8000019f8000019f80000e8
:1014c00019f8000019f8000019f8000019f80000d8
:1014d00019f8000019f8000019f8000019f80000c8
:1014e00019f8000019f8000019f8000019f80000b8
:1014f00019f8000019f8000019f800001084000025
:1015000030840000d39c000018c6000079ce000093
:10151000b6b5000010840000108400005cef0000ed
:101520009ef7000018c6000018c6000018c600008c
:1015300018c6000018c600005def0000fbde0000ca
:1015400030840000f29c000054ad0000708c00005c
:10155000708c000019f8000019f8000019f800005c
:1015600019f8000019f8000019f8000019f8000037
:1015700019f8000019f8000019f8000019f8000027
:1015800019f8000019f8000019f8000019f8000017
:1015900019f8000019f8000019f8000019f8000007
:1015a00019f8000019f8000019f8000019f80000f7
:1015b00019f8000019f8000019f8000019f80000e7
:1015c00019f800001084000010840000308400002e
:1015d00010840000cf7b000010840000518c0000bc
:1015e0005def00001ce7000018c6000018c60000f0
:1015f00018c6000018c6000018c600005def000005
:10160000fbde000030840000508c0000708c000075
:1016100019f8000019f8000019f8000019f8000086
:1016200019f8000019f8000019f8000019f8000076
:1016300019f8000019f8000019f8000019f8000066
:1016400019f8000019f8000019f8000019f8000056
:1016500019f8000019f8000019f8000019f8000046
:1016600019f8000019f8000019f8000019f8000036
:1016700019f8000019f8000019f8000019f8000026
:1016800019f8000019f8000019f8000019f8000016
:1016900019f8000019f8000019f800001084000083
:1016a000518c00005def00001ce7000018c6000030
:1016b00018c6000018c6000018c6000018c60000b2
:1016c0005def0000fbde000030840000ef7b0000d7
:1016d00019f8000019f8000019f8000019f80000c6
:1016e00019f8000019f8000019f8000019f80000b6
:1016f00019f8000019f8000019f8000019f80000a6
:1017000019f8000019f8000019f8000019f8000095
:1017100019f8000019f8000019f8000019f8000085
:1017200019f8000019f8000019f8000019f8000075
:1017300019f8000019f8000019f8000019f8000065
:1017400019f8000019f8000019f8000019f8000055
:1017500019f8000019f8000019f8000019f8000045
:1017600010840000518c00005def00001ce70000b9
:1017700018c6000018c6000018c6000018c60000f1
:1017800018c600005def0000fbde000030840000a2
:10179000ef7b000019f8000019f8000019f80000ac
:1017a00019f8000019f8000019f8000019f80000f5
:1017b00019f8000019f8000019f8000019f80000e5
:1017c00019f8000019f8000019f8000019f80000d5
:1017d00019f8000019f8000019f8000019f80000c5
:1017e00019f8000019f8000019f8000019f80000b5
:1017f00019f8000019f8000019f8000019f80000a5
:1018000019f8000019f8000019f8000019f8000094
:1018100019f800007122000050220000100400009e
:10182000ffff000010840000308400005def000026
:101830001ce7000018c6000018c6000018c600000b
:1018400018c6000039c600005def0000fbde000096
:1018500030840000ef7b000019f8000019f8000048
:1018600019f8000019f8000019f8000019f8000034
:1018700019f8000019f8000019f8000019f8000024
:1018800019f8000019f8000019f8000019f8000014
:1018900019f8000019f8000019f8000019f8000004
:1018a00019f8000019f8000019f8000019f80000f4
:1018b00019f8000019f8000019f8000019f80000e4
:1018c00019f8000019f8000019f80000501a00007b
:1018d00091220000f2320000f2320000712200007a
:1018e000712200003084000050840000518c000000
:1018f0005def00001ce7000018c6000018c60000dd
:1019000038c6000039c6000059ce00005def000067
:10191000fbde000030840000ef7b000019f80000bf
:1019200019f8000019f8000019f8000019f8000073
:1019300019f8000019f8000019f8000019f8000063
:1019400019f8000019f8000019f8000019f8000053
:1019500019f8000019f8000019f8000019f8000043
:1019600019f8000019f8000019f8000019f8000033
:1019700019f8000019f8000019f8000019f8000023
:1019800019f8000019f80000501a0000b12a0000f0
:101990007a8d00001ba60000fba50000db9d000067
:1019a000136c000050840000f29c0000d29c0000e8
:1019b000518c00005def00001ce7000038c60000fd
:1019c00039c6000039c6000059ce000059ce0000cb
:1019d0007def0000fbde000030840000ef7b0000a4
:1019e00019f8000019f8000019f8000019f80000b3
:1019f00019f8000019f8000019f8000019f80000a3
:101a000019f8000019f8000019f8000019f8000092
:101a100019f8000019f8000019f8000019f8000082
:101a200019f8000019f8000019f8000019f8000072
:101a300019f8000019f8000019f8000019f8000062
:101a400019f8000051220000b12a00009a95000008
:101a5000fb9d00003a7d0000f9740000f97400005d
:101a6000718c0000f29c000013a50000f29c0000a5
:101a700030840000518c00005def00001ce7000086
:101a800039c6000059ce000059ce000059ce0000e2
:101a900079ce00007def0000fbde00003084000006
:101aa0001084000019f8000019f8000019f800006f
:101ab00019f8000019f8000019f8000019f80000e2
:101ac00019f8000019f8000019f8000019f80000d2
:101ad00019f8000019f8000019f8000019f80000c2
:101ae00019f8000019f8000019f8000019f80000b2
:101af00019f8000019f8000019f8000019f80000a2
:101b000050220000b12a00009a950000fb9d0000c1
:101b10005a850000f9740000b9640000785c000088
:101b2000527c0000b1940000f29c00005084000040
:101b300030840000ef7b0000518c00005def00005e
:101b40003ce7000059ce000059ce000079ce0000dd
:101b500079ce00009ad600007def0000fbde000089
:101b600030840000ef7b000019f8000019f8000035
:101b700019f8000019f8000019f8000019f8000021
:101b800019f8000019f8000019f8000019f8000011
:101b900019f8000019f8000019f8000019f8000001
:101ba00019f8000019f8000019f8000019f80000f1
:101bb00019f8000019f8000019f80000512200007f
:101bc000b12a0000ba9d0000fba500005a85000064
:101bd000f9740000b9640000785c0000185400003b
:101be000f6530000327c0000728c0000935b000012
:101bf000501a000019f80000ef7b0000518c000023
:101c00005def00003ce7000079ce000079ce0000d7
:101c10009ad600009ad600009ad600007df7000000
:101c2000fbde000030840000ef7b000019f80000ac
:101c300019f8000019f8000019f8000019f8000060
:101c400019f8000019f8000019f8000019f8000050
:101c500019f8000019f8000019f8000019f8000040
:101c600019f8000019f8000019f8000019f8000030
:101c700019f8000019f8000070220000b12a0000d5
:101c8000ba9d0000fba500005a850000f974000011
:101c9000b9640000585c0000b54b0000d74b000051
:101ca000963b00005633000096430000786c00001d
:101cb0005122000019f8000019f80000ef7b000025
:101cc000518c00005def00003ce700009ad6000058
:101cd0009ad600009ad60000bad60000bade0000fc
:101ce0007df70000fbde000030840000ef7b000089
:101cf00019f8000019f8000019f8000019f80000a0
:101d000019f8000019f8000019f8000019f800008f
:101d100019f8000019f8000019f8000019f800007f
:101d200019f8000019f8000019f8000019f800006f
:101d300019f80000501a0000b22a0000ba9d0000f5
:101d40001ba600007a850000f9740000b96c000041
:101d5000575c000053430000d6530000d74b0000ef
:101d600056330000152b0000f52a0000f97c000016
:101d70005022000019f8000019f8000019f80000be
:101d8000ef7b0000518c00005def00005cef000075
:101d90009ad60000bad60000bad60000bad6000023
:101da000bade00007df70000fbde0000308400009a
:101db0001084000019f8000019f8000019f800005c
:101dc00019f8000019f8000019f8000019f80000cf
:101dd00019f8000019f8000019f8000019f80000bf
:101de00019f8000019f8000019f8000019f80000af
:101df000501a0000b22a0000ba9d00001ca6000084
:101e00007a850000f9740000b96c0000575c00008e
:101e100053430000f6530000f74b0000763b0000f0
:101e2000152b0000f52a000036330000b9740000bd
:101e30005122000019f8000019f8000019f80000fc
:101e400019f80000ef7b0000518c00005def0000ee
:101e50005cef0000bad60000bad60000bad6000087
:101e6000bad60000dade0000bef70000fbde00009c
:101e7000308400001084000019f8000019f80000f8
:101e800019f8000019f8000019f8000019f800000e
:101e900019f8000019f8000019f8000019f80000fe
:101ea00019f8000019f8000019f80000512200008c
:101eb000b12a0000ba9d00001ca600005a8500004f
:101ec000f9740000b96c0000375c00005343000057
:101ed000f6530000f74b0000763b0000152b000086
:101ee000f52a000036330000b9740000944b00005e
:101ef000711a000019f8000019f8000019f8000024
:101f000019f8000019f80000ef7b0000518c000068
:101f10005def00005cef0000bad60000bad600000a
:101f2000bad60000dade00005cef0000bef7000069
:101f3000fbde000030840000ef7b000019f8000099
:101f400019f8000019f8000019f8000019f800004d
:101f500019f8000019f8000019f8000019f800003d
:101f600019f8000019f8000019f80000912200008b
:101f7000598d00009b8d00003a7d0000f97400002f
:101f8000b96c0000375c000053430000f6530000ba
:101f9000f74b0000763b0000152b0000f52a0000ef
:101fa00036330000b9740000954b00005122000048
:101fb0001022000019f8000019f8000019f80000bc
:101fc00019f8000019f8000019f80000ef7b000074
:101fd000518c00005def00005cef0000bade0000f5
:101fe000dade00003ce700003cef00005cef0000a0
:101ff000bef70000fbde000030840000ae7300007e
:1020000019f8000019f8000019f8000019f800008c
:1020100019f8000019f8000019f8000019f800007c
:1020200019f8000019f8000019f8000071220000ea
:102030001ca60000f9740000f9740000b96c0000df
:10204000575c000053430000f6530000f7530000b4
:10205000763b0000152b0000f52a00003633000007
:10206000b9740000954b000051220000701a000066
:1020700019f8000019f8000019f8000019f800001c
:1020800019f8000019f8000019f8000019f800000c
:10209000ef7b0000518c00005def00009df7000019
:1020a0003cef00003cef0000b2940000b29400004e
:1020b0005cef0000bef7000096b50000ef7b00006b
:1020c00019f8000019f8000019f8000019f80000cc
:1020d00019f8000019f8000019f8000019f80000bc
:1020e00019f8000019f8000019f80000712200002a
:1020f000fba500001a7d0000b96c0000585c0000d0
:1021000053430000f6530000f7530000763b0000f5
:10211000152b0000f52a000036330000b9740000ca
:10212000954b000051220000701a000019f80000c1
:1021300019f8000019f8000019f8000019f800005b
:1021400019f8000019f8000019f8000019f800004b
:1021500019f80000ef7b0000518c00005def0000db
:102160009df700003cef0000b2940000b29c00001c
:102170003cef00009ef7000096b50000ef7b0000ea
:1021800019f8000019f8000019f8000019f800000b
:1021900019f8000019f8000019f8000019f80000fb
:1021a00019f8000019f8000019f800007122000069
:1021b000d87c00007a8d0000785c0000b54b0000f0
:1021c000f6530000f7530000763b0000152b00008b
:1021d000f52a000036330000b9740000944b00006b
:1021e00051220000b11a000019f8000019f800008f
:1021f00019f8000019f8000019f8000019f800009b
:1022000019f8000019f8000019f80000000000009b
:1022100000000000000000008e730000518c0000e0
:102220005def00009df700003cef00003cef000078
:102230009ef70000fbde0000308400002c630000ed
:1022400019f8000019f8000019f8000019f800004a
:1022500019f8000019f8000019f8000019f800003a
:1022600019f800000000000000000000ac19000098
:10227000b22a0000bb950000b96c0000f74b0000cb
:10228000d74b0000763b0000152b0000f52a00001c
:1022900036330000b9740000944b00005022000057
:1022a000a50800000000000019f8000019f800005f
:1022b00019f8000019f8000019f8000019f80000da
:1022c000000000000000000000000000000000000e
:1022d0000000000000000000000000000c6300008f
:1022e000518c00005def00009ef70000bef700007b
:1022f000fbde0000308400008a5200000000000075
:1023000000000000000000000000000019f80000bc
:1023100019f8000019f8000019f8000019f8000079
:1023200000000000000000000000000000000000ad
:102330000e1a0000333b00007a8d0000585c00004c
:10234000563b0000152b0000f52a00003633000034
:10235000b9740000944b00002f1a000042000000e6
:1023600000000000000000000000000019f800005c
:1023700019f8000019f8000019f80000000000002a
:10238000000000000000000000000000000000004d
:10239000000000000000000000000000000000003d
:1023a000cb5a0000518c000038c60000d7bd000099
:1023b000108400002842000000000000000000001f
:1023c00000000000000000000000000019f80000fc
:1023d00019f8000019f8000019f8000000000000ca
:1023e00000000000000000000000000000000000ed
:1023f000000000000e1a0000f2320000d97c00003c
:10240000786400009643000096430000b974000011
:10241000744b00002f1a0000210000000000000093
:1024200000000000000000000000000000000000ac
:1024300019f8000019f8000019f800000000000069
:10244000000000000000000000000000000000008c
:10245000000000000000000000000000000000007c
:1024600000000000863100000c6300000c630000d7
:10247000e318000000000000000000000000000061
:10248000000000000000000000000000000000004c
:1024900019f8000019f8000019f8000019f80000f8
:1024a000000000000000000000000000000000002c
:1024b0000000000000000000ac19000071220000c4
:1024c00074430000375c000037640000133b0000d9
:1024d0000f1a0000210000000000000000000000b2
:1024e00000000000000000000000000000000000ec
:1024f00019f8000019f8000019f8000019f8000098
:1025000000000000000000000000000000000000cb
:1025100000000000000000000000000000000000bb
:1025200000000000000000000000000000000000ab
:10253000000000000000000000000000000000009b
:1025400000000000000000000000000019f800007a
:1025500019f8000019f8000019f8000019f8000037
:1025600019f800000000000000000000000000005a
:10257000000000000000000000000000a5080000ae
:10258000cc1900002f1a00000f1a00008b11000058
:10259000000000000000000000000000000000003b
:1025a000000000000000000019f8000019f8000009
:1025b00019f8000019f8000019f8000019f80000d7
:1025c00019f8000019f800000000000000000000e9
:1025d00000000000000000000000000000000000fb
:1025e00000000000000000000000000000000000eb
:1025f00000000000000000000000000000000000db
:102600000000000019f8000019f8000019f8000097
:1026100019f8000019f8000019f8000019f8000076
:1026200019f8000019f8000019f8000019f8000066
:10263000000000000000000000000000000000009a
:10264000000000000000000000000000000000008a
:1026500000000000000000000000000019f8000069
:1026600019f8000019f8000019f8000019f8000026
:1026700019f8000019f8000019f8000019f8000016
:1026800019f8000019f8000019f8000019f8000006
:1026900019f8000019f8000019f8000019f80000f6
:1026a00000000000000000000000000019f8000019
:1026b00019f8000019f8000019f8000019f80000d6
:1026c00019f8000019f8000019f8000019f80000c6
:1026d00019f8000019f8000019f8000019f80000b6
:1026e00019f8000019f8000019f8000019f80000a6
:1029100019f8000000100000300000003000000036
:1029200019f8000019f8000019f8000019f8000063
:1029300019f8000019f8000019f8000019f8000053
:1029400019f8000019f8000019f8000019f8000043
:1029500019f8000019f8000019f8000019f8000033
:1029600019f8000019f8000019f8000019f8000023
:1029700019f8000019f8000019f8000019f8000013
:1029800019f8000019f8000019f8000019f8000003
:1029900019f8000019f8000019f8000019f80000f3
:1029a00019f8000019f8000019f8000019f80000e3
:1029b00019f8000019f8000019f8000019f80000d3
:1029c00019f8000019f8000019f8000019f80000c3
:1029d00019f8000019f8000019f8000019f80000b3
:1029e00019f8000019f8000019f8000019f80000a3
:1029f00019f8000019f800000000000000000000b5
:102a000000000000000000000000000000000000c6
:102a100000000000000000000000000000000000b6
:102a200000000000000000000000000000000000a6
:102a30000000000000000000000000000000000096
:102a40000000000000000000000000000000000086
:102a50000000000000000000000000000000000076
:102a6000000000000000000019f8000019f8000044
:102a700019f8000019f8000019f8000019f8000012
:102a800019f8000019f8000019f8000019f8000002
:102a900019f8000019f8000019f8000019f80000f2
:102aa00019f8000019f8000019f8000019f80000e2
:102ab0000000000000000000000000000000000016
:102ac0000000000000000000000000000000000006
:102ad00000000000000000000000000000000000f6
:102ae00000000000000000000000000000000000e6
:102af00000000000000000000000000000000000d6
:102b000000000000000000000000000000000000c5
:102b100000000000000000000000000000000000b5
:102b200000000000000000000000000000000000a5
:102b30000000000019f8000019f8000019f8000062
:102b400019f8000019f8000019f8000019f8000041
:102b500019f8000019f8000019f8000019f8000031
:102b600019f8000019f8000019f800000000000032
:102b7000000000009ad60000bef70000ffff000032
:102b8000ffff0000ffff0000ffff0000ffff00004d
:102b9000ffff0000ffff0000ffff0000ffff00003d
:102ba000ffff0000ffff0000ffff0000ffff00002d
:102bb000ffff0000ffff0000ffff0000ffff00001d
:102bc000ffff0000ffff0000ffff0000ffff00000d
:102bd000ffff0000ffff00005def0000bad600001d
:102be00075ad0000fbde00000000000000000000ea
:102bf000000000000000000019f8000019f80000b3
:102c000019f8000019f8000019f8000019f8000080
:102c100019f8000019f8000019f8000019f8000070
:102c200019f8000019f8000019f800000000000071
:102c300000000000bef70000ffff0000ffff0000e3
:102c4000ffff0000ffff0000ffff0000ffff00008c
:102c5000ffff0000ffff0000ffff0000ffff00007c
:102c6000ffff0000ffff0000ffff0000ffff00006c
:102c7000ffff0000ffff0000ffff0000ffff00005c
:102c8000ffff0000ffff0000ffff0000ffff00004c
:102c9000ffff0000ffff0000ffff00005def0000ee
:102ca00075ad00009ef7000018c60000000000008f
:102cb00000000000000000000000000019f8000003
:102cc00019f8000019f8000019f8000019f80000c0
:102cd00019f8000019f8000019f8000019f80000b0
:102ce00019f8000019f800000000000000000000c2
:102cf00000000000ffff0000ffff0000ffff0000da
:102d0000ffff0000ffff0000ffff0000ffff0000cb
:102d1000ffff0000ffff0000ffff0000ffff0000bb
:102d2000ffff0000ffff0000ffff0000ffff0000ab
:102d3000ffff0000ffff0000ffff0000ffff00009b
:102d4000ffff0000ffff0000ffff0000ffff00008b
:102d5000ffff0000ffff0000ffff0000ffff00007b
:102d600075ad0000bef7000034a5000075ad000091
:102d70000000000000000000000000000000000053
:102d800019f8000019f8000019f8000019f80000ff
:102d900019f8000019f8000019f8000019f80000ef
:102da00019f8000019f80000000000000000000001
:102db00000000000ffff0000ffff0000ffff000019
:102dc000ffff0000ffff0000ffff0000ffff00000b
:102dd000ffff0000ffff0000ffff0000ffff0000fb
:102de000ffff0000ffff0000ffff0000ffff0000eb
:102df000ffff0000ffff0000ffff0000ffff0000db
:102e0000ffff0000ffff0000ffff0000ffff0000ca
:102e1000ffff0000ffff0000ffff0000dfff0000da
:102e200075ad0000dfff00005def000055ad000054
:102e300055ad000000000000000000000000000090
:102e4000000000000000000019f8000019f8000060
:102e500019f8000019f8000019f8000019f800002e
:102e600019f8000019f80000000000000000000040
:102e700000000000ffff0000ffff0000ffff000058
:102e8000ffff0000ffff0000ffff0000dfff00006a
:102e9000dfff0000dfff0000dfff0000dfff0000ba
:102ea000dfff0000dfff0000dfff0000dfff0000aa
:102eb000dfff0000dfff0000dfff0000dfff00009a
:102ec000dfff0000dfff0000dfff0000dfff00008a
:102ed000dfff0000dfff0000dfff0000bef70000a3
:102ee00075ad0000dfff00009ef700003ce700002a
:102ef00014a5000055ad0000000000000000000017
:102f000000000000000000000000000019f80000b0
:102f100019f8000019f8000019f8000019f800006d
:102f200019f8000019f8000000000000000000007f
:102f300000000000ffff0000ffff0000ffff000097
:102f4000ffff0000dfff0000dfff0000dfff0000e9
:102f5000dfff0000dfff0000dfff0000dfff0000f9
:102f6000dfff0000dfff0000deff0000deff0000eb
:102f7000deff0000deff0000deff0000deff0000dd
:102f8000deff0000bef70000bef70000bef7000045
:102f9000bef70000bef70000bef70000bef700005d
:102fa00075ad0000dfff0000ffff00009ef700008e
:102fb0003ce7000055ad000075ad000000000000ca
:102fc0000000000000000000000000000000000001
:102fd00019f8000019f8000019f8000019f80000ad
:102fe00019f8000019f800000000000000000000bf
:102ff00000000000ffff0000ffff0000dfff0000f7
:10300000dfff0000dfff0000bef70000bef700009a
:103010009ef700009df700007df700007def0000a7
:103020007def00007df700009df700009ef7000097
:10303000bef70000bef70000bef70000bef70000bc
:10304000bef70000bef700009ef700009ef70000ec
:103050009ef700009ef700009ef700009ef700001c
:1030600075ad0000dfff0000ffff0000ffff000064
:103070009ef70000bad6000055ad000055ad000027
:103080000000000000000000000000000000000040
:1030900019f8000019f8000019f8000019f80000ec
:1030a00019f8000019f800000000000000000000fe
:1030b00000000000ffff0000dfff0000dfff000056
:1030c000bef70000bef70000f7bd00008e730000e1
:1030d000c7390000a210000000000000000000003e
:1030e00082100000a63100004d6b000095b5000075
:1030f0003ce700005def00009df700009ef7000038
:103100009ef700009ef700009ef700009ef700006b
:103110009df700009df700009df700007df700007f
:1031200075ad0000dfff0000ffff0000ffff0000a3
:103130009ef700001ce7000079ce000034a50000d7
:10314000f7bd000028420000000000000000000061
:103150000000000019f8000019f8000019f800003c
:1031600019f8000019f8000000000000000000003d
:1031700000000000ffff0000dfff0000bef70000be
:1031800055ad0000c7390000242100008e730000f7
:1031900096b50000dbde00007def0000acdd000036
:1031a0002cc500006ca40000096b00000321000086
:1031b00086310000d39c0000fbde00005cef0000c5
:1031c0007def00007def00009df700007df700001f
:1031d0007def00007def00007def00007def00003f
:1031e00034a50000bef70000dfff0000dfff000095
:1031f000bef70000bef700007def0000fbde000020
:1032000017c60000518c0000000000000000000004
:10321000000000000000000019f8000019f800008c
:1032200019f8000019f8000000000000000000007c
:1032300000000000ffff00009ef70000eb5a0000b6
:1032400024210000f39c00009ef70000bef7000060
:10325000dfff0000dfff0000dfff00009cff000039
:103260005af7000039f7000095e600008dd5000000
:10327000cb8b00000321000089520000bad6000069
:103280001be700005cef00007def00007def000019
:103290007def00007def00007def00005def00009e
:1032a000f39c00000000000000000000000000008f
:1032b000000000000000000000000000000000000e
:1032c00000000000000000000000000000000000fe
:1032d00000000000000000000000000019f80000dd
:1032e00019f8000019f800000000000000000000bc
:1032f000000000005def0000c7390000eb5a00003d
:103300009ef70000dfff0000dfff0000dfff00008e
:10331000dfff0000dfff0000b6b50000b5bd000014
:1033200039f7000039f7000039f700003af70000dc
:1033300095e600002bcd00008852000065290000b2
:1033400018c60000fbde00003cef00005def00004f
:103350005def00005def00005cef00005cef00003f
:103360005cef00001be7000079ce0000f7c500000d
:10337000b6b5000075ad0000f39c0000919400000c
:10338000308400006d730000ca5a00000000000085
:1033900000000000000000000000000019f800001c
:1033a00019f8000019f800000000000000000000fb
:1033b00000000000e73900008e730000bef7000037
:1033c000dfff0000dfff0000dfff0000dfff000085
:1033d000ffff0000dfff0000d7bd0000b5b5000013
:1033e00018ef000039f7000039f7000039f7000046
:1033f00018f7000019ef00006dd50000e96a000021
:103400006529000079ce0000fbde00003ce70000eb
:103410005cef00005def00005def00005cef00007e
:103420005cef00003cef0000fbde00009ad60000dd
:1034300038ce0000d7bd000075ad000054ad0000cf
:1034400034a50000d29c0000ad7b0000000000000d
:10345000000000000000000000000000000000006c
:1034600019f8000019f8000000000000000000003a
:1034700000000000eb5a0000bef70000dfff000074
:10348000dfff0000ffff00003ce70000ffff00003f
:10349000ffff0000ffff0000f7bd000095b5000032
:1034a00018ef000039f7000039f70000b7de000020
:1034b00018f70000f8ee0000b7e600002bcd000082
:1034c00088520000494a000079ce0000fbde00006f
:1034d0003ce700005cef00005cef00005cef0000e8
:1034e0005cef00003cef00003cef00001be7000039
:1034f000bade000079d6000059ce000017c60000e1
:1035000075b5000034ad0000ce7b00000000000067
:1035100000000000000000000000000000000000ab
:1035200019f8000019f80000000000000000000079
:10353000042100009ef70000dfff0000dfff000015
:10354000ffff0000ffff0000ffff0000ffff000083
:10355000ffff0000ffff0000f7bd000074b5000092
:10356000d7e6000018f7000018f7000018f7000071
:10357000f7f6000094ee0000aedd0000f2d500008a
:103580000bc50000e3200000308400009ad6000044
:103590001be700003cef00005cef00005cef000068
:1035a0005cef00005cef00005cef00003ce7000017
:1035b0001be70000fbde0000bade000058ce000072
:1035c00017c6000095b50000ad7b000000000000ac
:1035d00000000000000000000000000000000000eb
:1035e00019f8000019f800000000000000000000b9
:1035f000d39c0000bef70000dfff0000dfff0000eb
:10360000ffff0000ffff0000ffff0000ffff0000c2
:10361000ffff0000ffff000075ad0000b19c00003f
:1036200075de0000d5ee0000f6f60000d5f60000cd
:1036300072ee0000cee500008cd500004bd50000f6
:10364000d1cd0000ab8300004529000018c6000062
:10365000dade00003ce700005cef00005cef0000f9
:103660005cef00005cef00003cef00003cef00006e
:103670001ce700001be70000dade0000bad60000fd
:1036800058ce000037c60000709400000000000013
:10369000000000000000000000000000000000002a
:1036a00019f80000000000000000000004210000e4
:1036b0009ef70000dfff0000dfff00003ce7000096
:1036c000ffff0000ffff0000ffff0000ffff000002
:1036d000ffff0000ffff0000ae7300002b6b000037
:1036e000b0cd000031e6000050ee00000ee6000014
:1036f000cde50000ace5000029a400006bd500007a
:103700008fd500000bc50000e3200000718c000085
:1037100079d600001be700003cef00005cef0000e2
:103720005cef00005cef00003cef00003ce70000b5
:103730001ce700001be70000fbde0000dade0000f3
:1037400099d6000058ce00009094000000000000c0
:103750000000000000000000000000000000000069
:1037600019f8000000000000000000008e73000047
:10377000bef70000dfff0000dfff0000ffff0000da
:10378000ffff0000ffff0000ffff0000ffff000041
:10379000ffff0000ffff0000694a0000e641000053
:1037a0000dc50000cee50000ede50000cce5000011
:1037b000cce50000cce50000acdd00006bd50000de
:1037c0004bd500006ecd0000e96200008a52000077
:1037d00038c60000dbde00003ce700005cef0000c4
:1037e0003cef00003cef00003cef00003ce7000035
:1037f0001ce70000fbe60000fbde0000dade000054
:10380000bad6000099d60000b19c0000000000006c
:1038100000000000000000000000000000000000a8
:1038200019f80000000000000000000075ad000065
:10383000dfff0000dfff0000dfff0000dfff000010
:10384000ffff0000ffff0000ffff0000ffff000080
:10385000ffff0000ffff0000a6310000400800004d
:103860008ab400008cdd0000cce50000cce500004f
:10387000cce50000cce50000acdd00008cdd0000f4
:103880006cd50000d1cd00000b940000442900004d
:10389000d7bd0000bad600001be700003cef0000d7
:1038a0003cef00003cef00003cef00003ce7000074
:1038b0001ce700001be70000fbde0000dade000072
:1038c000dade000099d60000d19c00000000000064
:1038d00000000000000000000000000000000000e8
:1038e000000000000000000000000000dbde00001f
:1038f000dfff0000dfff0000dfff0000dfff000050
:10390000dfff0000dfff0000dfff0000dfff00003f
:10391000dfff0000d39c000000000000000000005a
:10392000c66a00008cdd0000cce50000cce500009c
:10393000cce50000cce50000acdd00008cdd000033
:103940006cd5000035d60000abb400006108000063
:1039500096b5000079d600001be700003ce70000a8
:103960003cef00003cef00003ce700003ce70000bb
:103970001be700001be70000fbde0000fbde000091
:10398000dade0000bade0000d2a400000000000071
:103990000000000000000000000000000000000027
:1039a0000000000000000000000000007def0000ab
:1039b000dfff0000d7bd0000d7bd000038c6000003
:1039c0009ad60000dfff0000dfff0000dfff0000ed
:1039d000dfff0000a2100000000000000000000057
:1039e000400800000bc50000ace50000cce500007d
:1039f000cce5000029a40000067b00002452000052
:103a0000e549000056d60000eac4000000000000ae
:103a100075ad000059ce0000fbe600003ce7000059
:103a20003ce700003ce700003ce700003ce700000a
:103a30001be70000fbe60000fbde0000dbde000011
:103a4000dade0000dade0000f2a400000000000070
:103a50000000000000000000000000000000000066
:103a60000000000000000000000000007def0000ea
:103a7000dfff000075ad0000b6b50000d7bd000047
:103a8000f7bd0000bef70000bef70000dfff00003a
:103a9000dfff0000a2100000000000000000000096
:103aa00020000000d7bd00005def00009ef7000081
:103ab0009ef7000096b5000010840000eb5a00004d
:103ac0008a520000dbde000079ce0000000000001a
:103ad00055ad000058ce0000fbde00003ce70000c2
:103ae0003ce700003ce700003ce700003ce700004a
:103af0001be70000fbe60000fbde0000fbde000031
:103b0000dade0000dade0000f2a4000000000000af
:103b100000000000000000000000000000000000a5
:103b2000000000000000000000000000bad6000005
:103b3000bef70000dfff0000dfff0000bef700005f
:103b4000bef70000bef70000bef70000bef70000a1
:103b5000bef70000929400008210000000000000f8
:103b60002000000024210000fbde00007def0000ab
:103b70009ef700007def00007def00003ce70000b5
:103b80001ce70000bad60000f7bd00006108000085
:103b900055ad000058ce0000fbde00003ce7000001
:103ba0003ce700003ce700003ce700001ce70000a9
:103bb0001be70000fbe60000fbde0000dbde000090
:103bc000dade0000dade0000f2a4000000000000ef
:103bd00000000000000000000000000000000000e5
:103be00000000000000000000000000075ad0000b3
:103bf000bef70000dfff0000bef700009ef70000e8
:103c00009ef70000bef70000bef70000bef7000000
:103c1000bef700009ef70000bad60000d7bd000036
:103c2000e318000000000000e31800001ce700009b
:103c30007def00007def00005def00003ce700003d
:103c40001ce70000bad60000f39c0000242100000d
:103c500075ad000058ce0000fbde00003ce7000020
:103c60003ce700003ce700003ce700001be70000e9
:103c70001be70000fbe60000fbde0000fade0000b0
:103c8000dade0000dade0000f2a40000000000002e
:103c90000000000000000000000000000000000024
:103ca0000000000000000000000000008e73000013
:103cb0009ef70000bef700009ef700009ef7000090
:103cc0009ef700009ef700009ef700009ef70000a0
:103cd000bef700009ef700007def00005def0000e2
:103ce000fbde0000e318000020000000a631000009
:103cf000fbde00005def00005def00003ce7000030
:103d0000dbde00009ad600004d6b0000494a00003f
:103d100095b5000079ce0000fbde00003ce7000016
:103d20003ce700003ce700003ce700001be7000028
:103d30001be70000fbe60000fbde0000dade00000f
:103d4000dade0000dade0000f2a40000000000006d
:103d50000000000000000000000000000000000063
:103d600019f800000000000000000000042100001d
:103d70005def00009ef700007def00009ef7000061
:103d80009ef700009ef700009ef700009ef70000df
:103d90009ef700009ef700009ef700009ef70000cf
:103da0007def00001ce70000a63100008631000016
:103db00038c600003ce700005def00003ce7000073
:103dc000fbde00009ad6000004210000ef7b00001b
:103dd000d6bd000099d60000fbe600003be70000de
:103de0003ce700003ce700001be700001be7000089
:103df0001be70000fbde0000fade0000fade000038
:103e0000dade0000dade0000f2a4000000000000ac
:103e100000000000000000000000000000000000a2
:103e200019f8000000000000000000000000000081
:103e3000929400005def00005def000075ad0000a2
:103e40007def00009ef700009ef700009ef7000047
:103e50009ef700009ef700009ef700009ef700000e
:103e60007def00007def0000fbde000018c60000c3
:103e700038c600001ce70000f7bd00003ce700006a
:103e8000bad60000518c00002421000034a50000a7
:103e900017c60000bade00001be700001ce70000a8
:103ea0001ce700001ce700001be700001be7000008
:103eb0001be70000fbe60000fbde0000dade00008e
:103ec000dade0000dade0000f2a4000000000000ec
:103ed00000000000000000000000000000000000e2
:103ee00019f80000000000000000000000000000c1
:103ef00004210000dbde00001ce700003ce70000be
:103f00007def00007def00007def00007def000001
:103f10007def00007def000075ad000075ad000085
:103f20007def00007def00005def00001ce700006a
:103f3000fbde00003ce700003ce70000dbde0000a9
:103f400079ce0000042100006d6b000095b50000e3
:103f500058ce0000dbde00001be700001ce700007d
:103f60001be700001be700001be700001be7000049
:103f70001be70000fbde0000fade0000dade0000d6
:103f8000dade0000dade0000f2a40000000000002b
:103f90000000000000000000000000000000000021
:103fa00019f8000019f800000000000000000000ef
:103fb00000000000cb5a0000dbde0000fbde00004a
:103fc0003ce700005def00005def00005def0000ea
:103fd0005def00005def0000ef7b0000ef7b000075
:103fe0003ce700003ce700003ce700003ce7000045
:103ff0005def00003ce70000dbde00009ad6000029
:10400000aa520000c739000034a50000f7c500001f
:104010009ad60000fbe600001be700001be700004b
:104020001be700001be700001be700001be7000088
:10403000fbe60000fbde0000dade0000dade000056
:10404000dade0000dade0000f2a40000000000006a
:104050000000000000000000000000000000000060
:1040600019f8000019f8000000000000000000002e
:1040700000000000863100004d6b0000bad6000041
:10408000dbde0000fbde0000b6b500003ce7000010
:104090003ce700003ce700004d6b00004d6b00006a
:1040a0001ce700003ce700001ce7000038c60000e9
:1040b000fbde0000bad6000079ce00002c630000c1
:1040c0002421000013a50000b6b5000059ce000061
:1040d000dade00001be700001be700001be7000022
:1040e0001be700001be700001be700001be70000c8
:1040f000fbe60000fbde0000dade0000dade000096
:10410000dade0000dade0000f2a4000000000000a9
:10411000000000000000000000000000000000009f
:1041200019f8000019f8000000000000000000006d
:10413000000000009ad6000065290000cb5a00005c
:104140009ad60000bad60000bad60000dbde000026
:10415000fbde00001ce7000010840000308400003b
:104160003ce70000fbde0000fbde0000dbde0000c1
:104170009ad6000079ce0000aa5200002421000047
:10418000b294000095b5000038ce0000dade0000e1
:10419000fbe600001be700001be700001be7000038
:1041a0001be700001be700001be700001be7000007
:1041b000fbe60000fbde0000dade0000dade0000d5
:1041c000dade0000dade0000f2a4000000000000e9
:1041d00000000000000000000000000000000000df
:1041e00019f8000019f800000000000000000000ad
:1041f000000000009ef7000059ce0000494a000070
:1042000004210000518c00009ad600009ad60000cc
:104210009ad600009ad600009ad600009ad60000de
:104220009ad600009ad600009ad6000079ce0000f7
:10423000518c000004210000e739000013a50000a4
:1042400095b5000038c60000bad60000fbde0000bd
:104250001be700001be700001be700001be7000056
:104260001be700001be700001be70000fbe6000067
:10427000fbe60000fade0000dade0000dade000015
:10428000dade0000bade0000f2a400000000000048
:10429000000000000000000000000000000000001e
:1042a00019f8000019f800000000000000000000ec
:1042b00000000000dfff0000fbde000059ce000020
:1042c0003084000045290000042100004d6b0000ef
:1042d000f39c0000f7bd000079ce000079ce00000d
:1042e000f7bd0000d39c00002c63000004210000f7
:1042f000242100006d6b000034a50000b6b500005d
:1043000038ce0000bad60000fbde00001be700003c
:104310001be700001be700001be700001be7000095
:104320001be700001be700001be70000fbe60000a6
:10433000fbe60000dade0000dade0000dade000074
:10434000dade0000bade0000f2a400000000000087
:10435000000000000000000000000000000000005d
:1043600019f8000019f8000000000000000000002b
:1043700000000000ffff00001ce70000dbde000083
:1043800079d6000017c60000718c00006952000049
:10439000242100006108000000000000000000006f
:1043a0006108000024210000494a0000cf7b000082
:1043b00034a5000075b50000f7bd000058ce000020
:1043c000bade0000fbde00001be700001be7000078
:1043d0001be700001be700001be70000fbe60000f6
:1043e000fbe60000fbe60000fbe60000fbe6000049
:1043f000fade0000dade0000dade0000dade0000bd
:10440000dade0000dade0000f2a4000000000000a6
:10441000000000000000000000000000000000009c
:1044200019f8000019f8000000000000000000006a
:1044300000000000ffff00003ce700001be7000059
:10444000fbde0000bad6000058ce000017c6000000
:10445000b6bd000075b5000054ad000034ad0000dd
:1044600034ad000054ad000075ad0000b6b50000dd
:10447000f7bd000038ce000099d60000dade00005b
:10448000dade0000fbe60000fbe60000fbe60000d1
:10449000fbe60000fbe60000fbe60000fbe6000098
:1044a000fbe60000fbde0000fade0000fade0000a2
:1044b000dade0000dade0000dade0000bade00003c
:1044c000bade0000bade0000d2a400000000000046
:1044d00000000000000000000000000000000000dc
:1044e00019f8000019f800000000000000000000aa
:1044f00000000000ffff00003ce700003ce7000078
:104500001be70000fbe60000dbde0000bad600007f
:1045100079d6000058ce000038ce000038c6000022
:1045200038c6000038ce000058ce000079d6000012
:1045300099d60000bade0000dade0000fbde0000e3
:10454000fbe60000fbe60000fbe60000fbe60000e7
:10455000fbe60000fbe60000fbde0000fbde0000e7
:10456000fade0000fade0000dade0000dade00002b
:10457000dade0000dade0000dade0000bade00007b
:10458000bade0000b9de0000d2a400000000000086
:10459000000000000000000000000000000000001b
:1045a00019f8000019f800000000000000000000e9
:1045b00000000000ffff00001be700001be70000f9
:1045c0001be700001be700001be70000fbe6000004
:1045d000fbde0000dade0000dade0000dade0000da
:1045e000dade0000dade0000dade0000dade0000eb
:1045f000fade0000fbde0000fbe60000fbe6000048
:10460000fbe60000fbe60000fbe60000fbe6000026
:10461000fbde0000fade0000fade0000dade000059
:10462000dade0000dade0000dade0000dade0000aa
:10463000dade0000dade0000bade0000bade0000da
:10464000b9d60000b9d60000d19c000000000000df
:10465000000000000000000000000000000000005a
:1046600019f8000019f80000000000000000000028
:1046700000000000dfff00001be700001be7000058
:104680001be700001be700001be700001be7000022
:104690001be70000fbe60000fbe60000fbe6000075
:1046a000fbe60000fbe60000fbde0000fbe600008e
:1046b000fbe60000fbe60000fbe60000fbe6000076
:1046c000fbe60000fbde0000fbde0000fade00007f
:1046d000fade0000dade0000dade0000dade0000da
:1046e000dade0000dade0000dade0000dade0000ea
:1046f000dade0000bade0000bade0000bade00003a
:10470000b9d6000099d60000d19c0000000000003e
:104710000000000000000000000000000000000099
:1047200019f8000019f80000000000000000000067
:10473000000000007def00001be700001be7000009
:104740001be700001be700001be700001be7000061
:10475000fbe60000fbe60000fbe60000fbe60000d5
:10476000fbe60000fbe60000fbe60000fbe60000c5
:10477000fbde0000fbde0000fade0000fade0000d7
:10478000fade0000fade0000fade0000dade0000e9
:10479000dade0000dade0000dade0000dade000039
:1047a000dade0000dade0000dade0000dade000029
:1047b000bade0000bade0000bade0000b9d60000a2
:1047c00099d6000099d60000b19c000000000000be
:1047d00000000000000000000000000000000000d9
:1047e00019f8000019f800000000000000000000a7
:1047f000000000009ad600001be70000fbe6000066
:10480000fbe60000fbe60000fbe60000fbe6000024
:10481000fbe60000fbe60000fbe60000fbe6000014
:10482000fbe60000fbde0000fbde0000fade00001d
:10483000fade0000fade0000fade0000fade000018
:10484000fade0000dade0000dade0000dade000068
:10485000dade0000dade0000dade0000dade000078
:10486000dade0000dade0000dade0000bade000088
:10487000bade0000bade0000b9de0000b9d60000e2
:10488000b9d6000099d60000b19c000000000000dd
:104890000000000000000000000000000000000018
:1048a00019f8000019f800000000000000000000e6
:1048b00000000000d29c0000f2a40000f2a400005e
:1048c000f2a40000f2a40000f2a40000f2a4000090
:1048d000f2a40000f2a40000f2a40000f2a4000080
:1048e000f2a40000f2a40000f2a40000f2a4000070
:1048f000f2a40000f2a40000f2a40000f2a4000060
:10490000f2a40000f2a40000f2a40000f2a400004f
:10491000f2a40000f2a40000f2a40000f2a400003f
:10492000f2a40000f2a40000f2a40000d1a4000050
:10493000d2a40000d19c0000d19c0000b19c0000da
:10494000b19c0000b19c00000b630000000000005f
:104950000000000000000000000000000000000057
:1049600019f8000019f80000000000000000000025
:104970000000000000000000000000000000000037
:104980000000000000000000000000000000000027
:104990000000000000000000000000000000000017
:1049a0000000000000000000000000000000000007
:1049b00000000000000000000000000000000000f7
:1049c00000000000000000000000000000000000e7
:1049d00000000000000000000000000000000000d7
:1049e00000000000000000000000000000000000c7
:1049f00000000000000000000000000000000000b7
:104a000000000000000000000000000000000000a6
:104a10000000000000000000000000000000000096
:104a200019f8000019f80000000000000000000064
:104a30000000000000000000000000000000000076
:104a40000000000000000000000000000000000066
:104a50000000000000000000000000000000000056
:104a60000000000000000000000000000000000046
:104a70000000000000000000000000000000000036
:104a80000000000000000000000000000000000026
:104a90000000000000000000000000000000000016
:104aa0000000000000000000000000000000000006
:104ab00000000000000000000000000000000000f6
:104ac00000000000000000000000000000000000e6
:104ad00000000000000000000000000000000000d6
:104ae00019f8000019f8000019f800000000000093
:104af00000000000000000000000000000000000b6
:104b000000000000000000000000000000000000a5
:104b10000000000000000000000000000000000095
:104b20000000000000000000000000000000000085
:104b30000000000000000000000000000000000075
:104b40000000000000000000000000000000000065
:104b50000000000000000000000000000000000055
:104b60000000000000000000000000000000000045
:104b70000000000000000000000000000000000035
:104b80000000000000000000000000000000000025
:104b900000000000000000000000000019f8000004
:104ba00019f8000019f8000019f8000000000000d2
:104bb00000000000000000000000000000000000f5
:104bc00000000000000000000000000000000000e5
:104bd00000000000000000000000000000000000d5
:104be00000000000000000000000000000000000c5
:104bf00000000000000000000000000000000000b5
:104c000000000000000000000000000000000000a4
:104c10000000000000000000000000000000000094
:104c20000000000000000000000000000000000084
:104c30000000000000000000000000000000000074
:104c40000000000000000000000000000000000064
:104c500000000000000000000000000019f8000043
:104c600019f8000019f8000019f8000019f8000000
:104c70000000000000000000000000000000000034
:104c80000000000000000000000000000000000024
:104c90000000000000000000000000000000000014
:104ca0000000000000000000000000000000000004
:104cb00000000000000000000000000000000000f4
:104cc00000000000000000000000000000000000e4
:104cd00000000000000000000000000000000000d4
:104ce00000000000000000000000000000000000c4
:104cf00000000000000000000000000000000000b4
:104d000000000000000000000000000000000000a3
:104d1000000000000000000019f8000019f8000071
:104d200000100000300000003000000019f8000002
:104d300019f8000019f8000019f8000019f800002f
:104d400019f8000019f8000019f8000019f800001f
:104d500019f8000019f8000019f8000019f800000f
:104d600019f8000019f8000019f8000019f80000ff
:104f700019f8000019f8000092940000718c0000ec
:104f8000718c0000518c0000518c0000518c00008d
:104f9000518c0000518c0000518c0000518c00009d
