:020000040000fa
:080000000002040000000000f2
:020000040000fa
:100400006f9a20000e7f22000e018800000000007d
:100410000c000700a0c72000010020001100070009
:10042000000020000000e000020032000000020096
:1004300000000000b0020200000000000040da00ee
:100440000000fe004440a900000020000000e00081
:100450000300320000002000a00188004440a800f2
:100460000000060091018800800078000000eb0089
:1004700015003700e280400032a0b4009101ba00bc
:10048000e280400032a0b4009102ba00e280400055
:1004900032a0b4000002eb00472bde00f507b200eb
:1004a000602ce10004003a000059eb008301e900f0
:1004b000fdff3e00040037006128e100010032002a
:1004c0000082eb00040007001101ba000200e00006
:1004d000e8ff3a00000006003159ba008301e90044
:1004e0000c0032002159ba008301e90008003200f3
:1004f0000400e00003003a00e280400032a0b400b3
:10050000f5ff370011d9ba008301e900faff3a007c
:100510008100e800e180400032a0b4000000060045
:100520006022b800060220000000d0008180d200c6
:100530000482d2008582d2000000a0000202520094
:1005400083825a00030031000202420083824a0083
:100550000000a1000603e900f3ff3a0000000600d6
:020000040000fa
:0200000401f009
:04000c00fbff0000f6
:020000040000fa
:0200000401f009
:04001000feff0000ef
:020000040000fa
:0200000401f009
:0400140077ff000072
:020000040000fa
:10000800400a0000520a0000640a0000760a000054
:10001800880a0000400a0000400a0000400a000068
:10002800400a0000400a0000400a0000400a0000a0
:10003800400a0000400a0000400a0000200a0000b0
:10004800400a0000400a0000400a0000400a000080
:10005800400a0000400a0000400a0000400a000070
:10006800400a0000400a0000400a0000400a000060
:10007800400a0000400a0000400a0000400a000050
:10008800400a0000400a0000400a0000400a000040
:10009800400a0000400a0000400a0000400a000030
:1000a800400a0000400a0000400a0000400a000020
:1000b800400a0000400a0000400a0000400a000010
:1000c800400a0000400a0000400a0000400a000000
:1000d800400a0000400a0000400a0000400a0000f0
:1000e800400a0000400a0000400a0000400a0000e0
:1000f800400a0000400a0000400a0000400a0000d0
:10010800400a0000400a0000400a0000400a0000bf
:10011800400a0000400a0000400a0000400a0000af
:10012800400a0000400a0000400a0000400a00009f
:10013800400a0000400a0000400a0000400a00008f
:10014800400a0000400a0000400a0000400a00007f
:10015800400a0000400a0000400a0000400a00006f
:10016800400a0000400a0000400a0000400a00005f
:10017800400a0000400a0000400a0000400a00004f
:10018800400a0000400a0000400a0000400a00003f
:10019800400a0000400a0000400a0000400a00002f
:1001a800400a0000400a0000400a0000400a00001f
:1001b800400a0000400a0000400a0000400a00000f
:1001c800400a0000400a0000400a0000400a0000ff
:1001d800400a0000400a0000400a0000400a0000ef
:1001e800400a0000400a0000400a0000400a0000df
:0801f800400a0000400a00006b
:020000040000fa
:10020800400a0000520a0000640a0000760a000052
:10021800880a0000400a0000400a0000400a000066
:10022800400a0000400a0000400a0000400a00009e
:10023800400a0000400a0000400a0000200a0000ae
:10024800400a0000400a0000400a0000400a00007e
:10025800400a0000400a0000400a0000400a00006e
:10026800400a0000400a0000400a0000400a00005e
:10027800400a0000400a0000400a0000400a00004e
:10028800400a0000400a0000400a0000400a00003e
:10029800400a0000400a0000400a0000400a00002e
:1002a800400a0000400a0000400a0000400a00001e
:1002b800400a0000400a0000400a0000400a00000e
:1002c800400a0000400a0000400a0000400a0000fe
:1002d800400a0000400a0000400a0000400a0000ee
:1002e800400a0000400a0000400a0000400a0000de
:1002f800400a0000400a0000400a0000400a0000ce
:10030800400a0000400a0000400a0000400a0000bd
:10031800400a0000400a0000400a0000400a0000ad
:10032800400a0000400a0000400a0000400a00009d
:10033800400a0000400a0000400a0000400a00008d
:10034800400a0000400a0000400a0000400a00007d
:10035800400a0000400a0000400a0000400a00006d
:10036800400a0000400a0000400a0000400a00005d
:10037800400a0000400a0000400a0000400a00004d
:10038800400a0000400a0000400a0000400a00003d
:10039800400a0000400a0000400a0000400a00002d
:1003a800400a0000400a0000400a0000400a00001d
:1003b800400a0000400a0000400a0000400a00000d
:1003c800400a0000400a0000400a0000400a0000fd
:1003d800400a0000400a0000400a0000400a0000ed
:1003e800400a0000400a0000400a0000400a0000dd
:0803f800400a0000400a000069
:020000040000fa
:10056000889fbe0044030700ac01070080c3eb0076
:100570000083eb00860278000042eb0084417800a3
:10058000a22c2000612c20000440780063010700a9
:1005900080c3eb000083eb008602780014c0b30038
:1005a00084417800a22c2000612c200004407800b7
:1005b0005a01070080c3eb000083eb00860278003d
:1005c00044c0b30084417800a22c2000612c20009c
:1005d00020c0b3005101070080c3eb000083eb0093
:1005e0008602780054c0b30084417800a22c200019
:1005f000612c200030c0b3004801070080c3eb002d
:100600000083eb008602780064c0b3008441780068
:10061000a22c2000612c200040c0b3003f01070045
:1006200080c3eb000083eb008602780074c0b30047
:1006300084417800a22c2000612c200050c0b3001f
:100640003601070080c3eb000083eb0086027800d0
:1006500084c0b30084417800a22c2000612c2000cb
:1006600060c0b3002d01070080c3eb000083eb00e6
:100670008602780094c0b30084417800a22c200048
:10068000612c200070c0b3002401070080c3eb0080
:100690000083eb0086027800a4c0b3008441780098
:1006a000a22c2000612c200080c0b3001b01070099
:1006b00080c3eb000083eb0086027800b4c0b30077
:1006c00084417800a22c2000612c200090c0b3004f
:1006d00012010700cf0207000040eb0033020700c1
:1006e0002040900021e8b70010c0b3002f0207009f
:1006f0002040900043e8b70020c0b3002b02070061
:100700002040900065e8b70030c0b3002702070022
:100710002040900087e8b70040c0b30023020700e4
:1007200020409000a9e8b70050c0b3001f020700a6
:1007300020409000cbe8b70060c0b3001b02070068
:1007400020409000ede8b70070c0b300170207002a
:10075000204090000fe9b70080c0b30013020700eb
:100760002040900031e9b70090c0b3000f020700ad
:100770002040900053e9b70012c0b3008040eb0066
:10078000014078001f04070042c0b30021c0b3003d
:100790000040eb006703070042c0b30031c0b30064
:1007a00010c0b3006303070042c0b300824078006a
:1007b00020c0b3005f03070042c0b30051c0b300c4
:1007c00030c0b3005b03070042c0b30061c0b30098
:1007d000024078005703070042c0b30071c0b30065
:1007e00050c0b3005303070042c0b30081c0b30040
:1007f00060c0b3004f03070042c0b30091c0b30014
:1008000070c0b3004b03070000fa200060088800a6
:1008100094e0a80011e1a80009f02f00c8ff200013
:100820004104070096c9bf00e14f500057003a004d
:100830008004fd00d622b6008004fd000004fd0007
:10084000e822b6000004fd00c0ff2f00d022b60051
:10085000c04c8000913a2000810f5000020034000b
:10086000d042a80049003700b1362000810f500067
:1008700002003400d022a80044003700c13220001a
:10088000810f500002003400e9e2a8003f00370069
:10089000e12e2000810f500002003400e9a2a800e0
:1008a0003a003700f12a2000810f50000200340086
:1008b000e982a8003500370011272000810f500081
:1008c00002003400e9c2a8003000370021232000d4
:1008d000810f500002003400e802a8002b0037000e
:1008e000411f2000810f500002003400e822a800c0
:1008f00026003700511b2000810f500002003400f9
:10090000d6e2a8002100370071172000810f5000a7
:1009100002003400d6c2a8001c003700811320005a
:10092000810f500002003400d6a2a8001700370043
:10093000a10f2000810f500002003400d682a800d1
:1009400012003700b10b2000810f5000020034006c
:10095000d662a8000d003700d1072000810f50009b
:1009600002003400d642a80008003700e10320004e
:10097000810f500002003400d622a8000300370087
:10098000e00f500001003400d602a80056c9bf0095
:10099000e14f500009003a008004fd00d622b60065
:1009a0008004fd000004fd00e822b6000004fd0004
:1009b000c0ff2f00d022b600d602a8005ec9bf003b
:1009c000e14f500009003a008004fd00d622b60035
:1009d0008004fd000004fd00e822b6000004fd00d4
:1009e000c0ff2f00d022b600d622a80066c9bf00e3
:1009f000e14f500009003a008004fd00d622b60005
:100a00008004fd000004fd00e822b6000004fd00a3
:100a1000c0ff2f00d022b600d642a8006ec9bf008a
:100a2000e14f500009003a008004fd00d622b600d4
:100a30008004fd000004fd00e822b6000004fd0073
:100a4000c0ff2f00d022b600d662a80076c9bf0032
:100a5000e14f500009003a008004fd00d622b600a4
:100a60008004fd000004fd00e822b6000004fd0043
:100a7000c0ff2f00d022b600d682a8007ec9bf00da
:100a8000e14f500009003a008004fd00d622b60074
:100a90008004fd000004fd00e822b6000004fd0013
:100aa000c0ff2f00d022b600d6a2a80086c9bf0082
:100ab000e14f500009003a008004fd00d622b60044
:100ac0008004fd000004fd00e822b6000004fd00e3
:100ad000c0ff2f00d022b600d6c2a8008ec9bf002a
:100ae000e14f500009003a008004fd00d622b60014
:100af0008004fd000004fd00e822b6000004fd00b3
:100b0000c0ff2f00d022b600d6e2a8006301070084
:100b100043ff3700a300070000000600889fbe00c7
:100b20000080fb002781200028022000e08f520077
:100b3000060034000884b90085337c008783e80010
:100b400008844300058cd100060037000884b900f2
:100b5000451f200085337c00a70f20004581200021
:100b600087327c00280220000884b90088027800bf
:100b70008780200081b37a008780e80082b07a0005
:100b80008381fb00110020008309dd00f680430013
:100b900083b07a00f880430084f07a00e48050004b
:100ba000858040008048eb0022322000f280430024
:100bb00082b07a00e8804300e00f53000200340066
:100bc00086b07a00020037008200200082b07a00ee
:100bd000210220000180b90070014000e180200066
:100be00003802000e301790083307800ea80400030
:100bf000808040008008eb00418020008080400021
:100c00008008eb00b1107800c18020000080400017
:100c10000008eb004f04be00000006000000eb00df
:100c20000019880010198800201988002043a800a6
:100c300021198000f00f2e00008060000080a000cd
:100c40002019880020c0b30024e3b7002143a80086
:100c500021e3a80000000600300990008201e800ae
:100c600033089800810f5100110039008000eb001b
:100c7000310898001001be0020029000b0029000e0
:100c8000cd28dd004322de0004827000c3aade000e
:100c90000402410085824900cd18dd004311de00c9
:100ca00002817000c399de000218520003905a00be
:100cb00000000600881f780000047800a80190005a
:100cc000380290009880510001003b008000eb004a
:100cd000410c98004858900012c0b300824f500059
:100ce0000f00320003003900e24f500028003a00a4
:100cf00019003700580890008000e900510c980056
:100d0000e00f500003003a00425c980020002000f1
:100d1000500c9800030c7800140498001c00370055
:100d200018089000808f5000070036005808900087
:100d30008000e900510c9800e00f500004003a00d8
:100d400020c0b300405c980020002000500c9800a8
:100d5000410020000c00370028089000808f5000d0
:100d600006003100580890008000e900510c9800fe
:100d7000e00f500003003a00425c98002000200081
:100d8000500c98000119200008007800b2ff0700fd
:100d90006000b80020049800310498004f047800e7
:100da00000000600889fbe008a1f780054c9bf005b
:100db0000084fb002102200001c4b9000180200052
:100dc00008844000e94f5000020032002102200058
:100dd00088804000a9c0b3002a9320000200370099
:100de000880078000004780048589000e04f5000d8
:100df0001a003500080078003f020700e800900064
:100e0000810f5000020034008100e800010037002b
:100e10008100e9006104980068009000cf80de0046
:100e200028019000b8019000020040008380480033
:100e30002004980031049800780090008000e900b8
:100e400071049800e00f500004003a000800780098
:100e500098ff0700080890007004980000802000a8
:100e60008a0f5400020032002002200008004000d7
:100e70008944e900daff3a005449ec0054e9b7002c
:100e8000e94f5000030036008004fd0054e9b7002c
:100e90008004fd004f0578004f04be0000000600ee
:100ea000881f7800000478000040eb00f2702200f8
:100eb000018f2d0002003700010444000040e800cb
:100ec000820f5400fcff3e00e04f50000200320051
:100ed0000043b000d80007000040eb00713e200046
:100ee00002003700883eb1000040e800810f540046
:100ef000fcff3e00e04f5000020032000043b00013
:100f0000cd0007000040eb00310620000200370052
:100f10004806b1000040e800810f5400fcff3e008d
:100f2000e04f5000020032000043b000c200070052
:100f30000040eb00020037006a0454000040e80063
:100f4000e90f5400fcff3e00e04f50000200320069
:100f50000043b000b800070001c3b30001404400e3
:100f6000b5000700c0c2b300b30007004f0478000b
:100f700000000600881f7800000478000200370097
:100f8000ad0007000804e80018407800e04f50006a
:100f9000fbff3a004f04780000000600a469ef0050
:100fa000a229ef00209a200000000600a069ef00af
:100fb0009e29ef00e0992000000006000400fa00de
:100fc000889fbe008a9fbe00004178000281fb001e
:100fd000200220000091b900f001410004802000af
:100fe000648079006300b900f20242008032790027
:100ff000648079006300b900f401420082814100fd
:101000008009d10018362e00690120000080eb0015
:101010008080eb00fc054100780541000f0037009f
:10102000a0bf9f00b1bf9f005eff070004802000ab
:10103000e4c17d002fb89700bfb89700e2cf510000
:1010400006003a0064017d0003002000820f50007a
:10105000838f580004003c000200be00610454006d
:10106000e0845c00eeff3a00e00f5000e08f580093
:1010700002003d0067004000e08048004d09dd00af
:101080004300de0000007100c388de004f05be0093
:101090004f04be000080fa0000000600889fbe00da
:1010a000a1c0b300130020000000eb00028020006c
:1010b000425a9000e24f520001003a0003007000d3
:1010c0008140e90003003200838141002202b00028
:1010d000f7ff370072ff07000000eb0070ff07000a
:1010e0000000eb006eff0700a8c0b30009802000dd
:1010f000490890006aff07002902b0000844e9008f
:10110000fbff3a00d0c0b3004b000700a0c0b30003
:10111000490007004f04be0000000600889fbe0083
:10112000a1c0b300130020000000eb0002802000eb
:10113000425a9000e24f520001003a000300700052
:101140008140e90003003200838141002202b000a7
:10115000f7ff370052ff07000000eb0050ff0700c9
:101160000000eb004eff0700a8c0b300098020007c
:10117000190078004aff07002902b0000844e9007e
:10118000fbff3a00d0c0b3002b000700a0c0b300a3
:10119000290007004f04be0000000600a1c0b300f4
:1011a000130020000000eb0002802000425a900053
:1011b000e24f520001003a00030070008140e90054
:1011c00003003200838141002202b000f7ff3700a4
:1011d00033ff07000000eb0031ff07000000eb00c9
:1011e0002fff0700d0c0b30013000700a0c0b3005a
:1011f0001100070000000600500120000200370027
:10120000803e0900000000000000e900fcff3a00f9
:101210000000060020022000401188000000eb00c2
:10122000001188002062a8001011880021e2a800a7
:101230002342a80000000600111180000110b20036
:10124000fdff320000000000000000000000fb0075
:10125000201188000000060003003700803e0900ce
:1012600000000000010078008000e900e00f50005d
:10127000faff3a000000060002f02f000001fd0016
:10128000d622b6000001fd00c1ff20008000fd0055
:10129000e822b6008000fd00c0ff2f00d022b6007b
:1012a0000001fd00d222b6000001fd008000fd001b
:1012b000e422b6008000fd00cc22b600d602a800d1
:1012c000cdff0700d602a900d622a800caff07005a
:1012d000d622a900d642a800c7ff0700d642a9001f
:1012e000d662a800c4ff0700d662a900d682a80073
:1012f000c1ff0700d682a900d6a2a800beff070042
:10130000d6a2a900d6c2a800bbff0700d6c2a9007a
:10131000d6e2a800b8ff0700d6e2a900e822a8009c
:10132000b5ff0700e822a900e802a800b2ff070005
:10133000e802a900e9c2a800afff0700e9c2a900be
:10134000e982a800acff0700e982a900e9a2a80091
:10135000a9ff0700e9a2a900e9e2a800a6ff07008b
:10136000e9e2a900d022a800a3ff0700d022a9002b
:10137000d042a800a0ff0700d042a900d042a80098
:101380009dff0700d042a900d022a8009aff0700c5
:10139000d022a900e9e2a80097ff0700e9e2a9002e
:1013a000e9a2a80094ff0700e9a2a900e982a80029
:1013b00091ff0700e982a900e9c2a8008eff07009b
:1013c000e9c2a900e802a8008bff0700e802a90013
:1013d000e822a80088ff0700e822a900d6e2a800ba
:1013e00085ff0700d6e2a900d6c2a80082ff070049
:1013f000d6c2a900d6a2a8007fff0700d6a2a900e6
:10140000d682a8007cff0700d682a900d662a80079
:1014100079ff0700d662a900d642a80076ff070030
:10142000d642a900d622a80073ff0700d622a90041
:10143000d602a80070ff0700d602a900000006002f
:1014400000a0fe003600f800849fbe00869fbe000c
:101450003400f80004002000a4018800adfd07005e
:101460000621ef0084e0a9003400f9004f03be001c
:101470004f02be003600f9000080fe00004006006a
:101480003400f800881f780008002000a8018800b8
:101490004f04780000000000000000000000000081
:1014a000fcff37003400f800881f78000800200097
:1014b000a80188004f047800000000000000000030
:1014c00000000000fcff37003400f800881f78009f
:1014d00008002000a80188004f04780000000000e8
:1014e0000000000000000000fcff37003400f8009e
:1014f000881f780008002000a80188004f047800a9
:10150000000000000000000000000000fcff3700a9
:101510003400f800881f780008002000a801880027
:101520004f047800000000000000000000000000f0
:10153000fcff37000080fb004300dd0064952000c5
:101540000002420023c8b300034a780023c0b3005e
:10155000134298008495200000024200024a78005d
:101560000181fb00230220000391b900a195200016
:1015700080804000058020008288420002712200a5
:10158000c19520008230780010c0b300104298004e
:1015900000000600889fbe008a9fbe008c1f780056
:1015a00084c0b3008001eb006095200027c0b30029
:1015b00016c0b3000c832f000b7d20000a7122009f
:1015c000a0049000c9589000e0cf50003e003200c7
:1015d00010419000a04290008582fb006884620068
:1015e0000f003200e24f510002003a003a0098002a
:1015f0000b0037003004900012c0b300e00f54001d
:1016000004003c0022c0b3008c0f540001003d00d8
:101610003b009800300490000804e900380098006e
:101620007084620003003200104461000100320047
:101630000274a00002487800618162000d0032004f
:101640003041900082cf500008003200e2cf5000bd
:1016500006003a0010419000e14f510002003a00ac
:101660001140980001003700164098003140980062
:1016700015003700e4826200828f52000b003200b6
:1016800017409800e2cf50000f003a00e08f510061
:101690000c003200a300900049099000c10890009e
:1016a000810f510007003e0007003700e2cf5000d5
:1016b00002003a00164098000300370017409800d7
:1016c00001003700800178000442e9000200320086
:1016d00068004000baff3700e08f5100020032007e
:1016e00010c0b300904198004f0678004f05be002f
:1016f0004f04be0000000600889fbe008a1f7800cd
:101700004103900051029000f10b900040019000c5
:10171000d0019000f00a900000609000816090007d
:101720008184fb0049198800148a73008783ea00ca
:10173000168b63008580ea0093896000128960003f
:101740001400090000000000128972000084fb00f0
:101750004819880014000900000000002023a90097
:101760000000000000000000000000000000000079
:10177000000000000000000000198000610060000f
:10178000fdff320012896000148a63000a1880008d
:1017900049198800148a6300168b630093897200cc
:1017a0001289600014000900000000001289720014
:1017b0004819880014000900000000002023a90037
:1017c0000000000000000000000000000000000019
:1017d00000000000000000000019800061006000af
:1017e000fdff320093896000128960000000210033
:1017f0000003b4000a0050004f0578004f04be00fb
:1018000000000600824178000080fb004300dd00fc
:10181000629920000000410022c0b3000248780015
:101820000081e8000009eb000182fb002602200095
:1018300006a2b90001802000640140000489400034
:101840000381fb000691b900660040000288400059
:1018500000000600889fbe00d04c8000e24c800053
:10186000c2589000c0599000e2cf510002003200ef
:10187000e2cf50000b003a0011c0b3008000fd0021
:1018800096e9b7008000fd0040089000c208900073
:101890006101b80001014100e081490004003a0003
:1018a0001200370020c0b30096e9b7000f003700e0
:1018b000c94c8000883e20000800b80018fb0700d3
:1018c0004c09dd004400de0000007100c488de0029
:1018d00044c9de000281540000004100c04c880071
:1018e000880f500001003400c84c88004f04be002f
:0418f00000000600ee
:020000040000fa
:1018f40096090000080000000000000056090000de
:101904004000000000000000000800005601000034
:10191400000000009e090000080000000000000014
:0419240000000000bf
:020000040000fa
:0c1928001aff0700c9ff070000000600be
:00000001FF
