:020000040000FA
:0600000001EF2FF01200D9
:020006001200E6
:060008007EEF18F012006B
:02000E001200DE
:020010000000EE
:0400120000000000EA
:060018007EEF18F012005B
:02001E000400DC
:10002000365E00003F0000001200000012000000D9
:10003000790200000400000010000000FD00000034
:10004000020000002D5E00006802000009000000B0
:1000500000001200D9CFE6FFE1CFD9FF82E949E8DD
:1000600000EBE6FFD6CFE6FFE8EC27F041E9E750EA
:10007000026E02504BE00206AFEC2DF0FAC171F2B5
:10008000FBC172F2FCC173F2FDC174F20201715145
:10009000036E7251046E7351056E7451066EAFECAF
:1000A0002DF0FAC171F2FBC172F2FCC173F2FDC115
:1000B00074F202017151076E7251086E7351096E2C
:1000C00074510A6E07EB75F208EB76F209EB77F2E2
:1000D0000AEB78F2D950030FE96EDACFEAFFEE505F
:1000E000755D716FEE507659726FEE507759736F80
:1000F000EE507859746FD8803E0E7155000E7255CF
:10010000000E7355000E7455CAE2B3D74AE9E7CF23
:10011000D9FF1200D9CFE6FFE1CFD9FF81E955E839
:100120003EEC17F0000902E181EF06F00E0153B535
:10013000F4EF06F0016B6A51040B01E0010E030BB2
:10014000F36EFC0E0115F310016F6A510197080B55
:1001500001E001876A51030B010802E1010E01D0A1
:10016000000E019BE8B0018B6A51019D800B01E0FC
:10017000018D6AAF05D0018F6BCE04FE6CCE05FEFB
:1001800071CE0AFE70CE09FE53956A51030B010A27
:1001900002E1F2EF04F0020A01E1B3D2030A02E045
:1001A0007CEF06F0016A040E015C22E20150080DAA
:1001B000F3CFE9FFF4CFEAFF720EE9260E0EEA2232
:1001C000030EE926000EEA22EF5000080FE201506C
:1001D000080DF3CFE9FFF4CFEAFF720EE9260E0E09
:1001E000EA22030EE926000EEA22EF06012ADBD7F7
:1001F0000E016F5101E1A8D00A0E6F5D02E27CEFA3
:1002000006F0020EEA6A6D25E96E6E51EA22EF50A1
:100210000A6E030EEA6A6D25E96E6E51EA22EF500E
:100220000B6E040EEA6A6D25E96E6E51EA22EF50FC
:10023000106E050EEA6A6D25E96E6E51EA22EF50E6
:10024000116E060EEA6A6D25E96E6E51EA22EF50D4
:100250000C6E070EEA6A6D25E96E6E51EA22EF50C8
:100260000D6E080EEA6A6D25E96E6E51EA22EF50B6
:100270000E6E090EEA6A6D25E96E6E51EA22EF50A4
:100280000F6E016B6A510197080B01E00187015164
:10029000030B000906E1101C01E0AED0111C01E0C7
:1002A000ABD04E510E180BE14F510F1808E15051D1
:1002B0000C1805E151510D1802E17CEF06F0016ABE
:1002C000040E015C3DE20150080DF3CFE9FFF4CFCD
:1002D000EAFF720EE9260E0EEA22030EE926000E50
:1002E000EA22EF502BE00150080DF3CFE9FFF4CFE5
:1002F000EAFF720EE9260E0EEA220E50EE181EE1FB
:100300000F50ED181BE10150080DF3CFE9FFF4CFBA
:10031000EAFF720EE9260E0EEA22020EE926000E10
:10032000EA22EFCF71F20A0E0E01EA6A6D25E96E3C
:100330006E51EA22EF500201715D02E0012AC0D73E
:10034000040E015C04E20E01539D7CEF06F0016A8D
:10035000040E015C12E20150080DF3CFE9FFF4CF67
:10036000EAFF720EE9260E0EEA22030EE926000EBF
:10037000EA22EF5002E0012AEBD7040E015C38E2DA
:100380000150080DF3CFE9FFF4CFEAFF720EE92622
:100390000E0EEA220EEBEEFF0FEBEDFF0A0E0E0142
:1003A000EA6A6D25E96E6E51EA22EF50E66E015061
:1003B000080DF3CFE9FFF4CFEAFF720EE9260E0E27
:1003C000EA22020EE926000EEA22E552E750EF6E1D
:1003D0000150080DF3CFE9FFF4CFEAFF720EE926D2
:1003E0000E0EEA22030EE926000EEA22030EEF6E3D
:1003F0000E010181019367D050510A1802E07CEF91
:1004000006F051510B1802E07CEF06F04E51101827
:1004100002E07CEF06F04F51111802E07CEF06F08D
:10042000010EEA6A6D25E96E6E51EA22EF50040B67
:100430004AE06EC200F20201020E016F0CEB02F202
:100440000DEB03F20EEB04F20FEB05F250CE06F2C9
:1004500051CE07F24ECE08F24FCE09F20A0E0E012F
:10046000EA6A6D25E96E6E51EA22EFCF0AF20201C7
:100470000B6B300E0C6F0E010D0E4D6F676B678BA3
:1004800052510C0DF3CFE9FFF4CFEAFF820EE926BB
:10049000010EEA22040EE926000EEA22E9CF68FEE8
:1004A000EACF69FE4DCEE6FF000EE66E020EE66E66
:1004B00067CEE6FFE9CFE6FFEACFE6FF9DEC16F058
:1004C00046E90E0101850B0EEA6A6D25E96E6E5153
:1004D000EA22EF5001E0E0D00C0EEA6A6D25E96EE9
:1004E0006E51EA22EF50300801E1C0D00C0EEA6AEA
:1004F0006D25E96E6E51EA22EF50110A02E07CEFA1
:1005000006F0126A040E125C14E20D0E1224EA6A5E
:100510006D25E96E6E51EA22EF50E66E1250EA6ADE
:10052000440FE96E0E0EEA22E552E750EF6E122AF2
:10053000E9D78D0E4C6F110EEA6A6D25E96E6E518A
:10054000EA22EF50800B01E04C91110EEA6A6D2512
:10055000E96E6E51EA22EFCF48FE120EEA6A6D256F
:10056000E96E6E51EA22EFCF49FE50CE4AFE51CEDF
:100570004BFE9BEC08F00E01596FFF0E595D13E026
:1005800059510C0DF3CFE9FFF4CFEAFF820EE926B3
:10059000010EEA22080EE926000EEA22EFCF4CFEF9
:1005A0004C854C8704D08D0E4C6F48BF4C9149EC64
:1005B00009F00E01596FFF0E595D55E2126A030EE4
:1005C000125C28E2130E12240E01EA6A6D25E96E10
:1005D0006E51EA22EF50E66E59510C0DF3CFE9FF50
:1005E000F4CFEAFF820EE926010EEA22090EE9267F
:1005F000000EEA22E9CF71F2EACF72F21250020144
:10060000EA6AE924E96E7251EA22E552E750EF6E98
:10061000122AD5D70C0EE66EE66A0E0159510C0D62
:1006200002015E51F3240201716F02015F51F42057
:100630000201726F71C2E6FFE66E0E0159510C0D98
:10064000F3CF73F2F4CF74F2820E02017327010E1E
:10065000742373C2E6FF74C2E6FF5FEC29F046E93B
:100660000E01588101D05891589346D30A0EEA6A78
:100670006D25E96E6E51EA22EF5002016F5D01E0D7
:100680003BD30E0155510E1801E036D356510F18C9
:1006900001E032D3539730D3539D0B0E6F5D086F3B
:1006A0000B0E6D25066F000E6E21076F0CEB02FE20
:1006B0000DEB03FE080EEA6A6D25E96E6E51EA2223
:1006C000EF50FF0810E1090EEA6A6D25E96E6E51E0
:1006D000EA22EF50FF0807E16AAF05D06BCE04FEB7
:1006E0006CCE05FE07D0018F080E6D25046F000E3D
:1006F0006E21056F018D0851000801E3FDD253857D
:10070000FBD2040E136E1324EA6A6D25E96E6E5156
:10071000EA22EF504D080BE0040E1324EA6A6D251F
:10072000E96E6E51EA22EF505D0801E0E5D253A96F
:100730000AD0AFEC2DF0FAC192FEFBC193FEFCC1D2
:1007400094FEFDC195FE0E0153A1D6D26DCEE9FFF8
:100750006ECEEAFFEFCF4AFE010EEA6A6D25E96E22
:100760006E51EA22EFCF4BFE020EEA6A6D25E96E6A
:100770006E51EA22EFCF48FE030EEA6A6D25E96E5C
:100780006E51EA22EFCF49FE1350EA6A6D25E96EF9
:100790006E51EA22EF50FF0801E0AED21328EA6A58
:1007A0006D25E96E6E51EA22EF50146E040E0B5D5A
:1007B00001E3A2D2D950140FE96EDACFEAFFEF506D
:1007C000300BE842E842E842E842010801E294D2F4
:1007D0000B510D0DF3CFE9FFF4CFEAFF0C0EE92624
:1007E0000E0EEA226CC2EFFF0B510D0DF3CFE9FFA5
:1007F000F4CFEAFF0C0EE9260E0EEA22070EE926D8
:10080000000EEA2209CEEFFF0B510D0DF3CFE9FFE9
:10081000F4CFEAFF0C0EE9260E0EEA22080EE926B6
:10082000000EEA220ACEEFFF0B510D0DF3CFE9FFC8
:10083000F4CFEAFF0C0EE9260E0EEA22050EE92699
:10084000000EEA224ACEEEFF4BCEEDFF0B510D0D0E
:10085000F3CFE9FFF4CFEAFF0C0EE9260E0EEA22F1
:10086000090EE926000EEA22EF6A0B510D0DF3CFB7
:10087000E9FFF4CFEAFF0C0EE9260E0EEA22090E7C
:10088000E926000EEA22EF8CD950140FE96EDACF78
:10089000EAFFEF50060BE8420201716F0E010B51A7
:1008A0000D0DF3CFE9FFF4CFEAFF0C0EE9260E0E93
:1008B000EA22090EE926000EEA2202017151030B19
:1008C000F36EFC0EEF14F310EF6ED950140FE96EB7
:1008D000DACFEAFFEF50080B10E00E010B510D0DBF
:1008E000F3CFE9FFF4CFEAFF0C0EE9260E0EEA2261
:1008F000090EE926000EEA22EF86D950140FE96EA0
:10090000DACFEAFFEF50300BE842E842E842E84233
:10091000010810E30E010B510D0DF3CFE9FFF4CFE9
:10092000EAFF0C0EE9260E0EEA22090EE926000E59
:10093000EA22EF8A016A040E015C24E201500E01F2
:10094000EA6A0425E96E0551EA22EF50E66E0B5182
:100950000D0DF3CFE9FFF4CFEAFF0C0EE9260E0EE2
:10096000EA22EE52E9CF71F2EACF72F201500201AF
:10097000EA6AE924E96E7251EA22E552E750EF6E25
:10098000012AD9D7016A030E015C29E2070E13245C
:1009900001240E01EA6A6D25E96E6E51EA22EF50DC
:1009A000E66E0B510D0DF3CFE9FFF4CFEAFF0C0E0D
:1009B000E9260E0EEA220A0EE926000EEA22E9CF07
:1009C00071F2EACF72F201500201EA6AE924E96E9B
:1009D0007251EA22E552E750EF6E012AD4D70E0198
:1009E0000B2B8AD16DCEE9FF6ECEEAFFEF50030AE2
:1009F00001E103D1010A01E07FD1030EEA6A6D250E
:100A0000E96E6E51EA22EF5001E0C0D0010EEA6AB1
:100A10006D25E96E6E51EA22EFCF4EFE020EEA6AB4
:100A20006D25E96E6E51EA22EFCF4FFE500EE66E55
:100A30000E0EE66E4E0EE66E0E0EE66E84EC15F0B1
:100A400044E90E015383BF0E4C6F016A040E015C32
:100A500013E20150EA6A6B25E96E6C51EA22EF500D
:100A6000E66E0150EA6A440FE96E0E0EEA22E55284
:100A7000E750EF6E012AEAD74E5103E1486B496B0C
:100A800003D04FCE49FE486B50CE4AFE51CE4BFEAE
:100A900049EC09F00E01526F016A030E015C28E275
:100AA000040E01240E01EA6A6D25E96E6E51EA22F8
:100AB000EF50E66E52510C0DF3CFE9FFF4CFEAFF91
:100AC000820EE926010EEA22090EE926000EEA222C
:100AD000E9CF71F2EACF72F201500201EA6AE92429
:100AE000E96E7251EA22E552E750EF6E012AD5D73E
:100AF000020EE66EE66A58C2E6FF59C2E6FF500EE5
:100B0000E66E0E0EE66E5FEC29F046E9020EE66E2A
:100B1000E66A62C2E6FF63C2E6FF4E0EE66E0E0EA6
:100B2000E66E5FEC29F046E9010EE66EE66A64C205
:100B3000E6FF65C2E6FF520EE66E0E0EE66E5FEC55
:100B400029F046E90C0EE66EE66A0E0152510C0DD4
:100B500002015E51F3240201716F02015F51F42022
:100B60000201726F71C2E6FFE66E0E0152510C0D6A
:100B7000F3CF73F2F4CF74F2820E02017327010EE9
:100B8000742373C2E6FF74C2E6FFB3D052695069A2
:100B9000516948694969500EE66E0E0EE66E480EC0
:100BA000E66E0E0EE66E84EC15F044E9010EE66E7C
:100BB000E66A64C2E6FF65C2E6FF520EE66E0E0EFE
:100BC000E66E5FEC29F046E9020EE66EE66A58C270
:100BD000E6FF59C2E6FF500EE66E0E0EE66E5FECC3
:100BE00029F046E9020EE66EE66A62C2E6FF63C2DB
:100BF000E6FF4E0EE66E0E0E7BD0016A040E015C1F
:100C000013E20150EA6A6B25E96E6C51EA22EF505B
:100C1000E66E0150EA6A440FE96E0E0EEA22E552D2
:100C2000E750EF6E012AEAD7D7DA156EFF0E155C92
:100C300063E015500C0DF3CFE9FFF4CFEAFF820E0D
:100C4000E926010EEA22080EE926000EEA22EF50FC
:100C5000200B52E0016A0A0E015C11E201500C0DFA
:100C6000F3CFE9FFF4CFEAFF820EE926010EEA2274
:100C7000080EE926000EEA22EF6A012AECD70E01DF
:100C800052694E694F6950695169500EE66E0E0EF9
:100C9000E66E4E0EE66E0E0EE66E84EC15F044E93E
:100CA0000E015393010EE66EE66A64C2E6FF65C26A
:100CB000E6FF520EE66E0E0EE66E5FEC29F046E998
:100CC000020EE66EE66A62C2E6FF63C2E6FF4E0E01
:100CD000E66E0E0EE66E5FEC29F046E9020EE66E59
:100CE000E66A58C2E6FF59C2E6FF500EE66E0E0EE7
:100CF000E66E5FEC29F046E90E0153B502D036EC02
:100D000018F0AFEC2DF0FAC171F2FBC172F2FCC128
:100D100073F2FDC174F202017151026E7251036EE1
:100D20007351046E7451056E0E0153A32DD053AD53
:100D30002BD0D950020FE96EDACFEAFF4051EE5CBA
:100D40000201716F0E014151EE580201726F0E01E6
:100D50004251EE580201736F0E014351EE580201E9
:100D6000746F7151066E7251076E7351086E745133
:100D7000096E0650FF083F0E0754000E0854000E7F
:100D8000095402E20E01539D0E0158A32DD058B113
:100D90002BD0D950020FE96EDACFEAFF6351EE5C37
:100DA0000201716F0E016451EE580201726F0E0163
:100DB0006551EE580201736F0E016651EE58020143
:100DC000746F7151066E7251076E7351086E7451D3
:100DD000096E06506C08DC0E0754020E0854000E13
:100DE000095402E20E01589356E9E7CFD9FF1200E9
:100DF000D9CFE6FFE1CFD9FF84E90E01676B005040
:100E0000030BF36EFC0E6715F310676F01500210B1
:100E100001E167856751040B02E0000E01D0010E6D
:100E2000679BE8B0678B678F01EB68FE02EB69FE9A
:100E30004DCEE6FF000EE66E020EE66E67CEE6FFD2
:100E400068CEE6FF69CEE6FF9DEC16F046E941E983
:100E5000E7CFD9FF1200D9CFE6FFE1CFD9FF81E973
:100E600041E8016A0A0E015C15E201500C0DF3CF56
:100E7000E9FFF4CFEAFF820EE926010EEA22080E0E
:100E8000E926000EEA22EF50800B02E1015003D068
:100E9000012AE8D7FF0E42E9E7CFD9FF1200D9CFE8
:100EA000E6FFE1CFD9FF82E942E8FF0E005C06E1F0
:100EB000026A040E025C02E2022AFBD7FF0E005C0B
:100EC0006BE1026A0A0E025C01E3CAD002500C0D0B
:100ED000F3CFE9FFF4CFEAFF820EE926010EEA2202
:100EE000080EE926000EEA22EF50800B53E0025074
:100EF0000C0DF3CFE9FFF4CFEAFF820EE926010ED5
:100F0000EA22080EE926000EEA22EF50010B0250F9
:100F10000C0DF3CFE9FFF4CFEAFF820EE926010EB4
:100F2000EA22080EE926000EEA22EF50020B0250D8
:100F30000C0DF3CFE9FFF4CFEAFF820EE926010E94
:100F4000EA22080EE926000EEA22EF50080B0250B2
:100F50000C0DF3CFE9FFF4CFEAFF820EE926010E74
:100F6000EA22080EE926000EEA22EF50040B06E002
:100F7000036A040E035C02E2032AFBD7036A040E31
:100F8000035C02E2032AFBD7036A030E035C02E25E
:100F9000032AFBD7022A96D700500C0DF3CFE9FFA6
:100FA000F4CFEAFF820EE926010EEA22080EE926B6
:100FB000000EEA22EF50800B53E000500C0DF3CFEF
:100FC000E9FFF4CFEAFF820EE926010EEA22080EBD
:100FD000E926000EEA22EF50010B00500C0DF3CF72
:100FE000E9FFF4CFEAFF820EE926010EEA22080E9D
:100FF000E926000EEA22EF50020B00500C0DF3CF51
:10100000E9FFF4CFEAFF820EE926010EEA22080E7C
:10101000E926000EEA22EF50080B00500C0DF3CF2A
:10102000E9FFF4CFEAFF820EE926010EEA22080E5C
:10103000E926000EEA22EF50040B06E0036A040ED4
:10104000035C02E2032AFBD7036A040E035C02E29C
:10105000032AFBD7036A030E035C02E2032AFBD7D1
:1010600043E9E7CFD9FF1200D9CFE6FFE1CFD9FF9F
:1010700081E941E80E015891AFEC2DF0FAC163FE11
:10108000FBC164FEFCC165FEFDC166FE0E01486B3E
:10109000496B0B0E4D6F4D514D2BEA6A000FE96EF7
:1010A000020EEA22EF6A4D514D2BEA6A000FE96EFB
:1010B000020EEA22100EEF6E016A040E015C14E2C9
:1010C0000150EA6A680FE96E020EEA22EF50E66EFE
:1010D0004D514D2BEA6A000FE96E020EEA22E552ED
:1010E000E750EF6E012AE9D7016A030E015C14E2B2
:1010F0000150EA6A4E0FE96E000EEA22EF50E66EEA
:101100004D514D2BEA6A000FE96E020EEA22E552BC
:10111000E750EF6E012AE9D7E66AE66A480EE66E06
:101120000E0EE66EE6EC10F044E90E01588342E93B
:10113000E7CFD9FF1200D9CFE6FFE1CFD9FF81E990
:1011400041E8016A0A0E015C42E201500C0DF3CF46
:10115000E9FFF4CFEAFF820EE926010EEA22080E2B
:10116000E926000EEA22EF50800B2FE001500C0D13
:10117000F3CFE9FFF4CFEAFF820EE926010EEA225F
:10118000080EE926000EEA22EF50080B1EE001507F
:101190000C0DF3CFE9FFF4CFEAFF820EE926010E32
:1011A000EA22020EE926000EEA22EECF71F2EFCF1C
:1011B00072F20E0148510201711907E10E01495105
:1011C0000201721902E1015003D0012ABBD7FF0EC0
:1011D00042E9E7CFD9FF1200D9CFE6FFE1CFD9FF2F
:1011E00081E942E8016A0A0E015C4EE201500C0DF1
:1011F000F3CFE9FFF4CFEAFF820EE926010EEA22DF
:10120000080EE926000EEA22EF50800B3BE0015069
:101210000C0DF3CFE9FFF4CFEAFF820EE926010EB1
:10122000EA22080EE926000EEA22EF50040B2AE01B
:10123000026A040E025C24E201500C0DF3CFE9FFB8
:10124000F4CFEAFF820EE926010EEA22040EE92617
:10125000000EEA22EACF73F202500201EA6AE924A0
:10126000E96E7351EA22EFCF71F20250EA6A440F3D
:10127000E96E0E0EEA22EF50715D04E1022AD9D721
:10128000015003D0012AAFD7FF0E43E9E7CFD9FFC2
:101290001200D9CFE6FFE1CFD9FF81E942E801682A
:1012A0000E014CA502D098DF03D04CA702D043DF3B
:1012B000016EFF0E015C02E1CEDD016EFF0E015CEE
:1012C0005EE001500C0DF3CFE9FFF4CFEAFF820E90
:1012D000E926010EEA22080EE926000EEA224CCE8B
:1012E000EFFF0E014CA528D0026A040E025C24E236
:1012F0000250EA6A440FE96E0E0EEA22EF50E66EE3
:1013000001500C0DF3CFE9FFF4CFEAFF820EE9267E
:10131000010EEA22040EE926000EEA22EACF72F25A
:1013200002500201EA6AE924E96E7251EA22E552AA
:10133000E750EF6E022AD9D70E014CA712D0015008
:101340000C0DF3CFE9FFF4CFEAFF820EE926010E80
:10135000EA22020EE926000EEA2248CEEEFF49CE2E
:10136000EDFF01500C0DF3CFE9FFF4CFEAFF820E41
:10137000E926010EEA224ACEEEFF4BCEEDFF0150E8
:1013800043E9E7CFD9FF1200D9CFE6FFE1CFD9FF7C
:1013900085E941E8056A040E055C16E20550022461
:1013A000E96E000E0320EA6EEFCF71F205500024C3
:1013B000E96E000E0120EA6EEF500201715D02E05D
:1013C000000E03D0052AE7D7010E42E9E7CFD9FF87
:1013D0001200D9CFE6FFE1CFD9FF81E941E80E0144
:1013E0004D51016E4D6B4D514D2BEA6A000FE96E68
:1013F000020EEA22040EEF6E4D514D2BEA6A000FE9
:10140000E96E020EEA224ECEEFFF4D514D2BEA6AF5
:10141000000FE96E020EEA224FCEEFFF010EE66EDC
:10142000860EE66E010EE66EE3DC43E9000910E08D
:101430000E01538DAFEC2DF0FAC140FEFBC141FE11
:10144000FCC142FEFDC143FE01EB4DFE010E03D087
:1014500001EB4DFE000E42E9E7CFD9FF1200D9CFD4
:10146000E6FFE1CFD9FF82E944E8F6EC29F00E016E
:101470004E694F6950695169056A0A0E055C11E2AF
:1014800005500C0DF3CFE9FFF4CFEAFF820EE926F9
:10149000010EEA22080EE926000EEA22EF6A052A6A
:1014A000ECD70E01536B546B586B006BA5EC2DF011
:1014B0000E014D6B056A040E055C11E20550080D26
:1014C000F3CFE9FFF4CFEAFF720EE9260E0EEA220F
:1014D000030EE926000EEA22EF6A052AECD7005037
:1014E00001E188D0010EE66EE66A5AC2E6FF5BC2F1
:1014F000E6FF6C0EE66E020EE66E21EC29F046E980
:10150000200E02016C5D13E2020EE66EE66A62C214
:10151000E6FF63C2E6FF4E0EE66E0E0EE66E21ECAF
:1015200029F046E90E014E1D04E14F1D02E1000EB7
:10153000EDD0020EE66EE66A58C2E6FF59C2E6FF3B
:10154000500EE66E0E0EE66E21EC29F046E9010E15
:10155000E66EE66A5CC2E6FF5DC2E6FF6D0EE66E11
:10156000020EE66E21EC29F046E902016D510E01F2
:10157000030BF36EF346F346F346F346CF0E001526
:10158000F310006F780EE66EE66A5EC2E6FF5FC299
:10159000E6FF820EE66E010EE66E21EC29F046E9CA
:1015A000020EE66EE66A62C2E6FF63C2E6FF4E0E18
:1015B000E66E0E0EE66E21EC29F046E9010EE66EAF
:1015C000E66A64C2E6FF65C2E6FF520EE66E0E0EE4
:1015D000E66E21EC29F046E9500EE66E0E0EE66E40
:1015E0004E0EE66E0E0EE66E84EC15F044E90E012A
:1015F000538354D0020EE66EE66A58C2E6FF59C223
:10160000E6FF500EE66E0E0EE66E5FEC29F046E940
:10161000010EE66EE66A5AC2E6FF5BC2E6FF6C0E9A
:10162000E66E020EE66E5FEC29F046E9010EE66E0C
:10163000E66A5CC2E6FF5DC2E6FF6D0EE66E020E74
:10164000E66E5FEC29F046E9780EE66EE66A5EC269
:10165000E6FF5FC2E6FF820EE66E010EE66E5FEC0D
:1016600029F046E9020EE66EE66A62C2E6FF63C250
:10167000E6FF4E0EE66E0E0EE66E5FEC29F046E9D2
:10168000010EE66EE66A64C2E6FF65C2E6FF520E30
:10169000E66E0E0EE66E5FEC29F046E9026A0296EF
:1016A0000298028A029C028200500294E8B00284EE
:1016B000680E036E020E046E02EBE6FF03EBE6FF1C
:1016C00004EBE6FF04EC16F043E9500EE66E0E0E56
:1016D000E66E4E0EE66E0E0EE66E84EC15F044E9F4
:1016E0006CC2E6FF65D841E902016D510E01030BA2
:1016F000F36EF346F346F346F346CF0E0015F310B0
:10170000006FD6CF57FEF094F08A010E45E9E7CF7F
:10171000D9FF1200D9CFE6FFE1CFD9FF82E941E836
:101720000050020A29E0030A1EE0010A3CE10E0112
:1017300053A910D0780EE66EE66A5EC2E6FF5FC27D
:10174000E6FF820EE66E010EE66E5FEC29F046E9DA
:101750000E015399E66A47EC18F041E9000912E0DE
:101760000E0154811ED0E66847EC18F041E90009EB
:1017700009E00E01549115D0E66847EC18F041E9F4
:10178000000902E1010E10D00E01549122DE000981
:1017900002E1020E09D00E0153AD03D08AEC00F035
:1017A000FAD7000E01D0FF0E42E9E7CFD9FF1200B1
:1017B000D9CFE6FFE1CFD9FF82E9E66A00EBE6FF89
:1017C0008EEC15F042E9000912E000EB6CF2010E1C
:1017D000E66EE66A5AC2E6FF5BC2E6FF6C0EE66E94
:1017E000020EE66E5FEC29F046E9010E01D0000E14
:1017F00041E9E7CFD9FF1200D9CFE6FFE1CFD9FF0A
:1018000082E9005003081DE300EB6DF202016D5107
:101810000E01030BF36EF346F346F346F346CF0E89
:101820000015F310006F010EE66EE66A5CC2E6FF7B
:101830005DC2E6FF6D0EE66E020EE66E5FEC29F00D
:1018400046E941E9E7CFD9FF1200D9CFE6FFE1CF62
:10185000D9FF86E94EE8010E076E086A096A0A6A2E
:1018600002016C510B6E066A040E065C0DE2065016
:101870000D0DF3CFE9FFF4CFEAFF0C0EE9260E0EB3
:10188000EA22EF68062AF0D70E010B6B5381066A35
:10189000200E065C01E3A2D007EB71F208EB72F2B6
:1018A00009EB73F20AEB74F206501F0B08E0020119
:1018B000D8907137723773377437E806F9E1D9CFAA
:1018C000E9FFDACFEAFFEE5002017117EE5072170E
:1018D000EE507317EE507417715172117311741129
:1018E00001E17AD006EBE6FF63DF41E90E014D6BC3
:1018F0004D514D2BEA6A000FE96E020EEA22070EE7
:10190000EF6E4D514D2BEA6A000FE96E020EEA228E
:101910006CC2EFFF010EE66E000EE66EE66AF8ECB2
:1019200006F043E9AFEC2DF0FAC171F2FBC172F29F
:10193000FCC173F2FDC174F2020171510C6E72515F
:101940000D6E73510E6E74510F6EEDDA000901E0E9
:10195000F2DAAFEC2DF0FAC171F2FBC172F2FCC108
:1019600073F2FDC174F202017151106E7251116E69
:101970007351126E7451136E10EB75F211EB76F217
:1019800012EB77F213EB78F2D9500C0FE96EDACF45
:10199000EAFFEE50755D716FEE507659726FEE5042
:1019A0007759736FEE507859746F0450040DF3CF6C
:1019B000F6FFF4CFF7FF660EF6265D0EF7227151A3
:1019C0000900F55C72510900F55873510900F5588A
:1019D00074510900F558B9E2062A5AD70BEBE6FF15
:1019E000E7DE41E90E0153910B514FE9E7CFD9FFF3
:1019F0001200D9CFE6FFE1CFD9FF83E94AE8030E11
:101A0000036E000460E1AFEC2DF0FAC171F2FBC18E
:101A100072F2FCC173F2FDC174F202017151056EE4
:101A20007251066E7351076E7451086E34EC08F0F3
:101A30000E0158A344D077DA000901E07CDAAFEC5C
:101A40002DF0FAC171F2FBC172F2FCC173F2FDC15B
:101A500074F202017151096E72510A6E73510B6E6C
:101A600074510C6E09EB75F20AEB76F20BEB77F220
:101A70000CEB78F2D950050FE96EDACFEAFFEE50A1
:101A8000755D716FEE507659726FEE507759736FC6
:101A9000EE507859746FD880240E7155F40E72553B
:101AA000000E7355000E7455C3E293DC89EB05F00C
:101AB0008AEB06F08BEB07F08CEB08F0B9D758A156
:101AC00029D259512CD2005001E028D2FF0E015CDE
:101AD00024E10201010E716F726B736B746B020172
:101AE0006C511F0B08E00201D890713772377337C1
:101AF0007437E806F9E171C2E6FF72C2E6FF73C20D
:101B0000E6FF74C2E6FF0A0EE66E9FDE45E90009B5
:101B100003E10306DEE1FED1016A01500D0DF3CFB2
:101B2000E9FFF4CFEAFF0C0EE9260E0EEA22050EBD
:101B3000E926000EEA22EECF4AFEEDCF4BFE046A04
:101B4000040E045C23E201500D0DF3CFE9FFF4CF46
:101B5000EAFF0C0EE9260E0EEA22EE52E9CF71F2F0
:101B6000EACF72F204500201EA6AE924E96E725186
:101B7000EA22EF50E66E0450EA6A440FE96E0E0E58
:101B8000EA22E552E750EF6E042ADAD7ECEC08F0CF
:101B90000E01526FFF0E525D07E12BEC07F00E01B4
:101BA000526FFF0801E1B6D152510C0DF3CFE9FF9E
:101BB000F4CFEAFF820EE926010EEA22080EE9269A
:101BC000000EEA22EF6A01500D0DF3CFE9FFF4CFCA
:101BD000EAFF0C0EE9260E0EEA22050EE926000E9B
:101BE000EA22EECF71F2EFCF72F252510C0DF3CF29
:101BF000E9FFF4CFEAFF820EE926010EEA2271C264
:101C0000EEFF72C2EDFF046A040E045C37E201507D
:101C10000D0DF3CFE9FFF4CFEAFF0C0EE9260E0E0F
:101C2000EA22EE52E9CF73F2EACF74F204500201D5
:101C3000EA6AE924E96E7451EA22EF50E66E0E0179
:101C400052510C0DF3CFE9FFF4CFEAFF820EE926E3
:101C5000010EEA22040EE926000EEA22E9CF71F213
:101C6000EACF72F204500201EA6AE924E96E725185
:101C7000EA22E552E750EF6E042AC6D70E01525110
:101C80000C0DF3CFE9FFF4CFEAFF820EE926010E37
:101C9000EA22080EE926000EEA22EF84046A030E07
:101CA000045C3AE201500D0DF3CFE9FFF4CFEAFFF7
:101CB0000C0EE9260E0EEA220A0EE926000EEA2292
:101CC000E9CF73F2EACF74F204500201EA6AE92420
:101CD000E96E7451EA22EF50E66E0E0152510C0D7E
:101CE000F3CFE9FFF4CFEAFF820EE926010EEA22E4
:101CF000090EE926000EEA22E9CF71F2EACF72F26C
:101D000004500201EA6AE924E96E7251EA22E552BE
:101D1000E750EF6E042AC3D70E0152510C0DF3CFDA
:101D2000E9FFF4CFEAFF820EE926010EEA22080E4F
:101D3000E926000EEA22EF8252510C0DF3CFE9FFA3
:101D4000F4CFEAFF820EE926010EEA22080EE92608
:101D5000000EEA22EF8A52510C0DF3CFE9FFF4CFC7
:101D6000EAFF820EE926010EEA22080EE926000E9D
:101D7000EA22EF8001500D0DF3CFE9FFF4CFEAFF27
:101D80000C0EE9260E0EEA22EFCFE6FF11DD41E947
:101D90000E0152510C0DF3CFE9FFF4CFEAFF820E92
:101DA000E926010EEA22EECF50FEEDCF51FE486942
:101DB0004969500EE66E0E0EE66E480EE66E0E0E89
:101DC000E66E84EC15F044E90E014D6B4D514D2B40
:101DD000EA6A000FE96E020EEA22010EEF6E4D5123
:101DE0004D2BEA6A000FE96E020EEA2200CEEFFFE9
:101DF000046A030E045C14E20450EA6A4E0FE96EB2
:101E0000000EEA22EF50E66E4D514D2BEA6A000FAC
:101E1000E96E020EEA22E552E750EF6E042AE9D796
:101E2000010EE66E52510C0DF3CFE9FFF4CFEAFF3D
:101E3000820EE926010EEA22040EE926000EEA22AD
:101E4000E9CF71F2EACF72F2E9CFE6FFEACFE6FF1F
:101E5000F8EC06F043E9AFEC2DF0FAC171F2FBC1EA
:101E600072F2FCC173F2FDC174F202017151056E90
:101E70007251066E7351076E7451086E0E01525105
:101E80000C0DF3CFE9FFF4CFEAFF820EE926010E35
:101E9000EA22080EE926000EEA22EF50100B3CE180
:101EA00042D8000901E047D8AFEC2DF0FAC171F239
:101EB000FBC172F2FCC173F2FDC174F202017151F7
:101EC000096E72510A6E73510B6E74510C6E09EBF0
:101ED00075F20AEB76F20BEB77F20CEB78F2D95055
:101EE000050FE96EDACFEAFFEE50755D716FEE50C7
:101EF0007659726FEE507759736FEE507859746F50
:101F0000D880240E7155F40E7255000E7355000ED4
:101F10007455B4E2FF0E03D0525101D0FF0E4BE9CD
:101F2000E7CFD9FF12008AEC00F00E015351040BE9
:101F300001E0010E12000E01539536EF18F0D9CFD3
:101F4000E6FFE1CFD9FF82E96EC200F20201020E84
:101F5000016F50CE02F251CE03F20469056950CEF2
:101F600006F251CE07F24ECE08F24FCE09F20E0124
:101F70005751572B02010A6F0E01676B678500509E
:101F80006797E8B067874DCEE6FF000EE66E020E5B
:101F9000E66E67CEE6FF68CEE6FF69CEE6FF9DEC13
:101FA00016F046E941E9E7CFD9FF1200D9CFE6FFA5
:101FB000E1CFD9FF83E949E801500C0DF3CFE9FFE8
:101FC000F4CFEAFF820EE926010EEA22080EE92686
:101FD000000EEA22EF50800B01E1F1D002017051B6
:101FE0001CE002010B5119E00E01538757CE6FF22E
:101FF00001500C0DF3CFE9FFF4CFEAFF820EE92682
:10200000010EEA22020EE926000EEA22EECF55FE6C
:10201000EDCF56FE060E036E04D0020E036E0E01C7
:1020200053976EC200F203EB01F201500C0DF3CF97
:10203000E9FFF4CFEAFF820EE926010EEA22EFCF94
:1020400002F201500C0DF3CFE9FFF4CFEAFF820E4C
:10205000E926010EEA22E92A000EEA22EFCF03F276
:1020600001500C0DF3CFE9FFF4CFEAFF820EE92611
:10207000010EEA22020EE926000EEA22EFCF04F258
:1020800001500C0DF3CFE9FFF4CFEAFF820EE926F1
:10209000010EEA22020EE926000EEA22E92AEA22CD
:1020A000EFCF05F250CE06F251CE07F24ECE08F237
:1020B0004FCE09F25751572B02010A6F0E01676B81
:1020C000678B00506797E8B0678752510C0DF3CFCC
:1020D000E9FFF4CFEAFF820EE926010EEA22040EA0
:1020E000E926000EEA22E9CF68FEEACF69FE4DCE6E
:1020F000E6FF000EE66E020EE66E67CEE6FFE9CF63
:10210000E6FFEACFE6FF9DEC16F046E9000955E050
:102110000E0153A756D0AFEC2DF0FAC171F2FBC1FE
:1021200072F2FCC173F2FDC174F202017151046ECE
:102130007251056E7351066E7451076EF4DE00091C
:1021400001E0F9DE0E0153B702D0010E3BD0AFEC37
:102150002DF0FAC171F2FBC172F2FCC173F2FDC144
:1021600074F202017151086E7251096E73510A6E58
:1021700074510B6E08EB75F209EB76F20AEB77F20D
:102180000BEB78F2D950040FE96EDACFEAFFEE508C
:10219000755D716FEE507659726FEE507759736FAF
:1021A000EE507859746FD880240E7155F40E725524
:1021B000000E7355000E7455C1E20E015397000EC8
:1021C00001D0010E4AE9E7CFD9FF1200D9CFE6FFCF
:1021D000E1CFD9FF85E953E8020170510AE002011D
:1021E0000B5107E00E01538757CE6FF2060E076EB4
:1021F00004D0020E076E0E015397015001E143D146
:10220000066A040E065C13E206500224E96E000E14
:102210000320EA6EEF50E66E0650EA6A440FE96E5C
:102220000E0EEA22E552E750EF6E062AEAD7ECECF2
:1022300008F0056EFF0E055C32E16EC200F202018D
:10224000020E016F026903690469056950CE06F246
:1022500051CE07F24ECE08F24FCE09F20E01575181
:10226000572B02010A6F0E01676B678B005067974F
:10227000E8B0678702EB68FE03EB69FE53974DCE2B
:10228000E6FF000EE66E020EE66E67CEE6FF68CE53
:10229000E6FF69CEE6FF9DEC16F046E9A8D10550B1
:1022A0000C0DF3CFE9FFF4CFEAFF820EE926010E11
:1022B000EA22080EE926000EEA22EF50080BBDE0E4
:1022C0000201705112E005500C0DF3CFE9FFF4CF7D
:1022D000EAFF820EE926010EEA22020EE926000E2E
:1022E000EA22EECF55FEEDCF56FE0201040E006F3E
:1022F00007EB01F205500C0DF3CFE9FFF4CFEAFF35
:10230000820EE926010EEA22EFCF02F205500C0DF3
:10231000F3CFE9FFF4CFEAFF820EE926010EEA22AD
:10232000E92A000EEA22EFCF03F205500C0DF3CF9D
:10233000E9FFF4CFEAFF820EE926010EEA22020E3F
:10234000E926000EEA22EFCF04F205500C0DF3CF80
:10235000E9FFF4CFEAFF820EE926010EEA22020E1F
:10236000E926000EEA22E92AEA22EFCF05F250CE52
:1023700006F251CE07F24ECE08F24FCE09F20E0110
:102380005751572B02010A6F0E01676B678B005084
:102390006797E8B0678752510C0DF3CFE9FFF4CF90
:1023A000EAFF820EE926010EEA22040EE926000E5B
:1023B000EA22E9CF68FEEACF69FE4DCEE6FF000EC5
:1023C000E66E020EE66E67CEE6FFE9CFE6FFEACFE5
:1023D000E6FF9DEC16F046E9000901E103D10E018C
:1023E00053A7C8D0AFEC2DF0FAC171F2FBC172F265
:1023F000FCC173F2FDC174F202017151086E725199
:10240000096E73510A6E74510B6E8DDD000901E087
:1024100092DD0E0153A7AED0AFEC2DF0FAC171F2F0
:10242000FBC172F2FCC173F2FDC174F20201715181
:102430000C6E72510D6E73510E6E74510F6E0CEB6B
:1024400075F20DEB76F20EEB77F20FEB78F2D950D6
:10245000080FE96EDACFEAFFEE50755D716FEE504E
:102460007659726FEE507759736FEE507859746FDA
:10247000D880240E7155F40E7255000E7355000E5F
:102480007455C3E2AFD00201040E006F07EB01F2F6
:1024900050CE02F251CE03F202EBE9FF03EBEAFF6A
:1024A000EFCF04F20228E96E000E0320EA6EEFCFB0
:1024B00005F250CE06F251CE07F24ECE08F24FCEC4
:1024C00009F20E015751572B02010A6F02EBE9FF87
:1024D00003EBEAFFEFCF55FE0228E96E000E032062
:1024E000EA6EEFCF56FE0E01676B678B0050679761
:1024F000E8B0678752510C0DF3CFE9FFF4CFEAFF44
:10250000820EE926010EEA22040EE926000EEA22D6
:10251000E9CF68FEEACF69FE4DCEE6FF000EE66E1B
:10252000020EE66E67CEE6FFE9CFE6FFEACFE6FFF2
:102530009DEC16F046E9000955E00E0153A756D070
:10254000AFEC2DF0FAC171F2FBC172F2FCC173F273
:10255000FDC174F202017151106E7251116E73510E
:10256000126E7451136EDFDC000901E0E4DC0E0131
:1025700053B702D0010E3BD0AFEC2DF0FAC171F28F
:10258000FBC172F2FCC173F2FDC174F20201715120
:10259000146E7251156E7351166E7451176E14EBE2
:1025A00075F215EB76F216EB77F217EB78F2D9505D
:1025B000100FE96EDACFEAFFEE50755D716FEE50E5
:1025C0007659726FEE507759736FEE507859746F79
:1025D000D880240E7155F40E7255000E7355000EFE
:1025E0007455C1E20E015397000E01D0010E54E95B
:1025F000E7CFD9FF1200D9CFE6FFE1CFD9FF87E9B6
:102600000550020A02E0030A02E1000E01D0000EAA
:1026100041E9E7CFD9FF1200D9CFE6FFE1CFD9FFDB
:1026200082E943E8FF0E005C74E1026A0A0E025C74
:1026300001E3E8D002500C0DF3CFE9FFF4CFEAFF3D
:10264000820EE926010EEA22080EE926000EEA2291
:10265000EF50800B4DE002500C0DF3CFE9FFF4CFAB
:10266000EAFF820EE926010EEA22080EE926000E94
:10267000EA22EF50200B3CE00E014D6B4D514D2BEB
:10268000EA6A000FE96E020EEA22030EEF6E676B34
:10269000678B67816793678F02500C0DF3CFE9FF5B
:1026A000F4CFEAFF820EE926010EEA22040EE926A3
:1026B000000EEA22E9CF68FEEACF69FE4DCEE6FFC2
:1026C000000EE66E020EE66E67CEE6FFE9CFE6FF8D
:1026D000EACFE6FF9DEC16F046E9036A046AFF0EB6
:1026E000035C0F0E045804E2032A000E0422F7D7FD
:1026F00002500C0DF3CFE9FFF4CFEAFF820EE9267A
:10270000010EEA22080EE926000EEA22EF6A022AEA
:102710008DD700500C0DF3CFE9FFF4CFEAFF820E06
:10272000E926010EEA22080EE926000EEA22EF5001
:10273000800B01E1B2D000500C0DF3CFE9FFF4CFD4
:10274000EAFF820EE926010EEA22080EE926000EB3
:10275000EA22EF50200B01E1A0D00E015251005CA3
:1027600001E09BD04D6B4D514D2BEA6A000FE96E95
:10277000020EEA22030EEF6E676B678B6781679329
:10278000678F00500C0DF3CFE9FFF4CFEAFF820E04
:10279000E926010EEA22040EE926000EEA22E9CF1C
:1027A00068FEEACF69FE4DCEE6FF000EE66E020E31
:1027B000E66E67CEE6FFE9CFE6FFEACFE6FF9DECE7
:1027C00016F046E9036A046AFF0E035C0F0E045814
:1027D00004E2032A000E0422F7D7026A0A0E025C02
:1027E00011E202500C0DF3CFE9FFF4CFEAFF820EA5
:1027F000E926010EEA22080EE926000EEA22EF6A17
:10280000022AECD70E0152694E694F69506951692D
:10281000500EE66E0E0EE66E4E0EE66E0E0EE66E76
:1028200084EC15F044E90E015393020EE66EE66A5D
:1028300062C2E6FF63C2E6FF4E0EE66E0E0EE66E65
:102840005FEC29F046E9020EE66EE66A58C2E6FF42
:1028500059C2E6FF500EE66E0E0EE66E5FEC29F0F2
:1028600046E9010EE66EE66A64C2E6FF65C2E6FF6F
:10287000520EE66E0E0EE66E5FEC29F046E9780E1B
:10288000E66EE66A5EC2E6FF5FC2E6FF820EE66EB5
:10289000010EE66E5FEC29F046E944E9E7CFD9FF87
:0228A000120024
:0E28A200D9CFE6FFE1CFD9FF81E941E8200E52
:1028B000E66E32D841E9016E0F0E0114010F190DB9
:1028C000F350F36EF46A42E9E7CFD9FF1200D9CF93
:1028D000E6FFE1CFD9FF83E941E8F050200B01E0AA
:1028E000010E036EF09A8D92020101EB71F2726B90
:1028F00071C2E6FF82EC2EF041E900EBE6FF82ECCC
:102900002EF041E98D820350E8B0F08AE8A0F09AF9
:1029100042E9E7CFD9FF1200D9CFE6FFE1CFD9FFD7
:1029200082E942E8F050200B01E0010E036EF09ABC
:102930008D92400E0010006E00EBE6FF82EC2EF050
:1029400041E996EC2EF0026E8D820350E8B0F08AD9
:10295000E8A0F09A025043E9E7CFD9FF1200D9CF9F
:10296000E6FFE1CFD9FF82E941E8F050200B01E01A
:10297000010E026EF09A8B9400EBE6FF82EC2EF0D3
:1029800041E98B840250E8B0F08AE8A0F09A42E96D
:10299000E7CFD9FF1200D9CFE6FFE1CFD9FF83E916
:1029A0004EE8030E0F6E0F500F06000901E1A6D08E
:1029B000106A0001FE6B0D6A005011E0280EE66EF1
:1029C000ABDF41E90E6E0E407F0B0E6E0E504108DC
:1029D00006E20D500D2A0408F1E2000E91D0F09AA3
:1029E000200EE66E6FD941E9C90EE66E1A0EE66E4C
:1029F0006EDF42E901EBE6FFB2DF41E9046A015014
:102A0000045C0CE20450EA6A000FE96E000EEA2250
:102A1000EFCFE6FFA4DF41E9042AF1D7800EE66E8E
:102A200051D941E9F08A0001FD5103E1F050040B56
:102A3000FAE0FD6B200EE66E45D941E9600EE66EC8
:102A400041D941E9200E00010015000854E201C0FF
:102A500099FEAFEC2DF0FAC171F2FBC172F2FCC12C
:102A600073F2FDC174F202017151056E7251066E6E
:102A70007351076E7451086E0001FE513CE1AFECDA
:102A80002DF0FAC171F2FBC172F2FCC173F2FDC10B
:102A900074F202017151096E72510A6E73510B6E1C
:102AA00074510C6E09EB75F20AEB76F20BEB77F2D0
:102AB0000CEB78F2D950050FE96EDACFEAFFEE5051
:102AC000755D716FEE507659726FEE507759736F76
:102AD000EE507859746FD880350E71550C0E7255C2
:102AE000000E7355000E7455C7E21050102A0308EB
:102AF00001E259D75ED7010E036E01D0036A03507D
:102B00004FE9E7CFD9FF1200D9CFE6FFE1CFD9FFD8
:102B100085E9000E41E9E7CFD9FF1200D9CFE6FFE2
:102B2000E1CFD9FF83E9200E015C02E3000E4AD019
:102B3000640EE66E0C0EE66ECADE42E90150F76ADC
:102B4000CA0FF66E5A0EF7220800F5500201716F97
:102B5000726B71510E0E721371C2E6FF72C2E6FF04
:102B6000B6DE42E90150F76AEA0FF66E5A0EF72216
:102B70000800F5500201716F726B7151100E7213E3
:102B800071C2E6FF72C2E6FFA2DE42E9200EE66EE7
:102B900099D841E9560EE66EE66A99DE42E9400EA2
:102BA000E66E90D841E90F0EE66E1C0EE66E8FDEE3
:102BB00042E9200EE66E86D841E9600EE66E82D8C4
:102BC00041E9010E41E9E7CFD9FF1200D9CFE6FF75
:102BD000E1CFD9FF82E90050070802E2000E10D0D1
:102BE0000050E8240201716F726BF00E7113340E05
:102BF000721371C2E6FF72C2E6FF69DE42E9010E9E
:102C000041E9E7CFD9FF1200D9CFE6FFE1CFD9FFE5
:102C100084E941E800EB96FE01EB97FE02EB98FE9B
:102C2000140EE66EE66A9CEC2BF042E98D828B84F2
:102C3000D6CF9AFE0E019B69046A020E045C0DE277
:102C40000450410DF3CFE9FFF4CFEAFF000EE9266F
:102C5000010EEA22EF6A042AF0D7046A04501F0822
:102C600013E3F76A0434FE0BF66EF7360A0EF62607
:102C70005B0EF7220900F5CFE6FF0900F5CFE6FF6E
:102C800026DE42E9042AEAD7200EE66E1BD841E987
:102C9000560EE66EE66A1BDE42E9400EE66E12D87C
:102CA00041E90F0EE66E1C0EE66E11DE42E9600E83
:102CB000E66E08D841E9F094F08A010E42E9E7CFC8
:102CC000D9FF1200D9CFE6FFE1CFD9FF82E900504A
:102CD00029E0200A1EE0600A14E0200A0AE0E00A67
:102CE00028E1960EE66EE66AF2DD42E90E01800EFC
:102CF00017D0760EE66EE66AEADD42E90E01600E56
:102D00000FD0560EE66EE66AE2DD42E90E01400E95
:102D100007D0360EE66EE66ADADD42E90E01200ED5
:102D20009C6F07D0160EE66EE66AD1DD42E90E0111
:102D30009C6B41E9E7CFD9FF1200D9CFE6FFE1CF85
:102D4000D9FF87E942E80050280802E2000E92D03D
:102D5000D950030FE96EDACFEAFFEF50040B02E01F
:102D6000000E01D0010E039CE8B0038CD950030F74
:102D7000E96EDACFEAFFEF50030B010801E1038EA1
:102D800003EB00F00E019A519A2B0001016F020E25
:102D9000086ED950030FE96EDACFEAFFEF50400B0F
:102DA0001DE0076A0E019651780BE842E842E842BE
:102DB000075C14E207500424E96E000E0520EA6E59
:102DC000EF50E66E0850082AEA6A000FE96E000E1E
:102DD000EA22E552E750EF6E072AE4D7D950030FF5
:102DE000E96EDACFEAFFEF50040BD950030FE96E1A
:102DF000EF50800B1DE0076A0E019651780BE842F8
:102E0000E842E842075C14E20750EA6A9725E96E57
:102E10009851EA22EF50E66E0850082AEA6A000F3D
:102E2000E96E000EEA22E552E750EF6E072AE4D77A
:102E3000076A0050075C14E207500124E96E000E97
:102E40000220EA6EEF50E66E0850082AEA6A000F88
:102E5000E96E000EEA22E552E750EF6E072AE9D745
:102E60000E019651020B01E0010EE66E08EBE6FF43
:102E700092DD42E943E9E7CFD9FF1200D9CFE6FF5F
:102E8000E1CFD9FF81E947E8016A050E015C6FE2F5
:102E9000AFEC2DF0FAC171F2FBC172F2FCC173F21A
:102EA000FDC174F202017151026E7251036E7351D1
:102EB000046E7451056E0150060DF3CFE9FFF4CF97
:102EC000EAFF9F0EE9260E0EEA22EF504EE0015077
:102ED000060DF3CFE9FFF4CFEAFF9F0EE9260E0EB1
:102EE000EA22020EE926000EEA220250EE5C0350AE
:102EF000EE580450EE580550EE5837E202EB75F2EA
:102F000003EB76F204EB77F205EB78F20150060D55
:102F1000F3CFE9FFF4CFEAFF9F0EE9260E0EEA2277
:102F2000020EE926000EEA22EE50755D716FEE503A
:102F30007659726FEE507759736FEE507859746FFF
:102F4000D880240E7155F40E7255000E7355000E84
:102F500074550BE20150060DF3CFE9FFF4CFEAFF01
:102F60009F0EE9260E0EEA22EF6A012A8ED7FF0E87
:102F70000E019B5D02E0000E75D0016A020E015C3D
:102F800070E20150410DF3CFE9FFF4CFEAFF000EEC
:102F9000E926010EEA22EF50010B61E00150410DDC
:102FA000F3CFE9FFF4CFEAFF000EE926010EEA2293
:102FB000EE52EFCF6AFE0150410DF3CFE9FFF4CF9F
:102FC000EAFF000EE926010EEA22400EE926000E75
:102FD000EA22EFCF6FFE020E066E0E016AAD07D039
:102FE0000E019651780BE842E842E84206260E01AF
:102FF0006AAF19D00150410DF3CFE9FFF4CFEAFFDA
:10300000000EE926010EEA22EE520650E9246B6F0B
:10301000000EEA206C6F0E019651780BE842E842F0
:10302000E842062602D06B6B6C6B06500E016F5F98
:103030000150410DF3CFE9FFF4CFEAFF000EE9267E
:10304000010EEA22EE520650E9246D6F000EEA20CE
:103050006E6F9ECE70FE01EB9BFE010E03D0012A27
:103060008DD7000E48E9E7CFD9FF1200020E0E01FE
:103070009B5D0CE29B51410DF3CFE9FFF4CFEAFFDA
:10308000000EE926010EEA22EF6A9B691200D9CFF1
:10309000E6FFE1CFD9FF82E941E80050FF0A09E0ED
:1030A000FF0A02E0000E26D0E66A0CDE41E9F09A43
:1030B00020D0200EE66E06DE41E9600EE66E02DEEE
:1030C00041E9F08A0A0EE66EE66A9CEC2BF042E9D2
:1030D000026A050E025C0DE20250060DF3CFE9FF15
:1030E000F4CFEAFF9F0EE9260E0EEA22EF6A022ACB
:1030F000F0D7010E42E9E7CFD9FF1200D8CFE4FFA5
:10310000E0CFE4FFE46EDACFE4FFE2CFDAFFE9CF0D
:10311000E4FFEACFE4FFFAC1E4FFFBC1E4FFFCC136
:10312000E4FFFDC1E4FFF6CFE4FFF7CFE4FFF5CF06
:10313000E4FFF3CFE4FFF4CFE4FFFACFE4FF02EEC5
:1031400071F0080EE80403E3EECFE4FFFBD7E6528C
:10315000D9CFE6FFE1CFD9FF81E94DE8F050040B6C
:1031600001E156D2F050200B01E152D2600E0E0167
:103170009C5D01E048D2280EE66E8CEC14F041E92B
:10318000E8407F0B0E019D6F9DCE9EFE8B9496ECCA
:103190002EF0026E8B84036A020E035C10E2035071
:1031A000410DF3CFE9FFF4CFEAFF000EE926010E4F
:1031B000EA22EF50010B01E102D0032AEDD7020E03
:1031C000025C03E1010E066E01D0066A3F0E025C4E
:1031D00007E2025005E0020E035C16E3065014E11C
:1031E0001A0EE66E8CEC14F041E90B6E0BA20BD0BC
:1031F0008B9496EC2EF08B841A0EE66E8CEC14F009
:1032000041E90B6EF3D702D2016A0250046E056ADF
:10321000010E045C000E055801E2F4D10406000E14
:10322000055A065017E08B9496EC2EF0E66E0001DE
:10323000D950070FF96FDACFFAF00150012A0001D7
:10324000EA6AF925E96EFA51EA22E552E750EF6E93
:103250008B841FD08B9496EC2EF0E66E0350410DBC
:10326000F3CFE9FFF4CFEAFF000EE926010EEA22D0
:10327000EE52E9CFF9F0EACFFAF00150012A00014D
:10328000EA6AF925E96EFA51EA22E552E750EF6E53
:103290008B840250015C01E2B4D1065030E0030E91
:1032A000071402080AE10E019951085C03E10001CC
:1032B000010EFE6F016AAAD105D0020E035C02E383
:1032C000016A8ED70350410DF3CFE9FFF4CFEAFF37
:1032D000000EE926010EEA22EE5207EBEFFF035043
:1032E000410DF3CFE9FFF4CFEAFF000EE926010E0E
:1032F000EA22EE52E92A000EEA2208EBEFFF035021
:10330000410DF3CFE9FFF4CFEAFF000EE926010EED
:10331000EA22400EE926000EEA2202EBEFFF0D68DA
:103320000350410DF3CFE9FFF4CFEAFF000EE92689
:10333000010EEA22EE52EF50400B40E00C6A0E0103
:103340009651780BE842E842E8420C5C37E20350C1
:10335000410DF3CFE9FFF4CFEAFF000EE926010E9D
:10336000EA22EE52E9CFFAF0EACFFBF0020E0C248B
:103370000001EA6AFA25E96EFB51EA22EFCFF9F083
:103380000C500E01EA6A9725E96E9851EA22EF5037
:103390000001F95D11E0016A0350410DF3CFE9FF2F
:1033A000F4CFEAFF000EE926010EEA22400EE926DC
:1033B000000EEA22EF6A14D70C2AC1D70350410D40
:1033C000F3CFE9FFF4CFEAFF000EE926010EEA226F
:1033D000EE52EF50200B56E00C6A020E0C5C1AE223
:1033E0000C50EA6A000FE96E000EEA22EF50E66E1A
:1033F0000001D950070FF96FDACFFAF00C50000135
:10340000EA6AF925E96EFA51EA22E552E750EF6ED1
:103410000C2AE3D70001060E006F0350410DF3CFD5
:10342000E9FFF4CFEAFF000EE926010EEA22EE5290
:10343000E92A000EEA22EFCF01F0F094E66A020ECC
:10344000E66ECBEC14F042E90C6A020E0C5C1AE258
:103450000001D950070FF96FDACFFAF00C500001D4
:10346000EA6AF925E96EFA51EA22EF50E66E0C504D
:10347000EA6A000FE96E000EEA22E552E750EF6EAD
:103480000C2AE3D70C6A050E0C5C5FE20C50060DAB
:10349000F3CFE9FFF4CFEAFF9F0EE9260E0EEA22F2
:1034A000EF5040E00C50060DF3CFE9FFF4CFEAFFF8
:1034B0009F0EE9260E0EEA22EE52EFCFF9F00350EE
:1034C000410DF3CFE9FFF4CFEAFF000EE926010E2C
:1034D000EA22EE52E92A000EEA22EF500001F95DDD
:1034E00021E1AFEC2DF0FAC1F9F0FBC1FAF0FCC11B
:1034F000FBF0FDC1FCF00C50060DF3CFE9FFF4CF5B
:10350000EAFF9F0EE9260E0EEA22020EE926000EC1
:10351000EA22F9C0EEFFFAC0EEFFFBC0EEFFFCC0EE
:10352000EEFF13D0FF0E0D5C0EE10C50060DF3CF35
:10353000E9FFF4CFEAFF9F0EE9260E0EEA22EF50D4
:1035400002E18CEB0DF00C2A9ED7050E0C5C58E3C3
:10355000050E0D5C4AE20D50060DF3CFE9FFF4CFE6
:10356000EAFF9F0EE9260E0EEA22010EEF6E0350CF
:10357000410DF3CFE9FFF4CFEAFF000EE926010E7B
:10358000EA22EE52E92A000EEA22EF50E66E0D50D2
:10359000060DF3CFE9FFF4CFEAFF9F0EE9260E0EEA
:1035A000EA22EE52E552E750EF6EAFEC2DF0FAC191
:1035B000F9F0FBC1FAF0FCC1FBF0FDC1FCF00D50CD
:1035C000060DF3CFE9FFF4CFEAFF9F0EE9260E0EBA
:1035D000EA22020EE926000EEA22F9C0EEFFFAC046
:1035E000EEFFFBC0EEFFFCC0EEFF0350410DF3CF3A
:1035F000E9FFF4CFEAFF000EE926010EEA22EF8090
:1036000005D006D603D00001010EFD6FF094000036
:10361000F2A40AD0F2AA08D0F2940101FE2B010113
:10362000FE5102E10101FF2B0AEC2DF04EE9E7CF3C
:10363000D9FFE55202EE78F0080EE80403E3E5CF87
:10364000EDFFFBD7E5CFFAFFE5CFF4FFE5CFF3FFC2
:10365000E5CFF5FFE5CFF7FFE5CFF6FFE5CFFDF1CD
:10366000E5CFFCF1E5CFFBF1E5CFFAF1E5CFEAFFDD
:10367000E5CFE9FFE5CFDAFFE550E5CFE0FFE5CFA5
:04368000D8FF10005F
:0C368400D9CFE6FFE1CFD9FF81E956E87D
:103690000001456B9EEC2CF081B03FD081A0FED79D
:1036A000010EE66EE66A1B0EE66E590EE66EDFEC64
:1036B0002CF044E981B01AD0010EE66E2FEC0AF02E
:1036C00041E90001010E456F010EE66EE66AFE0E4D
:1036D000E66E580EE66EDFEC2CF044E9D00EE66E96
:1036E000070EE66E9CEC2BF042E917D081B414D0A3
:1036F0000001456B010EE66EE66AE00EE66E580EBE
:10370000E66EDFEC2CF044E9D00EE66E070EE66EB6
:103710009CEC2BF042E901D0CDD70001455101E0EE
:103720005BD108EC2BF0010EE66EE66ABF0EE66E8A
:10373000580EE66EDFEC2CF044E9880EE66E130EB0
:10374000E66E9CEC2BF042E92BEC2BF089948996E9
:10375000A8EC1FF0E66A2FEC0AF041E93FC0E6FF53
:10376000D8EC0BF041E9000901E1EED3E66AFCEC8C
:103770000BF041E9010EE66EE66A9E0EE66E580E0B
:10378000E66EDFEC2CF044E9010E036E030401E069
:1037900023D100000000E66A2FEC0AF041E93EEC7C
:1037A00017F0000902E09BEC0FF0E66A080EE66EE7
:1037B000E66AE66A0A0EE66E25EC0CF045E9046E50
:1037C000045001E1FED0026A0450025C01E3F7D02C
:1037D00002500D0DF3CFE9FFF4CFEAFF0C0EE926FE
:1037E0000E0EEA22EFCF3FF002500D0DF3CFE9FFAE
:1037F000F4CFEAFF0C0EE9260E0EEA220A0EE926A5
:10380000000EEA22EFCF62F002500D0DF3CFE9FF78
:10381000F4CFEAFF0C0EE9260E0EEA220A0EE92684
:10382000000EEA22E92A000EEA22EFCF63F00250EE
:103830000D0DF3CFE9FFF4CFEAFF0C0EE9260E0ED3
:10384000EA220A0EE926000EEA22020EE926000EFE
:10385000EA22EFCF64F0E2EC2AF002500D0DF3CF34
:10386000E9FFF4CFEAFF0C0EE9260E0EEA220A0E5B
:10387000E926000EEA22020EE926000EEA22EF50A7
:10388000E66EE66A02500D0DF3CFE9FFF4CFEAFFD2
:103890000C0EE9260E0EEA220A0EE926000EEA2296
:1038A000E92A000EEA22EF50E66EE66A02500D0D9C
:1038B000F3CFE9FFF4CFEAFF0C0EE9260E0EEA2261
:1038C0000A0EE926000EEA22EF50E66EE66A8A0E3C
:1038D000E66E580EE66EE66A370EE66E020EE66E8D
:1038E000E3EC2DF04BE90404E66EE66A780EE66E32
:1038F000580EE66EE66A470EE66E020EE66EE3ECE2
:103900002DF047E9FAEC2AF081B049D081A0FED72A
:103910003EEC17F0000902E09BEC0FF0E66A02EBC8
:10392000E6FFF9EC0CF042E9056EFF0E055C13E1D1
:10393000010EE66EE66A690EE66E580EE66EDFEC84
:103940002CF044E9880EE66E130EE66E9CEC2BF02C
:1039500042E900D723D0010EE66EE66A4A0EE66E13
:10396000580EE66EDFEC2CF044E9B80EE66E0B0E56
:10397000E66E9CEC2BF042E96AC265F069C266F023
:1039800068C267F062C069F063C06AF064C06BF03F
:1039900000016C690001020E4A6F036A0BD081B40A
:1039A00008D081A4FED70250045CFF0F01E1026839
:1039B00001D0AAD7035001E102D0022A05D7036A39
:1039C0000AD0010EE66EE66A2D0EE66E580EE66E21
:1039D000DFEC2CF044E9DAD6E6684FEC07F041E979
:1039E000898404DB0001010E466FAFEC2DF0FAC1B3
:1039F000F1F0FBC1F2F0FCC1F3F0FDC1F4F09290E4
:103A0000AFEC2DF0FAC1F5F0FBC1F6F0FCC1F7F018
:103A1000FDC1F8F08150010B02E0000E01D0010E53
:103A20000201756FF10EE96E000EEA6EEE500001B4
:103A3000F55D0201716FEE500001F6590201726FDF
:103A4000EE500001F7590201736FEE500001F85972
:103A50000201746FD880680E02017155890E72558B
:103A6000090E7355000E745502E3000E01D0010ECD
:103A7000000146110201751101E1BFD10B6A81A05D
:103A8000FED78980020EE66EE66A9CEC2BF042E9D6
:103A90004DEC21F0C280010EE66EE66AE66AE66A47
:103AA0003DEC2BF044E9C282C2B2FED760C0E6FF13
:103AB00061C0E6FFB2EC26F0E66AE66A960EE66EB4
:103AC000440EE66E0CEC27F0E552E5CF74F2E5CF3C
:103AD00073F2E5CF72F2E7CF71F2020171510F6E0E
:103AE0007251106E7351116E7451126EC3500C6E80
:103AF000C4500D6E0CEBE6FF0DEBE6FFB2EC26F0CA
:103B00000FEBE6FF10EBE6FF11EBE6FF12EBE6FF33
:103B100058EC28F0E552E5CF74F2E5CF73F2E5CF2B
:103B200072F2E7CF71F2020171510F6E7251106E95
:103B30007351116E7451126EE66AE66A200EE66EDB
:103B4000410EE66EE66AE66AFA0EE66E430EE66E31
:103B50000FEBE6FF10EBE6FF11EBE6FF12EBE6FFE3
:103B600065EC25F00CEC27F0E552E5CF74F2E5CFDB
:103B700073F2E5CF72F2E7CF71F2020171510F6E6D
:103B80007251106E7351116E7451126E0FEBE6FF8D
:103B900010EBE6FF11EBE6FF12EBE6FFD3EC26F0AD
:103BA00041E9E750E66E0201D950060F716FDACF96
:103BB00072F20B500201EA6A7125E96E7251EA2233
:103BC000E552E750EF6EC290010EE66EE66AE66AD5
:103BD000E66A3DEC2BF044E90B2A050E0B5C01E292
:103BE00059D78990136A146A156A166A0B6A050E0A
:103BF0000B5C2FE20201D950060F756FDACF76F217
:103C00000B500201EA6A7525E96E7651EA22EFCF80
:103C1000E6FF95EC26F013EBE6FF14EBE6FF15EB61
:103C2000E6FF16EBE6FF67EC25F0E552E5CF74F210
:103C3000E5CF73F2E5CF72F2E7CF71F20201715175
:103C4000136E7251146E7351156E7451166E0B2AE9
:103C5000CED7E66AE66AA00EE66E400EE66E13EB7D
:103C6000E6FF14EBE6FF15EBE6FF16EBE6FF0CECC8
:103C700027F0E552E5CF74F2E5CF73F2E5CF72F2AB
:103C8000E7CF71F202017151136E7251146E7351CC
:103C9000156E7451166E13EBE6FF14EBE6FF15EB91
:103CA000E6FF16EBE6FFD3EC26F041E9E750000112
:103CB000406FE66AE66A200EE66E410EE66E40C090
:103CC000E6FF95EC26F013EBE6FF14EBE6FF15EBB1
:103CD000E6FF16EBE6FF65EC25F058EC28F0E55220
:103CE000E5CF74F2E5CF73F2E5CF72F2E7CF71F270
:103CF00002017151136E7251146E7351156E74512D
:103D0000166EE66AE66AA00EE66E400EE66E13EBED
:103D1000E6FF14EBE6FF15EBE6FF16EBE6FF69ECBA
:103D200027F0000904E1000140290001406F0E0165
:103D30000B0E4D6F0E014D514D2BEA6A000FE96ECF
:103D4000020EEA2240C0EFFF0E014D514D2BEA6AF0
:103D5000000FE96E020EEA226AC2EFFF0E014D511A
:103D60004D2BEA6A000FE96E020EEA2269C2EFFFEC
:103D70000E014D514D2BEA6A000FE96E020EEA2248
:103D800068C2EFFF40C068F000014C51EA6A8D0F35
:103D9000E96E000EEA2240C0EFFF00014C2B640EDA
:103DA00000014C5D02E100014C6B00014D516408C3
:103DB00002E300014D2BE66A9FEC0FF041E90001A0
:103DC00046510FE00001466B08EC2BF037D9D00EBE
:103DD000E66E070EE66E9CEC2BF042E92BEC2BF026
:103DE00001D02CD9AFEC2DF0FAC1F1F0FBC1F2F00B
:103DF000FCC1F3F0FDC1F4F0A6D093EC0FF0000984
:103E000001E193D00001455153E00001475150E1D9
:103E10000E0101AD4DD004CEE9FF05CEEAFFEF5013
:103E200002E0000E01D0010E0201716F010E0E01C1
:103E3000EA6A0425E96E0551EA22EF5002E0000E1D
:103E400001D0010E0201711533E00E0150510E0137
:103E5000021904E10E0151510E01031929E1010E6D
:103E60000E01EA6A0625E96E0751EA22EFCF62F0F9
:103E7000020E0E01EA6A0625E96E0751EA22EFCF2B
:103E800063F0030E0E01EA6A0625E96E0751EA2285
:103E9000EFCF64F062C069F063C06AF064C06BF099
:103EA00000016C690001020E4A6F0001010E476FAC
:103EB000010E0E01EA6A0625E96E0751EA22EF506B
:103EC0000001625D28E1020E0E01EA6A0625E96E34
:103ED0000751EA22EF500001635D1DE1030E0E0160
:103EE000EA6A0625E96E0751EA22EF500001645D97
:103EF00012E106CEE9FF07CEEAFFEFCF41F0016AFB
:103F00000E010851015C02E2012AFAD741C06CF0AF
:103F10009BEC0FF009D0016A0E010851015C02E22E
:103F2000012AFAD79BEC0FF00ED081B40CD081A4FB
:103F3000FED700014B2B00014A5100014B5D02E30B
:103F400000014B6B7BD85CD557E9E7CFD9FF120056
:103F5000D9CFE6FFE1CFD9FF81E943E896908D9074
:103F6000030EE66E82EC2EF041E9FA0EE66E82EC6C
:103F70002EF041E996EC2EF0016E96EC2EF0026EDA
:103F800096EC2EF0036E8D80015026E1040E025C4B
:103F900023E1A30E035C20E18D90030EE66E82EC1C
:103FA0002EF041E9FD0EE66E82EC2EF041E996EC32
:103FB0002EF002016A6F96EC2EF00201696F96EC0A
:103FC0002EF00201686FFE0E6B6F6C69A30E6D6FB1
:103FD000040E6E6F6F6B8D806AC24EF069C24FF037
:103FE00068C250F044E9E7CFD9FF1200D9CFE6FF0D
:103FF000E1CFD9FF81E944E83D0EC26EB10EC16E3A
:104000000F0148699F0E496F010EE66EE66AE66A87
:10401000E66A3DEC2BF044E99E9C9D9CC282C2B2B4
:10402000FED7C3CF60F0C4CF61F03C0EC26E0F016B
:104030001F0E496F45E9E7CFD9FF1200D9CFE6FF40
:10404000E1CFD9FF81E945E8E2EC2AF000014B51CC
:1040500004E1210EE66E580E03D0140EE66E580EE3
:10406000E66EE66A370EE66E020EE66EE3EC2DF0C3
:1040700045E9000148514B51040DF3CFE9FFF4CF5E
:10408000EAFF650EE926000EEA22020EE926000E7E
:10409000EA22EF50E66EE66A4B51040DF3CFE9FFDA
:1040A000F4CFEAFF650EE926000EEA22E92A000EA7
:1040B000EA22EF50E66EE66A4B51040DF3CFE9FFBA
:1040C000F4CFEAFF650EE926000EEA22EF50E66E15
:1040D000E66A070EE66E580EE66EE66A470EE66E74
:1040E000020EE66EE3EC2DF04BE900014851050E9F
:1040F000E66E580EE66EE66A4D0EE66E020EE66E4F
:10410000E3EC2DF045E900014B51040DF3CFE9FF3D
:10411000F4CFEAFF650EE926000EEA22030EE92637
:10412000000EEA22EF500201716F726BFF0E7119DF
:104130000BE1725109E1010EE66E580EE66EE66A79
:104140004E0EE66E020E9DD000014B51040DF3CFD2
:10415000E9FFF4CFEAFF650EE926000EEA22030E1E
:10416000E926000EEA22EF50E66EE66AFD0EE66EE4
:10417000570EE66EE66A4E0EE66E020EE66EE3EC53
:104180002DF047E9FB0EE66E570EE66EE66A510E1D
:10419000E66E020EE66EE3EC2DF045E900014B51B0
:1041A000040DF3CFE9FFF4CFEAFF650EE926000E18
:1041B000EA22030EE926000EEA22EFCFE6FF95EC95
:1041C00026F0E552E5CF74F2E5CF73F2E5CF72F257
:1041D000E7CF71F202017151016E7251026E73519B
:1041E000036E7451046EE66AE66AE66A420EE66E93
:1041F000660EE66EE66EE60EE66E3F0EE66E01EBCE
:10420000E6FF02EBE6FF03EBE6FF04EBE6FF58EC0C
:1042100028F067EC25F0E552E5CF74F2E5CF73F2B4
:10422000E5CF72F2E7CF71F202017151016E725166
:10423000026E7351036E7451046E01EBE6FF02EBE4
:10424000E6FF03EBE6FF04EBE6FFD3EC26F041E9E3
:10425000E750056E0550E66EE66AF60EE66E570EFE
:10426000E66EE66A520EE66E020EE66EE3EC2DF0A6
:1042700047E9F40EE66E570EE66EE66A560EE66EF7
:10428000020EE66EE3EC2DF045E900014851FAEC30
:104290002AF046E9E7CFD9FF120092820F01FC0E07
:1042A000486F1F0E496F050EC26EB90EC16E9E9CFF
:0442B0009D9C1200BF
:0C42B40090DB86E90150010600090CE0D7
:1042C00002EBE6FF03EBE6FF00EBE6FF69DBF4E160
:1042D000721DF2E1010E01D0000E41E9E5CFDAFFD7
:1042E000E7CFD9FF120077DB89E97BE80A6A0B6A1E
:1042F00002EBF6FF03EBF7FF04EBF8FF0800F550C5
:10430000096E095001E12DD3250E095C01E01BD394
:104310000C6A0D6A0E6A0F6A106A2DDB2D0E095C9D
:104320000CE02B0E095C09E0200E095C06E0230E70
:10433000095C03E0300E095C15E10950300A10E019
:10434000130A0CE0030A08E00B0A04E0060AE5E1A0
:104350000C80E3D70C82E1D70C84DFD70C86DDD745
:104360000C88DBD72A0E095C13E1A5DB0DE30C807A
:104370001CEB71F21DEB72F20201716D721F000EE7
:10438000722371510D6E02D09CEB0DF0F4DA07D060
:10439000126A3FDB02E06BDBFCD792EB0DF00CB056
:1043A0000C982E0E095C15E1E6DA2A0E095C08E18C
:1043B00082DB04E29CEB0EF0010E0F6EDCDA09D01A
:1043C000126A27DB02E053DBFCD792EB0EF0010E02
:1043D0000F6E680E095C07E1CEDA680E095C1DE11C
:1043E000030E106E19D0740E095C16E07A0E095C8B
:1043F00013E0480E095C06E0540E095C03E05A0E17
:10440000095C02E1020E07D06C0E095C03E06A0E43
:10441000095C03E1010E106EAEDA09506E0A01E18B
:104420006ED21E0A01E128D1200A01E125D13F0AFE
:1044300001E1FDD01A0A01E1FAD00D0A01E1F7D03D
:10444000200A01E1F4D03A0A01E1F1D0200A01E1A9
:10445000EED0260A01E1EAD00D0A01E1E7D01A0AFE
:1044600001E19ED0200A3BE0300A1AE0460A0EE045
:10447000250A01E072D2D950020FE96E000EDA204F
:10448000EA6E010EEE5E000EEE5AEE5A0FDB250EBE
:10449000E66E86DA03E1721D01E159D20A2A5BD287
:1044A000116A0D50010803E20D04116EF5DA115086
:1044B00007E0010E0C1404E16DDA01E048D2116A44
:1044C000D3DAEF50096ECBDA03E1721D01E13FD27E
:1044D0000A2A000E0B225EDA01E13FD238D2020E28
:1044E000105C08E1030E4EDAEE50176EEE50186EB7
:1044F000EF5007D0E7DA736B7151176E7251186E77
:104500007351196E17EBE6FF18EBE6FF19EBE6FFA8
:104510002AEC2EF043E9FAC171F2FBC172F2FCC140
:1045200073F2020171511C6E72511D6E0F5006E044
:104530001C500E5C03E20E501C6E1D6A1C500D5C7C
:1045400002E29CEB0DF050DA05E00D500E5C02E249
:104550008EEB0DF00CB004D01DDA01E0F8D1116A39
:10456000126A17EBF6FF18EBF7FF19EBF8FF0800DC
:10457000F550096E095010E00D50125C0DE26FDA33
:1045800003E1721D01E1E3D10A2A000E0B22122A77
:10459000D950170F55DAEBD7FDD901E1DED1D7D1CC
:1045A00063DAEE501A6EED501B6E1AEBE6FF1BEB52
:1045B000E6FF1CEC2EF042E9F3501C6EF4501D6E29
:1045C0000F5006E01C500E5C03E20E501C6E1D6A7C
:1045D0001C500D5C02E29CEB0DF006DA05E00D507C
:1045E0000E5C02E28EEB0DF00CB004D0D3D901E0EA
:1045F000AED1116A126A1AEBE9FF1BEBEAFFEF502A
:10460000096E09500FE00D50125C0CE228DA03E14C
:10461000721D01E19CD10A2A000E0B22122A1A2ACD
:104620001B22E9D7B7D901E198D191D10C8E1004A2
:104630000AE1040EA7D9EE50136EEE50146EEE5040
:10464000156EEF5032D0030E105C16E10CAE0CD09C
:104650000BDAEFCF71F20201726B736B746B71AF97
:1046600023D0726973691FD0FFD9EFCF71F20201B5
:104670007151136E146A20D0020E105C0CE10CAE66
:1046800006D0030E7FD9B6D973AF0ED00CD0030E6F
:1046900079D9B0D909D00CAE0AD014DA736B746B27
:1046A00072AF02D073697469BCD9166E07D00ADA8A
:1046B0007151136E7251146E156A166A0F5002E131
:1046C000010E0E6E1E6A1F6AD950400FE66E000E74
:1046D000DA20E66EE552E550436EE750426E416ADD
:1046E000116A0A0E106E0950780A12E0200A10E0D2
:1046F000280A0CE0200A0AE03F0A06E00D0A02E060
:10470000200A08E1020E05D0080E03D0080E092683
:10471000100E106E0CBE02D00C920C94800E0C1475
:1047200017E0163415E3E668E668E668E66842D9FD
:1047300007EC28F0E552E5CF74F2E5CF73F2E5CF50
:1047400072F2E7CF71F202016CD9166E2D0E07D00E
:104750000CA202D02B0E03D00CA404D0200E206E8D
:104760001E2A01D0206A0E5005E1135014101510B6
:10477000161061E002011C0E716F5E0E726F000E6A
:10478000736F83D9DEEC28F0E552E5CF77F2E5CF01
:1047900076F2E5CF75F2E7CF74F20201715174251C
:1047A000F36E72517521F46E73517621F86EF4CF69
:1047B000F7FFF3CFF6FF0800F550126E580E095CB4
:1047C00005E1610E125C02E3200E125E5ED9DBECA5
:1047D00028F0E552E550166EE550156EE550146E62
:1047E000E750136E42EBE9FF43EBEAFF4206000E8F
:1047F000435A12EBEFFF1E2A135014101510161017
:10480000B9E10CA619D06F0E095C06E10E501E5CD2
:1048100013E31E280E6E10D0780E095C09E0580EC6
:10482000095C06E0620E095C03E0420E095C04E1EB
:10483000020E1F6E01D01E6A100E0C1407E00D5000
:104840000E5C04E20F5002E18DEB0EF00E501E5C88
:1048500003E21E500E5E01D00E6A0E501E241F246D
:10486000D8800D5407E20E500D5CD8801E54D880BD
:104870001F54116E010E0C1406E1115004E08AD889
:1048800066E10AD9116A205007E010D920EBE6FF53
:1048900087D802E1721D5BE01F500BE007D9300E94
:1048A000E66E7ED802E1721D52E0D9D802E1721D97
:1048B0004EE00E501F5C02E21F500E5E300EE66EA0
:1048C0000EEBE6FFDCD843E1422A000E432242EB26
:1048D000E9FF43EBEAFFEF50126E125008E0E6D812
:1048E00012EBE6FF5DD8F0E1721DEEE130D052D858
:1048F0002EE10E501E2411241F240A262CD0105005
:10490000030A1CE0010A14E0030A07E0ADD8C9D885
:104910000AEBEEFF0BEBEDFF20D08BD8746B72AF80
:1049200002D073697469A0D84ED874C2EEFF15D056
:1049300080D872BF736998D846D80FD095D8B1D8AF
:104940000AEBEFFF0AD08BD805E1721D03E1F36893
:10495000F4680BD00A2A000E0B22D950020F70D82F
:10496000CDD40AEBF3FF0BEBF4FF7CE9E5CFDAFFE4
:10497000E7CFD9FF1200D950020F62D80800F550D6
:10498000096E1200005E000E015A00EBE9FF01EB18
:10499000EAFF1200200EE66E11EBE6FF3FEF25F076
:1049A0004FEC2EF043E9F3CF71F2F4CF72F2020133
:1049B000F31C120013EBE6FF14EBE6FF15EBE6FF2A
:1049C00016EBE6FF12006DD871C2EEFF72C2EEFF69
:1049D00073C2EEFF1200D9CFE6FFDACFE6FFE1CFD8
:1049E000D9FFE2CFDAFF12001C500D5C116E54D8D3
:1049F0000F501200EECF71F2EECF72F2EFCF73F2E2
:104A00000201746B1200EECF71F2EFCF72F202016D
:104A100012000950E66EE66AD1EC2EF042E9F3503E
:104A200012007151136E7251146E7351156E7451E0
:104A300012000AEB71F20BEB72F20201736B1200BF
:104A4000E96E000EDA20EA6EEF2AEECFF6FF000ED6
:104A5000EF22EECFF7FFEF22EECFF8FF120026D8BD
:104A600009EBE6FFD0EF24F0020EC2EF24F00A0EAD
:104A70001202F3500924D00F126EBBEF24F016D8A7
:104A80005AEC21F044E90009120010EBE6FFE66A57
:104A9000E66AE66ADAEF24F011500A26000E0B22CD
:104AA0001200EE50EFCFEAFFE96E120005EBE6FFD1
:104AB00006EBE6FF1200D8DFEE501C6EED501D6EC7
:0A4AC0001D341200D1DF03EF25F0D2
:064ACA00D88801D0D89845
:104AD0004AE8D9CFE6FFDACFE6FFE1CFD9FFE2CF50
:104AE000DAFF94E9D8B8037E086A67EC26F07FEC19
:104AF00026F008B64BEF26F008A20AD008AA03D089
:104B000008BE4BEF26F008A457EF26F054EF26F02E
:104B100008AA05D008AC57EF26F054EF26F008A0FD
:104B20000AD008A808D008BE04D008A402D060EFBC
:104B300026F064EF26F0096A0E6A0350075C106ED7
:104B400010E384EB0AF085EB0BF086EB0CF087EBBF
:104B50000FF080EB04F081EB05F082EB06F0083AF1
:104B600009D080EB0AF081EB0BF082EB0CF083EBC9
:104B70000FF0106C089E08BC088E8FEB0DF008B08B
:104B800036EF26F01A0E106036EF26F00D6A076A2F
:104B900008A408D0046C051E061E071EE86A05223C
:104BA0000622072208AC08D00A6C0B1E0C1E0D1E34
:104BB000E86A0B220C220D22116A105207E007341A
:104BC0000632053204321132102EF9D704500A266B
:104BD00005500B2206500C2207500D2291EB09F0D4
:104BE000089E0DAE0BD0096C0A1E0B1E0C1E0D1E6E
:104BF000E86A0A220B220C220D22088E0DA006D094
:104C0000D8800C320B320A3209320F2A8FEB0DF0AA
:104C10000AEF26F00C500B100A10091055E00EBEDA
:104C20004DD00CBE0CD00D500E1048E0D890093677
:104C30000A360B360C360D06D8A00E06F2D70E50EB
:104C400031E10D282FE009AE11D07F0E091402E1E9
:104C50000AA00CD00A2AE86A0B220C2207E3D880AB
:104C60000C320B320A320D2A0D281CE00D5026E0C2
:104C70008AEB00F08BEB01F00C34026E0D30036E0A
:104C80000232039E08BE038EE552E5CFDAFFE7CF7E
:104C9000D9FF4EE912007F0E036EFF0E026E016E09
:104CA000006EF2D77F0E08BEFF0E036E02D07F0E9D
:104CB000036E800E026E016A006AE6D708AE04D069
:104CC000800E036E026AF7D7036A026AF4D70636CB
:104CD000073602E30884087E06E10880076A066A50
:104CE000056A046A1200072803E0D8800632120021
:104CF000D890063202E108821200088612000236BD
:104D0000033602E3088C087E06E10888036A026A1B
:104D1000016A006A1200032803E0D8800232120000
:104D2000D8900232EAE1088A1200D89801D0D888D7
:104D300051E8D9CFE6FFDACFE6FFE1CFD9FFE2CFE6
:104D4000DAFF94E9089E04E700AE02D0006C088EFA
:104D500080EB0CF00B6A0A6A096A860E0D6E0E6A09
:104D60000AEF26F0D89801D0D88850E8D9CFE6FFCE
:104D7000DACFE6FFE1CFD9FFE2CFDAFF94E9089E70
:104D800007E701AE05D0006C011EE86A0122088E1B
:104D900081EB0CF080EB0BF00A6A096A8E0E0D6E47
:104DA0000E6A0AEF26F045E8D9CFE6FFDACFE6FF34
:104DB000E1CFD9FFE2CFDAFF8BE9086A7FEC26F07A
:104DC00008B6E7EF26F008AA0AD008BC03D07F0E89
:104DD000006E1BD0800E006E18D0006A16D008B886
:104DE000FCD7870E0360F1D77E0E0364F6D7860EDC
:104DF000035C04E0D8900232032AF9D708AC03D050
:104E0000026C02AEEAD782EB00F0E552E5CFDAFFA2
:104E1000E7CFD9FF48E912004AE8D9CFE6FFDACF59
:104E2000E6FFE1CFD9FFE2CFDAFF94E9086A67EC49
:104E300026F07FEC26F008B64BEF26F008A205D04E
:104E400008BA4BEF26F052EF26F008BA5EEF26F0D4
:104E500008A005D008B84BEF26F05EEF26F008B8A2
:104E600052EF26F00E6A7F0E07240D6EE86A0E22BE
:104E700003500D5EE86A0E5A1A0E0F6E076A096A31
:104E80000A6A0B6A0C6A0050045E0150055A02500F
:104E9000065A000E075A09E7005004260150052261
:104EA00002500622000E072201D0098AD89004364B
:104EB000053606360736D89009360A360B360C36D4
:104EC0000F2EE1D7065005100410D8A4098A0AEF66
:104ED00026F072EC27F0E8B6000CE8B0000CE8A46D
:104EE000000C010C47E8D9CFE6FFDACFE6FFE1CFAF
:104EF000D9FFE2CFDAFF91E9086A67EC26F07FEC90
:104F000026F008B64ED008AE08D008A004D008A8F5
:104F100002D0088046D0089044D00350075C0BE1D3
:104F20000250065C08E10150055C05E10050045C9C
:104F300002E1088036D0D8A002D0088E10D00750E9
:104F40000318071A031A06500218061A021A055007
:104F50000118051A011A04500018041A001A035007
:104F6000075C10E0FF0F09E0089008B403D008AE1A
:104F7000088417D008AE089414D0032AD8900232BF
:104F8000013200320050045E0150055A0250065AA8
:104F900006BEEAD7D890043605360636072EF8D76F
:104FA000C8D70850E552E5CFDAFFE7CFD9FF4FE980
:104FB000120042E8D9CFE6FFDACFE6FFE1CFD9FF12
:104FC000E2CFDAFF86E9036A1200F3DF038003D041
:104FD000F0DF01D00382026A080EE76ED890013636
:104FE00002360050025C02E3026E012AE72EF7D778
:104FF00003B2120003B081EB00F003A082EB00F0DB
:10500000E552E5CFDAFFE7CFD9FF43E9120044E8E4
:10501000D9CFE6FFDACFE6FFE1CFD9FFE2CFDAFF63
:105020008EE980EB08F081EB09F082EB0AF083EB6C
:105030000BF004500802F350006EF450016E04505F
:105040000902F3500126000EF420026E04500A02F9
:10505000F3500226000EF420036E04500B02F350AE
:10506000032605500802F3500126F4500222000ED8
:10507000032205500902F3500226F4500322055082
:105080000A02F350032606500802F3500226F45099
:10509000032206500902F350032607500802F3507A
:1050A0000326E552E5CFDAFFE7CFD9FF48E9000C48
:1050B0004AE8D9CFE6FFDACFE6FFE1CFD9FFE2CF6A
:1050C000DAFF94E9086A67EC26F07FEC26F008B670
:1050D0004BEF26F008A205D008B84BEF26F052EFB0
:1050E00026F008AA05D008B04BEF26F052EF26F0C4
:1050F00008B002D008A802D05EEF26F00E6A035076
:1051000007240D6EE86A0E227E0E0D5EE86A0E5AC6
:10511000096A0A6A0B6A0C6A02500602F4500C6EA5
:10512000F3500B6E01500602F3500A26F4500B2286
:10513000000E0C2202500502F3500A26F4500B22F6
:10514000000E0C2200500602F3500926F4500A22E9
:10515000000E0B220C2201500502F3500926F450D8
:105160000A22000E0B220C2202500402F3500926E0
:10517000F4500A22000E0B220C2200500502F450BB
:105180000926000E0A220B220C2201500402F450C0
:105190000926000E0A220B220C220AEF26F045E80F
:1051A000D9CFE6FFDACFE6FFE1CFD9FFE2CFDAFFD2
:1051B0008FE90C6A1200F3DF0C8003D0F0DF01D01E
:1051C0000C820B6A0A6A096A086A200EE76ED89098
:1051D0000436053606360736083609360A360B36E3
:1051E0000050085C0150095802500A5803500B58EF
:1051F00009E30050085E0150095A02500A5A035050
:105200000B5A042AE72EE4D70CB212000CB00AD0D5
:1052100088EB00F089EB01F08AEB02F08BEB03F0F6
:105220000CA008D084EB00F085EB01F086EB02F0D7
:1052300087EB03F0E552E5CFDAFFE7CFD9FF49E985
:0252400012005A
:0E524200D9CFE6FFE1CFD9FF87E941E8F2506E
:10525000800B01E0010E076EF29E8C9A030EE66E43
:1052600082EC2EF041E9020103EB71F2726B71C224
:10527000E6FF82EC2EF041E902EBE6FF82EC2EF035
:1052800041E90050011011E096EC2EF0E66E04EBBF
:10529000E9FF05EBEAFF042A000E0522E552E7507C
:1052A000EF6E0006000E015AECD78C8A0750E8B06A
:1052B000F28EE8A0F29E42E9E7CFD9FF1200D9CFE3
:1052C000E6FFE1CFD9FF87E942E8076AF250800B99
:1052D00001E0010E086EF29E8C9A050EE66E82ECDD
:1052E0002EF041E996EC2EF0076E8C8A28EC00F047
:1052F00007B0F2D78C9A060EE66E82EC2EF041E9EA
:105300008C8A28EC00F08C9A020EE66E82EC2EF06D
:1053100041E9020103EB71F2726B71C2E6FF82ECAC
:105320002EF041E902EBE6FF82EC2EF041E9076A3C
:105330000050011020E004EBE9FF05EBEAFF042A2E
:10534000000E0522EFCFE6FF82EC2EF041E90006C9
:10535000000E015A072A075002010224716F000E45
:105360000320726F71513F0BE3E18C8A07500226D4
:10537000000E0322B1D78C8A0850E8B0F28EE8A064
:10538000F29E43E9E7CFD9FF1200D9CFE6FFE1CF84
:10539000D9FF85E9660EE96E020EEA6E0201EE5053
:1053A0000224716FED500320726F736B7335000E22
:1053B000731907E6D880000E7155800E7255000EE5
:1053C000735502E2000E0ED000EBE9FF01EBEAFF9D
:1053D00066C2EEFF67C2EDFF02010250662703506E
:1053E0006723010E41E9E7CFD9FF1200D9CFE6FFCD
:1053F000E1CFD9FF81E941E8010E016E0201666B40
:10540000676B580EE66E020EE66E020EE66EE66AF8
:10541000BCDF44E901165A0EE66E020EE66E010E7E
:10542000E66EE66AB2DF44E901165C0EE66E020E35
:10543000E66E010EE66EE66AA8DF44E901165E0E2E
:10544000E66E020EE66E780EE66EE66A9EDF44E9D0
:105450000116600EE66E020EE66E040EE66EE66A59
:1054600094DF44E90116620EE66E020EE66E020E4D
:10547000E66EE66A8ADF44E90116640EE66E020E05
:10548000E66E010EE66EE66A80DF44E90116015021
:0854900042E9E7CFD9FF120049
:08549800020179517B5D03E381
:1054A0007A517C5D44E271B0FED7020179517B5D97
:1054B00017E27B51EA6A330FE96E020EEA22EF50DF
:1054C000756E7B2B79517B5D32E17A5130E17184CD
:1054D0002C0EE66E010EE66E9CEC2BF042E91200FB
:1054E0007A517C5D24E27C51EA6A370FE96E020E44
:1054F000EA22EF5008E17C51EA6A370FE96E020EAA
:10550000EA22200EEF6E7C51EA6A370FE96E020E36
:10551000EA22EF50756E7C2B7A517C5D08E1718434
:105520002C0EE66E010EE66E9CEC2BF042E91200AA
:10553000D9CFE6FFE1CFD9FF83E971B4FED70201ED
:105540007B6B7C6B01EB79F200EB7AF2718041E9C5
:10555000E7CFD9FF1200530E9512A49E736AF00E86
:10556000746E280E726E716AA38EF28EF28C2C0EFF
:10557000E66E010EE66E9CEC2BF042E902017C0E19
:10558000336F810E346F356BE66A030EE66ED0DF43
:1055900042E9C80EE66EE66A9CEC2BF042E9020195
:1055A0007C0E336F510E346F080E356FE66A030EB2
:1055B000E66EBEDF42E9C80EE66EE66A9CEC2BF0B2
:1055C00042E91200D9CFE6FFE1CFD9FF81E941E8F6
:1055D000016A200E015C0AE20150EA6A370FE96EA7
:1055E000020EEA22200EEF6E012AF3D742E9E7CF3E
:1055F000D9FF120002017C0E336F320E346F356B0F
:10560000200E366FE66E040EE66E92DF42E912005F
:1056100002017C0E336F440E346F356BE66A030E65
:10562000E66E86DF42E9C80EE66EE66A9CEC2BF079
:1056300042E902017C0E336F420E346F356BE66A2D
:10564000030EE66E75DF42E9C80EE66EE66A9CEC74
:105650002BF042E9120002017C0E336F440E346FCE
:10566000356BE66A030EE66E63DF42E9C80EE66E4E
:0A567000E66A9CEC2BF042E9120000
:06567A00D9CFE6FFE1CFED
:10568000D9FF85E944E854D000EBE6FF01EBE6FFE3
:1056900002EBE6FF03EBE6FF140EE66EE66AE66A4F
:1056A000E66A07EC28F0E552E5CF74F2E5CF73F235
:1056B000E5CF72F2E7CF71F202017151056E7251BE
:1056C000066E7351076E7451086ED950050FE96E5E
:1056D000DACFEAFFAF0EEE5E000EEE5A000EEE5A83
:1056E000000EEE5A083408E205502D08000E06544C
:1056F000000E0754000E085401E31AD0083408E2E3
:1057000005500008000E0654000E0754000E085401
:105710000FE20000D950050FE96EDACFEAFF2A0E3A
:10572000EE5E000EEE5A000EEE5A000EEE5AE6D76E
:1057300045E9E7CFD9FF1200D9CFE6FFE1CFD9FF86
:1057400083E944E800EBE6FF01EBE6FFE66AE66A80
:10575000D00EE66E070EE66EE66AE66A07EC28F003
:10576000E552E5CF74F2E5CF73F2E5CF72F2E7CF01
:1057700071F202017151036E7251046E7351056E24
:105780007451066ED950030FE96EDACFEAFFAA0E04
:10579000EE5E000EEE5A000EEE5A000EEE5A063481
:1057A00008E20350C308000E0454000E0554000E16
:1057B000065402E31BD01AD0063408E20350000856
:1057C000000E0454000E0554000E06540FE20000B3
:1057D000D950030FE96EDACFEAFF270EEE5E000E16
:1057E000EE5A000EEE5A000EEE5AE6D745E9E7CF24
:0457F000D9FF1200CB
:0C57F40046002F2025640043002025649F
:1058000000202D20003A00253032782530327825CE
:105810003032780052656D6F74652054656D703A52
:10582000004C6F63616C2054656D703A0030204EFF
:105830006574776F726B7320466F756E6452423277
:105840003A2052652D5363616E004A6F696E65643C
:1058500020204E6574776F726B2053756363657398
:105860007366756C6C792E2E004A6F696E204661E6
:10587000696C6564212121005242323A41646469B5
:10588000746E6C204E572D2564005242303A2843E6
:10589000292530327825303278253032780052464A
:1058A00044204465766963652020202020205363CE
:1058B000616E20696E2070726F6772657373003855
:1058C0002D42697420576972656C6573732020449A
:1058D0006576656C6F706D656E74204B6974200021
:1058E0004E6574776F726B20467265657A657220BB
:1058F0004D6F64652044697361626C6564004E6538
:1059000074776F726B20467265657A6572204D6F91
:10591000646520456E61626C6564004E6574776FE6
:10592000726B20467265657A65723F5965735B528A
:0C59300042305D2F4E6F5B5242325D0032
:04593C007B0ED36E9D
:10594000C090550EA76EAA0EA76E0E01FF91060E0F
:10595000E96F130EF66F050ED76F550EA76EAA0EE0
:10596000A76EFF810F0148693F0E496FF19E926853
:105970009368946895689668896A8A6A8C6A8D6A61
:1059800095948C84949C8B9C93809384929492960F
:10599000958E93869586938A949E9398C00EC76E33
:1059A000210EC66E9692949496928B848D82F18687
:1059B00096908D80959A8C8AF28EABEF2AF0D9CF93
:1059C000E6FFE1CFD9FF85E941E8E2EC2AF001509A
:1059D000E66EE66A02EBE6FF03EBE6FFE66A370EE9
:1059E000E66E020EE66EE3EC2DF047E9FAEC2AF0E3
:1059F00000500CE0056A080E055C08E2FA0EE66E3F
:105A0000E66A9CEC2BF042E9052AF5D742E9E7CF9C
:105A1000D9FF1200A4AE09D0A49E4CEC2AF0050ECA
:0C5A2000E66EE66A9CEC2BF042E91200F6
:045A2C001E0EF66EE6
:105A3000000EF76E000EF86E00010900F550566F6B
:105A40000900F550576F03E1566701D03DD00900BA
:105A5000F550516F0900F550526F0900F550536F22
:105A600009000900F550E96E0900F550EA6E0900D9
:105A700009000900F550546F0900F550556F0900F1
:105A80000900F6CF58F0F7CF59F0F8CF5AF051C0CF
:105A9000F6FF52C0F7FF53C0F8FF0001545302E174
:105AA000555307E00900F550EE6E5407F8E255072C
:105AB000F9D758C0F6FF59C0F7FF5AC0F8FF0001E8
:0A5AC0005607000E575BBFD7120017
:065ACA004F4F4F4F4F4FFC
:105AD0004F4F4F4F4F4F4F4F4F4F4F4F4F4F4F4FD6
:105AE00050505050505050505050222426282A2CAC
:105AF0002E30323437393B3D3F414345474A4C4EC7
:105B00000507090B0D0F111416183600840209043D
:105B100009060C08C10A7D0C640E14100012001452
:105B200000163818C81A0D1C001E7220382238249E
:105B300007260028002A692C812E7E309632F83400
:0A5B400088364038003AE83C003E89
:065B4A00040ED56EF1848B
:105B5000F294F28AD58E0101FE6BFF6B1200D9CF51
:105B6000E6FFE1CFD9FF81E946E8036A046AF29AC9
:105B7000F250040B01E0010E056ED650016ED750B5
:105B8000026EF250040B01E0010E066E0650055C39
:105B9000EFE1055006E0F2940101FE2BFE5101E118
:105BA000FF2B0101FE510326FF510426F28A01EB6F
:105BB000FAF102EBFBF103EBFCF104EBFDF147E939
:065BC000E7CFD9FF12003F
:0A5BC600D9CFE6FFDACFE6FFE1CF0A
:105BD000D9FFE2CFDAFF87E944E8D9CFE6FFDACF91
:105BE000E6FFE552E5500A6EE750096E09EBE6FF65
:105BF0000AEBE6FF00EBE6FF01EBE6FF02EBE6FF58
:105C0000D950030FE66E000EDA20E66E73EC21F039
:105C100047E9F350076EF450086E03EBE9FF04EB1D
:105C2000EAFFEF6A07EBF3FF08EBF4FF45E9E5CF86
:085C3000DAFFE7CFD9FF1200F3
:085C3800FE0EE3CFE9FFFF0EB1
:105C4000E3CFEAFFF36AF46AEE5203E0F34AF42A80
:105C5000FBD71200FF0EE3CFF8FFE552FF0EE3CFB4
:105C6000F7FFE552FF0EE3CFF6FFE552E66AE66A7C
:105C7000E66A0900F55209E0FD0EE32A05E1FE0E91
:105C8000E32A02E1FF0EE32AF4D7FD0EE3CFFAF197
:0E5C9000FE0EE3CFFBF1FF0EE3CFFCF112009E
:025C9E00D9CF5C
:105CA000E6FFDACFE6FFE1CFD9FFE2CFDAFF85E901
:105CB000013415E200EBE9FF01EBEAFFEECFF3FF61
:105CC000EDCFF4FFEE2A000EEF22F3CFE9FFF4CF81
:105CD000EAFF02EBEFFFEF50F36EF46A0DD0FE0E19
:105CE000005C05E102EBE6FFF3EC2EF004D002EBE2
:105CF000E6FF03EC00F041E941E9E5CFDAFFE7CF49
:045D0000D9FF1200B5
:0C5D0400D9CFE6FFE1CFD9FF82E941E8EA
:105D10009E96C950026EC69E00EBC9FFC6BEFBD759
:105D20009EA6FED742E9E7CFD9FF1200E66AEADF76
:105D300041E9C9501200D9CFE6FFE1CFD9FF82E98E
:105D400041E8A49E729E00EB75FF72BEFBD7A4AE25
:105D5000FED7A49E42E9E7CFD9FF1200E66AEBDF47
:065D600041E9755012003C
:0A5D660078000000B40000002C01DA
:105D700000001C020000FC030000BC0700003C0FF8
:105D800000003C1E00003C3C00003C7800003CF061
:105D900000003CE001003CC003003C8007003C00E8
:025DA0000F00F2
:0E5DA200F36AF46AFF0EE124E96EFF0EE220C0
:105DB000EA6EED6607D02F0EEF6404D03A0EEF6066
:065DC00001D0F32A1200DD
:0A5DC600C00EF36E00EE00F00E0EAA
:105DD00001D81200EA6002D0EE6AFCD7F350E96005
:065DE0001200EE6AFCD780
:0A5DE600FF0EE350ADBA04D0B06A1E
:105DF000AC8EAD8A949CADA2FED7AE6EF36EF46A03
:025E000012008E
:0E5E02001DEE00F02DEE00F0F86A16EC2DF00B
:0C5E100007EC00F042EC1BF0FBD7120086
:045E1C0030313233BC
:0D5E200034353637383961626364656600D9
:035E2D0001776694
:065E300055000004FF0014
:0A5E36000BFFFFFFFF00000000005B
:085E4000000100000000000059
:01FFF800EC1C
:01FFF900F611
:01FFFA00D82E
:01FFFB00FB0A
:00000001FF
