:020000040000fa
:080000000002040000000000f2
:020000040000fa
:10000800700300007003000070030000700300001c
:10001800700300007003000070030000700300000c
:1000280070030000700300007003000070030000fc
:1000380070030000700300007003000070030000ec
:1000480070030000700300007003000070030000dc
:1000580070030000700300007003000070030000cc
:1000680070030000700300007003000070030000bc
:1000780070030000700300007003000070030000ac
:10008800700300007003000070030000b8c3000094
:10009800700300007003000070030000700300008c
:1000a800700300007003000070030000700300007c
:1000b800700300007003000070030000700300006c
:1000c800700300007003000070030000700300005c
:1000d800700300007003000070030000700300004c
:1000e800700300007003000070030000700300003c
:1000f800700300007003000070030000700300002c
:10010800700300007003000070030000700300001b
:10011800700300007003000070030000700300000b
:1001280070030000700300007003000070030000fb
:1001380070030000700300007003000070030000eb
:1001480070030000700300007003000070030000db
:1001580070030000700300007003000070030000cb
:1001680070030000700300007003000070030000bb
:1001780070030000700300007003000070030000ab
:10018800700300007003000070030000700300009b
:10019800700300007003000070030000700300008b
:1001a800700300007003000070030000700300007b
:1001b800700300007003000070030000700300006b
:1001c800700300007003000070030000700300005b
:1001d800700300007003000070030000700300004b
:1001e800700300007003000070030000700300003b
:0801f800700300007003000019
:020000040000fa
:10020800700300007003000070030000700300001a
:10021800700300007003000070030000700300000a
:1002280070030000700300007003000070030000fa
:1002380070030000700300007003000070030000ea
:1002480070030000700300007003000070030000da
:1002580070030000700300007003000070030000ca
:1002680070030000700300007003000070030000ba
:1002780070030000700300007003000070030000aa
:10028800700300007003000070030000b8c3000092
:10029800700300007003000070030000700300008a
:1002a800700300007003000070030000700300007a
:1002b800700300007003000070030000700300006a
:1002c800700300007003000070030000700300005a
:1002d800700300007003000070030000700300004a
:1002e800700300007003000070030000700300003a
:1002f800700300007003000070030000700300002a
:100308007003000070030000700300007003000019
:100318007003000070030000700300007003000009
:1003280070030000700300007003000070030000f9
:1003380070030000700300007003000070030000e9
:1003480070030000700300007003000070030000d9
:1003580070030000700300007003000070030000c9
:1003680070030000700300007003000070030000b9
:1003780070030000700300007003000070030000a9
:100388007003000070030000700300007003000099
:100398007003000070030000700300007003000089
:1003a8007003000070030000700300007003000079
:1003b8007003000070030000700300007003000069
:1003c8007003000070030000700300007003000059
:1003d8007003000070030000700300007003000049
:1003e8007003000070030000700300007003000039
:0803f800700300007003000017
:020000040000fa
:10040000cfe821000eff27000e0188000000000049
:100410000c00070060fa2300110020000f00070005
:10042000000020000000e000020032000000020096
:10043000000000006ac40200000000000040da0072
:100440000000fe0060a423000000e0000200320073
:10045000002020009001880000000600a102880012
:10046000800078000000eb001a003700e2804000b6
:1004700054a0b4009101ba00e280400054a0b4003e
:100480009102ba00e280400054a0b4000002eb00e8
:10049000472bde00f507b200a6018800602ce100c2
:1004a00008003a000049eb000201e80002003900b0
:1004b0003420ec0002f0a0008301e900f9ff3e00c7
:1004c000040037006128e100010032000082eb00e7
:1004d000040007001101ba000200e000e3ff3a0047
:1004e0000000060004d0a300e20f49001c00390000
:1004f000810278003549ba000201e80002003900a3
:100500003420ec0002f0a0008301e9000f0032006b
:100510002549ba000201e800020039003420ec004d
:1005200002f0a0008301e900080032000400e000ae
:100530000600320015c9ba000201e80002003900c5
:100540003420ec0002f0a0008301e9008180e80083
:1005500054a0b4000300e000e2ff3a0000000600ef
:100560009102ba00055978008301e900f7ff3200d3
:10057000c82ade00055978008301e900f3ff320044
:100580000400e000f1ff320011d9ba00eeff37009d
:100590000e080400010000003a07040001000000fa
:1005a000280b040001000000663504000100000073
:1005b0000a35040001000000243704000100000097
:1005c0001429040001000000e028040001000000dc
:1005d000fc2b040001000000aa2b04000100000015
:1005e0009c2e0400010000002c38040001000000d3
:1005f000ee37040001000000ac0d04000100000013
:100600004a0d040001000000761204000100000001
:1006100084100400010000001ef20400000000002d
:10062000faf1040000000000e2f9040000000000fc
:100630002642040001000000f24104000100000015
:100640001a1d0400010000003e2f040001000000fc
:10065000da2e040001000000e03004000100000078
:10066000f420040001000000342304000100000015
:10067000d6200400010000008cfc040000000000f3
:10068000faf9040000000000a8ff040000000000c8
:10069000743d040001000000403d04000100000022
:1006a0001a3b040001000000c03a040001000000f1
:1006b00066440400010000001e4404000100000024
:1006c0005a44040001000000e82704000100000073
:1006d00048250400010000004a2604000100000033
:1006e0000040da000000fe000081eb002701370027
:1006f000889fbe008a9fbe008c1f7800d70007002d
:10070000de00330003866c006450e1002e003200ee
:100710006420e100330032006150e1002f0032001c
:100720006120e1003100320085855500eb07b00003
:1007300009002000080420000500370008044400d8
:1007400089844c000a0031000603430087834b0074
:100750000001530081815b00f8ff33000203be00fb
:100760000800a0000804440089844c00f6ff39000a
:10077000c639dd0083017300010032001300200040
:100780008904d1000884d3000998a3000500320031
:100790000800a7000300a0008904d1000884d3004a
:1007a0008b05e8008904d1000884d3000001eb0028
:1007b0000281d2006e00070001f0a1000cf0a7003a
:1007c00001f0a000b60037006420e100b80032005c
:1007d0000801be000200be00f7ff37006120e10003
:1007e000b30032006000b800f3ff370000002000c3
:1007f00001f82700f0ff3700839f68000100e00048
:1008000002003d0060001000e08018000300e000de
:1008100002003d0060011100e08119007b0107002a
:100820004f00e00002003b0060001000e080180074
:10083000000006000001be00730007000470a7005e
:1008400003f0a1006509b100160032000d0035006b
:100850006828e10006003500f0ff2f00f1ff2700b7
:100860000300e00013003b00010028000000050029
:1008700000004000818048008502e900fcff3a004a
:1008800008003700f88f420002003c008000eb00b7
:10089000000005008100d1000080d3008502e8003f
:1008a000fcff3a000300e00002003b006000100083
:1008b000e080180000000600881f7800010478001e
:1008c0000100e00005003d0060001000e08018001d
:1008d00002003b0001f02c00030037000400070079
:1008e00008f0a70001f0a0004f0478000000060007
:1008f000889fbe008a9fbe00010578000000e000ce
:10090000180032000004be006011b8006b0920001e
:100910000982cf00020039000882cf000441b000f4
:10092000694252000e00320008003b0082817100d3
:10093000610164008904d1000884d3008b05e800bc
:100940000442e800f9ff3a000500370008044400bb
:1009500089844c008b05e9000442e900fbff3a0062
:10096000030007004f05be004f04be000000060054
:1009700081002000618055000b003d000b0020002d
:1009800061fe2f000100e1001d0034008281710032
:10099000610164008904d1000884d3000000e800ec
:1009a000faff3a007100200061006400030070004b
:1009b000020060000900320061044400e0844c0041
:1009c0000988a500050032008b05e8006808e100f1
:1009d00002003a008904d1000884d300f20f2000fd
:1009e0000258e10005003d00c75ddd00f907b200d7
:1009f0008980750008007800000006000bf82700c9
:100a00008b00780000000500c70ade00f107b20085
:100a1000f50fb20008003200e1cf420002003200c0
:100a20000170a00024000500810f70000100320059
:100a30000408050044000500810f700002003a0020
:100a4000140005008502e9000000400081c0480054
:100a5000fcff3b000170a000240005000004be0064
:100a6000e9ff07000003be000405be000200be004f
:100a7000e5ff0700844f7500000006000200be007d
:100a80006450e100050036006420e10002003600f9
:100a90000968a30001003a000800be000160a00040
:100aa0004f0678004f05be004f04be000000060050
:100ab000f0ff2f00f1ff2700f9ff3700889fbe00ed
:100ac0008a9fbe008c1f7800e4ff0700ebff330015
:100ad00003866c006450e100240032006420e100d1
:100ae000270032006150e100220032006120e10065
:100af000210032008b854200eb07b1000134b800c1
:100b0000003ab8000804420089844a00013ab8005b
:100b10000030b8008880400009014a00040033001a
:100b20000000400081804800020149008b05e90077
:100b3000c909dd00830170000100320013002000ac
:100b4000c814de004814dd004709de001200b200c0
:100b5000c808de000884700085ff070001f0a100ce
:100b60000cf0a70001f0a000cdff37006120e100ec
:100b7000cfff32000801be000200be00f7ff3700c1
:100b80006150e100fcff3a00c9ff3700889fbe00ba
:100b90008a9fbe008c9fbe00820578000004be00c4
:100ba00099ff07000800be006420e100070039003b
:100bb00002003a00f1ff2700f0ff2f000160a000c3
:100bc0001202200002968800550037006120e100e3
:100bd00003003a000b00a70001f823005000370083
:100be00001f0a1000200210093642400fe00070030
:100bf0000800be0004003500b2fd2000930c240064
:100c0000fb0007000004be000005eb000b00a6007f
:100c10004f0dde0001f0a1000004be0032982f004d
:100c200023ea2300a5ff07000001eb0003f02300e7
:100c30000b00a70003f823008e000700fdfe07004d
:100c40000000a7000a00a2001bff07000b00e00045
:100c5000030032000200200003f02300840007009c
:100c600001f0a2000006be00020020009304240050
:100c700092ff07000801be007e000700809fbe00b3
:100c80000c00be0022a22a00d3a723008bff07007e
:100c90004f01be00770007000004be0001f0a10074
:100ca0000200200003982300cf0007000800be00c8
:100cb000190035000001be0080ff07000006be00dd
:100cc000b2c52900e36223007cff070022222b002b
:100cd000f3942b00670007000c01be0077ff0700ac
:100ce000e273280083c02300620007000c01be00ed
:100cf00072ff070042aa2a00a3e22b005d00070052
:100d00000c01be006dff07000801be006bff07006d
:100d10000801be00570007000a00a70001f0a2006a
:100d20004f06be004f05be004f04be000000060087
:100d30000001eb0095ff3700889fbe008a9fbe0030
:100d40008c1f78000004be002fff07000478a3006a
:100d500026003a006120e1002500320009f8a300d6
:100d600025003a006420e10021003200f507b100bf
:100d70000508a30002003200000040008180480006
:100d80006044b80003102000020020000000400072
:100d9000818048000805440089854c000a0541000f
:100da0008b8549000a0550008b85580003003300ed
:100db0000a00be0002047400838474008301d10021
:100dc0000281d300830f7100f0ff3a008904d10043
:100dd0000884d3006001490082017800c1adde00c3
:100de000fb07b000e2fe07002dff37000960a000fe
:100df0000800be002aff3700120220000296880079
:100e0000f0ff2f00f1ff270025ff37006022b80018
:100e1000060220000000d0008180d2000482d200af
:100e20008582d2000000a0000202520083825a0094
:100e3000030031000202420083824a000000a10048
:100e40000603e900f3ff3a0000000600efff070089
:100e50000400be0000000600020ab900001bb90031
:100e60000200b8008100420081004300000006003b
:100e700003f0a200889fbe008a9fbe008c1f7800ee
:100e8000f6fe0700fdfe33006450e1004f00320023
:100e90006420e1005200320003826c0007003b0036
:100ea0000905d0000306d000820f54000c065d0037
:100eb0000200390002003200890178000306780040
:100ec0008582550004003d000003fd008103fd0004
:100ed0008502ea008b854200840f720002003b000d
:100ee00060001000e08018006011b8000005eb0001
:100ef0007a28e1000a00390006007800c75ddd00ad
:100f0000f707b200878075002d00370082817100dd
:100f10000a017800610560008180d1000080d30063
:100f20008502e900f9ff3b00060440008784480081
:100f300002003b0060041400e0841c000988a30048
:100f4000070032008a8171008281710061016400b2
:100f50008904d1000884d3008b05e800170037000e
:100f60000978a30013003a000b00e00013003400de
:100f70008b05e9000804440089844c000a4474008d
:100f80000978a3000d003a000b00e00007003400d0
:100f90008b05e9000804440089844c0001003a00f4
:100fa0000b0020000978a300f7ff32000001eb00de
:100fb00002003700828171000a0178006cfe070090
:100fc0000cf0a70001f0a000b5fe37006420e1009e
:100fd00002003a00838f6c00b5fe33000801be00aa
:100fe0000200be00aefe37001400200051003700a2
:100ff0000400200000003700889fbe008a9fbe00ca
:101000008c1f78004f26dd0094fe07009bfe330006
:101010006120e100430032006250e10041003e00e7
:101020003e0039006420e1003c003200058255009a
:101030000f003b000402e80038003a00800f530024
:10104000818f5b00350034000800be0003f0a10072
:1010500001f0a60003f0a0000cf0a70085ff070038
:101060008ffe37000603430087834b000c46460083
:101070000005530081855b00020033000a03be00b7
:101080000c00a0000402e900f6ff3b008505780093
:101090000602430087824b0004003a006000b8005b
:1010a00009f0a70001f0a0007dfe37000002520009
:1010b00081825a000704e000040033000603430065
:1010c00087834b008b05e900faff3700090578009c
:1010d0000604be000203be006011b80024fe070033
:1010e000e00f5200e08f5a000700350002003c007c
:1010f0000c08a300040032000601be0003f0a000ab
:101100000cf0a7005bff07000a85680001f0a10052
:101110000af0a70001f0a00061fe37000800be0041
:101120005ffe3700100220000cf0a6000096880039
:101130005ffe3700889fbe008a9fbe00841f780034
:1011400046fe07004f00780011003300f0ff2f002b
:10115000838f6c0006003b00040565000a00a700b1
:101160000800370009f0a600100020000800370032
:10117000820f5400838f5c000300390010002000b0
:1011800001003e000000200009f0a7000000ea0076
:101190004f05be004f04be000000e0000000060046
:1011a000e8874700889fbe008a9fbe008c9fbe00d4
:1011b0008e1f7800212c210012968000e00f510034
:1011c0000b003a0064814000129688006296880005
:1011d000a100980051968800214190000204a000cf
:1011e000a2409800614190000204a000e2409800f3
:1011f000670440004244de004244dd005096800017
:101200004e2d2100c9e821008e84540026002000c4
:10121000801f7800110009008604d80000037800c0
:101220004f0078008880e800818240008001eb0058
:101230006146b800f4e821000e02520008024200a4
:10124000010037000a007800a0409000e1806000b3
:10125000020032000a0037001208780010017800fe
:10126000a2409000e1806000fbff32008800400057
:10127000810f510002003900e00f540049003d0089
:1012800010057800800f5500eeff3e008e0f5500d0
:1012900003003900212c2100810f5500e9ff39009e
:1012a00061968000810f50004f003a00202c2100f1
:1012b000800f55004c003a008301e800e18f510097
:1012c000e0ff3600860f540002003600890f5400fc
:1012d0000d0039006148b900b2ff2f000300200063
:1012e0000000510081805900800f5600818f5e0000
:1012f00007003d00110009000982d8000980b900eb
:10130000800578000300370085057800010037006c
:10131000880578000b00780084bf9f00e5b79f0028
:10132000f6b79f00730007000fba9700efb297005f
:101330007fb39700e10f40002b00320061968000e0
:101340008008780061968000e4814000214190008f
:10135000830f5000020032000204a0000100370099
:101360000204a100a2409800e48555008b054000ce
:101370000b0878006b968800212c2100810d7800e5
:1013800062968000a24090000104a00021419800d4
:10139000a04090000104a100214098008001eb00d2
:1013a000a8ff370051968800810f510007003600d2
:1013b0001101be007296880083968800900878001c
:1013c000529680008000eb002141980053968000e7
:1013d00003087800a04090000104a000214098007c
:1013e00064004000010037000000eb004f07780068
:1013f0004f06be004f05be004f04be008f00b10077
:10140000000006006400500050968800a040900044
:101410000104a1002140980000000600889fbe0042
:101420008a9fbe0080047800010478006481540023
:101430009205780069f997006101610002003200ad
:1014400009007800efff07000800780054ff07004c
:1014500000047800e00f54001b003200890f540094
:101460001900320068bd97000805550042d5de001e
:10147000098055004280de000a017800800f550087
:1014800001003600000178004211dd000800be00b6
:1014900011000700890f54000b0031004255dd0098
:1014a0000a054400890f55000700360089045500dd
:1014b000c2ccde00c24cdd0089044400709680007e
:1014c00081968000808cbe00080078004f05be0029
:1014d0004f04be00000006008001780002003700c3
:1014e000b15978000201e900e00f5100fcff3a0019
:1014f00000000600889fbe008a1f78000005780063
:1015000099968000e08f540005003a0009007800a9
:101510000f0007000084eb00890f50000800350021
:1015200098968000e00f5500050032000a00440044
:1015300007000700e00f500001003d000084eb00b1
:10154000080078004f0578004f04be000000060038
:10155000e00f500004003a00412d210091968800d0
:1015600080007800060037008080eb00c2e8210090
:10157000820f500002003e00909688008000eb0031
:081580000100780000000600e4
:020000040000fa
:10158800000000002e0000003900000014000000d8
:101598000a380000000000000a6000000000000097
:1015a8000a880000000000000ab0000000000000e7
:1015b8000ad80000000000000a0000000100000036
:1015c8000a280000010000000a5000000100000085
:1015d8000a780000010000000aa0000001000000d5
:1015e8000ac80000010000000af000000100000025
:1015f80000000000000000000000000000000000e3
:1016080000000000000000000000000000000000d2
:1016180000000000000000000000000000000000c2
:101628000000000030000000300000003000000022
:1016380000000000000000000000000000000000a2
:101648000000000000000000000000000000000092
:10165800000300008001000080010000c0000000bd
:10166800c0000000600000006000000030000000c2
:101678003000000018000000180000000c000000f6
:101688000c00000006000000000000000000000040
:101698000000000000000000000000000000000042
:1016a80078000000cc0000008400000086010000e3
:1016b80086010000b6010000b601000086010000a6
:1016c8008601000084000000cc00000078000000c3
:1016d8000000000000000000000000000000000002
:1016e80000000000000000000000000000000000f2
:1016f800700000006c000000600000006000000046
:101708006000000060000000600000006000000051
:10171800600000006000000060000000fc030000a2
:1017280000000000000000000000000000000000b1
:1017380000000000000000000000000000000000a1
:101748007c000000c600000082010000800100004b
:1017580080010000c0010000e000000070000000ef
:10176800380000001c0000000e000000fe01000010
:101778000000000000000000000000000000000061
:101788000000000000000000000000000000000051
:101798007c000000c2000000800100008001000001
:1017a800c000000038000000c000000080010000f8
:1017b8008001000080010000c20000007c000000e1
:1017c8000000000000000000000000000000000011
:1017d8000000000000000000000000000000000001
:1017e800c0000000e0000000f0000000d000000091
:1017f800c8000000cc000000c4000000c2000000c7
:10180800fe030000c0000000c0000000c00000008f
:1018180000000000000000000000000000000000c0
:1018280000000000000000000000000000000000b0
:10183800fc0000000c0000000c0000000c00000080
:101848007c000000c400000080010000800100004e
:101858008001000080010000c20000007c00000040
:101868000000000000000000000000000000000070
:101878000000000000000000000000000000000060
:10188800780000008c0000000c000000060000003a
:1018980076000000ce0000008601000086010000ee
:1018a8008601000086010000cc00000078000000de
:1018b8000000000000000000000000000000000020
:1018c8000000000000000000000000000000000010
:1018d800fe01000080010000c0000000c000000000
:1018e800c000000060000000600000006000000010
:1018f8003000000030000000300000001800000038
:1019080000000000000000000000000000000000cf
:1019180000000000000000000000000000000000bf
:1019280078000000ce01000086010000860100005a
:10193800cc00000078000000cc0000008601000008
:101948008601000086010000cc000000780000003d
:10195800000000000000000000000000000000007f
:10196800000000000000000000000000000000006f
:1019780078000000cc00000086010000860100000d
:101988008601000086010000cc010000b8010000bb
:1019980080010000c0000000c400000078000000c2
:1019a800000000000000000000000000000000002f
:1019b8000000000020000000ba0000000f00000036
:1019c800037400000200000004830000020000000d
:1019d800069200000200000007a1000002000000bb
:1019e80007b000000200000007bf0000020000006e
:1019f80007ce00000200000003dd00000200000026
:101a080006ec00000200000006fb000002000000d7
:101a1800070a000003000000071900000300000087
:101a28000328000003000000043700000300000042
:101a380003460000030000000755000003000000f3
:101a480007640000030000000773000003000000a3
:101a58000782000003000000079100000300000057
:101a680007a000000300000007af0000030000000b
:101a780007be00000300000007cd000003000000bf
:101a880007dc00000300000007eb00000300000073
:101a980003fa00000300000003090000040000002e
:101aa80007180000040000000727000004000000d9
:101ab800073600000400000007450000040000008d
:101ac8000754000004000000076300000400000041
:101ad80007720000040000000781000004000000f5
:101ae8000790000004000000079f000004000000a9
:101af80007ae00000400000007bd0000040000005d
:101b080007cc00000400000004db00000400000013
:101b180007ea00000400000007f9000004000000c4
:101b28000708000005000000071700000500000076
:101b3800072600000500000007350000050000002a
:101b480007440000050000000753000005000000de
:101b58000762000005000000077100000500000092
:101b68000780000005000000078f00000500000046
:101b7800079e00000500000007ad000005000000fa
:101b880007bc00000500000007cb000005000000ae
:101b980007da00000500000004e900000500000065
:101ba80007f8000005000000040700000600000018
:101bb80007160000060000000725000006000000c8
:101bc800073400000600000007430000060000007c
:101bd8000752000006000000076100000600000030
:101be8000770000006000000077f000006000000e4
:101bf800078e000006000000079d00000600000098
:101c080007ac00000600000004bb0000060000004e
:101c180005ca00000600000007d900000600000001
:101c280004e800000600000007f7000006000000b6
:101c38000706000007000000071500000700000065
:101c48000724000007000000073300000700000019
:101c580007420000070000000751000007000000cd
:101c68000760000007000000076f00000700000081
:101c7800077e000007000000078d00000700000035
:101c8800079c00000700000007ab000007000000e9
:101c980007ba0000070000000dc900000700000097
:101ca8000de70000070000000d0500000800000017
:101cb8000d230000080000000d410000080000008e
:101cc8000d5f0000080000000d7d00000800000006
:101cd8000d9b0000080000000db90000080000007e
:101ce8000dd70000080000000df5000008000000f6
:101cf8000d130000090000000d310000090000006c
:101d08000d4f0000090000000d6d000009000000e3
:101d18000d8b0000090000000da90000090000005b
:101d28000dc70000090000000de5000009000000d3
:101d38000d0300000a0000000d2100000a00000049
:101d48000d3f00000a0000000d5d00000a000000c1
:101d58000d7b00000a0000000d9900000a00000039
:101d68000db700000a0000000dd500000a000000b1
:101d78000df300000a0000000d1100000b00000028
:101d88000d2f00000b0000000d4d00000b0000009f
:101d98000d6b00000b0000000d8900000b00000017
:101da8000da700000b0000000dc500000b0000008f
:101db8000de300000b0000000d0100000c00000006
:101dc8000d1f00000c0000000d3d00000c0000007d
:101dd8000d5b00000c0000000d7900000c000000f5
:101de8000d9700000c0000000db500000c0000006d
:101df8000dd300000c0000000df100000c000000e5
:101e08000d0f00000d0000000d2d00000d0000005a
:101e18000d4b00000d0000000d6900000d000000d2
:101e28000d8700000d0000000da500000d0000004a
:101e38000dc300000d0000000de100000d000000c2
:101e48000dff00000d0000000d1d00000e00000039
:101e58000d3b00000e0000000d5900000e000000b0
:101e68000d7700000e0000000d9500000e00000028
:101e78000db300000e0000000dd100000e000000a0
:101e88000def00000e0000000d0d00000f00000017
:101e98000d2b00000f0000000000000000000000f3
:101ea800000000000000000000000000000000002a
:101eb8000000000000000000000200000202000014
:101ec80002020000020200000000000002020000fe
:101ed80000000000001b00001209000000000000c4
:101ee80000000000000000000000000000000000ea
:101ef8000000000012120000123f00001212000041
:101f0800123f00000909000009000000000000005d
:101f1800000400001e250000050500000e14000046
:101f280024250000251e0000040000000000000019
:101f380022250000151500000d0a0000142c0000d1
:101f48002a2a0000291100000000000000000000fb
:101f58000c120000120a00000406000029110000fb
:101f6800112e000000000000000000000302000025
:101f78000100000000000000000000000000000058
:101f8800000000000000000000100000080400002d
:101f9800040200000202000002040000040800001d
:101fa8001000000000000000020400000808000003
:101fb80010100000101000000808000004020000c3
:101fc8000000000000000000000800002a1c0000bb
:101fd800081c00002a0800000000000000000000a3
:101fe800000000000000000008080000083e000093
:101ff80008080000080000000000000000000000c1
:1020080000000000000000000000000000000000c8
:1020180000030000030200000100000000000000af
:1020280000000000000000000000000007000000a1
:102038000000000000000000000000000000000098
:102048000000000000000000000000000000000088
:102058000202000000000000000000002020000034
:10206800101000000808000004040000020200002c
:102078000101000000000000000000000c12000038
:10208800212100002121000021210000120c000064
:102098000000000000000000000800000c0a00001a
:1020a8000808000008080000080800003e000000ba
:1020b80000000000000000001e2100002120000098
:1020c8001008000004020000213f0000000000008a
:1020d80000000000001e000021210000100c00007c
:1020e80010200000212100001e0000000000000058
:1020f8000000000010180000141400001212000064
:10210800113f00001038000000000000000000002f
:10211800003e0000020200001a26000020200000f5
:10212800222200001c000000000000000000000047
:102138001c220000010100001d23000021210000d5
:10214800221c00000000000000000000003f00000a
:1021580021200000101000000808000008080000f6
:102168000800000000000000000000001e21000020
:10217800211200000c12000021210000211e000085
:102188000000000000000000000e00001121000007
:10219800213100002e200000211100000e00000057
:1021a8000000000000000000000000000202000023
:1021b8000000000000020000020000000000000013
:1021c8000000000000000000000300000300000001
:1021d80000000000030300000201000000000000ee
:1021e80000000000201000000804000002010000a8
:1021f8000204000008100000200000000000000099
:1022080000000000000000003f000000003f000048
:1022180000000000000000000000000000000000b6
:10222800010200000408000010200000100800004f
:102238000402000001000000000000001e21000050
:10224800212100001008000008040000040000001c
:102258000404000000000000001c0000225a0000d6
:102268005553000053530000532b00001522000063
:102278001c00000000000000000c00000c0c000016
:1022880012120000123f000021210000330000005c
:1022980000000000000000001f22000022220000b1
:1022a8001e22000022220000221f00000000000061
:1022b80000000000002c0000322100000101000095
:1022c80001010000212200001c00000000000000a5
:1022d800000000000f12000022220000222200004d
:1022e80022220000120f0000000000000000000081
:1022f800003f000022020000121e0000120200002f
:10230800022200003f000000000000000000000062
:102318003f220000021200001e120000020200000c
:10232800020700000000000000000000002c000070
:10233800322100000101000031210000213200009b
:102348002c000000000000000000000077220000c0
:10235800222200003e2200002222000022770000f4
:10236800000000000000000000070000020200005a
:102378000202000002020000020200000700000042
:1023880000000000000000003c10000010100000d9
:102398001010000010110000110e000000000000d5
:1023a8000000000000370000121200000a0e0000b2
:1023b8000a1200001222000077000000000000004e
:1023c80000000000070200000202000002020000f4
:1023d80002220000223f0000000000000000000070
:1023e8000022000022220000363600002a2a0000bf
:1023f8002a22000073000000000000000000000016
:102408003123000023250000252900002931000080
:10241800312300000000000000000000001e000042
:10242800212100002121000021210000212100009c
:102438001e00000000000000000000001f22000035
:10244800222200001e020000020200000207000013
:102458000000000000000000001e00002121000014
:1024680021210000212100002f3100001e20000042
:1024780000000000000000001f22000022220000cf
:102488001e0a0000121200002227000000000000af
:1024980000000000001e00002121000001060000cd
:1024a80018200000212100001e000000000000008c
:1024b800000000007f49000008080000080800002c
:1024c80008080000081c00000000000000000000d0
:1024d80000770000222200002222000022220000b1
:1024e800222200001c000000000000000000000084
:1024f80063220000222200001414000014080000c7
:102508000808000000000000000000000063000050
:1025180041490000495500005522000022220000d0
:1025280022000000000000000000000063220000fc
:1025380014140000080800001414000022630000ae
:1025480000000000000000000063000022220000dc
:102558001414000008080000080800001c0000000f
:1025680000000000000000003f21000020100000d3
:102578000804000002210000213f000000000000c4
:102588000000000007010000010100000101000037
:102598000101000001010000010700000000000027
:1025a8000000000002020000040400000808000007
:1025b80010100000202000000000000000000000b3
:1025c80007040000040400000404000004040000e0
:1025d80004040000040700000000000000080000d8
:1025e80014220000000000000000000000000000ad
:1025f80000000000000000000000000000000000d3
:1026080000000000000000000000000000000000c2
:10261800000000003f000000000000000c0800005f
:102628001000000000000000000000000000000092
:102638000000000000000000000000000000000092
:102648000e110000101e0000111100002e000000e5
:10265800000000000001000001010000010d000061
:102668001321000021210000130d000000000000cc
:102678000000000000000000000000001c22000014
:1026880001010000012200001c0000000000000001
:102698000020000020200000202c00003221000033
:1026a80021210000322c0000000000000000000082
:1026b80000000000000000001e210000213f000073
:1026c800012100001e0000000000000000180000aa
:1026d80024040000041f0000040400000404000097
:1026e800040e0000000000000000000000000000d0
:1026f800000000006c120000120c0000021e000016
:10270800212100001e00000000030000020200005a
:10271800021a000026220000222200002277000070
:10272800000000000000000000020000000000009f
:10273800030200000202000002020000070000007d
:10274800000000000000000008080000000c000065
:102758000808000008080000080900000906000031
:102768000000000003020000020200003212000014
:102778000a0600000a1200003700000000000000ee
:102788000000000003020000020200000202000034
:102798000202000002070000000000000000000024
:1027a8000000000000000000152a00002a2a00008e
:1027b8002a2a00002a000000000000000000000093
:1027c80000000000001b000026220000222200005a
:1027d8002277000000000000000000000000000058
:1027e800000000000c12000021210000211200004e
:1027f8000c000000000000000000000000000000c5
:10280800001b00002622000022220000261a0000d9
:1028180002070000000000000000000000000000a7
:1028280036190000111100001119000016100000df
:10283800380000000000000000000000001b00003d
:10284800260200000202000002070000000000004b
:102858000000000000000000000000001c22000032
:10286800021c0000202200001c00000000000000e4
:102878000000000000040000041f00000404000021
:1028880004040000241800000000000000000000fc
:102898000000000000000000332200002222000097
:1028a800223200006c000000000000000000000060
:1028b800000000000077000022220000141400002d
:1028c80008080000000000000000000000000000f0
:1028d800000000006b2a00002a2a000014140000df
:1028e80014000000000000000000000000000000cc
:1028f800007700002214000008140000227700006e
:1029080000000000000000000000000000000000bf
:1029180033220000221400001408000008040000fc
:10292800030000000000000000000000003f00005d
:102938002110000008040000223f000000000000f1
:10294800000000000000000000000000000000007f
:1029580000000000000000000000000000c60000a9
:102968000c00000000000000000000000000000053
:10297800000000000000000000000000000000004f
:102988000020000000240000024800000248000067
:10299800011000000190000000a00000006000008d
:1029a8000040000000a0000001180000060600001a
:1029b80008000000000000000000000000480000bf
:1029c8000088000004a4000004240000042600007d
:1029d80002250000024400000144000001840000b8
:1029e8000044000001240000021400000c00000054
:1029f800000000000000000000880000000800003f
:102a08000104000000f400000f060000002500008b
:102a180002240000024400000244000001040000f7
:102a28000184000000f400000f0000000000000016
:102a3800000000000008000001f800000f0400007a
:102a480001e40000072400000526000005e5000059
:102a58000704000001440000018400000064000035
:102a6800031c00000c000000000000000000000033
:102a7800000800000210000001a0000000fc000097
:102a8800074000000040000004fe00000f40000066
:102a980000a000000020000001100000020c00004f
:102aa8000c0000000000000000000000007f000093
:102ab8000808000008080000097c0000094400001c
:102ac800094200000925000009280000091000003b
:102ad8000908000008040000080200000e000000b9
:102ae800000000000000000000080000080a0000c4
:102af800087e000009090000097f0000090800009d
:102b0800097e0000094a0000094a0000094a00003d
:102b1800086a0000080800000e000000000000001d
:102b28000000000000000000011f0000010000007c
:102b380001c000000f1f0000090400000904000084
:102b4800090200000992000008af000008420000d6
:102b5800082000000600000000000000000000003f
:102b6800000800000190000000fc0000074400007d
:102b780004fc00000744000004fc000007400000bb
:102b880000fe00000f400000004000000040000070
:102b980000000000000000000000000000400000ed
:102ba80000a000000010000001080000020400005e
:102bb80004f200000900000000f80000030800000b
:102bc8000208000002f800000308000002000000ec
:102bd80000000000000000000010000000100000cd
:102be80000f000000318000001a6000000400000eb
:102bf8000020000000f00000071c00000412000084
:102c080004f00000071000000400000000000000ad
:102c18000000000000400000003c00000010000020
:102c28000f100000097e000009100000093800009c
:102c38000954000009520000091200000f1000009a
:102c48000910000000000000000000000000000063
:102c580000fe00000f0200000802000008f2000059
:102c680009120000091200000912000009f2000010
:102c7800091200000902000008fe00000f0200000f
:102c880008000000000000000000000000fe000036
:102c98000722000004e200000592000004aa0000d8
:102ca8000442000004b20000044e000007220000a5
:102cb800044200000402000004fe000007000000b7
:102cc80000000000000000000010000004f80000f0
:102cd8000f14000002f200000310000002f00000d0
:102ce8000320000000e0000003300000012800007d
:102cf80001c00000003c00000f00000000000000c0
:102d0800000000000040000000e000000710000084
:102d1800026c000001c000000030000001ce00007d
:102d28000f20000008580000048000000280000006
:102d3800017c00000000000000000000000000000e
:102d4800002000000040000000ff00000f0100000c
:102d580008fd00000b4000000048000000c800000b
:102d680003480000005400000062000000c1000099
:102d78000f0000000000000000000000000000003c
:102d880002000000021f000002f000000f12000005
:102d9800020c000002480000028c000002940000af
:102da8000212000002810000030000000100000080
:102db800000000000000000000440000044800007b
:102dc80002fe00000f02000008fa00000b080000d5
:102dd80002f800000340000000fc00000744000067
:102de800044400000640000000000000000000004d
:102df800000000000080000000fc00000f2400001c
:102e080002fc00000f24000002e40000030400009c
:102e180000f40000072400000242000001c2000084
:102e2800013900000e000000000000000000000052
:102e38000000000002fc0000071000000110000064
:102e48000110000001fe00000f100000011000003a
:102e58000108000001080000010400000102000050
:102e680001000000000000000000000000800000d9
:102e7800028000000480000000fe00000f800000b7
:102e88000080000000be000000880000000800006c
:102e980001380000090600000a0000000c000000cc
:102ea80000000000000000000004000000c4000052
:102eb8000f040000081f00000804000008140000a8
:102ec80008cc00000f0700000804000008040000f8
:102ed80008e700000f0200000800000000000000e2
:102ee8000000000000e400000f440000049f000000
:102ef8000204000001d400000e3c000001e70000bd
:102f08000f04000001f400000f0400000107000096
:102f180001020000010000000000000000000000a5
:102f2800008400000004000001ff00000f240000de
:102f380008a40000088c000000f700000f440000ff
:102f480002440000028400000187000002720000b1
:102f58000400000000000000000000000004000061
:102f680001e400000f3f000008a400000a5400001c
:102f7800042c00000807000000e40000070400001b
:102f8800010400000107000001f200000f0000002a
:102f9800000000000000000000440000024400009f
:102fa80002ff00000f4400000214000000ec0000c3
:102fb8000f27000009e400000f2400000924000086
:102fc80009e700000f2200000800000000000000d0
:102fd8000000000000490000012a0000017f0000f5
:102fe800010800000f9c000004ea000004890000aa
:102ff800047f0000052400000218000005ac000052
:103008000843000008000000000000000000000065
:1030180000f8000003080000020800000208000091
:103028000208000002f8000003080000020800007f
:10303800020800000208000002f80000030800006f
:103048000200000000000000000000000000000076
:10305800020f00000209000002e900000f09000049
:10306800020f00000249000002890000028f0000e0
:103078000209000002000000020000000300000036
:10308800000000000000000000fe00000f400000eb
:1030980000fc00000744000004fc00000744000096
:1030a80004fc000007440000045000000020000059
:1030b80000d80000000700000f000000000000001a
:1030c80000000000009200000f92000008bf0000fe
:1030d800089200000f9e000008920000089e000061
:1030e8000f92000008bf000008940000086200006a
:1030f800082100000c000000000000000000000093
:103108000020000000f000000318000001a40000e7
:1031180000c20000003c00000f40000000fe00005c
:103128000f40000000480000024400000462000054
:10313800080000000000000000000000000400007b
:1031480004e400000f24000000ff00000f2400002a
:103158000124000001ac0000073600000125000032
:1031680001e400000f24000000e400000f0000004c
:1031780000000000000000000044000002f400000d
:103188000f44000002ff00000724000004ec0000c8
:103198000736000004e500000785000000f4000081
:1031a8000f440000023400000c0000000000000082
:1031b800000000000000000004fe00000f400000b6
:1031c80000400000004000000044000000c400006f
:1031d80007440000004400000044000000440000d0
:1031e80004ff00000f0000000000000000000000c5
:1031f8000082000000f400000f40000002a100005f
:10320800045200000ae400000784000000c4000023
:1032180008230000053a000002a200000462000032
:103228000800000000000000000000000088000006
:10323800008800000088000000f800000f08000067
:103248000008000000f80000010800000108000064
:103258000108000001040000010300000100000053
:10326800000000000000000000fc00000f44000007
:103278000844000008fc00000f4400000844000057
:1032880008fc00000f440000084400000842000049
:10329800094200000e410000040000000000000088
:1032a80000000000002000000020000000fe0000d8
:1032b800032200000222000002fe00000322000098
:1032c8000222000002fe0000032000000820000087
:1032d80008c000000f00000000000000000000000f
:1032e8000040000000f000000350000002900000c1
:1032f80002fe00000f5000000288000002040000d7
:1033080001fc000007a4000004a4000004fe000063
:103318000f00000000000000000000000084000012
:1033280000bc00000f5400000242000004a000008e
:103338000018000003f600000d20000000480000ff
:10334800024800000110000001fc00000f0000000e
:10335800000000000000000000c800000744000052
:10336800044200000441000004cf000007440000ac
:103378000442000004d90000074700000440000090
:10338800045c000004e300000f00000000000000df
:103398000000000000080000018400000242000054
:1033a8000441000004af00000b04000000e200002c
:1033b8000f1900000187000000400000023c0000d7
:1033c80002e300000500000000000000000000000b
:1033d8000008000001e400000f220000082100009e
:1033e80008ef00000f24000000e200000fb9000001
:1033f8000ae700000fa000000aac00000a23000042
:103408000c000000000000000000000000fe0000aa
:10341800079200000492000004fe0000074000002c
:1034280000fe00000f08000002f80000030800007a
:1034380002f800000308000002fe00000f00000070
:103448000000000000000000004000000020000014
:1034580000f80000070800000408000004f8000055
:10346800070800000408000004f80000070800002e
:103478000408000004f80000070000000000000035
:10348800000000000040000000fc00000f400000a9
:1034980000f800000740000000fe00000fa0000038
:1034a800009000000498000002160000017000005f
:1034b800021000000c0000000000000000000000e6
:1034c80000020000010400000104000001000000e7
:1034d80001ef00000f0800000108000001080000cb
:1034e8000128000001180000010c00000100000084
:1034f80001000000000000000000000000c2000001
:1035080003440000024400000240000002270000bb
:103518000e14000000c400000744000004940000da
:10352800020c000001c60000023000000c00000080
:1035380000000000000000000082000000e400001d
:103548000784000000f000000f4700000984000015
:10355800012400000144000001f400000f0c0000e9
:1035680001860000026000000c000000000000005e
:10357800000000000010000000f0000001880000ba
:103588000044000000f800000308000002480000a2
:103598000248000002480000024800000220000023
:1035a800011c0000060000000000000000000000f0
:1035b80000c2000007020000041f00000202000011
:1035c80002050000059f00000864000000c4000018
:1035d8000f1c0000010700000104000001e40000c6
:1035e8000f000000000000000000000000100000b4
:1035f800017e00000510000009fe00000f08000011
:10360800017e000009140000057c00000510000080
:10361800027e00000d900000085000000800000025
:10362800000000000000000000020000010200008d
:1036380002df00000f82000004450000089f000020
:103648000484000002840000021c0000010700003e
:1036580001840000026400000c000000000000006b
:103668000000000000c200000742000004df000064
:103678000702000000e500000f5f000004c400001e
:103688000744000004dc00000747000004f40000c1
:103698000f0400000400000000000000000000000b
:1036a8000002000006e400000124000000e0000021
:1036b80007a0000002a7000002a4000002240000e6
:1036c8000194000002440000040a000000f1000018
:1036d8000f00000000000000000000000042000091
:1036e8000244000002f400000f4000000240000005
:1036f80002f700000f4400000244000002440000ea
:1037080002240000020a000000f100000f0000007f
:10371800000000000000000000a2000000a400005b
:1037280000e40000079000000080000000f700009f
:103738000f4400000144000009240000091400009f
:103748000e0a000000f100000f0000000000000059
:10375800000000000000000003fc00000040000022
:1037680000fe00000f48000002f8000003480000b7
:1037780002f800000340000000fc000007400000c1
:1037880000fe00000f000000000000000000000024
:103798000002000000c20000079e00000481000033
:1037a800049f00000484000004df00000784000078
:1037b8000484000004940000048c000004e4000069
:1037c8000f000000000000000000000000e40000fe
:1037d8000f0800000802000008f2000009120000ab
:1037e8000912000009f20000091200000912000085
:1037f80009f2000009020000080200000e000000a3
:1038080000000000000000000040000000fe000072
:103818000f1000000220000001c000000038000066
:10382800030600000c100000011000000110000049
:10383800010800000106000001000000000000006f
:10384800000000000000000020000000ed00000063
:1038580011000000044000000300000005510000b2
:103868000300000007620000030000000873000066
:103878000300000008840000030000000895000011
:103888000300000008a600000300000004b70000c1
:103898000300000007c800000300000007d900006b
:1038a8000300000008ea00000300000008fb000015
:1038b80003000000040c000004000000051d0000c7
:1038c80004000000042e000004000000083f00006f
:1038d8000400000008500000040000000861000017
:1038e80004000000087200000400000008830000c3
:1038f80004000000089400000400000008a500006f
:103908000400000008b600000400000008c700001a
:103918000400000008d800000400000008e90000c6
:103928000400000004fa000004000000040b00007a
:1039380005000000081c000005000000082d00001c
:1039480005000000083e000005000000084f0000c8
:103958000500000008600000050000000871000074
:103968000500000008820000050000000893000020
:103978000500000008a400000500000008b50000cc
:103988000500000008c600000500000008d7000078
:103998000500000008e800000500000005f9000027
:1039a80005000000080a000006000000081b0000cf
:1039b80006000000082c000006000000083d00007a
:1039c80006000000084e000006000000085f000026
:1039d80006000000087000000600000008810000d2
:1039e80006000000089200000600000008a300007e
:1039f8000600000008b400000600000008c500002a
:103a08000600000008d600000600000008e70000d5
:103a18000600000008f80000060000000809000081
:103a280007000000081a000007000000052b00002e
:103a380007000000083c000007000000054d0000da
:103a480007000000085e000007000000086f000083
:103a5800070000000880000007000000089100002f
:103a68000700000008a200000700000008b30000db
:103a78000700000008c400000700000008d5000087
:103a88000700000008e600000700000008f7000033
:103a980007000000080800000800000005190000e1
:103aa80008000000052a000008000000083b00008c
:103ab80008000000054c000008000000085d000038
:103ac80008000000086e000008000000087f0000e1
:103ad80008000000089000000800000008a100008d
:103ae8000800000008b200000800000008c3000039
:103af8000800000008d400000800000008e50000e5
:103b08000800000008f60000080000000807000090
:103b1800090000000818000009000000082900003a
:103b280009000000083a0000090000000f4b0000df
:103b3800090000000f6d0000090000000f8f000051
:103b4800090000000fb10000090000000fd30000b9
:103b5800090000000ff50000090000000f17000021
:103b68000a0000000f3900000a0000000f5b000087
:103b78000a0000000f7d00000a0000000f9f0000ef
:103b88000a0000000fc100000a0000000fe3000057
:103b98000a0000000f0500000b0000000f270000be
:103ba8000b0000000f4900000b0000000f6b000025
:103bb8000b0000000f8d00000b0000000faf00008d
:103bc8000b0000000fd100000b0000000ff30000f5
:103bd8000b0000000f1500000c0000000f3700005c
:103be8000c0000000f5900000c0000000f7b0000c3
:103bf8000c0000000f9d00000c0000000fbf00002b
:103c08000c0000000fe100000c0000000f03000092
:103c18000d0000000f2500000d0000000f470000f8
:103c28000d0000000f6900000d0000000f8b000060
:103c38000d0000000fad00000d0000000fcf0000c8
:103c48000d0000000ff100000d0000000f13000030
:103c58000e0000000f3500000e0000000f57000096
:103c68000e0000000f7900000e0000000f9b0000fe
:103c78000e0000000fbd00000e0000000fdf000066
:103c88000e0000000f0100000f0000000f230000cd
:103c98000f0000000f4500000f0000000f67000034
:103ca8000f0000000f8900000f0000000fab00009c
:103cb8000f0000000fcd00000f0000000fef000004
:103cc8000f0000000f110000100000000f3300006b
:103cd800100000000f550000100000000f770000d2
:103ce800100000000f990000100000000fbb00003a
:103cf800100000000fdd0000100000000fff0000a2
:103d0800100000000f210000110000000f43000008
:103d1800110000000f650000110000000f8700006f
:103d2800110000000fa90000110000000fcb0000d7
:103d3800110000000fed0000110000000f0f00003f
:103d4800120000000f310000120000000f530000a5
:103d5800120000000f750000120000000f9700000d
:103d6800120000000fb90000120000000fdb000075
:103d7800120000000ffd0000120000000f1f0000dd
:103d8800130000000f410000130000000f63000043
:103d9800130000000f850000130000000fa70000ab
:103da800130000000fc90000130000000feb000013
:103db800130000000f0d0000140000000f2f00007a
:103dc800140000000f510000140000000f730000e1
:103dd800140000000f950000140000000fb7000049
:103de800140000000fd90000140000000ffb0000b1
:103df800140000000f1d0000150000000f3f000018
:103e0800150000000f610000150000000f8300007e
:103e1800150000000fa50000150000000fc70000e6
:103e2800150000000fe90000150000000f0b00004e
:103e3800160000000f2d0000160000000f4f0000b4
:103e4800160000000f710000160000000f9300001c
:103e5800160000000fb50000160000000fd7000084
:103e6800160000000ff90000160000000f1b0000ec
:103e7800170000000f3d0000170000000f5f000052
:103e8800170000000f810000170000000fa30000ba
:103e9800170000000fc50000170000000fe7000022
:103ea800170000000f090000180000000f2b000089
:103eb800180000000f4d0000180000000f6f0000f0
:103ec80018000000000000000000000000000000d2
:103ed80000000000000000000000000000000000da
:103ee80000000000000000000004000004040000be
:103ef80004040000040400000404000000000000a2
:103f08000404000000000000003600002412000035
:103f18000000000000000000000000000000000099
:103f28000000000000000000000000000048000041
:103f380048480000fe240000242400002424000037
:103f48007f120000121200000000000000000000b4
:103f5800083e000049490000090a00001c2800002a
:103f680048490000493e0000080000000000000029
:103f78000046000029290000291900001608000041
:103f8800344c00004a4a00004a310000000000009a
:103f9800000000000c120000120a00000474000067
:103fa8002a2a000029110000314e000000000000fc
:103fb80000000000060400000200000000000000ed
:103fc80000000000000000000000000000000000e9
:103fd80000000000001000000804000004020000b7
:103fe80002020000020200000204000004080000af
:103ff800100000000000000004080000101000007d
:1040080020200000202000002020000010100000c8
:10401800080400000000000000000000000000008c
:10402800084900002a1c00002a4900000800000076
:104038000000000000000000000000000000000078
:104048000008000008080000087f000008080000b9
:104058000808000000000000000000000000000048
:104068000000000000000000000000000000000048
:104078000006000006040000020000000000000026
:10408800000000000000000000000000000f000019
:104098000000000000000000000000000000000018
:1040a8000000000000000000000000000000000008
:1040b80000000000000000000606000000000000ec
:1040c8000000000000400000402000002010000018
:1040d80010080000080400000402000002000000ac
:1040e800000000000000000000180000244200004a
:1040f80042420000424200004242000024180000f0
:10410800000000000000000000000000080c000093
:104118000a08000008080000080800000808000055
:104128003e0000000000000000000000001c00002d
:104138002241000041200000100800000442000055
:10414800417f0000000000000000000000000000a7
:104158001c22000041410000201c000020410000fa
:10416800412200001c0000000000000000000000c8
:104178000020000030280000242400002221000034
:104188007f200000207000000000000000000000f8
:10419800000000003f010000010100001d23000095
:1041a80040400000412100001e0000000000000007
:1041b80000000000003c000042010000011d00005a
:1041c8002341000041410000221c000000000000c3
:1041d80000000000000000007f41000041200000b6
:1041e8002010000010080000080800000800000067
:1041f8000000000000000000001c00002241000038
:10420800412200001c22000041410000221c000045
:104218000000000000000000000000001c22000058
:1042280041410000416200005c4000004122000062
:104238001c0000000000000000000000000000005a
:104248000000000006060000000000000006000054
:104258000600000000000000000000000000000050
:10426800000000000006000006000000000000003a
:104278000606000004020000000000000000000024
:1042880040200000100800000402000001020000a5
:10429800040800001020000040000000000000009a
:1042a8000000000000000000000000007f00000087
:1042b800007f000000000000000000000000000077
:1042c80000000000010200000408000010200000a7
:1042d8004020000010080000040200000100000057
:1042e80000000000000000003c42000042400000c6
:1042f8002010000008080000000000000808000066
:104308000000000000000000001e00002141000025
:10431800596500004565000059010000423c000055
:104328000000000000000000000000000808000075
:104338001414000014220000223e00004141000035
:10434800630000000000000000000000001f0000e3
:1043580022420000422200001e22000042420000c9
:10436800221f000000000000000000000000000004
:104378005c620000420100000101000001410000f0
:10438800422200001c0000000000000000000000a5
:10439800001f0000222200004242000042420000aa
:1043a80042220000221f0000000000000000000060
:1043b800000000007f42000002020000121e000000
:1043c80012020000424200007f00000000000000ce
:1043d80000000000007f00004242000002120000be
:1043e8001e12000002020000020700000000000088
:1043f80000000000000000005c62000042010000b4
:1044080001710000414100004266000058000000b0
:10441800000000000000000000e700004242000029
:10442800424200007e4200004242000042e7000093
:104438000000000000000000000000000e04000062
:104448000404000004040000040400000404000044
:104458000e000000000000000000000000780000ce
:104468002020000020200000202000002022000042
:10447800221c0000000000000000000000000000f6
:1044880067220000120a0000060a00000a12000053
:104498001222000067000000000000000000000079
:1044a80000070000020200000202000002020000f1
:1044b80002420000427f00000000000000000000ef
:1044c80000000000416300005555000055490000f8
:1044d800494900004141000063000000000000005d
:1044e8000000000000610000434300004545000053
:1044f80049490000515100006143000000000000dc
:1045080000000000000000001c22000041410000e3
:104518004141000041410000412200001c00000010
:104528000000000000000000001f00002242000000
:1045380042420000221e00000202000002070000a2
:104548000000000000000000000000001c22000025
:1045580022410000414100005d220000221c0000b1
:10456800106000000000000000000000001f0000b4
:1045780022420000422200001e12000022220000f7
:1045880042c700000000000000000000000000001a
:104598002c32000021010000011e00002041000013
:1045a800412300001d000000000000000000000082
:1045b800007f0000494900000808000008080000c2
:1045c80008080000083e000000000000000000008d
:1045d80000000000e74200004242000042420000a2
:1045e80042420000424200003c000000000000007f
:1045f800000000000063000041410000414100004c
:104608002222000014140000080800000000000026
:104618000000000000000000634100004149000064
:1046280049550000555500002222000022000000d4
:1046380000000000000000000077000022220000b7
:104648001414000008140000142200002273000053
:1046580000000000000000000000000063410000ae
:10466800412200002214000014080000080800007d
:104678001c0000000000000000000000007f000097
:104688002110000010080000080400000442000087
:10469800417f00000000000000000000000e000044
:1046a80002020000020200000202000002020000f2
:1046b80002020000020e00000000000000010000dd
:1046c80001020000020400000408000008100000b5
:1046d8001020000020400000400000000000000002
:1046e800000e000008080000080800000808000084
:1046f8000808000008080000080e0000000000007c
:104708000008000014220000410000000000000022
:104718000000000000000000000000000000000091
:104728000000000000000000000000000000000081
:104738000000000000000000000000000000000071
:104748007f00000000000000000c000008100000be
:104758000000000000000000000000000000000051
:104768000000000000000000000000000000000041
:10477800000000003c420000407e00004161000053
:10478800de00000000000000000000000003000040
:1047980002020000021e0000224200004242000005
:1047a800261a0000000000000000000000000000c1
:1047b80000000000000000005c62000041010000f1
:1047c800014200003c000000000000000000000062
:1047d8000020000020200000203c000022210000d2
:1047e80021210000326c00000000000000000000e1
:1047f8000000000000000000000000001c22000073
:10480800417f0000014200003c0000000000000061
:10481800000000000038000044040000043f0000cd
:104828000404000004040000040e0000000000005e
:104838000000000000000000000000000000000070
:10484800dc220000221c0000021e000021410000a2
:104858003e0000000000000000030000020200000b
:10486800023a0000464200004242000042e70000cf
:104878000000000000000000000000000404000028
:104888000000000006040000040400000404000006
:104898000e0000000000000000000000000c0000f6
:1048a8000c000000000c00000808000008080000c8
:1048b80008090000090600000000000000000000d0
:1048c8000302000002620000221200000e12000023
:1048d8001222000067000000000000000000000035
:1048e80000060000040400000404000004040000a2
:1048f80004040000040e0000000000000000000096
:10490800000000000000000000000000354b00001f
:104918004949000049490000490000000000000022
:10492800000000000000000000000000001b000064
:10493800262200002222000022770000000000004a
:10494800000000000000000000000000000000005f
:104958001c22000041410000412200001c00000010
:10496800000000000000000000000000000000003f
:10497800001f000022420000422200001e02000028
:104988000207000000000000000000000000000016
:10499800000000007c22000021210000223c0000d1
:1049a800202000007000000000000000000000004f
:1049b80000000000003600004c4400000404000021
:1049c800040e0000000000000000000000000000cd
:1049d80000000000000000003c420000023c000013
:1049e800404200003c000000000000000000000001
:1049f8000000000004040000043f0000040400005c
:104a080004440000443800000000000000000000da
:104a180000000000000000000000000063420000e9
:104a280042420000426200005c00000000000000fa
:104a3800000000000000000000000000006300000b
:104a480041220000221400001408000000000000a9
:104a5800000000000000000000000000000000004e
:104a6800494900005555000022220000220000009c
:104a7800000000000000000000000000000000002e
:104a880000770000221400000814000022770000bc
:104a9800000000000000000000000000000000000e
:104aa800000000007722000024140000180800000d
:104ab80008040000030000000000000000000000df
:104ac80000000000007f0000211000000804000022
:104ad800427f00000000000000000000000000000d
:104ae80000000000000000000000000000000000be
:104af80000000000008c0000318c00003100000034
:104b0800000000000000000000000000000000009d
:104b1800000000000000000000000000000000008d
:104b28000080000000c0000001e0000003800000d9
:104b3800008000000080000000800000008000006d
:104b4800008000000080000000800000008000005d
:104b5800008000000080000000000000000000004d
:104b680000000000008000000080000000800000bd
:104b7800008000000080000000800000008000002d
:104b8800008000000080000000800000008000001d
:104b980000e0000003c000000180000000000000e9
:104ba80000000000000000000000000022000000db
:104bb80022000000110000001180000008800000a1
:104bc8000840000004400000048000000880000045
:104bd8000800000011000000110000002200000081
:104be8002200000000000000000000000022000079
:104bf800002200000044000000440000008800007b
:104c0800008800000010000001100000018800006a
:104c1800008800000044000000440000002200005a
:104c2800002200000000000000000000000000005a
:104c3800004000000040000000400000004000006c
:104c48000040000008c000001f40000000400000b5
:104c5800004000000040000000400000004000004c
:104c68000040000010fe00003f00000000000000af
:104c780000000000002000000220000002200000c8
:104c8800022000000222000012240000122400006a
:104c98000a2800000a280000062800000220000058
:104ca800022000000220000012fe00003f00000069
:104cb80000000000000000000080000000800000ec
:104cc80000400000012000000210000004880000dd
:104cd800088600003080000000800000008000008e
:104ce80000800000008000000080000000800000bc
:104cf800000000000000000000000000008000002c
:104d0800008000000084000010fc00003f840000c8
:104d1800108400001084000010fc00001f840000b4
:104d2800108000000080000000800000008000006b
:104d380000800000000000000000000000000000eb
:104d480000400000008000000080000010fe00000d
:104d58003f8000000080000000800000008000000c
:104d680008fc00001f800000008000000080000098
:104d78000080000010fe00003f000000000000005e
:104d8800000000000020000008480000088800001b
:104d9800048800000408000004100000021000004d
:104da80002200000014000000180000000c0000057
:104db80000200000031800000c060000300000006e
:104dc80000000000000000000000000008080000cb
:104dd800084800000888000008880000090800004a
:104de80009080000080800000888000008480000ba
:104df80004380000040e00001a8000003170000022
:104e080020000000000000000000000000900000ea
:104e180000100000011000000a4800000a480000c5
:104e2800084c0000088a00000889000004080000f7
:104e380005080000020800000208000005880000bc
:104e480008680000300000000000000000000000ba
:104e580000100000081000001cd00000030800002b
:104e68000208000002080000020c000012ea00001c
:104e78003f090000020800000208000002080000c4
:104e88000208000002c800001f0000000000000027
:104e98000000000000880000000800000104000075
:104ea8000104000008f400001f06000000250000af
:104eb8000844000004440000048400000484000046
:104ec800028400000204000011f400003f0000000a
:104ed8000000000000000000001000000850000062
:104ee8001cd000000348000002480000024c0000eb
:104ef80012ca00003f4900000448000004480000ae
:104f08000448000025c80000286800003348000055
:104f18002200000000000000000000000010000057
:104f28000210000012f000003f08000002c8000054
:104f38001f4c0000124a000012c900001f48000060
:104f480012880000020800000108000003c80000e1
:104f58000c380000300000000000000000000000d5
:104f680000c800001f48000010480000104400005e
:104f780010c400001f4400001206000002f50000e3
:104f88003f040000028400000a8400000a44000074
:104f9800122400002214000022000000000000007b
:104fa80000000000000800000108000002080000de
:104fb80012e400003f04000000c600001f050000c6
:104fc80000c400001f04000000c400001f440000cb
:104fd8001044000010c400001f440000100000002e
:104fe8000000000000000000001000000420000085
:104ff800022000000200000009fc00001f800000e1
:105008000080000000fe00003f800000004000001b
:10501800012000000210000004080000080c000035
:105028001800000000000000000000000000000060
:10503800080200001804000028e000003f280000d3
:1050480008a800000b28000008a400002ba70000f7
:105058002aa400001aa400000ba400002a140000cf
:10506800340c0000230000000000000000000000d5
:105078000080000000800000008800000888000010
:105088000888000008f800000f8800000880000069
:1050980000840000108400001084000010840000c8
:1050a80010fc00001f0400001000000000000000b9
:1050b800000000000080000020fe00002108000021
:1050c8002488000024f800002588000024840000bb
:1050d800244a00002451000024200000242000005d
:1050e80020100000240c000038030000100000000d
:1050f8000000000000000000001000002012000066
:105108002012000024fe00002411000024ff0000eb
:105118002510000024fe00002492000024920000c4
:105128002492000020f200002452000038100000f1
:10513800100000000000000000000000000800004f
:10514800000800000048000010fe00003e48000073
:1051580012480000124800001248000012480000df
:105168001248000012440000124c00001e72000099
:1051780012210000120000000000000000000000e2
:105188000000000002000000023e000002000000d3
:10519800228000003f7f0000220800002208000053
:1051a8002224000022220000225f00002182000049
:1051b80025800000384000001000000000000000ba
:1051c800000000000088000001880000008800003e
:1051d800008400000c8400000484000002860000a3
:1051e8000185000000c4000000a400000094000035
:1051f8001084000010840000300400001f0000002c
:1052080000000000000000000000000008fe000090
:105218001f2200000022000000e200000f12000020
:105228000102000001fa00001f8200000082000055
:1052380001420000063200000402000010fe0000d7
:105248003f00000000000000000000000010000007
:105258000420000002f800000f8800000888000001
:1052680008f800000f8800000888000008f800000f
:105278000f80000010fe00003f800000008000004a
:105288000080000000000000000000000000000096
:105298000000000002fc00000720000002200000bf
:1052a80002200000022000001f200000082000004b
:1052b80008500000049000000408000003080000e3
:1052c80003c400000c3200003000000000000000a1
:1052d8000000000000800000008000000040000086
:1052e80010fe00003f4000000020000000200000e9
:1052f80008f000001f280000082400000822000011
:105308000820000008e000000f200000080000004e
:1053180000000000000000000010000004f0000081
:105328000f1000000410000004f000000700000047
:1053380010fe00003f20000000f000000f000000f9
:1053480008000000088000000800000007000000b6
:1053580002000000000000000000000000c0000083
:105368000020000001100000020c00000c030000e7
:1053780030f80000070000000000000004f80000fa
:105388000f080000040800000408000004f80000ea
:1053980007080000040000000000000000000000f2
:1053a800006000000020000008e000001f1000005e
:1053b80008280000044400000202000001800000e8
:1053c80000e000001f380000102600001020000038
:1053d80010e000001f200000100000000000000086
:1053e800000000000020000000700000001e000007
:1053f8003e1000002210000022ff000022100000d2
:1054080022340000225400002252000022920000a0
:105418003e91000022110000221000000000000050
:1054280000000000000000000004000010fc000064
:105438003f8400001084000010f40000178400006e
:1054480010e400001784000010f400001784000026
:10545800148400001284000010fc00001f040000e7
:105468001000000000000000000000000004000020
:1054780010fc00003f44000010c400001724000086
:10548800125c0000128400001144000012b40000f5
:105498001c04000011e400001004000011fc0000ce
:1054a8001f040000100000000000000000000000c1
:1054b800002000000020000004f000000f28000079
:1054c80002c4000001400000033000003cfe000060
:1054d8000f8800000888000008f800000f88000006
:1054e80008f800000f080000080000000000000095
:1054f800000000000010000008f000001f08000075
:1055080000f400000f12000008f000000f10000067
:1055180008f000000f20000004e000000f30000039
:105528000248000001c00000013c00003e000000ed
:105538000000000000000000008000000180000062
:1055480010c000003f200000085800000480000040
:1055580003c0000000be000010c000003f20000093
:10556800105800000880000006800000017e00003e
:1055780000000000000000000000000000c0000063
:105588000084000010fc00003f040000100200002e
:1055980008fc00001f800000009800000088000040
:1055a800088800001f98000000a4000000c2000046
:1055b800308100001f000000000000000000000013
:1055c80000c000000080000000fc00003f04000054
:1055d80020fa00001f2000000850000004ce000040
:1055e8000220000003900000054e00000530000076
:1055f800192e000031c0000020000000000000004b
:105608000000000000800000008000000080000012
:105618000090000004900000088800003088000016
:1056280020840000088200000c80000002000000b6
:1056380001c0000000300000000e00000000000063
:1056480000000000000000000000000010fc000046
:105658003f04000010fc00001f4400000484000008
:1056680002f400001f4400000444000004fc000091
:105678003f4400000444000004220000041100001c
:10568800040000000000000000000000000000000e
:105698000000000008fc00001f80000000800000df
:1056a80000800000008000000080000000800000f2
:1056b80000800000008000000080000010fe000054
:1056c8003f00000000000000000000000000000093
:1056d80000400000004000000040000010fe0000f4
:1056e8003f200000002000000010000008f000002b
:1056f8001f0800000108000001040000010200006a
:105708000100000011f800003f0000000000000048
:10571800000000000020000012fe00003f200000f2
:1057280002f800000f08000008f800000f08000049
:1057380008fe00003f9000000488000008fe0000fa
:105748003f880000088800000e800000000000006c
:1057580000000000000000000080000000000000c1
:1057680011fc00003f8400000084000008f40000e1
:105778001f4400000224000002f400001f0400007f
:1057880002f400003f0200000202000002010000d3
:10579800020000000000000000000000008000007f
:1057a8000000000011fc00003f040000000400009d
:1057b8000084000010840000101400000924000078
:1057c800092400000544000004420000040200000f
:1057d80002f900003f000000000000000000000087
:1057e800008000000000000011fc00003f040000e1
:1057f800042400000ee400000324000002e400007a
:105808003f240000022400000224000002a200003d
:10581800247200002b21000032000000000000006c
:10582800000000000080000010fc00003f040000a1
:105838000044000004fc00003f44000004c40000d1
:105848000704000000f400000f4400000484000076
:105858000202000001c20000063900003800000002
:1058680000000000000000000080000000000000b0
:1058780011fc00003f040000107400000f24000019
:1058880004140000047400001f440000044c0000cd
:1058980004d400003f22000000520000008d0000e8
:1058a8003f000000000000000000000000000000b1
:1058b80008fc00001f200000022000000220000059
:1058c8000220000012fe00003f200000022000001d
:1058d800021000000210000002080000020400008c
:1058e80002020000020000000000000000000000aa
:1058f8000080000000fe0000314800001048000051
:10590800084800000448000031fe00001348000069
:105918000848000004480000304800001044000017
:1059280008440000044200000200000000000000db
:105938000000000000080000010800000108000045
:1059480009ca00001f1a0000092a000009290000de
:1059580009e800003f080000010800000188000075
:105968000248000004280000381800001000000059
:10597800000000000000000000800000008000001f
:1059880010fe00003f8000000040000001200000e1
:1059980002d00000048800001804000010a00000d5
:1059a80000240000112400002524000024c2000067
:1059b8000f00000000000000000000000080000050
:1059c80000fc00001f20000002fe00003f00000055
:1059d80000f800000708000004f8000007080000ad
:1059e80004f8000007400000109400002412000092
:1059f8002ce100000700000000000000000000008b
:105a080000080000028800000a880000127f0000d9
:105a180012c800003f080000012800000918000013
:105a28001f8c0000094b00000a2800000408000031
:105a38000a0f000031c8000020000000000000002c
:105a480000000000000800000208000002c8000072
:105a58001f3f00000208000002c800003f180000b5
:105a6800080c000008eb00003f4800000888000010
:105a780008090000080e00000e0c000004000000d9
:105a880000000000000000000008000002080000fc
:105a98000448000024ff00003f48000012080000ee
:105aa8000228000011d800003f0c0000098b0000fc
:105ab8000888000004080000070f00001ae800002a
:105ac80011000000000000000000000000040000b9
:105ad8000304000002c400003f5f0000202400000f
:105ae8001584000008540000302c000020c7000076
:105af8001f04000002040000020500000207000065
:105b080012e200003f00000000000000000000005a
:105b1800008400000884000008e400003f9f0000a3
:105b280008c400001f44000010d400001f4c0000ef
:105b380010c700001f04000002e400003f0400003a
:105b48000587000018640000300000000000000015
:105b580000000000004000000080000000800000fd
:105b680010fe00003f100000041000000420000098
:105b780002200000024000000180000000400000f8
:105b880001200000021800000c0600003000000090
:105b980000000000000000000008000008f80000f5
:105ba8001f08000008080000080800000808000096
:105bb80008f800000f0800000808000008080000a6
:105bc8000808000008f800000f0800000808000096
:105bd80008000000000000000000000000000000b5
:105be80008120000083e00000812000008d2000059
:105bf8003f120000085e0000089200000912000031
:105c080009120000081e0000081200000800000029
:105c18000f00000004000000000000000000000069
:105c280000f000000710000004f00000071000005a
:105c380004f00000071000000400000010fe00003f
:105c48003f80000000900000009000001f980000b6
:105c580000a4000000c300003f0000000000000096
:105c6800000000000000000010fe00003f8000005f
:105c780000f800000f88000008f800000f880000f6
:105c880008f800000f8800000890000000a000003d
:105c98000040000000b00000010e00003e000000bf
:105ca800000000000000000000f800000f080000dd
:105cb80008f800000f08000008f800000f000000b6
:105cc80010fe00003f44000000fc00003f440000bc
:105cd800117c00000a44000004fe00001a40000085
:105ce8003100000000000000000000000044000037
:105cf8003e44000022fe000022440000224400002e
:105d08003e7c000022440000227c00002244000067
:105d18003eff0000232800002244000021820000ea
:105d28003c410000100000000000000000000000de
:105d380000800000008000000080000010fe0000cd
:105d48003f80000000c0000001a000000290000099
:105d5800048800000884000010f20000278000007a
:105d6800008000000080000000000000000000002b
:105d780000000000002000000020000004f00000e7
:105d88000f2800000244000001c20000013c00008e
:105d98003e80000010fe00003f80000000900000e0
:105da8000488000018e400001080000000000000d3
:105db80000000000000000000048000010c80000bb
:105dc8003f48000000480000007f00001f48000016
:105dd800045c0000046a00001f4a00000449000037
:105de80004c900003f4800000048000010c8000037
:105df8003f0000000000000000000000000000005c
:105e08000000000001000000010000000110000077
:105e180001100000111000003f10000001100000e8
:105e28000110000001100000011000000110000026
:105e380021fe00007f0000000000000000000000bc
:105e480000820000008c000010c800003f400000e5
:105e580000a900001f1a000000e400000f04000061
:105e680008040000080300000802000028030000de
:105e7800280300003002000020000000000000009d
:105e8800000000000002000020f4000021180000bb
:105e98002510000025590000255a0000255400004f
:105ea8002554000025540000255300002542000019
:105eb80020a30000241300003b0a00001200000089
:105ec80000000000000000000002000001040000c3
:105ed80012e400003f8000000849000011aa0000f9
:105ee80028c400000f0400001184000001430000d2
:105ef8001a6200000452000008c20000316200006b
:105f08002000000000000000000000000000000069
:105f180001080000010800000108000011f8000055
:105f28003f080000000800000008000002f8000018
:105f38000708000002080000020400000204000034
:105f48000202000002000000000000000000000043
:105f58000008000010f800003f88000010880000ca
:105f680010f800001f88000010880000108800004a
:105f780010f800001f88000010880000108800003a
:105f8800128400001c8200000800000000000000cd
:105f98000000000000400000004000000040000039
:105fa80008fc00001f4400000844000008fc000032
:105fb8000f4400000844000008fc00000f440000e3
:105fc8000840000010400000308000001f00000062
:105fd80000000000000000000000000010fe0000ab
:105fe8003f0000000000000000f0000007940000df
:105ff8001494000014f40000179400001494000096
:1060080014f400001704000010fc00001f04000036
:1060180010000000000000000000000000800000e8
:106028000008000011f800003f0b000000ea000023
:106038001f0c000004080000020c0000010b000007
:1060480001090000010800000104000001c400006b
:106058000102000001000000000000000000000034
:10606800000c00000304000001020000119f000062
:106078003f9100001051000010310000109f0000f7
:106088001011000011110000111100001011000082
:10609800111f00000e1100000400000000000000a5
:1060a800000000000090000008f000001f900000b1
:1060b8000810000009fe00003f90000008100000d2
:1060c800091000000908000004fc00000f2400006b
:1060d800092400000924000009ff00003f00000017
:1060e8000000000000000000001000000410000084
:1060f800047e00003f100000043800000e54000029
:106108001592000024f800000f00000000fe0000b7
:106118003f8000000088000008e400003082000092
:10612800200000000000000000000000000800003f
:10613800027800003e14000005a2000008c000001c
:1061480000200000011800000606000038f00000da
:10615800034000000c8800000490000002100000ba
:1061680012fe00003f0000000000000000000000d8
:1061780000040000108400003f84000010b20000fa
:1061880010920000108f00001f880000108400008b
:10619800109f0000108200001f800000109800006f
:1061a8001087000010e200003f000000000000001f
:1061b80000000000000400000204000002040000c7
:1061c80005b2000008520000302f000020880000af
:1061d8000f04000000df00003f0200000180000003
:1061e8000858000010e700002f42000020000000bf
:1061f80000000000000000000024000004a40000cb
:1062080024240000253200001532000004af0000ed
:106218003f280000042400000e3f00001522000063
:1062280015a0000024b800002427000000e20000a8
:106238003f00000000000000000000000004000013
:106248000204000002c400001f32000002d2000055
:106258003f8f00002008000015440000049f000044
:1062680004c200003f0000000218000005c700003b
:10627800383200001000000000000000000000009c
:10628800000400000104000012e400003f32000096
:106298001032000010ef00001f28000000a40000ca
:1062a8003fbf00002aa200002aa000003fb800005b
:1062b8002a9700002a8a0000300000000000000031
:1062c8000000000000fc00001f2400001224000051
:1062d80012fc00001f80000000fe00003f8000004c
:1062e80000f000000710000004f000000710000094
:1062f80004f000000710000014fe00003f0000003a
:106308000000000000000000000800000128000054
:10631800114400000dbf000003020000217e0000b0
:10632800214200003e7e00000142000011420000b0
:10633800097e00000742000021420000217200008f
:106348003e00000000000000000000000080000087
:10635800018000000048000008f800001f08000045
:106368000808000008f800000f08000008080000ee
:1063780008f800000f0800000808000008f80000ee
:106388000f080000080000000000000000000000e6
:10639800002000000220000012fe00003f20000044
:1063a80002880000089000001fa200000894000066
:1063b8000890000008900000088c00000688000083
:1063c80020880000200800003f00000000000000b6
:1063d80000000000008000000080000008fc0000b1
:1063e8001f80000000f800000f80000000fe000081
:1063f8003f4000000120000019300000052800007f
:1064080002a40000057300003820000010000000fe
:10641800000000000000000000140000043c000020
:1064280004120000044900003ffe0000254a000055
:10643800254a0000257e0000254a00003f7e000016
:10644800254a0000044a000014490000346900008d
:106458002f00000000000000000000000082000083
:10646800088c00001f8800000880000008880000d1
:10647800085f00003808000000c800001f880000fe
:10648800088800000828000005180000028c000099
:106498000d60000030000000000000000000000057
:1064a80000020000040c00000c08000014e00000ca
:1064b8003f080000041f000004e8000007880000ef
:1064c800048800000488000004a800002498000044
:1064d8002bec00003000000020000000000000004d
:1064e800000000000002000010ec00003f0800005f
:1064f8000100000009c800001f1f00000908000073
:1065080009e800003f080000008800001fa80000fc
:1065180010980000108c00001f8000001000000080
:1065280000000000000000000002000012ec000063
:106538003f08000002c000001f08000002ff000022
:106548003f08000000c800001f48000010c80000f5
:106558001f68000010d800001f4c00001040000009
:106568001c000000000000000000000000400000c7
:106578000040000010fc00003f20000000900000d8
:10658800009000000088000004fc00000f8000005c
:106598000080000010fe00003f8000000080000026
:1065a8000080000000000000000000000000000063
:1065b80000840000088400001f84000008bf000059
:1065c8000f02000000ca00003f89000008bf000059
:1065d8000f88000008b800000f8f0000088800002e
:1065e8003ec8000009080000080000000000000084
:1065f8000000000000010000010600000104000086
:1066080011e000003f00000011040000110f00001d
:1066180011040000118400001084000010440000e0
:106628001e240000080b000000f100003f000000dd
:106638000000000000000000008100000486000047
:106648000484000004e000003f800000048400008f
:1066580004ef00003f84000004840000048400006c
:106668000444000004240000040b000000f10000b2
:106678001f000000000000000000000000410000b2
:1066880008c600001f44000008c000000f400000ba
:1066980008c400000f4f00000a4400001244000024
:1066a8000a4400000444000009e40000300b000024
:1066b80000f100003f0000000000000000000000a2
:1066c80000410000024600000244000002e0000011
:1066d8001f1000000204000012ef00003f840000b9
:1066e80004840000048400002444000024240000e2
:1066f800380b000000f100003f000000000000001f
:106708000000000000c200001f0c00000888000004
:106718000500000002c000001f48000012df000052
:106728001f48000012c800001f480000124800005f
:10673800124800001a16000020e100001f000000a7
:106748000000000000000000000100000106000039
:1067580011f400003f00000001e000000f240000d9
:10676800092f000009e400000f240000098400003c
:106778000544000019240000110b000001f100007d
:106788003f000000000000000000000000180000aa
:106798003e10000022fe00002244000012480000c3
:1067a800122800000aff000013000000127c0000fd
:1067b8002244000022440000264400003a7c0000e5
:1067c8001244000002000000000000000000000069
:1067d8000002000010c200003f3e0000120200004c
:1067e80012010000121f00001204000012c4000071
:1067f8001f3f0000110400001124000011140000c4
:10680800110e000011e400003f000000000000002d
:10681800000000000004000010d800003f10000035
:106828001002000010f20000131200001212000003
:1068380012f200001312000012f2000013120000fe
:1068480012020000100200001e02000008000000f2
:10685800000000000000000000040000093f0000e4
:106868001f840000087f0000048400001f7f0000d0
:106878001200000012ff00003f21000012bf0000bc
:106888001f210000123f000002a100000339000090
:1068980002000000000000000000000000000000ee
:1068a80010fe00003f8000000048000008f80000cb
:1068b8001f080000088800000888000008880000f9
:1068c8000888000008480000084000000320000075
:1068d8000c1e000030000000000000000000000056
:1068e8000080000010fe00003f00000000f00000e3
:1068f8000710000004f000000700000000fc000082
:106908001f04000010e400001324000012e400003b
:10691800130400001c040000080000000000000030
:10692800000000000000000000e00000011000006e
:106938000208000004080000040800000400000029
:1069480002000000018000000080000000800000bc
:106958000000000000c0000000c0000000000000af
:10696800000000000000000090000000000000008f
:106978008000000000000000b60000009300000046
:10698800000000008d000000ba00000000000000b8
:10699800b400000088000000000000007d00000036
:1069a800ab00000031000000000000007d00000086
:1069b800ab0000003200000000000000ae00000044
:1069c80097000000000000009a0000008b00000003
:1069d8007b00000000000000b400000088000000f8
:1069e8007b00000000000000a6000000310000004d
:1069f8002000000000000000a60000003200000097
:106a080000000000ad000000a9000000990000008f
:106a1800b900000087000000980000009b000000fb
:106a2800000000009f0000008e000000af00000082
:106a3800b100000000000000b2000000b00000003b
:106a4800af000000b100000000000000b20000002c
:106a5800b7000000af000000b10000000000000017
:106a68007f000000a2000000520000003600000075
:106a7800a30000007e000000ac0000000000000041
:106a880092000000960000009e00000091000000a7
:106a98000000000094000000b80000000a00000098
:106aa8008a000000b60000009d0000000a000000f7
:106ab80084000000b600000094000000b800000048
:106ac8000a000000a6000000850000009d000000ec
:106ad8000a000000a0000000830000009c000000e5
:106ae8000a000000b50000008f0000009c000000b4
:106af8000a00000081000000ab0000009d000000bb
:106b08000a000000a8000000b30000009d0000007b
:106b18000a0000009a0000008b0000007b000000c3
:106b280000000000b4000000880000007b000000a6
:106b38000a0000007d000000ab0000000a00000011
:106b48007d000000ab000000a40000000a00000067
:106b580089000000a10000000a000000aa0000004f
:106b68008c0000007c0000009500000082000000fe
:106b78000a000000a5000000860000000a000000ce
:106b8800a7000000890000000a000000450000007e
:106b9800430000004700000000000000450000001e
:106ba8006e000000670000006c0000006900000033
:106bb80073000000680000000a00000043000000a5
:106bc80068000000690000006e0000006500000019
:106bd8007300000065000000000000004c00000089
:106be800610000006e0000006700000075000000f2
:106bf8006100000067000000650000000000000060
:106c08004f0000006e000000000000004f00000070
:106c1800660000006600000000000000530000004d
:106c2800650000006c0000006500000063000000c3
:106c380074000000690000006f0000006e00000092
:106c480000000000410000006c0000006900000026
:106c5800670000006e0000006d0000006500000085
:106c68006e00000074000000000000004f000000eb
:106c78004b000000000000004d000000650000000f
:106c88007400000065000000720000003100000080
:106c9800000000004d0000006500000074000000c6
:106ca80065000000720000003200000000000000d3
:106cb80056000000610000006c0000007500000034
:106cc80065000000000000004d0000004f000000bb
:106cd80052000000450000002e0000002e000000b9
:106ce8002e000000000000004200000041000000eb
:106cf800430000004b0000002e0000002e000000a2
:106d08002e00000000000000470000007200000094
:106d18006f000000750000007000000020000000f7
:106d28003100000000000000470000007200000071
:106d38006f000000750000007000000020000000d7
:106d48003200000000000000530000006500000051
:106d580074000000200000005400000069000000da
:106d68006d000000650000002000000061000000c8
:106d78006e000000640000002000000044000000d5
:106d880061000000740000006500000000000000c1
:106d98004e0000006f000000720000006d0000004f
:106da800610000006c000000200000004c000000a2
:106db8006f00000061000000640000000000000097
:106dc8004c00000069000000670000006800000037
:106dd80074000000200000004c0000006f0000005c
:106de800610000006400000000000000480000008e
:106df80065000000610000007600000079000000d6
:106e0800200000004c0000006f000000610000003e
:106e1800640000000000000055000000730000003e
:106e2800690000006e0000006700000020000000fc
:106e3800500000006f0000007400000065000000b2
:106e48006e00000074000000690000006f00000080
:106e58006d0000006500000074000000650000007f
:106e680072000000000000005300000063000000f2
:106e7800610000006e000000200000004d000000ce
:106e88006f000000640000006500000000000000c2
:106e9800420000007500000074000000740000004b
:106ea8006f0000006e0000000a00000043000000b0
:106eb8006800000065000000630000006b0000002f
:106ec800620000006f000000780000000a00000067
:106ed800520000006100000064000000690000002a
:106ee8006f00000020000000620000007500000034
:106ef80074000000740000006f0000006e000000c5
:106f0800730000000a000000470000007200000043
:106f18006f000000750000007000000020000000f5
:106f2800420000006f000000780000000a00000026
:106f3800530000006c0000006900000064000000bd
:106f480065000000720000000a0000005000000008
:106f5800720000006f00000067000000720000006f
:106f680065000000730000007300000020000000ae
:106f78006200000061000000720000000a000000ca
:106f88004c0000006900000073000000740000005d
:106f980020000000620000006f0000007800000080
:106fa8000a000000450000006400000069000000bd
:106fb8007400000020000000620000006f00000064
:106fc800780000000a0000004d0000004f0000009b
:106fd80052000000450000002e0000002e000000b6
:106fe8002e000000000000004200000041000000e8
:106ff800430000004b0000002e0000002e0000009f
:107008002e0000000a0000004d000000650000008e
:107018007400000065000000720000000a00000013
:107028004400000069000000610000006c000000de
:107038000a00000050000000690000006300000022
:107048007400000075000000720000006500000078
:107058000a000000430000007500000073000000f3
:10706800740000006f0000006d00000020000000a8
:10707800630000006f0000006e0000007400000054
:10708800720000006f0000006c0000000a000000a1
:107098005300000069000000670000006e00000057
:1070a800610000007400000075000000720000001c
:1070b800650000000a000000500000006c0000009d
:1070c8006f000000740000007400000069000000f8
:1070d8006e000000670000000a0000004500000084
:1070e80043000000470000000000000045000000c9
:1070f8006e000000670000006c00000069000000de
:1071080073000000680000000a000000430000004f
:1071180068000000690000006e00000065000000c3
:107128007300000065000000000000004c00000033
:10713800610000006e00000067000000750000009c
:10714800610000006700000065000000000000000a
:10715800de000000da000000b8000000a600000011
:10716800a90000008000000088000000b3000000b3
:1071780089000000d5000000d2000000d300000004
:1071880000000000b6000000e80000000000000059
:10719800a1000000e4000000c200000000000000a0
:1071a800dd00000000000000d00000009b0000008f
:1071b800c200000000000000ea000000b200000069
:1071c800b9000000c000000000000000c600000078
:1071d80094000000c100000000000000e200000070
:1071e800ad000000c1000000000000009100000098
:1071f800d9000000c200000000000000d400000018
:10720800e0000000c200000000000000870000004d
:10721800d90000000000000087000000d90000002d
:10722800cd000000000000009f000000c700000023
:1072380000000000d7000000a30000008500000047
:10724800b70000009200000000000000cf0000001e
:107258009c00000000000000d10000009f0000001a
:107268000000000045000000430000004700000047
:107278000000000084000000eb0000000000000097
:1072880084000000eb000000310000000a0000004c
:1072980084000000eb000000320000000000000045
:1072a8008a00000000000000ec0000000000000060
:1072b800af000000000000008e0000000000000089
:1072c8008b000000d600000000000000ce00000087
:1072d800c300000000000000b9000000c00000006a
:1072e800a8000000e100000000000000b900000054
:1072f800c0000000ac000000e70000000000000033
:107308005200000062000000310000000000000090
:10731800520000006200000032000000000000007f
:10732800520000006200000033000000000000006e
:10733800450000006e000000670000006c000000bf
:1073480069000000730000006800000000000000f1
:1073580083000000b9000000000000005200000097
:107368006200000036000000000000004d00000030
:107378006900000063000000720000006f00000058
:107388006300000068000000690000007000000051
:107398000a0000009f000000b000000095000000f7
:1073a800aa000000ea0000000a000000b200000085
:1073b800b9000000c00000000a0000009d000000a5
:1073c800d00000009b0000000a000000c20000007e
:1073d800c5000000dc00000000000000a80000005c
:1073e8000000000083000000000000009900000079
:1073f80000000000500000004900000043000000a9
:10740800cc000000be000000b10000000a0000002f
:10741800e6000000ad000000bc000000a200000073
:10742800a5000000ed000000000000003f00000083
:10743800000000009700000082000000000000002b
:1074480083000000e900000000000000ab0000001d
:10745800c80000000a000000a4000000c9000000e5
:107468000a000000a4000000ae000000d7000000e1
:1074780094000000950000000a000000a70000002a
:1074880081000000b7000000920000000a00000020
:1074980096000000cb000000db000000a000000008
:1074a8000a000000c4000000df0000000a0000001d
:1074b8008600000098000000bd000000a200000047
:1074c8007b00000000000000b40000009a000000eb
:1074d800830000007b000000000000008c0000001a
:1074e800b5000000e50000008d0000007b000000f2
:1074f800000000008c000000b50000000000000043
:1075080093000000e6000000000000008f0000006b
:10751800e600000000000000d80000009e00000007
:107528000000000094000000ca00000000000000f5
:107538007e00000020000000000000002000000085
:107548007f000000000000007c0000000000000038
:107558007d00000000000000e30000009000000033
:1075680000000000db000000d5000000bb000000a8
:10757800e90000009d000000ba000000bf00000004
:1075880000000000540000006f00000075000000bb
:107598006300000068000000200000007300000085
:1075a8006300000072000000650000006500000034
:1075b8006e00000020000000740000006f00000052
:1075c80020000000630000006f0000006e00000053
:1075d80074000000690000006e00000075000000e3
:1075e8006500000000000000420000007500000077
:1075f80074000000740000006f0000006e000000be
:107608007300000000000000430000006800000054
:1076180065000000630000006b00000062000000cd
:107628006f00000078000000000000004c0000001f
:10763800610000006e000000670000007500000097
:107648006100000067000000650000000000000005
:1076580047000000720000006f0000007500000085
:1076680070000000420000006f0000007800000079
:1076780000000000530000007400000061000000da
:10768800740000006900000063000000540000005e
:107698006500000078000000740000000000000091
:1076a800530000006c000000690000006400000046
:1076b800650000007200000000000000500000009b
:1076c800720000006f0000006700000072000000f8
:1076d8006500000073000000730000002000000037
:1076e800620000006100000072000000000000005d
:1076f8004c000000690000007300000074000000e6
:1077080020000000620000006f0000007800000008
:10771800000000004500000064000000690000004f
:107728007400000020000000620000006f000000ec
:1077380078000000000000004d0000006500000017
:1077480074000000650000007200000000000000e6
:107758004400000069000000610000006c000000a7
:1077680000000000500000006900000063000000f5
:107778007400000075000000720000006500000041
:1077880000000000430000007500000073000000c6
:10779800740000006f0000006d0000002000000071
:1077a800430000006f0000006e000000740000003d
:1077b800720000006f0000006c0000000000000074
:1077c8005300000069000000670000006e00000020
:1077d80061000000740000007500000072000000e5
:1077e8006500000000000000500000006c00000070
:1077f8006f000000740000007400000069000000c1
:107808006e00000067000000000000004500000056
:10781800430000004700000000000000480000008e
:107828006f0000006d00000065000000000000000f
:10783800480000006f0000006d00000065000000b7
:10784800310000000a000000480000006f0000003e
:107858006d0000006500000032000000000000001c
:107868004c0000006f0000007700000000000000de
:107878004800000069000000670000006800000080
:10788800000000004f0000006e0000000000000033
:107898004f000000660000006600000000000000c5
:1078a800450000006e00000061000000620000005a
:1078b8006c0000006500000064000000000000008b
:1078c800440000006900000073000000610000002f
:1078d800620000006c000000650000006400000009
:1078e800000000005400000065000000780000005f
:1078f80074000000200000004c000000650000003b
:107908006600000074000000000000005400000041
:1079180065000000780000007400000020000000ee
:10792800420000006f0000007400000074000000b6
:107938006f0000006d000000000000005200000011
:10794800620000003100000000000000520000004a
:107958006200000032000000000000005200000039
:107968006200000033000000000000004500000035
:107978006e000000670000006c0000006900000055
:107988007300000068000000000000008300000091
:10799800b900000000000000520000006200000072
:1079a80036000000000000004d00000069000000e3
:1079b80063000000720000006f0000006300000018
:1079c8006800000069000000700000000a00000064
:1079d8004700000072000000610000007000000015
:1079e80068000000690000006300000073000000e8
:1079f8000a0000004c00000069000000620000005e
:107a080072000000610000007200000079000000b0
:107a18000a0000005300000074000000610000002c
:107a280074000000690000006300000020000000ee
:107a38005400000065000000780000007400000099
:107a480020000000260000000a0000004700000097
:107a5800720000006f000000750000007000000058
:107a680020000000420000006f00000078000000c5
:107a780020000000540000006500000073000000b2
:107a880074000000000000004c000000000000002e
:107a98004300000000000000520000000000000049
:107aa800480000006f000000770000002000000080
:107ab8006600000061000000730000007400000010
:107ac800200000000a0000006300000061000000c0
:107ad8006e00000020000000500000004900000077
:107ae8004300000020000000670000006f00000055
:107af8003f000000000000003f0000000000000000
:107b080053000000690000006e00000067000000dc
:107b18006c00000065000000000000004300000049
:107b2800650000006e0000007400000065000000a1
:107b3800720000000000000041000000700000001a
:107b4800700000006c000000690000006300000085
:107b58006100000074000000690000006f00000070
:107b68006e000000730000000a00000048000000da
:107b78006f0000006d00000065000000200000009c
:107b88004100000070000000700000006c00000060
:107b980069000000610000006e0000006300000042
:107ba80065000000730000000a00000048000000a3
:107bb8006f0000006d00000065000000200000005c
:107bc8004100000075000000740000006f00000014
:107bd8006d000000610000007400000069000000f2
:107be8006f0000006e0000000a000000490000005d
:107bf8006e000000640000007500000073000000c3
:107c080074000000720000006900000061000000bc
:107c18006c00000020000000430000006f0000001e
:107c28006e00000074000000720000006f00000089
:107c38006c000000730000000a0000004d00000006
:107c48006500000064000000690000006300000097
:107c5800610000006c0000002000000044000000eb
:107c68006500000076000000690000006300000065
:107c780065000000730000000a00000041000000d9
:107c880075000000740000006f0000006d00000027
:107c98006f0000007400000069000000760000001a
:107ca800650000000a000000610000006e0000008e
:107cb80064000000200000006d0000007500000056
:107cc8006300000068000000200000006d00000054
:107cd8006f00000072000000650000002e00000028
:107ce8002e0000002e0000000000000043000000ed
:107cf800610000006c0000006c00000069000000da
:107d08006e000000670000002e0000002e0000003a
:107d18002e00000000000000480000006f00000076
:107d28006c00000064000000690000006e000000a4
:107d3800670000002e0000002e0000002e0000004a
:107d480000000000480000006f0000006c00000008
:107d58006400000000000000410000006300000013
:107d680063000000650000006c00000000000000d7
:107d780044000000630000006c0000007200000076
:107d880074000000000000005300000063000000c1
:107d9800610000006c0000006500000000000000a9
:107da800410000006e000000690000006d00000046
:107db8006100000074000000650000000000000081
:107dc8007e000000200000000000000020000000ed
:107dd8007f000000000000007c00000000000000a0
:107de8007d00000000000000450000007800000051
:107df800690000007400000000000000530000004b
:107e0800650000007400000020000000540000001d
:107e1800690000006d0000006500000020000000ff
:107e2800610000006e0000006400000020000000f7
:107e380044000000610000007400000065000000bc
:107e48000000000000000000c48a000000000000dc
:107e5800dc8c000000000000269c000000100000e0
:107e6800000000000a450000000100004900000071
:107e7800370000008a070000000000001908000011
:107e880000000000040000000010000000000000d6
:107e9800944c0000000100003000000023000000a6
:107ea80079020000000000006e03000000000000de
:107eb8000400000000100000000000000e4f000049
:107ec800000100009e00000037000000f91c0000bf
:107ed80000000000f8230000000000000800000077
:107ee80000000000086c0000000100000010000005
:107ef80000000000926c00000001000098000000e3
:107f0800280000009405000000000000060c000096
:107f180000000000040000000000000026720000bd
:107f2800000100000000000036730000000100009e
:107f3800001000000000000046740000000100006e
:107f4800780000002c0000008904000000000000f8
:107f5800760a000000000000040000000010000085
:107f680000000000d0780000000100007800000048
:107f78002c0000004705000000000000760a000001
:107f880000000000040000000010000000000000d5
:107f9800187e0000000100004900000037000000c2
:107fa800540700000000000019080000000000004d
:107fb8000400000000100000000000006c850000b4
:107fc80000010000490000003700000054070000cd
:107fd8000000000019080000000000000400000074
:107fe8000010000000000000c08c0000000100002c
:107ff800490000003700000067070000000000008b
:108008001908000000000000040000000010000033
:10801800000000002894000000010000300000006b
:1080280023000000c6020000000000006e030000ec
:10803800000000000400000000000000ee960000b0
:1080480000010000680000006800000068000000ef
:108058006800000068000000690000006800000077
:10806800680000006800000067000000670000006a
:10807800660000006600000068000000680000005c
:10808800680000006700000066000000660000004d
:108098006600000066000000650000006500000042
:1080a8006500000065000000650000006500000034
:1080b800640000006300000063000000630000002b
:1080c8006400000064000000650000006500000016
:1080d8006400000064000000640000006400000008
:1080e80065000000660000006600000062000000f5
:1080f8006100000060000000590000005500000009
:108108004a00000049000000470000004700000046
:10811800480000004a0000004f0000005300000023
:10812800560000005c0000005d00000060000000d8
:1081380061000000620000006400000064000000ac
:108148006400000065000000660000006700000091
:10815800680000006800000069000000700000006e
:10816800700000005500000030000000040000000e
:10817800280000005d0000006c000000690000009d
:108188006900000069000000690000006800000044
:108198006700000065000000630000006100000047
:1081a8005e0000005e000000620000006400000045
:1081b800660000006700000068000000680000001a
:1081c8006a00000002000000030000000600000032
:1081d80000010000010000004a00000061000000ea
:1081e8006e0000000a000000460000006500000064
:1081f800620000000a0000004d000000610000005d
:10820800720000000a000000410000007000000039
:10821800720000000a0000004d000000610000002c
:10822800790000000a0000004a0000007500000004
:108238006e0000000a0000004a00000075000000ff
:108248006c0000000a0000004100000075000000fa
:10825800670000000a0000005300000065000000ed
:10826800700000000a0000004f00000063000000da
:10827800740000000a0000004e0000006f000000bb
:10828800760000000a0000004400000065000000bd
:108298006300000000000000300000003100000012
:1082a8000a00000030000000320000000a00000050
:1082b80030000000330000000a0000003000000019
:1082c800340000000a000000300000003500000003
:1082d8000a00000030000000360000000a0000001c
:1082e80030000000370000000a00000030000000e5
:1082f800380000000a0000003000000039000000cb
:108308000a00000031000000300000000a000000f0
:1083180031000000310000000a00000031000000b8
:10832800320000000a0000003100000033000000a5
:108338000a00000031000000340000000a000000bc
:1083480031000000350000000a0000003100000084
:10835800360000000a00000031000000370000006d
:108368000a00000031000000380000000a00000088
:1083780031000000390000000a000000320000004f
:10838800300000000a000000320000003100000048
:108398000a00000032000000320000000a0000005d
:1083a80032000000330000000a0000003200000024
:1083b800340000000a000000320000003500000010
:1083c8000a00000032000000360000000a00000029
:1083d80032000000370000000a00000032000000f0
:1083e800380000000a0000003200000039000000d8
:1083f8000a00000033000000300000000a000000fe
:1084080033000000310000000000000030000000d0
:10841800300000000a0000003000000031000000b9
:108428000a00000030000000320000000a000000ce
:1084380030000000330000000a0000003000000097
:10844800340000000a000000300000003500000081
:108458000a00000030000000360000000a0000009a
:1084680030000000370000000a0000003000000063
:10847800380000000a000000300000003900000049
:108488000a00000031000000300000000a0000006f
:1084980031000000310000000a0000003100000037
:1084a800320000000a000000310000003300000024
:1084b8000a00000031000000340000000a0000003b
:1084c80031000000350000000a0000003100000003
:1084d800360000000a0000003100000037000000ec
:1084e8000a00000031000000380000000a00000007
:1084f80031000000390000000a00000032000000ce
:108508003000000000000000700000007200000051
:108518006f0000006d000000700000007400000093
:1085280020000000610000007000000070000000e2
:108538006500000061000000720000007300000088
:108548002e00000000000000750000006e00000012
:1085580074000000690000006c00000020000000aa
:1085680074000000680000006500000020000000a2
:1085780063000000610000006c000000690000005a
:10858800620000007200000061000000740000003a
:10859800690000006f0000006e000000000000008d
:1085a8007000000072000000650000007300000009
:1085b80073000000690000006e0000006700000002
:1085c800200000006f0000006e0000002000000086
:1085d8007400000068000000650000002000000032
:1085e80073000000630000007200000065000000d6
:1085f80065000000650000006e000000000000003b
:1086080072000000650000007300000065000000b3
:1086180074000000200000007400000068000000e2
:108628006500000020000000620000006f000000ec
:1086380061000000720000006400000020000000db
:108648007700000068000000690000006c0000006e
:108658006500000000000000540000006f000000ea
:1086680020000000520000004500000050000000fb
:1086780045000000410000005400000020000000f8
:1086880063000000610000006c0000006900000049
:108698006200000072000000610000007400000029
:1086a800690000006f0000006e0000002c00000050
:1086b80000000000630000006f0000006e00000072
:1086c80074000000690000006e00000075000000e2
:1086d800650000002e0000000000000054000000ab
:1086e8006f000000750000006300000068000000d3
:1086f800200000007300000063000000720000000a
:1087080065000000650000006e0000002000000009
:10871800740000006f0000000000000073000000fb
:1087280063000000720000006500000065000000a2
:108738006e000000200000006300000061000000df
:108748006c00000069000000620000007200000078
:108758006100000074000000690000006f00000064
:108768006e0000002e000000000000005000000015
:108778006500000072000000660000006f00000045
:10878800720000006d000000690000006e0000002b
:108798006700000020000000740000006f00000067
:1087a8007500000063000000680000000000000081
:1087b80000010000000100000001000000010000ad
:1087c800ff000000ff000000ff000000fe000000a6
:1087d800fe000000fd000000fc000000fb0000009f
:1087e800fa000000f9000000f8000000f70000009f
:1087f800f6000000f5000000f3000000f2000000a1
:10880800f1000000ef000000ed000000ec000000a7
:10881800ea000000e8000000e6000000e4000000b4
:10882800e2000000e0000000de000000db000000c5
:10883800d9000000d7000000d4000000d2000000da
:10884800cf000000cc000000ca000000c7000000f4
:10885800c4000000c1000000be000000bb00000012
:10886800b8000000b5000000b2000000af00000032
:10887800ab000000a8000000a5000000a100000057
:108888009e0000009a00000096000000930000007f
:108898008f0000008b0000008800000084000000aa
:1088a800800000007c0000007800000074000000d8
:1088b800700000006c000000680000006400000008
:1088c800600000005c000000580000005300000039
:1088d8004f0000004b00000047000000420000006d
:1088e8003e0000003a0000003500000031000000a2
:1088f8002c00000028000000240000001f000000d9
:108908001b00000016000000120000000d0000000f
:1089180009000000040000000000000014f100003d
:1089280050000000720000006500000073000000a5
:108938007300000020000000260000002000000056
:1089480052000000650000006c0000006500000097
:1089580061000000730000006500000000000000d6
:10896800630000006900000072000000630000005e
:108978006c00000065000000000000006f000000af
:108988006e00000020000000740000006800000075
:10899800650000002000000066000000690000007b
:1089a8006c0000006c00000065000000640000001e
:1089b800000000001f1c00001f1e00001f1e0000fa
:1089c8001f1f00001e1f00001e1f000000030000e4
:1089d8000306000001040000060200000500000074
:1089e80003050000b02a00003ed70000e90000009f
:1089f800ffff0000bbf70000ddae00003e260000d0
:0c8a08009fb600007ed700002ebf0000cb
:020000040000fa
:108a1400000400003700000049000000214000006d
:108a2400a1c3000041ab0000c192000026c40000b5
:108a34000ad50000d1d5000080180000617a00003a
:108a44000b9c0000e1610000669b0000e030000028
:108a540060510000ffff00000000000048660000b5
:108a640002f600000006000055450000443a0000ec
:108a7400140200004406000055020000f500000046
:108a84000811000022880000da360000dd02000030
:108a9400ad0200008a02000023020000120200005e
:108aa40014020000f40000004a220000a3cc0000dd
:108ab400c7c700007777000077770000c77700000a
:108ac4007cc70000777c0000c77700007777000040
:108ad4007cc70000777c0000c77700007cc70000db
:108ae400777c0000c77700007ccc00008a2200005d
:108af40012f100000006000032d80000ad3a000078
:108b0400aa020000ca020000ac0200002302000016
:108b140021020000f10000004a320000aaca00004d
:108b2400ccdc00008abb000038830000dacc0000f3
:108b3400cccc0000cccc0000ddb800008bd8000009
:108b4400cccc0000ccdc0000cccd0000dccc0000a0
:108b5400cddc0000cccd0000ccad0000dd28000051
:108b640012f20000004a0000328800007700000082
:108b740000cc00009db90000abcc0000cccc0000c0
:108b84007c77000077770000bcbb0000b9d0000000
:108b9400d80000007000000007700000000700000b
:108ba400700000000700000077da0000382200009f
:108bb400f100000004320000d206000000000000b2
:108bc4000ed0000023540000a3ad0000dadd000045
:108bd40004cc000004770000000a0000ac5400003c
:108be40055560000b9160000000200007002000093
:108bf400aa02000038020000120200007200000005
:108c040004220000d20600000000000012800000d0
:108c140014110000d8a80000aacd0000ddcc00008b
:108c240004770000000a0000d7530000558b0000b1
:108c3400da180000000200008d0200003802000073
:108c440022020000f10000001e220000d1000000fa
:108c5400d064000055410000218a000088d800003b
:108c640028220000a2cc00000477000000060000c7
:108c740048450000a1180000000200007002000036
:108c84008a020000380200002202000002000000f4
:108c940016220000d1000000d08300005b550000c4
:108ca40031380000833a000006110000000c000077
:108cb400c37c0000771d0000448500001a000000fa
:108cc400023a000002330000022200000202000007
:108cd400004a000022d1000000000000d08d0000f6
:108ce4001231000033830000131100001111000041
:108cf40031c70000772c000054540000bb0800006a
:108d0400000000000000000000000000000000005f
:108d140000000000008a0000382200000200000069
:108d24004a220000d10000000000000018220000c8
:108d3400812300003311000011a80000111100006c
:108d4400cd7700003c54000055550000040000009d
:108d5400000000000000000000000000000000000f
:108d6400007000003a38000022020000004a0000af
:108d740022d20000000000000013000011310000a6
:108d84003233000011310000771d000011c80000cb
:108d94007c37000011820000dd0a000000000000a2
:108da4000000000000aa0000000000000000000015
:108db400008a000038220000020000004a2200005d
:108dc400d1000000a055000046110000312200002f
:108dd40022110000817700001d110000c8cc0000a2
:108de4002c110000210d000000000000005d0000b7
:108df4000b000000450d0000d00d00000000000035
:108e04003a38000022020000004a000022d200008a
:108e1400008000008b880000332400002222000020
:108e240011110000a812000011c80000cc1c0000a1
:108e34001121000000000000000000004ad10000e1
:108e4400a02500000d400000d5000000708a00003d
:108e540038230000020000004a220000a2000000a3
:108e6400d0dd00003d330000242200002212000067
:108e74001111000011110000ddcc00001d440000a0
:108e840055890000d0440000001d000031bd0000e1
:108e9400140a000058030000000000008a38000093
:108ea40022020000004a000032d20000000000004c
:108eb400008d000033420000122200001211000055
:108ec4001111000031dd0000cc18000032b80000a0
:108ed40055030000440b00004854000066450000a0
:108ee4009545000008000000088a000038230000af
:108ef400030000004a220000d2000000000000002d
:108f0400483100005322000021220000111100000a
:108f140011a30000dddd000014220000d3ac00002a
:108f24000a180000556600006566000056660000d9
:108f340046d2000090a500008a38000033020000e9
:108f4400004a000032d2000000000000404500004a
:108f5400a8ba00002521000022230000228200007c
:108f6400aada00003d140000220300008b00000078
:108f74001a6500006666000066660000665500001b
:108f840055650000c88a0000382300000200000074
:108f94004a330000a200000000b80000d88d000091
:108fa4008a45000012220000223300008888000055
:108fb400da58000083410000db540000ab65000078
:108fc4006566000056b400004b550000555500007e
:108fd400360a00008a88000033030000004a0000bb
:108fe40032d2000000000000a00d0000aa8800009a
:108ff400582400002122000033330000883a000086
:1090040025880000ba460000286500006666000056
:10901400b5da0000dddd00008a54000065140000ac
:10902400738a00003a330000020000004a33000053
:10903400d200000000000000002d0000a28d0000fe
:109044005522000022220000338800005432000020
:1090540088d800004a8b000051660000b5ca0000a1
:109064007777000077c700003a540000548400006a
:109074008388000033030000004a000033d200005c
:1090840000000000000000005bd80000dd9a000032
:109094005624000032b30000548500003d32000025
:1090a400daad0000bd55000056d30000777700000c
:1090b4007777000077d700001845000095ab0000d3
:1090c4008a330000030000004a330000d20000008d
:1090d4000000000030840000aaad0000caba0000fd
:1090e4006565000055b90000aada000044b000002c
:1090f400955b0000553500007a7700007777000013
:1091040077770000773c000051350000888a000022
:1091140033030000004a000033d2000000000000c6
:1091240000a00000d8d0000038dd0000cddd000034
:10913400aada0000dda80000da5a00003b5b000058
:1091440066650000a4770000777700007777000059
:1091540077770000d742000031a300008833000075
:10916400030000004a830000d20000000000000059
:10917400000d000000110000dadc0000dddc00005e
:10918400ddcd000038da00008da40000ad520000ef
:1091940055c8000077770000c78d0000da7c000016
:1091a400cc7c000018310000a38a000038030000c2
:1091b400004a000033d3000000000000000000005b
:1091c4000080000034da00003aca0000dcd8000055
:1091d400dd4300000aa00000083000004425000020
:1091e4007a7c0000cc18000011110000d3cc0000e0
:1091f400cc2c000021a200008a33000003000000f0
:109204004a830000d20000000000000000000000bb
:10921400308300000a130000a38d000032dd00003b
:109224004803000000000000b055000025cd0000f8
:10923400cc8c00001111000011210000dddd0000c4
:109244003c310000a38a000038080000004a0000f6
:1092540083d300000000000000000000580d00004f
:109264008db5000013d3000030210000003a000047
:109274000b0000005456000055340000cccd000013
:109284001a1100002111000011d80000dd8d00002a
:1092940081a800008a380000030000004a8300000f
:1092a400d200000000000000005a000009a00000e5
:1092b40044380000588b000032000000a00d00006c
:1092c400d0bb00004b44000031dd0000dd13000082
:1092d400117800002c110000a2aa0000ad8100004a
:1092e400a38a000088080000004a000083d300001d
:1092f40000a0000085000000bad500003d54000025
:10930400d0420000dbaa00000000000000000000c2
:10931400d03d000011310000addd0000121100004d
:109324007c370000118100008a8a000031a300000c
:10933400aa880000030000004a880000d30000004f
:10934400a06400000d2300005645000065b5000030
:1093540041030000d00800000000000000000000ed
:109364001011000021aa0000aa12000011780000c8
:109374002c1100008188000088840000a88a000065
:1093840088080000004a000088d3000000000000a4
:109394005a46000015660000566500006654000039
:1093a4000b1d00008500000000000000004d0000bf
:1093b400451400008a8800001311000021110000e8
:1093c4001132000033380000d4a80000aa8800003d
:1093d400080000004a880000a30a000000380000ca
:1093e400565500005556000066660000669600005b
:1093f40041d1000000000000005a00006614000083
:1094040011830000881300001111000011110000e5
:109414003223000048a20000a8aa00008808000027
:10942400004a0000888300006b880000115400008b
:1094340055540000445400006666000066140000a1
:109444000a0000000000000092a30000281200009f
:1094540032330000331100001111000021220000fa
:1094640022530000a2a80000ad88000008000000fc
:109474004a880000a34d000056410000512400001a
:10948400a3da0000ad28000065660000550a00005c
:10949400800d000000dd0000dd120000123100002c
:1094a40023220000221100001122000022320000b9
:1094b40044da0000a3ad000088080000004a000060
:1094c400a8d30000ac5b000011110000d37c0000a5
:1094d40077770000dc4a000066660000365400001e
:1094e40004000000000000001821000044230000d4
:1094f4002222000022220000211100002235000057
:10950400daaa0000ad8a0000080000004aa80000a2
:10951400d320000012150000a1cc0000cccc000028
:1095240077770000d763000066560000140a000035
:1095340000000000d05500008343000024210000f7
:10954400111100001111000011620000a4da0000e2
:10955400a8ad0000a8080000004a0000a88300008d
:109564002821000011ca0000ddcd0000cccc000091
:10957400777700002d66000046d20000000000004e
:10958400006a0000a53800003345000012110000f5
:109594001111000011b10000b68d0000d3aa000023
:1095a400adaa0000080000004aa80000481400000a
:1095b40011810000addd0000cdcc00007c7c0000fa
:1095c40077d700006b650000050000000000000074
:1095d400b3dd0000382300004845000012110000ec
:1095e4001141000065d30000dab30000d3ad0000e0
:1095f4008a0a0000004a0000a88800004811000000
:10960400d2aa0000daad00008aca00007c7700000c
:10961400c758000066850000b80a000000d00000aa
:10962400002d000081aa00005b5500004554000095
:1096340056a90000dada00008ad20000adaa0000c0
:10964400080000004aa80000883a000042a8000070
:1096540088aa00001311000021ca00007c770000d2
:109664004d66000066550000040000000000000084
:109674005adb000088a80000ba590000b9a3000012
:10968400dd8a0000aadd0000d8ad0000aa0a0000af
:10969400004a0000a8380000384100003a88000061
:1096a4002a1100001111000081c70000773c00005e
:1096b40055150000830a000000000000004500006a
:1096c400aa880000d3da0000cddd0000dddd000053
:1096d4002a02000000aa0000adaa00000a0000004f
:1096e4004aa8000033330000243800008813000027
:1096f4001121000011110000cd7c0000a7540000ce
:10970400450d00000000000000a00000ab0d0000ab
:109714004ad30000aad80000ddaa0000dd2800001a
:10972400a1700000aadd0000aa0a0000004a00009f
:10973400883b000038b400003333000011110000ee
:109744007d1a000011c80000cc87000054550000a9
:10975400000000000000000000dd0000005a0000ce
:10976400a88d0000a2ad0000230800003d310000d8
:1097740000ad0000adaa00000a0000004ab80000d5
:109784008b8d00002433000033110000317700007a
:109794001c110000c3cc0000ac640000658900000b
:1097a4000a00000000000000000000001b08000088
:1097b40020810000dd12000003d00000d8700000fa
:1097c4008aaa0000aa0a0000004a00009849000082
:1097d400aa3b00003888000023320000772d0000e7
:1097e40022c800007ca7000042450000590900007f
:1097f400000000000000000000aa000070800000cb
:10980400d27000003d0a000007000000008b000039
:10981400aaaa00000a0000004ab8000069b50000c6
:109824004544000044440000444400004444000013
:10983400b4bb00004b440000b4b4000044bb0000bf
:10984400bbbb0000bbbb0000bbbb00004bb40000b3
:10985400bb4b0000b4bb0000bb4b0000b9a8000028
:10986400aa0a000000040000ba9900003c66000047
:109874000296000002b9000002aa000002da000009
:10988400020a000000060000aa9b0000993a0000aa
:109894006600000004990000b9040000aa02000058
:1098a4000a040000aa3c000099020000b90200006a
:1098b400da020000aa020000da0200000a400000f6
:1098c400dd020000dc060000dd0200000d000000e7
:1098d4004acc0000ccc700007c7c00007c7c0000eb
:1098e4007c7c00007c7c0000ccc700007ccc0000a9
:1098f400c77c0000ccc70000ccc70000ccc7000068
:10990400cccc0000c7cc0000ccc70000ccc7000002
:10991400c7cc0000ccc70000cc0c00004877000086
:1099240002070000000400002300000030000000d3
:109934000b670000463e000011970000a0140000d1
:10994400ddef00004435000058c700008a650000c0
:10995400308e0000fef70000d5b600007adf00006c
:109964009ce700007f4c0000ffff000000000000a7
:1099740030dd000030dd00000add0000027d000063
:1099840024dd000008dd0000000600007d55000015
:1099940083220000dd080000dd0200003504000021
:1099a40033020000d5200000dd060000dd000000c9
:1099b4000a7d0000135100005337000008dd000049
:1099c4000622000012dd000006dd0000000c00008d
:1099d40038150000103100007ad5000004dd0000c5
:1099e40002170000061100000201000010dd000053
:1099f40006dd00000235000004110000000600002e
:109a040010a3000077040000dd0000000c550000e6
:109a14001711000000100000110e0000dd06000008
:109a2400dd0000000c53000015110000015100007e
:109a3400360c0000dd000000061d000011d10000fe
:109a44000cdd000004dd0000000600007d33000092
:109a54001504000011000000125000008ad7000015
:109a6400dd1d00001711000017dd000004110000c7
:109a74000cdd000004dd0000000800007d53000040
:109a840055150000041100000014000002d5000068
:109a9400dd3d00007577000011d100001d110000ac
:109aa4000cdd000004dd0000001000007d33000028
:109ab400531500001101000002d500000add00006a
:109ac4000008000017dd000010d000000add0000cf
:109ad40000300000dddd00007d330000555500003e
:109ae4001111000000d50000dddd0000117100003f
:109af400d70d0000d10d0000d0dd0000dddd000039
:109b0400dddd000006dd000004330000001c000061
:109b14005515000001500000d7dd00001d71000044
:109b240077150000dd0100000d1100000add0000c2
:109b340006dd0000000c0000373300005355000020
:109b4400153300000add0000000a00005dd10000aa
:109b540017dd0000110a0000dd060000dd02000030
:109b64007d08000033020000d70c0000dd00000077
:109b740008d500005ddd0000110a0000dd080000ca
:109b8400dd08000033020000d70c0000dd000000f7
:109b9400081100005dd70000d10a0000dd080000b4
:109ba400dd0200005d0600003300000004530000e5
:109bb400d70a0000dd02000011100000dd0a0000d9
:109bc400dd020000350400003300000006a500009b
:109bd40058d700001add00000add0000025d000015
:109be400063300000006000067570000d818000084
:109bf400dd0c0000dd0000000c37000055330000d0
:109c040053a80000570a0000dd0000000877000098
:109c140055770000d7060000dd0c0000dd000000d1
:109c24000e7d00003331000033730000aa7500007c
:109c340006dd0000000c00005d8500006a8700005e
:109c440055d7000004dd00000edd0000000e00000a
:109c5400371300003133000073760000d504000090
:109c6400dd0000000c850000002000007757000094
:109c740033040000dd0e0000dd000000067d00005e
:109c8400371100000433000000100000855a000062
:109c9400d77d0000036000000011000004330000c1
:109ca40002d3000002dd000000300000dddd000012
:109cb400dddd0000dddd0000dddd00007d330000c2
:109cc4001133000033a7000038770000030b0000b5
:109cd4000000000010350000d3dd0000003000005b
:109ce400dddd0000dddd0000dddd0000dddd000088
:109cf400dd5d00003311000033330000a85700007d
:109d040007000000001000001151000073dd000086
:109d140000300000dddd0000dddd0000dddd0000e1
:109d2400dddd0000dddd00003733000031330000ed
:109d340053570000070000001011000051550000a7
:109d440073dd000016dd000000060000373300005c
:109d5400310400003300000008530000001000002c
:109d64001104000055020000d3020000dd180000b9
:109d7400dd0200003708000033020000100200007a
:109d840011020000510200005502000035020000db
:109d9400d5020000dd1a0000dd02000037060000d5
:109da40033020000110200005102000055020000bd
:109db4003502000033020000d7020000dd1c000061
:109dc400dd020000370400003302000053040000e9
:109dd400550000000433000073040000dd1e000081
:109de400dd02000077040000330200005304000089
:109df40033020000d7040000dd220000dd02000071
:109e04005704000033020000d7060000dd300000d4
:109e1400dd300000dd000000000800003700000015
:109e24009e000000200800002108000042100000ed
:109e3400621000006210000062300000a3180000ed
:109e4400a3200000e2080000c3200000a3280000b3
:109e540002210000c3400000e33800000431000088
:109e640044110000053100002331000004390000d2
:109e7400631900002631000025390000652900001f
:109e8400a509000068310000465100004649000061
:109e94006739000045590000694900008a3900000b
:109ea400e421000087490000251200008b390000de
:109eb40085510000e431000066690000657100000e
:109ec400c5490000c3490000e3390000a45900005b
:109ed400ac490000a8610000cd410000452200000b
:109ee400c9510000a8020000a8710000a779000071
:109ef400a70a0000652a0000e85900000e4a000085
:109f0400ed510000c679000010520000a891000035
:109f1400c9810000e61a00000a6a0000a699000040
:109f2400e6810000456200006a4a00004f520000ca
:109f3400504a000025720000276a0000864a00008b
:109f4400305a0000514a00002a7a0000695a000081
:109f54004e5a0000a74a0000a4520000447a0000b0
:109f6400724a00004e6200004c6a0000098a000038
:109f74006e5a0000470b00000533000088620000a1
:109f84007152000069030000705a0000847a0000d6
:109f940005430000e8b1000003630000b25a00006a
:109fa400b35a0000284b000028b20000b16a000038
:109fb4008b8a000008c200004aa2000049aa0000df
:109fc4008b9200008d820000e47a000048ba000001
:109fd400d26200008c8a0000ae7a0000d16a0000d0
:109fe4008c9a0000cf72000067b2000086a20000c5
:109ff40065530000a8a20000145b0000e892000072
:10a00400ea8a000048da00002e630000355b000095
:10a014004c6b00006a63000013730000079b000090
:10a02400a75b0000856b0000346b0000896b0000a7
:10a0340088d20000ecaa00004d7b00004b7b00009e
:10a044000e9b0000a86b00000d9b000031830000f4
:10a05400327b00002f930000649b0000c663000065
:10a06400308b0000318b0000a37b0000756b000077
:10a07400e273000075730000e9d2000029cb0000f0
:10a084002ccb0000b57b00006eb30000b38b000046
:10a09400919b0000919b0000b58300006cb300000d
:10a0a40028e30000b29300008fab000089bb0000de
:10a0b40090ab0000238c0000467c0000487c00002c
:10a0c4000e7c0000c7bb00002c840000f683000057
:10a0d400eca3000088db0000a8cb0000adcb00009f
:10a0e400e8b30000309c000015940000f2ab0000bf
:10a0f400f4a30000f3a30000a5840000abdb000080
:10a10400f1bb000012b40000f0bb00003794000063
:10a11400eec30000e8e3000054ac000047dc00009c
:10a12400979c0000a5c40000269500004ce40000a4
:10a1340094b4000093bc00006edc000092cc0000dc
:10a1440093c40000439d00004995000090d4000092
:10a15400d7ac0000d6b40000f8a400008be40000e3
:10a16400a7ec00002db50000d4c4000032b50000f7
:10a17400f3d4000055b5000039b50000a9a50000ce
:10a18400efe4000038bd000037c500002ed5000004
:10a1940010e5000071bd000012dd000054d5000080
:10a1a40056cd000052dd00009abd000098cd00009d
:10a1b40007c60000bac50000cef500004cbe000082
:10a1c40005ee0000d4e50000d1ed0000d7dd00006d
:10a1d400efed0000f3ed0000f6e500001bd60000f3
:10a1e40054d6000036ee00005bde0000c5f6000029
:10a1f40078ee000091f6000096f600009ae6000062
:10a20400b0fe0000d4f60000f8fe00001cf70000c9
:10a214001af7000076ff000098ff0000baff000064
:10a22400fdff000008370000033600000a47000065
:10a23400083900000f4700000262000001470000d7
:10a244002e620000016e000002620000036e000036
:10a25400024b0000016e0000054b000003470000a4
:10a264000b4b000015370000092b0000071d0000f0
:10a2740000020000363900000243000001390000ea
:10a284000a480000114f00000b5f00000175000038
:10a29400025f000005750000127a000002750000dc
:10a2a400117a00000004000081420000071400003d
:10a2b40008750000046b0000075e000001590000ef
:10a2c4000262000005590000055700000242000028
:10a2d4000843000001420000024300000142000064
:10a2e40005360000000200002d360000072d000096
:10a2f40002220000041e0000000300003643000098
:10a304003902000048010000430600004811000023
:10a314004f0d00005f010000750200005f030000a4
:10a32400750e00007a19000081000000067a000012
:10a33400811400000403000059060000810200009b
:10a344006b010000750900006b030000620200004d
:10a35400590200005e07000057020000420a000094
:10a364004301000042060000360700002d040000ef
:10a37400220300001e010000420400004305000007
:10a38400481000004f0f00005f0500007506000034
:10a394007a000000028100007a14000081010000ac
:10a3a400920300008101000092020000810100007c
:10a3b40092060000810000000292000007020000e3
:10a3c4000401000042080000810100007503000040
:10a3d4007d0700006b020000620300006b010000b7
:10a3e400590200005e0000000259000057020000fc
:10a3f4005904000057000000024300004803000015
:10a40400430100004802000043010000420500002f
:10a41400360200002d010000360500002d03000067
:10a42400220500001e010000420300004305000055
:10a43400480e00004f0f00005f040000750100008b
:10a44400810400007a0a00008102000092010000e9
:10a4540081030000920100008104000092020000c8
:10a464009804000094030000980b00009200000080
:10a47400059400001404000003530000029400003b
:10a484000181000003940000087d00000a6b0000b5
:10a49400000200005e6b0000035e00000359000030
:10a4a4000557000003480000014300000242000079
:10a4b40007360000072d000002220000041e0000e1
:10a4c40001220000011e00000142000005430000bb
:10a4d400034800000b4f00000d5f000004750000ee
:10a4e4000181000002750000027a000000020000f1
:10a4f400817a0000078100000002000092810000c0
:10a5040004920000000200009492000004980000ed
:10a5140001920000199800000114000002040000d8
:10a52400000200005398000008940000097d000018
:10a53400000200006b7d0000076b0000015e00005c
:10a544000559000005570000024800000002000001
:10a5540057430000024200000b360000022d0000a9
:10a5640008220000013600000242000004430000fb
:10a5740003480000084f00000b5f00000675000050
:10a58400027a000002810000017a000007810000c5
:10a5940003920000019400001398000004aa000034
:10a5a4000e98000000020000aa1800000204000037
:10a5b4000153000005980000000200009498000078
:10a5c40006940000087d0000036b00000462000094
:10a5d400065900000657000000030000435700001e
:10a5e4004202000043030000420200004301000055
:10a5f40039040000360200002d070000220100008b
:10a604001e00000003360000423900000242000030
:10a614000243000004480000054f0000085f0000ea
:10a6240000020000755f000005750000067a000056
:10a6340005810000049400001198000019aa00008c
:10a6440000020000ba1800000204000001530000d8
:10a6540009980000039d000005940000057d00009a
:10a66400016b00000862000004590000025700005a
:10a674000359000000020000574300000257000085
:10a684000843000002360000012d0000032b0000e7
:10a6940003220000012d000001220000012d000012
:10a6a400012b0000000200003642000005430000b8
:10a6b40004480000054f0000075f00000475000017
:10a6c400067a000005810000049400000998000047
:10a6d4000aaa000019ba000001aa000002ba000088
:10a6e40000040000140400000353000008aa000042
:10a6f40001980000089d000002940000047d000001
:10a70400076e000003620000036b000003590000a1
:10a71400055700000743000003360000012b00002a
:10a724000a2d000001360000074300000548000020
:10a73400085f000004750000047a000000020000b5
:10a74400817a00000381000006940000079800004d
:10a754000aaa000020ba000001140000020400004c
:10a76400000300008baa0000ba090000aa07000039
:10a774009d0500008b0100008a0500006e030000a7
:10a78400620200006b020000620100005902000036
:10a794006b0100005e04000059000000024200004a
:10a7a4004303000042100000360100004204000090
:10a7b4004301000048040000570200004800000064
:10a7c400025f00005e0200005f000000025e000005
:10a7d400750200005f000000027500005f020000c7
:10a7e400750300007a040000810600009403000051
:10a7f400980300009d060000aa0f0000ba020000a2
:10a80400bf010000ba060000bf040000cd0a00002a
:10a81400bf020000cd000000041b0000040600007d
:10a824009d070000ba010000b1020000ba01000057
:10a83400aa0200009d0100009a0500009d0000008e
:10a84400029a00008b0600008a0800006e020000d5
:10a85400620300006b05000059010000570400006a
:10a8640042030000360000000242000043020000e0
:10a8740042080000360100004204000043070000c3
:10a8840057010000590500005e0400007506000031
:10a894008105000094030000980400009d05000059
:10a8a400aa0b0000ba050000bf0c0000cd00000098
:10a8b40004cb0000cdcb0000cd020000cb02000091
:10a8c400cd020000cb00000002cd0000cb0300004d
:10a8d400cd00000007d500001404000007b10000fb
:10a8e400bfcd000005bf000004b1000002ba0000a3
:10a8f40003b10000059a000002a0000004900000cb
:10a90400000400008a9000008a700000036e0000ba
:10a9140000020000626e000004620000045900009e
:10a9240001420000025900000003000057420000e9
:10a9340059060000420300004301000042050000e4
:10a9440036010000420400004302000057000000ea
:10a9540002480000570200005e0100005906000092
:10a964006b020000750500008107000094010000df
:10a97400980400009d050000aa080000ba04000025
:10a98400bf050000cd020000cb00000002cd000096
:10a99400cb050000cd110000d5010000cd02000060
:10a9a400d500000006a000000604000006bf000059
:10a9b400cd020000cb00000002cd0000cb0200005d
:10a9c400cd020000bf080000b1010000b307000081
:10a9d400a00100008f05000090010000700200003b
:10a9e4006e060000620000000259000042060000ea
:10a9f40059000000035700005957000006420000a8
:10aa0400000200004342000003360000012d000054
:10aa1400022b000000020000424300000257000025
:10aa24000148000002570000015f0000025e0000c0
:10aa3400076b0000057d00000494000002980000ec
:10aa4400089d000003aa0000019d000007ba000051
:10aa540003bf000001cd000004bf000002cd0000d0
:10aa640002cb00001dd500000141000002040000db
:10aa74000003000007cd0000cb020000d80a00004c
:10aa8400cb020000bf020000b1030000b3020000cb
:10aa94009c010000a00200009c030000a001000033
:10aaa400900300008a0100008b0200006e04000085
:10aab4006200000002590000420c0000590100002d
:10aac4005703000042020000360200002d0300007c
:10aad4003601000037040000570500005e06000040
:10aae4006b0600007d03000094020000980d000036
:10aaf4009d060000ba010000b1030000bf0300007e
:10ab0400b1010000bf030000cb010000d80e00001b
:10ab1400d500000002e10000d5090000e1040000b6
:10ab2400d5020000e1010000410200000400000021
:10ab340003060000cbd5000002d80000000300008b
:10ab4400cca00000cb050000d800000002cb000020
:10ab5400cc030000cb00000002b30000bd020000e3
:10ab6400b3020000b40200009c030000a000000037
:10ab7400029a0000a00400008a0300006e00000096
:10ab8400047000006e5900004b08000042060000eb
:10ab94005903000042020000360600004202000091
:10aba4005900000002570000590300005e0600002f
:10abb4006b0700007d0200008b1000009d03000065
:10abc4009a090000b1010000bf020000cb0200009e
:10abd400d8030000d5060000e100000002e40000f4
:10abe400e1020000e4020000e100000002e40000d1
:10abf400e1080000e4040000e100000002e40000b9
:10ac0400e1020000e40100007902000004010000f8
:10ac140006040000d8000000032f0000041b0000fd
:10ac240007d8000004cc000002bd000005b40000f9
:10ac340000020000a09c000003a00000029000009d
:10ac4400028a000003700000044b0000024200006e
:10ac5400014b0000024200000137000002420000e4
:10ac640007590000044200000136000003420000be
:10ac7400013600000137000002420000000200001b
:10ac84005942000002590000066b0000057d0000d7
:10ac9400048b0000019d0000039a0000029d000047
:10aca400089a0000058b0000089a000001b100001a
:10acb40003cb000002d8000002d5000002e100002e
:10acc40008e4000016ee0000017900000204000010
:10acd4000002000007d9000002e2000000040000a6
:10ace400d90700000407000003d9000002d80000bf
:10acf40002d9000003cc000002bd000001b2000034
:10ad040003b4000001b2000002b40000019c000082
:10ad140003a00000000400008f900000706d00008c
:10ad240002510000014b000008370000024b0000f4
:10ad340000030000426200006b050000590200009d
:10ad44004207000037010000360100003707000009
:10ad5400360100004b0400006e0600008b13000057
:10ad64009a0300008a0100008b0200008a0100009f
:10ad74008b0500009a00000002b10000b30200003d
:10ad8400cc070000d800000003d90000d8e200007e
:10ad940002d9000001d8000002e2000009ee000020
:10ada40001f100000aee0000018500000204000029
:10adb4000002000006d9000002e2000000080000c2
:10adc400d906000004070000d9e20000d9d8000029
:10add40004d9000002c3000000040000c4c3000042
:10ade400bdc3000003b20000039c0000028f0000fa
:10adf400018c000003680000000300006d51000096
:10ae04005003000037020000500200003700000029
:10ae140002530000500200004b0100006e040000c9
:10ae24006202000059020000420200004b050000cb
:10ae3400370200004b01000037030000220200002b
:10ae44002d0100002b020000370100004b0200001e
:10ae54006e0500008a0600009a070000b109000090
:10ae64009a0400008a0100006e0300008a030000b7
:10ae74009a010000a0030000b3030000cc0000000e
:10ae840002d90000cc030000d9010000cc05000069
:10ae9400d9020000e2080000ee090000f100000001
:10aea40003e20000f1b00000020400000002000010
:10aeb40007d9000002ee000000050000d9060000da
:10aec40004090000df050000e2020000df020000c8
:10aed400d100000002c30000c4020000c30200004d
:10aee400b8010000a30300009b0300008c020000d3
:10aef40068000000026d00005106000050020000ce
:10af04005100000002500000700700006e020000b3
:10af14004b0100006e0300004b01000053020000cf
:10af240037000000024b0000500400004b010000f9
:10af3400180300001e02000022000000042b000081
:10af44004b5000006e0300008a0100009a020000ca
:10af54008a0200009a050000b1090000b303000052
:10af6400a00100009a020000a00100009a02000063
:10af7400a00600008a0200009a010000a00500005b
:10af8400b3010000bd020000b3010000bd020000d7
:10af9400cc00000002bd0000c3030000d90600007d
:10afa400e2050000f1060000f600000002f10000d6
:10afb400e20200001000000002d40000b003000010
:10afc4000400000004d40000f1ee0000cc020000f4
:10afd4000401000010020000ea070000df03000083
:10afe400d1030000c4020000b800000002a3000066
:10aff4009b0200008c030000680100006d03000048
:10b0040051010000500400005104000070010000d0
:10b014008a0500006e1000005004000018000000b3
:10b02400021e00002b020000370000000350000045
:10b03400708a0000069a000009b3000006bd0000f3
:10b0440000030000b3b40000b3020000a00000003d
:10b0540002b40000b3040000a0050000900000004a
:10b0640003a0000090a0000006b30000000600004a
:10b07400a0b30000bdc30000ccd9000003c300008e
:10b0840002d9000004e2000003f1000002f600000f
:10b0940002f1000002f6000003fa000000030000c1
:10b0a400d406000004020000b00200000400000006
:10b0b40002060000d4020000f1010000b00200000a
:10b0c4000401000010020000ea030000df01000098
:10b0d400c7040000df020000d1010000c404000026
:10b0e400b8030000a3000000038700008c68000080
:10b0f400026d000003510000013d0000036d0000db
:10b104000590000003700000016e00000370000051
:10b1140005510000087000000250000005180000ee
:10b12400011e0000022b000000020000508a0000f3
:10b13400039a000002a0000005b3000005bd000052
:10b1440001c3000005cc000004c3000001bd0000e1
:10b1540004b40000049c000002a00000029000005f
:10b1640002a000000290000001a0000003b400004f
:10b1740000020000bdb4000004c3000002d90000b6
:10b1840004c3000003df000000020000f6f1000029
:10b1940005fa000003f6000003fa000001b0000005
:10b1a4000204000000020000b08500000304000057
:10b1b40000070000d4f60000f1850000030400003d
:10b1c40010030000df020000c700000003c60000f7
:10b1d400dfc7000002df000000020000d1c400004d
:10b1e40002b8000000020000a3a1000003a30000b5
:10b1f400038c000002680000000200005168000097
:10b20400036c000001680000048f0000039000003c
:10b21400017000000a6d000007700000036e00005a
:10b224000170000000070000372b0000221e000000
:10b234002b37000050020000530000000270000091
:10b24400a0050000b3050000bd040000cc07000009
:10b25400d9010000d1050000c3040000b2020000bf
:10b264009b0200009c0400008f000000029000007c
:10b2740070020000900200009c030000b20800006d
:10b28400c300000004c40000d1df0000ea02000093
:10b29400f60a0000fa00000002d4000010020000c8
:10b2a40004000000028500004a03000004010000bd
:10b2b400d4020000f600000004850000040300002e
:10b2c4002f040000c4020000b8020000b70300000d
:10b2d400c7010000b7020000a101000089040000ba
:10b2e400870700006c01000089020000870100004c
:10b2f4008c0500008f0200008c0100006c0400002b
:10b30400680100008c0300008f030000900400001b
:10b314008a010000700400006e010000700000004b
:10b32400046e0000504b0000530200005001000066
:10b334006e0200007000000002900000a0020000f5
:10b34400b3040000bd020000c3010000cc080000eb
:10b35400d9010000e2060000df040000d101000072
:10b36400c4040000b8040000a30200008c00000024
:10b37400028f00006d0200008f0200008c020000aa
:10b384009b060000b200000004c40000d1c4000009
:10b39400c7020000df00000002ea0000f60b000014
:10b3a400fa0000000685000007060000044a0000b9
:10b3b4001b0300000400000004b00000eaf60000d3
:10b3c4004a0200000400000003350000b89b00009e
:10b3d40003a3000002b8000001a3000003b80000aa
:10b3e40000020000a1990000046c0000086f000036
:10b3f400018900000487000000020000a38c000003
:10b404000487000002890000058700000005000091
:10b414008c9b00008f9c00008f02000090060000af
:10b424008a010000700100006e0100007005000038
:10b43400700400009000000002a00000b4040000aa
:10b44400bd030000c3050000d9020000e20b0000a8
:10b45400df040000c7010000b7020000b8020000ca
:10b46400a3030000a1090000a3020000b80000002b
:10b4740005b20000a3b20000b8c4000002c7000077
:10b4840001c6000002d3000002ed000001f3000039
:10b494000bfa000000020000850600000204000010
:10b4a400000200004a1000000304000001890000ab
:10b4b40002ea0000014a00000204000001850000c5
:10b4c40002c4000001b8000004a30000000600004c
:10b4d40087a30000a16c000087890000056f0000ad
:10b4e40000020000656f0000026500000184000096
:10b4f40002890000048700000389000000020000a4
:10b50400a3a1000008a30000019b0000059c00000b
:10b5140002a0000005900000018a000003700000f2
:10b52400000200006d900000058f00000003000081
:10b534009c9b0000b2030000bd020000c302000097
:10b54400b2010000c3060000d1010000df080000c2
:10b55400ea020000ed020000de010000d302000058
:10b56400c6020000b7020000a10200008903000027
:10b5740099020000b9010000b7020000a102000016
:10b58400b900000005b70000c7b70000b8a3000069
:10b5940002b8000002c6000002d3000002dd000071
:10b5a40000030000e8f30000fb060000fa040000ba
:10b5b400fb00000007f30000b004000006040000d4
:10b5c4004a100000030400000004000089c60000c3
:10b5d400b70e00000204000000030000b0df00000a
:10b5e400c4020000b8020000a300000002870000ab
:10b5f4006c020000680200006c0300006f0600008b
:10b60400650200006f0100006c0200008701000069
:10b6140089030000a1020000b7020000c703000074
:10b62400b8010000b7050000b8030000b201000033
:10b634009c0300009b0200008f05000090010000a5
:10b6440070010000500400008f0200009c00000004
:10b65400039b00008c9b000002b2000002c40000a7
:10b6640000030000b2a30000b8020000c4020000fe
:10b67400b80200009b00000003a30000c4df000028
:10b6840008ea000004ed000001de000002d300001f
:10b6940004b90000019900000484000000060000c1
:10b6a4009eae00009984000099b9000002c6000013
:10b6b40002d3000002c6000004d3000002dd000033
:10b6c4000af3000001f0000005fb00000002000086
:10b6d400b006000002040000000200001a06000088
:10b6e400030400000199000002b9000001100000e9
:10b6f4000204000001a3000002b8000002c7000019
:10b7040000070000b8a30000685100003d49000094
:10b714003b020000650400006602000065010000b1
:10b724006f0400006c00000003890000a1b7000052
:10b7340003c6000001d3000003c6000001c70000d7
:10b7440003d1000000020000c4d1000002c40000c4
:10b7540003b80000000200009bb20000049c00003b
:10b7640001a00000028f000002900000016d0000a3
:10b7740001510000012f0000009e00008f8f000087
:10b784008f8f00008c9b00009b8c00009bb20000fc
:10b79400b2a3000087a30000c7d10000c7c7000000
:10b7a400b7a30000876c000087b70000deed00003f
:10b7b400eaea0000eded0000eded0000eded000023
:10b7c400eded0000eded0000ede00000ddca00004d
:10b7d400c6990000896f00003b65000065660000a3
:10b7e40097ae0000bbdd0000dde00000e8e00000f3
:10b7f400dde00000e0dd0000cadd0000e8f3000049
:10b80400fbfb0000f3f30000f3f00000f3f300008f
:10b81400f3f00000f9fb0000fbfb0000fbfb000061
:10b82400fbb00000040400000477000006040000dc
:10b8340004040000abdd0000ca0700000406000099
:10b84400b9b90000b9b90000a1a100006c49000019
:10b854003b52000065660000616a00009797000093
:10b864008484000099a1000087a30000a3a1000024
:10b8740099b90000b9c60000c6d30000d3de0000a9
:10b88400dede0000dede0000dfdf0000dfd10000ce
:10b89400c7c70000c4c40000b8b80000b29b0000d1
:10b8a4009b9b00009b9c00009b8f00008f8f0000df
:10b8b4006d510000512f000001510000046d000083
:10b8c400028f0000018c000003a3000000030000ad
:10b8d40089a30000b8020000c7020000b7010000fd
:10b8e400a10200008900000002c60000de02000080
:10b8f400ed090000f3020000ed050000f000000077
:10b904000bca0000996700006f650000669700008d
:10b91400c5db0000e8f0000002e8000000040000bd
:10b92400f0e80000dbab000004db000000020000d4
:10b93400e8f0000003f3000000090000f0e8000054
:10b94400e0dd0000e0e80000ecf00000f903000096
:10b95400fb040000f9010000d20300000400000011
:10b9640002860000100300000400000003de000053
:10b97400f0e0000002040000010e000004b9000021
:10b9840000080000995200003a6600005c64000060
:10b994009597000002ae000002bb000002ca00003e
:10b9a40002c6000001b900000399000002b90000ba
:10b9b40000020000c6d3000002de000004ed000017
:10b9c40003de000001d3000006c7000003b8000036
:10b9d40004a30000029b0000000200008c8f000002
:10b9e400028c0000026d000001510000009e000066
:10b9f4001b1e00002f510000515100006d6d00000e
:10ba0400a38900006c3d0000688c00008c68000075
:10ba14006c490000496c0000a1c60000d3de0000a0
:10ba2400e8e80000f3f30000f3f30000f9f300008a
:10ba3400f3f00000f0ec0000ecf00000f0ec00008b
:10ba4400caae0000aeae0000c5db0000ecf00000a2
:10ba5400f9f50000ecc50000c5db0000dbdb0000ed
:10ba6400db350000dbdb0000ece80000ecf000005c
:10ba7400f0f00000e8dd0000caca0000caca0000f5
:10ba8400dbec0000f9fe0000ffff0000ffff0000f8
:10ba9400ffff0000ffd200000404000004b0000017
:10baa4001004000004060000e0e00000ab04000005
:10bab400040e0000aeae0000976600005c64000057
:10bac4008395000095970000aeae0000bbae000069
:10bad40099770000230e0000090000000003000015
:10bae40000000000000900000e4a0000b0de000063
:10baf400f0ed0000e8e00000e0de0000ded300002e
:10bb0400d3c60000c6b90000b7b70000b7a1000053
:10bb1400b7a30000a387000087870000878c00007c
:10bb24008c8c00008c68000068680000009e000097
:10bb34001b1b0000182f00001b2f00002f3d0000ce
:10bb44003d3d00002f1800002f2f00002f2f000074
:10bb54002f2f00003d6c000087b90000cae00000f0
:10bb6400e8e80000e8e80000e8e80000f0f0000081
:10bb7400f0f00000f0ec0000e8db0000dbae0000b9
:10bb8400b6db0000ecf90000feff0000fef9000047
:10bb9400ecec0000ecf50000f9f90000f9f5000008
:10bba400f54a0000f0f90000fefe0000fbf9000079
:10bbb400f0e00000c5ae0000aeae0000aec500006f
:10bbc400ecf90000fffe0000ffff0000ffff000093
:10bbd400fefb0000fbd20000040400000477000018
:10bbe40006030000040600009eae000038060000b4
:10bbf400061c00009595000083950000b6b6000071
:10bc0400aeae0000aec50000c5ca0000770e00004d
:10bc1400000100001308000000010000004d0000b6
:10bc24005d5d00000b00000000000000000000004b
:10bc340016860000e0f00000e8e80000e0e0000004
:10bc4400ddd30000c6b90000b9b90000b9a10000f5
:10bc5400898900006c6c0000636c00006c87000034
:10bc640087870000878700008c870000009e000003
:10bc74001b1b00001b1b00001b1b000014140000f6
:10bc84001b1b00001b1800001b1800001b1b0000de
:10bc94001b2f00003d6c000087990000cadb0000e8
:10bca400e0ec0000ecec0000ecf00000f5f5000026
:10bcb400f5ec0000ecd70000c5c50000d7ec00008f
:10bcc400f5f50000f5f90000fefe0000fefe0000a0
:10bcd400fefe0000ffff0000ffff0000ffff00006a
:10bce400ff7b0000d4ff0000fefe0000fef8000011
:10bcf400dbb6000095950000b6d70000dbec000031
:10bd0400dbf00000f5f90000fefe0000f9f500008c
:10bd1400ecf50000e06700000404000004380000b3
:10bd240006040000040900009595000023040000a7
:10bd340006450000c2c50000d7d70000e9db0000bb
:10bd4400d7d70000dbbb0000230000000808000078
:10bd5400000000004616000041160000135d0000bc
:10bd64004da500008e4d00001300000001000000ee
:10bd74000000000000560000e0e80000e0e00000e1
:10bd8400ddca0000cabb000099990000998900002f
:10bd940089630000676f000067630000636c000044
:10bda40063890000878700006c6c0000009e00001f
:10bdb400141400001414000014140000141b0000d8
:10bdc4001b1b00001b1b00001b1b0000202f00007e
:10bdd4002f2f00002f3d00003d6f000099ae0000a2
:10bde400bbca0000dbdb0000dbec0000ecec000075
:10bdf400dbdb0000e9e90000e9ec0000ecec00000a
:10be0400dbdb0000f8fd0000fdfe0000feff00008b
:10be1400ffff0000ffff0000ffff0000ffff000026
:10be2400fa850000d2fd0000f8eb0000e9d700001d
:10be3400d7d70000f5fe0000fdf80000f8e9000087
:10be4400dbe90000e0ca0000ca99000084bb0000de
:10be5400dbec0000ec9e0000070400000477000007
:10be64000904000004090000b69500001206000051
:10be740006860000dcf80000f8e90000e9ec0000a8
:10be8400ecdb00005600000001010000244c00001f
:10be94004c240000464c00004c4a00004c8000003a
:10bea400a580000080240000241300000801000085
:10beb400000000000000000000560000e0ca00007e
:10bec400aebb0000bbbb0000cabb000099990000d8
:10bed40099840000676300006363000063630000eb
:10bee4006c630000634900002f350000009e0000d1
:10bef40010140000151500001a1500001414000099
:10bf04001b1b00001b1b00001b1b0000202f00003c
:10bf14003d4900003d3d000049630000849e00004f
:10bf2400bbdb0000dbc50000c5db0000e9e9000065
:10bf3400e9db0000c5bb0000aeae0000c5d70000c1
:10bf4400e9e90000f8fd0000fdfd0000fdfd000032
:10bf5400fdfe0000ffff0000ffff0000ffff0000e8
:10bf64004a860000dcfc0000f8f80000f8fd000040
:10bf7400fdfd0000fdfd0000fdfd0000fdf80000da
:10bf8400f8e90000ae840000656500006565000006
:10bf9400676700005252000006040000047b0000a2
:10bfa4001004000004160000f8ef00000906000069
:10bfb40007dc00004adc0000e9e90000dbd70000f0
:10bfc400ab0a000001010000242400005b4d0000c6
:10bfd400804600004c410000414c000046800000b7
:10bfe400a58e0000a534000013130000000000001b
:10bff4000f080000080000000000000003770000a4
:10c00400bb840000848400009e84000063630000fd
:10c0140063670000634900003d2f00003d350000c8
:10c024002f3500002f2f00001b200000009e000071
:10c034000e1500001515000014140000141400005f
:10c0440014140000141400001b1b00001b1b000030
:10c054001b1b00002f2f00003d490000639e0000c1
:10c06400bbd70000e9e90000e9e90000e9c50000e8
:10c074009e65000066ae0000c5c50000c5ca00008c
:10c08400dbd70000dbe90000f8f80000abdb0000c0
:10c09400cae00000f5fd0000feff0000ffff000005
:10c0a4004a7b0000d2ff0000ffff0000ffff0000fa
:10c0b400ffff0000ffff0000fefc0000f8f8000096
:10c0c400e9d70000b6660000655200003b3b000063
:10c0d4003a3a00005c5c000006040000044a0000d8
:10c0e4000604000004100000fb7b000009060000a9
:10c0f40009ef000027dc0000e9d70000c545000077
:10c104000001000008080000805d000046240000d3
:10c114004c3400004d7c00004c4a000088a500000f
:10c12400c18000005d4600000813000008080000fc
:10c13400130f00000f0f00000808000000000000ab
:10c144000e630000848400006767000067670000d6
:10c1540084670000674900002c20000020140000c0
:10c16400141400001009000009060000009e0000dd
:10c17400060600000910000014140000141000004a
:10c1840006030000030000000a0a00000109000081
:10c19400071400001b1b00001b1b00001b2f0000ca
:10c1a4003535000035490000636700005231000056
:10c1b40049490000636300004949000063490000e5
:10c1c4004949000063670000849e000045ae0000fa
:10c1d4009e8400009ed70000e9fd0000fdfd0000e4
:10c1e400564a0000d2ff0000ffff0000ffff0000de
:10c1f400ffff0000ffff0000fefd0000fceb00005d
:10c20400daae0000653a00003a610000647800008c
:10c21400787800006461000009040000040600004e
:10c224000404000004100000d2070000040600000b
:10c2340056fc000027ef0000fcda00000d010000ae
:10c2440000000000464600002e2400005d5d000052
:10c25400804600004a79000041820000a580000069
:10c26400b5a50000801f0000131300001308000090
:10c27400130f000013130000130f00000f00000041
:10c2840000040000315200001a3b000067840000e3
:10c294008467000052520000312c00001a1a00007a
:10c2a400121500001006000009100000009e000096
:10c2b400090300000306000009090000030100004f
:10c2c400000000000d2600003e260000244000006f
:10c2d4000d1100000a070000141b00001b1b0000c6
:10c2e4001b1b00001b20000020200000201b00005e
:10c2f4002f1b00002c2c00002c2c00002c2c0000e8
:10c304003d2c0000313100003b3b00002c84000038
:10c31400848400008497000097c20000ebfc0000b6
:10c3240086270000a7ff0000fefe0000feff0000bd
:10c33400ffff0000ffff0000fffd0000ebc2000054
:10c344009583000064780000786400006461000054
:10c354003a3a0000529e00000e040000040400005b
:10c3640004040000040400000704000006070000a1
:10c37400dcfc000027f40000f411000001000000c0
:10c384001f240000737300008e0b000001000000e6
:10c394000b7f0000828200007b820000c9c1000084
:10c3a400b5b500004d2400001f0f00001f1300004e
:10c3b400131300000f0f00000f0f00000f00000008
:10c3c40001000000002500000725000032320000b3
:10c3d40032310000191900001a1a00001a15000061
:10c3e400151000001001000010100000009e000055
:10c3f400030100000103000003000000000b000023
:10c40400111100002a3e00003e3e0000567c000050
:10c41400443f00002a110000001200001b1b000012
:10c424001b1b00001b1b00001b1b00001b2000002b
:10c43400201000002c3200003232000032320000a2
:10c4440031310000312c00003d3d0000196700002f
:10c45400656500005252000084970000c2eb0000a2
:10c4640086230000a9fd0000fdfd0000fdfd000085
:10c47400fdfd0000fcfc0000f4f70000ebd7000019
:10c48400d7bb0000abce00009797000097ae00002a
:10c49400c5da0000f4fd00005604000004040000a6
:10c4a40003040000040400000404000006860000e5
:10c4b400fcfc000027d000000b0000000b0800006b
:10c4c400a55b0000602e0000600300000303000071
:10c4d400247c000041410000a9800000b5c1000097
:10c4e400a5c100005b1f0000341f00001f170000df
:10c4f4000f1700001f1f00001f1700001717000070
:10c504000808000001000000033200003a3a00006d
:10c51400322500002c1900001a1500001515000022
:10c524001010000010010000100e0000009e00001a
:10c534000403000001010000002800002828000076
:10c54400282800002a3e00006a6a0000867c000059
:10c5540044440000384400002a000000071b000087
:10c564001b1b00001b200000192500002c250000c7
:10c5740032120000252500002c19000020200000a4
:10c58400202f00002f2f00002c2c0000192c00005d
:10c5940031310000313b0000656600006166000037
:10c5a4001c09000045eb0000ebe50000f7f7000074
:10c5b400f7f40000f4fc0000fcfc0000fcfc0000ac
:10c5c400fca90000daeb0000ebeb0000f4f700003c
:10c5d400f7e50000c2c20000740900000304000073
:10c5e40004040000040400000606000056fc0000d9
:10c5f400fcfc0000160b0000010000007f46000058
:10c604005b730000a58e00004d13000003030000bf
:10c6140046820000824c0000a7a60000c9e3000087
:10c62400b5b50000731f00002e2100001f2e00006e
:10c634002121000021170000212100001721000002
:10c64400211700001700000000250000323200000e
:10c6540032250000252500001919000019190000d1
:10c66400191a00001201000006100000009e0000cc
:10c6740002010000010000000b4d000040400000da
:10c684002828000040380000646a0000767c00001e
:10c6940086110000093f00004e440000000a00001b
:10c6a4001a1a000019190000251900001a2c00009c
:10c6b4002c10000020200000201500001420000091
:10c6c40020200000352c0000313100001919000031
:10c6d4002c2c00002c2c0000193b00003b3a0000dd
:10c6e4001c04000023ae000097b60000b6970000bb
:10c6f40097b60000b6ce0000e5f70000f7f700009b
:10c70400f7860000e9e90000d7c20000b6950000f2
:10c7140083830000646a00006a610000320600003e
:10c72400040400000404000086ef0000fcfc000088
:10c73400fcfd00000900000024290000b5a500004c
:10c744008e600000606000003408000000080000f3
:10c754007c410000797b000088c90000a6d6000057
:10c76400c9a500005b3400005b5500002e210000c9
:10c774002121000021330000302100001721000096
:10c7840021210000210000000002000025320000e9
:10c794002525000025250000313100003125000049
:10c7a400313100002503000023250000009e000015
:10c7b400010100000b5d00005d5d00005d6900008b
:10c7c400695a00005a3f00006a9500009ea70000c5
:10c7d400862800000b440000747200003f0900002a
:10c7e4000c3e00003a3a00003a3a000032320000af
:10c7f400310e00001a1a0000202000000e20000054
:10c804002020000020200000201200001919000040
:10c8140031310000323b0000193b0000526500003a
:10c82400250400001c5c00006164000095b6000053
:10c83400cee50000f7f70000f7e50000ce95000014
:10c84400951c00006a6100006666000066610000d5
:10c8540061610000616a00006a95000096090000a9
:10c864000404000004040000a9fc0000fcf400001f
:10c87400fca9000000290000a57f00007f5b0000e8
:10c884008ea50000808e00004c6000004c46000025
:10c89400a688000082a70000a9c90000c9c1000041
:10c8a400c17300005b2e0000212e000034550000ef
:10c8b400342e00002121000021210000303000002e
:10c8c400303000002117000008000000041a0000a6
:10c8d4001a1a00001a2000001a1a00001519000084
:10c8e400191a00001901000012190000009e00002e
:10c8f400010b00004d930000919100006969000054
:10c904005a5a00005a4e000071960000a2a9000075
:10c9140086400000407600007472000072710000ce
:10c924000c2600003e3a0000323100002c2c00009e
:10c934002c0a00001a1a0000191900001225000020
:10c9440032320000323a00003a250000261200007c
:10c95400313100003131000019660000663a0000f0
:10c96400190400000c6100005c5c000061610000bf
:10c97400253a000071950000833800006a6a0000bf
:10c984003e1c00005c6400006464000078780000d1
:10c99400839f00009f9f0000ac960000960a000051
:10c9a4000404000004060000d0f70000f7fc0000b7
:10c9b400ef2900007f730000b5b50000a58e0000cc
:10c9c4007f7f0000607f00008e8e0000a64600007e
:10c9d4007b79000079880000a6c10000c9c9000065
:10c9e400d65b0000555b0000555b00002e21000063
:10c9f400332e00003c3c00003330000030170000b0
:10ca04003030000030300000300f0000000700001c
:10ca1400121200001515000015100000091a00007c
:10ca24001a1900001901000012190000009e0000ec
:10ca3400005d0000b5930000919100009169000031
:10ca4400695a00004e5a00007196000096ab00002f
:10ca5400a776000076760000747100007172000001
:10ca640071260000252c00002c190000192c000050
:10ca74002c070000192500003a3a0000255c00004c
:10ca84005c5c000064640000643a00003a0c00003e
:10ca94005c5c00003e3a0000193200005252000073
:10caa40019040000123a00003a3a000066610000de
:10cab4001c320000616a0000640e0000647800000b
:10cac4003e1c00006478000078780000787800004c
:10cad400787800007883000083830000950e0000be
:10cae4000404000004040000daf70000f7f7000073
:10caf4004d930000c8b500008e7f00005ba50000c8
:10cb0400a5b50000a57f0000604c00007f8e0000ea
:10cb1400808800007ca70000a6c90000d6b50000ec
:10cb2400c173000034340000213400005b55000060
:10cb34003c2e000021330000213300003c33000070
:10cb440033330000213000003008000000000000f2
:10cb5400101500001515000015150000040e000046
:10cb640015120000120100000e190000009e0000c2
:10cb74000bc80000a4a400009191000069690000a2
:10cb84005a5a00004e4e000072950000959e000017
:10cb9400a7860000747e00007e7200006a710000a7
:10cba400717200001c3a00003a3a00003a26000074
:10cbb400260e00003e640000647100003f9f0000e8
:10cbc4009f960000ac710000717400003f120000d9
:10cbd4003a3e0000616a00002564000064640000bd
:10cbe400250400000c780000646a00005c61000009
:10cbf4001c260000616a00006109000071830000c6
:10cc0400383e000083830000839f00009f9f000044
:10cc14009f9f00009f9f00009f9f00009f0e0000a9
:10cc24000404000004040000afbe0000beaf000016
:10cc3400008e00008ea50000b5b50000a5a600007a
:10cc44007f6000007f8e0000a58e0000887c0000bd
:10cc5400417900007ca50000d6c90000e6c90000a7
:10cc6400b55b00005b7300005b3400002e21000004
:10cc7400215500003c3c000033210000333000000b
:10cc8400333c000058300000303000000f0000003a
:10cc9400021200001212000012120000060e000020
:10cca400120e00000e01000007120000009e00009a
:10ccb4005dc80000a4a4000091910000696900000f
:10ccc4005a5a00004e4e000072960000b6960000bc
:10ccd400b0a90000767400007e720000716a000042
:10cce400647100000dbc0000bc9f00009f9f000009
:10ccf40044110000becf0000bebe00004ebe0000c6
:10cd0400bcac0000ac6100006638000038120000c2
:10cd1400643e00006a6a00001c950000953800001b
:10cd24001c0400000e96000071740000969500002b
:10cd340038450000719f00009f0a0000729f0000a8
:10cd44001c9600009f9f00009f9f00009f9f000073
:10cd54009f9f00009f9f00009f9f00009f0a00006c
:10cd64000404000004040000729500009611000001
:10cd74000bc80000c1a500007f7f00007393000072
:10cd8400a5a50000a66000007c6000008ea600003f
:10cd94007fa90000a7a90000e6d60000d6c80000bd
:10cda400a55b0000343400003434000073550000e7
:10cdb4003c3c0000332100003c3c0000543c00009b
:10cdc4003333000030300000585800000f000000da
:10cdd4000012000019190000191900000a0e0000c1
:10cde40012120000120100000e120000009e00004a
:10cdf4005d910000a4a40000a491000069690000f2
:10ce04005a5a00004e4e00004e7100007474000027
:10ce1400aba700007674000072720000717100000c
:10ce24006a6a00000d8d0000e7e70000f2f20000de
:10ce3400f2280000f2f20000c0e700008dc00000fc
:10ce4400bebe0000ac9f00009f7200003f0d0000ba
:10ce5400713f0000743800000a7400003838000084
:10ce6400040400000a9600009696000096960000be
:10ce74003f1c000072ac0000ac09000072ac000062
:10ce84000dac0000ac960000acac0000bcbc0000d3
:10ce9400bcbc0000bcbc0000bcbc0000ac0a000070
:10cea40004030000030300007296000074000000f5
:10ceb400248e0000a5c10000c1c10000a68e0000a0
:10cec4007f7f00008e8e0000a5a6000082a70000d0
:10ced400797b0000d0a50000d6c90000c9d60000a7
:10cee400735b0000735b00005b3400002e2e0000b7
:10cef4002e550000553c00003c3300002133000057
:10cf04003c58000058580000335800002108000025
:10cf140001020000252500001c1a00000a0a000076
:10cf2400120e00000a0100000e150000009e000011
:10cf340002010000010300000909000001010000d2
:10cf440003090000090400000402000002010000bb
:10cf5400030e00001c4500003874000072710000cc
:10cf64006a64000026280000c0e70000e7e700002c
:10cf7400f2230000f2f20000c0e700008d69000017
:10cf8400c0e70000cfcf0000bea800000e230000c1
:10cf9400be720000ad3f0000092a00000dad000084
:10cfa400090d00000aad0000ada20000adad000007
:10cfb4007611000072ad0000ad090000a2ad0000c2
:10cfc40011ad0000bc720000bcbc0000bcbc000081
:10cfd400adbc0000bcbc0000bcbc0000ac0900003f
:10cfe40003030000040300007ea200002a010000e5
:10cff40080c10000b57f00007f8e0000b5c1000035
:10d00400c1a500007f8200007c88000080880000a9
:10d01400a97c0000dcc90000d6e30000c1d60000f2
:10d024007334000034340000555b00005555000093
:10d03400342e0000332e00003c550000543c000008
:10d0440033210000333c000058580000580f000002
:10d0540000000000263a0000262600001c120000f2
:10d06400262500000c0100000c250000009e000095
:10d0740002010000010100000101000001010000a3
:10d08400010100000102000002020000020200008f
:10d09400020200000102000002030000051c00005f
:10d0a4002a2600000d040000040a000011110000eb
:10d0b400280e0000a8a800004e7e000044230000b3
:10d0c4007ebe0000cfcf0000bea800000a0d000005
:10d0d4004e440000a84400000a0a00000a7e000032
:10d0e4002a0a0000047e0000a2a20000a2a20000fe
:10d0f4007e0900007ea80000a8090000a27e0000ae
:10d104002abe0000bea20000cfcf0000cfcf000097
:10d11400bebe0000bebe0000bead0000ad090000f2
:10d124000304000003040000a2a2000000000000a9
:10d13400738e0000a5b50000c1b50000a57f0000f6
:10d144007fa50000a5b500008e8800007c7b000050
:10d15400b0820000c9d60000c9e60000c9c10000c1
:10d16400735b0000735b0000343400002e3c00004d
:10d1740055550000553c000033330000333c00009b
:10d184003c540000585800003333000033080000ba
:10d19400000100000a2500001c1c00001c02000005
:10d1a4000d2500000c01000012190000009e000073
:10d1b4000201000001010000010100000102000061
:10d1c400010200000101000002020000020200004e
:10d1d400020200000202000001020000020200003c
:10d1e4000202000002020000020400000404000025
:10d1f400040200000404000004040000040400000d
:10d20400040d00002a0d00000a230000040a000097
:10d21400232300007e2300000d23000004230000cc
:10d2240023040000042a0000232a00007e7e00005c
:10d234004003000044af0000af090000af2a000023
:10d2440040a80000445a0000a8a80000cfcf000066
:10d25400cfcf0000cfcf0000cfcf0000a80900003f
:10d264000404000003040000af440000010b0000ac
:10d27400c8c10000a57f00007f8e0000a5b5000096
:10d28400b5a600007f820000a68e0000a58e0000d7
:10d29400a9a70000d0e60000d6d60000c1a5000072
:10d2a40073340000345b00005b730000553c0000e5
:10d2b4003c330000333c00003c5400005433000075
:10d2c400585800003c580000585800003030000006
:10d2d40008000000001c00001c1c000012020000da
:10d2e400021200000e0100000a0e000001020000fc
:10d2f4000701000000020000020100000f0200000c
:10d304000103000004020000020300000002000008
:10d3140002030000040200000403000001020000f4
:10d3240002030000000300000203000002040000e6
:10d3340004010000030200000402000003020000d4
:10d3440004010000030500000400000008030000bd
:10d35400090e00001104000011090000060300007a
:10d364000400000004060000094000007e020000e2
:10d37400a8020000be00000005a800005a11000029
:10d384000403000003040000000400007e110000f8
:10d3940001290000028e000001b5000002c1000056
:10d3a40000020000a58e0000027f000003a500001b
:10d3b40000130000a6820000a77b000082c90000c1
:10d3c4008e4d000046a60000c15b00000b09000062
:10d3d40003080000131f00002e02000034000000a8
:10d3e40003550000543c000002330000000200001a
:10d3f400583c0000025400000358000003300000b1
:10d40400010800000201000000050000070e0000f2
:10d41400120a0000010200000201000007010000de
:10d4240002010000040100000a01000002020000e1
:10d4340001010000020600000102000002010000d8
:10d4440001080000020000000203000001030000c4
:10d4540002010000030300000100000005020000b7
:10d4640003020000030200000403000001020000a4
:10d474000903000001020000020300000003000091
:10d484000203000004030000030300000401000081
:10d49400030600000402000003030000040100006e
:10d4a400030500000401000003020000060200005e
:10d4b4000901000006040000040000000a03000043
:10d4c4000403000006030000040b00004d290000c3
:10d4d4004c02000046000000048000005d4d000086
:10d4e4002403000016000000072900004d27000057
:10d4f400060400000604000002020000010400000b
:10d504000203000006020000020100000006000001
:10d5140002030000080900000817000003210000ae
:10d5240000030000332e0000210200000f01000060
:10d5340008020000030500000202000001010000cf
:10d5440002040000010100000201000002040000c6
:10d5540001020000020200000101000002030000b9
:10d56400010e00000201000003020000010000009f
:10d574000303000001030000030200000303000092
:10d584000003000002030000020400000300000086
:10d59400050200000302000003020000050300006e
:10d5a400060400000002000003040000020300005f
:10d5b4000002000004030000030400000103000053
:10d5c4000204000000030000030400000303000041
:10d5d4000402000003000000030400000304000030
:10d5e400020300000304000001030000040400001f
:10d5f4000103000002040000010300000504000010
:10d6040007030000010400000402000001010000ff
:10d6140014020000010100000702000004010000e0
:10d6240002020000020100000102000001010000ea
:10d6340001020000010100000102000000030000db
:10d6440002010000020400000102000002000000c8
:10d654000501000002010000020100000c020000ac
:10d6640000050000010200000103000002040000a4
:10d674000300000002020000030200000205000093
:10d684000300000005020000030200000302000082
:10d69400060300000102000002030000020400006f
:10d6a400010200000704000001030000020400005e
:10d6b400000300000304000003080000040100004c
:10d6c400030600000400000005030000040300003a
:10d6d400040300000504000000030000030400002c
:10d6e4000304000004030000020200000301000020
:10d6f4000203000003010000020200000103000015
:10d7040002010000031000000204000001000000f8
:10d7140002020000010200000205000001010000f5
:10d7240002020000010100000202000001010000e9
:10d7340002010000020800000101000002020000d2
:10d74400010a0000020100000102000002010000c1
:10d7540001030000020200000300000002010000b7
:10d7640002030000030100000202000003000000a5
:10d77400020200000304000002010000030700008d
:10d78400020700000401000003020000040100007d
:10d79400030300000401000003060000040100006c
:10d7a4000302000004010000030400000400000060
:10d7b4000303000004030000080400000103000048
:10d7c4000202000000030000030400000204000041
:10d7d400040000000402000004020000030700002b
:10d7e40002020000031a000002000000040100000d
:10d7f4000201000002030000010100000207000012
:10d8040001010000029e000005000000000100006c
:10d81400200000002000000000f80000ddae000041
:10d82400ff3f0000fcff0000ff030000c0ff0000fa
:10d83400ff00000080ff00007f00000080ff000068
:10d844001f00000000ff00000f00000000fe0000a9
:10d854000f00000000fe0000071c000070fc000028
:10d86400031e0000f0f80000033e0000f8f9000079
:10d87400017f0000fcf10000817f0000fce3000058
:10d8840081ff0000fce3000000ff0000f8c7000077
:10d8940020ff0000f98f000070fe0000f38f0000ed
:10d8a40078fc0000e31f0000f8fc0000e73f0000e4
:10d8b400fcf90000c73f0000fff10000cfff0000ab
:10d8c400ffe300008fff0000ffe1000007ff0000fe
:10d8d400ffc0000007ff00007fc0000003fe00003f
:10d8e4007f80000001fc00003f00000000fc0000fd
:10d8f4000f00000000f000001f00000000f800000e
:10d904007f00000000fe0000ff00000000ff000098
:10d91400ff030000c0ff0000ff3f0000fcff000009
:10d92400000400002800000098000000000000002f
:10d9340000800000000400000084000010000000cb
:10d9440010800000100400001084000018c60000bd
:10d9540000f80000e0070000e0ff00001f000000e6
:10d964001ff80000ff070000ffff000098ff000001
:10d9740098ff000098ff00000cff0000028f0000d9
:10d98400089900000289000080ff00000aff0000df
:10d99400029800000e99000000060000ff7f0000be
:10d9a40070780000ff080000ff02000098100000db
:10d9b4009900000006f900007f70000078ff000065
:10d9c40006ff0000029f00001299000000060000fc
:10d9d400897f000000780000ff060000ff160000a9
:10d9e4009900000004ff0000f8780000ff04000024
:10d9f400ff0200009f16000099020000f97a00005f
:10da0400ff040000ff18000099020000890e0000c6
:10da1400ff0000000400000080080000ff00000078
:10da240004070000f05c0000ff00000004ff000099
:10da34009f06000099000000048900007f0a00008e
:10da440099020000ff040000990c0000ff0200008e
:10da54007f04000000060000ff000000067f0000b5
:10da6400007000005cff000000040000ff9800004c
:10da74000699000000040000f8ff00000899000067
:10da8400000a0000f9ff000098990000f90a00005c
:10da9400ff0200007f04000000020000f804000000
:10daa400ff0200000f040000005c0000ff02000001
:10dab400ff08000099040000ff0200009f06000018
:10dac400990000000af80000ff9f000099890000f7
:10dad4000aff0000020f00000400000002f700002b
:10dae40004ff000002070000040000005cff0000c7
:10daf400009800007f99000099990000f9ff000048
:10db0400ff8f00009999000099ff0000ffff0000bb
:10db140099990000ffff0000ffff0000ff0f0000c5
:10db240000000000f0ff0000ff0000000000000003
:10db3400ff08000000ff00007f000000000000005c
:10db440000f700000f000000000000000077000054
:10db5400ffff0000070000000000000087ff000036
:10db6400ff07000000000000007000008f000000ac
:10db7400f7ff0000ff070000707f000000f70000bf
:10db8400000000000000000070f80000029f000088
:10db94000699000002f8000006ff00000499000046
:10dba40002f9000006ff000000060000989900003a
:10dbb400f7080000ff0200000f040000000000004e
:10dbc40006700000ff8f000006000000000a00003d
:10dbd400ff08000000ff000007080000000000002c
:10dbe400047000000f0a00000000000004f70000a9
:10dbf4000f0a00000000000004f800000f0a0000f3
:10dc040000000000068f000000f0000004ff000088
:10dc1400000a0000077000000f000000f70a00006f
:10dc2400000200008002000098060000990800002d
:10dc3400ff0000000698000099f8000006ff0000ad
:10dc4400000600009f99000089080000ff02000000
:10dc54000f0600000000000004ff00007f06000023
:10dc64000000000008f80000080000008f0a00000f
:10dc740000020000700c00000000000004f000002e
:10dc8400070a00000000000004f70000070a000073
:10dc9400000000000688000000f0000004ff0000ff
:10dca400000a0000077000000f000000f70c0000dd
:10dcb4000008000099020000f8060000ff000000c0
:10dcc400067f000099f9000008ff00000499000095
:10dcd40008ff000002080000060000000004000025
:10dce400f80f00000600000000080000f80800001b
:10dcf400008f00000a00000000040000700f000004
:10dd04000a00000000040000f00700000a00000000
:10dd140000040000f00700000a00000000060000f4
:10dd240088000000f0040000ff0000000a07000063
:10dd3400700f000000f700000c00000000980000c5
:10dd44009999000099990000f9ff0000ffff000075
:10dd5400ff99000099ff0000ffff0000ff980000fa
:10dd640099f80000ffff0000ff0800000007000012
:10dd740000f700000700000007000000f80800009a
:10dd8400007f000000800000ffff0000ffff000094
:10dd94000f000000ffff00008f000000f0000000f3
:10dda40000ff0000ff7f000000f000000000000002
:10ddb400ffff0000ffff00008f000000f0ff0000e5
:10ddc400ff070000700f000000f7000000f00000e3
:10ddd400ffff00000800000000980000999900006f
:10dde4008999000099ff0000ffff0000ff980000e0
:10ddf40099f80000ffff0000ff9f000099f9000060
:10de0400ffff0000ff080000000f000000f000000a
:10de1400000000000f000000f7080000007f000071
:10de240000f00000ffff0000ffff00000f000000f3
:10de3400ffff0000ff000000f000000070ff000082
:10de4400ff8f000000f0000000700000ffff0000e2
:10de5400ffff00008f000000000000000000000031
:10de6400700f000000f7000000f00000ffff00004a
:10de74000f0000000098000099990000f99f00002d
:10de840099f80000ffff0000ff9f000099f90000cf
:10de9400ffff0000ffff000099990000ffff000052
:10dea400ff070000007f0000007000000070000009
:10deb4000f000000f7080000007f000000f00000e1
:10dec400ffff0000ffff00000f0000008888000033
:10ded40078000000f000000070ff0000ffff000069
:10dee40000f0000000700000ffff0000ffff0000d2
:10def4008f0000000000000000000000700f000010
:10df040000f7000000f00000ffff00000800000020
:10df14000499000000080000ff8f000099f9000038
:10df240008ff0000000400009989000008ff0000b9
:10df34000006000098990000f8040000ff000000ab
:10df440006070000008f0000060000000012000019
:10df5400800f000000f00000080000007f000000b7
:10df6400f0080000ff0200000f0a0000000000009b
:10df740006f700000070000006ff00000008000023
:10df840000f000000070000008ff0000028f000095
:10df94000a00000000080000700f000000f70000f5
:10dfa4000c000000000400009989000004ff000038
:10dfb4000499000008ff0000000400009899000084
:10dfc40008ff0000000600009f990000f90400000b
:10dfd400ff04000000020000ff0600000000000033
:10dfe40012f000007f000000f0080000007f000035
:10dff40000f0000008ff0000020f00000a0000000b
:10e0040000060000f800000070060000ff00000099
:10e0140008000000f000000070080000ff0200008b
:10e024008f0a000000000000087000000f000000cc
:10e03400f70c00000000000098990000f7ff0000b2
:10e04400ff9f000099f80000ffff0000ff9f000001
:10e0540099f90000ffff0000ff8f0000998900007c
:10e06400ffff000000000000ff07000000000000a8
:10e07400f77f000000f00000080000007f000000af
:10e08400f0ff0000ffff0000ff0f00000000000091
:10e094000000000000f7000000700000ffff000017
:10e0a4008f000000f000000070ff0000ffff000080
:10e0b400ff8f000000f00000ffff00000770000069
:10e0c4000f000000f7000000000000000000000046
:10e0d4008000000098990000ffff0000ff8f0000ff
:10e0e40099f90000ffff0000ffff0000998900007c
:10e0f400ffff0000ffff000099f90000ffff000090
:10e1040000700000ff0f000000000000f87f000016
:10e1140000f00000080000007f0000000000000084
:10e1240000000000700f0000007700007777000007
:10e1340000f00000070000000000000000000000e4
:10e14400f00700000000000000000000008800004c
:10e1540000f00000ffff0000077000000f00000047
:10e16400f70000007077000077770000f8000000e7
:10e1740098f90000ffff0000ffff000099890000ec
:10e18400ffff0000ffff000098990000ffff000060
:10e19400ffff00009ff90000ffff00000070000077
:10e1a400ff7f000000700000ff7f000000f000000f
:10e1b400080000008f0000000000000000000000c4
:10e1c400700f000000ff0000ff8f000000f000004f
:10e1d400070000000000000000000000f00700003d
:10e1e40000000000000000000088000000f00000b3
:10e1f400ffff0000077000000f000000f7000000a0
:10e20400f0ff0000ffff0000ff00000098ff000087
:10e21400ffff0000ff8f000099990000f8ff000045
:10e22400ffff00009f990000f9ff0000ffff0000be
:10e234008ff80000ffff000000700000ffff0000e7
:10e2440000800000ff8f0000008000000800000034
:10e25400ff0000000000000000000000700f00003c
:10e2640000ff0000ff8f000000f000000f0000001e
:10e274000000000000000000f8080000000000009a
:10e28400000000000088000000f00000ffff000014
:10e29400077000000f000000f7000000f0ff00000e
:10e2a400ffff0000ff00000098ff0000ffff0000d8
:10e2b400ff9f000099990000f9ff0000ffff000094
:10e2c4009f99000089ff0000ffff0000ffff00008e
:10e2d400ff8f000000800000ffff0000ffff000030
:10e2e400ff8f00000080000008000000ff7f000096
:10e2f4000000000000000000f70f000000ff000015
:10e30400ff8f000000f700008f07000000000000ee
:10e3140000800000ff8f00000700000000000000e4
:10e32400708f000000f70000ffff0000077000007e
:10e334007f000000f7000000f0ff0000ffff000076
:10e34400ff080000ff060000990200008906000093
:10e35400ff060000997c0000ff060000ff02000099
:10e364008f08000099040000ff0200008f060000df
:10e3740099020000f97a0000ff060000ff02000085
:10e38400980800009900000006f90000ff9f0000b3
:10e3940006990000028900007aff000006ff0000d1
:10e3a4000a9900000004000089ff00000a99000097
:10e3b4007aff000004ff0000029f00000c99000097
:10e3c400029800000a99000002f8000078ff00009b
:10e3d40004ff0000029f00001899000002f90000e9
:10e3e40078ff000006ff00001899000002f9000001
:10e3f40078ff000006ff0000029f0000169900004d
:10e404007aff000008ff0000029800001299000043
:10e4140002f800007aff00000aff000002980000e2
:10e424000e99000002f800007cff00000cff0000c1
:10e43400028f0000089900000289000080ff00009c
:10e4440098ff000098ff0000000400001a0000007c
:10e454001200000000000000008000000004000022
:10e464000084000010000000108000001004000070
:10e474001084000018c6000000f80000e007000047
:10e48400e0ff00001f0000001ff80000ff0700006d
:10e49400ffff0000ffff000000000000000000007c
:10e4a40000ff0000ffff0000ffa00000aaaa000078
:10e4b400aa0a0000ffff0000ffff0000a0aa00005e
:10e4c400aaaa00000aff0000ffff0000ffa000004e
:10e4d400aaaa0000aa0a0000ffff0000ffff000034
:10e4e400a0aa0000aaaa00000aff0000ffff000083
:10e4f400ffa00000aaaa0000aa0a0000ffff000073
:10e50400ffff0000a0aa0000aaaa00000aff000062
:10e51400ffff0000ffa00000aaaa0000aa0a000052
:10e52400ffff0000ffff0000a0aa0000aaaa00004d
:10e534000aff0000ffff0000ffa00000aaaa0000dd
:10e54400aa0a0000ffff0000ffff0000a0aa0000cd
:10e55400aaaa00000aff0000ffff0000ffa00000bd
:10e56400aaaa0000aa0a0000ffff0000ffff0000a3
:10e57400a0aa0000aaaa00000aff0000ff000000f1
:10e5840000a00000aaaa0000aa0a000000000000df
:10e59400a0aa0000aaaa0000aaaa0000aaaa000031
:10e5a4000a0f0000aaaa0000aaaa0000aaaa000052
:10e5b400aaf000000faa0000aaaa0000aaaa00005c
:10e5c400aaaa0000f0ff0000a0aa0000aaaa000066
:10e5d400aaaa00000aff0000ff0f0000aaaa000078
:10e5e400aaaa0000aaf00000ffff0000ffa000009c
:10e5f400aaaa0000aa0a0000ffff0000ffff000013
:10e60400a0aa0000aaaa00000aff0000ffff000061
:10e61400ff0f0000aaaa0000aaf00000ffff0000fc
:10e62400ffff0000ffa00000aa0a0000ffff000097
:10e63400ffff0000ffff00000faa0000f0ff000032
:10e64400ffff0000ffff0000ff0f0000aaf0000022
:10e65400ffff0000ffff0000ffff0000ff000000bd
:10e66400ffff0000ffff0000000400001a0000008c
:10e674001200000000000000008000000004000000
:10e68400008400001000000010800000100400004e
:10e694001084000018c6000000f80000e007000025
:10e6a400e0ff00001f0000001ff80000ff0700004b
:10e6b400ffff0000ffff0000ffff000000ff00005d
:10e6c400ffff0000ffff0000ffff00000faa000093
:10e6d400f0ff0000ffff0000ffff0000ff0f00003d
:10e6e400aaf00000ffff0000ffff0000ffff000092
:10e6f400a0aa00000aff0000ffff0000ffff0000c7
:10e704000faa0000aaaa0000f0ff0000ffff00000b
:10e71400ffa00000aaaa0000aa0a0000ffff000050
:10e72400ffff0000a0aa0000aaaa00000aff000040
:10e73400ffff00000faa0000aaaa0000aaaa000076
:10e74400f0ff0000ffa00000aaaa0000aaaa00008f
:10e75400aa0a0000ff0f0000aaaa0000aaaa00004b
:10e76400aaaa0000aaf000000faa0000aaaa0000aa
:10e77400aaaa0000aaaa0000f0a00000aaaa000009
:10e78400aaaa0000aaaa0000aa0a00000000000029
:10e79400a0aa0000aaaa00000a00000000ff0000ce
:10e7a400ffa00000aaaa0000aa0a0000ffff0000c0
:10e7b400ffff0000a0aa0000aaaa00000aff0000b0
:10e7c400ffff0000ffa00000aaaa0000aa0a0000a0
:10e7d400ffff0000ffff0000a0aa0000aaaa00009b
:10e7e4000aff0000ffff0000ffa00000aaaa00002b
:10e7f400aa0a0000ffff0000ffff0000a0aa00001b
:10e80400aaaa00000aff0000ffff0000ffa000000a
:10e81400aaaa0000aa0a0000ffff0000ffff0000f0
:10e82400a0aa0000aaaa00000aff0000ffff00003f
:10e83400ffa00000aaaa0000aa0a0000ffff00002f
:10e84400ffff0000a0aa0000aaaa00000aff00001f
:10e85400ffff0000ffa00000aaaa0000aa0a00000f
:10e86400ffff0000ffff0000a0aa0000aaaa00000a
:10e874000aff0000ffff0000ff000000000000008e
:10e8840000000000ffff0000000400002c00000056
:10e8940078000000107c00003de70000ec5200000e
:10e8a40035a500009ace0000f8bd000089190000cb
:10e8b400784c00007a7d00003ca60000fec60000f3
:10e8c4003ed700009fef0000ffff0000ffff0000a5
:10e8d4000000000078dd000078dd00002edd00007f
:10e8e400024c00000444000002dc000042dd000091
:10e8f4002add0000000400004d2000000666000030
:10e90400000400002650000040dd000028dd000067
:10e91400000800003d6600007688000004990000ad
:10e92400000800007862000036dc00003cdd0000d6
:10e9340026dd0000000800005d660000829a0000e9
:10e9440004990000000a0000a9aa00009a680000c7
:10e95400563c0000dd260000dd00000006600000db
:10e964009289000004880000000e000098990000bd
:10e97400a9ba0000aa680000563a0000dd2400008d
:10e98400dd000000062c00007689000004870000ea
:10e99400000400008889000004990000000a0000b7
:10e9a400aabb00009a68000036380000dd2200008f
:10e9b400dd00000010cd00006298000077870000a1
:10e9c40098a90000ba060000aa0000000cba0000d2
:10e9d400cbaa000028060000d1340000dd2200008c
:10e9e400dd0000000e2d00008678000087a90000dd
:10e9f400bbbc000006cc000004bb0000000c0000ff
:10ea0400cbbc0000aa28000026d5000032dd00009f
:10ea140022dd0000000800006088000077a90000e3
:10ea240006bb000008cc000000140000bccb0000b2
:10ea3400dccc0000ab79000062500000c4dc0000b4
:10ea44002cdd000020dd0000000800004d760000f1
:10ea540078a8000004ba000004bb000002cb000048
:10ea64000ccc0000000a0000dcdd0000bb9a0000b2
:10ea740020040000260000000ac30000d44d00005a
:10ea8400ddd4000022dd000020dd0000000a0000cb
:10ea94002d96000087aa0000ba040000bb02000003
:10eaa400cb0e0000cc060000dd00000012cc0000fc
:10eab400bc4100003462000006620000222600000f
:10eac40022dd000020dd0000000600006577000064
:10ead400a8040000aa020000ba040000bb0200005f
:10eae400cb0c0000cc020000dc0c0000dd000000b8
:10eaf4000c3100002532000022600000d320000009
:10eb0400dd200000dd000000046200008906000032
:10eb1400aa060000bb00000006cc000041c10000b2
:10eb240008cc000002cd00000cdd0000000c000049
:10eb34004c350000330000002056000020dd0000aa
:10eb44001edd0000000600001d7600009804000091
:10eb5400aa040000ba040000bb000000081c000066
:10eb640045550000b4040000cc040000dc0c000097
:10eb7400dd0000000e4c0000253300000200000000
:10eb840062d500001edd00001edd0000000600004e
:10eb94005d860000a9040000aa020000ba04000077
:10eba400bb00000010cb00004bcc00001c54000044
:10ebb40045cc0000cd0e0000dd000000104d00002b
:10ebc400653000002200000060060000dc1c00002c
:10ebd400dd1e0000dd000000060d000096a9000007
:10ebe40006aa000002ab000004bb0000024c0000b7
:10ebf40006cc00000006000041550000c40e0000d1
:10ec0400dd000000104d000065300000260000000b
:10ec140020660000d31c0000dd1e0000dd000000a3
:10ec2400066d000092a9000004aa000002ab0000d7
:10ec340004bb000000040000cb5b0000044500009e
:10ec440004cc0000002200001c540000155c0000ed
:10ec540053d100005d030000005300006530000044
:10ec64002200000020660000d31c0000dd1e00000e
:10ec7400dd000000046c000097060000aa040000f8
:10ec8400ba0000000cbb00004b45000055540000c6
:10ec9400c4040000cc0000000cdc00004123000090
:10eca40022000000200400002200000010320000b6
:10ecb400655000002600000020660000d31c000000
:10ecc400dd1e0000dd000000046c00009708000059
:10ecd400aa040000bb0000000a5b0000cb1c00007b
:10ece40045cb000006cc000000060000dd25000036
:10ecf40020080000220000001032000065300000ef
:10ed04002200000020660000d01c0000dd1e000070
:10ed1400dd00000004610000a7060000aa04000052
:10ed2400ba00000004bb0000a40c0000cc040000e6
:10ed3400dc00000004230000200800002200000082
:10ed44001052000025300000220000002066000060
:10ed5400d31c0000dd1e0000dd0000000461000083
:10ed640097080000aa040000bb0000000c5b000030
:10ed7400c41c000054450000cb040000cc0000007b
:10ed840004dd00002504000020060000220000002d
:10ed940010520000653300002200000020660000cd
:10eda400d31c0000dd1e0000dd000000046c000028
:10edb40092060000aa040000ba040000bb00000090
:10edc400165500003545000034c10000ccdc0000bd
:10edd4001c25000022020000062200000010000092
:10ede40032250000302200000020000066d300001d
:10edf4001cdd00001edd0000000600006d87000021
:10ee0400a9060000aa060000bb000000084c000090
:10ee140014440000c4040000cc0000002051000091
:10ee24004531000030c400003120000022500000b1
:10ee3400253300000200000020660000d01c000002
:10ee4400dd1e0000dd000000060d000096a9000094
:10ee540004aa000002ab000006bb0000000400008e
:10ee64004ccb000004cc0000000600001c55000040
:10ee7400140e0000dd000000104c000005330000fb
:10ee84000200000020660000d31c0000dd1e00000c
:10ee9400dd000000063d000086a8000004aa000072
:10eea40004ba000004bb0000024c000004cc0000c3
:10eeb4000006000051550000c1040000dc0c0000f5
:10eec400dd000000064d00000533000004000000d2
:10eed40000040000600600001edd00001edd0000ce
:10eee400000600001d76000097060000aa06000038
:10eef400bb000000084c000014550000450600004b
:10ef0400cc020000dc0c0000dd000000065c000008
:10ef140035330000040000000004000062c5000056
:10ef24001edd000020dd0000000800006279000002
:10ef3400a9aa000004ba000002bb000004cb000030
:10ef44000004000054c4000006cc000004dc0000ef
:10ef54000cdd0000000c00004c55000033030000e1
:10ef64002056000020dd000020dd0000000a000023
:10ef740065780000a7aa0000ba060000bb0e0000d6
:10ef8400cc020000cd0c0000dd0000000c310000bc
:10ef94002532000022600000d3200000dd200000a4
:10efa400dd0000000c6d000096770000baaa000096
:10efb400ba040000bb020000cb0c0000cc0200002d
:10efc400dc040000dd040000cc0000000e41000061
:10efd40054620000266200002226000022dd0000a8
:10efe40020dd0000000800004d7600007897000046
:10eff40008bb00000acc0000000e0000cbcc0000cf
:10f00400dcdd0000bc9b000023040000260000009f
:10f014000ac00000d11d0000ddd1000022dd000087
:10f0240022dd0000000c00006088000077a80000ca
:10f03400babb000004cb000004cc000000160000a2
:10f04400bcbb0000cbcc0000cdab0000896200004b
:10f0540032140000dc2c0000dd220000dd00000082
:10f064000e2c00008678000077980000bacb0000d0
:10f0740004cc000002bc000004ba0000000c000034
:10f08400cbcc0000ab29000026c3000032dd000019
:10f0940022dd000000060000cd66000089040000a7
:10f0a400770200008804000099000000129a000012
:10f0b400a9aa0000bbbc0000ab28000006d40000d5
:10f0c40034dd000024dd0000000800006c86000030
:10f0d400897700000488000000120000989900005d
:10f0e4009aaa0000bbaa000068360000d1360000ce
:10f0f400dd260000dd0000000662000092890000a9
:10f1040004880000000e000089990000a9aa0000ec
:10f11400ab680000363a0000dd260000dd00000088
:10f12400063d0000669700000899000004aa00004c
:10f134000006000028360000dc3a0000dd2800004c
:10f14400dd000000140c00006672000098990000b5
:10f154009a89000067060000d13c0000dd2a000007
:10f16400dd000000043c00006208000066000000ae
:10f1740004320000dc3e0000dd2e0000dd00000053
:10f184000841000055440000d1420000dd78000031
:10f19400dd780000dd780000dd00000000040000e0
:10f1a4002c0000007800000044210000085b0000ef
:10f1b4004f8c00000ee70000f6ff0000e0ff0000a7
:10f1c40080d60000e5ff0000ebff0000d1ff000047
:10f1d400faff0000d7de0000ffff000096b5000034
:10f1e400ffff00000000000028cc00000008000021
:10f1f400ac94000089780000047700000008000047
:10f204008798000049ca00003ccc000026cc0000ce
:10f21400000a0000ac940000785700008704000046
:10f22400880000000a7700007587000049ca0000c2
:10f234003acc000024cc0000000a0000ac9400008a
:10f244005787000049040000b400000006bb00001a
:10f2540044890000047700000004000049ca00004b
:10f2640038cc000024cc0000000a00009a580000aa
:10f274009744000063080000660000000ab3000021
:10f284009477000087a9000038cc000022cc00004d
:10f29400000a00004c780000879a0000660800000d
:10f2a400550000000e65000066d60000947700004b
:10f2b40097c4000036cc000022cc000000080000f7
:10f2c40084770000445600000455000002750000d5
:10f2d4000477000004550000000a000066310000b5
:10f2e4008477000048360000cc200000cc000000e9
:10f2f400084c000078a800005304000055000000ea
:10f304000497000049040000440000001089000034
:10f314005755000065d2000084870000c434000003
:10f32400cc200000cc00000006840000878a000086
:10f334000455000002870000044400000494000007
:10f34400000400004484000004550000000800008c
:10f3540066d100009449000034cc00001ecc0000ab
:10f36400000e0000ac790000a8570000557500009d
:10f374004904000044020000a40600004402000006
:10f3840079040000550000000665000021ab000070
:10f3940034cc00001ecc0000000600009a77000068
:10f3a4008a0400005502000047060000aa04000079
:10f3b4004a06000044020000570400005500000003
:10f3c4000665000021ad000032cc00001ecc000018
:10f3d400000c00008a9700005955000075ca00000f
:10f3e40008aa000002a4000006440000025900001c
:10f3f40006550000000a000065160000d2bb00009c
:10f40400ca2c0000cc1c0000cc00000006ac00009c
:10f4140079a800000455000002a8000008aa000012
:10f4240004a4000006440000028400000855000003
:10f43400000400006566000004110000000a0000da
:10f44400b2cd0000dccc0000cd220000cc1c0000ba
:10f45400cc0000000e4c00007874000055950000ac
:10f46400aaac000006aa0000044a000002a400009e
:10f474000644000002570000085500000010000078
:10f484006555000065010000110100001110000025
:10f4940022cc00001ccc0000000a00009a87000067
:10f4a4005455000049080000aa000000064a000064
:10f4b400aaa4000008440000025800000e550000f1
:10f4c400000c0000351d0000d111000002c2000034
:10f4d40020cc00001ccc0000000c00008a97000027
:10f4e400588500004aca000008aa0000000800006d
:10f4f400a4940000444a00000444000002540000a4
:10f504000e5500000235000004dd00000006000076
:10f514002212000020200000cc1c0000cc000000bf
:10f524000c8400004755000047440000ac0800006c
:10f53400aa000000084a0000993300009304000068
:10f5440044020000740e0000550000000e35000057
:10f554001dd200001122000001cd00001ecc0000cd
:10f564001ccc0000000e0000794800005549000042
:10f57400a4aa0000ac060000aa0000000e9a000035
:10f58400a444000039330000497400000e55000003
:10f59400000e0000350d0000d21100002212000000
:10f5a400101e0000cc1a0000cc00000008ac0000c3
:10f5b4007989000055040000a4080000aa04000092
:10f5c4004a06000044000000069400003373000063
:10f5d4000e55000000100000350d0000d210000090
:10f5e4002212000000c200001ccc00001acc000053
:10f5f400000c0000ac780000897500004aa40000eb
:10f6040004ac000006aa00000006000034930000c9
:10f6140099060000440000000a79000056550000d5
:10f6240066550000046500000012000066b6000084
:10f634000dd200001122000012000000cd1c0000b9
:10f64400cc1a0000cc0000000cac00007874000060
:10f65400854a000044080000aa000000049a000043
:10f664004304000039020000490400004400000083
:10f6740004740000550c0000660000001036000001
:10f684000dd200001122000012000000c21c000074
:10f69400cc1a0000cc0000000c4c00007874000070
:10f6a400954a000044040000ac040000aa000000d5
:10f6b40008940000aa4400009906000044000000d9
:10f6c40006790000556500000a660000001000007d
:10f6d400361d0000d21000002212000001c20000fa
:10f6e4001ccc00001acc0000000c0000ac78000018
:10f6f400749500004a44000008aa00000244000077
:10f7040004aa00000844000000040000535500004f
:10f714000c66000000100000360d0000d21100003d
:10f724002212000000c200001ccc00001acc000011
:10f73400001000004c78000074850000aa4400000a
:10f74400aaac000004aa0000000600009a490000c8
:10f754009404000033040000440000000657000035
:10f76400556500000a66000000100000b61d000088
:10f77400d22100002212000000cd00001ccc0000a9
:10f784001acc0000000e0000ac5800007485000084
:10f794004a440000a4080000aa0000001639000032
:10f7a4003399000039490000947500005565000044
:10f7b400665600000666000000100000361d0000ba
:10f7c400d21100002212000000c200001ccc000074
:10f7d4001acc0000000a0000ac7800008975000013
:10f7e400a404000044080000aa000000064a000027
:10f7f4004994000004440000027400000456000010
:10f8040002650000065500000456000000100000c8
:10f81400362d0000dd2100002212000001c200008c
:10f824001ccc00001acc0000000a0000ac790000d7
:10f8340099550000a904000044020000a406000039
:10f84400aa0200009a040000a4000000084400007a
:10f8540034670000750e00005500000006350000f6
:10f864002dd2000004220000000600001200000057
:10f87400cd1c0000cc1c0000cc0000000879000066
:10f8840048550000a706000044040000aa04000034
:10f894004a0000000ca40000443300006377000019
:10f8a400570e0000550000000eb500002ddd0000cd
:10f8b40021220000022000001ecc00001ccc00000d
:10f8c400000a000074470000559500004a04000037
:10f8d40094020000a4040000aa000000084a0000ea
:10f8e40099330000990400007710000055000000cf
:10f8f40006350000ddd200000422000000040000f0
:10f9040000cb00001ecc00001ccc0000000800004e
:10f914008a9700005875000004440000000a0000a3
:10f924009499000044aa00004a04000099000000d1
:10f934000478000077040000570e00005502000010
:10f9440035040000dd0000000622000012b00000b3
:10f9540020cc00001ccc0000000e00009a870000a0
:10f964005455000047440000490400009902000077
:10f974009804000099020000780600007710000047
:10f98400550000000c2500000d21000010020000ad
:10f99400cd200000cc1c0000cc0000000e4c000068
:10f9a4007884000055750000499400000499000013
:10f9b4000289000004880000000800008778000025
:10f9c400775700000e550000000c0000660100008f
:10f9d400210200001220000022cc00001ccc0000f8
:10f9e40000060000ac790000a704000055000000e8
:10f9f4000a870000449400009998000004880000dd
:10fa040002780000047700000a550000000400009a
:10fa1400651600000411000000040000cdca0000b7
:10fa240028cc00001ecc00000006000084970000d3
:10fa340059040000550200009704000099020000d8
:10fa44008904000088000000068700007757000042
:10fa5400085500000008000065110000b2ab00006a
:10fa64002ecc00001ecc0000000600009a77000097
:10fa74008a06000055020000870400009804000074
:10fa840088020000770a00005500000006660000a6
:10fa940021ab000032cc00001ecc000000080000a6
:10faa400ac790000a7580000085500000477000056
:10fab4000c5500000008000066d1000044ca000094
:10fac40032cc000020cc0000000600008487000037
:10fad4003a1600005500000008660000d2840000b9
:10fae40048340000cc200000cc000000084a00008c
:10faf40058a7000069120000550000000a660000c3
:10fb0400d289000085c4000034cc000020cc000061
:10fb1400000a0000ac84000077490000680e000071
:10fb2400550000000a660000d289000077480000f2
:10fb340036cc000022cc0000000c00004c78000001
:10fb4400879400006356000006550000000e000074
:10fb5400656600003284000077870000aa36000042
:10fb6400cc220000cc0000000cac00009a7700000e
:10fb740087490000330600006600000006360000d6
:10fb8400b38400000477000002a9000038cc000010
:10fb940024cc000000040000ac84000004770000c2
:10fba4000004000048a4000004b4000000040000a5
:10fbb40044730000047700000004000048ca0000f9
:10fbc40038cc000026cc0000000c0000aa890000fc
:10fbd40078570000778700000877000000040000d1
:10fbe40049ca00003acc000028cc000000080000fc
:10fbf400ac9400008878000006770000000600003e
:10fc040088490000aa3c0000cc2a0000cc00000077
:10fc140006ac00004a4900000499000000060000f8
:10fc240044a40000ca3e0000cc0000000004000010
:10fc340037000000490000002140000041ab0000f3
:10fc4400c2c30000c9d40000b1d500008051000037
:10fc540080180000617a0000c29200000b9c000032
:10fc6400e0300000e1610000a6a30000215900007b
:10fc7400ffff0000000000004844000002f4000000
:10fc840004330000022300003a2200000232000084
:10fc94000633000002f30000000800002281000087
:10fca400b7bb00003655000000060000b57b00001d
:10fcb4001804000022020000a20000000a11000043
:10fcc400b8a500006a660000366a000002aa0000b7
:10fcd400027b0000021800000222000002f2000071
:10fce4000006000081570000553a0000bb020000e6
:10fcf400ab020000ba02000018020000210200005a
:10fd0400f100000014810000bbab0000aaad0000ac
:10fd14005ab500007c7800005b0a0000aa000000cd
:10fd24000a550000c7c8000057a5000018aa000023
:10fd3400027a0000025500000217000002210000b0
:10fd440002f20000001200008177000006000000ab
:10fd5400666000007b980000bc060000aa02000058
:10fd64006a060000660000000aca000099780000d4
:10fd7400006000001600000002600000025b00004a
:10fd8400028700000211000002f10000004a000096
:10fd940081d1000006000000dd00000022220000e6
:10fda400b8b500005b550000aaaa00006666000012
:10fdb400ba3c000033070000bd0000000000000052
:10fdc400000000000000000000000000000000002f
:10fdd40060bb000087110000f20000004a1100001f
:10fde400d10000000041000034230000235700002c
:10fdf400b7bb000055550000aa6600006656000017
:10fe040038330000443400000d00000000000000fe
:10fe1400000000000000000000000000006000007e
:10fe24007d87000021f10000004a000011d200008b
:10fe340000000000b798000033120000777700003c
:10fe44005787000011b10000aa6600006637000061
:10fe540043830000b70d0000000000000000000014
:10fe6400000000000000000000000000007b000013
:10fe740087110000f100000004110000520400008a
:10fe8400000000000ed0000075210000128b00005d
:10fe9400788b000006220000000e0000a86a000013
:10fea40066150000237100000d1800000002000018
:10feb4007b02000088020000110200009100000093
:10fec40004110000d1060000000000000c2b00000b
:10fed400228200008878000028060000220000002a
:10fee4000c820000aa6600001a2300008318000098
:10fef40000020000600200008b0200008702000084
:10ff040011020000f100000004110000d2040000fe
:10ff14000000000024dd000028220000728100009f
:10ff24008821000022b7000021220000656a000039
:10ff34008a32000023d700000d16000000020000e2
:10ff44007d0200008702000011020000f1000000a1
:10ff54004a110000d1000000804300003422000058
:10ff64008211000088220000826600002522000021
:10ff7400a76600008a32000043440000dc00000051
:10ff840000000000007d00000d00000000000000e3
:10ff9400006000008b87000011910000004a0000ff
:10ffa40011d2000000700000b77b0000188200002e
:10ffb40011110000227200006625000022a8000032
:10ffc4006a1a000022710000bb08000000d0000083
:10ffd400dc0000003b0c0000008c0000000000006e
:10ffe400007b000087110000f10000004a110000ae
:10fff4005100000000d000008b88000012110000a6
:020000040001f9
:100004001122000022b7000021220000a7aa00004c
:100014002a22000082d000000000000080130000ab
:100024000037000001b00000c30000000000000021
:100034007b87000018f10000004a000011d1000085
:1000440000000000001d000018c200001111000093
:10005400212200002222000022550000aa250000cf
:100064002282000000d000000db00000220b00002e
:100074002cb200003073000000b00000607d00006e
:1000840087110000f10000004a810000d100000047
:1000940000d000003c1100003121000011210000bb
:1000a400222200002272000055a500002822000030
:1000b400330700003d030000d02200004334000059
:1000c40043340000720000004c0800007b870000ed
:1000d40018f80000004a000011d1000000000000e0
:1000e4003cc30000bb3700002111000011220000b6
:1000f40022220000b85500005a2200007837000080
:10010400341b0000c33700003444000044440000a2
:10011400443200008c1400000d7b0000878800002e
:10012400f10000004a810000d100000000770000c7
:10013400557b0000c71300001211000018110000c5
:1001440071bb00005b85000013180000ab85000044
:10015400bd31000044440000444400004444000015
:1001640043440000bc6000007b77000018f10000ed
:10017400004a000088d1000000000000ddd000002b
:1001840077870000c3210000111100008877000068
:10019400775b000038110000817b0000d8d000009c
:1001a4003344000044340000c33100003334000001
:1001b40034820000007b000077880000f800000013
:1001c4004a810000d1000000000000000018000077
:1001d40058370000131200001188000078770000df
:1001e4008b1300008b320000cd3400003734000044
:1001f400448300005baa0000557b000042330000ea
:1002040033780000bc77000018f80000004a0000b2
:100214008851000000000000008000001355000019
:10022400753300001111000011880000773c0000b4
:100234007cb70000377300003744000044c300005b
:10024400ab66000066660000a68b00003233000037
:100254009477000077880000f80000004a880000c6
:10026400d10000000000000037b80000bbbb000054
:100274009b340000cc810000c13300008377000070
:1002840077550000c38b000043440000586600000b
:1002940066660000666600005628000033b300005e
:1002a400777b000088f80000004a000088d1000035
:1002b4000000000000bd0000ddbd0000b7550000d7
:1002c4009b43000044330000895b00001bb800001e
:1002d400d0d500003d3300001365000066660000c1
:1002e40066660000666600008a33000081b800007c
:1002f4007b880000f80000004a880000d10000005c
:1003040000000000d000000010520000555500000d
:100314005a7b00005bb50000b5850000d3cd00001a
:10032400c93c000033bc000066660000666600003d
:10033400666600006656000021120000787b00000b
:1003440088f80000004a0000785100000000000016
:1003540000000000003b0000b85500005b550000a1
:100364005a55000075bb0000bbc30000cb4300001e
:1003740044340000a766000066a60000bb5b0000d2
:100384006aaa00006a27000012b100007b870000ff
:10039400f80000004a780000d100000000000000ce
:1003a4000000000018db000070b10000a5b50000db
:1003b40055850000d2d00000c7db00007b3200006e
:1003c400236b0000a6aa0000272200002258000088
:1003d400aaaa00002a820000b87b000087f8000067
:1003e400004a000088d8000000000000000000005f
:1003f40000bd0000bb10000082da000018570000a6
:100404008bd3000000bd0000008000002313000017
:10041400a5aa00007a220000222200001255000042
:10042400558a000072b800007b870000f7000000c6
:100434004a780000d10000000000000070080000ad
:100444000048000018710000bc280000077000007c
:1004540072000000000000002033000082a50000ac
:10046400a52b000022120000222200005755000094
:1004740075720000b87b000077a80000004a0000f5
:1004840078d800000000000000800000b4000000e4
:1004940037bc000087c30000270d0000b0770000c0
:1004a400000000009843000033730000555500001d
:1004b40028220000671a000022b10000bbb500002a
:1004c40082b800007b770000f70000004a77000044
:1004d400d8000000d0000000b0330000d038000085
:1004e4000c1b0000837d0000db0000000000000006
:1004f400d0330000c92300008255000055210000bc
:10050400226a000086220000727b00007b720000d9
:10051400b7bb000087f70000004a000078d800004d
:10052400003700000cb000004c33000032440000df
:1005340023d30000003100000b0000000000000085
:100544005d75000021120000bbbb000021220000e9
:10055400671a00002272000077770000b2b700002b
:10056400bb770000f70000004a770000d8000000c5
:10057400cbc4000027410000444300004434000081
:1005840034170000220d00000000000000000000ed
:1005940010220000227b00007728000022120000b5
:1005a400222200008188000087b30000b7bb00004e
:1005b40077f70000004a000077d8000006b000007a
:1005c4004c33000032430000434400004444000024
:1005d4002482000000000000000000000020000051
:1005e4002222000078770000182200002222000056
:1005f4002281000088c80000b2b80000bb77000068
:10060400f70000004a77000078000000703800000e
:100614003333000033c2000033430000444400007d
:10062400b3000000770000000070000043230000c6
:10063400217100008818000022220000221200000c
:100644001111000038580000b7b5000077f700001a
:10065400004a0000771700009927000022330000a9
:10066400127800005bb50000c74400004444000059
:10067400c73300000d0000003b7900008711000023
:100684008211000018110000221200001111000054
:10069400113c00005bb70000b5770000f7000000d4
:1006a4004ab70000784700002322000022580000c7
:1006b4006a660000665a0000cb440000442400002f
:1006c40072000000007d0000dd1700001122000010
:1006d4001811000011110000212100002111000057
:1006e400845b000057b500007ba70000004a0000af
:1006f40077b700007533000022b10000aaaa0000f9
:10070400aa660000665a0000414400002307000066
:1007140000000000000000001d220000381200004c
:1007240021210000222200002222000041b1000009
:10073400b8b70000b5b70000f70000004ab70000e2
:10074400d71b000028220000ab550000a5aa00001a
:10075400aa66000066850000444400000b00000007
:1007640000000000004800007c87000033210000e6
:100774002222000022220000c2c40000558b000087
:1007840051b50000bbf70000004a0000b778000034
:100794001811000072b5000055550000aa6a000047
:1007a4006a660000564c0000447300003c0d0000d3
:1007b40000800000c475000078380000c3220000e7
:1007c40022220000224300005cbb000055580000b8
:1007d400b57b0000fb0000004ab70000c71c000006
:1007e40021510000bb5b0000557b0000ab6a000098
:1007f40066a6000037440000343300000700000000
:10080400c05800007d170000573800003433000042
:1008140033440000bcb50000bbab000057b500007a
:10082400bbf70000004a0000b77700002722000051
:10083400b7770000bb28000022120000ab6a00005a
:1008440066c5000044130000b800000000d000009a
:100854000dd00000227500007bc700003cc90000d9
:10086400b7550000b571000000bb0000b5bb000027
:100874009b0000004abb000077770000228b000039
:10088400771b00002222000022720000a6660000ee
:100894008a330000c30000000000000000000000d4
:1008a400807300007b7b00005555000055b50000a7
:1008b40055b50000226d00005b550000bbfb000035
:1008c400004a00007778000087c2000087770000a4
:1008d400282200001222000022a500006a760000ef
:1008e400433400000d00000000000000003d000043
:1008f4005cbd000088550000b5550000b5b7000088
:10090400bd28000008bd0000b5bb0000fb000000ce
:100914004a770000888700001388000078220000ce
:10092400226500002b220000a7aa0000b6430000a5
:1009340044930000d8000000000000008ddb00009c
:10094400d0830000bb1b00005b8500008200000018
:100954007b0b0000bbb50000bb9b0000004a0000fd
:100964009b8c000077c3000088880000218200006f
:10097400662a000022a80000aaba00003233000050
:1009840033d3000000000000000000000db00000a0
:10099400720d000028d800007012000000d0000082
:1009a40060bb0000bbbb0000fb0000004ac70000a6
:1009b400c95b00008c77000077110000816600009d
:1009c40015110000a76a0000b6210000825500003e
:1009d4000d0000000000000000600000b05800009e
:1009e400601d0000070000007700000060000000a8
:1009f4007cbb0000bb9b0000001600009749000070
:100a0400c33300003ccc0000323c0000c23c000078
:100a140032060000cc04000033220000cc020000a7
:100a2400c9020000b7020000bb0200009b000000e6
:100a3400047b0000993c0000440200009402000082
:100a440079020000b70200005b020000fb02000014
:100a5400bb040000993a000044040000990200001d
:100a6400bb020000b5020000fb040000bb3e000016
:100a7400990200005b020000b5020000bb02000006
:100a8400f53e000055040000a506000055020000d4
:100a9400f5040000aa0200006a0c0000aa0000008d
:100aa4001aa600006aaa0000a66a0000aaa600000e
:100ab4006aaa0000a66a0000aaa600000eaa000006
:100ac400046a00000aaa000002fa00004866000056
:100ad40002f6000000040000370000004900000096
:100ae4002140000041ab0000c2c30000e9d4000073
:100af400b1d500008051000080180000e1610000c1
:100b0400617a0000c29200000b9c0000e0300000fb
:100b1400a6ab000021590000ffff00000000000008
:100b24004844000002040000043300003c2200009a
:100b34000232000006330000020300000008000037
:100b4400229100008857000036550000000600007e
:100b54007587000019040000220200000200000052
:100b64000611000079b5000008b60000000400007a
:100b7400666b00000eb6000000080000666b000003
:100b8400b6660000186b000002bb0000028700007c
:100b94000219000002210000020200000006000009
:100ba40091580000550600007702000057320000fb
:100bb40077020000b70200007b0200001902000067
:100bc40012020000010000000891000077b7000045
:100bd400bb0400000b000000087500009899000099
:100be400570a0000bb0000000c5500009899000053
:100bf4009c780000b5160000bb0200007b020000d8
:100c0400550200001802000021020000020000004a
:100c14001291000088060000008000000dc700004b
:100c2400997c000006bb0000026b00000666000011
:100c340000080000cbaa00008a550000180000003c
:100c44000260000002570000029800000211000038
:100c5400020100000018000091d10000060000000d
:100c6400c744000023320000797500005755000086
:100c740004bb000004660000000800007b33000091
:100c8400c2080000180000000260000002770000a3
:100c9400029800000211000002020000000400009b
:100ca40011d1000004000000000e00005d97000058
:100cb4003323000058780000770400005502000038
:100cc400bb040000660000000a560000393300002f
:100cd4000cd0000018000000028d000002980000f3
:100ce4000211000002010000004a0000117100001e
:100cf40000000000008d0000291200008788000019
:100d04005898000011710000bb66000066280000be
:100d1400334300003308000000000000000000001e
:100d240000000000000000000000000060870000d8
:100d3400981100000100000004110000d206000018
:100d4400000000000c2d0000229200009889000091
:100d5400970600002200000010b900006b66000036
:100d640025330000c39c00000816000000020000a8
:100d74008702000099020000110200000100000037
:100d840016110000d2000000d09800002c220000b0
:100d9400929900008929000006220000000e00003c
:100da40092bb0000669b0000238100000518000030
:100db40000020000970200009802000011020000e7
:100dc4000100000028110000d10000009043000041
:100dd4003422000082910000992100002278000052
:100de40021220000656b00009b22000023180000f4
:100df40000020000600200008d0200009802000062
:100e040011020000010000004a110000d20000009d
:100e1400d0550000851100009211000099220000b5
:100e24008266000025220000b866000096220000b9
:100e3400220d00000000000000000000d0d80000d7
:100e4400000000000000000000000000979800006f
:100e540011010000004a00001151000000000000d0
:100e640000180000199200001111000022820000f5
:100e74006625000022b90000bb1b000032430000bd
:100e8400440c000000d0000000c00000730000000b
:100e940037090000000000000087000098110000de
:100ea400010000004a110000d10000000000000011
:100eb400171100001211000019220000227800000e
:100ec40021220000b8bb00002b22000089980000fa
:100ed400d10000003c0d000010920000003c000016
:100ee400090000000d60000087980000190100004f
:100ef400004a000011710000000000009d23000062
:100f040012c2000011110000212200002222000060
:100f140022550000bb25000012820000dd00000005
:100f24000029000002c0000022dd000023070000a9
:100f340080830000008d0000981100000100000073
:100f44004a910000d1000000d03300009a770000dd
:100f54002121000011210000222200002282000031
:100f640055b500002822000072000000d8000000df
:100f7400273200004333000044230000d94d000011
:100f84007c6000008798000019090000004a0000f6
:100f940011d1000000d0000058750000883900000d
:100fa40021110000112100002222000079570000c5
:100fb4005b22000021c30000d03300000d39000083
:100fc40043440000444400003434000034d800009a
:100fd4000087000098990000010000004a91000079
:100fe400d10000000000000070880000c913000058
:100ff40012110000111100008977000057950000bc
:10100400928800004c9400002933000044440000fe
:10101400444400004434000043140000080000006d
:101024008988000099010000004a000099d100005d
:101034000000000000d0000012780000c32100006e
:101044001191000099880000885700003892000030
:1010540089550000991d00004344000044340000f9
:10106400cc3c00003344000023930000a87c000023
:1010740088190000090000004a910000d100000016
:1010840000000000387300007538000013110000e0
:101094001199000099880000971300001989000035
:1010a4009ddd00003d4300004493000057550000bf
:1010b400559700003c3300004394000087880000eb
:1010c40099090000004a000099d1000000000000c6
:1010d400d0cc0000577700009733000012110000b5
:1010e40011890000883c000071170000833900005a
:1010f4009343000033c40000b76600006666000036
:10110400b6970000333300005c7800008899000033
:10111400090000004a990000d100000000d000003e
:1011240058dd000077580000c53400001c91000011
:10113400c933000093870000573c0000894c00002d
:1011440044340000586600006666000066660000cd
:1011540056280000239200008887000099090000a7
:10116400004a000099d100000000000000000000c7
:101174000029000057550000a84300003434000043
:101184009a75000079780000c573000028430000b8
:10119400c3650000666600006666000066660000bf
:1011a4009b320000127900008899000009000000b9
:1011b4004a990000d10000000000000000d00000a7
:1011c4001357000055b500005b7800005557000028
:1011d40055110000075d0000073c0000337c00004f
:1011e40066660000666600006666000066560000db
:1011f40021c200007187000099090000004a000024
:10120400895100000000000000000000108100006f
:101214005d870000555500005555000057570000e4
:1012240038080000cd89000033330000b8660000a0
:1012340066b60000775700006bbb00006b28000007
:101244009379000087980000090000004a89000093
:10125400d10000000000000000700000d700000072
:10126400215700005b570000b5990000d7c7000064
:101274000c3900004434000023670000b6bb0000b2
:101284001822000022590000bbbb00002b81000083
:101294007987000098090000004a000099d90000ed
:1012a400000000000000000000dd0000dd1200006e
:1012b400d897000071750000210d00008dd1000049
:1012c4007d97000032130000b5bb00008b220000a4
:1012d4002222000012550000559b00009279000064
:1012e40087980000080000004a890000d900000027
:1012f40000000000dd000000c083000091a9000090
:1013040019d20000d02900000dd000000d0000000b
:101314001d22000092bb0000b5270000221200002d
:1013240022220000585500008592000079870000b1
:1013340088090000004a000089d100000000000074
:10134400d03c0000009d0000737d00003199000036
:10135400d1000000180d0000000000000020000073
:10136400339200005555000029220000681b00003c
:1013740022710000777500008279000087980000d0
:10138400080000004a8800005900000000d0000056
:10139400490800009dc300007d320000d7180000fa
:1013a400dadd000000000000009d00003a33000078
:1013b4009275000055210000226b00008622000077
:1013c4008287000087720000787700008808000098
:1013d400004a000089d900000008000000c700008e
:1013e400c42c0000443400003208000028d300005c
:1013f4000000000000d00000433300002c12000065
:101404007777000021220000681b00002282000080
:1014140088880000827800007788000008000000b7
:101424004a880000d9800000a3000000193400009d
:101434003443000034440000342200000100000062
:101444000000000000580000752100001288000010
:101454008829000022120000222200009199000035
:10146400988300007977000088080000004a000093
:1014740088d90000d0490000232300004333000032
:101484004444000044440000330700007009000095
:1014940000000000009d0000222200008888000057
:1014a40019220000222200002291000099c90000a4
:1014b4005178000077880000080000004a88000086
:1014c400d9000000973400002233000033c200002a
:1014d400324400004444000073390000d30000008b
:1014e4000000000080220000229100009999000071
:1014f40022220000221200001911000039590000b4
:101504007875000088080000004a0000887900000f
:10151400069800003c330000127900007777000041
:10152400c843000044440000220100000000000001
:101534000049000023190000921900001111000055
:101544002212000011110000113c00005878000024
:1015540075880000080000004a780000c88a00006e
:1015640022220000225900006b660000665b000026
:10157400c7440000441200000000000000c0000046
:10158400c48700001122000019110000111100008d
:1015940021210000211100009378000078750000db
:1015a40087080000004a0000889800004a220000d2
:1015b40022720000bbbb0000bb660000665b00003b
:1015c40041440000c4000000d00000009057000017
:1015d4001d19000031120000112100002122000019
:1015e40022220000415c000085590000757800004b
:1015f400080000004a78000079150000222200004b
:10160400b7550000b5bb0000bb660000669500003e
:1016140044440000ccc3000000000000008000002f
:101624002189000033210000222200002222000030
:10163400c1c4000075b70000787500007708000089
:10164400004a0000787800009821000082750000ac
:1016540055550000bb6b00006b660000564c000043
:1016640044340000c20d000000000000c0930000dc
:1016740087280000c3220000222200002243000029
:1016840079780000575800007587000007000000b3
:101694004a78000098190000215100007757000093
:1016a40055870000b76b000066b6000038340000b0
:1016b4001207000000000000004c000078880000c1
:1016c4008939000033c30000334400007c55000016
:1016d400980700007d75000077080000004a0000ac
:1016e400781800001921000078880000772900008c
:1016f40022120000b76b000066c50000349400009d
:101704000000000000d000008cd50000987100009b
:1017140077c80000acc300007857000055270000cc
:101724006157000075770000070000004a77000049
:101734008819000022970000881700002222000068
:1017440022820000b66600009b430000a40d000046
:101754000000000000dd0000003d0000597700009b
:1017640057550000b55500007775000097720000ca
:101774007d55000077070000004a000088890000ba
:1017840087c200009888000029220000122200006d
:1017940022b500006b8600004344000033d30000f0
:1017a40000000000000000003c77000087590000a2
:1017b4005557000055170000098000007877000095
:1017c40075770000070000004a880000899800002f
:1017d400c29900008922000022650000272200002f
:1017e400b8bb00007632000033cc0000dc000000ff
:1017f4000000000000930000072d00005177000056
:101804008955000019d10000000d00007775000013
:1018140077070000004a0000a79c0000971300000f
:101824009999000021920000662b000022b9000063
:10183400bb7b000032230000780d00000000000094
:1018440000d00000770000002d7900008012000015
:10185400071d0000d20000006077000077770000c9
:10186400070000004ac80000ca7800009c880000f5
:10187400881100009166000015190000b86b000083
:10188400763c0000c20000000600000000000000da
:1018940060000000001000000800000091600000db
:1018a40070070000060000008c7700007707000036
:1018b40000040000a84a000004c30000000e000059
:1018c4003ccc0000c2320000c22c00002306000001
:1018d400cc04000033200000cc020000a902000068
:1018e4009a0200007802000077020000070000005e
:1018f40004870000aa3c000044020000a402000087
:10190400aa0200007702000057020000070200004c
:1019140077040000aa3a00004400000004aa000072
:101924008a0400007702000007040000773e0000ec
:10193400aa040000770200007502000005400000c0
:10194400550200005b06000055020000052000005f
:10195400bb0000000eb600006bbb0000b66b0000bd
:10196400bbb600000ebb0000026b00000abb000007
:10197400020b00004866000002060000000400009c
:1019840037000000490000002140000041ab000086
:10199400c2c30000c9d40000b1d50000e03000008b
:1019a40080180000e1610000417a0000c18a000053
:1019b4000b9c000086a3000080510000c150000071
:1019c400ffff0000000000004844000002f4000093
:1019d40004330000022300003a2200000232000017
:1019e4000633000002f3000000080000229100000a
:1019f4008877000036cc0000000600007c870000d9
:101a04001904000022020000a200000008110000d6
:101a1400795c000066380000650200005502000091
:101a2400870200001102000022020000f200000000
:101a340006110000c8cc000004770000027c0000fe
:101a44001a770000027c000018770000025700009b
:101a540002750000021900000221000002f10000da
:101a64000018000091770000d7dd000075790000b0
:101a74008d89000099c7000055c500000655000077
:101a8400000c0000ccb8000099c900008cd80000fc
:101a940014dd0000025d0000028d000002cc000095
:101aa400021800000221000002f20000004a0000b7
:101ab400918900006660000070ab0000babb0000b2
:101ac4007b55000055550000556600006656000021
:101ad40095aa0000aaaa0000d806000066600000cb
:101ae400066600006006000066600000060600004e
:101af40066c7000018110000f10000004a910000c0
:101b0400c100000000d000007c3a000033790000de
:101b14007cc70000cc5500005566000066750000c7
:101b240033340000c90c0000000000000000000075
:101b34000000000000000000000000000060000041
:101b44007798000021f200000004000011c1000099
:101b540006000000001e00008d21000023c80000c4
:101b6400887700005ccc00005565000066c6000064
:101b740039230000d11a000000020000870200008f
:101b84001802000011020000f1000000041100001e
:101b9400c206000000000000141000002212000021
:101ba40087880000781800001181000055040000a7
:101bb400660000000628000033c300001a0000007d
:101bc40002970000029800000211000002f20000d7
:101bd4000016000012c2000000700000ab3a0000c2
