:020000040000fa
:08000000648004000000000010
:020000040000fa
:100400000a00fa0044002000b4bf9f00c0bf9f0054
:10041000d2bf9f00e3bf9f00f1bf9f006a805700db
:1004200000c0da005fb89700efb897000080fa00cc
:10043000000006000a00fa0080017800e20f500078
:1004400028003e0010868000e10f500008003200b6
:10045000802320000000e00005003200042320007b
:100460002523200046232000800178000400370067
:100470000422200025222000462220008322200082
:10048000144090000004e000040035008009eb00f7
:10049000144090000074a000104298001540900095
:1004a0000028a30003003a00154090000024a0009b
:1004b000904298008001eb00070037001540900043
:1004c0000008a300fdff320063c078000000fb00bd
:1004d000000b78008301e800828f5100f7ff3a009b
:1004e0000800370030002000b0bf9f00c3bf9f004e
:1004f000d1bf9f00e2bf9f006a80570000c0da00b2
:100500006fb99700020078000080fa000000060032
:10051000889fbe0080047800208680000000e000f4
:1005200003003a00100007000000e0000a00350058
:10053000208680000900e00002003a0000047800f4
:10054000060037000004780009004000060007009c
:100550000000e00001003d000084eb00080078008e
:100560004f04be0000000600800078000000e0009c
:1005700004003a00600c2100208688000101780008
:10058000060037000081eb00601c2100808f5000c6
:1005900002003e00218688000001eb000200780086
:1005a00000000600881f7800000478005001be009b
:1005b0004000be000400400085804800060149005c
:1005c00087814900009cbe000294be000400e10047
:1005d0000588e1000690e1000798e1000200310083
:1005e000680044001008e8004f047800000006008e
:1005f000f4874700889fbe008a9fbe008c9fbe0084
:100600008e1f78000205be000004be00d4b79f0014
:10061000e5b79f00f6b79f0087bf9f000000eb0083
:10062000c0b79f00b0b79f00a0b79f0090b79f00d2
:1006300080b79f000d042000bfb097004fb0970017
:10064000000140000000e0000f003d004f08de0008
:1006500000007100c0b79f009e00070001003d0030
:1006600012002000a100070001003d001200200040
:10067000a6000700b1000700b60007000f00400009
:10068000c8ff0700220037004f08de000006710097
:10069000ccb79f008f00070001003d001200200032
:1006a0009200070001003d001200200097000700a3
:1006b000a20007000fb297009fb297002fb39700d8
:1006c000bfb39700a90007000000520081805a00c4
:1006d00002015b0083815b0080b79f0091b79f00a0
:1006e000a2b79f00b3b79f000007eb009f00070071
:1006f0000020e10001a8e10002b0e10003b8e10040
:10070000010031001e0020000e005600c0b79f00ff
:100710004fb297000400e0000700350010002000f1
:10072000010020006011b800080470008984700086
:100730000a0571008b8571008d06e900beff3a0045
:100740000400e00003003d00820007000f004000ad
:1007500094ff07004fa897000000e00004003a0053
:100760000fb497009fb497002fb59700bfb59700bf
:10077000940007004f0778004f06be004f05be00eb
:100780004f04be004f01b10000000600881f780032
:1007900018002000881f780095ff07008f87e90068
:1007a0004f04780000000600801feb0090ff070058
:1007b0008f87e90000000600889fbe008a9fbe0068
:1007c0008c1f78006e00070007003d0073000700d3
:1007d000e00f5b00e08f5b0007003d003200070088
:1007e0000006eb00040037003400070002003d0063
:1007f0002a0007001c00200072000700e3ff07002a
:100800000203be000002be000c00e0000100320046
:10081000220007000400be000601be004f0678005b
:100820004f05be004f04be0000000600889fbe00ba
:100830008a9fbe008c1f78005100070005003d0014
:1008400056000700e00f5b00e08f5b0006003d00f4
:10085000040037001900070003003d006000b800e5
:100860006011b8001000070056000700ceff070017
:100870000203be000002be000c00e00001003200d6
:10088000060007000400be000601be004f06780007
:100890004f05be004f04be00000006006000b80017
:1008a0006011b80000003700040250008582580033
:1008b0000603590087835900000006000006eb007c
:1008c000e00f5200e08f5a00e00f5b00e08f5b000a
:1008d000000006000180400090b79f000001eb007f
:1008e0008fb097000100e0000000060002007000d9
:1008f00090b79f000180400080b79f000001eb008f
:10090000ffa897000100e000000006000200700050
:1009100080b79f00018040006faa9700cf20de00c3
:1009200001007000f0af9f000402420025000700a4
:100930004f18de000002720000000600e4af9f00c6
:100940000804440089844c000a054d008b854d0045
:10095000000006003fb29700cfb297005fb3970048
:10096000efb3970000fe2f00000006003fb0970095
:10097000cfb097005fb19700efb19700000006007d
:100980000205be000004be00e00f5000e08f5800da
:10099000e00f5900e08f5900000006006000b80029
:1009a0006011b80008045000898458000a055900f5
:1009b0008b8559001c002000e00f5200e08f5a0088
:1009c000000006000800be000a01be00000006008c
:1009d0002800fa00889fbe008a9fbe008c9fbe0040
:1009e00003866b00060307000028a30064003a009a
:1009f0000128a30067003a000008a30062003a0043
:100a00000108a30065003a001e009000be08900097
:100a100081064000ed3fb100f4805700ee019000e8
:100a2000111ab8008e099000311bb8009e09900081
:100a3000311cb800511db800f4855700460007006e
:100a4000fe0190003a0007008b85e8003e00070099
:100a50008e09900040000700ee019000340007006e
:100a60008b85e800380007008e09900040000700e1
:100a70009e0990001b18b800890440000a854800b0
:100a8000fe019000340007008b85e8003800070065
:100a9000ee019000300007008e0990001b18b8008e
:100aa000890440000a8548000a98a30008003a001b
:100ab0000402420085824a0006034b0087834b00f4
:100ac00008044c0089844c000a054d008d06e9009d
:100ad00084827200850273004c3add008502720048
:100ae0000100320015002000443ade001400b2007c
:100af0004538de00cb45dd000b007000c540de0050
:100b0000cb4ddd008b8070004549de00cb55dd000c
:100b10000b017100c551de000d037800d102070002
:100b200003f0a1000cf0a70003f0a000c8023700fa
:100b30001b18b8008502400006834800e0834b0084
:100b400060044c00070037001b18b8000603400083
:100b500087834800faff37001b18b800870340005e
:100b600008844800e0844c0060054d000000060049
:100b70001b18b8000804400089844800faff3700b9
:100b80000108a300af023a005800be005801be00a1
:100b9000e3ff37000008a300aa023a000904780026
:100ba000f9ff370081037800da0207000001be0078
:100bb0006000b8000478a30013003a006220e1004e
:100bc00015003e000d0039008301d1000281d300e1
:100bd0008180d3008301d1000281d3008180d300c2
:100be0008301d1000281d3008180d3000538b00099
:100bf000c42add00f300b2008381720007f0a70071
:100c000003f0a00000000600f3ff2700f2ff2f0012
:100c10006110b900fbff370003ff2700f7ff370023
:100c20008f1fd100d00207008f87e9000000e0008d
:100c300000000600801feb00cb0207008f87e90051
:100c40000000e000000006001400fa00889fbe00cb
:100c50008a9fbe008c9fbe000004be000205be003d
:100c6000680047000a90be000890be00e702070037
:100c70000070a7000bf0a1009e0990000e099000e3
:100c8000fe0090006e0090009e0290003443200011
:100c9000848252000a00320010003c00b4fc2f0095
:100ca0000428e1001f0034008301d1000281d30039
:100cb0008180d3000080d3008502e800faff3a006b
:100cc0000b00e00062023b0060001000e0801800b2
:100cd00060011900e08119005d023700b4002000b6
:100ce0000428e10007003d0000004000818048002a
:100cf00002014900838149008502e900faff3a00b8
:100d0000efff3700f3ff2700f2ff2f006110b9005b
:100d10000b00e0004e023b00030028000200200010
:100d2000010037006011b8006000b80048023700c9
:100d3000889fbe008a9fbe00030578000300e00084
:100d4000050035000b003c000082700004027100b9
:100d5000300032000700370060001000e08018000b
:100d600060011900e081190002003b0001f02d0034
:100d7000280037000004be000200be006011b80069
:100d80006b092000950220000182cf000a00390083
:100d90000541b1000082cf00070039000541b100d4
:100da0000982cf00040039000541b1000882cf005c
:100db000010039000541b100054252001200320025
:100dc0000a003b0082817100610164008100d10052
:100dd0000080d3008984d3000884d3008b05e80009
:100de0000442e800f7ff3a00070037000804440017
:100df00089844c0000004800818048008b05e90090
:100e00000442e900f9ff3a00a70207000af0a70030
:100e100001f0a0004f05be004f04be000000060018
:100e2000c70207000509780000000600809feb005c
:100e30004d0207008f87e9000000e0000000060077
:100e40002800fa00889fbe008a9fbe008c9fbe00cb
:100e500003866b00ea0107006400e10044003200f1
:100e60006408e1004a0032006100e10046003200ff
:100e70006108e10049003200ec0647006000b8005c
:100e80003d02be003d03be00f48657006011b8006d
:100e90003d04be003d05be007d0320000b00370071
:100ea0000000a0008d06e900130032000402420099
:100eb00085824a0006034b0087834b0000004000f8
:100ec00081804800020149008381490008025200e4
:100ed00089825a000a035b008b835b00f0ff3b00b2
:100ee0000802420089824a000a034b008b834b00b0
:100ef0008d06e900edff3a0084827200868272005e
:100f0000f707b2008782720001003200150020004e
:100f10001e0490003e0b900006035400e63fb00014
:100f20000368a300070032000000a7000500a0002e
:100f30008301d1000281d3008180d3000080d300df
:100f40000603e8008301d1000281d3008180d30031
:100f50000080d3000002eb000482d200c101070030
:100f600003f0a1000cf0a70003f0a000b8013700c7
:100f7000640247006408e100b20132003400be00a0
:100f80003401be00f6ff37006108e100ad01320018
:100f90006011b8006000b800f1ff370003ff2700c0
:100fa00002002000fbff37001400fa00889fbe00fb
:100fb0008a9fbe008c9fbe000004be000205be00da
:100fc000680047000a90be000890be000f020700ac
:100fd0000070a7000bf0a1000bf8a30016003a0068
:100fe0009e0290003043200080825200b0fe2f000d
:100ff0000028e1000d003c00b0fc2f000028e100bb
:101000000d0034001e0990008e0890007e009000b4
:101010000501b0000201d1008180d3000080d3001f
:101020008502e800fbff3a00890137000100280033
:1010300000002000860137006000b80084013700fe
:10104000889fbe008a9fbe00010578000100e00075
:101050000400350008003c000000e00020003200e1
:101060000500370060001000e080180002003b001f
:1010700001f02c001a0037000004be006011b80017
:101080006b0920000982cf00020039000882cf00de
:101090000441b000694252000e00320008003b00db
:1010a00082817100610164008904d1000884d30049
:1010b0008b05e8000442e800f9ff3a00050037001c
:1010c0000804440089844c008b05e9000442e900cf
:1010d000fbff3a00f40107000af0a70001f0a000ae
:1010e0004f05be004f04be000000060003f0a20042
:1010f000889fbe008a9fbe008c1f78001d020700db
:10110000240233006450e1004f0032006420e1000b
:101110005200320003826c0007003b000905d0003a
:101120000306d000820f54000c065d000200390057
:10113000020032008901780003067800858255009c
:1011400004003d000003fd008103fd008502ea006c
:101150008b854200840f720002003b00600010008b
:10116000e08018006011b8000005eb007a28e1006b
:101170000a00390006007800c75ddd00f707b200fd
:10118000878075002d003700828171000a01780088
:10119000610560008180d1000080d3008502e900f4
:1011a000f9ff3b00060440008784480002003b0032
:1011b00060041400e0841c000988a30007003200ca
:1011c0008a81710082817100610164008904d1000b
:1011d0000884d3008b05e800170037000978a300c6
:1011e00013003a000b00e000130034008b05e90007
:1011f0000804440089844c000a4474000978a30060
:101200000d003a000b00e000070034008b05e900f8
:101210000804440089844c0001003a000b002000bf
:101220000978a300f7ff32000001eb00020037004d
:10123000828171000a0178009b0107000cf0a70071
:1012400001f0a000dc0137006420e10002003a0058
:10125000838f6c00dc0133000801be000200be0079
:10126000d501370007f0a200000037002800fa007f
:10127000889fbe008a9fbe008c9fbe000706780034
:10128000878669000c003b0003047800870478001f
:1012900008f0a10009f0a100840f5000858f5800cc
:1012a000860f5900890f5c00030033000cf0a20088
:1012b00001003a000cf0a100d10007006400e10039
:1012c0005f003200780147006408e10061003200ed
:1012d0006c014700748557003200be001201be0049
:1012e0003a04be001a05be001e039000be0a90001c
:1012f0008503530006003d000004fd008104fd004d
:101300000205fd008305fd008703ea000503780060
:101310000df8a3000400320060041400e0841c00f7
:1013200060051d00e0851d006022b8007d032000df
:101330000d38e1008006eb000b0039004433dd007e
:10134000f300b20083017300390037008482720019
:101350000d027800e10664008b85d1000a85d30078
:101360008984d3000884d3008703e900f7ff3b009a
:1013700008004000898048000a0149008b8149002b
:1013800004003b0060001000e080180060011900bc
:10139000e08119000358a300090032008d82720019
:1013a00084827200610260008301d1000281d30057
:1013b0008180d3000080d3000603e8001b003700c3
:1013c0000348a30017003a000600e00017003400ad
:1013d0000603e9000d00a3000000480081804800da
:1013e00002014900838149000348a3000f003a002d
:1013f0000600e000090034000603e9000000400098
:1014000081804800020149008381490001003a00bf
:101410000003eb000348a300f5ff32006022b80090
:101420000200370084827200618266008d0007002e
:1014300003f0a1000cf0a70003f0a0008400370027
:10144000640147006408e10002003a000df8a300bf
:101450007c003a003200be001201be007c00370062
:101460001400fa00889fbe008a9fbe008c9fbe00b9
:101470000004be000205be00680047000a90be00de
:101480000890be00e10007000070a7000bf0a1006b
:101490000bf8a30020003a009e0990000e0990006e
:1014a000fe0090006e0090009e02900034432000e9
:1014b00084825200660032000a003c00b4fc2f0017
:1014c0000428e100140034008301d1000281d3001c
:1014d0008180d3000080d3008502e800faff3a0043
:1014e0005b003700b40020000428e10007003c0046
:1014f00000004000818048000201490083814900ca
:101500008502e900faff3a00510037000300280085
:1015100002002000010037006011b8006000b80030
:101520004b003700889fbe00830478000300e00072
:101530002c00350003003c000082700004027100a2
:101540002600320036432000c50020008383cf00f0
:101550000a0039000541b1008283cf00070039003d
:101560000541b1008183cf00040039000541b1007d
:101570008083cf00010039000541b10085c35300cd
:101580006022b800120032000a003b008482720020
:10159000610260008301d1000281d3008180d30009
:1015a0000080d3000603e8008743e800f7ff3a0015
:1015b0000700370000004000818048000201490018
:1015c000838149000603e9008743e900f9ff3a00f7
:1015d0002400070009f0a70003f0a0004f04be009c
:1015e0000000060060001000e08018006001190093
:1015f000e0811900d3ff3b00033e2c00f7ff3700ca
:10160000680447000294be000094be00fc0447003a
:101610008694be008494be00090078007b00070019
:10162000080078007900070099007800814f700069
:101630000b003b000800be00e60007004f00b100b1
:1016400003003700f3ff2700f2ff2f006110b900fd
:101650004f06be004f05be004f04be000080fa00da
:101660000000060018002000570020000804530066
:101670000d003d000600200097fc2f000740e10010
:101680001e00340084827200610260008301d10078
:101690000281d3008180d3000080d3000804e800d9
:1016a000f8ff3a0047002000610460000504740060
:1016b000040464000d00320061004000e080480036
:1016c00060014900e081490003b8a500070032002d
:1016d0000603e8006538e10004003a008301d10008
:1016e0000281d3008180d3000080d300f87f2000e6
:1016f0000830e10003003500080378006000b800fe
:101700006011b8004433dd00f300b20083017300c0
:1017100000000600c70ade00f107b200f50fb200b4
:1017200008003200e1cf4200020032000170a00048
:1017300024000500810f700001003200040805003c
:1017400044000500810f700002003a0014000500fb
:101750008502e9000000400081c04800fcff3b001a
:101760000170a00024000500889fbe008a9fbe0073
:101770008c9fbe000404be000605be00809fbe0014
:10178000829fbe00a1000700040678000800be008a
:101790000a01be009d000700840678004f03be00ca
:1017a0004f02be008d4f76007fb0970013003300cc
:1017b000f0ff2f008b8f6b0006003b000d066600cc
:1017c0000c00a7000a00370007f0a6001000200058
:1017d0000a003700880f5200898f5a008a0f5b0079
:1017e0008b8f5b00030039001000200001003e00d9
:1017f0000000200007f0a7000000ea004f06be002e
:101800004f05be004f04be000000060080007800b7
:101810005002be005003be004439de00f700b200a3
:10182000f37f200003016100090032000218e1008b
:1018300016003a00850172008301730083817300f2
:101840000008200015003a00400020001300370077
:1018500085017200830173008381730005003a00e3
:1018600004a8be0006a8be00100020000b00370030
:101870000201e9000402420085824a0006034b008f
:1018800087834b000748a300f9ff32000740a00000
:1018900004a8be0006a8be0020002000800098001a
:1018a0009200980000000600810020006180550031
:1018b0000b003d000b00200061fe2f000100e10045
:1018c0001d00340082817100610164008904d1002f
:1018d0000884d3000000e800faff3a0071002000fd
:1018e0006100640003007000020060000900320023
:1018f00061044400e0844c000988a5000500320022
:101900008b05e8006808e10002003a008904d10074
:101910000884d300f20f20000258e10005003d00ca
:10192000c75ddd00f907b200898075000800780006
:10193000000006000bf827008b007800000005006f
:101940000003be0073ff07006220e10002003200c6
:101950000600be0005000500e507b100f107b20072
:1019600004f023008480700007f0a70001f0a000bd
:10197000240005000004be0066ff07000003be004f
:101980000405be000200be0062ff0700844f750020
:10199000000006000200be006450e10005003600b1
:1019a0006420e100020036000968a30001003a004b
:1019b0000800be000160a0004f0678004f05be0081
:1019c0004f04be0000000600f0ff2f00f1ff2700cb
:1019d000f9ff3700e48240001078a30007003200ce
:1019e000640240001178a3003400be001401be0060
:1019f000040032000330a700000006003500be00de
:101a00001501be000330a0000000060005ff2700fe
:101a100005826100070032000428e1000100320065
:101a2000240005000600070001003a0044000500fc
:101a30000408050002000700f9ff3a001400050041
:101a40006f82610081027000850271008502720060
:101a5000000006000c00fa00889fbe000004780019
:101a6000cfb09700f0ff2700d0bf9f008004eb00ad
:101a700099bf9f0088bf9f00a8bf9f00200c200037
:101a8000b0bf9f0078815700708057002600070084
:101a90000fb89700094878000fb897000804500065
:101aa000080078004f04be000080fa000000060025
:101ab0000c00fa00889fbe0000047800cfb09700a9
:101ac000f0ff2700d0bf9f008004eb0099bf9f006c
:101ad00088bf9f00a8bf9f00200c2000b0bf9f00c0
:101ae0007881570070805700b40307000fb8970043
:101af000094878000fb897000804500008007800e3
:101b00004f04be000080fa00000006008001eb00d8
:101b100002003700817178008301e800828f510054
:101b2000fcff3a0000000600fe874700889fbe00c9
:101b30008a9fbe008c9fbe008e1f7800f0b79f006a
:101b40000107780082bf9f000000eb00b0b79f0044
:101b5000e60237008006eb0050c2b30080cf500091
:101b6000090032000100fb00ffb09700790b07006d
:101b7000e10f4000dd023200bfb097008100e800b5
:101b8000b1b79f00d90237009e407800b0c2b300c1
:101b900080cf50001300320007003c006b40500023
:101ba00080cf50000d0032006340400080cf5000d5
:101bb00013003a000d003700d0c2b30080cf5000b0
:101bc000040032006340400080cf50000c003a0017
:101bd000080037000d30a000070037000d00a000fe
:101be000050037000d10a000030037000db0a00065
:101bf000010037000d20a0000e07e800e2ff3700cb
:101c00000d18a300010032000d00a1000d38a30043
:101c1000010032000d20a1000100fb0002fd2f0099
:101c200002004000e90f50000e003e000002eb00f1
:101c3000d4af9f00820178005fae97006a60b90060
:101c40001e01fb000001410003014100d2af9f00d3
:101c50005e00fb0003004000e90f50000b003e0057
:101c6000f5ff37000000eb00d0af9f00a0c2b3002b
:101c700080cf500005003a008fb8970041017800ee
:101c800081bf9f00d2af9f000e07e8000002eb006b
:101c9000c4b79f00e0c2b3009e4f100018003a0086
:101ca0000de0a0008e00e80064405000914f10004d
:101cb00002003200010778000c0037000fbe9700c9
:101cc0004c0078008cbf9f00c0b79f000e87e800d3
:101cd0000b0037004fb297006a20b90000004100a6
:101ce00003004000c0b79f000e07e8001e01fb0084
:101cf00003fd2f0003004100e90f5000f5ff3600ff
:101d0000be407800e1d79f00c0c6b30080cf50002e
:101d1000220032000f003c006940500080cf50008c
:101d20007700320004003c000104e000730232003e
:101d30006b4050000f00370040c6b30080cf50000a
:101d4000930032006540400080cf50008b003a0085
:101d50008f00370030c7b30080cf50001a00320028
:101d600007003c006440500080cf5000110032005a
:101d70000040e80080cf500080003a000f0037009c
:101d800050c7b30080cf5000800032006340400055
:101d900080cf500079003a00090037000000280089
:101da0000d48a30001003a00000120008086760063
:101db000d3ff37000d60a000750037000d50a00064
:101dc0000d70a000720037000fbe97004c00780025
:101dd0008cbf9f00000478000000e00001003a0082
:101de000880621008004eb00010037008104e80030
:101df00089007800088044001004e000fbff3a00ee
:101e00004fb097000000e00003003200890f50003f
:101e100001003100800478008000eb00e1af9f00fa
:101e20005fa99700890f5100020036000900510098
:101e3000e0af9f004368de00e10660001b003a004f
:101e40000d06780009003700ffb09700000220005f
:101e5000c00a0700e10f4000030032003fb29700c4
:101e60000402e800b4b79f000c06e8006fa89700d2
:101e7000800f5600f4ff3a008080eb00e1af9f0036
:101e80000a003700880078003100fb000104780068
:101e9000ffb09700af0a0700e10f400003003200d7
:101ea0003fb197000201e800b2b79f000900e900c6
:101eb00080047800e10f4000f2ff3a000006eb00da
:101ec0000d00e0000a003a0008023700ffb097005a
:101ed000000220009f0a0700e10f400003003200cb
:101ee0003fb297000402e800b4b79f000c06e80078
:101ef0006fa89700800f5600f4ff3a00fb013700ef
:101f00008fb897004100780081bf9f00cf80de002e
:101f100001017800820178000205be000004be00c5
:101f20000203be000002be004822de00482edd0093
:101f300004027600e4d79f000d48a3000a00320097
:101f40000404e00008003200e14f420006003200c5
:101f500071fd2f000f804000044878001840980061
:101f60002900200002003700f0d79f001900200050
:101f700072fd2f000f044100a1ff370064fd2f0008
:101f80000f044200190020009dff37000d0cb30024
:101f90000d007800000cb20028003a000d00e000af
:101fa00005003d000fbe97004c05be004c04be006e
:101fb0008cbf9f00140037000d48a3000b003200b7
:101fc0000fb997004200be0082bf9f004f89de001c
:101fd000cf91de000002be00020378008203780089
:101fe0000605be000404be00070037000fba9700c4
:101ff0004400780084bf9f0000047800cfc4de0056
:10200000090578008a057800e00f5400e08f5c0035
:10201000e00f5d00e08f5d001f003d003d00b3005c
:102020006000b8006011b8000804500089845800ae
:102030000a0559008b855900170037000d00e00094
:1020400005003d000fbe97004c05be004c04be00cd
:102050008cbf9f00100037000d48a300070032001e
:102060000fba97004400be0084bf9f006011b80003
:102070000205be000004be00070037000fbe970037
:102080004c0078008cbf9f000004780009002000fd
:102090000a0020000b0020004fb097000000e00075
:1020a00007003a00e00f5400e08f5c00e00f5d0095
:1020b000e08f5d0002003a0011002000c1b79f00d0
:1020c0000d017800020cb200e2b79f00000420006e
:1020d000800f51002d00320003003c000200e000a0
:1020e000080032003a003700000820006fb2970065
:1020f000800f520014003200000c2000800f5200ac
:1021000033003a0014c0b30085c920000b0037002b
:102110000400fb004300dd00050040005001be004c
:102120004000be000040e10001c8e10002d0e10033
:1021300003d8e100250039000442e800f44f5200c2
:10214000f3ff3a002100370014c0b30085c120001e
:102150000b0037000400fb004300dd0005004000d9
:102160005001be004000be000040e10001c8e10097
:1021700002d0e10003d8e100140039000442e80075
:10218000f04f5200f3ff3a001000370014c0b300c4
:1021900085b620000b0037000400fb004300dd0083
:1021a000050040005001be004000be000040e100bc
:1021b00001c8e10002d0e10003d8e10003003900ca
:1021c0000442e800f64f5200f3ff3a00e4d79f00c4
:1021d0006fd697000c00fb00cfb09700810f500026
:1021e00002003d00e1d79f00040037004fb1970087
:1021f000800f510001003d00c0b79f005faa97000b
:102200000400e00004003200638066000200320037
:102210000402e900d4af9f000de8a3000b003200d8
:102220005fae97004fb09700800f560003003c0050
:102230008000eb00d1af9f00040037005fa997003a
:102240004fb2970004015100d2af9f00408c200094
:102250000080660001842000810f500006003a00d3
:102260005fae97000c00e000110032000c06e900a0
:10227000dcaf9f000e003700008c2000008066005d
:1022800001882000810f500009003a005fa89700e4
:10229000e20f500003003c008000eb00d1af9f0034
:1022a000030037005fa997000281e900d2af9f00c9
:1022b0006fd297000400fb000006eb00dcb79f0024
:1022c000dfa89700808f500002003400008050008b
:1022d000d0b79f000d28a30053003200e1806600b4
:1022e0000d18a3000c003200d00220000100e00015
:1022f00001003a000080e900ffb09700950907004f
:10230000e10f4000270032003fb197000201e800d2
:10231000b2b79f00230037000100e000090032003f
:10232000ffb09700000220008a090700e10f40007b
:102330001c0032003fb297000402e800b4b79f00cf
:1023400018003700008c2000008066000188200003
:10235000810f500013003a00ffb0970000032000e7
:102360007c090700e10f4000030032003fb69700f0
:102370000c06e800bcb79f00800520000d58a300a4
:1023800001003a0080072000ffb0970071090700a4
:10239000e10f4000030032003fb097000000e8006a
:1023a000b0b79f00dfb097000100e0000f003200df
:1023b0000006eb00ffb0970000032000650907004e
:1023c000e10f4000030032003fb197000201e80036
:1023d000b2b79f000c06e8005fb29700840f56006a
:1023e000f4ff3a000006eb00dcb79f004fb0970007
:1023f0008000e900c308dd0080c9200000804000a3
:1024000090b79f0080c120000080400080b79f00ef
:1024100080b6200080804000f1af9f008000eb007c
:10242000a1b79f009b0037005fb197000200e0005a
:1024300011003200688066000f003a000006780044
:10244000ffb097000002200042090700e10f4000a2
:10245000030032003fb297000402e800b4b79f00c7
:102460000c06e8005fb09700800f5600f4ff3a00ba
:102470008000eb00d1b79f00e18066000d18a3003b
:102480000c003200d00220000100e00001003a0000
:102490000080e900ffb097002e090700e10f40001f
:1024a0000e0032003fb197000201e800b2b79f0072
:1024b0000a0037000100e00008003200ffb097007a
:1024c0000002200023090700e10f40000300320052
:1024d0003fb297000402e800b4b79f00008c2000d0
:1024e0008080660000842000808f500009003a0040
:1024f000ffb097000003200016090700e10f40001d
:10250000baff32003fb697000c06e800bcb79f0048
:10251000b6ff370000882000808f5000b3ff3a00dc
:10252000ffb09700000320000a090700e10f4000f8
:10253000030032003fb097000000e800b0b79f00f2
:10254000800520000d58a30001003a0080072000fc
:10255000ffb09700ff080700e10f4000a3ff320023
:10256000bfb097008100e800b1b79f009fff370020
:10257000000420006fb19700800f51002700320047
:1025800003003c000200e000080032002c0037008d
:10259000000820006fb29700800f52001100320037
:1025a000000c2000800f520025003a001fb6970053
:1025b0003c02be002c03be000800be000a01be00a3
:1025c00072f80700a4002000050020006033b80066
:1025d00075f8070004c3b30004424000e4d79f002d
:1025e00017003700fc0621000d58a30001003a0037
:1025f0000c0821000fb097003002be002003be007f
:102600000800be000a01be0060f807006f0060000d
:102610006c467800ecd79f0009003700ffa89700b0
:102620003102be002103be000800be000a01be0048
:1026300056f80700674060000043b000e0d79f00f5
:102640006fd197000200fb00ffb09700c1080700a0
:10265000e10f4000030032003fb297000402e8009f
:10266000b4b79f002fb697000c06e800acb79f00e8
:102670001fb097006800500090b79f008fb0970080
:10268000e880500081b79f007fa997006801510042
:10269000f2af9f002fb297004fb697008c0f5200f9
:1026a000b3ff3a000d38a300100032005fb097006e
:1026b0000000e0000d0034000006eb00ffb09700c2
:1026c00000022000a3080700e10f400003003200d1
:1026d000bfb097008100e800b1b79f000c06e8008a
:1026e0005fb19700820f5600f4ff3a00be407800b9
:1026f000e1d79f000104e00016fd3a003fb09700cb
:102700004f0778004f06be004f05be004f04be00c5
:10271000ef01b10000000600889fbe008a9fbe0046
:1027200080407800d0c6b30080cf5000290036002a
:102730000185fb0042062000110009000285d80037
:1027400000017800010478004311dd008bf02000c7
:102750000b0141006022b8000600200007fe2300a4
:102760000288900092889000b2899000228990009f
:1027700097f80700a9002000809fbe001100090003
:102780000984d800000478004f00be004344dd00f7
:102790000b04440048229000d82290006823900047
:1027a000f82390008af80700801f78000102780063
:1027b000110009000985d8000102fd004f007800d2
:1027c0004322dd000b0242005403be004402be005f
:1027d0001f0037000180fb0089f02000eacf500085
:1027e00014003600a2002000110009000280d80069
:1027f00000017800010478004311dd000901410067
:102800006022b8000600200007fe2300422090004e
:10281000d2209000f2219000622190006cf8070015
:102820004344dd00090444003802be002803be0012
:10283000070037004300dd00090040006022b800b7
:102840000600200007fe23005001be004000be002d
:102850005ff807004f05be004f04be0000000600f1
:10286000889fbe008a1f7800804078000004e00046
:1028700021003d008040ea00d0c6b30080cf500068
:10288000090034008104fb00420620001100090009
:102890008204d80000017800010078004311dd00b7
:1028a0008af020001f0037000100fb0083f02000a9
:1028b00039003700a2002000110009000200d800f2
:1028c00000017800010078004311dd0003014100a0
:1028d0004300dd00030040003002be002003be00c4
:1028e00042209000d2209000f221900062219000be
:1028f00037f807002e003700d0c6b30080cf500055
:10290000230034008104fb0042062000110009006e
:102910008204d80000017800010078004311dd0036
:102920008afb20000a014100a800200011000900d4
:102930000800d8004300dd000a004000402290005b
:10294000d022900060239000f02390000288900035
:1029500092889000b2899000228990001cf80700ac
:10296000801f780001027800110009008804d80057
:102970000102fd004f0078000402fb004322dd004d
:102980000a0242005403be004402be00d8ff3700d2
:102990000100fb0083fb2000eacf5000c5ff3c0094
:1029a0004300dd00030040005001be004000be00b7
:1029b0004f0578004f04be0000000600ef04b00091
:1029c000889fbe008a9fbe008c9fbe008e1f78002d
:1029d0006022b8006033b800e4a79f00f5a79f000d
:1029e00086af9f0097af9f00a0af9f00b1af9f0041
:1029f000c2af9f008002eb0095a79f00c807370079
:102a00008001eb0050c2b30080cf500009003200bb
:102a10000100fb00afa89700ce070700e10f4000c0
:102a2000bf0732001fa397000603e80096a79f0088
:102a3000bb073700bfab970097407800b0c2b30028
:102a400080cf50001900320007003c006b4050005e
:102a500080cf5000100032006340400080cf500013
:102a600021003a0016003700d0c2b30080cf5000da
:102a7000040032006340400080cf50001a003a004a
:102a8000140037000330a0003fac97000804e800b2
:102a9000b8af9f00e7ff37000300a000bfac97006e
:102aa0008904e800b9af9f00e2ff37000310a000df
:102ab0003fad97000a05e800baaf9f00ddff370081
:102ac00003b0a000bfad97008b05e800bbaf9f002f
:102ad000d8ff37000320a0003fa897000000e800bf
:102ae000b0af9f00d3ff37000318a30001003200ee
:102af0000300a1000338a300010032000320a1005d
:102b00000100fb0002fd2f0002004000e90f500011
:102b100010003e008000eb00e1979f000202780069
:102b20006f9197006a10b900bfaa97001501fb00ca
:102b30000001410004014100e2979f005500fb00a5
:102b4000b5af9f0004004000e90f50000d003e00ab
:102b5000f3ff37000003eb00e6979f00a0c2b3002d
:102b600080cf500007003a00cfab970047047800b1
:102b7000c7af9f00e8979f00bfac97008904e800ab
:102b8000b9af9f00e0c2b3003fad97009a4f10006d
:102b900021003a00830678000de0a0008a00e800da
:102ba00064405000914f100004003200b1af9f000c
:102bb0008005eb00aba79f00100037004fa89700df
:102bc000c0007800c0af9f00a1a79f003fa9970059
:102bd0000281e800b2af9f00130037002fa29700d8
:102be0006a20b9000000410003004000a0a79f0038
:102bf000bfaa97008502e800b5af9f003fab9700e2
:102c00001601fb0003fd2f0003004100e90f5000f7
:102c1000f2ff360004003700830678000dc0a000e4
:102c20008003eb00a7a79f003fac9700b840780057
:102c3000b8af9f00e1679f0070c6b30080cf50001f
:102c40003c00320017003c006440500080cf500030
:102c50008f0032000e003c007c40500080cf5000be
:102c60003300320006003c000104e000320732006d
:102c700000c0e90080cf5000aa003a0029003700c8
:102c800080c5b30080cf5000a6003a002d00370069
:102c900050c6b30080cf5000230032001f003c001c
:102ca000a700370000c7b30080cf500025003200d6
:102cb0000a003c006440500080cf500011003200f8
:102cc0006340400080cf50001c003200664050003e
:102cd00080cf500093003a009900370050c7b300ee
:102ce00080cf5000950032006340400080cf5000fc
:102cf000150032006540500080cf500089003a0036
:102d000013003700000028000d48a30001003a001e
:102d10000001200080867600c3ff37000da0a000d0
:102d2000870037000d50a0000d80a0008400370000
:102d30000d50a0000d90a000810037000d60a00094
:102d40007f0037000d50a0000d70a0007c00370000
:102d5000cfac970049007800c9af9f00e0a79f0063
:102d60000000e00002003a002b092100eba79f00c1
:102d70000000eb00f0a79f00020037008100e80090
:102d8000f1a79f00ffa097006fa19700028040006d
:102d90001004e000f9ff3a00afa197000300e00043
:102da000040032007fa29700848f5100010031009f
:102db000f3a79f007fa097000005eb006f9397009b
:102dc000800f530001003600000553004368de0009
:102dd000e104600019003a00090478000900370096
:102de000afa8970000022000da060700e10f4000bc
:102df000030032009fa397008703e80097a79f0076
:102e00000804e8008a0f5400f5ff3a000085eb0043
:102e10000a003700efa097003100fb00e1a79f00f8
:102e2000afa89700cb060700e10f40000300320077
:102e30001fa497000804e80098a79f00ffa597002b
:102e40000b00e900f0a79f00e10f4000f1ff3a00fe
:102e50000004eb000900e0000a003a00b006370069
:102e6000afa8970000022000ba060700e10f40005b
:102e7000030032001fa197000201e80092a79f0003
:102e80000804e8008a0f5400f5ff3a00a406370052
:102e9000cfa9970043007800c3af9f00cf80de002a
:102ea00001017800820178000203be000002be002a
:102eb000e0a79f00f1a79f0082af9f0093af9f0004
:102ec0004822de00482cdd0004027400e4679f0005
:102ed0000d48a3000c0032000404e0000a00320098
:102ee000e14f42000800320079fa2f000f804400c1
:102ef000044878004fcd97001a4098002b0020001e
:102f0000fba79f0003003700f0679f001000200020
:102f1000f0a79f0071fa2f008f804000e1a79f006b
:102f20009dff370062fa2f000f014100e2a79f00ca
:102f300013002000f3a79f0097ff37000d0cb3008c
:102f400000702000008266008a0432000dc8a300d1
:102f50000200320064002000a4a79f000d48a300d7
:102f6000090032004fa897004005be004004be0093
:102f7000c0af9f00d89f9f00e99f9f00fa9f9f00ce
:102f80008ba79f00080037004fa997004200be00a2
:102f9000c2af9f0003f70700d09f9f00e19f9f00f3
:102fa000f29f9f0083a79f006022b8006033b800a3
:102fb0005f989700ef9897007f9997008fa19700ef
:102fc00017f707000000e0000a003d005f9a970035
:102fd000ef9a97007f9b97008fa3970007f0a200be
:102fe000d49f9f00e59f9f00f69f9f0087a79f00ab
:102ff0003d00b3000000eb00d0979f006022b800b6
:103000006033b8005f989700ef9897007f9997001a
:103010008fa1970007f707000000e000350032009d
:103020005f989700ef9897007f9997008fa197007e
:1030300005f707003ef70700a5fa2f000f814200b1
:1030400077f707005f9097000000e9006300b90080
:10305000a2002000110009000200d8008000fd003d
:10306000d1979f000100e00002003d000100e9004f
:10307000d0979f005f9497000840ea00f8fd070092
:103080005f9a9700ef9a97007f9b97008fa3970016
:103090004ff60700909f9f00a19f9f00b29f9f0047
:1030a000c39f9f006022b8000600200007ff230096
:1030b000dbf607000000e00002003d000800e90028
:1030c0000b0037006022b8000600200047022400f1
:1030d0001f989700af9897003f999700cf99970056
:1030e00052f707000000e000020035000800e80089
:1030f000d0979f005f939700d6a79f000600e0003f
:1031000003003c0010c0b300e0679f0002003700de
:10311000afcb9700e7679f000d0678000c10b20058
:1031200008003a000d98a3007e0232005fa49700c9
:10313000e40f440003003500afa49700890f54004a
:10314000f90135002fa597000a00e00004003200c5
:103150000d98a300020032000a05e900aaa79f000b
:10316000afa5970020c1b300f28f550001003e00cb
:103170004fc09700e0679f006022b8006033b8003e
:103180005f989700ef9897007f9997008fa197001d
:10319000a8f607000000e000740032006f66970098
:1031a000afc897000cc05000adfd07000002be0084
:1031b0000203be005f989700ef9897007f999700f1
:1031c0008fa197001ef707000004be000205be0095
:1031d0000002be000203be00d49f9f00e59f9f0037
:1031e000f69f9f0087a79f006ff707000001be00b2
:1031f000e00f5000e08f58000200350090f7070004
:103200000900370061006000010020008301d10047
:103210000281d300020070008380700088f70700ed
:103220000001be00b2f707005ef607000002be0014
:103230000203be000800be000a01be0009f8070034
:103240006022b8000600200007fe2300f7f6070002
:103250000000e0000a0035006022b80006002000ef
:1032600007fe23000800be000a01be00fff70700aa
:10327000d09f9f00e19f9f00f29f9f0083a79f0028
:103280005f989700ef9897007f9997008fa197001c
:1032900045f707000002be006033b8000c00fb00d9
:1032a0004304dd0089e6200009004400d0009000be
:1032b00060019000f0019000400090000020e100cb
:1032c00001a8e10002b0e10003b8e10010003900fc
:1032d0000400200005002a009699290097fb23008e
:1032e0005f989700ef9897007f9997008fa19700bc
:1032f000b7f50700d09f9f00e19f9f00f29f9f00be
:1033000083a79f00dfa297000500e80016003700a2
:10331000090044005001be004000be000020e10052
:1033200001a8e10002b0e10003b8e1000f003100a4
:103330006022b80006002000470224005f98970032
:10334000ef9897007f9997008fa19700a0f507004d
:10335000d09f9f00e19f9f00f29f9f0083a79f0047
:103360005fa397000600e900d0979f004968de0040
:103370006100600080cf9f000004e0004000320048
:1033800000802000008666003d003a002fa49700d0
:10339000f40f54000200340049012000a9a79f0047
:1033a0005f989700ef9897007f9997008fa19700fb
:1033b000fdf607000004be000c0578008c057800bf
:1033c0000b0037002fa097000000e900a0a79f0086
:1033d000a4002000050020006033b8000800be00f3
:1033e0000a01be00e9f407000205be000004be00a9
:1033f000e00f5400e08f5c00e00f5d00e08f5d00a7
:103400000b003200a4002000050020006033b8004b
:103410000800be000a01be00e3f40700e00f500000
:10342000e08f5800e00f5900e08f5900e5ff3200af
:10343000ef6097000100fb002fa19700800f510063
:103440000f003d0002c0500005fd07000002be0055
:103450000203be005f989700ef9897007f9997004e
:103460008fa1970076f60700d09f9f00e19f9f00f5
:10347000f29f9f0083a79f00cfc19700e3679f0043
:103480006f929700afa297000500520065065000aa
:103490000500e00002003a000db8a3000100320070
:1034a0006606500063806600010032000c06e900e9
:1034b0000d28a30026003200e18066000d18a3004d
:1034c0000c003200d00220000100e00001003a00b0
:1034d0000080e900afa897001e050700e10f40003b
:1034e000180032001fa397000603e80096a79f006c
:1034f000140037000100e00012003200afa897006e
:103500000002200013050700e10f40000d0032000b
:103510009fa397008703e80097a79f000900370043
:10352000afa89700000320000a050700e10f400044
:10353000030032001fa497000804e80098a79f002a
:103540000c06e9000c00e000f5ff3c002e003700ff
:103550000d38a3000a0032000b003700afa8970017
:1035600000022000fb040700e10f400003003200ce
:103570009fa497008904e80099a79f000c06e90022
:103580000c00e000f5ff3c00e18066000d18a30090
:1035900013003200d00220000100e00001003a00d8
:1035a0000080e900afa89700ea040700e10f40009f
:1035b000150032001fa597000a05e8009aa79f0092
:1035c00011003700e8a79f00f9a79f008aaf9f006e
:1035d0009baf9f008045eb00eb679f0080003700aa
:1035e0000100e00008003200afa8970000022000b0
:1035f000d8040700e10f4000030032001fa097002d
:103600000000e80090a79f005f989700ef98970050
:103610007f9997008fa1970063f607000004be0012
:103620006055b800ef6097000100fb004300dd002b
:103630008ee620000e0040003002be002003be00d7
:103640000800be000a01be0050f407000003b000ed
:10365000afa89700bf040700e10f4000030032004d
:103660001fa197000201e80092a79f00ef61970059
:103670000300fb004300dd000e0040003002be00ee
:103680002003be000800be000a01be0046f4070089
:103690000205be000004be00e0a79f00f1a79f0046
:1036a00082af9f0093af9f00afa297000500e0009c
:1036b00002003a000db8a30049003200afa89700fd
:1036c000e0022000a3040700e10f400003003200e5
:1036d0001fa397000603e80096a79f00ef639700db
:1036e0000700fb00afa0970000805000809f9f0064
:1036f000240037000fc997000204e00005003200e3
:10370000e00f5400e08f5c00e00f5d00e08f5d0093
:10371000acff32000000fb004300dd008ee620001d
:103720000e0040003002be002003be000800be00b4
:103730000a01be0015f407000003b000afa897000f
:1037400084040700e10f4000030032009fa19700ae
:103750008301e80093a79f006f6297000400fb00bd
:103760004300dd000e0040003002be002003be001a
:103770000800be000a01be000bf407000205be00ef
:103780000004be00ef6297000540e900e0679f007b
:10379000e14f4000d7ff3a00e8a79f00f9a79f003c
:1037a0008aaf9f009baf9f000004eb000900370029
:1037b000afa897000003200066040700e10f400057
:1037c000030032001fa397000603e80096a79f009e
:1037d0000804e8008f9b9700870f5400f4ff3a001d
:1037e0000d58a30009003200afa897005004200034
:1037f00058040700e10f40000c0032001fa497009e
:103800000804e80098a79f0008003700afa89700b9
:10381000500620004f040700e10f40000300320073
:103820009fa497008904e80099a79f005f909700e4
:103830000000e0000b003d000000ea00d0979f0070
:10384000afa89700d002200042040700e10f40001b
:103850000c0032001fa597000a05e8009aa79f00f8
:1038600008003700afa89700b00220003904070015
:10387000e10f4000030032009fa597008b05e80090
:103880009ba79f005f909700a800200011000900ef
:103890000800d8000003b000afa897002d0407006f
:1038a000e10f4000030032001fa097000000e80075
:1038b00090a79f00df909700110009008800d800b2
:1038c0008000fd000003b000afa8970021040700ae
:1038d000e10f4000030032009fa097008100e80044
:1038e00091a79f000d38a3000d0432000c00e000ea
:1038f0000b0434000004eb00afa897000002200086
:1039000014040700e10f4000030032001fa19700dc
:103910000201e80092a79f000804e8008c0f540001
:10392000ff033200f4ff3700dfa197000300e0003f
:1039300004003d002fa29700030052000000e900a0
:10394000a0a79f005f989700ef9897007f99970036
:103950008fa19700c2f607000205be000004be005a
:103960000c42780085e620000b0037000400fb00c5
:103970004300dd00050040005001be004000be00d5
:103980000040e10001c8e10002d0e10003d8e100fd
:10399000030039000442e800f44f5200f3ff3a00fc
:1039a000e4679f000400fb00afa29700008752006d
:1039b000f80f57000d003c000e40780056fb070042
:1039c0000002be000203be005f989700ef989700c8
:1039d0007f9997008fa1970024f60700d09f9f0042
:1039e000e19f9f00f29f9f0083a79f000e407800f9
:1039f0009bfb0700d0af9f00e1af9f00f2af9f009d
:103a000083b79f00e00f5400e08f5c00e00f5d0083
:103a1000e08f5d00040035000800be000a01be0012
:103a2000c0f607001300370010002000010020003e
:103a30006011b80008006000898060000a01610020
:103a40008b8161008b03d1000a83d3008982d3006c
:103a50000882d300000072008180720002017300ae
:103a600083817300aff607000002be000203be00b0
:103a7000fef507000002be000203be005f9897003b
:103a8000ef9897007f9997008fa19700f5f50700b1
:103a90000002be000203be005fa89700efa89700d7
:103aa0007fa997008fb19700c9f307006cf6070054
:103ab0000205be000004be000006eb00080037004f
:103ac000a4002000050020006033b8000800be00fc
:103ad0000a01be002df307000205be000004be006f
:103ae0000c035700a6a79f008e0f56001d00320042
:103af0000c06e800a4002000050020006033b80098
:103b00000800be000a01be0027f30700e00f5000c6
:103b1000e08f5800e00f5900e08f5900e8ff3200b5
:103b200010003700afa39700f88f53000d003c0042
:103b300007407800f8fa07000002be000203be004a
:103b40005f989700ef9897007f9997008fa1970053
:103b5000c6f50700d09f9f00e19f9f00f29f9f0046
:103b600083a79f005fa49700e90f540015003c0055
:103b70006022b8006033b8005f989700ef98970014
:103b80007f9997008fa197002af407000000e000ba
:103b9000360032005f989700ef9897007f99970062
:103ba0008fa197002ef60700e00f5000e08f58001d
:103bb000e00f5900e08f59002c003a00e10f54004b
:103bc0002a0034000400200005002e00b6e0220088
:103bd000170124001f989700af9897003f9997000e
:103be000cf9997000ef407000000e00003003d00ad
:103bf000dfa4970073805400020037005fa5970090
:103c000072005500d0979f002f68970014fb0700a3
:103c1000909f9f00a19f9f00b29f9f00c39f9f0006
:103c20000002be000203be005f989700ef98970065
:103c30007f9997008fa1970081f4070008f607008d
:103c4000e0a79f00f1a79f0082af9f0093af9f0066
:103c50006000b8006011b800d0b79f00e1b79f00c6
:103c6000f2b79f0083bf9f00340037005f98970032
:103c7000ef9897007f9997008fa19700f8f50700bc
:103c8000e0a79f00f1a79f0082af9f0093af9f0026
:103c9000e00f5000e08f5800e00f5900e08f59000e
:103ca000020035001ff60700170037001000200043
:103cb000010020006011b8006fa29700ffa29700da
:103cc0000fab97009fab97000400600085806000f9
:103cd00006016100878161008703d1000683d3005c
:103ce0008582d3000482d3000000720081807200bc
:103cf00002017300838173000af607000002be0010
:103d00000203be0059f507000002be000203be0018
:103d10005f989700ef9897007f9997008fa1970081
:103d200050f50700d0b79f00e1b79f00f2b79f00a2
:103d300083bf9f000000eb00d0979f0014c0b3002a
:103d400085e620000f0037000400fb004300dd0083
:103d5000050340003600be002601be006fa4970098
:103d6000ffa497000fad97009fad97000040e100c2
:103d700001c8e10002d0e10003d8e10003003900ee
:103d80000442e800f44f5200efff3a00e4679f005e
:103d90000400fb00afa4970000804400df90970070
:103da000010040006f959700000655004b68de004b
:103db00061006000004778000004e00002003a0063
:103dc0000900e000010032000c06e9006380660093
:103dd000010032000c06e9000d28a3002600320085
:103de000e18066000d18a3000c003200d002200014
:103df0000100e00001003a000080e900afa8970050
:103e0000d4020700e10f4000180032009fa5970080
:103e10008b05e8009ba79f00140037000100e0001d
:103e200012003200afa8970000022000c90207006c
:103e3000e10f40000d0032001fa097000000e800d5
:103e400090a79f0009003700afa89700000320004b
:103e5000c0020700e10f4000030032009fa097005e
:103e60008100e80091a79f000c06e9000c00e0002b
:103e7000f5ff3c003f0037000d38a3000a00320078
:103e80000b003700afa8970000022000b102070026
:103e9000e10f4000030032001fa197000201e8007b
:103ea00092a79f000c06e9000c00e000f5ff3c0023
:103eb000e18066000d18a3000c003200d002200043
:103ec0000100e00001003a000080e900afa897007f
:103ed000a0020700e10f4000260032009fa19700da
:103ee0008301e80093a79f00220037000100e00053
:103ef00020003200afa897000002200095020700c2
:103f0000e10f40001b0032001fa297000402e800ee
:103f100094a79f00170037000000fb004300dd005e
:103f200081e62000010040003002be002003be00f8
:103f30006fa09700ffa097000fa997009fa9970077
:103f400012f20700a4002000050020006033b80032
:103f500015f207000003b000afa897007d0207002c
:103f6000e10f4000030032009fa297008502e800a5
:103f700095a79f006f6397000640e900e0679f00e8
:103f8000e14f4000e4ff3a000b003700afa8970074
:103f9000000320006f020700e10f40000300320021
:103fa0009fa397008703e80097a79f005f90970063
:103fb0000000e900d0979f005f9097000000e000ac
:103fc000f2ff3c002fa49700f20f540003003400ce
:103fd00020c1b300e0679f0002003700cfc4970004
:103fe000e9679f00ef6097000100fb002fa5970095
:103ff00000005500f0979f000104e00002003a0025
:104000000e04e00008003200afa89700e002200094
:1040100050020700e10f4000030032009fa5970007
:104020008b05e8009ba79f006f6097000cfa0700c4
:104030000002be000203be005fb09700efb0970021
:104040007fb197008fb9970061f2070004f5070070
:104050001e0037000000fb004300dd008ee620005c
:104060000e0040003002be002003be000800be006b
:104070000a01be00c5f10700a400200005002000d1
:104080006033b800c8f107000003b000afa8970084
:1040900030020700e10f4000030032001fa097002c
:1040a0000000e80090a79f00ef6097000100fb0070
:1040b0004300dd000e0040003002be002003be00c1
:1040c0000800be000a01be00b7f107000205be00ed
:1040d0000004be006f6197000240e900e0679f00a6
:1040e000e14f4000dbff3a00e8a79f00f9a79f00df
:1040f0008aaf9f009baf9f000004eb0009003700d0
:10410000afa897000003200012020700e10f400053
:10411000030032009fa197008301e80093a79f004e
:104120000804e8007f929700840f5400f4ff3a00df
:104130000d38a300fa0132000c00e000f801340051
:104140000004eb00afa89700000220000102070066
:10415000e10f4000030032009fa297008502e800b3
:1041600095a79f000804e8008c0f5400ec01320072
:10417000f4ff37000d007800000cb20032003a0066
:104180000d00e00009003d004fa897004005be006b
:104190004004be00c0af9f00e8a79f00f9a79f00a2
:1041a0008aaf9f009baf9f00160037000d48a30009
:1041b000090032004fa997004200be00c2af9f0025
:1041c0004f89de00cf91de000002be0002037800be
:1041d0008203780007003700cfa9970043007800da
:1041e000c3af9f0000027800cfa2de000503780075
:1041f00086037800e4a79f00f5a79f0086af9f0085
:1042000097af9f006fa49700ffa497000fad970092
:104210009fad9700e00f5400e08f5c00e00f5d0061
:10422000e08f5d0026003d003d00b3006000b80057
:104230006011b80008045000898458000a0559002c
:104240008b8559001a0037000d00e00005003d0085
:104250004faa97004401be004400be00c4af9f00b7
:10426000070037000d48a3000a003200cfaa9700cc
:104270004500be00c5af9f000401780084017800ae
:10428000e0a79f00f1a79f0082af9f0093af9f0020
:104290000b0037004fab970046007800c6af9f0079
:1042a00000047800090020000a0020000b00200014
:1042b000e8a79f00f9a79f008aaf9f009baf9f00d0
:1042c000afa497000900e0000b003a006fa0970030
:1042d000ffa097000fa997009fa99700e00f50003b
:1042e000e08f5800e00f5900e08f590002003a00bb
:1042f00011002000a1a79f000d0678000c0cb20051
:1043000000042000800f56003400320003003c00ff
:104310000c00e000070032004500370000082000d4
:10432000800f560018003200000c2000800f56004d
:104330003f003a0014c0b30085e620000f003700ac
:104340000400fb004300dd00050040005001be00fa
:104350004000be006fa49700ffa497000fad970028
:104360009fad97000040e10001c8e10002d0e100ec
:1043700003d8e1002d0039000442e800f44f520058
:10438000efff3a002900370014c0b30085de20009b
:104390000f0037000400fb004300dd000500400073
:1043a0005001be004000be006fa49700ffa497001c
:1043b0000fad97009fad97000040e10001c8e100fc
:1043c00002d0e10003d8e100180039000442e800ff
:1043d000f04f5200efff3a001400370014c0b30052
:1043e00085d320000f0037000400fb004300dd00f0
:1043f000050040005001be004000be006fa49700c1
:10440000ffa497000fad97009fad97000040e1001b
:1044100001c8e10002d0e10003d8e1000300390047
:104420000442e800f64f5200efff3a00e4679f00b5
:10443000ef6497000900fb002fa597008a0f50003a
:1044400002003d00ea679f0004003700afa5970017
:10445000808f550001003d00a0a79f006f9097003e
:104460000000e000050032006380660003003200b7
:10447000ef9097008100e900e1979f000de8a3000d
:104480000b0032006f919700afa19700830f51008e
:1044900003003c000002eb00e4979f00040037009b
:1044a000ef9297002fa3970086825200e5979f0016
:1044b000408c20000080660001842000810f5000a5
:1044c00006003a00ef9397000700e0001100320069
:1044d0008703e900e7979f000e003700008c20005b
:1044e0000080660001882000810f500009003a001a
:1044f0006f949700e20f540003003c008004eb002f
:10450000e9979f00030037006f9597000a85e9003f
:10451000ea979f00ef6597000b00fb008000eb001f
:10452000b1a79f006f919700800f510002003400e7
:1045300000005100b0a79f000d28a3004f003200db
:10454000e18066000d18a3000c003200d0022000ac
:104550000100e00001003a000080e900afa89700e8
:10456000fc000700e10f4000270032009fa19700e8
:104570008301e80093a79f00230037000100e000bb
:1045800009003200afa8970000022000f1000700e8
:10459000e10f40001c0032001fa297000402e80057
:1045a00094a79f0018003700008c20000080660050
:1045b00001882000810f500013003a00afa8970037
:1045c00000032000e3000700e10f40000300320079
:1045d0009fa297008502e80095a79f008005200014
:1045e0000d58a30001003a0080072000afa89700f3
:1045f000d8000700e10f4000030032001fa397001e
:104600000603e80096a79f00bfa397000700e000fd
:104610000f0032000004eb00afa897000003200059
:10462000cc000700e10f4000030032009fa4970078
:104630008904e80099a79f000804e8003fa59700b7
:104640008a0f5400f4ff3a008005eb00bba79f00df
:104650002fa097008000e900c308dd0080e620005d
:104660008085400080de20000085400080d320004f
:10467000808440000007eb0094003700bfa0970043
:104680000100e00011003200688066000f003a006f
:1046900000047800afa8970000022000ad000700da
:1046a000e10f4000030032001fa197000201e80063
:1046b00092a79f000804e800bfa19700830f540051
:1046c000f4ff3a000002eb00b4a79f00e18066000f
:1046d0000d18a3000c003200d00220000100e00001
:1046e00001003a000080e900afa897009900070098
:1046f000e10f40000e0032009fa297008502e80003
:1047000095a79f000a0037000100e0000800320072
:10471000afa89700000220008e000700e10f4000c4
:10472000030032001fa397000603e80096a79f002e
:10473000008c20008080660000842000808f500064
:1047400009003a00afa8970000032000810007008d
:10475000e10f4000beff32009fa397008703e800ef
:1047600097a79f00baff370000882000808f500075
:10477000b7ff3a00afa897000003200075000700bc
:10478000e10f4000030032001fa497000804e80076
:1047900098a79f00800520000d58a30001003a0053
:1047a00080072000afa897006a000700e10f4000d3
:1047b000a7ff32009fa497008904e80099a79f00f3
:1047c000a3ff370000042000800f560028003200ad
:1047d00003003c000c00e000070032002e00370010
:1047e00000082000800f560012003200000c20004c
:1047f000800f560028003a003b02be002b03be008b
:104800006fa09700ffa097000fa997009fa997009e
:10481000deef0700a4002000050020006033b80090
:10482000e1ef070004c3b30004424000e4679f00c7
:1048300019003700980921000d58a30001003a0023
:10484000a80a21003a02be002a03be006fa097000a
:10485000ffa097000fa997009fa99700cbef070033
:104860006f00600068447800e8679f000a00370026
:104870003902be002903be006fa09700ffa0970079
:104880000fa997009fa99700c0ef0700674060003d
:104890000043b000e0679f00ef6297000500fb0057
:1048a000afa897002b000700e10f40000300320083
:1048b0001fa397000603e80096a79f000e07e800d5
:1048c000e885550068055500e8845400afa39700bb
:1048d000870f5700bbff3a000d38a30010003200cd
:1048e0003fa497000800e0000d0034000004eb0036
:1048f000afa897000002200016000700e10f40005b
:10490000030032009fa497008904e80099a79f0044
:104910000804e8003fa597008a0f5400f4ff3a000e
:10492000bfad9700bb407800bbaf9f00e1679f0021
:104930000104e00032f83a001fa097004f0778000a
:104940004f06be004f05be004f04be00ef04b1008d
:1049500000000600889fbe00000178000104780076
:10496000b10090000118a3003d0032000198a3009f
:1049700003003a00180090000000e00038003a0000
:104980000190a0003104980082047800f90fb20071
:10499000180090000000e00002003a00280090009b
:1049a000000c78003800900000b8a3000600320028
:1049b00000a8a30004003200210020006011b8000c
:1049c0000800780049000700b80090000100780056
:1049d00000b0a10030049800ea8f540005003a00ae
:1049e0000178a30003003a0088007800d00020007e
:1049f000d8ff07009800900058009000808f50006a
:104a00000b0032000100e800100498001800780044
:104a100009587800000c780011c0b300c00b2100c9
:104a200001487800ea8f5400060032000f0037007a
:104a30008800780009407800c600070080047800ec
:104a40000a003700380090000088a30006003200fa
:104a50000800780095000700e10f400002003a00ce
:104a60008084eb0001003700a900200009007800d5
:104a70004f04be0000000600881f78000004780084
:104a800040009000110020006011b8005cee0700ab
:104a90000001be00180090000000e00002003d0090
:104aa0000000eb0010049800280090000000e000d7
:104ab00008003200380090000098a3000500320082
:104ac00018009000cf80de00020040008380480084
:104ad0000400370018009000cf80de000000510075
:104ae000818059004f047800000006000400fa009d
:104af000889fbe008a9fbe008c1f78000006780049
:104b000092bf9f00a3bf9f00010478003000900077
:104b10000040a100300698002c0090000000e0004a
:104b200006003a004c00900035ee0700e10f40000f
:104b3000e08f480057003a0054003700e18f5000e2
:104b400005003200e28f50000c0032000100e0004e
:104b5000200032004d0037000c007800c6ff07002f
:104b60001fb99700afb99700020140008381480048
:104b700092bf9f00a3bf9f00160037000c00780073
:104b80004a0007004c009000110020006011b8009e
:104b90001bee07000005be004c0090008800780066
:104ba0006011b80016ee07000004be004c00900033
:104bb0008000eb000a01be0011ee07001fba97004b
:104bc000afba97000402440085824c0094bf9f0056
:104bd000a5bf9f000c007800a7ff07001fba970031
:104be000afba97000001520081815a0003003200e1
:104bf0003c00900000b0a000300698003c029000fd
:104c00000408a3000f003200620362000d003a00a6
:104c1000e00f5100e08f59000a0035009c0290001f
:104c20006128b900800f5100818f590005003c00b8
:104c300002805200100698001c0e41000600780009
:104c4000150037000498a300050032001c009000f6
:104c50000000e000020032000c00780013000700a2
:104c60008000eb0011069800ac029000050e780061
:104c70004c0090001fb99700afb99700e0ed070016
:104c8000e00f5000e08f580002003d000080eb0074
:104c9000010037000000eb004f0678004f05be0012
:104ca0004f04be000080fa0000000600881f780054
:104cb00000047800300090000008a30007003200d4
:104cc000800078000120b20004003a00110498002e
:104cd000a8009000010c7800170037000018a3000e
:104ce000190032000098a30017003200a8009000bd
:104cf0000100e00014003200180190000200e00002
:104d00001100320048009000caed070098009000a2
:104d1000810f500003003200380090000003b30000
:104d2000300498000000eb00100498002800900068
:104d3000000c7800380090000058a30002003200f8
:104d40000080eb00010037000000eb004f0478000a
:104d5000000006000200fa00889fbe00a0ff9f002e
:104d60000104780031009000e200600004003a0085
:104d70000003b300300498001104980018003700b5
:104d8000d80490000900e0001a003a006c006000ae
:104d900004003a003300070020049800e10f4000af
:104da00011003a0029049800590498003800900036
:104db0000020a000300498001904980048009000da
:104dc00012002000e68057009aed0700e10f500026
:104dd0001f003200380090000003b3003004980038
:104de0000080eb001c0037000020200050049800d9
:104df0000a00370018019000a800900048009000b9
:104e00008ced070098009000810f500003003200e5
:104e1000380090000003b300300498001000200018
:104e20001004980028009000aff89700014878001f
:104e300028009000000ce800b80090000080eb0013
:104e40000158a30004003a000190a000310498002a
:104e5000aff897000180fb004f04be000080fa000d
:104e600000000600f18580000100e0000300320030
:104e700011007800f0858800030037000020200032
:104e8000a3ed070080007800e18f400002003a00a7
:104e9000906e260000868800010078000000060061
:104ea000f185800001087800f08588000000060088
:104eb0001000fa000040eb00204f98000040eb008b
:104ec000104f98000040eb00004f98000000eb00ee
:104ed0003007980082010700d5040700c0062d00a6
:104ee000df040700500a2d00dd040700c00b2d0071
:104ef000db040700700d2d00d9040700200f2d00e2
:104f0000d7040700a0102d00d5040700c0122d0003
:104f1000d304070070142d00d104070010162d00d3
:104f2000cf04070010182d00cd04070080192d00b4
:104f3000cb040700801d2d00c904070080212d002f
:104f4000c704070050252d00c504070050292d0077
:104f5000c3040700702d2d00c104070030312d005f
:104f6000bf040700120020008040eb0080312d00bc
:104f70009b010700d4c2bf000044b2000004e0005f
:104f800010003a0010002000a1170700e10f5000a8
:104f90000c003a00120020008040eb0080332d000e
:104fa0008f01070040352d00ad040700c4e2a800c2
:104fb000d4c2bf000044b2000004e000fcff320095
:104fc000530037000000eb0091170700c4e2a9006e
:104fd000c4c2a90000c0eb0065ebb700103a2d0079
:104fe0009f0407000001eb008040eb00b03b2d0068
:104ff0007b0107000081eb008081eb00a0c0b300c3
:10500000b7180700404f98004e4890000004e00099
:1050100028003200b03c2d00910407000040eb0056
:10502000304f98001f003700503e2d008c040700c1
:105030003e4890000080fb00c400dd00409220004c
:105040000080400010407800cc040700f03e2d00a6
:10505000830407003e4890000080fb004400dd0010
:10506000ec0040004092200000804000104078009a
:10507000a8040700903f2d00790407003e489000e7
:105080000080fb00c400dd00409220000080400052
:105090001040780065ebb7003e4890000040e80003
:1050a000304f9800be4890004e48900080cf50008e
:1050b000ddff39000040eb00721807004e489000f9
:1050c0000004e000080032008040eb000040eb00ec
:1050d00033190700e14f40000c003a00c03f2d009b
:1050e0005f040700090037000001eb008040eb007f
:1050f00080402d003a0107000081eb008081eb0029
:10510000a1c0b30010c0b300c41c0700c4e2a800d3
:1051100000c0eb001e12070041b52000914078004e
:105120001200200080422d002d0107000001eb003d
:105130008040eb0070442d0029010700000037007b
:105140005e1a07000000e00060003200204b800083
:10515000680060000000e0000200320040462d00c0
:105160003f040700204b8000630060000000e00067
:1051700003003200d0462d0039040700020037003a
:1051800090482d00360407006dc9bf006104070078
:10519000214b800000042000008060000000e0003f
:1051a0001f003200304a2d002d040700204b8000e4
:1051b00001082000010060000000e000080032004b
:1051c000404b80000000e8001040780051040700c8
:1051d000404b8000104078004e040700100037005c
:1051e0000040eb00404f98000a003700414b800020
:1051f0004e4890000080fb00008050006700400097
:1052000010407800430407004e4890000040e8003a
:10521000404f98004e489000e74f5000f3ff360093
:10522000a04a2d000e0407000040eb00404f9800fc
:1052300009003700514b80004e4890000080fb0071
:1052400000804000104078001c0407004e48900089
:105250000040e800404f9800c1962000914078003f
:105260004e48900080cf5000f2ff3e00c4c2bf0005
:105270000080fb004600de00614060000004a200e8
:1052800061406000614060004601dd00412c20006b
:1052900091407800f0cbb30000c060000240700085
:1052a000c4e2b7000d1a0700100020003007980074
:1052b0000e4890000040e800004f98008e48900093
:1052c0001e489000ad0007009dff3700e100070079
:1052d000404798004e4090000080fb007007980007
:1052e0007e009000e10f500004003200fe019000ab
:1052f000e28f51002700320091ff370054cbbf00ee
:105300000081fb00100020000100200082017800d5
:105310008301e90003003300000040008180480061
:10532000fbff37000080ea008180ea00008fbe00aa
:105330000001eb008040eb00d04a2d00a8000700e0
:105340001e00be00821e0700e10f50000a003a0056
:1053500041b52000914078000001eb00c04b2d00ca
:105360009f000700c04d2d00bd03070054cbbf00b8
:105370000204070072ff37000001eb008040eb00e1
:10538000c04f2d0096000700d0512d00b403070038
:105390006bff3700b0c0b3006be8b7002e48900039
:1053a0000080fb0062002000110009000280d8008c
:1053b0008000fd000004e00013003a00b2862000e7
:1053c000124178008280fb008083200080804000b2
:1053d000d0c0b300804878000240e8006be8b70016
:1053e000b2862000124178008280fb00808320007a
:1053f00080804000a0c0b300804878000240e800f0
:105400006be8b700200037000040eb00404f9800e9
:105410001a003700b3862000934178000382fb0016
:105420002e4890000080fb0062002000110009005f
:105430000280d8008000fd000080fb008000e900b1
:105440004e4890000081fb006b08b90082004000cc
:1054500050032d00008040009040780080832000a1
:1054600000004200014878000340e8006be8b70004
:105470004e4890000040e800404f98004e48900091
:10548000ea4f5000e3ff36002e4890000040e8004d
:10549000204f9800110020000040eb00ed1907009c
:1054a0000000e00007003a0080532d006c03070065
:1054b000120020008040eb00b0542d00480007008f
:1054c000030037001e4890000040e800104f98008d
:1054d0008e4890001e4890002800070018ff3700f3
:1054e0000000fa002c43a800d2c2a800d2e2a80013
:1054f000c0e2a900c0c2a900c642a900ca42a800d1
:10550000e442a900e842a800d902a800dee2a8000f
:10551000df02a900dec2a900e302a900e2c2a900dd
:10552000e462a900e862a800e013200010128800dd
:105530000000280000128800e013200010138800eb
:1055400000002800001388008220a8002c43a80037
:10555000d382a900d782a8008680a900dbc2bf0041
:10556000614060000004e00001003a008680a8006d
:10557000210107000080fa00000006000200fa0086
:10558000004f780011479800bd0107001e80fb0006
:1055900041b12000801f7800807b2d00801f7800a3
:1055a000010078002bf10700e48757001e409000af
:1055b0008080fb0040b2200000017800811f78004d
:1055c000807c2d00801f78000200780021f1070008
:1055d000e4875700500107000080fa000000060031
:1055e0000800fa0010079800414798003207980019
:1055f000a30107004e4090000080fb0041b1200055
:10560000801f78001e009000801f78000100780045
:1056100027f10700e48757003f0107003e00900094
:105620000000e000090032000040eb00004f78006d
:1056300003003700a00f2000bc0207001e4fe80047
:1056400070c0b3009e4f1000faff36000080fa00d1
:10565000000006001600fa00d4c2bf000044b200e9
:105660000004e0000e003a00d05a80000000e00084
:1056700033003a0010002000d05a8800680047002c
:105680003a0007004e009000de009000e05a8800cb
:10569000f15a880010002000200f98002a003700df
:1056a000d4c2bf0001c8b300014060000004e000a4
:1056b0000e003a00d05a80000000e00020003a00be
:1056c00010002000d05a88006c0047002700070017
:1056d0006e009000fe009000e05a8800f15a8800a9
:1056e00020002000200f98001700370070004700ae
:1056f0001e0007000e0890009e08900020079800ea
:10570000310798002e019000be019000e05a800001
:10571000f15a80000000510081805900008fbe00c6
:105720001e01be00f0ff230001002000800f510089
:10573000818f5900020036000000eb00d05a88002b
:105740000000eb00200f98002e0890000080fa0067
:10575000000006000000fa00800220008008880097
:1057600011e1a8000080fa00000006000400fa0021
:1057700031088000010f780051088000110798005f
:105780001e01be000288be000080fa000000060074
:105790000400fa00004f780011479800d802a900d1
:1057a000d822a900d842a900d862a900d882a900ad
:1057b000d8a2a900d8c2a900d8e2a900c7e2a900ce
:1057c000d2a2a900d6a2a9009e40780061c06000c4
:1057d000c700dd00cbc2bf000074a1000140700013
:1057e000cbe2b7001e409000614060006140600065
:1057f0006140600061416000c12d2000914078004f
:10580000e0cfb30000c0600002407000dce2b700ef
:105810001e4090000080fb000000d100614060004d
:1058200061406000614060006140600000414000f4
:10583000c12d200091407800d0cfb30000c060009f
:1058400002407000dce2b7001e4090000080fb00c8
:105850004200de0061406000614060006140600025
:10586000614060004201dd00c12d200091407800c0
:10587000b0cfb30000c0600002407000dce2b700af
:105880001e4090000080fb004300de00614060008d
:105890006140600061406000614060004301dd00e4
:1058a000c12d20009140780070cfb30000c060008f
:1058b00002407000dce2b7001e4090000080fb0058
:1058c0004400de00614060006140600061406000b3
:1058d000614060004401dd00c12d2000914078004e
:1058e000f0ceb30000c0600002407000dce2b70000
:1058f0001e4090000080fb004500de00614060001b
:105900006140600061406000614060004501dd0071
:10591000c12d200091407800f0cdb30000c06000a0
:1059200002407000dce2b7001e4090000080fb00e7
:105930004600de0061406000614060006140600040
:10594000614060004601dd00c12d200091407800db
:10595000f0cbb30000c0600002407000dce2b70092
:105960001e4090008040eb00214798000004e000ba
:1059700002003d0010c0b300204798002e40900068
:10598000c700dd00dcc2bf000074a1000140700050
:10599000dce2b7000000000000000000d682a80092
:1059a00000000000000000000000000000000000f7
:1059b00000000000000000000000000000000000e7
:1059c00000000000d682a900d802a800d822a800b2
:1059d000d842a800d862a800d882a800d8a2a800ff
:1059e000d8c2a800d8e2a800c7e2a800d2a2a800a6
:1059f0000080fa00000006000200fa000202200007
:105a00000102200040b1200040f007000040eb0000
:105a100034ebb700d682a900d6a2a900d802a9000b
:105a2000d822a900d842a900d862a900d882a9002a
:105a3000d8a2a900d8c2a900d8e2a900d2a2a90080
:105a4000c7e2a900d282a90080022000b7010700a6
:105a5000cbe2a900dc02a800dc22a800dc42a900fd
:105a6000dc62a900dc82a900dca2a900dcc2a900da
:105a7000dce2a90000000000000000000040eb0094
:105a8000004f780008003700d682a80010002000e0
:105a9000010020007f010700d682a900200020001d
:105aa000a20107001e4fe80020c0b3009e4f100067
:105ab000f5ff360081c3b3000040eb0034ff070060
:105ac00050002000010020007201070061c0b300f7
:105ad0000040eb002eff07005000200001002000d6
:105ae0006c010700c1c0b3000040eb0028ff0700b5
:105af00050002000010020006601070011c0b30023
:105b00000040eb0022ff0700200020008701070073
:105b10000080fa00000006000200fa0021c0b30075
:105b20000040eb001aff0700200020007f01070063
:105b30000040eb0010479800200037001e40900006
:105b40008080fb0040b120000080400010407800c1
:105b50000004e0000c003a001e409000004f780066
:105b6000060037009e80fb0040b12000808040008e
:105b700000c2b300804878001e4fe800f0c0b300b8
:105b80009e4f1000f7ff36001e4090008080fb0003
:105b900040b12000008040009040780010c0b30069
:105ba000fbfe070050002000010020003901070023
:105bb0001e4090000040e800104798001e409000f2
:105bc000ef4f5000ddff360001ccb3000040eb008a
:105bd000effe070050002000010020002d0107000b
:105be00000c1b30010479800200037001e4090000d
:105bf0008080fb0040b12000008040001040780011
:105c00000004e0000c003a001e409000004f7800b5
:105c1000060037009e80fb0040b1200080804000dd
:105c200000c2b300804878001e4fe800f0c1b30006
:105c30009e4f1000f7ff36001e4090008080fb0052
:105c400040b12000008040009040780010c0b300b8
:105c5000cffe070050002000010020000d010700ca
:105c60001e4090000040e800104798001e40900041
:105c7000ff4f5000ddff36000080fa0000000600f4
:105c80000000fa0011c0b3000040eb00c0fe0700a6
:105c90002000200025010700020220000102200050
:105ca00040b1200099ef07000080fa0000000600d4
:105cb0000600fa0010079800210798000040eb004a
:105cc000004f78000040eb00104798001e00900045
:105cd000e20f50000b003a00010037001e4fe800b1
:105ce0009e80fb0040b12000008040001040780002
:105cf0000004e00003003200f0c0b3009e4f10002b
:105d0000f6ff36001e81fb001e4090000080fb0065
:105d1000800078002e009000008040001040780045
:105d20008040780040b12000000041000148780028
:105d30001e4fe8001e4090000040e8001047980009
:105d40001e80fb008000e90040b120000080400080
:105d5000104078000004e00003003200e0c1b3000e
:105d60009e4f1000e7ff36006bff07000080fa002f
:105d7000000006000800fa001007980021079800ac
:105d80003207980096c0bf000080fb004400de0090
:105d900061406000004f78009680a900d782a9007a
:105da00030c0b3000d0107002e0090004800de0057
:105db0000a0107002e009000080107000a003700c2
:105dc00014010700804078001e0090000148780010
:105dd0001e0090000000e800100798003e009000b0
:105de0000000e900300798003e0090000000e0004d
:105df000f3ff3a00d782a8009e40780061c060009f
:105e0000614060004401dd0061092000914078009c
:105e1000f0ceb30000c060000240700096e0b70012
:105e20000080fa00000006000800fa001007980041
:105e300021079800320798000040eb0010479800b7
:105e400096c0bf000080fb004400de00614060009f
:105e5000004f78009680a90000003700d782a90083
:105e600050c0b300dd000700ea00070010479800ab
:105e7000d782a800580107001e4090000080fb0058
:105e8000610060000004e000f4ff3a00d782a9003e
:105e900060c0b300d1000700d782a8004e01070000
:105ea000d782a90020c0b300cc0007002e009000cc
:105eb0004800de00c90007002e009000c700070060
:105ec0000040eb00104798001c0037001e009000b7
:105ed000904078001e0090000000e8001007980035
:105ee00001407800bd0007003e0090000000e9007e
:105ef000300798001e4090000040e80010479800ce
:105f00001e4090008080fb002e00900080804000aa
:105f1000f0032000008060000000e00007003a006d
:105f2000d782a8001e4090008080fb002e009000c9
:105f30000100400020079800c8ff37003e00900095
:105f40000000e000e1ff3a00d782a8009e40780000
:105f500061c06000614060004401dd006109200013
:105f600091407800f0ceb30000c0600002407000a5
:105f700096e0b7000080fa00000006000600fa0074
:105f8000000f780011079800505a80009e004000d2
:105f900000002800808f5000030036000000eb0056
:105fa0002007980008003700515a80001e0090001a
:105fb00001087800505a80001e004000505a8800a6
:105fc00010002000200798002e0090000080fa00aa
:105fd000000006000200fa0010002000000f780008
:105fe0000000eb00505a880061b320002000200020
:105ff000e2ff07001e0f600081b3200010002000a8
:10600000deff07001e0f6000a1b32000100020007b
:10601000daff07001e0f6000c1b32000c008200097
:10602000d6ff07001e0f6000e1b3200040002000f3
:10603000d2ff07001e0f600001b4200020002000e6
:10604000ceff07001e0f600021b4200010002000ca
:10605000caff07001e0f600041b42000800020002e
:10606000c6ff07001e0f600061b420001000200072
:10607000c2ff07001e0f600081b420001000200046
:10608000beff07001e0f60001e0078000080fa00af
:10609000000006000800fa00200798003107980069
:1060a000ae009000800220000009b8002e00900091
:1060b0006000b9000302780000024200be009000b8
:1060c000800220000088b9000002420084017800ac
:1060d0000200be00008fbe001e01be0040fd2f006a
:1060e000f1ff2f000200400083804800008fbe00b7
:1060f0001e00be00e00f5000e08f58000900340081
:10610000040037001e00be006b005000e080580005
:10611000008fbe001e00be00e00f5000e08f580050
:10612000f8ff3c000080fa00000006000400fa00be
:10613000100798000c00370040c0b300004f7800f3
:10614000030037009001200001002000d1ff07006c
:106150001e4078000040e900004f78001e407800a3
:10616000e14f4000f7ff3a001e0090000000e900f8
:10617000100798001e009000e10f4000eeff3a006b
:106180000080fa00000006000400fa002047980092
:106190008540a90040128000004f78002e409000fa
:1061a0000080fb004012880085c0bf006440600092
:1061b0000004e000fcff32000080fa00000006004e
:1061c0000000fa000040eb00efff070040128000e3
:1061d0000080fb000080fa00000006000400fa00c6
:1061e000204798008820a90040138000004f7800c5
:1061f0002e4090000080fb004013880088c0bf0044
:10620000624060000004e000fcff32000080fa0001
:10621000000006000000fa000040eb00efff07005e
:10622000401380000080fb000080fa0000000600a0
:106230000000fa00c0002000c011880087c0a9003b
:106240000000eb00901188000008200080118800f9
:1062500031e2a8003342a8000080fa0000000600e6
:106260000600fa0010079800020037001e40780070
:10627000120007001e00900010407800004f7800c8
:106280001e407800404798004e4090000004e00017
:106290000200320010c0b300404798004e4090000a
:1062a0009e0090008100e800110798000004e000c3
:1062b000eeff3a000080fa00000006000200fa003b
:1062c000004f780033c2bf00614060000004e0006e
:1062d000fcff32001e80fb00a01188000080fa0045
:1062e000000006000200fa0087c0bf000044b200b0
:1062f0000004e000fcff3200b0118000004f780085
:1063000087c0a9001e4078000080fb000080fa00d2
:10631000000006000400fa00204798002e4090007c
:10632000004f78002e4090000080fb004400de000b
:106330006f406000204798002e4090008080fb0056
:10634000a07e2d000080400010407800dbff070099
:106350009e4078006fc06000204798002e4090005b
:106360008080fb00a07e2d0000804000104078005f
:10637000d2ff07000080fa00000006000200fa00c9
:10638000004f78001e80fb00a200200011000900d1
:106390000280d8008080fb00a07e2d00008040009d
:1063a00010407800c5ff07001e80fb00a2002000ff
:1063b000110009000280d8008000fd008080fb00f1
:1063c000a07e2d000080400010407800bbff070039
:1063d0000080fa00000006000000fa000000000043
:1063e0000080fa00000006001400fa00204f980018
:1063f000310880002e4890000081fb001100090048
:106400008280d8008000fd00004f7800190037001e
:106410001e4fe9006c004700d4fc07006e0090009e
:10642000fe009000100798002107980070004700b8
:10643000cefc07000e0890009e08900030079800e0
:10644000410798003e019000ce0190001e00900090
:10645000ae0090000001510081815900e00320004e
:1064600001002000800f5100818f590001003e0083
:10647000eeff37001e04e000e5ff3a000080fa005e
:10648000000006003c00fa00881f7800de1c0700b0
:106490000000e000eb073200b041800064006000c3
:1064a0000000e000cd083a000040eb0064e9b700ce
:1064b000004080004200de006140600063406000f8
:1064c0000080fb0063016000214b8000c0ff2f00b3
:1064d0000080600002007000204b880000408000b7
:1064e0004300de00614060000080fb00610060004e
:1064f0004301dd00214b800070ff2f000080600011
:1065000002007000204b88000040800063006000a3
:106510008040eb00217f9800e10f500002003a001c
:1065200010c0b300207f9800ae7890000180fb007f
:10653000610060004501dd00214b8000f0fd2f006f
:106540000080600002007000204b88000040800046
:106550004700de00614060000080fb0061006000d9
:106560004601dd00214b8000f0fb2f000080600021
:1065700002007000204b88000140800000082000cd
:10658000008060000000e0000c00320050408000fd
:10659000614060000080fb00610060004701dd0099
:1065a000214b8000f0f72f00008060000200700097
:1065b000204b880010408000404b880060408000e5
:1065c000304b880008c8bf006ee9b70007c8bf009d
:1065d0006de9b7003648a9000040800063406000c4
:1065e0000080fb00401f98004e189000e10f500003
:1065f000d0043200ce189000e38f5000e303320045
:106600004e1890000000e0000100320088073700bb
:1066100006c8bf00e94f50008507360020408000c3
:106620000080e80010407800005f98002040800063
:106630006300400010407800105f98002040800008
:106640006400400010407800605f980020408000a7
:106650006500400010407800705f98002040800086
:106660006600400010407800205f980020408000c5
:106670006700400010407800305f980020408000a4
:106680006800400010407800405f98002040800083
:106690006900400010407800505f98000040eb0017
:1066a00064e9b700004080004300de006140600004
:1066b0000080fb00610060004301dd00214b800091
:1066c00070ff2f000080600002007000204b8800e7
:1066d000204b8000630060000000e00003003a00ef
:1066e0007e089000e10f4000d6003a00ee089000ce
:1066f00070438000808f500004003a00de08900054
:1067000060438000808f50004907320020408000a5
:1067100010407800e14f50006300360021408000b7
:10672000114078000040e900804878000040eb000c
:106730006be8b7000040eb00604f98001000370096
:10674000b2862000124178008281fb002140800047
:106750006e4890000080fb00008040009040780070
:106760008083200000804100014878000240e8005a
:106770006be8b7006e4890000040e800604f98005a
:1067800061802000914078006e48900080cf5000da
:10679000ebff3e0000c8bf0014eab7005040800085
:1067a000d050880040c1b3000fff07006bc8bf0086
:1067b0000043780085832000a0508000b150800005
:1067c000c2508000d3508000e4508000141f0700a6
:1067d0000040eb00604f9800230037006e489000a7
:1067e0000080fb006e00b900ec00400080892000b2
:1067f00000804000100078004700de00614060002b
:106800000004e000150032006e4890000080fb009c
:106810006e00b900ec00400080892000008040003c
:1068200010007800614060000004e0000b003a00b6
:106830006e4890000080fb006e00b900ec00400044
:106840008089200000804000100078004500de00b4
:10685000614060000004e00006003a006e489000cd
:106860000040e800604f98006e489000e94f5000eb
:10687000daff36006e489000e94f50000a003e00f3
:10688000004080004300de00614060000080fb00ab
:10689000000278008001eb000001eb00ce089000c0
:1068a000100020002e0f07000040eb00604f980002
:1068b000210037006e4890000080fb004300dd009f
:1068c0008080e800e0a1200000804000104090009f
:1068d0000004e000150032006e4890000080fb00cc
:1068e000c300dd00e0a1200000804000900078009f
:1068f0006e089000808f50000c003a006e489000a7
:106900000080fb004300dd008080e800e0a1200063
:106910000080400090407800204080006a004000e5
:106920001040780080cf5000060032006e48900082
:106930000040e800604f98006e489000e34f500020
:10694000dcff36006e489000e34f5000b80636007a
:106950000040eb00604f98000c0037006e4890003c
:106960000080fb004300dd008080e800e0a1200003
:1069700000804000104090000004e000060032005b
:106980006e4890000040e800604f98006e4890000c
:10699000e34f5000f1ff36006e489000e34f500087
:1069a00025003e006e4890000080fb006e099000bc
:1069b000c300dd00e0a12000008040000208780054
:1069c0006e4890008080fb00204080006a004000fc
:1069d000104178004308dd008080e800e0a120003d
:1069e00000804000024878006e4890000080fb0064
:1069f0004300dd008080e800e0a1200080804000ae
:106a000030c0b300904098006e4890000084fb00b6
:106a1000400220000e00400054fb07002e119000a1
:106a2000be1190004340dd00e4004000e0a12000e2
:106a3000008040000288be006409a8006429a90003
:106a40004c003700ce08900060438000808f5000db
:106a500083023a00fe08900070438000808f50004f
:106a60007f023a00204080000000e80010407800db
:106a70000080fb004200de00610060000004e000d6
:106a80003c00320056cbbf0038e8b70020c0b3004e
:106a900039e8b7002e5890003ae8b7003e58900009
:106aa0003be8b7004e5890003ce8b7005e589000b5
:106ab0003de8b7006cc8bf003ee8b7006dc8bf0036
:106ac0003fe8b7006ec8bf0040e8b7006fc8bf001e
:106ad00041e8b700204080006a0040001040780084
:106ae00042e8b7000040eb0043e8b70000c3b30042
:106af00044e8b700d0c0b3006be8b700de589000a0
:106b00006fc8bf0080cf5000050032000001eb00cd
:106b1000ee0890005e08900033070700140037006d
:106b20000040eb0014eab70014aaa80010002000ef
:106b3000c050880010002000d05088007c00470022
:106b4000b05088005e089000e05088006bc8bf001d
:106b50000043780085832000a0508000b150800061
:106b6000c2508000d3508000e45080002c1e0700eb
:106b70006449a800204080006b004000104078006d
:106b80000004e00017023a00204080006c00400042
:106b90009040780000c3b30080cf5000050232005f
:106ba000204080006c004000104078000080fb0016
:106bb000301f980000042000be189000808f500005
:106bc000ae01320000042000be189000808f5000fb
:106bd00007003c003e189000f00f50000d003200fe
:106be000be189000f18f50003601320010063700b9
:106bf00010042000be189000808f5000ae013200bb
:106c000020042000be189000808f5000e701320061
:106c100007063700e0438000620060000000e000eb
:106c20003c003a00800220000e004000cffa07002e
:106c30004e109000de109000a0448800b1448800ff
:106c40002040800068004000104078007ee8b700d7
:106c50002040800069004000104078007fe8b700c5
:106c60000040eb00504f98000f0037005e48900046
:106c70008081fb00214080005e4890000080fb0086
:106c8000008040006d00400010417800e480410029
:106c9000c087200000804000024878005e489000d5
:106ca0000040e800504f98005e489000e74f5000c9
:106cb000eeff36007c28a8007c08a9000040eb000d
:106cc000504f98000f0037005e4890008081fb0015
:106cd000214080005e4890000080fb000080400062
:106ce0007500400010417800ec804100c087200012
:106cf00000804000024878005e4890000040e800b4
:106d0000504f98005e4890000004e000eeff320013
:106d1000c7053700204080006800400090407800a0
:106d20007ec8bf0080cf500007003a00204080009e
:106d300069004000904078007fc8bf0080cf5000bd
:106d400001003a00ba053700f04380000000e0007f
:106d500069003a000040eb00504f98001a003700dd
:106d60005e4890008081fb00214080005e489000da
:106d70000080fb00008040006d0040001041780062
:106d8000f0804100c0872000008040000248780069
:106d90005e4890000081fb005e4890000080fb0090
:106da000f0004000c0872000008040009040780044
:106db0001087200000004100014878005e489000e4
:106dc0000040e800504f98005e489000e74f5000a8
:106dd000e3ff36002040800068004000104078004b
:106de0008ae8b70020408000690040001040780029
:106df0008be8b7008ac8bf007ae8b7008bc8bf002d
:106e00007be8b70060438000904b8800c10e07000c
:106e10007de8b7007dc8bf00e14f400033003a0075
:106e2000d0c8b30074e9b7007ac8bf000004e0001e
:106e300001003d007409a9007f0f07007de8b7003d
:106e40007dc8bf00e14f4000280032000040eb0049
:106e5000504f9800130037007dc8bf000081fb0031
:106e60005e4890008081fb00214080005e489000d9
:106e70000080fb0000804000750040001042780058
:106e80006e10b90003004000ec0040008089200033
:106e900000804000144098005e4890000040e800e8
:106ea000504f98005e4890000004e000eaff320076
:106eb0007dc8bf000080fb006e00b9008000780034
:106ec000e0598000808140007dc8bf000080fb0049
:106ed0006e00b900800078008089200000804000aa
:106ee000e200200083007800cffb07007c28a80088
:106ef0007c08a8004e05370080592d00d8fc0700fb
:106f0000b0c0b3006be8b700b28620001241780031
:106f10008280fb0080832000808040000040eb00e6
:106f2000804878000240e8006be8b700b286200095
:106f3000124178008280fb00808320008080400026
:106f400010c1b300804878000240e8006be8b70049
:106f50000040eb00504f98001d0037005e48900045
:106f60008081fb00214080005e4890000080fb0093
:106f7000008040006d00400010417800f08041002a
:106f8000c08720000080400002487800b2862000c0
:106f9000124178008281fb005e4890000080fb0077
:106fa000f0004000c0872000008040009040780042
:106fb0008083200000804100014878000240e80002
:106fc0006be8b7005e4890000040e800504f980022
:106fd0005e489000e74f5000e0ff36002040800000
:106fe00068004000104078008ae8b7002040800028
:106ff00069004000104078008be8b700b38620009d
:10700000934178008380fb00a28820001241780021
:107010008083200000804000024878000340e800a0
:107020006be8b700b3862000934178008380fb00b3
:10703000b288200012417800808320000080400048
:10704000024878000340e8006be8b7000040eb001e
:10705000504f980011003700b2862000124178008e
:107060008281fb00214080005e4890000080fb0090
:107070000080400075004000904078008083200030
:1070800000804100014878000240e8006be8b7004a
:107090005e4890000040e800504f98005e48900025
:1070a0000004e000ecff32000001eb008000eb0088
:1070b000e0872000841307007c28a8007c08a80033
:1070c000db0437000040eb00404f98000e00370013
:1070d0004e4890000081fb00214080004e48900007
:1070e0000080fb00008040006d0040009040780070
:1070f0001087200000004100014878004e489000b1
:107100000040e800404f98004e489000e74f500084
:10711000efff3600d0c8b30074e9b700204080000c
:1071200075004000104078000004e00001003d00c0
:107130007409a900204080007500400010407800cc
:107140007ae8b700204080007600400010407800c8
:107150007be8b70060438000904b8800ed0d07008e
:107160007de8b7007dc8bf00e14f40000b00320052
:107170007dc8bf000080fb006e00b900ec0040003d
:1071800080892000008040001040780074e9b7003a
:107190007449a8007469a80006003700d0c8b3007d
:1071a00074e9b7007ac8bf000004e00001003d00a8
:1071b0007409a900a00e07007de8b7007dc8bf00d4
:1071c000e14f40002a0032000040eb00404f9800a1
:1071d000130037007dc8bf000081fb004e489000bf
:1071e0008081fb00214080004e4890000080fb0021
:1071f0000080400077004000104278006e10b90017
:1072000003004000ec004000808920000080400026
:10721000144098004e4890000040e800404f98000d
:107220004e4890000004e000eaff32007dc8bf0035
:107230000080fb006e00b90080007800e0598000fb
:10724000808140007dc8bf000080fb006e00b90057
:10725000800078008089200000804000e20020004b
:1072600083007800f0fa07007c08a80001003700ce
:107270007c08a9007c28a9006d043700204080000c
:107280006d0040009040780054cbbf0080cf50008c
:1072900067043a00204080006e00400010407800f3
:1072a000e30f0700f05a2d00edfb070054cbbf00a1
:1072b00032fc07005e043700204080006d00400073
:1072c0009040780054cbbf0080cf500058043a0063
:1072d0000040eb006be8b70056cbbf0038e8b700c2
:1072e00020c0b30039e8b7006cc8bf003ae8b70067
:1072f0006dc8bf003be8b700204080006800400038
:10730000104078003ce8b700204080006900400051
:10731000104078003de8b7006cc8bf003ee8b700f9
:107320006dc8bf003fe8b7006ec8bf0040e8b700b7
:107330006fc8bf0041e8b70078c9bf0042e8b70096
:107340000040e80078e9b7000040eb0043e8b700f0
:1073500020c4b30044e8b7000040eb0014eab700d3
:1073600014aaa80010002000c050880010002000bf
:10737000d050880060438000e050880020408000aa
:1073800068004000b0508800d6c0b300858320005c
:10739000a0508000b1508000c2508000d3508000c7
:1073a000e45080001e1c07002104370036e8a900c5
:1073b0001f043700204080006a00400090407800a1
:1073c00057cbbf0080cf500019043a00ee08900060
:1073d000b04b8000808f500015043a003668a90039
:1073e0001304370006c8bf006b4050006ce9b700bb
:1073f000204080006b004000504b88005e089000e9
:10740000304b880020408000680040001040780029
:10741000e14f400008003a00204080006900400031
:1074200010407800e14f400003003a001040800017
:10743000404b88000400370064e9a8002040800029
:1074400068004000404b880064c9a8006cc9bf00b8
:107450000004e000f60332003648a800f4033700c9
:1074600020408000104078000004e000f00332006b
:1074700021408000114078000040e90080487800f9
:107480000040eb006be8b7000040eb00604f980055
:1074900010003700b2862000124178008281fb0084
:1074a000214080006e4890000080fb00008040007a
:1074b00090407800808320000080410001487800df
:1074c0000240e8006be8b7006e4890000040e8001a
:1074d000604f980061802000914078006e489000d5
:1074e00080cf5000ebff3e00fe5890006fc8bf00f9
:1074f00080cf50001d003a0043c8bf000004e000e8
:107500001a003a00418420009140780000c3b30083
:1075100080cf500015003a000040eb0014eab7009d
:1075200014aaa80010002000c050880010002000fd
:10753000d05088007e004700b05088004e08900070
:10754000e05088006bc8bf000043780085832000ae
:10755000a0508000b1508000c2508000d350800005
:10756000e4508000ae1b0700b103370000408000ec
:107570004300de00614060000081fb00fe089000d7
:107580004e08900098040700a90337000040eb0064
:10759000304f9800214080003e4890000080fb0062
:1075a000008040006400400090407800d0c4b300e8
:1075b00080cf50009e033a00104080000000e80099
:1075c00090407800214f98002e4890008080fb006a
:1075d000100020000100dd00104f980010408000d6
:1075e000104078000004e00004003a0012cabf0016
:1075f0009e4890000140700012eab7002e489000ab
:107600000081fb00214080003e4890000080fb008c
:1076100000804000660040009040780020a02000dc
:1076200000004100014878003688a800b041800081
:10763000700060000000e00007003200c00220007f
:107640000e00400049f807006e109000fe109000f8
:10765000f051880001528800b04180006100600054
:107660000000e0007203320060408000904b880010
:1076700010408000104078007ae8b7001040800089
:107680000000e800104078007be8b700214080004f
:107690003e4890000080fb000080400010407800d1
:1076a000e14f400062033a00214080003e489000d4
:1076b0000080fb00008040000000e80010407800df
:1076c0000067980071c9bf00e34f500058033e00a7
:1076d0000e1090004400de00634060000080fb005c
:1076e000e10f500052033c0071c9bf000080fb0055
:1076f00042b5200012417800c400dd004092200015
:10770000008040000248780071c9bf000080fb0083
:10771000d2962000124178004400dd00ec004000c9
:1077200040922000008040000248780071c9bf00ec
:107730000080fb00e2962000124178004400dd004a
:10774000ec00400040922000008040001240980071
:1077500071c9bf000080fb00924b80004400dd0037
:10776000ea004000409220000080400002087800bb
:1077700071c9bf000080fb004400dd00ee00400046
:1077800040922000808040000040eb00804878005c
:1077900071c9bf000080fb004400dd00ee00400026
:1077a000409220008080400000042000910870007a
:1077b00071c9bf008080fb000e1090000000d10056
:1077c000634160004408dd00ee004000409220006c
:1077d000008040008280fb0063816000c1ff2f00b9
:1077e00010886000100871000e6090006840600012
:1077f0000004e0000700320071c9bf000080fb00f8
:107800004400dd00ee004000409220000080400077
:107810001030a0000e1090004400de0063406000b5
:107820000080fb00e10f500008003c0071c9bf0060
:107830000080fb004400dd00ee004000409220008c
:1078400080804000000220009108700071c9bf00d4
:107850008080fb00404b800010417800c408dd00b0
:1078600040922000008040001240980071c9bf0083
:107870008080fb00404b80000000e8001041780051
:107880004408dd008000e8004092200000804000b5
:107890001240980071c9bf000080fb004400dd0069
:1078a000ee00400040922000808040000008200050
:1078b000910870000040eb00604f98001600370000
:1078c00071c9bf008081fb006e4890000082fb0000
:1078d000224080003e4890008080fb006e4890006f
:1078e0000080fb0000804000000041006700400075
:1078f000104178004418dd0004004000ee00400014
:107900004092200000804000124098006e48900095
:107910000040e800604f98006e4890000004e000ce
:10792000e7ff320071c9bf000040e80071e9b7000d
:10793000bf02370020408000104078000080fb002c
:10794000201f98002e189000e30f5000cb0132004a
:10795000ae189000e38f500007003c002e189000f6
:10796000e10f50000b003200ae189000e28f500083
:1079700009013200ae0237002e189000e40f5000cb
:107980008b023200ae189000e78f50009502320053
:10799000a70237000040eb007047980055cbbf00ae
:1079a000e14f5000a2023e000040eb00604f980003
:1079b0000d0037006e4890000081fb0011408000f0
:1079c0006e4890000080fb000080400090407800ee
:1079d0001087200000004100014878006e489000a8
:1079e0000040e800604f98006e489000e74f50005c
:1079f000f0ff3600510c0700004f98000e48900031
:107a0000e14f400021003a0055cbbf000004e000e8
:107a100087023a0070cbb30074e9b700604380007e
:107a2000904b8800840c0700004f98000e4890008f
:107a3000e14f400005003a0010c0b30070479800c5
:107a4000e0ff2f00d0438800a30037000e489000cd
:107a50000080fb006e00b90080007800e0598000d3
:107a6000808140000e4890000080fb006e00b9004d
:107a7000800078008089200000804000e200200023
:107a800083007800e8f80700140037000e489000e3
:107a90000080fb006e00b900ec00400080892000ef
:107aa00000804000100078004300de00614060006c
:107ab0000004e000090032000e4890000080fb0046
:107ac0006e00b9008080e8008089200000804000be
:107ad00010007800d04388007f0037000e489000e7
:107ae000e14f40007c0032000e4890000040e8006a
:107af0007ae8b7006fc8bf007be8b700604380003a
:107b0000904b880013cabf00e24f500032003a0089
:107b1000204080000000e800104078000080fb005a
:107b20004600de00610060000004e0002a00320030
:107b3000d0438000101798000040eb007ae8b700af
:107b400010c0b300604798001b0037006e409000e3
:107b50007be8b7006f0b0700504798005e4090002d
:107b6000e14f400011003a000040eb007ae8b70016
:107b70006e4090007be8b7006e4090008080fb0074
:107b8000100020000100dd008040780012cabf0014
:107b900000c0700012eab700315a800012002000c5
:107ba00020a12000a0f80700060037006e409000da
:107bb0000040e800604798006e409000e74f50009a
:107bc000e2ff36006e409000e84f500002003a009d
:107bd0001e109000d0438800f0cbb30074e9b700ca
:107be000204080000000e800104078000080fb008a
:107bf0000000a200610060000004e0000500320007
:107c00007409a9007ac8bf0001c8b3000140700020
:107c10007ae8b700080c0700004f98000e48900063
:107c20000080fb006e00b900ec004000808920005d
:107c3000008040001040a0000040eb00604f980022
:107c4000130037000e4890000081fb006e48900042
:107c50008081fb00214080006e4890000080fb0086
:107c6000008040000080e800104278006e10b900eb
:107c700003004000ec0040008089200000804000ac
:107c8000144098006e4890000040e800604f980053
:107c90006e4890000004e000eaff32000e489000b9
:107ca0000080fb006e00b90080007800e059800081
:107cb000808140000e4890000080fb006e00b900fb
:107cc000800078008089200000804000e2002000d1
:107cd0008300780054f8070020c0b30038e8b700ec
:107ce0007ac8bf0039e8b7007bc8bf003ae8b700e0
:107cf0007e4090003be8b7000040eb00604f9800ea
:107d00000e0037006e4890000080fb0064014000c8
:107d10006e4890008080fb0040b62000008040004c
:107d200090407800808320000000410001487800e6
:107d30006e4890000040e800604f98006e48900048
:107d40000004e000efff320050c0b3006be8b70062
:107d50000e4890000080fb00c200dd00e0802000a3
:107d6000008140006000b8000089be000e4890000d
:107d70000080fb006e00b900e40040008089200014
:107d8000808040008041eb0012c0b300c08620001c
:107d900047040700a6013700204080006300400030
:107da000104078000004e0009e003a00204080006f
:107db0000000e800104078006ee8b7002040800026
:107dc0000080e800104078006fe8b7006ec8bf0080
:107dd0000004e00018003a00505c2d0020f9070074
:107de00010c0b30013eab70013cabf0063406000bd
:107df00063406000004140000197200091407800fe
:107e000090cfb30000c060000240700070e9b7007e
:107e10006fc8bf000080fb00e7006000100020007a
:107e20000100dd008040e80012cabf0000c0700001
:107e300012eab7000e003700a05d2d0008f9070018
:107e40000040eb0013eab70013cabf0063406000b4
:107e5000634060000041400001972000914078009d
:107e600090cfb30000c060000240700070e9b7001e
:107e7000415a80001200200030a12000eaf70700dc
:107e8000c1862000e0862000351c07003628a800a7
:107e9000f0cbb30074e9b7000040eb00604f9800ee
:107ea0000d0037006e4890000081fb0011408000fb
:107eb0006e4890000080fb000080400090407800f9
:107ec0001087200000004100014878006e489000b3
:107ed0000040e800604f98006e489000e74f500067
:107ee000f0ff36006ec8bf000004e00003003a0057
:107ef0000000eb00d0438800040037006fc8bf00cb
:107f00007be8b7000040eb007ae8b70060438000f0
:107f1000904b8800480b070070e8b70070c8bf009e
:107f20000080fb00c200dd00e080200000814000f6
:107f30006000b8000089be000040eb00604f980070
:107f40001300370070c8bf000081fb006e4890002e
:107f50008081fb00214080006e4890000080fb0083
:107f60000080400064004000104278006e10b900ac
:107f700003004000ec0040008089200000804000a9
:107f8000144098006e4890000040e800604f980050
:107f90006e4890000004e000eaff3200b159800012
:107fa00022002000c08620009ff70700015a8000b1
:107fb00022002000e08620009bf70700115a800075
:107fc000120020000087200097f7070070c8bf004c
:107fd0000080fb006e00b90080007800e05980004e
:107fe0008081400070c8bf000080fb006e00b900b7
:107ff000800078008089200000804000e20020009e
:108000008300780088f70700315a800012002000b2
:1080100020a1200084f70700f05e2d0090f80700f3
:108020000301370000c0eb0070e8b7000080eb00f0
:10803000604388000080eb00d0438800c1862000a8
:10804000a0872000c61b0700115a800012002000e4
:108050000087200074f70700b1598000220020003b
:10806000c086200070f70700015a8000220020001f
:10807000e08620006cf70700ed00370050408000dc
:108080000000e0000d003200104080001040780039
:108090007ae8b700104080000000e8001040780047
:1080a0007be8b7001b0a0700404798004e4090004d
:1080b000e14f4000de003200180037000040eb00c6
:1080c000604f98000d0037006e4890000081fb0063
:1080d000114080006e4890000080fb00008040004e
:1080e000904078001087200000004100014878008f
:1080f0006e4890000040e800604f98006e48900085
:10810000e74f5000f0ff36008c0a07004047980008
:108110004e409000e14f4000c50032004e409000bc
:108120000080fb006e00b900ec0040008089200058
:1081300000804000100078004500de0061406000d3
:108140000004e000ba00320001872000914078006e
:108150004e409000814f5000180032004e40900079
:108160000080fb006e00b900ec0040008089200018
:10817000808040000040eb00804878004e40900036
:108180000080fb006e00b90080007800e05980009c
:10819000808140004e4090000080fb006e00b900de
:1081a000800078008089200000804000e2002000ec
:1081b000830078001cf707009d0037000040eb00ab
:1081c000604f98005c0037006e4890000080fb0014
:1081d0006e00b900ec004000808920000080400063
:1081e000100078004700de00614060000004e000fd
:1081f000460032006e4890000080fb006e00b9001f
:10820000ec004000808920000080400010007800d1
:108210004500de00614060000004e0003b003200e9
:1082200001872000914078006e489000814f5000f7
:10823000360032000040eb006be8b700b286200049
:10824000124178008280fb00808320008080400003
:1082500030c0b300804878000240e8006be8b70007
:108260000040eb0014eab70014aaa800140aa80002
:10827000142aa90010002000c0508800100020001f
:10828000d05088006e4890000080fb006e00b9005e
:108290008000780080892000008040001000780075
:1082a000e05088006e4890000080fb006e00b9002e
:1082b0008080e8008089200000804000b050880065
:1082c0006bc8bf000043780085832000a050800069
:1082d000b1508000c2508000d3508000e450800034
:1082e0004f1807000000eb0010079800030037004c
:1082f0001e0090000000e800100798009e0090000b
:10830000e0ff2000808f5000f9ff36006e4890009b
:108310000080fb006e00b900ec0040008089200066
:10832000808040000040eb00804878006e4890005c
:108330000040e800604f98006e489000e94f500000
:10834000a1ff360000c0eb0070e8b7000080eb0032
:10835000704388000080eb0060438800c1862000e5
:10836000e0862000fe1a07003628a900115a800076
:108370001200200000872000abf60700015a8000a1
:1083800022002000e0862000a7f60700b1598000f7
:1083900022002000c0862000a3f60700e1598000db
:1083a00080892000c20820009ff6070020003700c7
:1083b000504080000000e0000500320011408000c5
:1083c000120020000000eb00030307001800370034
:1083d000104080000001eb008000eb00fe0207006f
:1083e0001300370055cbbf00e24f500010003e0095
:1083f000b0418000620060000000e0000c0032002c
:10840000204080000000e8009040780054cbbf007e
:1084100080cf500006003a0013cabf000004e000fd
:108420000300320040c1b300eff707006609070000
:10843000b0418000640060000000e00001003a00ec
:10844000e8170700000320000e004000c7f40700f3
:108450000e1890009e189000000f9800110f9800c1
:108460000040eb00604f9800280037006e489000f5
:108470008080fb00400420000088b900ee0040002e
:10848000a09720000080400010007800614060004c
:108490000004e0001a0032000e0990009e099000ce
:1084a0006e4890008080fb00400420000088b900e6
:1084b00080007800a0972000008040001000be00df
:1084c000000151008181590000242400f1002000a6
:1084d000800f5100818f5900090036006e489000ce
:1084e0008080fb00400420000088b900ee004000be
:1084f000a0972000808040000040eb00804878007a
:108500006e4890000040e800604f98006e48900070
:10851000e14f5000d5ff3600b04180007000600090
:108520000000e000140032000e0990009e09900047
:10853000f0518000015280000001510081815900fa
:1085400040422f0001002000800f5100818f590010
:10855000090036003688a900315a80001200200038
:1085600020a1200030f60700215a80008200200060
:1085700020a020002cf607000040eb00604f980080
:10858000240037006e4890000080fb004300dd00af
:108590008080e800e0a120000080400010409000b2
:1085a0000004e000180032000e0990009e099000bf
:1085b0006e4890000080fb004300dd00e4004000b6
:1085c000e0a12000008040001000be00000151002a
:1085d0008181590040422f0001002000800f51008e
:1085e000818f5900080036006e4890000080fb0023
:1085f0004300dd008080e800e0a120008080400092
:108600000040eb00904098006e4890000040e80069
:10861000604f98006e489000e34f5000d9ff36003d
:10862000e0438000620060000000e0006b00320068
:10863000e0438000610060000000e000570032006d
:1086400010612d0006f70700b0c0b3006be8b7005b
:10865000b2862000124178008280fb0080832000d7
:10866000808040000040eb00804878000240e80035
:108670006be8b700b2862000124178008280fb00d0
:10868000808320008080400010c1b30080487800c3
:108690000240e8006be8b7000040eb00004f7800b4
:1086a0000e003700b2862000124178008281fb0064
:1086b0001e80fb00e4004000c087200000804000d6
:1086c00090407800808320000080410001487800bd
:1086d0000240e8006be8b7001e4fe80071c0b3002d
:1086e0009ecf1000efff3600b38620009341780044
:1086f0008380fb00e2872000124178008083200005
:1087000000804000024878000340e8006be8b700b2
:10871000b3862000934178008380fb00f28720001d
:1087200012417800808320000080400002487800d9
:108730000340e8006be8b7000040eb00004f780012
:108740000e003700b2862000124178008281fb00c3
:108750001e80fb00ec004000c0872000008040002d
:10876000904078008083200000804100014878001c
:108770000240e8006be8b7001e4fe8001e04e0006e
:10878000f0ff32000001eb008000eb00a088200029
:10879000cd0d07007c28a900100037000e099000bd
:1087a0009e099000a0448000b14480000000510068
:1087b00081805900200f9800310f98002e099000f9
:1087c000be099000c0c62d0021002000800f51007e
:1087d000818f5900010036007c28a9004f047800e1
:1087e0000080fa00000006000a00fa001007980056
:1087f00021079800320798005e40900067406000b3
:1088000010479800f1862000914078001e409000ab
:1088100080cf50002e003a00ce40900000c8b30038
:1088200080cf500008003600640147003e029000ef
:10883000130020009e0090000000eb004807070096
:1088400040079800970137000040eb0014eab7009a
:1088500014aaa8003e009000614060000080fb0068
:10886000610060004301dd00a150800070ff2f0017
:108870000080600002007000a05088002e00900070
:10888000d043880010002000c05088001000200055
:10889000d0508800a0872000b0508800604380003e
:1088a000e05088006bc8bf0000437800858320003b
:1088b000a0508000b1508000c2508000d350800092
:1088c000e4508000d6160700400798007501370075
:1088d00012cabf000081fb001e4090008080fb0098
:1088e000100020000100dd00000061000000e00039
:1088f000620034001e4090008080fb00a0a0200099
:108900000080400010407800e24f50002200360006
:108910001e4090008080fb00a0a0200080804000ce
:108920000040eb00804878001e4090008080fb00f3
:10893000100020000100dd008040780000c0eb0046
:1089400080c0680012cabf0000c0600012eab70011
:108950001e4090008080fb0020a02000808040000e
:108960000040eb0080487800315a8000120020005f
:1089700020a120002cf50700215a80008200200051
:1089800020a0200028f507000f0807000000eb00da
:1089900040079800430137000040eb0014eab7009d
:1089a00014aaa8003e009000614060000080fb0017
:1089b000610060004301dd00a150800070ff2f00c6
:1089c0000080600002007000a05088000040eb00b2
:1089d0007ae8b7001e4090007be8b7001000200046
:1089e000c050880010002000d0508800a0872000d0
:1089f000b050880060438000e05088006bc8bf0022
:108a00000043780085832000a0508000b150800092
:108a1000c2508000d3508000e450800080160700d0
:108a20000000e0000c003a001e4090000081fb00b6
:108a3000a0a0200000004100104078008040e80025
:108a4000a0a0200000004100014878000000eb00d9
:108a500040079800130137001e4090008080fb0003
:108a6000a0a02000808040000040eb0080487800fb
:108a700010002000400798000a0137000040eb007a
:108a8000004f7800890037009e80fb0020a0200066
:108a900000804000104078000081fb001e409000e4
:108aa0008080fb00100020000100dd00000061005c
:108ab0000000e0007c0034009e80fb00a0a02000ad
:108ac0000080400010407800e24f50003f00360028
:108ad0009e80fb00a0a02000808040000040eb00b2
:108ae000804878009e80fb00100020000100dd001f
:108af0008040780000c0eb0080c0680012cabf0050
:108b000000c0600012eab7009e80fb0020a0200099
:108b1000808040000040eb0080487800315a80009f
:108b20001200200020a12000bff40700215a80007d
:108b30008200200020a02000bbf4070013cabf0061
:108b40000004e000020032009f0707001c0037000d
:108b50000040eb006be8b700b286200012417800bd
:108b60008280fb00808320008080400070c0b300c2
:108b7000804878000240e8006be8b700b386200028
:108b8000934178008380fb0042b5200012417800b9
:108b90008083200000804000024878000340e80005
:108ba0006be8b7000080eb00904b88008041eb0041
:108bb00012c0b3008000eb0020972000bc0007002b
:108bc0000000eb0040079800b60037000040eb00c3
:108bd00014eab70014aaa8003e00900061406000ab
:108be0000080fb00610060004301dd00a1508000b7
:108bf00070ff2f000080600002007000a05088000d
:108c00000040eb007ae8b7001e4078007be8b70030
:108c100010002000c050880010002000d0508800b4
:108c2000a0872000b050880060438000e05088009a
:108c30006bc8bf000043780085832000a0508000ef
:108c4000b1508000c2508000d3508000e4508000ba
:108c5000f31507000000e0000b003a001e81fb0046
:108c6000a0a0200000004100104078008040e800f3
:108c7000a0a0200000004100014878000000eb00a7
:108c800040079800870037009e80fb00a0a02000ce
:108c9000808040000040eb008048780010002000f9
:108ca000400798007f0037001e4fe80070c0b300f7
:108cb0009e4f100074ff360013cabf00e24f5000f1
:108cc0004a0032000040eb0014eab70014aaa800e2
:108cd0003e009000614060000080fb006100600089
:108ce0004301dd00a150800070ff2f000080600074
:108cf00002007000a050880013cabf00e14f50006e
:108d000003003a000000eb00d04388001900370050
:108d10000040eb00004f78000900370012cabf0086
:108d20000004e000050032001e80fb00110020005e
:108d30000008dd000000e00004003a001e4fe800db
:108d400070c0b3009e4f1000f4ff360070c0b30037
:108d50009e4f100005003e001e4078007be8b700e3
:108d60000040eb007ae8b700020037000000eb009b
:108d7000d043880010002000c05088001000200060
:108d8000d0508800a0872000b05088006043800049
:108d9000e05088006bc8bf00004378008583200046
:108da000a0508000b1508000c2508000d35080009d
:108db000e45080009a1507000000e00006003a0029
:108dc0000acabf000040e8000aeab7000000eb0052
:108dd00040079800330037000040eb000aeab70074
:108de00010002000400798002e0037000040eb00e4
:108df00014eab70014aaa8003e0090006140600089
:108e00000080fb00610060004301dd00a150800094
:108e100070ff2f000080600002007000a0508800ea
:108e20001e4090007be8b7000040eb007ae8b700f6
:108e300010002000c050880010002000d050880092
:108e4000a0872000b050880060438000e050880078
:108e50006bc8bf000043780085832000a0508000cd
:108e6000b1508000c2508000d3508000e450800098
:108e70006b1507000000e00006003a000acabf00b8
:108e80000040e8000aeab7000000eb004007980045
:108e9000040037000040eb000aeab7001000200091
:108ea000400798004e0090000080fa000000060085
:108eb0000600fa00000f780011079800424798005a
:108ec000534798000040eb0014eab7004e40900072
:108ed000634060000080fb0063016000a1508000df
:108ee000c0ff2f000080600002007000a0508800ca
:108ef0001e0090000000e00001003a00144aa800a3
:108f0000a05080004200de000000a200614060002e
:108f100061406000614060000080fb006100600013
:108f20004501dd00a1508000f0fd2f0000806000b1
:108f300002007000a050880014eaa8001e009000f3
:108f4000b05088005e4090000080fb006800600028
:108f50000000e0000300340010002000c050880032
:108f6000020037000000eb00c05088005e40900017
:108f70000080fb00640060000000e000030034009b
:108f800010002000d0508800020037000000eb00e5
:108f9000d05088001e007800104078001ceab7000e
:108fa0001e00e800104078001deab7006bc8bf0043
:108fb0000043780085832000a0508000b1508000dd
:108fc000c2508000d3508000e45080001415070088
:108fd0000080fa00000006000a00fa00200798004e
:108fe00031079800420798000040eb00004f7800de
:108ff0000040eb006be8b7004e0090000000e0007e
:109000000d0032003e009000104078007ae8b70072
:109010003e0090000000e800104078007be8b700b8
:109020003c060700104798001e409000e14f4000aa
:109030002d023200190037000040eb003047980045
:109040000e0037003e4090000081fb003e40900043
:109050000080fb00800078002e009000008040001f
:1090600090407800108720000000410001487800ff
:109070003e4090000040e800304798003e4090009d
:10908000e74f5000efff3600ac060700104798008e
:109090001e409000e14f4000130232000040eb0000
:1090a00030479800710137003e4090008080fb00ff
:1090b000400420000088b900ee004000a097200086
:1090c0000080400010007800614060000004e00073
:1090d000630132003e4090008080fb00400420008d
:1090e0000088b900ee004000a097200000804000fa
:1090f000100078000000d100614060000004e00032
:10910000ae003a003e4090008080fb00400420000a
:109110000088b900ee004000a097200000804000c9
:10912000100078004400de00614060000004e000b0
:10913000a20032001e4090000080fb006e00b900cb
:109140008080e80080892000008040001041780085
:109150003e4090008080fb00400420000088b90061
:10916000e6004000a09720000080400010407800fa
:10917000804f510091003a001e4090000080fb009b
:109180006e00b900e30040008089200000804000ac
:10919000104178003e4090008080fb004004200099
:1091a0000088b900e7004000a09720000080400040
:1091b00010407800804f510080003a000040eb00e2
:1091c0002047980016003700b386200093417800ae
:1091d0000382fb003e4090008080fb002e40900008
:1091e0000081fb00400420000088b900020040001c
:1091f000f0004000a09720000080400090407800e0
:109200008083200000004200014878000340e8000d
:109210006be8b7002e4090000040e800204798001f
:109220003e4090008080fb00400420000088b90090
:10923000ee004000a0972000008040009040900089
:109240002e40900080cf5000dfff3e003e40900057
:109250008080fb00400420000088b900ee00400040
:10926000a097200000804000100078004200de003f
:10927000614060000004e0000b0032001e409000de
:109280000080fb006e00b9008080e800808920002b
:1092900080804000c3c0b30012c0b300c08620006d
:1092a00003ff07003b0037000040eb0014eab70063
:1092b0009e40780063c060000080fb006301600096
:1092c000a1508000c0ff2f000080600002007000ed
:1092d000a050880014aaa8003e4090008080fb00a7
:1092e000400420000088b900ee004000a097200054
:1092f00000804000100078004300de006140600004
:109300000080fb00610060004301dd00a15080008f
:1093100070ff2f000080600002007000a0508800e5
:109320001e4090000080fb006e00b9008080e800c5
:109330008089200000804000b0508800100020008c
:10934000c050880010002000d05088003e4090009f
:109350008080fb00400420000088b900e400400049
:10936000a09720000080400010007800e0508800a6
:109370006bc8bf000043780085832000a0508000a8
:10938000b1508000c2508000d3508000e450800073
:10939000231407003e4090008080fb004004200022
:1093a0000088b900ee004000a097200080804000b7
:1093b000e0ff2f0091086000590137003e40900007
:1093c0008080fb00400420000088b900ee004000cf
:1093d000a097200000804000100078000000d1001d
:1093e000614060000004e0009d003a003e409000b3
:1093f0008080fb00400420000088b900ee0040009f
:10940000a097200000804000100078004400de009b
:10941000614060000004e00091003a003e4090008e
:109420008080fb00400420000088b900e600400076
:10943000a0972000008140001e4090000080fb00ab
:109440006e00b900e40040008089200000804000e8
:1094500082007800500607000000e0008000320023
:109460000040eb002047980016003700b38620002c
:10947000934178000382fb003e4090008080fb0017
:109480002e4090000081fb00400420000088b900bd
:1094900002004000f0004000a09720000080400043
:1094a000904078008083200000004200014878004e
:1094b0000340e8006be8b7002e4090000040e80051
:1094c000204798003e4090008080fb004004200030
:1094d0000088b900ee004000a09720000080400006
:1094e000904090002e40900080cf5000dfff3e0063
:1094f0003e4090008080fb00400420000088b900be
:10950000ee004000a097200000804000100078008e
:109510004200de00614060000004e0000b00320009
:109520001e4090000080fb006e00b900e400400087
:1095300080892000808040008041eb0012c0b30091
:10954000c08620005afe07003b0037000040eb00b9
:1095500014eab7009e40780063c060000080fb0002
:1095600063016000a1508000c0ff2f0000806000f8
:1095700002007000a050880014aaa8003e4090008d
:109580008080fb00400420000088b900ee0040000d
:10959000a097200000804000100078004300de000b
:1095a000614060000080fb00610060004301dd005d
:1095b000a150800070ff2f0000806000020070004a
:1095c000a05088001e4090000080fb006e00b90093
:1095d000e40040008089200000804000b0508800f6
:1095e0000000eb00c050880010002000d050880020
:1095f0003e4090008080fb00400420000088b900bd
:10960000e4004000a0972000008040001000780097
:10961000e05088006bc8bf000043780085832000bd
:10962000a0508000b1508000c2508000d350800014
:10963000e45080007a1307003e4090008080fb00d9
:10964000400420000088b900ee004000a0972000f0
:1096500080804000e0ff2f0091086000b0003700dc
:109660003e4090000040e800304798003e409000a7
:10967000e14f50008cfe36000040eb003047980070
:10968000960037003e4090008080fb0040042000a0
:109690000088b900ee004000a09720000080400044
:1096a00010007800614060000004e0008800320093
:1096b0003e4090008080fb00400420000088b900fc
:1096c000ee004000a09720000080400010007800cd
:1096d0000000d100614060000004e0007c00320026
:1096e0000040eb002047980016003700b3862000aa
:1096f000934178000382fb003e4090008080fb0095
:109700002e4090000081fb00400420000088b9003a
:1097100002004000f0004000a097200000804000c0
:1097200090407800808320000000420001487800cb
:109730000340e8006be8b7002e4090000040e800ce
:10974000204798003e4090008080fb0040042000ad
:109750000088b900ee004000a09720000080400083
:10976000904090002e40900080cf5000dfff3e00e0
:109770000040eb0014eab7009e40780063c0600030
:109780000080fb0063016000a1508000c0ff2f003b
:109790000080600002007000a05088003e409000f1
:1097a0008080fb00400420000088b900ee004000eb
:1097b000a097200000804000100078004200de00ea
:1097c000614060000004e00002003200140aa800ba
:1097d000142aa90014aaa80014eaa8003e40900088
:1097e0008080fb00400420000088b900ee004000ab
:1097f000a097200000804000100078004300de00a9
:10980000614060000080fb00610060004301dd00fa
:10981000a150800070ff2f000080600002007000e7
:10982000a050880010002000d05088004e0090000a
:109830000000e0000a00320010002000c050880044
:109840001e4090000080fb006e00b9008080e800a0
:109850008089200000804000b05088000900370057
:109860000000eb00c05088001e4090000080fb000c
:109870006e00b900e40040008089200000804000b4
:10988000b05088003e4090008080fb0040042000e3
:109890000088b900e4004000a0972000008040004c
:1098a00010007800e05088006bc8bf0000437800cb
:1098b00085832000a0508000b1508000c2508000fd
:1098c000d3508000e4508000d51207001400370008
:1098d0003e4090000040e800304798003e40900035
:1098e000e14f500067ff36004e0090000000e0009e
:1098f00006003200c3c0b3001e417800be009000d5
:10990000c08620006afd07000500370043c0b30091
:109910001e417800ae009000c086200064fd070064
:109920000080fa00000006000400fa000040eb008e
:10993000004f78000e0037001e80fb006e00b9005b
:10994000ec0040008089200000804000100078007a
:109950004700de00614060000004e00003003a00c0
:109960001e80fb0010079800060037001e4fe8001d
:1099700090c0b3009e4f1000efff3600f00f2000a4
:10998000100798001e0090000080fa0000000600fa
:109990000400fa00204798002e409000e14f40005c
:1099a00022003a00f0622d002df207000040eb008b
:1099b000104798000a0037001e4090000080fb000e
:1099c000e7001000c0b42000008040001040780084
:1099d00050f207001e4090000040e8001047980039
:1099e0001e409000e74f5000f3ff3600f0632d005b
:1099f0001bf207006fc8bf0046f207006ec8bf0029
:109a000044f20700e0642d0015f207006dc8bf00a6
:109a100040f207006cc8bf003ef2070080652d00d1
:109a20000ff2070054cbbf0054f2070040662d0030
:109a30000bf207002e409000e14f4000c5003a00b5
:109a40000040eb0010479800be0037001e40900019
:109a50000080fb006e00b900ec004000808920000f
:109a600000804000100078004700de006140600088
:109a70000004e000b00032001e40900025f2070014
:109a800000c2b3000df2070000c2b3000bf20700e2
:109a900000c2b30009f2070000c2b30007f20700da
:109aa00000c2b30005f207001e4090000080fb00da
:109ab0006e00b900ec00400080892000008040006a
:109ac0001000780061406000e14f500003003a0050
:109ad00090c5b300f9f1070002003700e0c4b300fd
:109ae000f6f1070000c2b300f4f1070000c2b300b2
:109af000f2f107001e4090000080fb006e00b900ec
:109b0000ec004000808920000080400010007800b8
:109b10000000d10061406000e14f500003003a00b6
:109b200090c5b300e5f1070002003700e0c4b300c0
:109b3000e2f1070000c2b300e0f1070000c2b30089
:109b4000def107001e4090000080fb006e00b900af
:109b5000ec00400080892000008040001000780068
:109b60004300de00614060000004e0002700320096
:109b70001e4090000080fb006e00b9008000e800ed
:109b8000808920000080400010407800e1f107004b
:109b90001e4090000080fb006e00b900800078003d
:109ba000808920000080400010407800d9f1070033
:109bb00000c2b300c1f1070000c2b300bff107004b
:109bc0001e4090000080fb006e00b900e3004000e2
:109bd000808920000080400010407800cdf107000f
:109be0001e4090000080fb006e00b9008080e800fd
:109bf000808920000080400010407800c5f10700f7
:109c000000c2b300adf1070016003700f0c3b30087
:109c1000aaf10700f0c3b300a8f10700f0c3b30036
:109c2000a6f10700f0c3b300a4f1070000c2b3001f
:109c3000a2f1070000c2b300a0f10700f0c3b30017
:109c40009ef10700f0c3b3009cf10700f0c3b3001e
:109c50009af10700f0c3b30098f1070000c2b30007
:109c600096f107001e4090000080fb006e00b900d6
:109c7000ec00400080892000008040001000780047
:109c80004200de00614060000004e000120032008b
:109c90000040eb00004f78000c0037001e409000a1
:109ca0008080fb001e80fb00670110006e08b90079
:109cb00002004000e4004000808920000080400055
:109cc0001040780093f107001e4fe80070c0b30009
:109cd0009e4f1000f1ff360000c2b30077f107007d
:109ce0000040eb00004f78000040eb00004f780090
:109cf0000b0037001e4090000080fb001e81fb001f
:109d00006e00b90002004000ec0040008089200095
:109d100000804000104090007ef107001e4fe800d8
:109d20001e04e000f3ff3200d0c0b30063f107006f
:109d3000a0c0b30061f107001e4090000040e800a1
:109d4000104798001e409000e94f50003fff36003a
:109d5000bb0037002e4090000080fb006e00b90071
:109d6000ec00400080892000008040001000780056
:109d70004700de00614060000004e000b0003200f7
:109d80002e40900063f1070000c2b3004bf10700c2
:109d900000c2b30049f1070000c2b30047f1070059
:109da00000c2b30045f1070000c2b30043f1070051
:109db0002e4090000080fb006e00b900ec004000d7
:109dc0008089200000804000100078006140600021
:109dd000e14f500003003a0090c5b30037f107008f
:109de00002003700e0c4b30034f1070000c2b30042
:109df00032f1070000c2b30030f107002e4090009e
:109e00000080fb006e00b900ec004000808920005b
:109e100000804000100078000000d1006140600028
:109e2000e14f500003003a0090c5b30023f1070052
:109e300002003700e0c4b30020f1070000c2b30005
:109e40001ef1070000c2b3001cf107002e40900075
:109e50000080fb006e00b900ec004000808920000b
:109e600000804000100078004300de006140600088
:109e70000004e000270032002e4090000080fb002c
:109e80006e00b9008000e80080892000008040005a
:109e9000104078001ff107002e4090000080fb006a
:109ea0006e00b900800078008089200000804000aa
:109eb0001040780017f1070000c2b300fff0070060
:109ec00000c2b300fdf007002e4090000080fb00b0
:109ed0006e00b900e300400080892000008040004f
:109ee000104078000bf107002e4090000080fb002e
:109ef0006e00b9008080e80080892000008040006a
:109f00001040780003f1070000c2b300ebf0070037
:109f100016003700f0c3b300e8f00700f0c3b30049
:109f2000e6f00700f0c3b300e4f00700f0c3b300ad
:109f3000e2f0070000c2b300e0f0070000c2b30087
:109f4000def00700f0c3b300dcf00700f0c3b3009d
:109f5000daf00700f0c3b300d8f00700f0c3b30095
:109f6000d6f0070000c2b300d4f007002e409000e6
:109f70000080fb006e00b900ec00400080892000ea
:109f800000804000100078004200de006140600068
:109f90000004e000120032000040eb00004f7800a7
:109fa0000c0037002e4090008080fb001e80fb00dc
:109fb000670110006e08b90002004000e400400094
:109fc000808920000080400010407800d1f0070018
:109fd0001e4fe80070c0b3009e4f1000f1ff360026
:109fe00000c2b300b5f007000040eb00004f78005e
:109ff0000040eb00004f78000b0037002e4090002f
:10a000000080fb001e81fb006e00b90002004000d2
:10a01000ec0040008089200000804000104090004b
:10a02000bcf007001e4fe8001e04e000f3ff320002
:10a03000d0c0b300a1f00700a0c0b3009ff007009c
:10a04000c06a2d0086f0070012cabf00b1f00700f9
:10a05000306c2d0082f007000040eb0010479800a4
:10a06000170037001e409000aaf0070000c2b3009e
:10a0700092f0070000c2b30090f0070000c2b300e6
:10a080008ef0070000c2b3008cf007001e40900065
:10a090008080fb0020a0200000804000104078005d
:10a0a0009cf00700d0c0b30084f00700a0c0b3004c
:10a0b00082f007001e4090000040e8001047980022
:10a0c0001e409000e74f5000e6ff36000080fa0087
:10a0d000000006000a00fa007c08a90013cabf00ad
:10a0e000e24f5000d6003a00e0438000620060007a
:10a0f0000000e0002a003a000e80e8009bed070017
:10a100001e009000ae009000a0448800b14488007a
:10a110000000eb00f04388000040eb00004f7800a7
:10a120000a0037001e81fb009e80fb00c0b42000a7
:10a130000080400090417800e4004100c08720008a
:10a1400000804000034878001e4fe80070c0b30054
:10a150009e4f1000f3ff36007c28a8007c08a90061
:10a160000040eb00004f78000a0037001e81fb0022
:10a170009e80fb0040b620000080400090417800a7
:10a18000ec004100c08720000080400003487800b8
:10a190001e4fe8001e04e000f4ff3200ee0037001e
:10a1a000f04380000000e000eb003200f14380004b
:10a1b00070438000808f5000e7003200b0c0b300d1
:10a1c0006be8b700b2862000124178008280fb0065
:10a1d00080832000808040000040eb0080487800b1
:10a1e0000240e8006be8b700b28620001241780018
:10a1f0008280fb00808320008080400010c1b3007b
:10a20000804878000240e8006be8b7000040eb00af
:10a21000004f78000d003700b28620001241780010
:10a220008281fb009e80fb00c0b4200000804000c3
:10a230009040780080832000008041000148780031
:10a240000240e8006be8b7001e4fe80070c0b300a2
:10a250009e4f1000f0ff3600b38620009341780037
:10a260008380fb00e286200012417800808320007a
:10a2700000804000024878000340e8006be8b70027
:10a28000b3862000934178008380fb00f286200093
:10a29000124178008083200000804000024878004e
:10a2a0000340e8006be8b7000040eb00004f780087
:10a2b0000d003700b2862000124178008281fb0039
:10a2c0009e80fb0040b62000008040009040780057
:10a2d0008083200000804100014878000240e800af
:10a2e0006be8b7001e4fe8001e04e000f1ff3200eb
:10a2f0000040eb00004f78000a0037001e81fb0091
:10a300001e80fb00e4004000c08720000080400069
:10a31000904078001087200000004100014878003c
:10a320001e4fe80070c0b3009e4f1000f3ff3600d0
:10a33000f0438000d0438800760107007de8b70035
:10a340007dc8bf00e14f4000090032007dc8bf005a
:10a350000080fb006e00b900ec0040008089200006
:10a36000008040001040780074e9b7000600370014
:10a37000c0c8b30074e9b7007ac8bf000004e000a9
:10a38000010035007409a80060438000904b8800ec
:10a39000290207007de8b7000040eb00004f78007d
:10a3a0000f0037007dc8bf000081fb009e81fb00cd
:10a3b0001e80fb00ec004000c087200000804000b1
:10a3c000104278006e10b90003004000ec0040001d
:10a3d0008089200000804000144098001e4fe80053
:10a3e0001e04e000efff32000001eb008000eb00f4
:10a3f000e0872000b40607007c28a9007c08a8009c
:10a400007dc8bf000080fb006e00b90080007800ae
:10a41000e0598000808140007dc8bf000080fb00c3
:10a420006e00b90080007800808920000080400024
:10a43000e2002000830078007bee07004600370032
:10a4400066004700c9ec07003e009000ce00900077
:10a45000a0448800b14488000000eb00d04388008d
:10a46000b0c0b3006be8b700b2862000124178009c
:10a470008280fb0080832000808040000040eb0051
:10a48000804878000240e8006be8b700b286200000
:10a49000124178008280fb00808320008080400091
:10a4a00000c1b300804878000240e8006be8b700c4
:10a4b0000040eb00004f78000d003700b28620000e
:10a4c000124178008281fb009e80fb00c0b4200016
:10a4d0000080400090407800808320000080410090
:10a4e000014878000240e8006be8b7001e4fe80022
:10a4f00070c0b3009e4f1000f0ff36000040eb002c
:10a50000004f78000d003700b2862000124178001d
:10a510008281fb009e80fb0040b62000008040004e
:10a52000904078008083200000804100014878003e
:10a530000240e8006be8b7001e4fe8001e04e00090
:10a54000f1ff32000001eb008000eb00a08720004b
:10a550005d0607007c28a8000080fa0000000600c5
:10a560001200fa00881f7800100798002107980051
:10a570003207980043079800540798000040eb000a
:10a5800010479800da0037001e4090008080fb00e2
:10a59000400420000088b900ee004000a097200091
:10a5a0000080400010007800614060000004e0007e
:10a5b000cc003a001e4090008080fb004004200048
:10a5c0000088b900ee004000a09720008080400085
:10a5d0000040eb00804878001e4090008080fb0027
:10a5e0001e00900061416000400420000088b90016
:10a5f000ee004000a0972000808040000280fb0019
:10a600006100600000014000d0ff2f009108600051
:10a61000910871001e4090008080fb005e00900059
:10a6200061416000400420000088b900ee00400055
:10a63000a0972000808040000280fb006100600045
:10a640004301dd0070ff2f00910860009108710048
:10a650001e4090008080fb00400420000088b9006c
:10a66000ee004000a0972000008040001000a000f5
:10a670001e4090008080fb004e0090006141600011
:10a68000400420000088b900ee004000a0972000a0
:10a69000808040000280fb00610060004401dd001a
:10a6a000f0fe2f0091086000910871004e009000ac
:10a6b0000000e0001a003a001e0090000000e000d8
:10a6c0002f003a000040eb00004f780010003700e8
:10a6d0001e4090000081fb009e81fb001e80fb005d
:10a6e000800078003e00900000804000104278001a
:10a6f000400420000090b90003004000e600400044
:10a70000a097200000804000044878001e4fe80019
:10a7100070c0b3009e4f1000edff360018003700e8
:10a720001e0090000000e00015003a001e4090005e
:10a730008080fb003e009000104178004004200023
:10a740000088b900e6004000a0972000008040008b
:10a75000024878001e4090008080fb003e00900080
:10a760000000e80010417800400420000088b90093
:10a77000e7004000a09720000080400002487800d9
:10a780001e4090008080fb002e01900040042000bd
:10a790000088b900e4004000a0972000008040003d
:10a7a000020878005e0090000000e0001f00320008
:10a7b0004e0090000000e0000a0032003e009000d1
:10a7c000104078007ae8b7003e0090000000e800f2
:10a7d000104078007be8b7004e000700004f78007b
:10a7e000120037000040eb00004f78000a003700ed
:10a7f0001e81fb001e80fb00800078003e00900060
:10a800000080400090407800108720000000410048
:10a81000014878001e4fe80070c0b3009e4f100042
:10a82000f3ff3600c5000700004f78001e4090007f
:10a830008080fb00b2862000124178004004200096
:10a840000088b900ee004000a09720000080400082
:10a85000124098000040eb00004f78000f003700d6
:10a860001e4090000081fb009e81fb009e80fb004b
:10a8700080832000008040001042780040042000c7
:10a880000090b90003004000f0004000a0972000b5
:10a8900000804000044878001e4fe8006bc8bf00ed
:10a8a0009e4f1000eeff39001e4090000084fb0018
:10a8b0006c004700adeb07006e019000fe019000b8
:10a8c0004004200000c0b90080007800a09720005c
:10a8d000008040000288be0010002000000f980099
:10a8e000080037001e4090000040e8001047980024
:10a8f0001e409000e14f500023ff36000000eb00a7
:10a90000000f98000e0890004f0478000080fa00b5
:10a91000000006000400fa000040eb00004f780041
:10a92000210037001e80fb006e00b900ec004000e3
:10a930008089200000804000100078004700de0081
:10a94000614060000004e000160032001e80fb0041
:10a950006e00b900ec0040008089200000804000bb
:10a96000100078004300de00614060000004e00059
:10a970000c0032001e80fb006e00b9008080e800f1
:10a98000808920000080400090007800d043800043
:10a99000808f500003003a001e80fb0010079800d3
:10a9a000060037001e4fe80090c0b3009e4f100015
:10a9b000dcff3600f00f2000100798001e0090000a
:10a9c0000080fa00000006000200fa000040eb00e0
:10a9d0006be8b700b2862000124178008280fb004d
:10a9e000808320008080400000c0eb008048780019
:10a9f0000240e8006be8b700b3862000934178007e
:10aa00008380fb00029720001241780080832000a1
:10aa100000804000024878000340e8006be8b7007f
:10aa2000b2862000124178008280fb0080832000e3
:10aa3000808040000040eb00804878000240e80041
:10aa40006be8b700b2862000124178008280fb00dc
:10aa500080832000808040000040eb008048780028
:10aa60000240e8006be8b700b2862000124178008f
:10aa70008280fb008083200080804000d0c4b3002f
:10aa8000804878000240e8006be8b700b2862000fa
:10aa9000124178008280fb0080832000808040008b
:10aaa00010c4b300804878000240e8006be8b700ab
:10aab000b3862000934178008380fb0022a1200010
:10aac0001241780080832000008040000248780016
:10aad0000340e8006be8b7000040eb00004f78004f
:10aae0000d003700b2862000124178008281fb0001
:10aaf0009e80fb0040b6200000804000904078001f
:10ab00008083200000804100014878000240e80076
:10ab10006be8b7001e4fe8001e04e000f1ff3200b2
:10ab200043c0b30032c0b3008000eb00c0862000f9
:10ab3000dff807000080fa00000006000400fa00b9
:10ab40000040eb0010479800330037001e40900093
:10ab50000080fb006e00b900ec00400080892000fe
:10ab600000804000100078004700de006140600077
:10ab70000004e000250032001e4090000080fb0031
:10ab80006e00b900ec004000808920000080400089
:10ab9000100078004200de00614060000004e00028
:10aba0001a0032000040eb00004f78001000370020
:10abb0001e4090000080fb001e81fb006e00b9006b
:10abc00002004000e4004000808920000080400036
:10abd000104178009e80fb0010872000008040001c
:10abe00010407800804f510008003a001e4fe800e6
:10abf00070c0b3009e4f1000edff36001e40900065
:10ac00000080fb0010079800080037001e409000ed
:10ac10000040e800104798001e409000e94f5000a7
:10ac2000caff3600f00f2000100798001e009000a9
:10ac30000080fa00000006000200fa0000c0eb00ed
:10ac40001047980074c9bf00644060000004e00031
:10ac500003003200b9ff07001047980006003700d4
:10ac600074c9bf00684060000004e00002003200c8
:10ac700028ff0700104798001e409000e14f400059
:10ac800002003a0028fb0700104798001e40900081
:10ac9000e14f40003c0032001e4090000080fb006d
:10aca00042972000124178006e00b900ec0040008d
:10acb00080892000008040000248780074c9bf00ed
:10acc000644060000004e000140032000040eb002b
:10acd000004f78000e0037001e4090000081fb00fe
:10ace0009e81fb009e80fb001087200000804000ba
:10acf000104278006e10b90003004000e4004000ec
:10ad00008089200000804000044878001e4fe80041
:10ad100070c0b3009e4f1000efff360074c9bf0033
:10ad2000684060000004e000080032001e4090000f
:10ad30000080fb00d24380006e00b9008080e800f4
:10ad40008089200000804000020878001e409000aa
:10ad50000080fb00924b80006e00b90080007800fc
:10ad60008089200000804000020878001e4090008a
:10ad70000080fb00c200dd00e08020000081400078
:10ad80006000b8000089be001e4090000080fb00fb
:10ad90000080fa00000006000800fa001007980082
:10ada000210798000040eb00004f780010003700aa
:10adb0001e80fb00800078001e0090000080400094
:10adc000104178001e80fb00800078002e0090006b
:10add0000080400010407800804f51000300320096
:10ade0000000eb0030079800060037001e4fe80017
:10adf00070c0b3009e4f1000edff36001000200021
:10ae0000300798003e0090000080fa000000060025
:10ae10000a00fa00300798006eec07000080eb0093
:10ae20007043880040232100604388000040eb000d
:10ae3000004f7800080037001e80fb006e00b9004c
:10ae4000ec00400080892000808040000040eb0042
:10ae5000804878001e4fe80090c0b3009e4f10005d
:10ae6000f5ff36000040eb00004f78000b00370084
:10ae70009e80fb0020a02000808040000040eb006e
:10ae8000804878009e80fb00a0a0200080804000c9
:10ae90000040eb00804878001e4fe80070c0b3000f
:10aea0009e4f1000f2ff36000040eb0012eab700a0
:10aeb0000040eb0013eab7000000eb00b04188004f
:10aec0000040eb007ce8b7000040eb0070e9b70001
:10aed00020ea07000040eb006be8b7000040eb0001
:10aee000004f7800090037009e80fb0040042000de
:10aef0000088b900ee004000a0972000808040004c
:10af00000040eb00804878001e4fe80010c0b300fe
:10af10009e4f1000f4ff36000040eb00004f780019
:10af2000070037001e80fb00c200dd00e08020002b
:10af3000008140006000b8000089be001e4fe8009c
:10af400090c0b3009e4f1000f6ff36003e00900008
:10af50000000e00053003200c159800012002000c0
:10af600040b5200083eb070054cbbf00ff4f5000db
:10af7000030036000000eb0040079800a9003700ee
:10af8000015a800022002000e086200079eb0700b3
:10af900070438000e10f400003003a000000eb0026
:10afa000400798009f003700b15980002200200020
:10afb000c08620006feb0700d159800012002000ee
:10afc00050b520006beb070055cbbf00634060001d
:10afd000634060004401dd0001972000914078004b
:10afe000f0ccb30000c060000240700070e9b70010
:10aff000e159800080892000c20820005deb070035
:10b00000015a800022002000e086200059eb070052
:10b01000115a8000120020000087200055eb070025
:10b02000215a80008200200020a0200051eb070060
:10b03000315a80001200200020a120004deb0700b3
:10b04000415a80001200200030a1200049eb070087
:10b05000406e2d0082ec070054cbbf00c7ec070008
:10b06000d06e2d007eec07006dc8bf00a9ec070074
:10b070006cc8bf00a7ec0700506f2d0078ec0700ec
:10b080006fc8bf00a3ec07006ec8bf00a1ec0700ab
:10b09000c1862000e0862000b10f07003628a800f6
:10b0a00024003700b159800022002000c086200013
:10b0b0005deb0700c15980001200200040b5200060
:10b0c00059eb0700d15980001200200050b5200034
:10b0d00055eb0700e159800080892000c20820005c
:10b0e00051eb0700015a800022002000e08620007a
:10b0f0004deb0700115a800012002000008720004d
:10b1000049eb0700215a80008200200020a0200087
:10b1100045eb0700315a80001200200020a12000da
:10b1200041eb0700415a80001200200030a12000ae
:10b130003deb07000040eb00204798001e00900008
:10b140000030a1000040a1000050a1000060a0005c
:10b15000100798001e0090000010a0001007980033
:10b160003e009000614060009e0090000080fb0067
:10b17000610060004201dd00b0ff2f0080806000b0
:10b180008280700011079800c0b42000200798004a
:10b190001e009000ae009000940f0700c1862000b2
:10b1a000e08620006e0f070054cbbf002000070090
:10b1b0007009a8007069a80055cbbf00634060000b
:10b1c000634060004401dd00019720009140780059
:10b1d000f0ccb30000c060000240700070e9b7001e
:10b1e00070c9a80013cabf006340600063406000dc
:10b1f00000414000019720009140780090cfb300bb
:10b2000000c060000240700070e9b70030088000a4
:10b2100078e9b7008680a9009680a8001000200079
:10b22000400798004e0090000080fa0000000600e1
:10b230000400fa00004f78008040eb001e407800c8
:10b24000e90e07000000e000090032001e4078000f
:10b2500054ebb700c15980001200200040b5200017
:10b26000f1ea0700100020001007980002003700e4
:10b270000000eb00100798001e0090000080fa000c
:10b28000000006000200fa00004f780030c0b30052
:10b290009e4f100010003e001e40780055ebb70096
:10b2a00055cbbf0063406000634060004401dd0097
:10b2b0000197200091407800f0ccb30000c06000fe
:10b2c0000240700070e9b700d159800012002000e0
:10b2d00050b52000d4ea07000080fa000000060004
:10b2e0002600fa0000579800120f9800230f9800cc
:10b2f000100020000100200010079800210798008e
:10b3000054cbbf00004f78000040eb00604798002e
:10b310000a0037006e4090000080fb00c400dd0092
:10b32000409220008080400000c0eb008048780000
:10b330006e4090000040e800604798006e4090002a
:10b34000e34f5000f3ff36000040eb0071e9b70017
:10b350003608a8000040eb006047980086003700e0
:10b360006e4090000081fb001e009000ae00900037
:10b37000820178008301e9000300330000004000ef
:10b3800081804800fbff37001e099000ae09900045
:10b3900000027800810278000200780083007800c3
:10b3a00000016200018062006102b800740f980021
:10b3b000051798007e0890008e109000c000dd00f8
:10b3c00000002000700f9800011798007e08900080
:10b3d0008e1090006112b800740f98000517980045
:10b3e0007e0990008e119000020070008380700032
:10b3f00002802f00f37f2000000278008102780095
:10b400000200780083007800000162000180620081
:10b410006102b80014179800251798001e109000bc
:10b42000ae109000c000dd00000020001017980052
:10b43000211798001e109000ae1090006112b80005
:10b4400014179800251798001e119000ae11900057
:10b450000200700083807000e00f5000e08f580001
:10b460004200320000702d007deb07006e4090001e
:10b47000c2eb07006e4090006dff07000040eb003c
:10b480006be8b700b2862000124178008280fb0092
:10b49000808320008080400070c0b3008048780026
:10b4a0000240e8006be8b700b386200093417800c3
:10b4b0008380fb0042b52000124178008083200089
:10b4c00000804000024878000340e8006be8b700c5
:10b4d0000080eb00904b88008041eb0012c0b3006d
:10b4e0008000eb002097200071f6070076004700ef
:10b4f0009ee807003e089000ce08900040079800a4
:10b50000510798006d0107000000e00001003200c3
:10b51000720107007a00470094e807005e08900077
:10b52000ee08900060079800710798006e01900087
:10b53000fe0190004e009000de00900000015100de
:10b54000818159000e5090000080fb00c200dd0098
:10b55000c0552d00008040001000be00800f51003b
:10b56000818f590001003e00e6ff37006e409000d9
:10b570000040e800604798006e409000ff4f500088
:10b5800077ff36001e40780029ff07003608a90023
:10b5900071c9bf000080fb000080fa0000000600b7
:10b5a0001600fa00204f9800314f980030c0b300c9
:10b5b000104798003e489000e14f500015003a00b7
:10b5c000c4fa0700040037003c0107000000e00057
:10b5d0000100320041010700e0438000620060008a
:10b5e0000000e000f8ff3a00e043800061006000e6
:10b5f0000000e000040032007dc8bf000080fb00b6
:10b60000200f98002a013700f00f2000200f98002b
:10b61000270137003e4890000004e00022013a0074
:10b620002e489000e14f40001c003a00090037000e
:10b630001e4090000040e900104798001e40900016
:10b640000004e00003003a00f40f2000240f9800eb
:10b650001701370054cbbf000081fb001000200011
:10b66000010020000002be00020378000603e9008a
:10b67000030033000402420085824a00fbff3700ca
:10b680000401be00a0c0b30015ff07000004e000e5
:10b69000e7ff32000040eb00204f98002e4890005a
:10b6a0000080fb004400dd00ea00400040922000e2
:10b6b0000080400010007800904b88002e489000d9
:10b6c0000080fb00c400dd004092200000804000ac
:10b6d000104090007ae8b7002e4890000080fb00f0
:10b6e0004400dd008000e80040922000008040001f
:10b6f000104090007be8b70086fc070070e8b700b8
:10b7000070c8bf00e14f400008003a0086f807000b
:10b7100070e8b70070c8bf00e14f400003003a0076
:10b72000f00f2000200f9800e100370070c8bf0024
:10b730000080fb006e00b900ec0040008089200012
:10b74000808040000040eb008048780070c8bf0057
:10b750008081fb002e4890000080fb004400dd004b
:10b76000ea00400040922000008040001001780074
:10b770006e18b900800078008089200000804000a9
:10b780000208780070c8bf000081fb002e489000be
:10b790000080fb00c400dd004092200000804000db
:10b7a000904190006e10b9008080e80080892000f0
:10b7b000008040000348780070c8bf000081fb0093
:10b7c0002e4890000080fb004400dd008000e8006f
:10b7d0004092200000804000904190006e10b9001f
:10b7e000e30040008089200000804000034878008a
:10b7f00070c8bf000080fb006e00b900ec00400084
:10b8000080892000008040001030a0000040eb0044
:10b81000004f78001300370070c8bf008081fb0024
:10b820001e82fb002e4890000080fb009e80fb00e3
:10b830004400dd0001004000ee0040004092200086
:10b8400000804000104190006e18b90004004000d4
:10b85000ec004000808920000080400012409800e9
:10b860001e4fe8001e04e000ebff320070c8bf006e
:10b870000080fb006e00b900ec00400080892000d1
:10b88000008040001010a00070c8bf000080fb00c6
:10b890006e00b900ec0040008089200080804000ec
:10b8a000000220009108700070c8bf000080fb00fb
:10b8b0006e00b900ec00400080892000008040004c
:10b8c0001000a0002e4890000080fb00c400dd00a6
:10b8d00040922000008040001040780054fe070095
:10b8e00070c8bf000080fb006e00b90080007800c7
:10b8f00080892000008040001000780060438800ac
:10b900000080eb00d0438800c1862000a087200083
:10b91000930d07000040eb006be8b700b2862000f3
:10b92000124178008280fb008083200080804000ec
:10b9300010c0b300804878000240e8006be8b70010
:10b94000b3862000934178008380fb00029720009b
:10b950001241780080832000008040000248780077
:10b960000340e8006be8b7000040eb00004f7800b0
:10b970000d003700b2862000124178008281fb0062
:10b980009e80fb0040b62000008040009040780080
:10b990008083200000804100014878000240e800d8
:10b9a0006be8b7001e4fe8001e04e000f1ff320014
:10b9b00070c8bf000080fb006e00b9008080e80006
:10b9c000808920000082400070c8bf000080fb001a
:10b9d0006e00b9008000780080892000008040005f
:10b9e00083c0b30012c0b3008400780030f50700b4
:10b9f0006c0047005de707006e009000fe009000bd
:10ba00001007980021079800180037002b00070046
:10ba10000000e00001003200300007007000470025
:10ba200052e707000e0890009e089000300798002b
:10ba3000410798003e019000ce0190001e0090004a
:10ba4000ae009000000151008181590040422f005a
:10ba500001002000800f5100818f59000300360043
:10ba6000f40f2000240f98001100370070c8bf00a9
:10ba70000080fb006e00b900ec00400080892000cf
:10ba800000804000100078004400de00614060004b
:10ba90000004e000ddff320070c8bf000080fb0042
:10baa000200f980002003700f50f2000250f9800a6
:10bab0002e0890000080fa00000006000000fa0046
:10bac00070ea0700b04180004200de006140600083
:10bad0000080fb000080fa00000006000000fa0071
:10bae0003648a9003f0a07000080fa00000006005f
:10baf0000400fa001007980056cbbf0038e8b700e2
:10bb000020c0b30039e8b7006cc8bf003ae8b700fe
:10bb10006dc8bf003be8b70000c0eb003ce8b700d1
:10bb200000c0eb003de8b7006cc8bf003ee8b700be
:10bb30006dc8bf003fe8b7006ec8bf0040e8b7005f
:10bb40006fc8bf0041e8b70078c9bf0042e8b7003e
:10bb50000040e80078e9b7000040eb00004f7800b3
:10bb6000140037001e80fb006e00b900ec0040009e
:10bb70008089200000804000100078004700de002f
:10bb8000614060000004e000090032001e80fb00fc
:10bb90006e00b900ec004000808920000080400069
:10bba00010007800614060000004e00004003200f2
:10bbb0001e4fe80090c0b3009e4f1000e9ff360012
:10bbc00090c0b3009e4f100006003e001e02900081
:10bbd0008001eb000001eb006143800010002000b9
:10bbe0005ffa07000040eb0014eab700144aa8000f
:10bbf0001e009000614060000080fb00610060005a
:10bc00004301dd00a150800070ff2f000080600024
:10bc100002007000a050880010002000d050880062
:10bc200060438000e05088006bc8bf00004378008c
:10bc300085832000a0508000b1508000c250800059
:10bc4000d3508000e4508000f50907000080fa001e
:10bc5000000006001800fa00204f980061079800c5
:10bc60002e4890000080fb006e00b900ec00400000
:10bc70008089200000804000100078004700de002e
:10bc8000614060000004e00003003a000000eb00a7
:10bc9000300f980089003700c05a80000000e00093
:10bca0001100320043c8bf000004e0000e00320063
:10bcb0003668a80078c9bf0057ebb7002e4890003f
:10bcc0000080fb006e00b9008080e80080892000c1
:10bcd0000080400010007800b04b880060c0b300c6
:10bce000004f78000300370020c0b300004f7800f9
:10bcf0003668a90056cbbf0038e8b7001e40780070
:10bd000039e8b7002e4890000080fb006e00b900b3
:10bd1000800078008089200000804000104078007a
:10bd20003ae8b7002e4890000080fb006e00b90092
:10bd30008000e800808920000080400010407800ea
:10bd40003be8b7002e4890000080fb006e00b90071
:10bd50008080e8008089200000804000104078004a
:10bd60003ce8b7002e4890000080fb006e00b90050
:10bd7000e3004000808920000080400010407800ef
:10bd80003de8b7006cc8bf003ee8b7006dc8bf0013
:10bd90003fe8b7006ec8bf0040e8b7006fc8bf00fb
:10bda00041e8b70078c9bf0042e8b7000040e800aa
:10bdb00078e9b7002e4890008080fb002e48900064
:10bdc0000081fb006e08b9008080e80080892000b7
:10bdd000808140006e10b9008000780080892000ca
:10bde000008040006e019000930078001000780001
:10bdf0007df207000000e00004003a003668a90068
:10be00000000eb00300f98002c003700b04180009c
:10be1000680060000000e000260032006e0047006d
:10be200052e607007e0090008e08900010079800f0
:10be30002107980021ff07000000e0000100320008
:10be400026ff0700b0418000680060000000e000ad
:10be500003003a0010002000300f98001700370050
:10be60007200470041e607001e089000ae089000ef
:10be700030079800410798003e019000ce019000e5
:10be80001e009000ae009000000151008181590019
:10be900040422f0001002000800f5100818f590087
:10bea000e4ff36003668a9000000eb00300f980070
:10beb0000200370010002000300f98003e0890006c
:10bec0000080fa00000006002c00fa00200f980005
:10bed000310f9800420f9800c05a80000000e00027
:10bee0000900320043c8bf000004e0000600320031
:10bef0003668a80078c9bf0057ebb70060c0b30030
:10bf0000004f78000300370020c0b300004f7800d6
:10bf10003668a9003e0890000000e000db00320017
:10bf20000040eb00104798000e0037001e409000c4
:10bf30000081fb001e4090000080fb008000780024
:10bf40002e0890000080400090407800108720006c
:10bf500000004100014878001e4090000040e800c9
:10bf6000104798001e409000e74f5000efff36004a
:10bf7000f2fa0700204798002e409000e14f400061
:10bf800039003a0056cbbf0038e8b70020c0b300f4
:10bf900039e8b70000c0eb003ae8b70000c0eb009a
:10bfa0003be8b70000c0eb003ce8b70000c0eb0086
:10bfb0003de8b7006cc8bf003ee8b7006dc8bf00e1
:10bfc0003fe8b7006ec8bf0040e8b7006fc8bf00c9
:10bfd00041e8b70078c9bf0042e8b7000040e80078
:10bfe00078e9b7000040eb0014eab70014aaa800f3
:10bff0004e089000614060000080fb00610060001e
:10c000004301dd00a150800070ff2f000080600020
:10c0100002007000a05088002e089000b0508800e8
:10c020000000eb00c050880010002000d0508800b5
:10c0300060438000e05088003668a9006bc8bf00ec
:10c040000043780085832000a0508000b15080001c
:10c05000c2508000d3508000e4508000f0080700f8
:10c0600050179800ea0037002e4090000080fb0037
:10c070006e00b900ec004000808920000080400084
:10c08000100078004300de00614060000004e00022
:10c09000bcff3200c05a80000000e00008003200ff
:10c0a0002e4090000080fb006e00b9008080e80008
:10c0b000808920000080400010007800b04b88008c
:10c0c00040c0b30038e8b7001e40780039e8b70038
:10c0d0002e4090000080fb006e00b90080007800c8
:10c0e0008089200000804000104078003ae8b700c6
:10c0f0002e4090000080fb006e00b9008000e80038
:10c100008089200000804000104078003be8b700a4
:10c110002e4090000080fb006e00b9008080e80097
:10c120008089200000804000104078003ce8b70083
:10c130002e4090000080fb006e00b900e30040003c
:10c140008089200000804000104078003de8b70062
:10c150006cc8bf003ee8b7006dc8bf003fe8b7003d
:10c160006ec8bf0040e8b7006fc8bf0041e8b70025
:10c1700078c9bf0042e8b7000040e80078e9b7009e
:10c180002e4090008080fb002e4090000081fb003c
:10c190006e08b9008080e80080892000808140001e
:10c1a0006e10b90080007800808920000080400077
:10c1b0004e09900093007800100078008af1070083
:10c1c0000000e00004003a003668a9000000eb001f
:10c1d000501798008e003700b04180006800600062
:10c1e0000000e000260032007a0047005fe507000b
:10c1f0005e089000ee089000200798003107980034
:10c200002efe07000000e0000100320033fe0700b0
:10c21000b0418000680060000000e00003003a00c8
:10c220001000200050179800790037007e0047006a
:10c230004ee507007e0890008e10900040079800a1
:10c24000510798004e019000de0190002e009000f2
:10c25000be009000000151008181590040422f0032
:10c2600001002000800f5100818f5900e4ff36004b
:10c270003668a9000000eb005017980064003700f2
:10c2800010002000501798006100370040c0b30034
:10c2900038e8b7001e40780039e8b7006cc8bf0026
:10c2a0003ae8b7006dc8bf003be8b7002e08900021
:10c2b000104078003ce8b7002e0890000000e8002d
:10c2c000104078003de8b7006cc8bf003ee8b700fa
:10c2d0006dc8bf003fe8b7006ec8bf0040e8b700b8
:10c2e0006fc8bf0041e8b70078c9bf0042e8b70097
:10c2f0000040e80078e9b7002e0890001040780070
:10c3000076e9b7002e0890000000e80010407800a1
:10c3100077e9b7002e089000104078007ae8b7005f
:10c320002e0890000000e800104078007be8b7007d
:10c330004e099000d1438000604380002af107003d
:10c340000000e00004003a003668a9000000eb009d
:10c35000501798002e003700b04180006800600040
:10c360000000e00028003200200220000e00400003
:10c37000fee407001e109000ae10900060079800c9
:10c3800071079800cdfd07000000e00001003200b9
:10c39000d2fd0700b0418000680060000000e000ae
:10c3a00003003a00100020005017980018003700d2
:10c3b000600220000e004000ece407003e109000f8
:10c3c000ce109000000f9800110f98000e099000f9
:10c3d0009e0990006e009000fe0090000001510048
:10c3e0008181590040422f0001002000800f510040
:10c3f000818f5900e3ff36003668a9000000eb008a
:10c4000050179800020037001000200050179800c5
:10c410005e1090000080fa00000006000c00fa0098
:10c42000204798003147980022079800330798006a
:10c430002e4090000080fb00500798005e009000a6
:10c44000e10f5000320032005e009000e20f500019
:10c450006a0032005e0090000000e000010032003f
:10c46000690037000000eb007043880000c0eb005b
:10c4700070e8b7004023210060438800c186200097
:10c48000e0862000b60a07003628a80020c0b300c6
:10c4900013eab70013cabf00634060006340600046
:10c4a00000414000019720009140780090cfb300f8
:10c4b00000c060000240700070e9b70010c0b30017
:10c4c00012eab700015a800022002000e086200016
:10c4d00055e60700b159800022002000c0862000e8
:10c4e00051e60700415a80001200200030a12000d0
:10c4f0004de60700315a80001200200020a12000e4
:10c5000049e607001000200040079800400037006f
:10c510000e00e800000278008041eb003e419000f0
:10c520002e009000be0090003c000700004f7800f5
:10c530001e4078003efb070000712d0048e7070011
:10c540001e4078008de70700b0732d0044e7070018
:10c550003628a8000000eb007043880000c0eb0004
:10c5600070e8b7004023210060438800c1862000a6
:10c57000e08620007a0a070020c0b30013eab70063
:10c5800013cabf0063406000634060000041400088
:10c59000019720009140780090cfb30000c0600068
:10c5a0000240700070e9b70010c0b30012eab70093
:10c5b000015a800022002000e08620001ae60700d1
:10c5c000b159800022002000c086200016e6070036
:10c5d000415a80001200200030a1200012e607001e
:10c5e000315a80001200200020a120000ee6070032
:10c5f0001000200040079800050037000000eb0005
:10c6000040079800020037000000eb004007980048
:10c610004e0090000080fa00000006002e00fa0094
:10c62000200f9800310f9800025f9800135f980068
:10c63000540f980000c0eb00004f9800100020003d
:10c640000100200020079800310798001e58900034
:10c650000004e00003003200f00f200020179800d3
:10c66000a0003700e0732d00fde607000040eb005e
:10c67000204f9800950037002e4890000081fb0065
:10c680002e009000be009000820178008301e90036
:10c69000030033000000400081804800fbff3700aa
:10c6a0002e099000be0990000002780081027800f7
:10c6b00002007800830078000001620001806200bf
:10c6c0006102b80034179800451798003e1090009a
:10c6d000ce109000c000dd00000020003017980050
:10c6e000411798003e109000ce1090006112b800e3
:10c6f00034179800451798003e119000ce11900015
:10c70000020070008380700002802f00f37f200001
:10c71000000278008102780002007800830078002f
:10c7200000016200018062006102b80054179800a5
:10c73000651798005e109000ee109000c000dd00bc
:10c740000000200050179800611798005e109000bc
:10c75000ee1090006112b800541798006517980009
:10c760005e119000ee119000020070008380700056
:10c77000e00f5000e08f5800510032000040eb0005
:10c78000204798002e489000a9fa07007c00470037
:10c79000f6e307006e089000fe089000000f980076
:10c7a000110f980010c0b3007509070030479800ba
:10c7b000be4090002e40900080cf50000200360016
:10c7c000be41900023479800000220000e00400068
:10c7d000e6e307000e1090009e109000600798009e
:10c7e000710798006e019000fe0190000e08900005
:10c7f0009e08900000015100818159000e58900060
:10c800000080fb00c200dd00c0552d00008040000c
:10c810001000be00800f5100818f590001003e00c2
:10c82000e0ff370050752d008de607002e48900080
:10c83000d2e6070000762d0089e607002e40900022
:10c840000080fb0052002000110009000280d80087
:10c85000104798000040eb00004f780003003700bd
:10c86000d0c2b30095e607001e4fe8001e409000be
:10c870009e4f1000faff390030762d0078e6070051
:10c880002e409000a3e60700ae4090000e489000b6
:10c8900080cf50000a0031002e429000044f9800d3
:10c8a000ae4a9000154f98005e0890000000e0002e
:10c8b000030032005e0890008e4890000148780026
:10c8c0002e4890000040e800204f98002e4890002d
:10c8d000ff4f500068ff36001e4890000080fb00ac
:10c8e000201798002e1090000080fa00000006002b
:10c8f0002800fa0000579800120f9800230f9800a4
:10c9000054cbbf00404798007600470097e30700ec
:10c910003e089000ce08900040079800510798000c
:10c9200036e8a8000040eb0060479800aa003700f6
:10c930001000200001002000008fbe000040eb002e
:10c94000504798008d0037007a00470087e30700c2
:10c950005e089000ee08900060079800710798004c
:10c960006e019000fe0190004e009000de009000ed
:10c970000001510081815900c0832700010020007f
:10c98000800f5100818f5900780036006e009000b2
:10c99000fe00900040079800510798005e4090000c
:10c9a000ff4f50007a003e00060037005e409000c6
:10c9b0000040e800504798005e409000ff4f500054
:10c9c00081003e005e4090000081fb001e00be0022
:10c9d000820178008301e900030033000000400079
:10c9e00081804800fbff37001e099000ae099000cf
:10c9f000000278008102780002007800830078004d
:10ca000000016200018062006102b8000417980012
:10ca1000151798000e1090009e109000c000dd00c9
:10ca20000000200000179800111798000e109000c9
:10ca30009e1090006112b800041798001517980016
:10ca40000e1190009e119000020070008380700013
:10ca500002802f00f37f200000027800810278001e
:10ca6000020078008300780000016200018062000b
:10ca70006102b80024179800351798002e10900016
:10ca8000be109000c000dd000000200020179800bc
:10ca9000311798002e109000be1090006112b8005f
:10caa00024179800351798002e119000be119000a1
:10cab0000200700083807000e00f5000e08f58008b
:10cac000baff320050762d00e5e507005e40900089
:10cad0002ae607005e409000d5f907005e4090000e
:10cae0000040e80050479800b0c0b3006be8b700c2
:10caf000b2862000124178008280fb0080832000f3
:10cb0000808040000040eb00804878000240e80050
:10cb10006be8b700b2862000124178008280fb00eb
:10cb2000808320008080400010c4b30080487800db
:10cb30000240e8006be8b700b3862000934178001c
:10cb40008380fb0042b520001241780080832000e2
:10cb500000804000024878000340e8006be8b7001e
:10cb60008000eb000e5090003afc0700d3fb07005a
:10cb70000000e00001003200d8fb0700b041800057
:10cb800001082000010060000000e0006eff3a0094
:10cb9000b041800001082000010060000000e000ba
:10cba00009003a0090772d00ade5070054cbbf0097
:10cbb000f2e50700b0732d00a9e50700130020007f
:10cbc000730f98000c00370003e607006e409000da
:10cbd0000040e800604798006e409000e24f50002f
:10cbe00053ff36004e40900091f9070036e8a90047
:10cbf0000002eb00740f98007e0890000080fa009d
:10cc0000000006001400fa00204f98000040eb00de
:10cc1000004f7800470037006c004700d3e2070060
:10cc20006e009000fe009000100798002107980009
:10cc300070004700cde207000e0890009e089000ab
:10cc400030079800410798003e019000ce01900007
:10cc50001e009000ae00900000015100818159003b
:10cc6000c083270001002000800f5100818f5900f0
:10cc7000efff360056cbbf0038e8b70020c0b30046
:10cc800039e8b7006cc8bf003ae8b7006dc8bf000c
:10cc90003be8b70000c0eb003ce8b70000c0eb0089
:10cca0003de8b7006cc8bf003ee8b7006dc8bf00e4
:10ccb0003fe8b7006ec8bf0040e8b7006fc8bf00cc
:10ccc00041e8b70078c9bf0042e8b7000040e8007b
:10ccd00078e9b7000040eb0043e8b70000c4b300b8
:10cce00044e8b70054cbbf0045e8b7002e48900099
:10ccf00046e8b7000040eb0014eab700144aa80069
:10cd000010002000d050880060438000e050880070
:10cd1000f6c0b30085832000a0508000b150800091
:10cd2000c2508000d3508000e4508000bc05070052
:10cd30001e4fe80020c0b3009e4f1000b6ff360023
:10cd40002e4890003af907000080fa000000060023
:10cd50000a00fa00200798003107980054cbbf0062
:10cd60002047980055cbbf001047980030c0b30053
:10cd700044f9070063004700000278008041eb009f
:10cd8000a2c0b3002e009000be00900023fe07005a
:10cd9000004f78001e4090003af907002e409000a6
:10cda00023f907002e4090009e4f100003003a0028
:10cdb0000000eb00400798000a003700107a2d00b1
:10cdc00027e507001e4078006ce50700b0732d00d2
:10cdd00023e507001e4078008aff070010002000ae
:10cde000400798004e0090000080fa000000060006
:10cdf0000600fa00404798004e409000e14f400086
:10ce000075003a000040eb002047980054003700be
:10ce10002e4090000080fb006e00b900ec00400046
:10ce20008089200000804000100078004700de006c
:10ce3000614060000004e0003e0032002e4090009f
:10ce40000080fb006e00b900ec00400080892000eb
:10ce500000804000100078004500de006140600066
:10ce60000004e000330032000040eb006be8b70044
:10ce7000b2862000124178008280fb00808320006f
:10ce80008080400030c0b300804878000240e80055
:10ce90006be8b7000040eb0014eab70014aaa80042
:10cea000140aa800142aa90010002000c05088000d
:10ceb00010002000d05088002e4090000080fb0021
:10cec0006e00b9008000780080892000008040005a
:10ced00010007800e05088002e4090000080fb0099
:10cee0006e00b9008080e80080892000008040004a
:10cef000b05088006bc8bf000043780085832000d5
:10cf0000a0508000b1508000c2508000d3508000fb
:10cf1000e4508000420507000000eb00000f78009d
:10cf2000010037001e0fe800e0ff20009e0f1000f8
:10cf3000fcff36002e4090000080fb006e00b90020
:10cf4000ec00400080892000808040000040eb0021
:10cf5000804878002e4090000040e800204798006c
:10cf60002e409000e94f5000a9ff360000c0eb00b2
:10cf700070e8b7000080eb00704388000080eb0091
:10cf800060438800c1862000e0862000f407070087
:10cf90003628a900015a800022002000e0862000e7
:10cfa000a1e30700b159800022002000c0862000c4
:10cfb0009de30700115a8000120020000087200026
:10cfc00099e30700e159800080892000c208200011
:10cfd00095e30700070137004e4090000080fb00fa
:10cfe0006e00b900ec004000808920000080400005
:10cff000100078004700de00614060000004e0009f
:10d00000fc0032004e4090000080fb006e00b90032
:10d01000ec00400080892000008040001000780073
:10d020004500de00614060000004e0009e00320028
:10d0300001872000914078004e409000814f5000c1
:10d0400099003a000040eb006be8b700b286200080
:10d05000124178008280fb008083200080804000a5
:10d0600030c0b300804878000240e8006be8b700a9
:10d070000040eb0014eab70014aaa800140aa800a4
:10d08000142aa90010002000c050880010002000c1
:10d09000d05088004e4090000080fb006e00b90028
:10d0a0008000780080892000008040001000780017
:10d0b000e05088004e4090000080fb006e00b900f8
:10d0c0008080e8008089200000804000b050880007
:10d0d0006bc8bf000043780085832000a05080000b
:10d0e000b1508000c2508000d3508000e4508000d6
:10d0f000cb0407000000eb00000f780001003700b0
:10d100001e0fe800e0ff20009e0f1000fcff36001d
:10d110000040eb0020479800450037002e4090006b
:10d120000080fb006e00b900ec0040008089200008
:10d1300000804000100078004700de006140600081
:10d140000004e0002f0032002e4090000080fb0021
:10d150006e00b900ec004000808920000080400093
:10d16000100078004500de00614060000004e0002f
:10d170002400320001872000914078002e4090006a
:10d1800080cf50001f0032002e4090000080fb0036
:10d190006e00b9008080e800808920000080400097
:10d1a000b05088002e4090000080fb006e00b90057
:10d1b0008000780080892000008040001000780006
:10d1c000e05088006bc8bf000043780085832000d2
:10d1d000a0508000b1508000c2508000d350800029
:10d1e000e45080008e0407000000eb00000f780080
:10d1f000010037001e0fe800e0ff20009e0f100026
:10d20000fcff36002e4090000080fb006e00b9004d
:10d21000ec00400080892000808040000040eb004e
:10d22000804878002e4090000040e8002047980099
:10d230002e409000e94f5000b8ff360000c0eb00d0
:10d2400070e8b7000080eb00704388000080eb00be
:10d2500060438800c1862000e08620004007070068
:10d260003628a900015a800022002000e086200014
:10d27000ede20700b159800022002000c0862000a6
:10d28000e9e20700115a8000120020000087200008
:10d29000e5e20700e159800080892000c2082000f3
:10d2a000e1e20700530037004e4090000080fb0091
:10d2b0006e00b900ec004000808920000080400032
:10d2c000100078004500de00614060000004e000ce
:10d2d0004800320001872000914078004e409000c5
:10d2e000814f5000430032000040eb006be8b70074
:10d2f000b2862000124178008280fb0080832000eb
:10d300008080400030c0b300804878000240e800d0
:10d310006be8b7000040eb0014eab70014aaa800bd
:10d32000140aa800142aa90010002000c050880088
:10d3300010002000d05088004e4090000080fb007c
:10d340006e00b900800078008089200000804000d5
:10d3500010007800e05088004e4090000080fb00f4
:10d360006e00b9008080e8008089200000804000c5
:10d37000b05088006bc8bf00004378008583200050
:10d38000a0508000b1508000c2508000d350800077
:10d39000e4508000220407004e4090000080fb0013
:10d3a0006e00b900ec0040008089200080804000c1
:10d3b0000040eb00804878004e4090000080fb0069
:10d3c0006e00b90080007800e05980008081400044
:10d3d0004e4090000080fb006e00b9008000780095
:10d3e0008089200000804000e20020008300780057
:10d3f0008de207000080fa00000006000600fa0037
:10d40000100798004147980096c0bf000080fb00bd
:10d410004400de0061406000004f78009680a90063
:10d42000ca42a9001e0090004300de008040780040
:10d430000174a10000c8b30000c0700052e30700ef
:10d440001e0090004500dd008040780000ceb30053
:10d4500000c060000044a0004be307004e40900075
:10d4600049e30700ca42a8001e40780061406000fe
:10d47000614060004401dd006109200091407800b6
:10d48000f0ceb30000c060000240700096e0b7002c
:10d490000080fa00000006000400fa00204798000f
:10d4a0003147980096c0bf000080fb004400de00ba
:10d4b00061406000004f78009680a900ca42a90030
:10d4c0002e40900030e307003e4090002ee307001e
:10d4d000ca42a8001e4078006140600061406000c0
:10d4e0004401dd006109200091407800f0ceb300d6
:10d4f00000c060000240700096e0b7000080fa00b3
:10d50000000006000400fa002047980096c0bf0003
:10d510000080fb004400de0061406000104798007e
:10d520009680a900ca42a9002e40900016e3070089
:10d5300023e30700004f7800ca42a8001e40900075
:10d5400061406000614060004401dd00610920002d
:10d5500091407800f0ceb30000c06000024070003f
:10d5600096e0b7001e80fb000080fa000000060075
:10d570000400fa001007980096c0bf000080fb006e
:10d580004400de0061406000104798009680a900ca
:10d59000ca42a9001e0090004300de0080407800cf
:10d5a0000174a10000c8b30000c07000f6e20700db
:10d5b0001e009000c500dd0000ceb30000c060007a
:10d5c000f1e20700fee20700004f7800ca42a8001f
:10d5d0001e40900061406000614060004401dd0039
:10d5e0006109200091407800f0ceb30000c06000d7
:10d5f0000240700096e0b7001e80fb000080fa0039
:10d60000000006000400fa00e842a9000000eb0058
:10d61000000f7800010037001e0fe800b012200054
:10d620009e0f1000fcff3600e842a8000000eb004f
:10d63000000f7800010037001e0fe800b012200034
:10d640009e0f1000fcff360071c0b30050c5b30040
:10d6500091ff070040c5b300aaff070020479800cc
:10d660002e4090000080fb00670060000000e0009a
:10d67000f8ff3a000000eb00000f780001003700cf
:10d680001e0fe800703e20009e0f1000fcff3600c9
:10d6900011c0b300b0c1b3007fff070080c0eb0032
:10d6a00070c0b3007cff070080c0eb0090c0b300e7
:10d6b00079ff070080c0eb0030c0b30076ff0700a1
:10d6c00080c0eb0050c0b30073ff07000040eb00c8
:10d6d000204798000d003700415280002e409000f6
:10d6e0000080fb0000804000904078002e409000b9
:10d6f0000080fb00000040006b40400066ff070018
:10d700002e4090000040e800204798002e409000f6
:10d71000e74f5000f0ff360001c8b3002020200082
:10d7200036ff07008040eb003020200033ff070069
:10d7300001c9b3006020200030ff070001c8b3001a
:10d74000702020002dff070001c1b30080202000c1
:10d750002aff070011c2b3000022200027ff0700a4
:10d7600001c8b30050c7b3004bff070001c4b300aa
:10d77000d0c7b30048ff070001c6b300f0c7b3002d
:10d7800045ff070081c9b30010c3b30042ff070083
:10d7900051c9b300d0c5b3003fff0700f0202000ff
:10d7a00073ff0700204798002e4090008080fb0008
:10d7b000000a200080806000000a2000808f500056
:10d7c000f6ff3a0061ceb30050c6b30032ff070047
:10d7d00091cbb30050c2b3002fff070031c0b3009c
:10d7e0000020200005ff070021c0b300102020000a
:10d7f00002ff07000dcbbf008040eb007a05070059
:10d800000080fa00000006000c00fa00dbc2bf0036
:10d81000614060000004e00001003a008680a8003a
:10d8200012cbbf00614060000004e0000b0032003a
:10d83000115b8000f0072000808f5000040036004c
:10d840000000eb00105b8800120ba90003003700fa
:10d85000105b80000000e800105b880000c0eb0057
:10d8600060ebb7000040eb00304798001000370035
:10d870003e4090008080fb00900520000088b900a9
:10d8800080007800a0a520000080400010407800b3
:10d890000004e000030032003e40900060ebb7005f
:10d8a000060037003e4090000040e80030479800f6
:10d8b0003e409000e14f5000edff360060cbbf00ce
:10d8c000e14f5000c2023e0010002000000f78001f
:10d8d00060cbbf008080fb00900520000088b9006d
:10d8e00080007800b0a52000008040001040780043
:10d8f0000080fb004600de000000a2006100600026
:10d900000004e000020032000000eb00000f78008d
:10d910000040eb0000e8b7000000eb00504088003a
:10d9200060cbbf008080fb00900520000088b9001c
:10d930008000e800b0a52000008040009040780002
:10d94000c0ccb30000c06000204798002e4090007b
:10d950000080fb0050079800c0082000de00900007
:10d96000808f5000a6013200c0082000de00900029
:10d97000808f500009003c0000082000de0090006d
:10d98000808f5000ed00320080082000de00900003
:10d99000808f50001e01320000023700800c2000f2
:10d9a000de009000808f500005003200c00c200087
:10d9b000de009000808f50007b003200f7013700be
:10d9c00060cbbf008080fb00900520000088b9007c
:10d9d000e5004000b0a52000008040001040780025
:10d9e000e14f40000b003a0060cbbf008080fb009d
:10d9f000900520000088b900e6004000b0a5200096
:10da00000080400010407800e14f400001003a00e3
:10da10000048a80000e8a8001e00e0003100320025
:10da200060cbbf008080fb00900520000088b9001b
:10da3000e3004000b0a520000080400010407800c6
:10da40000ce8b70060cbbf008080fb009005200091
:10da50000088b900e4004000b0a52000008040002c
:10da6000104078000de8b70060cbbf008080fb005d
:10da7000900520000088b90080007800a0a5200053
:10da8000008040000000e80067004000104088006f
:10da900060cbbf008080fb00900520000088b900ab
:10daa00080007800a0a52000008040001040780091
:10dab0007340500006e8b70060cbbf008080fb00d9
:10dac000900520000088b90080007800a0a5200003
:10dad000008040000000e8006f0040002040880007
:10dae000b201370060cbbf008080fb0090052000b2
:10daf0000088b900e7004000b0a520000080400089
:10db0000104078000ce8b70060cbbf008080fb00bd
:10db1000900520000088b900e8004000b0a5200072
:10db200000804000104078000de8b70060cbbf00d7
:10db30008080fb00900520000088b90080007800fc
:10db4000a0a52000008040000000e800690040001f
:10db50001040880060cbbf008080fb009005200053
:10db60000088b90080007800a0a520000080400057
:10db7000104078007540500006e8b70060cbbf0049
:10db80008080fb00900520000088b90080007800ac
:10db9000a0a52000008040000000e80071004000c7
:10dba000204088008101370000e8a8001e00e00046
:10dbb0003100320060cbbf008080fb009005200068
:10dbc0000088b900e3004000b0a5200000804000bc
:10dbd000104078000ce8b70060cbbf008080fb00ed
:10dbe000900520000088b900e4004000b0a52000a6
:10dbf00000804000104078000de8b70060cbbf0007
:10dc00008080fb00900520000088b900800078002b
:10dc1000a0a52000008040000000e8006d0040004a
:10dc20001040880060cbbf008080fb009005200082
:10dc30000088b90080007800a0a520000080400086
:10dc4000104078007940500006e8b70060cbbf0074
:10dc50008080fb00900520000088b90080007800db
:10dc6000a0a52000008040000000e80075004000f2
:10dc7000204088004d01370060cbbf008080fb0052
:10dc8000900520000088b900ed004000b0a52000fc
:10dc900000804000104078000ce8b70060cbbf0067
:10dca0008080fb00900520000088b900ee00400055
:10dcb000b0a5200000804000104078000de8b700bb
:10dcc00060cbbf008080fb00900520000088b90079
:10dcd00080007800a0a52000008040000000e8003f
:10dce0006f0040001040880060cbbf008080fb00c8
:10dcf000900520000088b90080007800a0a52000d1
:10dd000000804000104078007b40500006e8b700db
:10dd100060cbbf008080fb00900520000088b90028
:10dd200080007800a0a52000008040000000e800ee
:10dd300077004000204088001c0137000048a80000
:10dd400000e8a800100020005040880060cbbf0011
:10dd50008080fb00900520000088b900e3004000af
:10dd6000b0a5200000804000104078000ce8b7000b
:10dd700060cbbf008080fb00900520000088b900c8
:10dd8000e4004000b0a52000008040001040780072
:10dd90000de8b70060cbbf008080fb00900520003d
:10dda0000088b90080007800a0a520000080400015
:10ddb0000000e800650040001040880060cbbf0014
:10ddc0008080fb00900520000088b900800078006a
:10ddd000a0a5200000804000104078006b4050005b
:10dde00006e8b70060cbbf008080fb0090052000f4
:10ddf0000088b90080007800a0a5200000804000c5
:10de00000000e8006700400020408800e70037007d
:10de100060cbbf008080fb00900520000088b90027
:10de2000e5004000b0a520000080400010407800d0
:10de3000e14f40000b003a0060cbbf008080fb0048
:10de4000900520000088b900e6004000b0a5200041
:10de50000080400010407800e14f400001003a008f
:10de60000048a80000e8a8001000200050408800ea
:10de70001e00e00031003a0060cbbf008080fb0054
:10de8000900520000088b900e7004000b0a5200000
:10de900000804000104078000ce8b70060cbbf0065
:10dea0008080fb00900520000088b900e800400059
:10deb000b0a5200000804000104078000de8b700b9
:10dec00060cbbf008080fb00900520000088b90077
:10ded00080007800a0a52000008040000000e8003d
:10dee000690040001040880060cbbf008080fb00cc
:10def000900520000088b90080007800a0a52000cf
:10df000000804000104078006f40500006e8b700e5
:10df100060cbbf008080fb00900520000088b90026
:10df200080007800a0a52000008040000000e800ec
:10df30006b004000204088009c00370060cbbf0091
:10df40008080fb00900520000088b900e3004000bd
:10df5000b0a5200000804000104078000ce8b70019
:10df600060cbbf008080fb00900520000088b900d6
:10df7000e4004000b0a52000008040001040780080
:10df80000de8b70060cbbf008080fb00900520004b
:10df90000088b90080007800a0a520000080400023
:10dfa0000000e800670040001040880060cbbf0020
:10dfb0008080fb00900520000088b9008000780078
:10dfc000a0a5200000804000104078006d40500067
:10dfd00006e8b70060cbbf008080fb009005200002
:10dfe0000088b90080007800a0a5200000804000d3
:10dff0000000e80069004000204088006b00370006
:10e0000000e8a80010002000504088001e00e0003a
:10e010003100320060cbbf008080fb009005200003
:10e020000088b900e3004000b0a520000080400057
:10e03000104078000ce8b70060cbbf008080fb0088
:10e04000900520000088b900e4004000b0a5200041
:10e0500000804000104078000de8b70060cbbf00a2
:10e060008080fb00900520000088b90080007800c7
:10e07000a0a52000008040000000e8006c004000e7
:10e080001040880060cbbf008080fb00900520001e
:10e090000088b90080007800a0a520000080400022
:10e0a000104078007340500006e8b70060cbbf0016
:10e0b0008080fb00900520000088b9008000780077
:10e0c000a0a52000008040000000e8006f00400094
:10e0d000204088003500370060cbbf008080fb0007
:10e0e000900520000088b900ec004000b0a5200099
:10e0f00000804000104078000ce8b70060cbbf0003
:10e100008080fb00900520000088b900ed004000f1
:10e11000b0a5200000804000104078000de8b70056
:10e1200060cbbf008080fb00900520000088b90014
:10e1300080007800a0a52000008040000000e800da
:10e140006e0040001040880060cbbf008080fb0064
:10e15000900520000088b90080007800a0a520006c
:10e1600000804000104078007540500006e8b7007d
:10e1700060cbbf008080fb00900520000088b900c4
:10e1800080007800a0a52000008040000000e8008a
:10e190007100400020408800040037009100070013
:10e1a0000000eb00400798008b00370060cbbf00f9
:10e1b0008080fb00900520000088b9008000780076
:10e1c000b0a5200000804000104078000080fb00d7
:10e1d0004300de00610060000004e0003100320016
:10e1e000807e2d00104078000080fb0030079800f2
:10e1f000be009000e48f50001f0032003e009000ef
:10e20000e40f50000a003c00be009000e28f500076
:10e21000110032003e009000e20f500012003c005e
:10e22000be009000e18f5000170032001900370047
:10e230003e009000e60f50000b003200be00900040
:10e24000e68f5000040035003e009000e70f5000bc
:10e25000090032000f00370006c8bf0075405000ab
:10e2600006e8b7000b00370006c8bf006d4050003d
:10e2700006e8b7000700370006c8bf006940500035
:10e2800006e8b7000300370006c8bf00654050002d
:10e2900006e8b7002040800065004000204088006c
:10e2a0000068a80060cbbf008080fb0090052000c4
:10e2b0000088b90080007800b0a5200000804000f0
:10e2c000104078000080fb00670060002007980085
:10e2d000ae009000e18f5000070032002e00900049
:10e2e000e30f500007003200ae0090000100e00094
:10e2f00007003200090037000008a9000028a90023
:10e300000a0037000008a8000028a900070037000d
:10e310000008a8000028a80004003700310007000a
:10e320000000eb00400798002b00370060cbbf00d7
:10e330008081fb0060cbbf008080fb009005200047
:10e340000088b90080007800a0a52000008040006f
:10e35000104078000080fb000081e900900520005b
:10e360000098b90082004000b0a520000080400065
:10e370001040780008e8b70060cbbf008081fb0048
:10e3800060cbbf008080fb00900520000088b900b2
:10e3900080007800a0a52000008040001040780098
:10e3a0000080fb000001e900900520000098b90002
:10e3b00082004000b0a5200000804000104078009e
:10e3c00007e8b7001100200041079800020037005d
:10e3d0000000eb00400798004e0090000080fa001b
:10e3e000000006000000fa0060cbbf00e14f5000c3
:10e3f00009003e0060cbbf008080fb00900520003c
:10e400000088b90080007800a0a52000808040002e
:10e410000040eb00804878000080fa000000060011
:10e420002600fa00ee034700800b78009103980065
:10e43000a2039800b3039800c4039800450f980006
:10e44000265f98000040eb00304798000040eb004a
:10e45000204798006e0047001000780064006000bc
:10e460000000e00003003200ee0047001000200032
:10e47000a00098006e00470010007800680060005f
:10e480000000e00003003200ee0047000000eb0057
:10e49000b00098006e004700100078006300600034
:10e4a000e10f500003003a0030c0b300204798004d
:10e4b000070037006e00470010007800630060001e
:10e4c0000000e00002003a0010c0b30020479800ae
:10e4d0006e004700c000900070588000808f500090
:10e4e0000c003a0070588000e10f40000900320033
:10e4f00050c0b30040479800ae40900000c4b30045
:10e5000000c070002047980010002000000f780025
:10e510000400370070c0b300404798000000eb00d3
:10e52000000f78006e004700200090000000e0001f
:10e53000040032004e40900000c0e80040479800c0
:10e54000030037004e40900068404000404798006c
:10e550006e004700300090000000e0000400320030
:10e560004e40900000c0e80040479800030037008c
:10e570004e40900068404000404798006e004700c1
:10e5800010007800680060000000e0000300320026
:10e590002e4090000034a000204798006e004700f5
:10e5a0009000780000022000008060000000e00081
:10e5b000090032006e00470010007800640060001f
:10e5c0000000e00004003a002e40900001c2b300b9
:10e5d00001407000204798006e004700100078004e
:10e5e00063006000e30f50000c003a000040eb00b5
:10e5f0002047980070c0b300404798000000eb002f
:10e60000000f7800ee00470010002000b0009800d6
:10e61000ee004700f0fd2f00910860003e409000a2
:10e620000081fb003e4090000040e8003047980029
:10e63000ce4090000200780070fb07006e0047009b
:10e6400010007800680060000000e0000d0032005b
:10e65000ce4090002e58900000c040006540400021
:10e66000804078003e4090000081fb003e409000da
:10e670000040e80030479800020078005ffb070088
:10e680000a003700ce4090002e58900080c0400015
:10e690003e4090000081fb003e4090000040e800ba
:10e6a000304798000200780054fb07003e4090007d
:10e6b0000081fb003e4090000040e8003047980099
:10e6c000ae409000020078004cfb07006e0047004f
:10e6d0001000780063006000e30f500014003a005f
:10e6e0003e4090000081fb003e4090000040e8006a
:10e6f0003047980001c8b300020078003ffb0700d4
:10e700000ccbbf00804078000040e8000cebb70065
:10e710003e4090000081fb003e4090000040e80039
:10e72000304798000200780034fb07009e00370055
:10e730006e004700200090000000e0000d00320055
:10e740006e004700300090000000e0000900320039
:10e750003e4090000081fb003e4090000040e800f9
:10e760003047980081c8b3000200780023fb0700ff
:10e770002a0037006e004700200090000000e000f3
:10e780000d0032006e004700300090000000e000f5
:10e7900009003a003e4090000081fb003e4090009e
:10e7a0000040e8003047980081ccb30002007800b8
:10e7b00012fb0700190037006e0047002000900090
:10e7c0000000e0000d003a006e00470030009000ad
:10e7d000e10f500009003a003e4090000081fb002c
:10e7e0003e4090000040e80030479800c1c8b300a8
:10e7f0000200780001fb0700080037003e4090004f
:10e800000081fb003e4090000040e8003047980047
:10e81000c1ccb30002007800f8fa07000ccbbf00af
:10e82000804078000040e8000cebb7003e409000cc
:10e830000081fb003e4090000040e8003047980017
:10e8400002007800edfa07006e0047008048900053
:10e850003e4090000081fb003e4090000040e800f8
:10e860003047980002007800e4fa07006e00470085
:10e87000904890003e4090000081fb003e40900098
:10e880000040e8003047980002007800dbfa0700fb
:10e890006e00470010007800640060000000e00097
:10e8a000110032003e4090000081fb003e4090008d
:10e8b0000040e8003047980080c0eb00020078007c
:10e8c000cefa07003e4090000081fb003e409000e1
:10e8d0000040e8003047980080c0eb00020078005c
:10e8e000c6fa0700300037006e0047002000900095
:10e8f0000000e000160032006e004700100090009b
:10e90000904078003e4090000081fb003e40900027
:10e910000040e8003047980002007800b7fa07008e
:10e920006e004700100090000000e8009040780062
:10e930003e4090000081fb003e4090000040e80017
:10e940003047980002007800acfa07001600370044
:10e950000040eb0020479800100037006e00470091
:10e96000900090002e4090000080fb00008040004e
:10e97000904078003e4090000081fb003e409000b7
:10e980000040e80030479800020078009bfa07003a
:10e990002e4090000040e800204798002e40900054
:10e9a000e74f5000edff36001e00e00012003a0075
:10e9b000e1b02000914078003e4090000081fb00d3
:10e9c0003e4090000040e800304798000200780088
:10e9d0008afa0700f1b02000914078003e40900094
:10e9e0000081fb003e4090000040e8003047980066
:10e9f0000200780081fa07006e00470030009000a6
:10ea00000000e0001300320001b1200091407800c6
:10ea10003e4090000081fb003e4090000040e80036
:10ea2000304798000200780074fa070011b1200006
:10ea3000914078003e4090000081fb003e409000f5
:10ea40000040e80030479800020078006bfa0700a9
:10ea5000150037000040eb00204798000f003700fa
:10ea6000415280002e4090000080fb00008040005a
:10ea7000904078003e4090000081fb003e409000b6
:10ea80000040e80030479800020078005bfa070079
:10ea90002e4090000040e800204798002e40900053
:10eaa000e74f5000eeff36006e0047001000780080
:10eab000680060000000e000460032000040eb000b
:10eac000204798000f0037002e4090008080fb0008
:10ead000a0a4200000804000904078003e409000bc
:10eae0000081fb003e4090000040e8003047980065
:10eaf0000200780041fa07002e4090000040e80034
:10eb0000204798002e409000e34f5000eeff360063
:10eb1000505280006152800061004000e080480057
:10eb200050528800615288004acabf000004e000c9
:10eb300009003a004bcabf000080fb006300600080
:10eb40000000e00004003a00f1598000420020007b
:10eb5000a0a42000b4dc0700907e2d009040780037
:10eb60003e4090000081fb003e4090000040e800e5
:10eb7000304798000200780020fa07000040eb00c0
:10eb8000204798000c0037002e4090008080fb004a
:10eb9000807d2d0000804000904078002e40900045
:10eba0000080fb000028b00014fa07002e409000ff
:10ebb0000040e800204798002e409000ef4f5000a2
:10ebc000f1ff3600807e2d009040780090c5b300a4
:10ebd00031fa07000040eb00204798001000370092
:10ebe0002e4090000080fb00800078004e089000ce
:10ebf00000804000904078003e4090000081fb0083
:10ec00003e4090000040e800304798000200780045
:10ec1000faf907002e4090000040e80020479800d5
:10ec2000ae4090002e58900080cf5000ecff39008d
:10ec3000120ba8006e004700900078000002200030
:10ec4000008060000000e000090032006e00470014
:10ec500010007800640060000000e00004003a004a
:10ec600050c0b30020479800122ba80003003700c3
:10ec700010c0b30020479800122ba9006e00470077
:10ec800010007800680060000000e000030032001f
:10ec90002e4090000014a00020479800ae40900045
:10eca00070c3b300fcf907007c004700afda07002f
:10ecb0006e089000fe089000300798004107980009
:10ecc000dbc2bf00614060000004e00001003a00c8
:10ecd0008680a80012cbbf00614060000004e00005
:10ece0000b003a0012cbbf00644060000004e0005b
:10ecf00004003200124ba9000000eb00201798001e
:10ed00001c00370010002000201798001900370061
:10ed1000000220000e00400094da07000e10900060
:10ed20009e10900050079800610798005e019000c7
:10ed3000ee0190003e009000ce00900000015100d6
:10ed400081815900409c200001002000800f51006b
:10ed5000818f5900daff36002afa0700e1b020005f
:10ed600000b120007e000700120ba9000000eb009c
:10ed7000201798002e1090000080fa000000060076
:10ed80000400fa002047980001c8b300d0c7b300c0
:10ed9000c1f90700c0c7b300daf90700004f7800d7
:10eda00003003700c0c7b300d6f90700004f780052
:10edb0001e80fb000000a200610060000004e00073
:10edc000f8ff3a0000212000e9f90700004f780021
:10edd00001c4b300d0c7b300aff907001e80fb0029
:10ede0000080fa00000006000400fa00004f7800de
:10edf00011479800a0c0b3009e4f100003003600da
:10ee0000a0c1b3009e4f1000030036000000eb00cd
:10ee100010079800110037001e4078000debb70076
:10ee20001e80fb006b0050004400dd003040b3004a
:10ee3000804078000020200070f9070041c0b30036
:10ee4000d0c6b30094f907008040eb00d0c6b300f1
:10ee500091f9070010002000100798001e00900094
:10ee60000080fa00000006000400fa002047980025
:10ee70002e4090000080fb00a2002000110009003d
:10ee80000280d8008000fd00004f78002e409000e6
:10ee90000080fb00a2002000110009000280d800c1
:10eea0004600dd001047980050c0b3009e4f100090
:10eeb000040036001e4090008043b00010479800c8
:10eec0002100370040c0b3009e4f10000400360000
:10eed0001e4090000043b000104798001a00370011
:10eee00030c0b3009e4f1000040036001e4090005a
:10eef0008042b000104798001300370020c0b300d4
:10ef00009e4f1000040036001e4090000042b000ea
:10ef1000104798000c00370010c0b3009e4f10003f
:10ef2000040036001e4090007840400010479800d2
:10ef3000050037001e04e000030032001e40900070
:10ef400070404000104798009e4090003020200004
:10ef50002af90700100020000080fa0000000600d7
:10ef60000400fa00000f7800110798001e007800d6
:10ef70001040780010ebb7001e00e8001040780049
:10ef800011ebb7001e009000104078000eebb700a8
:10ef90001e0090000000e800104078000febb70062
:10efa00001b120009140780070c0b3003af9070029
:10efb00011b120009140780090c0b30036f90700ed
:10efc000e1b020009140780030c0b30032f9070072
:10efd000f1b020009140780050c0b3002ef9070036
:10efe000100020000080fa00000006000600fa0071
:10eff00010079800210798001e009000ae009000b6
:10f000003052880041528800300880000cebb70075
:10f01000b0c0b3000debb7007af907000040eb0079
:10f0200012ebb7000040eb00004f780009003700fa
:10f030009e80fb00900520000088b90080007800c9
:10f04000a0a52000808040000040eb0080487800b0
:10f050001e4fe80011c0b3009ecf1000f4ff360031
:10f060001e009000640060000000e000110032000b
:10f07000f159800042002000a0a420003ddb0700e1
:10f0800052528000635280000040200001002000a6
:10f09000020040008380480050528800615288007e
:10f0a000f159800042002000a0a420005edb070090
:10f0b0000b0037006000b800505288006152880091
:10f0c000f159800042002000a0a4200056db070078
:10f0d000100020000100200050528800615288007a
:10f0e000100020000080fa000000060000a0fe00d2
:10f0f0003600f800849fbe00869fbe00889fbe0039
:10f100003400f80024002000a40188000a00fa005e
:10f1100096c0bf00704060000004e000a80132000b
:10f1200086c0bf00704060000004e000a40132000f
:10f130008680a90020c6b300f2f80700804078005e
:10f1400066004700014878006600470010407800dc
:10f15000614060000004e00010003200120ba900c2
:10f160000000eb00105b880012cbbf006240600023
:10f170000004e0000900320080c4b300e1f8070099
:10f18000004f98000e489000614060000004e000cd
:10f1900001003200124ba800122ba90066004700a4
:10f1a00010407800684060000004e0001701320061
:10f1b00000c0eb00304798000040eb00504798003b
:10f1c000100037005e4090008080fb00900520001a
:10f1d0000088b90080007800a0a5200000804000d1
:10f1e000104078000004e00003003a005e40900008
:10f1f00030479800060037005e4090000040e8006d
:10f20000504798005e409000e14f5000edff3600ff
:10f210003e409000e14f5000f7003e0012cbbf008f
:10f22000684060000004e000a0003200e0c5b300c8
:10f23000b4f8070020479800126ba9002e409000f8
:10f240000080fb000000d100610060000004e000cd
:10f250000400320011c0b300b0c1b3008ef8070043
:10f26000ea00370060c0b30050479800103020001b
:10f27000bff80700104798001e4090000080fb0078
:10f280004600de000000a200610060000004e00013
:10f29000030032005e40900000c0e8005047980034
:10f2a00020302000b2f80700104798001e40900060
:10f2b0000080fb006c006000ec0f500004003a007e
:10f2c0005e409000684040005047980003003700bf
:10f2d0005e40900000c0e800504798000040eb00fe
:10f2e00040479800100037004e4090000084fb001b
:10f2f0005e4090008080fb004e4090000080fb004c
:10f30000008040000030b00099f80700804078008d
:10f31000e0a4200000004400014878004e40900026
:10f320000040e800404798004e409000e74f5000f2
:10f33000edff36000040eb0040479800100037001a
:10f340004e4090000084fb005e4090008080fb00f7
:10f350004e4090000080fb00008040008030b000f4
:10f3600083f807008040780060a52000000044007a
:10f37000014878004e4090000040e8004047980067
:10f380004e409000e34f5000edff36000040eb0090
:10f3900050479800180037005e4090000080fb0046
:10f3a0006e00b900ec004000808920000080400021
:10f3b000100078004700de00614060000004e000bb
:10f3c0000a0032005e4090000080fb006e00b90031
:10f3d000e40040008089200000804000e1a420007b
:10f3e0006dee07000000e00006003a005e4090006d
:10f3f0000040e800504798005e409000e94f500000
:10f40000e5ff36005e409000e94f500030003e00be
:10f410005e4090000080fb00c200dd00e080200024
:10f42000008040001001be00b0528000c152800038
:10f43000800f5100818f59000400360011c0b300c5
:10f44000b0c1b30014f8070070003700b25280005a
:10f45000c35280000080eb008080eb00800f5100e1
:10f46000818f590008003a005e4090000080fb0048
:10f47000c200dd00e0802000008140006000b80094
:10f480000089be00120037005e4090000080fb0043
:10f49000b2528000c3528000c200dd00e080200034
:10f4a000008040000288be000900370012cbbf0078
:10f4b000704060000004e00005003200128ba900db
:10f4c00011c0b300b0c1b300f3f707004f0037001d
:10f4d00041c0b30030c7b300eff707003e409000d3
:10f4e0000084fb000030200021f8070000c0e80085
:10f4f000004178009005200000c0b900800078002d
:10f50000a0a5200000804000024878003e40900006
:10f510008080fb00900520000088b9008000780002
:10f52000a0a52000008040009040780070c5b30086
:10f5300080cf500029003e0012aba80010c0b300dd
:10f5400050479800130037003e4090000084fb00b5
:10f550005e4090000080fb008004e9005e40900067
:10f560000080fb000030b00001f807000041780087
:10f570009005200000c0b90089004000b0a520001f
:10f5800000804000024878005e4090000040e800a3
:10f59000504798005e4090000081fb003e40900084
:10f5a0008080fb00900520000088b9008000780072
:10f5b000a0a5200000804000104078000080fb00e3
:10f5c0000080e800800f5100dfff340011c0b3005d
:10f5d000b0c1b300b0f707000300370011c0b3009b
:10f5e000b0c1b300acf707008040eb0030c7b300f8
:10f5f000a9f707000500370011c0b300b0c1b30080
:10f60000a5f70700126ba900128ba900660047003e
:10f6100010407800704060000004e0006800320094
:10f6200012cbbf00614060000004e000080032001f
:10f63000128ba80001c8b30090c5b30096f707006d
:10f6400011c0b300b0c1b30093f707005c003700ee
:10f6500060c0b3005047980010302000c4f7070086
:10f66000004f78001e80fb004600de000000a20074
:10f67000610060000004e000030032005e40900082
:10f6800000c0e8005047980020302000b8f707007d
:10f69000004f78001e80fb006c006000ec0f5000f3
:10f6a00004003a005e4090006840400050479800d7
:10f6b000030037005e40900000c0e800504798000b
:10f6c0000040eb0040479800070037004e40900094
:10f6d0000080fb001030b000a5f707004e409000fe
:10f6e0000040e800404798004e4090008080fb00ba
:10f6f0005e4090000080fb006a004000808f500058
:10f70000f2ff35005e4090000080fb00c030b0008a
:10f7100097f7070040479800907e2d0090407800b2
:10f720004e409000814f50000400320001c8b300e9
:10f7300090c5b30058f70700128ba80012cbbf008a
:10f74000704060000004e0001d003a000040eb0043
:10f75000504798000c0037005e4090008080fb000e
:10f76000807d2d0000804000904078005e40900039
:10f770000080fb00002bb00020f707005e409000e7
:10f780000040e800504798005e409000ef4f500066
:10f79000f1ff3600126ba800807e2d00104078002b
:10f7a0000080fb004300dd008040780000c4b3000f
:10f7b00000c070008040780090c5b30036f70700a5
:10f7c0000080fa003400f9004f04be004f03be0071
:10f7d0004f02be003600f9000080fe000040060027
:020000040000fa
:020000040002f8
:04aff800fdfa00005e
:020000040000fa
:020000040002f8
:04affc007a3f000098
:020000040000fa
:100008009680000096800000968000009680000090
:100018009680000096800000968000009680000080
:100028009680000096800000968000009680000070
:100038009680000096800000968000009680000060
:100048009680000096800000968000009680000050
:100058009680000096800000968000009680000040
:100068009680000096800000968000009680000030
:100078007678000096800000968000009680000048
:100088009680000096800000968000009680000010
:100098009680000096800000968000009680000000
:1000a80096800000968000009680000096800000f0
:1000b80096800000968000009680000096800000e0
:1000c80096800000968000009680000096800000d0
:1000d80096800000968000009680000096800000c0
:1000e80096800000968000009680000096800000b0
:1000f80096800000968000009680000096800000a0
:10010800968000009680000096800000968000008f
:10011800968000009680000096800000968000007f
:10012800968000009680000096800000968000006f
:10013800968000009680000096800000968000005f
:10014800968000009680000096800000968000004f
:10015800968000009680000096800000968000003f
:10016800968000009680000096800000968000002f
:10017800968000009680000096800000968000001f
:10018800968000009680000096800000968000000f
:1001980096800000968000009680000096800000ff
:1001a80096800000968000009680000096800000ef
:1001b80096800000968000009680000096800000df
:1001c80096800000968000009680000096800000cf
:1001d80096800000968000009680000096800000bf
:1001e80096800000968000009680000096800000af
:0801f8009680000096800000d3
:020000040000fa
:10020800968000009680000096800000968000008e
:10021800968000009680000096800000968000007e
:10022800968000009680000096800000968000006e
:10023800968000009680000096800000968000005e
:10024800968000009680000096800000968000004e
:10025800968000009680000096800000968000003e
:10026800968000009680000096800000968000002e
:100278007678000096800000968000009680000046
:10028800968000009680000096800000968000000e
:1002980096800000968000009680000096800000fe
:1002a80096800000968000009680000096800000ee
:1002b80096800000968000009680000096800000de
:1002c80096800000968000009680000096800000ce
:1002d80096800000968000009680000096800000be
:1002e80096800000968000009680000096800000ae
:1002f800968000009680000096800000968000009e
:10030800968000009680000096800000968000008d
:10031800968000009680000096800000968000007d
:10032800968000009680000096800000968000006d
:10033800968000009680000096800000968000005d
:10034800968000009680000096800000968000004d
:10035800968000009680000096800000968000003d
:10036800968000009680000096800000968000002d
:10037800968000009680000096800000968000001d
:10038800968000009680000096800000968000000d
:1003980096800000968000009680000096800000fd
:1003a80096800000968000009680000096800000ed
:1003b80096800000968000009680000096800000dd
:1003c80096800000968000009680000096800000cd
:1003d80096800000968000009680000096800000bd
:1003e80096800000968000009680000096800000ad
:0803f8009680000096800000d1
:020000040000fa
:020000040002f8
:109f980020b200002020000020b200002020000095
:109fa800b2200000b2200000202000002020000085
:109fb800b2200000b20d00000ab2000020b200007a
:109fc80020b2000020b200002020000020b20000d3
:109fd80020200000b220000020b200002020000055
:109fe8000d0a0000b220000020b20000202000006e
:109ff800b2200000b2200000b220000020b2000011
:10a0080020200000b2200000b20d00000ab20000bb
:10a0180020200000b220000020b2000020b2000082
:10a0280020200000b2200000b2200000b220000072
:10a0380020b200000d0a0000b220000020b200008b
:10a0480020200000b2200000b220000020200000e4
:10a05800b2200000b220000020200000b20d000055
:10a068000ab20000b2b2000020200000b2b2000024
:10a07800b2b200000d0a0000b220000020b20000b9
:10a0880020b2000020200000200d00000ab20000cd
:10a0980020200000b2200000b2b20000b2b20000de
:10a0a8000d0a0000b220000020b2000020b200001b
:10a0b80020200000200d00000ab20000b2b200000b
:10a0c80020200000b2b20000b2b200000d0a000069
:10a0d8000d0a0000537400006172000074690000ea
:10a0e8006e670000204e00006f64000065200000cd
:10a0f800312000006f660000204600006561000006
:10a10800747500007265000020440000656d000051
:10a118006f200000666f0000722000004d6900008b
:10a1280057690000285400004d2900002053000002
:10a1380074610000636b0000202e00002e2e0000ca
:10a14800000d00000a4900006e70000075740000e0
:10a15800204300006f6e000066690000677500000c
:10a1680072610000746900006f6e00003a00000020
:10a178000d0a000020200000202000002020000000
:10a1880020200000202000002042000075740000fc
:10a19800746f00006e200000313a00002052000069
:10a1a80044360000000d00000a20000020200000b6
:10a1b8002020000020200000202000002020000097
:10a1c80042750000747400006f6e000020320000b9
:10a1d8003a20000052440000370000000d0a000039
:10a1e8004f75000074700000757400002043000073
:10a1f8006f6e0000666900006775000072610000fc
:10a20800746900006f6e00003a0000000d0a00003b
:10a218002020000020200000202000002020000036
:10a228002020000020200000202000002020000026
:10a23800202000002020000020520000533200009f
:10a2480033320000207000006f72000074000000bc
:10a258000d0a00002020000020200000202000001f
:10a2680020200000202000002020000020200000e6
:10a278004c45000044200000313a00002044000012
:10a2880031300000000d00000a20000020200000ee
:10a2980020200000202000002020000020200000b6
:10a2a80020200000204c000045440000203200001f
:10a2b8003a20000044390000000d00000a20000088
:10a2c80020200000202000005246000020540000fa
:10a2d800726100006e73000063650000697600001b
:10a2e800657200003a2000004d520000463200001e
:10a2f800344a000034300000000d00000a2000003d
:10a3080020200000446500006d6f00002049000017
:10a318006e730000747200007563000074690000b9
:10a328006f6e00003a0000000d0a000020200000b7
:10a338002020000020200000202000002020000015
:10a348002020000020200000202000002020000005
:10a3580020200000205000006f7700006572000088
:10a36800206f00006e200000746800006520000067
:10a37800626f00006172000064200000756e0000ca
:10a38800746900006c2000004c4500004420000067
:10a39800312000006c6900006768000074730000d9
:10a3a80020750000700000000d0a00002020000049
:10a3b8002020000020200000202000002020000095
:10a3c8002020000020200000202000002020000085
:10a3d80020200000207400006f200000696e00003b
:10a3e8006469000063610000746500002069000072
:10a3f800742000006973000020720000656100008d
:10a4080064790000207400006f200000657300006c
:10a4180074610000626c000069730000682000002d
:10a428006e650000770000000d0a00002020000083
:10a438002020000020200000202000002020000014
:10a448002020000020200000202000002020000004
:10a4580020200000206300006f6e00006e65000081
:10a4680063740000696f00006e7300002e20000006
:10a4780050750000736800002042000075740000e9
:10a48800746f00006e20000031200000746f00001f
:10a498002070000065720000666f0000726d000099
:10a4a800000d00000a2000002020000020200000ed
:10a4b8002020000020200000202000002020000094
:10a4c8002020000020200000202000002020000084
:10a4d8006672000065710000756500006e6300001b
:10a4e8007920000061670000696c00006974000051
:10a4f80079200000707200006f630000656400003e
:10a5080075720000652e0000205000007573000071
:10a518006820000042750000747400006f6e00002f
:10a52800000d00000a20000020200000202000006c
:10a538002020000020200000202000002020000013
:10a548002020000020200000202000002020000003
:10a5580032200000746f0000207500006e69000052
:10a568006361000073740000206500006e630000e2
:10a57800727900007074000065640000206d0000ae
:10a588006573000073610000676500002e200000fd
:10a598004c4500004420000032200000776900008c
:10a5a8006c6c0000000d00000a2000002020000054
:10a5b8002020000020200000202000002020000093
:10a5c8002020000020200000202000002020000083
:10a5d8002020000062650000207400006f67000002
:10a5e800676c00006564000020750000706f000053
:10a5f8006e20000072650000636500006976000047
:10a60800696e0000672000006d650000737300002c
:10a6180061670000657300002e200000000d000037
:10a628000a0d00000a000000466500006174000081
:10a6380075720000652000004d6900005769000030
:10a6480020440000656d00004d52000046320000b5
:10a65800344a000034300000204e00006f640000cf
:10a668006520000031000000204e000065740000e5
:10a67800776f0000726b00002046000072650000d2
:10a68800657a00006572000020200000202000008c
:10a69800454e0000414200004c45000044000000c7
:10a6a8000d0a00004e650000747700006f7200000c
:10a6b8006b20000046720000656500007a650000a6
:10a6c8007220000046650000617400007572000089
:10a6d8006520000069730000206500006e610000bd
:10a6e800626c0000656400002e20000054680000c1
:10a6f8006572000065200000776900006c6c00003e
:10a7080020620000652000006e6f000020680000d5
:10a71800616e0000642d000073680000616b00002a
:10a7280065200000707200006f6300006573000010
:10a73800732e00000d0a0000000d00000a530000ef
:10a748007461000072740000696e000067200000e8
:10a758004163000074690000766500002053000022
:10a76800636100006e2e00002e2e000000410000e4
:10a7780063740000697600006520000053630000e0
:10a78800616e00006e6900006e670000000d000039
:10a798000a4100006374000069760000652000002b
:10a7a80053630000616e00002052000065730000d2
:10a7b800756c0000747300003a2000000d0a000058
:10a7c80000430000686100006e6e0000656c0000c8
:10a7d8003a20000000200000202000005253000012
:10a7e800534900003a200000000d00000a00000054
:10a7f8000d0a00004a6f0000696e00002046000044
:10a80800616900006c000000416300007469000089
:10a818007665000020530000636100006e6e000042
:10a82800696e000067200000456e00006572000038
:10a838006779000020530000636100006e6e00001d
:10a84800696e000067000000537400006172000028
:10a8580074200000436f00006e6e00006563000006
:10a86800746900006f6e0000206f00006e20000009
:10a8780043680000616e00006e6500006c200000f7
:10a888002564000000520000443600003a20000011
:10a898004672000065710000204800006f700000db
:10a8a8002020000020520000443700003a20000019
:10a8b800556e0000696300006173000074000000b9
:10a8c8005365000063750000726500006420000095
:10a8d80000420000726f00006164000063610000c4
:10a8e8007374000020500000616300006b65000075
:10a8f800742000007769000074680000205200008e
:10a908005353000049200000005500006e69000004
:10a918006361000073740000205000006163000050
:10a928006b650000742000007769000074680000ff
:10a93800205200005353000049200000002000006e
:10a94800667200006f6d0000200000003a200000d1
:10a9580000200000496e00006974000020460000d5
:10a968007265000071200000486f00007000000050
:10a97800204900006e690000742000004672000043
:10a9880065710000204800006f7000002020000062
:10a99800204e000065770000204300006861000039
:10a9a8006e6e0000656c0000202500006400000049
:10a9b8000d0a000046720000657100007565000010
:10a9c8006e6300007920000041670000696c000098
:10a9d8006974000079200000746f000020430000b3
:10a9e800686100006e6e0000656c000020000000c9
:10a9f800204900006e6900007420000046720000c3
:10aa080065710000204800006f70000020200000e1
:10aa1800204600007265000071200000486f0000a9
:10aa28007020000046610000696c00006564000049
:10aa3800000d00000a4600007265000071750000f4
:10aa4800656e00006379000020410000676900001e
:10aa58006c690000747900002046000061690000fc
:10aa68006c650000640000000d0a0000556e0000cf
:10aa780069630000617300007420000046610000f3
:10aa8800696c0000656400000d0a000000200000e9
:10aa9800556e0000696300006173000074200000b7
:10aaa80046610000696c0000656400000000000059
:10aab8007800000000000000b40000000000000062
:10aac8002c010000000000001c0200000000000033
:10aad800fc03000000000000bc07000000000000ac
:10aae8003c0f0000000000003c1e000000000000b9
:10aaf8003c3c0000000000003c7800000000000022
:10ab08003cf00000000000003ce0000001000000f4
:10ab18003cc00000030000003c800000070000006b
:10ab28003c0000000f000000736500006e64000028
:10ab3800696e0000672000006f7500007420000037
:10ab480072650000737000006f6e0000736500008e
:10ab58000d0a0000000d00000a4800006f70000098
:10ab6800706900006e670000204300006861000003
:10ab78006e6e0000656c0000207400006f200000fd
:10ab880000490000206100006d20000061200000e5
:10ab9800636f00006f720000646900006e6100005e
:10aba800746f0000720d00000a00000049200000c8
:10abb800616d0000206100006e200000656e0000dd
:10abc8006420000064650000766900006365000089
:10abd8000d0a0000000d00000a4a00006f6900001d
:10abe8006e20000074680000652000006e6500009b
:10abf800747700006f7200006b200000737500000e
:10ac0800636300006573000073660000756c0000e4
:10ac18006c7900000d0a000000730000656e0000ea
:10ac2800646900006e670000206f00007574000002
:10ac380020730000656300006f6e00006420000050
:10ac480072650000737000006f6e0000736500008d
:10ac58000d0a0000000d00000a0d00000a41000066
:10ac68006464000072650000737300003a200000fd
:10ac7800307800000020000020530000686f0000ba
:10ac8800727400002041000064640000723a000001
:10ac98002000000020200000504100004e49000024
:10aca800443a000020000000202000004368000013
:10acb800616e00006e6500006c3a00002000000024
:10acc8000d0a000041760000616900006c61000017
:10acd800626c0000652000006e6f00006465000073
:10ace800730d00000a480000616e0000646c0000eb
:10acf8006520000052580000204400004320000056
:10ad0800504100004e49000044200000414400002a
:10ad180044520000204c00004f4e0000475f0000e6
:10ad28004144000044520000202000002020000080
:10ad3800202000002020000050450000455200005f
:10ad48005f4900004e4600004f0d00000a00000059
:10ad58000d0a00004b6e00006f7700006e200000a7
:10ad6800436f00006f720000646900006e610000ac
:10ad7800746f0000727300003a200000000d00009c
:10ad88000a5200006f750000746900006e670000c9
:10ad980020540000616200006c6500000d0a00008c
:10ada800636f00006f720000642000006e65000091
:10adb80078740000486f0000700d00000a00000061
:10adc80043680000616e00006e6500006c3a000088
:10add80000200000504100004e490000443a0000a5
:10ade80000530000686f00007274000041640000a6
:10adf800647200003a0000000d0a0000536300006e
:10ae0800616e000020430000686100006e6e000063
:10ae1800656c0000200000000d0a0000537400005b
:10ae2800617200007420000057690000726500001c
:10ae38006c65000073730000204300006f6d000014
:10ae48006d7500006e6900006361000074690000a0
:10ae58006f6e0000206f00006e2000004368000045
:10ae6800616e00006e6500006c200000000d00009f
:10ae78000a0000000d0a0000456e0000657200001f
:10ae88006779000020530000636100006e20000015
:10ae980052650000737500006c740000733a00007e
:10aea800000d00000a430000686100006e6e00009b
:10aeb800656c0000200000003a200000002000001f
:10aec800000d00000a43000068650000636b000085
:10aed800696e00006720000043680000616e000092
:10aee8006e6500006c200000000d00000a52000092
:10aef80065730000796e000063680000726f0000df
:10af08006e6900007a65000064200000436f00004d
:10af18006e6e000065630000746900006f6e0000cb
:10af2800207400006f20000043680000616e00007c
:10af38006e6500006c200000000d00000a4800004b
:10af48006f700000706900006e67000020740000d8
:10af58006f20000043680000616e00006e6500000d
:10af68006c2000000000000054580000204d000034
:10af7800657300007361000067650000733a0000a4
:10af8800202500006400000052580000204d0000f9
:10af9800657300007361000067650000733a000084
:10afa80020250000640000000001000002030000ea
:10afb8000405000006070000080900000a0b00004d
:10afc8000c0d00000e0f00000400000030310000de
:10afd80032330000343500003637000038390000bd
:0cafe800414200004344000045460000c8
:020000040000fa
:10f7e000640b00000200000002000000011900008c
:10f7f0005a0b00000600000000000000660b00002d
:10f800000200000000000000140b000022000000b5
:10f8100000000000360b0000160000000000000091
:10f820004c0b00000e000000020000000177660093
:10f8300055443300221100000004ff0000000000c6
:10f84000000800004602000000000000600b0000fd
:10f850000400000002000000ff00000000000000a3
:10f86000460a0000ce00000000000000680b000007
:10f87000d0010000020000000100000000000000b4
:10f880000000080000000000000000000040000030
:10f890000000000000000000000200000000000066
:10f8a00000000000100000000000000000008000c8
:10f8b0000000000000000000000004000000000044
:10f8c0000000000000200000000000000000000018
:10f8d000000100000000000000000000080000001f
:10f8e00000000000000040000000000000000000d8
:10f8f00000000200000000000000000000100000f6
:10f900000000000000000000800000000000000077
:10f9100000000000040000000000000000002000c3
:10f9200000000000000000000000010000000000d6
:10f9300000000000000800000000000000000000bf
:10f940004000000000000000000000000200000075
:10f950000000000000001000000000000000000097
:10f960000080010000000000000000000010000006
:10f970000000000000000000000100000000000086
:10f980000000000010000000000000000000000067
:10f990000100000000000000000010000000000056
:10f9a0000000000000000100000000000000000056
:10f9b0000010000000000000000000000001000036
:10f9c0000000000000000000100000000000000027
:10f9d0000000000001000000000000000000100016
:10f9e0000000000000000000000001000000000016
:10f9f00000000000001000000000000000000000f7
:10fa000000010000000000000000000010010000e4
:10fa100000000000000000000a00000000000000dc
:10fa200000006400000000000000000000e8030087
:10fa3000000000000000000010270000000000008f
:10fa40000000a0008601000000000000004042000d
:10fa50000f000000000000008096980000000000e9
:10fa600000000000e1f50500000000000000ca00f1
:10fa70009a3b00000000000000e40b00540200006c
:10fa800000000000e87648001700000000001000a9
:10fa9000a5d4e8000000000000a072004e18090084
:10faa00000000000407a1000f35a000000008000bf
:10fab000c6a47e008d0300000000c1006ff2860026
:10fac00023000000008a5d0078456300010000000b
:10fad00064a7b300b6e00d000000e800890423002d
:10fae000c78a0000681000002a0000000200000021
:10faf000286e75006c6c2900003031003233340000
:10fb0000353637003839410042434400454600004d
:10fb10003031320033343500363738003961620015
:10fb20006364650066000000380d0000d00100002d
:10fb300002000000010000000000000000000800ba
:10fb40000000000000000000004000000000000075
:10fb500000000000000200000000000000000000a3
:10fb60001000000000000000000080000000000005
:10fb70000000000000000400000000000000000081
:10fb80000020000000000000000000000001000054
:10fb9000000000000000000008000000000000005d
:10fba0000000400000000000000000000000020013
:10fbb0000000000000000000001000000000000035
:10fbc00000000000800000000000000000000000b5
:10fbd0000400000000000000000020000000000001
:10fbe0000000000000000100000000000000000014
:10fbf00000080000000000000000000040000000bd
:10fc000000000000000000000200000000000000f2
:10fc10000000100000000000000000000080010053
:10fc200000000000000000000010000000000000c4
:10fc300000000000000100000000000000000000c3
:10fc400010000000000000000000000001000000a3
:10fc50000000000000001000000000000000000094
:10fc60000000010000000000000000000010000083
:10fc70000000000000000000000100000000000083
:10fc80000000000010000000000000000000000064
:10fc90000100000000000000000010000000000053
:10fca0000000000000000100000000000000000053
:10fcb0000010000000000000000000000001000033
:10fcc0000000000000000000100100000000000023
:10fcd000000000000a0000000000000000006400b6
:10fce000000000000000000000e803000000000029
:10fcf0000000000010270000000000000000a0002d
:10fd00008601000000000000004042000f000000db
:10fd10000000000080969800000000000000000035
:10fd2000e1f50500000000000000ca009a3b000059
:10fd30000000000000e40b0054020000000000007e
:10fd4000e87648001700000000001000a5d4e80085
:10fd50000000000000a072004e1809000000000022
:10fd6000407a1000f35a000000008000c6a47e0014
:10fd70008d0300000000c1006ff286002300000028
:10fd8000008a5d00784563000100000064a7b300ad
:10fd9000b6e00d000000e80089042300c78a0000d7
:10fda000921000002a00000002000000286e75007a
:10fdb0006c6c2900003031003233340035363700a6
:10fdc000383941004243440045460000303132009a
:10fdd00033343500363738003961620063646500ba
:10fde00066000000080f0000600100000200000033
:10fdf0000000000000000000f03f00000000a00034
:10fe00009999b9003f0000000040e1007a843f006a
:10fe100000000000e04d6200503f00000000e000e4
:10fe2000e2361a003f0000000080b500f8e43e0012
:10fe300000000000a0f7c600b03e00000000a000d7
:10fe4000f2d77a003e00000000e08e0079453e00c7
:10fe500000000000e00b2e00113e00000000e0005a
:10fe6000df7cdb003d0000000000a1009cc73b00e0
:10fe700000000000004c4800b43900000000000001
:10fe8000206ca1003700000000000000000000000e
:10fe90000000000000000000000000000000000062
:10fea0000000000000000000000000000000000052
:10feb0000000000000000000000000000000000042
:10fec0000000000000000000000000000000000032
:10fed0000000000000000000000000000000000022
:10fee0000000f0003f00000000000000002440007f
:10fef0000000000000000000594000000000000069
:10ff000000408f00400000000000000088c3400057
:10ff10000000000000006a00f8400000000000003f
:10ff200080842e00410000000000d00012634100d8
:10ff3000000000000084d70097410000000000008e
:10ff400065cdcd004100000000205f00a00242000e
:10ff500000000000801daf001544000000004000bc
:10ff6000593e2900460000000000000000f07f001c
:10ff70000000000000000000f07f00000000000012
:10ff80000000f0007f0000000000000000f07f0093
:10ff90000000000000000000f07f000000000000f2
:10ffa0000000f0007f0000000000000000f07f0073
:10ffb0000000000000000000f07f000000000000d2
:10ffc0000000f0007f000000bc10000002000000f4
:10ffd00000000000be100000020000000000000051
:10ffe000c01000000200000000000000c21000006d
:10fff000020000000200000001000000c410000028
:020000040001f9
:0c000000020000000000000000000000f2
:020000040000fa
:020000040001f9
:10000c0091018800800078000000eb00150037009b
:10001c00e280400032a0b4009101ba00e2804000be
:10002c0032a0b4009102ba00e280400032a0b400c9
:10003c000002eb00472bde00f507b200602ce1005c
:10004c0004003a000059eb008301e900fdff3e007b
:10005c00040037006128e100010032000082eb004f
:10006c00040007001101ba000200e000e8ff3a00aa
:10007c00000006003159ba008301e9000c0032007f
:10008c002159ba008301e900080032000400e000a5
:10009c0003003a00e280400032a0b400f5ff3700c4
:1000ac0011d9ba008301e900faff3a008100e80097
:1000bc00e180400032a0b400000006006f1c21005b
:1000cc00007f220000018800000000000c000700e7
:1000dc0000bf270001002000c9ff0700000020001e
:1000ec000000e000020032000000020000000000ee
:1000fc0058270200000000000040da000000fe005b
:10010c004440a900e08220000000e000030032001f
:10011c0020002000a00188004440a8000000060038
:020000040000fa
:020000040001f9
:04012c000000fe00d1
:00000001FF
