:020000040000fa
:080000000002040000000000f2
:020000040000fa
:1000080078030000780300007803000078030000fc
:1000180078030000780300007803000078030000ec
:1000280078030000780300007803000078030000dc
:1000380078030000780300007803000078030000cc
:10004800e4730100780300007803000078030000df
:1000580078030000780300007803000078030000ac
:10006800780300007803000078030000780300009c
:10007800780300007803000078030000780300008c
:10008800780300007803000078030000780300007c
:10009800780300007803000078030000780300006c
:1000a800780300007803000078030000780300005c
:1000b800780300007803000078030000780300004c
:1000c800780300007803000078030000780300003c
:1000d800780300007803000078030000780300002c
:1000e800780300007803000078030000780300001c
:1000f800780300007803000078030000780300000c
:1001080078030000780300007803000078030000fb
:1001180078030000780300007803000078030000eb
:1001280078030000780300007803000078030000db
:1001380078030000780300007803000078030000cb
:1001480078030000780300007803000078030000bb
:1001580078030000780300007803000078030000ab
:10016800780300007803000078030000780300009b
:100178007803000078030000202e010078030000b7
:10018800780300007803000078030000780300007b
:10019800780300007803000078030000780300006b
:1001a800780300007803000078030000780300005b
:1001b800780300007803000078030000780300004b
:1001c800780300007803000078030000780300003b
:1001d800780300007803000078030000780300002b
:1001e800780300007803000078030000780300001b
:0801f800780300007803000009
:020000040000fa
:1002080078030000780300007803000078030000fa
:1002180078030000780300007803000078030000ea
:1002280078030000780300007803000078030000da
:1002380078030000780300007803000078030000ca
:10024800e4730100780300007803000078030000dd
:1002580078030000780300007803000078030000aa
:10026800780300007803000078030000780300009a
:10027800780300007803000078030000780300008a
:10028800780300007803000078030000780300007a
:10029800780300007803000078030000780300006a
:1002a800780300007803000078030000780300005a
:1002b800780300007803000078030000780300004a
:1002c800780300007803000078030000780300003a
:1002d800780300007803000078030000780300002a
:1002e800780300007803000078030000780300001a
:1002f800780300007803000078030000780300000a
:1003080078030000780300007803000078030000f9
:1003180078030000780300007803000078030000e9
:1003280078030000780300007803000078030000d9
:1003380078030000780300007803000078030000c9
:1003480078030000780300007803000078030000b9
:1003580078030000780300007803000078030000a9
:100368007803000078030000780300007803000099
:100378007803000078030000202e010078030000b5
:100388007803000078030000780300007803000079
:100398007803000078030000780300007803000069
:1003a8007803000078030000780300007803000059
:1003b8007803000078030000780300007803000049
:1003c8007803000078030000780300007803000039
:1003d8007803000078030000780300007803000029
:1003e8007803000078030000780300007803000019
:0803f800780300007803000007
:020000040000fa
:10040000af2923000eff27000e0188000000000026
:100410000c000700600a2e00110020000f000700ea
:10042000000020000000e000020032000000020096
:1004300000000000ba750200010000000040da0070
:100440000000fe00007324000000e0000200320003
:10045000002020009001880000000600a102880012
:10046000800078000000eb001a003700e2804000b6
:1004700054a0b4009101ba00e280400054a0b4003e
:100480009102ba00e280400054a0b4000002eb00e8
:10049000472bde00f507b200a6018800602ce100c2
:1004a00008003a000049eb000201e80002003900b0
:1004b0003420ec0002f0a0008301e900f9ff3e00c7
:1004c000040037006128e100010032000082eb00e7
:1004d000040007001101ba000200e000e3ff3a0047
:1004e0000000060004d0a300e20f49001c00390000
:1004f000810278003549ba000201e80002003900a3
:100500003420ec0002f0a0008301e9000f0032006b
:100510002549ba000201e800020039003420ec004d
:1005200002f0a0008301e900080032000400e000ae
:100530000600320015c9ba000201e80002003900c5
:100540003420ec0002f0a0008301e9008180e80083
:1005500054a0b4000300e000e2ff3a0000000600ef
:100560009102ba00055978008301e900f7ff3200d3
:10057000c82ade00055978008301e900f3ff320044
:100580000400e000f1ff320011d9ba00eeff37009d
:1005900076ca040001000000a2c9040001000000a6
:1005a00080c904000100000096c2040000000000a1
:1005b000f0bc04000000000024bd040000000000a6
:1005c0005ef304000100000002f3040001000000db
:1005d000e4f204000100000020e404000100000037
:1005e000cee3040001000000cee60400010000009c
:1005f000b2b604000100000032b5040001000000a2
:1006000070b4040001000000a4b504000100000063
:100610004ef004000100000010f004000100000092
:10062000f6ae04000100000094ae040001000000da
:10063000beb3040001000000d8b1040001000000b6
:100640003c6704000100000018670400010000007e
:10065000146f0400010000002e02040002000000dc
:10066000fa010400020000007ae704000100000023
:1006700016e7040001000000f2e60400010000009b
:100680004c9e040001000000ba9b04000100000021
:100690007ca104000100000004fb04000100000034
:1006a000d0fa04000100000010f604000100000070
:1006b000b6f5040001000000fedc040001000000ab
:1006c0005eda04000100000060db040001000000ad
:1006d00004ce04000100000016ce0400010000005a
:1006e000b295040001000000409b040001000000de
:1006f0000040da000000fe00800078001104b10024
:10070000030035009101b10001003c000050a00041
:1007100000000600800078001106b10003003500db
:100720009101b10001003c000050a1000000060052
:100730000081eb0036013700889fbe008a9fbe0013
:100740008c1f7800d7000700de00330003866c00a2
:100750006450e1002e0032006420e10033003200da
:100760006150e1002f0032006120e10031003200d1
:1007700085855500eb07b000090020000804200023
:10078000050037000804440089844c000a00310049
:100790000603430087834b000001530081815b0007
:1007a000f8ff33000203be000800a0000804440064
:1007b00089844c00f6ff3900c639dd0083017300df
:1007c00001003200130020008904d1000884d30006
:1007d0000998a300050032000800a7000300a0004c
:1007e0008904d1000884d3008b05e8008904d10076
:1007f0000884d3000001eb000281d2006e000700e4
:1008000001f0a1000cf0a70001f0a000b600370035
:100810006420e100b80032000801be000200be0002
:10082000f7ff37006120e100b30032006000b8003c
:10083000f3ff37000000200001f82700f0ff370029
:10084000839f68000100e00002003d00600010008e
:10085000e08018000300e00002003d00600111008c
:10086000e0811900550107004f00e00002003b0045
:1008700060001000e0801800000006000001be00cb
:10088000730007000470a70003f0a1006509b10020
:10089000160032000d0035006828e1000600350022
:1008a000f0ff2f00f1ff27000300e00013003b00e2
:1008b0000100280000000500000040008180480081
:1008c0008502e900fcff3a0008003700f88f42007b
:1008d00002003c008000eb00000005008100d10018
:1008e0000080d3008502e800fcff3a000300e0002e
:1008f00002003b0060001000e080180000000600cd
:10090000881f7800010478000100e00005003d0028
:1009100060001000e080180002003b0001f02c0095
:10092000030037000400070008f0a70001f0a00052
:100930004f04780000000600889fbe008a9fbe001a
:10094000010578000000e000180032000004be003d
:100950006011b8006b0920000982cf000200390045
:100960000882cf000441b000694252000e003200fc
:1009700008003b0082817100610164008904d1009c
:100980000884d3008b05e8000442e800f9ff3a0030
:10099000050037000804440089844c008b05e900f9
:1009a0000442e900fbff3a00030007004f05be00c8
:1009b0004f04be0000000600810020006180550049
:1009c0000b003d000b00200061fe2f000100e10044
:1009d0001d00340082817100610164008904d1002e
:1009e0000884d3000000e800faff3a0071002000fc
:1009f0006100640003007000020060000900320022
:100a000061044400e0844c000988a5000500320020
:100a10008b05e8006808e10002003a008904d10073
:100a20000884d300f20f20000258e10005003d00c9
:100a3000c75ddd00f907b200898075000800780005
:100a4000000006000bf827008b007800000005006e
:100a5000c70ade00f107b200f50fb200080032004d
:100a6000e1cf4200020032000170a0002400050026
:100a7000810f7000010032000408050044000500e9
:100a8000810f700002003a00140005008502e900a1
:100a90000000400081c04800fcff3b000170a00046
:100aa000240005000004be00e9ff07000003be00ab
:100ab0000405be000200be00e5ff0700844f75007c
:100ac000000006000200be006450e1000500360090
:100ad0006420e100020036000968a30001003a002a
:100ae0000800be000160a0004f0678004f05be0060
:100af0004f04be0000000600f0ff2f00f1ff2700aa
:100b0000f9ff3700811f78000100e00002003d007e
:100b100060001000e08018000300e00002003d00cb
:100b200060011100e0811900b40007004f00e000ef
:100b300002003b0060001000e0801800000006008a
:100b4000889fbe008a9fbe008c1f7800d5ff0700db
:100b5000dcff330003866c006450e10024003200a7
:100b60006420e100270032006150e10022003200e1
:100b70006120e100210032008b854200eb07b100cb
:100b80000134b800003ab8000804420089844a00e1
:100b9000013ab8000030b8008880400009014a00de
:100ba0000400330000004000818048000201490039
:100bb0008b05e900c909dd008301700001003200e6
:100bc00013002000c814de004814dd004709de00d1
:100bd0001200b200c808de000884700076ff07002b
:100be00001f0a1000cf0a70001f0a000beff37004b
:100bf0006120e100c0ff32000801be000200be001b
:100c0000f7ff37006150e100fcff3a00baff370000
:100c1000889fbe008a9fbe008c9fbe008205780020
:100c20000004be008aff07000800be006420e10047
:100c30000700390002003a00f1ff2700f0ff2f0003
:100c40000160a00012022000024088005500370019
:100c50006120e10003003a000b00a70001f8230027
:100c60005000370001f0a10002002100936424002d
:100c7000c90007000800be0004003500b2fd2000d6
:100c8000930c2400c60007000004be000005eb0022
:100c90000b00a6004f0dde0001f0a1000004be0015
:100ca00032982f0023ea2300a5ff07000001eb0084
:100cb00003f023000b00a70003f8230059000700ee
:100cc000eefe07000000a7000a00a2000cff0700cc
:100cd0000b00e000030032000200200003f02300bc
:100ce0004f00070001f0a2000006be000200200035
:100cf0009304240092ff07000801be00490007008a
:100d0000809fbe000c00be0022a22a00d3a72300b1
:100d10008bff07004f01be00420007000004be0029
:100d200001f0a10002002000039823009a000700b0
:100d30000800be00190035000001be0080ff07005a
:100d40000006be00b2c52900e36223007cff070055
:100d500022222b00f3942b00320007000c01be006e
:100d600077ff0700e273280083c023002d000700ef
:100d70000c01be0072ff070042aa2a00a3e22b006a
:100d8000280007000c01be006dff07000801be002f
:100d90006bff07000801be00220007000a00a70041
:100da00001f0a2004f06be004f05be004f04be007a
:100db000000006000001eb0095ff37006022b8003c
:100dc000060220000000d0008180d2000482d20000
:100dd0008582d2000000a0000202520083825a00e5
:100de000030031000202420083824a000000a10099
:100df0000603e900f3ff3a0000000600efff0700da
:100e00000400be0000000600020ab900001bb90081
:100e10000200b8008100420081004300000006008b
:100e200003f0a200889fbe008a9fbe008c1f78003e
:100e30001cff070023ff33006450e1004f00320025
:100e40006420e1005200320003826c0007003b0086
:100e50000905d0000306d000820f54000c065d0087
:100e60000200390002003200890178000306780090
:100e70008582550004003d000003fd008103fd0054
:100e80008502ea008b854200840f720002003b005d
:100e900060001000e08018006011b8000005eb0051
:100ea0007a28e1000a00390006007800c75ddd00fd
:100eb000f707b200878075002d003700828171002e
:100ec0000a017800610560008180d1000080d300b4
:100ed0008502e900f9ff3b000604400087844800d2
:100ee00002003b0060041400e0841c000988a30099
:100ef000070032008a817100828171006101640003
:100f00008904d1000884d3008b05e800170037005e
:100f10000978a30013003a000b00e000130034002e
:100f20008b05e9000804440089844c000a447400dd
:100f30000978a3000d003a000b00e0000700340020
:100f40008b05e9000804440089844c0001003a0044
:100f50000b0020000978a300f7ff32000001eb002e
:100f600002003700828171000a01780092fe0700ba
:100f70000cf0a70001f0a000dbfe37006420e100c8
:100f800002003a00838f6c00dbfe33000801be00d4
:100f90000200be00d4fe37001400200051003700cc
:100fa0000400200000003700889fbe008a9fbe001a
:100fb0008c1f78004f26dd00bafe0700c1fe33000b
:100fc0006120e100430032006250e10041003e0038
:100fd0003e0039006420e1003c00320005825500eb
:100fe0000f003b000402e80038003a00800f530075
:100ff000818f5b00350034000800be0003f0a100c3
:1010000001f0a60003f0a0000cf0a70085ff070088
:10101000b5fe37000603430087834b000c464600ad
:101020000005530081855b00020033000a03be0007
:101030000c00a0000402e900f6ff3b0085057800e3
:101040000602430087824b0004003a006000b800ab
:1010500009f0a70001f0a000a3fe37000002520033
:1010600081825a000704e0000400330006034300b5
:1010700087834b008b05e900faff370009057800ec
:101080000604be000203be006011b8004afe07005d
:10109000e00f5200e08f5a000700350002003c00cc
:1010a0000c08a300040032000601be0003f0a000fb
:1010b0000cf0a7005bff07000a85680001f0a100a3
:1010c0000af0a70001f0a00087fe37000800be006c
:1010d00085fe3700100220000cf0a60000408800ba
:1010e00085fe3700889fbe008a9fbe00841f78005f
:1010f0006cfe07004f00780011003300f0ff2f0056
:10110000838f6c0006003b00040565000a00a70001
:101110000800370009f0a600100020000800370082
:10112000820f5400838f5c00030039001000200000
:1011300001003e000000200009f0a7000000ea00c6
:101140004f05be004f04be000000e0000000060096
:10115000e8874700889fbe008a9fbe008c9fbe0024
:101160008e1f7800815d2200c22e8100e00f5100a9
:101170000b003a0064814000c22e8900122f8900c2
:10118000a1009800012f8900214190000204a000d5
:10119000a2409800614190000204a000e240980043
:1011a000670440004244de004244dd00002f81001d
:1011b0002e6e2200a92923008e84540026002000d0
:1011c000801f7800110009008604d8000003780011
:1011d0004f0078008880e800818240008001eb00a9
:1011e0006146b800d42923000e02520008024200d2
:1011f000010037000a007800a0409000e180600004
:10120000020032000a00370012087800100178004e
:10121000a2409000e1806000fbff320088004000a7
:10122000810f510002003900e00f540049003d00d9
:1012300010057800800f5500eeff3e008e0f550020
:1012400003003900815d2200810f5500e9ff39005c
:10125000112f8100810f50004f003a00805d220065
:10126000800f55004c003a008301e800e18f5100e7
:10127000e0ff3600860f540002003600890f54004c
:101280000d0039006148b900b2ff2f0003002000b3
:101290000000510081805900800f5600818f5e0050
:1012a00007003d00110009000982d8000980b9003b
:1012b00080057800030037008505780001003700bd
:1012c000880578000b00780084bf9f00e5b79f0079
:1012d000f6b79f00b70007000fba9700efb297006c
:1012e0007fb39700e10f40002b003200112f8100e7
:1012f00080087800112f8100e48140002141900096
:10130000830f5000020032000204a00001003700e9
:101310000204a100a2409800e48555008b0540001e
:101320000b0878001b2f8900815d2200810d780059
:10133000122f8100a24090000104a00021419800da
:10134000a04090000104a100214098008001eb0022
:10135000a8ff3700012f8900810f510007003600d8
:101360001101be00222f8900332f890090087800d8
:10137000022f81008000eb0021419800032f8100a3
:1013800003087800a04090000104a00021409800cc
:1013900064004000010037000000eb004f077800b8
:1013a0004f06be004f05be004f04be008f00b100c7
:1013b0000000060064005000002f8900a04090004b
:1013c0000104a1002140980000000600889fbe0093
:1013d0008a9fbe0080047800010478006481540074
:1013e0009205780069f997006101610002003200fe
:1013f00009007800efff07000800780054ff07009d
:1014000000047800e00f54001b003200890f5400e4
:101410001900320068bd97000805550042d5de006e
:10142000098055004280de000a017800800f5500d7
:1014300001003600000178004211dd000800be0006
:1014400011000700890f54000b0031004255dd00e8
:101450000a054400890f550007003600890455002d
:10146000c2ccde00c24cdd0089044400202f810084
:10147000312f8100808cbe00080078004f05be002f
:101480004f04be0000000600800178000200370013
:10149000b15978000201e900e00f5100fcff3a0069
:1014a00000000600800178000200370081597800b2
:1014b0000201e900e00f5100fcff3a0000000600c5
:1014c000f03589000000eb000036890010c0b30041
:1014d000c16b22008048780000000600c26b220029
:1014e0000040eb00924f100006003a001000200070
:1014f00001002000f03589000136890010c0b300da
:1015000000497800d2e62400631c2400f0358100f5
:10151000013681003cfe07009203230003002000f7
:101520000000410081804900f035890001368900c2
:101530000100780000f0a1000000060080017800a2
:101540003141780082597800e04f5100fcff3a00a9
:1015500000000600800078000041eb00b14f110050
:10156000fdff3a000080ea00008040000000060015
:1015700080017800060037000201e900b1427800de
:101580008559780003027800e0cf5200060032004f
:1015900003027800e00f5100f7ff3a000200370025
:1015a000005aeb000201e900e00f5100fcff3a0095
:1015b00000000600889fbe008a1f780000057800a2
:1015c00009378100e08f540005003a0009007800d7
:1015d0000f0007000084eb00890f50000800350061
:1015e00008378100e00f5500050032000a00440072
:1015f00007000700e00f500001003d000084eb00f1
:10160000080078004f0578004f04be000000060077
:10161000e00f500004003a00216e220001378900db
:1016200080007800060037008080eb00a2292300ac
:10163000820f500002003e00003789008000eb005e
:08164000010078000000060023
:020000040000fa
:101648000000000020000000280000001900000031
:10165800072c0000000000001645000000000000f4
:10166800169000000000000016db000000000000db
:10167800162600000100000016710000010000009d
:1016880016bc000001000000160700000200000060
:1016980016520000020000000000000000000000d8
:1016a80008080000080800000808000008080000f2
:1016b80008080000080800000800000000000000fa
:1016c8001c0c0000000000000000000000000000ea
:1016d8000000000000000000000000000000000002
:1016e80000000000000000000000000000200000d2
:1016f80000000000c0ff0000000000001000000013
:1017080000080000000000000600000000010000c2
:101718000000000000000000000000000040000081
:101728000000000020000000002000000000000071
:10173800200000000020000000000000c0ff0000a2
:10174800000000000e010000000000000000000082
:101758000000000000000000000000000000000081
:101768000000000000000000000000000000000071
:1017780000000000000000000000000000800000e1
:101788000300000000020000000000000600000046
:1017980000640000000000001c000000000e0000b3
:1017a80000e0000009000000001000000000000038
:1017b8001000000000240000008000007b000000f2
:1017c8004040000000600000000000002000000011
:1017d8000040000000000000c00000000080000081
:1017e8003f000000000000000000000000000000b2
:1017f80000000000000000000000000000000000e1
:1018080000000000000000000000000000000000d0
:1018180001000000000600000000000006000000b3
:1018280000620000001000001e000000e00300003d
:10183800000000000100000000010000008000001e
:1018480070000000808e000000800000030100008e
:10185800c00000000180000000010000000000003e
:10186800010000008001000000c00000000000002e
:1018780060000000801f0000000000000000000061
:101888000000000000000000000000000000000050
:101898000000000000000000000000000000000040
:1018a800000000000002000000000000040000002a
:1018b80000020000001000001e000000e007000009
:1018c80000000000e10100008080000007800000a7
:1018d80060000000402000000040000020000000e0
:1018e800202000000020000020000000103e000022
:1018f80000900000e100000080a00000010000004e
:1019080031010000001e000000000000000000007f
:1019180000000000000000000000000000000000bf
:1019280000000000000000000000000000000000af
:10193800000000000000000000000000000000009f
:1019480030000000002000000000000060ee0000f1
:10195800032000003000000010000000001000000c
:10196800000000001000000000100000000000004f
:1019780048000000002800000000000028020000c5
:1019880000380000020000001804000000100000e9
:10199800f803000010000000000000000000000034
:1019a800000000000000000000000000000000002f
:1019b800000000000000000000000000000000001f
:1019c800000000000000000000000000000000000f
:1019d800000000000000000000000000107000007f
:1019e80000200000c000000020400000002000008f
:1019f8004003000010f30000001000004c0000003d
:101a080010400000001000004000000008400000e6
:101a18000068000040000000284000000018000096
:101a28007c00000018c300000318000041060000f5
:101a3800107e00000400000000000000000000000c
:101a4800000000000000000000000000000000008e
:101a5800000000000000000000000000000000007e
:101a680000000000000000001000000040380000e6
:101a780000800000170000000018000000000000af
:101a88000800000000480000000000008401000079
:101a9800000400000100000002010000e0bf000097
:101aa80000100000c100000098c0000003480000ba
:101ab8004006000068200000081800001000000020
:101ac800000c0000000000000300000000000000ff
:101ad80000000000000000000000000000000000fe
:101ae80000000000000000000000000000000000ee
:101af80000000000000000000000000000010000dd
:101b080000000000060000000004000000000000c3
:101b180002000000000300000000000001000000b7
:101b2800800000000080000000000000400e00005f
:101b380000e0000019000000601000000430000000
:101b4800100400001008000002180000080200003d
:101b58000808000001080000d80000000820000064
:101b6800000000000000000000000000000000006d
:101b7800000000000000000000000000000000005d
:101b8800200000002400000019000000071c0000cd
:101b9800000000001635000000000000168000005c
:101ba8000000000016cb0000000000001616000020
:101bb800010000000000000000000000080800000c
:101bc80008080000080800000808000008080000cd
:101bd8000808000008000000000000001c0c0000bd
:101be80000000000000000000000000000000000ed
:101bf8000000000000000000008c00000110000040
:101c08008400000030840000001000008400000000
:101c18001084000004100000840c0000feff000087
:101c28001310000084000000108400000010000061
:101c380084000000108400000010000084000000f0
:101c48001084000000100000fc0000001084000058
:101c5800001000000000000010000000021000004a
:101c6800000c0000f0ff000003000000000000006e
:101c7800000000000000000000000000000000005c
:101c880000000000000000002000000000c000006c
:101c980018000000400800000020000008000000b4
:101ca8002004000000100000fc1f0000304200006b
:101cb80008680000420400002841000002240000d7
:101cc80041000000a2440000012200004c02000074
:101cd80020440000022000004604000020420000ca
:101ce80008200000410800002041000018a0000062
:101cf8004008000020400000002000003c000000d8
:101d0800303000000000000000000000000000006b
:101d1800000000000000000000000000002000009b
:101d2800000000006000000004200000fe0f00001a
:101d3800200000000620000000020000fe01000054
:101d480001100000c300000010c100000090000056
:101d5800400000009840000008880000fe1f0000b6
:101d68008840000000880000400000005840000043
:101d78000060000040000000e040000000a00000fb
:101d88004100000010410000000800004100000070
:101d9800067800000000000060000000000000005d
:101da800000000000000000000000000000000002b
:101db8000000000000000000001000000003000008
:101dc800f0ff0000021000000402000010040000f0
:101dd80002f00000ff0300001004000002100000e1
:101de80004020000f0ff00000310000016010000cc
:101df8000023000000800000c0000000c020000098
:101e080007300000411c00000c41000000020000e7
:101e180041000000804000000080000040000000f9
:101e28004040000000300000400000000c2000008e
:101e3800000000000000000000000000000000009a
:101e480000000000200000002b0000001900000026
:101e580004380000000000000551000000000000e8
:101e6800146a00000000000014b500000000000023
:101e78001400000001000000144b000001000000e5
:101e8800149600000100000014e1000001000000a9
:101e9800142c00000200000014770000020000006b
:101ea80014c2000002000000140d0000030000002e
:101eb800000000000000000000000000060600000e
:101ec80006060000060600000602000002020000e6
:101ed800000600000e0e00000000000000000000d8
:101ee80000000000000000000000000000000000ea
:101ef80000000000000000000000000000000000da
:101f0800000000000e0e00000e000000000000009f
:101f180000000000000000000000000000000000b9
:101f28000000000000000000000000000020000089
:101f380000000000c0010000001c000001000000bb
:101f480010010000f8130000010000001301000058
:101f580000110000018000001f0100008010000037
:101f68000140000010010000601000000120000086
:101f78001f010000101000000108000010010000ff
:101f88000410000001000000100100000010000013
:101f98000100000000010000000000000100000036
:101fa8000000000000000000000000000000000029
:101fb8000000000000000000000000000000000019
:101fc800000000000000000000e000000000000029
:101fd8008000000038800000002000008000000021
:101fe80020fc00000020000080000000208c000081
:101ff80000200000fb000000e0800000000000005e
:102008008000000000900000000000003800000080
:102018000044000000000000820000000082000070
:1020280000000000820000000044000000000000e2
:102038003800000000000000000000000000000060
:102048000000000000000000000000000000000088
:102058000000000000000000006000000000000018
:10206800c0000000008000000000000080000000a8
:10207800f8870000000000008200000000820000d5
:102088000000000081000000fcff000000100000bc
:102098008000000010800000001000008000000098
:1020a800108e000000f00000810000000080000099
:1020b8000000000080000000008000000000000018
:1020c8008000000000800000000000000000000008
:1020d80000000000000000000000000000000000f8
:1020e80000000000000000000000000000000000e8
:1020f80000000000007000000070000040000000b8
:102108004040000000c000007f0000004040000088
:1021180000400000400000004040000000c00000f7
:102128007f0000000000000000fe0000ff07000024
:10213800000400000000000004000000700400001b
:1021480000400000040000004000000000400000c3
:102158000000000080ff00000000000000000000f8
:102168000000000000000000000000000000000067
:102178000000000000000000000000000000000057
:102188000000000000600000000000008001000066
:10219800001c00000120000010010000c011000018
:1021a80001800000110100008010000001c0000043
:1021b80010010000c01e00000120000011010000f5
:1021c80010130000011000001201000008160000a2
:1021d80001040000100100000010000001000000d0
:1021e80010010000001000000100000010010000b4
:1021f80000000000010000000000000000000000d6
:1022080000000000000000000000000000000000c6
:1022180000000000000000000000000000000000b6
:1022280000e0000000000000800000008080000046
:1022380000e000008100000010820000000800009b
:10224800840000000884000000080000840e0000dc
:102258001082000001e00000810000000080000002
:102268000000000080000000e08000000080000006
:102278004000000080000000008000000000000016
:1022880000ff000001000000000000000000000046
:102298000000000000000000000000000000000036
:1022a8000000000000000000000000000000000026
:1022b8000000000000000000e000000000800000b6
:1022c80000000000800000008080000000c00000c6
:1022d8008100000030fe00000008000084000000bb
:1022e8000884000000080000840000000884000042
:1022f80000100000fa000000e0810000000000006b
:102308008000000000800000000000008000000045
:102318000080000000000000800000000080000035
:102328000000000080000000000000000000000025
:102338000000000000000000000000000000000095
:102348000000000000000000000000000000000085
:102358000000000002000000000f000000c00000a4
:1023680010000000202000000020000020000000d5
:10237800202000000040000010000000800f000036
:102388000000000000000000c07100000080000094
:102398006100000000210000000000002100000092
:1023a800fcff000007000000000000000000000023
:1023b8000000000000000000000000000000000015
:1023c8000000000000000000000000000000000005
:1023d80000000000000000000000000000000000f5
:1023e80000000000e00000008080000000e0000025
:1023f8008100000010820000000800008400000036
:102408000884000000080000840000000884000020
:102418000010000082000000e081000000000000c1
:10242800800000000080000000c000008100000063
:102438000081000000000000010000000001000011
:1024480000000000ff030000000000000000000082
:102458000000000000000000000000000000000074
:102468000000000000000000000000000000000064
:10247800000000002000000000c0000000e0000094
:1024880083000000008000000000000080000000c1
:10249800008c000000fc00009f000000808000000d
:1024a80000c0000081000000208600000f1000001e
:1024b8008400000010840000003000008600000046
:1024c800e0810000000000008000000000800000a3
:1024d80000000000800000000080000000000000f4
:1024e8008000000000000000000000000000000064
:1024f80000000000200000002c000000190000006f
:10250800053c000000000000045500000000000029
:102518000d6e00000000000012a000000000000086
:102528000beb0000000000000b1d00000100000084
:102538000b4f0000010000000c81000001000000aa
:102548000cb30000010000000be5000001000000d2
:1025580009170000020000000a49000002000000fc
:102568000a7b0000020000000000000000000000dc
:102578000000000000000000000000000000000053
:102588000000000000000000000000000000000043
:102598000000000000000000000000000000000033
:1025a8000000000000060000060600000606000005
:1025b800060600000202000002000000060e0000ed
:1025c8000e000000000000000000000000000000f5
:1025d80000000000000000000000000000000000f3
:1025e800e40100001c0300000c06000004060000c3
:1025f800040600000006000080030000f00100004f
:10260800000700000c0e00000e0e00000e0e000069
:10261800020e000004070000f8010000000000009e
:1026280000000000000000000000000000000000a2
:102638000000000000000000000000000000000092
:10264800000000000000000000000000003e000044
:10265800e003000038e0000000780000e00000001f
:1026680068d0000000680000d0000000e8d000003a
:1026780000c80000c8000000c8c8000000c800006a
:10268800c900000088c5000000880000c5000000df
:1026980008c7000000080000c30000001cc30000b9
:1026a800003e0000f20300000000000000000000ef
:1026b8000000000000000000000000000000000012
:1026c8000000000000000000000000000000000002
:1026d80000000000000000000000000000000000f2
:1026e80000000000000000000000000000f80000ea
:1026f80000860000018600000186000001f000004d
:10270800018c0000018600000183000001c6000062
:10271800053e00000300000000000000000000006b
:1027280000000000000000000000000000000000a1
:102738000000000000000000000000000000000091
:102748000000000000000000000000000000000081
:102758000000000000ff0000018c0000010c0000d8
:10276800018c0000017c0000008c0000030c0000bc
:10277800030c000003ff000001000000000000003f
:102788000000000000000000000000000000000041
:102798000000000000000000000000000000000031
:1027a8000000000000000000000000000000000021
:1027b800000000000000000000fc0000039800007a
:1027c80001880000018800000188000001880000dd
:1027d800018400000184000001ff000003030000e1
:1027e80003010000020100000200000000000000d8
:1027f80000000000000000000000000000000000d1
:1028080000000000000000000000000000000000c0
:1028180000000000000000000000000000ff0000b1
:102828000f0c0000038c000003cc0000036c0000b8
:10283800033c0000031c0000030c000003ff000021
:102848000f00000000000000000000000000000071
:102858000000000000000000000000000000000070
:1028680000000000000000000000000000980000c8
:102878000198000001f000000000000000000000c6
:1028880000ff00000f0c0000038c000003cc0000c8
:10289800036c0000033c0000031c0000030c000054
:1028a80003ff00000f00000000000000000000000f
:1028b8000000000000000000000000000000000010
:1028c8000000000000000000000000000000000000
:1028d80000000000000000000000000000000000f0
:1028e80000ef0000009c0000010c0000030c000039
:1028f800030c0000030c0000030c0000030c000094
:10290800039c000001ec0000000c0000000c00001b
:10291800000c0000001f0000000000000000000084
:10292800000000000000000000000000000000009f
:10293800000000000000000000000000000000008f
:102948000000000000f00000008c000001c400003e
:1029580001860000010600000006000000060000d5
:1029680000060000018c0000017800000000000053
:10297800000000000000000000000000000000004f
:10298800000000000000000000000000000000003f
:10299800000000000000000000000000000000002f
:1029a80000000000000000000000000000fe000021
:1029b8000133000003310000023100000230000042
:1029c80000300000003000000030000000fc000073
:1029d80000000000000000000000000000000000ef
:1029e80000000000000000000000000000000000df
:1029f80000000000000000000000000000000000cf
:102a080000000000000000000000000000000000be
:102a180000cf000003840000018c0000008c00003f
:102a2800004800000058000000300000003000009e
:102a3800003000000010000000130000000b000030
:102a48000007000000000000000000000000000077
:102a5800200000007e000000110000000384000038
:102a680001000000049500000100000006a6000017
:102a78000100000007b700000100000007c80000bf
:102a8800010000000ad90000010000000afb000054
:102a980001000000041d000002000000042e0000d8
:102aa80002000000043f0000020000000650000081
:102ab800020000000661000002000000037200002e
:102ac80002000000058300000200000003940000db
:102ad8000200000007a500000200000007b6000081
:102ae8000200000007c700000200000007d800002d
:102af8000200000007e900000200000007fa0000d9
:102b080002000000070b000003000000071c000083
:102b180003000000072d000003000000073e00002e
:102b280003000000074f00000300000003600000de
:102b3800030000000371000003000000068200008b
:102b480003000000069300000300000006a4000034
:102b58000300000006b50000030000000cc60000da
:102b68000300000008e800000300000008f9000066
:102b780003000000080a000004000000081b000011
:102b880004000000072c000004000000073d0000be
:102b980004000000084e000004000000095f000067
:102ba80004000000048100000400000005920000f9
:102bb8000400000008a300000400000007b400009f
:102bc800040000000bc500000400000009e7000035
:102bd800040000000809000005000000071a0000b2
:102be80005000000082b000005000000083c00005c
:102bf80005000000074d000005000000085e000009
:102c080005000000096f00000500000009910000a0
:102c1800050000000cb300000500000009d5000005
:102c28000500000008f70000050000000708000084
:102c3800060000000419000006000000072a000032
:102c480006000000043b000006000000074c0000de
:102c580006000000075d000006000000046e00008a
:102c680006000000067f0000060000000790000034
:102c78000600000006a100000600000007b20000e0
:102c88000600000006c300000600000005d400008e
:102c98000600000007e500000600000008f6000036
:102ca80006000000040700000700000004180000e8
:102cb800070000000729000007000000043a000090
:102cc800070000000b4b000007000000086d000023
:102cd80007000000077e000007000000078f0000c3
:102ce8000700000007a000000700000006b1000070
:102cf8000700000005c200000700000005d300001f
:102d08000700000007e400000700000007f50000c6
:102d1800070000000a06000008000000072800005d
:102d2800080000000739000008000000064a0000fb
:102d380008000000045b000008000000036c0000ad
:102d480008000000047d000008000000078e000055
:102d58000800000000000000000000000000000063
:102d6800000000000000000000000000000000005b
:102d7800000000000000000000000000060600003f
:102d8800020200000202000002020000020200002b
:102d98000000000000000000000000000012000019
:102da80012120000120000000000000000000000e5
:102db800000000000000000000000000000000000b
:102dc80000280000282800007e1400003e0a0000a9
:102dd8000a000000000000000000000000000000e1
:102de80000000000083c00002a0a00001c2800001f
:102df8002a2a00001c080000000000000000000053
:102e080000000000000000000000000000000000ba
:102e180000840000004a0000004a000000e60000ac
:102e280000300000012800000124000001c6000055
:102e3800000000000000000000000000000000008a
:102e48000000000000000000000000000038000042
:102e580000240000002400000014000000cc000042
:102e6800039a00000092000000a2000000c20000c7
:102e780000bc00000100000000000000000000008d
:102e88000000000000000000000000000202000036
:102e98000202000000000000000000000000000026
:102ea800000000000000000000000000080400000e
:102eb80002020000020200000202000002020000fa
:102ec80002040000080000000000000000020000ea
:102ed80004080000080800000808000008080000ae
:102ee80008040000040200000000000000000000c8
:102ef80008150000361c000027080000000000002c
:102f080000000000000000000000000000000000b9
:102f180000000000000000000000000004040000a1
:102f28001f04000004000000000000000000000072
:102f38000000000000000000000000000000000089
:102f48000000000000040000060400000200000069
:102f58000000000000000000000000000000000069
:102f6800000000000f00000000000000000000004a
:102f78000000000000000000000000000000000049
:102f88000000000000000000000200000200000035
:102f980000000000000000000020000020100000d9
:102fa80010100000080800000404000004020000db
:102fb8000201000000000000000000000000000006
:102fc8001c1200002222000022220000221400000d
:102fd8001c000000000000000000000000000000cd
:102fe800000800000e08000008080000080800009b
:102ff800083e000000000000000000000000000083
:103008000000000038240000222000001008000002
:10301800042400003e000000000000000000000042
:1030280000000000001c000012100000081e000034
:1030380020200000221c000000000000000000000a
:103048000000000000000000101800001414000028
:10305800121200003e1100003800000000000000bd
:103068000000000000000000000000003c04000018
:10307800041c000022200000221c000000000000a8
:10308800000000000000000000000000300c0000fc
:10309800040200001e220000222200001c00000082
:1030a8000000000000000000000000000000000018
:1030b8003e12000010100000080800000404000080
:1030c80000000000000000000000000000000000f8
:1030d8001c220000221600001c22000022220000f0
:1030e8001c000000000000000000000000000000bc
:1030f800001c000032220000222200003c100000c8
:10310800100e000000000000000000000000000099
:1031180000000000000000000202000000000000a3
:103128000002000002000000000000000000000093
:103138000000000000000000000200000200000083
:103148000000000004060000040200000000000067
:103158000000000000000000000000000030000037
:103168000e0700003800000000000000000000000a
:103178000000000000000000000000000000000047
:10318800003f0000003f00000000000000000000b9
:103198000000000000000000000000000000000027
:1031a800000300001c3800000700000000000000b9
:1031b8000000000000000000000000000c120000e9
:1031c80012100000080800000404000004040000b5
:1031d80000000000000000000000000000000000e7
:1031e8000000000000000000f00100000c030000d7
:1031f80002020000f10400008904000089040000b4
:103208008904000089020000f101000002000000aa
:103218000c030000f800000000000000000000009f
:10322800000000001018000018240000243c0000d2
:1032380042420000e700000000000000000000001b
:1032480000000000001f000022220000223e0000b3
:1032580062420000423f0000000000000000000041
:103268000000000000000000784400000202000096
:1032780002020000024400003800000000000000c4
:103288000000000000000000001f000022420000b3
:103298004242000042420000221f000000000000dd
:1032a8000000000000000000000000003f220000b5
:1032b800020200001e020000022200003f0000007f
:1032c800000000000000000000000000003f0000b7
:1032d80022020000021e0000020200000207000095
:1032e80000000000000000000000000000000000d6
:1032f800782600000101000001e1000041420000c1
:103308003c00000000000000000000000000000079
:10331800000000000000000000c70000018200005b
:10332800008200000082000000fe00000082000011
:10333800008200000082000000c7000001000000b9
:103348000000000000000000000000000000000075
:1033580000000000000e0000040400000404000047
:1033680004040000040e000000000000000000003b
:1033780000000000000000001c0800000808000011
:1033880008080000080800000808000004070000fa
:10339800000000000000000000e70000221200000a
:1033a8000a0e00001a12000022c7000000000000e8
:1033b80000000000000000000000000007020000fc
:1033c8000202000002020000022200003f0000008a
:1033d80000000000000000000000000000000000e5
:1033e800000000000007000007060000038a000034
:1033f800028a0000025a0000025200000252000035
:103408000222000002270000070000000000000060
:1034180000000000000000000000000000000000a4
:10342800000000000000000000c30000018600004a
:10343800008e0000008a00000092000000a2000038
:1034480000e2000000c20000008700000000000049
:103458000000000000000000000000000000000064
:1034680000000000001c0000224100004141000053
:1034780041410000221c0000000000000000000084
:1034880000000000000000001f22000022220000af
:10349800221e0000020200000700000000000000d9
:1034a8000000000000000000001c00002241000095
:1034b8004141000041410000221c0000b0c0000052
:1034c8000000000000000000000000003f42000073
:1034d800424200003e1a000032620000c7000000ad
:1034e800000000000000000000000000001c0000b8
:1034f800320200000418000020200000221e0000f4
:1035080000000000000000000000000000000000b3
:103518007f490000080800000808000008080000ab
:103528001c00000000000000000000000000000077
:10353800000000000000000000c700000182000039
:10354800008200000082000000820000008200006b
:103558000082000000460000003c0000000000005f
:103568000000000000000000000000000000000053
:1035780000000000000000000000000000c700007c
:10358800018600000044000000440000002c0000f8
:1035980000280000002800000010000000100000b3
:1035a8000000000000000000000000000000000013
:1035b8000000000000000000000000000000000003
:1035c800002700000e6200000262000002540000a2
:1035d8000294000002940000028c00000108000020
:1035e80001080000010000000000000000000000c9
:1035f80000000000000000000000000000000000c3
:103608000000000000e70000004600000024000061
:1036180000180000001000000038000000640000de
:103628000042000000e70000000000000000000069
:103638000000000000000000000000000000000082
:1036480000c70000442800002810000010100000e7
:10365800103800000000000000000000000000001a
:10366800000000007e220000101000000804000086
:10367800044200007f00000000000000000000007d
:10368800000e000002020000020200000202000018
:103698000202000002020000020e0000000000000a
:1036a8000000000001020000020400000404000001
:1036b8000808000010100000102000002000000082
:1036c80000000000000700000404000004040000db
:1036d80004040000040400000404000004070000bf
:1036e800000000000000000008080000141400009a
:1036f800122200002200000000000000000000006c
:1037080000000000000000000000000000000000b1
:1037180000000000000000000000000000000000a1
:10372800003f00000000000000000000000300004f
:10373800020400000000000000000000000000007b
:103748000000000000000000000000000000000071
:1037580000000000000000001c120000111e000004
:10376800123e000000000000000000000000000001
:103778000302000002020000021e000026220000d0
:10378800222200001c0000000000000000000000d1
:103798000000000000000000000000003c220000c3
:1037a80002020000221c00000000000000000000cf
:1037b800000000003020000020200000203c000015
:1037c80022220000222200007c00000000000000ed
:1037d80000000000000000000000000000000000e1
:1037e8001c2200003e020000221c00000000000015
:1037f800000000000000000018160000020200008f
:10380800020f000002020000020200000700000090
:1038180000000000000000000000000000000000a0
:10382800000000007e210000211e0000063a000072
:10383800414100003e0000000000000003020000bb
:1038480002020000027a00004642000042420000e4
:10385800e700000000000000000000000000000079
:103868000002000000000000030200000202000045
:103878000207000000000000000000000000000037
:103888000000000008000000000c0000080800000c
:1038980008080000080800000807000000000000f1
:1038a800000300000202000002020000320a0000c9
:1038b800060a000012770000000000000000000067
:1038c80000000000030200000202000002020000e3
:1038d80002020000020200000700000000000000d1
:1038e80000000000000000000000000000000000d0
:1038f80000000000000000000000000000bb000005
:1039080003660000022200000222000002220000da
:10391800027700000700000000000000000000001f
:10392800000000000000000000000000000000008f
:1039380000000000724f00004242000042e7000011
:10394800000000000000000000000000000000006f
:1039580000000000001c00002222000022220000bb
:103968001c00000000000000000000000000000033
:1039780000000000000000001b26000022220000ba
:10398800221e0000020200000700000000000000e4
:103998000000000000000000003c0000222200009f
:1039a800222200003c2000002070000000000000df
:1039b8000000000000000000000000001b160000ce
:1039c80002020000020700000000000000000000e2
:1039d80000000000000000000000000000060000d9
:1039e8000e060000080a00000e000000000000009b
:1039f80000000000000000000002000002020000b9
:103a08000f02000002020000020e00000000000089
:103a1800000000000000000000000000000000009e
:103a28000033000022220000222200007e00000055
:103a3800000000000000000000000000000000007e
:103a480000000000672200001414000008080000ad
:103a5800000000000000000000000000000000005e
:103a6800000000000000000000000000000000004e
:103a7800000000002703000032010000b20000002f
:103a8800cc000000cc000000c800000000000000ce
:103a9800000000000000000000000000000000001e
:103aa8000000000000000000007700001608000079
:103ab8001c22000077000000000000000000000049
:103ac8000000000000000000000000007722000055
:103ad8001414000008080000080400000300000097
:103ae800000000000000000000000000003e000090
:103af80012080000042200003e0000000000000040
:103b08000000000000080000040400000404000095
:103b1800040200000504000004040000040800007a
:103b28000000000000000000020200000202000085
:103b3800020200000202000002020000020200006d
:103b48000202000000000000000100000202000064
:103b580002020000020c0000020200000202000043
:103b6800020100000000000000000000000000004a
:103b780000000000000000006e3900000000000096
:103b8800000000000000000000000000000000002d
:103b9800200000007e0000001300000004840000e4
:103ba80001000000049700000100000007aa0000bf
:103bb8000100000008bd00000100000008d000005e
:103bc800010000000be30000010000000b090000e9
:103bd80002000000042f000002000000054200005f
:103be8000200000005550000020000000768000000
:103bf80002000000077b000002000000048e0000a5
:103c08000200000005a100000200000004b400004a
:103c18000200000008c700000200000008da0000e7
:103c28000200000008ed000002000000070000008c
:103c3800030000000813000003000000082600002d
:103c4800030000000839000003000000084c0000d1
:103c580003000000085f0000030000000772000076
:103c6800030000000885000003000000049800001d
:103c78000300000004ab00000300000007be0000c2
:103c88000300000007d100000300000007e4000063
:103c98000300000007f70000030000000d0a000001
:103ca800040000000a30000004000000095600006b
:103cb80004000000097c00000400000009a20000c4
:103cc8000400000008c800000400000008db000031
:103cd8000400000009ee0000040000000a140000bf
:103ce80005000000053a000005000000054d000031
:103cf80005000000096000000500000008860000bb
:103d0800050000000d990000050000000abf000032
:103d1800050000000ae5000005000000080b00008f
:103d2800060000000a1e000006000000094400000a
:103d380006000000086a000006000000097d000077
:103d4800060000000aa30000060000000ac90000df
:103d5800060000000eef0000060000000a15000033
:103d6800070000000a3b000007000000086100008f
:103d78000700000005740000070000000887000025
:103d880007000000059a00000700000008ad0000c9
:103d98000700000008c000000700000005d300006d
:103da8000700000007e600000700000008f900000f
:103db80007000000070c000008000000081f0000b2
:103dc8000800000007320000080000000745000056
:103dd800080000000758000008000000096b0000f8
:103de80008000000049100000800000004a400007e
:103df8000800000008b700000800000004ca00001e
:103e0800080000000cdd00000800000009030000a5
:103e1800090000000829000009000000083c000013
:103e280009000000084f00000900000006620000b9
:103e3800090000000675000009000000068800005f
:103e480009000000089b00000900000008ae0000ff
:103e5800090000000bc100000900000008e700008d
:103e68000900000008fa000009000000070d000022
:103e78000a000000042000000a00000004330000cb
:103e88000a000000044600000a000000085900006b
:103e98000a00000000000000000000000000000010
:103ea800000000000000000000000000000000000a
:103eb80000000000000000000000000000040000f6
:103ec80006060000040400000404000004040000c6
:103ed80000040000040000000000000000000000d2
:103ee800000000003616000016160000121200002e
:103ef80000000000000000000000000000000000ba
:103f08000000000000000000000000000050000059
:103f180048280000fc2400007e1400001212000053
:103f28000000000000000000000000000000000089
:103f3800000800003c2a00000a0e00001c3800009f
:103f4800484a00004a3c0000080000000000000049
:103f58000000000000000000000000000000000059
:103f6800000c0000039200000192000000520000c3
:103f7800002a000000ac00000150000002480000c8
:103f8800024c000002840000010000000000000054
:103f98000000000000000000000000000000000019
:103fa800000000000000000000380000004400008d
:103fb800004400000044000000340000009c0000a1
:103fc80007120000012200000162000001c2000087
:103fd800003c000007000000000000000000000096
:103fe80000000000000000000000000000060000c3
:103ff80006060000060200000200000000000000a3
:1040080000000000000000000000000000000000a8
:104018000008000004040000020200000202000080
:10402800020200000202000002040000040800006e
:104038000000000000000000020400000408000066
:104048000808000008080000080800000808000028
:10405800040400000200000000000000000000004e
:10406800082a00005c1c00002a080000000000006c
:104078000000000000000000000000000000000038
:104088000000000000000000000000000000000028
:10409800080800003e0800000800000000000000ba
:1040a8000000000000000000000000000000000008
:1040b80000000000000000000000000000000000f8
:1040c80006040000040200000000000000000000d8
:1040d80000000000000000000000000000000000d8
:1040e8001f000000000000000000000000000000a9
:1040f80000000000000000000000000000000000b8
:1041080000000000000000000000000002020000a3
:1041180000000000000000000000000040600000f7
:1041280020200000301000001018000008080000cf
:104138000404000004020000020300000000000064
:104148000000000000000000382400004242000087
:104158004242000042420000241800000000000013
:104168000000000000000000000000000010000037
:104178001c100000101000001010000010100000ab
:104188007c000000000000000000000000000000ab
:104198000000000038240000222000001008000061
:1041a80008040000223e000000000000000000009b
:1041b8000000000000000000003800002422000079
:1041c8001018000020400000404200003c000000a1
:1041d80000000000000000000000000000000000d7
:1041e8002030000028280000242200007e20000043
:1041f800207800000000000000000000000000001f
:1042080000000000002000003c020000021e000028
:1042180022200000202200001c00000000000000f6
:10422800000000000000000000000000300800004e
:10423800040200003e420000424200002438000010
:104248000000000000000000000000000000000066
:10425800000000007e220000201000001010000066
:104268000808000004000000000000000000000032
:1042780000000000000000001c22000022120000c4
:104288001c32000022220000221c00000000000056
:1042980000000000000000000000000000380000de
:1042a8006642000042420000467c000020100000e8
:1042b8000c000000000000000000000000000000ea
:1042c80000000000000000000202000000000000e2
:1042d80000000000020200000000000000000000d2
:1042e80000000000000000000000000000020000c4
:1042f80002000000000000000006000004040000a6
:1043080002000000000000000000000000000000a3
:1043180000000000006000001c0200001d6000009a
:104328000000000000000000000000000000000085
:10433800000000000000000000000000007e0000f7
:10434800017f0000000000000000000000000000e5
:104358000000000000000000000000000000000055
:10436800000300001c6000001c03000000000000a7
:10437800000000000000000000000000001c000019
:104388002222000020200000100800000808000079
:104398000008000008000000000000000000000005
:1043a8000000000000000000000000000000000005
:1043b800e00100001806000004040000c209000023
:1043c8003209000012090000120900001209000059
:1043d80012050000e40300000400000018060000b5
:1043e800f0010000000000000000000000000000d4
:1043f80000000000000000000000000010000000a5
:1044080030000000280000002800000068000000bc
:10441800440000007c000000c4000000820000008e
:10442800c7010000000000000000000000000000bc
:104438000000000000000000000000000000000074
:1044480000000000000000003e00000044000000e2
:1044580044000000440000007c000000c40000008c
:104468008400000084000000840000007e0000003a
:104478000000000000000000000000000000000034
:104488000000000000000000000000000000000024
:104498000000000078000000c400000002000000d6
:1044a80002000000020000000200000002000000fc
:1044b80002000000840000007800000000000000f6
:1044c80000000000000000000000000000000000e4
:1044d80000000000000000000000000000000000d4
:1044e8003e0000004400000084000000840000003a
:1044f80084000000840000008400000084000000a4
:10450800440000003e000000000000000000000021
:104518000000000000000000000000000000000093
:10452800000000007e440000040400003c04000079
:1045380004040000847e0000000000000000000069
:104548000000000000000000007e0000440400009d
:10455800043c000004040000040400000e000000f5
:104568000000000000000000000000000000000043
:104578000000000000000000f00000004c000000f7
:10458800020000000200000002000000e20100003a
:104598008200000082000000840000007800000013
:1045a8000000000000000000000000000000000003
:1045b80000000000000000000000000000000000f3
:1045c80000000000ce01000084000000840000000c
:1045d80084000000fc00000084000000840000004b
:1045e8008400000084000000ce01000000000000ec
:1045f80000000000000000000000000000000000b3
:1046080000000000000000000e0400000404000088
:104618000404000004040000040e00000000000070
:10462800000000000000000000000000001e000064
:104638000808000008080000080800000808000032
:10464800080800000403000000000000000000004b
:10465800000000000000000000000000ee01000063
:104668004400000024000000140000000c000000ba
:104678001c0000003400000024000000440000007a
:104688008e01000000000000000000000000000093
:104698000000000000000000000000000000000012
:1046a8000e040000040400000404000004040000d8
:1046b800847e0000000000000000000000000000f0
:1046c80000000000000000000000000000060000dc
:1046d8000e0c0000060c0000061c0000051400006b
:1046e8000594000004a400000462000004620000b5
:1046f800044f00000e000000000000000000000051
:1047080000000000000000000000000000000000a1
:10471800000000000000000000c60000018c00003e
:10472800008c0000009400000094000000a4000029
:1047380000a4000000c4000000c40000008e0000b7
:104748000000000000000000000000000000000061
:104758000000000000000000000000000000000051
:104768000000000000780000008400000002000043
:104778000102000001020000010200000102000025
:1047880001820000008400000078000000000000a2
:104798000000000000000000000000000000000011
:1047a8000000000000000000003e0000444400003b
:1047b800444400003c040000040400000e00000013
:1047c80000000000000000000000000000000000e1
:1047d80000000000000000007800000084000000d5
:1047e80002010000020100000201000002010000b5
:1047f8000201000082000000840000007800000030
:10480800c00200008003000000000000000000005b
:104818000000000000000000000000000000000090
:10482800000000003e0000004400000044000000ba
:10483800440000003c0000001400000024000000b8
:104848002400000044000000ce0100000000000029
:104858000000000000000000000000000000000050
:1048680000000000000000003c620000020600009a
:104878001c20000040420000423e000000000000f2
:104888000000000000000000000000000000000020
:104898000000000000fe0000019100000010000070
:1048a80000100000001000000010000000100000c0
:1048b8000010000000100000003800000000000098
:1048c80000000000000000000000000000000000e0
:1048d80000000000000000000000000000000000d0
:1048e80000ce000001840000008400000084000065
:1048f80000840000008400000084000000840000a0
:10490800004c0000007800000000000000000000db
:10491800000000000000000000000000000000008f
:10492800000000000000000000000000008f0000f0
:104938000304000001840000008c000000880000cf
:10494800004800000058000000500000003000003f
:10495800002000000000000000000000000000002f
:10496800000000000000000000000000000000003f
:104978000000000000000000004f00001c42000082
:1049880008c6000008a4000008a4000005240000d0
:10499800051c0000051800000718000002080000a8
:1049a80002000000000000000000000000000000fd
:1049b80000000000000000000000000000000000ef
:1049c8000000000000cf000001860000004c00003d
:1049d80000380000003000000030000000680000cf
:1049e80000c400000084000000cf000003000000a5
:1049f80000000000000000000000000000000000af
:104a0800000000000000000000000000000000009e
:104a180000c3000001440000004c00000028000012
:104a28000038000000100000001000000010000016
:104a38000010000000380000000000000000000026
:104a4800000000000000000000000000000000005e
:104a58000000000000fe00004221000030100000ad
:104a6800080c000084820000ff0000000000000025
:104a780000000000000e0000020200000202000018
:104a8800020200000202000002020000020200000e
:104a9800020200000e0000000000000003020000f7
:104aa80002040000040400000808000008100000c8
:104ab80010300000202000004040000000000000ee
:104ac800000e0000080800000808000008080000a0
:104ad800080800000808000008080000080800008e
:104ae8000e00000000000000001000001818000070
:104af8003424000022620000420000000000000090
:104b0800000000000000000000000000000000009d
:104b1800000000000000000000000000000000008d
:104b28000000000000000000007f000000000000fe
:104b38000000000000000000030400000400000062
:104b4800000000000000000000000000000000005d
:104b5800000000000000000000000000000000004d
:104b68000000000000380000262000003c22000061
:104b7800326e00000000000000000000000000008d
:104b88000003000002020000020200003a66000072
:104b980042420000422200001c0000000000000009
:104ba80000000000000000000000000000000000fd
:104bb800003800002602000002020000661c000007
:104bc800000000000000000000000000006000007d
:104bd800404000004040000078460000424200008b
:104be80042660000dc000000000000000000000039
:104bf800000000000000000000000000003c000071
:104c0800427e000002020000463c00000000000056
:104c180000000000000000000030000068040000f0
:104c2800040400001e040000040400000404000042
:104c38001e0000000000000000000000000000004e
:104c48000000000000000000007e0000212100009c
:104c5800231e0000021e000061410000611e0000ca
:104c68000000000000000000000600000004000032
:104c780000040000000400000004000000e400003c
:104c8800009c0000008400000084000000840000f4
:104c98000084000000ce00000100000000000000b9
:104ca80000000000000000000000000000000000fc
:104cb80000000000040400000000000006040000da
:104cc80004040000040400000e00000000000000be
:104cd80000000000000000000008000008000000bc
:104ce800000c000008080000080800000808000080
:104cf800080800000403000000000000000600008f
:104d08000404000004040000e42400001c14000053
:104d180034640000ce000000000000000000000025
:104d28000000000006040000040400000404000061
:104d38000404000004040000040e00000000000049
:104d4800000000000000000000000000000000005b
:104d5800000000000000000000000000000000004b
:104d68000076000007cc0000044400000444000062
:104d7800044400000444000004ee00000e0000009b
:104d8800000000000000000000000000000000001b
:104d9800000000000000000000000000000000000b
:104da80000000000000000000000000000e4000017
:104db800009e0000008400000084000000840000c1
:104dc8000084000000ce0000010000000000000088
:104dd80000000000000000000000000000000000cb
:104de800000000000000000000000000386600001d
:104df80042420000422600001c00000000000000a3
:104e0800000000000000000000000000000000009a
:104e1800003600004c44000044440000243c0000dc
:104e280004040000040e0000000000000000000060
:104e3800000000000000000078440000424200002a
:104e4800426600005c40000040400000e0000000b6
:104e58000000000000000000000000000036000014
:104e68002c04000004040000040e000000000000f0
:104e7800000000000000000000000000000000002a
:104e8800000000000c120000020c000012120000ca
:104e98000e000000000000000000000000000000fc
:104ea8000000000002020000021f000002020000d1
:104eb80002020000021e00000000000000000000c6
:104ec80000000000000000000000000000000000da
:104ed800634200004242000042620000dc00000021
:104ee80000000000000000000000000000000000ba
:104ef8000000000000e7000046240000241800001d
:104f08001818000000000000000000000000000069
:104f18000000000000000000000000000000000089
:104f280000000000000000000027000006620000ea
:104f3800026400000254000002940000018c00008a
:104f480001880000010000000000000000000000cf
:104f58000000000000000000000000000000000049
:104f68000000000000000000ef24000018180000f6
:104f780034620000e70000000000000000000000ac
:104f880000000000000000000000000000e7000032
:104f980046240000242c000018180000080800000f
:104fa80004030000000000000000000000000000f2
:104fb800000000003e22000010080000042200004b
:104fc8003e00000000000000000000000008000093
:104fd80004040000040400000404000003040000aa
:104fe800040400000404000004080000000000009d
:104ff800000000000202000002020000020200009d
:105008000202000002020000020200000202000088
:10501800020200000000000000010000020200007f
:1050280002020000020200000c020000020200005e
:105038000202000002010000000000000000000061
:10504800000000000000000000000000004c00000c
:105058003300000000000000000000000000000015
:1050680000000000270000002400000022000000cb
:105078002800000021000000280000002500000092
:1050880023000000260000002000000000000000af
:10509800220000002300000021000000240000007e
:1050a800200000000000000027000000230000008e
:1050b8002b0000002600000029000000210000004d
:1050c80026000000220000002a000000280000003e
:1050d800240000002500000020000000000000005f
:1050e8002200000026000000290000002400000023
:1050f800250000002a0000002b0000002500000009
:105108002c00000028000000200000002300000000
:1051180027000000290000002000000021000000f6
:105128000000000000000000248b000000000000c8
:10513800c28d000000000000248f00000000000065
:105148007c920000000000002a950000000000008a
:10515800ca9d000000000000068e0000000100004b
:105168000000000020960000000100000000000080
:105178003a9e0000000100000000000054a6000054
:1051880000010000000000006eae000000010000f9
:105198000000000074ba00000001000000000000d8
:1051a800feba00000001000000000000a4bb0000df
:1051b80000010000000000004abc000000010000df
:1051c800000000001c0000007e0000001b00000022
:1051d800109400000100000010ca00000100000047
:1051e8001100000002000000115100000200000040
:1051f80005a200000200000006bd00000200000039
:105208000ad80000020000000b0e00000300000096
:105218000b44000003000000107a000003000000a7
:1052280010b000000300000006e6000003000000c4
:105238000701000004000000071c00000400000033
:105248000a37000004000000096d00000400000097
:1052580005a300000400000008be000004000000d0
:1052680005d90000040000000bf400000400000051
:105278000b2a0000050000000b600000050000007c
:105288000b960000050000000bcc00000500000094
:105298000b020000060000000b38000006000000aa
:1052a8000b6e0000060000000ba4000006000000c2
:1052b8000bda0000060000000b10000007000000d9
:1052c8000546000007000000056100000700000017
:1052d8000a7c0000070000000ab200000700000076
:1052e8000ae80000070000000a1e0000080000008d
:1052f80013540000080000000ea50000080000007c
:105308000cdb0000080000000c1100000900000080
:105318000e470000090000000b7d00000900000096
:105328000bb30000090000000de9000009000000af
:105338000f1f00000a000000075500000a000000c7
:10534800077000000a0000000d8b00000a00000032
:105358000bc100000a00000013f700000a0000005b
:105368000f4800000b0000000e7e00000b0000003c
:105378000cb400000b0000000eea00000b00000057
:105388000d2000000c0000000b5600000c0000006f
:105398000d8c00000c0000000fc200000c00000083
:1053a8000ff800000c000000142e00000d00000093
:1053b8000e7f00000d0000000eb500000d0000007b
:1053c8000ceb00000d000000072100000e0000009b
:1053d8000b3c00000e000000087200000e000000e8
:1053e8000b8d00000e0000000bc300000e00000033
:1053f80007f900000e0000000b1400000f00000069
:105408000c4a00000f0000000a8000000f00000096
:105418000cb600000f0000000bec00000f000000ad
:1054280007220000100000000c3d000010000000e2
:105438000d7300001000000006a900001000000015
:1054480006c40000100000000cdf0000100000007f
:1054580006150000110000001430000011000000c3
:105468000d810000110000000cb7000011000000c1
:105478000ced0000110000000c23000012000000d9
:105488000959000012000000098f000012000000f6
:1054980008c50000120000000ce000001200000027
:1054a8000b16000013000000104c00001300000051
:1054b8000c820000130000000bb80000130000006d
:1054c8000aee000013000000082400001400000089
:1054d800053f000014000000085a000014000000f6
:1054e8000b75000014000000000000000000000020
:1054f800000000000030000000380000003c000000
:10550800003e0000003f0000803f0000c03f000058
:10551800e03f0000f03f0000f83f0000fc3f0000c3
:10552800f83f0000f03f0000e03f0000c03f0000ef
:10553800803f0000003f0000003e0000003c0000eb
:1055480000380000003000000000000000000000eb
:105558000000000000000000000000000000000043
:105568000c0000001c0000003c0000007c00000053
:10557800fc000000fc010000fc030000fc07000028
:10558800fc0f0000fc1f0000fc3f0000fc1f000097
:10559800fc0f0000fc070000fc030000fc010000f9
:1055a800fc0000007c0000003c0000001c00000023
:1055b8000c000000000000000000000000000000d7
:1055c80000000000000000000000000000000000d3
:1055d80000000000010000008003000000800000bf
:1055e800030000008003000000c000000700000066
:1055f800c007000000e000000f000000e00f0000fe
:1056080000e000000f000000f01f000000f00000a4
:105618001f000000f01f000000f800003f0000001d
:10562800f83f000000f800003f000000fc7f000089
:1056380000fc00007f000000fc7f000000fe00006e
:10564800ff000000feff000000fe0000ff00000059
:105658000000000000000000000000000000000042
:105668000000000000000000000000000000000032
:1056780000000000feff000000fe0000ff00000028
:10568800feff000000fc00007f000000fc7f00001f
:1056980000fc00007f000000f83f000000f8000058
:1056a8003f000000f83f000000f000001f0000006d
:1056b800f01f000000f000001f000000e00f0000d5
:1056c80000e000000f000000e00f000000c0000034
:1056d80007000000c0070000008000000300000071
:1056e80080030000008000000300000000010000ab
:1056f80000000000000000000000000000000000a2
:105708000000000000000000000000000000000091
:105718000000000000000000000000000000000081
:105728000000000000000000000000000000000071
:105738000000000000000000000000000000000061
:10574800080c00000c0c00000c0c00000c0c0000f5
:105758000c0c00000c0c0000040000000c0c0000f5
:105768000c00000000000000000000000000000025
:10577800000000000000000000000000cc00000055
:10578800cc000000cc000000cc000000cc000000e1
:10579800cc000000cc000000c400000000000000a5
:1057a80000000000000000000000000000000000f1
:1057b80000000000000000000000000000000000e1
:1057c80000000000000000000000000000000000d1
:1057d80000000000000000000000000000000000c1
:1057e80000000000000000000000000000000000b1
:1057f80000000000600200002003000020010000fb
:1058080020010000fc07000090010000900000004b
:1058180098000000fe030000480000004c00000053
:1058280044000000640000000000000000000000c8
:105838000000000000000000000000000000000060
:105848000000000000000000000000000000000050
:105858000000000000000000600000006000000080
:10586800f80100006c0300006601000066000000fb
:105878006e0000007c000000f8010000e00100005c
:10588800e003000060030000620300006203000000
:1058980066010000fc0000006000000060000000dd
:1058a80000000000000000000000000000000000f0
:1058b80000000000000000000000000000000000e0
:1058c8000000000000000000000000003830000068
:1058d80024180000660c000066040000660600003c
:1058e80066030000a40100009c380000c0640000aa
:1058f80060660000206600001066000018240000a2
:105908000c1c000000000000000000000000000067
:10591800000000000000000000000000000000007f
:10592800000000000000000000000000000000006f
:10593800e001000030030000180300001803000015
:10594800180100009801000078000000787e00002f
:105958007c1c0000cc180000c6190000861b000043
:10596800060f0000060e00000c1a0000f871000077
:10597800000000000000000000000000000000001f
:10598800000000000000000000000000000000000f
:10599800000c00000c0c00000c0c00000c0c0000ab
:1059a80004000000000000000000000000000000eb
:1059b80000000000000000000000000000000000df
:1059c800000000000060000030100000080c00001b
:1059d8000c0400000606000006060000060600008b
:1059e80006060000040c00000c0800001830000037
:1059f8006000000000000000000000000306000036
:105a08000c080000181800001030000030300000aa
:105a1800303000003030000030100000181800004e
:105a28000804000006030000000000000000000059
:105a380000000000003000000030000000220000dc
:105a480001ae0000037800000078000000ae0000fe
:105a580001220000013000000030000000000000ba
:105a6800000000000000000000000000000000002e
:105a7800000000000000000000000000000000001e
:105a8800000000000000000000000000000000000e
:105a980000000000000000000000000000000000fe
:105aa80000000000000000000000000000000000ee
:105ab80000000000000000000000000000000000de
:105ac80000300000003000000030000000fe000040
:105ad80001300000003000000030000000300000fd
:105ae80000000000000000000000000000000000ae
:105af800000000000000000000000000000000009e
:105b0800000000000000000000000000000000008d
:105b1800000000000000000000000000000000007d
:105b280000000000000000000e0f00000c0c000038
:105b38000402000000000000000000000000000057
:105b4800000000000000000000000000000000004d
:105b580000000000000000007e00000000000000bf
:105b6800000000000000000000000000000000002d
:105b7800000000000000000000000000000000001d
:105b8800000000000000000000000000000000000d
:105b9800000000000c0c00000c00000000000000d9
:105ba80000000000000000000000000000000000ed
:105bb8000002000000030000000100008001000056
:105bc8008001000080000000c0000000c00000004c
:105bd80060000000600000002000000030000000ad
:105be800300000001000000018000000180000003d
:105bf8000c0000000c00000004000000060000007b
:105c08000600000002000000000000000000000084
:105c1800000000000000000000000000000000007c
:105c2800000000000000000000000000f00000007c
:105c3800c80100008c010000840300000603000076
:105c48000603000006030000060300000603000028
:105c580006030000060100000c0100008c00000093
:105c680070000000000000000000000000000000bc
:105c7800000000000000000000000000000000001c
:105c8800000000000000000000000000000000000c
:105c98000000000000000000600000007800000024
:105ca8006400000060000000600000006000000068
:105cb800600000006000000060000000600000005c
:105cc800600000006000000060000000fc030000ad
:105cd80000000000000000000000000000000000bc
:105ce80000000000000000000000000000000000ac
:105cf800000000000000000000000000000000009c
:105d08000000000078000000c401000086010000c7
:105d18008201000080010000c0000000c0000000f7
:105d28006000000030000000300000001800000093
:105d38000c01000006010000fe0100000000000048
:105d4800000000000000000000000000000000004b
:105d5800000000000000000000000000000000003b
:105d6800000000000000000000000000000000002b
:105d7800f8000000cc01000086010000800100004e
:105d88008001000040000000f000000080010000d9
:105d980000030000000300000003000000030000ef
:105da80086010000780000000000000000000000ec
:105db80000000000000000000000000000000000db
:105dc80000000000000000000000000000000000cb
:105dd800000000000000000000000000c0000000fb
:105de800e0000000e0000000d0000000d800000043
:105df800c8000000c4000000c6000000c200000087
:105e0800ff030000c0000000c0000000c000000048
:105e1800f003000000000000000000000000000087
:105e2800000000000000000000000000000000006a
:105e3800000000000000000000000000000000005a
:105e4800000000000000000000010000fc0000004d
:105e58000400000004000000060000007e000000ae
:105e6800c2000000800100008001000080010000e5
:105e78008001000080000000c30000003c0000001a
:105e8800000000000000000000000000000000000a
:105e980000000000000000000000000000000000fa
:105ea80000000000000000000000000000000000ea
:105eb80000000000800100006000000018000000e1
:105ec800080000000c000000f60000008e01000031
:105ed8000603000006030000060300000603000096
:105ee8000c0100008c010000f00000000000000020
:105ef800000000000000000000000000000000009a
:105f08000000000000000000000000000000000089
:105f18000000000000000000000000000000000079
:105f280000000000fc030000020100000201000064
:105f38008001000080000000c00000004000000058
:105f48006000000020000000300000003000000069
:105f58001800000008000000000000000000000019
:105f68000000000000000000000000000000000029
:105f78000000000000000000000000000000000019
:105f8800000000000000000000000000f800000011
:105f9800cc01000086010000860100008e0100008f
:105fa800dc000000f0000000c80100008c030000c5
:105fb8000603000006030000060300008c01000031
:105fc8007800000000000000000000000000000051
:105fd80000000000000000000000000000000000b9
:105fe80000000000000000000000000000000000a9
:105ff8000000000000000000f00000008c0100001c
:1060080084010000060300000603000006030000e8
:10601800060300008c030000780300000001000064
:1060280080010000c0000000200000001c000000eb
:106038000000000000000000000000000000000058
:106048000000000000000000000000000000000048
:10605800000000000000000000000000000c00002c
:106068000c0c00000000000000000000000c000004
:106078000c0c000000000000000000000000000000
:106088000000000000000000000000000000000008
:10609800000000000c0c00000c00000000000000d4
:1060a800000000000e0f00000c0c000004020000ad
:1060b80000000000000000000000000000000000d8
:1060c80000000000000000000000000000000000c8
:1060d80000000000000000000000000000000000b8
:1060e80000010000e00100003c0000000600000084
:1060f8001c000000f000000080010000000000000b
:106108000000000000000000000000000000000087
:106118000000000000000000000000000000000077
:106128000000000000000000000000000000000067
:106138000000000000000000000000000000000057
:106148000000000000000000000000000000000047
:1061580000000000fe010000000000000000000038
:10616800fe01000000000000000000000000000028
:106178000000000000000000000000000000000017
:106188000000000000000000000000000000000007
:1061980000000000000000000000000000000000f7
:1061a80000000000000000000000000000000000e7
:1061b8000000000000000000060000003c00000095
:1061c800e001000080010000f00000001e00000057
:1061d80002000000000000000000000000000000b5
:1061e80000000000000000000000000000000000a7
:1061f8000000000000000000000000000000000097
:106208000000000000000000f8000000cc010000c1
:106218008601000086010000800100008001000066
:10622800c0000000600000006000000030000000b6
:1062380030000000300000001000000000000000e6
:1062480030000000300000003000000000000000b6
:106258000000000000000000000000000000000036
:106268000000000000000000000000000000000026
:106278000000000000000000000000000000000016
:1062880000000000000000003f000000c070000097
:1062980000300000c0000000188000000108000065
:1062a800800100000c970000038400001803000020
:1062b8004618000003660000180300006618000076
:1062c800036600001803000066180000016e000055
:1062d80098010000cc9c0000008c000073000000b6
:1062e800180000000038000080000000e0e0000016
:1062f800018000001f0000000000000000000000f6
:106308000000000000000000000000000000000085
:106318000000000000000000000000000000000075
:106328000040000000c0000000a0000000a0000025
:1063380001a000000110000001100000031000007f
:1063480003f8000003080000060800000604000027
:106358000c0400000c1f00001e00000000000000dc
:106368000000000000000000000000000000000025
:106378000000000000000000000000000000000015
:1063880000000000000000000000000000fe000007
:10639800008d0000030c0000030c0000030c00003b
:1063a800038c000001fc0000018c0000030c0000bd
:1063b800070c0000060c0000060c0000060c00008c
:1063c80003ff0000010000000000000000000000c2
:1063d80000000000000000000000000000000000b5
:1063e80000000000000000000000000000000000a5
:1063f800000000000000000000c00000073000009e
:106408000c080000000c000000040000000600005a
:10641800000600000006000000060000000600005c
:10642800000c0000000c00000838000004e0000028
:106438000300000000000000000000000000000051
:106448000000000000000000000000000000000044
:106458000000000000000000000000000000000034
:106468000000000000fe0000010d0000070c000005
:106478000e0c00000c0c0000180c0000180c00009a
:10648800180c0000180c0000180c0000180c000074
:106498000c0c00000e0c000007ff000001000000bb
:1064a80000000000000000000000000000000000e4
:1064b80000000000000000000000000000000000d4
:1064c80000000000000000000000000000000000c4
:1064d80000ff0000030c0000020c0000020c00008a
:1064e800000c0000000c000000fc0000018c000003
:1064f800000c0000000c0000000c0000000c000064
:10650800040c000006ff000003000000000000006b
:106518000000000000000000000000000000000073
:106528000000000000000000000000000000000063
:1065380000000000000000000000000000ff000054
:10654800030c0000020c0000020c0000000c00000c
:10655800000c000000fc0000018c0000000c000092
:10656800000c0000000c0000000c0000000c0000f3
:10657800003f0000000000000000000000000000d4
:106588000000000000000000000000000000000003
:1065980000000000000000000000000000000000f3
:1065a800000000000000000000e0000003100000f0
:1065b80006080000000c00000006000000060000ad
:1065c80000060000008600000f0600000606000016
:1065d800060c0000060c00000618000006f000007b
:1065e80001000000000000000000000000000000a2
:1065f8000000000000000000000000000000000093
:106608000000000000000000000000000000000082
:1066180000000000003f00007e0c0000180c000085
:10662800180c0000180c0000180c000018fc0000e2
:106638001f0c0000180c0000180c0000180c0000bb
:10664800180c0000180c0000183f00007e00000025
:106658000000000000000000000000000000000032
:106668000000000000000000000000000000000022
:1066780000000000003f00000c0c00000c0c0000a3
:106688000c0c00000c0c00000c0c00000c0c0000a2
:106698003f000000000000000000000000000000b3
:1066a8000000000000000000000000007e1800004c
:1066b8001818000018180000181800001818000012
:1066c800181800001818000018080000040300003b
:1066d80000000000000000000000000000000000b2
:1066e800000000000000000000000000003f000063
:1066f8000f0c0000020c0000018c0000004c000090
:10670800006c0000003c0000006c000000ec000081
:1067180000cc0000008c0000010c0000030c0000fd
:10672800063f00001c000000000000000000000000
:106738000000000000000000000000000000000051
:106748000000000000000000000000000000000041
:106758000000000000000000003f0000000c0000e6
:10676800000c0000000c0000000c0000000c0000f1
:10677800000c0000000c0000000c0000000c0000e1
:10678800000c0000000c0000040c000002ff0000d8
:1067980003000000000000000000000000000000ee
:1067a80000000000000000000000000000000000e1
:1067b80000000000000000000000000000000000d1
:1067c80000000000000000000000000000000000c1
:1067d800001e0000c00100001ce00000001c0000ba
:1067e800e00000003cf00000002c0000d000000099
:1067f8006cd00000006c0000c8000000ccc800008d
:1068080000cc0000cc0000008cc50000008c00000b
:10681800c70000000cc30000000c0000c30000000b
:106828001ee100000300000000000000000000005e
:106838000000000000000000000000000000000050
:106848000000000000000000000000000000000040
:106858000000000000000000000000000000000030
:1068680000000000000000000f7e00000c1800006f
:106878001c1800003c1800002c1800004c180000e0
:10688800cc1800008c1900000c1900000c1b00002b
:106898000c1e00000c1c00000c1c00003f1800001f
:1068a80000000000000000000000000000000000e0
:1068b80000000000000000000000000000000000d0
:1068c80000000000000000000000000000000000c0
:1068d80000000000e003000018060000080c00009b
:1068e8000c0c00000618000006180000061800002e
:1068f8000618000006180000061800000c0c00001e
:106908000c04000018020000f00100000000000064
:10691800000000000000000000000000000000006f
:10692800000000000000000000000000000000005f
:10693800000000000000000000000000000000004f
:10694800fe0100000d0300000c0600000c0600000c
:106958000c0600000c0600000c030000fc00000000
:106968000c0000000c0000000c0000000c000000ef
:106978000c0000003f0000000000000000000000c4
:1069880000000000000000000000000000000000ff
:1069980000000000000000000000000000000000ef
:1069a800000000000000000000000000e0030000fc
:1069b80018060000080c00000c0c00000618000067
:1069c8000618000006180000061800000618000047
:1069d800061800000c0c00000c0c00001806000043
:1069e800f00100000003000000060000003800006d
:1069f800000000000000000000000000000000008f
:106a0800000000000000000000000000000000007e
:106a18000000000000000000fe0100000d0300005f
:106a28000c0600000c0600000c0600000c03000019
:106a3800fc000000cc000000cc0000008c0100002d
:106a48000c0300000c0300000c0600003f1c0000b3
:106a5800000000000000000000000000000000002e
:106a6800000000000000000000000000000000001e
:106a7800000000000000000000000000000000000e
:106a880000000000f80000008c0100000600000073
:106a9800060000000e0000003c000000f8000000a6
:106aa800e001000080030000000300000203000072
:106ab80002010000860100007c00000000000000c8
:106ac80000000000000000000000000000000000be
:106ad80000000000000000000000000000000000ae
:106ae800000000000000000000000000000000009e
:106af800ff0f00006108000061080000600000004e
:106b080060000000600000006000000060000000fd
:106b180060000000600000006000000060000000ed
:106b280060000000f8010000000000000000000004
:106b3800000000000000000000000000000000004d
:106b4800000000000000000000000000000000003d
:106b58000000000000000000000000003f7e000070
:106b68000c1800000c1800000c1800000c1800008d
:106b78000c1800000c1800000c1800000c1800007d
:106b88000c1800000c180000180c00003806000053
:106b9800e00300000000000000000000000000000a
:106ba80000000000000000000000000000000000dd
:106bb80000000000000000000000000000000000cd
:106bc80000000000000000001f3c00000c1800003e
:106bd8000c08000018080000180c00001804000039
:106be80030060000300200002002000060030000b0
:106bf80060010000c0010000c0010000800000002a
:106c0800000000000000000000000000000000007c
:106c1800000000000000000000000000000000006c
:106c2800000000000000000000000000000000005c
:106c3800000000000000000000000000000000004c
:106c48001fc20000070c0000060100000c0600002f
:106c5800010c0000070100000c8d00000108000075
:106c68008d0000009889000000980000980000003e
:106c78009898000000d00000d0000000707000005c
:106c8800007000007000000070600000002000002c
:106c9800600000000000000000000000000000008c
:106ca80000000000000000000000000000000000dc
:106cb80000000000000000000000000000000000cc
:106cc80000000000000000000000000000000000bc
:106cd80000000000003f00001f0c00000c1800001e
:106ce800063800000330000001e0000001c0000089
:106cf80000c0000001a000000130000003180000df
:106d0800060800000e0c00000c1f00003e000000ea
:106d1800000000000000000000000000000000006b
:106d2800000000000000000000000000000000005b
:106d3800000000000000000000000000000000004b
:106d4800000700003e0c00000c18000004180000aa
:106d5800023000000360000001e0000001c00000f4
:106d680000c0000000c0000000c0000000c000001b
:106d780000c0000000f00000030000000000000058
:106d880000000000000000000000000000000000fb
:106d980000000000000000000000000000000000eb
:106da80000000000000000000000000000fc0000df
:106db80007040000030200000380000001c0000077
:106dc80000c00000006000000070000000300000fb
:106dd8000018000000180000000c00000406000065
:106de80004fe000007000000000000000000000092
:106df800000000000000000000000000000000008b
:106e080000000000003e0000060600000606000024
:106e1800060600000606000006060000060600003a
:106e2800060600000606000006060000060600002a
:106e38003e0000000000000000000000000000000c
:106e48000200000006000000060000000400000028
:106e58000c000000080000001800000018000000e6
:106e6800100000003000000030000000200000008a
:106e7800600000004000000040000000c00000006a
:106e88008000000080010000800100000001000077
:106e980000030000000200000000000000000000e5
:106ea80000000000000000003e300000303000000c
:106eb800303000003030000030300000303000004a
:106ec800303000003030000030300000303000003a
:106ed800303e00000000000000000000000000003c
:106ee80000000000002000000060000000700000aa
:106ef80000d0000000d800000088000000880000d2
:106f0800018c0000010400000304000003020000db
:106f18000300000000000000000000000000000066
:106f28000000000000000000000000000000000059
:106f38000000000000000000000000000000000049
:106f48000000000000000000000000000000000039
:106f58000000000000000000000000000000000029
:106f68000000000000000000000000000000000019
:106f78000000000000000000000000000000000009
:106f880000000000000000000000000000000000f9
:106f980000000000000000000000000000fe0000eb
:106fa80003000000000000000000000000000000d6
:106fb8000000000000000000030600000c080000ac
:106fc80010000000000000000000000000000000a9
:106fd80000000000000000000000000000000000a9
:106fe8000000000000000000000000000000000099
:106ff8000000000000000000000000000000000089
:107008000000000000000000000000000000000078
:10701800f00000008c0100008601000080010000e3
:10702800f00100008c0100008601000086010000cc
:10703800c6010000bc0700000000000000000000be
:107048000000000000000000000000000000000038
:107058000000000000000000000000000000000028
:107068000c0000000e0000000c0000000c000000e6
:107078000c0000000c0000000c000000cc01000017
:107088003c0300001c0700000c0600000c06000072
:107098000c0600000c0600000c0200001c01000099
:1070a800f0000000000000000000000000000000e8
:1070b80000000000000000000000000000000000c8
:1070c80000000000000000000000000000000000b8
:1070d80000000000000000000000000000000000a8
:1070e8000000000000000000e0010000180300009c
:1070f8000c0000000600000006000000060000006a
:10710800060000000c0000001c030000f000000056
:107118000000000000000000000000000000000067
:107128000000000000000000000000000000000057
:10713800000000000000000000030000c003000081
:10714800000300000003000000030000000300002b
:1071580000030000f003000088030000040300009f
:1071680006030000060300000603000006030000f3
:107178000e030000cc0b00003807000000000000e0
:1071880000000000000000000000000000000000f7
:1071980000000000000000000000000000000000e7
:1071a80000000000000000000000000000000000d7
:1071b80000000000000000000000000000000000c7
:1071c800f00000000803000004030000fe030000b4
:1071d8000600000006000000060000000c00000089
:1071e8001c030000f0000000000000000000000088
:1071f8000000000000000000000000000000000087
:1072080000000000000000000060000050180000ae
:107218000c0c00000c0c00007e0d00000c0c000093
:107228000c0c00000c0c00000c3f000000000000db
:107238000000000000000000000000000000000046
:107248000000000000000000000000000000000036
:107258000000000000000000000000000000000026
:1072680000f800000c8c0000030600000306000074
:1072780003060000038c000001f80000001800005d
:10728800001c000000f80000030600000e030000c8
:107298000c0300000c06000006fc000001000000c2
:1072a80000000000000000000000000000000000d6
:1072b800000c0000000f0000000c0000000c000093
:1072c800000c0000000c0000000c000000cc0000c6
:1072d800032c0000061c0000060c0000060c000031
:1072e800060c0000060c0000060c0000060c00004e
:1072f80006bf00001f0000000000000000000000a2
:107308000000000000000000000000000000000075
:107318000000000000000000000000000c0c00004d
:1073280000000000000c00000f0c00000c0c000016
:107338000c0c00000c0c00003f00000000000000d6
:107348000000000000000000000000000000000035
:10735800000c00000c000000000000000c0f0000f2
:107368000c0c00000c0c00000c0c00000c0c0000b5
:107378000c0c0000040200000100000000000000e6
:107388000000000000000000000c0000000f0000da
:10739800000c0000000c0000000c0000000c0000b5
:1073a800000c0000008c0000078c000001cc0000dd
:1073b800002c0000003c0000006c000000cc000025
:1073c800008c0000010c0000031f00000f000000eb
:1073d80000000000000000000000000000000000a5
:1073e8000000000000000000000000000000000095
:1073f8000c0f00000c0c00000c0c00000c0c000022
:107408000c0c00000c0c00000c0c00000c0c000014
:107418003f00000000000000000000000000000025
:107428000000000000000000000000000000000054
:107438000000000000000000000000000000000044
:107448000000000000000000000000000000000034
:107458000000000000000000000000008ee30000b3
:10746800016d0000160300001c0e0000030c000054
:10747800060300000c060000030c000006030000d1
:107488000c060000030c0000060300000c060000b8
:1074980003bf0000df0f0000000000000000000034
:1074a80000000000000000000000000000000000d4
:1074b80000000000000000000000000000000000c4
:1074c80000000000000000000000000000000000b4
:1074d80000000000000000000000000000000000a4
:1074e8000000000000000000008e0000036d000096
:1074f800061c0000060c0000060c0000060c00002c
:10750800060c0000060c0000060c000006bf000078
:107518001f00000000000000000000000000000044
:107528000000000000000000000000000000000053
:107538000000000000000000000000000000000043
:107548000000000000000000000000000000000033
:107558000000000000f000000088000003040000a4
:1075680003060000060600000606000006060000e6
:10757800060c0000021c000001f0000000000000e2
:1075880000000000000000000000000000000000f3
:1075980000000000000000000000000000000000e3
:1075a80000000000000000000000000000000000d3
:1075b80000000000000000000000000000000000c3
:1075c80000ce0000013d0000031c0000070c000075
:1075d800060c0000060c0000060c0000060c00005b
:1075e800021c000003ec0000000c0000000c00006e
:1075f800000c0000000c0000003f0000000000002c
:107608000000000000000000000000000000000072
:107618000000000000000000000000000000000062
:1076280000000000000000000000000000f0000062
:1076380002880000030c0000030600000306000097
:107648000306000003060000030e0000038c000080
:10765800037800000300000003000000030000009e
:107668000300000003c000000f000000000000003d
:107678000000000000000000000000000000000002
:1076880000000000000000000000000000000000f2
:10769800000000000000000000cc000001af000066
:1076a800019c0000001c0000000c0000000c000001
:1076b800000c0000000c0000000c0000003f00005f
:1076c80000000000000000000000000000000000b2
:1076d80000000000000000000000000000000000a2
:1076e8000000000000000000000000000000000092
:1076f8000000000000000000000000000000000082
:1077080000000000007c0000006600000006000089
:10771800000e0000003c000000f0000000c0000067
:1077280000c2000000c20000003e0000000000008f
:107738000000000000000000000000000000000041
:107748000000000000000000000000000000000031
:1077580000000000000800000c0c00000cfe0000f7
:107768000d0c00000c0c00000c0c00000c8c000030
:107778007800000000000000000000000000000089
:1077880000000000000000000000000000000000f1
:1077980000000000000000000000000000000000e1
:1077a80000000000000000000c030000ce030000f1
:1077b8000c0300000c0300000c0300000c03000085
:1077c8000c0300000c030000cc0b0000380700007d
:1077d80000000000000000000000000000000000a1
:1077e8000000000000000000000000000000000091
:1077f8000000000000000000000000000000000081
:107808000000000000000000000000000000000070
:10781800000000009f070000040200000c010000a7
:107828000c01000098010000980000009000000082
:107838007000000060000000200000000000000050
:107848000000000000000000000000000000000030
:107858000000000000000000000000000000000020
:107868000000000000000000000000000000000010
:107878000000000000000000000000000000000000
:107888001ff1000004410000842300008c23000045
:10789800882600004836000058140000301c0000fc
:1078a800301c00003008000000000000000000004c
:1078b80000000000000000000000000000000000c0
:1078c80000000000000000000000000000000000b0
:1078d80000000000000000000000000000000000a0
:1078e8000000000000000000000000009f070000ea
:1078f8000c01000098000000f0000000600000008b
:1079080070000000d000000088010000040300009f
:107918008f070000000000000000000000000000c9
:10792800000000000000000000000000000000004f
:10793800000000000000000000000000000000003f
:10794800000000000000000000000000000000002f
:1079580000000000000000009f0700000402000073
:107968000c0100000c0100009801000098000000c4
:10797800900000007000000060000000600000003f
:107988002000000030000000100000000f00000080
:1079980007000000000000000000000000000000d8
:1079a80000000000000000000000000000000000cf
:1079b80000000000000000000000000000000000bf
:1079c80000000000fe01000082010000c20000006b
:1079d80060000000200000003000000018000000d7
:1079e8000c01000004010000fe010000000000007e
:1079f800000000000000000000000000000000007f
:107a080000000000000000000000000040300000fe
:107a1800101800001818000038300000301000005e
:107a2800081e000030300000303000001818000038
:107a3800181800003040000000000000000000009e
:107a48000c0c00000c0c00000c0c00000c0c0000ce
:107a58000c0c00000c0c00000c0c00000c0c0000be
:107a68000c0c00000c0c00000c0c00000c0c0000ae
:107a78000000000000000000020c000018180000c0
:107a8800181800000c0c00000c0c00007810000006
:107a9800080c00000c1c0000181800001808000052
:107aa8000c020000000000000000000000000000c0
:107ab80000000000000000000000000000000000be
:107ac80000000000000000000000000000000000ae
:107ad8000000000000180000047c000002f2000012
:107ae80001c20000010000000000000000000000ca
:107af800000000000000000000000000000000007e
:107b0800000000000000000000000000000000006d
:107b1800000000000000000000000000e4a80000d1
:107b2800020000000000000000000000000000004b
:107b380002020000f2000000ce000000f401000084
:107b480002040000f2000000ce000000f401000072
:107b5800020000000000000000000000e803000030
:107b6800020200001800000003000000f4010000f9
:107b7800020400001800000003000000f4010000e7
:107b880002020000f2000000ce000000f401000034
:107b980002040000f2000000ce000000f401000022
:107ba80002020000f2000000ce000000204e00009b
:107bb80002040000f2000000ce000000f401000002
:107bc800020200000000000000000000f4010000b4
:107bd8000204000052000000ce000000f401000082
:107be800020200000000000000000000f401000094
:107bf80002040000a2000000ce000000f401000012
:107c0800020200000000000000000000f401000073
:107c18000204000052000000ce000000f401000041
:107c2800020200000000000000000000f401000053
:107c380002040000a2000000ce000000f4010000d1
:107c480002020000100000000c000000c800000044
:107c580002020000200000000c000000c800000024
:107c680002020000400000000c000000c8000000f4
:107c780002020000420000000c000000c8000000e2
:107c880002020000440000000c000000c8000000d0
:107c9800020200004c0000000c000000c8000000b8
:107ca80002020000560000000c000000c80000009e
:107cb800020200005a0000000c000000c80000008a
:107cc80002020000640000000c000000f401000043
:107cd80002020000780000000c000000c80000004c
:107ce800020200008c0000000c000000c800000028
:107cf80002020000960000000c000000c80000000e
:107d0800020200008c0000000c000000c800000007
:107d180002020000780000000c000000c80000000b
:107d280002020000640000000c000000c80000000f
:107d380002020000500000000c000000c800000013
:107d480002020000560000000c000000c8000000fd
:107d5800020200004c0000000c000000c8000000f7
:107d680002020000440000000c000000c8000000ef
:107d780002020000420000000c000000c8000000e1
:107d880002020000400000000c000000c8000000d3
:107d980002020000200000000c000000c8000000e3
:107da80002020000100000000c000000c8000000e3
:107db800020200007a0000000c000000c800000069
:107dc800020200007c0000000c000000c800000057
:107dd80002020000800000000c000000c800000043
:107de80002020000880000000c000000c80000002b
:107df80002020000980000000c000000c80000000b
:107e080002020000b80000000c000000c8000000da
:107e180002020000ba0000000c000000c8000000c8
:107e280002020000bc0000000c000000c8000000b6
:107e380002020000c40000000c000000c80000009e
:107e480002020000ce0000000c000000c800000084
:107e580002020000d20000000c000000c800000070
:107e680002020000f00000000c000000c800000042
:107e780002020000d20000000c000000c800000050
:107e880002020000ce0000000c000000c800000044
:107e980002020000c40000000c000000c80000003e
:107ea80002020000bc0000000c000000c800000036
:107eb80002020000ba0000000c000000c800000028
:107ec80002020000b80000000c000000c80000001a
:107ed80002020000980000000c000000c80000002a
:107ee80002020000880000000c000000c80000002a
:107ef80002020000800000000c000000c800000022
:107f0800020200007c0000000c000000c800000015
:107f1800020200007a0000000c000000c800000007
:107f280002020000f00000000c000000c800000081
:107f380002020000f50000004b000000f401000000
:107f480002040000f50000004b000000b80b000020
:107f5800020200006700000076000000f401000043
:107f6800020400006700000076000000d00700004f
:107f780002020000f500000076000000f401000095
:107f880002040000f500000076000000d0070000a1
:107f98000202000067000000a1000000f4010000d8
:107fa8000204000067000000a1000000b80b0000f8
:107fb80002020000f5000000a1000000f40100002a
:107fc80002040000f5000000a1000000d007000036
:107fd8000202000052000000ce000000f401000080
:107fe8000204000052000000ce000000e803000078
:107ff800020200000a0000000c000000c800000097
:10800800020200006700000076000000f401000092
:10801800020400006700000076000000e80300008a
:1080280002020000670000004b000000f40100009d
:1080380002040000670000004b000000e803000095
:1080480002020000a2000000ce000000f4010000bf
:1080580002040000a2000000ce000000e8030000b7
:108068000202000002000000ce000000f40100003f
:108078000204000002000000ce000000f40100002d
:1080880002020000f2000000ce000000f40100002f
:1080980002040000f2000000ce000000c80000004a
:1080a800020200007b00000003000000f401000051
:1080b800020400007b00000003000000c80000006c
:1080c800020000000000000000000000d0070000cf
:1080d80002020000f2000000ce000000d0070000fd
:1080e80002040000f2000000ce000000c8000000fa
:1080f80002020000f2000000ce000000d0070000dd
:1081080002040000f2000000ce000000c8000000d9
:1081180002020000a2000000ce000000d00700000c
:1081280002040000a2000000ce000000c800000009
:1081380002020000f2000000ce000000d00700009c
:1081480002040000f2000000ce000000c800000099
:1081580002020000f2000000ce000000d00700007c
:1081680002040000f2000000ce000000c800000079
:1081780002020000f2000000ce000000d00700005c
:1081880002040000f2000000ce000000c800000059
:108198000202000052000000ce000000d0070000dc
:1081a8000204000052000000ce000000c8000000d9
:1081b80002020000f2000000ce000000d00700001c
:1081c80002040000f2000000ce000000c800000019
:1081d80002020000f2000000ce000000d0070000fc
:1081e80002040000f2000000ce000000c8000000f9
:1081f80002020000f2000000ce000000d0070000dc
:1082080002040000f2000000ce000000c8000000d8
:1082180002020000f2000000ce000000d0070000bb
:1082280002040000f2000000ce000000c8000000b8
:108238000202000002000000ce000000f40100006d
:108248000204000002000000ce000000f40100005b
:1082580002020000de00000003000000f40100003c
:1082680002040000de00000003000000f40100002a
:10827800020000000000000000000000d00700001d
:1082880002020000f2000000ce000000d00700004b
:1082980002040000f2000000ce000000f40100001b
:1082a80002020000f2000000ce000000d00700002b
:1082b80002040000f2000000ce000000f4010000fb
:1082c80002020000a2000000ce000000d00700005b
:1082d80002040000a2000000ce000000f40100002b
:1082e80002020000f2000000ce000000d0070000eb
:1082f80002040000f2000000ce000000f4010000bb
:1083080002020000f2000000ce000000d0070000ca
:1083180002040000f2000000ce000000f40100009a
:1083280002020000f2000000ce000000d0070000aa
:1083380002040000f2000000ce000000f40100007a
:1083480002020000f2000000ce000000d00700008a
:1083580002040000f2000000ce000000f40100005a
:108368000202000002000000ce000000f40100003c
:108378000204000002000000ce000000f40100002a
:1083880002020000a2000000ce000000f40100007c
:1083980002040000a2000000ce000000f40100006a
:1083a800020200001800000068000000f40100004c
:1083b800020400001800000068000000f40100003a
:1083c800020000000000000000000000d0070000cc
:1083d8000202000052000000ce0000000a00000067
:1083e8000204000052000000ce000000f40100006a
:1083f8000202000052000000ce0000000a00000047
:108408000204000052000000ce000000f401000049
:108418000202000052000000ce0000000a00000026
:108428000204000052000000ce000000f401000029
:1084380002020000a2000000ce000000f4010000cb
:1084480002040000a2000000ce000000f4010000b9
:1084580002020000a2000000ce000000f4010000ab
:1084680002040000a2000000ce000000f401000099
:1084780002020000a2000000ce0000000a00000076
:10848800020000000000000000000000e8030000f7
:1084980002040000a2000000ce000000f401000069
:1084a80002020000f2000000ce0000000a000000f6
:1084b800020000000000000000000000d0070000db
:1084c80002040000f2000000ce000000f4010000e9
:1084d8000202000052000000ce0000000a00000066
:1084e8000204000052000000ce000000f401000069
:1084f8000202000002000000ce000000d0070000c9
:108508000204000002000000ce000000f401000098
:10851800020200007b00000003000000f4010000dc
:10852800020400007b00000003000000f4010000ca
:10853800020000000000000000000000d00700005a
:1085480002020000f2000000ce000000f40100006a
:1085580002040000f2000000ce000000f401000058
:10856800020000000000000000000000b80b00003e
:1085780002020000f2000000ce000000f40100003a
:1085880002040000f2000000ce000000f401000028
:10859800020000000000000000000000b80b00000e
:1085a80002020000f2000000ce000000f40100000a
:1085b80002040000f2000000ce000000f4010000f8
:1085c800020000000000000000000000b80b0000de
:1085d80002020000f2000000ce000000f4010000da
:1085e80002040000f2000000ce000000f4010000c8
:1085f800020000000000000000000000b80b0000ae
:1086080002020000f2000000ce000000f4010000a9
:1086180002040000f2000000ce000000f401000097
:10862800020000000000000000000000b80b00007d
:1086380002020000f2000000ce000000f401000079
:1086480002040000f2000000ce000000f401000067
:10865800020000000000000000000000b80b00004d
:1086680002020000f2000000ce000000f401000049
:1086780002040000f2000000ce000000f401000037
:10868800020000000000000000000000b80b00001d
:1086980002020000f2000000ce000000f401000019
:1086a80002040000f2000000ce000000f401000007
:1086b800020000000000000000000000d0070000d9
:1086c80002020000f2000000ce000000f4010000e9
:1086d80002040000f2000000ce000000f4010000d7
:1086e800020000000000000000000000b80b0000bd
:1086f8000202000002000000ce000000f4010000a9
:108708000204000002000000ce000000f401000096
:1087180002020000f2000000ce000000f401000098
:1087280002040000f2000000ce000000f401000086
:10873800020200001800000003000000f40100001d
:10874800020400001800000003000000f40100000b
:10875800020000000000000000000000b80b00004c
:108768000202000052000000ce000000f4010000e8
:108778000204000052000000ce000000f4010000d6
:1087880002020000a2000000ce000000f401000078
:1087980002040000a2000000ce000000f401000066
:1087a80002020000a2000000ce000000f401000058
:1087b80002040000a2000000ce000000f401000046
:1087c80002020000a2000000ce000000f401000038
:1087d80002040000a2000000ce000000f401000026
:1087e8000202000052000000ce000000f401000068
:1087f8000204000052000000ce000000f401000056
:1088080002020000f2000000ce000000f4010000a7
:1088180002040000f2000000ce000000f401000095
:1088280002020000f2000000ce000000f401000087
:1088380002040000f2000000ce000000f401000075
:108848000202000052000000ce000000f401000007
:108858000204000052000000ce000000f4010000f5
:108868000202000052000000ce000000f4010000e7
:108878000204000052000000ce000000f4010000d5
:1088880002020000f2000000ce000000f401000027
:1088980002040000f2000000ce000000f401000015
:1088a80002020000f2000000ce000000f401000007
:1088b80002040000f2000000ce000000f4010000f5
:1088c80002020000f2000000ce000000f4010000e7
:1088d80002040000f2000000ce000000f4010000d5
:1088e80002020000f2000000ce000000f4010000c7
:1088f80002040000f2000000ce000000f4010000b5
:108908000202000052000000ce000000f401000046
:108918000204000052000000ce000000f401000034
:1089280002020000f2000000ce000000f401000086
:1089380002040000f2000000ce000000f401000074
:1089480002020000f2000000ce000000f401000066
:1089580002040000f2000000ce000000f401000054
:108968000202000052000000ce000000f4010000e6
:108978000204000052000000ce000000f4010000d4
:10898800020000000000000000000000d007000006
:108998000202000002000000ce000000f401000006
:1089a8000204000002000000ce000000f4010000f4
:1089b800cc550000ff000000ff0000000000000090
:1089c8004e00000065000000770000000000000075
:1089d80045000000780000006900000074000000f5
:1089e8000000000053000000630000006100000068
:1089f8006c0000006500000000000000530000004b
:108a08006500000074000000000000001c00000069
:108a1800000000001d000000000000001e00000013
:108a2800000000001f0000000000000052000000cd
:108a3800500000004d00000000000000450000004c
:108a480078000000740000000000000045000000ed
:108a58004300000047000000000000004c00000038
:108a68006100000062000000650000006c0000006a
:108a7800000000004e0000006f00000069000000c8
:108a880073000000650000000000000043000000c3
:108a98006c00000065000000610000006e0000002e
:108aa80000000000480000006500000061000000b0
:108ab8007200000074000000200000005200000056
:108ac8006100000074000000650000000000000064
:108ad800410000006d000000700000006c00000004
:108ae80069000000740000007500000064000000c8
:108af80065000000000000006d0000005600000046
:108b08000000000042000000650000006100000055
:108b18007400000073000000000000004300000023
:108b28006c00000065000000610000007200000099
:108b38000000000044000000650000006d00000017
:108b48006f000000000000004f00000062000000fd
:108b58006a00000065000000630000007400000067
:108b6800200000006e0000006f000000740000008c
:108b78002000000063000000720000006500000093
:108b8800610000007400000065000000640000003f
:108b980000000000020000000300000006000000c2
:108ba8000001000001000000550000005300000013
:108bb8004200000020000000450000007200000094
:108bc800720000006f00000072000000000000004a
:108bd8006e0000006f00000074000000200000001c
:108be80073000000750000007000000070000000b5
:108bf8006f000000720000007400000065000000b3
:108c08006400000021000000000000004600000091
:108c180061000000690000006c00000065000000b1
:108c2800640000000000000048000000550000003b
:108c38004200000000000000440000006500000041
:108c48007600000069000000630000006500000075
:108c580000000000450000006e00000075000000e4
:108c68006d00000065000000720000006100000057
:108c780074000000690000006f0000006e00000032
:108c880000000000430000006c00000069000000c4
:108c9800650000006e000000740000002000000065
:108ca800490000006e000000690000007400000028
:108cb80069000000610000006c000000690000000d
:108cc8007a000000610000007400000069000000e4
:108cd8006f0000006e000000000000004f00000060
:108ce8007500000074000000200000006f00000004
:108cf80066000000200000004d0000006500000034
:108d08006d0000006f000000720000007900000094
:108d180000000000550000006e0000007300000015
:108d2800700000006500000063000000690000009a
:108d38006600000069000000650000006400000093
:108d480000000000540000006f00000075000000e3
:108d580063000000680000002000000074000000ac
:108d68006f0000002000000070000000720000008a
:108d78006f0000006300000065000000650000004f
:108d88006400000000000000760000006900000098
:108d980061000000200000005500000041000000b4
:108da80052000000540000002e0000002e000000b9
:108db8002e000000000000004e0000006f000000c0
:108dc800770000002000000077000000610000002c
:108dd8006900000074000000690000006e000000d7
:108de8006700000020000000660000006f0000001f
:108df8007200000020000000640000006100000014
:108e08007400000061000000000000005000000035
:108e1800720000006f000000670000007200000090
:108e2800610000006d0000006d000000650000009a
:108e38007200000022000000200000007500000001
:108e480074000000690000006c0000006900000068
:108e580074000000790000000000000022000000fb
:108e68004500000078000000740000006500000064
:108e7800720000006e000000610000006c0000003d
:108e8800200000004d000000650000006d0000009b
:108e98006f00000072000000790000000000000070
:108ea800500000006c000000650000006100000038
:108eb800730000006500000020000000730000003f
:108ec800650000006e000000640000002000000043
:108ed80064000000610000007400000061000000f0
:108ee8002000000075000000730000006900000009
:108ef8006e00000067000000000000004500000050
:108f08007800000074000000650000007200000096
:108f18006e000000610000006c00000020000000ee
:108f2800640000006100000074000000610000009f
:108f380020000000690000006e00000076000000bc
:108f4800610000006c00000069000000640000007f
:108f58002e00000000000000500000007200000019
:108f68006f00000067000000720000006100000050
:108f78006d0000002000000045000000780000009f
:108f88007400000065000000720000006e00000020
:108f9800610000006c000000200000004400000098
:108fa8006100000074000000610000000000000083
:108fb80057000000650000006c000000630000001e
:108fc8006f0000006d000000650000002100000037
:108fd8000000000070000000720000006f00000038
:108fe8006d00000070000000740000002000000008
:108ff80061000000700000007000000065000000c3
:109008006100000072000000730000002e000000e4
:1090180000000000750000006e00000074000000f1
:10902800690000006c0000002000000074000000cf
:1090380068000000650000002000000063000000d8
:10904800610000006c000000690000006200000080
:109058007200000061000000740000006900000058
:109068006f0000006e0000000000000070000000ab
:10907800720000006500000073000000730000002b
:10908800690000006e00000067000000200000007a
:109098006f0000006e000000200000007400000057
:1090a8006800000065000000200000007300000058
:1090b8006300000072000000650000006500000009
:1090c800650000006e000000000000007200000053
:1090d80065000000730000006500000074000000d7
:1090e8002000000074000000680000006500000017
:1090f80020000000620000006f0000006100000016
:1091080072000000640000002000000077000000ea
:1091180068000000690000006c00000065000000a5
:1091280000000000540000006f0000002000000054
:1091380052000000450000005000000045000000fb
:1091480041000000540000002000000063000000ff
:10915800610000006c00000069000000620000006f
:109168007200000061000000740000006900000047
:109178006f0000006e0000002c00000000000000de
:10918800630000006f0000006e0000007400000023
:10919800690000006e000000750000006500000016
:1091a8002e00000000000000540000006f000000c6
:1091b8007500000063000000680000002000000047
:1091c80073000000630000007200000065000000ea
:1091d800650000006e000000200000007400000020
:1091e8006f00000000000000730000006300000032
:1091f8007200000065000000650000006e000000bd
:109208002000000063000000610000006c00000006
:1092180069000000620000007200000061000000a8
:1092280074000000690000006f0000006e0000007c
:109238002e00000000000000500000006500000043
:1092480072000000660000006f000000720000005d
:109258006d000000690000006e000000670000005b
:1092680020000000740000006f000000750000007e
:109278006300000068000000000000004d000000ce
:109288006f0000006e000000640000006100000034
:109298007900000000000000540000007500000084
:1092a8006500000073000000640000006100000019
:1092b8007900000000000000570000006500000071
:1092c800640000006e0000006500000073000000ec
:1092d8006400000061000000790000000000000048
:1092e80054000000680000007500000072000000d3
:1092f80073000000640000006100000079000000b5
:109308000000000046000000720000006900000034
:1093180064000000610000007900000020000000e7
:109328002000000000000000530000006100000061
:109338007400000075000000720000006400000066
:1093480061000000790000000000000053000000e8
:10935800750000006e00000064000000610000005d
:1093680079000000000000004a00000061000000d1
:109378006e0000007500000061000000720000002f
:1093880079000000200000000000000046000000f6
:109398006500000062000000720000007500000017
:1093a8006100000072000000790000000000000069
:1093b8004d00000061000000720000006300000022
:1093c800680000000000000041000000700000007c
:1093d80072000000690000006c000000000000003e
:1093e8004d0000006100000079000000000000004e
:1093f8004a000000750000006e00000065000000d3
:10940800000000004a000000750000006c00000029
:109418007900000000000000410000007500000015
:109428006700000075000000730000007400000071
:1094380000000000530000006500000070000000fc
:1094480074000000650000006d000000620000006c
:109458006500000072000000000000004f000000de
:1094680063000000740000006f000000620000004c
:109478006500000072000000000000004e000000bf
:109488006f00000076000000650000006d0000001d
:10949800620000006500000072000000000000008b
:1094a8004400000065000000630000006500000043
:1094b8006d000000620000006500000072000000fe
:1094c800000000002a0000002a2e00006a70000038
:1094d800670000002a2e0000626d00007000000086
:1094e80072620000002a00002e2a0000000000001e
:1094f800490000004d000000410000004700000046
:109508004500000020000000440000004900000061
:1095180053000000500000004c0000004100000013
:109528005900000020000000440000004500000031
:109538004d0000004f000000000000004400000043
:109548006500000074000000650000006300000072
:1095580074000000690000006e0000006700000051
:1095680020000000550000005300000042000000e9
:1095780000000000540000006800000075000000b2
:109588006d000000620000002000000044000000a0
:10959800720000006900000076000000650000000d
:1095a80000000000500000006c0000006500000092
:1095b800610000007300000065000000200000004a
:1095c80057000000610000006900000074000000fe
:1095d8002e0000002e0000002e00000000000000f9
:1095e8001e000000000000001f0000000000000036
:1095f800530000006c0000006900000064000000d7
:1096080065000000200000007300000068000000f2
:109618006f00000077000000000000004e0000000e
:109628006f000000200000004400000072000000ed
:1096380069000000760000006500000020000000be
:109648004400000065000000740000006500000090
:109658006300000074000000650000006400000062
:1096680000000000450000007800000069000000cc
:1096780074000000690000006e0000006700000030
:1096880000000000550000006e000000730000009c
:109698007500000070000000700000006f000000fe
:1096a8007200000074000000650000006400000003
:1096b80000000000490000006d000000610000008b
:1096c8006700000065000000000000004600000080
:1096d8006f000000720000006d00000061000000d3
:1096e80074000000000000001d0200000d020000d0
:1096f8001c02000015020000050200001402000010
:109708005502000045020000540200005d020000fe
:109718004d0200005c020000140100005501000029
:109728000501000044010000420000006100000043
:1097380072000000000000005000000069000000f6
:109748006500000000000000330000004400000035
:10975800000000004c0000006500000067000000e9
:10976800650000006e0000006400000000000000ba
:1097780056000000610000006c0000007500000049
:109788006500000000000000440000006f000000b9
:109798006e0000007500000074000000000000006a
:1097a8002500000000000000280000000000000064
:1097b80029000000000000002c000000000000004c
:1097c80020000000000000005300000069000000b5
:1097d8006e000000670000006c00000065000000db
:1097e800000000004d000000750000006c00000043
:1097f800740000006900000000000000560000002e
:10980800610000007200000031000000000000004c
:1098180056000000610000007200000032000000e5
:109828000000000056000000610000007200000007
:109838003300000000000000560000006100000036
:109848007200000034000000000000005600000014
:1098580061000000720000003500000000000000f8
:109868004300000061000000740000006500000073
:10987800670000006f00000072000000790000001f
:109888000000000056000000610000006c000000ad
:109898007500000065000000730000000000000073
:1098a8006800000068000000680000006800000010
:1098b80068000000690000006800000068000000ff
:1098c80068000000670000006700000066000000f4
:1098d80066000000680000006800000068000000e2
:1098e80067000000660000006600000066000000d7
:1098f80066000000650000006500000065000000cb
:1099080065000000650000006500000064000000bc
:1099180063000000630000006300000064000000b2
:10992800640000006500000065000000640000009d
:10993800640000006400000064000000650000008e
:109948006600000066000000620000006100000080
:109958006000000059000000550000004a000000a7
:1099680049000000470000004700000048000000d0
:109978004a0000004f00000053000000560000009d
:109988005c0000005d000000600000006100000055
:109998006200000064000000640000006400000031
:1099a8006500000066000000670000006800000015
:1099b80068000000690000007000000070000000ee
:1099c80055000000300000000400000028000000de
:1099d8005d0000006c0000006900000069000000e4
:1099e80069000000690000006800000067000000ce
:1099f8006500000063000000610000005e000000d8
:109a08005e000000620000006400000066000000c4
:109a18006700000068000000680000006a0000009d
:109a2800000100000001000000010000000100002a
:109a3800ff000000ff000000ff000000fe00000023
:109a4800fe000000fd000000fc000000fb0000001c
:109a5800fa000000f9000000f8000000f70000001c
:109a6800f6000000f5000000f3000000f20000001e
:109a7800f1000000ef000000ed000000ec00000025
:109a8800ea000000e8000000e6000000e400000032
:109a9800e2000000e0000000de000000db00000043
:109aa800d9000000d7000000d4000000d200000058
:109ab800cf000000cc000000ca000000c700000072
:109ac800c4000000c1000000be000000bb00000090
:109ad800b8000000b5000000b2000000af000000b0
:109ae800ab000000a8000000a5000000a1000000d5
:109af8009e0000009a0000009600000093000000fd
:109b08008f0000008b000000880000008400000027
:109b1800800000007c000000780000007400000055
:109b2800700000006c000000680000006400000085
:109b3800600000005c0000005800000053000000b6
:109b48004f0000004b0000004700000042000000ea
:109b58003e0000003a00000035000000310000001f
:109b68002c00000028000000240000001f00000056
:109b78001b00000016000000120000000d0000008d
:109b88000900000004000000000000004c00000074
:109b98006900000067000000680000007400000011
:109ba800690000006e00000067000000000000006f
:109bb8004c000000610000006e000000670000001b
:109bc80075000000610000006700000065000000eb
:109bd8000000000047000000610000006d00000068
:109be8006500000000000000410000006e00000059
:109bf800690000006d0000006100000074000000b2
:109c0800690000006f0000006e0000000000000006
:109c180044000000720000006100000077000000ae
:109c2800690000006e0000006700000000000000ee
:109c3800450000006300000067000000000000000d
:109c4800430000006c0000006f000000630000008b
:109c58006b000000000000004500000078000000d4
:109c68007400000065000000720000006e00000033
:109c7800610000006c0000002000000046000000a9
:109c88006c00000061000000730000006800000024
:109c980000000000470000007200000061000000a2
:109ca8007000000068000000200000004400000070
:109cb800650000006d0000006f000000000000005b
:109cc8005400000068000000750000006d000000ee
:109cd8006200000020000000440000007200000044
:109ce8006900000076000000650000000000000028
:109cf800010000000000000000000000000000005b
:109d08000100000000000000500a000000000000f0
:109d18000100000000000000a01400000000000086
:109d28000100000000000000f01e0000000000001c
:109d380001000000000000004029000000000000b1
:109d48000100000000000000903300000000000047
:109d58000100000000000000e03d000000000000dd
:109d68000100000000000000304800000000000072
:109d78000100000000000000805200000000000008
:109d880001000000000000007096000000000000c4
:109d98000100000000000000c0a00000000000005a
:109da800010000000000000010ab000000000000ef
:109db800010000000000000060b500000000000085
:109dc8000100000000000000b0bf0000000000001b
:109dd800010000000000000000ca000000000000b0
:109de800010000000000000050d400000000000046
:109df8000100000000000000a0de000000000000dc
:109e08000100000000000000f0e800000000000071
:109e18000100000000000000003400000100000004
:109e28000100000000000000903800000100000060
:109e38000100000000000000e03c000001000000fc
:109e48000100000000000000704100000100000057
:109e5800590000006f00000075000000200000009d
:109e68004300000072000000610000007300000061
:109e78006800000065000000640000002100000088
:109e880000000000590000006f000000750000008d
:109e98002000000061000000720000006500000062
:109ea8002000000066000000750000006c00000043
:109eb8006c0000007900000020000000670000002e
:109ec800720000006f000000770000006e000000c4
:109ed8002100000000000000590000006f00000091
:109ee8007500000020000000610000007200000002
:109ef8006500000020000000690000006e000000fe
:109f08002000000061000000200000006b0000003d
:109f18006e0000006f0000007400000021000000c7
:109f2800000000005800000000000000470000008a
:109f3800610000006d0000006500000020000000c6
:109f48004f0000007600000065000000720000006d
:109f5800210000000000000048000000650000002b
:109f68006c0000006c0000006f0000002000000082
:109f7800570000006f000000720000006c00000035
:109f88006400000021000000000000004200000002
:109f98006f0000006e0000006a0000006f00000003
:109fa8007500000072000000200000004d00000055
:109fb8006f0000006e0000006400000065000000f3
:109fc80021000000000000004800000061000000bf
:109fd8006c0000006c0000006f0000002000000012
:109fe80057000000650000006c00000074000000cd
:109ff800210000000000000043000000690000008c
:10a00800610000006f000000200000004d0000000b
:10a018006f0000006e000000640000006f00000088
:10a02800210000000000000048000000650000005a
:10a038006c0000006c0000006f00000020000000b1
:10a048005700000065000000720000006500000075
:10a058006c00000064000000210000000000000007
:10a0680000950000000000000000000001f9000059
:10a078000000000000000000088700000400000045
:10a088000000000009af000000000000010000000f
:10a098000a1b000000000000010000000cc30000c3
:10a0a80001000000000000000daf000002000000e9
:10a0b8000000000010ff0000000000000000000089
:10a0c80011ff0000000000000100000012ff000066
:10a0d800000000000100000018ff00000000000060
:10a0e8000100000019ff000000000000010000004e
:10a0f80020ff0000000000000000000021ff000019
:10a10800000000000000000026df00000100000041
:10a11800000000003773000000000000000000008d
:10a128003a25000004000000000000003b25000064
:10a13800000000000000000029ff000004000000eb
:10a148000000000017ff00000000000000000000f1
:10a158003100000000000000320000000000000094
:10a168004600000061000000640000006500000077
:10a1780000000000440000006500000074000000ba
:10a188006500000063000000740000006900000022
:10a198006e0000006700000020000000480000007a
:10a1a80049000000440000002000000044000000b6
:10a1b80065000000760000006900000063000000f0
:10a1c80065000000000000004e0000006f00000065
:10a1d8002000000048000000490000004400000082
:10a1e8002000000044000000650000007600000028
:10a1f8006900000063000000650000002000000006
:10a2080044000000650000007400000065000000c4
:10a218006300000074000000650000006400000096
:10a228000000000014f1000050000000720000005f
:10a2380065000000730000007300000020000000ab
:10a248002600000020000000520000006500000009
:10a258006c00000065000000610000007300000051
:10a2680065000000000000006300000069000000b5
:10a2780072000000630000006c0000006500000030
:10a28800000000006f0000006e00000020000000c9
:10a298007400000068000000650000002000000055
:10a2a80066000000690000006c0000006c000000ff
:10a2b80065000000640000000000000000010000cc
:10a2c8000810000009020000030a0000111800002d
:10a2d80020190000120b0000040500000c130000f8
:10a2e8001a21000028300000292200001b14000059
:10a2f8000d060000070e0000151c0000232a0000b0
:10a3080031380000393200002b2400001d160000ef
:10a318000f1700001e2500002c3300003a3b0000f8
:10a32800342d0000261f0000272e0000353c0000b9
:10a338003d3600002f3700003e3f000000040000bb
:10a3480020240000000000000808000000080000a9
:10a35800000800002e2e000000000000f70f00008b
:10a3680000000000f7ff000000000000f7ff0000f9
:10a37800ff0f0000ffff000000000000ffff0000cb
:10a3880000000000ffff0000ff0f0000f80f0000b2
:10a3980000000000f8ff000000000000f8ff0000c7
:10a3a800ff0f0000ffff000000000000ffff00009b
:10a3b80000000000ffff0000ff0f00001f0000006a
:10a3c80000f80000e0070000e0ff0000c9fd000001
:10a3d800100000000080000000040000f0ff0000f2
:10a3e80060fc00001f84000010fc0000f0870000e3
:10a3f800f2ff000040fe0000a0fe00000000000088
:10a408000100000003000000070000000f0000002a
:10a418001f0000003f0000007f000000ff00000058
:10a42800ff010000ff030000ff070000ff0f00000e
:10a438001f1c00001f1e00001f1e00001f1f000021
:10a448001e1f00001e1f000000030000030600007e
:10a4580001040000060200000500000003050000da
:10a46800b02a00003ed70000e9000000ffff00000e
:10a47800bbf70000ddae00003e2600009fb60000de
:10a488007ed7000090bd0000000000004afd0000db
:10a498000101000000000000a2ff0000010100000f
:020000040000fa
:10a4a800881f780000047800984078000180fb003d
:10a4b800184190004811dd00000171006000b800eb
:10a4c800acce020001000000e14f50000200320053
:10a4d80080c0b30079003700984078000180fb0005
:10a4e80098409000c808dd008080700061f99300f2
:10a4f80050c5b300804f51003b003a0071f99300fa
:10a50800a0cab300804f510037003a006171900033
:10a5180060c4b300804f510017003a007171900079
:10a5280065405000804f510013003a0001799000b7
:10a5380073404000804f51000f003a00117990009d
:10a5480010c3b300804f51000b003a0061619000c6
:10a5580068405000804f510007003a000040eb006f
:10a568002044980030449800404498005044980093
:10a5780021c0b3001a00370021d1900060c4b30095
:10a58800804f510018003a0031d1900065405000ca
:10a59800804f510014003a0041d1900073404000b0
:10a5a800804f510010003a0051d1900030c3b300e1
:10a5b800804f51000c003a0021c190006a405000c1
:10a5c800804f510008003a000040eb0020449800fa
:10a5d80030449800404498005044980031c0b3007b
:10a5e800216498003700370061f9930050c5b30023
:10a5f800804f510004003a0071f99300a0cab300db
:10a60800804f51000200320040c0b3002b003700d9
:10a6180061c093000080fb0071c193004811dd0008
:10a628000001710081c993008381fb0011c8930068
:10a638004800dd0003007000224498004811de0045
:10a6480032449800404498004800de005044980086
:10a6580021c19300ee4f510017003e000201fb009c
:10a66800130020000219dd000105240081006100ab
:10a6780009003a000080210000006100810f5000ad
:10a6880009003a0062016100800f51000a0032009f
:10a69800236498000b00370020c0b30020649800a2
:10a6a8000040eb000700370030c0b300206498007a
:10a6b800014078000300370050c0b300c1042200f5
:10a6c800804878004f04780000000600a00a900037
:10a6d8000002eb0050099000030020000201720004
:10a6e800838172000200be0000000600889fbe0041
:10a6f80035318000333180000320b2002706a800de
:10a708002726a800243180002131800029318000cb
:10a71800203180000510b200010032002706a80091
:10a72800e08f5100010032002726a8006f01620067
:10a7380074014100040fb2004422de006a22b9000d
:10a74800040241004922dd0002002100028160006c
:10a7580001003200a200200008f02000888160007b
:10a76800c819de000301410001037800060fb2009a
:10a778004433de006a33b900ef8060008680400011
:10a78800810072004511dd0082807000010289009d
:10a79800310289001102890009017800020fb20014
:10a7a8004411de006a11b900ef846400028144009c
:10a7b800cb14dd004c02de006a22b90008046000f8
:10a7c8004844de00040244004524dd00000178000e
:10a7d800020fb2004411de006a11b9006f00600078
:10a7e80002014000e1006100d003220001003200b4
:10a7f80041c6b300014878000200d100008174000e
:10a8080008027100f4018900240289004f04be0087
:10a8180000000600c10422008048eb00700190008f
:10a82800800890000200780000000600c0042200a2
:10a83800104078000080fb00000006006303200041
:10a848000001eb00617079000201e8008301e90072
:10a85800fcff3a000000060060c078000000060017
:10a8680001014000124190004811dd00e0c078006d
:10a878008180fb0001007100000006000200fa0060
:10a88800889fbe000004be000800be00f4ff070059
:10a89800000178008980e80008007800d2bf9f0096
:10a8a800efff0700800278000002eb005fb9970015
:10a8b8000300200002017200838172000200be00c2
:10a8c8004f04be000080fa0000000600f28747002f
:10a8d800889fbe008a9fbe008c9fbe008e1f780096
:10a8e800800578009b4078000180fb001b419000a8
:10a8f8004811dd0000017100ab4090008180fb0031
:10a908003b4090004800dd0001007000cb41900002
:10a918008381fb00db409000c808dd008380700065
:10a92800acce02000100000081c0b300e14f50002e
:10a9380064013a001b4178000280fb009b409000b4
:10a94800c808dd00808370008001eb00d3b79f004a
:10a9580003027800c4b79f00070578000400370099
:10a9680010002000d0b79f0011002000c1b79f0041
:10a978006af8930031c0b30052c5b300824f50004b
:10a98800dc003a007af89300a3cab300834f500062
:10a99800d8003a001b4278000480fb009b409000de
:10a9a800c808dd008080700081bf9f00e1002000a2
:10a9b8000fb89700aaff07008fb89700d1489000fa
:10a9c800a1e79f00916598006101b800a2b79f00b8
:10a9d800b3b79f00ab4090008180fb00bb41900063
:10a9e800c819dd0001827100cb4090008180fb0016
:10a9f800db419000c819dd00818271002fb09700fb
:10aa0800bfb097000006420081864a00ec459800d6
:10aa1800c860de00f14598008d4d9800c868de00da
:10aa2800914d98008fb89700015790008e65980057
:10aa3800610120000fb8970089ff07000003780024
:10aa480007002000c65d9800c831de00d35d98007d
:10aa58008001eb00e35d9800f35d9800e00f530080
:10aa6800e08f5b000a003a00410220000fb897000f
:10aa780082ff070080017800c35d9800c819de00d6
:10aa8800d35d9800e15d9800c808de00f15d98008c
:10aa98000e80fb0001002000cb5990008381fb0051
:10aaa8005b5a90004822dd00830172006b5a9000c7
:10aab8000482fb00fb5a9000c82add0003017800dd
:10aac8008481720004070200000000008001780001
:10aad800e3b79f00f1b79f006fb19700ffb19700f0
:10aae8000c0241008d824900a44d9800c820de0068
:10aaf800b14d9800c54d9800c828de00d14d98008a
:10ab0800110120000fb8970055ff070000067800d4
:10ab1800ac559800c860de00b1559800310120009e
:10ab28000fb897004eff07000004780009002000c6
:10ab3800e00f5400e08f5c0004003a00010220009e
:10ab48000fb897004dff07000004be00b1002000b9
:10ab58000fb8970042ff07000007780011c2b30042
:10ab6800e00f570063003200e101670061003a001e
:10ab78004566dd000c06e9000e06460011000900d6
:10ab88000e86d800000678000d0020002fb197002f
:10ab9800bfb197000200540083805c006fb197003a
:10aba800ffb1970002005000838058000c0050004d
:10abb8008d8058002fe297000481fb0003002000dd
:10abc800de060200000000000001be00c255980029
:10abd800c810de00d1559800e3559800c818de006b
:10abe800f155980011c0b30040ff2000800f5100bc
:10abf800e08f59000500360021c0b300ec0f41007a
:10ac0800e08f59000100360031c0b300a1659800fb
:10ac1800ab609000e3cf500016003a001b4178006b
:10ac28008280fb001b4190004811dd00010071008b
:10ac3800c102200011ff070040028900510289006b
:10ac4800ab4890008180fb003b4990004811dd0033
:10ac580001027100cb4890008180fb005b499000a5
:10ac68004811dd00810271000c0142008d814a000b
:10ac7800150037006011b8004202890053028900ac
:10ac8800ab5090008180fb003b5190004811dd00e3
:10ac9800010171004411de00ab4890008180fb0087
:10aca800bb499000c819dd0001827100cb489000b3
:10acb8008180fb00db499000c819dd0081827100aa
:10acc80002014200e0814a00e24d9800c810de000f
:10acd800f14d980083559800c818de0091559800ea
:10ace80011c2b30002202000820f570001003e006d
:10acf8008040eb002b609000e34f500007003200cb
:10ad0800e0cf5000710032002ac1900080cdb3001e
:10ad180000404100e14f50006a003e003a51900067
:10ad28000281fb004a5090004800dd0002007000dc
:10ad38002c003a004a719000804f510029003a00d7
:10ad48005a709000824f500026003a006a719000b5
:10ad5800804f510023003a007a709000824f5000d3
:10ad680020003a000a799000804f51001d003a00f7
:10ad78001a789000824f50001a003a002a79900001
:10ad8800804f510017003a003a789000824f5000e7
:10ad980014003a004a799000804f510011003a009f
:10ada8005a789000e04f50000e003a006a799000ff
:10adb800804f51000b003a007a789000824f500083
:10adc80008003a00aac1900082cdb30002c1410038
:10add800e14f510003003e0080cf50003b0032009d
:10ade8000100370031c0b300cfb19700e08f5100a8
:10adf8001b003a001b4278000480fb001b419000b6
:10ae08004811dd0000017100aa7090008180fb00ec
:10ae18003a7090004800dd0001007000ab409000df
:10ae28008180fb00bb419000c819dd0001827100e0
:10ae3800cb4090008180fb00db419000c819dd0009
:10ae48008182710000004200e0804a00acce02001e
:10ae580001000000e14f500019003a00c2fe37001f
:10ae68005fb09700e00f500016003a009b40780052
:10ae78000180fb001b4190004811dd0000017100ba
:10ae8800ab4190008381fb003b4290004822dd00eb
:10ae980003007200cb4190008381fb005b4290006d
:10aea8004822dd008300720066004000e080480010
:10aeb800acce020001000000e14f5000a8fe3200b5
:10aec80081c0b300c0042200014878000140780026
:10aed8004f0778004f06be004f05be004f04be0066
:10aee8002f01b100000006006f02b000889fbe006d
:10aef8008a9fbe008c9fbe008e1f78000045780098
:10af08000206be0081057800c8042200004ceb0050
:10af1800405c22000048eb00a05b22000048eb00e8
:10af28000080eb008080eb00b02d8900c12d8900e6
:10af3800f02d8900012e89008eb92100fea79f00ff
:10af480016d00200010000009044780060c0b300f1
:10af5800e0cf540007003a000e0178006000b80006
:10af6800acce020001000000894f500003003a00f7
:10af7800b0c1b300004c7800010437007fa09700ef
:10af880060f9930051c5b300814f5100c4003a00e5
:10af980070f99300a1cab300814f5100c0003a0074
:10afa8006071900061c4b300814f51001f003a00e6
:10afb80070719000e5c05000814f51001b003a00ad
:10afc80000799000f3c04000814f510017003a000b
:10afd8001079900011c3b300814f510013003a005b
:10afe800e060900090c2b30080cf50000f003a009c
:10aff800e04f5500040032000000eb00e14f55001f
:10b0080017003a00b50237006000b80080af9f0013
:10b0180091af9f00e0fc2f000f0040002bfe0700bf
:10b02800e04f5000a6023200aa02370080b9210082
:10b03800e0c093008180fb0070c193004811dd00df
:10b048000101710080c993008381fb0090c89300bf
:10b05800c808dd008380700082af9f0091af9f0019
:10b06800e04f550096023200e14f55009b023a002e
:10b07800a0c893008180fb0030c993004811dd000f
:10b0880001047100c0c893008180fb0050c993007f
:10b098004811dd008104710081032100810f5400f3
:10b0a800e08f5c0033003e008af79f002ac09b00b7
:10b0b8008a41780082b921006000b80024cf0200dc
:10b0c80001000000e04f50007b02320072022100b4
:10b0d800820f5400e08f5c000300360020c0b300ec
:10b0e800f0ef9f0001003700faef9f000a202000d0
:10b0f8000a0178008000eb0080b92100520a0200a2
:10b108000000000020c3b30021bd21008048780062
:10b11800ffe897008180fb00521520000289b900e2
:10b128000281e800cf91de000802be002402b100cf
:10b138000580b10001804000cf80de00040040009f
:10b14800858048000000410081804900de06020039
:10b1580000000000800178000101780003007800f9
:10b168008200780023c0b300e3ef9f008ab79f00f6
:10b1780065003700f2d52f00f3032000820f54003a
:10b18800838f5c002e003e0021c0b30081f79f0032
:10b1980061c0b30021c09b008a41780082b92100b8
:10b1a8006000b80024cf020001000000e04f50000a
:10b1b800410232000800be008021b1000180b100c8
:10b1c800030037000a4545008100d1000080d30004
:10b1d800f30f4000e08f5800faff3e00faef9f009f
:10b1e80000c8b300804f55002d003e000e202000ff
:10b1f8000e0178008000eb0080b92100520a02009d
:10b208000000000060c3b30021bd21008048780021
:10b218000a85fb004851dd000281e800cf91de007d
:10b228000802be002402b1000580b1000a004500f2
:10b23800cf80de00040040008580480027003700ea
:10b2480031c0b30081f79f00b1c0b30021c09b009b
:10b258008a41780082b921006000b80024cf02003a
:10b2680001000000e04f5000130232000800be0049
:10b27800e2ff2b00f30320000a4545008100d100be
:10b288000080d300820f5000838f5800faff3e00e1
:10b29800faef9f0000c8b300804f55000200360047
:10b2a80040c0b3000e0237000e2020000e017800c7
:10b2b8008000eb0080b92100520a02000000000063
:10b2c8000a81fb004711dd000201e800cf91de0092
:10b2d8000800be001002b1000180b100000041006a
:10b2e80081804900de06020000000000800178002d
:10b2f80001017800030078008200780023c0b300c1
:10b30800e3ef9f008eb79f00d0b79f00e1b79f0083
:10b31800b2ceb30083b9210082497800c2c3b3001a
:10b328008301e8008249780002c9b3008301e8007c
:10b3380082497800d2c4b3008301e80082497800ca
:10b348006a4151008301e800824978006541410063
:10b358008301e80082497800684141008301e800e0
:10b368008249780003c2b300f2b92100034978008a
:10b3780062c4b30004ba2100024a78006541510052
:10b388000402e800024a7800734141000402e80020
:10b39800024a78000401e8000049eb0022c0b3002b
:10b3a8000482e800024a78000402e800ffea9700f5
:10b3b800054a78000ff297000442e90065ba2100b7
:10b3c800e14f5200b0003e0083c0b300834a7800ca
:10b3d8008501e8008049eb000faa97009faa970013
:10b3e80068034200e0834a00a6af9f00b7af9f0002
:10b3f8008301e800824978008301e8008049eb0076
:10b408008301e800824978000301e8000049eb0065
:10b418000381e8000049eb0082cfb300e3814100db
:10b42800824978000301e800004978004809dd00f6
:10b438004800de0000007100c808de000381e80053
:10b4480000497800f0c3b300e380410080487800e9
:10b45800648041000048eb006580410000c8eb00b3
:10b468000000e8000048eb000000e800044878000d
:10b47800c829dd004820de0000807100c828de00f1
:10b4880066014100004978000200e800054878009c
:10b498004828de008280e800804878006300410088
:10b4a80008487800c84add004840de000080720085
:10b4b800c848de0064014100004978000200e80045
:10b4c800094878004848de008280e8008048780013
:10b4d800630041000048eb00640041000048eb00b5
:10b4e80090c2b300e5004100804878000100e80000
:10b4f8000c4878000c00be00e00f5000e08f5800a8
:10b5080002003d00f00fb0000180b0004809dd00e6
:10b518004800de0000007100c888de0002bc21007f
:10b52800004978000c00be00e00f5000e08f580082
:10b5380004003d00f2ff2f0003002000000041003e
:10b54800818049004088de00cf80de0012bc2100e7
:10b55800004978008c0178000d017800030078001c
:10b5680082007800e00f5000e08f580004003d0092
:10b57800f2ff2f00f30f20000000410081804900f6
:10b588004888de00cf80de0022bc21000049780018
:10b59800e08f55001f003200c20020000300200089
:10b5a8006000b80085b92100060037000003be001e
:10b5b800b602b0000780b00084727b0061004000d2
:10b5c800e08048006b427800e04f52000b003200e8
:10b5d80061015100e0815900f4ff3a00070037008b
:10b5e8000001be00b202b0000380b000847279008e
:10b5f80061004000e08048000200370085b9210062
:10b6080004c2b300ea0f5000e08f5800f4ff360080
:10b618000e003700b2002000030020006000b800d0
:10b6280086b921000002be00b402b0000580b00057
:10b6380004024300004aeb0061004000e08048003b
:10b6480061015100e0815900f6ff3a0060c4b3007f
:10b65800e1bc210080487800654050008100e80086
:10b6680080487800734040008100e80080487800f6
:10b6780010c3b3008100e800804878007140500092
:10b688008180e800ec003700834a780073ba210013
:10b698008049eb000faa97009faa97000403be00f9
:10b6a8000602b0000780b000a6af9f00b7af9f00aa
:10b6b8008301e800824978008301e8008049eb00b3
:10b6c8008301e8008049eb008301e8008049eb0032
:10b6d8008301e8008049eb0083cfb300d6ba21008c
:10b6e800034b78008601e8008049eb008681e8007a
:10b6f8008049eb00f3c3b30063034300034b7800b6
:10b708008601e8008049eb008681e80080c9eb00eb
:10b718008301e8008049eb008301e8008449780050
:10b72800c82bde00c829dd004823de00068371002f
:10b7380053bb2100864978008301e80085497800d9
:10b74800c829de0074bb2100034a78008401e800a0
:10b7580088497800c849dd004842de00048271004b
:10b76800c84ade0093bb2100844978008301e800c1
:10b7780089497800c849de00b4bb2100034a780033
:10b788008401e80080497800c80ade00c809dd00a5
:10b798004802de0004827100d3bb2100844978008e
:10b7a8008301e800814978004808de008300e8004a
:10b7b800804878000380e8000048eb00638041007f
:10b7c8000048eb000000e8000048eb000000e8003b
:10b7d8000048eb000000e800024878000000e8009c
:10b7e8000048eb000000e8000048eb000000e8001b
:10b7f8000048eb00ea80410010c0b30080487800a0
:10b808000100e8000048eb000180e8000048eb0078
:10b818000000e8000048eb000000e8000048eb00ea
:10b828000000e8000048eb000000e8000048eb00da
:10b838000000e8000048eb000000e8000048eb00ca
:10b848000000e8000048eb000000e8000048eb00ba
:10b858000000e8000048eb000000e8000048eb00aa
:10b868000000e8000048eb000000e8000048eb009a
:10b878000000e8000048eb000000e8000048eb008a
:10b888000000e8000048eb0090c2b300f2804000de
:10b89800804878000100e8000c4878000c00be00e1
:10b8a800e00f5000e08f580002003d00f00fb0009c
:10b8b8000180b000c80add004800de000080720088
:10b8c800c888de00c2bd2100004978000c00be0017
:10b8d800e00f5000e08f580004003d00f2ff2f00f9
:10b8e8000300200000004100818049004088de00fc
:10b8f800cf80de00d2bd2100004978008c0178009d
:10b908000d0178000300780082007800e00f5000f5
:10b91800e08f580004003d00f2ff2f00f30f2000d5
:10b9280000004100818049004888de00cf80de00a9
:10b93800e2bd210000497800e08f55001f00320069
:10b94800c2002000030020006000b80085b9210073
:10b95800060037000003be007604b0000780b00080
:10b9680084727b0061004000e08048006b427800f0
:10b97800e04f52000b00320061015100e081590094
:10b98800f4ff3a00070037000001be007204b0005f
:10b998000380b0008472790061004000e0804800b4
:10b9a8000200370085b9210004c2b300ea0f500035
:10b9b800e08f5800f4ff36000e003700b200200078
:10b9c800030020006000b80086b921000002be0014
:10b9d8007404b0000580b00004024300004aeb0084
:10b9e80061004000e080480061015100e081590099
:10b9f800f6ff3a0060c4b300a1be21008048780079
:10ba0800654050008100e80080487800734040009d
:10ba18008100e8008048780030c3b3008100e80066
:10ba2800804878000040e9008100e80080487800fc
:10ba3800724050008100e800804878008100e800ea
:10ba4800804878008100e8008048780050c5b3003d
:10ba580061d9210080487800a0cab3008100e800bd
:10ba6800804878006fe897000080fb000100200004
:10ba78005fb19700efb197000407020000000000d3
:10ba88002fa99700bfa997000000410081804900b5
:10ba9800c0af9f00d1af9f008041eb0082b9210069
:10baa8000fa897009fa8970024cf0200010000006c
:10bab800e04f50000d003a0090c0b3000800370076
:10bac800e0fc2f000f00400080fb0700e04f500013
:10bad80006003200b0c1b30001003700f0c1b30066
:10bae800c1042200804878002501370088b9210068
:10baf800022020008000eb0008007800520a0200b3
:10bb0800000000008ff097000801e80080cfb30024
:10bb1800e3cf50007e003a00004c780000c9eb00eb
:10bb28000200e80000c8eb000280e80000c8eb0053
:10bb3800c0c0b300e60041008048780067004100bb
:10bb480000c8eb006800410000c8eb000000e800f6
:10bb580000c8eb000000e80000c8eb006fec97009d
:10bb68000884fb00100037005fb19700efb1970021
:10bb7800080078008000eb000407020000000000c5
:10bb88002fa99700bfa997000000410081804900b4
:10bb98008041eb0082b9210024cf0200010000009f
:10bba800e04f5000f60032000804e900e10f4400bd
:10bbb800edff3a00c20020008000eb0080b92100b0
:10bbc800520a0200000000002fac9700bfac97009b
:10bbd800140037006fed97000a85fb000e00370050
:10bbe8005fb19700efb197000a0078008000eb0082
:10bbf80004070200000000000000440081804c009f
:10bc08008041eb0082b9210024cf0200010000002e
:10bc1800e04f5000da0032000a05e900e10f450064
:10bc2800efff3a0061044400e0844c005fb19700e4
:10bc3800efb197002fa89700bfa897000200400017
:10bc480083804800800f5400818f5c00e1ff390039
:10bc580018002000090020000c0037004fa89700aa
:10bc6800dfa8970008004000898048008041eb0069
:10bc780082b9210024cf020001000000e04f5000eb
:10bc8800bf00320061044400e0844c007fe8970064
:10bc98000080fb0001002000800f5400818f5c00b1
:10bca800eeff3900e08f5500aa003200c2002000e4
:10bcb800030020006000b80085b9210003003700a8
:10bcc8008472780061004000e08048006b42780090
:10bcd800e04f52000800320061015100e081590034
:10bce800f7ff3a00040037008271780061004000d5
:10bcf800e08048000200370083b9210002c2b30087
:10bd0800ea0f5000e08f5800f7ff36007c0037003c
:10bd1800004c780000c9eb00a0b9210000c8eb0076
:10bd2800e2cf500002003a000000e80000c8eb0033
:10bd38006fec97000884fb00100037005fb1970094
:10bd4800efb19700080078008000eb0004070200bc
:10bd5800000000002fa99700bfa99700000041002c
:10bd6800818049008041eb0082b9210024cf020084
:10bd780001000000e04f5000810032000804e90093
:10bd8800e10f4400edff3a0080b921000008eb0004
:10bd9800301078002fac9700bfac97001400370024
:10bda8006fed97000a85fb000e0037005fb1970022
:10bdb800efb197000a0078008000eb00040702004a
:10bdc800000000000000440081804c008041eb002e
:10bdd80082b9210024cf020001000000e04f50008a
:10bde800670032000a05e900e10f4500efff3a005d
:10bdf80061044400e0844c005fb19700efb1970004
:10be08002fa89700bfa89700020040008380480031
:10be1800800f5400818f5c00e1ff39000020200072
:10be280001002000b0b79f00c1b79f000fb0970076
:10be38004500dd0001002000f01fb0000180b000c7
:10be4800c90ede004709dd004906de000c06710058
:10be580018002000090020000c0037004fa89700a8
:10be6800dfa8970008004000898048008041eb0067
:10be780082b9210024cf020001000000e04f5000e9
:10be88003f00320061044400e0844c008c0f5400f1
:10be98008d8f5c00f1ff3900e08f55002d003200d6
:10bea800c2002000030020006000b80085b921000e
:10beb800030037008472780061004000e080480089
:10bec8006b427800e04f52000800320061015100d7
:10bed800e0815900f7ff3a000400370082717800ca
:10bee80061004000e08048000200370083b921006b
:10bef80002c2b300ea0f5000e08f5800f7ff360087
:10bf080080c0b30031ba21008048780010c1b30066
:10bf1800e6804000804878008180e800804878000a
:10bf2800e4804000804878008041eb007781500031
:10bf38004fa89700dfa8970024cf02000100000057
:10bf48000081eb00e04f50000e0032000001eb00d2
:10bf58000c0037008b41780082b921004fa8970068
:10bf6800dfa8970024cf0200010000000081eb0049
:10bf78008b4f5000030032000b017800010037009e
:10bf88000081eb00020078004f0778004f06be00e2
:10bf98004f05be004f04be006f02b100000006004e
:10bfa800881f7800000478000040eb003064980097
:10bfb80080b92100004c78004800de001044980049
:10bfc80016d002000100000090407800e0cf500039
:10bfd8000200320060c0b3000d00370002102000dc
:10bfe800100161000d00320010009000005c980004
:10bff8004801de00125c9800215c9800315c9800d2
:10c0080001202000810f50000400360010c2b30048
:10c01800c1042200804878000a0037000800780030
:10c028001ff90700e04f500006003a0008007800aa
:10c0380026fa0700e04f500002003a0011c0b30092
:10c04800316498004f0478000000060010c0b30067
:10c05800a1032200804878008100e8008048780029
:10c068008100e80080487800405c22000048eb002e
:10c07800a05b22000048eb000080eb008080eb0012
:10c08800b02d8900c12d8900f02d8900012e89006d
:10c09800600f2200c2ff0700804078000000eb001c
:10c0a800e0cf500020003a00312e8100620f2200bc
:10c0b80082087800d0009800e00098006011b8006d
:10c0c800f20098008308980092089800a308980046
:10c0d800c0c5b300c0589800a0002000120020007e
:10c0e80003c2b30002824000435a98000201e800ec
:10c0f8000000e900fbff3a00c01098000201200090
:10c10800e21098004202810053028100f210980068
:10c118008318980092189800a3189800c104220068
:10c12800804878001000200000000600881f780072
:10c138000004780028609000e34f50000e003200a1
:10c14800e10f5100e08f59000b003e00284a900093
:10c158000482fb00b84a9000c82add0004807200ff
:10c16800c84a90008582fb00584a90004822dd00aa
:10c17800850072001100370062005100e08059000c
:10c18800186190000281fb000300200004070200f0
:10c1980000000000684a90000482fb00f84a900002
:10c1a800c82add0004817200885290008582fb0055
:10c1b800185290004822dd008501720000014100fc
:10c1c800818149000200be004f047800000006008b
:10c1d800889fbe008a9fbe0010057800101c900042
:10c1e800a01c9000110078008a5890008180fb0004
:10c1f8001a5990004811dd0001027100aa589000f8
:10c208008180fb003a5990004811dd0081027100dd
:10c21800cb28dd004522de0004827000c52ade003e
:10c228000401be008000eb00de06020000000000f2
:10c23800804578002a609000e14f500012003900d4
:10c24800e24f500003003600e34f50000e003a0062
:10c25800050037004002810051028100800f540020
:10c26800818f5c00080032008b85fb001a6190000a
:10c278000281fb00811f7800110009008285d80027
:10c2880081057800cf0078000801be000a00780018
:10c29800a6ff07001a4178000282fb009a4190002d
:10c2a8004819dd00040171000b82fb000500200025
:10c2b80004004000858048008041eb0024cf020044
:10c2c800010000000080fb000000ea004f00de00d3
:10c2d8004f05be004f04be0000000600889fbe0048
:10c2e800e82d81009804780038019000c80190007a
:10c2f800090078008dff0700194178000282fb00d1
:10c30800994190004819dd0004017100d80190009e
:10c3180003004000e08048008041eb0024cf020089
:10c32800010000008040780090c0b300e0cf5000ca
:10c3380003003200205c22000048eb000040eb00c4
:10c348004f04be00000006000400fa00889fbe00eb
:10c358008a9fbe008c1f7800000578000a007800cc
:10c3680072ff07000004be00205c22008040eb0042
:10c3780090cf100004003200d8ff07009bc0b30024
:10c38800e04f500030003a008000eb00e12d8900ba
:10c398004b5c22000040eb009b4f10000e003a005f
:10c3a8000a5890000080fb001a5990004811dd00df
:10c3b800000171001a4078008081fb001a4090004b
:10c3c8004800dd0003007000520a0200000000006f
:10c3d80010c0b300804d78008045eb000b46780014
:10c3e8001400370061024400e0824c009a40780053
:10c3f8000180fb001a4190004811dd000001710026
:10c408008b4178000800be0094bf9f00a5bf9f0025
:10c4180024cf0200010000001fba9700afba9700ae
:10c42800e14f5000010032009bc0b3000c46e80009
:10c438000404be001a609000804f560002003100cc
:10c44800e0cf5500e7ff32000b4078004f06780038
:10c458004f05be004f04be000080fa000000060031
:10c46800881f780000047800205c22008040eb00e0
:10c4780090cf10000100320098ff07006000b8005c
:10c4880070049800010c98000000eb00600498000c
:10c498005004980018019000a801900032049800f8
:10c4a80043049800e02d89004f047800000006003e
:10c4b800ea874700889fbe008a9fbe008c9fbe0007
:10c4c8008e1f78000004be000205be008086eb00c7
:10c4d800e00f5000e08f5800af003200e10f51002c
:10c4e800e08f5900ac00360061015100e08159002d
:10c4f800820f5000838f5800a7003e00205c220066
:10c508008040eb0090cf10000300320073ff07005b
:10c51800e04f5000a0003a008cb921000220200012
:10c528008000eb000c007800520a020000000000b6
:10c5380012ec2300030020000800be00de06020003
:10c54800000000004e0add00c202de008502720013
:10c558004e02dd0012ec2300030020000800be009c
:10c56800f4b79f0085bf9f00fe0602000000000090
:10c578000007780081067800f203200003002000fd
:10c588000e0078008d007800de0602000000000032
:10c59800460bdd00ca03de00870373004603dd0097
:10c5a800f2032000030020000e0078008d007800c0
:10c5b800d6b79f00e7b79f00fe0602000000000004
:10c5c80061004000e08048005fb39700efb3970038
:10c5d80000007300818073007fb297008fba9700c4
:10c5e8000400700085807000f21b20000c014100df
:10c5f80001497800c809de00480add004801de006c
:10c6080002017200041c20000c024200024a780059
:10c618000401e800004978000801550089815d009f
:10c6280022ce9b004810de0030ce9b0043ce9b00fc
:10c638004818de0050ce9b0080032100800f510077
:10c64800e08f590002003e0010c0b3000700370019
:10c658008086eb00f4d52f00f5032000840f5100ed
:10c66800858f59004c003e0060c0b30020c69b0077
:10c6780068c69b004840de0070c69b0009ce9b0040
:10c688004848de0010ce9b0061045400e0845c0042
:10c698000804450089844d0012ec230003002000a3
:10c6a8000800be00de060200000000004e0ddd009e
:10c6b800c205de008b0575004e05dd0012ec230077
:10c6c800030020000800be00fe0602000000000073
:10c6d8000007780081067800f2032000030020009c
:10c6e8000e0078008d007800de06020000000000d1
:10c6f800460cdd00ca04de00890474004604dd002f
:10c70800f2032000030020000e0078008d0078005e
:10c71800fe0602000000000061004000e0804800c2
:10c7280000007400818074000a0070008b80700023
:10c73800b2d5210001497800c809de00480add00a9
:10c748004801de0002017200c4d52100024a7800c7
:10c758000401e800004978000040eb00607e9b007f
:10c7680050c5b30060fe9b00a0cab30070fe9b00da
:10c7780013c0b300c2e32f00040141006000b800f9
:10c7880024cf0200010000008006eb00e14f5000ba
:10c79800010032008086eb000d0078004f0778001a
:10c7a8004f06be004f05be004f04be00af00b100eb
:10c7b8000000060080007800c00422000048eb005a
:10c7c8001000200071029000810a90001109900069
:10c7d800a1099000820f5200838f5a000100320095
:10c7e8000000eb0000000600e8874700889fbe00b5
:10c7f8008a9fbe008c9fbe008e1f78008042780002
:10c80800e008810080bf9f000000eb008fb8970010
:10c81800ec8f50000100360060002000d108810034
:10c82800f1b79f000042eb008001eb00fec2b300ad
:10c83800adc3b300ccc3b300ebc3b300cac5b300e8
:10c84800c9c7b300a8c2b300f7c3b30006c2b30098
:10c85800c5ef9f008442780044003700ffb097007e
:10c8680061c27900ff4f520003003e00e54f5200bd
:10c878000a0032004100370021c2b300814f520044
:10c888003e0032008e4f52003c0032008d4f520065
:10c898003a0032008c4f5200380032008b4f520061
:10c8a800360032008a4f520034003200894f52005d
:10c8b80032003200cfe89700e0cf500004003a0081
:10c8c800884f52002d003200874f52002b00320053
:10c8d800e60f500024003200864f52001f0032003d
:10c8e800b2c2b300824f52001c0032000241e8007d
:10c8f800824f5200190032006f414100824f5200ae
:10c908001600320002c1e800824f520013003200c4
:10c918007e414100824f52001000320002c1e800ff
:10c92800824f52000d003200e2c2b300824f520023
:10c9380003003a00e1cf52000800320015c0b300ee
:10c94800e10f500008003200f1c9b30081404200f5
:10c95800f9cf5000030036000300370060002000c4
:10c9680001003700100020008301e8008fb897000d
:10c97800818f5100b9ff3900010037007000200095
:10c988004f0778004f06be004f05be004f04be009b
:10c998008f00b100000006000c00fa00889fbe005e
:10c9a8008a9fbe00800478008105780002457800df
:10c9b800d908890009007800aa0a020000000000ce
:10c9c800e00889000044eb00ec0f50004c003e00ea
:10c9d8000a40780084ff0700e70f50004800320043
:10c9e800e60f500046003200840020000001eb00f2
:10c9f800e0c2b3000600370083427800f480570095
:10ca0800857079000201e8000402e900050032009f
:10ca1800e941790080cf510002003200e0cf510097
:10ca2800f5ff3a000200780003c2b30003003700a4
:10ca3800f4805700837078000000e800e70f50008a
:10ca4800fbff3400d4088100e4407900e3c2b3005e
:10ca580083cf500010003a0004003700834078006c
:10ca6800f4825700817278000000e8000201e800b3
:10ca7800e4417900e0cf510007003200ea0f50008e
:10ca8800f6ff340004003700f48157008271780003
:10ca98000000e8000100370002c2b300ea0f5000ae
:10caa800f9ff340000c2b300cfea970080cf5200ec
:10cab80002003a00f0c5b300c0ef9f00b3002000a9
:10cac8000001eb00f5c9b30004ceb300f4805700b1
:10cad8006140790082834500fc834300804b7800e5
:10cae80005434000f94f530001003e00844b4000cd
:10caf8000201e8008301e900f4ff3a0018c0b3001e
:10cb0800084078004f05be004f04be000080fa00c0
:10cb1800000006001a00fa00889fbe008a9fbe0027
:10cb280080047800010578008245780009007800c3
:10cb3800aa0a020000000000e00889008041eb001a
:10cb4800ec0f500065003e0099407800e0c2b30049
:10cb580080cf50006100320083cf50005f00320068
:10cb6800e0fd2f000f004000d00889008001eb0095
:10cb780003003700d008810069f079008301e800dc
:10cb8800e8088100888f5100faff39000b407800cf
:10cb980015ff07008041eb00e70f50004f003200ff
:10cba800e60f50004d003200d4088100a300200099
:10cbb8000000eb00e1c2b3000f00370064417800c9
:10cbc800814f510003003a0080025400e48f520064
:10cbd8003f003c008301e90040003200814f5100d2
:10cbe80004003a00b30020008000eb0002c2b3004a
:10cbf800040037000000e800880f5000efff350000
:10cc0800f8ff370001024500425a98008100e80009
:10cc18008301e900fbff3a00d7088100030278008e
:10cc2800f5c9b30001ceb3000e00370067417a00a2
:10cc3800e04f51000800320083044500fc844400a2
:10cc4800824c780005434100f94f530001003e0033
:10cc5800814c41008301e800e78f510003003c004c
:10cc68000402e800800f5200f0ff350013c0b30043
:10cc7800880f500019003d000000e80083002000e4
:10cc8800f4c9b30001ceb3000e0037006741780045
:10cc9800e04f510008003200030345007c034300c5
:10cca800024b780084424100f9cf520001003e0057
:10ccb800014b41008301e800ea8f510006003c0067
:10ccc8000000e800880f5000f0ff35000200370030
:10ccd8008041eb000100370013c0b3000340780027
:10cce8004f05be004f04be000080fa000000060099
:10ccf800f4874700889fbe008a9fbe008c9fbe00b5
:10cd08008e1f7800000778000203be00d4b79f008a
:10cd1800e5b79f002e6190008241e900f4ff2f00e3
:10cd2800f5ff2000b4b79f00c5b79f00e2cf5100c0
:10cd380026013e00e34f510004003200f4ff2f00ab
:10cd480005002000b4b79f00c5b79f00405c2200d3
:10cd58000048eb00e0cf500021003200b82d8100e0
:10cd6800c92d81000045eb00140037008041eb001d
:10cd780082d921000800be0024cf02000100000073
:10cd8800e04f5000110132000a45e8004e5990006a
:10cd98000281fb00de599000c819dd000280710095
:10cda8006e5990000281fb00fe599000c819dd0001
:10cdb8008280710008044000898448000e60900059
:10cdc800804f5500e9ff3900a05b22000048eb00c6
:10cdd8006000b800b0b79f00c1b79f00fb003700e4
:10cde800e14f510007003200e34f510011003a00b3
:10cdf800423edd00ce36de008d0676004236dd008e
:10ce08000e00370032002000030020000600be009c
:10ce18000407020000000000000678008106780080
:10ce2800e1406600c1e79f008d06d1000c86d30063
:10ce3800030037000606430087864b00c1e79f00c2
:10ce48000e5890000080fb001e5990004811dd002c
:10ce58000001710082b79f002e5890000080fb00ef
:10ce68003e5990004811dd000001710092b79f0003
:10ce78000fb197009fb197000c00be00de060200bc
:10ce8800000000000003be006e4090000080fb0020
:10ce98007e4190004811dd00000471000e489000aa
:10cea8000080fb001e4990004811dd0080047100dd
:10ceb8000604440087844c00ba2d8100cb2d8100e4
:10cec800880f5500898f5d002f003200a05b22007b
:10ced8000041eb00904f110022003200024278001e
:10cee8000803be0084447800180037008041eb0036
:10cef80082d921000a00be00f6b79f0087bf9f00b5
:10cf080024cf0200010000007fb397008fbb970079
:10cf1800e04f5000ad0032008944e8004e589000c0
:10cf28008080fb005e5890004800dd000101700021
:10cf38006e5890008080fb007e5890004800dd000d
:10cf4800810170000a0541008b8549000e60900040
:10cf580080cf5400e5ff39000604be00a05b220024
:10cf68000048eb0082d921000800be00acce0200c8
:10cf78000100000000417800e04f51006e003200cf
:10cf8800b82d8900c92d89000fb297009fb297006c
:10cf980061015200e0815a000c0061000d816100be
:10cfa80082017800000178000203be002e61900023
:10cfb800e34f510019003a0080d92100afea9700e9
:10cfc80005707b006fb0970001f02f005fb19700ec
:10cfd8000282600005002000c829dd004822de002a
:10cfe80004827100c82ade0091d9210084707b0078
:10cff8000081fb0082007800a2d9210001717b002a
:10d0080001f0200001006000800078004808de0080
:10d018008200e80080707b0066003700e24f510014
:10d028000e003a0080d921002fea970004707b0097
:10d0380000f02f00dfb29700050260000500200015
:10d048004828dd004822de0004027000c82ade00fd
:10d0580090d9210004707b0056003700e14f510041
:10d0680054003a008602780080d9210060417b0094
:10d07800cfe09700e0cf5000060032006f4161001a
:10d08800430020002fea97008321dd0083417100cf
:10d0980001003700afe997008cd9210003f67a0028
:10d0a80061034300e0834b000e5890000080fb00b2
:10d0b8009e599000c819dd00008571002e58900017
:10d0c8000080fb00be599000c819dd008085710002
:10d0d80061055500e0855d00060065000783650071
:10d0e80086037800000378000605be00e00f5500af
:10d0f800e08f5d0017003a0011c0b3000a02be00bd
:10d108000a01be000e007800f9fe07008a0f5000e1
:10d118008b8f58002d003a0061044400e0844c00d5
:10d128000c0178000800be00acce0200010000002f
:10d13800e04f500005003a00f0ff2f0001002000ea
:10d14800b02d8900c12d890020003700b82d890035
:10d15800c92d890080d9210060417d00cfe2970068
:10d16800e0cf5200070032005fb09700efb09700a1
:10d17800c40ade004c09dd004402de00040271002e
:10d188000a00370000cfb300004061005fb197008c
:10d19800efb19700c81ade00c818dd004812de009b
:10d1a800048270006f4262000442700080d921003e
:10d1b80004707d0010c0b300a15b22008048780095
:10d1c8006011b800b2b79f00c3b79f003fb0970087
:10d1d800cfb097004f0778004f06be004f05be003e
:10d1e8004f04be004f01b10000000600f28747005f
:10d1f800889fbe008a9fbe008c9fbe008e1f78004d
:10d20800000778000202be00405c22000048eb00e4
:10d218002e639000e14f530011003200e34f53009a
:10d2280024003a00421ddd00ce15de008b05750096
:10d238004215dd0080ff2f00f1ff200090b79f000e
:10d24800a1b79f00f4ff2f00f5ff2000d4b79f007f
:10d25800e5b79f008042eb00e5ef9f002100370013
:10d2680032002000030020000400be0086bf9f009b
:10d2780004070200000000000005be0061406500d0
:10d28800e0ef9f008b05d1000a85d30084ff2000c2
:10d298000500200094b79f00a5b79f00f0ff2f005e
:10d2a80001002000d0b79f00e1b79f000fbb970097
:10d2b8000c003700020541008385490084ff2f00d8
:10d2c8000500200094b79f00a5b79f00f0ff2f002e
:10d2d80001002000d0b79f00e1b79f008040eb001d
:10d2e800e1ef9f000e5890000080fb009e589000d0
:10d2f800c808dd00008670002e5890000080fb00f2
:10d30800be589000c808dd00808670000c01be0081
:10d318000a00be0086bf9f00de0602000000000073
:10d328006e4190008281fb007e4190004811dd0033
:10d33800030471000e4990008281fb001e49900091
:10d348004811dd00830471000004440081844c000e
:10d3580061065600e0865e000a0066000b816600e2
:10d3680082017800000178000205be00b22d81001c
:10d37800c32d81000fbb9700880f5100898f59007a
:10d3880051003a00e34f53006c003200e24f530063
:10d39800700032006011b800e14f5300ab003a0052
:10d3a80080d9210060417d000282fb000500200039
:10d3b800b4b79f00c5b79f00efea9700e0cf5200cf
:10d3c800080032003fb09700cfb097004c09dd004d
:10d3d8004400de0000007100c408de00b0b79f0002
:10d3e800c1b79f0061054500e0854d000a00660051
:10d3f8000b82660084027800000278000405be00f3
:10d40800e00f5500e08f5d0016003a00a05b220097
:10d418000042eb00904f12000800320011c0b30028
:10d428000a02be000a01be000e00780030fe0700a6
:10d43800e00f5000e08f58008b003a006104440070
:10d44800e0844c0082d921000800be00acce020066
:10d4580001000000e04f50002e003200b82d890076
:10d46800c92d890080d9210060407d000080fb0023
:10d4780001002000efea9700e0cf520007003200d9
:10d48800440add00cc02de00850272004402dd00a1
:10d498003fb09700cfb09700080037006f006000da
:10d4a80001002000c808dd000080fd0080407800f1
:10d4b8000040eb003fb29700cfb297000401400054
:10d4c800858148005c003700a05b22008042eb00a9
:10d4d80090cf12000800320011c0b3006022b800db
:10d4e8000401be000e00780001fe0700e00f5000a6
:10d4f800e08f58005c003a0082d921000800be0085
:10d50800acce02000100000080407800e0cf50005f
:10d5180005003a00f0ff2f0001002000b02d89001f
:10d52800c12d890050003700b82d8900c92d890008
:10d53800ae609000e3cf500004003a0080d921008b
:10d548000a0540001a01be003b003700e2cf500038
:10d5580004003a0080d9210060017d00030020000a
:10d56800350037006011b800e1cf500037003a00ad
:10d5780080d9210060417d000282fb000500200067
:10d588006fe89700e04f500004003200cc28dd001f
:10d598004422de0004827000c42ade0061054500d2
:10d5a800e0854d000e5890000080fb009e589000ca
:10d5b800c808dd0000817000ae5890008180fb0033
:10d5c8003e5890004800dd00810170006101510063
:10d5d800e08159000a0361000b8061008000780037
:10d5e800060078000001be0080d921006040790063
:10d5f8000080fb00010020006fe99700e04f510018
:10d60800050032004409dd00cc01de008301710011
:10d618004401dd00060037006f01600003002000b0
:10d62800c819dd000280fd00824178000041eb004e
:10d6380004014100858149001fb29700afb29700ed
:10d64800840f5100858f590003003100d2b79f0025
:10d65800e3b79f00040037001fb29700afb29700ee
:10d66800d4b79f00e5b79f005fb09700efb0970071
:10d678004f0778004f06be004f05be004f04be009e
:10d688002f01b100000006000800fa00889fbe00c4
:10d698008a9fbe008c1f7800100678003005900025
:10d6a800c00590002c6090000040e900e24f500057
:10d6b8000d003e000080fb004200dd00211b2d0014
:10d6c800808040001101be0092bf9f00a3bf9f0051
:10d6d800e11b2d00008040001001be00f2b79f0042
:10d6e80083bf9f0008003700f0ff2f0001002000d3
:10d6f800f0b79f0081bf9f0072ff2f00030020003a
:10d7080092bf9f00a3bf9f00e10f5500e08f5d000f
:10d7180002003e002a0020000b0020000a01be0083
:10d728000c007800b1fe07000a04be000801be0024
:10d738000c007800adfe07007fb197008fb9970005
:10d74800820f5000838f580022003200e00f5000f3
:10d75800e08f5800200032001fb99700afb997003a
:10d76800820f5000838f580011003200610444007a
:10d77800e0844c004c5190000281fb00dc51900089
:10d78800c819dd00028071006c5190000281fb0015
:10d79800fc519000c819dd008280710062004000d1
:10d7a800e0804800800f5400818f5c00020039003f
:10d7b80028002000090020008a0f54008b8f5c008d
:10d7c80004003200e00f5400e08f5c00d7ff3a00fd
:10d7d800010037006044b8000800be004f0678001a
:10d7e8004f05be004f04be000080fa00000006008e
:10d7f800ea874700889fbe008a9fbe008c9fbe00b4
:10d808008e1f780000037800d1b79f000247780088
:10d818001606780076129000861a9000161c900062
:10d82800a61c9000110178008c5990008381fb00a0
:10d838009c5b9000c83bdd0003807300ac599000ee
:10d848008381fb00bc5b9000c83bdd0083807300d4
:10d85800cb09dd004500de0000807100c508de0050
:10d868008081fb00e3b79f00811f78001100090049
:10d878000381d80080067800cf0078002c609000e3
:10d88800e34f50000b003a008d86fb009c6190002e
:10d898008381fb00809fbe00110009008386d800a9
:10d8a800810678004f00be008aff2f00fbff200092
:10d8b8000d0037008aff2f000b002000e00f5200f8
:10d8c800e08f5a00080032008d86fb009c619000b2
:10d8d8008381fb00809fbe00110009008386d80069
:10d8e800810678004f00be00e04f570002003a0062
:10d8f8006f00610081003a00e0cf560003003a0053
:10d90800efb19700830f510002003100e04f57003c
:10d918001e003200e00f5200e08f5a001f00320054
:10d9280014c0b300e04f5700160032001c6290008c
:10d938000482fb00efb19700049ab900809fbe00f3
:10d94800110009000481d800000278004f00be00d1
:10d958000c0037000801be000c007800f4b79f00e7
:10d9680086bf9f0021fe07000004be007fb297001b
:10d978000fbb97008a0f50008b8f58005a00310058
:10d988000442e900e04f5200f2ff3a008a0f5400c7
:10d998008b8f5c0054003100010037000404be0086
:10d9a800181b9800291b98000801be000c0078007d
:10d9b800def907000005be00400281005102810027
:10d9c800800f5400818f5c0015003a000d81fb0028
:10d9d800030020000a0141008b8149006c4a900035
:10d9e8000482fb00fc4a9000c82add000480720013
:10d9f8000c5290000482fb009c529000c82add0063
:10da080084807200800f5100818f59000400390012
:10da1800ac6090000000eb00e3cf500044003a00f7
:10da2800205c22008040eb0090cf100005003200ff
:10da38002afa0700004178000000eb00e04f51008f
:10da48003b003a000004eb00e82d8900405c22000e
:10da5800084878001c4178000280fb001c419000b7
:10da68004811dd00000171000d80fb00010020005d
:10da78000a0040008b804800acce02000100000084
:10da88000041780008007800e14f510011003a0089
:10da98001c4078008081fb001c419000e04f57003b
:10daa8000a0032004811dd00830171005fb1970060
:10dab800920078006fb19700110009008280d800a9
:10dac800c508dd0001804100020037004810dd0074
:10dad800030070000081eb008081eb00f22d8900cb
:10dae800032e89001200370010c0b300315c2200f9
:10daf800804878000000eb000d0037001c407800db
:10db08008081fb009c4090004808dd000300700005
:10db1800efb19700809fbe00110009000381d80073
:10db2800010178004f00be004511dd0002004000f1
:10db38004f0778004f06be004f05be004f04be00d9
:10db4800af00b10000000600889fbe000004be00c0
:10db58007810900088189000101c9800211c9800dc
:10db680012c0b3000800be0021ff0700e00f5000fc
:10db78001100320090407800e0cf50000d003200d4
:10db8800fbcf400007003a000a003700990ce80074
:10db98000041eb000800be0015ff0700e00f500031
:10dba80005003200b0489000efcf5000f7ff320078
:10dbb800010037000000eb004f04be000000060023
:10dbc8000200fa00889fbe008a9fbe008c1f780062
:10dbd8000004780001457800c9042200804ceb005d
:10dbe8008a85fb000b0678008c0db20010003a0005
:10dbf80048109000a0bf9f007810900088189000ef
:10dc0800101c9800211c9800ec8057000800780030
:10dc1800cdff07008c0f500002003a00b0c1b300de
:10dc280004003700304890006800600003003200ac
:10dc3800f0c1b300804c780013003700e810900062
:10dc4800f0806000808f5000040032000a44a00079
:10dc58000a85fb006a149800010037006b149800cd
:10dc6800ec8057000800780059f9070080407800d8
:10dc78000000eb00e0cf500004003a0090c0b30071
:10dc8800c1042200804878000080eb004f0678002d
:10dc98004f05be004f04be000080fa0000000600d9
:10dca800889fbe008a9fbe008c9fbe0080047800bb
:10dcb800810678009d0078006f80600008003a00b7
:10dcc800808f50000600320079109000891890006b
:10dcd800901c9800a11c980012c0b30001003700e6
:10dce8000041eb008d00780009007800c0fe0700b5
:10dcf8000004780020c0b300e00f54004700320051
:10dd08009840780010c0b300fbcf400043003200b9
:10dd180020c0b300e0cf5000400032008cc0b300f8
:10dd28000045eb008a4578000b80fb0000004400aa
:10dd3800104078000080fb008a0302000000000009
:10dd48008a80fb0081804400c05898000a45e8009a
:10dd58008b45e8000c46e900f3ff3a0008489000bc
:10dd68000080fb008a03020000000000c0649800e5
:10dd7800184890000080fb008a03020000000000a1
:10dd8800d0649800284890000080fb008a030200b5
:10dd980000000000e06498009d067800cd1498000b
:10dda80050ceb300184068000080fb000000e90076
:10ddb8004f00de0068099000f8099000920c980066
:10ddc800a30c9800a80990000001eb00580a9000e5
:10ddd80005002000040271008582710094049800f7
:10dde800a5049800b84890008180fb00e1149800d1
:10ddf800f0806000828f500004003200f80190002b
:10de0800c30c9800080c900003003700b808900075
:10de1800c10c9800480c9000d80c98004f06be0022
:10de28004f05be004f04be0000000600889fbe00dc
:10de38008a9fbe008004780081057800024578003a
:10de48007910900089189000901c9800a11c9800e7
:10de580012c0b3008b0078000900780064fe070048
:10de680000047800b0c1b300e00f54003300320062
:10de7800fc804400b200200008007800b80a0200c4
:10de88000000000000c1b300f24f5500010032004d
:10de980000c2b300304c98000040eb00404c9800a2
:10dea8000005eb002a0c98005a0c98006000b80096
:10deb800600c9800710c98000cf20700d003220047
:10dec80010407800504c9800f101810071049800ce
:10ded80000028100000c980012028100120c9800c8
:10dee80023028100330c980032028100420c980012
:10def80068099000f8099000920c9800a30c98000b
:10df0800c10c9800d00c9800384890000080fb00a5
:10df1800e01498009b017800c31498008b007800e7
:10df280009007800aaf807008040780090c0b30084
:10df3800e1cf500001003a000a4078004f05be00ca
:10df48004f04be0000000600889fbe008a9fbe00e6
:10df58008c9fbe008e1f78000005780001047800b1
:10df6800824678001a0678003c6090007b0020000a
:10df7800e04f50005c0032007a1090008a18900040
:10df8800101d9800211d980098047800e08f540017
:10df980009003a0012c0b300880078000a0078002f
:10dfa80013fe0700bb012000890f50000c0032004f
:10dfb800890578000a003700ef8564000800320000
:10dfc80012c0b300880078000a00780008fe070035
:10dfd800bb012000e00f5000010032008005eb007b
:10dfe800880078000a0078002dff070000477800b5
:10dff800e04f570039003a006022b80074059800d5
:10e00800050d98001a019000aa01900032059800a9
:10e01800430598000000eb00500598006005980043
:10e028000c00780041f807000004be00205c2200c4
:10e03800904f170003003200a8f80700e04f500087
:10e0480028003a00ea2d8900f02d8100012e810078
:10e05800880f5000898f58000f003200405c220062
:10e068000048eb001c4078008080fb001c409000ba
:10e078004801dd00010171000800be00acce0200bd
:10e0880001000000e04f500001003a008b00200022
:10e09800f82d8900092e89003a0890000020a10077
:10e0a800300d980071c7b30081cf560003003200cd
:10e0b800f6c0500081cf560004003a003a0890009c
:10e0c8000000a0000010a100020037000000a1001d
:10e0d8000010a000300d980003003700bb0020009e
:10e0e800010037009b0020000b0078004f077800e4
:10e0f8004f06be004f05be004f04be0000000600dc
:10e10800ea874700889fbe008a9fbe008c9fbe009a
:10e118008e1f78008004780081057800c2ef9f0088
:10e128000346780049159000dab79f0079109000ef
:10e1380089189000901c9800a11c98006b10900002
:10e148000080ea00f0b79f00e00f550008003a0091
:10e1580012c0b300f680570009007800a4fd07003c
:10e16800b80120008a0f50008a003a008200370068
:10e178006f0565008700320012c0b300f6805700b3
:10e18800090078009afd0700b8012000e00f500050
:10e1980080003a0078003700f680570009007800c0
:10e1a800bffe0700e24f500073003200e04f5000fe
:10e1b80065003a00e9109000f103b200804f560064
:10e1c80003003200e14f560066003a00190037009c
:10e1d800e88f500063003200bdc0b3000c447800e3
:10e1e8000887fb007c0747000e8044001040780039
:10e1f8000080fb007c030200000000008000780023
:10e208000e8745001e4778000e80fb0081bf9f00e7
:10e218007c030200000000008fb89700808f500038
:10e228004d003a000844e8008d46e900ecff3a004a
:10e238004b0037007fb197000280600049003a0028
:10e24800ef8f500047003200cb5890000004780050
:10e258008acf50001b0032008dc0b3008880fb00bd
:10e26800fc80400069c078006bc778008a4f57006f
:10e2780011003200f1c3b300814f57000b00320088
:10e288000080fb007c030200000000008000780092
:10e298000e80fb0081bf9f007c030200000000008d
:10e2a8008fb89700808f500005003a000844e800b6
:10e2b8008d46e900e9ff3a000004eb000100370051
:10e2c800b80020004b6090008a4f500025003200b3
:10e2d800e00f540023003a003ec0b3008dc0b300e5
:10e2e8008d80fb00fc80400069c07800ebc078009e
:10e2f8008acf50001b003200f2c3b30082cf500017
:10e308000d0032000080fb0081bf9f007c030200eb
:10e3180000000000000178008fb897000180fb0022
:10e3280082bf9f007c030200000000000fb9970025
:10e33800800f510008003a008d46e8000e47e900ba
:10e34800e7ff3a00070037004fe89700e04f50001a
:10e358000300320003003700b80020000100370036
:10e368000004eb00dfb097008100e800d1b79f0000
:10e37800e00f540088ff3a00080078004f07780043
:10e388004f06be004f05be004f04be00af00b100ef
:10e3980000000600b8002000aac2b3007eff3700c4
:10e3a8006e00fa00889fbe008a9fbe008c1f78000e
:10e3b8008004780081057800cc042200004eeb0030
:10e3c800a8cf0200010000000045780080c1b3001a
:10e3d800e04f550041003a00a8f82f000f04440010
:10e3e8008b0078000800780014f107000a417800d3
:10e3f8008800780009007800c6f907008a4f5000a5
:10e4080002003a0020c1b300340037008004eb005a
:10e4180049149800302e81007011900080199000e6
:10e4280072149800031c980010199000a01990000d
:10e43800121c9800231c98008800780000fc2f000c
:10e448000f004000fdf007008941780012c0b300ba
:10e458008800780000fc2f000f00400028ff07000c
:10e4680080047800eb8f54001b003a00cb11900019
:10e47800c3879f0081f82f008f8040000b00780031
:10e48800b1fd07008a80fb007c814000684179006b
:10e4980081814500c259980002f078000a45e800d9
:10e4a8008944e900f7ff3a0081f82f008f80400087
:10e4b8000b00780046f70700804078000000eb006a
:10e4c80089cf500007003a0090c0b300c104220071
:10e4d800804878000200370010c1b300004e780071
:10e4e8000080eb004f0678004f05be004f04be00c9
:10e4f8000080fa0000000600e4874700889fbe00fd
:10e508008a9fbe008c9fbe008e1f78000003780093
:10e518000204be00160778002e609000e14f5000fc
:10e52800090032008cff2f000d002000e34f50003f
:10e5380007003a008cff2f00fdff2000faff2f0094
:10e54800fbff2000040037008cff20000d00200096
:10e55800faff2f000b00200036019000c601900042
:10e568000e00780086bf9f0020fb070082c0b30022
:10e578000fbb97008a0f50008b8f58001300320092
:10e588004e5190000281fb00de519000c819dd0059
:10e59800028271006e5190000281fb00fe519000d2
:10e5a800c819dd0082827100a2c0b300840f500038
:10e5b800858f5800010031000041eb008c0f50009e
:10e5c8008d8f580001003900c2c3b3003003980092
:10e5d8004103980061045400e0845c0002003200aa
:10e5e800e04f5100dcff3200024078004f0778000e
:10e5f8004f06be004f05be004f04be004f00b100dd
:10e6080000000600ee874700889fbe008a9fbe0074
:10e618008c9fbe008e1f78000006780001027800eb
:10e62800c4b79f008206780083057800c8042200da
:10e63800004ceb001b0578006b0790007b009000f6
:10e648008b089000d0b79f00e1b79f003b0a90006d
:10e658006202620004003a00e1c1b300014c780094
:10e6680004007800af003700225c22008040eb00f5
:10e6780092cf10000700320018f707000042780018
:10e68800e04f52000300320090c0b300004c780005
:10e698002a003700e22d81008b0f51002b00320039
:10e6a8006173b8000a5990000281fb009a599000e2
:10e6b800c819dd00028271002a5990000281fb000e
:10e6c800ba599000c819dd0082827100840f530086
:10e6d800858f5b001d003200eb2d89003b01900007
:10e6e800cb0190000a00780090f607005b049000c8
:10e6f80008044000e0844800425c22000049eb0026
:10e708001a4278000481fb001a4290004822dd007a
:10e7180002027200040178000800be00acce0200bc
:10e728000100000000427800e04f520005003a0066
:10e7380080c0b300c1042200804878000000eb00cc
:10e7480078003700f82d8900092e89004fb297000c
:10e7580004e9b9006113b800bcb79f008006eb005c
:10e768000d067800640037001b099000ab09900083
:10e778005fb09700efb09700820f5000838f58006a
:10e7880004003a00d2c3b300c304220082497800cf
:10e798005c0037006172b8008a5890000180fb0065
:10e7a8009a589000c808dd0000817000aa589000af
:10e7b8000180fb00ba589000c808dd008081700015
:10e7c800820f5200838f5a0039003a00db00900014
:10e7d8008100e800d10598001a6190000281fb00d1
:10e7e800828f500011003a00dc05980012002000ca
:10e7f800030020000b007800f6b79f0087bf9f003a
:10e808003dff0700804078007fb397008fbb9700db
:10e81800e0cf500005003200f2c0b300c30422006c
:10e82800824978000c077800360037003b019000d9
:10e83800cb0190000a007800f6b79f0087bf9f00c1
:10e848003af607005b04900008044000e0844800a2
:10e85800eb2d8900415c22008048eb001a417800ca
:10e868008280fb001a4190004811dd00010171000f
:10e878000800be00acce0200010000008040780015
:10e888007fb397008fbb9700e0cf500005003a0098
:10e8980082c0b300c3042200824978000007eb005d
:10e8a80018003700f82d8900092e89000007eb00b1
:10e8b8001a4278000481fb009a409000c808dd00e5
:10e8c800828070003fb0970061587f00b0b79f000a
:10e8d8000e07e8005fb09700efb0970061004000b6
:10e8e800e0804800d0b79f00e1b79f008d06e800a0
:10e8f80061035300e0835b00e00f5300e08f5b008f
:10e9080099ff3a00ee0598005fb09700efb09700c6
:10e91800f0059800810d98004fb19700110009008b
:10e928008286d8004f0778004f06be004f05be000c
:10e938004f04be00ef00b10000000600889fbe0033
:10e9480081047800100478004ffb07000001be0026
:10e95800808cbe0054012000e00f5000e08f58006a
:10e968001e00320028609000e14f500004003a0079
:10e978008040eb0084ff20000500200005003700e0
:10e98800e24f50000a003a008040eb0084ff2f005d
:10e998000500200008007800d5f807009400200042
:10e9a800e10f4000e08f58000f003a000b003700dd
:10e9b8008040eb0084ff2f00f5ff2000080078005e
:10e9c800cbf80700f2ff2f00f3ff2000820f500062
:10e9d800838f580004003a00940020000400780057
:10e9e8004f04be00000006001901be0008007800b0
:10e9f80055f607000082fb00f8ff37000600fa0012
:10ea0800889fbe0000047800ea80570048109000f4
:10ea18008018780008007800c8ff07008004780094
:10ea2800e08f540010003a00ea8057000800780090
:10ea380045fc0700cfb89700510898005fb99700c8
:10ea4800f1ff200001016100820078002108980090
:10ea5800ea80570008007800ddf50700e14f500014
:10ea68000100320099002000090078004f04be0020
:10ea78000080fa00000006000200fa00889fbe002d
:10ea880000047800c9042200804ceb004810900074
:10ea9800d0bf9f00b8089000e1806000800420008b
:10eaa8003d003200205c22008040eb0090cf100037
:10eab8000600320009f60700e04f5000030032005c
:10eac80090c0b300804c78001500370011c0b30027
:10ead8006022b8000401be001800780084f807001e
:10eae8006000b800b02d8900c12d89003801900060
:10eaf800c801900018007800bcf90700e6805700ac
:10eb08000800780010fc070080047800e08f5400ab
:10eb180005003a00b0c1b300c10422008048780063
:10eb28000080eb0031003700f0ee07002002810082
:10eb3800b00c980031028100c10c980018089000b0
:10eb4800a8089000e00c9800f10c9800c8689000a4
:10eb5800b14c9800e6805700080078009cf5070043
:10eb6800e04f500005003200e680570008007800aa
:10eb7800f5fb07000000eb000400370090c0b3006d
:10eb8800c1042200804878000080eb00b80890009b
:10eb98000100a100310c980081f92100810f540077
:10eba800080032006103b000810f540007003200f2
:10ebb8006103b000810f540008003a0021002000d2
:10ebc800030037008000eb0001003700110020002f
:10ebd80012c0b300a303220082f178008104200050
:10ebe800810f500001003a000000eb004f04be0006
:10ebf8000080fa0000000600889fbe008a9fbe00c1
:10ec08008c1f780080057800014678001b05780085
:10ec18000b0078009cfa07000004be0052c1b30044
:10ec2800e00f5000e08f5800220032002a60900068
:10ec3800e14f500004003a008040eb0084ff2000c0
:10ec48000500200009003700e24f500004003a0098
:10ec58008040eb0084ff2f000500200003003700f0
:10ec68008040eb0084ff2f00f5ff20000801be0064
:10ec78000a0078001ef807008040eb000802be007a
:10ec88003b019000cb0190000a00780018f80700bb
:10ec9800b8059800c90598000041eb00e14f5600ff
:10eca80004003a000801be000a007800a6f5070033
:10ecb80000417800024078004f0678004f05be00fa
:10ecc8004f04be0000000600e4874700889fbe008e
:10ecd8008a9fbe008c9fbe008e1f780000077800b8
:10ece8001e027800e18f500003003200e28f5000ce
:10ecf8000b003a00050037007e0590008e0d90004d
:10ed08000205450083854d00060037001e0d900062
:10ed1800ae0d90000205550083855d0001003700a7
:10ed28000205be00205c22008040eb0090cf10005e
:10ed38000700320084bf9f0068f507000fba9700ec
:10ed4800e04f50000200320090c0b3000a003700c4
:10ed58001e009000ae009000300798004107980010
:10ed68001e089000ae089000800f5500818f5d004e
:10ed780005003600f0c1b300c104220080487800c5
:10ed88000080eb00890037003e0890000020a100b9
:10ed9800300f98007a0798000b0f980004589000dd
:10eda8000080fb00945e9000c86edd0080867600cf
:10edb800245890000080fb00345e90004866dd0017
:10edc800000676000d0178008c0178000a00be006c
:10edd80084bf9f00de060200000000000004be00a1
:10ede8000d0178008c0178000800be0004070200bd
:10edf800000000000000550081805d006007980059
:10ee08000fba9700146690000c86fb000d002000d6
:10ee18000c01be000800be00de0602000000000073
:10ee28000005be000c01be000a00be000407020077
:10ee3800000000000000540081805c00500798002a
:10ee48000fba9700e00f5500e08f5d0039003200df
:10ee58000a01be000e007800a7fd07000fba970050
:10ee6800e04f500033003200c1c3b300814f50005f
:10ee78002e003a003e089000610060001400320045
:10ee88001e009000ae0090003007980041079800df
:10ee9800e10f5500e08f5d0005003200610155006b
:10eea800e0815d000e00780093fd07000fba97001f
:10eeb8008040eb000e00780084bf9f004eff0700e3
:10eec8000fba9700e04f50001a00320017003700c1
:10eed8001e009000ae00900030079800410798008f
:10eee80061015500e0815d000e00780084bf9f003d
:10eef80081fd07000fba9700e04f50000b003a0061
:10ef0800845890008180fb00145890004800dd0070
:10ef18000100700060079800146090000080fb00fa
:10ef28000000e9005007980002003700f0c0b30065
:10ef380091ff37003e019000ce0190000400780058
:10ef480084bf9f0079f407005e0490000804400025
:10ef5800e08448000005eb00ea2d8900405c2200af
:10ef68000a4878000fba9700144078008080fb00a8
:10ef7800144090004801dd00010171000800be0046
:10ef8800acce020001000000c1042200e04f500096
:10ef980002003a00b0c1b30078ff3700f82d8900ad
:10efa800092e89008a4878000a0078004f077800ff
:10efb8004f06be004f05be004f04be004f00b10013
:10efc80000000600f2874700889fbe008a9fbe00a7
:10efd8008c9fbe008e1f78008005780001027800a3
:10efe80094b79f00830678003d0d90006105650089
:10eff800d0c1b3000f0032001fb297000491b900ce
:10f008006110b800f0b79f0081bf9f000005eb00ba
:10f01800e00f5000e08f5800f2003200a8cf020045
:10f028000100000000427800e04f52000400320066
:10f0380080c1b300c104220080487800e90037008d
:10f04800445c22000a4a78001d077800ed00900011
:10f05800a1b79f007d0190008d099000d2b79f0055
:10f06800e3b79f003d019000cd0190000e007800ad
:10f078002ef407000004be005d069000e32d810019
:10f088008d8f51000a003200245c22008041eb0081
:10f0980094cf11000500320090f407000042780078
:10f0a80090c0b300e04f5200e2ff3a00ed2d890016
:10f0b8000c044400e0844c00f42d8100052e8100ee
:10f0c800880f5200898f5a001e003200245c2200eb
:10f0d8000040eb00944f1000040032007ff407005a
:10f0e80000427800e04f52003f003a00445c2200a2
:10f0f800004aeb009e4078008182fb001e4290008f
:10f108004822dd0005027200040178000800be00f4
:10f11800acce020001000000804278000002eb0043
:10f12800e0cf520004003a00b4c1b300c504220085
:10f13800844a780084002000f82d8900092e89006f
:10f14800010037000002eb001d099000ad09900096
:10f15800b2b79f00c3b79f000005eb000b0678000d
:10f168002fb397008a0037005fb09700efb0970081
:10f178003fb19700cfb19700820f5000838f58009e
:10f1880003003a00bd0890000120a000b10e9800cd
:10f198006132b8008e5890000180fb009e589000a4
:10f1a800c808dd0000817000ae5890000180fb00a7
:10f1b800be589000c808dd0080817000820f5200a0
:10f1c800838f5a0050003a000042eb00235c220073
:10f1d800934f12000800320040f407008040780086
:10f1e800e0cf50000400320090c0b300c1042200f8
:10f1f800804878003f0037005d0190000201e80078
:10f20800d20698009e6090008180fb001bc0b3006e
:10f21800810f51001b003a000004eb00d80698004b
:10f22800bd089000e4806000888f5000070032001d
:10f23800884078000d0078006ffe070000427800d3
:10f248000482fb0088457800060037001200200081
:10f25800030020000d007800a7fc0700004278009a
:10f268000482fb00f50f520003003a00c00422009c
:10f27800044878001f0037000003eb00860f520097
:10f2880043003a003d019000cd0190000e00780047
:10f29800a6f307005d04900008044000e0844800dd
:10f2a800ed2d8900e0cf5500140032009e40780013
:10f2b8000180fb001e4190004811dd000001710033
:10f2c8000800be00acce02000100000080407800bb
:10f2d800e0cf500009003a00b0c1b300c1042200d9
:10f2e800804878000080eb008080eb00f02d8900da
:10f2f800012e89000005eb003a003700f82d89003f
:10f30800092e89000003eb009e4178000381fb0071
:10f318009e409000c808dd00828070003c42780062
:10f3280084707b000603e8005fb09700efb0970099
:10f3380061004000e0804800d0b79f00e1b79f001f
:10f348007fb197008fb9970061015100e0815900a2
:10f35800f2b79f0083bf9f000a05e800bd08900030
:10f36800e4806000060032003fb09700cfb09700fd
:10f3780061004000e0804800b0b79f00c1b79f001f
:10f3880012c0b300215c2200824878000002eb0022
:10f39800e00f520005003a007fb097008fb8970041
:10f3a800e00f5000e08f58006fff3a00a6b79f00ab
:10f3b800e60698005fb19700efb19700f206980053
:10f3c800830e98003fb09700cfb09700900e98003a
:10f3d800a10e98001fb19700110009000285d800fe
:10f3e800000578000a0078004f0778004f06be0035
:10f3f8004f05be004f04be002f01b10000000600fb
:10f40800889fbe008a9fbe008c1f78000004780089
:10f41800810578007810900088189000101c9800da
:10f42800211c980012c0b3008b00780008007800f7
:10f43800eff8070012c0b300e00f500027003200b9
:10f448008044eb001b0678000041eb008b0078003d
:10f4580008007800e6f8070000057800e00f55007e
:10f46800010032009a4478009b0de800e00f550037
:10f4780005003200fbcf44001e003200e0cf5400ec
:10f48800f0ff3a001d003700181a9000a81a9000e3
:10f498004002810051028100800f5200818f5a0082
:10f4a80005003a00180078002060900022c0b300e0
:10f4b800e34f500009003a003404980045049800ce
:10f4c80011c0b30008007800cbfd07000a4178009e
:10f4d800f54f500001003a0022c0b3008c0d7800af
:10f4e800024078004f0678004f05be004f04be006a
:10f4f800000006000041eb00f8ff370009417800e2
:10f50800f6ff3700889fbe008a9fbe0080047800ff
:10f51800010478000245780083057800c0042200c1
:10f528000048eb00000ceb00880078000900780028
:10f53800b3ff070044012000e04f50000b003a00e1
:10f548000a417800880078000900780037fa070037
:10f558000082fb0005003a00848f5500030032004a
:10f568000900780025fd070000027800c004220089
:10f5780004487800040078004f05be004f04be0020
:10f5880000000600e8874700889fbe008a9fbe00eb
:10f598008c9fbe008e1f78000004be000203780016
:10f5a800266090000040e900e24f50000b003e004a
:10f5b8000080fb004200dd00a11c2d00808040007f
:10f5c8001101be00e2b79f00f3b79f00611d2d0037
:10f5d800008040001006be0006003700fcff2f0028
:10f5e8000d00200080ff2f0001002000e0b79f00e1
:10f5f800f1b79f002e002000e10f5400e08f5c005f
:10f6080002003e00200037000a04be000801be00c8
:10f618000600780086bf9f00f4f607000005be00cc
:10f628000fbb97008c0f50008d8f580027003200b9
:10f63800e10f5000e08f5800220036000007eb0071
:10f648006fb19700ffb19700820f5000838f580069
:10f65800010039002e0020008040eb006022b80035
:10f668000801be000600780086bf9f00a0f50700cd
:10f678000fbb97008c0f50008d8f5800130032007d
:10f68800e00f5700e0ff320011c0b3006022b8005d
:10f698000401be000600780095f5070010c0b3000d
:10f6a800e20f5700010032000040eb004f077800de
:10f6b8004f06be004f05be004f04be008f00b100cc
:10f6c800000006002e002000efff37001e0020007b
:10f6d800edff3700889fbe008a9fbe008c1f780010
:10f6e8000004780001057800824578001806780043
:10f6f80010c0b300c104220080487800781190003f
:10f7080088199000121c9800231c9800004178006a
:10f718008a0078000800780035f80700800478002f
:10f72800b4012000e08f5400230032001940780013
:10f73800b4002000e04f50001f003200fb4f400093
:10f748001d00320050ceb300804c78008a0078004b
:10f75800080078009ef2070014002000e04f5000d7
:10f7680015003200a90a90000002eb005908900029
:10f778000100200000007200818072001a0de9006b
:10f788004602810057028100860f5000878f58007b
:10f7980007003200e0cf5500050032000c01780068
:10f7a80078ff07000082fb000402e9004f22de0018
:10f7b800c004220004487800040078004f0678004e
:10f7c8004f05be004f04be0000000600889fbe0023
:10f7d8008a1f780000057800c9042200804ceb00dd
:10f7e800a8cf0200010000000044780080c1b300e7
:10f7f800e04f54003b003a000841780041052200e0
:10f808000a007800c3f40700884f500002003a004d
:10f8180020c1b30033003700600f2200a002890026
:10f82800600522000008eb003010780064004000fa
:10f838000008eb00301078002a022000000545007f
:10f84800000deb000002200000048900302e81002a
:10f858007011900080199000120489002304890017
:10f8680010199000a01990003204890043048900ff
:10f8780081fd2f008a804000a0082200efeb0700de
:10f888008841780012c0b300a108220080fd2f0033
:10f898000a0040001afa0700e00f50000200320088
:10f8a800b0c0b3000f0037000108220091007800b3
:10f8b80070846000800f54000200320030c1b30031
:10f8c8000800370012c0b3008a00780080fd2f00be
:10f8d800010040007fff0700880f5000030032003e
:10f8e80010c0b300804c78000080eb004f05780012
:10f8f8004f04be0000000600e6874700889fbe0050
:10f908008a9fbe008c9fbe008e1f780080047800fe
:10f91800810678001d447800a8cf0200010000008d
:10f9280080407800e0cf50000300320021c7b300c8
:10f93800814f54000c003a00a003220010417800c7
:10f94800e04f51000d003a000000e80090407800b8
:10f9580082cf50000b003a000000e80090cf100062
:10f96800190032000900370021c5b30080c1b30077
:10f97800814f5400f0ff3200180037000006eb00fa
:10f98800030037001c002000010037002c00200075
:10f99800ae0322000045eb000a777e0062032000d8
:10f9a80002e1b9008bf92100828545000a417800ff
:10f9b8008b0078000900780056f407008a4f500041
:10f9c80009003a000200370000c2b3000300370004
:10f9d80010c0b30000777e0020c1b300c10422002c
:10f9e80080487800180137000b007800610f22006a
:10f9f800011878000008eb00301078006680450098
:10fa08000008eb0030107800800220000b00400056
:10fa18000008eb0000022000e0159800302e81005d
:10fa28007011900080199000f2159800831d9800bd
:10fa380010199000a0199000921d9800a31d98001d
:10fa48008b007800a00822007ceb07008a41780030
:10fa580012c0b300a10822000b007800a8f9070023
:10fa6800e00f5000a6003a0070c5b300804f540064
:10fa78001200320007003e0076405000804f5400cc
:10fa88003d00320071404000804f5400c1003a00f0
:10fa98008200370020c7b300804f54007f00320037
:10faa80065404000804f540004003200764050000a
:10fab800804f5400b7003a002f0037006803200039
:10fac80008e4b90080022000080040008ef92100f7
:10fad8006e007800f0b79f0012c0b300f2805700a4
:10fae8000b007800fbfe070000057800e00f5500ca
:10faf800c7003a00130020000a417800f28057003e
:10fb08000b0078007ffe070000057800e00f550025
:10fb1800bf003a0072c7b300f28057000b007800ac
:10fb280009f9070000057800c0022000080040001d
:10fb38006e0078007000600096003a00800f550053
:10fb4800b3003a00210020006011b8000b007800d3
:10fb58005dfc0700000578009d409000b0c2b3002e
:10fb680080cf5000aa003a00e0fa210008044000c3
:10fb78001810a000a60037006003200000e0b900bc
:10fb88008001780083bf9f008ef9210003004700a1
:10fb9800100c9000a00c9000030078008002b000c8
:10fba800e00f5400e08f5c001c0032006e0078000b
:10fbb800f0b79f0072c7b300f28057000b007800bf
:10fbc800e1f80700000578000fb89700c002b00000
:10fbd8006e007800700060006e003a00800f5500db
:10fbe8008b003a00210020006011b8000b0078005b
:10fbf80035fc070000057800e00f550073003a0057
:10fc08000fb89700000747003e019000ce01900012
:10fc1800600f220075f507006f0037006e0078004e
:10fc2800f0b79f0012c0b300f28057000b007800b5
:10fc3800a8fe070000057800e00f550074003a00a0
:10fc4800130020000a417800f28057000b0078006a
:10fc58002cfe070000057800e00f55006c003a0004
:10fc680072c7b300f28057000b007800b6f807009f
:10fc7800000578000fb89700c002b0006e00780049
:10fc88007000600043003a00800f550060003a00a1
:10fc9800210020000801be0047003700680320004b
:10fca80008e4b90080022000080040008ef9210015
:10fcb8006e007800f0b79f0022c7b300f2805700ab
:10fcc8000b007800a0f80700000578009d40900020
:10fcd800b0c2b30080cf50004d003a00c0022000ef
:10fce800080040006e0078007000600048003a008c
:10fcf80076004700080440001800a00044003700c0
:10fd0800a10822000b007800ccea070070c7b300f6
:10fd1800804f54000900320070c5b300804f540072
:10fd2800060032006a404000804f54000300320051
:10fd380010c4b300804f540031003a008000eb003b
:10fd4800f1b79f00130020000041eb00f28057003c
:10fd58000b007800ebfd070000057800e00f550068
:10fd68002b003a0072c7b300f28057000b007800ee
:10fd780075f80700000578006003200000e0b9006e
:10fd8800c002b00081f921006100780070006000b5
:10fd980005003200f0c1b300c10422008048780099
:10fda800fa0f20001a003700800f550018003a009b
:10fdb800210020006011b8000b007800c2fb07008a
:10fdc80000057800e00f550003003200a0c1b30021
:10fdd800c1042200804878009d409000b0c2b30062
:10fde80080cf50000a003a006003200000e0b9000c
:10fdf800e2fa2100000041001010a00004003700c2
:10fe0800b0c0b300c104220080487800ba002000c6
:10fe1800a8cf020001000000e04f500005003200aa
:10fe28006003200000e0b900e2fa21000000410070
:10fe38001000a100e00f55000500320010c0b3000b
:10fe4800a103220080707e008005eb0002003700cd
:10fe5800c00422000a4878000b0078004f07780099
:10fe68004f06be004f05be004f04be006f00b10034
:10fe780000000600cf03b000889fbe008a9fbe0026
:10fe88008c9fbe008e1f7800810478008efb2f00a7
:10fe98000f07470010002000001f7800312e810056
:10fea8000e00780065ea0700c20422000049eb0052
:10feb8001904fb000ac2b30003003a00f0c1b30002
:10fec80000497800dd003700e0022000800f540070
:10fed80006003200c2052000d10020000000eb001f
:10fee800820f540088003a0060003700d905fb00f3
:10fef800888f55004c003a005940780080f79f00e1
:10ff08007e1090008e1890004202810053028100fa
:10ff1800820f5000838f5800a6003200101f9800ef
:10ff2800211f98001b002000cb9f9f000b417800e9
:10ff380081fb2f008f8040000e0078002cf6070010
:10ff4800e00f500032003200a00e90000006eb00d7
:10ff580050089000010020000000760081807600a3
:10ff680070179800011f9800101f9800211f980013
:10ff7800e00f5000e08f58000f003a00c0c5b300f2
:10ff8800405f9800a00020008b004700ca589800e6
:10ff98008b05e8000000e900fbff3a004002810001
:10ffa80051028100101f9800211f980070179800b7
:10ffb800011f980009003700485f9800585f9800b3
:10ffc8009100200020002000000147004a599800b5
:10ffd8000000e8008100e900fbff3a000001eb00a7
:10ffe800c29f9f0012c0b30081fb2f008f8040008a
:10fff8000e007800fef50700e00f50000400320004
:020000040001f9
:100008008ff197000304fb00c005200003003700b0
:10001800b0c1b300680037005904fb00800f5400da
:10002800fdff32000e003700e08f550006003a0051
:10003800a1fb2f008f804000302e8100ffe90700d0
:100048000b0478007e003700c0052000808f550023
:1000580058003a005904fb008b0f5400fdff320092
:10006800e00f540098ff3a006b0037005904fb007a
:10007800820f54004f00320040028100510281007b
:10008800e00f54000f003a00332e8100f011980061
:100098008119980090199800a1199800c2599800e0
:1000a800a80020001000200001c2b3000081410018
:1000b800415998000000e8000804e900fbff3a00f5
:1000c8005f00370070179800011f9800101f9800f4
:1000d800211f9800425f9800a10020001000200016
:1000e800000147004a5998000000e8008100e90033
:1000f800fbff3a0074ff3700e31122008871780093
:100108000000e8005904fb00e00f5400040032002e
:10011800820f5400020032008100e900f6ff3a0025
:100128008040eb00e2112200017178000000e80035
:10013800ec0f500008003600020037005904fb009d
:1001480001003700c0052000e00f54000200320013
:10015800800f5400f9ff3a000041eb008e00780050
:10016800e01122000cf20700e04f5000330032008b
:100178008e007800a0082200b0e907008041eb005b
:1001880012c0b3008e007800a0082200dcf7070038
:10019800e00f500002003200c0c0b3000600370074
:1001a800630b220093017800f0806100808f50007b
:1001b80004003a00f0c1b300c1042200804878006e
:1001c8001e003700b2002000a1082200800147006d
:1001d8007c02400061427a00c45998000000e8009f
:1001e8000201e900f9ff3a0060048100710481000e
:1001f80070179800011f9800101f9800211f980081
:10020800820f540009003a008e007800040037007d
:100218005904fb0006003a00a1fb2f008f80400024
:10022800302e810085e9070005003700c005200051
:10023800800f5400f6ff320023ff37000084eb00e4
:10024800080078004f0778004f06be004f05be0033
:100258004f04be00cf03b100000006000001eb0010
:10026800800078000040eb0002ff07000000060055
:10027800e8874700889fbe008a9fbe008c9fbe000b
:100288008e1f7800000578001e002000eeb79f0042
:100298000e417800f48057000a00780054f50700f2
:1002a8008000780080c5eb00e08f500076003200b7
:1002b800a10e90000006eb00510c900009002000f0
:1002c800080476008984760078028900890289000a
:1002d800e00f5400e08f5c0010003a00c0c5b30086
:1002e800405d9800b000200002c2b3008c014500b8
:1002f800c25998000c06e8000000e900fbff3a002c
:10030800420281005302810072159800031d980073
:10031800121d9800231d9800510037007815980089
:10032800091d9800181d9800291d98000e41780095
:10033800f48057000a0078002df50700e00f500000
:1003480051003200a00990000c017800500890007c
:100358000100200000007100818071007002890096
:1003680081028900e00f5000e08f580002003a0037
:10037800400281005102810070159800011d98000b
:10038800101d9800211d98008002eb00e5b79f0022
:1003980012c0b300f48057000a00780014f5070073
:1003a8008000780080c5eb00e08f500036003200f6
:1003b800a10990000001eb00510a900005002000ff
:1003c800120037000041eb00f48057000a00780063
:1003d80007f5070080007800e08f50002900320000
:1003e8006fb097000000e800e0b79f00a1099000f7
:1003f80083bf9f000002eb00f4b79f0051099000f3
:10040800030020007fb297008fba970002017200a4
:10041800838172007202890083028900720281005e
:1004280083028100880f5100898f5900e5ff3a0047
:1004380055ceb30091cf1200e2ff32003148900050
:10044800e84f5000dfff3200ef4f5000ddff320071
:1004580078159800091d9800181d9800291d980006
:10046800bb0020000000eb0000014500e1417800de
:10047800435998000000e8008b05e900faff3a00ac
:100488000100370080c5eb000b4078004f0778006b
:100498004f06be004f05be004f04be008f00b100de
:1004a800000006000600fa00889fbe008a9fbe0072
:1004b8008c9fbe0001047800ac002000e00f5000c3
:1004c8000100320008067800c10422008048eb00d1
:1004d800e00f500006003200e00f540006003a001a
:1004e800f0c1b3008048780088047800f90037002c
:1004f800c91222000100370080047800312e8100e3
:10050800a0082200cde8070031058100e0e22200c2
:10051800808f500062003a00ca058100db05810027
:1005280012002000f2b79f00ea058900fb05890048
:10053800f2805700a0082200adf40700e00f500039
:1005480027003200a00990000001eb00500890003d
:100558000100200000007100818071007002890094
:1005680081028900e00f5000e08f580002003a0035
:100578004002810051028100c0058900d10589002f
:10058800e0058900f10589008002eb00f5b79f00be
:1005980012c0b300f2805700a008220094f40700ac
:1005a800e00f50000e003200a00990000001eb009f
:1005b800500a90000500200016003700ffb397008e
:1005c8008703e800f7b79f000041eb00f28057006f
:1005d800a008220086f40700e00f500005003a004a
:1005e800b1c1b300c2042200014978008004780038
:1005f800b8003700a008900091bf9f000002eb00f0
:1006080084bf9f0050099000030020000fba970094
:100618009fba9700020172008381720072028900fa
:100628008302890072028100830281008a0f5100cf
:100638008b8f5900e1ff3a0055ceb30090cf1200de
:10064800deff3200b0489000e8cf5000dbff3200f8
:10065800efcf5000d9ff3200362e8100b3c0b3006f
:100668000041eb00650a22008200fb000102400005
:100678009443780087f278008100430014427800a0
:10068800c45898000241e8008341e900f6ff3a00a7
:10069800ca058900db058900ea058900fb05890090
:1006a800c0c5b300610a2200914f10000200320059
:1006b800e20f540049003a00c0c5b300804c7800ee
:1006c8000040eb0090449800820037008140e90028
:1006d8000100fb007c0040006b4078008d4f50000b
:1006e800faff3200e7cf5000160034000100fb008b
:1006f8007c0040006b40780080747c000804e800af
:100708008140e9008c0f540002003a000004eb001d
:100718001ac0b300e7cf5000f4ff3c0071c0b3002b
:10072800e0c2b30080747c000804e8008c0f540019
:1007380004003a000004eb001ac0b30001003700bf
:100748008140e9000100fb007c0040006b4078001c
:100758008d4f5000faff32000a0037000100fb00fd
:100768007c0040006b40780080747c000804e8003e
:100778008140e9008c0f540002003a000004eb00ad
:100788001ac0b300e0cf5000f4ff3d00c0c5b3006d
:1007980080747c000804e8008c0f540002003a00c2
:1007a8000004eb001ac0b300c0058100d105810028
:1007b800e0058900f1058900a0082200acfe0700c9
:1007c800e04f50000900320080c0b300c10422008d
:1007d800804878008004eb003e0037000004eb00fe
:1007e80008457800ab0822000dc2b300c20581009d
:1007f800d30581004002810051028100800f510021
:10080800818f590002003200a1c0b300b0ff370049
:100818000804e900e04f55001e0032008800780007
:100828000000eb0007003700008244001441780004
:1008380088814400134a7800824978000804e90056
:100848000000e800000154004240a900f6ff3c0007
:100858000c06e9000c8644008100e80009005600f7
:100868000700370001824400144178008081440069
:10087800134a7800824978000000e9008100e80006
:10088800010150004240a900f6ff3c00004eeb0079
:1008980010003700080278000000eb00070037005e
:1008a8008081440093407800088144009249780090
:1008b800014978000804e9000000e80080005400bd
:1008c8004240a900f6ff3c00848044000000eb0091
:1008d80090409800090078004f06be004f05be0002
:1008e8004f04be000080fa00000006002600fa004f
:1008f800889fbe008a1f78000004780002057800ef
:100908008004eb00e92d8900085890000080fb0066
:10091800185990004811dd00000171001840780056
:100928008080fb00184090004800dd000100700046
:1009380089007800a3bf9f00b4bf9f00c5bf9f0078
:10094800520a020000000000e0c2b300c0d79f00b6
:1009580006c2b300d6d79f00e6d79f00f6d79f0000
:1009680086df9f0096df9f00a6df9f00b6df9f000f
:10097800c6df9f00d6df9f00e6df9f0000c1b300ff
:10098800f0df9f0089e79f00fab79f00f0ff200083
:10099800afb99700008061000100200000017800d5
:1009a8006000b800c2b79f0080bf9f0091bf9f0042
:1009b800d00322001040780090e79f00f1018100e9
:1009c80091b79f0002028100a2b79f00b9b79f00ac
:1009d800d9b79f00e9b79f0000022000cfba97005f
:1009e8003fba9700984078000181fb00984090003a
:1009f800c808dd008280700042fd2f000f01410011
:100a0800e2f07c008904e8000000e900f5ff3a0004
:100a1800e1c2b300d1d79f00f4b79f00f1ff2000d7
:100a28008182620085007800c1b79f00090220001a
:100a3800984078000181fb0098409000c808dd00cc
:100a4800828070008100400042fd2f000f014100ac
:100a580062417800826098000000e8008904e9009b
:100a6800f3ff3a000a01780008007800afed0700ac
:100a7800184178000282fb00984190004819dd0077
:100a8800040171008941780024cf020001000000b0
:100a98008040780010c0b30089cf500004003a00ad
:100aa80090c0b300c20422000049780001407800d9
:100ab8004f0578004f04be000080fa0000000600d1
:100ac8000200fa00889fbe008000eb00d1bf9f00a3
:100ad8000041eb00a1082200afef0700e04f5000f3
:100ae80005003a0020c1b300c10422008048780004
:100af8000004eb004b003700302e8100701190008d
:100b080080199000c2058900d3058900101990004a
:100b1800a0199000e2058900f3058900c1082200a8
:100b28008008eb00b1107800e48040008008eb00fa
:100b3800b1107800100078005004890013002000dc
:100b480022c1b300e6805700a00822006dfa070012
:100b58000004eb00880f500032003a00a05b22002e
:100b68008041eb0090cf11000c00320011c0b3009f
:100b78006022b8000401be00500481005cf0070048
:100b8800e00f5000e08f58000400320090c0b3001e
:100b9800c10422008048780022003700c005810087
:100ba800d10581006044b8004202810053028100ef
:100bb800820f5000838f5800010032000004be00ed
:100bc800e0058900f105890012c0b300e6805700ee
:100bd800a008220006f30700e00f500005003a00c5
:100be800b1c1b300c20422000149780000047800b2
:100bf8000c003700a00b90000003eb005009900098
:100c08000300200002017300838173000802be0004
:100c18005004810035ff07000084fb000804ea0047
:100c28004f44de00080078004f04be000080fa0040
:100c3800000006000e00fa00889fbe008a9fbe00d2
:100c480001047800c9042200804ceb00a8cf020000
:100c580001000000e04f500005003a00080078004d
:100c68000002eb00e5c2b300c3c5b30007003700bc
:100c780080c1b300804c7800100037000000e80005
:100c88000402e800010037000002eb001041780080
:100c9800e04f510004003200854f5100020032003d
:100ca800834f5100f5ff3a00e80f52000500360067
:100cb800f0c1b300c1042200804878000080eb0036
:100cc800a5003700854f51000e003a000000e800eb
:100cd8000001eb00020037000000e8000201e80014
:100ce80010427800e04f520002003200834f520059
:100cf800f9ff3a00e30f510002003600ecff37001d
:100d08000000e80010417800834f5100fcff3200da
:100d1800e04f5100dcff3a00312e810040052200ef
:100d2800c6e607000bc2b3009800fb00e0022000f3
:100d3800808f500022003a00d804fb00818f5400b5
:100d480006003200e08f540017003200c005200072
:100d5800808f540014003200d5ff3700302e8100f8
:100d680080189000701090004202810053028100a8
:100d7800820f5000838f5800cdff3200d804fb004b
:100d8800c0052000808f540002003200e08f54001c
:100d9800c7ff3a00e01a2d0030fd070002003700b7
:100da800d804fb0001003700c0052000808f5400e4
:100db800fbff3200e08f5400dbff3a0039003700b8
:100dc800ca0520008a8f500017003a00302e810093
:100dd80042028100530281007210980003189800a3
:100de800121898002318980041589800a200200073
:100df8001100200081014000cb5998008100e800d3
:100e08000201e900fbff3a00d800fb00c205200000
:100e1800828f500002003200e08f5000c2ff3a007b
:100e280041052200210037009804fb00d100200072
:100e38000000eb00c20520000500370009427800d9
:100e4800f6815700847178000000e800d804fb00a0
:100e5800e08f540004003200828f540002003200f8
:100e68008100e900f5ff3a00f68057000080400055
:100e78000048eb002fe89700e1c2b300814f500013
:100e88000c003a00bfe89700e0cf5000090032009c
:100e980080cf500003003a004fe89700e04f500021
:100ea8000400320041052200302e810063e607006d
:100eb8007fff370076805700e8fc0700e00f5000fe
:100ec8000300320006003700d804fb000100370099
:100ed800c0052000808f5400fbff32001800370047
:100ee800f6805700e01122009e0a02000000000070
:100ef800e0112200f2fe0700e00f500004003a0063
:100f080041052200302e81004ce607006bff3700b8
:100f180076805700d1fc0700e00f50000600320031
:100f280041052200302e810044e60700b0c1b3001d
:100f380060ff3700d804fb00984f1500fdff320012
:100f4800e08f5400b8ff3a0041052200302e81009e
:100f58003ae60700090078004f05be004f04be00be
:100f68000080fa00000006000001eb008000780015
:100f78000040eb002fff0700000006003600fa00d3
:100f8800889fbe008a1f780000057800a8cf02005d
:100f980001000000804478000084eb00e0cf54009a
:100fa80025003a00312e810040fc2f000f00400040
:100fb80022e60700312e8100b8c0b300094178004d
:100fc8008281fb0003804000eac179004358980001
:100fd8000241e8000844e900f9ff3a00a0082200ad
:100fe80016e607008841780012c0b300a108220065
:100ff800302e810042f40700800478000084eb0062
:10100800e08f540008003a00302e81008102200051
:101018008080400012c0b300aef90700890f50006d
:1010280001003a000004780041fc2f008f80400046
:10103800302e810001e60700080078004f0578008f
:101048004f04be000080fa00000006001e00fa00ef
:10105800889fbe008a9fbe008c9fbe000104780056
:10106800034578000000eb00b0af9f00c9042200e0
:10107800804ceb00312e810040052200efe507008f
:101088000800780075fc070000047800c0c0b300b1
:10109800e00f54002b003a00302e810070119000b0
:1010a800801990004402810055028100840f51008c
:1010b800858f590005003200140481002504810041
:1010c800840f5100858f590007003a00410522001e
:1010d800dae50700f0c1b300c104220080487800b7
:1010e8000080eb007c013700bfa897008100e80072
:1010f800b1af9f0012c0b30061fd2f008f80400088
:10110800bbf10700e00f50000a0032003fa997002a
:101118000201e800b2af9f000841780061fd2f008e
:101128008f804000302e8100b1f10700e00f5000a1
:1011380006003a0041052200302e8100bfe5070075
:10114800b0c1b300804c7800e5ff3700e04f550090
:101158001200320015003700fb4f40000500320036
:1011680041052200302e8100b4e5070060c1b300bc
:10117800d9ff3700bfa997008301e800b3af9f00ec
:101188000041eb0061fd2f008f804000302e810070
:1011980097f10700e00f500011013200104078006d
:1011a800e04f5000ecff3a001901370021052200fa
:1011b800884878000806780081067800a9fd2f0085
:1011c8008f8444000ac2b3000e0137001041780032
:1011d800814f510085003200fb4f41006b00320007
:1011e80030499000ef4f51006b003200e84f51003a
:1011f80066003200f001610082c0b30007003a00c7
:1012080083407800640a22003300370083747a0030
:101218008140e8000241e900040032000182fb003d
:10122800e0417a008acf5100f8ff3a000049900067
:101238008a4f5100120032008181fb00e2c2b300e4
:1012480082f479008140e80033c0b3000041eb002c
:10125800060037008182fb0084f47a008140e800b0
:101268000241e8008341e900050032000282fb00e8
:101278006802420060427a008a4f5200f5ff3a0045
:101288008180fb00818044008048eb0009007800e1
:10129800f2fb0700e04f5000fc003a00302e8100be
:1012a80070129000801a90001204810023048100bb
:1012b800820f5200838f5a0084ff32000c06e80028
:1012c80020002000b0af9f0010c0b300515c220086
:1012d80080487800300037008181fb0060f2790097
:1012e8008140e8000241e900fbff3a00e10a2200e0
:1012f80000499000824878008100e80090499000f9
:10130800834878008100e8002048900080487800f1
:10131800600f220050048900bfaa97009505890034
:10132800302e81007011900080199000c20589004c
:10133800d305890010199000a0199000e2058900d2
:10134800f3058900c0fd2f00010040000008eb00f4
:1013580030107800640040000008eb00301078007e
:1013680012c0b30061fd2f008f804000660050005e
:10137800d8f80700e00f5000ce003a00bfa9970048
:101388008301e800b3af9f0003003700bfaa9700ae
:101398008502e800b5af9f00505c2200104178003c
:1013a800e04f51000a0032000048eb00302e810067
:1013b8007011900080199000121898002318980056
:1013c80012c0b30061fd2f008f804000030037007a
:1013d80061fd2f008f804000302e810004f107004e
:1013e800e00f500087003a007d0037000004eb0052
:1013f800880f560081003200c8af9f00302e810050
:101408007011900080199000121898002318980005
:1014180012c0b30081fd2f008f804000f4f0070058
:10142800880f50006e003200a009900093bf9f0003
:1014380088bf9f0050089000010020000fb9970056
:101448009fb997000000710081807100c0af9f00b4
:10145800e01a2d0081fb070080057800e08f550019
:101468008a003a0020002000b0af9f00302e810093
:101478007011900080199000121898002318980095
:1014880012c0b30061fd2f008f804000d8f0070024
:10149800000478008b0f540051003200a809900016
:1014a800f3b79f00ebb79f00580890000100200099
:1014b8006fb19700ffb1970013003700bfa99700dd
:1014c8008301e800b3af9f000041eb0061fd2f00ee
:1014d8008f804000302e8100c5f00700000478009e
:1014e800e00f54003e003200a80a9000d5b79f00d4
:1014f8000000eb00c0b79f005808900001002000d2
:101508004fb19700dfb19700000071008180710032
:1015180070028900810289004fa89700010020000d
:101528007202810083028100800f5100818f59006f
:10153800e2ff3a0053ceb30098cf1100dfff32002c
:1015480038489000e84f5000dcff3200c20020000d
:101558008000eb0009007800520a02000000000039
:1015680081c0b3000040eb000081fb00e874790003
:101578000040e8008140e900fbff3a00084890007d
:10158800804c980098489000914c9800284c900006
:10159800a84c98000900780078fe0700000478003d
:1015a800e00f540043003a003fa997000201e80009
:1015b800b2af9f00302e810070119000801990000a
:1015c800121898002318980012c0b30061fd2f006c
:1015d8008f80400086f00700880f500005003a0011
:1015e80041052200302e810094e40700b0c1b30009
:1015f800b9fe37000c06e9000200370011c0b3003d
:10160800814e78009d407800e0cf5000effe320018
:10161800a8fd2f000f0444002100200008007800d6
:10162800a0fb0700e00f500004003a00410522002b
:10163800302e810081e40700a9fe3700c200200097
:101648008000eb0008007800520a02000000000049
:10165800332e8100b2c0b3008040eb000180fb0054
:101668007c02400063427a00047478008140e800fc
:101678000241e900f9ff3a00e01a2d00f7fa0700e5
:1016880080047800e08f54000500320041052200f4
:10169800302e810069e40700c0c0b3008efe370019
:1016a8000800780035fe070000047800890f540010
:1016b8000500320041052200302e81005fe407005a
:1016c80010c0b30084fe370041052200302e81008f
:1016d8005ae40700080078004f06be004f05be0018
:1016e8004f04be000080fa00000006008141780027
:1016f8000001eb00800078000040eb0053fe07007b
:1017080000000600af03b000889fbe008a9fbe009d
:101718008e1f7800000578008104780002047800a4
:10172800cb0422000047eb008e4d780012c0b300b6
:1017380001fc2f008f8040000a007800f5ec0700bc
:10174800004178008e4f510003003a0020c1b300d9
:10175800804d7800930037002e6c9800c3c0b3000a
:101768000e41780005003700000044000458980036
:101778000241e8008341e9000a0032000280fb00d0
:101788006a427800e04f5200f7ff3a000500370040
:101798000280fb0000004400780040000048eb0095
:1017a8000241e800ec4f5100f9ff360059649800f7
:1017b800342e81007411900084199000321498001e
:1017c80043149800eefb2f000f074700600f22001c
:1017d800002f78006000b8001007980021079800d3
:1017e80030079800410798000000eb004017980068
:1017f8006917980072179800031f98001418900032
:10180800a4189000101f9800211f98008e007800df
:10181800a008220009e4070013c0b30003417800c0
:10182800a10822000e00780035f207008004780035
:10183800b0c0b300e08f540058003a00ce109000ba
:10184800f19f9f0022c7b300e1fb2f008f8040006b
:101858000e007800bcf10700890f50004e003a00d6
:10186800d1c0b3000081fb00020144000049eb0035
:101878000040e8008140e900faff3a0003fc2f002d
:101888008f81410063109000e80f500009003a0072
:10189800b0c0b300270037000083fb0004747b004e
:1018a8000040e8008140e8000241e90005003a00f4
:1018b8000900370082c0b3000140780080407800fa
:1018c80005c2b3000182fb007c02420063427a0039
:1018d800854f5200f0ff3a004fe1970001c2b30074
:1018e800814f51001a0032000082fb00e3c2b300ae
:1018f80003747a000040e8008081fb0002f479005c
:101908000040e8005fe19700814f5100100032006d
:101918008081fb0002f479000040e8006fe1970045
:10192800814f51000a0032000080fb0002747800e9
:10193800070037000181fb007c02410063427a0006
:10194800047479008140e8000040e900f9ff3a009a
:101958004fe99700524c98001fa89700afa897002e
:1019680070049800010c9800dfa897000000eb00b5
:101978004fa9970002014000e0814800120c98002e
:10198800230c98004fb19700320c980012c0b30096
:10199800226c980004003700b0c1b300c1042200d3
:1019a800804878000080eb004f0778004f05be00a4
:1019b8004f04be00af03b100000006003600fa0075
:1019c800889fbe0000047800c9042200804ceb0008
:1019d80028689000e04f500002003a0070c0b30041
:1019e8000900370038119000c8119000302e81008e
:1019f8008018900070109000800f5100818f59005e
:101a080004003200f0c1b300804c78000080eb0085
:101a1800790037007800440012c0b30061fc2f0041
:101a28008f8040003bec0700e04f500002003a0076
:101a380020c1b300f4ff3700600f2200b0a79f0059
:101a48006000b800c0a79f00d1a79f00e0a79f0033
:101a5800f1a79f00380890000000e800f0b79f0049
:101a6800586090000080fb0090bf9f00302e8100de
:101a78007011900080199000a2bf9f00b3bf9f0013
:101a8800101a9000a01a9000c4bf9f00d5bf9f00f5
:101a980061fc2f008f804000a008220067e3070048
:101aa80013c0b30003417800a108220060fc2f0096
:101ab8000f00400092f10700d1c0b300e00f5000c2
:101ac80002003200b0c0b300cfff37000081fb0036
:101ad800020144000049eb000040e8008140e900b1
:101ae800faff3a001fb89700e80f500009003a00c3
:101af800b0c0b300280037008082fb0003f47a00ee
:101b08000040e8008140e8000241e90004003a0092
:101b18000a00370082c0b3000140780004c2b30055
:101b28008181fb00fc81410065fc2f008f8242000f
:101b3800e5c1790084cf5100efff3a002fe9970003
:101b480001c2b300814f51001c0032000082fb002b
:101b5800e3c2b30003747a000040e8008081fb0010
:101b680002f479000040e8003fe99700814f5100f6
:101b7800120032008081fb0002f479000040e80086
:101b88004fe99700814f51000c0032000080fb00a4
:101b980002747800090037000181fb00fc01410054
:101ba80064fc2f000f024200e4c17900037479003d
:101bb8008140e8000040e900f7ff3a00aff29700e3
:101bc800554c98004fa89700dfa89700700498001c
:101bd800010c98008fb097000000eb007fa99700d8
