:020000040000fa
:080000000002040000000000f2
:020000040000fa
:100400000f5921000eff27000e0188000000000098
:100410000c00070020962900010020000f000700b3
:10042000000020000000e000020032000000020096
:1004300000000000da9a0200000000000040da002c
:100440000000fe00a0db22000000e00002003200fd
:10045000002020009001880000000600a102880012
:10046000800078000000eb001a003700e2804000b6
:1004700054a0b4009101ba00e280400054a0b4003e
:100480009102ba00e280400054a0b4000002eb00e8
:10049000472bde00f507b200a6018800602ce100c2
:1004a00008003a000049eb000201e80002003900b0
:1004b0003420ec0002f0a0008301e900f9ff3e00c7
:1004c000040037006128e100010032000082eb00e7
:1004d000040007001101ba000200e000e3ff3a0047
:1004e0000000060004d0a300e20f49001c00390000
:1004f000810278003549ba000201e80002003900a3
:100500003420ec0002f0a0008301e9000f0032006b
:100510002549ba000201e800020039003420ec004d
:1005200002f0a0008301e900080032000400e000ae
:100530000600320015c9ba000201e80002003900c5
:100540003420ec0002f0a0008301e9008180e80083
:1005500054a0b4000300e000e2ff3a0000000600ef
:100560009102ba00055978008301e900f7ff3200d3
:10057000c82ade00055978008301e900f3ff320044
:100580000400e000f1ff320011d9ba00eeff37009d
:10059000e2820400000000000e820400000000005f
:1005a0005285040000000000c87104000000000033
:1005b000366f040000000000f87404000000000022
:1005c000668d040000000000328d04000000000071
:1005d000de68040000000000f06704000000000076
:1005e000ce6e040000000000d6670400000000008a
:1005f000c4890400000000002487040000000000fb
:100600002688040000000000889fbe008a1f780032
:1006100000057800b94e8000e08f540005003a00d4
:10062000090078000f0007000084eb00890f5000dc
:1006300008003500b84e8000e00f5500050032007c
:100640000a00440007000700e00f500001003d00d1
:100650000084eb00080078004f0578004f04be00ce
:1006600000000600e00f500004003a00819d2000c9
:10067000b14e880080007800060037008080eb00d3
:1006800002592100820f500002003e00b04e880047
:100690008000eb000100780000000600020ab900ab
:1006a000001bb9000200b800810042008100430035
:1006b000000006006022b800060220000000d00002
:1006c0008180d2000482d2008582d2000000a00086
:1006d0000202520083825a000300310002024200eb
:1006e00083824a000000a1000603e900f3ff3a00fc
:1006f00000000600839f68000100e00002003d004a
:1007000060001000e08018000300e00002003d00df
:1007100060011100e0811900e6ff07004f00e000d2
:1007200002003b0060001000e0801800000006009e
:10073000e8874700889fbe008a9fbe008c9fbe004e
:100740008e1f780081972000c24b8000e00f51007f
:100750000b003a0064814000c24b8800124c8800b4
:10076000a1009800014c8800214190000204a000e3
:10077000a2409800614190000204a000e24098006d
:10078000670440004244de004244dd00004c80002b
:100790008e9d2000095921008e84540026002000df
:1007a000801f7800110009008604d800000378003b
:1007b0004f0078008880e800818240008001eb00d3
:1007c0006146b800345921000e025200080242006e
:1007d000010037000a007800a0409000e18060002e
:1007e000020032000a003700120878001001780079
:1007f000a2409000e1806000fbff320088004000d2
:10080000810f510002003900e00f540049003d0003
:1008100010057800800f5500eeff3e008e0f55004a
:100820000300390081972000810f5500e9ff39004e
:10083000114c8000810f50004f003a00809720003b
:10084000800f55004c003a008301e800e18f510011
:10085000e0ff3600860f540002003600890f540076
:100860000d0039006148b900b2ff2f0003002000dd
:100870000000510081805900800f5600818f5e007a
:1008800007003d00110009000982d8000980b90065
:1008900080057800030037008505780001003700e7
:1008a000880578000b00780084bf9f00e5b79f00a3
:1008b000f6b79f0054ff07000fba9700efb29700fa
:1008c0007fb39700e10f40002b003200114c8000f5
:1008d00080087800114c8000e481400021419000a4
:1008e000830f5000020032000204a0000100370014
:1008f0000204a100a2409800e48555008b05400049
:100900000b0878001b4c880081972000810d78002f
:10091000124c8000a24090000104a00021419800e8
:10092000a04090000104a100214098008001eb004c
:10093000a8ff3700014c8800810f510007003600e6
:100940001101be00224c8800334c880090087800ca
:10095000024c80008000eb0021419800034c800095
:1009600003087800a04090000104a00021409800f6
:1009700064004000010037000000eb004f077800e2
:100980004f06be004f05be004f04be008f00b100f1
:100990000000060064005000004c8800a040900059
:1009a0000104a1002140980000000600889fbe00bd
:1009b0008a9fbe008004780001047800648154009e
:1009c0009205780069f99700610161000200320028
:1009d00009007800efff07000800780054ff0700c7
:1009e00000047800e00f54001b003200890f54000f
:1009f0001900320068bd97000805550042d5de0099
:100a0000098055004280de000a017800800f550001
:100a100001003600000178004211dd000800be0030
:100a200011000700890f54000b0031004255dd0012
:100a30000a054400890f5500070036008904550057
:100a4000c2ccde00c24cdd0089044400204c800092
:100a5000314c8000808cbe00080078004f05be003d
:100a60004f04be000000060080017800020037003d
:100a7000b15978000201e900e00f5100fcff3a0093
:040a8000000006006c
:020000040000fa
:020000040005f5
:0457f400ffef0000c3
:020000040000fa
:020000040005f5
:0457f800ae1b0000e4
:020000040000fa
:020000040005f5
:0457fc007f3e0000ec
:020000040000fa
:10000800089900001a9900002c9900003e990000f8
:10001800509900000899000008990000089900000c
:100028000899000008990000089900000899000044
:100038000899000008990000089900000899000034
:100048000899000008990000089900000899000024
:100058000899000008990000089900000899000014
:100068000899000008990000089900000899000004
:1000780008990000089900000899000008990000f4
:10008800089900000899000008990000e698000007
:1000980008990000089900000899000008990000d4
:1000a80008990000089900000899000008990000c4
:1000b80008990000089900000899000008990000b4
:1000c80008990000089900000899000008990000a4
:1000d8000899000008990000089900000899000094
:1000e8000899000008990000089900000899000084
:1000f8000899000008990000089900000899000074
:100108000899000008990000089900000899000063
:100118000899000008990000089900000899000053
:100128000899000008990000089900000899000043
:100138000899000008990000089900000899000033
:100148000899000008990000089900000899000023
:100158000899000008990000089900000899000013
:100168000899000008990000089900000899000003
:1001780008990000089900000899000008990000f3
:1001880008990000089900000899000008990000e3
:1001980008990000089900000899000008990000d3
:1001a80008990000089900000899000008990000c3
:1001b800884f00000899000008990000089900007d
:1001c80008990000089900000899000008990000a3
:1001d8000899000008990000089900000899000093
:1001e8000899000008990000089900000899000083
:0801f8000899000008990000bd
:020000040000fa
:10020800089900001a9900002c9900003e990000f6
:10021800509900000899000008990000089900000a
:100228000899000008990000089900000899000042
:100238000899000008990000089900000899000032
:100248000899000008990000089900000899000022
:100258000899000008990000089900000899000012
:100268000899000008990000089900000899000002
:1002780008990000089900000899000008990000f2
:10028800089900000899000008990000e698000005
:1002980008990000089900000899000008990000d2
:1002a80008990000089900000899000008990000c2
:1002b80008990000089900000899000008990000b2
:1002c80008990000089900000899000008990000a2
:1002d8000899000008990000089900000899000092
:1002e8000899000008990000089900000899000082
:1002f8000899000008990000089900000899000072
:100308000899000008990000089900000899000061
:100318000899000008990000089900000899000051
:100328000899000008990000089900000899000041
:100338000899000008990000089900000899000031
:100348000899000008990000089900000899000021
:100358000899000008990000089900000899000011
:100368000899000008990000089900000899000001
:1003780008990000089900000899000008990000f1
:1003880008990000089900000899000008990000e1
:1003980008990000089900000899000008990000d1
:1003a80008990000089900000899000008990000c1
:1003b800884f00000899000008990000089900007b
:1003c80008990000089900000899000008990000a1
:1003d8000899000008990000089900000899000091
:1003e8000899000008990000089900000899000081
:0803f8000899000008990000bb
:020000040000fa
:100a84000000000048050000000100000004000010
:100a94002d0000007e00000041180000a23000007c
:100aa40061500000008800006539000000b80000b3
:100ab40000e0000000f80000cb620000b29c0000df
:100ac40079ce00003ce70000def70000bfff000025
:100ad400feff0000ffff0000ffff0000efcc00005e
:100ae400edfc0000cffc0000eeed0000ccde0000c9
:100af400cfff0000ffff0000ffff0000ffff00002a
:100b0400ffff0000ffff0000ffff0000ffff0000e9
:100b1400ffff0000ffff0000ffff0000ffff0000d9
:100b2400ffff0000ffff0000ffff0000ffff0000c9
:100b3400ffff0000ffff0000ffff0000ffff0000b9
:100b4400ffff0000ffff0000ffff0000ffff0000a9
:100b5400ffff0000ffff0000ffff0000ffff000099
:100b6400ffff0000ffff0000ffff0000ffff000089
:100b7400ffff0000ffff0000ffff0000ffff000079
:100b8400ffff0000ffff0000ffff0000ffff000069
:100b9400ffff0000ffff0000ffff0000ffff000059
:100ba400ffff0000ffff0000ffff0000ffff000049
:100bb400ffff0000ffff0000ffff0000ffff000039
:100bc400ffff0000ffff0000ffff0000ffff000029
:100bd400ffff0000ffff0000ffff0000ffff000019
:100be400ffff0000ffff0000ffff0000ffff000009
:100bf400ffff0000ffff0000ffff0000ffff0000f9
:100c0400ffff0000ffff0000ffff0000ffff0000e8
:100c1400ffff0000ffff0000ffff0000ffff0000d8
:100c2400ffff0000ffff0000ffff0000ffff0000c8
:100c3400ffff0000ffff0000ffff0000ffff0000b8
:100c4400ffff0000ffff0000ffff0000ffff0000a8
:100c5400fffc0000ffff0000ffff0000ffff00009b
:100c6400ffff0000ffff0000ffff0000ffff000088
:100c7400ffff0000ffff0000ffff0000ffff000078
:100c8400ffff0000ffff0000ffff0000ffff000068
:100c9400ffff0000ffff0000ffff0000ffff000058
:100ca400ffff0000ffff0000ffff0000ffff000048
:100cb400ffff0000ffff0000ffff0000ffff000038
:100cc400ffff0000ffff0000ffff0000ffff000028
:100cd400feff0000ffff0000ffff0000ffff000019
:100ce400ffff0000ffff0000ffff0000fffd00000a
:100cf400cffe0000dcff0000ffff0000ffff00004c
:100d0400ffff0000ffff0000ffff0000ffff0000e7
:100d1400ffff0000ffff0000ffff0000ffff0000d7
:100d2400ffff0000ffff0000ffff0000ffff0000c7
:100d3400ffff0000ffff0000ffff0000ffff0000b7
:100d4400ffff0000ffff0000ffff0000ffff0000a7
:100d5400ffff0000ffff0000ffff0000ffff000097
:100d6400ffff0000ffff0000ffff0000fffc00008a
:100d7400dfcf0000ccfc0000ffff0000ffff0000fd
:100d8400ffff0000ffff0000ffff0000ffff000067
:100d9400ffff0000ffff0000ffff0000ffff000057
:100da400ffff0000ffff0000ffff0000ffff000047
:100db400ffff0000ffff0000ffff0000ffff000037
:100dc400ffff0000ffff0000ffff0000fdff000029
:100dd400ffff0000ffff0000ffff0000ffff000017
:100de400ffff0000ffff0000ffff0000ffff000007
:100df400ffff0000ffff0000ffff0000ffff0000f7
:100e0400ffff0000ffff0000ffff0000ffff0000e6
:100fe400fffa0000ffff0000ffff0000ffff00000a
:100ff400ffbf0000faff0000ffff0000ffff00003a
:10100400ffff0000ffff0000ffff0000ffff0000e4
:10101400ffff0000ffff0000ffff0000ffff0000d4
:10102400ffff0000ffff0000ffff0000ffff0000c4
:10103400ffff0000ffff0000ffff0000ffff0000b4
:10104400ffff0000ffff0000ffff0000ffff0000a4
:10105400ffff0000ffff0000ffff0000ff4a000049
:10106400f4ff0000ffff0000ffff0000ff9a0000f4
:1010740001f40000ffff0000ffff0000ffff00007d
:10108400ffff0000ffff0000ffff0000ffff000064
:10109400ffff0000ffff0000ffff0000ffff000054
:1010a400ffff0000ffff0000ffff0000ffff000044
:1010b400ffff0000ffff0000ffff0000ffff000034
:1010c400ffff0000ffff0000ffff0000ffff000024
:1010d400ffff0000ffff0000ff8b000002f900008b
:1010e400ffff0000ffff00009b0800003215000016
:1010f400fbff0000ffff0000ffff0000ffff0000f8
:10110400ffff0000ffff0000ffff0000ffff0000e3
:10111400ffff0000ffff0000ffff0000ffff0000d3
:10112400ffff0000ffff0000ffff0000ffff0000c3
:10113400ffff0000ffff0000ffff0000ffff0000b3
:10114400ffff0000ffff0000ffff0000ffff0000a3
:10115400ffff0000ff9c000030160000ffff0000ae
:10116400ffaf0000192000006377000092ff000029
:10117400ffff0000ffff0000ffff0000ffff000073
:10118400ffff0000ffff0000ffff0000ffff000063
:10119400ffff0000ffff0000ffff0000ffff000053
:1011a400ffff0000ffff0000ffff0000ffff000043
:1011b400ffff0000ffff0000ffff0000fdff000035
:1011c400ffff0000ffff0000ffff0000ffff000023
:1011d400ff9f00003076000092ff0000bf890000ee
:1011e400206300007777000037f80000ffff00005d
:1011f400ffff0000ffff0000ffff0000ffff0000f3
:10120400ffff0000ffff0000ffff0000ffff0000e2
:10121400ffff0000ffff0000ffff0000ffff0000d2
:10122400ffff0000ffff0000ffff0000ffff0000c2
:10123400ffff0000ffff0000ffff0000ffff0000b2
:10124400ffff0000ffff0000ffff0000ffaf0000f2
:101254002476000067f100009a0100003276000055
:101264007777000077450000ffff0000ffff0000d4
:10127400ffff0000ffff0000ffff0000ffff000072
:10128400ffff0000ffff0000ffff0000ffff000062
:10129400ffff0000ffff0000ffff0000ffff000052
:1012a400ffff0000ffff0000ffff0000ffff000042
:1012b400ffff0000ffff0000ffff0000ffff000032
:1012c400ffff0000ffff0000ffbf000028750000c3
:1012d400772700000032000076770000777700005f
:1012e40077670000b1ff0000ffff0000ffff000070
:1012f400ffff0000ffff0000ffff0000ffff0000f2
:10130400ffff0000ffff0000ffff0000ffff0000e1
:10131400ffff0000ffff0000ffff0000ffff0000d1
:10132400ffff0000ffff0000ffff0000ffff0000c1
:10133400ffff0000ffff0000ffff0000ffff0000b1
:10134400ffff0000ffcf0000097300007777000063
:101354003763000077770000777700007777000025
:1013640027f90000ffff0000ffff0000ffff00005f
:10137400ffff0000ffff0000ffff0000ffff000071
:10138400ffff0000ffff0000ffff0000ffff000061
:10139400ffff0000ffff0000ffff0000ffff000051
:1013a400ffff0000ffff0000ffff0000ffff000041
:1013b400ffff0000ffff0000ffff0000ffff000031
:1013c400ffff0000096300007777000077770000d3
:1013d4007777000077770000777700007783000045
:1013e400ffff0000ffff0000ffff0000ffff000001
:1013f400ffff0000ffff0000ffff0000ffff0000f1
:10140400ffff0000ffff0000ffff0000ffff0000e0
:10141400ffff0000ffff0000ffff0000ffff0000d0
:10142400ffff0000ffff0000ffff0000ffff0000c0
:10143400ffff0000ffff0000ffff0000ffff0000b0
:101444004a62000077770000777700007777000022
:10145400777700007777000077570000f4ff0000eb
:10146400ffff0000ffff0000ffff0000ffff000080
:10147400ffff0000ffff0000ffff0000ffff000070
:10148400ffff0000ffff0000ffff0000ffff000060
:10149400ffff0000ffff0000ffff0000ffff000050
:1014a400ffff0000ffff0000ffff0000ffff000040
:1014b400ffff0000ffff0000ffff00008b52000051
:1014c4007777000077770000777700007777000060
:1014d400777700007777000016fb0000ffff00001d
:1014e400ffff0000ffff0000ffff0000ffff000000
:1014f400ffff0000ffff0000ffff0000ffff0000f0
:10150400ffff0000ffff0000ffff0000ffff0000df
:10151400ffff0000ffff0000ffff0000ffff0000cf
:10152400ffff0000ffff0000ffff0000ffff0000bf
:10153400ffff0000ffff00009c30000077770000f1
:1015440077770000777700007777000077770000df
:101554007777000077920000ffff0000ffff000094
:10156400ffff0000ffff0000ffff0000ffff00007f
:10157400ffff0000ffff0000ffff0000ffff00006f
:10158400ffff0000ffff0000ffff0000ffff00005f
:10159400ffff0000ffff0000ffff0000ffff00004f
:1015a400ffff0000ffff0000ffff0000ffff00003f
:1015b400ffff00009f30000076770000777700007f
:1015c400777700007777000077770000777700005f
:1015d40077370000f8ff0000ffff0000ffff000066
:1015e400ffff0000ffff0000ffff0000ffff0000ff
:1015f400ffff0000ffff0000ffff0000ffff0000ef
:10160400ffff0000ffff0000ffff0000ffff0000de
:10161400ffff0000ffff0000ffff0000ffff0000ce
:10162400ffff0000ffff0000ffff0000ffff0000be
:10163400ff8f000051770000777700007777000074
:1016440077770000777700007777000077770000de
:1016540027f90000ffff0000ffff0000ffff00006c
:10166400ffff0000ffff0000ffff0000ffff00007e
:10167400ffff0000ffff0000ffff0000ffff00006e
:10168400ffff0000ffff0000ffff0000ffff00005e
:10169400ffff0000ffff0000ffff0000ffff00004e
:1016a400ffff0000ffff0000ffff0000ffff00003e
:1016b400ff4a000062770000777700007777000028
:1016c400777700007777000077770000776700006e
:1016d400a1ff0000ffff0000ffff0000ffff00006c
:1016e400ffff0000ffff0000ffff0000ffff0000fe
:1016f400ffff0000ffff0000ffff0000ffff0000ee
:10170400ffff0000ffff0000ffff0000ffff0000dd
:10171400ffff0000ffff0000ffff0000ffff0000cd
:10172400ffff0000ffff0000ffff0000ffff0000bd
:10173400ff090000627700007777000077770000e8
:10174400777700007777000077770000774500000f
:10175400fcff0000ffff0000ffff0000ffff000090
:10176400ffff0000ffff0000ffff0000ffff00007d
:10177400ffff0000ffff0000ffff0000ffff00006d
:10178400ffff0000ffff0000ffff0000ffff00005d
:10179400ffff0000ffff0000ffff0000ffff00004d
:1017a400ffff0000ffff0000ffff0000ffff00003d
:1017b400cf09000073770000777700007777000087
:1017c40077770000777700007777000037f800001c
:1017d400ffff0000ffff0000ffff0000ffff00000d
:1017e400ffff0000ffff0000ffff0000ffff0000fd
:1017f400ffff0000ffff0000ffff0000ffff0000ed
:10180400ffff0000ffff0000ffff0000ffff0000dc
:10181400ffff0000ffff0000ffff0000ffff0000cc
:10182400ffff0000ffff0000ffff0000ffff0000bc
:10183400bf18000075770000777700007777000005
:1018440077770000777700007777000092ff000039
:10185400ffff0000ffff0000ffff0000ffff00008c
:10186400ffff0000ffff0000ffff0000ffff00007c
:10187400ffff0000ffff0000ffff0000ffff00006c
:10188400ffff0000ffff0000ffff0000ffff00005c
:10189400ffff0000ffff0000ffff0000ffff00004c
:1018a400ffff0000ffff0000ffff0000ffff00003c
:1018b400af24000076770000776700007677000099
:1018c400777700007777000077160000faff0000b2
:1018d400ffff0000ffff0000ffff0000ffff00000c
:1018e400ffff0000ffff0000ffff0000ffff0000fc
:1018f400ffff0000ffff0000ffff0000ffff0000ec
:10190400ffff0000ffff0000ffff0000ffff0000db
:10191400ffff0000ffff0000ffff0000ffff0000cb
:10192400ffff0000ffff0000ffff0000ffff0000bb
:101934009f20000076770000171000005277000007
:10194400777700007777000057c40000ffff00009e
:10195400ffff0000ffff0000ffff0000ffff00008b
:10196400ffff0000ffff0000ffff0000ffff00007b
:10197400ffff0000ffff0000ffff0000ffff00006b
:10198400ffff0000ffff0000ffff0000ffff00005b
:10199400ffff0000ffff0000ffff0000ffff00004b
:1019a400ffff0000ffff0000ffff0000ffff00003b
:1019b4009c30000077570000a44900002063000019
:1019c400777700007777000083ff0000ffff0000b7
:1019d400ffff0000ffff0000ffff0000ffff00000b
:1019e400ffff0000ffff0000ffff0000ffff0000fb
:1019f400ffff0000ffff0000ffff0000ffff0000eb
:101a0400ffff0000ffff0000ffff0000ffff0000da
:101a1400ffff0000ffff0000fffe0000ffff0000cb
:101a2400ffff0000ffff0000ffff0000ffff0000ba
:101a34008b51000077a10000ff9b000008210000eb
:101a44007577000077270000f9ff0000ffff000012
:101a5400ffff0000ffff0000ffff0000ffff00008a
:101a6400ffff0000ffff0000ffff0000ffff00007a
:101a7400ffff0000ffff0000ffff0000ffff00006a
:101a8400ffff0000ffff0000ffff0000ffff00005a
:101a9400ffff0000ffff0000ffff0000ffff00004a
:101aa400ffff0000ffff0000ffff0000ffff00003a
:101ab4004a62000045ff0000ffff00009a04000096
:101ac4003276000067a10000ffff0000ffff000066
:101ad400ffff0000ffff0000ffff0000ffff00000a
:101ae400ffff0000ffff0000ffff0000ffff0000fa
:101af400ffff0000ffff0000ffff0000ffff0000ea
:101b0400ffff0000ffff0000ffff0000ffff0000d9
:101b1400ffff0000fffd0000ffff0000ffff0000cb
:101b2400ffff0000ffff0000ffff0000ffff0000b9
:101b340009020000faff0000ffff0000bf89000057
:101b44001052000045fc0000ffff0000ffff0000f2
:101b5400ffff0000ffff0000ffff0000ffff000089
:101b6400ffff0000ffff0000ffff0000ffff000079
:101b7400ffff0000ffff0000ffff0000ffff000069
:101b8400ffff0000ffff0000ffff0000ffff000059
:101b9400ffff0000ffff0000ffff0000ffff000049
:101ba400ffff0000ffff0000ffff0000ffcf000069
:101bb40009f40000ffff0000ffff0000ffaf00007a
:101bc40049000000f8ff0000ffff0000ffff0000d5
:101bd400ffff0000ffff0000ffff0000ffff000009
:101be400ffff0000ffff0000ffff0000ffff0000f9
:101bf400ffff0000ffff0000ffff0000ffff0000e9
:101c0400ffff0000ffff0000ffff0000ffff0000d8
:101c1400ffff0000ffff0000ffff0000ffff0000c8
:101c2400ffff0000ffff0000ffff0000ffbf0000f8
:101c3400f9ff0000ffff0000ffff0000ffff0000ae
:101c44009bf90000ffff0000ffff0000ffff000002
:101c5400ffff0000ffff0000ffff0000ffff000088
:101c6400ffff0000ffff0000ffff0000ffff000078
:101c7400ffff0000ffff0000ffff0000ffff000068
:101c8400ffff0000ffff0000ffff0000ffff000058
:101c9400ffff0000ffff0000ffff0000ffff000048
:101ca400ffff0000ffff0000ffff0000ffcc00006b
:101cb400ffff0000ffff0000ffff0000ffff000028
:101cc400ffff0000ffff0000ffff0000ffff000018
:101cd400ffff0000ffff0000ffff0000ffff000008
:101ce400ffff0000ffff0000ffff0000ffff0000f8
:101cf400ffff0000ffff0000ffff0000ffff0000e8
:101d0400ffff0000ffff0000ffff0000ffff0000d7
:101d1400ffff0000ffff0000ffff0000ffff0000c7
:101d2400ffff0000ffff0000ffcc0000bbfc000031
:101d3400ffff0000ffff0000ffff0000ffff0000a7
:101d4400ffff0000ffff0000ffff0000ffff000097
:101d5400ffff0000ffff0000ffff0000ffff000087
:101d6400ffff0000ffff0000ffff0000ffff000077
:1020f400ffff0000ffff0000ffff0000ff000000e3
:10210400000000008810000000010000000400002e
:102114002d0000007e000000201000008228000036
:1021240082300000615000000098000000c00000f0
:10213400e749000000e8000000f800007194000086
:1021440079ce00005def0000def70000bfff000065
:10215400feff0000ffff0000ffff0000ffff000084
:10216400ffff0000ffff0000ffff0000ffff000073
:10217400ffff0000ffff0000ffff0000ffff000063
:10218400ffff0000ffff0000ffff0000ffff000053
:10219400ffff0000ffff0000ffff0000ffff000043
:10252400ffff0000ffff0000bccb0000fcff000029
:10253400ffff0000ffff0000ffff0000ffff00009f
:10254400ffff0000ffff0000ffff0000ffff00008f
:10255400ffff0000ffff0000ffff0000ffff00007f
:10256400ffff0000ffff0000ffff0000ffff00006f
:10257400ffff0000ffff0000ffff0000ffff00005f
:10258400ffff0000ffff0000ffff0000ffff00004f
:10259400ffff0000ffff0000ffff0000ffff00003f
:1025a400ffff0000ffcf0000fcff0000ffff000062
:1025b400ffff0000ffff0000ffff0000ffff00001f
:1025c400ffff0000ffff0000ffff0000ffff00000f
:1025d400ffff0000ffff0000ffff0000ffff0000ff
:1025e400ffff0000ffff0000ffff0000ffff0000ef
:1025f400ffff0000ffff0000ffff0000ffff0000df
:10260400ffff0000ffff0000ffff0000ffff0000ce
:10261400ffff0000ffff0000ffff0000ffff0000be
:10262400ffff0000ffff0000ffff0000ffff0000ae
:10263400ffff0000ffff0000ffff0000ffff00009e
:10264400ffff0000ffff0000ffff0000ffff00008e
:10265400ffff0000ffff0000ffff0000ffff00007e
:10266400ffff0000ffff0000ffff0000ffff00006e
:10267400ffff0000ffff0000ffff0000ffff00005e
:10268400ffff0000ffff0000ffff0000ffff00004e
:10269400ffaa0000ffff0000ffff0000ffff000093
:1026a400ffff0000faff0000ffff0000ffff000033
:1026b400ffff0000ffff0000ffff0000ffff00001e
:1026c400ffff0000ffff0000ffff0000ffff00000e
:1026d400ffff0000ffff0000ffff0000ffff0000fe
:1026e400ffff0000ffff0000ffff0000ffff0000ee
:1026f400ffff0000ffff0000ffff0000ffff0000de
:10270400ffff0000ffff0000ffff0000ffff0000cd
:1027140006910000f9ff0000ffff0000ffff00002a
:10272400ff160000f9ff0000ffff0000ffff00009c
:10273400ffff0000ffff0000ffff0000ffff00009d
:10274400ffff0000ffff0000ffff0000ffff00008d
:10275400ffff0000ffff0000ffff0000ffff00007d
:10276400ffff0000ffff0000ffff0000ffff00006d
:10277400ffff0000ffff0000ffff0000ffff00005d
:10278400ffff0000ffff0000ffff0000ff6c0000e0
:102794004403000096fa0000ffff0000ffff000062
:1027a4000a630000faff0000ffff0000ffff0000c3
:1027b400ffff0000ffff0000ffff0000ffff00001d
:1027c400ffff0000ffff0000ffff0000ffff00000d
:1027d400ffff0000ffff0000ffff0000ffff0000fd
:1027e400ffff0000ffff0000ffff0000ffff0000ed
:1027f400ffff0000ffff0000ffff0000ffff0000dd
:10280400ffff0000ffff0000ffff0000af720000a9
:102814007834000010990000ffff0000ff6f0000f3
:1028240054610000fbff0000ffff0000ffff0000f9
:10283400ffff0000ffff0000ffff0000ffff00009c
:10284400ffff0000ffff0000ffff0000ffff00008c
:10285400ffff0000ffff0000ffff0000ffff00007c
:10286400ffff0000ffff0000ffff0000ffff00006c
:10287400ffff0000ffff0000ffff0000ffff00005c
:10288400ffff0000ffff0000ffff00003988000089
:102894008878000034600000a9ff0000af820000c7
:1028a40048900000ffff0000ffff0000ffff000052
:1028b400ffff0000ffff0000ffff0000ffff00001c
:1028c400ffff0000ffff0000ffff0000ffff00000c
:1028d400ffff0000ffff0000ffff0000ffff0000fc
:1028e400ffff0000ffff0000ffff0000ffff0000ec
:1028f400ffff0000ffff0000ffff0000ffff0000dc
:10290400ffff0000ffff0000ff6f0000848800004d
:10291400888800004703000091f900004688000001
:1029240037910000ffff0000ffff0000ffff0000e1
:10293400ffff0000ffff0000ffff0000ffff00009b
:10294400ffff0000ffff0000ffff0000ffff00008b
:10295400ffff0000ffff0000ffff0000ffff00007b
:10296400ffff0000ffff0000ffff0000ffff00006b
:10297400ffff0000ffff0000ffff0000ffff00005b
:10298400ffff0000ffff0000cf76000088880000f2
:10299400888800008847000003260000888800001b
:1029a40037a60000ffff0000ffff0000ffff00004c
:1029b400ffff0000ffff0000ffff0000ffff00001b
:1029c400ffff0000ffff0000ffff0000ffff00000b
:1029d400ffff0000ffff0000ffff0000ffff0000fb
:1029e400ffff0000ffff0000ffff0000ffff0000eb
:1029f400ffff0000ffff0000ffff0000ffff0000db
:102a0400ffff0000ffff00002a8700008888000005
:102a140088880000887800004487000088880000c7
:102a240015b60000ffff0000ffff0000ffff0000dd
:102a3400ffff0000ffff0000ffff0000ffff00009a
:102a4400ffff0000ffff0000ffff0000ffff00008a
:102a5400ffff0000ffff0000ffff0000ffff00007a
:102a6400ffff0000ffff0000ffff0000ffff00006a
:102a7400ffff0000ffff0000ffff0000ffff00005a
:102a8400ffff0000ff9f000083880000888800008b
:102a940088880000888800008888000088880000f2
:102aa40004f90000ffff0000ffff0000ffff00002b
:102ab400ffff0000ffff0000ffff0000ffff00001a
:102ac400ffff0000ffff0000ffff0000ffff00000a
:102ad400ffff0000ffff0000ffff0000ffff0000fa
:102ae400ffff0000ffff0000ffff0000ffff0000ea
:102af400ffff0000ffff0000ffff0000ffff0000da
:102b0400ffff0000ff46000088880000888800005e
:102b14008888000088880000888800008878000081
:102b240013f90000ffff0000ffff0000ffff00009b
:102b3400ffff0000ffff0000ffff0000ffff000099
:102b4400ffff0000ffff0000ffff0000ffff000089
:102b5400ffff0000ffff0000ffff0000ffff000079
:102b6400ffff0000ffff0000ffff0000ffff000069
:102b7400ffff0000ffff0000ffff0000ffff000059
:102b8400ffff00006c870000888800008888000030
:102b94008888000088880000888800008878000001
:102ba40063fa0000ffff0000ffff0000ffff0000ca
:102bb400ffff0000ffff0000ffff0000ffff000019
:102bc400ffff0000ffff0000ffff0000ffff000009
:102bd400ffff0000ffff0000ffff0000ffff0000f9
:102be400ffff0000ffff0000ffff0000ffff0000e9
:102bf400ffff0000ffff0000ffff0000ffff0000d9
:102c0400ffaf0000728800008888000088880000f8
:102c140088880000888800008888000088580000a0
:102c240061fb0000ffff0000ffff0000ffff00004a
:102c3400ffff0000ffff0000ffff0000ffff000098
:102c4400ffff0000ffff0000ffff0000ffff000088
:102c5400ffff0000ffff0000ffff0000ffff000078
:102c6400ffff0000ffff0000ffff0000ffff000068
:102c7400ffff0000ffff0000ffff0000ffff000058
:102c8400ff390000888800008888000088880000d8
:102c94008888000088880000888800008848000030
:102ca40090ff0000ffff0000ffff0000ffff000097
:102cb400ffff0000ffff0000ffff0000ffff000018
:102cc400ffff0000ffff0000ffff0000ffff000008
:102cd400ffff0000ffff0000ffff0000ffff0000f8
:102ce400ffff0000ffff0000ffff0000ffff0000e8
:102cf400ffff0000ffff0000ffff0000ffff0000d8
:102d04003a870000888800008888000088880000ce
:102d140088880000888800008888000058630000c4
:102d2400fcff0000ffff0000ffff0000ffff0000aa
:102d3400ffff0000ffff0000ffff0000ffff000097
:102d4400ffff0000ffff0000ffff0000ffff000087
:102d5400ffff0000ffff0000ffff0000ffff000077
:102d6400ffff0000ffff0000ffff0000ffff000067
:102d7400ffff0000ffff0000ffff0000bf72000024
:102d840088880000888800008888000088880000ff
:102d9400888800008888000078630000faff00003b
:102da400ffff0000ffff0000ffff0000ffff000027
:102db400ffff0000ffff0000ffff0000ffff000017
:102dc400ffff0000ffff0000ffff0000ffff000007
:102dd400ffff0000ffff0000ffff0000ffff0000f7
:102de400ffff0000ffff0000ffff0000ffff0000e7
:102df400ffff0000ffff0000ff6f00008488000059
:102e0400888800008888000088880000888800007e
:102e14008888000078140000f9ff0000ffff00001c
:102e2400ffff0000ffff0000ffff0000ffff0000a6
:102e3400ffff0000ffff0000ffff0000ffff000096
:102e4400ffff0000ffff0000ffff0000ffff000086
:102e5400ffff0000ffff0000ffff0000ffff000076
:102e6400ffff0000ffff0000ffff0000ffff000066
:102e7400ffff0000ffff0000398800008888000081
:102e840088880000888800008888000088880000fe
:102e940088140000b9ff0000ffff0000ffff0000de
:102ea400ffff0000ffff0000ffff0000ffff000026
:102eb400ffff0000ffff0000ffff0000ffff000016
:102ec400ffff0000ffff0000ffff0000ffff000006
:102ed400ffff0000ffff0000ffff0000ffff0000f6
:102ee400ffff0000ffff0000ffff0000ffff0000e6
:102ef400ffff0000af73000088880000888800008e
:102f040088880000888800008888000088350000d0
:102f1400a6ff0000ffff0000ffff0000ffff00000e
:102f2400ffff0000ffff0000ffff0000ffff0000a5
:102f3400ffff0000ffff0000ffff0000ffff000095
:102f4400ffff0000ffff0000ffff0000ffff000085
:102f5400ffff0000ffff0000ffff0000ffff000075
:102f6400ffff0000ffff0000ffff0000ffff000065
:102f7400ff2b0000878800008888000088880000f4
:102f8400885700008888000088370000a6ff0000ea
:102f9400ffff0000ffff0000ffff0000ffff000035
:102fa400ffff0000ffff0000ffff0000ffff000025
:102fb400ffff0000ffff0000ffff0000ffff000015
:102fc400ffff0000ffff0000ffff0000ffff000005
:102fd400ffff0000ffff0000ffff0000ffff0000f5
:102fe400ffff0000ffff0000ffff0000ffff0000e5
:102ff4004688000088880000888800005834000053
:10300400008700008847000091ff0000ffff0000d8
:10301400ffff0000ffff0000ffff0000ffff0000b4
:10302400ffff0000ffff0000ffff0000ffff0000a4
:10303400ffff0000ffff0000ffff0000ffff000094
:10304400ffff0000ffff0000ffff0000ffff000084
:10305400ffff0000ffff0000ffff0000ffff000074
:10306400ffff0000ffff0000ffff00009f83000040
:10307400888800008878000034600000a9460000b9
:103084008848000091fb0000ffff0000ffff0000e4
:10309400ffff0000ffff0000ffff0000ffff000034
:1030a400ffff0000ffff0000ffff0000ffff000024
:1030b400ffff0000ffff0000ffff0000ffff000014
:1030c400ffff0000ffff0000ffff0000ffff000004
:1030d400ffff0000ffff0000ffff0000ffff0000f4
:1030e400ffff0000ffff0000ff3a00008788000098
:1030f4008845000003960000fbbf000070580000e4
:1031040063fa0000ffff0000ffff0000ffff000064
:10311400ffff0000ffff0000ffff0000ffff0000b3
:10312400ffff0000ffff0000ffff0000ffff0000a3
:10313400ffff0000ffff0000ffff0000ffff000093
:10314400ffff0000ffff0000ffff0000ffff000083
:10315400ffff0000ffff0000ffff0000ffff000073
:10316400ffff0000ffbf000072880000470300005b
:1031740096fa0000ffff00006f74000063fa00007d
:10318400ffff0000ffff0000ffff0000ffff000043
:10319400ffff0000ffff0000ffff0000ffff000033
:1031a400ffff0000ffff0000ffff0000ffff000023
:1031b400ffff0000ffff0000ffff0000ffff000013
:1031c400ffff0000ffff0000ffff0000ffff000003
:1031d400ffff0000ffff0000ffff0000ffff0000f3
:1031e400ffff00006f54000034600000b9ff0000ce
:1031f400ffff0000ff0b000014f90000ffff0000b8
:10320400ffff0000ffff0000ffff0000ffff0000c2
:10321400ffff0000ffff0000ffff0000ffff0000b2
:10322400ffff0000ffff0000ffff0000ffff0000a2
:10323400ffff0000ffff0000ffff0000ffff000092
:10324400ffff0000ffff0000ffff0000ffff000082
:10325400ffff0000ffff0000ffff0000ffff000072
:10326400ff09000060a90000ffff0000ffff00004d
:10327400ffff000006b90000ffff0000ffff000091
:10328400ffff0000ffff0000ffff0000ffff000042
:10329400ffff0000ffff0000ffff0000ffff000032
:1032a400ffff0000ffff0000ffff0000ffff000022
:1032b400ffff0000ffff0000ffff0000ffff000012
:1032c400ffff0000ffff0000ffff0000ffff000002
:1032d400ffff0000ffff0000ffff0000ffff0000f2
:1032e40099fb0000ffff0000ffff0000ffff00004c
:1032f400ffa90000ffff0000ffff0000ffff000028
:10330400ffff0000ffff0000ffff0000ffff0000c1
:10331400ffff0000ffff0000ffff0000ffff0000b1
:10332400ffff0000ffff0000ffff0000ffff0000a1
:10333400ffff0000ffff0000ffff0000ffff000091
:10334400ffff0000ffff0000ffff0000ffff000081
:10335400ffff0000ffff0000ffff0000ffff000071
:10336400ffff0000ffff0000ffff0000ffff000061
:10337400ffff0000ffff0000ffff0000ffff000051
:10338400ffff0000ffff0000ffff0000ffff000041
:10339400ffff0000ffff0000ffff0000ffff000031
:1033a400ffff0000ffff0000ffff0000ffff000021
:1033b400ffff0000ffff0000ffff0000ffff000011
:1033c400ffff0000ffff0000ffff0000ffff000001
:1033d400ffff0000ffff0000ffff0000ffff0000f1
:1033e400ffff0000ffff0000ffff0000ffff0000e1
:1033f400ffff0000ffff0000ffff0000ffff0000d1
:10340400ffff0000ffff0000ffff0000ffff0000c0
:10341400ffff0000ffff0000ffff0000ffff0000b0
:10342400ffff0000ffff0000ffff0000ffff0000a0
:10343400ffff0000ffff0000ffff0000ffff000090
:10344400ffff0000ffff0000ffff0000ffff000080
:10345400ffff0000ffff0000ffff0000ffff000070
:10346400ffff0000ffff0000ffff0000ffff000060
:10347400ffff0000ffff0000ffff0000ffff000050
:10348400ffff0000ffff0000ffff0000ffff000040
:10349400ffff0000ffff0000ffff0000ffff000030
:1034a400ffff0000ffff0000ffff0000ffff000020
:1034b400ffff0000ffff0000ffff0000ffff000010
:1034c400ffff0000ffff0000ffff0000ffff000000
:1034d400ffff0000ffff0000ffff0000ffff0000f0
:1034e400cccc0000dfff0000fcff0000ffff000069
:1034f400ffff0000ffff0000ffff0000ffff0000d0
:10350400ffff0000ffff0000ffff0000ffff0000bf
:10351400ffff0000ffff0000ffff0000ffff0000af
:10352400ffff0000ffff0000ffff0000ffff00009f
:10353400ffff0000ffff0000ffff0000ffff00008f
:10354400ffff0000ffff0000ffff0000ffff00007f
:10355400ffff0000ffff0000ffff0000ffff00006f
:10356400dffc0000ceff0000fdff0000ffff0000b5
:10357400ffff0000ffff0000ffff0000ffff00004f
:10358400ffff0000ffff0000ffff0000ffff00003f
:10359400ffff0000ffff0000ffff0000ffff00002f
:1035a400ffff0000ffff0000ffff0000ffff00001f
:1035b400ffff0000ffff0000ffff0000ffff00000f
:1035c400ffff0000ffff0000ffff0000ffff0000ff
:1035d400ffff0000ffff0000ffff0000ffff0000ef
:1035e400ffff0000ffff0000ffff0000ffff0000df
:1035f400ffff0000ffff0000ffff0000ffff0000cf
:10360400ffff0000ffff0000ffff0000ffff0000be
:10361400ffff0000ffff0000ffff0000ffff0000ae
:10362400ffff0000ffff0000ffff0000ffff00009e
:10363400ffff0000ffff0000ffff0000ffff00008e
:10364400ffff0000ffff0000ffff0000ffff00007e
:10365400ffff0000ffff0000ffff0000ffff00006e
:10366400ffff0000ffff0000ffff0000ffff00005e
:10367400ffff0000ffff0000ffff0000ffff00004e
:10368400ffff0000ffff0000ffff0000ffff00003e
:10369400ffff0000ffff0000ffff0000ffff00002e
:1036a400ffff0000ffff0000ffff0000ffff00001e
:1036b400ffff0000ffff0000ffff0000ffff00000e
:1036c400ffff0000ffff0000ffff0000ffff0000fe
:1036d400ffff0000ffff0000ffff0000ffff0000ee
:1036e400ffff0000ffff0000ffff0000ffff0000de
:1036f400ffff0000ffff0000ffff0000ffff0000ce
:10370400ffff0000ffff0000ffff0000ffff0000bd
:10371400ffff0000ffff0000ffff0000ffff0000ad
:10372400ffff0000ffff0000ffff0000ffff00009d
:10373400ffff0000ffff0000ffff0000ffff00008d
:10374400ffff0000ffff0000ffff0000ffff00007d
:10375400ffff0000ffff0000ffff0000ffff00006d
:10376400ffff0000cfdf0000ceec0000edfe000004
:10377400ccff0000eccd0000ecff0000ff000000d7
:10378400000000001c0000007e0000001b00000080
:10379400109400000100000010ca000001000000a5
:1037a400110000000200000011510000020000009e
:1037b40005a200000200000006bd00000200000097
:1037c4000ad80000020000000b0e000003000000f5
:1037d4000b44000003000000107a00000300000006
:1037e40010b000000300000006e600000300000023
:1037f4000701000004000000071c00000400000092
:103804000a37000004000000096d000004000000f5
:1038140005a300000400000008be0000040000002e
:1038240005d90000040000000bf4000004000000af
:103834000b2a0000050000000b60000005000000da
:103844000b960000050000000bcc000005000000f2
:103854000b020000060000000b3800000600000008
:103864000b6e0000060000000ba400000600000020
:103874000bda0000060000000b1000000700000037
:103884000546000007000000056100000700000075
:103894000a7c0000070000000ab2000007000000d4
:1038a4000ae80000070000000a1e000008000000eb
:1038b40013540000080000000ea5000008000000da
:1038c4000cdb0000080000000c11000009000000df
:1038d4000e470000090000000b7d000009000000f5
:1038e4000bb30000090000000de90000090000000e
:1038f4000f1f00000a000000075500000a00000026
:10390400077000000a0000000d8b00000a00000090
:103914000bc100000a00000013f700000a000000b9
:103924000f4800000b0000000e7e00000b0000009a
:103934000cb400000b0000000eea00000b000000b5
:103944000d2000000c0000000b5600000c000000cd
:103954000d8c00000c0000000fc200000c000000e1
:103964000ff800000c000000142e00000d000000f1
:103974000e7f00000d0000000eb500000d000000d9
:103984000ceb00000d000000072100000e000000f9
:103994000b3c00000e000000087200000e00000046
:1039a4000b8d00000e0000000bc300000e00000091
:1039b40007f900000e0000000b1400000f000000c7
:1039c4000c4a00000f0000000a8000000f000000f5
:1039d4000cb600000f0000000bec00000f0000000c
:1039e40007220000100000000c3d00001000000041
:1039f4000d7300001000000006a900001000000074
:103a040006c40000100000000cdf000010000000dd
:103a14000615000011000000143000001100000021
:103a24000d810000110000000cb70000110000001f
:103a34000ced0000110000000c2300001200000037
:103a44000959000012000000098f00001200000054
:103a540008c50000120000000ce000001200000085
:103a64000b16000013000000104c000013000000af
:103a74000c820000130000000bb8000013000000cb
:103a84000aee0000130000000824000014000000e7
:103a9400053f000014000000085a00001400000054
:103aa4000b7500001400000000000000000000007e
:103ab400000000000030000000380000003c00005e
:103ac400003e0000003f0000803f0000c03f0000b7
:103ad400e03f0000f03f0000f83f0000fc3f000022
:103ae400f83f0000f03f0000e03f0000c03f00004e
:103af400803f0000003f0000003e0000003c00004a
:103b04000038000000300000000000000000000049
:103b140000000000000000000000000000000000a1
:103b24000c0000001c0000003c0000007c000000b1
:103b3400fc000000fc010000fc030000fc07000086
:103b4400fc0f0000fc1f0000fc3f0000fc1f0000f5
:103b5400fc0f0000fc070000fc030000fc01000057
:103b6400fc0000007c0000003c0000001c00000081
:103b74000c00000000000000000000000000000035
:103b84000000000000000000000000000000000031
:103b9400000000000100000080030000008000001d
:103ba400030000008003000000c0000007000000c4
:103bb400c007000000e000000f000000e00f00005c
:103bc40000e000000f000000f01f000000f0000003
:103bd4001f000000f01f000000f800003f0000007c
:103be400f83f000000f800003f000000fc7f0000e8
:103bf40000fc00007f000000fc7f000000fe0000cd
:103c0400ff000000feff000000fe0000ff000000b7
:103c140000000000000000000000000000000000a0
:103c24000000000000000000000000000000000090
:103c340000000000feff000000fe0000ff00000086
:103c4400feff000000fc00007f000000fc7f00007d
:103c540000fc00007f000000f83f000000f80000b6
:103c64003f000000f83f000000f000001f000000cb
:103c7400f01f000000f000001f000000e00f000033
:103c840000e000000f000000e00f000000c0000092
:103c940007000000c00700000080000003000000cf
:103ca4008003000000800000030000000001000009
:103cb4000000000000000000000000000000000000
:103cc40000000000000000000000000000000000f0
:103cd40000000000000000000000000000000000e0
:103ce40000000000000000000000000000000000d0
:103cf40000000000000000000000000000000000c0
:103d0400080c00000c0c00000c0c00000c0c000053
:103d14000c0c00000c0c0000040000000c0c000053
:103d24000c00000000000000000000000000000083
:103d3400000000000000000000000000cc000000b3
:103d4400cc000000cc000000cc000000cc0000003f
:103d5400cc000000cc000000c40000000000000003
:103d6400000000000000000000000000000000004f
:103d7400000000000000000000000000000000003f
:103d8400000000000000000000000000000000002f
:103d9400000000000000000000000000000000001f
:103da400000000000000000000000000000000000f
:103db4000000000060020000200300002001000059
:103dc40020010000fc0700009001000090000000aa
:103dd40098000000fe030000480000004c000000b2
:103de4004400000064000000000000000000000027
:103df40000000000000000000000000000000000bf
:103e040000000000000000000000000000000000ae
:103e140000000000000000006000000060000000de
:103e2400f80100006c030000660100006600000059
:103e34006e0000007c000000f8010000e0010000ba
:103e4400e00300006003000062030000620300005e
:103e540066010000fc00000060000000600000003b
:103e6400000000000000000000000000000000004e
:103e7400000000000000000000000000000000003e
:103e840000000000000000000000000038300000c6
:103e940024180000660c000066040000660600009a
:103ea40066030000a40100009c380000c064000008
:103eb4006066000020660000106600001824000000
:103ec4000c1c0000000000000000000000000000c6
:103ed40000000000000000000000000000000000de
:103ee40000000000000000000000000000000000ce
:103ef400e001000030030000180300001803000074
:103f0400180100009801000078000000787e00008d
:103f14007c1c0000cc180000c6190000861b0000a1
:103f2400060f0000060e00000c1a0000f8710000d5
:103f3400000000000000000000000000000000007d
:103f4400000000000000000000000000000000006d
:103f5400000c00000c0c00000c0c00000c0c000009
:103f64000400000000000000000000000000000049
:103f7400000000000000000000000000000000003d
:103f8400000000000060000030100000080c000079
:103f94000c040000060600000606000006060000e9
:103fa40006060000040c00000c0800001830000095
:103fb4006000000000000000000000000306000094
:103fc4000c08000018180000103000003030000009
:103fd40030300000303000003010000018180000ad
:103fe40008040000060300000000000000000000b8
:103ff400000000000030000000300000002200003b
:1040040001ae0000037800000078000000ae00005c
:104014000122000001300000003000000000000018
:10402400000000000000000000000000000000008c
:10403400000000000000000000000000000000007c
:10404400000000000000000000000000000000006c
:10405400000000000000000000000000000000005c
:10406400000000000000000000000000000000004c
:10407400000000000000000000000000000000003c
:1040840000300000003000000030000000fe00009e
:10409400013000000030000000300000003000005b
:1040a400000000000000000000000000000000000c
:1040b40000000000000000000000000000000000fc
:1040c40000000000000000000000000000000000ec
:1040d40000000000000000000000000000000000dc
:1040e40000000000000000000e0f00000c0c000097
:1040f40004020000000000000000000000000000b6
:1041040000000000000000000000000000000000ab
:1041140000000000000000007e000000000000001d
:10412400000000000000000000000000000000008b
:10413400000000000000000000000000000000007b
:10414400000000000000000000000000000000006b
:10415400000000000c0c00000c0000000000000037
:10416400000000000000000000000000000000004b
:1041740000020000000300000001000080010000b4
:104184008001000080000000c0000000c0000000aa
:10419400600000006000000020000000300000000b
:1041a400300000001000000018000000180000009b
:1041b4000c0000000c0000000400000006000000d9
:1041c40006000000020000000000000000000000e3
:1041d40000000000000000000000000000000000db
:1041e400000000000000000000000000f0000000db
:1041f400c80100008c0100008403000006030000d5
:104204000603000006030000060300000603000086
:1042140006030000060100000c0100008c000000f1
:10422400700000000000000000000000000000001a
:10423400000000000000000000000000000000007a
:10424400000000000000000000000000000000006a
:104254000000000000000000600000007800000082
:1042640064000000600000006000000060000000c6
:1042740060000000600000006000000060000000ba
:10428400600000006000000060000000fc0300000b
:10429400000000000000000000000000000000001a
:1042a400000000000000000000000000000000000a
:1042b40000000000000000000000000000000000fa
:1042c4000000000078000000c40100008601000026
:1042d4008201000080010000c0000000c000000056
:1042e40060000000300000003000000018000000f2
:1042f4000c01000006010000fe01000000000000a7
:1043040000000000000000000000000000000000a9
:104314000000000000000000000000000000000099
:104324000000000000000000000000000000000089
:10433400f8000000cc0100008601000080010000ac
:104344008001000040000000f00000008001000037
:10435400000300000003000000030000000300004d
:10436400860100007800000000000000000000004a
:104374000000000000000000000000000000000039
:104384000000000000000000000000000000000029
:10439400000000000000000000000000c000000059
:1043a400e0000000e0000000d0000000d8000000a1
:1043b400c8000000c4000000c6000000c2000000e5
:1043c400ff030000c0000000c0000000c0000000a7
:1043d400f0030000000000000000000000000000e6
:1043e40000000000000000000000000000000000c9
:1043f40000000000000000000000000000000000b9
:10440400000000000000000000010000fc000000ab
:104414000400000004000000060000007e0000000c
:10442400c200000080010000800100008001000043
:104434008001000080000000c30000003c00000078
:104444000000000000000000000000000000000068
:104454000000000000000000000000000000000058
:104464000000000000000000000000000000000048
:10447400000000008001000060000000180000003f
:10448400080000000c000000f60000008e0100008f
:1044940006030000060300000603000006030000f4
:1044a4000c0100008c010000f0000000000000007e
:1044b40000000000000000000000000000000000f8
:1044c40000000000000000000000000000000000e8
:1044d40000000000000000000000000000000000d8
:1044e40000000000fc0300000201000002010000c3
:1044f4008001000080000000c000000040000000b7
:1045040060000000200000003000000030000000c7
:104514001800000008000000000000000000000077
:104524000000000000000000000000000000000087
:104534000000000000000000000000000000000077
:10454400000000000000000000000000f80000006f
:10455400cc01000086010000860100008e010000ed
:10456400dc000000f0000000c80100008c03000023
:104574000603000006030000060300008c0100008f
:1045840078000000000000000000000000000000af
:104594000000000000000000000000000000000017
:1045a4000000000000000000000000000000000007
:1045b4000000000000000000f00000008c0100007a
:1045c4008401000006030000060300000603000047
:1045d400060300008c0300007803000000010000c3
:1045e40080010000c0000000200000001c0000004a
:1045f40000000000000000000000000000000000b7
:1046040000000000000000000000000000000000a6
:10461400000000000000000000000000000c00008a
:104624000c0c00000000000000000000000c000062
:104634000c0c00000000000000000000000000005e
:104644000000000000000000000000000000000066
:10465400000000000c0c00000c0000000000000032
:10466400000000000e0f00000c0c0000040200000b
:104674000000000000000000000000000000000036
:104684000000000000000000000000000000000026
:104694000000000000000000000000000000000016
:1046a40000010000e00100003c00000006000000e2
:1046b4001c000000f0000000800100000000000069
:1046c40000000000000000000000000000000000e6
:1046d40000000000000000000000000000000000d6
:1046e40000000000000000000000000000000000c6
:1046f40000000000000000000000000000000000b6
:1047040000000000000000000000000000000000a5
:1047140000000000fe010000000000000000000096
:10472400fe01000000000000000000000000000086
:104734000000000000000000000000000000000075
:104744000000000000000000000000000000000065
:104754000000000000000000000000000000000055
:104764000000000000000000000000000000000045
:104774000000000000000000060000003c000000f3
:10478400e001000080010000f00000001e000000b5
:104794000200000000000000000000000000000013
:1047a4000000000000000000000000000000000005
:1047b40000000000000000000000000000000000f5
:1047c4000000000000000000f8000000cc01000020
:1047d40086010000860100008001000080010000c5
:1047e400c000000060000000600000003000000015
:1047f4003000000030000000100000000000000045
:104804003000000030000000300000000000000014
:104814000000000000000000000000000000000094
:104824000000000000000000000000000000000084
:104834000000000000000000000000000000000074
:1048440000000000000000003f000000c0700000f5
:1048540000300000c00000001880000001080000c3
:10486400800100000c97000003840000180300007e
:1048740046180000036600001803000066180000d4
:10488400036600001803000066180000016e0000b3
:1048940098010000cc9c0000008c00007300000014
:1048a400180000000038000080000000e0e0000074
:1048b400018000001f000000000000000000000054
:1048c40000000000000000000000000000000000e4
:1048d40000000000000000000000000000000000d4
:1048e4000040000000c0000000a0000000a0000084
:1048f40001a00000011000000110000003100000de
:1049040003f8000003080000060800000604000085
:104914000c0400000c1f00001e000000000000003a
:104924000000000000000000000000000000000083
:104934000000000000000000000000000000000073
:1049440000000000000000000000000000fe000065
:10495400008d0000030c0000030c0000030c000099
:10496400038c000001fc0000018c0000030c00001b
:10497400070c0000060c0000060c0000060c0000ea
:1049840003ff000001000000000000000000000020
:104994000000000000000000000000000000000013
:1049a4000000000000000000000000000000000003
:1049b400000000000000000000c0000007300000fc
:1049c4000c080000000c00000004000000060000b9
:1049d40000060000000600000006000000060000bb
:1049e400000c0000000c00000838000004e0000087
:1049f40003000000000000000000000000000000b0
:104a040000000000000000000000000000000000a2
:104a14000000000000000000000000000000000092
:104a24000000000000fe0000010d0000070c000063
:104a34000e0c00000c0c0000180c0000180c0000f8
:104a4400180c0000180c0000180c0000180c0000d2
:104a54000c0c00000e0c000007ff00000100000019
:104a64000000000000000000000000000000000042
:104a74000000000000000000000000000000000032
:104a84000000000000000000000000000000000022
:104a940000ff0000030c0000020c0000020c0000e8
:104aa400000c0000000c000000fc0000018c000061
:104ab400000c0000000c0000000c0000000c0000c2
:104ac400040c000006ff00000300000000000000ca
:104ad40000000000000000000000000000000000d2
:104ae40000000000000000000000000000000000c2
:104af40000000000000000000000000000ff0000b3
:104b0400030c0000020c0000020c0000000c00006a
:104b1400000c000000fc0000018c0000000c0000f0
:104b2400000c0000000c0000000c0000000c000051
:104b3400003f000000000000000000000000000032
:104b44000000000000000000000000000000000061
:104b54000000000000000000000000000000000051
:104b6400000000000000000000e00000031000004e
:104b740006080000000c000000060000000600000b
:104b840000060000008600000f0600000606000074
:104b9400060c0000060c00000618000006f00000d9
:104ba4000100000000000000000000000000000000
:104bb40000000000000000000000000000000000f1
:104bc40000000000000000000000000000000000e1
:104bd40000000000003f00007e0c0000180c0000e4
:104be400180c0000180c0000180c000018fc000041
:104bf4001f0c0000180c0000180c0000180c00001a
:104c0400180c0000180c0000183f00007e00000083
:104c14000000000000000000000000000000000090
:104c24000000000000000000000000000000000080
:104c340000000000003f00000c0c00000c0c000001
:104c44000c0c00000c0c00000c0c00000c0c000000
:104c54003f00000000000000000000000000000011
:104c64000000000000000000000000007e180000aa
:104c74001818000018180000181800001818000070
:104c84001818000018180000180800000403000099
:104c94000000000000000000000000000000000010
:104ca400000000000000000000000000003f0000c1
:104cb4000f0c0000020c0000018c0000004c0000ee
:104cc400006c0000003c0000006c000000ec0000e0
:104cd40000cc0000008c0000010c0000030c00005c
:104ce400063f00001c00000000000000000000005f
:104cf40000000000000000000000000000000000b0
:104d0400000000000000000000000000000000009f
:104d14000000000000000000003f0000000c000044
:104d2400000c0000000c0000000c0000000c00004f
:104d3400000c0000000c0000000c0000000c00003f
:104d4400000c0000000c0000040c000002ff000036
:104d5400030000000000000000000000000000004c
:104d6400000000000000000000000000000000003f
:104d7400000000000000000000000000000000002f
:104d8400000000000000000000000000000000001f
:104d9400001e0000c00100001ce00000001c000018
:104da400e00000003cf00000002c0000d0000000f7
:104db4006cd00000006c0000c8000000ccc80000eb
:104dc40000cc0000cc0000008cc50000008c00006a
:104dd400c70000000cc30000000c0000c30000006a
:104de4001ee10000030000000000000000000000bd
:104df40000000000000000000000000000000000af
:104e0400000000000000000000000000000000009e
:104e1400000000000000000000000000000000008e
:104e240000000000000000000f7e00000c180000cd
:104e34001c1800003c1800002c1800004c1800003e
:104e4400cc1800008c1900000c1900000c1b000089
:104e54000c1e00000c1c00000c1c00003f1800007d
:104e6400000000000000000000000000000000003e
:104e7400000000000000000000000000000000002e
:104e8400000000000000000000000000000000001e
:104e940000000000e003000018060000080c0000f9
:104ea4000c0c00000618000006180000061800008c
:104eb4000618000006180000061800000c0c00007c
:104ec4000c04000018020000f001000000000000c3
:104ed40000000000000000000000000000000000ce
:104ee40000000000000000000000000000000000be
:104ef40000000000000000000000000000000000ae
:104f0400fe0100000d0300000c0600000c0600006a
:104f14000c0600000c0600000c030000fc0000005e
:104f24000c0000000c0000000c0000000c0000004d
:104f34000c0000003f000000000000000000000022
:104f4400000000000000000000000000000000005d
:104f5400000000000000000000000000000000004d
:104f6400000000000000000000000000e00300005a
:104f740018060000080c00000c0c000006180000c5
:104f840006180000061800000618000006180000a5
:104f9400061800000c0c00000c0c000018060000a1
:104fa400f0010000000300000006000000380000cb
:104fb40000000000000000000000000000000000ed
:104fc40000000000000000000000000000000000dd
:104fd4000000000000000000fe0100000d030000be
:104fe4000c0600000c0600000c0600000c03000078
:104ff400fc000000cc000000cc0000008c0100008c
:105004000c0300000c0300000c0600003f1c000011
:10501400000000000000000000000000000000008c
:10502400000000000000000000000000000000007c
:10503400000000000000000000000000000000006c
:1050440000000000f80000008c01000006000000d1
:10505400060000000e0000003c000000f800000004
:10506400e0010000800300000003000002030000d0
:1050740002010000860100007c0000000000000026
:10508400000000000000000000000000000000001c
:10509400000000000000000000000000000000000c
:1050a40000000000000000000000000000000000fc
:1050b400ff0f0000610800006108000060000000ac
:1050c400600000006000000060000000600000005c
:1050d400600000006000000060000000600000004c
:1050e40060000000f8010000000000000000000063
:1050f40000000000000000000000000000000000ac
:10510400000000000000000000000000000000009b
:105114000000000000000000000000003f7e0000ce
:105124000c1800000c1800000c1800000c180000eb
:105134000c1800000c1800000c1800000c180000db
:105144000c1800000c180000180c000038060000b1
:10515400e003000000000000000000000000000068
:10516400000000000000000000000000000000003b
:10517400000000000000000000000000000000002b
:1051840000000000000000001f3c00000c1800009c
:105194000c08000018080000180c00001804000097
:1051a400300600003002000020020000600300000e
:1051b40060010000c0010000c00100008000000088
:1051c40000000000000000000000000000000000db
:1051d40000000000000000000000000000000000cb
:1051e40000000000000000000000000000000000bb
:1051f40000000000000000000000000000000000ab
:105204001fc20000070c0000060100000c0600008d
:10521400010c0000070100000c8d000001080000d3
:105224008d0000009889000000980000980000009c
:105234009898000000d00000d000000070700000ba
:10524400007000007000000070600000002000008a
:1052540060000000000000000000000000000000ea
:10526400000000000000000000000000000000003a
:10527400000000000000000000000000000000002a
:10528400000000000000000000000000000000001a
:1052940000000000003f00001f0c00000c1800007c
:1052a400063800000330000001e0000001c00000e7
:1052b40000c0000001a0000001300000031800003d
:1052c400060800000e0c00000c1f00003e00000049
:1052d40000000000000000000000000000000000ca
:1052e40000000000000000000000000000000000ba
:1052f40000000000000000000000000000000000aa
:10530400000700003e0c00000c1800000418000008
:10531400023000000360000001e0000001c0000052
:1053240000c0000000c0000000c0000000c0000079
:1053340000c0000000f000000300000000000000b6
:105344000000000000000000000000000000000059
:105354000000000000000000000000000000000049
:1053640000000000000000000000000000fc00003d
:1053740007040000030200000380000001c00000d5
:1053840000c0000000600000007000000030000059
:105394000018000000180000000c000004060000c3
:1053a40004fe0000070000000000000000000000f0
:1053b40000000000000000000000000000000000e9
:1053c40000000000003e0000060600000606000083
:1053d4000606000006060000060600000606000099
:1053e4000606000006060000060600000606000089
:1053f4003e0000000000000000000000000000006b
:105404000200000006000000060000000400000086
:105414000c00000008000000180000001800000044
:1054240010000000300000003000000020000000e8
:10543400600000004000000040000000c0000000c8
:1054440080000000800100008001000000010000d5
:105454000003000000020000000000000000000043
:1054640000000000000000003e300000303000006a
:1054740030300000303000003030000030300000a8
:105484003030000030300000303000003030000098
:10549400303e00000000000000000000000000009a
:1054a4000000000000200000006000000070000008
:1054b40000d0000000d80000008800000088000030
:1054c400018c00000104000003040000030200003a
:1054d40003000000000000000000000000000000c5
:1054e40000000000000000000000000000000000b8
:1054f40000000000000000000000000000000000a8
:105504000000000000000000000000000000000097
:105514000000000000000000000000000000000087
:105524000000000000000000000000000000000077
:105534000000000000000000000000000000000067
:105544000000000000000000000000000000000057
:1055540000000000000000000000000000fe000049
:105564000300000000000000000000000000000034
:105574000000000000000000030600000c0800000a
:105584001000000000000000000000000000000007
:105594000000000000000000000000000000000007
:1055a40000000000000000000000000000000000f7
:1055b40000000000000000000000000000000000e7
:1055c40000000000000000000000000000000000d7
:1055d400f00000008c010000860100008001000042
:1055e400f00100008c01000086010000860100002b
:1055f400c6010000bc07000000000000000000001d
:105604000000000000000000000000000000000096
:105614000000000000000000000000000000000086
:105624000c0000000e0000000c0000000c00000044
:105634000c0000000c0000000c000000cc01000075
:105644003c0300001c0700000c0600000c060000d0
:105654000c0600000c0600000c0200001c010000f7
:10566400f000000000000000000000000000000046
:105674000000000000000000000000000000000026
:105684000000000000000000000000000000000016
:105694000000000000000000000000000000000006
:1056a4000000000000000000e001000018030000fa
:1056b4000c000000060000000600000006000000c8
:1056c400060000000c0000001c030000f0000000b5
:1056d40000000000000000000000000000000000c6
:1056e40000000000000000000000000000000000b6
:1056f400000000000000000000030000c0030000e0
:105704000003000000030000000300000003000089
:1057140000030000f00300008803000004030000fd
:105724000603000006030000060300000603000051
:105734000e030000cc0b000038070000000000003e
:105744000000000000000000000000000000000055
:105754000000000000000000000000000000000045
:105764000000000000000000000000000000000035
:105774000000000000000000000000000000000025
:10578400f00000000803000004030000fe03000012
:105794000600000006000000060000000c000000e7
:1057a4001c030000f00000000000000000000000e6
:1057b40000000000000000000000000000000000e5
:1057c400000000000000000000600000501800000d
:1057d4000c0c00000c0c00007e0d00000c0c0000f2
:1057e4000c0c00000c0c00000c3f0000000000003a
:1057f40000000000000000000000000000000000a5
:105804000000000000000000000000000000000094
:105814000000000000000000000000000000000084
:1058240000f800000c8c00000306000003060000d2
:1058340003060000038c000001f8000000180000bb
:10584400001c000000f80000030600000e03000026
:105854000c0300000c06000006fc00000100000020
:105864000000000000000000000000000000000034
:10587400000c0000000f0000000c0000000c0000f1
:10588400000c0000000c0000000c000000cc000024
:10589400032c0000061c0000060c0000060c00008f
:1058a400060c0000060c0000060c0000060c0000ac
:1058b40006bf00001f000000000000000000000000
:1058c40000000000000000000000000000000000d4
:1058d4000000000000000000000000000c0c0000ac
:1058e40000000000000c00000f0c00000c0c000075
:1058f4000c0c00000c0c00003f0000000000000035
:105904000000000000000000000000000000000093
:10591400000c00000c000000000000000c0f000050
:105924000c0c00000c0c00000c0c00000c0c000013
:105934000c0c000004020000010000000000000044
:105944000000000000000000000c0000000f000038
:10595400000c0000000c0000000c0000000c000013
:10596400000c0000008c0000078c000001cc00003b
:10597400002c0000003c0000006c000000cc000083
:10598400008c0000010c0000031f00000f00000049
:105994000000000000000000000000000000000003
:1059a40000000000000000000000000000000000f3
:1059b4000c0f00000c0c00000c0c00000c0c000080
:1059c4000c0c00000c0c00000c0c00000c0c000073
:1059d4003f00000000000000000000000000000084
:1059e40000000000000000000000000000000000b3
:1059f40000000000000000000000000000000000a3
:105a04000000000000000000000000000000000092
:105a14000000000000000000000000008ee3000011
:105a2400016d0000160300001c0e0000030c0000b2
:105a3400060300000c060000030c0000060300002f
:105a44000c060000030c0000060300000c06000016
:105a540003bf0000df0f0000000000000000000092
:105a64000000000000000000000000000000000032
:105a74000000000000000000000000000000000022
:105a84000000000000000000000000000000000012
:105a94000000000000000000000000000000000002
:105aa4000000000000000000008e0000036d0000f4
:105ab400061c0000060c0000060c0000060c00008a
:105ac400060c0000060c0000060c000006bf0000d7
:105ad4001f000000000000000000000000000000a3
:105ae40000000000000000000000000000000000b2
:105af40000000000000000000000000000000000a2
:105b04000000000000000000000000000000000091
:105b14000000000000f00000008800000304000002
:105b24000306000006060000060600000606000044
:105b3400060c0000021c000001f000000000000040
:105b44000000000000000000000000000000000051
:105b54000000000000000000000000000000000041
:105b64000000000000000000000000000000000031
:105b74000000000000000000000000000000000021
:105b840000ce0000013d0000031c0000070c0000d3
:105b9400060c0000060c0000060c0000060c0000b9
:105ba400021c000003ec0000000c0000000c0000cc
:105bb400000c0000000c0000003f0000000000008a
:105bc40000000000000000000000000000000000d1
:105bd40000000000000000000000000000000000c1
:105be40000000000000000000000000000f00000c1
:105bf40002880000030c00000306000003060000f6
:105c04000306000003060000030e0000038c0000de
:105c140003780000030000000300000003000000fc
:105c24000300000003c000000f000000000000009b
:105c34000000000000000000000000000000000060
:105c44000000000000000000000000000000000050
:105c5400000000000000000000cc000001af0000c4
:105c6400019c0000001c0000000c0000000c00005f
:105c7400000c0000000c0000000c0000003f0000bd
:105c84000000000000000000000000000000000010
:105c94000000000000000000000000000000000000
:105ca40000000000000000000000000000000000f0
:105cb40000000000000000000000000000000000e0
:105cc40000000000007c00000066000000060000e8
:105cd400000e0000003c000000f0000000c00000c6
:105ce40000c2000000c20000003e000000000000ee
:105cf40000000000000000000000000000000000a0
:105d0400000000000000000000000000000000008f
:105d140000000000000800000c0c00000cfe000055
:105d24000d0c00000c0c00000c0c00000c8c00008e
:105d340078000000000000000000000000000000e7
:105d4400000000000000000000000000000000004f
:105d5400000000000000000000000000000000003f
:105d640000000000000000000c030000ce0300004f
:105d74000c0300000c0300000c0300000c030000e3
:105d84000c0300000c030000cc0b000038070000db
:105d940000000000000000000000000000000000ff
:105da40000000000000000000000000000000000ef
:105db40000000000000000000000000000000000df
:105dc40000000000000000000000000000000000cf
:105dd400000000009f070000040200000c01000006
:105de4000c010000980100009800000090000000e1
:105df40070000000600000002000000000000000af
:105e0400000000000000000000000000000000008e
:105e1400000000000000000000000000000000007e
:105e2400000000000000000000000000000000006e
:105e3400000000000000000000000000000000005e
:105e44001ff1000004410000842300008c230000a3
:105e5400882600004836000058140000301c00005a
:105e6400301c0000300800000000000000000000aa
:105e7400000000000000000000000000000000001e
:105e8400000000000000000000000000000000000e
:105e940000000000000000000000000000000000fe
:105ea4000000000000000000000000009f07000048
:105eb4000c01000098000000f000000060000000e9
:105ec40070000000d00000008801000004030000fe
:105ed4008f07000000000000000000000000000028
:105ee40000000000000000000000000000000000ae
:105ef400000000000000000000000000000000009e
:105f0400000000000000000000000000000000008d
:105f140000000000000000009f07000004020000d1
:105f24000c0100000c010000980100009800000022
:105f3400900000007000000060000000600000009d
:105f44002000000030000000100000000f000000de
:105f54000700000000000000000000000000000036
:105f6400000000000000000000000000000000002d
:105f7400000000000000000000000000000000001d
:105f840000000000fe01000082010000c2000000c9
:105f94006000000020000000300000001800000035
:105fa4000c01000004010000fe01000000000000dc
:105fb40000000000000000000000000000000000dd
:105fc400000000000000000000000000403000005d
:105fd40010180000181800003830000030100000bd
:105fe400081e000030300000303000001818000097
:105ff40018180000304000000000000000000000fd
:106004000c0c00000c0c00000c0c00000c0c00002c
:106014000c0c00000c0c00000c0c00000c0c00001c
:106024000c0c00000c0c00000c0c00000c0c00000c
:106034000000000000000000020c0000181800001e
:10604400181800000c0c00000c0c00007810000064
:10605400080c00000c1c00001818000018080000b0
:106064000c0200000000000000000000000000001e
:10607400000000000000000000000000000000001c
:10608400000000000000000000000000000000000c
:106094000000000000180000047c000002f2000070
:1060a40001c2000001000000000000000000000028
:1060b40000000000000000000000000000000000dc
:1060c40000000000000000000000000000000000cc
:1060d400000000000000000000000000c29b00005f
:1060e40070000000720000006f0000006d000000ee
:1060f4007000000074000000200000006100000037
:1061040070000000700000006500000061000000e5
:1061140072000000730000002e0000000000000068
:10612400750000006e0000007400000069000000ab
:106134006c000000200000007400000068000000f3
:106144006500000020000000630000006100000002
:106154006c00000069000000620000007200000092
:106164006100000074000000690000006f0000007e
:106174006e000000000000007000000072000000cb
:106184006500000073000000730000006900000057
:106194006e00000067000000200000006f00000097
:1061a4006e00000020000000740000006800000081
:1061b4006500000020000000730000006300000080
:1061c400720000006500000065000000650000002a
:1061d4006e00000000000000720000006500000076
:1061e400730000006500000074000000200000003f
:1061f400740000006800000065000000200000003a
:10620400620000006f0000006100000072000000e6
:106214006400000020000000770000006800000017
:10622400690000006c000000650000000000000030
:10623400540000006f000000200000005200000025
:10624400450000005000000045000000410000002f
:106254005400000020000000630000006100000002
:106264006c00000069000000620000007200000081
:106274006100000074000000690000006f0000006d
:106284006e0000002c00000000000000630000000d
:106294006f0000006e000000740000006900000040
:1062a4006e00000075000000650000002e00000074
:1062b40000000000540000006f00000075000000a2
:1062c400630000006800000020000000730000006c
:1062d400630000007200000065000000650000001b
:1062e4006e00000020000000740000006f00000039
:1062f4000000000073000000630000007200000052
:1063040065000000650000006e0000002000000031
:1063140063000000610000006c00000069000000e0
:1063240062000000720000006100000074000000c0
:10633400690000006f0000006e0000002e000000e5
:106344000000000050000000650000007200000022
:10635400660000006f000000720000006d00000085
:10636400690000006e0000006700000020000000cb
:10637400740000006f00000075000000630000005e
:10638400680000000000000000010000000100009f
:106394000001000000010000ff000000ff000000f9
:1063a400ff000000fe000000fe000000fd000000f1
:1063b400fc000000fb000000fa000000f9000000ef
:1063c400f8000000f7000000f6000000f5000000ef
:1063d400f3000000f2000000f1000000ef000000f4
:1063e400ed000000ec000000ea000000e8000000fe
:1063f400e6000000e4000000e2000000e00000000d
:10640400de000000db000000d9000000d70000001f
:10641400d4000000d2000000cf000000cc00000037
:10642400ca000000c7000000c4000000c100000052
:10643400be000000bb000000b8000000b500000072
:10644400b2000000af000000ab000000a800000094
:10645400a5000000a10000009e0000009a000000ba
:1064640096000000930000008f0000008b000000e5
:106474008800000084000000800000007c00000010
:106484007800000074000000700000006c00000040
:106494006800000064000000600000005c00000070
:1064a40058000000530000004f0000004b000000a3
:1064b40047000000420000003e0000003a000000d7
:1064c40035000000310000002c000000280000000e
:1064d400240000001f0000001b0000001600000044
:1064e400120000000d00000009000000040000007c
:1064f4000000000014f100005000000072000000d1
:10650400650000007300000073000000200000001c
:10651400260000002000000052000000650000007a
:106524006c000000650000006100000073000000c2
:106534006500000000000000630000006900000026
:1065440072000000630000006c00000065000000a1
:10655400000000006f0000006e000000200000003a
:1065640074000000680000006500000020000000c6
:1065740066000000690000006c0000006c00000070
:106584006500000064000000000000004c000000f2
:106594004500000046000000540000000000000018
:1065a40052000000490000004700000048000000bd
:1065b4005400000000000000b02a00003ed7000094
:1065c400e9000000ffff0000bbf70000ddae0000a3
:1065d4003e2600009fb600007ed700006eb000008b
:1065e400020000000300000006000000000100009b
:0465f40001000000a2
:020000040000fa
:1065f8000200fa00203a80007000600002003200b9
:10660800104120000100370030822000f0bf9f00b9
:10661800e6e4a900e6c4a900ea04a900e3e4a900a5
:10662800e3c4a900ed24a900e3a4a900e384a90018
:10663800e364a900e344a900e0e4a900ecc4a900cc
:10664800f07f2e000026b600003020000026b7009c
:10665800f0f32f000026b60000a6a9000086a900c6
:106668000046a9000020200050308800300020009b
:106678000426b70009e6a90009c6a9000986a900e9
:106688000946a9000926a90009a6a8000906a90023
:1066980041308000f0f92f00008060000060a00009
:1066a80040308800f0ff23000c26b600803e200012
:1066b800ffb89700808f500003003600f07f2c0051
:1066c8000c26b60021003700ffb89700808f5000d5
:1066d8001e003e00ffb99700801f780011000900d6
:1066e8000380d800800178004f007800e7816100be
:1066f800cb19dd0062308000f17f2c0001016100c0
:1067080003017100623088007fb99700811f78000b
:10671800110009000280d80001007800cf0078003d
:10672800e00f500009003200603080004b00de00ae
:106738000040e800670060004b00dd006230800028
:106748008100610080807000613088000fe6a80039
:106758001026ef0002e6ef0006a6ef0005e6a80007
:1067680005c6a8000586a80005a6a800f09f2f006a
:106778000426b6000506a90040062000ae9b0200cc
:1067880000000000003020000226b70001e6a80043
:1067980040062000ae9b0200000000000080fa00c6
:1067a80000000600000006000080fb00404788004b
:1067b80025003200203880007f0060007000100043
:1067c800e10f5000fbff340060478000cf80de00ff
:1067d8000200200003802500020070008380700002
:1067e80054478000cfa2de004c29dd00c421de0022
:1067f800830171004c21dd0002007000838070006d
:1068080000388800113888000000000080478000a8
:10681800cf80de00020020000390250002007000f7
:106828008380700074478000cfa2de004c29dd0011
:10683800c421de00830171004c21dd0002007000dc
:10684800838070000c003700203880007f006000d3
:1068580070001000e10f5000fbff34000000200022
:1068680001802500003888001138880000000000e9
:10687800f00e2f003191250000388800113888006b
:1068880000000000000006005047880061478800ab
:10689800724788008347880040478000e00f500017
:1068a80001003200c0ff070000000600e48747002f
:1068b800889fbe008a9fbe008c9fbe008e1f7800f6
:1068c80080057800820478004fb597003fb19700a3
:1068d8002fb09700283880007f446400fdff3a00fd
:1068e80038388000e00f5400fdff3500683880001c
:1068f80088bf9f007e3880008d3880009c388000db
:106908006b38880071388800893888009338880087
:1069180008002000092026000802720089827200ff
:10692800043888001538880000000000080020009e
:10693800093026000803730089837300063888002d
:1069480017388800000000007fab97000700200080
:106958004c3cdd00c434de00890474004c34dd0096
:106968006fab97000700200006037400878374004c
:10697800080020000940260008037300898373007b
:106988000638880017388800000000000130200011
:10699800810f500002003200e00f500009003a0059
:1069a8000fb39700070020000800200009602600a8
:1069b8000803730089837300063888001738880035
:1069c80000000000e00f5500010032002a002000fe
:1069d800e00f5100010032004200200001002000b9
:1069e80006002000077026000600700087807000ef
:1069f8001fb3970007002000060070008780700012
:106a08006152b80004007000858070000300200007
:106a180002007000838070000038880011388800f8
:106a280000000000203880007f406000fdff3a0031
:106a380030388000e00f5000fdff35000fb8970098
:106a4800603888007e3888008d3888009c38880037
:106a5800100020004f0778004f06be004f05be000b
:106a68004f04be004f00b10000000600e487470055
:106a7800889fbe008a9fbe008c9fbe008e1f780034
:106a880080057800820478004fb597003fb19700e1
:106a98002fb09700283880007f446400fdff3a003b
:106aa80038388000e00f5400fdff3500683880005a
:106ab80088bf9f007e3880008d3880009c38800019
:106ac8006b388800713888008938880093388800c6
:106ad800080020000920260008027200898272003e
:106ae80004388800153888000000000008002000dd
:106af800093026000803730089837300063888006c
:106b080017388800000000007fab970007002000be
:106b18004c3cdd00c434de00890474004c34dd00d4
:106b28006fab97000700200006037400878374008a
:106b380008002000094026000803730089837300b9
:106b4800063888001738880000000000013020004f
:106b5800810f500002003200e00f500009003a0097
:106b68000fb39700070020000800200009602600e6
:106b78000803730089837300063888001738880073
:106b880000000000e00f5500010032002a0020003c
:106b9800e00f5100010032004200200001002000f7
:106ba800060020000770260006007000878070002d
:106bb8001fb3970007002000060070008780700050
:106bc8006152b80004007000858070000300200046
:106bd8000200700083807000003888001138880037
:106be80000000000203880007f406000fdff3a0070
:106bf80030388000e00f5000fdff35000fb89700d7
:106c0800603888007e3888008d3888009c38880075
:106c1800100020004f0778004f06be004f05be0049
:106c28004f04be004f00b100000006000000fa004b
:106c3800889fbe008a9fbe00283880007f44640079
:106c4800fdff3a0038388000e00f5400fdff3500a2
:106c58006b3880007a388000893880009838800046
:106c68006038880071388800823888009338880036
:106c780000002000012026000002720081827200bc
:106c88000438880015388800000000000000200043
:106c980001302600000373008183730006388800e2
:106ca80017388800000000000fb897000100200086
:106cb8004c09dd00c401de00830171004c01dd00d8
:106cc8007fb09700010020000000710081807100f2
:106cd800020020000340260002007000838070003c
:106ce800003888001138880000000000000e2000dd
:106cf8000170260000388800113888000000000064
:106d0800203880007f406000fdff3a003038800066
:106d1800e00f5000fdff35006b3888007a38880096
:106d28008938880098388800100020004f05be0078
:106d38004f04be000080fa00000006000000fa00c0
:106d4800889fbe008a9fbe00870578000fbd970008
:106d58000402ea0008142000040444000a04540051
:106d68000603ea000614b0000a035300040f2000cb
:106d78000433b8000444b8008a1f78006fb2970043
:106d8800841f78000002eb00841f78000a062000a8
:106d98008a1f78000a0820008a1f7800841f78005c
:106da800841f78000b034300e0834b000502440076
:106db800e0824c002dff0700ee87570010002000ee
:106dc8004f05be004f04be000080fa000000060018
:106dd800ec874700889fbe008a9fbe008c9fbe003c
:106de8008e1f78000003780027388000ffc36300f7
:106df8000005eb005e003a00610713000207470038
:106e08006181100003014100c2b79f0000142000f7
:106e180006005000e0b79f000e005000d0b79f005a
:106e2800b6478000c747800066388800b6478000ac
:106e3800c747800077388800d6478000e74780003a
:106e480086388800d6478000e74780009738880052
:106e5800a7388000fb7f20008b836300610cb9009a
:106e6800000178006110b900070178008a017800f4
:106e7800f4b79f0085bf9f004e030200000000008a
:106e88000006440081864c000600200007202600ea
:106e9800060376008783760006388800173888004e
:106ea800000000008fba97007fb297008a8f5200c7
:106eb80007003a00a03880008b0560006fb2970089
:106ec8006120b9000b0178008501780007003700c0
:106ed800a03880008b056000dfb097000480500068
:106ee800cf80de000b0178008a0178004e03020093
:106ef800000000000000440081804c0008002000d1
:106f08000930260008007000898070000038880069
:106f180011388800000000006170b90004002000ea
:106f28000540260004007000858070004fb297006d
:106f38006121b9004c1add00c412de00850272001e
:106f48004c12dd0004007000858070000038880055
:106f58001138880000000000000e20000170260093
:106f68000038880011388800000000001a0020004e
:106f78000a0078004f0778004f06be004f05be0094
:106f88004f04be00cf00b100000006004247800059
:106f9800e00f51000c00320052478000820f500071
:106fa8003500350072478000820f500032003c00e7
:106fb80062478000828f50002f0035008247800092
:106fc800828f50002c003c00f41320000000520077
:106fd800d2478000e347800082388800d24780008b
:106fe800e347800093388800223880007f016100e1
:106ff80070011100e30f5100fbff340022478000ad
:10700800030020000600200007602600060171002a
:10701800878171000238880013388800000000005a
:10702800020f20000282b9006109b9000400410082
:10703800858049000200200003302600020070000d
:107048008380700000388800113888000000000034
:1070580010002100014026000038880011388800ff
:10706800000000000006200001702600003888009b
:107078001138880000000000000006000200fa0035
:107088000001eb00f2bf9f0012002000e00f50004b
:1070980040003500e08f50003e003500f41320001a
:1070a800840f50003b003c00f30e2000838f5000fb
:1070b80038003c0000005200223880007f41610007
:1070c800fdff3a0032388000e00f5100fdff350027
:1070d80092478000a347800062388800924780006a
:1070e800a3478000733888000f82e9006121b80047
:1070f8008238880093388800223880007f01610038
:1071080070011100e30f5100fbff3400020f200053
:107118000282b9006109b900040041008580490074
:107128000200200003202600020070008380700007
:107138000038880011388800000000000000200096
:10714800013026000038880011388800000000004f
:1071580010002100014026000038880011388800fe
:1071680000000000000e2000017026000038880092
:107178001138880000000000203880007f4060003f
:10718800fdff3a0030388000e00f5000fdff350069
:107198007fb99700020078000080fa00000006001e
:1071a800889fbe008a9fbe00000278001000200061
:1071b800820f52006a003c00838f500068003c0038
:1071c80040478000e00f50000e003200504780001a
:1071d800800f520001003d000002780070478000d7
:1071e800800f5100010034000001780060478000e2
:1071f800808f500001003d008000780080478000ab
:1072080018003700f0132000800f520001003400ee
:1072180000027800e00f520001003d000002eb0080
:10722800f00e2000808f50000100340080007800ac
:10723800e08f500001003d008000eb00f0132000bb
:10724800800f51000100340000017800e00f510068
:1072580001003d000001eb00e08f51000500350002
:10726800f00e2000808f5100030034008001780068
:10727800010037008001eb0025388000ffc2620062
:107288000000eb0036003a000201e8000402510059
:10729800061420000201530098478000a947800087
:1072a8008838880098478000a94780009938880066
:1072b80028478000090020000a0020000b602600f3
:1072c8000a0474008b847400083888001938880010
:1072d80000000000000f20000093b900610cb90005
:1072e8000603440087834c0008002000093026006c
:1072f80008037300898373000638880017388800ec
:1073080000000000cfa2de00060020000740260093
:1073180006027200878272000301e8000101510031
:10732800cf91de004c18dd00c410de008100700033
:107338004c10dd000002720081827200043888005f
:1073480015388800000000000006200001702600a3
:107358000038880011388800000000001000200064
:107368004f05be004f04be0000000600881f7800cd
:10737800c4a2a800c0a2a9004487a800303a80008f
:10738800f01fb20001a0270001007000303a880009
:1073980097fc07000004eb0028388800283988008b
:1073a8003839880048388800583888008839880073
:1073b800b839880098398800c8398800d8398800d1
:1073c800083888001838880022388000f1f12f002a
:1073d80001016100000820000001710022388800c6
:1073e8002239800081006100008070002039880007
:1073f8002139800080ff2f00008060000000a0007d
:107408002039880026c7a8002647a8002687a90093
:107418002607a80026a7a9002627a80026e7a8006f
:10742800010f2000e138880000142000f03888009f
:10743800a1388800b0388800801120000039880001
:10744800601420001039880090c1b3002be7b70002
:10745800080078002ae7b70040c0b3002de7b7005e
:10746800080078002ce7b7002ac7bf007e4040001c
:107478002ee7b7002cc7bf00644040002fe7b700d5
:107488002ec7bf0028e7b7002fc7bf0029e7b700fe
:107498000000200021002000b0478800c147880074
:1074a800d0478800e147880090478800a1478800b6
:1074b800c8388800d13888003ea7ef002727a800e1
:1074c800f0ff2c002427b6009080a900a080a90016
:1074d80005e7a80040062000ae9b0200000000005f
:1074e8002707a80028478800f30e2000f213200081
:1074f800880078000800780029ff07008a900200b9
:107508000000000040062000ae9b020000000000c2
:1075180008407800a4fc07004f047800000006002b
:10752800203880007f406000fdff3a0000002800fe
:107538003438800000026200fdff3a009047800066
:10754800a14780008038880090478000a1478000cc
:1075580091388800204780000100200002002000a8
:1075680003602600020070008380700000388800e5
:10757800113888000000000004388800000020004e
:107588000130260011388800000000000014200097
:10759800f1402600003888001138880000000000fb
:1075a8004006200001702600003888001138880045
:1075b80000000000203880007f406000fdff3a0096
:1075c80030388000e00f5000fdff35000000060055
:1075d800ea874700889fbe008a9fbe008c9fbe0036
:1075e8008e1f78000004be0082057800030578002d
:1075f80040438000e00f50002e003a008b0f5400eb
:10760800090032008a8f54002a003a008b0f540078
:107618000c00340009057800080078000b04780095
:10762800800578000a0037008a8f5400070034006c
:1076380088057800090078008a0478000005780039
:107648000300370009057800010037008805780035
:10765800a08620008040eb0090cf10000b00320085
:107668008b0f540005003a000801e8000800e90003
:107678008a01780089007800080037008900e9004d
:107688008a01e8000b017800030037008a017800be
:107698000b0178008900780008007800c0fe070018
:1076a800e00f5000a50032006b4388007a43880041
:1076b800a10037006b4388007a4388008b0f540081
:1076c80022003a008a8f5400030034000900780031
:1076d8008a047800000578001c0020008005eb0073
:1076e8000c0744008806e900150037008b05e80000
:1076f80040438000808f550002003a000c00a20031
:107708008005eb00e00f56000c0032000800be00b8
:107718001efe07008040eb00a086200090cf1000de
:1077280006003200890078000e00780017fe070076
:10773800890078000d00780014fe07008904e8002d
:10774800890f5500e9ff3d007b0037008a8f540000
:1077580022003a008b0f5400030034000800780020
:107768000b047800800578001c0020000005eb0061
:107778000c8744008906e900150037000a05e8006f
:1077880040438000800f550002003a000c00a20020
:107798000005eb00e00f56000c0032000800be00a8
:1077a800fafd07008040eb00a086200090cf100073
:1077b800060032008e00780008007800f3fd07000c
:1077c8008d00780008007800f0fd07000804e80044
:1077d800888f5500e9ff3d00570037008885550020
:1077e8001e00200002003b008b05ea000087eb002a
:1077f800090555001000200080bf9f0003003b00d2
:107808000a05ea008080eb0081bf9f008a8f55003f
:107818000e003d000800be00dcfd07000e007800e9
:107828000fbf970080bf9f000b0078008a05780083
:1078380000057800080078000904780080047800c2
:1078480010002000f0b79f00040037000800be00b9
:10785800cefd07008000eb00f1b79f000b804500cc
:10786800d0b79f000a054500eab79f000b065500f0
:107878001a0020008006eb002d003700e00f5600ac
:10788800040035008fb89700818444005fb09700ea
:10789800000656000e044400efb0970001064600ab
:1078a8008d06e80040438000808f560002003a00b1
:1078b8000a00a2008006eb00e00f55001c00320011
:1078c8007fb09700e00f50000d003200880078006c
:1078d80009007800adfd07000040eb00a1862000fc
:1078e800914f1000120032000900e800880078006b
:1078f800a6fd07000900e900880078000b003700a2
:107908000800be00a1fd07006fe89700a1862000cf
:10791800914f1000060032008900e8000800780046
:107928009afd07008900e9000800780097fd070024
:107938008b05e900d1ff3b00100020004f077800bd
:107948004f06be004f05be004f04be00af00b10099
:10795800000006008000eb00908f10000c003a0039
:107968000080e8001000be0064004000e08048008d
:107978009201800000f0a4008180d200910188006b
:10798800100078009201880080007800010037001c
:107998008000eb0001007800000006008000eb008a
:1079a800908f10000c003a000080e8001000be0024
:1079b80062004000e08048009201800000f0a400ce
:1079c8008180d2009101880010007800920188001f
:1079d80080007800010037008000eb00010078008b
:1079e800000006004f2ab000889fbe008a9fbe0094
:1079f8008c9fbe008e1f780062014100e081490023
:107a0800980180000203780006f0a4008383d20066
:107a180097018800160678009801880062014100e5
:107a2800e0814900980180000203780006f0a40074
:107a38008383d20097018800160378009801880094
:107a480062014100e081490097018000020478004a
:107a580008f0a4008384d2009901880018057800f2
:107a6800daaf9f009701880062014100e081490078
:107a7800970180000204780008f0a4008384d200f3
:107a88009901880098057800cbaf9f00970188007e
:107a980062044100e0844900e70363008703ea00c9
:107aa800cf3bde00c331de0083814300b3b79f00c4
:107ab80015077800e00f570004003a00ccb79f0084
:107ac8000e417800c2ef9f00130037003506900082
:107ad800bfb197000c9eb9000c057800cfe5de0019
:107ae8000a0144008b814c00a506900043edde009e
:107af800cfd5de000a037800cfd3de0006044100ac
:107b08008784490095029000c5b79f00e7c66600c4
:107b1800cdef9f000e037800e24f520001003a00bb
:107b28000603430003142000830f530003003e00a4
:107b380080024300838f52000200360003142000a5
:107b480000835100223880007f416100fdff3a0028
:107b5800030028003538800083826200fdff3a0068
:107b680007d52f008f834300613eb8006c3888002a
:107b78007d3888009c478000ad4780008c3888009d
:107b88009c478000ad4780009d38880005388800f4
:107b98000a0020000b2026001b3888000000000087
:107ba800f313200080815100830f53000400360036
:107bb8000314200080815100d3b79f0001003700d3
:107bc800d6b79f00cfed97000b81fb001a0020006d
:107bd8000255dd008ae79f000214200000005100d2
:107be80006005000020f20000205b800eaaf9f000f
:107bf800fbaf9f00f2855700888dbe000001eb00a7
:107c0800024778008602e9008582420000d52f00ed
:107c18000f00400005004000b0af9f00844178008d
:107c28000304a2008384fb008904ea00cf4cde0031
:107c3800a9af9f00dfb19700611db8000c002100bb
:107c48000d4026000c0375008d83750096b79f00c4
:107c5800a7b79f00f28357001705be00f2b79f0031
:107c6800044178000102780059003700cfec9700f2
:107c7800e0cf54000b003200930180000a00780026
:107c880000f0a4008b80d200910188001047780092
:107c98009301880061034500e0834d008fe1970060
:107ca800020037000a03be00cfe997003fac9700f7
:107cb800203880007f406000fdff3a000500280062
:107cc8003138800085806000fdff3a00810278002d
:107cd80017003700e0cf51000a003a0093018000f6
:107ce8000600780000f0a4008780d2009101880087
:107cf800104778009301880061034300e0834b003c
:107d080013c0b3000ec0610002003200cfa8970074
:107d180001003700dfa89700011478008502e80009
:107d28002fa897008080620001003a0083c14100bb
:107d3800dfb09700818f5200e6ff39009fb19700ae
:107d4800033888002fb39700163888000000000019
:107d5800840278008041eb00260e20000770260080
:107d6800100037006fac9700ffac97000500440087
:107d7800e0804c0008002000093026000800700050
:107d880089807000003888001138880000000000e1
:107d98000638880017388800000000008502e800cf
:107da8008341e80082cf5100eeff39008280fb005a
:107db800010242003fb697008006eb000c05450023
:107dc8008d854d007fb097000000e800f0b79f0058
:107dd800ffb09700cfb19700838f500003003100a8
:107de800f10e2000810f5200a0ff360020388000dd
:107df8007f406000fdff3a0030388000e00f5000ff
:107e0800fdff35004f0778004f06be004f05be0046
:107e18004f04be00ef1fb1006f0ab100000006005a
:107e2800ef2bb000889fbe008a9fbe008c9fbe00cb
:107e38008e1f7800e4ef9f0034c0b300a4e79f00d2
:107e48006feb9700e14f530002003a008643780039
:107e5800a7e79f0062014100e08149009801800086
:107e68000203780006f0a4008383d20097018800fb
:107e780096047800c9b79f00980188006201410004
:107e8800e0814900980180000203780006f0a40010
:107e98008383d2009701880016057800980188002e
:107ea8000a02780062034100e08349000606be002a
:107eb8000e0120000001eb00810578000003780026
:107ec8000c00be008201410067d32f008f8343005e
:107ed80083814300970180000c04780008f0a40017
:107ee8008d84d200990188001804780097018800d1
:107ef8008809780062064600e0864e000201e80024
:107f08000e07e900efff3a00060178000003be0003
:107f18008b00780002007800080220000900200089
:107f28000801430089814b008a04d100610565007e
:107f38000a854400dab79f00950578008e8f5500b2
:107f480002003a000e04780011003700a5069000e0
:107f580035039000dfb4970006cbb900060478001b
:107f6800cfb4de00080141008981490061846600c0
:107f78000d05d1000a0378008003eb0006014100db
:107f88008781490095029000c5b79f000b02440005
:107f9800efea9700e2cf520002003a008403420061
:107fa800010037008403780005142000858f5300f2
:107fb80003003e0000854300850f5500020036008f
:107fc80007142000808353000202be00233880007b
:107fd800ffc16100fdff3a000401be000a0028004d
:107fe800353880008a826200fdff3a006ad52f008a
:107ff8000f0545006a388800753888009a47800060
:10800800ab4780008a3888009a478000ab478000d9
:108018009b388800053888000a0020000b202600bd
:108028001b3888000000000001027800f5132000ca
:1080380080825200858f530004003600051420000a
:1080480080825200b5b79f0001003700b7b79f0084
:10805800efec97008984fb00a9b79f0009c4b90019
:10806800000654000c14b00007065600050f200047
:108078000560b800d0af9f00e1af9f000206be00c8
:108088000041eb008001eb008703e9008783430090
:1080980061d52f008f80400087804000c1af9f00ce
:1080a800afb297008502e900b5af9f003fb39700d4
:1080b800080053006105b8000000210001402600b7
:1080c80000037500818375005fb79700d6b79f00de
:1080d800e7b79f0003037800510037004fad9700c2
:1080e800203880007f406000fdff3a000100280032
:1080f8003038800001006000fdff3a000c04be002b
:10810800800278002fe097008003fb0017003700fb
:108118000780620009003a00900180000801780099
:1081280002f0a4008981d2009301880012417800ee
:108138009001880061044400e0844c008280fb00c8
:10814800bfa997000328de00610060004200dd003f
:108158000088de006f0060000000400061d32f003f
:108168008f804000611578008502e800bfb1970054
:10817800838f5200e6ff3900dfb297000538880088
:10818800efb39700173888000000000084027800d9
:108198008041eb000a0020000b302600280e20004a
:1081a8000970260086bf9f000e0037005fab97005e
:1081b800efab970005004300e0804b000a00700019
:1081c8008b8070000038880011388800000000009b
:1081d8000838880019388800000000008502e80087
:1081e8008341e800efeb970087cf5100efff39009c
:1081f8000fbb97002fb4970008024200feaf9f0004
:10820800cff4de0089b79f00e1fd2f008f8040008a
:108218001100be000006460081864e000603e800f5
:10822800cfb19700830f530003003100f00e2000f8
:10823800800f5200a9ff3600203880007f40600080
:10824800fdff3a0030388000e00f5000fdff350098
:108258004f0778004f06be004f05be004f04be0012
:10826800ef1fb1000f0cb10000000600cf3fb000b7
:10827800af09b000889fbe008a9fbe008c9fbe00d9
:108288008e1f780084f79f0062014100e081490059
:10829800980180000203780006f0a4008383d200ce
:1082a8009701880016027800980188006201410051
:1082b800e0814900980180000203780006f0a400dc
:1082c8008383d2009701880096047800f9b79f004d
:1082d8009801880062064100e08649000c05be004e
:1082e8000e1020000001eb0082014100e6b52f00ce
:1082f8000f03430083014300980180000a037800bc
:1083080006f0a4008b83d20097018800160378003a
:10831800980188008609780062054500e0854d00cf
:108328000201e8000e07e900efff3a0008202000ec
:10833800090020000801460089814e0015047800d4
:108348008e0f540003003a00040378007fb49700ae
:108358000e00370035059000ffb497000acdb9002c
:108368000a037800cfd3de00060141008781490067
:1083780025059000cfd5de000a037800cfd3de00b4
:108388000601410087814900150390000ff297000c
:10839800e24f520002003a00880244000100370010
:1083a8008802780007142000878f520003003e00df
:1083b80000844200870f5400020036000514200094
:1083c80080825200850378000202be00070178000f
:1083d80023388000ffc16100fdff3a008203780066
:1083e8000401be00870278000800280037388000a2
:1083f80088836300fdff3a00e8d52f000f0444008e
:10840800683888007738880098478000a947800036
:108418008838880098478000a947800099388800e4
:10842800073888000800200009202600193888002d
:108438000000000001077800f81320000004540031
:10844800888f52000300360008142000800554006d
:1084580001003700850578000714200000805300cc
:1084680005005000070f20000704b800b8b79f00a8
:10847800c9b79f000206be000001eb008502e900b3
:1084880085824200e9d52f008f844400858444000a
:10849800a9b79f00240e2000057026000ff0970052
:1084a8000080fb0090b79f00ffb09700cf88de00e8
:1084b80081b79f00fbaf9f004f003700afb3970015
:1084c800203880007f406000fdff3a00000028004f
:1084d8003838800000046400fdff3a000c05be0037
:1084e80019003700930180000a00780000f0a4000a
:1084f8008b80d20091018800104078009301880099
:1085080061054500e0854d008ff19700e2cf5100ed
:1085180007003a008080fb0081804000e9b52f0009
:108528008f844400e9807800811378000804e8000b
:108538000080fb0000004000e1b52f008f80400064
:10854800e11378000804e800ffa99700830f54009e
:10855800e4ff390009002000000021000140260046
:108568000000740081807400003888001138880089
:10857800000000008e0378008041eb0010003700f7
:108588003fb49700cfb4970007004400e0804c0048
:10859800080020000930260008007000898070005b
:1085a800003888001138880000000000043888006e
:1085b80015388800000000008703e8008341e800c0
:1085c8008ff4970089cf5100edff39001fb0970055
:1085d80000074700ffb09700d1b79f008fb1970001
:1085e800e3b79f00f68457001904be00080646004a
:1085f80089864e000201e800860f51000300310011
:10860800f00e2000800f5700acff360020388000a5
:108618007f406000fdff3a0030388000e00f5000d6
:10862800fdff35004f0778004f06be004f05be001e
:108638004f04be00ef1fb100ef1fb100af09b1003a
:10864800000006002f29b000889fbe008a9fbe0048
:108658008c9fbe008e1f780062014100e0814900b6
:10866800980180000203780006f0a4008383d200fa
:10867800970188001605780098018800620141007a
:10868800e0814900980180000203780006f0a40008
:108698008383d200970188009604780098018800a7
:1086a80062014100e081490015047800e00f5400a0
:1086b80003003a008abf9f00090478000f003700c2
:1086c800350590000a05450009d5b9000a03780068
:1086d800cfd3de00060141008781490025059000bf
:1086e8000a0545000a037800cfd3de0006014100e1
:1086f800878149009502900085bf9f00e24f520094
:1087080002003a008802440001003700880278001d
:1087180007142000878f520003003e0000844200a7
:10872800870f540002003600051420008082520092
:108738000203be0023388000ffc16100fdff3a003c
:108748000601be00070028003838800007046400ce
:10875800fdff3a002ad62f000f0545006153b800e7
:1087680066388800773888009a478000ab478000d1
:108778008a3888009a478000ab4780009b38880079
:10878800083888000a0020000b2026001b388800c3
:1087980000000000f713200080835300878f5200e9
:1087a800040036000714200080835300f7b79f00a9
:1087b80001003700f5b79f00010778000714200073
:1087c8000080530005005000070f20000705b8007f
:1087d800bab79f00cbb79f00098344000206be00ca
:1087e8000001eb008502e900858242002bd62f00ac
:1087f8008f85450085854500abb79f000480fb0049
:1088080090b79f00cfb2de0044003700afb39700a7
:10881800203880007f406000fdff3a003838800033
:108828000100280001046400fcff3a000c05be00aa
:108838000f003700930180000a00780000f0a400c0
:108848008b80d20091018800100078009301880085
:1088580062054500e0854d00e24f520002003a00f3
:10886800801378000804e800801378000804e80002
:10887800ffb49700890f5400eeff3900090020006b
:10888800000021000140260000007400818074006f
:108898000038880011388800000000008e03780036
:1088a8008041eb00120037003fb59700cfb5970025
:1088b80007004500e0804d00080020000930260030
:1088c800080070008980700000388800113888001e
:1088d80000000000290e2000093888000a702600d0
:1088e8001a388800000000008703e8008341e80088
:1088f80084cf5100ecff39009fb597000b07470064
:10890800d6b79f00e5b79f00f68057001100be005c
:108918000006460081864e000201e8000fbc970061
:10892800880f510003003100f00e2000800f57001f
:10893800b6ff3600203880007f406000fdff3a0017
:1089480030388000e00f5000fdff35004f077800f9
:108958004f06be004f05be004f04be00ef1fb1001a
:108968004f09b100000006000200fa00213880001b
:10897800ffc06000fdff3a00010028003238800087
:1089880001016100fdff3a006638800075388000fb
:108998008438800093388000b00090002000900058
:1089a80060388800713888008f83e9006138b80022
:1089b80080388800913888001000200001202600a7
:1089c800003888001138880000000000023888004c
:1089d8000000200001302600113888000000000047
:1089e8001000210001402600003888001138880056
:1089f80000000000600e200001702600003888008a
:108a08001138880000000000203880007f40600096
:108a1800fdff3a0030388000e00f5000fdff3500c0
:108a2800663888007538880084388800933888004c
:108a38007fb897000080fa00000006000200fa00e4
:108a480021388000ffc06000fdff3a0001002800c7
:108a58003238800001016100fdff3a00663880006d
:108a6800753880008438800093388000b00090000a
:108a78002000900060388800713888008f83e900f2
:108a88006138b800803888009138880020002000bc
:108a980001202600003888001138880000000000f6
:108aa80002388800000020000130260011388800b4
:108ab8000000000010002100014026000038880056
:108ac8001138880000000000600e200001702600a8
:108ad8000038880011388800000000002038800025
:108ae8007f406000fdff3a0030388000e00f500002
:108af800fdff35006638880075388800843888009e
:108b0800933888007fb897000080fa0000000600bc
:108b1800cf3fb0004f12b000889fbe008a9fbe00b2
:108b28008c9fbe008e1f78000004be00f2b79f0025
:108b3800c3e79f000200780084bf9f00bfff0700c3
:108b4800e0b79f000fba970094027800e08f5200b8
:108b580009003200340590000a85b900240390000a
:108b6800cfb3de000a014300e0814b0014029000fd
:108b7800d4b79f00050037007fb097007aff070041
:108b8800d0b79f00efb297006011b8004fe0970090
:108b9800e24f500002003a0005874200010037000a
:108ba8000507780004142000840f570003003e00d6
:108bb80088004700848f500002003600051420000a
:108bc80008875200090078006175b8004c5bdd0029
:108bd800c453de00870373004c53dd0014002000eb
:108be800054026000406730085867300bcb79f0005
:108bf800cdb79f0007142000088453000e045400ca
:108c0800070f200007c2b900b4af9f00c5af9f008f
:108c18008e02d100d5af9f000003eb0049ad2f00b5
:108c28008f844400614cb80088b79f0099b79f00b3
:108c380045d52f008f8242000e06e900acaf9f0099
:108c48000c0021000d4026000c0475008d84750071
:108c5800e8af9f00f9af9f000206be004fe1970002
:108c68007d00370021388000ffc06000fdff3a001a
:108c7800030028003138800083806000fdff3a003f
:108c8800ffb49700b9019000290590006a38880060
:108c9800733888008fb597008b3888009fb197008c
:108ca800933888003fb2970004388800cfb3970004
:108cb800173888000000000063054600e0854e0074
:108cc8000800200009202600080475008984750022
:108cd800083888001938880000000000013888002a
:108ce800083026001838880000000000680e2000b0
:108cf800097026000838880019388800000000002c
:108d080021388000ffc06000fdff3a000300280002
:108d18003438800003026200fdff3a00e24f510040
:108d28001b003a00840378000c0037008781430059
:108d38008300570049ad2f008f8444006982790071
:108d48008101e9008381410084b279008180e900d2
:108d58008180400084b278008703e8005fad970007
:108d68008a8f5300f1ff39000b003700afad970031
:108d780084805500818040008401420047ad2f0067
:108d88008f834300e781790083b278000402e8000a
:108d98008e0f5200f5ff3900653888000e27ef0066
:108da80098478000a9478000883888009847800045
:108db800a9478000993888000027ef0008002000a4
:108dc800092026001938880000000000800178007a
:108dd8008040eb0018003700611cb9003fad9700d8
:108de800cfad97000804450089844d000a00200093
:108df8000b3026000a0474008b847400083888003d
:108e08001938880000000000efad97000b38880083
:108e18007faa97001438880000000000270e200061
:108e280007388800087026001838880000000000fd
:108e38008301e8008140e80082cf5000e6ff390056
:108e48008280fb0001004000efb49700090646004d
:108e5800e0864e000603e8005fb597008a0f5300ce
:108e680003003100f10e2000810f50007dff360015
:108e7800203880007f406000fdff3a0030388000d5
:108e8800e00f5000fdff35004f0778004f06be0089
:108e98004f05be004f04be00ef1fb100ef1fb10029
:108ea8004f12b10000000600cf3fb0000f1eb00007
:108eb800889fbe008a9fbe008c9fbe008e1f7800d0
:108ec8000004be00f2b79f00a3e79f00203880008f
:108ed8007f406000fdff3a00010028003a3880001a
:108ee80001056500fdff3a007fb09700b0009000d3
:108ef800a0019000633888007138880085b52f007c
:108f080085804700813888009a388800360020001c
:108f1800072026000638880017388800000000005f
:108f28000a38880006002000073026001738880015
:108f380000000000160020000741260006388800bf
:108f48001738880000000000660e20000770260011
:108f580006388800173888000000000084bf9f008a
:108f6800b6fe0700c0b79f000fba970094027800ba
:108f78008a8f52000b00320024039000cfb3de002a
:108f88006620b0000780b000340590000a85b9005b
:108f98000a014300e0814b0014029000d4b79f00ff
:108fa800080037007fb097006ffe0700d0b79f001a
:108fb8007fb09700a1fe07008002780062202000a1
:108fc8000300200009037800afe49700e2cf5400c3
:108fd80002003a00858342000100370085037800cb
:108fe80004142000848f530005003e008804e90023
:108ff800878444000402e900848f5400020036008c
:109008000714200088835300f4132000080252003c
:10901800848f530004003900041420000802520011
:10902800e4b79f0001003700e7b79f00612ab80046
:109038004c2ddd00c425de008b0575004c25dd00b8
:109048001400200005402600040075008580750086
:10905800a0b79f00b1b79f000514200008845200f4
:1090680007045400050f20000540b800d0af9f004a
:10907800e1af9f000000eb0085a12f008f82420026
:10908800612ab800f4af9f0085b79f000a0020004e
:109098000b3026008703e9008783430088d52f001b
:1090a8000f04440007044400c8af9f000206be0036
:1090b800ffb397002fe1970089003700213880001f
:1090c800ffc06000fdff3a0003002800313880002f
:1090d80083806000fdff3a0023388000c519de0058
:1090e800e7c1610025388000f4f12f000482620096
:1090f8000406b3002438880037029000a7049000c3
:1091080069388800743888007faa970084388800f6
:109118008fb29700953888000400200005202600ab
:1091280004027600858276000438880015388800a5
:1091380000000000013888001b388800000000008b
:109148002fb4970008388800bfb4970019388800f2
:1091580000000000640e2000057026000438880016
:10916800153888000000000021388000ffc060002a
:10917800fdff3a0001002800343880000102620037
:10918800fdff3a00e7816100c519dd002538800040
:10919800f1f12f00818062008381700023388800fc
:1091a800cfaa97008ea12f000f07470011003700a4
:1091b800be407800e24f510007003a008181fb0071
:1091c8008381410088b52f000f044400e8817900ad
:1091d800831278000402e8008180fb00818040004f
:1091e80089b52f008f844400e980780081127800c7
:1091f8000402e800efb09700810f5200ecff39003d
:1092080021388000ffc06000fdff3a0003002800fd
:109218003138800083806000fdff3a0083d52f003d
:109228008f81410063388800713888009847800032
:10923800a94780008838880098478000a94780009f
:109248009938880001388800080020000920260085
:1092580019388800000000006124b80004002100cb
:1092680005402600040274008582740004388800d2
:1092780015388800000000008601780010003700cb
:109288005fac9700efac970003024400e0824c000b
:109298000a0272008b827200043888001538880030
:1092a80000000000290e20000938880004702600fc
:1092b80014388800000000008301e8008140e800bd
:1092c80082cf5000eeff39008280fb00010343008b
:1092d800cfb2970005064600e0864e000000e80081
:1092e8005fb49700880f500003003100f10e200092
:1092f800810f530071ff3600203880007f406000e6
:10930800fdff3a0030388000e00f5000fdff3500c7
:109318004f0778004f06be004f05be004f04be0041
:10932800ef1fb100ef1fb1000f1eb10000000600d3
:109338004f36b000889fbe008a9fbe008c9fbe003b
:109348008e1f78000004be00f2b79f00c3ef9f0095
:1093580030c0b300a0e79f00e1cf510002003a00ff
:1093680083407800a1e79f00203880007f4060009c
:10937800fdff3a00010028003a3880000105650029
:10938800fdff3a00ffb19700b3009000a3029000e0
:10939800653888007138880000c92f000f00400028
:1093a8006103b800863888009738880036002000a6
:1093b80007202600063888001738880000000000bb
:1093c8000a38880006002000073026001738880071
:1093d800000000001600200017402600063888000c
:1093e8001738880000000000660e2000077026006d
:1093f800063888001738880000000000030078004d
:1094080084bf9f008dfd070080027800e180620024
:109418008580400081b79f000fba970094027800ba
:109428008a8f52000b00320024039000cfb3de0075
:10943800c604b0000780b000340590000a8db9005a
:109448000a014300e0814b0014029000a4b79f007a
:10945800080037007fb0970043fd0700a0b79f00c2
:109468007fb0970075fd070080027800c2042000d5
:1094780003002000c9b79f00cfe89700e2cf500053
:1094880002003a0085834200010037008503780016
:1094980004142000848f530003003e008884430096
:1094a800848f54000200360007142000888353007c
:1094b800f413200008025200848f53000300360082
:1094c8000414200008025200010037000702780047
:1094d800b4b79f00612ab8004c2ddd00c425de001a
:1094e8008b0575004c25dd00140020000540260082
:1094f8000400750085807500e0af9f00f1af9f0004
:10950800091420000884540007045400090f20009f
:109518000942b800b4af9f00c5af9f000003eb003d
:109528008703e9008783430025d52f008f824200f7
:1095380087824200a5af9f00cfeb97008783fb008f
:10954800d7af9f008704e90099af9f003fb097000d
:109558006104b8000c0021000d4026000c007400c6
:109568008d807400064778000206be004fb1970050
:10957800c0b79f00d1b79f007fb097008f0037001a
:1095880021388000ffc06000fdff3a00030028007a
:109598003138800083806000fdff3a002338800066
:1095a800c519de00e7c1610025388000f4f12f00fd
:1095b800048262000460a000243888003002900011
:1095c800a0029000653888007438880007cb2f0007
:1095d8008f83430087388800913888000400200072
:1095e800052026000402760085827600043888006b
:1095f80015388800000000000138880004002000a9
:10960800053026001538880000000000efac9700f0
:1096180009388800ffa8970011388800000000006a
:10962800640e20000570260004388800153888006c
:109638000000000021388000ffc06000fdff3a00f4
:10964800050028003138800085806000fdff3a0061
:10965800e7816100c519dd0025388000f4f12f008d
:10966800048262008301720023388800afab970040
:109678000102780005cb2f008f824200afe19700ee
:109688000304fb00100037008800620001003a0064
:10969800354778008e81fb009fac97008920de005b
:1096a800e1806000c208dd008198de00ef80600084
:1096b8008180400003c92f008f814100e38078003a
:1096c800811378000402e800bfb49700890f5200a4
:1096d800edff390021388000ffc06000fdff3a002f
:1096e800030028003138800083806000fdff3a00c5
:1096f80023d52f008f814100633888007138880096
:1097080094478000a54780008438880094478000eb
:10971800a54780009538880001388800040020009b
:109728000520260015388800000000004fb2970079
:1097380004388800dfb29700153888000000000060
:10974800820178000a0020000b302600280e200035
:1097580009702600f6b79f000e0037003fab970050
:10976800cfab970003024300e0824b000a0272006d
:109778008b827200043888001538880000000000c9
:109788000838880019388800000000008301e800c4
:109798008140e800cfeb970087cf5000efff3900fa
:1097a8007fb39700dfac9700090141008fb09700a5
:1097b80001064600e0864e000603e800afb19700b8
:1097c800830f530003003100f10e2000810f510078
:1097d8006bff3600203880007f406000fdff3a00b4
:1097e80030388000e00f5000fdff35004f0778004b
:1097f8004f06be004f05be004f04be00ef1fb1006c
:109808006f16b100000006008f2cb000889fbe00c4
:109818008a9fbe008c9fbe008e1f78000004be0089
:10982800f2b79f00a3ef9f00203880007f406000c0
:10983800fdff3a00010028003a3880000105650064
:10984800fdff3a007fb09700b00090002001900023
:109858006238880071388800c3d22f008f81410098
:10986800611bb800863888009738880036002000c9
:1098780007202600063888001738880000000000f6
:109888000a388800060020000730260017388800ac
:109898000000000016002200074026000638880055
:1098a8001738880000000000660e200007702600a8
:1098b80006388800173888000000000084bf9f0021
:1098c8005efc0700e0b79f00e70260000fba970050
:1098d8008a8f52000400320085ff2f008500600047
:1098e800e8804000e1b79f0094027800e08f5200c2
:1098f8000c00320024039000cfb3de000605b00050
:109908000780b000340590006fb097000a85b90051
:109918000a014300e0814b0014029000b4b79f0095
:10992800080037007fb097000ffc0700b0b79f0012
:109938007fb0970041fc07008002780002052000f4
:109948000300200089b79f00afe89700e2cf5000de
:1099580002003a0085834200010037008503780041
:1099680004142000848f530003003e0088844300c1
:10997800848f5400020036000714200088835300a7
:10998800f413200008025200848f530003003600ad
:109998000414200008025200010037000702780072
:1099a800c4b79f00612ab8004c2ddd00c425de0035
:1099b8008b0575004c25dd001400200005402600ad
:1099c800040075008580750090b79f00a1b79f00bf
:1099d800051420000884520007045400050f2000d5
:1099e8000540b800e0af9f00f1af9f000003eb0017
:1099f8000645780000002000013026008703e900b2
:109a080087834300a4d52f000f02420007024200bb
:109a1800d4af9f00afea97000504a2008585fb003c
:109a28008b05ea00cf5bde000206be000fb7970089
:109a380092003700223880007f416100fdff3a0024
:109a4800040028003338800084816100fdff3a005b
:109a5800243880004522de0067416200f5f12f00be
:109a68008002fd000427b6008002fd007fb2970047
:109a7800b402900024029000643888007538880089
:109a880005d32f008f8242008538880093388800dc
:109a98000400200005202600040276008582760056
:109aa8000438880015388800000000000338880052
:109ab80011388800000000009fb197000338880023
:109ac8002fb297001438880000000000640e2000b0
:109ad800057026000438880015388800000000004a
:109ae80023388000ffc16100fdff3a00050028000f
:109af8003338800085816100fdff3a00670261000c
:109b08004522dd0028388000f5f12f008502640029
:109b18000482720024388800dfac9700ff15950096
:109b28006f119500830278000542780008d32f0052
:109b38000f0444000e003700e04f520002003a00c4
:109b48003845780014c0b300844165000200320033
:109b58008b017800010037008201780083147800b7
:109b68008502e8008781620001003a000442420051
:109b7800cfb19700838f5200efff39002238800061
:109b88007f416100fdff3a0004002800333880005f
:109b980084816100fdff3a00a4d52f000f02420026
:109ba800643888007338880094478000a54780008f
:109bb8008438880094478000a5478000953888003d
:109bc8000338880004002000052026001538880086
:109bd800000000004fb197006114b8000400210094
:109be8000540260004027400858274000438880049
:109bf80015388800000000008e057800280e200027
:109c080009702600860278000342780087b79f0013
:109c18000e0037006fab9700ffab97000b014300b6
:109c2800e0814b00000171008181710002388800d9
:109c380013388800000000000838880019388800a8
:109c4800000000008b05e8000442e800afeb970035
:109c5800874f5200efff3900050378008fb3970054
:109c68002fe997008281fb0003074700efb19700b7
:109c780003064600e0864e000603e8003fb2970060
:109c8800840f530003003100f30e2000830f5700a8
:109c980068ff3600203880007f406000fdff3a00f2
:109ca80030388000e00f5000fdff35004f07780086
:109cb8004f06be004f05be004f04be00ef1fb100a7
:109cc800af0cb100000006000200fa002138800045
:109cd800ffc06000fdff3a00010028003238800014
:109ce80001016100fdff3a00663880007538800088
:109cf8008438800093388000b000900020009000e5
:109d080060388800713888008f83e9006138b800ae
:109d180080388800913888000238880000002000c8
:109d28000120260011388800000000000238880051
:109d380000002000013026001138880000000000d3
:109d480010002100014026000038880011388800e2
:109d580000000000600e2000017026000038880016
:109d68001138880000000000203880007f40600023
:109d7800fdff3a0030388000e00f5000fdff35004d
:109d880066388800753888008438880093388800d9
:109d98007fb897004880de000080fa0000000600c7
:109da8000800fa00889fbe0000047800253880006b
:109db800ff826200f08212000000eb00e38f520085
:109dc800240034002947800002007800a1bf9f00ca
:109dd800b2bf9f00c3bf9f00d4bf9f00baff070058
:109de80080427800afb897003fb99700cfb9970085
:109df8005fba9700e4cf52000c00320003003e0027
:109e0800e1cf520011003a0005003700e8cf5200b8
:109e180009003200f0cf52000c003a000900370068
:109e28000800780078fe070008003700080078006e
:109e38003ffd070005003700080078001afc0700fe
:109e4800020037000800780031fb07002947880026
:109e5800100020004f04be000080fa000000060039
:109e6800263880007f436300fdff3a000700280082
:109e78003638800007036300fdff3a006038880029
:109e8800713888000638880000002000011027007b
:109e98001138880000000000823888009338880054
:109ea80006388800000020000120270011388800ab
:109eb800000000000000200001402700000272009e
:109ec800818272000438880015388800000000007c
:109ed80007003700e0398000c003b200810f50004e
:109ee80003003200e0398000c043b20000000600e1
:109ef800e1398000e2806000f6ff3200e03980003e
:109f0800c043b2000000060000a0fe009080a90037
:109f18005038800070006000010032000a87a900f4
:109f28000080fe00004006000a87a9000887a800f4
:109f3800a080a8000000060021388000ffc0600053
:109f48001000200002003a00303880004f00de0088
:109f58000000060050478800614788007247880063
:109f680083478800000006000080fb004047880007
:109f780000000600889fbe008a9fbe008c1f7800e4
:109f8800000578000104780082057800030678004f
:109f9800a04f0200000000000002eb00840f5000f8
:109fa800090032000d0037008800780009007800a9
:109fb800ca370200000000008904e800898f5500b4
:109fc800f9ff3d000804e800880f5600020035003c
:109fd8008a047800f9ff3700140020000400780094
:109fe8004f0678004f05be004f04be000000060073
:109ff800ea874700889fbe008a9fbe008c9fbe00ec
:10a008008e1f78000004be000205be00a04f0200ab
:10a0180000000000800078000000eb00808f5000f6
:10a02800af003a006a4388007b4388008a0f5400d7
:10a0380025003a008b8f5400030034000900780093
:10a048008b047800800578001c0020000005eb00d8
:10a058000c0744008806e900180037000a05e800e4
:10a0680040438000800f550002003a000c00a20017
:10a078000005eb00e00f56000f0032000800be009c
:10a08800ca370200000000008040eb00a0862000d4
:10a0980090cf100008003200890078000e00780088
:10a0a800ca37020000000000890078000d0078001f
:10a0b800ca370200000000008904e800898f5500b3
:10a0c800e6ff3d00850037008b8f540025003a00dd
:10a0d8008a0f540003003400080078000a0478004e
:10a0e800000578001c0020008005eb000c87440068
:10a0f8008906e900180037008b05e8004043800016
:10a10800808f550002003a000c00a2008005eb0089
:10a11800e00f56000f0032000800be00ca370200e8
:10a12800000000008040eb00a086200090cf1000c7
:10a13800080032008e00780008007800ca37020054
:10a14800000000008d00780008007800ca3702007f
:10a15800000000000804e800880f5500e6ff3d00f5
:10a168005e003700080555001e00200002003b0075
:10a178000a05ea000087eb008985550010002000d9
:10a1880080bf9f0003003b008b05ea008080eb0046
:10a1980081bf9f008b0f55000f003d000800be00d7
:10a1a800ca370200000000000e0078000fbf9700b9
:10a1b80080bf9f000a0078000b05780080057800b2
:10a1c8000800780009047800800478001000200056
:10a1d800f0b79f00050037000800be00ca3702002c
:10a1e800000000008000eb00f1b79f000a00450066
:10a1f800d0b79f008b854500ebb79f000a865500b6
:10a208001b0020008006eb0032003700e00f5600ec
:10a21800040035008fb89700818444005fb0970030
:10a22800000656000e044400efb0970001064600f1
:10a238008d06e80040438000808f560002003a00f7
:10a248000b00a2008006eb00e08f550021003200d1
:10a258007fb09700e00f50000f00320088007800b0
:10a2680009007800ca370200000000000040eb0037
:10a27800a1862000914f1000160032000900e80066
:10a2880088007800ca370200000000000900e900d1
:10a29800880078000d0037000800be00ca370200a9
:10a2a800000000006fe89700a1862000914f100081
:10a2b800080032008900e80008007800ca37020068
:10a2c800000000008900e90008007800ca37020091
:10a2d800000000000a05e900ccff3b001000200048
:10a2e8004f0778004f06be004f05be004f04be0062
:10a2f800af00b10000000600f30e2000f2132000aa
:10a308006000b800d4380200000000008000eb00b4
:10a31800810f5000f8ff32006143880071438800c4
:10a3280000000600881f78000004eb0048438800fe
:10a33800a086200008487800684388007843880091
:10a34800ba3902000000000028478800943a020049
:10a358000000000008407800d83302000000000028
:10a3680000872000084878001087200000c8eb000c
:10a378004f04780000000600af02b000889fbe00be
:10a388008a9fbe008c9fbe008e1f7800f0b79f008a
:10a3980081b79f0082bf9f0003077800c4b79f0062
:10a3a800b5b79f00c6ef9f006125b90052502b003a
:10a3b800030020000a00be004e0302000000000057
:10a3c80081af9f003fb097006104b90052502b0045
:10a3d800030020000800be004e0302000000000039
:10a3e800f1a79f00c055dd000a0020000c002400e2
:10a3f8001d0020000a0056008b805e00b0af9f0051
:10a40800c1af9f00c044dd000800200008005600ce
:10a4180089805e0090af9f00a1af9f008fb097002a
:10a42800810347008783d100d7b79f008701e800e1
:10a43800a3b79f000fb89700ffb0970081044000b2
:10a448000984d1008801e80093b79f004fe897007e
:10a458000085fb008a0078000104b200f1af9f007c
:10a46800e1016500e3af9f000fb897000000e90025
:10a47800e0a79f008a0078000102b200d1a79f00e0
:10a48800d8af9f00ffb697008fb497000fbe970014
:10a498004fb497008abf9f003fb59700a04f0200b6
:10a4a8000000000000027800e00f5200d4013a00da
:10a4b8004445800005002000f10f5200e08f5a004b
:10a4c800f6ff3e0004600100110037005a00370013
:10a4d800440137007b0037005601370094003700ed
:10a4e800a2013700ad003700b3013700c7003700bd
:10a4f8007e013700e10037008d013700f900370091
:10a508005c01370012013700690137001400370079
:10a518008fa99700334688007fa0970020468800bf
:10a52800cfa89700c1458800afa99700b345880018
:10a53800184688000a4688008002eb00f545880026
:10a54800e5458800a8458800140020009445880047
:10a55800854588007a458800654588005545880006
:10a56800e545800024468000848f520003003400b3
:10a5780024002000444588001a013700f445800073
:10a588008445880055458800164680003546800079
:10a59800850f520010003c00c5458000e08f520036
:10a5a800050034000603e90016468800e5824200eb
:10a5b8000602520001003700e38242000402420012
:10a5c80004824200c4458800f44580000402e80083
:10a5d800f4458800050037000402e800f4458800c7
:10a5e800840f530001003d0014468800b5458000e3
:10a5f800e4458000e08f52000600340006468000e3
:10a608000603e90006468800e58242000602520079
:10a6180001003700e3824200040242000482420043
:10a62800b4458800e44580000402e800e445880059
:10a638001400200044458800a54580001446800089
:10a64800848f520004003a0006468000744580005a
:10a65800860f5200c2ff32006fa89700e00f50002b
:10a668001600320085825400864580000682540018
:10a67800848f520002003d00d54588000200370053
:10a688000402e900d44588000603460074458000aa
:10a69800848254006445800004024600d34580004b
:10a6a800060178000400be00d43802000000000053
:10a6b80080057800e08f55005301320034002000f7
:10a6c8003b0137008fb897006282600016003200a5
:10a6d800a445800004024600854580000503460025
:10a6e800860f520002003400d4458800010037006c
:10a6f800d6458800744580000403460085825400ce
:10a708006445800084815400060178008500780043
:10a71800d0458000d4380200000000008005780091
:10a72800e08f550038013200540020002001370026
:10a738008fb997006482610016003200a44580003a
:10a74800040246005645800086024600850f5200e6
:10a7580002003400d445880001003700d545880040
:10a768007445800084024600944580000402470036
:10a77800860147000501780084007800d0458000f4
:10a78800d43802000000000080057800e08f5500f2
:10a798001d01320074002000050137000fb8970032
:10a7a8006802600017003200a44580008402470058
:10a7b8005645800006024700848f5200020034008c
:10a7c800d5458800020037000402e800d445880017
:10a7d80006034600944580008402460074458000c4
:10a7e8008401470006017800d14580000500780003
:10a7f800d43802000000000080057800e08f550082
:10a808000101320094002000e90037008fb897005a
:10a818007082600017003200a4458000840247005f
:10a828008645800006024700848f520002003400eb
:10a83800d5458800020037000402e800d4458800a6
:10a848006445800084825600068356007445800063
:10a858008401470005017800d14580000600780092
:10a86800d43802000000000080057800e08f550011
:10a87800e5003200b4002000cd003700dfa19700ca
:10a88800e08f510015003200a44580000482560074
:10a898008645800086825600850f520002003d00e2
:10a8a800d445880001003700d545880064458000fc
:10a8b80084024700744580000482560086014700e0
:10a8c800d24580000400be00d43802000000000019
:10a8d80080057800e08f5500cb003200d4002000be
:10a8e800b30037007fa89700e00f50001600320031
:10a8f800a445800004825600564580008682560092
:10a90800850f520002003d00d44588000100370041
:10a91800d54588000683540074458000848256001b
:10a928009445800084815400d245800086007800d8
:10a9380005007800d4380200000000008005780087
:10a94800e08f5500b0003200f40020009800370076
:10a95800cfe89700e0cf500018003d00a4458000e4
:10a96800048354005545800005825400840f530029
:10a9780002003d00d6458800020037000402e900c5
:10a98800d4458800944580000483560074458000af
:10a998000482540085825600d34580000601780061
:10a9a8008400780005007800d43802000000000018
:10a9b80080057800e08f5500930032001346800030
:10a9c800a3458800f0458000904588000146800036
:10a9d80071458800e3458000634588001401200024
:10a9e800730037008d0f560002003a00890f570098
:10a9f8007f0032000fb89700620260000b0032003f
:10aa08000c0345008902e8000c024400dfb19700fe
:10aa1800060178000400be00d438020000000000df
:10aa280080057800e08f5500770032004400200050
:10aa38005f0037008fb89700648260000b00320017
:10aa48000c0245008c0244008e0178000401780055
:10aa5800afb0970005007800d4380200000000006d
:10aa680080057800e08f550067003200e400200080
:10aa78004f0037008fb99700708261000a003200da
:10aa88008e0244000d02e8008e0145005fa9970080
:10aa98000400be00d43802000000000080057800e1
:10aaa800e08f5500580032000401200040003700b4
:10aab8000fb89700680260000a0032000e024400d6
:10aac8008e0145000c017800840078001fb09700c3
:10aad800d43802000000000080057800e08f55009f
:10aae80049003200a4002000310037008d0f5600c5
:10aaf8001c003200cfe89700e0cf50000a003d006c
:10ab08000a825400888154005fa997008400780065
:10ab18000d007800d438020000000000800578009d
:10ab2800e08f550038003200c400200020003700b4
:10ab3800efa99700e08f51000a0032000a82540002
:10ab4800888154006fa19700840078001fb0970097
:10ab5800d43802000000000080057800e08f55001e
:10ab68002900320064002000110037008e8f540045
:10ab78001f0032007fa89700e00f50000b00320042
:10ab8800088256008a825600dfb1970004017800d7
:10ab98008900780005007800d43802000000000021
:10aba80080057800e08f55001700320084002000ef
:10abb8004445880039fe37004feb97000602b20083
:10abc8000b003200ffb09700cfb19700038150000f
:10abd800bfb19700038050008e01e900afb0970025
:10abe800d438020000000000e00f500007003200d7
:10abf8000000eb00404588001000200003003700eb
:10ac08000000eb00010037000b0078004f077800c8
:10ac18004f06be004f05be004f04be00af02b10094
:10ac2800000006000f02b000889fbe008a9fbe0089
:10ac38008c9fbe008e1f7800a0b79f0091b79f0021
:10ac480082b79f00f3af9f00e4af9f00a04f0200c0
:10ac580000000000000578008002eb00850f550019
:10ac6800fc003a006fa897006104b90052502b000d
:10ac7800030020000800be004e0302000000000090
:10ac8800810278008502e800a5af9f00c044dd007e
:10ac980008002000060024001700200008045300c4
:10aca80089845b00efa897008a8f5000ab003200c0
:10acb8000901780001007800b0b79f001600200055
:10acc8008a017800a20037008301e800454380002c
:10acd800858f510002003a000600a2008001eb00b7
:10ace800e00f53008c0032009fb097003fb09700f0
:10acf800808550008fb09700010745008b007800d1
:10ad08000e00780082bf9f00f3b79f00e6b79f0050
:10ad1800ca370200000000001fb097000a00500068
:10ad2800d0af9f00bfb097000fb0970000864000db
:10ad3800dfa897000c007800ca3702000000000066
:10ad4800bfb097007fa897008084400089007800f2
:10ad58000e007800ca37020000000000ffa8970024
:10ad680081004500c1af9f000c007800ca3702007f
:10ad7800000000002fb097000a005000b0af9f00fd
:10ad880089007800ca37020000000000afb09700c1
:10ad98003fb0970000845000cfa8970008007800c3
:10ada800ca37020000000000dfa8970008007800fa
:10adb800ca370200000000008b0078003fa8970007
:10adc800ca370200000000000fb99700ffb19700d2
:10add8006fb397000040eb00a1862000914f100050
:10ade8004d0032008b02e900850078000e007800e3
:10adf800d5b79f00ca370200000000000b02e80028
:10ae0800840078000e007800c4b79f00ca3702009b
:10ae1800000000008c06e800dfa897000d0078000d
:10ae2800ca370200000000000c06e900dfa89700fe
:10ae38000c007800ca370200000000008905e9000c
:10ae48008b0078000e007800ca370200000000006e
:10ae58008904e800890078000e007800ca370200eb
:10ae680000000000cfa897000d007800ca37020044
:10ae780000000000cfa897000c007800ca37020035
:10ae8800000000008b0078003fa89700ca37020036
:10ae980000000000890078003fa89700ca37020028
:10aea800000000008804e800cfa897000900780097
:10aeb800ca370200000000000804e900cfa8970084
:10aec80008007800ca37020000000000dfa89700d9
:10aed80009007800ca37020000000000dfa89700c8
:10aee80008007800ca37020000000000cfb09700c1
:10aef8003fa89700ca37020000000000dfb09700a3
:10af08003fa89700ca370200000000006fb39700ff
:10af1800ffb197000fb99700e00f51000800340007
:10af2800bfb097008100e900b1b79f0065014100fb
:10af380001005500000040000001410003003700f7
:10af4800630141008a004500010141000a05e8004b
:10af58002fa89700800f55005bff34008fb0970033
:10af68002fb09700808f50000b0032009fb09700e1
:10af78006fa8970080845000890178000fb197006e
:10af8800890078002fb09700ec3a0200000000001a
:10af9800e00f5000f8ff3200ffa897001fb097009d
:10afa800808f50000b003200afb097006fa8970059
:10afb80080845000ffa99700090178009fb097008e
:10afc80009007800ec3a020000000000e00f500091
:10afd800f8ff32008fb097002fb09700808f500095
:10afe80005003a0015002000ffa897001fb0970041
:10aff800808f500017003200efa897000fb097001d
:10b0080080844000ffa99700090178009fb097004d
:10b0180009007800ec3a020000000000e00f500040
:10b02800f8ff3200efa897007fa89700008440003f
:10b03800880178000fb19700880078002fb097003a
:10b04800ec3a020000000000e00f5000f8ff320068
:10b0580015002000050078004f0778004f06be0055
:10b068004f05be004f04be000f02b10000000600ed
:10b07800f0874700889fbe008a9fbe008c9fbe0055
:10b088008e1f7800000778000106780082bf9f00b5
:10b0980083067800840578008c8256008582d1006a
:10b0a8008c824200d5b79f00615cb90052502b00da
:10b0b800030020000800be004e030200000000004c
:10b0c800a1b79f00c044dd0008002000060024004e
:10b0d800170020000800530089805b00b0b79f006c
:10b0e800c1b79f00188720008fb89700818045005e
:10b0f800f1b79f000b005700e0b79f000fbd970006
:10b10800a04f02000000000000027800e00f52008b
:10b11800fd003a00a444800005002000e90f520019
:10b12800e08f5a00f6ff3e00046001000900370076
:10b138001e0037002d0037009b0037007f003700c6
:10b148004500370063003700b5003700cf003700ef
:10b15800e400370018427800e14f420002003a004c
:10b168008d01780003003700f04f420004003a00d8
:10b17800dfb197007fb197008c007800030037009b
:10b188008d0178007fb19700dfb097006fb097000e
:10b19800d43802000000000080027800e08f5200de
:10b1a800db00320014002000b30037000002eb007f
:10b1b800848f5500b20032002fb0970020458800d8
:10b1c800cfb09700314588001b45880004458800aa
:10b1d80015002000e5448800fb448800d44488001a
:10b1e800f00e2000c0448800b44488000545800063
:10b1f80026458000868f5200040034007400200029
:10b20800e08f55009c003a009d003700d544880027
:10b2180034458000e00f52000600340016458000d7
:10b228000603e9001645880065024200868252003e
:10b238000100370063024200858242000502420095
:10b2480034458800044580000402e800044588006d
:10b2580054002000a4448800f54480001445800070
:10b26800848f52006c003200184078000082fb0086
:10b278006f02620015003200d44480000482460048
:10b28800c744800005014500e6448000870f52004e
:10b298000400340006834600850257008701e90050
:10b2a80003003700068346008502570084017800b2
:10b2b8008600780005007800d438020000000000fd
:10b2c80080027800e08f5200910032006400200074
:10b2d80069003700984078000182fb006f02620025
:10b2e80014003200f444800084834600d644800071
:10b2f80006824600848f53000e0034008602450003
:10b30800060357008701780005017800830078005c
:10b3180006007800d438020000000000800278009f
:10b32800e08f52007a003200f44480000482460024
:10b33800c4448800440020004f00370018407800bb
:10b348000082fb00040fb20015003200d4448000d4
:10b3580004025600b7448000f6448000e9448000a7
:10b36800870f520003003d00860245000702e800ef
:10b378000100370086024500060357008901560080
:10b38800050178008400780006007800d4380200af
:10b398000000000080027800e08f52005c0032005c
:10b3a8003400200034003700984078000182fb0008
:10b3b800040fb20014003200f444800084035600e5
:10b3c800d644800006025600848f53000e003d00cc
:10b3d80086024500060357008701780005017800ba
:10b3e8008300780006007800d438020000000000ce
:10b3f80080027800e08f520045003200f44480005b
:10b4080004025600b444880010458000f0448800c7
:10b4180001458000e1448800240020001600370020
:10b42800d5448000144580000403560005025600e8
:10b43800860f520012003400184078000082fb008a
:10b44800040fb2000b0032000502450085025700c8
:10b4580086017800040178008300780005007800f0
:10b46800d43802000000000080027800e08f52000b
:10b478002700320084002000a444880020ff370001
:10b4880091002000a14488001dff3700d1448000ae
:10b49800144580000482460081814600848f510053
:10b4a8000e003d0013872000934178008381fb0044
:10b4b800ef816100090032000fb8970001014000d8
:10b4c800010057008401780083007800d438020016
:10b4d80000000000e00f50000e0032009000200035
:10b4e800a0448800a04f02000000000080007800ff
:10b4f8000000eb00808f500006003a00a04488004e
:10b5080010002000030037000000eb0001003700a6
:10b51800050078004f0778004f06be004f05be00b3
:10b528004f04be000f01b10000000600889fbe0056
:10b538008a9fbe0000057800010478008005eb00b2
:10b5480019002000a04f020000000000e00f50008a
:10b5580025003a0091448000808f5000030032009b
:10b56800e18f5000f7ff3a00020037008944880055
:10b578009944880080448000e00f500002003200a7
:10b588008a0f5000110035009b448800edff3700fa
:10b598004209dd00020044008100e900420add00a2
:10b5a8009001900068017900f0b8970068007a006f
:10b5b800ec3a020000000000e00f50000b003200df
:10b5c800804480000000e8008044880081448000b6
:10b5d8008a8f5000eeff35000000eb009044880091
:10b5e80010002000010037000000eb004f05be00ee
:10b5f8004f04be000000060090019000910020005a
:10b608004287200001003700335978008100e900a3
:10b61800fdff3a0090438800000006000000060085
:10b6280090007800e18f500007003200e48f50004e
:10b6380002003200e08f500005003a00005b020073
:10b648000000000000000600125b0200000000007d
:10b658000000060000017800a04380004a00de00d8
:10b6680063006000130020000018dd00c04098004f
:10b6780004102000408720001002620093438000dd
:10b688000080e800e00f520014003200130290001e
:10b69800100151006c11b90068014100020042001c
:10b6a80010024200c400980030019000b2009800d7
:10b6b800a001900003015100f200980040019000a1
:10b6c800d200980050009000e0009800e00f500071
:10b6d80012003400800898000000060093019000d2
:10b6e8002400200010005200020040000400dd0089
:10b6f80000804100104290000482fb00100190007d
:10b708004811dd000201420082814100c300980017
:10b71800104078000080fb00b00098000000060090
:10b7280000000600e4874700889fbe008a9fbe008d
:10b738008c9fbe008e1f78000104780000872000cf
:10b748008040eb0090cf10002d003a006807900071
:10b7580070438000000747000005eb008a06780068
:10b768000a467800a28720001b0037006a43800041
:10b778000a0540008005eb008b4478001100370073
:10b78800e0cf540004003a004800900030467800aa
:10b798004004980019c0b3000cc0640006003200d1
:10b7a8008e0078000a00780082bf9f00ca37020026
:10b7b800000000000fb9970089c444000a05e8009a
:10b7c8008b05e80038009000808f5500ecff3500ad
:10b7d8000e07e8008d06e800880890009280400077
:10b7e80058009000818f5600e0ff39000000550096
:10b7f800f800900001005000604388002b003700db
:10b808005807900060438000000747000005eb00e0
:10b818008a0678000a467800a28720001c003700b4
:10b828006805900070438000000545008005eb0026
:10b838008b44780011003700e0cf540004003a0030
:10b8480048009000304678004004980019c0b300c2
:10b858000cc06400060032008a0078000e007800f0
:10b8680082bf9f00ca370200000000000fb997008e
:10b8780089c444000a05e9008b05e80038009000f7
:10b88800808f5500ecff35000e07e8008d06e800b4
:10b898000808900012004000808f5600e0ff390031
:10b8a80058009000000555007a43880010002000d9
:10b8b8004f0778004f06be004f05be004f04be007c
:10b8c8004f00b10000000600881f780000047800cf
:10b8d800808820000008eb000080e8000008eb00ea
:10b8e8000080e8000008eb000080e8000008eb009a
:10b8f8008080eb00b0438000800f540023003900a3
:10b90800c0438000800f540020003e00a043800008
:10b918004a00de0063006000e10f50001b003c009d
:10b92800a04f0200000000008000eb00810f5000d3
:10b9380016003a009043800010007800810f5000f4
:10b948000400320011002000e10f50000f003a00ff
:10b9580005003700e1872000080078002e5b020010
:10b968000000000004003700e1872000080078008c
:10b97800945b020000000000e187200008007800c6
:10b98800965b02000000000080007800010078004b
:10b998004f04780000000600881f78000004780033
:10b9a80007003700685c020000000000e00f50004c
:10b9b8000b003200e04380000000e800e04388000c
:10b9c800e04380000000400068007800ef0f50005e
:10b9d800f4ff3e000000eb00e04388001000200068
:10b9e8004f04780000000600a39c20000042eb00f2
:10b9f800934f1200030032006043880071438800af
:10ba08008049eb0002007800d05c020000000000d2
:10ba1800e00f50000400320010c0b300a19c2000c9
:10ba28008048780010002000000006000000050093
:10ba3800889fbe00000378009100900011049000d8
:10ba4800a10490000310200091816100e88040006b
:10ba5800e08f510003003200810378008000eb0082
:10ba680001003700830378000000eb001000370066
:10ba7800880f51000e003900890f51000c003e005c
:10ba880008015100e08f5100040032006c12b90027
:10ba98000481430022019000040037004211dd00b8
:10baa80002814000124178000281fb000200400040
:10bab80036017800ef0f5100edff3e004f04be0045
:10bac800000006000000050011017800e10f510098
:10bad8000b003200e40f510003003200e00f510068
:10bae8000a003a00030037001a5d02000000000057
:10baf800000006001c5d02000000000000000600b7
:10bb0800665d02000000000000000600000005005d
:10bb180091438000810f500002003a00d04380001a
:10bb2800000006008000eb00908f100003003a0030
:10bb38001000900030009000000006000000050092
:10bb48008000eb00908f10000c003a000080e800a5
:10bb58001000be0064004000e080480092018000b0
:10bb680000f0a4008180d2009101880010007800c4
:10bb78009201880080007800010037008000eb0007
:10bb880001007800000006008000eb00908f100094
:10bb98000c003a000080e8001000be00620040007f
:10bba800e08048009201800000f0a4008180d2006b
:10bbb80091018800100078009201880080007800c8
:10bbc800010037008000eb0001007800000006004b
:10bbd8006f02b000889fbe008a9fbe008c9fbe0087
:10bbe8008e1f7800b0af9f0062014100e0814900dc
:10bbf800980180000203780006f0a4008383d20035
:10bc08009701880096057800980188006201410034
:10bc1800e0814900980180000203780006f0a40042
:10bc28008383d200970188009603780098018800e2
:10bc3800c7b79f0062014100e08149009801800078
:10bc48000203780006f0a4008383d20097018800dd
:10bc580016007800a0af9f0098018800620141009b
:10bc6800e08149009a0180000204780008f0a400ed
:10bc78008384d200990188001800780090af9f0053
:10bc88009a01880062044100e08449004fb097009f
:10bc9800e70160008301ea00cf19de004301de00fe
:10bca80002814100b2b79f0015077800e00f5700e6
:10bcb80004003a00ebaf9f0010002000d0b79f00af
:10bcc80016003700a5039000350190003fb097009b
:10bcd8000281b90002057800cf95de000a01440010
:10bce8008b814c0043bede00cfe6de000c047800fa
:10bcf800cfe4de00080441008984490067816300bd
:10bd080017002000823bdd00d7b79f009502900006
:10bd1800e5af9f000e007800c0b79f00e1b79f0015
:10bd2800e14f5200070032000001eb0002427800a8
:10bd3800bfb09700cf88de00c1af9f000806be00e5
:10bd4800b40037000001eb003fb097004f80de00e1
:10bd5800f0af9f000805be00024278004b00370094
:10bd68003faf9700dfb09700e18f50000b00320023
:10bd7800930180000a02780004f0a4008b82d200ac
:10bd880095018800144278009301880061044500f9
:10bd9800e0844d0001067800020037000a04be0066
:10bda8005fb697008006eb0080fd2f000f00400073
:10bdb8000a88be008445780021003700e10f56004c
:10bdc80009003a00930180000802780004f0a400fa
:10bdd8008982d200950188009445780093018800f3
:10bde80061044400e0844c008b016600e0cf510000
:10bdf800030032009fa897002147880002003700ff
:10be08002fa8970020478800efb097000e00780011
:10be180082bf9f00ca370200000000000e07e8003a
:10be28000fb9970001082000810f56000200320068
:10be38000c064600010037001c0020008d06e800b3
:10be48004fb09700808f5600dcff39000b42780016
:10be580081fd2f008f8040001105be003fb0970084
:10be680090b79f00ffa89700a1b79f00fe805700da
:10be78001100be000005450081854d006fb0970098
:10be88000000e800e0b79f000201e800efa8970073
:10be9800810f5100b2ff390061003700bfac970035
:10bea8005fb09700e10f50000b0032009301800053
:10beb8000c02780004f0a4008d82d200950188005d
:10bec800144278009301880061054600e0854e0021
:10bed80000077800020037000c05be005fb7970026
:10bee8000003eb00efb097008100e80091b79f00d6
:10bef800e0fc2f000f0040000c88be00844678004c
:10bf080030003700e10f570009003a009301800024
:10bf18000a02780004f0a4008b82d2009501880000
:10bf2800944678009301880061054500e0854d003e
:10bf38008d016700e0cf5100030032009fa89700f1
:10bf480021478800020037002fa897002047880063
:10bf5800efb097000900780082bf9f00f6b79f00f6
:10bf6800ca370200000000009fb09700090078005f
:10bf7800ca370200000000000904e800efb097008b
:10bf880008007800ca370200000000009fb0970040
:10bf980008007800ca370200000000008984e80021
:10bfa8000fb997007fb3970001082000810f570051
:10bfb800020032000e074700010037001e00200073
:10bfc8000603e8004fb09700800f5300cdff3900fb
:10bfd8000d427800e1fc2f008f8040001106be0062
:10bfe8003fb09700f0af9f00cfa8970081b79f00a0
:10bff800e1fd2f008f8040001100be0000064600c2
:10c0080081864e006fb097000080e800e0b79f007f
:10c018000201e800efa89700810f51009fff390047
:10c028004f0778004f06be004f05be004f04be0004
:10c038006f02b100000006000f04b000889fbe0028
:10c048008a9fbe008c9fbe008e1f7800c0af9f00e5
:10c05800b1b79f0062014100e0814900980180006a
:10c068000203780006f0a4008383d20097018800b9
:10c0780016007800c0b79f0098018800620141004f
:10c08800e081490097018000020578000af0a400c9
:10c098008385d2009b0188001a00780097018800e8
:10c0a8008000780062054100e08549000a06be006c
:10c0b800080120000001eb008201410046fb2f002f
:10c0c8000f03430083014300990180000c037800ab
:10c0d80006f0a4008d83d20097018800160378002b
:10c0e800990188008609780062064600e0864e00bd
:10c0f8000201e8000804e900efff3a00020220000c
:10c10800030020000206450083864d0015077800cd
:10c11800880f570003003a000841780008037800a8
:10c128001c00370025039000e10063008001d10066
:10c13800610560000a804100b50190000385b900df
:10c148000a047800cfd4de000801460089814e0039
:10c158000686d100cfe6de000c037800cfe3de00d0
:10c1680006064100878649008e01d100030550006c
:10c178000103550001417800e04f510002003a00e8
:10c18800e10167000303530095029000c5b79f00c3
:10c198008e0078003fb79700e14f52000900320047
:10c1a8008003eb008282fb00cfa9de0093b79f00db
:10c1b80081804200b1b79f004fb0de00a0af9f0062
:10c1c8009d0037008003eb008282fb004fa9de0050
:10c1d800f2af9f0081804200d1af9f00cfb1de0057
:10c1e800b3b79f003f003700cfac970094018000a1
:10c1f8000c01780002f0a4008d81d2009301880020
:10c20800124178009401880005057800ffad970079
:10c218000a0646008b864e00050478002500370084
:10c22800e101640006003200c311de00fe816100f6
:10c2380040fb2f000f004000e08179000e0037001e
:10c24800940180000c01780002f0a4008d81d200d6
:10c258009301880012417800940188006106460025
:10c26800e0864e00ef0161008381410041fb2f0011
:10c278008f804000e1817900234788008e00780094
:10c2880009007800e2b79f0085bf9f00f6b79f00be
:10c29800d7b79f00ca370200000000008904e800f1
:10c2a8000804e800dfb397007fb397008fba9700c0
:10c2b8006fb19700dfa99700830f5400d8ff3900aa
:10c2c80096b79f003fb09700a0b79f00fe81570028
:10c2d8001301be000206460083864e000e07e800e2
:10c2e8008703e8004fb09700808f5300beff3900e6
:10c2f800540037004fad9700940180000c0178007e
:10c3080002f0a4008d81d2009301880012417800c8
:10c3180094018800f5af9f009fb0970081b79f00f8
:10c32800e1fd2f008f8040001100be00000646008e
:10c3380081864e00850478008e05e80031003700bc
:10c34800e181640006003200c311de00fe81610055
:10c3580040fb2f000f004000e08179000e003700fd
:10c36800940180000c01780002f0a4008d81d200b5
:10c378009301880012417800940188006106460004
:10c38800e0864e00ef0161008381410041fb2f00f0
:10c398008f804000e1817900234788008e00780073
:10c3a8000a007800e2b79f0085bf9f00f6b79f009c
:10c3b800d7b79f00ca370200000000000a00be007d
:10c3c800ca370200000000000a04e8008e00780066
:10c3d80008007800ca370200000000008b007800cf
:10c3e80008007800ca370200000000000a85e8004b
:10c3f8008904e800dfb397007fb397008fba9700ee
:10c408006fb19700bfb19700838f5400ccff3900fc
:10c41800d6af9f002fa89700e0af9f00a3fd2f0085
:10c428008f8141001301be000206460083864e003c
:10c438000e87e8008703e8004fb09700808f53000d
:10c44800acff39004f0778004f06be004f05be000d
:10c458004f04be000f04b100000006002f22b000f8
:10c46800889fbe008a9fbe008c9fbe008e1f7800ea
:10c4780090af9f0062014100e0814900980180006f
:10c488000203780006f0a4008383d2009701880095
:10c49800960478009801880062014100e081490013
:10c4a800980180000203780006f0a4008383d2007c
:10c4b800970188001600780098018800c0b79f008f
:10c4c80062064100e08649000c05be000e102000ff
:10c4d8000001eb008201410027dd2f008f8343001c
:10c4e80083814300980180000a03780006f0a400c5
:10c4f8008b83d20097018800160378009801880082
:10c508008609780062054500e0854d000201e800d3
:10c518000e07e900efff3a00062020000700200080
:10c528000601460087814e00150578008e0f5500dc
:10c5380004003a00a9af9f008e03780097b79f00c8
:10c548000d003700350490000884b900a503900059
:10c558000884430008037800cfc3de0006014100c9
:10c56800878149000a00500090b79f00950290000b
:10c57800a5af9f00cab79f0081037800e14f520022
:10c58800090032000003eb004fb097004f80de0037
:10c59800d0af9f009fb09700cf88de00b1af9f005b
:10c5a80007077800850037008006eb004fb097003a
:10c5b8004f83de009fb097004f8fde00a7b79f0024
:10c5c8008d037800d6af9f000e037800b6af9f00aa
:10c5d800320037001fab97000204be000007eb00d3
:10c5e80090018000f0af9f001d003700080278001e
:10c5f80004f0a4008982d2009501880014427800d2
:10c60800ffa897009101880061044400e0844c0071
:10c618000482fb000402420020dd2f000f004000ce
:10c6280060027a0024478800afb0970006007800bf
:10c63800d2b79f00e3b79f0086bf9f00f7b79f0060
:10c64800ca370200000000000fbb97000603e8008d
:10c658000e07e800ffb39700efb197005fb19700ae
:10c66800cfb09700810f5700e0ff3900010578002f
:10c67800dfad97000a0141008b8149001fb6970082
:10c68800bfae97000c0141008d8149002fb3970080
:10c698000603e800a6b79f008703e8002fa89700c5
:10c6a800808f5300cbff3900470037009fac9700bd
:10c6b8000205be008003eb009c0180008e06e800a6
:10c6c800290037000a02780004f0a4008b82d20007
:10c6d80095018800144278009c0188006105450096
:10c6e800e0854d000482fb000402420021dd2f009a
:10c6f8008f80400061027a00244788008e0078000d
:10c7080009007800d2b79f00e3b79f0086bf9f005b
:10c71800f7b79f00ca370200000000008d007800bc
:10c7280009007800ca370200000000000904e80088
:10c738008e00780008007800ca3702000000000068
:10c748008d00780008007800ca3702000000000059
:10c758008984e800ffb397008703e8000fbb9700c0
:10c76800efb197005fb197004fb09700808f5300eb
:10c77800d4ff3900a0b79f00dfa89700b1b79f008a
:10c78800fc8057001100be00000141008181490072
:10c798009fb39700f7af9f003fa8970080b79f000f
:10c7a800e1fd2f008f8040001100be000001410014
:10c7b800818149000e87e8000603e800afab9700c7
:10c7c800870f5300b9ff39004f0778004f06be00a6
:10c7d8004f05be004f04be00ef1fb1004f02b1006d
:10c7e800000006004f02b000889fbe008a9fbe006e
:10c7f8008c9fbe008e1f780080af9f0062014100b1
:10c80800e0814900980180000203780006f0a40046
:10c818008383d20097018800160578009801880064
:10c8280062014100e081490098018000020378001c
:10c8380006f0a4008383d20097018800960378004d
:10c8480098018800c7b79f0062034100e083490050
:10c858007c845700068cbe0015017800e00f51005b
:10c8680003003a009aaf9f00820178001300370056
:10c87800350490004fb097000884b900a5019000d6
:10c88800888141008381410003037800cf9bde004b
:10c898007c8457001804be000604440087844c00ba
:10c8a8007c8057000888be00cfb49700828154006e
:10c8b8009502900095af9f00c2b79f0001077800ce
:10c8c80003834100e14f5200090032008003eb006e
:10c8d8009001800080b79f00cfb09700018640008c
:10c8e8004fe1de00e2af9f00cfb2de0082003700ea
:10c8f8000006eb0093018000c3af9f004fb2970082
:10c9080084064200cfebde00a7af9f00cfb3de0066
:10c918007c8457001805be00300037008faa9700a6
:10c928000a04be000002eb00180037000801780076
:10c9380002f0a4008981d2009301880012017800d6
:10c948004fa897009001880062044400e0844c00de
:10c95800224788008e00780005007800d4b79f0031
:10c96800e5b79f00f6b79f0087bf9f00ca37020050
:10c9780000000000efb297008502e8005fb2970060
:10c988000402e8008fbb97007fb39700cfb09700f1
:10c99800810f5200e5ff39008db79f002fa997003e
:10c9a80092b79f0009fe2f008f8444001904be002f
:10c9b8000800450089804d00e6af9f00f7af9f0053
:10c9c800c3fd2f008f8141001301be000205400006
:10c9d800838548000e07e8000c06e8001faa9700a8
:10c9e800840f5600cdff3900460037008fac970002
:10c9f8007c8457001805be000002eb008e06e80094
:10ca0800250037000a01780002f0a4008b81d200cb
:10ca180093018800120178000fb0970090018800f8
:10ca280062054500e0854d00224788008e007800a9
:10ca380009007800d4b79f00e5b79f00f6b79f00bc
:10ca480087bf9f00ca370200000000008d007800f1
:10ca580009007800ca370200000000000904e80055
:10ca68008e00780008007800ca3702000000000035
:10ca78008d00780008007800ca3702000000000026
:10ca88008984e8005fb297000402e8008fbb970032
:10ca98007fb39700efb29700cfb09700810f520095
:10caa800d8ff3900ccaf9f006fa99700d2af9f0085
:10cab800fc8157001304be0082fd2f000f014100c6
:10cac8001201be000200440083804c00a6af9f0004
:10cad800b5af9f0048fd2f000f0444001804be00a6
:10cae80008044000898448007c8157000889be00fa
:10caf8000e87e8008703e8009fac9700898f5300f2
:10cb0800baff39004f0778004f06be004f05be0038
:10cb18004f04be004f02b100000006001200fa00e8
:10cb2800889fbe008a9fbe00000478008344780076
:10cb380087057800f1b79f0082bf9f0094bf9f00d0
:10cb4800a5bf9f00b6bf9f00a04f020000000000d5
:10cb5800800178000000eb00ffb097000fb9970044
:10cb68001fba9700afba97003fbb9700808f51005c
:10cb780041003a002a47800092037800d4b79f000a
:10cb8800e5b79f00b6b79f00cbb79f00f0002f0016
:10cb980000806300830f500003003200e50f50004f
:10cba80033003a002d0037000281e8001201be0070
:10cbb80061024100e08249009601800004f0a4006f
:10cbc8008582d2009501880014407800960188007b
:10cbd800e44f50000f00320003003e00e14f5000c8
:10cbe80023003a0005003700e84f50000f003200dc
:10cbf800f04f50001e003a0012003700fa8257002a
:10cc08000942780008007800f63c020000000000a5
:10cc180017003700fa8257000942780008007800a8
:10cc2800143f02000000000011003700fa8257008c
:10cc380009427800080078003a410200000000002c
:10cc48000b003700fa825700094278000800780084
:10cc58002643020000000000050037007a825700d2
:10cc68008941780008007800d44e020000000000d6
:10cc78002a478800100020004f05be004f04be0060
:10cc88000080fa0000000600e00f500001003d009f
:10cc98008016b000d2102000820f5000040034002b
:10cca800e010b100e08f500017003a000f00370085
:10ccb800320b2000820f500004003400400bb100fa
:10ccc800e08f500009003a00060037009205200066
:10ccd800820f50000a003400a005b100e08f500018
:10cce8000b003200a1052000008050000000400029
:10ccf800611c2b00610078000000ea0000000600bb
:10cd0800e08f500006003a00a10520000080500086
:10cd180000004000611c2b00610078000000060044
:10cd280000004000611c2b00610078000000060034
:10cd3800ec874700889fbe008a9fbe008c9fbe007c
:10cd48008e1f780080bf9f00f1b79f00e2b79f0059
:10cd5800d3b79f00c5b79f000e10200004067800c7
:10cd6800420037008000eb000c007800c6ff070087
:10cd7800800678006fb0970000ecb9001100090038
:10cd88000e04d80000047800110020000c00780080
:10cd9800bdff070000017800efb097000195b900ca
:10cda800811f7800110009000e05d8008002780064
:10cdb800cf0078005fb09700808f500024003200c9
:10cdc80000ebb900110009000e03d8000003780039
:10cdd800dfb097000191b900811f780011000900a8
:10cde8000e01d80000017800cf007800828f520031
:10cdf80002003200860f540003003a00a08620008b
:10ce08000048eb000300370011c0b300a0862000e3
:10ce180001487800ffb09700810643000fb89700db
:10ce28000005410001044400808442008d0178001f
:10ce38000a0178008800780009007800ec3a0200be
:10ce480000000000e00f5000f8ff32000600370035
:10ce58007fb19700820044000fb99700028042001a
:10ce6800ca370200000000000c06e8004fb0970027
:10ce7800800f5600bbff3400100020004f077800d9
:10ce88004f06be004f05be004f04be00cf00b100e4
:10ce980000000600889fbe008a9fbe008c9fbe00cf
:10cea800010578008205780083067800d202200008
:10ceb800801f7800110009000205d80001067800db
:10cec800800078004f007800e180600001003200a7
:10ced8000c0651006104b900110020000c00780014
:10cee80069ff0700cf80de00c808dd000080fd0074
:10cef800804078000040eb000801be004e030200ad
:10cf080000000000810d78008000eb000c00780024
:10cf18005dff0700cf80de00c808dd000080fd004f
:10cf2800804078000040eb000801be004e0302007c
:10cf380000000000810e780022fd2f000a01410048
:10cf480080052000800f510004003600e2f12f0018
:10cf58000a014100800f510003003e001b007800c9
:10cf6800810d7800800e780051fa2f008a804000e9
:10cf7800200b2000808f500001003e009b0dea002e
:10cf88005a0bb100200b2000800f550001003e0015
:10cf98009d0eea004f06be004f05be004f04be00be
:10cfa80000000600889fbe0000047800381090003a
:10cfb80004003700b00c9000ca0402000000000012
:10cfc80009007800e00f5000faff3a00301498008a
:10cfd8004f04be0000000600889fbe008a9fbe0066
:10cfe8008c1f78000004be00b8009000e28060004a
:10cff8000000eb00808f50006a003a00190590008d
:10d00800a90590000100780021c0b30099cf100055
:10d0180064003a00480090008a0f500055003d0017
:10d02800680090008a0f50005200340058069000a3
:10d03800481090008c5d020000000000a9009000dc
:10d048006601460000004100810f500049003d0084
:10d0580078009000810f500046003400381190008d
:10d0680040003700920f150036003d002200900066
:10d078008a0f500033003400120090008b0f5000cc
:10d0880030003d00320090008b0f50002d0034001e
:10d0980019409000e44f500016003a0022149800fe
:10d0a8001000200060019800d200900020022000ab
:10d0b800e48f50003b003a00f20090000080e80046
:10d0c800e08f5000370032000000e800e18f500088
:10d0d800340032000000e800e28f500031003200d6
:10d0e8000000e800e38f50002e0032006500500079
:10d0f8002c00370038009000640060000600320001
:10d1080028109000c2019000c0009000818f51004b
:10d118001300320020003700a8109000808f5000c4
:10d1280003003200d1009000e48f50001d0032004f
:10d13800221498001000200060019800300220009e
:10d148001800370052009000e40f500004003a0025
:10d158002214980010002000600198001000370089
:10d1680032099000e00f5100beff3a00020078003b
:10d178000c003700994090000000eb00e1cf500010
:10d1880008003a00b8009000e4806000808f5000ea
:10d19800040032002810900011002000610098005f
:10d1a800200220004f0678004f05be004f04be0045
:10d1b80000000600889fbe008a9fbe008c9fbe00ac
:10d1c8008e1f780000047800bc0020000a002400ac
:10d1d8000b0021000e002200a04f020000000000fa
:10d1e800e00f5000a2013a00004a80000100200030
:10d1f800ed0f5000e08f5800f7ff3e00006001007f
:10d208000d003700350037003d0037004200370079
:10d218005b003700600037007a003700b80037003d
:10d22800e3003700e8003700ef0037006b013700f4
:10d238003501370085013700380090008000eb0089
:10d24800810f500006003d0008089000000890007b
:10d258002047880010002000004a88001f0037007f
:10d268000a0160001500320008089000900178005b
:10d27800100190004802900044468800580290002f
:10d28800544688006802900064468800780290003e
:10d2980074468800814688005000900090468800b7
:10d2a800a3468800b2468800614d880030002000ff
:10d2b800c0468800200020000c0137008e00600066
:10d2c800828f500002003200500020000701370012
:10d2d8000b006000810f500087003a00f8019000b1
:10d2e80068019000d800900048009000d4380200ef
:10d2f80000000000e00f50005e01320047013700d7
:10d308009478020000000000e00f5000590132003c
:10d3180030002000004a88004800900040468800fd
:10d32800d804900059468800e800900061468800bb
:10d33800481090008c5d020000000000e384440067
:10d3480000804400704688008000eb008146880019
:10d35800080890006001900092468800100278004a
:10d36800a446880010009000b0468800614d8800ef
:10d3780030002000c046880040002000004a880095
:10d388009478020000000000e00f500039013200dc
:10d3980050002000004a8800080890009000900083
:10d3a800814a880010017800724a88005000900075
:10d3b800904a8800380090000a0060000b003a008c
:10d3c8002811900062009000e10f500007003a0019
:10d3d800e8089000580890000088b9000000e900ab
:10d3e800204a8800324a8800040037000000eb0019
:10d3f800204a880038129000344a880060002000d3
:10d40800004a8800e8089000580890000088b90091
:10d41800224a8000800f5100370031003800900008
:10d428008a00600016003a00314a8000e10090004e
:10d43800e18f500010003a00e400600008089000f6
:10d448000600320090007800814a880010019000a0
:10d45800724a8800600090000500370010029000b2
:10d46800844a880090007800714a88005000900033
:10d47800904a880002003700900020009b00370087
:10d488003800900062006000040032000808900034
:10d498007000900020478800904a8800304a800039
:10d4a8001001780042468800100290005446880017
:10d4b800a000900061468800300090007046880007
:10d4c8000000eb0080468800924a8000924688005f
:10d4d800844a8000a4468800714a8000b1468800ca
:10d4e800604d880030002000c04688007000200091
:10d4f800004a880002003700a00020007b003700a7
:10d508009478020000000000e00f5000d9003200bb
:10d51800304a80008000eb0061009800a000900075
:10d528009080400010099000828050008180d100d6
:10d53800614a880010019000b0009000010141008c
:10d54800a0089000010051000080d100504a8800d6
:10d55800b800900062816000080890000200320064
:10d5680040019000080037004400240084806000d7
:10d57800e48f500003003a00b00090002147880073
:10d58800020037002001900022478800644a80008a
:10d5980064438800514a8000714388001008900055
:10d5a800145b02000000000080002000004a880090
:10d5b800304a800000089000d05c020000000000a3
:10d5c800e00f5000ab003200204a80000000e80065
:10d5d800204a8800304a800030089000304a88008d
:10d5e800600020004100370028109000e00f500034
:10d5f8000800320070009000e10f50000c003a0063
:10d6080088109000e08f500009003a00014a880015
:10d61800980037000811900098109000810f510071
:10d6280003003a00b80090008b8060007c003a004c
:10d63800d8049000e3844400481090008c5d0200f8
:10d64800000000008001780068019000630151002b
:10d65800d8009000e380400048009000630040003c
:10d6680083814400483402000000000010c0b30069
:10d67800d833020000000000b80490000a8064005b
:10d6880013003200e8846400e806900009003200c4
:10d69800c8109000e09b2000685d020000000000b8
:10d6a80080007800e7865600081090000088b900ce
:10d6b80005003700e7865600c810900078089000eb
:10d6c800685d020000000000008056003d00370041
:10d6d8008b846400808f5400060032000808900094
:10d6e8006000900020478800c0002000004a8800a1
:10d6f800b9fe370009407800d83302000000000066
:10d70800094a880047003700d8049000e3844400a1
:10d71800481090008c5d0200000000008001780035
:10d728006801900063015100d8009000e380400038
:10d73800480090006300400083814400d438020010
:10d7480000000000e00f50004a003200281090004e
:10d7580070009000e10f500007003a00f8089000b0
:10d76800081090000000e900001498000000400034
:10d77800008040000008eb0038009000680060005e
:10d78800e804900009003200c8109000e09b2000d7
:10d79800685d02000000000080007800e784540003
:10d7a800081090000088b90005003700e78454008d
:10d7b800c810900078089000685d02000000000022
:10d7c80000805400604388005800900063004000c7
:10d7d800704388000000eb00220037000808900022
:10d7e800300090002047880048109000145b020029
:10d7f80000000000104a8000f80890000000400077
:10d8080061007800404a8800ee0f500007003e0093
:10d818000040eb00d8330200000000000000eb00dd
:10d82800004a88001000200012003700b80090005d
:10d83800e880600001003200a0022000685c02005d
:10d8480000000000d0002000004a8800a04f02001d
:10d8580000000000e00f500005003a00104a800068
:10d868000000e800104a88000c4a88005afe370079
:10d878000000eb004f0778004f06be004f05be00c2
:10d888004f04be00000006008000eb0005003700d2
:10d89800f009900001814000028141000009eb007d
:10d8a8008100e80010119000828f5000f8ff3900c5
:10d8b8008000eb00011098000000060001027800cb
:10d8c8008001eb0004003700828f51000500310011
:10d8d8000482e8008301e8008002eb00948f1200c4
:10d8e800f9ff3a00000aeb00031098000201e90072
:10d8f800121098007108980000000600301190007e
:10d90800010037003209900042009000808f5000db
:10d91800fcff3a0010002000d2009000e48f500075
:10d92800010032000000eb000000060030109000fb
:10d938000100370030089000c0019000838f50002c
:10d94800fcff3a00720098001000050030109000ab
:10d95800010037003008900040019000828f50008d
:10d96800fcff3a00700090000000060030109000a4
:10d978000100370030089000c0019000838f5000ec
:10d98800fcff3a000208980010000500f2874700e3
:10d99800889fbe008a9fbe008c9fbe008e1f7800a5
:10d9a8008005780091b79f005b0490004b109000b1
:10d9b8008c5d020000000000660144008002410006
:10d9c8004b009000e0b79f006b0190000201e80057
:10d9d80000015100db099000110009000301d80083
:10d9e8008000fd00d1b79f00fb0190000301e80013
:10d9f80005015100eb099000811f78001100090012
:10da08000301d800cf007800c0b79f008004eb0066
:10da18000907780009027800090678008906780065
:10da2800410037008001200084bf9f00f5b79f00a8
:10da38009803020000000000000778000e04780038
:10da48000fba9700ffb29700e00f570003003a00a3
:10da58000b00780053fd0700420037003b10900090
:10da6800e00f500001003a00be159800e08f540006
:10da780001003200b80c98004d0498006404980026
:10da8800dfb0970001d1b9006fb09700020c4000d9
:10da9800bfb09700110498000a05e8005fb097002e
:10daa80000d1b900efb0970002814000220498002d
:10dab8002fb19700320498008d8046001fb197005f
:10dac80062807800000c98008d06e80074049800c5
:10dad800140c9800240c9800e00f50000e0032003f
:10dae8008b0890009108900084bf9f00f5b79f00b5
:10daf800685d020000000000100c98008b08900080
:10db0800110890008c5d020000000000200c9800b5
:10db1800ffb297000fba970088047800db089000de
:10db2800810f5500bfff3900eb089000810f5600a8
:10db38000a0031004fb0970000e1b900828042002e
:10db4800b1b79f000c06e80000e1b900028042006e
:10db5800a0b79f000005eb00f0ff37008000eb0046
:10db6800b10c98000e0078004f0778004f06be00f1
:10db78004f05be004f04be002f01b1000000060093
:10db8800ee874700889fbe008a9fbe008c9fbe001c
:10db98008e1f7800b0b79f000207780087067800cc
:10dba800cfad97003fae9700a0022000c1b79f00fd
:10dbb800d3b79f00e4b79f00f5b79f0086bf9f00cb
:10dbc80098030200000000000004780008057800af
:10dbd8008004eb00cfb09700dfb197006fb29700d9
:10dbe800ffb297000fbb9700890f54003d00320029
:10dbf8003fb09700000c780019049800000120003d
:10dc080020049800410498005e049800630498007a
:10dc18007404980035049800560c98006d0c980010
:10dc280009149800391498005fa99700efa8970085
:10dc38000800780021ff070029149800e08d2600cd
:10dc4800100c9800007f2600300c9800e0ec2600ad
:10dc5800400c9800607d2600200c9800890f560023
:10dc680003003a00404d8000000c98000100370086
:10dc78000c0c9800e08f550003003a00e0062b00da
:10dc880040149800010037004b1498005808900081
:10dc9800e00f500003003a00e8089000808f500021
:10dca8000d003200ffa897000800780037ff070032
:10dcb80080047800e08f540007003a0008007800dc
:10dcc800b8fc070008007800ca0402000000000041
:10dcd8000905780003003700080078007077020013
:10dce800000000000a0078004f0778004f06be00c9
:10dcf8004f05be004f04be00ef00b1000000060053
:10dd08008010900010119000828f5000090031009f
:10dd180070099000818040000302200003b1780060
:10dd2800801090008100e80081804000810041005f
:10dd38008008eb00801090008100e8000110980036
:10dd4800000006000011900090109000810f510013
:10dd58000f003100a01090008109900003003700e7
:10dd680002014100013279008381e80093007800c4
:10dd780000119000700a9000e08f5000f8ff3a0000
:10dd88000201e80002109800020141000132790006
:10dd980000000600881f78000104780001002000b8
:10dda8002002b1000180b100e50f5000e08f58005b
:10ddb80022003e0000600100190037001100370002
:10ddc800090037000a003700010037000300370058
:10ddd80008007800caff07000500370038009000e7
:10dde80000d0a0000500370008007800d5ff070024
:10ddf800b8009000000023000080700030049800f4
:10de08000e003700a810900040002000d0009800b5
:10de1800b800900040002200008070000e0037001b
:10de2800a81090000000eb00d00098003800900087
:10de38000020a10000d0a0000700370028109000a3
:10de4800e00f5000020032008000eb005100980003
:10de5800380090000020a100300498004f0478009a
:10de68000000060030039000e20163000001eb00af
:10de7800828f51003e003a0011427800e24f520072
:10de880023003a00114290008442e900e1cf520099
:10de98001b003e009101900040029000830f520049
:10dea80033003d0060029000830f520030003400c0
:10deb800a100900050029000810f52002c003d00fc
:10dec80070029000810f520029003400640363003f
:10ded80050089000820f530004003200e200200036
:10dee800810f50002200310003003700e2002000bb
:10def800830f50001e003100d20020001c003700a4
:10df0800a2022000e44f520018003a00180037001f
:10df1800e14f520016003a0011029000900f520093
:10df280013003a0011409000e54f500010003a00ed
:10df380021009000d2002000d1042000810f500061
:10df48000b003200e5805000810f500008003200bd
:10df5800e2002000e3804000810f500004003200fe
:10df6800e5804000810f5000010032000301780075
:10df78000200780000000600700a900090119000de
:10df8800811f7800110009000382d8008001780001
:10df9800cf00780002805000811f7800110009002e
:10dfa8000380d800cf007800e50f500001003e0044
:10dfb800600020000000060030019000e4006100cd
:10dfc80070016100e08f500009003200e00090000d
:10dfd8004000900000805000e00f51000200320025
:10dfe800660050001a00370068005000180037001b
:10dff800810f51001000320060019000c0009000b5
:10e0080081005100f009900010119000811f7800e4
:10e01800110009008281d80000017800cf00780043
:10e02800110009008280d800e50f500008003e006a
:10e038006000200006003700f000900050009000bb
:10e04800008050006300b900780050004380de0073
:10e058000000d1000000060030019000e4006100db
:10e0680070016100e08f500019003200e00f51008c
:10e078001000320070019000d00090008100510023
:10e08800f009900010119000811f7800110009001c
:10e098008281d80000017800cf00780011000900c3
:10e0a8008280d800e50f500011003e00600020007b
:10e0b8000f003700e0009000400090000080500002
:10e0c8006300b900780050004380de000800370084
:10e0d800f00190005000900000805100810f510025
:10e0e800020032006600500001003700680050004e
:10e0f8000000d10000000600ea874700889fbe00a4
:10e108008a9fbe008c9fbe008e1f78000007780093
:10e118008106780002067800870578000fb5970019
:10e1280080022000d3b79f00e4b79f00f5b79f0097
:10e1380086bf9f00980302000000000000047800da
:10e148008004eb00dfb197006fb29700ffb2970031
:10e158000fbb9700890f5400230032000e0c780083
:10e168001904980060002000200498004d049800cd
:10e178005c049800630498007404980035049800bf
:10e18800801c2700100c980060f32600300c9800c3
:10e19800804f2700400c9800290c9800760c9800b6
:10e1a8001b1498001fb0970000149800080078000e
:10e1b80081ff07002014980008007800a6ff0700d8
:10e1c80030149800890f550003003a00404d800034
:10e1d800000c9800010037000a0c9800080078002d
:10e1e8007077020000000000080078004f077800f0
:10e1f8004f06be004f05be004f04be00af00b10081
:10e2080000000600b0019000e481610006003200c1
:10e21800b0119000e3814100500290008308420051
:10e228007002900005003700a0119000e3814100c2
:10e2380040029000830842006002900003095200e7
:10e24800300090007000600002003a009188e800f9
:10e258001289e90000000600881f78000004780091
:10e2680010002000e08f500006003200780990006e
:10e278000201d10001007800820f50000100360031
:10e288000200780010149800080078004aff070080
:10e2980020149800080078006fff070030149800d9
:10e2a8004f047800000006000400fa00889fbe00b2
:10e2b8008a9fbe008c1f78000004be006c81570046
:10e2c800ee80570008007800ceff07006000b80015
:10e2d8000005eb008a8f540006003c000a149800e1
:10e2e80038009000640060008a0f50000800320077
:10e2f8000900370078099000828f5400080039001f
:10e308000214980038009000640060000200320097
:10e318001fb89700160037002fb897001400370071
:10e328000914980089007800afbd97009fbc97003a
:10e33800098655008a0178005a030200000000008f
:10e348000001be000c0078008a0078004e0302002d
:10e35800000000000101780002804400b80090002d
:10e36800e4806000020032008b8444000080540086
:10e37800500c98004f0678004f05be004f04be00b1
:10e388000080fa0000000600889fbe008a9fbe0039
:10e398008c9fbe008e1f7800000478000e002100bc
:10e3a80089002000ad0020000a002400ac8620006f
:10e3b800a04f020000000000e00f500084013a0066
:10e3c8004049800001002000ea0f5000e08f58000b
:10e3d800f7ff3e00006001000a00370057003700d1
:10e3e8005f003700670037007f0037009b00370069
:10e3f800c5003700f7003700100137004401370027
:10e4080052013700b800900008089000e08f5000d3
:10e4180005003d00000890002047880010002000fb
:10e428004049880045003700e280600002003a0059
:10e43800500090000100370070009000504988009b
:10e448006291200081912000080078006dff07008c
:10e4580038009000e400600003003200680190007a
:10e46800c80090000200370078019000d8009000a2
:10e47800810041008180d100f1488800a8109000f7
:10e48800e148880038119000d2488800004eeb001f
:10e498008000eb00414388000a016000810f5100b1
:10e4a800230032004801900042468800580190003d
:10e4b8005246880068019000624688007801900002
:10e4c800724688008146880051498000914688003c
:10e4d800f000600008089000020032001001780087
:10e4e8000100370010019000a2468800e08f50001c
:10e4f8000200320010009000010037001000780080
:10e50800b04688000000eb00604d88003000200015
:10e51800c0468800881090000800780062ff070055
:10e5280058099000620c9800200020000100370074
:10e5380050002000404988009dff3700f8019000f6
:10e5480068019000d800900048009000d43802007c
:10e5580000000000e00f50001e01320018013700d3
:10e568009478020000000000e00f5000190132000a
:10e57800380090007000600061003a003000200010
:10e58800404988000808900010007800204788005b
:10e59800b8059000e4856500f248800009003a005b
:10e5a80082017800b248800083007800c04880006b
:10e5b800ec3a0200000000008b0f500008003a00ff
:10e5c80004013700b3488000c14880000200780089
:10e5d800ec3a020000000000e00f5000fd0032009d
:10e5e8004000200040498800080890001000900072
:10e5f80020478800b8059000e4856500f34880004e
:10e6080009003a008301e800b248800083007800de
:10e61800c0488000ec3a0200000000008b0f500058
:10e6280009003a00eb0037000301e800b348800016
:10e63800c148800002007800ec3a020000000000a7
:10e64800e00f5000e3003200380090000a0060003c
:10e658002b003a005000200040498800a04f0200db
:10e6680000000000e00f5000d9003a00b805900003
:10e678008e806500808f500002003a004d49880066
:10e688004bff37005049800020478800e48565002b
:10e69800f3488000d4488000e80a9000e0488000f1
:10e6a80009003a00050140008480510000805200b2
:10e6b80083014200d4380200000000008b0f500094
:10e6c80009003a00c300370003014000848052006b
:10e6d8000080510085014200d4380200000000008b
:10e6e800e00f5000bb00320038009000700060005e
:10e6f80003003a006000200040498800020037000b
:10e70800494988002aff370008089000100078005f
:10e7180020478800b8009000e480600068089000f6
:10e72800c248800013003a00e1488000828140001e
:10e73800808f510001003e000101500032498800dd
:10e74800b248800081015100808f510002003100e1
:10e758001249880002003700010040001049880073
:10e76800f348800012498000830078003049800017
:10e7780012003700d148800082814000808f51000c
:10e7880001003e000101500022498800b248800083
:10e7980081015100808f5100020031000249880038
:10e7a800020037000100400000498800034980004a
:10e7b800f24880002149800002007800ec3a02000b
:10e7c80000000000e00f50008200320070002000be
:10e7d80040498800080890001000900020478800f1
:10e7e800b8049000e4846400f348800009003a000b
:10e7f8008301e800124980008300780030498000d6
:10e80800ec3a020000000000890f500009003a00ad
:10e81800700037000301e8000349800021498000a7
:10e8280002007800ec3a020000000000e00f5000ff
:10e83800680032008000200040498800a04f020094
:10e8480000000000800278000000eb00808f52007a
:10e8580060003a003800900064006000f3488000cf
:10e86800d2488000e4488000d8089000850f500006
:10e8780009003a00048050003049880002805100a5
:10e8880020498800810042001149880003014100a5
:10e898000249880008003700048051003049880088
:10e8a80002805000204988008301420013498800f3
:10e8b80081004100014988003149800041468800b3
:10e8c800224980005246880010498000604688002e
:10e8d80001498000714688000000eb0080468800ee
:10e8e80052498000924688008808900011019000e3
:10e8f800a246880091007800b1468800604d8800e3
:10e9080020002000c0468800900020004049880070
:10e918009478020000000000e00f50002d00320043
:10e9280058089000600c980038009000f0006000d3
:10e9380023003a000200220002006000810f50000c
:10e9480020003200a000200040498800b800900054
:10e95800708060001a003a002200200042438800bc
:10e96800e1806000808f50000400320008089000a9
:10e97800200090002047880002003700514980009d
:10e9880021478800f8019000680190006301510058
:10e99800d8009000e38040004800900063004000e9
:10e9a8000002eb00e381510016560200000000004f
:10e9b800e00f5000070032000000eb0040438800e1
:10e9c8000000eb00404988001000200001003700db
:10e9d8000000eb004f0778004f06be004f05be0051
:10e9e8004f04be00000006000400fa00889fbe0025
:10e9f8008a9fbe008c1f780000057800010478000b
:10ea08008204780020c0b300994f100006003a0035
:10ea1800380090006100600003003a0008007800a8
:10ea28002e76020000000000a0022000800f550092
:10ea38004e0032006c815700ee80570008007800c5
:10ea4800f0fd070020c0b300994f100026003a00df
:10ea58006d005500e10f500044003e00380690005c
:10ea6800640666001fb8970002003a00190190007a
:10ea78000100370029019000800f51000500360081
:10ea8800afb8970002007800810f500001003600ef
:10ea980001007800d8089000810f50003300320040
:10eaa8001fb9970002005000f80d90000b00b80045
:10eab800afb99700028151008001eb005a030200b0
:10eac8000000000080007800e00f560001003200ce
:10ead8008180550008007800f3fd07003800900099
:10eae80000c0a0003004980010c0b300994f100077
:10eaf8001e003a00ed0f55000e003a0088129000f3
:10eb080018139000780a90006129b80006014100a6
:10eb1800e08149006120b800800f5100818f5900c1
:10eb280002003e00850043000b0037008400780097
:10eb38000900370008129000981190006120b80071
:10eb480003005000e08058000001eb000100330092
:10eb5800030152008200780008007800d2fd070007
:10eb68003800900000c0a000300498004f067800dc
:10eb78004f05be004f04be000080fa0000000600ea
:10eb8800889fbe008a1f78000004be00e28f5400f0
:10eb980001003d00290020000810900000c8b900bd
:10eba800780990008001eb00830078005a03020086
:10ebb8000000000000057800790c98008904d10055
:10ebc80018109000890f50000100360019149800a1
:10ebd80008007800f8fc0700201498000800780066
:10ebe8001dfd0700301498008a007800080078009e
:10ebf800adfd07004f0578004f04be000000060079
:10ec080000017800a2009000e08f50000b00320055
:10ec1800e28f500009003200e38f500007003200f5
:10ec2800e58f500005003200e68f500003003200e7
:10ec38000000eb00e48f500005003a00b20090009d
:10ec4800e280600010002000010032000000eb00ac
:10ec580000000600881f780000047800080078008b
:10ec6800e7ff0700e00f50000c003200514d800014
:10ec7800e08f500004003200310090000000a10035
:10ec880000d0a000b0009800b8009000100022004a
:10ec98000080700030049800584d88004f047800b8
:10eca80000000600889fbe008a1f7800394d80004a
:10ecb800e08f5400110032005a4d8000e00f5500db
:10ecc80001003a00090578000a0478001804900049
:10ecd800e00f540001003a000904780008007800a9
:10ece800c7ff0700e00f500005003a008a0f5400e4
:10ecf800f6ff3a00000478000100370009047800a4
:10ed0800080078004f0578004f04be000000060098
:10ed1800889fbe008a9fbe00394d8000e08f540056
:10ed2800170032005a4d8000e00f550001003a00ec
:10ed3800090578000a0478008005eb000100370017
:10ed48000904780008007800adff0700e00f5000c4
:10ed5800010032008805780018049000e00f540084
:10ed680002003a008a8f5400060032008a0f5400cd
:10ed780004003200e00f5400f2ff3a00f0ff3700c1
:10ed8800890578000b0078004f05be004f04be00cf
:10ed98000000060040012000980302000000000067
:10eda800e00f500004003200e12d2b00090009009b
:10edb800311878004001b1000000060096510200a9
:10edc80000000000f3ff0700404d88000000060027
:10edd800889fbe00384d80000a00370098049000d4
:10ede800a8089000e08f5000020032000800780068
:10edf8000100010008007800ca04020000000000b9
:10ee080009047800e00f5400f4ff3a00384d8800f8
:10ee1800584d88004f04be0000000600881f780087
:10ee280000047800304d8000e00f50001a003200d6
:10ee3800800f540003003a0018009000304d8800fd
:10ee48000c0037009000900004003700888f5000b5
:10ee5800060032000100780091009000e08f500019
:10ee6800faff3a00010078000b0037009800900084
:10ee780011009800a8089000e08f500002003200ae
:10ee8800080078000100010008007800ca040200a8
:10ee980000000000100020004f0478000000060069
:10eea80080007800304d800003003700908f1000fc
:10eeb8000300320010009000e00f5000fbff3a0002
:10eec80000000600f6ff0700e00f500001003200c6
:10eed800d2ff070000000600314d8000e08f50008f
:10eee80003003a00304d88000500370082007800a2
:10eef80011019000e00f5100fcff3a0090009800cb
:10ef08008000eb001100980000000600881f7800c0
:10ef180018478000e00f540016003a00c89202001b
:10ef280000000000880f500017003200304d8000ac
:10ef3800104788000f003700b000900088806000fc
:10ef4800080032009008900001000100e00f500016
:10ef58000d0032001147800031009000f03fb200f0
:10ef6800b0009800104780001000900010478800fb
:10ef78000100370008c02f0010478000e00f500044
:10ef8800edff3a00100020004f0478000000060052
:10ef9800889fbe00344d800009c027003800370024
:10efa80044039000e4039000800f530003003c00ea
:10efb80015002000808f530012003d00820f53007f
:10efc80003003c0015002000828f53000d003d0017
:10efd800800f530006003c0015002000828f53006c
:10efe80008003d008002eb00800f5300050035004b
:10eff8001500200064039000820f530001003400c4
:10f008008002eb00d403900074049000818f5300b9
:10f0180003003c0016002000810f540012003d0040
:10f02800838f530003003c0016002000830f540018
:10f038000d003d00818f530006003c0016002000a3
:10f04800830f540008003d000003eb00818f53003c
:10f058000500350016002000f4039000838f53004c
:10f06800010034000003eb00850263000300320056
:10f07800b402900089827200350298001402900050
:10f08800e00f5200c6ff3a004f04be000000060021
:10f09800889fbe008a1f780080047800194090007d
:10f0a800e04f50001b003200384d80001700370039
:10f0b80038099000e00f5100130032000800be002c
:10f0c8000200010000057800e00f55000e00320034
:10f0d80009017800880078000a0078002e92020062
:10f0e80000000000e00f500007003200c80990003f
:10f0f800e08f510004003200090178008800780090
:10f108000a0078000300010018049000e00f540082
:10f11800e7ff3a004f0578004f04be0000000600e4
:10f12800889fbe008a9fbe008c9fbe006a00200098
:10f1380018002000a04f020000000000e00f50005f
:10f148000f013a000047800001002000e80f50003e
:10f15800e08f5800f7ff3e0000600100080037000c
:10f1680038003700470037006c003700720037005e
:10f17800970037009c003700dc003700b8003700e4
:10f18800604d8000e00f5000180032008946800072
:10f19800898444004146800081845400614680008f
:10f1a80081844400ae3c020000000000808f5400bf
:10f1b8000e003c0089468000898444005046800047
:10f1c800808454007046800080844400604d800034
:10f1d800d23c020000000000808f540003003c0075
:10f1e80080002000004788009d0037008546800089
:10f1f800e08f52000f003200a046800020478800b0
:10f2080016ceb300c44680000482520073468000c4
:10f21800624680005146800040468000c05102008e
:10f2280000000000e00f5000d600320008478800b8
:10f23800040037002000200000478800f8468800b6
:10f2480010003700b046800020478800e6c1b300b0
:10f2580085468000c44680000482520073468000c0
:10f26800624680005146800040468000c05102003e
:10f2780000000000e00f5000c20032000a4788007a
:10f2880059003700a0468000204788000e0037004c
:10f29800534680008301400062468000000151000f
:10f2a800414680000100400083007800d438020005
:10f2b80000000000e00f5000b2003200f04680006d
:10f2c8000000e800f0468800f0468000c146800053
:10f2d800810f5000eeff3900f8468800300020000a
:10f2e80080003700424680000201400051468000fd
:10f2f8008100400073468000808151000200780040
:10f30800d438020000000000e00f50009d003200d9
:10f31800f04680000000e800f0468800f0468000d3
:10f32800c1468000810f5000eeff3900f846880082
:10f33800400020006b003700b0468000204788005e
:10f348000e003700734680008081510062468000bd
:10f358000001510041468000010040008300780010
:10f36800d438020000000000e00f50008500320091
:10f37800f04680000000e800f0468800f046800073
:10f38800c1468000810f5000eeff3900f846880022
:10f3980050002000530037006246800000015100f1
:10f3a80051468000810040007346800080815100f2
:10f3b80002007800d438020000000000e00f50007e
:10f3c80070003200f04680000000e800f046880037
:10f3d800f0468000c1468000810f5000eeff3900e2
:10f3e8000a47880053ff370090468000204788006e
:10f3f80089468000c3468000e08f54000a0032002e
:10f4080003825400734680006246800051468000a3
:10f41800404680003c58020000000000e00f500009
:10f428000d003a0057003700624680000301510082
:10f4380051468000818041004046800000804100a4
:10f448007446800083015200d43802000000000096
:10f45800890f50004b003200800020002100370047
:10f46800604d8000e00f50001d00320071468000a2
:10f478005d46800081864600d23c02000000000004
:10f4880000067800604680004b4680008085450075
:10f49800694d800009007800ae3c020000000000c1
:10f4a800800178008c8056008180d1008100e800be
:10f4b800038055000080d1000000e8006033b800e8
:10f4c800860278000602780013c0b30009017800ac
:10f4d8009265020000000000e00f50002900320091
:10f4e800700020000047880012ff3700604d800040
:10f4f800e00f50001300320061468000884680000b
:10f50800010444004146800001045400ae3c02005e
:10f5180000000000800f5400150035007046800080
:10f5280088468000000444005046800000045400cf
:10f53800604d8000d23c020000000000800f5400a3
:10f548000b003500b04680002047880084468000c4
:10f558007346800062468000514680004046800025
:10f568001656020000000000e00f500005003200af
:10f578000000eb0000478800100020000100370061
:10f588000000eb004f06be004f05be004f04be0052
:10f5980000000600889fbe008a9fbe005a00200017
:10f5a80018872000a04f020000000000e00f500064
:10f5b800e7003a00e046800001002000e70f500015
:10f5c800e08f5800f7ff3e00006001000700370099
:10f5d8001b00370041003700560037006b0037002a
:10f5e8007000370091003700b5003700854680006d
:10f5f800e08f52000f0032009046800020478800bc
:10f6080000c3eb00c44680000482520073468000a9
:10f61800624680005146800040468000c05102008a
:10f6280000000000e00f5000ca003200ea468800df
:10f638000300370010002000e0468800d04688000c
:10f6480090468000204788000e003700534680000f
:10f65800830140006246800000015100414680005d
:10f668000100400083007800d43802000000000048
:10f67800e00f5000b7003200d04680000000e800dc
:10f68800d0468800d0468000c1468000810f5000d7
:10f69800eeff390010002000d0468800200020002e
:10f6a8008500370042468000020140005146800034
:10f6b800810040007346800080815100020078007c
:10f6c800d438020000000000e00f5000a100320012
:10f6d800d04680000000e800d0468800d046800070
:10f6e800c1468000810f5000eeff39001000200055
:10f6f800d0468800300020006f0037007346800035
:10f70800808151006246800000015100414680001e
:10f718000100400083007800d43802000000000097
:10f72800e00f50008b003200d04680000000e80057
:10f73800d0468800d0468000c1468000810f500026
:10f74800eeff390010002000d0468800400020005d
:10f758005900370062468000000151005146800080
:10f7680081004000734680008081510002007800cb
:10f77800d438020000000000e00f5000750032008d
:10f78800d04680000000e800d0468800d0468000bf
:10f79800c1468000810f5000eeff3900ea4688001c
:10f7a80080ff3700a04680002047880089468000f7
:10f7b800c0468000e08f54000c00320001cfb30037
:10f7c800014c780000825400734680006246800035
:10f7d80051468000404680003c580200000000006e
:10f7e800e00f50000f003a005a00370054468000de
:10f7f80073468000848151008381d1006246800075
:10f80800000151008000420045468000050040008c
:10f8180084814100d438020000000000890f5000a4
:10f828004c0032006000200023003700b046800002
:10f838002047880089468000c3468000e08f540036
:10f848000c003200f0c0b300004c78000382540072
:10f858007346800062468000514680004046800022
:10f868003c58020000000000e00f500010003a0071
:10f878003800370074468000514680006246800098
:10f88800030151000100e800810052008180d1008d
:10f898008100400040468000008041008301520002
:10f8a800d438020000000000890f500029003200ff
:10f8b80000cceb0070002000e046880039ff3700dc
:10f8c800604d8000e00f50001d003200714680003e
:10f8d8005b46800081854500d23c020000000000a4
:10f8e8000005780060468000494680008084440016
:10f8f800684d800008007800ae3c0200000000005f
:10f90800800178008a8055008180d1008100e8005c
:10f91800038054000080d1000000e8006033b80084
:10f92800860278000602780013c0b3000801780048
:10f938009265020000000000e00f50000500320050
:10f948000000eb00e04688001000200001003700ae
:10f958000000eb004f05be004f04be00000006008b
:10f96800a048800001002000ec0f5000e08f5800f4
:10f9780098003e00006001000c003700300037009e
:10f98800520037005800370092003700380037001f
:10f99800760037004d003700530037003400370039
:10f9a800080037001d003700170037000080eb0003
:10f9b800f0478800004888000000eb0010488800e5
:10f9c800000006002023a9000019800061006000e3
:10f9d800820032000118800000102000808f500043
:10f9e800030036000080eb00f04788000300370072
:10f9f800f0498000f0478800e0498000004888000e
:10fa0800c0002000a048880050002000401988004d
:10fa18002023a800b00020006c0037002023a90094
:10fa280000198000610060006c003200001880003e
:10fa38001048880010002000a04888000000060038
:10fa48000001200040198800d082a800f0e2a80038
:10fa5800c042a800c422a900c022a900ece4a90061
:10fa6800e484a8002023a800500020005700370095
:10fa78002023a900001980006100600057003200af
:10fa880001188000f00f2000808f50003f003e00da
:10fa9800a0488000e50f500006003a00f4e2a800f4
:10faa800f0e2a9000080eb00f04988002000200067
:10fab80005003700d482a800d082a9000080eb009e
:10fac800e049880070002000a04888002023a80092
:10fad800a148800080002000e28f50003b003a00df
:10fae80030002000390037002023a90000198000c9
:10faf800610060003900320000188000a1488000d1
:10fb0800e38f500006003a00f1498000810f500051
:10fb180009003200f0498800200020002b0037003f
:10fb2800e1498000810f500003003200e04988005d
:10fb38007000200025003700a0488000e30f500027
:10fb480002003a00f0e2a80001003700d082a800c5
:10fb58002023a800a1488000a0002000e38f5000c7
:10fb68001a003a0060002000180037002023a9007e
:10fb78000019800061006000180032000118800040
:10fb880000102000808f5000050036000080eb0038
:10fb9800f047880000488800c00020000b003700ac
:10fba8002001200040198800d082a800f0e2a800b7
:10fbb800c442a900c042a900c022a800ece4a800e1
:10fbc800e484a9002023a80090002000a048880011
:10fbd8000000050010002000a04888000000060072
:10fbe8000000eb0000198800101988001010200090
:10fbf800201988000000280000198800000006006d
:10fc0800f7ff0700e484a800ece4a800e2a4a80039
:10fc18003023ef0010002000a048880000000600f4
:10fc2800889fbe00f0478000cf80de00e00f5000c4
:10fc3800e08f58000c003500a2498000b3498000cd
:10fc4800c8498000d94980004e0302000000000026
:10fc58000000440081804c004809dd004800de00b7
:10fc680000007100c888de004f04be0000000600d6
:10fc7800f047800000000600889fbe000048800012
:10fc8800cf80de00e00f5000e08f58000c003500f8
:10fc98006249800073498000884980009949800042
:10fca8004e030200000000000000440081804c0068
:10fcb8004809dd004800de0000007100c888de0049
:10fcc8004f04be0000000600004880000000060047
:10fcd800f04c8000e00f500033003200024d8000ed
:10fce800e00f510003003200c0ff2f00f1ff2f008a
:10fcf8000200010020488000c2ff2f00f3ff2f0000
:10fd0800f14c80000100010060488000a2ff2f0034
:10fd1800f3ff2f00f14c8000010001003048800003
:10fd280082ff2f00f3ff2f00f14c8000010001003b
:10fd38007048800062ff2f00f3ff2f00f14c800015
:10fd4800010001005048800042ff2f00f3ff2f0000
:10fd5800f14c8000010001009048800022ff2f0034
:10fd6800f3ff2f00f14c80000100010040488000a3
:10fd780002ff2f00f3ff2f00f14c8000010001006b
:10fd880080488000e2fe2f00f3ff2f00f14c800036
:10fd980001000100e2ff2f00f3ff2f0040112f00a8
:10fda800f14c80000100010000000600ec874700cc
:10fdb800889fbe008a9fbe008c9fbe008e1f780061
:10fdc800c89020001801780090488000cf91de008c
:10fdd800cf80de000001510081815900001024000d
:10fde800f1ff2f007a03020000000000d0b79f0047
:10fdf800e1b79f0098037800489020001801780028
:10fe0800404880006112b900cf80de000001520036
:10fe180081815a0000102000f1ff2f0087bf9f004a
:10fe28007a030200000000000006be0018077800f0
:10fe380072488000804880006112b900cf80de00df
:10fe48000001520081815a0000102400f1ff2f00a8
:10fe58007a030200000000000005be007048800020
:10fe6800c0b79f0032488000504880006112b90036
:10fe7800cf80de000001520081815a0000f02f007f
:10fe8800010020007a030200000000000004be0008
:10fe9800364880005fb19700efb197000a00410033
:10fea8008b8049008180d1000080d30060498800a0
:10feb800714988004fb097006101b9000a00be007f
:10fec800f6b79f004e030200000000006005100016
:10fed800e08518008fbb97006139b9005fb09700c3
:10fee800efb097004e03020000000000000055002c
:10fef80081805d000400230005002000000042000e
:10ff080081804a008180d1000080d3008049880028
:10ff1800914988000800460089804e008180d10000
:10ff28000080d300a0498800b14988007fb39700ba
:10ff38006131b9000800be004e0302000000000055
:10ff480060041000e08418006171b9000c00be0064
:10ff58004e030200000000000000540081805c0095
:10ff680002f02300130020000000410081804900b6
:10ff78008180d1000080d300c0498800d149880021
:10ff88004f0778004f06be004f05be004f04be0065
:10ff9800cf00b10000000600e24c8000e00f5100e5
:10ffa80027003200c0ff2f00f1ff2f0002000100e0
:10ffb80020488800a0ff2f00f1ff2f00e24c8000ae
:10ffc800020001006048880080ff2f00f1ff2f0029
:10ffd800e24c8000020001003048880060ff2f00da
:10ffe800f1ff2f00e24c80000200010070488800f9
:10fff80040ff2f00f1ff2f00e24c800002000100bb
:020000040001f9
:100008005048880020ff2f00f1ff2f00e24c8000ad
:10001800020001009048880000ff2f00f1ff2f0028
:10002800e24c80000200010040488800e0fe2f00fa
:10003800f1ff2f00e24c8000020001008048880098
:100048005aff070000000600af06b000889fbe00f8
:100058008a9fbe008c9fbe008e1f780049fb2f0030
:100068008f844400c02a2b000d000900b01c7800c2
:10007800c901b10060fa2f000f004000e1292b00f0
:100088000600090031187800e000b10000fd2f00db
:100098000f004000e1272b000f00090031187800fd
:1000a8000002b10020052000d08f9f00730040009f
:1000b800e08f9f006f004000f08f9f000080e900f4
:1000c80080979f006700400090979f000000eb001a
:1000d800a0979f00e0062b00145b020000000000c0
:1000e80000802f0020478800e0062b008c5d02006e
:1000f8000000000000047800fa132000e1062b003d
:1001080009007800685d02000000000080017800a6
:10011800830155008381d10009017800710720000f
:1001280003007800f85c02000000000080007800fe
:10013800e08f5000f1ff32007907200088844400e6
:10014800e1062b0060fa2f000f004000685d0200f6
:1001580000000000f1132000008050000080d10052
:1001680062fa2f000f01410089007800f85c020054
:1001780000000000e00f5000f1ff32008001200075
:10018800a08f9f00908f9f00700d2000c08f9f0050
:10019800b08f9f0000022000808f9f00d0879f00b3
:1001a800f0112000f0879f00e0879f007a07200069
:1001b8000805550009fd2f008f8444000004eb005a
:1001c8000d802f0014003700e00f54001200320099
:1001d8000080eb0020478800800544008b8545009f
:1001e80020f92f000f0040000b064000a1f82f0057
:1001f8008f8040008b8540009c0178001b017800af
:10020800740020000200be003c58020000000000fc
:10021800e00f5000f8ff32002d4788000800440026
:1002280021f92f008f80400080824000a1f82f0024
:100238008f80400000874000950578001e067800f2
:10024800a40020008b0178000c0178008b00780056
:100258000c00780085bf9f001656020000000000c1
:100268008fba9700e00f5000f3ff320074002000af
:100278008b0178000c0178008b0078000c00780066
:100288003c58020000000000e00f5000f7ff320069
:10029800e1062b0009007800685d020000000000fc
:1002a800fb132000808555008b85d1002d478800e1
:1002b800090178008a0078000b007800f85c0200d9
:1002c80000000000e00f5000f9ff3200f047800006
:1002d800e10f400003003a0001488000808f500081
:1002e800faff3200fc4780000e488000f04780008b
:1002f800e10f40000300320000488000e10f400099
:10030800faff3a00e10f460002003200e10f470011
:100318001d003a000080eb002047880009017800a2
:100328008a0078000b007800f85c020000000000ea
:10033800e00f5000f9ff3200e1062b00a0f92f0072
:100348000f004000685d020000000000f913200063
:10035800008054008084d1002d478800a2f92f0026
:100368000f0141008a00780009007800f85c02005b
:1003780000000000e00f5000f8ff3200a9f92f003c
:100388008f844400110037000080eb00204788006c
:10039800090178008a0078000b007800f85c0200f8
:1003a80000000000e00f5000f9ff32000800440090
:1003b800c19020008e307800419020008c30780069
:1003c8000804e80009fd2f008f844400f0478000ee
:1003d800e10f40000300320000488000e10f4000b8
:1003e800faff3a00c0122000ae9b02000000000095
:1003f800e30f540074ff34006cfe07004f077800c9
:100408004f06be004f05be004f04be00af06b10048
:10041800000006008001780033019000620261004c
:100428000000eb00800f520063003a009142780010
:10043800e2cf52002d003a0011029000c302900052
:10044800848f52001e003d00e3029000848f52000a
:100458001b00340021029000d3029000848f5200c8
:1004680017003d00f3019000848f51001400340000
:10047800e801610091409000808f51000300320034
:10048800e4cf50004c003a002a00370080002000da
:10049800e4cf50004800320064016100e3cf50000f
:1004a80003003a0070002000e00f510042003a00bb
:1004b80060002000e00f51003f00320000000500fe
:1004c800e80161000000eb00808f51003a003a001b
:1004d80091409000e1cf500037003a00640161007c
:1004e800800f5100340032009000050004007800ad
:1004f800e1cf520030003a0091029000938f5200f1
:100508002d003a0091419000e5cf51002a003a00b1
:1005180068006100a10190000a003200900b2000e1
:10052800808f5100030032007d005000808f510001
:1005380011003a0064016100600020001e003200d2
:10054800800005006000200092032000828f510087
:1005580019003200fc8f5100170032008000200083
:10056800920b2000828f5100130032007d01510050
:10057800828f510010003200a1009000600020001e
:1005880092032000828f50000b0032006d01510051
:10059800828f50000800320080002000920b20005b
:1005a800828f5000040032006d015100828f50008c
:1005b800010032000000eb0000000600889fbe002a
:1005c8008a9fbe008c1f780000047800a04f0200ac
:1005d800000000008000eb00810f50002a013a0063
:1005e800824c80000300200011002000e40f51001d
:1005f800e08f590024013e0002600100040037002a
:100608005a0037008a003700df003700e300370060
:10061800a04f0200000000008000eb00810f500096
:1006280019013a0038009000810f50000d003d007c
:10063800080890000008900020478800f801900002
:1006480068019000d800900048009000d43802005b
:10065800000000008000ea0080807000cf08de0003
:100668000901370058099000524c8800e1ff2f001b
:100678000191b900c800900081005100e801900084
:1006880083804000714c8800d8009000010151001f
:10069800f800900001014100624c880000017800d8
:1006a8000220b2002f003a00e2006000828f500062
:1006b8000d003a0064006000810f50000500320010
:1006c80008089000900090001001780060009000e9
:1006d8000900370008089000100190009000780089
:1006e80050009000040037000808900010019000a6
:1006f8009000780070009000404c8800a086200090
:100708000048eb000000eb0040438800504c80009c
:10071800c80190008301400043468800d80190003a
:100728008081410053468800e80190008081510093
:1007380063468800f8019000808151007346880064
:1007480080468800404c800090468800a246880079
:10075800b146880018109000604d880030002000d5
:10076800c046880010002000804c8800b804900023
:10077800090078000020b2001f0032001810900015
:10078800e00f50002800320078069000d800900052
:1007980001064600d23c02000000000080057800f7
:1007a80048059000680090000005450098149000e6
:1007b80009007800ae3c02000000000080017800cb
:1007c8008b0056008180d1008100e80003005500ad
:1007d8000080d1000000e8006033b800860278008d
:1007e8000602780013c0b300090178009265020080
:1007f80000000000050037000910b200808f540087
:1008080005003200ce7a020000000000e00f500020
:1008180005003a009b0037009478020000000000b1
:10082800890f50009700320020002000804c88007b
:1008380008159000e00f550041003200b800900004
:100848006280600009003a00e4806000808f5000f8
:1008580003003200080890003000900005003700bf
:100868000808900020009000020037000808900057
:100878004000900020478800080890001008900069
:10088800145b02000000000038009000f0006000d7
:1008980005003200e8009000e580500068099000eb
:1008a800828050000d003700000178000202b2007b
:1008b800810f510003003200c8009000e58040001d
:1008c8000600370068019000c800900081004100d0
:1008d80068099000828050008180d1000001780072
:1008e8000208b20003003200580090006500400082
:1008f8000e0037000004b200820f500005003200dd
:1009080078009000630050007809900002005000c1
:100918000600370058019000780090000000410060
:1009280078099000020050000080d10061438800df
:100938007043880030002000804c88001200370087
:10094800594c800040002000804c8800a04f0200d5
:10095800000000008a007800810f50004a003a0029
:10096800b800900061816000800f510041003200a2
:100978002200200042438800e4806000808f5000fd
:10098800190032001500370008109000d05c0200f2
:1009980000000000e00f50003a003200594c80007f
:1009a80040002000804c8800a04f0200000000009a
:1009b8008000eb00810f500033003a00b80090002f
:1009c80061816000800f51002a0032002000200061
:1009d80040438800e480600003003200080890006b
:1009e80030009000020037000808900020009000b6
:1009f80020478800580d9000e00f55000e003a007f
:100a0800f80190006801900065015100d80090003d
:100a1800e580400048009000650040000a02780028
:100a2800e581510016560200000000008a0f5000b0
:100a3800140032000d003700f801900068019000a2
:100a480009015100d80090008180440048009000be
:100a580000804400658254008981510016560200c6
:100a680000000000e00f5000060032000000eb001c
:100a7800404388000000eb00804c880011002000f3
:100a88000100370080007800010078004f067800e8
:100a98004f05be004f04be0000000600889fbe0040
:100aa800800478000104780020c0b300924f100041
:100ab80006003a00380090006100600003003a0028
:100ac800080078002e76020000000000e68f54002f
:100ad800050032000c003900e8845400e18f54000e
:100ae80009003e0004003700b800900040002400d0
:100af8000080700003003700380090000020a1003b
:100b080000e0a000300498004f04be00000006007a
:100b1800881f78000004780001007800001498000d
:100b28008808900091089000685d020000000000ad
:100b3800600c980008089000100890008c5d020076
:100b480000000000700c98004f04780000000600b8
:100b5800ec874700889fbe008a9fbe008c9fbe001e
:100b68008e1f7800c0b79f000107780082067800c2
:100b7800070678000fb59700ffad970040022000e8
:100b8800d3b79f00e4b79f00f5b79f0086bf9f00cb
:100b98009803020000000000000478008004eb00c5
:100ba800dfb197006fb29700ffb297000fbb9700b5
:100bb800890f54002a0032004fb09700000c7800cb
:100bc80019049800290498004e0498005d049800c0
:100bd8006304980074049800550c98001c1498003d
:100be8000a14980036049800202e2800100c98004b
:100bf800e0202800300c980020552800400c980070
:100c0800290c9800898f550003003a00404d800058
:100c1800000c9800010037000b0c98000000eb0056
:100c2800600c9800700c9800800f5500030032008b
:100c38008a00780008007800b5ff070008007800ef
:100c4800707702000000000038009000610060002a
:100c580003003200080078002e7602000000000031
:100c6800080078004f0778004f06be004f05be0009
:100c78004f04be00cf00b10000000600889fbe00f0
:100c88008a9fbe000004be00820578004000200054
:100c9800800d7800a04f020000000000800078005e
:100ca8000000eb00808f50002b003a0038009000c5
:100cb80061016000810f51002500320021002000f1
:100cc80041438800e40060000808900002003200f8
:100cd8003000900001003700200090002047880075
:100ce800580d9000f801900068019000d80090001d
:100cf80048009000e00f55000a003a0065015100d5
:100d0800e5804000650040000a027800e581510056
:100d180016560200000000008a0f50000a003a0030
:100d28000d00370009015100818044000080440013
:100d380065825400898151001656020000000000a7
:100d4800e00f5000040032000000eb004043880030
:100d5800800deb00100020004f05be004f04be00c0
:100d680000000600889fbe000004be00904c800072
:100d7800ba9a020000000000e00f5000fbff3200aa
:100d880021992000904c8000329a02000000000057
:100d9800c5c2a90031c0b300904c8000989a0200e7
:100da80000000000904c8000ae9a02000000000095
:100db80089407800904c8000989a0200000000005a
:100dc800904c8000ae9a020000000000c840de008f
:100dd800904c8000989a020000000000904c80001f
:100de800ae9a02000000000088407800904c800015
:100df800989a020000000000904c8000ae9a020011
:100e0800000000008040eb00904c8000989a02009f
:100e180000000000904c8000ae9a02000000000024
:100e280000447800c5c2a800904c8000d09a020007
:100e380000000000084078004f04be0000000600d3
:100e4800889fbe008a1f78000004be00c5ff070007
:100e58000085fb0061004400e0804c00c1ff0700f2
:100e68004800dd00000075004f0578004f04be0003
:100e780000000600904c8000ba9a020000000000b2
:100e8800e00f5000fbff320021992000904c8000b9
:100e9800329a020000000000c5c2a90061c0b30078
:100ea800904c8000989a020000000000904c80004e
:100eb800ae9a020000000000c5c2a800904c800055
:100ec800d09a02000000000000000600881f780089
:100ed800904c8000ba9a020000000000e00f500019
:100ee800fbff320021992000904c8000329a0200ca
:100ef80000000000c5c2a90051c0b300904c80009a
:100f0800989a020000000000904c8000ae9a0200ff
:100f1800000000008040eb00904c8000989a02008e
:100f280000000000904c8000ae9a02000000000013
:100f380000447800c5c2a800904c8000d09a0200f6
:100f480000000000614064004f04780000000600c3
:100f5800889fbe008a1f78000044780082047800c9
:100f680003057800c3ff0700904c8000ba9a02007e
:100f780000000000e00f5000fbff32002199200024
:100f8800904c8000329a020000000000c5c2a900ff
:100f980021c0b300904c8000989a02000000000025
:100fa800904c8000ae9a0200000000008a40780051
:100fb800904c8000989a020000000000904c80003d
:100fc800ae9a020000000000c848de00904c800085
:100fd800989a020000000000904c8000ae9a02002f
:100fe8000000000089407800904c8000989a020028
:100ff80000000000904c8000ae9a02000000000043
:1010080088407800904c8000989a02000000000008
:10101800904c8000ae9a020000000000c5c2a800f3
:10102800904c8000d09a020000000000a7ff070043
:10103800e04f5000fdff3a004f0578004f04be0016
:1010480000000600889fbe008a1f7800000578000f
:101058000204be000a407800bdff07006101440099
:10106800e0814c004850de00b9ff07004f057800ca
:101078004f04be0000000600e4874700889fbe00ba
:101088008a9fbe008c9fbe008e1f78000004be00a1
:1010980002067800030778008c0078000801be007b
:1010a8008006eb000800370061054100e085490033
:1010b8003140780081bf9f00a5ff07008d06e8003a
:1010c8000a01be008fb897008e8f5600f6ff3900d0
:1010d8000005eb00090037009c4678000800be00b8
:1010e80020ff070080cf560008003a000c06e800f1
:1010f80061044400e0844c000a05e8008e0f5500a6
:10110800f5ff390010c0b300010037000040eb00c4
:101118004f0778004f06be004f05be004f04be00c3
:101128004f00b10000000600889fbe008a9fbe00e5
:1011380080047800010578008205780003047800af
:10114800904c8000ba9a020000000000e00f5000a6
:10115800fbff320021992000904c8000329a020057
:1011680000000000c5c2a90031c0b300904c800047
:10117800989a020000000000904c8000ae9a02008d
:10118800000000008a407800904c8000989a020085
:1011980000000000904c8000ae9a020000000000a1
:1011a800c848de00904c8000989a020000000000b9
:1011b800904c8000ae9a0200000000008940780040
:1011c800904c8000989a020000000000904c80002b
:1011d800ae9a020000000000090037008040eb00d2
:1011e800904c8000989a020000000000904c80000b
:1011f800ae9a020000000000805d780009047800c3
:101208008804e900e00f5400f4ff3a00c5c2a800c2
:10121800904c8000d09a0200000000004f05be00ec
:101228004f04be000000060012ff0700904c80002b
:10123800ba9a020000000000e00f5000fbff3200e5
:1012480021992000904c8000329a02000000000092
:10125800c5c2a900c5c2a90001c6b300904c800050
:10126800989a020000000000904c8000ae9a02009c
:1012780000000000c5c2a800904c8000d09a02006f
:101288000000000011ff0700e04f5000fdff3a008a
:1012980000000600904c8000ba9a0200000000008e
:1012a800e00f5000fbff320021992000904c800095
:1012b800329a020000000000c5c2a90001c5b300af
:1012c800904c8000989a020000000000904c80002a
:1012d800ae9a020000000000c5c2a800c5c2a9005d
:1012e80011c0b300904c8000989a020000000000e2
:1012f800904c8000ae9a0200000000008040eb0095
:10130800904c8000989a020000000000904c8000e9
:10131800ae9a020000000000c5c2a800904c8000f0
:10132800d09a020000000000e8fe0700e04f5000dd
:10133800fdff3a0000000600881f780000047800ce
:101348008800780018007800329a02000000000037
:10135800080078003001be00924c8800a34c880039
:101368003001be00b24c8800c34c880010007800e1
:10137800d04c8800c7ff07004f0478000000060023
:10138800889fbe000004be00bafe0700904c800093
:10139800ba9a020000000000e00f5000fbff320084
:1013a80021992000904c8000329a02000000000031
:1013b800c5c2a90001c2b300904c8000989a0200ef
:1013c80000000000904c8000ae9a0200000000006f
:1013d80089407800904c8000989a02000000000034
:1013e800904c8000ae9a020000000000c840de0069
:1013f800904c8000989a020000000000904c8000f9
:10140800ae9a02000000000088407800904c8000ee
:10141800989a020000000000904c8000ae9a0200ea
:1014280000000000c5c2a800904c8000d09a0200bd
:1014380000000000a5fe0700e04f5000fdff3a0045
:101448004f04be0000000600889fbe00000478001c
:10145800147e02000000000080047800407e020034
:10146800000000008000780020c0b300004c780025
:101478000040eb0010449800e18f44000300320064
:10148800e18f400004003a0002003700890078002c
:101498000100370081047800204d8000890f50003a
:1014a8000c003a00124d8000810f510009003a00eb
:1014b800e18f440009003200e18f40000c00320047
:1014c80030c0b30010449800190498002104980013
:1014d8001b003700e10f400003003a00124d800066
:1014e800e10f41000c003200e18f4400040032009b
:1014f800e18f40000200320010c0b3000b0037003b
:1015080042c0b3001244980010049800104d8000a7
:101518002004980008003700828f5400040032002d
:10152800e18f40000200320020c0b3001044980050
:101538001904980021049800294d8800114d88004d
:101548004f04be0000000600889fbe008a9fbe00b0
:101558008c9fbe008e1f7800e0062b00145b0200f3
:1015680000000000e0062b008c5d02000000000077
:101578000004780080ff2f0000c0b900f00eb00012
:101588008084d1000080eb0020478800943a020054
:101598000000000000802f002047880008874400d2
:1015a800fa132000e1062b00401a2b00685d0200a8
:1015b80000000000000055000080d100421a2b00f6
:1015c8008e007800f85c020000000000e00f500078
:1015d800f4ff3200080644000c864400fa13200089
:1015e800e1062b00c0172b00685d02000000000018
:1015f800000055000080d100c2172b008c00780035
:10160800f85c020000000000e00f5000f4ff320018
:1016180000802f0020478800c245dd008b854400ec
:10162800fa132000e1062b00c0152b00685d0200ac
:1016380000000000000055000080d100c2152b00fa
:101648008b007800f85c020000000000e00f5000fa
:10165800f4ff32006540b90000854400fd13200006
:10166800e1062b0080142b00685d020000000000da
:1016780080017800838156008381d10082142b0079
:101688008a00780003007800f85c0200000000007f
:1016980000017800e00f5100f1ff32003c7e0200ab
:1016a8000000000080067800687e0200000000004c
:1016b80000017800e10f410002003200e18f46008e
:1016c800f6ff3a003c7e0200000000008006780029
:1016d800687e02000000000000017800e10f410070
:1016e800f8ff3200e18f4600f6ff32003c7e020030
:1016f8000000000080067800687e020000000000fc
:1017080000017800e10f410002003200e18f46003d
:10171800f6ff3a00c0122000ae9b02000000000055
:101728008086eb002d478800943a020000000000f4
:1017380028800200000000002d478800943a02002b
:10174800000000000000eb0020478800fd13200087
:10175800e1062b00a0112b00685d020000000000cc
:1017680080017800838156008381d100a2112b006b
:101778008e00780003007800f85c0200000000008a
:1017880000017800e00f5100f1ff3200fd13200046
:10179800e1062b00e00e2b00685d0200000000004f
:1017a80080017800838156008381d100e20e2b00ee
:1017b8008c00780003007800f85c0200000000004c
:1017c80000017800e00f5100f1ff32006340b900da
:1017d80080864400fc132000e1062b00e00b2b0060
:1017e800685d020000000000800178008301560057
:1017f8008381d100e20b2b008d0078000300780074
:10180800f85c02000000000000017800e00f5100c1
:10181800f1ff3200fc132000e1062b0020092b0009
:10182800685d020000000000800178008301560016
:101838008381d10022092b008b00780003007800f7
:10184800f85c02000000000000017800e00f510081
:10185800f1ff3200fb132000e1062b0020072b00cc
:10186800685d020000000000800178008381550057
:101878008381d10022072b008a00780003007800ba
:10188800f85c02000000000000017800e00f510041
:10189800f1ff320000802f00204788006640b90021
:1018a80080854400fa132000e1062b00c0152b00a8
:1018b800685d020000000000800178008301550087
:1018c8008381d100c2152b008b00780003007800bb
:1018d800f85c02000000000000017800e00f5100f1
:1018e800f1ff32006740b90080844400fa132000f9
:1018f800e1062b0080142b00685d02000000000048
:1019080080017800830155008381d10082142b0067
:101918008900780003007800f85c020000000000ed
:1019280000017800e00f5100f1ff32003c7e020018
:101938000000000000047800687e0200000000003b
:10194800e10f4000f9ff3200e10f4400f7ff3200d9
:10195800c0122000ae9b0200000000000000eb0057
:1019680020478800943a0200000000004f077800e2
:101978004f06be004f05be004f04be000000060023
:10198800889fbe00a800200040062000ae9b0200f1
:1019980000000000147e02000000000080047800af
:1019a800e18f440004003a00407e0200000000007d
:1019b800890f5000050032000804e900f2ff3a00e0
:1019c800e1fe07006c7e0200000000004f04be002c
:1019d80000000600889fbe008a1f78000005780076
:1019e800010478008204780003007800047e020075
:1019f8000000000020002000ae9b02000000000054
:101a0800fa4c8800094d8800e84c8800e00f540023
:101a18000e003200e0ff2f00f1ff2f000800010048
:101a2800e1938500810f500004003200c6fe0700d4
:101a38006c7e02000000000001003700d0ff0700a4
:101a4800d07f02000000000001003700befe070042
:101a58004f0578004f04be0000000600b00190005a
:101a6800e28161000001eb00828f510013003a000f
:101a780024c0b300914f120010003a0011029000e8
:101a8800c0029000848f52000c003d00e0029000dc
:101a9800848f520009003400a10090005002900089
:101aa800810f520005003d0070009000f2002000f8
:101ab800810f500001003c0003017800020078000b
:101ac80000000600889fbe008a9fbe008c9fbe0053
:101ad800000478008004eb003b0020000d00240087
:101ae800ac862000a04f020000000000e00f50006c
:101af800ba003a00e04d800001002000e40f5000d9
:101b0800e08f5800f7ff3e00006001000400370036
:101b18003a00370055003700670037009400370057
:101b28000040eb00d83302000000000038009000ad
:101b3800e00f50000d003d000808900000089000dc
:101b480020478800f801900068019000d8009000b4
:101b580048009000d4380200000000008004ea0029
:101b680080847400cf4cde009f0037008d00600039
:101b78002000320049438800094e78007001600057
:101b880088089000100032006200600002003a00ed
:101b9800e10090000d003700f10090002147880017
:101ba80009027800f801900068019000d8009000c0
:101bb800480090001656020000000000e00f500098
:101bc8000c003a00880037008108900021478800ff
:101bd80009027800f801900068019000d800900090
:101be800480090001656020000000000890f5000bf
:101bf8007d00320010002000e04d880008089000a9
:101c08000008900020478800f801900068019000c3
:101c18000201e900d80090008100e8004800900027
:101c28000000e8008301e900d43802000000000049
:101c3800e00f50006b00320010c0b300d833020030
:101c480000000000680190000281e900480090004f
:101c58000080e800f8019000d800900048340200a5
:101c68000000000020002000e04d8800a04f020086
:101c780000000000e00f500058003a0038019000c2
:101c88006201610088089000800f510002003a004c
:101c98002100900001003700410090002047880093
:101ca80011089000145b0200000000006808900012
:101cb800b04d8800eb4d8800da4d8000e00f5500ec
:101cc80029003a000808900090089000b04d800064
:101cd800685d020000000000800178003800900074
:101ce80068016000d80890008a0f51000b0032008c
:101cf80068019000480090000000410083015000f6
:101d08008381d10063438800c04d80000088b900fa
:101d1800580190000000410012003700e402600002
:101d280058029000c04d8000828f52000800320097
:101d3800680190000281e900830151006343880033
:101d48000089b9000201420072438800060037008a
:101d5800480190000281e800624388000088b900c9
:101d6800000042007043880040002000e04d8800d9
:101d7800d04d8000080037000a007800685c020037
:101d880000000000e00f500016003200d04d800027
:101d98000000e800d04d880000004000b14d8000f0
:101da80061057800e00f550003003200ea0f550086
:101db800f1ff3a0011003700ba4d8800ca4d88007b
:101dc800da4d88000a407800d8330200000000008d
:101dd800ea4d880019002000030037008004eb005a
:101de8000100370080047800090078004f06be0023
:101df8004f05be004f04be0000000600d04d800015
:101e08000000e80000004000b14d80000080400064
:101e1800b04d8800c04d80000000e800c04d88002b
:101e2800d94d8800eb4d88002eff37000800fa00d6
:101e3800889fbe008a9fbe008c9fbe0080067800e7
:101e4800010678008205780007057800e001200087
:101e5800e3b79f00f4b79f0085bf9f0096bf9f0020
:101e68009803020000000000000478008004eb00e2
:101e7800efb197007fb297008fba97001fbb97000a
:101e8800890f5400220032000d0c780019049800c4
:101e980080002000200498004c0498005b049800ff
:101ea8006304980074049800660c98003504980040
:101eb80060d62800100c980020d32800300c980019
:101ec800490c9800290c9800890f550003003a0026
:101ed800404d8000000c9800010037000a0c980063
:101ee8000000eb00500c9800800f530005003200f2
:101ef80008089000100890008c5d020000000000a7
:101f0800500c98000800780070770200000000006c
:101f1800080078004f06be004f05be004f04be0003
:101f28000080fa0000000600881f7800000478008e
:101f3800610c980008089000100890008c5d020061
:101f480000000000500c98004f04780000000600c4
:101f5800014178000080fb00010020006100500072
:101f6800e0805800e70f5000e08f580023003e0043
:101f780000600100070037000d0037001f00370020
:101f8800120037001d0037001c0037001b00370007
:101f980014003700e14f510002003a00c402a800c3
:101fa80001003700c402a900201680001300370082
:101fb800e14f510002003a00dd02a800010037009d
:101fc800dd02a900e01680000c003700e14f510047
:101fd80002003a00cc22a80007003700cc22a90052
:101fe80005003700e14f510002003a00cc02a8007a
:101ff80001003700cc02a900601680000000000034
:1020080000000600889fbe008a1f780000457800ff
:102018008900200008c8b3008040eb0020c0b3004e
:10202800cbff07001000200001002000689b020081
:10203800000000008a4064000100320011c0b300b3
:1020480040c0b300c2ff070011c0b30020c0b300f6
:10205800bfff07000884fb000804d1008904e900d9
:10206800edff3a004f0578004f04be00000006005f
:10207800889fbe0080047800010478008040eb004f
:1020880010c0b300b2ff07008040eb0080c0b3006f
:10209800afff07004848de00daff07000940780074
:1020a800d8ff070011c0b30001407800a8ff07005f
:1020b8001000200001002000689b020000000000c2
:1020c8008040eb0010c0b300a1ff070011c0b300af
:1020d80080c0b3009eff07004840de00c9ff07002c
:1020e80008407800c7ff070011c0b300014078001e
:1020f80097ff07001000200001002000689b0200e5
:10210800000000004f04be0000000600c002a90045
:10211800d902a900c822a900c802a900e224a9007e
:10212800e204a900c402a800dd02a800cc22a8008d
:10213800cc02a8006100200080022000ccff07002c
:10214800110020000000eb00c9ff0700f00020008c
:10215800ae9b02000000000021532900b0022000bd
:10216800c3ff0700c1aa2a0030002000c0ff0700f3
:1021780021002000c0002000bdff0700a1002000b2
:10218800d0002000baff070001c02200e0002000b4
:10219800b7ff0700a10a2000e0012000b4ff0700f4
:1021a8000100280050022000b1ff0700f0002000c5
:1021b800ae9b020000000000f1b3220010002000d6
:1021c800abff07000160200020002000a8ff0700e7
:1021d8008000eb0000012000a5ff0700400120005f
:1021e800ae9b0200000000008000eb0050002000c1
:1021f8009fff07008000eb00600020009cff0700a5
:10220800c1f12e006001200099ff07003100200075
:102218007001200096ff0700312320007000200085
:1022280093ff070021312500b000200090ff070030
:102238008000eb00f00020008dff07004001200027
:10224800ae9b0200000000008000eb00100420009c
:1022580087ff07008000eb002004200084ff0700b0
:102268008000eb008004200081ff0700f1132000ac
:10227800900420007eff070001f02e00400420009b
:102288007bff07008000eb005004200078ff070068
:10229800f11320006004200075ff07008000eb00a8
:1022a800a004200072ff07008000eb00b0042000ab
:1022b8006fff070040012000ae9b020000000000f5
:1022c800717020000003200069ff070041702000a2
:1022d8001003200066ff0700412020002003200093
:1022e80063ff0700112020003003200060ff070073
:1022f80031202000400320005dff0700412020001e
:10230800500320005aff07004120200060032000ee
:1023180057ff0700215020007003200054ff0700da
:1023280021302000a003200051ff070001502000a9
:10233800b00320004eff070040012000ae9b0200c2
:1023480000000000dd02a90000000600881f7800d8
:10235800ce76020000000000304e88000004eb003a
:1023680028009800f10120003100980028478800d3
:10237800943a02000000000010002000104e88006f
:10238800284e8800c609f800802c2b00801f780092
:10239800880378000600240088027800240d2000b5
:1023a80053092000020a200031012000a00020006b
:1023b800ac85020000000000e4875700880f500039
:1023c80022003200c609f800202d2b00801f78005b
:1023d800880378000600240088027800240d200075
:1023e800b3122000020a2000910a2000b000200049
:1023f800ac85020000000000e4875700880f5000f9
:1024080012003200881f780020032000801f780007
:10241800570020004606200005002400640920001b
:10242800b312200092062000410120004001200044
:102438008070020000000000404e88008000ea0022
:10244800010070004f00de00e48757004f04780059
:1024580000000600881f780011017800ea0f51007b
:1024680019003a0031019000e60f500012003a00be
