:020000040000fa
:080000000002040000000000f2
:020000040000fa
:10000800cc020000cc020000cc020000cc020000b0
:10001800cc020000cc020000cc020000cc020000a0
:10002800cc020000cc020000cc020000cc02000090
:10003800cc020000cc020000cc020000cc02000080
:1000480028da0000cc020000cc020000cc0200003c
:10005800cc020000cc020000cc020000cc02000060
:10006800cc020000cc020000cc020000cc02000050
:10007800cc020000cc020000cc020000cc02000040
:10008800cc020000cc020000cc020000cc02000030
:10009800cc020000cc020000cc020000cc02000020
:1000a800cc020000cc020000cc020000cc02000010
:1000b800cc020000cc020000cc020000cc02000000
:1000c800cc020000cc020000cc020000cc020000f0
:1000d800cc020000cc020000cc020000cc020000e0
:1000e800cc020000cc020000cc020000cc020000d0
:1000f800cc020000cc020000cc020000cc020000c0
:10010800cc020000cc020000cc020000cc020000af
:10011800cc020000cc020000cc020000cc0200009f
:10012800cc020000cc020000cc020000cc0200008f
:10013800cc020000cc020000cc020000cc0200007f
:10014800cc020000cc020000cc020000cc0200006f
:10015800cc020000cc020000cc020000cc0200005f
:10016800cc020000cc020000cc020000cc0200004f
:10017800cc020000cc020000cc020000cc0200003f
:10018800cc020000cc020000cc020000cc0200002f
:10019800cc020000cc020000cc020000cc0200001f
:1001a800cc020000cc020000cc020000cc0200000f
:1001b800cc020000cc020000cc020000cc020000ff
:1001c800cc020000cc020000cc020000cc020000ef
:1001d800cc020000cc020000cc020000cc020000df
:1001e800cc020000cc020000cc020000cc020000cf
:0801f800cc020000cc02000063
:020000040000fa
:10020800cc020000cc020000cc020000cc020000ae
:10021800cc020000cc020000cc020000cc0200009e
:10022800cc020000cc020000cc020000cc0200008e
:10023800cc020000cc020000cc020000cc0200007e
:1002480028da0000cc020000cc020000cc0200003a
:10025800cc020000cc020000cc020000cc0200005e
:10026800cc020000cc020000cc020000cc0200004e
:10027800cc020000cc020000cc020000cc0200003e
:10028800cc020000cc020000cc020000cc0200002e
:10029800cc020000cc020000cc020000cc0200001e
:1002a800cc020000cc020000cc020000cc0200000e
:1002b800cc020000cc020000cc020000cc020000fe
:1002c800cc020000cc020000cc020000cc020000ee
:1002d800cc020000cc020000cc020000cc020000de
:1002e800cc020000cc020000cc020000cc020000ce
:1002f800cc020000cc020000cc020000cc020000be
:10030800cc020000cc020000cc020000cc020000ad
:10031800cc020000cc020000cc020000cc0200009d
:10032800cc020000cc020000cc020000cc0200008d
:10033800cc020000cc020000cc020000cc0200007d
:10034800cc020000cc020000cc020000cc0200006d
:10035800cc020000cc020000cc020000cc0200005d
:10036800cc020000cc020000cc020000cc0200004d
:10037800cc020000cc020000cc020000cc0200003d
:10038800cc020000cc020000cc020000cc0200002d
:10039800cc020000cc020000cc020000cc0200001d
:1003a800cc020000cc020000cc020000cc0200000d
:1003b800cc020000cc020000cc020000cc020000fd
:1003c800cc020000cc020000cc020000cc020000ed
:1003d800cc020000cc020000cc020000cc020000dd
:1003e800cc020000cc020000cc020000cc020000cd
:0803f800cc020000cc02000061
:020000040000fa
:100400000f6b21000e7f24000e0188000000000009
:100410000c000700406c2e000100200011000700b6
:10042000000020000000e000020032000000020096
:1004300000000000eeda0200000000000040da00d8
:100440000000fe004440a900801a23000000e000e4
:100450000300320000002000a00188004440a800f2
:100460000000060091018800800078000000eb0089
:1004700015003700e280400032a0b4009101ba00bc
:10048000e280400032a0b4009102ba00e280400055
:1004900032a0b4000002eb00472bde00f507b200eb
:1004a000602ce10004003a000059eb008301e900f0
:1004b000fdff3e00040037006128e100010032002a
:1004c0000082eb00040007001101ba000200e00006
:1004d000e8ff3a00000006003159ba008301e90044
:1004e0000c0032002159ba008301e90008003200f3
:1004f0000400e00003003a00e280400032a0b400b3
:10050000f5ff370011d9ba008301e900faff3a007c
:100510008100e800e180400032a0b4000000060045
:10052000a8d4040000000000d4d3040000000000a0
:10053000f4d604000000000088c40400000000009d
:10054000fec104000000000084c704000000000099
:10055000d2e00400000000009ee004000000000063
:10056000eebb04000000000002bb0400000000001d
:1005700096c1040000000000eaba04000000000078
:10058000b0dd0400000000007adb04000000000081
:100590004adc0400000000000040da000000fe0019
:1005a000839f68000100e00002003d006000100031
:1005b000e08018000300e00002003d00600111002f
:1005c000e0811900050007004f00e00002003b0039
:1005d00060001000e0801800000006006022b800f3
:1005e000060220000000d0008180d2000482d200e8
:1005f0008582d2000000a0000202520083825a00cd
:10060000030031000202420083824a000000a10080
:100610000603e900f3ff3a0000000600020ab900f1
:10062000001bb9000200b8008100420081004300b5
:1006300000000600e8874700889fbe008a9fbe0032
:100640008c9fbe008e1f780001ae200002578000f4
:10065000e00f51000b003a0064814000025788000f
:1006600052578800a100980041578800214190000e
:100670000204a000a2409800614190000204a00082
:10068000e2409800670440004244de004244dd003e
:10069000405780008eaf2000096b21008e845400eb
:1006a00026002000801f7800110009008604d80071
:1006b000000378004f0078008880e80081824000c5
:1006c0008001eb006146b800346b21000e0252003d
:1006d00008024200010037000a007800a0409000a4
:1006e000e1806000020032000a0037001208780042
:1006f00010017800a2409000e1806000fbff320012
:1007000088004000810f510002003900e00f5400c2
:1007100049003d0010057800800f5500eeff3e00b7
:100720008e0f55000300390001ae2000810f5500e7
:10073000e9ff390051578000810f50004f003a0007
:1007400000ae2000800f55004c003a008301e80005
:10075000e18f5100e0ff3600860f540002003600a2
:10076000890f54000d0039006148b900b2ff2f0015
:10077000030020000000510081805900800f5600c6
:10078000818f5e0007003d00110009000982d8003a
:100790000980b900800578000300370085057800de
:1007a00001003700880578000b00780084bf9f00a7
:1007b000e5b79f00f6b79f00920007000fba9700b9
:1007c000efb297007fb39700e10f40002b0032009b
:1007d000515780008008780051578000e481400024
:1007e00021419000830f5000020032000204a0005b
:1007f000010037000204a100a2409800e4855500e2
:100800008b0540000b0878005b57880001ae200084
:10081000810d780052578000a24090000104a00092
:1008200021419800a04090000104a10021409800bf
:100830008001eb00a8ff370041578800810f51006d
:10084000070036001101be00625788007357880008
:1008500090087800425780008000eb00214198000a
:100860004357800003087800a04090000104a000d6
:100870002140980064004000010037000000eb00b8
:100880004f0778004f06be004f05be004f04be0064
:100890008f00b1000000060064005000405788003f
:1008a000a04090000104a100214098000000060033
:1008b000889fbe008a9fbe008004780001047800f3
:1008c000648154009205780069f997006101610024
:1008d0000200320009007800efff070008007800ee
:1008e00054ff070000047800e00f54001b003200a2
:1008f000890f54001900320068bd970008055500a3
:1009000042d5de00098055004280de000a017800f1
:10091000800f550001003600000178004211dd0013
:100920000800be0011000700890f54000b003100c1
:100930004255dd000a054400890f550007003600c6
:1009400089045500c2ccde00c24cdd00890444009d
:100950006057800071578000808cbe0008007800ce
:100960004f05be004f04be00000006008001780065
:1009700002003700b15978000201e900e00f510090
:10098000fcff3a0000000600905788000000eb00d2
:10099000a057880010c0b30001af20008048780045
:1009a0000000060002af20000040eb00924f100054
:1009b00006003a0010002000010020009057880037
:1009c000a157880010c0b30000497800d2e6240087
:1009d000631c240090578000a15780000fff070080
:1009e00092032300030020000000410081804900a1
:1009f00090578800a15788000100780000f0a100fe
:100a000000000600889fbe008a1f7800000578005d
:100a1000b9578000e08f540005003a0009007800c3
:100a20000f0007000084eb00890f5000080035001c
:100a3000b8578000e00f5500050032000a0044005e
:100a400007000700e00f500001003d000084eb00ac
:100a5000080078004f0578004f04be000000060033
:100a6000e00f500004003a0081af2000b157880029
:100a700080007800060037008080eb00026b2100c8
:100a8000820f500002003e00b05788008000eb004b
:080a90000100780000000600df
:020000040000fa
:100a9800000000001c0000007e0000001b00000099
:100aa800109400000100000010ca000001000000be
:100ab80011000000020000001151000002000000b7
:100ac80005a200000200000006bd000002000000b0
:100ad8000ad80000020000000b0e0000030000000e
:100ae8000b44000003000000107a0000030000001f
:100af80010b000000300000006e60000030000003c
:100b08000701000004000000071c000004000000aa
:100b18000a37000004000000096d0000040000000e
:100b280005a300000400000008be00000400000047
:100b380005d90000040000000bf4000004000000c8
:100b48000b2a0000050000000b60000005000000f3
:100b58000b960000050000000bcc0000050000000b
:100b68000b020000060000000b3800000600000021
:100b78000b6e0000060000000ba400000600000039
:100b88000bda0000060000000b1000000700000050
:100b9800054600000700000005610000070000008e
:100ba8000a7c0000070000000ab2000007000000ed
:100bb8000ae80000070000000a1e00000800000004
:100bc80013540000080000000ea5000008000000f3
:100bd8000cdb0000080000000c11000009000000f8
:100be8000e470000090000000b7d0000090000000e
:100bf8000bb30000090000000de900000900000027
:100c08000f1f00000a000000075500000a0000003e
:100c1800077000000a0000000d8b00000a000000a9
:100c28000bc100000a00000013f700000a000000d2
:100c38000f4800000b0000000e7e00000b000000b3
:100c48000cb400000b0000000eea00000b000000ce
:100c58000d2000000c0000000b5600000c000000e6
:100c68000d8c00000c0000000fc200000c000000fa
:100c78000ff800000c000000142e00000d0000000a
:100c88000e7f00000d0000000eb500000d000000f2
:100c98000ceb00000d000000072100000e00000012
:100ca8000b3c00000e000000087200000e0000005f
:100cb8000b8d00000e0000000bc300000e000000aa
:100cc80007f900000e0000000b1400000f000000e0
:100cd8000c4a00000f0000000a8000000f0000000e
:100ce8000cb600000f0000000bec00000f00000025
:100cf80007220000100000000c3d0000100000005a
:100d08000d7300001000000006a90000100000008c
:100d180006c40000100000000cdf000010000000f6
:100d2800061500001100000014300000110000003a
:100d38000d810000110000000cb700001100000038
:100d48000ced0000110000000c2300001200000050
:100d58000959000012000000098f0000120000006d
:100d680008c50000120000000ce00000120000009e
:100d78000b16000013000000104c000013000000c8
:100d88000c820000130000000bb8000013000000e4
:100d98000aee000013000000082400001400000000
:100da800053f000014000000085a0000140000006d
:100db8000b75000014000000000000000000000097
:100dc800000000000030000000380000003c000077
:100dd800003e0000003f0000803f0000c03f0000d0
:100de800e03f0000f03f0000f83f0000fc3f00003b
:100df800f83f0000f03f0000e03f0000c03f000067
:100e0800803f0000003f0000003e0000003c000062
:100e18000038000000300000000000000000000062
:100e280000000000000000000000000000000000ba
:100e38000c0000001c0000003c0000007c000000ca
:100e4800fc000000fc010000fc030000fc0700009f
:100e5800fc0f0000fc1f0000fc3f0000fc1f00000e
:100e6800fc0f0000fc070000fc030000fc01000070
:100e7800fc0000007c0000003c0000001c0000009a
:100e88000c0000000000000000000000000000004e
:100e9800000000000000000000000000000000004a
:100ea8000000000001000000800300000080000036
:100eb800030000008003000000c0000007000000dd
:100ec800c007000000e000000f000000e00f000075
:100ed80000e000000f000000f01f000000f000001c
:100ee8001f000000f01f000000f800003f00000095
:100ef800f83f000000f800003f000000fc7f000001
:100f080000fc00007f000000fc7f000000fe0000e5
:100f1800ff000000feff000000fe0000ff000000d0
:100f280000000000000000000000000000000000b9
:100f380000000000000000000000000000000000a9
:100f480000000000feff000000fe0000ff0000009f
:100f5800feff000000fc00007f000000fc7f000096
:100f680000fc00007f000000f83f000000f80000cf
:100f78003f000000f83f000000f000001f000000e4
:100f8800f01f000000f000001f000000e00f00004c
:100f980000e000000f000000e00f000000c00000ab
:100fa80007000000c00700000080000003000000e8
:100fb8008003000000800000030000000001000022
:100fc8000000000000000000000000000000000019
:100fd8000000000000000000000000000000000009
:100fe80000000000000000000000000000000000f9
:100ff80000000000000000000000000000000000e9
:1010080000000000000000000000000000000000d8
:10101800080c00000c0c00000c0c00000c0c00006c
:101028000c0c00000c0c0000040000000c0c00006c
:101038000c0000000000000000000000000000009c
:10104800000000000000000000000000cc000000cc
:10105800cc000000cc000000cc000000cc00000058
:10106800cc000000cc000000c4000000000000001c
:101078000000000000000000000000000000000068
:101088000000000000000000000000000000000058
:101098000000000000000000000000000000000048
:1010a8000000000000000000000000000000000038
:1010b8000000000000000000000000000000000028
:1010c8000000000060020000200300002001000072
:1010d80020010000fc0700009001000090000000c3
:1010e80098000000fe030000480000004c000000cb
:1010f8004400000064000000000000000000000040
:1011080000000000000000000000000000000000d7
:1011180000000000000000000000000000000000c7
:1011280000000000000000006000000060000000f7
:10113800f80100006c030000660100006600000072
:101148006e0000007c000000f8010000e0010000d3
:10115800e003000060030000620300006203000077
:1011680066010000fc000000600000006000000054
:101178000000000000000000000000000000000067
:101188000000000000000000000000000000000057
:1011980000000000000000000000000038300000df
:1011a80024180000660c00006604000066060000b3
:1011b80066030000a40100009c380000c064000021
:1011c8006066000020660000106600001824000019
:1011d8000c1c0000000000000000000000000000df
:1011e80000000000000000000000000000000000f7
:1011f80000000000000000000000000000000000e7
:10120800e00100003003000018030000180300008c
:10121800180100009801000078000000787e0000a6
:101228007c1c0000cc180000c6190000861b0000ba
:10123800060f0000060e00000c1a0000f8710000ee
:101248000000000000000000000000000000000096
:101258000000000000000000000000000000000086
:10126800000c00000c0c00000c0c00000c0c000022
:101278000400000000000000000000000000000062
:101288000000000000000000000000000000000056
:10129800000000000060000030100000080c000092
:1012a8000c04000006060000060600000606000002
:1012b80006060000040c00000c08000018300000ae
:1012c80060000000000000000000000003060000ad
:1012d8000c08000018180000103000003030000022
:1012e80030300000303000003010000018180000c6
:1012f80008040000060300000000000000000000d1
:101308000000000000300000003000000022000053
:1013180001ae0000037800000078000000ae000075
:101328000122000001300000003000000000000031
:1013380000000000000000000000000000000000a5
:101348000000000000000000000000000000000095
:101358000000000000000000000000000000000085
:101368000000000000000000000000000000000075
:101378000000000000000000000000000000000065
:101388000000000000000000000000000000000055
:1013980000300000003000000030000000fe0000b7
:1013a8000130000000300000003000000030000074
:1013b8000000000000000000000000000000000025
:1013c8000000000000000000000000000000000015
:1013d8000000000000000000000000000000000005
:1013e80000000000000000000000000000000000f5
:1013f80000000000000000000e0f00000c0c0000b0
:1014080004020000000000000000000000000000ce
:1014180000000000000000000000000000000000c4
:1014280000000000000000007e0000000000000036
:1014380000000000000000000000000000000000a4
:101448000000000000000000000000000000000094
:101458000000000000000000000000000000000084
:10146800000000000c0c00000c0000000000000050
:101478000000000000000000000000000000000064
:1014880000020000000300000001000080010000cd
:101498008001000080000000c0000000c0000000c3
:1014a8006000000060000000200000003000000024
:1014b80030000000100000001800000018000000b4
:1014c8000c0000000c0000000400000006000000f2
:1014d80006000000020000000000000000000000fc
:1014e80000000000000000000000000000000000f4
:1014f800000000000000000000000000f0000000f4
:10150800c80100008c0100008403000006030000ed
:10151800060300000603000006030000060300009f
:1015280006030000060100000c0100008c0000000a
:101538007000000000000000000000000000000033
:101548000000000000000000000000000000000093
:101558000000000000000000000000000000000083
:10156800000000000000000060000000780000009b
:1015780064000000600000006000000060000000df
:1015880060000000600000006000000060000000d3
:10159800600000006000000060000000fc03000024
:1015a8000000000000000000000000000000000033
:1015b8000000000000000000000000000000000023
:1015c8000000000000000000000000000000000013
:1015d8000000000078000000c4010000860100003f
:1015e8008201000080010000c0000000c00000006f
:1015f800600000003000000030000000180000000b
:101608000c01000006010000fe01000000000000bf
:1016180000000000000000000000000000000000c2
:1016280000000000000000000000000000000000b2
:1016380000000000000000000000000000000000a2
:10164800f8000000cc0100008601000080010000c5
:101658008001000040000000f00000008001000050
:101668000003000000030000000300000003000066
:101678008601000078000000000000000000000063
:101688000000000000000000000000000000000052
:101698000000000000000000000000000000000042
:1016a800000000000000000000000000c000000072
:1016b800e0000000e0000000d0000000d8000000ba
:1016c800c8000000c4000000c6000000c2000000fe
:1016d800ff030000c0000000c0000000c0000000c0
:1016e800f0030000000000000000000000000000ff
:1016f80000000000000000000000000000000000e2
:1017080000000000000000000000000000000000d1
:10171800000000000000000000010000fc000000c4
:101728000400000004000000060000007e00000025
:10173800c20000008001000080010000800100005c
:101748008001000080000000c30000003c00000091
:101758000000000000000000000000000000000081
:101768000000000000000000000000000000000071
:101778000000000000000000000000000000000061
:101788000000000080010000600000001800000058
:10179800080000000c000000f60000008e010000a8
:1017a800060300000603000006030000060300000d
:1017b8000c0100008c010000f00000000000000097
:1017c8000000000000000000000000000000000011
:1017d8000000000000000000000000000000000001
:1017e80000000000000000000000000000000000f1
:1017f80000000000fc0300000201000002010000dc
:101808008001000080000000c000000040000000cf
:1018180060000000200000003000000030000000e0
:101828001800000008000000000000000000000090
:1018380000000000000000000000000000000000a0
:101848000000000000000000000000000000000090
:10185800000000000000000000000000f800000088
:10186800cc01000086010000860100008e01000006
:10187800dc000000f0000000c80100008c0300003c
:101888000603000006030000060300008c010000a8
:1018980078000000000000000000000000000000c8
:1018a8000000000000000000000000000000000030
:1018b8000000000000000000000000000000000020
:1018c8000000000000000000f00000008c01000093
:1018d8008401000006030000060300000603000060
:1018e800060300008c0300007803000000010000dc
:1018f80080010000c0000000200000001c00000063
:1019080000000000000000000000000000000000cf
:1019180000000000000000000000000000000000bf
:10192800000000000000000000000000000c0000a3
:101938000c0c00000000000000000000000c00007b
:101948000c0c000000000000000000000000000077
:10195800000000000000000000000000000000007f
:10196800000000000c0c00000c000000000000004b
:10197800000000000e0f00000c0c00000402000024
:10198800000000000000000000000000000000004f
:10199800000000000000000000000000000000003f
:1019a800000000000000000000000000000000002f
:1019b80000010000e00100003c00000006000000fb
:1019c8001c000000f0000000800100000000000082
:1019d80000000000000000000000000000000000ff
:1019e80000000000000000000000000000000000ef
:1019f80000000000000000000000000000000000df
:101a080000000000000000000000000000000000ce
:101a180000000000000000000000000000000000be
:101a280000000000fe0100000000000000000000af
:101a3800fe0100000000000000000000000000009f
:101a4800000000000000000000000000000000008e
:101a5800000000000000000000000000000000007e
:101a6800000000000000000000000000000000006e
:101a7800000000000000000000000000000000005e
:101a88000000000000000000060000003c0000000c
:101a9800e001000080010000f00000001e000000ce
:101aa800020000000000000000000000000000002c
:101ab800000000000000000000000000000000001e
:101ac800000000000000000000000000000000000e
:101ad8000000000000000000f8000000cc01000039
:101ae80086010000860100008001000080010000de
:101af800c00000006000000060000000300000002e
:101b0800300000003000000010000000000000005d
:101b1800300000003000000030000000000000002d
:101b280000000000000000000000000000000000ad
:101b3800000000000000000000000000000000009d
:101b4800000000000000000000000000000000008d
:101b580000000000000000003f000000c07000000e
:101b680000300000c00000001880000001080000dc
:101b7800800100000c970000038400001803000097
:101b880046180000036600001803000066180000ed
:101b9800036600001803000066180000016e0000cc
:101ba80098010000cc9c0000008c0000730000002d
:101bb800180000000038000080000000e0e000008d
:101bc800018000001f00000000000000000000006d
:101bd80000000000000000000000000000000000fd
:101be80000000000000000000000000000000000ed
:101bf8000040000000c0000000a0000000a000009d
:101c080001a00000011000000110000003100000f6
:101c180003f800000308000006080000060400009e
:101c28000c0400000c1f00001e0000000000000053
:101c3800000000000000000000000000000000009c
:101c4800000000000000000000000000000000008c
:101c580000000000000000000000000000fe00007e
:101c6800008d0000030c0000030c0000030c0000b2
:101c7800038c000001fc0000018c0000030c000034
:101c8800070c0000060c0000060c0000060c000003
:101c980003ff000001000000000000000000000039
:101ca800000000000000000000000000000000002c
:101cb800000000000000000000000000000000001c
:101cc800000000000000000000c000000730000015
:101cd8000c080000000c00000004000000060000d2
:101ce80000060000000600000006000000060000d4
:101cf800000c0000000c00000838000004e00000a0
:101d080003000000000000000000000000000000c8
:101d180000000000000000000000000000000000bb
:101d280000000000000000000000000000000000ab
:101d38000000000000fe0000010d0000070c00007c
:101d48000e0c00000c0c0000180c0000180c000011
:101d5800180c0000180c0000180c0000180c0000eb
:101d68000c0c00000e0c000007ff00000100000032
:101d7800000000000000000000000000000000005b
:101d8800000000000000000000000000000000004b
:101d9800000000000000000000000000000000003b
:101da80000ff0000030c0000020c0000020c000001
:101db800000c0000000c000000fc0000018c00007a
:101dc800000c0000000c0000000c0000000c0000db
:101dd800040c000006ff00000300000000000000e3
:101de80000000000000000000000000000000000eb
:101df80000000000000000000000000000000000db
:101e080000000000000000000000000000ff0000cb
:101e1800030c0000020c0000020c0000000c000083
:101e2800000c000000fc0000018c0000000c000009
:101e3800000c0000000c0000000c0000000c00006a
:101e4800003f00000000000000000000000000004b
:101e5800000000000000000000000000000000007a
:101e6800000000000000000000000000000000006a
:101e7800000000000000000000e000000310000067
:101e880006080000000c0000000600000006000024
:101e980000060000008600000f060000060600008d
:101ea800060c0000060c00000618000006f00000f2
:101eb8000100000000000000000000000000000019
:101ec800000000000000000000000000000000000a
:101ed80000000000000000000000000000000000fa
:101ee80000000000003f00007e0c0000180c0000fd
:101ef800180c0000180c0000180c000018fc00005a
:101f08001f0c0000180c0000180c0000180c000032
:101f1800180c0000180c0000183f00007e0000009c
:101f280000000000000000000000000000000000a9
:101f38000000000000000000000000000000000099
:101f480000000000003f00000c0c00000c0c00001a
:101f58000c0c00000c0c00000c0c00000c0c000019
:101f68003f0000000000000000000000000000002a
:101f78000000000000000000000000007e180000c3
:101f88001818000018180000181800001818000089
:101f980018180000181800001808000004030000b2
:101fa8000000000000000000000000000000000029
:101fb800000000000000000000000000003f0000da
:101fc8000f0c0000020c0000018c0000004c000007
:101fd800006c0000003c0000006c000000ec0000f9
:101fe80000cc0000008c0000010c0000030c000075
:101ff800063f00001c000000000000000000000078
:1020080000000000000000000000000000000000c8
:1020180000000000000000000000000000000000b8
:102028000000000000000000003f0000000c00005d
:10203800000c0000000c0000000c0000000c000068
:10204800000c0000000c0000000c0000000c000058
:10205800000c0000000c0000040c000002ff00004f
:102068000300000000000000000000000000000065
:102078000000000000000000000000000000000058
:102088000000000000000000000000000000000048
:102098000000000000000000000000000000000038
:1020a800001e0000c00100001ce00000001c000031
:1020b800e00000003cf00000002c0000d000000010
:1020c8006cd00000006c0000c8000000ccc8000004
:1020d80000cc0000cc0000008cc50000008c000083
:1020e800c70000000cc30000000c0000c300000083
:1020f8001ee10000030000000000000000000000d6
:1021080000000000000000000000000000000000c7
:1021180000000000000000000000000000000000b7
:1021280000000000000000000000000000000000a7
:1021380000000000000000000f7e00000c180000e6
:102148001c1800003c1800002c1800004c18000057
:10215800cc1800008c1900000c1900000c1b0000a2
:102168000c1e00000c1c00000c1c00003f18000096
:102178000000000000000000000000000000000057
:102188000000000000000000000000000000000047
:102198000000000000000000000000000000000037
:1021a80000000000e003000018060000080c000012
:1021b8000c0c0000061800000618000006180000a5
:1021c8000618000006180000061800000c0c000095
:1021d8000c04000018020000f001000000000000dc
:1021e80000000000000000000000000000000000e7
:1021f80000000000000000000000000000000000d7
:1022080000000000000000000000000000000000c6
:10221800fe0100000d0300000c0600000c06000083
:102228000c0600000c0600000c030000fc00000077
:102238000c0000000c0000000c0000000c00000066
:102248000c0000003f00000000000000000000003b
:102258000000000000000000000000000000000076
:102268000000000000000000000000000000000066
:10227800000000000000000000000000e003000073
:1022880018060000080c00000c0c000006180000de
:1022980006180000061800000618000006180000be
:1022a800061800000c0c00000c0c000018060000ba
:1022b800f0010000000300000006000000380000e4
:1022c8000000000000000000000000000000000006
:1022d80000000000000000000000000000000000f6
:1022e8000000000000000000fe0100000d030000d7
:1022f8000c0600000c0600000c0600000c03000091
:10230800fc000000cc000000cc0000008c010000a4
:102318000c0300000c0300000c0600003f1c00002a
:1023280000000000000000000000000000000000a5
:102338000000000000000000000000000000000095
:102348000000000000000000000000000000000085
:1023580000000000f80000008c01000006000000ea
:10236800060000000e0000003c000000f80000001d
:10237800e0010000800300000003000002030000e9
:1023880002010000860100007c000000000000003f
:102398000000000000000000000000000000000035
:1023a8000000000000000000000000000000000025
:1023b8000000000000000000000000000000000015
:1023c800ff0f0000610800006108000060000000c5
:1023d8006000000060000000600000006000000075
:1023e8006000000060000000600000006000000065
:1023f80060000000f801000000000000000000007c
:1024080000000000000000000000000000000000c4
:1024180000000000000000000000000000000000b4
:102428000000000000000000000000003f7e0000e7
:102438000c1800000c1800000c1800000c18000004
:102448000c1800000c1800000c1800000c180000f4
:102458000c1800000c180000180c000038060000ca
:10246800e003000000000000000000000000000081
:102478000000000000000000000000000000000054
:102488000000000000000000000000000000000044
:1024980000000000000000001f3c00000c180000b5
:1024a8000c08000018080000180c000018040000b0
:1024b8003006000030020000200200006003000027
:1024c80060010000c0010000c001000080000000a1
:1024d80000000000000000000000000000000000f4
:1024e80000000000000000000000000000000000e4
:1024f80000000000000000000000000000000000d4
:1025080000000000000000000000000000000000c3
:102518001fc20000070c0000060100000c060000a6
:10252800010c0000070100000c8d000001080000ec
:102538008d000000988900000098000098000000b5
:102548009898000000d00000d000000070700000d3
:1025580000700000700000007060000000200000a3
:102568006000000000000000000000000000000003
:102578000000000000000000000000000000000053
:102588000000000000000000000000000000000043
:102598000000000000000000000000000000000033
:1025a80000000000003f00001f0c00000c18000095
:1025b800063800000330000001e0000001c0000000
:1025c80000c0000001a00000013000000318000056
:1025d800060800000e0c00000c1f00003e00000062
:1025e80000000000000000000000000000000000e3
:1025f80000000000000000000000000000000000d3
:1026080000000000000000000000000000000000c2
:10261800000700003e0c00000c1800000418000021
:10262800023000000360000001e0000001c000006b
:1026380000c0000000c0000000c0000000c0000092
:1026480000c0000000f000000300000000000000cf
:102658000000000000000000000000000000000072
:102668000000000000000000000000000000000062
:1026780000000000000000000000000000fc000056
:1026880007040000030200000380000001c00000ee
:1026980000c0000000600000007000000030000072
:1026a8000018000000180000000c000004060000dc
:1026b80004fe000007000000000000000000000009
:1026c8000000000000000000000000000000000002
:1026d80000000000003e000006060000060600009c
:1026e80006060000060600000606000006060000b2
:1026f80006060000060600000606000006060000a2
:102708003e00000000000000000000000000000083
:10271800020000000600000006000000040000009f
:102728000c0000000800000018000000180000005d
:102738001000000030000000300000002000000001
:10274800600000004000000040000000c0000000e1
:1027580080000000800100008001000000010000ee
:10276800000300000002000000000000000000005c
:1027780000000000000000003e3000003030000083
:1027880030300000303000003030000030300000c1
:1027980030300000303000003030000030300000b1
:1027a800303e0000000000000000000000000000b3
:1027b8000000000000200000006000000070000021
:1027c80000d0000000d80000008800000088000049
:1027d800018c000001040000030400000302000053
:1027e80003000000000000000000000000000000de
:1027f80000000000000000000000000000000000d1
:1028080000000000000000000000000000000000c0
:1028180000000000000000000000000000000000b0
:1028280000000000000000000000000000000000a0
:102838000000000000000000000000000000000090
:102848000000000000000000000000000000000080
:102858000000000000000000000000000000000070
:1028680000000000000000000000000000fe000062
:10287800030000000000000000000000000000004d
:102888000000000000000000030600000c08000023
:102898001000000000000000000000000000000020
:1028a8000000000000000000000000000000000020
:1028b8000000000000000000000000000000000010
:1028c8000000000000000000000000000000000000
:1028d80000000000000000000000000000000000f0
:1028e800f00000008c01000086010000800100005b
:1028f800f00100008c010000860100008601000044
:10290800c6010000bc070000000000000000000035
:1029180000000000000000000000000000000000af
:10292800000000000000000000000000000000009f
:102938000c0000000e0000000c0000000c0000005d
:102948000c0000000c0000000c000000cc0100008e
:102958003c0300001c0700000c0600000c060000e9
:102968000c0600000c0600000c0200001c01000010
:10297800f00000000000000000000000000000005f
:10298800000000000000000000000000000000003f
:10299800000000000000000000000000000000002f
:1029a800000000000000000000000000000000001f
:1029b8000000000000000000e00100001803000013
:1029c8000c000000060000000600000006000000e1
:1029d800060000000c0000001c030000f0000000ce
:1029e80000000000000000000000000000000000df
:1029f80000000000000000000000000000000000cf
:102a0800000000000000000000030000c0030000f8
:102a180000030000000300000003000000030000a2
:102a280000030000f0030000880300000403000016
:102a3800060300000603000006030000060300006a
:102a48000e030000cc0b0000380700000000000057
:102a5800000000000000000000000000000000006e
:102a6800000000000000000000000000000000005e
:102a7800000000000000000000000000000000004e
:102a8800000000000000000000000000000000003e
:102a9800f00000000803000004030000fe0300002b
:102aa8000600000006000000060000000c00000000
:102ab8001c030000f00000000000000000000000ff
:102ac80000000000000000000000000000000000fe
:102ad8000000000000000000006000005018000026
:102ae8000c0c00000c0c00007e0d00000c0c00000b
:102af8000c0c00000c0c00000c3f00000000000053
:102b080000000000000000000000000000000000bd
:102b180000000000000000000000000000000000ad
:102b2800000000000000000000000000000000009d
:102b380000f800000c8c00000306000003060000eb
:102b480003060000038c000001f8000000180000d4
:102b5800001c000000f80000030600000e0300003f
:102b68000c0300000c06000006fc00000100000039
:102b7800000000000000000000000000000000004d
:102b8800000c0000000f0000000c0000000c00000a
:102b9800000c0000000c0000000c000000cc00003d
:102ba800032c0000061c0000060c0000060c0000a8
:102bb800060c0000060c0000060c0000060c0000c5
:102bc80006bf00001f000000000000000000000019
:102bd80000000000000000000000000000000000ed
:102be8000000000000000000000000000c0c0000c5
:102bf80000000000000c00000f0c00000c0c00008e
:102c08000c0c00000c0c00003f000000000000004d
:102c180000000000000000000000000000000000ac
:102c2800000c00000c000000000000000c0f000069
:102c38000c0c00000c0c00000c0c00000c0c00002c
:102c48000c0c00000402000001000000000000005d
:102c58000000000000000000000c0000000f000051
:102c6800000c0000000c0000000c0000000c00002c
:102c7800000c0000008c0000078c000001cc000054
:102c8800002c0000003c0000006c000000cc00009c
:102c9800008c0000010c0000031f00000f00000062
:102ca800000000000000000000000000000000001c
:102cb800000000000000000000000000000000000c
:102cc8000c0f00000c0c00000c0c00000c0c000099
:102cd8000c0c00000c0c00000c0c00000c0c00008c
:102ce8003f0000000000000000000000000000009d
:102cf80000000000000000000000000000000000cc
:102d080000000000000000000000000000000000bb
:102d180000000000000000000000000000000000ab
:102d28000000000000000000000000008ee300002a
:102d3800016d0000160300001c0e0000030c0000cb
:102d4800060300000c060000030c00000603000048
:102d58000c060000030c0000060300000c0600002f
:102d680003bf0000df0f00000000000000000000ab
:102d7800000000000000000000000000000000004b
:102d8800000000000000000000000000000000003b
:102d9800000000000000000000000000000000002b
:102da800000000000000000000000000000000001b
:102db8000000000000000000008e0000036d00000d
:102dc800061c0000060c0000060c0000060c0000a3
:102dd800060c0000060c0000060c000006bf0000f0
:102de8001f000000000000000000000000000000bc
:102df80000000000000000000000000000000000cb
:102e080000000000000000000000000000000000ba
:102e180000000000000000000000000000000000aa
:102e28000000000000f0000000880000030400001b
:102e3800030600000606000006060000060600005d
:102e4800060c0000021c000001f000000000000059
:102e5800000000000000000000000000000000006a
:102e6800000000000000000000000000000000005a
:102e7800000000000000000000000000000000004a
:102e8800000000000000000000000000000000003a
:102e980000ce0000013d0000031c0000070c0000ec
:102ea800060c0000060c0000060c0000060c0000d2
:102eb800021c000003ec0000000c0000000c0000e5
:102ec800000c0000000c0000003f000000000000a3
:102ed80000000000000000000000000000000000ea
:102ee80000000000000000000000000000000000da
:102ef80000000000000000000000000000f00000da
:102f080002880000030c000003060000030600000e
:102f18000306000003060000030e0000038c0000f7
:102f28000378000003000000030000000300000015
:102f38000300000003c000000f00000000000000b4
:102f48000000000000000000000000000000000079
:102f58000000000000000000000000000000000069
:102f6800000000000000000000cc000001af0000dd
:102f7800019c0000001c0000000c0000000c000078
:102f8800000c0000000c0000000c0000003f0000d6
:102f98000000000000000000000000000000000029
:102fa8000000000000000000000000000000000019
:102fb8000000000000000000000000000000000009
:102fc80000000000000000000000000000000000f9
:102fd80000000000007c0000006600000006000001
:102fe800000e0000003c000000f0000000c00000df
:102ff80000c2000000c20000003e00000000000007
:1030080000000000000000000000000000000000b8
:1030180000000000000000000000000000000000a8
:1030280000000000000800000c0c00000cfe00006e
:103038000d0c00000c0c00000c0c00000c8c0000a7
:103048007800000000000000000000000000000000
:103058000000000000000000000000000000000068
:103068000000000000000000000000000000000058
:1030780000000000000000000c030000ce03000068
:103088000c0300000c0300000c0300000c030000fc
:103098000c0300000c030000cc0b000038070000f4
:1030a8000000000000000000000000000000000018
:1030b8000000000000000000000000000000000008
:1030c80000000000000000000000000000000000f8
:1030d80000000000000000000000000000000000e8
:1030e800000000009f070000040200000c0100001f
:1030f8000c010000980100009800000090000000fa
:1031080070000000600000002000000000000000c7
:1031180000000000000000000000000000000000a7
:103128000000000000000000000000000000000097
:103138000000000000000000000000000000000087
:103148000000000000000000000000000000000077
:103158001ff1000004410000842300008c230000bc
:10316800882600004836000058140000301c000073
:10317800301c0000300800000000000000000000c3
:103188000000000000000000000000000000000037
:103198000000000000000000000000000000000027
:1031a8000000000000000000000000000000000017
:1031b8000000000000000000000000009f07000061
:1031c8000c01000098000000f00000006000000002
:1031d80070000000d0000000880100000403000017
:1031e8008f07000000000000000000000000000041
:1031f80000000000000000000000000000000000c7
:1032080000000000000000000000000000000000b6
:1032180000000000000000000000000000000000a6
:1032280000000000000000009f07000004020000ea
:103238000c0100000c01000098010000980000003b
:1032480090000000700000006000000060000000b6
:103258002000000030000000100000000f000000f7
:10326800070000000000000000000000000000004f
:103278000000000000000000000000000000000046
:103288000000000000000000000000000000000036
:1032980000000000fe01000082010000c2000000e2
:1032a800600000002000000030000000180000004e
:1032b8000c01000004010000fe01000000000000f5
:1032c80000000000000000000000000000000000f6
:1032d8000000000000000000000000004030000076
:1032e80010180000181800003830000030100000d6
:1032f800081e0000303000003030000018180000b0
:103308001818000030400000000000000000000015
:103318000c0c00000c0c00000c0c00000c0c000045
:103328000c0c00000c0c00000c0c00000c0c000035
:103338000c0c00000c0c00000c0c00000c0c000025
:103348000000000000000000020c00001818000037
:10335800181800000c0c00000c0c0000781000007d
:10336800080c00000c1c00001818000018080000c9
:103378000c02000000000000000000000000000037
:103388000000000000000000000000000000000035
:103398000000000000000000000000000000000025
:1033a8000000000000180000047c000002f2000089
:1033b80001c2000001000000000000000000000041
:1033c80000000000000000000000000000000000f5
:1033d80000000000000000000000000000000000e5
:1033e8000000000000000000000000004c85000004
:1033f80000000000200000002c0000001900000060
:10340800053c00000000000004550000000000001a
:103418000d6e00000000000012a000000000000077
:103428000beb0000000000000b1d00000100000075
:103438000b4f0000010000000c810000010000009b
:103448000cb30000010000000be5000001000000c3
:1034580009170000020000000a49000002000000ed
:103468000a7b0000020000000000000000000000cd
:103478000000000000000000000000000000000044
:103488000000000000000000000000000000000034
:103498000000000000000000000000000000000024
:1034a80000000000000600000606000006060000f6
:1034b800060600000202000002000000060e0000de
:1034c8000e000000000000000000000000000000e6
:1034d80000000000000000000000000000000000e4
:1034e800e40100001c0300000c06000004060000b4
:1034f800040600000006000080030000f001000040
:10350800000700000c0e00000e0e00000e0e00005a
:10351800020e000004070000f8010000000000008f
:103528000000000000000000000000000000000093
:103538000000000000000000000000000000000083
:10354800000000000000000000000000003e000035
:10355800e003000038e0000000780000e000000010
:1035680068d0000000680000d0000000e8d000002b
:1035780000c80000c8000000c8c8000000c800005b
:10358800c900000088c5000000880000c5000000d0
:1035980008c7000000080000c30000001cc30000aa
:1035a800003e0000f20300000000000000000000e0
:1035b8000000000000000000000000000000000003
:1035c80000000000000000000000000000000000f3
:1035d80000000000000000000000000000000000e3
:1035e80000000000000000000000000000f80000db
:1035f80000860000018600000186000001f000003e
:10360800018c0000018600000183000001c6000053
:10361800053e00000300000000000000000000005c
:103628000000000000000000000000000000000092
:103638000000000000000000000000000000000082
:103648000000000000000000000000000000000072
:103658000000000000ff0000018c0000010c0000c9
:10366800018c0000017c0000008c0000030c0000ad
:10367800030c000003ff0000010000000000000030
:103688000000000000000000000000000000000032
:103698000000000000000000000000000000000022
:1036a8000000000000000000000000000000000012
:1036b800000000000000000000fc0000039800006b
:1036c80001880000018800000188000001880000ce
:1036d800018400000184000001ff000003030000d2
:1036e80003010000020100000200000000000000c9
:1036f80000000000000000000000000000000000c2
:1037080000000000000000000000000000000000b1
:1037180000000000000000000000000000ff0000a2
:103728000f0c0000038c000003cc0000036c0000a9
:10373800033c0000031c0000030c000003ff000012
:103748000f00000000000000000000000000000062
:103758000000000000000000000000000000000061
:1037680000000000000000000000000000980000b9
:103778000198000001f000000000000000000000b7
:1037880000ff00000f0c0000038c000003cc0000b9
:10379800036c0000033c0000031c0000030c000045
:1037a80003ff00000f000000000000000000000000
:1037b8000000000000000000000000000000000001
:1037c80000000000000000000000000000000000f1
:1037d80000000000000000000000000000000000e1
:1037e80000ef0000009c0000010c0000030c00002a
:1037f800030c0000030c0000030c0000030c000085
:10380800039c000001ec0000000c0000000c00000c
:10381800000c0000001f0000000000000000000075
:103828000000000000000000000000000000000090
:103838000000000000000000000000000000000080
:103848000000000000f00000008c000001c400002f
:1038580001860000010600000006000000060000c6
:1038680000060000018c0000017800000000000044
:103878000000000000000000000000000000000040
:103888000000000000000000000000000000000030
:103898000000000000000000000000000000000020
:1038a80000000000000000000000000000fe000012
:1038b8000133000003310000023100000230000033
:1038c80000300000003000000030000000fc000064
:1038d80000000000000000000000000000000000e0
:1038e80000000000000000000000000000000000d0
:1038f80000000000000000000000000000000000c0
:1039080000000000000000000000000000000000af
:1039180000cf000003840000018c0000008c000030
:10392800004800000058000000300000003000008f
:10393800003000000010000000130000000b000021
:103948000007000000000000000000000000000068
:10395800200000002400000016000000071c0000e2
:10396800000000001532000000000000157400007f
:103978000000000015b600000000000015f8000067
:103988000000000000000000001c00001c1c0000db
:103998001c1c0000181800000c0c00000c0c000087
:1039a80000000000001c00001c00000000000000d7
:1039b80000000000000000006300000000ce0000ce
:1039c80001700000c600000030c600000030000092
:1039d800c600000030c6000006fe0000ff0b000015
:1039e80030c6000000300000c600000030c60000ed
:1039f80000300000c600000030c6000000300000a3
:103a0800fe00000030c6000000300000000000008a
:103a1800300000000030000000070000f8ff000040
:103a2800010000000000000000000000000000008d
:103a38000000000000000000006000000c00000012
:103a4800e01c0000006000000c00000060060000a0
:103a580000300000060e000030fe0000077800006d
:103a6800330300002cb1000001ac0000210000006d
:103a780026ac000000360000a60100003036000029
:103a88000330000033060000303300000eb00000a1
:103a9800310c0000b030000006300000300000009b
:103aa800303e000000300000180000000000000058
:103ab800000000000000000000000000006000009e
:103ac800000000007000000007300000ff07000041
:103ad8003080000001b60000c1000000fc63000057
:103ae80000b00000e10000009861000000980000ac
:103af80061060000d8fe00000fd80000600000003a
:103b08008c60000000b8000060000000e060000069
:103b180000b000006100000098610000008c000007
:103b2800630000000678000000000000300000007c
:103b3800000000000000000000000000000000007d
:103b48000018000080010000f0ff000003300000b2
:103b5800860100003086000001f00000ff0100002f
:103b6800308600000130000086010000f0ff0000f0
:103b780001000000970000008031000000c0000034
:103b8800e0000000e07100000fb8000033060000fc
:103b98008e3100000080000031000000c0300000bd
:103ba80000e000003000000030300000001c000081
:103bb80030000000000000000000000000000000cd
:103bc800000000002000000028000000190000008c
:103bd800082c00000000000017450000000000004d
:103be800179000000000000017db00000000000034
:103bf80017260000010000001771000001000000f6
:103c080017bc0000010000001707000002000000b8
:103c18001752000002000000000000000000000031
:103c280018180000181800001818000018180000cc
:103c38001818000018180000180000000000000004
:103c48003c1c000000000000000000000000000014
:103c5800000000000000000000000000000000005c
:103c680000000000000000000000000000600000ec
:103c780000000000c0ff000001000000300000004c
:103c880000180000000000000e0000000003000003
:103c980000000000000000000000000000c000005c
:103ca800000000006000000000600000000000004c
:103cb800600000000060000000000000c0ff00007d
:103cc800010000001e0300000000000000000000ca
:103cd80000000000000000000000000000000000dc
:103ce80000000000000000000000000000000000cc
:103cf800000000000000000000000000008000003c
:103d08000700000000060000000000000e00000090
:103d180000ec0000000000003c000000001e000055
:103d280000e000001b000000003000000000000060
:103d380020000000006c000000800000f700000078
:103d4800c0c0000000e000000000000060000000ab
:103d580000c0000000000000c0010000008000005a
:103d68007f000000000000000000000000000000cc
:103d7800000000000000000000000000000000003b
:103d8800000000000000000000000000000000002b
:103d980003000000000e0000000000000e000000fc
:103da80000e60000003000003e000000e0070000d0
:103db8000000000003000000000300000080000075
:103dc800f1000000809d0000018000000703000052
:103dd800c001000003800000010300000000000093
:103de800030000008003000000c000000100000084
:103df800e0000000803f000000000000000000001c
:103e080000000000000000000000000000000000aa
:103e1800000000000000000000000000000000009a
:103e28000000000000060000000000000c00000078
:103e380000060000003000003e000000e00f000017
:103e480000000000e3030000808100000f800000f4
:103e5800e1000000c060000000c000006000000039
:103e6800606000000060000060000000307e00001c
:103e780000b00000e30100008061000003000000c2
:103e880073030000003e0000000000000000000076
:103e9800000000000000000000000000000000001a
:103ea800000000000000000000000000000000000a
:103eb80000000000000000000000000000000000fa
:103ec800700000000060000000000000e0de00005c
:103ed80007600000700000003000000000300000a3
:103ee800000000003000000000300000000000006a
:103ef8008c000000006c0000000000006c06000050
:103f0800007c0000060000003c0c000000300000af
:103f1800f80700003000000000000000000000006a
:103f28000000000000000000000000000000000089
:103f38000000000000000000000000000000000079
:103f48000000000000000000000000000000000069
:103f580000000000000000000000000030f0000039
:103f680000600000c001000060c0000000600000a8
:103f7800c006000030f7000001300000dc0000003f
:103f880030c0000000300000c000000018c0000071
:103f980000d80000c000000058c000000038000031
:103fa800fc00000038c7000007380000c30e0000fe
:103fb80030fe00000c0000000000000000000000bf
:103fc80000000000000000000000000000000000e9
:103fd80000000000000000000000000000000000d9
:103fe800000000000000000030000000c078000061
:103ff800008000002f0000000038000000000000d2
:104008001800000000d80000000000008c03000029
:10401800000c00000300000006030000e07f000021
:1040280001300000c3010000b8c10000079800007b
:10403800c00e0000d86000001838000030000000f2
:10404800001c000000000000070000000000000045
:104058000000000000000000000000000000000058
:104068000000000000000000000000000000000048
:104078000000000000000000000000000003000035
:10408800000000000e000000000c0000000000000e
:104098000600000000070000000000000300000008
:1040a800800100000080000001000000c01c00002a
:1040b80000e000003b000000e03000000c70000051
:1040c800300c000030180000063800001806000008
:1040d8001818000003180000b8010000186000005c
:1040e80000000000000000000000000000000000c8
:1040f80000000000000000000000000000000000b8
:10410800200000002b000000170000000538000008
:1041180000000000064f00000000000013660000c9
:104128000000000013ab00000000000013f00000c6
:10413800000000001335000001000000137a0000a1
:104148000100000013bf000001000000130400007c
:10415800020000001349000002000000138e000056
:104168000200000013d3000002000000000000005d
:1041780000000000000e00000e0e00000e0e0000f1
:104188000e0e000006060000000000000e0e0000e3
:104198000000000000000000000000000000000017
:1041a8000000000000000000000000000000000007
:1041b8000000000000000000000e00000e000000db
:1041c80000000000000000000000000000000000e7
:1041d80000000000000000000000000000000000d7
:1041e80000f0000000000000de00000000d8000021
:1041f80000000000d8000000fcdb00000080000088
:10420800df00000080d9000000c00000d9000000d5
:10421800c0d8000000600000df00000030d80000b7
:1042280000300000d80000001cd80000000000008a
:10423800d800000000d8000000000000c000000006
:1042480000c00000000000000000000000000000a6
:104258000000000000000000000000000000000056
:104268000000000000000000000000003000000016
:1042780000e00000000c0000c000000038c0000092
:1042880000300000fc00000030c0000000300000da
:10429800c6000000b0fb000000f00000c0000000f5
:1042a80000c0000000000000d8000000007e0000f0
:1042b80000000000e300000000c300000000000050
:1042c800e7000000003e00000000000000000000c1
:1042d80000000000000000000000000000000000d6
:1042e80000000000000000000000000000000000c6
:1042f800000000000070000000000000c000000086
:1043080000c0000000f80000c700000000c3000063
:1043180000000000c300000000c3000000f8000017
:10432800ff00000030c0000000300000c0000000a6
:1043380030ce000000f00000c300000000c0000004
:1043480000000000c000000000c0000000000000e5
:10435800c000000000c000000000000000000000d5
:104368000000000000000000000000000000000045
:104378000000000000000000000000000000000035
:10438800300000007078000000600000600000004d
:10439800e07f000000600000600000006060000036
:1043a80000e000007f0000006060000000000000e6
:1043b80000000000feff00000300000006000000ef
:1043c800780600000060000006000000600600009b
:1043d8000060000000000000c07f00000000000036
:1043e80000000000000000000000000000000000c5
:1043f80000000000000000000000000000000000b5
:10440800000000000000000000e0000000000000c4
:10441800ce00000000d8000000e00000d800000036
:10442800c0d9000000c00000d8000000e0d800009b
:1044380000e00000de000000b0d900000018000015
:10444800db0000000cdb000000060000d8000000c4
:1044580000d8000000000000d800000000d80000cc
:1044680000000000d800000000c0000000000000ac
:104478000000000000000000000000000000000034
:104488000000000000000000000000000000000024
:1044980000000000380000000060000000c00000bc
:1044a80060000000e06100000038000067000000c4
:1044b80018660000001800006600000038e30000dd
:1044c80007f000006100000000600000000000002c
:1044d80060000000e060000000c000006000000014
:1044e800c000000000c000000000000080ff0000c5
:1044f80000000000000000000000000000000000b4
:1045080000000000000000000000000000000000a3
:104518000000000000000000000000000030000063
:1045280000000000e000000000c0000000c0000023
:10453800c0000000e0c1000000380000fb000000df
:104548000cc60000000c0000c60000000cc60000ed
:1045580000180000fb000000f0c10000000000008f
:10456800c000000000c0000000000000c000000003
:1045780000c0000000000000c000000000c00000f3
:104588000000000000000000000000000000000023
:104598000000000000000000000000000000000013
:1045a80000000000000000000000000000070000fc
:1045b800008000000f000000c0180000006000002c
:1045c8003000000060300000006000003000000093
:1045d800c0180000008000000f000000e01c000070
:1045e80000c00000190000008019000000800000d1
:1045f80019000000feff000001000000000000009c
:1046080000000000000000000000000000000000a2
:104618000000000000000000000000000000000092
:104628000000000000000000000000000000000082
:104638000070000000000000c000000080c1000001
:1046480000e00000c300000030c7000000180000b0
:10465800c600000018c6000000380000c7000000af
:10466800e0c3000000000000c000000000c000001f
:1046780000c00000c000000080c1000000800000f1
:10468800010000008001000000800000ff01000020
:104698000000000000000000000000000000000012
:1046a8000000000000000000000000000000000002
:1046b80000000000000000000000000018000000da
:1046c8000070000000f000006300000000600000bf
:1046d8000000000040000000fe5f000000800000b5
:1046e80041000000e063000000300000e607000021
:1046f800186600000018000066000000306700001f
:1047080000e00000630000000060000000000000fe
:104718006000000000600000000000006000000071
:104728000000000000000000000000000001000080
:1047380020000000290000001f0000008000000089
:10474800000000000400000000000000000000005d
:1047580000000000800000000000000008000000c9
:104768000100000005000000000000009f0000009c
:1047780000000000070000000b000000000000001f
:1047880000000000dd000000000000000c00000038
:104798000c00000000000000000000001b010000e9
:1047a800000000000b0000000b00000000000000eb
:1047b8000000000059010000000000000b0000008c
:1047c8000b0000000000000000000000970100003e
:1047d800000000000b0000000b00000000000000bb
:1047e80000000000d50100000000000000000000eb
:1047f80007000000f4ff000000000000f4010000c2
:104808000000000008000000080000000000000090
:104818000000000013020000000000000900000072
:104828000a00000000000000000000000000000076
:10483800000000000000000000000000010100006e
:104848000101000001010000010100000100000059
:10485800000100000000000000000000000000004f
:104868000000000000000000000000000000000040
:1048780000f00000008800000104000002040000ad
:104888000404000000040000007f0000000800008d
:1048980000080000000800000008000000080000f0
:1048a80000080000000800000008000000080000e0
:1048b80000080000000800000000000000000000e0
:1048c80000000000000000000000000000000000e0
:1048d80000000000000000000000000000000000d0
:1048e80000000000000000000000000000000000c0
:1048f80000000000000000000000000000000000b0
:104908000000000000ff00000f0800000108000080
:1049180001080000010800000108000001fe000075
:10492800010c000001080000010000000100000067
:10493800010000000100000000000000000000006d
:10494800000000000000000000000000000000005f
:10495800000000000000000000000000000000004f
:10496800000000000000000000000000000000003f
:10497800000000000000000000000000000000002f
:1049880000ff000007800000008000000080000099
:1049980000fe00000087000000860000008600007e
:1049a80000840000008000000080000000800000fb
:1049b80000000000000000000000000000000000ef
:1049c80000000000000000000000000000000000df
:1049d80000000000000000000000000000000000cf
:1049e80000000000000000000000000000000000bf
:1049f80000000000000000000000000000ff0000b0
:104a080007800000008000000080000000fe000019
:104a18000083000000810000008100000082000087
:104a280000860000008c00000088000000100000d4
:104a3800000000000000000000000000000000006e
:104a4800000000000000000000000000000000005e
:104a5800000000000000000000000000000000004e
:104a6800000000000000000000000000000000003e
:104a7800000000000000000000ff000007800000a8
:104a88000080000000bc000000c20000008100009f
:104a980000c1000000f2000000bc0000008000001f
:104aa80000800000008000000000000000000000fe
:104ab80000000000000000000000000000000000ee
:104ac80000000000000000000000000000000000de
:104ad8000000000000000000000000000e30000090
:104ae800204000000000000000000000000000005e
:104af80000000000000000000000000000000000ae
:104b0800000000000000000000000000000000009d
:104b1800000000000000000000000000000000008d
:104b280000000000ff08000018180000081f00001f
:104b3800ff060000040800001020000040000000ec
:104b4800000000000000000000000000000000005d
:104b5800000000000000000000000000000000004d
:104b6800000000000000000000000000000000003d
:104b780000ff00000328000000440000004400007b
:104b880000440000006c00000058000000240000f1
:104b9800002c000000180000002000000040000069
:104ba80000000000000000000000000000000000fd
:104bb80000000000000000000000000000000000ed
:104bc80000000000000000000000000000000000dd
:104bd80000010000200000002a0000001d00000065
:104be8008c00000000000000080000000200000027
:104bf8000400000000000000a90000000000000000
:104c0800110000000e00000001000000000000007c
:104c1800e300000000000000120000001000000087
:104c280001000000000000001d010000000000005d
:104c3800120000000e00000001000000000000004b
:104c48005701000000000000110000000d000000e6
:104c580001000000000000009101000000000000b9
:104c6800100000000c00000001000000000000001f
:104c7800cb01000000000000110000000e00000041
:104c88000100000000000000050200000000000014
:104c9800000000000e000000f6ff0000fcff00000e
:104ca80047020000000000000e0000000b0000009a
:104cb8000100000000000000810200000000000068
:104cc800020000000e000000f1ff0000faff0000e3
:104cd800c7020000000000000a0000000c000000ed
:104ce800ffff0000f8ff00000003000003030000be
:104cf8000303000003030000030300000303000094
:104d08000303000003030000000000000303000089
:104d18000303000000000000000000000000000085
:104d2800000000000000000000000000000000007b
:104d38000000000000e0000007f800000f1c000061
:104d48001c06000038190000307000003018000000
:104d5800300c0000300c0000300c0000300c00005b
:104d6800300c0000300c0000300c0000300c00004b
:104d7800300c0000300c0000300000000000000083
:104d8800000000000000000000000000000000001b
:104d9800000000000000000000000000000000000b
:104da8000000000000000000403c0000e0fe0000a1
:104db80070df0000389300001f9100001f9300006f
:104dc80039df000030ce00003060000030600000a5
:104dd800306000003060000030600000306000008b
:104de8003060000030f000003ff000001f000000bd
:104df80000000000000000000000000000000000ab
:104e0800000000000000000000000000000000009a
:104e180000000000000000000000000000f000009a
:104e280007fc00000f1e00001c06000038c7000029
:104e380031e30000336300003223000032630000d6
:104e480033c600003186000030cc00003078000006
:104e58003078000030380000303000003038000072
:104e6800300000000000000000000000000000000a
:104e7800000000000000000000000000000000002a
:104e8800000000000000000000000000000000001a
:104e980000f0000003fc0000070e00000e030000f5
:104ea8001c0100001878000018fc000018cc000055
:104eb800198600001b0600001b0600001e3e0000ad
:104ec8001e7e00001c4600001c4600001c7c0000e2
:104ed8001838000018000000000000000000000062
:104ee80000000000000000000000000000000000ba
:104ef80000000000000000000000000000000000aa
:104f08000000000000f8000001fc0000030e000093
:104f1800070300000e0100000c0000000c00000058
:104f28000c0000000c0000000c0000000c00000049
:104f38000c8000000fc000000fc000000cc0000073
:104f48000c8000000f800000070000000000000037
:104f58000000000000000000000000000000000049
:104f68000000000000000000000000000000000039
:104f7800000000000000000010f0000039fc0000f4
:104f88001b0e00000e0300001e0200001a7800002d
:104f980019fc0000198c0000190600001b0600000f
:104fa8001b0600001e3e00001e7e00001c4600007e
:104fb8001c460000187c000018380000180000008b
:104fc80000000000000000000000000000000000d9
:104fd8000000000000000000000e0000101b000090
:104fe80030310000381300001c1f00000efe0000c6
:104ff80007f80000010000000000000000000000a9
:105008000000000000000000000000000000000098
:105018000000000000000000000000000000000088
:105028000000000000000000000000000000000078
:105038000000000000000000000000000000000068
:105048000000000000000000000000000000000058
:105058000000000000000000000000000000000048
:105068000000000000000000000000000000000038
:1050780000f8000000fe00000386000003030000a3
:1050880006010000060000000600000006000000ff
:1050980006000000060000000600000006000000f0
:1050a80006000000060000000600000006000000e0
:1050b80006000000060000000000000000000000dc
:1050c80000000000000000000000000000000000d8
:1050d800000000001800000018f0000019fc000093
:1050e8001b0e00001efe00001dff00001f00000038
:1050f8001c0000002000000000000000000000006c
:105108000000000000000000000000000000000097
:105118000000000000000000000000000000000087
:105128000000000000000000000000000000000077
:105138000000000000000000000000000000000067
:105148000000000000000000000000000000000057
:1051580000000000000000000000000000780000cf
:1051680000fe0000078700000f1e00000038000046
:105178000070000000600000006000000060000097
:105188000060000000600000006000000060000097
:105198000060000000600000006000000060000087
:1051a8000060000000600000006000000060000077
:1051b80000600000006000000060000000e00000e7
:1051c80003e00000076000000660000006e0000041
:1051d80007c00000030000000000000000000000fd
:1051e80000000000000000000000000000000000b7
:1051f8000000000022000000260000002900000036
:1052080024000000250000002a0000002b000000f8
:10521800250000002c0000002800000020000000ed
:1052280023000000270000002900000020000000e3
:105238002100000000000000220000002300000000
:1052480021000000240000002000000000000000f1
:1052580027000000240000002200000028000000b1
:1052680021000000280000002500000023000000a5
:1052780026000000200000000000000027000000b9
:10528800230000002b000000260000002900000079
:105298002100000026000000220000002a00000073
:1052a8002800000024000000250000002000000065
:1052b8000000000024000000230000002800000077
:1052c800250000002000000027000000200000004a
:1052d800220000002600000029000000260000002f
:1052e800210000000000000026000000250000004a
:1052f800270000002600000023000000290000000d
:105308002200000028000000250000002a000000fc
:105318002400000021000000200000000000000020
:1053280000000000fc99000000000000aa9c00009a
:1053380000000000e49d00000000000082a00000c2
:10534800000000009aa3000000000000eca5000087
:1053580000000000200000007e0000001200000095
:105368000384000001000000049600000100000012
:1053780006a800000100000007ba000001000000b4
:1053880007cc0000010000000bde00000100000057
:105398000a020000020000000426000002000000cb
:1053a8000538000002000000054a00000200000065
:1053b800075c000002000000066e0000020000000a
:1053c80003800000020000000592000002000000b7
:1053d80003a400000200000007b60000020000005d
:1053e80007c800000200000007da00000200000001
:1053f80007ec00000200000007fe000002000000a9
:10540800071000000300000007220000030000004e
:1054180007340000030000000746000003000000f6
:105428000758000003000000076a0000030000009e
:10543800037c000003000000038e0000030000004e
:1054480007a000000300000007b2000003000000ee
:1054580007c400000300000007d600000300000096
:105468000de8000003000000090c00000400000023
:105478000930000004000000085400000400000087
:105488000966000004000000078a0000040000000c
:10549800079c00000400000009ae000004000000a2
:1054a8000ad200000400000004f600000400000016
:1054b8000508000005000000091a000005000000aa
:1054c800073e0000050000000c5000000500000029
:1054d8000a7400000500000009980000050000009b
:1054e80008bc00000500000009ce0000050000000f
:1054f80008f2000005000000070400000600000094
:1055080008160000060000000a2800000600000037
:105518000a4c0000060000000d70000006000000a4
:10552800099400000600000009b800000600000009
:1055380008dc00000600000005ee00000600000080
:105548000700000007000000051200000700000027
:1055580007240000070000000736000007000000cd
:105568000548000007000000075a00000700000077
:10557800086c000007000000077e0000070000001c
:10558800089000000700000007a2000007000000c4
:1055980006b400000700000007c60000070000006e
:1055a80008d800000700000004ea00000700000017
:1055b80004fc000007000000080e000008000000be
:1055c80004200000080000000b3200000800000062
:1055d80008560000080000000868000008000000e5
:1055e800087a000008000000088c0000080000008d
:1055f800069e00000800000006b000000800000039
:1056080005c200000800000008d4000008000000df
:1056180007e60000080000000bf800000800000082
:10562800081c000009000000072e00000900000007
:1056380007400000090000000552000009000000b2
:10564800036400000900000005760000090000005e
:1056580007880000090000000000000000000000aa
:105668000000000000000000000000000000000032
:105678000000000000000000000000000000000022
:1056880000060000060600000606000004020000ee
:1056980002000000020200000000000000000000fc
:1056a8000000000000160000121200001212000094
:1056b80000000000000000000000000000000000e2
:1056c800000000000000000000000000006800006a
:1056d800287e0000241400003e1400000a00000088
:1056e80000000000000000000000000000000000b2
:1056f800083c00002a0a00000e180000282a0000b2
:105708002a1c000008000000000000000000000043
:105718000000000000000000000000000000000081
:105728000c0100009200000052000000320000004e
:10573800ac010000500200004802000044020000d2
:1057480086010000000000000000000000000000ca
:105758000000000000000000000000000000000041
:10576800380000002400000024000000240000008d
:105778001c000000cc0300008a000000920000001a
:10578800a2000000c2000000bc01000000000000f0
:105798000000000000000000000000000000000001
:1057a80000060000020200000202000000000000e3
:1057b80000000000000000000000000000000000e1
:1057c80000000000080400000402000002020000bb
:1057d80002020000020200000204000004080000a7
:1057e800000000000000000002040000040800009f
:1057f8000808000008080000080800000804000065
:105808000402000000000000000000000008000082
:105818002a1c00001c2a00000800000000000000ec
:105828000000000000000000000000000000000070
:10583800000000000000000000080000083e000012
:105848000808000000000000000000000000000040
:105858000000000000000000000000000000000040
:105868000000000000000000040600000402000020
:105878000000000000000000000000000000000020
:1058880000000000000000001f00000000000000f1
:105898000000000000000000000000000000000000
:1058a80000000000000000000000000000000000f0
:1058b80002020000000000000000000000000000dc
:1058c80060200000201000001010000008080000f0
:1058d80004040000040200000203000000000000ad
:1058e8000000000000000000001c00001222000060
:1058f8002222000022220000141c000000000000e8
:105908000000000000000000000000000008000087
:105918000e0800000808000008080000083e000003
:10592800000000000000000000000000000000006f
:1059380000380000242200002010000008040000a5
:10594800223e0000000000000000000000000000ef
:10595800000000000038000024240000103c000073
:105968004040000044380000000000000000000033
:1059780000000000000000000010000018140000e3
:1059880014120000123f0000103c0000000000004c
:10599800000000000000000000000000003c0000c3
:1059a800040200001e22000020200000221c00002b
:1059b80000000000000000000000000000000000df
:1059c800003000000c0400001a260000222200000b
:1059d800221c000000000000000000000000000081
:1059e80000000000003e000022200000101000000f
:1059f800080800000c04000000000000000000007f
:105a08000000000000000000001c0000222200002e
:105a1800161c000022220000221c000000000000ca
:105a2800000000000000000000000000001c000052
:105a380032220000222200003c100000100e00005c
:105a4800000000000000000000000000000000004e
:105a5800000000000002000002000000000000003a
:105a6800020200000000000000000000000000002a
:105a7800000000000000000000020000020000001a
:105a880000000000040600000402000000000000fe
:105a980000000000000000000000000000200000de
:105aa8001c0200000d300000000000000000000093
:105ab80000000000000000000000000000000000de
:105ac800000000003e0100003f0000000000000050
:105ad80000000000000000000000000000000000be
:105ae80000000000000300001c2000001c03000050
:105af800000000000000000000000000000000009e
:105b0800001c0000222200002010000010080000e5
:105b1800080800000808000000000000000000005d
:105b2800000000000000000000000000000000006d
:105b3800e00100001806000004040000e20800006c
:105b48009a0800008a0800008a0800008a080000f5
:105b58008a040000f4030000040000001806000096
:105b6800f00100000000000000000000000000003c
:105b7800000000000000000000000000100000000d
:105b88001000000028000000280000002400000089
:105b98007c00000044000000c2000000c7010000b3
:105ba80000000000000000000000000000000000ed
:105bb80000000000000000000000000000000000dd
:105bc800000000003e000000440000004400000007
:105bd8007c000000c4000000840000008400000075
:105be800840000007e0000000000000000000000ab
:105bf800000000000000000000000000000000009d
:105c080000780000440200000202000002020000c6
:105c1800c438000000000000000000000000000080
:105c2800000000000000000000000000000000006c
:105c38003f000000420000008200000082000000d7
:105c48008200000082000000820000004200000084
:105c58003f000000000000000000000000000000fd
:105c6800000000000000000000000000007e0000ae
:105c7800440400003c04000004040000447e0000ca
:105c8800000000000000000000000000000000000c
:105c9800007e0000440400003c04000004040000ee
:105ca800040e0000000000000000000000000000da
:105cb80000000000000000000000000000000000dc
:105cc800f00000004c00000002000000020000008c
:105cd800e201000082000000820000008400000051
:105ce8007800000000000000000000000000000034
:105cf800000000000000000000000000000000009c
:105d08000000000000000000c70100008200000041
:105d18008200000082000000fe00000082000000f7
:105d28008200000082000000c7010000000000009f
:105d3800000000000000000000000000000000005b
:105d480000000000000e000004040000040400002d
:105d580004040000040e0000000000000000000021
:105d68000000000000000000001c000008080000ff
:105d780008080000080800000808000008040000df
:105d88000300000000000000000000000000000008
:105d98000000000000000000ee00000024000000e9
:105da800140000000c0000000c00000014000000ab
:105db8003400000064000000ce0100000000000074
:105dc80000000000000000000000000000000000cb
:105dd80000000000000e000004040000040400009d
:105de80004040000447e00000000000000000000e1
:105df800000000000000000000000000000000009b
:105e08000000000006060000040300000a0300006a
:105e18008a02000092020000920200006202000062
:105e280062020000270f00000000000000000000d0
:105e3800000000000000000000000000000000005a
:105e480000000000000000000000000083030000c4
:105e5800060100000a0100001a01000032010000da
:105e680062010000c2010000820100000701000079
:105e7800000000000000000000000000000000001a
:105e8800000000000000000000000000000000000a
:105e980000000000380000004400000082000000fc
:105ea80082000000820000008200000082000000e2
:105eb800440000003800000000000000000000005e
:105ec80000000000000000000000000000000000ca
:105ed800003f000042420000423a00000602000073
:105ee80002070000000000000000000000000000a1
:105ef800000000000000000000000000000000009a
:105f08003800000044000000820000008200000009
:105f180082000000820000008200000044000000af
:105f2800380000006001000080010000000000004f
:105f3800000000000000000000000000003f00001a
:105f480042420000423e00001a32000062c70000d0
:105f58000000000000000000000000000000000039
:105f6800001c00003202000004180000202200007b
:105f7800221e0000000000000000000000000000d9
:105f88000000000000fe0000921000001010000049
:105f98001010000010380000000000000000000091
:105fa80000000000000000000000000000000000e9
:105fb80000000000c701000082000000820000000d
:105fc80082000000820000008200000082000000c1
:105fd800460000003c000000000000000000000037
:105fe80000000000000000000000000000000000a9
:105ff800000000000000000000000000c7010000d1
:1060080086000000840000004400000048000000f2
:1060180048000000380000003000000010000000b8
:106028000000000000000000000000000000000068
:106038000000000000000000000000000000000058
:1060480000000000470e0000420400006604000043
:10605800a404000094040000940300001c03000042
:106068000803000008030000000000000000000012
:106078000000000000000000000000000000000018
:10608800000000000000000000000000ef01000018
:10609800460000006c0000003800000010000000fe
:1060a8002800000044000000c4000000cf010000e8
:1060b80000000000000000000000000000000000d8
:1060c80000000000000000000000000000000000c8
:1060d80000000000c7010000440000002c00000080
:1060e8002800000010000000100000001000000050
:1060f8001000000038000000000000000000000050
:106108000000000000000000000000000000000087
:10611800007e000022200000100800000844000053
:10612800427f0000000000000000000000000000a6
:106138000e0200000202000002020000020200003b
:106148000202000002020000020200000e0000002d
:106158000000000003020000020400000404000024
:106168000808000010100000102000002060000047
:1061780000000000000000000e08000008080000f1
:1061880008080000080800000808000008080000c7
:10619800080800000e0000000000000000080000d1
:1061a8001814000014220000226200000000000001
:1061b80000000000000000000000000000000000d7
:1061c80000000000000000000000000000000000c7
:1061d8000000000000000000007f00000000000038
:1061e800000000000003000002040000000000009e
:1061f8000000000000000000000000000000000097
:106208000000000000000000000000000000000086
:1062180000380000242200003c220000227e0000fa
:106228000000000000000000000000000003000063
:1062380002020000023a00006642000042420000ea
:10624800221c000000000000000000000000000008
:1062580000000000000000000038000026020000d6
:1062680002020000261c00000000000000000000e0
:10627800000000000060000040400000407800007e
:10628800464200004242000066dc000000000000b8
:1062980000000000000000000000000000000000f6
:1062a800001c0000262200003e020000221c000004
:1062b80000000000000000000000000000300000a6
:1062c8000c040000041e0000040400000404000084
:1062d800041e000000000000000000000000000094
:1062e8000000000000000000007e000021210000e6
:1062f800231e0000061e000062410000611e00000f
:10630800000000000003000002020000027200000a
:106318004e4200004242000042e700000000000038
:10632800000000000000000000000000040400005d
:10633800000600000404000004040000040e00002d
:106348000000000000000000000000000000000045
:1063580008080000000c00000808000008080000f9
:1063680008080000080800000403000000000000fe
:10637800000300000202000002720000120e00007a
:106388000e0a000012670000000000000000000074
:1063980000000000000600000404000004040000df
:1063a8000404000004040000040e000000000000c3
:1063b80000000000000000000000000000000000d5
:1063c80000000000000000000000000000000000c5
:1063d800bb03000066020000220200002202000047
:1063e80022020000220200007707000000000000df
:1063f8000000000000000000000000000000000095
:106408000000000000000000007200004f42000081
:106418004242000042e700000000000000000000c7
:10642800000000000000000000000000003800002c
:106438006642000042420000261c000000000000e6
:106448000000000000000000000000000000000044
:10645800003b00006642000042420000221e00008d
:106468000202000002070000000000000000000017
:106478000000000000780000444200004242000092
:10648800665c00004040000040e0000000000000a2
:106498000000000000000000001b000016020000c1
:1064a80002020000020700000000000000000000d7
:1064b800000000000000000000000000000c0000c8
:1064c8001a0200000c100000120e0000000000006c
:1064d80000000000000000000000000000020000b2
:1064e800021f00000202000002020000021e00005b
:1064f8000000000000000000000000000000000094
:106508000000000000630000424200004242000018
:1065180062dc000000000000000000000000000035
:1065280000000000000000000067000022240000b6
:10653800141c000018080000000000000000000003
:106548000000000000000000000000000000000043
:106558000000000000000000000000002703000009
:106568002201000072010000540100004c010000eb
:106578008c000000880000000000000000000000ff
:106588000000000000000000000000000000000003
:106598000000000000770000261c0000181400000e
:1065a800227700000000000000000000000000004a
:1065b8000000000000000000006700002224000026
:1065c8002414000018080000080800000403000054
:1065d800000000000000000000000000003e000075
:1065e8001208000008040000223e0000000000001d
:1065f800000000000000000008040000040400007f
:1066080008080000040e0000080800000404000048
:106618000408000000000000000000000202000062
:106628000202000002020000020200000202000052
:106638000202000002020000020000000000000048
:10664800020400000404000002020000060c00001e
:106658000202000004040000040200000000000020
:106668000000000000000000000000000000000022
:106678004c3b00000100000000000000000000008a
:106688000000000000000000aca9000000000000ad
:10669800f436000000000000000000007a5f0000ef
:1066a8000000000000000000c075000000000000ad
:1066b80070000000720000006f0000006d00000014
:1066c800700000007400000020000000610000005d
:1066d800700000007000000065000000610000000c
:1066e80072000000730000002e000000000000008f
:1066f800750000006e0000007400000069000000d2
:106708006c00000020000000740000006800000019
:106718006500000020000000630000006100000028
:106728006c000000690000006200000072000000b8
:106738006100000074000000690000006f000000a4
:106748006e000000000000007000000072000000f1
:10675800650000007300000073000000690000007d
:106768006e00000067000000200000006f000000bd
:106778006e000000200000007400000068000000a7
:1067880065000000200000007300000063000000a6
:106798007200000065000000650000006500000050
:1067a8006e0000000000000072000000650000009c
:1067b8007300000065000000740000002000000065
:1067c8007400000068000000650000002000000060
:1067d800620000006f00000061000000720000000d
:1067e800640000002000000077000000680000003e
:1067f800690000006c000000650000000000000057
:10680800540000006f00000020000000520000004b
:106818004500000050000000450000004100000055
:106828005400000020000000630000006100000028
:106838006c000000690000006200000072000000a7
:106848006100000074000000690000006f00000093
:106858006e0000002c000000000000006300000033
:106868006f0000006e000000740000006900000066
:106878006e00000075000000650000002e0000009a
:1068880000000000540000006f00000075000000c8
:106898006300000068000000200000007300000092
:1068a8006300000072000000650000006500000041
:1068b8006e00000020000000740000006f0000005f
:1068c8000000000073000000630000007200000078
:1068d80065000000650000006e0000002000000058
:1068e80063000000610000006c0000006900000007
:1068f80062000000720000006100000074000000e7
:10690800690000006f0000006e0000002e0000000b
:106918000000000050000000650000007200000048
:10692800660000006f000000720000006d000000ab
:10693800690000006e0000006700000020000000f1
:10694800740000006f000000750000006300000084
:1069580068000000000000000001000000010000c5
:106968000001000000010000ff000000ff0000001f
:10697800ff000000fe000000fe000000fd00000017
:10698800fc000000fb000000fa000000f900000015
:10699800f8000000f7000000f6000000f500000015
:1069a800f3000000f2000000f1000000ef0000001a
:1069b800ed000000ec000000ea000000e800000024
:1069c800e6000000e4000000e2000000e000000033
:1069d800de000000db000000d9000000d700000046
:1069e800d4000000d2000000cf000000cc0000005e
:1069f800ca000000c7000000c4000000c100000079
:106a0800be000000bb000000b8000000b500000098
:106a1800b2000000af000000ab000000a8000000ba
:106a2800a5000000a10000009e0000009a000000e0
:106a380096000000930000008f0000008b0000000b
:106a48008800000084000000800000007c00000036
:106a58007800000074000000700000006c00000066
:106a68006800000064000000600000005c00000096
:106a780058000000530000004f0000004b000000c9
:106a880047000000420000003e0000003a000000fd
:106a980035000000310000002c0000002800000034
:106aa800240000001f0000001b000000160000006a
:106ab800120000000d0000000900000004000000a2
:106ac8000000000048000000650000006c000000a5
:106ad8006c0000006f00000020000000570000005c
:106ae8006f000000720000006c00000064000000ed
:106af8002100000000000000420000006f000000bc
:106b08006e0000006a0000006f00000075000000c1
:106b180072000000200000004d0000006f0000001f
:106b28006e00000064000000650000002100000005
:106b38000000000048000000610000006c00000038
:106b48006c0000006f0000002000000057000000eb
:106b5800650000006c0000007400000021000000c7
:106b68000000000043000000690000006100000010
:106b78006f000000200000004d0000006f000000c2
:106b88006e000000640000006f000000210000009b
:106b98000000000048000000650000006c000000d4
:106ba8006c0000006f00000020000000570000008b
:106bb8006500000072000000650000006c00000025
:106bc80064000000210000000000000014f1000033
:106bd8005000000072000000650000007300000013
:106be80073000000200000002600000020000000c4
:106bf80052000000650000006c0000006500000005
:106c08006100000073000000650000000000000043
:106c180063000000690000007200000063000000cb
:106c28006c00000065000000000000006f0000001c
:106c38006e000000200000007400000068000000e2
:106c480065000000200000006600000069000000e8
:106c58006c0000006c00000065000000640000008b
:106c68000000000052000000650000006c000000f9
:106c7800650000006100000073000000650000006e
:106c880064000000000000005000000072000000d6
:106c9800650000007300000073000000650000003c
:106ca80064000000000000004200000075000000c1
:106cb80074000000740000006f0000006e00000007
:106cc8002000000032000000000000004400000026
:106cd800690000007300000061000000620000000d
:106ce8006c00000065000000640000000000000067
:106cf80031000000320000003300000000000000f6
:106d080031000000320000003300000000000000e5
:106d180031000000320000003300000000000000d5
:106d2800280800002c080000300800003408000083
:106d3800380800003c080000400800004408000033
:106d4800480800004c0800004c0000004500000006
:106d5800460000005400000000000000520000003f
:106d680049000000470000004800000054000000ef
:106d780000000000b02a00003ed70000e900000033
:106d8800ffff0000bbf70000ddae00003e2600005c
:106d98009fb600007ed70000f899000000000000b0
:106da800348d000000000000000000006e98000014
:106db80000000000000000006eb3000000000000aa
:106dc800000000002cb700000000000002000000d6
:106dd80003000000060000000001000001000000a0
:020000040000fa
:106de800001000004800000048000000ffff0000fd
:106df800ffff0000ffff0000ffff0000ffff000093
:106e0800ffff0000ffff0000ffff0000ffff000082
:106e1800ffff0000ffff0000ffff0000ffff000072
:106e2800ffff0000ffff0000ffff0000ffff000062
:1073d800ffff0000ffff0000bdff0000bdff000031
:1073e800ffff0000ffff0000ffff0000ffff00009d
:1073f800ffff0000ffff0000ffff0000ffff00008d
:10740800ffff0000ffff0000ffff0000ffff00007c
:10741800ffff0000ffff0000ffff0000ffff00006c
:10742800ffff0000ffff0000ffff0000ffff00005c
:10743800ffff0000ffff0000ffff0000ffff00004c
:10744800ffff0000ffff0000ffff0000ffff00003c
:10745800ffff0000ffff0000ffff0000ffff00002c
:10746800ffff0000ffff0000ffff0000ffff00001c
:10747800ffff0000ffff0000ffff0000ffff00000c
:10748800ffff0000ffff0000ffff0000ffff0000fc
:10749800ffff0000ffff0000ffff0000ffff0000ec
:1074a800ffff0000ffff0000ffff0000ffff0000dc
:1074b800ffff0000ffff0000ffff0000ffff0000cc
:1074c800ffff0000ffff0000ffff0000ffff0000bc
:1074d800ffff0000ffff0000ffff0000ffff0000ac
:1074e800ffff0000ffff0000ffff0000ffff00009c
:1074f800ffff000009dc0000c0ca0000c0ca00008d
:1075080009dc000090e50000ffff0000ffff00001d
:10751800ffff0000ffff0000ffff0000ffff00006b
:10752800ffff0000ffff0000ffff0000ffff00005b
:10753800ffff0000ffff0000ffff0000ffff00004b
:10754800ffff0000ffff0000ffff0000ffff00003b
:10755800ffff0000ffff0000ffff0000ffff00002b
:10756800ffff0000ffff0000ffff0000ffff00001b
:10757800ffff0000ffff0000ffff0000ffff00000b
:10758800ffff0000ffff0000ffff0000ffff0000fb
:10759800ffff0000ffff0000ffff0000ffff0000eb
:1075a800ffff0000ffff0000ffff0000ffff0000db
:1075b800ffff0000ffff0000ffff0000ffff0000cb
:1075c800ffff0000ffff0000ffff0000ffff0000bb
:1075d800ffff0000ffff0000ffff0000ffff0000ab
:1075e800ffff0000ffff0000ffff0000ffff00009b
:1075f800ffff0000ffff0000ffff0000ffff00008b
:10760800ffff0000ffff0000ffff0000ffff00007a
:10761800b6ee0000c0ca0000c0ca0000c0ca000020
:10762800c0ca0000c0ca000009dc0000bdff00009d
:10763800ffff0000ffff0000ffff0000ffff00004a
:10764800ffff0000ffff0000ffff0000ffff00003a
:10765800ffff0000ffff0000ffff0000ffff00002a
:10766800ffff0000ffff0000ffff0000ffff00001a
:10767800ffff0000ffff0000ffff0000ffff00000a
:10768800ffff0000ffff0000ffff0000ffff0000fa
:10769800ffff0000ffff0000ffff0000ffff0000ea
:1076a800ffff0000ffff0000ffff0000ffff0000da
:1076b800ffff0000ffff0000ffff0000ffff0000ca
:1076c800ffff0000ffff0000ffff0000ffff0000ba
:1076d800ffff0000ffff0000ffff0000ffff0000aa
:1076e800ffff0000ffff0000ffff0000ffff00009a
:1076f800ffff0000ffff0000ffff0000ffff00008a
:10770800ffff0000ffff0000ffff0000ffff000079
:10771800ffff0000ffff0000ffff0000ffff000069
:10772800ffff0000ffff0000ffff0000ffff000059
:1077380009dc0000c0ca0000c0ca0000c0ca0000be
:10774800c0ca0000c0ca0000c0ca0000c0ca000009
:1077580090e50000ffff0000ffff0000ffff0000b2
:10776800ffff0000ffff0000ffff0000ffff000019
:10777800ffff0000ffff0000ffff0000ffff000009
:10778800ffff0000ffff0000ffff0000ffff0000f9
:10779800ffff0000ffff0000ffff0000ffff0000e9
:1077a800ffff0000ffff0000ffff0000ffff0000d9
:1077b800ffff0000ffff0000ffff0000ffff0000c9
:1077c800ffff0000ffff0000ffff0000ffff0000b9
:1077d800ffff0000ffff0000ffff0000ffff0000a9
:1077e800ffff0000ffff0000ffff0000ffff000099
:1077f800ffff0000ffff0000ffff0000ffff000089
:10780800ffff0000ffff0000ffff0000ffff000078
:10781800ffff0000ffff0000ffff0000ffff000068
:10782800ffff0000ffff0000ffff0000ffff000058
:10783800ffff0000ffff0000ffff0000ffff000048
:10784800ffff0000ffff0000ffff000090e50000c1
:10785800c0ca0000c0ca000009dc0000bdff00006b
:10786800cddc000009dc0000c0ca0000c0ca00006e
:10787800c0ca000083cc0000b6ee0000ffff000085
:10788800ffff0000ffff0000ffff0000ffff0000f8
:10789800ffff0000ffff0000ffff0000ffff0000e8
:1078a800ffff0000ffff0000ffff0000ffff0000d8
:1078b800ffff0000ffff0000ffff0000ffff0000c8
:1078c800ffff0000ffff0000ffff0000ffff0000b8
:1078d800ffff0000ffff0000ffff0000ffff0000a8
:1078e800ffff0000ffff0000ffff0000ffff000098
:1078f800ffff0000ffff0000ffff0000ffff000088
:10790800ffff0000ffff0000ffff0000ffff000077
:10791800ffff0000ffff0000ffff0000ffff000067
:10792800ffff0000ffff0000ffff0000ffff000057
:10793800ffff0000ffff0000ffff0000ffff000047
:10794800ffff0000ffff0000ffff0000ffff000037
:10795800ffff0000ffff0000ffff0000ffff000027
:10796800ffff0000ffff0000ffff0000c0ca00008b
:10797800c0ca0000c0ca0000b6ee0000ffff000049
:10798800ffff0000b6ee000009dc0000c0ca0000de
:10799800c0ca0000c0ca0000c0ca000009dc00005c
:1079a8007af70000ffff0000ffff0000ffff000064
:1079b800ffff0000ffff0000ffff0000ffff0000c7
:1079c800ffff0000ffff0000ffff0000ffff0000b7
:1079d800ffff0000ffff0000ffff0000ffff0000a7
:1079e800ffff0000ffff0000ffff0000ffff000097
:1079f800ffff0000ffff0000ffff0000ffff000087
:107a0800ffff0000ffff0000ffff0000ffff000076
:107a1800ffff0000ffff0000ffff0000ffff000066
:107a2800ffff0000ffff0000ffff0000ffff000056
:107a3800ffff0000ffff0000ffff0000ffff000046
:107a4800ffff0000ffff0000ffff0000ffff000036
:107a5800ffff0000ffff0000ffff0000ffff000026
:107a6800ffff0000ffff0000ffff0000ffff000016
:107a7800ffff0000ffff0000ffff0000ffff000006
:107a8800ffff0000ffff0000cddc0000c0ca0000bf
:107a9800c0ca000009dc0000ffff0000ffff000073
:107aa800ffff0000ffff0000ffff0000b6ee000030
:107ab80009dc000009dc0000c0ca0000c0ca0000e0
:107ac800c0ca000090e50000ffff0000ffff0000b3
:107ad800ffff0000ffff0000ffff0000ffff0000a6
:107ae800ffff0000ffff0000ffff0000ffff000096
:107af800ffff0000ffff0000ffff0000ffff000086
:107b0800ffff0000ffff0000ffff0000ffff000075
:107b1800ffff0000ffff0000ffff0000ffff000065
:107b2800ffff0000ffff0000ffff0000ffff000055
:107b3800ffff0000ffff0000ffff0000ffff000045
:107b4800ffff0000ffff00007af700007af700004f
:107b5800b6ee0000b6ee0000bdff0000ffff00001b
:107b6800ffff0000ffff0000ffff0000ffff000015
:107b7800ffff0000ffff0000ffff0000ffff000005
:107b8800ffff0000ffff00007af7000090e500000b
:107b980090e50000cddc000090e5000009dc000065
:107ba80009dc000009dc0000c0ca0000c0ca0000ef
:107bb800c0ca0000b6ee0000ffff0000ffff000093
:107bc800ffff0000ffff0000ffff0000ffff0000b5
:107bd800bdff0000cddc0000c0ca0000c0ca000024
:107be800c0ca0000c0ca000009dc000090e500001f
:107bf800ffff0000ffff0000ffff0000ffff000085
:107c0800ffff0000ffff0000ffff0000ffff000074
:107c1800ffff0000ffff0000ffff0000ffff000064
:107c2800ffff0000ffff0000ffff0000ffff000054
:107c3800ffff00007af70000b6ee0000b6ee000085
:107c4800b6ee0000cddc000090e50000cddc0000c1
:107c580009dc000009dc000009dc0000c0ca0000e3
:107c6800c0ca0000c0ca0000c0ca0000c0ca0000e4
:107c7800c0ca0000c0ca000009dc0000b6ee00005f
:107c8800ffff0000ffff0000ffff0000ffff0000f4
:107c9800ffff0000ffff0000ffff0000ffff0000e4
:107ca8007af70000cddc0000c0ca0000c0ca00009e
:107cb800c0ca0000c0ca0000c0ca0000c0ca000094
:107cc800c0ca0000c0ca0000c0ca0000c0ca000084
:107cd800cddc0000ffff0000ffff0000ffff0000f9
:107ce800ffff0000ffff0000ffff0000ffff000094
:107cf800ffff0000ffff00007af70000cddc000066
:107d0800c0ca0000c0ca0000c0ca0000c0ca000043
:107d180009dc0000bdff0000ffff0000ffff0000be
:107d28007af700007af70000b6ee0000b6ee000021
:107d380090e5000090e5000090e5000009dc0000f7
:107d480009dc000083cc0000c0ca0000c0ca0000e3
:107d5800c0ca0000c0ca0000c0ca0000c0ca0000f3
:107d6800c0ca0000c0ca0000c0ca0000c0ca0000e3
:107d7800c0ca0000c0ca0000c0ca0000c0ca0000d3
:107d8800c0ca0000c0ca0000c0ca0000c0ca0000c3
:107d9800c0ca0000c0ca0000c0ca000009dc000058
:107da800ffff0000ffff0000ffff0000ffff0000d3
:107db800ffff0000ffff0000ffff0000ffff0000c3
:107dc80009dc0000c0ca0000c0ca0000c0ca000028
:107dd800c0ca0000c0ca0000c0ca0000c0ca000073
:107de800c0ca0000c0ca0000c0ca0000c0ca000063
:107df800bdff0000ffff0000ffff0000ffff0000c5
:107e0800ffff0000ffff0000ffff0000ffff000072
:107e1800ffff0000ffff0000ffff0000ffff000062
:107e2800b6ee0000c0ca0000c0ca0000c0ca000008
:107e3800c0ca0000c0ca0000c0ca0000c0ca000012
:107e4800c0ca0000c0ca0000c0ca0000c0ca000002
:107e5800c0ca0000c0ca0000c0ca0000c0ca0000f2
:107e6800c0ca0000c0ca0000c0ca0000c0ca0000e2
:107e7800c0ca0000c0ca0000c0ca0000c0ca0000d2
:107e8800c0ca0000c0ca0000c0ca0000c0ca0000c2
:107e9800c0ca0000c0ca0000c0ca0000c0ca0000b2
:107ea80009dc000009dc000009dc000009dc000036
:107eb80090e50000c0ca0000c0ca0000c0ca0000a7
:107ec800ffff0000ffff0000ffff0000ffff0000b2
:107ed800ffff0000ffff0000ffff0000b6ee0000fc
:107ee800c0ca0000c0ca0000c0ca0000c0ca000062
:107ef800c0ca0000c0ca0000c0ca0000c0ca000052
:107f0800c0ca0000c0ca0000c0ca0000b6ee000027
:107f1800ffff0000ffff0000ffff0000ffff000061
:107f2800ffff0000ffff0000ffff0000ffff000051
:107f3800ffff0000ffff0000ffff0000ffff000041
:107f4800ffff0000ffff000090e5000009dc0000d3
:107f5800c0ca0000c0ca0000c0ca0000c0ca0000f1
:107f6800c0ca0000c0ca0000c0ca000009dc000086
:107f7800c0ca0000c0ca0000c0ca000009dc000076
:107f8800c0ca000009dc0000c0ca000009dc00000b
:107f980009dc0000cddc000009dc000090e50000f1
:107fa80090e5000090e50000b6ee0000bdff00007f
:107fb800b6ee0000bdff0000ffff0000ffff00005d
:107fc800ffff0000ffff0000ffff0000ffff0000b1
:107fd800ffff000009dc0000c0ca0000c0ca0000a2
:107fe800ffff0000ffff0000ffff0000ffff000091
:107ff800ffff0000ffff0000ffff0000c0ca0000f5
:10800800c0ca0000c0ca0000c0ca0000c0ca000040
:10801800c0ca0000c0ca0000c0ca0000c0ca000030
:10802800c0ca0000c0ca000009dc0000bdff000093
:10803800ffff0000ffff0000ffff0000ffff000040
:10804800ffff0000ffff0000ffff0000bdff000072
:10805800b6ee0000b6ee00007af7000090e50000ea
:1080680090e5000090e50000cddc0000c0ca0000eb
:10807800c0ca0000c0ca000009dc000009dc00001a
:1080880009dc000009dc0000cddc000090e5000000
:1080980090e5000090e500007af70000b6ee0000d9
:1080a800b6ee0000ffff0000ffff0000ffff00002a
:1080b800ffff0000ffff0000ffff0000ffff0000c0
:1080c800ffff0000ffff0000ffff0000ffff0000b0
:1080d800ffff0000ffff0000ffff0000ffff0000a0
:1080e800ffff0000ffff0000ffff0000ffff000090
:1080f800ffff0000c0ca0000c0ca0000c0ca0000dc
:1081080009dc0000b6ee0000ffff0000ffff0000e2
:10811800ffff0000ffff0000ffff0000c0ca0000d3
:10812800c0ca0000c0ca0000c0ca0000c0ca00001f
:10813800c0ca0000c0ca0000c0ca0000c0ca00000f
:10814800c0ca000009dc000009dc000090e500005e
:1081580090e50000cddc000009dc0000cddc00006b
:1081680009dc000009dc000009dc0000cddc0000af
:1081780009dc0000cddc000090e5000090e500007f
:1081880090e500007af70000b6ee00007af70000ec
:10819800bdff0000ffff0000ffff0000ffff000021
:1081a800ffff0000ffff0000ffff0000ffff0000cf
:1081b800ffff0000ffff0000ffff0000ffff0000bf
:1081c800ffff0000ffff0000ffff0000ffff0000af
:1081d800ffff0000ffff0000ffff0000ffff00009f
:1081e800ffff0000ffff0000ffff0000ffff00008f
:1081f800ffff0000ffff0000ffff0000ffff00007f
:10820800ffff0000ffff0000ffff0000ffff00006e
:10821800bdff000009dc0000c0ca0000c0ca0000a1
:10822800c0ca000083cc0000ffff0000ffff000071
:10823800ffff0000ffff0000ffff0000c0ca0000b2
:10824800c0ca0000c0ca0000c0ca0000c0ca0000fe
:1082580009dc0000c0ca000009dc000009dc0000dd
:10826800cddc000090e5000090e5000090e50000fe
:10827800b6ee0000b6ee0000b6ee00007af7000099
:10828800ffff0000ffff0000ffff0000ffff0000ee
:10829800ffff0000ffff0000ffff0000ffff0000de
:1082a800ffff0000ffff0000ffff0000ffff0000ce
:1082b800ffff0000ffff0000ffff0000ffff0000be
:1082c800ffff0000ffff0000ffff0000ffff0000ae
:1082d800ffff0000ffff0000ffff0000ffff00009e
:1082e800ffff0000ffff0000ffff0000ffff00008e
:1082f800ffff0000ffff0000ffff0000ffff00007e
:10830800ffff0000ffff0000ffff0000ffff00006d
:10831800ffff00007af700007af700007af7000004
:108328007af7000090ff000090ff000029ff00008e
:1083380090ff0000c7f60000c7f6000083cc0000dd
:10834800c0ca0000c0ca0000ffff0000ffff000015
:10835800ffff0000ffff0000ffff0000c0ca000091
:10836800c0ca0000c0ca0000c0ca000009dc000082
:1083780090e50000ffff0000ffff0000ffff000086
:10838800ffff0000ffff0000ffff0000ffff0000ed
:10839800ffff0000ffff0000ffff0000ffff0000dd
:1083a800ffff0000ffff0000ffff0000ffff0000cd
:1083b800ffff0000ffff0000ffff0000ffff0000bd
:1083c800ffff0000ffff0000ffff0000ffff0000ad
:1083d800ffff0000ffff0000ffff0000ffff00009d
:1083e800ffff0000ffff0000ffff0000ffff00008d
:1083f800ffff0000ffff0000ffff0000ffff00007d
:10840800ffff0000ffff0000ffff0000bdff0000ae
:108418007af700007af7000090ff00007af7000072
:1084280090ff000090ff000090ff000029ff00006f
:1084380029ff000029ff000029ff000029ff000094
:1084480029ff000029ff0000c7f6000029ff0000ef
:10845800c7f6000029ff0000c7f6000029ff00004a
:10846800c0ca0000c0ca0000ffff0000ffff0000f4
:10847800ffff0000ffff0000ffff0000c0ca000070
:10848800c0ca0000c0ca0000c0ca0000c0ca0000bc
:1084980090e50000ffff0000ffff0000ffff000065
:1084a800ffff0000ffff0000ffff0000ffff0000cc
:1084b800ffff0000ffff0000ffff0000ffff0000bc
:1084c800ffff0000ffff0000ffff0000ffff0000ac
:1084d800ffff0000ffff0000ffff0000ffff00009c
:1084e800ffff0000ffff0000ffff0000ffff00008c
:1084f800ffff0000ffff0000ffff0000ffff00007c
:10850800ffff0000bdff00007af700007af70000c7
:108518007af7000090ff000090ff000029ff00009c
:1085280090ff000029ff000029ff000029ff00003c
:1085380029ff000029ff000029ff000029ff000093
:1085480029ff000029ff000029ff000029ff000083
:1085580029ff000029ff000029ff0000c7f60000de
:1085680029ff0000c7f6000029ff0000c7f6000039
:10857800c7f60000c7f60000c7f6000045e6000091
:10858800c0ca0000c0ca0000ffff0000ffff0000d3
:10859800ffff0000ffff0000ffff0000c0ca00004f
:1085a800c0ca0000c0ca0000c0ca0000c0ca00009b
:1085b80090e50000ffff0000ffff0000ffff000044
:1085c800ffff0000ffff0000ffff0000ffff0000ab
:1085d800ffff0000ffff0000ffff0000ffff00009b
:1085e800ffff0000ffff0000ffff0000ffff00008b
:1085f800ffff0000ffff0000ffff0000ffff00007b
:108608007af700007af700007af700007af700009e
:1086180090ff000090ff000090ff000029ff00007d
:1086280029ff000029ff000029ff000029ff0000a2
:1086380029ff000029ff000029ff000029ff000092
:1086480029ff000029ff000029ff000029ff000082
:1086580029ff000029ff000029ff000029ff000072
:1086680029ff000029ff000029ff000029ff000062
:1086780029ff000029ff000029ff000029ff000052
:10868800c7f6000029ff0000c7f60000c7f6000083
:10869800c7f60000c7f60000c7f60000c7f60000de
:1086a800c0ca0000c0ca0000ffff0000ffff0000b2
:1086b800ffff0000ffff0000ffff0000c0ca00002e
:1086c800c0ca0000c0ca0000c0ca0000c0ca00007a
:1086d80090e50000ffff0000ffff0000ffff000023
:1086e800ffff0000ffff0000ffff0000ffff00008a
:1086f800ffff0000ffff0000bdff00007af7000049
:108708007af7000090ff00007af7000090ff000061
:1087180090ff000029ff000029ff000029ff00004a
:1087280029ff000029ff000029ff000029ff0000a1
:1087380029ff000029ff000029ff000029ff000091
:1087480029ff000029ff000029ff000029ff000081
:1087580029ff000029ff000029ff000029ff000071
:1087680029ff000029ff000029ff000029ff000061
:1087780029ff000029ff000029ff000029ff000051
:1087880029ff000029ff000029ff000029ff000041
:1087980029ff0000c7f6000029ff0000c7f6000007
:1087a800c7f60000c7f60000c7f60000c7f60000cd
:1087b800c7f6000045e60000c7f6000045e60000e1
:1087c800c0ca0000c0ca0000ffff0000ffff000091
:1087d800ffff0000ffff0000ffff0000c0ca00000d
:1087e800c0ca0000c0ca0000c0ca000009dc0000fe
:1087f800cddc0000ffff0000ffff0000ffff0000ce
:10880800ffff00007af7000090ff000090ff0000d3
:1088180029ff000029ff000029ff000029ff0000b0
:1088280029ff000029ff000029ff000029ff0000a0
:1088380029ff000029ff000029ff000029ff000090
:1088480029ff000029ff000029ff000029ff000080
:1088580029ff000029ff000029ff000029ff000070
:1088680029ff000029ff000029ff000029ff000060
:1088780029ff000029ff000029ff000029ff000050
:1088880029ff000029ff000029ff000029ff000040
:1088980029ff000029ff000029ff000029ff000030
:1088a80029ff000029ff000029ff000029ff000020
:1088b80029ff000029ff0000c7f6000029ff00007b
:1088c800c7f60000c7f60000c7f60000c7f60000ac
:1088d800c7f60000c7f6000045e60000c7f600002e
:1088e800c0ca0000c0ca0000ffff0000ffff000070
:1088f800ffff0000ffff0000ffff0000c0ca0000ec
:10890800c0ca0000c0ca0000c0ca0000c0ca000037
:1089180009dc0000ffff0000ffff0000ffff000070
:108928007af7000029ff000029ff000029ff000056
:1089380029ff000029ff000029ff000029ff00008f
:1089480029ff000029ff000029ff000029ff00007f
:1089580029ff000029ff000029ff000029ff00006f
:1089680029ff000029ff000029ff000029ff00005f
:1089780029ff000029ff000029ff000029ff00004f
:1089880029ff000029ff000029ff000029ff00003f
:1089980029ff000029ff000029ff000029ff00002f
:1089a80029ff000029ff000029ff000029ff00001f
:1089b80029ff000029ff000029ff000029ff00000f
:1089c80029ff0000c7f6000029ff0000c7f60000d5
:1089d800c7f60000c7f60000c7f60000c7f600009b
:1089e800c7f60000c7f60000c7f6000045e600001d
:1089f800c7f6000045e6000045e6000045e6000031
:108a0800c0ca0000c0ca0000ffff0000ffff00004e
:108a1800ffff0000ffff0000ffff0000c0ca0000ca
:108a2800c0ca0000c0ca0000c0ca0000c0ca000016
:108a380009dc0000ffff0000ffff0000ffff00004f
:108a480090ff000029ff000029ff000029ff000017
:108a580029ff000029ff000029ff000029ff00006e
:108a680029ff000029ff000029ff000029ff00005e
:108a780029ff000029ff000029ff000029ff00004e
:108a880029ff000029ff000029ff000029ff00003e
:108a980029ff000029ff000029ff000029ff00002e
:108aa8006ffe00006df500000df50000b1fd00003f
:108ab80029ff0000ebfe00004dff00008ede0000e5
:108ac80071d600004eff000029ff000029ff0000ba
:108ad80029ff000029ff000029ff000029ff0000ee
:108ae80029ff000029ff000066ee000029ff0000b2
:108af80066ee000029ff000066ee000066ee00004a
:108b080066ee000066ee000066ee000066ee00000d
:108b180066ee000066ee0000e5dd000045e60000b8
:108b2800c0ca0000c0ca0000ffff0000ffff00002d
:108b3800ffff0000ffff0000ffff0000c0ca0000a9
:108b4800c0ca0000c0ca0000c0ca0000c0ca0000f5
:108b5800cddc0000ffff0000ffff0000ffff00006a
:108b680090ff000029ff000029ff000029ff0000f6
:108b780029ff000029ff000029ff000029ff00004d
:108b880029ff000029ff000029ff000029ff00003d
:108b980029ff000029ff000029ff000029ff00002d
:108ba80029ff000029ff000029ff000029ff00001d
:108bb80029ff00004bff00004cfe000012f50000ea
:108bc8006cf3000048f2000007f2000007f2000012
:108bd80007f200002af3000075fe000017be00002f
:108be800b6b5000032f700004aff000029ff000078
:108bf80029ff000029ff000029ff000029ff0000cd
:108c080029ff000029ff000029ff000066ee000090
:108c180029ff000066ee000029ff000066ee000054
:108c280029ff000066ee000066ee000066ee000018
:108c380066ee000066ee000066ee000045e6000005
:108c4800c0ca0000c0ca0000ffff0000ffff00000c
:108c5800ffff0000ffff0000ffff0000c0ca000088
:108c6800c0ca0000c0ca0000c0ca000009dc000079
:108c780009dc0000ffff0000ffff0000ffff00000d
:108c880090ff000029ff000029ff000029ff0000d5
:108c980029ff000029ff000029ff000029ff00002c
:108ca80029ff000029ff000029ff000029ff00001c
:108cb80029ff000029ff000029ff000029ff00000c
:108cc80029ff000029ff000029ff000029ff0000fc
:108cd80029ff000073fe00006cf3000045f100005e
:108ce80024e9000024e9000024e9000024e9000048
:108cf80003e9000083e800006df3000077e6000058
:108d0800d0e600004dff000029ff000029ff000009
:108d180066ee000029ff000066ee000029ff000053
:108d280066ee000029ff000066ee000066ee000017
:108d380066ee000066ee000066ee000066ee0000db
:108d480066ee000066ee0000e5dd000066ee00005d
:108d5800e5dd000066ee0000e5dd000045e6000008
:108d6800c0ca0000c0ca0000ffff0000ffff0000eb
:108d7800ffff0000ffff0000ffff0000c0ca000067
:108d8800c0ca0000c0ca0000c0ca0000c0ca0000b3
:108d980009dc0000ffff0000ffff0000ffff0000ec
:108da80090ff000029ff000029ff000029ff0000b4
:108db80029ff000029ff000029ff000029ff00000b
:108dc80029ff000029ff000029ff000029ff0000fb
:108dd80029ff000029ff000029ff000029ff0000eb
:108de80029ff000029ff000029ff000029ff0000db
:108df800edfd000049f2000062e8000083e8000091
:108e080003e9000024e9000024e9000024e9000047
:108e180024e9000085e90000a6f100002cf4000018
:108e2800ebfe000029ff000029ff000029ff0000d9
:108e380029ff000066ee000029ff000066ee000032
:108e480029ff000066ee000029ff000066ee000022
:108e580066ee000066ee000066ee000066ee0000ba
:108e680066ee000066ee000066ee000066ee0000aa
:108e780066ee0000e5dd000066ee0000c4dd0000df
:108e8800c0ca0000c0ca0000ffff0000ffff0000ca
:108e9800ffff0000ffff0000ffff0000c0ca000046
:108ea800c0ca0000c0ca0000c0ca000009dc000037
:108eb80009dc0000ffff0000ffff0000ffff0000cb
:108ec80090ff000029ff000029ff000029ff000093
:108ed80029ff000029ff000029ff000029ff0000ea
:108ee80029ff000029ff000029ff000029ff0000da
:108ef80029ff000029ff000029ff000029ff0000ca
:108f080029ff000029ff00004aff000072fe000050
:108f180048f2000062e8000085e9000049f200001c
:108f280085e9000003e9000024e9000024e90000c5
:108f3800a6f10000eef40000abf30000e6e9000043
:108f4800cdf400000aff000066ee000029ff0000d3
:108f580066ee000029ff000066ee000066ee0000e5
:108f680066ee000066ee000066ee000066ee0000a9
:108f780066ee000066ee0000e5dd000066ee00002b
:108f8800e5dd000066ee0000e5dd000066ee0000ad
:108f9800e5dd000066ee0000e5dd0000c4dd000050
:108fa800c0ca0000c0ca0000ffff0000ffff0000a9
:108fb800ffff0000ffff0000ffff0000c0ca000025
:108fc800c0ca0000c0ca000009dc000090e500002b
:108fd800cddc0000ffff0000ffff0000ffff0000e6
:108fe80090ff000029ff000029ff000029ff000072
:108ff80029ff000029ff000029ff000029ff0000c9
:1090080029ff000029ff000029ff000029ff0000b8
:1090180029ff000029ff000029ff000029ff0000a8
:1090280029ff000029ff00000aff00008cf3000060
:1090380083e8000024e90000ebf200006dfe000068
:109048006bf4000024e9000003e9000024e90000b3
:1090580028f3000029ff00008afe0000c7f2000084
:1090680007f20000cdf400004aff000066ee0000a1
:1090780029ff000066ee000029ff000066ee0000f0
:1090880029ff000066ee000066ee000066ee0000b4
:1090980066ee000066ee000066ee000066ee000078
:1090a80066ee0000e5dd000066ee0000e5dd00008c
:1090b80066ee0000e5dd000066ee000083cc0000ef
:1090c800c0ca0000c0ca0000ffff0000ffff000088
:1090d800ffff0000ffff0000ffff0000c0ca000004
:1090e800c0ca000009dc000090e50000bdff0000d8
:1090f80009dc0000ffff0000ffff0000ffff000089
:1091080090ff000029ff000029ff000029ff000050
:1091180029ff000029ff000029ff000029ff0000a7
:1091280029ff000029ff000029ff000029ff000097
:1091380029ff000029ff000029ff000029ff000087
:1091480029ff000029ff0000b1fd000085e90000ab
:1091580024e9000085e90000f1fc00004eff000052
:1091680009ff000028f3000003e9000024e90000db
:1091780029ff000029ff000029ff00002efe000043
:10918800a7f10000ebf2000048ee000029ff000004
:1091980066ee000066ee000066ee000066ee000077
:1091a80066ee000066ee000066ee000066ee000067
:1091b800e5dd000066ee0000e5dd000066ee00007b
:1091c800e5dd0000e5dd0000e5dd0000e5dd00008f
:1091d800e5dd0000e5dd0000e5dd0000c4dd0000a0
:1091e800c0ca0000c0ca0000ffff0000ffff000067
:1091f800ffff0000ffff000090e50000c0ca00006c
:10920800c0ca0000c0ca0000bdff0000ffff000088
:1092180009dc0000ffff0000ffff0000ffff000067
:1092280090ff000029ff000029ff000029ff00002f
:1092380029ff000029ff000029ff000029ff000086
:1092480029ff000029ff000029ff000029ff000076
:1092580029ff000029ff000029ff000029ff000066
:1092680029ff00004bff0000ecf3000024e9000098
:1092780024e9000007f2000031ff000029ff000088
:1092880029ff00006dfe000085e900002cf30000b6
:109298004bff000029ff000029ff00004bff0000e2
:1092a800aef4000024e90000d3f4000067ee0000eb
:1092b80066ee000066ee000066ee000066ee000056
:1092c80066ee000066ee000066ee000066ee000046
:1092d80066ee0000e5dd000066ee0000e5dd00005a
:1092e80066ee0000e5dd000066ee0000e5dd00004a
:1092f800e5dd0000e5dd0000e5dd000083cc0000d1
:10930800c0ca0000c0ca0000ffff0000ffff000045
:10931800ffff0000ffff000009dc0000c0ca0000da
:10932800c0ca0000b6ee0000ffff0000ffff00000b
:1093380009dc0000ffff0000ffff0000ffff000046
:1093480090ff000029ff000029ff000029ff00000e
:1093580029ff000029ff000029ff000029ff000065
:1093680029ff000029ff000029ff000029ff000055
:1093780029ff000029ff000029ff000029ff000045
:1093880029ff000029ff0000aaf2000003e90000fd
:1093980024e9000089f200002eff000029ff0000e8
:1093a80029ff000029ff0000eef4000024e9000076
:1093b800b6fd00004aff000066ee000029ff00002d
:1093c800cdf400008cf30000a6f100006cf500005d
:1093d80087ee000066ee0000e5dd000066ee0000a6
:1093e800e5dd000066ee0000e5dd000066ee000049
:1093f800e5dd000066ee0000e5dd0000e5dd0000cb
:10940800e5dd0000e5dd0000e5dd0000e5dd00004c
:10941800e5dd0000e5dd0000e5dd0000c4dd00005d
:10942800c0ca0000c0ca0000ffff0000ffff000024
:10943800ffff0000cddc0000c0ca0000c0ca000069
:1094480009dc0000ffff0000ffff0000ffff000035
:10945800cddc0000ffff0000ffff0000ffff000061
:1094680090ff000029ff000029ff000029ff0000ed
:1094780029ff000029ff000029ff000029ff000044
:1094880029ff000029ff000029ff000029ff000034
:1094980029ff000029ff000029ff000029ff000024
:1094a80029ff00006ffe000089f2000062e800005a
:1094b800ebf20000a6f10000b0fc00000aff00007b
:1094c80029ff000029ff00006dfe00008cf300005a
:1094d800a6f10000abfd00004bff000066ee0000a7
:1094e80029ff00006ffe000088f20000aaf20000c9
:1094f800a7ed000066ee000066ee0000e5dd000066
:1095080066ee0000e5dd000066ee0000e5dd000027
:1095180066ee0000e5dd0000e5dd0000e5dd0000a9
:1095280066ee0000e5dd0000e5dd0000e5dd000099
:10953800e5dd0000e5dd0000e5dd000083cc00008e
:10954800c0ca0000c0ca0000ffff0000ffff000003
:109558007af70000c0ca0000c0ca000009dc000099
:10956800b6ee0000ffff0000ffff0000ffff000055
:1095780009dc0000ffff0000ffff0000ffff000004
:1095880090ff000029ff000029ff000029ff0000cc
:1095980029ff000029ff000029ff000029ff000023
:1095a80029ff000029ff000029ff000029ff000013
:1095b80029ff000029ff000029ff000029ff000003
:1095c80029ff00004cfe000067f20000a6f1000031
:1095d80029ff0000aef4000007f200002dfd000096
:1095e8004dff00004aff000029ff00006dfe00004b
:1095f80067f20000ebf2000010f6000088ee0000b1
:1096080066ee000087ee00006df5000089f20000ac
:10961800e3e3000066ee0000e5dd000066ee000012
:10962800e5dd0000e5dd0000e5dd0000e5dd00002a
:10963800e5dd0000e5dd0000e5dd0000e5dd00001a
:10964800e5dd0000e5dd0000e5dd0000e5dd00000a
:10965800e5dd0000e5dd0000e5dd0000c4dd00001b
:10966800c0ca0000c0ca0000ffff0000ffff0000e2
:1096780009dc0000c0ca0000c0ca000009dc000004
:10968800ffff0000ffff0000ffff0000ffff0000da
:1096980009dc0000ffff0000ffff0000ffff0000e3
:1096a80090ff000029ff000029ff000029ff0000ab
:1096b80029ff000029ff000029ff000029ff000002
:1096c80029ff000029ff000029ff000029ff0000f2
:1096d80029ff000029ff000029ff000029ff0000e2
:1096e80029ff00004cfe000088f20000abf30000e8
:1096f8000aff00002eff0000aaf300002cf3000070
:1097080012fe00004bff000029ff000029ff0000a7
:10971800edfd0000ebf200008cf300006dfe000090
:1097280087ee000066ee0000abee00004ff500008b
:109738006df50000e5dd000066ee0000e5dd0000e7
:10974800e5dd0000e5dd0000e5dd0000e5dd000009
:10975800e5dd0000e5dd0000e5dd0000e5dd0000f9
:10976800e5dd0000e5dd0000e5dd0000e5dd0000e9
:10977800e5dd0000e5dd0000e5dd000083cc00004c
:10978800c0ca0000c0ca0000ffff0000bdff000003
:10979800c0ca0000c0ca0000c0ca0000bdff000067
:1097a800ffff0000ffff0000ffff0000ffff0000b9
:1097b80009dc0000ffff0000ffff0000ffff0000c2
:1097c80090ff000029ff000029ff000029ff00008a
:1097d80029ff000029ff000029ff000029ff0000e1
:1097e80029ff000029ff000029ff000029ff0000d1
:1097f80029ff000029ff000029ff000029ff0000c1
:1098080029ff00008afe0000b0fc0000b1fd000046
:1098180029ff000029ff00002efe00002cf30000a5
:109828002af30000d0fe000087ee000066ee00007c
:10983800caee0000ccf40000a6f100004df40000d0
:10984800e7e5000066ee0000e5dd000008e6000040
:109858002be60000e5dd0000e5dd0000e5dd0000a9
:10986800e5dd0000e5dd0000e5dd0000e5dd0000e8
:10987800e5dd0000e5dd0000e5dd0000e5dd0000d8
:10988800e5dd0000e5dd0000e5dd0000e5dd0000c8
:10989800e5dd0000e5dd0000e5dd0000c4dd0000d9
:1098a800c0ca0000c0ca0000ffff0000bdff0000e2
:1098b800c0ca0000c0ca0000c0ca0000c0ca000078
:1098c80090e50000bdff0000ffff0000ffff000063
:1098d80009dc0000ffff0000ffff0000ffff0000a1
:1098e80090ff000029ff000029ff000029ff000069
:1098f80029ff000029ff000029ff000029ff0000c0
:1099080029ff000029ff000029ff000029ff0000af
:1099180029ff000029ff000029ff000029ff00009f
:1099280029ff000009ff0000affe00000fff000044
:1099380029ff000029ff0000affe0000ebf2000045
:1099480003e900000df4000009ff000066ee0000c6
:1099580088ee0000eff4000003e9000007f20000c1
:109968006cf50000e5dd000066ee0000e5dd0000b6
:10997800e5dd0000e5dd0000e5dd0000e5dd0000d7
:10998800e5dd0000e5dd0000e5dd0000e5dd0000c7
:10999800e5dd0000e5dd0000e5dd0000e5dd0000b7
:1099a800e5dd0000e5dd0000e5dd0000e5dd0000a7
:1099b800e5dd0000e5dd0000e5dd000083cc00000a
:1099c800c0ca0000c0ca0000ffff0000ffff00007f
:1099d800cddc0000c0ca0000c0ca0000c0ca000038
:1099e800c0ca000009dc000090e50000ffff00008d
:1099f800c0ca0000ffff0000ffff0000ffff0000db
:109a080090ff000029ff000029ff000029ff000047
:109a180029ff000029ff000029ff000029ff00009e
:109a280029ff000029ff000029ff000029ff00008e
:109a380029ff000029ff000029ff000029ff00007e
:109a480029ff000029ff000029ff000029ff00006e
:109a580066ee00004bff000094fd000024e90000c2
:109a680003e9000045f10000cdf4000066ee0000b7
:109a7800a4e5000048f2000003e9000003e9000043
:109a880048f20000d3f40000e5dd0000e5dd000049
:109a9800e5dd0000e5dd0000e5dd0000e5dd0000b6
:109aa800e5dd0000e5dd0000e5dd0000e5dd0000a6
:109ab800e5dd0000e5dd0000e5dd0000e5dd000096
:109ac800e5dd0000e5dd0000e5dd0000e5dd000086
:109ad800e5dd0000e5dd0000e5dd0000c4dd000097
:109ae800c0ca0000c0ca0000ffff0000ffff00005e
:109af800ffff0000b6ee000009dc0000c0ca00004d
:109b0800c0ca0000c0ca0000c0ca0000c0ca000025
:109b1800c0ca0000ffff0000ffff0000ffff0000b9
:109b280090ff000029ff000029ff000029ff000026
:109b380029ff000029ff000029ff000029ff00007d
:109b480029ff000029ff000029ff000029ff00006d
:109b580029ff000029ff000029ff000029ff00005d
:109b680029ff000029ff000029ff000029ff00004d
:109b780029ff000047ee000089f2000003e9000019
:109b880024e9000024e9000007f20000e5dd0000f8
:109b98002cf4000003e9000024e9000024e9000097
:109ba80062e80000eff30000a6dd0000e5dd00003c
:109bb800e5dd0000e5dd0000e5dd0000e5dd000095
:109bc800e5dd0000e5dd0000e5dd0000e5dd000085
:109bd800e5dd0000e5dd0000e5dd0000e5dd000075
:109be800e5dd0000e5dd0000e5dd0000e5dd000065
:109bf800e5dd0000e5dd0000e5dd000083cc0000c8
:109c0800c0ca0000c0ca0000ffff0000ffff00003c
:109c1800ffff0000ffff0000ffff0000c0ca0000b8
:109c2800c0ca0000c0ca0000c0ca0000c0ca000004
:109c3800c0ca0000ffff0000ffff0000ffff000098
:109c480090ff000029ff000029ff000029ff000005
:109c580029ff000029ff000029ff000029ff00005c
:109c680029ff000029ff000029ff000029ff00004c
:109c780029ff000029ff000066ee000029ff000010
:109c880066ee000029ff000066ee000066ee0000a8
:109c980066ee0000b0fc000083e8000024e9000044
:109ca80024e9000024e9000024e90000a6f10000ee
:109cb80024e9000024e9000024e9000062e800002b
:109cc80024e90000d3f4000009e60000e5dd000007
:109cd800e5dd0000e5dd0000e5dd0000e5dd000074
:109ce800e5dd0000e5dd0000e5dd0000e5dd000064
:109cf800e5dd0000e5dd0000e5dd0000e5dd000054
:109d0800e5dd0000e5dd0000e5dd0000e5dd000043
:109d1800e5dd0000e5dd0000e5dd0000c4dd000054
:109d2800c0ca0000c0ca0000ffff0000ffff00001b
:109d3800ffff0000ffff0000ffff0000c0ca000097
:109d4800c0ca0000c0ca0000c0ca0000c0ca0000e3
:109d580009dc0000ffff0000ffff0000ffff00001c
:109d680090ff000029ff000029ff000029ff0000e4
:109d780029ff000029ff000029ff000029ff00003b
:109d880029ff000029ff000029ff000029ff00002b
:109d980029ff000029ff000029ff000066ee0000ef
:109da80029ff000066ee000029ff000066ee0000b3
:109db80066ee0000aaf30000a6f1000003e9000027
:109dc80083e8000024e9000024e9000024e90000f9
:109dd80024e9000003e9000024e9000048f200003b
:109de8004df40000e5dd0000e5dd0000e5dd0000e4
:109df800e5dd0000e5dd0000e5dd0000e5dd000053
:109e0800e5dd0000e5dd0000e5dd0000e5dd000042
:109e1800e5dd0000e5dd0000e5dd0000e5dd000032
:109e2800e5dd0000e5dd0000e5dd0000e5dd000022
:109e3800e5dd0000e5dd0000e5dd000083cc000085
:109e4800c0ca0000c0ca0000ffff0000ffff0000fa
:109e5800ffff0000ffff0000ffff0000c0ca000076
:109e6800c0ca0000c0ca0000c0ca0000c0ca0000c2
:109e7800c0ca0000ffff0000ffff0000ffff000056
:109e880090ff000029ff000029ff000029ff0000c3
:109e980066ee000029ff000066ee000029ff0000c2
:109ea80066ee000029ff000066ee000029ff0000b2
:109eb80066ee000066ee000066ee000066ee00004a
:109ec80066ee000066ee000066ee000066ee00003a
:109ed800e5dd000067ee00000df500006df3000001
:109ee80048f2000003e9000040e8000062e80000d2
:109ef80083e8000024e9000045ea0000aaec00001d
:109f0800e5dd0000e5dd0000e5dd0000e5dd000041
:109f1800e5dd0000e5dd0000e5dd0000e5dd000031
:109f2800e5dd0000e5dd0000e5dd0000e5dd000021
:109f3800e5dd0000e5dd0000e5dd0000e5dd000011
:109f4800e5dd0000e5dd0000e5dd0000e5dd000001
:109f5800e6dd0000e5dd0000e5dd0000c4dd000011
:109f6800c0ca0000c0ca0000ffff0000ffff0000d9
:109f7800ffff0000ffff0000ffff0000c0ca000055
:109f8800c0ca0000c0ca0000c0ca0000c0ca0000a1
:109f9800c0ca0000bdff0000bdff0000bdff0000fb
:109fa80090ff0000c7f6000029ff000029ff00000d
:109fb80029ff000066ee000029ff000066ee0000a1
:109fc80029ff000066ee000029ff000066ee000091
:109fd80029ff000066ee000066ee000066ee000055
:109fe80066ee000066ee000066ee0000e5dd0000ab
:109ff80066ee0000e5dd000087ee0000e5dd00000c
:10a008002aed0000aaec00006df3000048f2000001
:10a0180048f20000aaec0000e5dd0000e5dd0000e4
:10a02800e5dd0000e5dd0000e5dd0000e5dd000020
:10a03800e5dd0000e5dd0000e5dd0000e5dd000010
:10a04800e5dd0000e5dd0000e5dd0000e5dd000000
:10a05800c5dd0000c9d500006ac50000eecd0000ce
:10a068006c940000cc7b00006c6b00004c6300001b
:10a07800718c00000bd60000e5dd000083cc0000e9
:10a08800c0ca0000c0ca0000ffff0000ffff0000b8
:10a09800ffff0000ffff0000ffff0000c0ca000034
:10a0a800c0ca0000c0ca0000c0ca0000c0ca000080
:10a0b800c0ca0000bdff0000bdff0000bdff0000da
:10a0c80029ff000029ff000066ee000029ff0000bc
:10a0d80066ee000029ff000066ee000066ee000054
:10a0e80066ee000066ee000066ee000066ee000018
:10a0f80066ee000066ee0000e5dd000066ee00009a
:10a10800e5dd000066ee0000e5dd0000e5dd0000ad
:10a11800e5dd0000e5dd0000e5dd0000e5dd00002f
:10a12800e5dd0000e5dd000008e60000e5dd0000f3
:10a13800e5dd0000e5dd0000c4dd0000c4dd000051
:10a14800e5dd0000e5dd0000c4dd0000a4dd000061
:10a1580085d5000025c5000089c50000eecd0000aa
:10a16800cba40000a4dd000029e6000017be000013
:10a1780030840000b6b500004c630000f39c00007a
:10a188006529000040000000400000004000000079
:10a1980040000000c38b0000e5dd000083cc000018
:10a1a800c0ca0000c0ca0000ffff0000ffff000097
:10a1b800ffff0000ffff0000ffff0000c0ca000013
:10a1c800c0ca0000c0ca0000c0ca0000c0ca00005f
:10a1d800c0ca00007af70000bdff00007af700004f
:10a1e80090ff0000c7f6000029ff000066ee00009f
:10a1f80029ff000066ee000029ff000066ee00005f
:10a2080029ff000087ee000027e6000087ee000027
:10a2180066ee000066ee000066ee0000e5dd000078
:10a2280066ee0000e5dd000066ee0000e5dd0000fa
:10a23800e5dd0000e5dd0000e5dd0000c4dd00002f
:10a24800a4dd0000c5dd0000e5dd0000e5dd00005f
:10a2580086d5000025c50000e7b40000a8a40000ca
:10a2680051d6000027e600002f8400008952000024
:10a27800694a0000284200006d6b0000139d000031
:10a288002842000085d50000e6dd000034a5000066
:10a2980044210000f39c0000652900003084000080
:10a2a8008108000092940000e5dd0000e5dd000073
:10a2b8004421000063830000e5dd0000c0ca0000ff
:10a2c800c0ca0000c0ca0000ffff0000ffff000076
:10a2d800ffff0000ffff0000ffff0000c0ca0000f2
:10a2e800c0ca0000c0ca0000c0ca0000c0ca00003e
:10a2f800c0ca0000bdff00007af70000bdff0000e3
:10a3080029ff0000c7f6000066ee000066ee0000b8
:10a3180028e60000c8d50000abee000066ee00009d
:10a3280087ee0000ebcd00008b7b0000eecd000037
:10a33800e5dd000066ee0000e5dd0000e5dd00007b
:10a34800c5dd000085d5000086d5000086d5000053
:10a3580008de0000c8d50000e7b40000a8a400008b
:10a36800e88b0000eb830000a7cd00002cde000086
:10a37800eb5a0000e7390000c739000086310000b9
:10a3880030840000d4bd00004000000081080000b7
:10a3980065290000c7390000ad73000092940000e1
:10a3a80044210000a4b40000e2bc0000718c00004d
:10a3b8006529000034a50000a6310000718c00005a
:10a3c800a2100000718c0000e5dd0000cca40000a4
:10a3d8006529000022730000e5dd000083cc000041
:10a3e800c0ca0000c0ca0000ffff0000ffff000055
:10a3f800ffff0000ffff0000ffff0000c0ca0000d1
:10a40800c0ca0000c0ca0000c0ca0000c0ca00001c
:10a41800c0ca00007af700007af70000b6ee000024
:10a4280029ff000045e6000029ff000066ee000055
:10a438008f9c000089520000e5dd000066ee0000f8
:10a44800abee0000b09c0000a2100000ae7300004c
:10a4580088ee000088cd00000ad60000c5dd0000a7
:10a468006a94000048730000a75a000027420000c1
:10a4780075ad000092940000c7390000c73900008c
:10a4880086310000a21000002f840000139d0000f8
:10a4980000000000e73900002b630000e6390000e7
:10a4a800c7390000308400000000000034a5000017
:10a4b800e5dd0000e5dd000034a50000b1bd0000c9
:10a4c80044210000c21800008108000000000000bc
:10a4d8006529000034a50000c73900003084000059
:10a4e8008631000081080000a2100000a2100000c0
:10a4f80086310000899c0000e5dd0000c0ca00002c
:10a50800c0ca0000c0ca0000ffff0000ffff000033
:10a51800ffff0000ffff0000ffff0000c0ca0000af
:10a52800c0ca0000c0ca0000c0ca0000c0ca0000fb
:10a53800c0ca00007af700007af700007af7000036
:10a54800c7f60000c7f6000066ee000066ee0000e1
:10a55800244a000000000000ae73000066ee000010
:10a5680009de00006d6b0000000000008952000049
:10a57800a4dd00004c630000ef7b00006cbd000010
:10a588008631000065290000c6310000c739000087
:10a598000a8c00004c63000040000000308400007a
:10a5a80034a50000c6310000ca520000ef7b00004d
:10a5b8004421000034a50000e5dd00000dad0000d9
:10a5c800694a00006d6b000040000000e5dd0000f6
:10a5d800e5dd0000e5dd0000e5dd00006cbd000004
:10a5e80086310000274a0000687300002a630000d3
:10a5f80065290000f39c000008420000ae730000cb
:10a60800a6310000a6310000eb8300006a94000028
:10a618002db500002bde0000e5dd000083cc000036
:10a62800c0ca0000c0ca0000ffff0000ffff000012
:10a63800ffff0000ffff0000ffff0000c0ca00008e
:10a64800c0ca0000c0ca0000c0ca0000c0ca0000da
:10a65800c0ca0000b6ee00007af70000b6ee0000af
:10a66800c7f6000045e6000066ee000066ee000052
:10a678000242000000000000810800002ede0000f9
:10a688000ad600002842000000000000a6310000a1
:10a6980085d50000c5410000694a00009294000079
:10a6a800a21000006f940000d1c5000034a500007e
:10a6b800e5dd0000cc7b000065290000e5dd000039
:10a6c800e5dd0000284200004c63000030840000f3
:10a6d80089520000a4dd0000e5dd0000e7b40000b9
:10a6e800a95200006d6b0000a2100000718c0000e0
:10a6f800eecd00004bbd00002db5000010ad0000f0
:10a70800e7390000a6830000e5dd000012ce000056
:10a71800694a000030840000eb5a0000ae73000064
:10a72800eb5a0000308400008ee60000e5dd0000f2
:10a73800e5dd0000e5dd0000e5dd0000c0ca000041
:10a74800c0ca0000c0ca0000ffff0000ffff0000f1
:10a75800ffff0000ffff0000ffff0000c0ca00006d
:10a76800c0ca0000c0ca0000c0ca0000c0ca0000b9
:10a77800c0ca00007af70000b6ee00007af70000c1
:10a78800c7f6000045e60000e5dd0000caee00005f
:10a7980045520000e318000040000000ef7b000075
:10a7a800b1bd0000c7390000084200004421000084
:10a7b800e2bc0000855a000089520000ef7b0000cf
:10a7c8008952000034a5000007e60000e5dd00001e
:10a7d800e5dd00000a8c000024210000084200008a
:10a7e80028420000000000006d6b0000f39c000090
:10a7f800c6310000c88300002db500004873000072
:10a8080086310000718c0000284200008108000099
:10a818000842000008420000694a0000718c0000ec
:10a82800ae730000e88b0000e5dd00002cde0000c0
:10a838009294000075ad000052ad000071ad0000ab
:10a8480090bd0000cfc500004ae60000e5dd00002d
:10a85800e5dd0000e5dd0000e5dd000083cc00005b
:10a86800c0ca0000c0ca0000ffff0000ffff0000d0
:10a87800ffff0000ffff0000ffff0000c0ca00004c
:10a88800c0ca0000c0ca0000c0ca0000c0ca000098
:10a89800c0ca0000b6ee0000b6ee0000b6ee00003a
:10a8a800c7f6000045e6000066ee00008ee60000f0
:10a8b800eb5a0000694a000028420000a21000007c
:10a8c8004c630000274a0000ec830000e3180000f6
:10a8d8000a8c0000ec83000008420000ef7b0000b7
:10a8e800694a000050b500002ede0000accd000023
:10a8f80034a50000b09c0000e3180000c54100002a
:10a90800ec830000694a000065290000f39c000000
:10a918008952000081080000c73900008631000014
:10a92800074200006ebd0000eea400004c6300006a
:10a9380089520000ca5200006c730000b1bd0000cb
:10a94800d1c500006ac50000e5dd000028e600006a
:10a958002cde00000bd6000009de000008de000037
:10a96800e6dd0000e5dd0000e5dd0000e5dd0000d6
:10a97800e5dd0000e5dd0000e5dd0000c0ca0000ff
:10a98800c0ca0000c0ca0000ffff0000ffff0000af
:10a99800ffff0000ffff0000ffff0000c0ca00002b
:10a9a800c0ca0000c0ca0000c0ca0000c0ca000077
:10a9b800c0ca000090ff0000b6ee000090ff000043
:10a9c80045e6000045e60000e5dd00002bde00005e
:10a9d8002a630000ca520000f39c000024210000f2
:10a9e8004000000045520000a8a400008339000080
:10a9f8004c63000092940000a631000030840000ef
:10aa0800e739000086310000a9520000a631000095
:10aa1800694a0000ef7b0000c6390000638300002c
:10aa280028e600002db500004c630000b5bd00000d
:10aa38000ab50000ef7b00006c730000ec83000097
:10aa48000dad0000c5dd0000e7e50000ebcd00001e
:10aa580088cd0000c9d50000c9d5000028e600004f
:10aa680007e60000e5dd0000e5dd0000e5dd0000ab
:10aa7800e5dd0000e5dd0000e5dd0000e5dd0000c6
:10aa8800e5dd0000e5dd0000e5dd0000e5dd0000b6
:10aa9800e5dd0000e5dd0000e5dd000083cc000019
:10aaa800c0ca0000c0ca0000ffff0000ffff00008e
:10aab800ffff0000ffff0000ffff0000c0ca00000a
:10aac800c0ca0000c0ca0000c0ca0000c0ca000056
:10aad800c0ca000090e50000b6ee000090e5000056
:10aae800c7f60000c4dd000066ee0000c8d500000f
:10aaf8000a63000008420000e5dd0000ae730000b4
:10ab0800000000002a63000089c50000244a0000f4
:10ab180044210000718c000065290000b1940000f8
:10ab28000e840000a6310000694a0000ca520000e5
:10ab3800ef7b0000e5dd000033a5000029bd000023
:10ab4800e5dd0000c5dd0000accd000009de000039
:10ab5800e5dd000009de0000c8d50000e7dd0000e3
:10ab6800e6dd0000e5dd0000e5dd0000e5dd0000d4
:10ab7800e5dd0000e5dd0000e5dd0000e5dd0000c5
:10ab8800e5dd0000e5dd0000e5dd0000e5dd0000b5
:10ab9800e5dd0000e5dd0000e5dd0000e5dd0000a5
:10aba800e5dd0000e5dd0000e5dd0000e5dd000095
:10abb800e5dd0000e5dd0000e5dd0000c0ca0000bd
:10abc800c0ca0000c0ca0000ffff0000ffff00006d
:10abd800ffff0000ffff0000ffff0000c0ca0000e9
:10abe800c0ca0000c0ca0000c0ca0000c0ca000035
:10abf800c0ca000090e50000b6ee000090ff00001b
:10ac080045e6000045e60000e5dd000085d50000ca
:10ac1800464a000065290000e5dd000006bd000089
:10ac2800885200004994000029e6000010ad000099
:10ac380030840000e5dd0000139d0000cfc5000052
:10ac48002bde000090bd00000ab5000089c5000099
:10ac5800c8d5000028e60000e7dd0000c4dd0000dc
:10ac6800e5dd0000e5dd0000e5dd0000e5dd0000d4
:10ac7800e5dd0000e5dd0000e5dd0000e5dd0000c4
:10ac8800e5dd0000e5dd0000e5dd0000e5dd0000b4
:10ac9800e5dd0000e5dd0000e5dd0000e5dd0000a4
:10aca800e5dd0000e5dd0000e5dd0000e5dd000094
:10acb800e5dd0000e5dd0000e5dd0000e5dd000084
:10acc800e5dd0000e5dd0000e5dd0000e5dd000074
:10acd800e5dd0000e5dd000080ba0000c0ca000024
:10ace800c0ca0000cddc0000ffff0000ffff00002d
:10acf800ffff0000ffff0000ffff0000c0ca0000c8
:10ad0800c0ca0000c0ca0000c0ca0000c0ca000013
:10ad1800c0ca0000cddc000090ff000090e50000f4
:10ad280045e60000c4dd0000e5dd0000c4dd0000ec
:10ad38008f9c00009294000027e60000c4dd00000c
:10ad480085d50000a4dd0000e5dd000009de000077
:10ad5800c8d50000e6dd0000c5dd0000e5dd000027
:10ad6800e5dd0000e5dd0000e5dd0000e5dd0000d3
:10ad7800e5dd0000e5dd0000e5dd0000e5dd0000c3
:10ad8800e5dd0000e5dd0000e5dd0000e5dd0000b3
:10ad9800e5dd0000e5dd0000e5dd0000e5dd0000a3
:10ada800e5dd0000e5dd0000e5dd0000e5dd000093
:10adb800e5dd0000e5dd0000e5dd0000e5dd000083
:10adc800e5dd0000e5dd0000e5dd0000e5dd000073
:10add800e5dd0000e5dd0000e5dd0000e5dd000063
:10ade800e5dd0000e5dd0000e5dd0000e5dd000053
:10adf800e5dd000001d40000c0ca0000c0ca0000a0
:10ae0800c0ca000090e50000ffff0000ffff00003f
:10ae1800ffff0000ffff0000ffff000009dc00004b
:10ae2800c0ca0000c0ca0000c0ca0000c0ca0000f2
:10ae3800c0ca000045e6000090e5000090ff000051
:10ae4800c4dd0000c4dd0000c4dd0000c4dd000076
:10ae5800c4dd0000c4dd0000c4dd0000c4dd000066
:10ae6800c4dd0000c4dd0000c4dd0000c4dd000056
:10ae7800c4dd0000c4dd0000c4dd0000c4dd000046
:10ae8800c4dd0000c4dd0000c4dd0000c4dd000036
:10ae9800c4dd0000c4dd0000c4dd0000c4dd000026
:10aea800c4dd0000c4dd0000c4dd0000c4dd000016
:10aeb800c4dd0000c4dd0000c4dd0000c4dd000006
:10aec800c4dd0000c4dd0000c4dd0000c4dd0000f6
:10aed800c4dd0000c4dd0000c4dd0000c4dd0000e6
:10aee800c4dd0000c4dd0000c4dd0000c4dd0000d6
:10aef800c4dd0000c4dd0000c4dd0000c4dd0000c6
:10af080083cc000083cc0000c0ca000083cc0000c2
:10af1800c0ca0000c0ca0000c0ca0000c0ca000001
:10af280009dc0000ffff0000ffff0000ffff00003a
:10af3800ffff0000ffff0000ffff000009dc00002a
:10af4800c0ca0000c0ca0000c0ca0000c0ca0000d1
:10af5800c0ca0000cddc0000c7f6000090e5000084
:10af680045e60000c4dd0000c4dd0000c4dd0000cb
:10af7800c4dd0000c4dd0000c4dd0000c4dd000045
:10af8800c4dd0000c4dd0000c4dd0000c4dd000035
:10af9800c4dd0000c4dd0000c4dd0000c4dd000025
:10afa800c4dd0000c4dd0000c4dd0000c4dd000015
:10afb800c4dd0000c4dd0000c4dd0000c4dd000005
:10afc800c4dd0000c4dd0000c4dd0000c4dd0000f5
:10afd800c4dd0000c4dd0000c4dd0000c4dd0000e5
:10afe800c4dd0000c4dd0000c4dd0000c4dd0000d5
:10aff800c4dd0000c4dd0000c4dd000083cc000017
:10b0080083cc0000c0ca000083cc0000c0ca000086
:10b01800c0ca0000c0ca0000c0ca0000c0ca000000
:10b02800c0ca0000c0ca0000c0ca0000c0ca0000f0
:10b03800c0ca0000c0ca0000c0ca0000cddc0000c1
:10b04800ffff0000ffff0000ffff0000ffff000000
:10b05800ffff0000ffff0000ffff000090e5000079
:10b06800c0ca0000c0ca0000c0ca0000c0ca0000b0
:10b07800c0ca000045e6000090e5000090ff00000f
:10b0880045e60000c4dd0000c4dd0000c4dd0000aa
:10b09800c4dd0000c4dd0000c4dd0000c4dd000024
:10b0a800c4dd0000c4dd0000c4dd0000c4dd000014
:10b0b800c4dd0000c4dd0000c4dd0000c4dd000004
:10b0c800c4dd0000c4dd0000c4dd0000c4dd0000f4
:10b0d800c4dd0000c4dd0000c4dd0000c4dd0000e4
:10b0e800c4dd0000c4dd0000c4dd0000c4dd0000d4
:10b0f800c4dd0000c4dd0000c4dd0000c4dd0000c4
:10b1080083cc000083cc000083cc000083cc0000fb
:10b11800c0ca0000c0ca0000c0ca0000c0ca0000ff
:10b12800c0ca0000c0ca0000c0ca0000c0ca0000ef
:10b13800c0ca0000c0ca0000c0ca0000c0ca0000df
:10b14800c0ca0000c0ca000009dc000083cc0000af
:10b15800cddc0000b6ee00007af70000ffff00002b
:10b16800ffff0000ffff0000ffff0000ffff0000df
:10b17800ffff0000ffff0000ffff0000b6ee000029
:10b18800c0ca0000c0ca0000c0ca0000c0ca00008f
:10b19800c0ca0000cddc0000c7f6000090e5000042
:10b1a800c4dd0000c4dd0000c4dd0000c4dd000013
:10b1b800c4dd0000c4dd0000c4dd0000c4dd000003
:10b1c800c4dd0000c4dd0000c4dd0000c4dd0000f3
:10b1d800c4dd0000c4dd0000c4dd0000c4dd0000e3
:10b1e800c4dd0000c4dd0000c4dd0000c4dd0000d3
:10b1f800c4dd0000c4dd0000c4dd0000c4dd0000c3
:10b2080083cc000083cc000083cc0000c0ca0000bf
:10b21800c0ca0000c0ca0000c0ca0000c0ca0000fe
:10b22800c0ca0000c0ca0000c0ca0000c0ca0000ee
:10b23800c0ca0000c0ca0000c0ca0000c0ca0000de
:10b24800c0ca0000c0ca0000c0ca0000c0ca0000ce
:10b2580009dc0000cddc000090e50000b6ee00003f
:10b268007af70000ffff0000ffff0000ffff00006b
:10b27800ffff0000ffff0000ffff0000ffff0000ce
:10b28800ffff0000ffff0000ffff0000ffff0000be
:10b29800ffff0000ffff0000ffff0000ffff0000ae
:10b2a800c0ca0000c0ca0000c0ca0000c0ca00006e
:10b2b800c0ca000009dc0000c0ca0000c4dd0000ec
:10b2c800c4dd0000c4dd0000c4dd0000c4dd0000f2
:10b2d800c4dd0000c4dd0000c4dd0000c4dd0000e2
:10b2e800c4dd0000c4dd0000c4dd0000c4dd0000d2
:10b2f800c4dd0000c4dd0000c4dd0000c4dd0000c2
:10b3080083cc0000c4dd000083cc000083cc0000a7
:10b31800c0ca000083cc0000c0ca0000c0ca000038
:10b32800c0ca0000c0ca0000c0ca0000c0ca0000ed
:10b33800c0ca0000c0ca0000c0ca0000c0ca0000dd
:10b34800c0ca0000c0ca0000c0ca000009dc000072
:10b3580009dc000090e5000090e50000b6ee000072
:10b36800b6ee0000ffff0000ffff0000ffff000037
:10b37800ffff0000ffff0000ffff0000ffff0000cd
:10b38800ffff0000ffff0000ffff0000ffff0000bd
:10b39800ffff0000ffff0000ffff0000ffff0000ad
:10b3a800ffff0000ffff0000ffff0000ffff00009d
:10b3b800ffff0000ffff0000ffff0000ffff00008d
:10b3c800cddc0000c0ca0000c0ca0000c0ca00002e
:10b3d800c0ca0000c0ca0000c0ca0000c4dd000026
:10b3e800c4dd0000c4dd0000c4dd0000c4dd0000d1
:10b3f800c4dd0000c4dd0000c4dd0000c4dd0000c1
:10b40800c4dd000083cc000083cc0000c0ca00006b
:10b4180083cc0000c0ca0000c0ca0000c0ca000037
:10b42800c0ca0000c0ca0000c0ca0000c0ca0000ec
:10b43800c0ca0000c0ca0000c0ca0000c0ca0000dc
:10b44800c0ca0000c0ca0000c0ca0000c0ca0000cc
:10b4580009dc000009dc000090e5000090e5000030
:10b46800b6ee00007af70000ffff0000ffff0000c3
:10b47800ffff0000ffff0000ffff0000ffff0000cc
:10b48800ffff0000ffff0000ffff0000ffff0000bc
:10b49800ffff0000ffff0000ffff0000ffff0000ac
:10b4a800ffff0000ffff0000ffff0000ffff00009c
:10b4b800ffff0000ffff0000ffff0000ffff00008c
:10b4c800ffff0000ffff0000ffff0000ffff00007c
:10b4d800ffff0000ffff0000ffff0000ffff00006c
:10b4e800bdff000009dc0000c0ca0000c0ca00009f
:10b4f800c0ca0000c0ca0000c0ca0000c4dd000005
:10b50800c4dd0000c4dd000083cc000083cc000053
:10b5180083cc000083cc0000c0ca0000c0ca000071
:10b52800c0ca0000c0ca0000c0ca0000c0ca0000eb
:10b53800c0ca0000c0ca0000c0ca0000c0ca0000db
:10b54800c0ca0000c0ca0000c0ca0000c0ca0000cb
:10b5580009dc000083cc000090e5000090e50000c5
:10b56800b6ee00007af70000ffff0000ffff0000c2
:10b57800ffff0000ffff0000ffff0000ffff0000cb
:10b58800ffff0000ffff0000ffff0000ffff0000bb
:10b59800ffff0000ffff0000ffff0000ffff0000ab
:10b5a800ffff0000ffff0000ffff0000ffff00009b
:10b5b800ffff0000ffff0000ffff0000ffff00008b
:10b5c800ffff0000ffff0000ffff0000ffff00007b
:10b5d800ffff0000ffff0000ffff0000ffff00006b
:10b5e800ffff0000ffff0000ffff0000ffff00005b
:10b5f800ffff0000ffff0000ffff0000ffff00004b
:10b60800ffff0000b6ee0000c0ca0000c0ca00007c
:10b61800c0ca0000c0ca0000c0ca0000c0ca0000fa
:10b62800c0ca0000c0ca0000c0ca0000c0ca0000ea
:10b63800c0ca0000c0ca0000c0ca0000c0ca0000da
:10b64800c0ca0000c0ca0000c0ca0000c0ca0000ca
:10b6580009dc000009dc0000cddc0000cddc0000c6
:10b66800b6ee0000b6ee0000bdff0000ffff0000d0
:10b67800ffff0000ffff0000ffff0000ffff0000ca
:10b68800ffff0000ffff0000ffff0000ffff0000ba
:10b69800ffff0000ffff0000ffff0000ffff0000aa
:10b6a800ffff0000ffff0000ffff0000ffff00009a
:10b6b800ffff0000ffff0000ffff0000ffff00008a
:10b6c800ffff0000ffff0000ffff0000ffff00007a
:10b6d800ffff0000ffff0000ffff0000ffff00006a
:10b6e800ffff0000ffff0000ffff0000ffff00005a
:10b6f800ffff0000ffff0000ffff0000ffff00004a
:10b70800ffff0000ffff0000ffff0000ffff000039
:10b71800ffff0000ffff0000ffff0000ffff000029
:10b72800ffff0000ffff00007af7000009dc0000bf
:10b73800c0ca0000c0ca0000c0ca0000c0ca0000d9
:10b74800c0ca0000c0ca0000c0ca0000c0ca0000c9
:10b75800c0ca000083cc000009dc000090e50000ae
:10b7680090e500007af700007af70000ffff00007c
:10b77800ffff0000ffff0000ffff0000ffff0000c9
:10b78800ffff0000ffff0000ffff0000ffff0000b9
:10b79800ffff0000ffff0000ffff0000ffff0000a9
:10b7a800ffff0000ffff0000ffff0000ffff000099
:10b7b800ffff0000ffff0000ffff0000ffff000089
:10b7c800ffff0000ffff0000ffff0000ffff000079
:10b7d800ffff0000ffff0000ffff0000ffff000069
:10b7e800ffff0000ffff0000ffff0000ffff000059
:10b7f800ffff0000ffff0000ffff0000ffff000049
:10b80800ffff0000ffff0000ffff0000ffff000038
:10b81800ffff0000ffff0000ffff0000ffff000028
:10b82800ffff0000ffff0000ffff0000ffff000018
:10b83800ffff0000ffff0000ffff0000ffff000008
:10b84800ffff0000ffff0000ffff0000ffff0000f8
:10b8580090e5000009dc000009dc0000cddc0000f8
:10b8680090e5000090e50000b6ee0000ffff000044
:10b87800ffff0000ffff0000ffff0000ffff0000c8
:10b88800ffff0000ffff0000ffff0000ffff0000b8
:10b89800ffff0000ffff0000ffff0000ffff0000a8
:10b8a800ffff0000ffff0000ffff0000ffff000098
:10bee800ffff0000ffff0000ffff00000008000048
:10bef800480000004800000000000000400000006a
:10bf080081080000a2100000c2180000e318000019
:10bf1800242100004421000065290000863100002a
:10bf280083390000a6310000c6310000c639000080
:10bf380040e80000c7390000c5410000e6390000ac
:10bf480062e80000e73900000242000007420000f2
:10bf58000842000083e80000274a0000244a000045
:10bf68002842000027420000464a000045520000cf
:10bf780003e90000694a00008952000024e9000032
:10bf88008852000089520000855a0000a95200001a
:10bf980045f10000a75a0000ca52000085e90000d8
:10bfa800a6f10000eb5a0000ea5a0000a7f10000d1
:10bfb8000a63000022730000e6e9000080ba00006e
:10bfc8002a6300002b63000007f200004c630000a6
:10bfd8004873000045ea000063830000c0ca0000ff
:10bfe8006c6b000048f20000687300006c7300007e
:10bff8006d6b000049f2000067f2000088f2000053
:10c008008b7b0000a683000089f2000089f2000003
:10c01800ae730000ad730000c38b0000aaf20000ed
:10c02800c8830000c7f20000cc830000cc7b00006e
:10c03800ebf20000e88b0000ef7b0000eb830000d0
:10c04800ebf200000d8400000e84000028f30000cd
:10c058000a8c00002b8c00002af300002cf300004f
:10c06800308400002f840000499400006cf3000025
:10c078006df300006a9400006c94000001d4000085
:10c08800718c00008cf300008cf300006f940000aa
:10c09800aaf30000e3e30000899c0000abf3000072
:10c0a8008f9c00009294000028dc0000a8a40000e7
:10c0b800a4b40000b1940000b09c0000ecf30000b0
:10c0c800cba40000eff30000cca400000df40000a6
:10c0d800e7b40000e2bc0000eea400002cf400006d
:10c0e800f39c00004df4000006bd0000139d000005
:10c0f8000dad000010ad00000ab500006bf40000a3
:10c1080029bd0000a9ec000033a5000025c50000ea
:10c11800abec000034a500002db50000aef4000023
:10c1280050b50000b0fc00004bbd000052ad00004f
:10c13800cdf400006cbd000071ad000075ad0000cd
:10c148006ac500006ebd0000eff40000eef40000c8
:10c1580088cd00002aed0000d2fc000089c500004f
:10c1680090bd00000df50000f3f4000086d5000036
:10c1780085d500002ced0000a7cd0000f1fc0000e3
:10c1880012f50000b1bd0000a4dd00002dfd000087
:10c198004fe50000accd0000a4e500004ff500001d
:10c1a800a6dd0000c6dd0000b6b50000c8d5000059
:10c1b800b5bd0000c9d50000cfc50000c4dd000032
:10c1c800d4bd0000a7ed00006cf50000d1c500004b
:10c1d800ebcd0000e7dd00008df50000eecd00009e
:10c1e800abfd000008de000009de000006e60000e6
:10c1f8000bd600000ad6000006de000017be0000bd
:10c2080094fd000008e6000012ce000009e60000d8
:10c21800b1fd00002bde000028e600002cde000047
:10c22800d2ed0000b6fd000029e60000edfd00009b
:10c238002ede00002be60000edfd000048e60000c1
:10c2480048e6000051d600004ae6000047ee00002c
:10c2580048ee000011f6000071d6000066ee0000fe
:10c2680067ee00004cfe00002efe000087ee000086
:10c278008ede000088ee00008ee6000070f60000fa
:10c2880077e600008afe00006dfe0000abee0000bd
:10c2980072fe00008ffe0000caee000073fe000070
:10c2a800d0e6000075fe000096f60000cffe000004
:10c2b800ebfe000009ff00000aff00002bf700005a
:10c2c8000fff000029ff00004aff000032f70000be
:10c2d8002eff00004bff00004eff000031ff000062
:10c2e8006dff00003bff00009dff0000bdff000048
:10c2f800ffff0000ffff0000ffff0000ffff00003e
:10c30800ffff0000ffff0000ffff0000ffff00002d
:10c31800ffff0000ffff0000ffff0000ffff00001d
:10c32800ffff0000ffff0000ffff0000ffff00000d
:10c79800ffff0000ffff0000feec0000ecca0000f5
:10c7a800a6a600006c6c00006c6c00006cec00002d
:10c7b800fcff0000ffff0000ffff0000ffff00007c
:10c7c800ffff0000ffff0000ffff0000ffff000069
:10c7d800ffff0000ffff0000ffff0000ffff000059
:10c7e800ffff0000ffff0000ffff0000ffff000049
:10c7f800ffff0000ffff0000ffff0000ffff000039
:10c80800ffff0000ffff0000ffff0000ffff000028
:10c81800fffc0000eca60000a6a60000a66c000025
:10c828006c6c0000393900003939000039390000d2
:10c838003939000039390000393900003939000028
:10c848006ca60000ffff0000ffff0000ffff0000d4
:10c85800ffff0000ffff0000ffff0000ffff0000d8
:10c86800ffff0000ffff0000fffb0000fbec0000e3
:10c87800caa60000ca6c00006c6c00006ca6000020
:10c88800ecff0000ffff0000ffff0000ffff0000bb
:10c89800ffff0000ffff0000ffff0000ffff000098
:10c8a8006c6c000039390000393900003939000052
:10c8b80039390000393900003939000039390000a8
:10c8c8003939000039390000393900003939000098
:10c8d800393900006cca0000fbff0000ffff0000b0
:10c8e800fffe0000ecec0000caa60000a6a60000af
:10c8f8006c6c000039390000393900003939000002
:10c908003939000039390000393900003939000057
:10c9180039ec0000ffff0000ffff0000ffff0000f0
:10c92800ffff0000ffff0000ffff0000ffa6000060
:10c938003939000039390000393900003939000027
:10c948003939000039390000393900003939000017
:10c958003939000039390000393900003939000007
:10c9680039390000393900003939000039390000f7
:10c9780039390000393900003939000039390000e7
:10c9880039390000393900003939000039390000d7
:10c9980039390000393900003939000039390000c7
:10c9a80039390000fdff0000ffff0000ffff000015
:10c9b800ffff0000ffff0000ffff0000fb39000041
:10c9c8003939000039390000393900003939000097
:10c9d8003939000039390000393900003939000087
:10c9e8003939000039390000393900003939000077
:10c9f8003939000039390000393900003939000067
:10ca08003939000039390000393900003939000056
:10ca18003939000039390000393900003939000046
:10ca28003939000039390000393900003939000036
:10ca380039390000caec0000a6a60000cafc0000b4
:10ca4800ffff0000ffff0000ffff0000ec390000bf
:10ca58003939000039390000393900003939000006
:10ca680039390000393900003939000039390000f6
:10ca780039390000393900003939000039390000e6
:10ca880039390000393900003939000039390000d6
:10ca980039390000393900003939000039390000c6
:10caa80039390000393900003939000039390000b6
:10cab80039390000393900003939000039390000a6
:10cac8003939000039390000393900003939000096
:10cad800ecff0000ffff0000ffff0000a639000088
:10cae8003939000039390000393900003939000076
:10caf8003939000039390000393900003939000066
:10cb08003939000039390000393900003939000055
:10cb18003939000039390000393900003939000045
:10cb28003939000039390000393900003939000035
:10cb38003939000039390000393900003939000025
:10cb48003939000039390000393900003939000015
:10cb58003939000039390000393900003939000005
:10cb680039ec0000ffff0000ffff0000a6390000bd
:10cb780039390000393900003939000039390000e5
:10cb880039390000393900003939000039390000d5
:10cb980039390000393900003939000039390000c5
:10cba80039390000393900003939000039390000b5
:10cbb80039390000393900003939000039390000a5
:10cbc8003939000039390000393900003939000095
:10cbd80039390000393900006161000061610000e5
:10cbe800b1b10000d9d90000f3f30000d939000031
:10cbf800396c0000ffff0000ffff0000a6390000ad
:10cc08003939000039390000393900003939000054
:10cc18003939000039390000393900003939000044
:10cc28003939000039390000393900003939000034
:10cc38003939000039390000393900003939000024
:10cc48003939000039390000393900003939000014
:10cc58003939000039610000396c000061b1000009
:10cc68006cd90000d9f30000f3f30000f3f30000df
:10cc7800d9f30000d9f30000d9f30000d9b10000be
:10cc880039390000ffff0000ffff0000ca3900002b
:10cc980039390000393900003939000039390000c4
:10cca80039390000393900003939000039390000b4
:10ccb80039390000393900003939000039390000a4
:10ccc8003939000039390000393900003939000094
:10ccd8003961000061610000b16c0000d9d9000021
:10cce800f3f30000f3f30000f3f30000f3f30000a4
:10ccf800f3f30000f3f30000f3f30000f3f3000094
:10cd0800f3f30000f3d90000f3d90000f361000049
:10cd180039390000ffff0000ffff0000a6390000be
:10cd28003939000039390000393900003939000033
:10cd38003939000039390000393900003939000023
:10cd480039390000393900003939000039610000eb
:10cd5800616c000061b10000d9d90000d9f300006e
:10cd6800f3f30000f3f30000f3f30000f3f3000023
:10cd7800f3f30000f3f30000f3f30000f3f3000013
:10cd8800f3f30000f3f30000f3f30000d9f300001d
:10cd9800d9f30000d9f30000d9f30000d9610000ed
:10cda80039390000ffff0000ffff0000a63900002e
:10cdb80039390000393900003939000039390000a3
:10cdc8003939000039390000393900006161000043
:10cdd800b1b10000d9d90000f3f30000f3f300006b
:10cde800f3f30000f3f30000f3f30000f3f30000a3
:10cdf800f3f30000f3f30000f3f30000f3f3000093
:10ce0800f3f30000f3f30000f3f30000f3f3000082
:10ce1800f3f30000f3f30000f3f30000f3d900008c
:10ce2800f3d90000f3d90000f3d90000d96100005c
:10ce380039390000ffff0000ffff0000a63900009d
:10ce48003939000039390000393900003939000012
:10ce580061d90000d9f30000f3f30000f3f30000f8
:10ce6800f3f30000f3f30000f3f30000f3f3000022
:10ce7800f3f30000f3f30000f3f30000f3f3000012
:10ce8800f3f30000f3f30000f3f30000f3f3000002
:10ce9800f3f30000f3f30000f3f30000f3f30000f2
:10cea800f3f30000f3f30000d9f30000d9f3000016
:10ceb800d9d90000d9d90000d9d90000d96100001a
:10cec800396c0000ffff0000ffff0000ca390000b6
:10ced8003939000039390000393900003939000082
:10cee800f3f30000f3f30000f3f30000f3f30000a2
:10cef800f3f30000f3f30000f3f30000f3f3000092
:10cf0800f3f30000f3f30000f3f30000f3f3000081
:10cf1800f3f30000f3f30000f4f30000f3f3000070
:10cf2800f3f30000f3f30000f3f30000f3f3000061
:10cf3800f3f30000f3f30000f3d90000f3d9000085
:10cf4800f3d90000f3d90000d9d90000d93900007d
:10cf5800396c0000ffff0000ffff0000a639000049
:10cf680039390000393900003939000039610000c9
:10cf7800f3f30000f3f30000f3f30000f3f3000011
:10cf8800f3f30000f3f30000f3f30000f3f3000001
:10cf9800f3f30000f3f30000f3f30000f3f30000f1
:10cfa800e7b800009bc60000f3ee0000fade0000c0
:10cfb800d8f80000f3f30000f3f30000f3f30000e7
:10cfc800f3f30000d9f30000d9f30000d9d9000029
:10cfd800d9d90000d9d90000d9d90000b161000021
:10cfe800396c0000ffff0000ffff0000a6390000b9
:10cff8003939000039390000393900003961000039
:10d00800f3f30000f3f30000f3f30000f3f3000080
:10d01800f3f30000f3f30000f3f30000f3f3000070
:10d02800f3f30000f3f30000f3f70000dba20000c5
:10d038005d3b00003434000034580000ebc10000b0
:10d04800acf50000f4f30000f3f30000f3f3000084
:10d05800f3f30000f3d90000f3d90000f3d900007e
:10d06800f3d90000d9d90000d9d90000d939000076
:10d07800396c0000ffff0000ffff0000a639000028
:10d0880039390000393900003939000039610000a8
:10d09800f3f30000f3f30000f3f30000f3f30000f0
:10d0a800f3f30000f3f30000f3f30000f3f30000e0
:10d0b800f3f30000f3f30000f3e900005d2600003d
:10d0c80021210000212100001e1700005ee200005f
:10d0d800eaf10000f3f30000d9f30000d9f30000ef
:10d0e800d9f30000d9d90000d9d90000d9d9000056
:10d0f800d9d90000b1d90000b1d90000b161000050
:10d10800396c0000ffff0000ffff0000ca39000073
:10d118003939000039390000393900003961000017
:10d12800f3f30000f3f30000f3f30000f3f300005f
:10d13800f3f30000f3f30000f3f30000f3f300004f
:10d14800f3f30000f3f30000d03f000012170000d3
:10d158001e21000021210000212900002a79000059
:10d16800eef30000f3f30000f3d90000f3d9000058
:10d17800f3d90000f3d90000d9d90000d9d90000ab
:10d18800d9d90000d9d90000d9b10000d939000097
:10d19800396c0000ffff0000ffff0000a639000007
:10d1a8003939000039390000393900003961000087
:10d1b800f3f30000f3f30000f3f30000f3f30000cf
:10d1c800f3f30000f3f30000f3f30000f3f30000bf
:10d1d800f3f30000f4e600003b120000293f0000d2
:10d1e800291e0000212100002a9500006930000056
:10d1f8008ef00000d9f30000d9f30000d9d900005f
:10d20800d9d90000d9d90000d9d90000b1d9000076
:10d21800b1d90000b1d90000b1d90000b161000056
:10d22800396c0000ffff0000ffff0000a639000076
:10d2380039390000393900003939000039610000f6
:10d24800f3f30000f3f30000f3f30000f3f300003e
:10d25800f3f30000f3f30000f3f30000f3f300002e
:10d26800f3f30000f0630000172100004ee4000013
:10d27800812100001e21000055f30000e34b00004f
:10d28800348e0000f4d90000f3d90000f3d900006f
:10d29800f3d90000d9d90000d9d90000d9d90000a4
:10d2a800d9b10000d9b10000d9b10000d9310000ce
:10d2b800396c0000ffff0000ffff0000a6390000e6
:10d2c8003939000039390000393900003961000066
:10d2d800f3f30000f3f30000f3f30000f3f30000ae
:10d2e800f3f30000f3f30000f3f30000f3f300009e
:10d2f800f3f30000c629000021290000a1f800006e
:10d30800ef5500001e210000f3f30000f3dc0000dd
:10d318002d520000d6f30000d9d90000d9d9000059
:10d32800d9d90000d9d90000b1d90000b1d900007d
:10d33800b1b10000b1b10000b1b10000b1610000ad
:10d34800396c0000ffff0000ffff0000ca39000031
:10d3580039390000393900003939000039610000d5
:10d36800f3f30000f3f30000f3f30000f3f300001d
:10d37800f3f30000f3f30000f3f30000f3f300000d
:10d38800f3f700007121000021340000f9f30000d8
:10d39800f3e4000029590000f7f30000f3f7000058
:10d3a800892100009cda0000d9d90000d9d90000f1
:10d3b800d9d90000d9d90000d9b10000d9b10000ed
:10d3c800d9b10000d9b10000b1b10000b1310000fd
:10d3d800396c0000ffff0000ffff0000a6390000c5
:10d3e8003939000039390000393900003961000045
:10d3f800f3f30000f3f30000f3f30000f3f300008d
:10d40800f3f30000f3f30000f3f30000f3f300007c
:10d41800f3f30000491e000021440000f6f3000069
:10d42800f3f3000095210000cbf40000d9f30000cd
:10d438008e6400002ab40000ddd90000b1d90000d4
:10d44800b1d90000b1d90000b1d90000b1b10000d4
:10d45800b1b10000b1b10000b1b10000b16100008c
:10d46800396c0000ffff0000ffff0000a639000034
:10d4780039390000393900003939000039610000b4
:10d48800f3f30000f3f30000f3f30000f3f30000fc
:10d49800f3f30000f3f30000f3f30000f3f30000ec
:10d4a800f3e7000045120000522a00008bf000004c
:10d4b800f3f30000e46300002aba0000f7d9000083
:10d4c800f3e1000041490000b3d90000d9b10000e0
:10d4d800d9b10000d9b10000d9b10000b1b1000044
:10d4e800d9b10000b1b10000b1b10000b131000004
:10d4f800396c0000ffff0000ffff0000a6390000a4
:10d508003939000039390000393900003961000023
:10d51800f3f30000f3f30000f3f30000f3f300006b
:10d52800f3f30000f3f30000f3f30000f3f300005b
:10d53800f3db0000402a0000f389000034a5000056
:10d54800faf40000f3e40000404e0000d7df0000ca
:10d55800d9dd00009f45000067d90000b1d900005f
:10d56800b1b10000b1b10000b1b10000b1b100002b
:10d57800b1b10000b1b10000b1b10000b16100006b
:10d58800396c0000ffff0000ffff0000ca390000ef
:10d598003939000039390000393900003961000093
:10d5a800f3f30000f3f30000f3f30000f3f30000db
:10d5b800f3f30000f3f30000f3f30000f3f30000cb
:10d5c800f3db000041690000f0f600006659000036
:10d5d800d7f70000f3f30000cd4e000064e400002c
:10d5e800ddd90000e5a90000b8b10000d9b10000fc
:10d5f800b1b10000b1b10000b1b10000b1b100009b
:10d60800b1b10000b1b10000b1b10000b13100000a
:10d61800396c0000ffff0000ffff0000a639000082
:10d628003939000039390000393900003961000002
:10d63800f3f30000f3f30000f3f30000f3f300004a
:10d64800f3f30000f3f30000f3f30000f3f300003a
:10d65800f3e300008bc60000f3f30000dc59000080
:10d6680058ed0000ddd90000e88600002a7b0000a4
:10d67800c3d90000b1c30000cfb10000b1b10000b0
:10d68800b1b10000b1b10000b1b10000b1b100000a
:10d69800b1b10000b1b10000b1b10000b16100004a
:10d6a800396c0000ffff0000ffff0000a6390000f2
:10d6b8003939000039390000393900003961000072
:10d6c800f3f30000f3f30000f3f30000f3f30000ba
:10d6d800f3f30000f3f30000f3f30000f3f30000aa
:10d6e800f3ef0000edf20000f3f30000ed5200004c
:10d6f8001e750000efd90000df9400001e34000002
:10d70800b4b10000d9b10000b1b10000b1b100005e
:10d71800b1b10000b1b10000b1b10000b1b1000079
:10d72800b1b10000b1b10000b1b10000b1310000e9
:10d73800396c0000ffff0000ffff0000a639000061
:10d7480039390000393900003939000039610000e1
:10d75800f3f30000f3f30000f3f30000f3f3000029
:10d76800f3f30000f3f30000f3f30000f3f3000019
:10d77800f3f30000f3f30000d9f70000c221000022
:10d788001e2600008ed90000a83b00001e1e0000c7
:10d798003b980000b1b10000b1b10000b1b1000088
:10d7a800b1b10000b1b10000b1b10000b1b10000e9
:10d7b800b1b10000b1b10000b1b10000b161000029
:10d7c800396c0000ffff0000ffff0000ca390000ad
:10d7d8003939000039390000393900003961000051
:10d7e800f3f30000f3f30000f3f30000f3f3000099
:10d7f800f3f30000f3f30000f3f30000f3f3000089
:10d80800f3f30000f3f30000f3d50000451e000019
:10d818002121000034b10000791e00002121000000
:10d8280012730000aab10000b1b10000b1b100004c
:10d83800b1b10000b1b10000b1b10000b1b1000058
:10d84800b1b10000b1b10000b1b10000b1310000c8
:10d8580039a60000ffff0000ffff0000a639000006
:10d8680039390000393900003939000039610000c0
:10d87800f3f30000f3f30000f3f30000f3f3000008
:10d88800f3f30000f3f30000f3f30000d9f3000012
:10d89800d9f30000d9d90000d98b00001721000066
:10d8a80021210000212a000021210000211200006e
:10d8b80021980000c5b10000b1b10000b1b100006d
:10d8c800b1b10000b1b10000b1b10000b1b10000c8
:10d8d800b1b10000b1b10000b1b10000b131000038
:10d8e80039a60000ffff0000ffff0000a639000076
:10d8f8003939000039390000393900003961000030
:10d90800f3f30000f3f30000f3f30000f3f3000077
:10d91800f3f30000f3f30000f3f30000f3d9000081
:10d92800f3d90000f3d90000d96600002a1e0000d0
:10d938001721000021210000211e0000213b0000ca
:10d948007bb10000b1b10000b1b10000b1b100007d
:10d95800b1b10000b1b10000b1b10000b1b1000037
:10d96800b1b10000b1b10000b1b10000b1310000a7
:10d9780039a60000ffff0000ffff0000a6390000e5
:10d98800393900003939000039390000396100009f
:10d99800f3f30000f3f30000d9f30000d9f300001b
:10d9a800d9f30000d9f30000d9d90000d9d9000073
:10d9b800d9d90000d9d90000b1da00009b5e000077
:10d9c8003b1e00000e1200001721000037860000e1
:10d9d800b1b10000b1b10000b1b10000b1b10000b7
:10d9e800b1b10000b1b10000b1b10000b1b10000a7
:10d9f800b1b10000b1b10000abb10000b13100001d
:10da080039a60000ffff0000ffff0000ca39000030
:10da1800393900003939000039390000396100000e
:10da2800f3f30000f3f30000f3d90000f3d900008a
:10da3800f3d90000f3d90000f3d90000d9d90000c8
:10da4800d9d90000d9b10000d9b10000ddb100007a
:10da5800978300005e3b00003b830000b1b10000eb
:10da6800b1b10000b1b10000b1b10000b1b1000026
:10da7800b1b10000b1b10000abaf000092b9000035
:10da8800604d00003a35000062be0000b131000070
:10da980039a60000ffff0000ffff0000a6390000c4
:10daa8003939000039390000393900003161000086
:10dab800d9f30000d9f30000d9f30000d9d9000048
:10dac800d9d90000d9d90000d9d90000b1d90000ae
:10dad800b1d90000b1b10000b1b10000b1b100008e
:10dae800b1b10000c3b10000b1b10000b1b1000094
:10daf800b1b10000b1a400009e85000099b90000f2
:10db080072a40000ccc100005aac0000357a0000b5
:10db1800080100000101000001480000b1310000c7
:10db280039a60000ffff0000ffff0000a639000033
:10db380039390000393900003939000039610000ed
:10db4800f3f30000f3d90000f3d90000f3d9000083
:10db5800f3dd0000d2dd0000d9d90000d9b1000002
:10db6800d9b10000d9b10000b1b10000b1b10000d5
:10db7800a4ab0000b1b100009d850000766d0000e7
:10db8800d3c000005b2300001f1a00003e7d000088
:10db98001a9e0000bd870000077a0000085a00009e
:10dba800026b0000b1b1000007380000b13100007d
:10dbb80039a60000ffff0000ffff0000a6390000a3
:10dbc800313900003139000031390000316100007d
:10dbd800d9d90000d9d90000d1ad0000e5d900009d
:10dbe800ddb6000042b90000b1d90000b1b10000b3
:10dbf800ab9e00009d9d0000bbad0000766d00004f
:10dc08004f510000a0c900002b1300000f090000ad
:10dc18005ab2000001020000080f0000476b000024
:10dc2800076e000077620000088700000b620000a2
:10dc380003620000b1740000082f0000b131000039
:10dc480039a60000ffff0000ffff0000ca390000ee
:10dc580039390000393900003931000039610000d4
:10dc6800f3d90000f3d900006a230000b1d90000fd
:10dc7800e570000003460000d2960000bfab00002c
:10dc88005f360000271b0000916b00000f0f00009b
:10dc9800090300005b7d0000001300003311000041
:10dca8000f5a000000870000b1b1000087a30000f0
:10dcb8000704000002000000088700000f5a000057
:10dcc800090200000303000009680000b1310000e8
:10dcd80039a60000ffff0000ffff0000a639000082
:10dce8003939000031390000313900003161000054
:10dcf800d9d90000d9d900001900000046d9000080
:10dd0800bc3e000000230000a4350000508f000036
:10dd1800090800000c0f000056350000015a0000e9
:10dd2800870c00002850000007870000b17e000023
:10dd38001f3e000001b10000b1b10000b18f00002a
:10dd4800091800003c320000087a0000164600005e
:10dd58000b0b0000515f000088c70000b1310000c4
:10dd680039a60000ffff0000ffff0000a6390000f1
:10dd780039390000393100003931000039390000e3
:10dd8800d9d90000d9d900001400000002ce000043
:10dd9800bf1a0000000b00009e1000001f6b00005f
:10dda80003650000b5870000b14d000008b1000010
:10ddb800b11a0000355a000020a40000b176000016
:10ddc800253e000003620000b98c0000887f000037
:10ddd80013430000b1c400001f5a00002b46000086
:10dde8002b5a0000e0b10000b1b10000b1310000d1
:10ddf80039a60000ffff0000ffff0000a639000061
:10de0800313100003139000031310000316100004a
:10de1800b1d90000b1e800001d0500000150000064
:10de2800a30f00001607000077240000235000000d
:10de380023870000bdb10000b1570000061600009e
:10de48001a0000003e7a00000c4a000088360000e4
:10de5800096200001a020000161600001f62000086
:10de6800464f0000b1c900006b9100008d90000082
:10de78009ab00000d4b10000b1b10000b131000087
:10de880039a60000ffff0000ffff0000ca390000ac
:10de980039310000393100003131000031390000da
:10dea800d9b10000d9e000002c1f00001a030000bf
:10deb8003518000053050000564c000016500000ad
:10dec8001f8a0000cea70000877000000510000020
:10ded8004c1f0000087a0000230200000f09000010
:10dee8001593000078350000232800003da30000aa
:10def800b5920000b1c80000c9be0000bcbb00005c
:10df0800bdb10000b1b10000b1b10000b1310000f5
:10df180039a60000ffff0000ffff0000a63900003f
:10df28003139000031310000313100003161000029
:10df3800b1d90000b1c70000322800007a060000fd
:10df4800011d00006d0a0000356b00000b5a00002f
:10df580013090000250b00001f5000000d380000b9
:10df6800c888000035ae0000805000003d53000016
:10df78007eab0000c3b6000096af0000afc800003b
:10df8800bdb10000b1b10000b1b10000b1b10000f5
:10df9800b1b10000b1b10000b1b10000b131000071
:10dfa80039a60000ffff0000ffff0000a6390000af
:10dfb80039310000313100003131000031310000c9
:10dfc800d9b10000d9ad00002e160000b1460000fe
:10dfd800003200009919000007620000086f000075
:10dfe800540b00001f28000050b10000848200007c
:10dff800b1ab0000a7bc0000b1bc0000adb7000089
:10e00800c0b10000b1b10000b1b10000b1b1000071
:10e01800b1b10000b1b10000b1b10000b1b1000070
:10e02800b1b10000b1b10000b1b10000b1310000e0
:10e0380039ec0000ffff0000ffff0000a6390000d8
:10e048003131000031310000313100003161000010
:10e05800b1b10000b19e00001c080000b17c0000b6
:10e06800225c0000cc7f00005ab100007db00000a7
:10e07800c79a000080990000adc80000b7b1000041
:10e08800b1b10000b1b10000b1b10000b1b1000000
:10e09800b1b10000b1b10000b1b10000b1b10000f0
:10e0a800b1b10000b1b10000b1b10000b1b10000e0
:10e0b800b1b10000b1b10000b1b1000031390000c8
:10e0c80039fc0000ffff0000ffff0000ca39000014
:10e0d80039310000313100003131000031310000a8
:10e0e800b1b10000b1b100006a6b0000c0b100001e
:10e0f8009ea40000b1bc0000adbd0000abb10000a3
:10e10800b1b10000b1b10000b1b10000b1b100007f
:10e11800b1b10000b1b10000b1b10000b1b100006f
:10e12800b1b10000b1b10000b1b10000b1b100005f
:10e13800b1b10000b1b10000b1b10000b1b100004f
:10e14800b1b10000b1b10000b1610000393900007f
:10e158006cff0000ffff0000ffff0000a639000071
:10e168003131000031310000313100003139000017
:10e17800b1b10000b1b10000b7ab0000b1b100000f
:10e18800b1b10000b1b10000b1b10000b1b10000ff
:10e19800b1b10000b1b10000b1b10000b1b10000ef
:10e1a800b1b10000b1b10000b1b10000b1b10000df
:10e1b800b1b10000b1b10000b1b10000b1b10000cf
:10e1c800b1b10000b1b10000b1b10000616100005f
:10e1d8006161000031390000313900003961000007
:10e1e800fbff0000ffff0000ffff0000ec3900000c
:10e1f8003931000031310000313100003131000087
:10e20800b1b10000b1b10000b1b10000b1b100007e
:10e21800b1b10000b1b10000b1b10000b1b100006e
:10e22800b1b10000b1b10000b1b10000b1b100005e
:10e23800b1b10000b1b10000b1b10000b1b100004e
:10e24800b1b10000b1b10000b1b10000b16100008e
:10e258006161000061310000393100003939000086
:10e268003939000039390000393900006cfc0000e8
:10e27800ffff0000ffff0000ffff0000fb39000068
:10e2880031310000313100003131000031610000ce
:10e29800b1b10000b1b10000b1b10000b1b10000ee
:10e2a800b1b10000b1b10000b1b10000b1b10000de
:10e2b800b1b10000b1b10000b1b10000b1b10000ce
:10e2c800b1b10000b1b10000b1b10000b1b10000be
:10e2d8006161000031610000313100003139000016
:10e2e8003139000039390000393900003939000066
:10e2f800396100006ca60000a6fb0000ffff0000cb
:10e30800ffff0000ffff0000ffff0000ff390000d3
:10e318003931000031310000313100003161000035
:10e32800b1b10000b1b10000b1b10000b1b100005d
:10e33800b1b10000b1b10000b1b10000b1b100004d
:10e34800b1b10000b1b10000b1b10000b16100008d
:10e35800b161000061310000613100003931000015
:10e3680039390000393900003939000039390000dd
:10e37800393900006c6c0000a6ca0000fbfb0000e5
:10e38800ffff0000ffff0000ffff0000ffff00008d
:10e39800ffff0000ffff0000ffff0000ffa60000d6
:10e3a800393900003131000031310000316100009d
:10e3b800b1b10000b1b10000b1b10000b1b10000cd
:10e3c800b1b10000b1b10000b1b10000b1b10000bd
:10e3d800616100003161000031390000313900000d
:10e3e8003139000039390000393900003939000065
:10e3f80039390000396c00006ca60000caec000036
:10e40800fcff0000ffff0000ffff0000ffff00000f
:10e41800ffff0000ffff0000ffff0000ffff0000fc
:10e42800ffff0000ffff0000ffff0000ffec0000ff
:10e4380039390000313100003131000031b10000bc
:10e44800b1b10000b1b10000b1b10000b1b100003c
:10e45800b16100006139000061310000393100000c
:10e4680039390000393900003939000039390000dc
:10e4780039390000396c0000a6a60000caec00007b
:10e48800fbff0000ffff0000ffff0000ffff000090
:10e49800ffff0000ffff0000ffff0000ffff00007c
:10e4a800ffff0000ffff0000ffff0000ffff00006c
:10e4b800ffff0000ffff0000ffff0000ffff00005c
:10e4c8006c390000313100003131000061b10000c9
:10e4d80061610000616100003139000031310000e4
:10e4e8003139000039390000393900003939000064
:10e4f80039390000396c00006ca60000a6ec000059
:10e50800ecfe0000ffff0000ffff0000ffff00001f
:10e51800ffff0000ffff0000ffff0000ffff0000fb
:10e52800ffff0000ffff0000ffff0000ffff0000eb
:10e53800ffff0000ffff0000ffff0000ffff0000db
:10e54800ffff0000ffff0000ffff0000ffff0000cb
:10e55800fd6c00003939000031310000393100000c
:10e5680039310000393900003939000039390000e3
:10e5780039390000393900006c6c0000caca000043
:10e58800ecfb0000ffff0000ffff0000ffff0000a2
:10e59800ffff0000ffff0000ffff0000ffff00007b
:10e5a800ffff0000ffff0000ffff0000ffff00006b
:10e5b800ffff0000ffff0000ffff0000ffff00005b
:10e5c800ffff0000ffff0000ffff0000ffff00004b
:10e5d800ffff0000ffff0000ffff0000ffff00003b
:10e5e800fffc00006c39000039390000393900009f
:10e5f80039390000393900006c6c0000a6ca0000e7
:10e60800ecfb0000ffff0000ffff0000ffff000021
:10e61800ffff0000ffff0000ffff0000ffff0000fa
:10e62800ffff0000ffff0000ffff0000ffff0000ea
:10e63800ffff0000ffff0000ffff0000ffff0000da
:10e64800ffff0000ffff0000ffff0000ffff0000ca
:10e65800ffff0000ffff0000ffff0000ffff0000ba
:10e66800ffff0000ffff0000ffff0000ffff0000aa
:10e67800ffff0000ffec0000a66c0000a6a600004b
:10e68800ecec0000feff0000ffff0000ffff0000b1
:10e69800ffff0000ffff0000ffff0000ffff00007a
:10e6a800ffff0000ffff0000ffff0000ffff00006a
:10e6b800ffff0000ffff0000ffff0000ffff00005a
:10e6c800ffff0000ffff0000ffff0000ffff00004a
:10eb7800ffff0000ffff000000040000100000007d
:10eb88001000000049ff000009ff000027f6000000
:10eb9800e6ed000025e50000c4e4000063dc0000a9
:10eba800c2d30000e0ca000028dc00006adc0000d4
:10ebb8006fe5000055ee00003aff0000ffff00007f
:10ebc80000000000ffff0000ffff0000ffff000043
:10ebd800ffff0000ffff0000ffff0000ffff000035
:10ebe800ffff0000ffff0000ffff0000ffff000025
:10ebf800ffff0000cf990000999900009999000043
:10ec080099fc00006c220000222200002222000051
:10ec180022c600004b0000000042000044430000f0
:10ec280000b400006c0000006088000088680000e4
:10ec380000c700007c0000007445000084780000d4
:10ec480000f700008f000000140000008277000029
:10ec580000f800008f000000000000000000000025
:10ec680020f900009f020000772800000041000002
:10ec780030fa00009f020000874800005447000057
:10ec880040fb0000bf0400008688000088060000e2
:10ec980060fc0000bf0400003444000024000000b1
:10eca80070fc0000ff270000222200002222000042
:10ecb80092ff0000ff9c00009999000099990000bc
:10ecc800c9ff0000e0538800f1538800025488000f
:10ecd80013548800000006000080fb00d053880011
:10ece80000000600889fbe008a9fbe008c1f780027
:10ecf8000005780001047800820578000306780092
:10ed0800e71b07000002eb00840f500008003200e8
:10ed18000c0037008800780009007800d716070033
:10ed28008904e800898f5500faff3d000804e800cf
:10ed3800880f5600020035008a047800f9ff370072
:10ed480014002000040078004f0678004f05be002c
:10ed58004f04be0000000600ec874700889fbe00f5
:10ed68008a9fbe008c9fbe008e1f78000004be00e4
:10ed78000205be00ca1b0700800078000000eb00f7
:10ed8800808f50009e003a00fa4788000b488800a0
:10ed98008a0f540020003a008b8f5400030034007f
:10eda800090078008b047800800578001c0020009a
:10edb8000005eb000c0744008806e9001300370043
:10edc8000a05e800d0478000800f550002003a008d
:10edd8000c00a2000005eb00e00f56000a0032000c
:10ede8000800be00a5160700fcc8bf0006003200d8
:10edf800890078000e007800a016070089007800c6
:10ee08000d0078009d1607008904e800898f5500d9
:10ee1800ebff3d00790037008b8f540020003a004b
:10ee28008a0f540003003400080078000a047800b0
:10ee3800000578001c0020008005eb000c874400ca
:10ee48008906e900130037008b05e800d0478000e9
:10ee5800808f550002003a000c00a2008005eb00ec
:10ee6800e00f56000a0032000800be0083160700b3
:10ee7800fcc8bf00060032008e0078000800780049
:10ee88007e1607008d007800080078007b160700c2
:10ee98000804e800880f5500ebff3d0057003700d5
:10eea800080555001000200080bf9f0003003b00ac
:10eeb8000a05ea008080eb0081bf9f008985550024
:10eec80010002000f0b79f0003003b008b05ea000c
:10eed8008080eb00f1b79f008b0f55000e003d00be
:10eee8000800be00651607000fb89700ffb097002e
:10eef80081bf9f00f0b79f000a0078000b057800db
:10ef080080057800080078000904780080047800fb
:10ef18001d002000030037000800be005716070038
:10ef28008006eb000a004500d0b79f008b8545009e
:10ef3800ebb79f000a8655001b0020000007eb0076
:10ef48008def9f002b003700e00f560004003500be
:10ef58007fb0970080844400dfb097000106560018
:10ef68000fb8970000044400efb097000106460070
:10ef78000e07e800d0478000800f570002003a00d3
:10ef88000b00a2000007eb00e08f550019003200cb
:10ef9800e08f56000b0032008800780009007800e6
:10efa80036160700fcc8bf00120032000900e8004e
:10efb80088007800311607000900e9008800780009
:10efc8000b0037000800be002c160700fcc8bf0065
:10efd8008fe89700814f5000060032008900e80052
:10efe80008007800251607008900e9000800780065
:10eff800221607000a05e900d3ff3b001000200095
:10f008004f0778004f06be004f05be004f04be00f4
:10f01800cf00b10000000600f30e2000f21320001c
:10f028006000b800251b0700e00f5000faff32000f
:10f03800fe28ef000029ef0000000600881f780076
:10f048000004eb00d84788000004fd00fce8b70086
:10f058000004fd00f847880008488800cc1b07001a
:10f06800c8538800bb1b0700084078001aff070038
:10f078000004fd0002e9b7000004fd0003e9ef0009
:10f088004f04780000000600af02b000889fbe0061
:10f098008a9fbe008c9fbe008e1f7800f0b79f002d
:10f0a80081b79f0082bf9f0003077800c4b79f0005
:10f0b800b5b79f00c6ef9f006125b90052502b00dd
:10f0c800030020000a00be0052c5070081af9f0060
:10f0d8003fb097006104b90052502b000300200094
:10f0e8000800be004bc50700f1a79f00c055dd0012
:10f0f8000a0020000c0024001d0020000a00560011
:10f108008b805e00b0af9f00c1af9f00c044dd00a0
:10f11800080020000800560089805e0090af9f001c
:10f12800a1af9f008fb09700810347008783d1006c
:10f13800d7b79f008701e800a3b79f000fb89700d3
:10f14800ffb09700810440000984d1008801e800dd
:10f1580093b79f004fe897000085fb008a0078006e
:10f168000104b200f1af9f00e1016500e3af9f0029
:10f178000fb897000000e900e0a79f008a00780018
:10f188000102b200d1a79f00d8af9f00ffb6970039
:10f198008fb497000fbe97004fb497008abf9f00a7
:10f1a8003fb59700be1a070000027800e00f520032
:10f1b800bf013a00d449800005002000f10f520039
:10f1c800e08f5a00f7ff3e0004600100110037008d
:10f1d8005500370037013700750037004801370000
:10f1e8008d0037008f013700a50037009f013700d9
:10f1f800be0037006d013700d70037007b013700ac
:10f20800ee0037004d01370006013700590137007d
:10f21800130037008fa99700c34a88007fa0970082
:10f22800b04a8800cfa89700514a8800afa9970034
:10f23800434a8800a84a88009a4a88005029ef0063
:10f248004e29ef00384a880014002000244a88001c
:10f258004229ef000a4a88003e29ef003c29ef00c6
:10f26800754a8000b44a8000848f5200030034003d
:10f2780024002000d44988000e013700844a800009
:10f28800144a8800e5498800a64a8000c54a8000db
:10f29800850f52000e003c00554a8000e08f520056
:10f2a800050034000603e900a64a8800e58242000a
:10f2b8000602520001003700e382420004024200c5
:10f2c80004824200544a88005029ec0005003700a7
:10f2d8000402e800844a8800840f530001003d00be
:10f2e800a44a8800454a8000744a8000e08f520092
:10f2f80006003400964a80000603e900964a880012
:10f30800e58242000602520001003700e382420013
:10f318000402420004824200444a88004e29ec005c
:10f3280014002000d4498800354a8000a44a80008f
:10f33800848f520004003a00964a8000044a8000f4
:10f34800860f5200c6ff32006fa89700e00f5000ea
:10f358001500320085825400164a80000682540047
:10f36800848f520002003d00654a88000200370081
:10f378000402e900644a880006034600044a800043
:10f3880084825400f449800004024600634a8000e5
:10f39800060178000400be00481a070080057800be
:10f3a800e08f550044013200340020002d01370061
:10f3b8008fb897006282600015003200344a8000de
:10f3c80004024600154a800005034600860f5200d5
:10f3d80002003400644a880001003700664a880049
:10f3e800044a80000403460085825400f4498000e2
:10f3f800848154000601780085007800604a800006
:10f408002e1a070080057800e08f55002a01320087
:10f4180054002000130137008fb9970064826100ff
:10f4280015003200344a800004024600e649800094
:10f4380086024600850f520002003400644a8800a4
:10f4480001003700654a8800044a800084024600ab
:10f45800244a80000402470086014700050178001d
:10f4680084007800604a8000141a0700800578003c
:10f47800e08f55001001320074002000f9003700b9
:10f488000fb897006802600016003200344a800006
:10f4980084024700e649800006024700848f520034
:10f4a80002003400654a8800020037000402e800c0
:10f4b800644a880006034600244a80008402460005
:10f4c800044a80008401470006017800614a8000f0
:10f4d80005007800f919070080057800e08f5500cd
:10f4e800f500320094002000de0037008fb8970046
:10f4f8007082600016003200344a8000840247009f
:10f50800164a800006024700848f52000200340029
:10f51800654a8800020037000402e800644a88004f
:10f52800f44980008482560006835600044a80000d
:10f538008401470005017800614a800006007800d0
:10f54800de19070080057800e08f5500da003200e8
:10f55800b4002000c3003700dfa19700e08f5100fe
:10f5680014003200344a800004825600164a800093
:10f5780086825600850f520002003d00644a8800ca
:10f5880001003700654a8800f4498000840247007a
:10f59800044a80000482560086014700624a8000bf
:10f5a8000400be00c519070080057800e08f5500eb
:10f5b800c1003200d4002000aa0037007fa89700bd
:10f5c800e00f500015003200344a800004825600d3
:10f5d800e649800086825600850f520002003d00f1
:10f5e800644a880001003700654a88000683540091
:10f5f800044a800084825600244a80008481540092
:10f60800624a80008600780005007800ab19070080
:10f6180080057800e08f5500a7003200f400200034
:10f6280090003700cfe89700e0cf500017003d006a
:10f63800344a800004835400e54980000582540060
:10f64800840f530002003d00664a8800020037001c
:10f658000402e900644a8800244a800004835600b2
:10f66800044a80000482540085825600634a800060
:10f678000601780084007800050078008f190700db
:10f6880080057800e08f55008b0032005409f8009f
:10f698004609f9005009f8004409f9005209f80030
:10f6a8004009f9004e09f8003e09f900140120004c
:10f6b8006c0037008d0f560002003a00890f570082
:10f6c800780032008fb99700628261000a00320028
:10f6d8000c0345008902e8000c024400dfb19700e2
:10f6e800060178000400be00741907008005780040
:10f6f800e08f5500700032004400200059003700a8
:10f708000fb89700640260000a0032000c0245003e
:10f718008c0244008e01780004017800afb0970095
:10f72800050078006519070080057800e08f55000e
:10f7380061003200e40020004a0037008fb89700cb
:10f7480070826000090032008e0244000d02e80059
:10f758008e0145005fa997000400be0057190700f5
:10f7680080057800e08f5500530032000401200026
:10f778003c0037008fb997006882610009003200a9
:10f788000e0244008e0145000c01780084007800c8
:10f798001fb097004919070080057800e08f5500d1
:10f7a80045003200a40020002e0037008d0f5600bf
:10f7b8001a0032004fe89700e04f500009003d0062
:10f7c8000a825400888154005fa997008400780059
:10f7d8000d0078003919070080057800e08f550082
:10f7e80035003200c40020001e003700efa8970043
:10f7f800e08f5000090032000a82540088815400ca
:10f808006fa19700840078001fb097002b1907009c
:10f8180080057800e08f5500270032006400200042
:10f82800100037008e8f54001e003200ffa9970089
:10f83800e08f51000a003200088256008a82560082
:10f84800dfb197000401780089007800050078008e
:10f858001a19070080057800e08f5500160032005d
:10f8680084002000d44988004efe37004feb9700f3
:10f878000602b2000b0032007fb09700cfb09700ad
:10f888000101500080017800bfb09700018051004d
:10f898008e01e900afb0970008190700e00f50008b
:10f8a800060032003a29ef0010002000030037005c
:10f8b8000000eb00010037000b0078004f077800cc
:10f8c8004f06be004f05be004f04be00af02b10098
:10f8d800000006000f02b000889fbe008a9fbe008d
:10f8e8008c9fbe008e1f7800a0b79f0091b79f0025
:10f8f80082b79f00f3af9f00e4af9f00e8180700ae
:10f90800000578008002eb00850f5500df003a0003
:10f918006fa897006104b90052502b000300200023
:10f928000800be003bc30700810278008502e8009a
:10f93800a5af9f00c044dd00080020000600240099
:10f94800170020000804530089845b00efa8970083
:10f958008a8f500093003200090178000100780076
:10f96800b0b79f00160020008a0178008a0037008f
:10f978008301e800d5478000858f510002003a00d6
:10f988000600a2008001eb00e00f53007400320073
:10f998009fb097003fb09700808550008fb09700c8
:10f9a800810645008b0078000d00780082bf9f001b
:10f9b800f3b79f00e6b79f00b01307001fb097008a
:10f9c8000a005000d0af9f00bfb097000fb097005b
:10f9d80000864000dfa897000c007800a7130700f6
:10f9e800bfb097007fa89700808440008900780006
:10f9f8000d007800a1130700ffa8970081004500bb
:10fa0800c1af9f000c0078009c1307002fb097002f
:10fa18000a005000b0af9f008900780097130700d4
:10fa2800afb097003fb0970000845000cfa8970070
:10fa38000800780091130700dfa8970008007800f5
:10fa48008e1307008b0078003fa897008b130700e0
:10fa5800c58f2000954278000fb99700ffb1970035
:10fa68006fb39700e0cf52003d0032008b02e900ef
:10fa7800850078000d007800d5b79f007f13070038
:10fa88000b02e800840078000d007800c4b79f00de
:10fa98007a1307000c07e800dfa897000e0078002b
:10faa800761307000c06e900dfa897000c00780021
:10fab800721307008905e9008b0078000d007800b3
:10fac8006e1307008904e800890078000d007800ab
:10fad8006a130700cfa897000e0078006713070085
:10fae800cfa897000c007800641307008b007800fb
:10faf8003fa8970061130700890078003fa8970086
:10fb08005e1307008804e800cfa897000900780072
:10fb18005a1307000804e900cfa8970008007800e6
:10fb280056130700dfa89700090078005313070051
:10fb3800dfa897000800780050130700cfb097009f
:10fb48003fa897004d130700dfb097003fa8970024
:10fb58004a1307006fb39700ffb197000fb99700da
:10fb6800e00f510008003400bfb097008100e900a1
:10fb7800b1b79f0065014100010055000000400039
:10fb88000001410003003700630141008a0045007d
:10fb9800010141000a05e8002fa89700800f5500d1
:10fba80073ff34008fb097002fb09700808f5000fc
:10fbb8000a0032009fb097006fa897008084500019
:10fbc800890178000fb19700890078002fb097005d
:10fbd800d9190700e00f5000f9ff3200ffa897007d
:10fbe8001fb09700808f50000a003200afb0970016
:10fbf8006fa8970080845000ffa99700090178003a
:10fc08009fb0970009007800cb190700e00f50005b
:10fc1800f9ff32008fb097002fb09700808f500007
:10fc280005003a0015002000ffa897001fb09700b4
:10fc3800808f500015003200efa897000fb0970092
:10fc480080844000ffa99700090178009fb09700c1
:10fc580009007800b8190700e00f5000f9ff3200da
:10fc6800efa897007fa897000084400088017800db
:10fc78000fb19700880078002fb09700ae190700e1
:10fc8800e00f5000f9ff3200150020000500780051
:10fc98004f0778004f06be004f05be004f04be0058
:10fca8000f02b10000000600ec874700889fbe00e5
:10fcb8008a9fbe008c9fbe008e1f780000067800c9
:10fcc8000105780082067800830578008a8055004f
:10fcd8008180d1008a804000f1b79f006124b9007b
:10fce80052502b00030020000800be0084bf9f0074
:10fcf80048c20700c1b79f00c044dd0008002000cb
:10fd080006002400170020000800530089805b00cb
:10fd1800d0b79f00e1b79f000fba97000d004200cf
:10fd2800040456008404780000077800dc170700f4
:10fd380000027800e00f5200f0003a0034498000d9
:10fd480005002000e90f5200e08f5a00f7ff3e003f
:10fd580004600100090037001e0037002c0037003e
:10fd68009600370078003700420037005d00370002
:10fd7800af003700c7003700d800370034902000a4
:10fd880014427800e14f420002003a008b017800eb
:10fd980003003700f04f420004003a00ffb197001b
:10fda8000e0178008a007800030037008b01780084
:10fdb8000e017800ffb0970008007800bf17070011
:10fdc80080027800e08f5200ce003200140020003c
:10fdd800ae003700e08f5400ab003200cfb0970080
:10fde800b14988006fb09700c0498800a9498800c8
:10fdf8003229ef00140020007449880089498800de
:10fe08002c29ef00f40e2000544988002829ef001f
:10fe180094498000b5498000850f520004003400e1
:10fe280074002000e08f540098003a0096003700d4
:10fe380064498800c5498000e08f520006003400fc
:10fe4800a64980000603e900a6498800e582420029
:10fe58000602520001003700e38242000402420019
:10fe680004824200c44988003229ec005400200072
:10fe78003449880084498000a5498000850f5200d4
:10fe8800690032003590200095427800ef826200c8
:10fe9800120032006549800085814500554980007f
:10fea8000481460070498000858f510004003400a9
:10feb80080804500040256008501e90002003700f1
:10fec8008080450004025600040078007b17070074
:10fed80080027800e08f52008a003200640020001f
:10fee8006a00370034902000144278006f026200e4
:10fef80013003200854980008582450064498000ee
:10ff080004834500868f52000d00340004834600a8
:10ff18000402560085017800060178008300780005
:10ff2800040078006517070080027800e08f52000f
:10ff380074003200844980000482450054498800d6
:10ff4800440020005100370034902000144278000b
:10ff5800040fb20017003200654980008502550081
:10ff6800464980008449800077498000868f520086
:10ff780006003d00848246008600e8000402560020
:10ff88008701550005017800050037000483460005
:10ff980004025600870155000601780085007800a4
:10ffa800040078004517070080027800e08f5200af
:10ffb8005400320034002000340037003490200010
:10ffc80014427800040fb200130032008549800003
:10ffd800850255006449800004035500868f52004d
:10ffe8000d003d0004834600040256008501780098
:10fff8000601780083007800040078002f170700b6
:020000040001f9
:1000080080027800e08f52003e0032008449800070
:1000180004025500444988003409f8003009f90001
:100028003209f8002e09f9002400200017003700d3
:1000380064498000a54980008502550004035500e5
:10004800850f5300100034003690200016437800c6
:10005800060fb2000a00320004834600040256006c
:100068008501780006017800830078000400780094
:100078001217070080027800e08f5200210032003a
:1000880084002000010037009400200034498800d3
:1000980026ff370061498000a4498000048245009a
:1000a80081854500848f55000a003d0003c9bf00c3
:1000b8006f00600007003200018146000100560011
:1000c8008401780083007800fc160700e00f5000d8
:1000d8000d0032009000200030498800f01607001b
:1000e800800078000000eb00808f500006003a0086
:1000f8003049880010002000030037000000eb00a2
:1001080001003700050078004f0778004f06be0051
:100118004f05be004f04be00cf00b100000006002e
:10012800889fbe008a1f78000005780001047800c7
:1001380019002000da160700e00f500021003a00ed
:1001480021498000808f500003003200e18f500069
:10015800f8ff3a0002003700194988002949880049
:1001680010498000e00f5000020032008a0f500052
:100178000e0035002429ef00eeff37004209dd00ac
:10018800020044008100e900420add00900190006d
:1001980068017900f0b8970068007a0066180700cf
:1001a800e00f5000080032002229ec0011498000bd
:1001b8008a8f5000f1ff35002429ef00100020003d
:1001c800010037000000eb004f0578004f04be0027
:1001d800000006009001900091002000629020002d
:1001e80001003700335978008100e900fdff3a002b
:1001f80020488800000006000000060090007800f3
:10020800e18f500006003200e48f500002003200f7
:10021800e08f500003003a00eeff070000000600e0
:10022800f5ff070000000600324880004a11de0092
:1002380063016100130020000219dd00c24098002c
:10024800334880000310b2002448800042488000f0
:100258001400320014029000020150006c11b90021
:10026800680141000200420010024200c4009800e8
:1002780030019000b2009800a001900003015100e5
:10028800f200980040019000d200980050009000c1
:10029800e0009800e00f500011003400800898003a
:1002a8000000060094019000620111000000410066
:1002b8004200dd0000804100104290000482fb00f3
:1002c800100190004811dd000201420082814100c6
:1002d800c3009800104078000080fb00b000980030
:1002e8000000060000000600889fbe008a9fbe002e
:1002f8008c9fbe008e1f78000104780002c9bf00e1
:100308002a003a006807900000488000000747006c
:100318000005eb008a0678000a46780018003700c6
:10032800fa4780000a0540008005eb008b447800fe
:100338000e003700e0cf540004003a004800900057
:10034800304678004004980019c0b3000cc064001f
:10035800030032008e0078000a0078004711070079
:1003680089c444000a05e8008b05e80038009000bd
:10037800808f5500efff35000e07e8008d06e80076
:1003880088089000604880008080400058009000f5
:10039800818f5600e2ff390000005500f8009000f8
:1003a80001005000f04788002800370058079000e7
:1003b800f0478000000747000005eb008a06780038
:1003c8000a46780019003700680590000048800048
:1003d800000545008005eb008b4478000e003700cf
:1003e800e0cf540004003a004800900030467800fe
:1003f8004004980019c0b3000cc064000300320028
:100408008a0078000e0078001c11070089c4440097
:100418000a05e9008b05e80038009000808f550038
:10042800efff35000e07e8008d06e8008808900009
:100438006048800000804000808f5600e2ff39004d
:1004480058009000000555000a4888001000200058
:100458004f0778004f06be004f05be004f04be0090
:1004680000000600881f7800000478001a29ef00b1
:100478001c29ef001e29ef002029ef008080eb00e7
:1004880040488000800f54001f0039005048800009
:10049800800f54001c003e00304880004a00de00f7
:1004a80063006000e10f500017003c00fc150700d6
:1004b8008000eb00810f500013003a0020488000b4
:1004c80010007800810f5000040032001100200055
:1004d800e10f50000c003a000400370001912000a1
:1004e8000800780050ff0700030037000191200042
:1004f800080078007bff07000191200008007800c1
:1005080079ff070080007800010078004f04780028
:1005180000000600881f78000004780004003700f7
:10052800d0ff0700e00f5000080032000e29ec0051
:10053800704880000000400068007800ef0f50000d
:10054800f7ff3e000e29ef00100020004f0478004e
:1005580000000600c3ad200093417800e0cf5100b1
:1005680003003200f047880001488800dc6aef0089
:1005780002007800e7ff0700e00f50000300320098
:1005880010c0b300dceab70010002000000006002d
:1005980000000500889fbe000003780091009000cd
:1005a80011049000a10490000310200091816100c3
:1005b800e8804000e08f510003003200810378009a
:1005c8008000eb0001003700830378000000eb0097
:1005d80010003700880f51000e003900890f5100b4
:1005e8000c003e0008015100e08f51000400320069
:1005f8006c12b90004814300220190000400370006
:100608004211dd0002814000124178000281fb00a6
:100618000200400036017800ef0f5100edff3e0068
:100628004f04be000000060000000500110178001c
:10063800e10f510009003200e40f510003003200bd
:10064800e00f510007003a0002003700d0ff070012
:1006580000000600cfff070000000600f2ff0700b9
:10066800000006000000050021488000810f5000ae
:1006780002003a0060488000000006008000eb009d
:10068800908f100003003a00100090003000900096
:1006980000000600000005008000eb00908f1000ad
:1006a8000c003a000080e8001000be006400400022
:1006b800e0804800a201800000f0a4008180d20000
:1006c800a101880010007800a2018800800078004d
:1006d800010037008000eb000100780000000600f0
:1006e8008000eb00908f10000c003a000080e800ba
:1006f8001000be0062004000e0804800a2018000b7
:1007080000f0a4008180d200a101880010007800c8
:10071800a201880080007800010037008000eb000b
:1007280001007800000006006f02b000889fbe003c
:100738008a9fbe008c9fbe008e1f7800b0af9f00be
:1007480062014100e0814900a801800002037800ad
:1007580006f0a4008383d200a701880096057800dc
:10076800a801880062014100e0814900a8018000d9
:100778000203780006f0a4008383d200a701880052
:1007880096037800a8018800c7b79f00620141005e
:10079800e0814900a80180000203780006f0a40067
:1007a8008383d200a701880016007800a0af9f00bd
:1007b800a801880062014100e0814900aa01800087
:1007c8000204780008f0a4008384d200a9018800fc
:1007d8001800780090af9f00aa01880062044100c9
:1007e800e08449004fb09700e70160008301ea0008
:1007f800cf19de004301de0002814100b2b79f003d
:1008080015077800e00f570004003a00ebaf9f008f
:1008180010002000d0b79f0016003700a5039000f5
:10082800350190003fb097000281b90002057800b9
:10083800cf95de000a0144008b814c0043bede00e8
:10084800cfe6de000c047800cfe4de0008044100a7
:10085800898449006781630017002000823bdd001e
:10086800d7b79f0095029000e5af9f000e00780073
:10087800c0b79f00e1b79f00e14f52000700320068
:100888000001eb0002427800bfb09700cf88de007d
:10089800c1af9f000806be00af0037000001eb00a3
:1008a8003fb097004f80de00f0af9f000805be0004
:1008b800024278004a0037003faf9700dfb0970048
:1008c800e18f50000b003200a30180000a0278007b
:1008d80004f0a4008b82d200a5018800144278009d
:1008e800a301880061044500e0844d0001067800fa
:1008f800020037000a04be005fb697008006eb00ce
:1009080080fd2f000f0040000a88be008445780053
:1009180020003700e10f560009003a00a3018000cb
:100928000802780004f0a4008982d200a50188009a
:1009380094457800a301880061044400e0844c00d9
:100948008b016600e0cf5100030032009fa897009a
:10095800c1538800020037002fa89700c0538800b1
:10096800efb097000e00780082bf9f00c30f07000a
:100978000e07e8000fb9970001082000810f560004
:10098800020032000c064600010037001c0020005f
:100998008d06e8004fb09700808f5600ddff3900c4
:1009a8000b42780081fd2f008f8040001105be00aa
:1009b8003fb0970090b79f00ffa89700a1b79f008e
:1009c800fe8057001100be000005450081854d00de
:1009d8006fb097000000e800e0b79f000201e80050
:1009e800efa89700810f5100b3ff39005d00370071
:1009f800bfac97005fb09700e10f50000b003200ca
:100a0800a30180000c02780004f0a4008d82d200bb
:100a1800a501880014427800a301880061054600fa
:100a2800e0854e0000077800020037000c05be0084
:100a38005fb797000003eb00efb097008100e80074
:100a480091b79f00e0fc2f000f0040000c88be000b
:100a5800844678002c003700e10f570009003a005f
:100a6800a30180000a02780004f0a4008b82d2005f
:100a7800a501880094467800a30188006105450017
:100a8800e0854d008d016700e0cf51000300320082
:100a98009fa89700c1538800020037002fa897002d
:100aa800c0538800efb097000900780082bf9f000c
:100ab800f6b79f00710f07009fb0970009007800f4
:100ac8006e0f07000904e800efb0970008007800ef
:100ad8006a0f07009fb0970008007800670f0700ab
:100ae8008984e8000fb997007fb3970001082000b8
:100af800810f5700020032000e074700010037003f
:100b08001e0020000603e8004fb09700800f530036
:100b1800d1ff39000d427800e1fc2f008f804000a2
:100b28001106be003fb09700f0af9f00cfa8970016
:100b380081b79f00e1fd2f008f8040001100be00ab
:100b48000006460081864e006fb097000080e800de
:100b5800e0b79f000201e800efa89700810f51005d
:100b6800a3ff39004f0778004f06be004f05be00af
:100b78004f04be006f02b100000006000f04b00071
:100b8800889fbe008a9fbe008c9fbe008e1f780083
:100b9800c0af9f00b1b79f0062014100e0814900ea
:100ba800a80180000203780006f0a4008383d20025
:100bb800a701880016007800c0b79f00a801880028
:100bc80062014100e0814900a70180000205780028
:100bd8000af0a4008385d200ab0188001a007800cf
:100be800a70188008000780062054100e08549007f
:100bf8000a06be00080120000001eb008201410046
:100c080046fb2f000f03430083014300a901800026
:100c18000c03780006f0a4008d83d200a701880099
:100c280016037800a9018800860978006206460044
:100c3800e0864e000201e8000804e900efff3a00f0
:100c480002022000030020000206450083864d00b2
:100c580015077800880f570003003a00084178000c
:100c6800080378001c00370025039000e1006300aa
:100c78008001d100610560000a804100b501900043
:100c88000385b9000a047800cfd4de0008014600c5
:100c980089814e000686d100cfe6de000c0378007d
:100ca800cfe3de0006064100878649008e01d100a9
:100cb800030550000103550001417800e04f510041
:100cc80002003a00e1016700030353009502900017
:100cd800c5b79f008e0078003fb79700e14f5200dc
:100ce800090032008003eb008282fb00cfa9de00fe
:100cf80093b79f0081804200b1b79f004fb0de00dc
:100d0800a0af9f00980037008003eb008282fb00b1
:100d18004fa9de00f2af9f0081804200d1af9f0053
:100d2800cfb1de00b3b79f003e003700cfac9700cd
:100d3800a40180000c01780002f0a4008d81d2008b
:100d4800a301880012417800a401880005057800f5
:100d5800ffad97000a0646008b864e000504780012
:100d680024003700e101640006003200c311de00f0
:100d7800fe81610040fb2f000f004000e0817900f8
:100d88000e003700a40180000c01780002f0a400d6
:100d98008d81d200a301880012417800a401880047
:100da80061064600e0864e00ef0161008381410044
:100db80041fb2f008f804000e1817900c3538800f8
:100dc8008e00780009007800e2b79f0085bf9f0079
:100dd800f6b79f00d7b79f00a80e07008904e80060
:100de8000804e800dfb397007fb397008fba970035
:100df8006fb19700dfa99700830f5400d9ff39001e
:100e080096b79f003fb09700a0b79f00fe8157009c
:100e18001301be000206460083864e000e07e80056
:100e28008703e8004fb09700808f5300bfff390059
:100e3800500037004fad9700a40180000c017800e6
:100e480002f0a4008d81d200a3018800124178002d
:100e5800a4018800f5af9f009fb0970081b79f005d
:100e6800e1fd2f008f8040001100be000006460003
:100e780081864e00850478008e05e8002d00370035
:100e8800e181640006003200c311de00fe816100ca
:100e980040fb2f000f004000e08179000e00370072
:100ea800a40180000c01780002f0a4008d81d2001a
:100eb800a301880012417800a40188006106460059
:100ec800e0864e00ef0161008381410041fb2f0065
:100ed8008f804000e1817900c35388008e0078003c
:100ee8000a007800e2b79f0085bf9f00f6b79f0011
:100ef800d7b79f00610e07000a00be005f0e07000b
:100f08000a04e8008e007800080078005b0e0700ed
:100f18008b00780008007800580e07000a85e80062
:100f28008904e800dfb397007fb397008fba970072
:100f38006fb19700bfb19700838f5400d0ff39007d
:100f4800d6af9f002fa89700e0af9f00a3fd2f000a
:100f58008f8141001301be000206460083864e00c1
:100f68000e87e8008703e8004fb09700808f530092
:100f7800b0ff39004f0778004f06be004f05be008e
:100f88004f04be000f04b100000006002f22b0007d
:100f9800889fbe008a9fbe008c9fbe008e1f78006f
:100fa80090af9f0062014100e0814900a8018000e4
:100fb8000203780006f0a4008383d200a70188000a
:100fc80096047800a801880062014100e081490088
:100fd800a80180000203780006f0a4008383d200f1
:100fe800a701880016007800a8018800c0b79f00f4
:100ff80062064100e08649000c05be000e10200084
:101008000001eb008201410027dd2f008f834300a0
:1010180083814300a80180000a03780006f0a40039
:101028008b83d200a701880016037800a8018800e6
:101038008609780062054500e0854d000201e80058
:101048000e07e900efff3a00062020000700200005
:101058000601460087814e00150578008e0f550061
:1010680004003a00a9af9f008e03780097b79f004d
:101078000d003700350490000884b900a5039000de
:101088000884430008037800cfc3de00060141004e
:10109800878149000a00500090b79f009502900090
:1010a800a5af9f00cab79f0081037800e14f5200a7
:1010b800090032000003eb004fb097004f80de00bc
:1010c800d0af9f009fb09700cf88de00b1af9f00e0
:1010d80007077800800037008006eb004fb09700c4
:1010e8004f83de009fb097004f8fde00a7b79f00a9
:1010f8008d037800d6af9f000e037800b6af9f002f
:10110800310037001fab97000204be000007eb0058
:10111800a0018000f0af9f001c0037000802780093
:1011280004f0a4008982d200a50188001442780046
:10113800ffa89700a101880061044400e0844c00e6
:101148000482fb000402420020dd2f000f00400053
:1011580060027a00c4538800afb097000600780098
:10116800d2b79f00e3b79f0086bf9f00f7b79f00e5
:10117800c20d07000fbb97000603e8000e07e80042
:10118800ffb39700efb197005fb19700cfb097001a
:10119800810f5700e1ff390001057800dfad9700a6
:1011a8000a0141008b8149001fb69700bfae970026
:1011b8000c0141008d8149002fb397000603e80018
:1011c800a6b79f008703e8002fa89700808f5300d9
:1011d800ccff3900430037009fac97000205be00e2
:1011e8008003eb00ac0180008e06e8002500370084
:1011f8000a02780004f0a4008b82d200a5018800be
:1012080014427800ac01880061054500e0854d0076
:101218000482fb000402420021dd2f008f80400081
:1012280061027a00c45388008e00780009007800b3
:10123800d2b79f00e3b79f0086bf9f00f7b79f0014
:101248008e0d07008d007800090078008b0d0700cf
:101258000904e8008e00780008007800870d070070
:101268008d00780008007800840d07008984e80064
:10127800ffb397008703e8000fbb9700efb1970013
:101288005fb197004fb09700808f5300d8ff3900a7
:10129800a0b79f00dfa89700b1b79f00fc80570058
:1012a8001100be0000014100818149009fb39700f1
:1012b800f7af9f003fa8970080b79f00e1fd2f0080
:1012c8008f8040001100be0000014100818149006b
:1012d8000e87e8000603e800afab9700870f5300be
:1012e800bdff39004f0778004f06be004f05be000e
:1012f8004f04be00ef1fb1004f02b100000006000e
:101308004f02b000889fbe008a9fbe008c9fbe001f
:101318008e1f780080af9f0062014100e081490084
:10132800a80180000203780006f0a4008383d2009d
:10133800a701880016057800a8018800620141000d
:10134800e0814900a80180000203780006f0a400ab
:101358008383d200a701880096037800a80188003b
:10136800c7b79f0062034100e08349007c845700af
:10137800068cbe0015017800e00f510003003a000a
:101388009aaf9f008201780013003700350490005f
:101398004fb097000884b900a501900088814100ea
:1013a8008381410003037800cf9bde007c845700d3
:1013b8001804be000604440087844c007c80570053
:1013c8000888be00cfb4970082815400950290002f
:1013d80095af9f00c2b79f000107780003834100c3
:1013e800e14f5200090032008003eb00a0018000a9
:1013f80080b79f00cfb09700018640004fe1de0024
:10140800e2af9f00cfb2de007d0037000006eb00a0
:10141800a3018000c3af9f004fb29700840642002b
:10142800cfebde00a7af9f00cfb3de007c84570070
:101438001805be002f0037008faa97000a04be00c7
:101448000002eb00170037000801780002f0a40042
:101458008981d200a3018800120178004fa8970063
:10146800a001880062044400e0844c00c253880054
:101478008e00780005007800d4b79f00e5b79f007c
:10148800f6b79f0087bf9f00fc0c0700efb29700dc
:101498008502e8005fb297000402e8008fbb97005e
:1014a8007fb39700cfb09700810f5200e6ff390055
:1014b8008db79f002fa9970092b79f0009fe2f00b4
:1014c8008f8444001904be000800450089804d003f
:1014d800e6af9f00f7af9f00c3fd2f008f8141004b
:1014e8001301be0002054000838548000e07e8008e
:1014f8000c06e8001faa9700840f5600ceff39009b
:10150800420037008fac97007c8457001805be0056
:101518000002eb008e06e800210037000a0178007f
:1015280002f0a4008b81d200a30188001201780088
:101538000fb09700a001880062054500e0854d00c6
:10154800c25388008e00780009007800d4b79f0045
:10155800e5b79f00f6b79f0087bf9f00c70c07003d
:101568008d00780009007800c40c07000904e80021
:101578008e00780008007800c00c07008d00780005
:1015880008007800bd0c07008984e8005fb2970066
:101598000402e8008fbb97007fb39700efb2970073
:1015a800cfb09700810f5200dcff3900ccaf9f000d
:1015b8006fa99700d2af9f00fc8157001304be00ab
:1015c80082fd2f000f0141001201be0002004400fd
:1015d80083804c00a6af9f00b5af9f0048fd2f0049
:1015e8000f0444001804be00080440008984480021
:1015f8007c8157000889be000e87e8008703e80051
:101608009fac9700898f5300beff39004f077800c1
:101618004f06be004f05be004f04be004f02b1008a
:10162800000006001000fa00889fbe008a9fbe00d6
:101638008c1f780000047800020578008344780045
:1016480007067800f1b79f0084bf9f0095bf9f00f1
:10165800a6bf9f0092110700800178000000eb00f0
:10166800ffb097000fba97009fba97002fbb97005b
:10167800808f510034003a00cb5380001a01780063
:10168800d4b79f00e5b79f00b6b79f00ccb79f00bf
:10169800f0002f0000006100830f500028003a007e
:1016a8000a85e8001a01be0061024100e082490093
:1016b800a001800004f0a4008582d200a501880062
:1016c80094427800a0018800e4cf52000e00320056
:1016d80003003e00e1cf520019003a000500370030
:1016e800e8cf52000d003200f0cf520014003a004b
:1016f8000f003700fa825700094278000800780086
:10170800a80c07000e003700fa825700094278003b
:1017180008007800fb0d070009003700fa8257001f
:1017280009427800080078005d0f070004003700c0
:10173800fa82570009427800080078006210070012
:10174800cb538800100020004f0678004f05be00dc
:101758004f04be000080fa0000000600e00f5000b1
:1017680001003d008016b000d2102000820f50000a
:1017780004003400e010b100e08f500017003a0078
:101788000f003700320b2000820f50000400340095
:10179800400bb100e08f500009003a000600370006
:1017a80092052000820f50000a003400a005b10005
:1017b800e08f50000b003200a1052000008050008f
:1017c80000004000014b2b00610078000000ea0097
:1017d80000000600e08f500006003a00a105200036
:1017e8000080500000004000014b2b006100780091
:1017f8000000060000004000014b2b00610078004b
:1018080000000600ec874700889fbe008a9fbe0044
:101818008c9fbe008e1f780080bf9f00f1b79f008d
:10182800e2b79f00d3b79f00c5b79f000e102000f6
:10183800040678003e0037008000eb000c007800ba
:10184800c6ff0700800678006fb0970000ecb9006b
:10185800110009000e04d8000004780011002000cf
:101868000c007800bdff070000017800efb097007a
:101878000195b900811f7800110009000e05d800f4
:1018880080027800cf0078005fb09700808f50000a
:101898002100320000ebb900110009000e03d80046
:1018a80000037800dfb097000191b900811f78002c
:1018b800110009000e01d80000017800cf0078005f
:1018c800828f520002003200860f540002003a0054
:1018d800fc68ef000200370010c0b300fce8b70056
:1018e800ffb09700810643000fb89700000541003c
:1018f80001044400808442008d0178000a017800c8
:1019080088007800090078008b120700e00f50006b
:10191800f9ff3200050037007fb1970082004400cc
:101928000fb9970002804200d40b07000c06e800ac
:101938004fb09700800f5600bfff34001000200002
:101948004f0778004f06be004f05be004f04be008b
:10195800cf00b10000000600889fbe008a9fbe002d
:101968008c9fbe0001057800820578008306780008
:10197800d2022000801f7800110009000205d8005b
:1019880001067800800078004f007800e180600050
:10199800010032000c0651006104b900110020005a
:1019a8000c0078006dff0700cf80de00c808dd005e
:1019b8000080fd00804078000040eb000801be0078
:1019c80014bb0700810d78008000eb000c00780044
:1019d80062ff0700cf80de00c808dd000080fd0040
:1019e800804078000040eb000801be0009bb0700fa
:1019f800810e780022fd2f000a0141008005200099
:101a0800800f510004003600e2f12f000a01410066
:101a1800800f510003003e001b007800810d780004
:101a2800800e780051fa2f008a804000200b200099
:101a3800808f500001003e009b0dea005a0bb10058
:101a4800200b2000800f550001003e009d0eea008b
:101a58004f06be004f05be004f04be000000060042
:101a6800000400002d0000007e0000004118000066
:101a7800a2300000615000000088000065390000b5
:101a880000b8000000e0000000f80000cb62000091
:101a9800b29c000079ce00003ce70000def70000b1
:101aa800bfff0000feff0000ffff0000ffff000077
:101ab800efcc0000edfc0000cffc0000eeed0000d4
:101ac800ccde0000cfff0000ffff0000ffff00009a
:101ad800ffff0000ffff0000ffff0000ffff000006
:101ae800ffff0000ffff0000ffff0000ffff0000f6
:101af800ffff0000ffff0000ffff0000ffff0000e6
:101b0800ffff0000ffff0000ffff0000ffff0000d5
:101b1800ffff0000ffff0000ffff0000ffff0000c5
:101b2800ffff0000ffff0000ffff0000ffff0000b5
:101b3800ffff0000ffff0000ffff0000ffff0000a5
:101b4800ffff0000ffff0000ffff0000ffff000095
:101b5800ffff0000ffff0000ffff0000ffff000085
:101b6800ffff0000ffff0000ffff0000ffff000075
:101b7800ffff0000ffff0000ffff0000ffff000065
:101b8800ffff0000ffff0000ffff0000ffff000055
:101b9800ffff0000ffff0000ffff0000ffff000045
:101ba800ffff0000ffff0000ffff0000ffff000035
:101bb800ffff0000ffff0000ffff0000ffff000025
:101bc800ffff0000ffff0000ffff0000ffff000015
:101bd800ffff0000ffff0000ffff0000ffff000005
:101be800ffff0000ffff0000ffff0000ffff0000f5
:101bf800ffff0000ffff0000ffff0000ffff0000e5
:101c0800ffff0000ffff0000ffff0000ffff0000d4
:101c1800ffff0000ffff0000ffff0000ffff0000c4
:101c2800ffff0000fffc0000ffff0000ffff0000b7
:101c3800ffff0000ffff0000ffff0000ffff0000a4
:101c4800ffff0000ffff0000ffff0000ffff000094
:101c5800ffff0000ffff0000ffff0000ffff000084
:101c6800ffff0000ffff0000ffff0000ffff000074
:101c7800ffff0000ffff0000ffff0000ffff000064
:101c8800ffff0000ffff0000ffff0000ffff000054
:101c9800ffff0000ffff0000ffff0000ffff000044
:101ca800ffff0000feff0000ffff0000ffff000035
:101cb800ffff0000ffff0000ffff0000ffff000024
:101cc800fffd0000cffe0000dcff0000ffff00006a
:101cd800ffff0000ffff0000ffff0000ffff000004
:101ce800ffff0000ffff0000ffff0000ffff0000f4
:101cf800ffff0000ffff0000ffff0000ffff0000e4
:101d0800ffff0000ffff0000ffff0000ffff0000d3
:101d1800ffff0000ffff0000ffff0000ffff0000c3
:101d2800ffff0000ffff0000ffff0000ffff0000b3
:101d3800ffff0000ffff0000ffff0000ffff0000a3
:101d4800fffc0000dfcf0000ccfc0000ffff00001c
:101d5800ffff0000ffff0000ffff0000ffff000083
:101d6800ffff0000ffff0000ffff0000ffff000073
:101d7800ffff0000ffff0000ffff0000ffff000063
:101d8800ffff0000ffff0000ffff0000ffff000053
:101d9800ffff0000ffff0000ffff0000ffff000043
:101da800fdff0000ffff0000ffff0000ffff000035
:101db800ffff0000ffff0000ffff0000ffff000023
:101dc800ffff0000ffff0000ffff0000ffff000013
:101dd800ffff0000ffff0000ffff0000ffff000003
:101de800ffff0000ffff0000ffff0000ffff0000f3
:101df800ffff0000ffff0000ffff0000ffff0000e3
:101e0800ffff0000ffff0000ffff0000ffff0000d2
:101e1800ffff0000ffff0000ffff0000ffff0000c2
:101e2800ffff0000ffff0000ffff0000ffff0000b2
:101e3800ffff0000ffff0000ffff0000ffff0000a2
:101e4800ffff0000ffff0000ffff0000ffff000092
:101e5800ffff0000ffff0000ffff0000ffff000082
:101e6800ffff0000ffff0000ffff0000ffff000072
:101e7800ffff0000ffff0000ffff0000ffff000062
:101e8800ffff0000ffff0000ffff0000ffff000052
:101e9800ffff0000ffff0000ffff0000ffff000042
:101ea800ffff0000ffff0000ffff0000ffff000032
:101eb800ffff0000ffff0000ffff0000ffff000022
:101ec800ffff0000ffff0000ffff0000ffff000012
:101ed800ffff0000ffff0000ffff0000ffff000002
:101ee800ffff0000ffff0000ffff0000ffff0000f2
:101ef800ffff0000ffff0000ffff0000ffff0000e2
:101f0800ffff0000ffff0000ffff0000ffff0000d1
:101f1800ffff0000ffff0000ffff0000ffff0000c1
:101f2800ffff0000ffff0000ffff0000ffff0000b1
:101f3800ffff0000ffff0000ffff0000ffff0000a1
:101f4800ffff0000ffff0000ffff0000ffff000091
:101f5800ffff0000ffff0000ffff0000ffff000081
:101f6800ffff0000ffff0000ffff0000ffff000071
:101f7800ffff0000ffff0000ffff0000ffff000061
:101f8800ffff0000ffff0000ffff0000ffff000051
:101f9800ffff0000ffff0000ffff0000ffff000041
:101fa800ffff0000ffff0000ffff0000ffff000031
:101fb800ffff0000fffa0000ffff0000ffff000026
:101fc800ffff0000ffbf0000faff0000ffff000056
:101fd800ffff0000ffff0000ffff0000ffff000001
:101fe800ffff0000ffff0000ffff0000ffff0000f1
:101ff800ffff0000ffff0000ffff0000ffff0000e1
:10200800ffff0000ffff0000ffff0000ffff0000d0
:10201800ffff0000ffff0000ffff0000ffff0000c0
:10202800ffff0000ffff0000ffff0000ffff0000b0
:10203800ff4a0000f4ff0000ffff0000ffff000060
:10204800ff9a000001f40000ffff0000ffff0000fe
:10205800ffff0000ffff0000ffff0000ffff000080
:10206800ffff0000ffff0000ffff0000ffff000070
:10207800ffff0000ffff0000ffff0000ffff000060
:10208800ffff0000ffff0000ffff0000ffff000050
:10209800ffff0000ffff0000ffff0000ffff000040
:1020a800ffff0000ffff0000ffff0000ff8b0000a4
:1020b80002f90000ffff0000ffff00009b0800007e
:1020c80032150000fbff0000ffff0000ffff0000cb
:1020d800ffff0000ffff0000ffff0000ffff000000
:1020e800ffff0000ffff0000ffff0000ffff0000f0
:1020f800ffff0000ffff0000ffff0000ffff0000e0
:10210800ffff0000ffff0000ffff0000ffff0000cf
:10211800ffff0000ffff0000ffff0000ffff0000bf
:10212800ffff0000ffff0000ff9c000030160000ca
:10213800ffff0000ffaf00001920000063770000d8
:1021480092ff0000ffff0000ffff0000ffff0000fc
:10215800ffff0000ffff0000ffff0000ffff00007f
:10216800ffff0000ffff0000ffff0000ffff00006f
:10217800ffff0000ffff0000ffff0000ffff00005f
:10218800ffff0000ffff0000ffff0000ffff00004f
:10219800fdff0000ffff0000ffff0000ffff000041
:1021a800ffff0000ff9f00003076000092ff000054
:1021b800bf890000206300007777000037f800002f
:1021c800ffff0000ffff0000ffff0000ffff00000f
:1021d800ffff0000ffff0000ffff0000ffff0000ff
:1021e800ffff0000ffff0000ffff0000ffff0000ef
:1021f800ffff0000ffff0000ffff0000ffff0000df
:10220800ffff0000ffff0000ffff0000ffff0000ce
:10221800ffff0000ffff0000ffff0000ffff0000be
:10222800ffaf00002476000067f100009a0100006b
:10223800327600007777000077450000ffff000046
:10224800ffff0000ffff0000ffff0000ffff00008e
:10225800ffff0000ffff0000ffff0000ffff00007e
:10226800ffff0000ffff0000ffff0000ffff00006e
:10227800ffff0000ffff0000ffff0000ffff00005e
:10228800ffff0000ffff0000ffff0000ffff00004e
:10229800ffff0000ffff0000ffff0000ffbf00007e
:1022a80028750000772700000032000076770000cc
:1022b8007777000077670000b1ff0000ffff00009c
:1022c800ffff0000ffff0000ffff0000ffff00000e
:1022d800ffff0000ffff0000ffff0000ffff0000fe
:1022e800ffff0000ffff0000ffff0000ffff0000ee
:1022f800ffff0000ffff0000ffff0000ffff0000de
:10230800ffff0000ffff0000ffff0000ffff0000cd
:10231800ffff0000ffff0000ffcf0000097300006f
:102328007777000037630000777700007777000041
:102338007777000027f90000ffff0000ffff00008b
:10234800ffff0000ffff0000ffff0000ffff00008d
:10235800ffff0000ffff0000ffff0000ffff00007d
:10236800ffff0000ffff0000ffff0000ffff00006d
:10237800ffff0000ffff0000ffff0000ffff00005d
:10238800ffff0000ffff0000ffff0000ffff00004d
:10239800ffff0000ffff00000963000077770000df
:1023a800777700007777000077770000777700006d
:1023b80077830000ffff0000ffff0000ffff000021
:1023c800ffff0000ffff0000ffff0000ffff00000d
:1023d800ffff0000ffff0000ffff0000ffff0000fd
:1023e800ffff0000ffff0000ffff0000ffff0000ed
:1023f800ffff0000ffff0000ffff0000ffff0000dd
:10240800ffff0000ffff0000ffff0000ffff0000cc
:10241800ffff00004a62000077770000777700002e
:10242800777700007777000077770000775700000c
:10243800f4ff0000ffff0000ffff0000ffff0000a7
:10244800ffff0000ffff0000ffff0000ffff00008c
:10245800ffff0000ffff0000ffff0000ffff00007c
:10246800ffff0000ffff0000ffff0000ffff00006c
:10247800ffff0000ffff0000ffff0000ffff00005c
:10248800ffff0000ffff0000ffff0000ffff00004c
:102498008b5200007777000077770000777700008d
:1024a80077770000777700007777000016fb000049
:1024b800ffff0000ffff0000ffff0000ffff00001c
:1024c800ffff0000ffff0000ffff0000ffff00000c
:1024d800ffff0000ffff0000ffff0000ffff0000fc
:1024e800ffff0000ffff0000ffff0000ffff0000ec
:1024f800ffff0000ffff0000ffff0000ffff0000dc
:10250800ffff0000ffff0000ffff00009c300000fd
:1025180077770000777700007777000077770000fb
:10252800777700007777000077920000ffff0000c0
:10253800ffff0000ffff0000ffff0000ffff00009b
:10254800ffff0000ffff0000ffff0000ffff00008b
:10255800ffff0000ffff0000ffff0000ffff00007b
:10256800ffff0000ffff0000ffff0000ffff00006b
:10257800ffff0000ffff0000ffff0000ffff00005b
:10258800ffff0000ffff00009f300000767700008b
:10259800777700007777000077770000777700007b
:1025a8007777000077370000f8ff0000ffff000092
:1025b800ffff0000ffff0000ffff0000ffff00001b
:1025c800ffff0000ffff0000ffff0000ffff00000b
:1025d800ffff0000ffff0000ffff0000ffff0000fb
:1025e800ffff0000ffff0000ffff0000ffff0000eb
:1025f800ffff0000ffff0000ffff0000ffff0000db
:10260800ffff0000ff8f0000517700007777000080
:1026180077770000777700007777000077770000fa
:102628007777000027f90000ffff0000ffff000098
:10263800ffff0000ffff0000ffff0000ffff00009a
:10264800ffff0000ffff0000ffff0000ffff00008a
:10265800ffff0000ffff0000ffff0000ffff00007a
:10266800ffff0000ffff0000ffff0000ffff00006a
:10267800ffff0000ffff0000ffff0000ffff00005a
:10268800ffff0000ff4a0000627700007777000034
:10269800777700007777000077770000777700007a
:1026a80077670000a1ff0000ffff0000ffff0000a8
:1026b800ffff0000ffff0000ffff0000ffff00001a
:1026c800ffff0000ffff0000ffff0000ffff00000a
:1026d800ffff0000ffff0000ffff0000ffff0000fa
:1026e800ffff0000ffff0000ffff0000ffff0000ea
:1026f800ffff0000ffff0000ffff0000ffff0000da
:10270800ffff0000ff0900006277000077770000f4
:1027180077770000777700007777000077770000f9
:1027280077450000fcff0000ffff0000ffff0000ee
:10273800ffff0000ffff0000ffff0000ffff000099
:10274800ffff0000ffff0000ffff0000ffff000089
:10275800ffff0000ffff0000ffff0000ffff000079
:10276800ffff0000ffff0000ffff0000ffff000069
:10277800ffff0000ffff0000ffff0000ffff000059
:10278800ffff0000cf090000737700007777000093
:102798007777000077770000777700007777000079
:1027a80037f80000ffff0000ffff0000ffff0000f8
:1027b800ffff0000ffff0000ffff0000ffff000019
:1027c800ffff0000ffff0000ffff0000ffff000009
:1027d800ffff0000ffff0000ffff0000ffff0000f9
:1027e800ffff0000ffff0000ffff0000ffff0000e9
:1027f800ffff0000ffff0000ffff0000ffff0000d9
:10280800ffff0000bf180000757700007777000011
:1028180077770000777700007777000077770000f8
:1028280092ff0000ffff0000ffff0000ffff000015
:10283800ffff0000ffff0000ffff0000ffff000098
:10284800ffff0000ffff0000ffff0000ffff000088
:10285800ffff0000ffff0000ffff0000ffff000078
:10286800ffff0000ffff0000ffff0000ffff000068
:10287800ffff0000ffff0000ffff0000ffff000058
:10288800ffff0000af2400007677000077670000a4
:1028980076770000777700007777000077160000da
:1028a800faff0000ffff0000ffff0000ffff00002d
:1028b800ffff0000ffff0000ffff0000ffff000018
:1028c800ffff0000ffff0000ffff0000ffff000008
:1028d800ffff0000ffff0000ffff0000ffff0000f8
:1028e800ffff0000ffff0000ffff0000ffff0000e8
:1028f800ffff0000ffff0000ffff0000ffff0000d8
:10290800ffff00009f2000007677000017100000ee
:1029180052770000777700007777000057c40000ef
:10292800ffff0000ffff0000ffff0000ffff0000a7
:10293800ffff0000ffff0000ffff0000ffff000097
:10294800ffff0000ffff0000ffff0000ffff000087
:10295800ffff0000ffff0000ffff0000ffff000077
:10296800ffff0000ffff0000ffff0000ffff000067
:10297800ffff0000ffff0000ffff0000ffff000057
:10298800ffff00009c30000077570000a4490000ba
:1029980020630000777700007777000083ff00004e
:1029a800ffff0000ffff0000ffff0000ffff000027
:1029b800ffff0000ffff0000ffff0000ffff000017
:1029c800ffff0000ffff0000ffff0000ffff000007
:1029d800ffff0000ffff0000ffff0000ffff0000f7
:1029e800ffff0000ffff0000ffff0000fffe0000e8
:1029f800ffff0000ffff0000ffff0000ffff0000d7
:102a0800ffff00008b51000077a10000ff9b000032
:102a1800082100007577000077270000f9ff000003
:102a2800ffff0000ffff0000ffff0000ffff0000a6
:102a3800ffff0000ffff0000ffff0000ffff000096
:102a4800ffff0000ffff0000ffff0000ffff000086
:102a5800ffff0000ffff0000ffff0000ffff000076
:102a6800ffff0000ffff0000ffff0000ffff000066
:102a7800ffff0000ffff0000ffff0000ffff000056
:102a8800ffff00004a62000045ff0000ffff000052
:102a98009a0400003276000067a10000ffff0000e2
:102aa800ffff0000ffff0000ffff0000ffff000026
:102ab800ffff0000ffff0000ffff0000ffff000016
:102ac800ffff0000ffff0000ffff0000ffff000006
:102ad800ffff0000ffff0000ffff0000ffff0000f6
:102ae800ffff0000ffff0000fffd0000ffff0000e8
:102af800ffff0000ffff0000ffff0000ffff0000d6
:102b0800ffff000009020000faff0000ffff0000bd
:102b1800bf8900001052000045fc0000ffff0000c4
:102b2800ffff0000ffff0000ffff0000ffff0000a5
:102b3800ffff0000ffff0000ffff0000ffff000095
:102b4800ffff0000ffff0000ffff0000ffff000085
:102b5800ffff0000ffff0000ffff0000ffff000075
:102b6800ffff0000ffff0000ffff0000ffff000065
:102b7800ffff0000ffff0000ffff0000ffff000055
:102b8800ffcf000009f40000ffff0000ffff000076
:102b9800ffaf000049000000f8ff0000ffff000041
:102ba800ffff0000ffff0000ffff0000ffff000025
:102bb800ffff0000ffff0000ffff0000ffff000015
:102bc800ffff0000ffff0000ffff0000ffff000005
:102bd800ffff0000ffff0000ffff0000ffff0000f5
:102be800ffff0000ffff0000ffff0000ffff0000e5
:102bf800ffff0000ffff0000ffff0000ffff0000d5
:102c0800ffbf0000f9ff0000ffff0000ffff00000a
:102c1800ffff00009bf90000ffff0000ffff00001e
:102c2800ffff0000ffff0000ffff0000ffff0000a4
:102c3800ffff0000ffff0000ffff0000ffff000094
:102c4800ffff0000ffff0000ffff0000ffff000084
:102c5800ffff0000ffff0000ffff0000ffff000074
:102c6800ffff0000ffff0000ffff0000ffff000064
:102c7800ffff0000ffff0000ffff0000ffff000054
:102c8800ffcc0000ffff0000ffff0000ffff000077
:102c9800ffff0000ffff0000ffff0000ffff000034
:102ca800ffff0000ffff0000ffff0000ffff000024
:102cb800ffff0000ffff0000ffff0000ffff000014
:102cc800ffff0000ffff0000ffff0000ffff000004
:102cd800ffff0000ffff0000ffff0000ffff0000f4
:102ce800ffff0000ffff0000ffff0000ffff0000e4
:102cf800ffff0000ffff0000ffff0000ffcc000007
:102d0800bbfc0000ffff0000ffff0000ffff00000a
:102d1800ffff0000ffff0000ffff0000ffff0000b3
:102d2800ffff0000ffff0000ffff0000ffff0000a3
:102d3800ffff0000ffff0000ffff0000ffff000093
:102d4800ffff0000ffff0000ffff0000ffff000083
:1030d800ff000000000400002d0000007e0000003a
:1030e800201000008228000082300000615000009b
:1030f8000098000000c00000e749000000e8000058
:1031080000f800007194000079ce00005def000027
:10311800def70000bfff0000feff0000ffff000019
:10312800ffff0000ffff0000ffff0000ffff00009f
:10313800ffff0000ffff0000ffff0000ffff00008f
:10314800ffff0000ffff0000ffff0000ffff00007f
:10315800ffff0000ffff0000ffff0000ffff00006f
:1034f800bccb0000fcff0000ffff0000ffff000046
:10350800ffff0000ffff0000ffff0000ffff0000bb
:10351800ffff0000ffff0000ffff0000ffff0000ab
:10352800ffff0000ffff0000ffff0000ffff00009b
:10353800ffff0000ffff0000ffff0000ffff00008b
:10354800ffff0000ffff0000ffff0000ffff00007b
:10355800ffff0000ffff0000ffff0000ffff00006b
:10356800ffff0000ffff0000ffff0000ffcf00008b
:10357800fcff0000ffff0000ffff0000ffff00004e
:10358800ffff0000ffff0000ffff0000ffff00003b
:10359800ffff0000ffff0000ffff0000ffff00002b
:1035a800ffff0000ffff0000ffff0000ffff00001b
:1035b800ffff0000ffff0000ffff0000ffff00000b
:1035c800ffff0000ffff0000ffff0000ffff0000fb
:1035d800ffff0000ffff0000ffff0000ffff0000eb
:1035e800ffff0000ffff0000ffff0000ffff0000db
:1035f800ffff0000ffff0000ffff0000ffff0000cb
:10360800ffff0000ffff0000ffff0000ffff0000ba
:10361800ffff0000ffff0000ffff0000ffff0000aa
:10362800ffff0000ffff0000ffff0000ffff00009a
:10363800ffff0000ffff0000ffff0000ffff00008a
:10364800ffff0000ffff0000ffff0000ffff00007a
:10365800ffff0000ffff0000ffaa0000ffff0000bf
:10366800ffff0000ffff0000ffff0000faff00005f
:10367800ffff0000ffff0000ffff0000ffff00004a
:10368800ffff0000ffff0000ffff0000ffff00003a
:10369800ffff0000ffff0000ffff0000ffff00002a
:1036a800ffff0000ffff0000ffff0000ffff00001a
:1036b800ffff0000ffff0000ffff0000ffff00000a
:1036c800ffff0000ffff0000ffff0000ffff0000fa
:1036d800ffff0000ffff000006910000f9ff000057
:1036e800ffff0000ffff0000ff160000f9ff0000c9
:1036f800ffff0000ffff0000ffff0000ffff0000ca
:10370800ffff0000ffff0000ffff0000ffff0000b9
:10371800ffff0000ffff0000ffff0000ffff0000a9
:10372800ffff0000ffff0000ffff0000ffff000099
:10373800ffff0000ffff0000ffff0000ffff000089
:10374800ffff0000ffff0000ffff0000ffff000079
:10375800ffff0000ff6c00004403000096fa000021
:10376800ffff0000ffff00000a630000faff0000ef
:10377800ffff0000ffff0000ffff0000ffff000049
:10378800ffff0000ffff0000ffff0000ffff000039
:10379800ffff0000ffff0000ffff0000ffff000029
:1037a800ffff0000ffff0000ffff0000ffff000019
:1037b800ffff0000ffff0000ffff0000ffff000009
