:020000040000fa
:08000000845e04000000000012
:020000040000fa
:100400000a00fa0044002000b4bf9f00c0bf9f0054
:10041000d2bf9f00e3bf9f00f1bf9f006a805700db
:1004200000c0da005fb89700efb897000080fa00cc
:10043000000006000a00fa0080017800e20f500078
:1004400028003e00f07b8000e10f500008003200e1
:10045000802320000000e00005003200042320007b
:100460002523200046232000800178000400370067
:100470000422200025222000462220008322200082
:10048000144090000004e000040035008009eb00f7
:10049000144090000074a000104298001540900095
:1004a0000028a30003003a00154090000024a0009b
:1004b000904298008001eb00070037001540900043
:1004c0000008a300fdff320063c078000000fb00bd
:1004d000000b78008301e800828f5100f7ff3a009b
:1004e0000800370030002000b0bf9f00c3bf9f004e
:1004f000d1bf9f00e2bf9f006a80570000c0da00b2
:100500006fb99700020078000080fa000000060032
:10051000889fbe0080047800007c80000000e0001e
:1005200003003a00100007000000e0000a00350058
:10053000007c80000900e00002003a00000478001e
:10054000060037000004780009004000060007009c
:100550000000e00001003d000084eb00080078008e
:100560004f04be0000000600800078000000e0009c
:1005700004003a0020f82000007c88000101780087
:10058000060037000081eb0020082100808f50001a
:1005900002003e00017c88000001eb0002007800b0
:1005a00000000600881f7800000478005001be009b
:1005b0004000be000400400085804800060149005c
:1005c00087814900009cbe000294be000400e10047
:1005d0000588e1000690e1000798e1000200310083
:1005e000680044001008e8004f047800000006008e
:1005f000f4874700889fbe008a9fbe008c9fbe0084
:100600008e1f78000205be000004be00d4b79f0014
:10061000e5b79f00f6b79f0087bf9f000000eb0083
:10062000c0b79f00b0b79f00a0b79f0090b79f00d2
:1006300080b79f000d042000bfb097004fb0970017
:10064000000140000000e0000f003d004f08de0008
:1006500000007100c0b79f009e00070001003d0030
:1006600012002000a100070001003d001200200040
:10067000a6000700b1000700b60007000f00400009
:10068000c8ff0700220037004f08de000006710097
:10069000ccb79f008f00070001003d001200200032
:1006a0009200070001003d001200200097000700a3
:1006b000a20007000fb297009fb297002fb39700d8
:1006c000bfb39700a90007000000520081805a00c4
:1006d00002015b0083815b0080b79f0091b79f00a0
:1006e000a2b79f00b3b79f000007eb009f00070071
:1006f0000020e10001a8e10002b0e10003b8e10040
:10070000010031001e0020000e005600c0b79f00ff
:100710004fb297000400e0000700350010002000f1
:10072000010020006011b800080470008984700086
:100730000a0571008b8571008d06e900beff3a0045
:100740000400e00003003d00820007000f004000ad
:1007500094ff07004fa897000000e00004003a0053
:100760000fb497009fb497002fb59700bfb59700bf
:10077000940007004f0778004f06be004f05be00eb
:100780004f04be004f01b10000000600881f780032
:1007900018002000881f780095ff07008f87e90068
:1007a0004f04780000000600801feb0090ff070058
:1007b0008f87e90000000600889fbe008a9fbe0068
:1007c0008c1f78006e00070007003d0073000700d3
:1007d000e00f5b00e08f5b0007003d003200070088
:1007e0000006eb00040037003400070002003d0063
:1007f0002a0007001c00200072000700e3ff07002a
:100800000203be000002be000c00e0000100320046
:10081000220007000400be000601be004f0678005b
:100820004f05be004f04be0000000600889fbe00ba
:100830008a9fbe008c1f78005100070005003d0014
:1008400056000700e00f5b00e08f5b0006003d00f4
:10085000040037001900070003003d006000b800e5
:100860006011b8001000070056000700ceff070017
:100870000203be000002be000c00e00001003200d6
:10088000060007000400be000601be004f06780007
:100890004f05be004f04be00000006006000b80017
:1008a0006011b80000003700040250008582580033
:1008b0000603590087835900000006000006eb007c
:1008c000e00f5200e08f5a00e00f5b00e08f5b000a
:1008d000000006000180400090b79f000001eb007f
:1008e0008fb097000100e0000000060002007000d9
:1008f00090b79f000180400080b79f000001eb008f
:10090000ffa897000100e000000006000200700050
:1009100080b79f00018040006faa9700cf20de00c3
:1009200001007000f0af9f000402420025000700a4
:100930004f18de000002720000000600e4af9f00c6
:100940000804440089844c000a054d008b854d0045
:10095000000006003fb29700cfb297005fb3970048
:10096000efb3970000fe2f00000006003fb0970095
:10097000cfb097005fb19700efb19700000006007d
:100980000205be000004be00e00f5000e08f5800da
:10099000e00f5900e08f5900000006006000b80029
:1009a0006011b80008045000898458000a055900f5
:1009b0008b8559001c002000e00f5200e08f5a0088
:1009c000000006000800be000a01be00000006008c
:1009d0002800fa00889fbe008a9fbe008c9fbe0040
:1009e00003866b00060307000028a30064003a009a
:1009f0000128a30067003a000008a30062003a0043
:100a00000108a30065003a001e009000be08900097
:100a100081064000ed3fb100f4805700ee019000e8
:100a2000111ab8008e099000311bb8009e09900081
:100a3000311cb800511db800f4855700460007006e
:100a4000fe0190003a0007008b85e8003e00070099
:100a50008e09900040000700ee019000340007006e
:100a60008b85e800380007008e09900040000700e1
:100a70009e0990001b18b800890440000a854800b0
:100a8000fe019000340007008b85e8003800070065
:100a9000ee019000300007008e0990001b18b8008e
:100aa000890440000a8548000a98a30008003a001b
:100ab0000402420085824a0006034b0087834b00f4
:100ac00008044c0089844c000a054d008d06e9009d
:100ad00084827200850273004c3add008502720048
:100ae0000100320015002000443ade001400b2007c
:100af0004538de00cb45dd000b007000c540de0050
:100b0000cb4ddd008b8070004549de00cb55dd000c
:100b10000b017100c551de000d037800d102070002
:100b200003f0a1000cf0a70003f0a000c8023700fa
:100b30001b18b8008502400006834800e0834b0084
:100b400060044c00070037001b18b8000603400083
:100b500087834800faff37001b18b800870340005e
:100b600008844800e0844c0060054d000000060049
:100b70001b18b8000804400089844800faff3700b9
:100b80000108a300af023a005800be005801be00a1
:100b9000e3ff37000008a300aa023a000904780026
:100ba000f9ff370081037800da0207000001be0078
:100bb0006000b8000478a30013003a006220e1004e
:100bc00015003e000d0039008301d1000281d300e1
:100bd0008180d3008301d1000281d3008180d300c2
:100be0008301d1000281d3008180d3000538b00099
:100bf000c42add00f300b2008381720007f0a70071
:100c000003f0a00000000600f3ff2700f2ff2f0012
:100c10006110b900fbff370003ff2700f7ff370023
:100c20008f1fd100d00207008f87e9000000e0008d
:100c300000000600801feb00cb0207008f87e90051
:100c40000000e000000006001400fa00889fbe00cb
:100c50008a9fbe008c9fbe000004be000205be003d
:100c6000680047000a90be000890be00e702070037
:100c70000070a7000bf0a1009e0990000e099000e3
:100c8000fe0090006e0090009e0290003443200011
:100c9000848252000a00320010003c00b4fc2f0095
:100ca0000428e1001f0034008301d1000281d30039
:100cb0008180d3000080d3008502e800faff3a006b
:100cc0000b00e00062023b0060001000e0801800b2
:100cd00060011900e08119005d023700b4002000b6
:100ce0000428e10007003d0000004000818048002a
:100cf00002014900838149008502e900faff3a00b8
:100d0000efff3700f3ff2700f2ff2f006110b9005b
:100d10000b00e0004e023b00030028000200200010
:100d2000010037006011b8006000b80048023700c9
:100d3000889fbe008a9fbe00030578000300e00084
:100d4000050035000b003c000082700004027100b9
:100d5000300032000700370060001000e08018000b
:100d600060011900e081190002003b0001f02d0034
:100d7000280037000004be000200be006011b80069
:100d80006b092000950220000182cf000a00390083
:100d90000541b1000082cf00070039000541b100d4
:100da0000982cf00040039000541b1000882cf005c
:100db000010039000541b100054252001200320025
:100dc0000a003b0082817100610164008100d10052
:100dd0000080d3008984d3000884d3008b05e80009
:100de0000442e800f7ff3a00070037000804440017
:100df00089844c0000004800818048008b05e90090
:100e00000442e900f9ff3a00a70207000af0a70030
:100e100001f0a0004f05be004f04be000000060018
:100e2000c70207000509780000000600809feb005c
:100e30004d0207008f87e9000000e0000000060077
:100e40002800fa00889fbe008a9fbe008c9fbe00cb
:100e500003866b00ea0107006400e10044003200f1
:100e60006408e1004a0032006100e10046003200ff
:100e70006108e10049003200ec0647006000b8005c
:100e80003d02be003d03be00f48657006011b8006d
:100e90003d04be003d05be007d0320000b00370071
:100ea0000000a0008d06e900130032000402420099
:100eb00085824a0006034b0087834b0000004000f8
:100ec00081804800020149008381490008025200e4
:100ed00089825a000a035b008b835b00f0ff3b00b2
:100ee0000802420089824a000a034b008b834b00b0
:100ef0008d06e900edff3a0084827200868272005e
:100f0000f707b2008782720001003200150020004e
:100f10001e0490003e0b900006035400e63fb00014
:100f20000368a300070032000000a7000500a0002e
:100f30008301d1000281d3008180d3000080d300df
:100f40000603e8008301d1000281d3008180d30031
:100f50000080d3000002eb000482d200c101070030
:100f600003f0a1000cf0a70003f0a000b8013700c7
:100f7000640247006408e100b20132003400be00a0
:100f80003401be00f6ff37006108e100ad01320018
:100f90006011b8006000b800f1ff370003ff2700c0
:100fa00002002000fbff37001400fa00889fbe00fb
:100fb0008a9fbe008c9fbe000004be000205be00da
:100fc000680047000a90be000890be000f020700ac
:100fd0000070a7000bf0a1000bf8a30016003a0068
:100fe0009e0290003043200080825200b0fe2f000d
:100ff0000028e1000d003c00b0fc2f000028e100bb
:101000000d0034001e0990008e0890007e009000b4
:101010000501b0000201d1008180d3000080d3001f
:101020008502e800fbff3a00890137000100280033
:1010300000002000860137006000b80084013700fe
:10104000889fbe008a9fbe00010578000100e00075
:101050000400350008003c000000e00020003200e1
:101060000500370060001000e080180002003b001f
:1010700001f02c001a0037000004be006011b80017
:101080006b0920000982cf00020039000882cf00de
:101090000441b000694252000e00320008003b00db
:1010a00082817100610164008904d1000884d30049
:1010b0008b05e8000442e800f9ff3a00050037001c
:1010c0000804440089844c008b05e9000442e900cf
:1010d000fbff3a00f40107000af0a70001f0a000ae
:1010e0004f05be004f04be000000060003f0a20042
:1010f000889fbe008a9fbe008c1f78001d020700db
:10110000240233006450e1004f0032006420e1000b
:101110005200320003826c0007003b000905d0003a
:101120000306d000820f54000c065d000200390057
:10113000020032008901780003067800858255009c
:1011400004003d000003fd008103fd008502ea006c
:101150008b854200840f720002003b00600010008b
:10116000e08018006011b8000005eb007a28e1006b
:101170000a00390006007800c75ddd00f707b200fd
:10118000878075002d003700828171000a01780088
:10119000610560008180d1000080d3008502e900f4
:1011a000f9ff3b00060440008784480002003b0032
:1011b00060041400e0841c000988a30007003200ca
:1011c0008a81710082817100610164008904d1000b
:1011d0000884d3008b05e800170037000978a300c6
:1011e00013003a000b00e000130034008b05e90007
:1011f0000804440089844c000a4474000978a30060
:101200000d003a000b00e000070034008b05e900f8
:101210000804440089844c0001003a000b002000bf
:101220000978a300f7ff32000001eb00020037004d
:10123000828171000a0178009b0107000cf0a70071
:1012400001f0a000dc0137006420e10002003a0058
:10125000838f6c00dc0133000801be000200be0079
:10126000d501370007f0a200000037002800fa007f
:10127000889fbe008a9fbe008c9fbe000706780034
:10128000878669000c003b0003047800870478001f
:1012900008f0a10009f0a100840f5000858f5800cc
:1012a000860f5900890f5c00030033000cf0a20088
:1012b00001003a000cf0a100d10007006400e10039
:1012c0005f003200780147006408e10061003200ed
:1012d0006c014700748557003200be001201be0049
:1012e0003a04be001a05be001e039000be0a90001c
:1012f0008503530006003d000004fd008104fd004d
:101300000205fd008305fd008703ea000503780060
:101310000df8a3000400320060041400e0841c00f7
:1013200060051d00e0851d006022b8007d032000df
:101330000d38e1008006eb000b0039004433dd007e
:10134000f300b20083017300390037008482720019
:101350000d027800e10664008b85d1000a85d30078
:101360008984d3000884d3008703e900f7ff3b009a
:1013700008004000898048000a0149008b8149002b
:1013800004003b0060001000e080180060011900bc
:10139000e08119000358a300090032008d82720019
:1013a00084827200610260008301d1000281d30057
:1013b0008180d3000080d3000603e8001b003700c3
:1013c0000348a30017003a000600e00017003400ad
:1013d0000603e9000d00a3000000480081804800da
:1013e00002014900838149000348a3000f003a002d
:1013f0000600e000090034000603e9000000400098
:1014000081804800020149008381490001003a00bf
:101410000003eb000348a300f5ff32006022b80090
:101420000200370084827200618266008d0007002e
:1014300003f0a1000cf0a70003f0a0008400370027
:10144000640147006408e10002003a000df8a300bf
:101450007c003a003200be001201be007c00370062
:101460001400fa00889fbe008a9fbe008c9fbe00b9
:101470000004be000205be00680047000a90be00de
:101480000890be00e10007000070a7000bf0a1006b
:101490000bf8a30020003a009e0990000e0990006e
:1014a000fe0090006e0090009e02900034432000e9
:1014b00084825200660032000a003c00b4fc2f0017
:1014c0000428e100140034008301d1000281d3001c
:1014d0008180d3000080d3008502e800faff3a0043
:1014e0005b003700b40020000428e10007003c0046
:1014f00000004000818048000201490083814900ca
:101500008502e900faff3a00510037000300280085
:1015100002002000010037006011b8006000b80030
:101520004b003700889fbe00830478000300e00072
:101530002c00350003003c000082700004027100a2
:101540002600320036432000c50020008383cf00f0
:101550000a0039000541b1008283cf00070039003d
:101560000541b1008183cf00040039000541b1007d
:101570008083cf00010039000541b10085c35300cd
:101580006022b800120032000a003b008482720020
:10159000610260008301d1000281d3008180d30009
:1015a0000080d3000603e8008743e800f7ff3a0015
:1015b0000700370000004000818048000201490018
:1015c000838149000603e9008743e900f9ff3a00f7
:1015d0002400070009f0a70003f0a0004f04be009c
:1015e0000000060060001000e08018006001190093
:1015f000e0811900d3ff3b00033e2c00f7ff3700ca
:10160000680447000294be000094be00fc0447003a
:101610008694be008494be00090078007b00070019
:10162000080078007900070099007800814f700069
:101630000b003b000800be00e60007004f00b100b1
:1016400003003700f3ff2700f2ff2f006110b900fd
:101650004f06be004f05be004f04be000080fa00da
:101660000000060018002000570020000804530066
:101670000d003d000600200097fc2f000740e10010
:101680001e00340084827200610260008301d10078
:101690000281d3008180d3000080d3000804e800d9
:1016a000f8ff3a0047002000610460000504740060
:1016b000040464000d00320061004000e080480036
:1016c00060014900e081490003b8a500070032002d
:1016d0000603e8006538e10004003a008301d10008
:1016e0000281d3008180d3000080d300f87f2000e6
:1016f0000830e10003003500080378006000b800fe
:101700006011b8004433dd00f300b20083017300c0
:1017100000000600c70ade00f107b200f50fb200b4
:1017200008003200e1cf4200020032000170a00048
:1017300024000500810f700001003200040805003c
:1017400044000500810f700002003a0014000500fb
:101750008502e9000000400081c04800fcff3b001a
:101760000170a00024000500889fbe008a9fbe0073
:101770008c9fbe000404be000605be00809fbe0014
:10178000829fbe00a1000700040678000800be008a
:101790000a01be009d000700840678004f03be00ca
:1017a0004f02be008d4f76007fb0970013003300cc
:1017b000f0ff2f008b8f6b0006003b000d066600cc
:1017c0000c00a7000a00370007f0a6001000200058
:1017d0000a003700880f5200898f5a008a0f5b0079
:1017e0008b8f5b00030039001000200001003e00d9
:1017f0000000200007f0a7000000ea004f06be002e
:101800004f05be004f04be000000060080007800b7
:101810005002be005003be004439de00f700b200a3
:10182000f37f200003016100090032000218e1008b
:1018300016003a00850172008301730083817300f2
:101840000008200015003a00400020001300370077
:1018500085017200830173008381730005003a00e3
:1018600004a8be0006a8be00100020000b00370030
:101870000201e9000402420085824a0006034b008f
:1018800087834b000748a300f9ff32000740a00000
:1018900004a8be0006a8be0020002000800098001a
:1018a0009200980000000600810020006180550031
:1018b0000b003d000b00200061fe2f000100e10045
:1018c0001d00340082817100610164008904d1002f
:1018d0000884d3000000e800faff3a0071002000fd
:1018e0006100640003007000020060000900320023
:1018f00061044400e0844c000988a5000500320022
:101900008b05e8006808e10002003a008904d10074
:101910000884d300f20f20000258e10005003d00ca
:10192000c75ddd00f907b200898075000800780006
:10193000000006000bf827008b007800000005006f
:101940000003be0073ff07006220e10002003200c6
:101950000600be0005000500e507b100f107b20072
:1019600004f023008480700007f0a70001f0a000bd
:10197000240005000004be0066ff07000003be004f
:101980000405be000200be0062ff0700844f750020
:10199000000006000200be006450e10005003600b1
:1019a0006420e100020036000968a30001003a004b
:1019b0000800be000160a0004f0678004f05be0081
:1019c0004f04be0000000600f0ff2f00f1ff2700cb
:1019d000f9ff3700e48240001078a30007003200ce
:1019e000640240001178a3003400be001401be0060
:1019f000040032000330a700000006003500be00de
:101a00001501be000330a0000000060005ff2700fe
:101a100005826100070032000428e1000100320065
:101a2000240005000600070001003a0044000500fc
:101a30000408050002000700f9ff3a001400050041
:101a40006f82610081027000850271008502720060
:101a5000000006000c00fa00889fbe000004780019
:101a6000cfb09700f0ff2700d0bf9f008004eb00ad
:101a700099bf9f0088bf9f00a8bf9f00200c200037
:101a8000b0bf9f0078815700708057002600070084
:101a90000fb89700094878000fb897000804500065
:101aa000080078004f04be000080fa000000060025
:101ab0000c00fa00889fbe0000047800cfb09700a9
:101ac000f0ff2700d0bf9f008004eb0099bf9f006c
:101ad00088bf9f00a8bf9f00200c2000b0bf9f00c0
:101ae0007881570070805700b40307000fb8970043
:101af000094878000fb897000804500008007800e3
:101b00004f04be000080fa00000006008001eb00d8
:101b100002003700817178008301e800828f510054
:101b2000fcff3a0000000600fe874700889fbe00c9
:101b30008a9fbe008c9fbe008e1f7800f0b79f006a
:101b40000107780082bf9f000000eb00b0b79f0044
:101b5000e60237008006eb0050c2b30080cf500091
:101b6000090032000100fb00ffb09700790b07006d
:101b7000e10f4000dd023200bfb097008100e800b5
:101b8000b1b79f00d90237009e407800b0c2b300c1
:101b900080cf50001300320007003c006b40500023
:101ba00080cf50000d0032006340400080cf5000d5
:101bb00013003a000d003700d0c2b30080cf5000b0
:101bc000040032006340400080cf50000c003a0017
:101bd000080037000d30a000070037000d00a000fe
:101be000050037000d10a000030037000db0a00065
:101bf000010037000d20a0000e07e800e2ff3700cb
:101c00000d18a300010032000d00a1000d38a30043
:101c1000010032000d20a1000100fb0002fd2f0099
:101c200002004000e90f50000e003e000002eb00f1
:101c3000d4af9f00820178005fae97006a60b90060
:101c40001e01fb000001410003014100d2af9f00d3
:101c50005e00fb0003004000e90f50000b003e0057
:101c6000f5ff37000000eb00d0af9f00a0c2b3002b
:101c700080cf500005003a008fb8970041017800ee
:101c800081bf9f00d2af9f000e07e8000002eb006b
:101c9000c4b79f00e0c2b3009e4f100018003a0086
:101ca0000de0a0008e00e80064405000914f10004d
:101cb00002003200010778000c0037000fbe9700c9
:101cc0004c0078008cbf9f00c0b79f000e87e800d3
:101cd0000b0037004fb297006a20b90000004100a6
:101ce00003004000c0b79f000e07e8001e01fb0084
:101cf00003fd2f0003004100e90f5000f5ff3600ff
:101d0000be407800e1d79f00c0c6b30080cf50002e
:101d1000220032000f003c006940500080cf50008c
:101d20007700320004003c000104e000730232003e
:101d30006b4050000f00370040c6b30080cf50000a
:101d4000930032006540400080cf50008b003a0085
:101d50008f00370030c7b30080cf50001a00320028
:101d600007003c006440500080cf5000110032005a
:101d70000040e80080cf500080003a000f0037009c
:101d800050c7b30080cf5000800032006340400055
:101d900080cf500079003a00090037000000280089
:101da0000d48a30001003a00000120008086760063
:101db000d3ff37000d60a000750037000d50a00064
:101dc0000d70a000720037000fbe97004c00780025
:101dd0008cbf9f00000478000000e00001003a0082
:101de00048f220008004eb00010037008104e80085
:101df00089007800088044001004e000fbff3a00ee
:101e00004fb097000000e00003003200890f50003f
:101e100001003100800478008000eb00e1af9f00fa
:101e20005fa99700890f5100020036000900510098
:101e3000e0af9f004368de00e10660001b003a004f
:101e40000d06780009003700ffb09700000220005f
:101e5000c00a0700e10f4000030032003fb29700c4
:101e60000402e800b4b79f000c06e8006fa89700d2
:101e7000800f5600f4ff3a008080eb00e1af9f0036
:101e80000a003700880078003100fb000104780068
:101e9000ffb09700af0a0700e10f400003003200d7
:101ea0003fb197000201e800b2b79f000900e900c6
:101eb00080047800e10f4000f2ff3a000006eb00da
:101ec0000d00e0000a003a0008023700ffb097005a
:101ed000000220009f0a0700e10f400003003200cb
:101ee0003fb297000402e800b4b79f000c06e80078
:101ef0006fa89700800f5600f4ff3a00fb013700ef
:101f00008fb897004100780081bf9f00cf80de002e
:101f100001017800820178000205be000004be00c5
:101f20000203be000002be004822de00482edd0093
:101f300004027600e4d79f000d48a3000a00320097
:101f40000404e00008003200e14f420006003200c5
:101f500071fd2f000f804000044878001840980061
:101f60002900200002003700f0d79f001900200050
:101f700072fd2f000f044100a1ff370064fd2f0008
:101f80000f044200190020009dff37000d0cb30024
:101f90000d007800000cb20028003a000d00e000af
:101fa00005003d000fbe97004c05be004c04be006e
:101fb0008cbf9f00140037000d48a3000b003200b7
:101fc0000fb997004200be0082bf9f004f89de001c
:101fd000cf91de000002be00020378008203780089
:101fe0000605be000404be00070037000fba9700c4
:101ff0004400780084bf9f0000047800cfc4de0056
:10200000090578008a057800e00f5400e08f5c0035
:10201000e00f5d00e08f5d001f003d003d00b3005c
:102020006000b8006011b8000804500089845800ae
:102030000a0559008b855900170037000d00e00094
:1020400005003d000fbe97004c05be004c04be00cd
:102050008cbf9f00100037000d48a300070032001e
:102060000fba97004400be0084bf9f006011b80003
:102070000205be000004be00070037000fbe970037
:102080004c0078008cbf9f000004780009002000fd
:102090000a0020000b0020004fb097000000e00075
:1020a00007003a00e00f5400e08f5c00e00f5d0095
:1020b000e08f5d0002003a0011002000c1b79f00d0
:1020c0000d017800020cb200e2b79f00000420006e
:1020d000800f51002d00320003003c000200e000a0
:1020e000080032003a003700000820006fb2970065
:1020f000800f520014003200000c2000800f5200ac
:1021000033003a0014c0b30045b520000b0037007f
:102110000400fb004300dd00050040005001be004c
:102120004000be000040e10001c8e10002d0e10033
:1021300003d8e100250039000442e800f44f5200c2
:10214000f3ff3a002100370014c0b30045ad200072
:102150000b0037000400fb004300dd0005004000d9
:102160005001be004000be000040e10001c8e10097
:1021700002d0e10003d8e100140039000442e80075
:10218000f04f5200f3ff3a001000370014c0b300c4
:1021900045a220000b0037000400fb004300dd00d7
:1021a000050040005001be004000be000040e100bc
:1021b00001c8e10002d0e10003d8e10003003900ca
:1021c0000442e800f64f5200f3ff3a00e4d79f00c4
:1021d0006fd697000c00fb00cfb09700810f500026
:1021e00002003d00e1d79f00040037004fb1970087
:1021f000800f510001003d00c0b79f005faa97000b
:102200000400e00004003200638066000200320037
:102210000402e900d4af9f000de8a3000b003200d8
:102220005fae97004fb09700800f560003003c0050
:102230008000eb00d1af9f00040037005fa997003a
:102240004fb2970004015100d2af9f00408c200094
:102250000080660001842000810f500006003a00d3
:102260005fae97000c00e000110032000c06e900a0
:10227000dcaf9f000e003700008c2000008066005d
:1022800001882000810f500009003a005fa89700e4
:10229000e20f500003003c008000eb00d1af9f0034
:1022a000030037005fa997000281e900d2af9f00c9
:1022b0006fd297000400fb000006eb00dcb79f0024
:1022c000dfa89700808f500002003400008050008b
:1022d000d0b79f000d28a30053003200e1806600b4
:1022e0000d18a3000c003200d00220000100e00015
:1022f00001003a000080e900ffb09700950907004f
:10230000e10f4000270032003fb197000201e800d2
:10231000b2b79f00230037000100e000090032003f
:10232000ffb09700000220008a090700e10f40007b
:102330001c0032003fb297000402e800b4b79f00cf
:1023400018003700008c2000008066000188200003
:10235000810f500013003a00ffb0970000032000e7
:102360007c090700e10f4000030032003fb69700f0
:102370000c06e800bcb79f00800520000d58a300a4
:1023800001003a0080072000ffb0970071090700a4
:10239000e10f4000030032003fb097000000e8006a
:1023a000b0b79f00dfb097000100e0000f003200df
:1023b0000006eb00ffb0970000032000650907004e
:1023c000e10f4000030032003fb197000201e80036
:1023d000b2b79f000c06e8005fb29700840f56006a
:1023e000f4ff3a000006eb00dcb79f004fb0970007
:1023f0008000e900c308dd0040b5200000804000f7
:1024000090b79f0040ad20000080400080b79f0043
:1024100040a2200080804000f1af9f008000eb00d0
:10242000a1b79f009b0037005fb197000200e0005a
:1024300011003200688066000f003a000006780044
:10244000ffb097000002200042090700e10f4000a2
:10245000030032003fb297000402e800b4b79f00c7
:102460000c06e8005fb09700800f5600f4ff3a00ba
:102470008000eb00d1b79f00e18066000d18a3003b
:102480000c003200d00220000100e00001003a0000
:102490000080e900ffb097002e090700e10f40001f
:1024a0000e0032003fb197000201e800b2b79f0072
:1024b0000a0037000100e00008003200ffb097007a
:1024c0000002200023090700e10f40000300320052
:1024d0003fb297000402e800b4b79f00008c2000d0
:1024e0008080660000842000808f500009003a0040
:1024f000ffb097000003200016090700e10f40001d
:10250000baff32003fb697000c06e800bcb79f0048
:10251000b6ff370000882000808f5000b3ff3a00dc
:10252000ffb09700000320000a090700e10f4000f8
:10253000030032003fb097000000e800b0b79f00f2
:10254000800520000d58a30001003a0080072000fc
:10255000ffb09700ff080700e10f4000a3ff320023
:10256000bfb097008100e800b1b79f009fff370020
:10257000000420006fb19700800f51002700320047
:1025800003003c000200e000080032002c0037008d
:10259000000820006fb29700800f52001100320037
:1025a000000c2000800f520025003a001fb6970053
:1025b0003c02be002c03be000800be000a01be00a3
:1025c00072f80700a4002000050020006033b80066
:1025d00075f8070004c3b30004424000e4d79f002d
:1025e00017003700bcf220000d58a30001003a008c
:1025f000ccf320000fb097003002be002003be00d5
:102600000800be000a01be0060f807006f0060000d
:102610006c467800ecd79f0009003700ffa89700b0
:102620003102be002103be000800be000a01be0048
:1026300056f80700674060000043b000e0d79f00f5
:102640006fd197000200fb00ffb09700c1080700a0
:10265000e10f4000030032003fb297000402e8009f
:10266000b4b79f002fb697000c06e800acb79f00e8
:102670001fb097006800500090b79f008fb0970080
:10268000e880500081b79f007fa997006801510042
:10269000f2af9f002fb297004fb697008c0f5200f9
:1026a000b3ff3a000d38a300100032005fb097006e
:1026b0000000e0000d0034000006eb00ffb09700c2
:1026c00000022000a3080700e10f400003003200d1
:1026d000bfb097008100e800b1b79f000c06e8008a
:1026e0005fb19700820f5600f4ff3a00be407800b9
:1026f000e1d79f000104e00016fd3a003fb09700cb
:102700004f0778004f06be004f05be004f04be00c5
:10271000ef01b10000000600889fbe008a9fbe0046
:1027200080407800d0c6b30080cf5000290036002a
:102730000185fb0042062000110009000285d80037
:1027400000017800010478004311dd004bdc20001b
:102750000b0141006022b8000600200007fe2300a4
:102760000288900092889000b2899000228990009f
:1027700097f80700a9002000809fbe001100090003
:102780000984d800000478004f00be004344dd00f7
:102790000b04440048229000d82290006823900047
:1027a000f82390008af80700801f78000102780063
:1027b000110009000985d8000102fd004f007800d2
:1027c0004322dd000b0242005403be004402be005f
:1027d0001f0037000180fb0049dc2000eacf5000d9
:1027e00014003600a2002000110009000280d80069
:1027f00000017800010478004311dd000901410067
:102800006022b8000600200007fe2300422090004e
:10281000d2209000f2219000622190006cf8070015
:102820004344dd00090444003802be002803be0012
:10283000070037004300dd00090040006022b800b7
:102840000600200007fe23005001be004000be002d
:102850005ff807004f05be004f04be0000000600f1
:10286000889fbe008a1f7800804078000004e00046
:1028700021003d008040ea00d0c6b30080cf500068
:10288000090034008104fb00420620001100090009
:102890008204d80000017800010078004311dd00b7
:1028a0004adc20001f0037000100fb0043dc200051
:1028b00039003700a2002000110009000200d800f2
:1028c00000017800010078004311dd0003014100a0
:1028d0004300dd00030040003002be002003be00c4
:1028e00042209000d2209000f221900062219000be
:1028f00037f807002e003700d0c6b30080cf500055
:10290000230034008104fb0042062000110009006e
:102910008204d80000017800010078004311dd0036
:102920004ae720000a014100a80020001100090028
:102930000800d8004300dd000a004000402290005b
:10294000d022900060239000f02390000288900035
:1029500092889000b2899000228990001cf80700ac
:10296000801f780001027800110009008804d80057
:102970000102fd004f0078000402fb004322dd004d
:102980000a0242005403be004402be00d8ff3700d2
:102990000100fb0043e72000eacf5000c5ff3c00e8
:1029a0004300dd00030040005001be004000be00b7
:1029b0004f0578004f04be0000000600ef04b00091
:1029c000889fbe008a9fbe008c9fbe008e1f78002d
:1029d0006022b8006033b800e4a79f00f5a79f000d
:1029e00086af9f0097af9f00a0af9f00b1af9f0041
:1029f000c2af9f008002eb0095a79f00c807370079
:102a00008001eb0050c2b30080cf500009003200bb
:102a10000100fb00afa89700ce070700e10f4000c0
:102a2000bf0732001fa397000603e80096a79f0088
:102a3000bb073700bfab970097407800b0c2b30028
:102a400080cf50001900320007003c006b4050005e
:102a500080cf5000100032006340400080cf500013
:102a600021003a0016003700d0c2b30080cf5000da
:102a7000040032006340400080cf50001a003a004a
:102a8000140037000330a0003fac97000804e800b2
:102a9000b8af9f00e7ff37000300a000bfac97006e
:102aa0008904e800b9af9f00e2ff37000310a000df
:102ab0003fad97000a05e800baaf9f00ddff370081
:102ac00003b0a000bfad97008b05e800bbaf9f002f
:102ad000d8ff37000320a0003fa897000000e800bf
:102ae000b0af9f00d3ff37000318a30001003200ee
:102af0000300a1000338a300010032000320a1005d
:102b00000100fb0002fd2f0002004000e90f500011
:102b100010003e008000eb00e1979f000202780069
:102b20006f9197006a10b900bfaa97001501fb00ca
:102b30000001410004014100e2979f005500fb00a5
:102b4000b5af9f0004004000e90f50000d003e00ab
:102b5000f3ff37000003eb00e6979f00a0c2b3002d
:102b600080cf500007003a00cfab970047047800b1
:102b7000c7af9f00e8979f00bfac97008904e800ab
:102b8000b9af9f00e0c2b3003fad97009a4f10006d
:102b900021003a00830678000de0a0008a00e800da
:102ba00064405000914f100004003200b1af9f000c
:102bb0008005eb00aba79f00100037004fa89700df
:102bc000c0007800c0af9f00a1a79f003fa9970059
:102bd0000281e800b2af9f00130037002fa29700d8
:102be0006a20b9000000410003004000a0a79f0038
:102bf000bfaa97008502e800b5af9f003fab9700e2
:102c00001601fb0003fd2f0003004100e90f5000f7
:102c1000f2ff360004003700830678000dc0a000e4
:102c20008003eb00a7a79f003fac9700b840780057
:102c3000b8af9f00e1679f0070c6b30080cf50001f
:102c40003c00320017003c006440500080cf500030
:102c50008f0032000e003c007c40500080cf5000be
:102c60003300320006003c000104e000320732006d
:102c700000c0e90080cf5000aa003a0029003700c8
:102c800080c5b30080cf5000a6003a002d00370069
:102c900050c6b30080cf5000230032001f003c001c
:102ca000a700370000c7b30080cf500025003200d6
:102cb0000a003c006440500080cf500011003200f8
:102cc0006340400080cf50001c003200664050003e
:102cd00080cf500093003a009900370050c7b300ee
:102ce00080cf5000950032006340400080cf5000fc
:102cf000150032006540500080cf500089003a0036
:102d000013003700000028000d48a30001003a001e
:102d10000001200080867600c3ff37000da0a000d0
:102d2000870037000d50a0000d80a0008400370000
:102d30000d50a0000d90a000810037000d60a00094
:102d40007f0037000d50a0000d70a0007c00370000
:102d5000cfac970049007800c9af9f00e0a79f0063
:102d60000000e00002003a00ebf42000eba79f0017
:102d70000000eb00f0a79f00020037008100e80090
:102d8000f1a79f00ffa097006fa19700028040006d
:102d90001004e000f9ff3a00afa197000300e00043
:102da000040032007fa29700848f5100010031009f
:102db000f3a79f007fa097000005eb006f9397009b
:102dc000800f530001003600000553004368de0009
:102dd000e104600019003a00090478000900370096
:102de000afa8970000022000da060700e10f4000bc
:102df000030032009fa397008703e80097a79f0076
:102e00000804e8008a0f5400f5ff3a000085eb0043
:102e10000a003700efa097003100fb00e1a79f00f8
:102e2000afa89700cb060700e10f40000300320077
:102e30001fa497000804e80098a79f00ffa597002b
:102e40000b00e900f0a79f00e10f4000f1ff3a00fe
:102e50000004eb000900e0000a003a00b006370069
:102e6000afa8970000022000ba060700e10f40005b
:102e7000030032001fa197000201e80092a79f0003
:102e80000804e8008a0f5400f5ff3a00a406370052
:102e9000cfa9970043007800c3af9f00cf80de002a
:102ea00001017800820178000203be000002be002a
:102eb000e0a79f00f1a79f0082af9f0093af9f0004
:102ec0004822de00482cdd0004027400e4679f0005
:102ed0000d48a3000c0032000404e0000a00320098
:102ee000e14f42000800320079fa2f000f804400c1
:102ef000044878004fcd97001a4098002b0020001e
:102f0000fba79f0003003700f0679f001000200020
:102f1000f0a79f0071fa2f008f804000e1a79f006b
:102f20009dff370062fa2f000f014100e2a79f00ca
:102f300013002000f3a79f0097ff37000d0cb3008c
:102f400000702000008266008a0432000dc8a300d1
:102f50000200320064002000a4a79f000d48a300d7
:102f6000090032004fa897004005be004004be0093
:102f7000c0af9f00d89f9f00e99f9f00fa9f9f00ce
:102f80008ba79f00080037004fa997004200be00a2
:102f9000c2af9f0003f70700d09f9f00e19f9f00f3
:102fa000f29f9f0083a79f006022b8006033b800a3
:102fb0005f989700ef9897007f9997008fa19700ef
:102fc00017f707000000e0000a003d005f9a970035
:102fd000ef9a97007f9b97008fa3970007f0a200be
:102fe000d49f9f00e59f9f00f69f9f0087a79f00ab
:102ff0003d00b3000000eb00d0979f006022b800b6
:103000006033b8005f989700ef9897007f9997001a
:103010008fa1970007f707000000e000350032009d
:103020005f989700ef9897007f9997008fa197007e
:1030300005f707003ef70700a5fa2f000f814200b1
:1030400077f707005f9097000000e9006300b90080
:10305000a2002000110009000200d8008000fd003d
:10306000d1979f000100e00002003d000100e9004f
:10307000d0979f005f9497000840ea00f8fd070092
:103080005f9a9700ef9a97007f9b97008fa3970016
:103090004ff60700909f9f00a19f9f00b29f9f0047
:1030a000c39f9f006022b8000600200007ff230096
:1030b000dbf607000000e00002003d000800e90028
:1030c0000b0037006022b8000600200047022400f1
:1030d0001f989700af9897003f999700cf99970056
:1030e00052f707000000e000020035000800e80089
:1030f000d0979f005f939700d6a79f000600e0003f
:1031000003003c0010c0b300e0679f0002003700de
:10311000afcb9700e7679f000d0678000c10b20058
:1031200008003a000d98a3007e0232005fa49700c9
:10313000e40f440003003500afa49700890f54004a
:10314000f90135002fa597000a00e00004003200c5
:103150000d98a300020032000a05e900aaa79f000b
:10316000afa5970020c1b300f28f550001003e00cb
:103170004fc09700e0679f006022b8006033b8003e
:103180005f989700ef9897007f9997008fa197001d
:10319000a8f607000000e000740032006f66970098
:1031a000afc897000cc05000adfd07000002be0084
:1031b0000203be005f989700ef9897007f999700f1
:1031c0008fa197001ef707000004be000205be0095
:1031d0000002be000203be00d49f9f00e59f9f0037
:1031e000f69f9f0087a79f006ff707000001be00b2
:1031f000e00f5000e08f58000200350090f7070004
:103200000900370061006000010020008301d10047
:103210000281d300020070008380700088f70700ed
:103220000001be00b2f707005ef607000002be0014
:103230000203be000800be000a01be0009f8070034
:103240006022b8000600200007fe2300f7f6070002
:103250000000e0000a0035006022b80006002000ef
:1032600007fe23000800be000a01be00fff70700aa
:10327000d09f9f00e19f9f00f29f9f0083a79f0028
:103280005f989700ef9897007f9997008fa197001c
:1032900045f707000002be006033b8000c00fb00d9
:1032a0004304dd0049d2200009004400d000900012
:1032b00060019000f0019000400090000020e100cb
:1032c00001a8e10002b0e10003b8e10010003900fc
:1032d0000400200005002a009699290097fb23008e
:1032e0005f989700ef9897007f9997008fa19700bc
:1032f000b7f50700d09f9f00e19f9f00f29f9f00be
:1033000083a79f00dfa297000500e80016003700a2
:10331000090044005001be004000be000020e10052
:1033200001a8e10002b0e10003b8e1000f003100a4
:103330006022b80006002000470224005f98970032
:10334000ef9897007f9997008fa19700a0f507004d
:10335000d09f9f00e19f9f00f29f9f0083a79f0047
:103360005fa397000600e900d0979f004968de0040
:103370006100600080cf9f000004e0004000320048
:1033800000802000008666003d003a002fa49700d0
:10339000f40f54000200340049012000a9a79f0047
:1033a0005f989700ef9897007f9997008fa19700fb
:1033b000fdf607000004be000c0578008c057800bf
:1033c0000b0037002fa097000000e900a0a79f0086
:1033d000a4002000050020006033b8000800be00f3
:1033e0000a01be00e9f407000205be000004be00a9
:1033f000e00f5400e08f5c00e00f5d00e08f5d00a7
:103400000b003200a4002000050020006033b8004b
:103410000800be000a01be00e3f40700e00f500000
:10342000e08f5800e00f5900e08f5900e5ff3200af
:10343000ef6097000100fb002fa19700800f510063
:103440000f003d0002c0500005fd07000002be0055
:103450000203be005f989700ef9897007f9997004e
:103460008fa1970076f60700d09f9f00e19f9f00f5
:10347000f29f9f0083a79f00cfc19700e3679f0043
:103480006f929700afa297000500520065065000aa
:103490000500e00002003a000db8a3000100320070
:1034a0006606500063806600010032000c06e900e9
:1034b0000d28a30026003200e18066000d18a3004d
:1034c0000c003200d00220000100e00001003a00b0
:1034d0000080e900afa897001e050700e10f40003b
:1034e000180032001fa397000603e80096a79f006c
:1034f000140037000100e00012003200afa897006e
:103500000002200013050700e10f40000d0032000b
:103510009fa397008703e80097a79f000900370043
:10352000afa89700000320000a050700e10f400044
:10353000030032001fa497000804e80098a79f002a
:103540000c06e9000c00e000f5ff3c002e003700ff
:103550000d38a3000a0032000b003700afa8970017
:1035600000022000fb040700e10f400003003200ce
:103570009fa497008904e80099a79f000c06e90022
:103580000c00e000f5ff3c00e18066000d18a30090
:1035900013003200d00220000100e00001003a00d8
:1035a0000080e900afa89700ea040700e10f40009f
:1035b000150032001fa597000a05e8009aa79f0092
:1035c00011003700e8a79f00f9a79f008aaf9f006e
:1035d0009baf9f008045eb00eb679f0080003700aa
:1035e0000100e00008003200afa8970000022000b0
:1035f000d8040700e10f4000030032001fa097002d
:103600000000e80090a79f005f989700ef98970050
:103610007f9997008fa1970063f607000004be0012
:103620006055b800ef6097000100fb004300dd002b
:103630004ed220000e0040003002be002003be002b
:103640000800be000a01be0050f407000003b000ed
:10365000afa89700bf040700e10f4000030032004d
:103660001fa197000201e80092a79f00ef61970059
:103670000300fb004300dd000e0040003002be00ee
:103680002003be000800be000a01be0046f4070089
:103690000205be000004be00e0a79f00f1a79f0046
:1036a00082af9f0093af9f00afa297000500e0009c
:1036b00002003a000db8a30049003200afa89700fd
:1036c000e0022000a3040700e10f400003003200e5
:1036d0001fa397000603e80096a79f00ef639700db
:1036e0000700fb00afa0970000805000809f9f0064
:1036f000240037000fc997000204e00005003200e3
:10370000e00f5400e08f5c00e00f5d00e08f5d0093
:10371000acff32000000fb004300dd004ed2200071
:103720000e0040003002be002003be000800be00b4
:103730000a01be0015f407000003b000afa897000f
:1037400084040700e10f4000030032009fa19700ae
:103750008301e80093a79f006f6297000400fb00bd
:103760004300dd000e0040003002be002003be001a
:103770000800be000a01be000bf407000205be00ef
:103780000004be00ef6297000540e900e0679f007b
:10379000e14f4000d7ff3a00e8a79f00f9a79f003c
:1037a0008aaf9f009baf9f000004eb000900370029
:1037b000afa897000003200066040700e10f400057
:1037c000030032001fa397000603e80096a79f009e
:1037d0000804e8008f9b9700870f5400f4ff3a001d
:1037e0000d58a30009003200afa897005004200034
:1037f00058040700e10f40000c0032001fa497009e
:103800000804e80098a79f0008003700afa89700b9
:10381000500620004f040700e10f40000300320073
:103820009fa497008904e80099a79f005f909700e4
:103830000000e0000b003d000000ea00d0979f0070
:10384000afa89700d002200042040700e10f40001b
:103850000c0032001fa597000a05e8009aa79f00f8
:1038600008003700afa89700b00220003904070015
:10387000e10f4000030032009fa597008b05e80090
:103880009ba79f005f909700a800200011000900ef
:103890000800d8000003b000afa897002d0407006f
:1038a000e10f4000030032001fa097000000e80075
:1038b00090a79f00df909700110009008800d800b2
:1038c0008000fd000003b000afa8970021040700ae
:1038d000e10f4000030032009fa097008100e80044
:1038e00091a79f000d38a3000d0432000c00e000ea
:1038f0000b0434000004eb00afa897000002200086
:1039000014040700e10f4000030032001fa19700dc
:103910000201e80092a79f000804e8008c0f540001
:10392000ff033200f4ff3700dfa197000300e0003f
:1039300004003d002fa29700030052000000e900a0
:10394000a0a79f005f989700ef9897007f99970036
:103950008fa19700c2f607000205be000004be005a
:103960000c42780045d220000b0037000400fb0019
:103970004300dd00050040005001be004000be00d5
:103980000040e10001c8e10002d0e10003d8e100fd
:10399000030039000442e800f44f5200f3ff3a00fc
:1039a000e4679f000400fb00afa29700008752006d
:1039b000f80f57000d003c000e40780056fb070042
:1039c0000002be000203be005f989700ef989700c8
:1039d0007f9997008fa1970024f60700d09f9f0042
:1039e000e19f9f00f29f9f0083a79f000e407800f9
:1039f0009bfb0700d0af9f00e1af9f00f2af9f009d
:103a000083b79f00e00f5400e08f5c00e00f5d0083
:103a1000e08f5d00040035000800be000a01be0012
:103a2000c0f607001300370010002000010020003e
:103a30006011b80008006000898060000a01610020
:103a40008b8161008b03d1000a83d3008982d3006c
:103a50000882d300000072008180720002017300ae
:103a600083817300aff607000002be000203be00b0
:103a7000fef507000002be000203be005f9897003b
:103a8000ef9897007f9997008fa19700f5f50700b1
:103a90000002be000203be005fa89700efa89700d7
:103aa0007fa997008fb19700c9f307006cf6070054
:103ab0000205be000004be000006eb00080037004f
:103ac000a4002000050020006033b8000800be00fc
:103ad0000a01be002df307000205be000004be006f
:103ae0000c035700a6a79f008e0f56001d00320042
:103af0000c06e800a4002000050020006033b80098
:103b00000800be000a01be0027f30700e00f5000c6
:103b1000e08f5800e00f5900e08f5900e8ff3200b5
:103b200010003700afa39700f88f53000d003c0042
:103b300007407800f8fa07000002be000203be004a
:103b40005f989700ef9897007f9997008fa1970053
:103b5000c6f50700d09f9f00e19f9f00f29f9f0046
:103b600083a79f005fa49700e90f540015003c0055
:103b70006022b8006033b8005f989700ef98970014
:103b80007f9997008fa197002af407000000e000ba
:103b9000360032005f989700ef9897007f99970062
:103ba0008fa197002ef60700e00f5000e08f58001d
:103bb000e00f5900e08f59002c003a00e10f54004b
:103bc0002a0034000400200005002e00b6e0220088
:103bd000170124001f989700af9897003f9997000e
:103be000cf9997000ef407000000e00003003d00ad
:103bf000dfa4970073805400020037005fa5970090
:103c000072005500d0979f002f68970014fb0700a3
:103c1000909f9f00a19f9f00b29f9f00c39f9f0006
:103c20000002be000203be005f989700ef98970065
:103c30007f9997008fa1970081f4070008f607008d
:103c4000e0a79f00f1a79f0082af9f0093af9f0066
:103c50006000b8006011b800d0b79f00e1b79f00c6
:103c6000f2b79f0083bf9f00340037005f98970032
:103c7000ef9897007f9997008fa19700f8f50700bc
:103c8000e0a79f00f1a79f0082af9f0093af9f0026
:103c9000e00f5000e08f5800e00f5900e08f59000e
:103ca000020035001ff60700170037001000200043
:103cb000010020006011b8006fa29700ffa29700da
:103cc0000fab97009fab97000400600085806000f9
:103cd00006016100878161008703d1000683d3005c
:103ce0008582d3000482d3000000720081807200bc
:103cf00002017300838173000af607000002be0010
:103d00000203be0059f507000002be000203be0018
:103d10005f989700ef9897007f9997008fa1970081
:103d200050f50700d0b79f00e1b79f00f2b79f00a2
:103d300083bf9f000000eb00d0979f0014c0b3002a
:103d400045d220000f0037000400fb004300dd00d7
:103d5000050340003600be002601be006fa4970098
:103d6000ffa497000fad97009fad97000040e100c2
:103d700001c8e10002d0e10003d8e10003003900ee
:103d80000442e800f44f5200efff3a00e4679f005e
:103d90000400fb00afa4970000804400df90970070
:103da000010040006f959700000655004b68de004b
:103db00061006000004778000004e00002003a0063
:103dc0000900e000010032000c06e9006380660093
:103dd000010032000c06e9000d28a3002600320085
:103de000e18066000d18a3000c003200d002200014
:103df0000100e00001003a000080e900afa8970050
:103e0000d4020700e10f4000180032009fa5970080
:103e10008b05e8009ba79f00140037000100e0001d
:103e200012003200afa8970000022000c90207006c
:103e3000e10f40000d0032001fa097000000e800d5
:103e400090a79f0009003700afa89700000320004b
:103e5000c0020700e10f4000030032009fa097005e
:103e60008100e80091a79f000c06e9000c00e0002b
:103e7000f5ff3c003f0037000d38a3000a00320078
:103e80000b003700afa8970000022000b102070026
:103e9000e10f4000030032001fa197000201e8007b
:103ea00092a79f000c06e9000c00e000f5ff3c0023
:103eb000e18066000d18a3000c003200d002200043
:103ec0000100e00001003a000080e900afa897007f
:103ed000a0020700e10f4000260032009fa19700da
:103ee0008301e80093a79f00220037000100e00053
:103ef00020003200afa897000002200095020700c2
:103f0000e10f40001b0032001fa297000402e800ee
:103f100094a79f00170037000000fb004300dd005e
:103f200041d22000010040003002be002003be004c
:103f30006fa09700ffa097000fa997009fa9970077
:103f400012f20700a4002000050020006033b80032
:103f500015f207000003b000afa897007d0207002c
:103f6000e10f4000030032009fa297008502e800a5
:103f700095a79f006f6397000640e900e0679f00e8
:103f8000e14f4000e4ff3a000b003700afa8970074
:103f9000000320006f020700e10f40000300320021
:103fa0009fa397008703e80097a79f005f90970063
:103fb0000000e900d0979f005f9097000000e000ac
:103fc000f2ff3c002fa49700f20f540003003400ce
:103fd00020c1b300e0679f0002003700cfc4970004
:103fe000e9679f00ef6097000100fb002fa5970095
:103ff00000005500f0979f000104e00002003a0025
:104000000e04e00008003200afa89700e002200094
:1040100050020700e10f4000030032009fa5970007
:104020008b05e8009ba79f006f6097000cfa0700c4
:104030000002be000203be005fb09700efb0970021
:104040007fb197008fb9970061f2070004f5070070
:104050001e0037000000fb004300dd004ed22000b0
:104060000e0040003002be002003be000800be006b
:104070000a01be00c5f10700a400200005002000d1
:104080006033b800c8f107000003b000afa8970084
:1040900030020700e10f4000030032001fa097002c
:1040a0000000e80090a79f00ef6097000100fb0070
:1040b0004300dd000e0040003002be002003be00c1
:1040c0000800be000a01be00b7f107000205be00ed
:1040d0000004be006f6197000240e900e0679f00a6
:1040e000e14f4000dbff3a00e8a79f00f9a79f00df
:1040f0008aaf9f009baf9f000004eb0009003700d0
:10410000afa897000003200012020700e10f400053
:10411000030032009fa197008301e80093a79f004e
:104120000804e8007f929700840f5400f4ff3a00df
:104130000d38a300fa0132000c00e000f801340051
:104140000004eb00afa89700000220000102070066
:10415000e10f4000030032009fa297008502e800b3
:1041600095a79f000804e8008c0f5400ec01320072
:10417000f4ff37000d007800000cb20032003a0066
:104180000d00e00009003d004fa897004005be006b
:104190004004be00c0af9f00e8a79f00f9a79f00a2
:1041a0008aaf9f009baf9f00160037000d48a30009
:1041b000090032004fa997004200be00c2af9f0025
:1041c0004f89de00cf91de000002be0002037800be
:1041d0008203780007003700cfa9970043007800da
:1041e000c3af9f0000027800cfa2de000503780075
:1041f00086037800e4a79f00f5a79f0086af9f0085
:1042000097af9f006fa49700ffa497000fad970092
:104210009fad9700e00f5400e08f5c00e00f5d0061
:10422000e08f5d0026003d003d00b3006000b80057
:104230006011b80008045000898458000a0559002c
:104240008b8559001a0037000d00e00005003d0085
:104250004faa97004401be004400be00c4af9f00b7
:10426000070037000d48a3000a003200cfaa9700cc
:104270004500be00c5af9f000401780084017800ae
:10428000e0a79f00f1a79f0082af9f0093af9f0020
:104290000b0037004fab970046007800c6af9f0079
:1042a00000047800090020000a0020000b00200014
:1042b000e8a79f00f9a79f008aaf9f009baf9f00d0
:1042c000afa497000900e0000b003a006fa0970030
:1042d000ffa097000fa997009fa99700e00f50003b
:1042e000e08f5800e00f5900e08f590002003a00bb
:1042f00011002000a1a79f000d0678000c0cb20051
:1043000000042000800f56003400320003003c00ff
:104310000c00e000070032004500370000082000d4
:10432000800f560018003200000c2000800f56004d
:104330003f003a0014c0b30045d220000f00370000
:104340000400fb004300dd00050040005001be00fa
:104350004000be006fa49700ffa497000fad970028
:104360009fad97000040e10001c8e10002d0e100ec
:1043700003d8e1002d0039000442e800f44f520058
:10438000efff3a002900370014c0b30045ca2000ef
:104390000f0037000400fb004300dd000500400073
:1043a0005001be004000be006fa49700ffa497001c
:1043b0000fad97009fad97000040e10001c8e100fc
:1043c00002d0e10003d8e100180039000442e800ff
:1043d000f04f5200efff3a001400370014c0b30052
:1043e00045bf20000f0037000400fb004300dd0044
:1043f000050040005001be004000be006fa49700c1
:10440000ffa497000fad97009fad97000040e1001b
:1044100001c8e10002d0e10003d8e1000300390047
:104420000442e800f64f5200efff3a00e4679f00b5
:10443000ef6497000900fb002fa597008a0f50003a
:1044400002003d00ea679f0004003700afa5970017
:10445000808f550001003d00a0a79f006f9097003e
:104460000000e000050032006380660003003200b7
:10447000ef9097008100e900e1979f000de8a3000d
:104480000b0032006f919700afa19700830f51008e
:1044900003003c000002eb00e4979f00040037009b
:1044a000ef9297002fa3970086825200e5979f0016
:1044b000408c20000080660001842000810f5000a5
:1044c00006003a00ef9397000700e0001100320069
:1044d0008703e900e7979f000e003700008c20005b
:1044e0000080660001882000810f500009003a001a
:1044f0006f949700e20f540003003c008004eb002f
:10450000e9979f00030037006f9597000a85e9003f
:10451000ea979f00ef6597000b00fb008000eb001f
:10452000b1a79f006f919700800f510002003400e7
:1045300000005100b0a79f000d28a3004f003200db
:10454000e18066000d18a3000c003200d0022000ac
:104550000100e00001003a000080e900afa89700e8
:10456000fc000700e10f4000270032009fa19700e8
:104570008301e80093a79f00230037000100e000bb
:1045800009003200afa8970000022000f1000700e8
:10459000e10f40001c0032001fa297000402e80057
:1045a00094a79f0018003700008c20000080660050
:1045b00001882000810f500013003a00afa8970037
:1045c00000032000e3000700e10f40000300320079
:1045d0009fa297008502e80095a79f008005200014
:1045e0000d58a30001003a0080072000afa89700f3
:1045f000d8000700e10f4000030032001fa397001e
:104600000603e80096a79f00bfa397000700e000fd
:104610000f0032000004eb00afa897000003200059
:10462000cc000700e10f4000030032009fa4970078
:104630008904e80099a79f000804e8003fa59700b7
:104640008a0f5400f4ff3a008005eb00bba79f00df
:104650002fa097008000e900c308dd0040d22000b1
:104660008085400040ca20000085400040bf2000f7
:10467000808440000007eb0094003700bfa0970043
:104680000100e00011003200688066000f003a006f
:1046900000047800afa8970000022000ad000700da
:1046a000e10f4000030032001fa197000201e80063
:1046b00092a79f000804e800bfa19700830f540051
:1046c000f4ff3a000002eb00b4a79f00e18066000f
:1046d0000d18a3000c003200d00220000100e00001
:1046e00001003a000080e900afa897009900070098
:1046f000e10f40000e0032009fa297008502e80003
:1047000095a79f000a0037000100e0000800320072
:10471000afa89700000220008e000700e10f4000c4
:10472000030032001fa397000603e80096a79f002e
:10473000008c20008080660000842000808f500064
:1047400009003a00afa8970000032000810007008d
:10475000e10f4000beff32009fa397008703e800ef
:1047600097a79f00baff370000882000808f500075
:10477000b7ff3a00afa897000003200075000700bc
:10478000e10f4000030032001fa497000804e80076
:1047900098a79f00800520000d58a30001003a0053
:1047a00080072000afa897006a000700e10f4000d3
:1047b000a7ff32009fa497008904e80099a79f00f3
:1047c000a3ff370000042000800f560028003200ad
:1047d00003003c000c00e000070032002e00370010
:1047e00000082000800f560012003200000c20004c
:1047f000800f560028003a003b02be002b03be008b
:104800006fa09700ffa097000fa997009fa997009e
:10481000deef0700a4002000050020006033b80090
:10482000e1ef070004c3b30004424000e4679f00c7
:104830001900370058f520000d58a30001003a0078
:1048400068f620003a02be002a03be006fa097005f
:10485000ffa097000fa997009fa99700cbef070033
:104860006f00600068447800e8679f000a00370026
:104870003902be002903be006fa09700ffa0970079
:104880000fa997009fa99700c0ef0700674060003d
:104890000043b000e0679f00ef6297000500fb0057
:1048a000afa897002b000700e10f40000300320083
:1048b0001fa397000603e80096a79f000e07e800d5
:1048c000e885550068055500e8845400afa39700bb
:1048d000870f5700bbff3a000d38a30010003200cd
:1048e0003fa497000800e0000d0034000004eb0036
:1048f000afa897000002200016000700e10f40005b
:10490000030032009fa497008904e80099a79f0044
:104910000804e8003fa597008a0f5400f4ff3a000e
:10492000bfad9700bb407800bbaf9f00e1679f0021
:104930000104e00032f83a001fa097004f0778000a
:104940004f06be004f05be004f04be00ef04b1008d
:1049500000000600889fbe00000178000104780076
:10496000b10090000118a3003d0032000198a3009f
:1049700003003a00180090000000e00038003a0000
:104980000190a0003104980082047800f90fb20071
:10499000180090000000e00002003a00280090009b
:1049a000000c78003800900000b8a3000600320028
:1049b00000a8a30004003200210020006011b8000c
:1049c0000800780049000700b80090000100780056
:1049d00000b0a10030049800ea8f540005003a00ae
:1049e0000178a30003003a0088007800d00020007e
:1049f000d8ff07009800900058009000808f50006a
:104a00000b0032000100e800100498001800780044
:104a100009587800000c780011c0b30080f720001e
:104a200001487800ea8f5400060032000f0037007a
:104a30008800780009407800c600070080047800ec
:104a40000a003700380090000088a30006003200fa
:104a50000800780095000700e10f400002003a00ce
:104a60008084eb0001003700a900200009007800d5
:104a70004f04be0000000600881f78000004780084
:104a800040009000110020006011b8005cee0700ab
:104a90000001be00180090000000e00002003d0090
:104aa0000000eb0010049800280090000000e000d7
:104ab00008003200380090000098a3000500320082
:104ac00018009000cf80de00020040008380480084
:104ad0000400370018009000cf80de000000510075
:104ae000818059004f047800000006000400fa009d
:104af000889fbe008a9fbe008c1f78000006780049
:104b000092bf9f00a3bf9f00010478003000900077
:104b10000040a100300698002c0090000000e0004a
:104b200006003a004c00900035ee0700e10f40000f
:104b3000e08f480057003a0054003700e18f5000e2
:104b400005003200e28f50000c0032000100e0004e
:104b5000200032004d0037000c007800c6ff07002f
:104b60001fb99700afb99700020140008381480048
:104b700092bf9f00a3bf9f00160037000c00780073
:104b80004a0007004c009000110020006011b8009e
:104b90001bee07000005be004c0090008800780066
:104ba0006011b80016ee07000004be004c00900033
:104bb0008000eb000a01be0011ee07001fba97004b
:104bc000afba97000402440085824c0094bf9f0056
:104bd000a5bf9f000c007800a7ff07001fba970031
:104be000afba97000001520081815a0003003200e1
:104bf0003c00900000b0a000300698003c029000fd
:104c00000408a3000f003200620362000d003a00a6
:104c1000e00f5100e08f59000a0035009c0290001f
:104c20006128b900800f5100818f590005003c00b8
:104c300002805200100698001c0e41000600780009
:104c4000150037000498a300050032001c009000f6
:104c50000000e000020032000c00780013000700a2
:104c60008000eb0011069800ac029000050e780061
:104c70004c0090001fb99700afb99700e0ed070016
:104c8000e00f5000e08f580002003d000080eb0074
:104c9000010037000000eb004f0678004f05be0012
:104ca0004f04be000080fa0000000600881f780054
:104cb00000047800300090000008a30007003200d4
:104cc000800078000120b20004003a00110498002e
:104cd000a8009000010c7800170037000018a3000e
:104ce000190032000098a30017003200a8009000bd
:104cf0000100e00014003200180190000200e00002
:104d00001100320048009000caed070098009000a2
:104d1000810f500003003200380090000003b30000
:104d2000300498000000eb00100498002800900068
:104d3000000c7800380090000058a30002003200f8
:104d40000080eb00010037000000eb004f0478000a
:104d5000000006000200fa00889fbe00a0ff9f002e
:104d60000104780031009000e200600004003a0085
:104d70000003b300300498001104980018003700b5
:104d8000d80490000900e0001a003a006c006000ae
:104d900004003a003300070020049800e10f4000af
:104da00011003a0029049800590498003800900036
:104db0000020a000300498001904980048009000da
:104dc00012002000e68057009aed0700e10f500026
:104dd0001f003200380090000003b3003004980038
:104de0000080eb001c0037000020200050049800d9
:104df0000a00370018019000a800900048009000b9
:104e00008ced070098009000810f500003003200e5
:104e1000380090000003b300300498001000200018
:104e20001004980028009000aff89700014878001f
:104e300028009000000ce800b80090000080eb0013
:104e40000158a30004003a000190a000310498002a
:104e5000aff897000180fb004f04be000080fa000d
:104e600000000600d17b80000100e000030032005a
:104e700011007800d07b880003003700002020005c
:104e8000a3ed070080007800e18f400002003a00a7
:104e9000906e2600e07b880001007800000006008c
:104ea000d17b800001087800d07b880000000600dc
:104eb0000000fa002c43a800d2c2a800d2e2a80049
:104ec000c0e2a900c0c2a900d922a800dee2a80061
:104ed000df02a900dec2a900e302a900e2c2a90024
:104ee000c642a900c622a900ca42a800ca22a80038
:104ef000d922a800d902a800e013200010128800cf
:104f00000000280000128800e01320001013880021
:104f100000002800001388008220a9008240a90018
:104f2000b2c0a800b2a0a800b280a800ae40a800fd
:104f3000ae20a900ae00a9002c43a800d382a9008e
:104f4000d782a80087a0a9008680a900e442a80013
:104f5000470307000080fa00000006000200fa0084
:104f6000004f780011479800e30307001e80fb0004
:104f7000a19d2000801f7800e09c2d00801f7800fc
:104f800001007800b3f20700e48757001e4090004c
:104f90008080fb00a09e200000017800811f780027
:104fa000e09d2d00801f780002007800a9f2070024
:104fb000e4875700760307000080fa00000006002f
:104fc0000800fa001007980041479800320798003f
:104fd000c90307004e4090000080fb00a19d200007
:104fe000801f78001e009000801f7800010078006c
:104ff000aff20700e4875700650307003e0090000a
:105000000000e000090032000040eb00004f780093
:1050100003003700a00f2000640207001e4fe800c5
:1050200070c0b3009e4f1000faff36000080fa00f7
:10503000000006000200fa00d4c2bf000044b20023
:105040000004e000fcff3200d4c2bf0001c8b3007e
:10505000014060000004e000fbff3200a05080002f
:105060000000e000070032000000eb00a0508800c4
:105070000000eb00b050880010002000000f780006
:105080000c003700b05080000000e0000700320044
:105090000000eb00a05088000000eb00b05088003a
:1050a00020002000000f7800020037000000eb0015
:1050b000000f78001e0078000080fa000000060053
:1050c00000a0fe003400f800881f780008002000cf
:1050d000a80188004f0478000000fa008660a9004b
:1050e0009660a900d4c2bf000044b2000004e000f2
:1050f00003003a0010002000a0508800070037008d
:10510000d4c2bf0001c8b300014060000004e00049
:1051100002003a0010002000b05088000080fa0021
:105120003400f9000080fe000040060000a0fe00f0
:105130003400f800881f780008002000a8018800cb
:105140004f0478000000fa008460a9000080fa0093
:105150003400f9000080fe00004006001600fa004e
:1051600000c0eb00104f98000040eb00004f98008b
:105170000040eb00704798000040eb00604798004b
:105180000000eb00200798000040eb00204798004b
:105190000040eb00104798000040eb00004f780003
:1051a00043ff07007e040700802e2d0088040700bf
:1051b00050322d0086040700c0332d008404070000
:1051c00070352d008204070020372d008004070071
:1051d000a0382d007e040700c03a2d007c04070093
:1051e000703c2d007a040700103e2d007804070063
:1051f00000402d007604070070412d007404070064
:1052000070452d007204070070492d0070040700de
:10521000904d2d006e04070090512d006c04070086
:10522000b0552d006a040700b0592d00680407002e
:10523000c4e2a900c4c2a900120020008040eb0013
:10524000005a2d005eff0700d4c2bf000044b20028
:105250000004e0000f003a00100020000c070700d7
:10526000e10f50000b003a00120020008040eb00dc
:10527000005c2d0052ff0700c05d2d0054040700a4
:10528000d4c2bf000044b2000004e000fcff3200c2
:105290004e0037000000eb00fd06070090622d0075
:1052a0004b0407000001eb008040eb0030642d0050
:1052b00043ff07000081eb008081eb00a0c0b3003a
:1052c000b20a0700204f98002e4890000004e0002a
:1052d0002800320030652d003d0407000040eb003f
:1052e000304f98001f003700d0662d0038040700ab
:1052f0003e4890000080fb006c00b9008000780000
:1053000020992000008040001040780077040700ba
:1053100070672d002e0407003e4890000080fb00bf
:105320006c00b900e8004000209920000080400097
:1053300010407800530407003e4890000080fb00b6
:105340006c00b900800078002099200000804000a7
:1053500090407800114f98003e4890000040e800cf
:10536000304f9800be4890002e48900080cf5000eb
:10537000ddff39001e489000e14f40001000320070
:105380001e4890002a0907000040eb008e0c070021
:105390008040eb000040eb007b080700304f980096
:1053a00010682d000a04070021a120009140780018
:1053b0001200200060692d0001ff07000300370084
:1053c000506b2d0002040700baff3700c4e2a800aa
:1053d00000c0eb00340907000001eb008040eb0047
:1053e000606d2d00f6fe070000003700250907005c
:1053f0000000e0005e003200104e80006800600097
:105400000000e00002003200306f2d00f0030700c2
:10541000104e8000630060000000e00003003200d6
:10542000c06f2d00ea0307000200370080712d00d5
:10543000e7030700cbc9bf0012040700114e80002c
:1054400000042000008060000000e0001f00320027
:1054500020732d00de030700104e8000010820009d
:10546000010060000000e00008003200304e8000c3
:105470000000e8001040780002040700304e800071
:1054800010407800ff030700100037000040eb00d9
:10549000304f98000a003700314e80003e4890009f
:1054a0000080fb0000805000630040001040780046
:1054b000f40307003e4890000040e800304f980099
:1054c0003e489000e34f5000f3ff360090732d00ec
:1054d000bf0307000040eb00304f98000900370081
:1054e000414e80003e4890000080fb00008040005c
:1054f00010407800cd0307003e4890000040e800cf
:10550000304f9800a19c2000914078003e489000c8
:1055100080cf5000f2ff3e00c4c2bf000080fb00fd
:105520004600de00614060000004a20061406000af
:10553000614060004601dd00412c20009140780070
:10554000f0cbb30000c0600002407000c4e2b700be
:10555000b20807001e4090000040e8001047980085
:105560009e4090002e4090007cfe07009fff370079
:105570006e409000e34f5000160036000001eb0033
:105580008040eb00c0732d008dfe0700b0752d002c
:105590008f03070010c0b300b50607000081eb00c1
:1055a0008081eb000040eb00d20a07000040eb00d6
:1055b000604798000000eb002007980021a1200020
:1055c000914078000001eb00f0772d007cfe070091
:1055d0000200370010002000200798002e009000e5
:1055e0000000e00081ff32000000eb00200798007f
:1055f0000040eb009e0607000060fe0040a7a800e8
:105600008660a9009660a80033c2bf0061406000b8
:105610000004e000fcff32000040fe0040a7a900ab
:1056200084fe0700004f780020c0b30090060700fa
:105630000004e0000a003200e0792d006403070056
:105640006e4090000040e800604798000001eb00c9
:10565000ee409000407b2d0059fe07000800370007
:105660006e4090000004e000030032009e40900075
:105670002e40900039fe07000040eb006047980084
:105680001e80fb00200f9800ae089000e18f5000b4
:10569000040032002e089000e20f50004a00320051
:1056a00052ff37000040eb0054e9b7000e4890006d
:1056b0000080fb0062002000110009000280d80079
:1056c0008000fd000004e00013003a004295200035
:1056d000124178008280fb00c09220008080400050
:1056e000d0c0b300804878000240e80054e9b70019
:1056f00042952000124178008280fb00c092200079
:1057000080804000a0c0b300804878000240e800dc
:1057100054e9b700200037000040eb00304f9800fc
:105720001a00370043952000934178000382fb0064
:105730000e4890000080fb0062002000110009006c
:105740000280d8008000fd000080fb008000e9009e
:105750003e4890000081fb007508b90082004000bf
:1057600080242d000080400090407800c0922000ee
:1057700000004200014878000340e80054e9b70007
:105780003e4890000040e800304f98003e489000ae
:10579000f44f5000e3ff36000e4890000040e80050
:1057a000004f98000000eb000b0707002e40900010
:1057b0000040e800204798009e4090002e40900056
:1057c000e6fd070009ff37000040eb0054e9b70091
:1057d0007e4090000080fb00620020001100090064
:1057e0000280d8008000fd000004e00013003a00b1
:1057f00042952000124178008280fb00c092200078
:1058000080804000d0c0b300804878000240e800ab
:1058100054e9b70042952000124178008280fb00d5
:10582000c092200080804000a0c0b3008048780073
:105830000240e80054e9b700200037000040eb00c8
:10584000304f98001a0037004395200093417800ac
:105850000382fb007e4090000080fb00620020007d
:10586000110009000280d8008000fd000080fb00cc
:105870008000e9003e4890000081fb006b08b90001
:1058800082004000102b2d000080400090407800e6
:10589000c092200000004200014878000340e80068
:1058a00054e9b7003e4890000040e800304f9800af
:1058b0003e489000ea4f5000e3ff36007e409000e3
:1058c0000040e80070479800110020000040eb0005
:1058d000ca0607000000e00007003a00107d2d0016
:1058e000bb020700120020008040eb00407e2d002c
:1058f000b3fd0700030037002e4090000040e80091
:10590000204798009e4090002e40900093fd070095
:10591000b6fe37000800fa0020079800310798000b
:10592000ae009000800220000009b8002e00900018
:105930006000b9000302780000024200be0090003f
:10594000800220000088b900000242008401780033
:105950000200be00008fbe001e01be0040fd2f00f1
:10596000f1ff2f000200400083804800008fbe003e
:105970001e00be00e00f5000e08f58000900340008
:10598000040037001e00be006b005000e08058008d
:10599000008fbe001e00be00e00f5000e08f5800d8
:1059a000f8ff3c000080fa00000006000400fa0046
:1059b000100798000c00370040c0b300004f78007b
:1059c000030037009001200001002000d1ff0700f4
:1059d0001e4078000040e900004f78001e4078002b
:1059e000e14f4000f7ff3a001e0090000000e90080
:1059f000100798001e009000e10f4000eeff3a00f3
:105a00000080fa00000006000400fa00004f780051
:105a100011479800d802a900d822a900d842a900ad
:105a2000d862a900d882a900d8a2a900d8c2a9002a
:105a3000d8e2a900c7e2a900d2a2a900d6a2a90073
:105a40009e40780061c06000c700dd00cbc2bf008f
:105a50000074a10001407000cbe2b7001e4090002e
:105a60006140600061406000614060006141600031
:105a7000c12d200091407800e0cfb30000c060004d
:105a800002407000dce2b7001e4090000080fb0086
:105a90000000d10061406000614060006140600032
:105aa0006140600000414000c12d2000914078001d
:105ab000d0cfb30000c0600002407000dce2b7004d
:105ac0001e4090000080fb004200de00614060004c
:105ad0006140600061406000614060004201dd00a3
:105ae000c12d200091407800b0cfb30000c060000d
:105af00002407000dce2b7001e4090000080fb0016
:105b00004300de0061406000614060006140600071
:105b1000614060004301dd00c12d2000914078000c
:105b200070cfb30000c0600002407000dce2b7003c
:105b30001e4090000080fb004400de0061406000d9
:105b40006140600061406000614060004401dd0030
:105b5000c12d200091407800f0ceb30000c060005d
:105b600002407000dce2b7001e4090000080fb00a5
:105b70004500de00614060006140600061406000ff
:105b8000614060004501dd00c12d2000914078009a
:105b9000f0cdb30000c0600002407000dce2b7004e
:105ba0001e4090000080fb004600de006140600067
:105bb0006140600061406000614060004601dd00be
:105bc000c12d200091407800f0cbb30000c06000f0
:105bd00002407000dce2b7001e4090008040eb0005
:105be000214798000004e00002003d0010c0b3000f
:105bf000204798002e409000c700dd00dcc2bf00a7
:105c00000074a10001407000dce2b7000000000059
:105c100000000000d682a800000000000000000084
:105c20000000000000000000000000000000000074
:105c3000000000000000000000000000d682a90063
:105c4000d802a800d822a800d842a800d862a8008c
:105c5000d882a800d8a2a800d8c2a800d8e2a8007c
:105c6000c7e2a800d2a2a8000080fa000000060047
:105c70000200fa000202200001022000a09d200084
:105c8000a2ef07000040eb00fae9b700d682a900b6
:105c9000d6a2a900d802a900d822a900d842a900fa
:105ca000d862a900d882a900d8a2a900d8c2a900a8
:105cb000d8e2a900d2a2a900c7e2a900d282a90015
:105cc0008002200039ff0700cbe2a900dc02a80017
:105cd000dc22a800dc42a900dc62a900dc82a90069
:105ce000dca2a900dcc2a900dce2a90000000000df
:105cf000000000000040eb00004f78000800370073
:105d0000d682a800100020000100200001ff07003b
:105d1000d682a9002000200024ff07001e4fe800c3
:105d200020c0b3009e4f1000f5ff360081c3b300c2
:105d30000040eb0034ff070050002000010020006d
:105d4000f4fe070061c0b3000040eb002eff070027
:105d50005000200001002000eefe0700c1c0b3008b
:105d60000040eb0028ff0700500020000100200049
:105d7000e8fe070011c0b3000040eb0022ff07005f
:105d80002000200009ff07000080fa000000060044
:105d90000200fa0021c0b3000040eb001aff070028
:105da0002000200001ff07000040eb001047980092
:105db000200037001e4090008080fb00a09d200046
:105dc00000804000104078000004e0000c003a0021
:105dd0001e409000004f7800060037009e80fb00b8
:105de000a09d20008080400000c2b3008048780061
:105df0001e4fe800f0c0b3009e4f1000f7ff3600c2
:105e00001e4090008080fb00a09d2000008040008c
:105e10009040780010c0b300fbfe07005000200047
:105e200001002000bbfe07001e4090000040e8007b
:105e3000104798001e409000ef4f5000ddff3600e5
:105e400001ccb3000040eb00effe07005000200043
:105e500001002000affe070000c1b300104798000a
:105e6000200037001e4090008080fb00a09d200095
:105e700000804000104078000004e0000c003a0070
:105e80001e409000004f7800060037009e80fb0007
:105e9000a09d20008080400000c2b30080487800b0
:105ea0001e4fe800f0c1b3009e4f1000f7ff360010
:105eb0001e4090008080fb00a09d200000804000dc
:105ec0009040780010c0b300cffe070050002000c3
:105ed000010020008ffe07001e4090000040e800f7
:105ee000104798001e409000ff4f5000ddff360025
:105ef0000080fa00000006000000fa0011c0b300a4
:105f00000040eb00c0fe070020002000a7fe0700b5
:105f10000202200001022000a09d2000fbee0700ed
:105f20000080fa00000006000600fa001007980042
:105f3000210798000040eb00004f78000040eb0084
:105f4000104798001e009000e20f50000b003a002e
:105f5000010037001e4fe8009e80fb00a09d20003e
:105f600000804000104078000004e0000300320090
:105f7000f0c0b3009e4f1000f6ff36001e81fb00fc
:105f80001e4090000080fb00800078002e009000f2
:105f9000008040001040780080407800a09d2000e4
:105fa00000004100014878001e4fe8001e409000ac
:105fb0000040e800104798001e80fb008000e900c8
:105fc000a09d200000804000104078000004e00008
:105fd00003003200e0c1b3009e4f1000e7ff36001f
:105fe0006bff07000080fa00000006000800fa00be
:105ff00010079800210798003207980097c0bf004b
:106000000080fb004500de0061406000004f78002a
:1060100097a0a900d782a90030c0b300cb00070029
:106020002e0090004800de00c80007002e009000ff
:10603000c60007000a003700d20007008040780041
:106040001e009000014878001e0090000000e8004b
:10605000100798003e0090000000e900300798000b
:106060003e0090000000e000f3ff3a00d782a80055
:106070009e40780061c06000614060004501dd0025
:106080007109200091407800f0cdb30000c060009d
:106090000240700097e0b7000080fa0000000600a0
:1060a0000800fa00100798002107980032079800ae
:1060b0000040eb001047980097c0bf000080fb0035
:1060c0004500de0061406000004f780097a0a90005
:1060d00000003700d782a90050c0b3009b00070022
:1060e000a800070010479800d782a80016010700f3
:1060f0001e4090000080fb00610060000004e00092
:10610000f4ff3a00d782a90060c0b3008f000700f7
:10611000d782a8000c010700d782a90020c0b300d5
:106120008a0007002e0090004800de00870007006c
:106130002e009000850007000040eb0010479800fb
:106140001c0037001e009000904078001e00900058
:106150000000e80010079800014078007b0007006d
:106160003e0090000000e900300798001e409000bb
:106170000040e800104798001e4090008080fb001f
:106180002e00900080804000f0032000008060001e
:106190000000e00007003a00d782a8001e409000ef
:1061a0008080fb002e009000010040002007980036
:1061b000c8ff37003e0090000000e000e1ff3a0019
:1061c000d782a8009e40780061c0600061406000f6
:1061d0004501dd007109200091407800f0cdb30049
:1061e00000c060000240700097e0b7000080fa0035
:1061f000000006000600fa00000f78001107980062
:10620000305080009e00400000002800808f500029
:10621000030036000000eb0020079800080037005c
:10622000315080001e00900001087800305080003e
:106230001e00400030508800100020002007980009
:106240002e0090000080fa00000006000200fa0014
:1062500010002000000f78000000eb003050880094
:10626000c19f200020002000e2ff07001e0f6000f9
:10627000e19f200010002000deff07001e0f6000dd
:1062800001a0200010002000daff07001e0f6000b0
:1062900021a02000c0032000d6ff07001e0f6000d1
:1062a00041a0200040002000d2ff07001e0f600028
:1062b0001e0078000080fa00000006000000fa00ce
:1062c000800220008008880011e1a8000080fa0008
:1062d000000006000400fa0031088000010f780079
:1062e00051088000110798001e01be000288be0000
:1062f0000080fa00000006000400fa002047980021
:106300008540a90040128000004f78002e40900088
:106310000080fb004012880085c0bf006440600020
:106320000004e000fcff32000080fa0000000600dc
:106330000000fa000040eb00efff07004012800071
:106340000080fb000080fa00000006000400fa0054
:10635000204798008820a90040138000004f780053
:106360002e4090000080fb004013880088c0bf00d2
:10637000624060000004e000fcff32000080fa0090
:10638000000006000000fa000040eb00efff0700ed
:10639000401380000080fb000080fa00000006002f
:1063a0000000fa00c0002000c011880087c0a900ca
:1063b0000000eb0090118800000820008011880088
:1063c00031e2a8003342a8000080fa000000060075
:1063d0000600fa0010079800020037001e407800ff
:1063e000120007001e00900010407800004f780057
:1063f0001e407800404798004e4090000004e000a6
:106400000200320010c0b300404798004e40900098
:106410009e0090008100e800110798000004e00051
:10642000eeff3a000080fa00000006000200fa00c9
:10643000004f780033c2bf00614060000004e000fc
:10644000fcff32001e80fb00a01188000080fa00d3
:10645000000006000200fa0087c0bf000044b2003e
:106460000004e000fcff3200b0118000004f780013
:1064700087c0a9001e4078000080fb000080fa0061
:10648000000006000400fa00204798002e4090000b
:10649000004f78002e4090000080fb004400de009a
:1064a0006f406000204798002e4090008080fb00e5
:1064b000e09e2d000080400010407800dbff0700c8
:1064c0009e4078006fc06000204798002e409000ea
:1064d0008080fb00e09e2d0000804000104078008e
:1064e000d2ff07000080fa00000006000200fa0058
:1064f000004f78001e80fb00a20020001100090060
:106500000280d8008080fb00e09e2d0000804000cb
:1065100010407800c5ff07001e80fb00a20020008d
:10652000110009000280d8008000fd008080fb007f
:10653000e09e2d000080400010407800bbff070067
:106540000080fa00000006000000fa0000000000d1
:106550000080fa00000006001600fa0055c9bf00ce
:10656000644060000004e000140032006600470050
:1065700058ff07003e009000ce00900010079800e2
:10658000210798001e019000ae019000904e8000ff
:10659000a14e80000001510081815900f0ff2300cd
:1065a00001002000800f5100818f59000300360048
:1065b00000832d0086ff07005549a90055c9bf007b
:1065c000624060000004e000160032006a004700ec
:1065d00040ff07005e009000ee009000100798005a
:1065e000210798001e019000ae019000b04e80007f
:1065f000c14e8000000151008181590040422f00ae
:1066000001002000800f5100818f590005003600e5
:106610005529a9001150800060952000c203200078
:106620009ffe0700370c07000000e0001602320052
:106630000040eb00c2e9b700d04780004200de0016
:1066400061406000634060000080fb006301600007
:10665000114e8000c0ff2f0000806000020070001b
:10666000104e8800d04780004300de00614060008b
:106670000080fb00610060004301dd00114e8000de
:1066800070ff2f000080600002007000104e880034
:10669000d0478000630060008040eb0041579800c5
:1066a000e10f500002003a0010c0b30040579800bc
:1066b000ce5090000180fb00610060004501dd00cc
:1066c000114e8000f0fd2f0000806000020070007d
:1066d000104e8800d04780004700de006140600017
:1066e0000080fb00610060004601dd00114e80006b
:1066f000f0fb2f000080600002007000104e880048
:10670000d147800000082000008060000000e00009
:1067100002003200e0478000304e880000c9bf0010
:10672000cae9b700f0478000404e880002c9bf00a8
:10673000cce9b70001c9bf00cbe9b700114e80001a
:1067400000022000008060000000e000b70132007d
:10675000404e8000104078000080fb00100f980031
:10676000700820009e089000808f500022003200a8
:10677000700820009e089000808f50000d003c00a3
:10678000200820009e089000808f50005d0032009d
:10679000400820009e089000808f50008f0132003a
:1067a000100820009e089000808f50000e003200dc
:1067b0009c013700200920009e089000808f500027
:1067c0004a013200700920009e089000808f50001e
:1067d000bd003200100920009e089000808f5000fc
:1067e000a80032008f0137000040eb00004f780016
:1067f000180d07008e01370013cabf00e24f50008a
:1068000002003600130d070089013700404e80005a
:106810000000e8009040780012cabf0080cf50000e
:10682000020032000b0d0700810137000040eb0031
:1068300054e9b70042952000124178008280fb00a5
:10684000c09220008080400070c9b300804878006a
:106850000240e80054e9b7004395200093417800d6
:106860008380fb00e29c200012417800c09220004f
:1068700000804000024878000340e80054e9b70077
:106880000040eb00104798001000370042952000b0
:10689000124178008281fb001e4090008080fb0046
:1068a00000a220000080400090407800c0922000ac
:1068b00000804100014878000240e80054e9b70038
:1068c0001e4090000040e800104798001e409000d5
:1068d0000004e000edff3200de0c0700104e8000e7
:1068e0004300de00614060000080fb00314e80000c
:1068f00080017800120020000000eb005302070026
:106900004b0137000040eb0054e9b70042952000ee
:10691000124178008280fb00c092200080804000fd
:1069200020c9b300804878000240e80054e9b7006d
:106930000040eb0010479800380037001e409000e0
:106940000080fb006600b900e40040006095200074
:10695000008040001080fb004700de000004e000e3
:106960002b0032001e4090000080fb006600b90042
:10697000800078006095200080804000304e8000cc
:10698000c40207000000e000210032001e40900019
:106990000080fb006600b900e40040006095200024
:1069a000808040000040eb00804878001e4090004e
:1069b0000080fb006600b900800078001050800065
:1069c000808140001e4090000080fb006600b900fe
:1069d0008000780060952000008040006200200068
:1069e00083007800aefd0700429520001241780038
:1069f0008280fb00c0922000808040000040eb00bd
:106a0000804878000240e80054e9b70006003700eb
:106a10001e4090000040e800104798001e40900083
:106a2000e94f5000c5ff36008a0c07001e40900059
:106a3000ea4f500009003a004295200012417800c8
:106a40008280fb00c09220008080400000cfb30015
:106a5000804878000240e80054e9b700104e8000fa
:106a60004300de00614060000080fb00314e80008a
:106a700080017800120020000000eb00f301070005
:106a8000eb003700404e80000000e8001040780026
:106a90000080fb0060004000e10f500008003e0055
:106aa000280407005529a8006e00470009fe0700ca
:106ab0007e0090008e089000b04e8800c14e880085
:106ac000640c0700da00370055c9bf000042b2006d
:106ad0000004e0000200320055a9a900810037003f
:106ae0000040eb0010479800190037001e4090004e
:106af0000080fb006c00b900800078002099200025
:106b0000008040009040780012cabf0080cf500043
:106b10000c003a00324e80001e4090000080fb00c6
:106b20006c00b900800078002099200000804000af
:106b30000000e80082007800560207000000e00034
:106b400008003a001e4090000040e80010479800fe
:106b5000019d2000914078001e409000814f500020
:106b6000e2ff3900019d2000914078001e40900016
:106b7000814f50005b003a001e409000e34f5000f0
:106b800058003e00d0c9bf000080fb0022a12000b9
:106b9000124178006c00b900800078002099200034
:106ba0000080400002487800d0c9bf000080fb0090
:106bb000b29c2000124178006c00b900e80040004f
:106bc000209920000080400002487800d0c9bf0012
:106bd0000080fb00c29c2000124178006c00b900cc
:106be000e8004000209920000080400012409800fa
:106bf0000040eb001047980011003700d0c9bf00db
:106c00000081fb001e4090008081fb00314e80001f
:106c10001e4090000080fb00008040001042780081
:106c20006c10b900830040002099200000804000d3
:106c3000144098001e4090000040e8001047980063
:106c40001e409000e34f5000ecff3600d0c9bf005b
:106c50008080fb00404e80000000e800104178007a
:106c60006c08b900ea004000209920000080400034
:106c7000024878000040eb001047980013003700ee
:106c8000d0c9bf000081fb001e4090008081fb0046
:106c9000414e80001e4090000080fb0000804000bc
:106ca0000080e800104278006c10b900030040003a
:106cb000ea00400020992000008040001440980025
:106cc0001e4090000040e800104798001e409000d1
:106cd0000004e000eaff3200d0c9bf000040e80035
:106ce000d0e9b700db0b070051003700404e8000b1
:106cf0000000e800104078000004e00035003a0091
:106d00000040eb00104798002f0037001e40900015
:106d10000080fb006600b900e400400060952000a0
:106d2000008040001080fb004700de000004e0000f
:106d3000220032001e4090000080fb006600b90077
:106d4000800078006095200080804000304e8000f8
:106d5000d00107000000e000180032001e40900043
:106d60000080fb006600b900e40040006095200050
:106d7000808040000040eb00804878001e4090007a
:106d80000080fb006600b900800078001050800091
:106d9000808140001e4090000080fb006600b9002a
:106da0008000780060952000008040006200200094
:106db00083007800bafc0700060037001e409000f0
:106dc0000040e800104798001e409000e94f500036
:106dd000ceff36009f0b070015003700404e8000a5
:106de0000000e8009040780012cabf0080cf500039
:106df00002003200970b07000d003700404e800064
:106e00000080e800104078007304070070842d00b3
:106e10006ffd070012cabf00b4fd07008d0b07000d
:106e2000030037005569a800010037005569a80024
:106e300055c9bf00644060000004e0000500320056
:106e400055c9bf00684060000004e0000100320046
:106e50005549a900cac9bf000004e000080032007b
:106e600055c9bf00704060000004e00004003a0013
:106e700055c9bf000042b2000004e0000200320029
:106e80005569a900730b07000080fa000000060096
:106e90000a00fa0030079800ecfc07000040eb0005
:106ea00055e9b7000040eb00004f780008003700bc
:106eb0001e80fb006600b900e400400060952000e1
:106ec000808040000040eb00804878001e4fe800c2
:106ed00090c0b3009e4f1000f5ff3600f7fc07008e
:106ee0000040eb0054e9b7000040eb00004f780091
:106ef000070037001e80fb00c200dd00409020002c
:106f0000008140006000b8000089be001e4fe8000c
:106f100090c0b3009e4f1000f6ff36003e00900078
:106f20000000e00017003200f14f80001200200046
:106f300020a120002dfc070012cabf00ff4f500007
:106f4000030036000000eb004007980045003700c2
:106f5000015080001200200030a1200023fc070017
:106f60001150800060952000c20320001ffc070024
:106f7000d0852d0016fd070012cabf0041fd070095
:106f80000c003700f14f80001200200020a12000eb
:106f900043fc0700015080001200200030a12000b7
:106fa0003ffc07001150800060952000c2032000c4
:106fb0003bfc0700e0a02000200798001e00900086
:106fc0000010a000100798001e0090000030a100e3
:106fd0000040a1000050a0000060a1001007980030
:106fe0003e009000614060009e0090000080fb0029
:106ff000610060004201dd00b0ff2f008080600072
:1070000082807000110798001e0090000000a1000f
:10701000100798001e009000ae009000370807008f
:1070200012cabf00020207000040eb00cee9b70021
:10703000cec9bf000034a000cee9b70013cabf001c
:107040000080fb004400dd0080407800cec9bf0016
:1070500000c07000cee9b70097a0a8001000200083
:10706000400798004e0090000080fa0000000600e3
:107070000800fa00204798002e4090000080fb0096
:10708000300798003e009000e10f50001b003200d6
:107090003e009000e20f5000230032003e009000be
:1070a0000000e000010032003500370055c9bf0084
:1070b000624060000004e0000500320011508000d2
:1070c00060952000c2032000f5fb07005529a900a8
:1070d0000040eb00f00a07000000e000040032006e
:1070e0005509a8000000eb00200798002600370093
:1070f00010002000200798002300370000c0eb009c
:10710000e50a07000000e000040032005509a9006c
:107110000000eb00200798001b0037001000200043
:10712000200798001800370000c0eb00da0a0700bb
:107130000000e00003003a00100020002007980043
:10714000110037005509a900120007000000e000f7
:1071500004003a0020002000200798000a003700b1
:10716000fdfc070055c9bf00644060000004e0005a
:10717000fbff3a000000eb002007980002003700f8
:10718000f00f2000200798002e0090000080fa00e9
:10719000000006000800fa0054c9bf00104798001c
:1071a0002cc9bf00004f78000040eb0054e9b70045
:1071b00042952000124178008280fb00c09220009e
:1071c0008080400040c0b300804878000240e80062
:1071d00054e9b7008001eb00120020006195200007
:1071e0000000eb00190007000000e0000e00320074
:1071f0005549a8000e80e80036fc07001e009000ec
:10720000ae009000904e8800a14e88001e4078008d
:107210002ce9b7001e40900054e9b7001000200090
:1072200030079800060037001e4078002ce9b700b0
:107230001e40900054e9b7000000eb0030079800b2
:107240003e0090000080fa00000006001200fa00e4
:10725000300798004107980052079800630798008c
:107260000040eb00204798000040eb0000579800da
:107270005e0090000000e0000200320012c0b30087
:10728000025798001e0090000e5190008280fb0073
:1072900063816000c1ff2f000100600002007000e8
:1072a000100798000040eb00704f98003e009000df
:1072b0000000e00002003a0012c0b300724f9800d4
:1072c0009e0090007e4990000280fb0061006000fb
:1072d0004501dd00f0fd2f0080806000828070009d
:1072e000110798003e009000614060009e009000f1
:1072f0000080fb00610060004201dd00b0ff2f0054
:107300008080600082807000110798006e009000fd
:10731000614060009e0090000080fb006100600002
:107320004301dd0070ff2f008080600082807000cc
:10733000110798000040eb00604f98003e0090005d
:107340000000e00002003a0012c0b300624f980053
:107350009e0090006e4990000280fb00610060007a
:107360004601dd00f0fb2f0080806000828070000d
:10737000110798001e00900063006000e10f5000ac
:1073800004003a001e0090000070a0001007980052
:10739000030037001e0090000070a1001007980045
:1073a0004e0090002007980054c9bf00804178002b
:1073b000c29220001e009000ae009000ee07070071
:1073c000000f78000040eb0054e9b7001e00780081
:1073d0000080fa00000006000200fa00000f7800aa
:1073e0009e0178000001eb008000eb0010002000ff
:1073f00096ff07000080fa00000006000600fa0071
:10740000004f7800110798001e80fb006600b9004d
:10741000e400400060952000008040001080fb00e8
:107420004700de000004e0000a0032001e80fb007e
:107430006600b90080007800609520000080400060
:107440001e0190001100200007000700200798008f
:10745000020037000000eb00200798002e0090008b
:107460000080fa00000006000600fa00000f780015
:107470001107980022079800ae0190000001eb0070
:107480009e0078000000eb0070ff07000080fa000b
:10749000000006000800fa00100798002107980075
:1074a0000040eb00004f7800100037001e80fb000a
:1074b000800078001e00900000804000104178009d
:1074c0001e80fb00800078002e00900000804000ad
:1074d00010407800804f5100030032000000eb00a4
:1074e00030079800060037001e4fe80030c0b30098
:1074f0009e4f1000edff360010002000300798006e
:107500003e0090000080fa00000006000a00fa0029
:10751000004f780011479800120798002307980041
:107520001e80fb00400798004e009000e10f5000c5
:107530000a0032004e009000e20f50000a003200b4
:107540004e0090000000e00001003200090037000a
:107550001000200030079800080037000000eb0002
:1075600030079800050037000000eb003007980056
:10757000020037000000eb00300798003e0090004a
:107580000080fa00000006001800fa00404f980042
:10759000514f980013cabf003047980030c0b30065
:1075a000204798000040eb00104798005e4890008c
:1075b000e14f500003003a00f10f2000310f980016
:1075c000930037006e00470042fb07007e009000ea
:1075d0008e08900020079800310798002e01900037
:1075e000be019000c0bd2000f1ff2f00020040004e
:1075f0008380480020079800310798000040eb0086
:1076000013eab7005589a8007800370072004700d8
:1076100030fb07001e089000ae089000400798005d
:10762000510798004e019000de0190002e0090005e
:10763000be009000000151008181590040422f009e
:1076400001002000800f5100818f59006300360037
:107650004e009000de00900020079800310798004f
:107660001e4090000040e900104798001e40900026
:10767000e14f40005d003a0010c0b3001047980091
:107680002e4090000040e900204798002e409000d6
:10769000e14f400004003a005589a900f10f200095
:1076a000310f98005a0037000040eb0054e9b70052
:1076b00042952000124178008280fb00c092200099
:1076c0008080400010c8b300804878000240e80085
:1076d00054e9b70043952000934178008380fb0074
:1076e00022a1200012417800c092200000804000ba
:1076f000024878000340e80054e9b70043952000b1
:10770000934178008380fb00e29c200012417800c6
:10771000c092200000804000024878000340e8004a
:1077200054e9b7000040eb00004f78000d0037002f
:1077300042952000124178008281fb009e80fb0070
:1077400000a220000080400090407800c0922000fd
:1077500000804100014878000240e80054e9b70089
:107760001e4fe8001e04e000f1ff32004e4890007a
:10777000e14f400006003a008001eb0012002000bb
:107780008000eb0010002000b0fe0700130037005f
:107790004e4890000080fb006c00b900800078002b
:1077a0002099200000804000104078002000070051
:1077b0004e4890000080fb006c00b900800078000b
:1077c00020992000008040008000e8008001eb004c
:1077d000120020000000eb009cfe070029000700bb
:1077e0000000e000010032000c00070055c9bf0096
:1077f000704060000004e00084ff3a003e409000ca
:1078000013eab700cfc9bf000080fb00300f98001b
:107810003e0890000080fa00000006000000fa0018
:107820005569a9000b0907000080fa000000060056
:107830000400fa00004f78008040eb001e40780002
:10784000ef0507000000e000090032001e4078004c
:1078500012eab700f14f80001200200020a12000a2
:107860000ffa0700100020001007980002003700f0
:107870000000eb00100798001e0090000080fa0046
:10788000000006000000fa0033fb070055c9bf00e6
:107890000080fb004300de00614060000080fb00d0
:1078a0000080fa00000006000400fa00204798005b
:1078b0002e409000ea4f50001600360070862d00d2
:1078c000c3fa07000040eb00104798000a00370099
:1078d0001e4090000080fb00e3001000e0a02000ac
:1078e0000080400010407800e6fa07001e4090003b
:1078f0000040e800104798001e409000e34f500001
:10790000f3ff3600a0872d00b1fa070012cabf00ae
:10791000f6fa07002e409000e94f500043003e0069
:1079200060882d00aafa07002e4090000080fb001e
:107930006600b900e400400060952000008040002f
:107940001080fb004700de000004e0007b003200f6
:107950002e409000cbfa0700608b2d009cfa0700a8
:107960000040eb0010479800140037001e409000c4
:10797000e34f50000c003e002e4090008080fb0042
:107980001e4090000080fb00630110006608b900f3
:107990008200400060952000008040001040780088
:1079a000b8fa070002003700408c2d0088fa070063
:1079b0001e4090000040e800104798001e409000d4
:1079c000e74f5000e9ff3600708c2d0080fa070069
:1079d0000040eb00104798000e0037002e4090004a
:1079e0008080fb001e4090000081fb006608b9000b
:1079f00002004000e400400070952000008040003c
:107a0000104078009ffa07001e4090000040e800f8
:107a1000104798001e4090000004e000efff320085
:107a2000c08c2d006afa070044003700f08c2d004e
:107a300067fa07000040eb00104798003c00370051
:107a40001e4090000080fb006600b900e40040008a
:107a500060952000008040001080fb004700de00a1
:107a60000004e0002f0032001e40900085fa07005d
:107a7000608b2d0056fa07000040eb00004f7800a5
:107a80001100370030c0b3009e4f10000b003e00c5
:107a90001e4090008080fb001e80fb0063011000f0
:107aa0006608b90082004000609520000080400018
:107ab0001040780073fa070002003700408c2d0058
:107ac00043fa07001e4fe80070c0b3009e4f10003d
:107ad000ecff3600708c2d003dfa07000040eb00f3
:107ae000004f78000b0037001e4090000080fb0024
:107af0001e81fb006600b90002004000e400400067
:107b00007095200000804000104078005dfa07006a
:107b10001e4fe8001e04e000f3ff3200c08c2d0071
:107b20002bfa07001e4090000040e8001047980024
:107b30001e409000e94f5000c1ff36000080fa005f
:107b4000000006000600fa000040eb001047980015
:107b500000c0eb00004f7800cac9bf00e24f5000e0
:107b600003003e002000200020079800840037001a
:107b70000040eb0020479800210037002e40900085
:107b80000080fb006600b900e40040006095200022
:107b9000008040001080fb004700de000004e00091
:107ba0000f0032002e4090000080fb006600b900fc
:107bb000800078006095200080804000304e80007a
:107bc00034fe07000000e0000a0032002e40900062
:107bd000004f780010c0b300104798000b0037002a
:107be00000c0eb009e4f100002003a002e409000b3
:107bf000004f78002e4090000040e8002047980099
:107c00002e409000e94f5000dcff360000c0eb0032
:107c10009e4f100003003a00100f2000200798002c
:107c20005700370013cabf000004e0000400320010
:107c30001e4090000080fb00200798005000370095
:107c40000040eb0020479800100037001e81fb0029
:107c50002e4090008081fb00314e80002e4090002d
:107c60000080fb0000804000104278006610b900e0
:107c700083004000609520000080400004487800a8
:107c80002e4090000040e800204798002e409000d1
:107c9000e74f5000edff36001e80fb006600b90084
:107ca000e4004000609520008080400000c8b300e0
:107cb000914870009e80fb00404e80000080e800ec
:107cc00010407800614060006141600061416100e6
:107cd0006608b900e4004000609520000080400084
:107ce00061416100e1cfb30010c86000104871002d
:107cf0000040eb0020479800120037001e81fb0077
:107d00002e4090008081fb00414e80002e4090006c
:107d10000080fb00008040006300400010427800bb
:107d20006610b90003004000e40040007095200098
:107d300000804000044878002e4090000040e80099
:107d4000204798002e4090000004e000ebff320036
:107d50001e80fb00c200dd0040902000008140003a
:107d60006000b8000089be001e407800cfe9b7006f
:107d70005589a9001e4090000080fb002007980054
:107d80002e0090000080fa00000006002200fa0099
:107d900000579800120f9800230f98001000200041
:107da00001002000100798002107980012cabf00a8
:107db000004f78000040eb00604798000b00370050
:107dc0006e4090000080fb006c00b90080007800dd
:107dd000209920008080400000c0eb00804878009f
:107de0006e4090000040e800604798006e409000b0
:107df000e34f5000f2ff36000040eb00d0e9b7003f
:107e00000040eb00604798006a0037006e40900029
:107e10000081fb001e009000ae00900082017800ff
:107e20008301e90003003300000040008180480026
:107e3000fbff37001e099000ae0990000002780099
:107e4000810278000200780083007800000162005f
:107e5000018062006102b800740f98000517980055
:107e60007e0890008e109000c000dd000000200011
:107e7000700f9800011798007e0890008e109000f7
:107e80006112b800740f9800051798007e099000e1
:107e90008e1190000200700083807000e00f50008f
:107ea000e08f58004000320010902d0048f9070084
:107eb0006e4090008df907006e4090005cfe070058
:107ec0000040eb0054e9b7004295200012417800d1
:107ed0008280fb00c09220008080400070c8b30008
:107ee000804878000240e80054e9b700439520003c
:107ef000934178008380fb0022a12000124178008a
:107f0000c092200000804000024878000340e80052
:107f100054e9b7008001eb00120020008000eb0064
:107f200010002000c9fc070076004700e9f80700b0
:107f30003e089000ce089000400798005107980036
:107f400050fe07000000e0000100320033fe070091
:107f50007a004700dff807005e089000ee08900006
:107f600060079800710798006e019000fe01900074
:107f70004e009000de009000000151008181590008
:107f80000e5090000080fb00c200dd00407f2d00fd
:107f9000008040001000be00800f5100818f59000a
:107fa00001003e00e6ff37006e4090000040e80010
:107fb000604798006e409000ff4f500093ff3600de
:107fc0001e4078001afe0700d0c9bf000080fb00e9
:107fd0000080fa00000006001400fa00204f98000c
:107fe0000040eb00004f78003b0037006c0047007a
:107ff000b8f807006e009000fe009000100798008f
:108000002107980070004700b2f807000e089000a2
:108010009e08900030079800410798003e019000ac
:10802000ce0190001e009000ae00900000015100b3
:1080300081815900c083270001002000800f51007a
:10804000818f5900efff36000040eb0054e9b70084
:1080500042952000124178008280fb00c0922000ef
:108060008080400040c8b300804878000240e800ab
:1080700054e9b70043952000934178008380fb00ca
:1080800022a1200012417800c09220000080400010
:10809000024878000340e80054e9b7004295200008
:1080a000124178008280fb00c092200000804000d6
:1080b000ae489000014878000240e80054e9b7005b
:1080c0008001eb00120020008000eb001000200077
:1080d0005efc07001e4fe80020c0b3009e4f10005a
:1080e000c2ff36002e489000d1fd07000080fa0044
:1080f000000006002400fa0000579800120f9800b4
:10810000230f980012cabf0040479800760047002e
:1081100070f807003e089000ce08900040079800d5
:108120005107980055a9a8000040eb00604798004f
:108130008c0037001000200001002000008fbe00de
:108140000040eb0050479800710037007a0047006c
:1081500060f807005e089000ee0890006007980045
:10816000710798006e019000fe0190004e00900093
:10817000de0090000001510081815900c08327007a
:1081800001002000800f5100818f59005c003600f3
:108190006e009000fe009000400798005107980084
:1081a0005e409000ff4f50005d003e00060037002b
:1081b0005e4090000040e800504798005e4090000c
:1081c000ff4f500063003e005e4090000081fb00c6
:1081d0001e00be00820178008301e9000300330025
:1081e0000000400081804800fbff37001e0990001e
:1081f000ae09900000027800810278000200780049
:108200008300780000016200018062006102b80012
:1082100004179800151798000e1090009e109000fb
:10822000c000dd0000002000001798001117980022
:108230000e1090009e1090006112b8000417980074
:10824000151798000e1190009e119000020070000a
:1082500083807000e00f5000e08f5800d4ff3200a0
:1082600010912d005af807005e4090009ff807001b
:108270005e4090006efd07005e4090000040e80008
:10828000504798000040eb0054e9b70042952000a9
:10829000124178008280fb00c09220008080400064
:1082a00070c8b300804878000240e80054e9b70085
:1082b00043952000934178008380fb0022a1200099
:1082c00012417800c09220000080400002487800ef
:1082d0000340e80054e9b7000e5090000080fb0016
:1082e0006600b90080007800609520008080400022
:1082f0008001eb00120020000000eb00d3fb070020
:1083000060fd07000000e0000100320043fd0700af
:1083100055c9bf000042b2000004e0008bff3a00e4
:1083200055c9bf000042b2000004e00009003a0055
:1083300050922d0026f8070012cabf006bf8070004
:10834000c08c2d0022f8070013002000730f980046
:108350000c0037007cf807006e4090000040e800f9
:10836000604798006e409000e24f500071ff360069
:108370004e4090002efd070055a9a9000002eb0019
:10838000740f98007e0890000080fa00000006003c
:108390000800fa00604798006e409000e14f4000ee
:1083a0004a003a000040eb00404798004300370085
:1083b0004e4090000080fb006600b900e4004000e1
:1083c00060952000008040001080fb004700de0028
:1083d0000004e0001f0032000040eb0054e9b70049
:1083e00042952000124178008280fb00c09220005c
:1083f0008080400020c8b300804878000240e80038
:1084000054e9b7004e4090000080fb006600b900c0
:108410008000780060952000808040008001eb00a3
:10842000120020000000eb0088fb07000000eb00ba
:1084300010079800030037001e0090000000e800bd
:10844000100798009e009000e0ff2000808f5000f1
:10845000f9ff36004e4090000080fb006600b90036
:10846000e400400060952000808040000040eb0068
:10847000804878004e4090000080fb006600b90004
:108480008000780010508000808140004e409000b5
:108490000080fb006600b900800078006095200035
:1084a000008040006200200083007800fcf6070096
:1084b0004e4090000040e800404798004e40900039
:1084c000e94f5000baff36003d0037006e40900083
:1084d0000080fb006600b900e400400060952000c9
:1084e000008040001080fb004700de000004e00038
:1084f000330032000040eb0054e9b7004295200001
:10850000124178008280fb00c092200080804000f1
:1085100020c8b300804878000240e80054e9b70062
:108520006e4090000080fb006600b900800078007b
:1085300060952000808040008001eb001200200048
:108540000000eb0041fb07000000eb00000f78008b
:10855000010037001e0fe800e0ff20009e0f100012
:10856000fcff36006e4090000080fb006600b90002
:10857000e400400060952000808040000040eb0057
:10858000804878006e4090000080fb006600b900d3
:108590008000780010508000808140006e40900084
:1085a0000080fb006600b900800078006095200024
:1085b000008040006200200083007800b8f60700c9
:1085c0000080fa00000006000200fa00004f780068
:1085d00030c0b3009e4f10000d003e001e407800da
:1085e00013eab700cec9bf00ef40600013cabf0056
:1085f0000080fb004400dd0000c07000cee9b70041
:10860000015080001200200030a12000a4f60700d5
:108610000080fa00000006000e00fa0050079800e3
:10862000610798005e009000900078004107980074
:108630005e0090000080e80090007800310798000c
:108640000000eb002007980070e329001007980055
:108650000040eb00004f78002e0037003e009000f5
:10866000c400dd003e0090004500de008080680010
:108670003e009000008140002e00900063006000ea
:1086800000004000800078006e00900000804000f4
:10869000900078002e00900000804000800069006b
:1086a0004e0090000100400040079800ae0090008e
:1086b0001e00900000804000200798004e009000af
:1086c000c400dd004e0090004500de0080806800a0
:1086d0004e009000008140002e0090004b00de0014
:1086e0006300600000004000800078006e00900091
:1086f00000804000900078002e0090000080400034
:10870000800069003e0090000100400030079800a2
:108710001e4fe800f0c1b3009e4f1000cfff36009f
:108720005e009000ce009000010878005e0090008e
:108730000080e800be009000010878000080fa0088
:10874000000006000c00fa0020079800614798001e
:1087500042079800530798006e4090000080fb008d
:108760004200de000040e800204798000040eb0097
:10877000104798003f0037000040eb00004f7800a2
:108780000a0037001e81fb001e80fb00800078007d
:108790005e009000008040009040780080a12000a2
:1087a00000004100014878001e4fe80020c0b300df
:1087b0009e4f1000f3ff36001e4090001beab700ea
:1087c000ce00900080a1200093ff07000040eb0046
:1087d000004f7800210037001e4090000080fb0011
:1087e000c200dd001e80fb00808040006e409000d3
:1087f0000080fb00808f50001b003d001e40900059
:108800000080fb00c200dd001e80fb0000804000f5
:10881000800078002e009000808140001e40900073
:108820000080fb00c200dd001e80fb0000804000d5
:10883000800078002e0090000080400010417800f9
:108840009e80fb0080a12000008040001040780046
:1088500000406900804978001e4fe80030c0b30036
:108860009e4f1000dcff36001e4090000040e800e4
:10887000104798009e4090002e40900080cf5000fe
:10888000bdff39000080fa00000006000c00fa006d
:108890002007980061479800420798005307980006
:1088a0006e4090000080fb004200de000040e800c7
:1088b000204798000040eb00104798000a0037005e
:1088c0001e4090000080fb00800078005e00900059
:1088d000808040000040eb00804878001e409000ff
:1088e0000040e800104798001e409000e34f500001
:1088f000f3ff36000040eb00104798002a003700d5
:108900000040eb00004f78001e0037001e40900032
:108910000080fb00c200dd001e80fb008080400064
:108920006e4090000080fb00808f500018003d00da
:108930001e80fb00800078005e00900000814000f7
:108940001e80fb00800078005e00900000804000e8
:10895000904178001e4090000080fb00c200dd00c6
:108960001e80fb0000804000800078002e009000f8
:10897000008040001040780000c069000049780085
:108980001e4fe80030c0b3009e4f1000dfff3600de
:10899000ce0090005e0090001fff07001e40900078
:1089a0000040e800104798009e4090002e40900044
:1089b00080cf5000d2ff39000080fa00000006008e
:1089c0000c00fa00100798004147980052479800a1
:1089d00033079800ce4090005e40900080c0400079
:1089e00083a120003e0190001e009000a7ff070019
:1089f0000040eb00004f7800100037004e40900020
:108a00008080fb005e4090000080fb008080400082
:108a10001e80fb0000804000800078001e00900057
:108a2000008140009e80fb0080a12000008040006b
:108a300010407800004978001e4fe80030c0b300b5
:108a40009e4f1000edff36000040eb00004f780015
:108a5000140037009e80fb00510798004e409000a4
:108a60009e4f1000070031001e80fb008000780040
:108a70001e0090000080400010407800004f9800d9
:108a8000020037000040eb00004f980080a120005a
:108a9000de009000008040008e4890000148780081
:108aa0001e4fe80020c0b3009e4f1000e9ff3600c3
:108ab0005e40900064404000004278004e409000cc
:108ac0000080fb00800078001e00900000804000c5
:108ad00083a120003e0190008440780019ff070028
:108ae0000080fa00000006000e00fa00100798004f
:108af0004147980052479800330798000040eb0028
:108b0000004f7800140037001e80fb0060079800bb
:108b10004e4090009e4f1000070031001e80fb0069
:108b2000800078001e009000008040001040780017
:108b3000204f9800020037008040eb00214f980042
:108b400080a12000ee00900000804000ae48900020
:108b5000014878001e4fe80020c0b3009e4f10006f
:108b6000e9ff36004e4090000080fb008000780056
:108b70001e0090000080400083a120003e01900074
:108b8000de409000effe0700ce4090005e40900077
:108b900000c0400000c0e9008040780083a12000b0
:108ba0003e0190001e00900038ff07000040eb00df
:108bb000004f7800160037009e80fb0080a1200047
:108bc00000804000104178004e4090008080fb0003
:108bd0005e4090000080fb00808040001e80fb0013
:108be00000804000800078001e009000008040005f
:108bf0000080e90010407800804f510003003200ef
:108c00008000eb0041079800060037001e4fe80087
:108c100010c0b3009e4f1000e7ff36001100200087
:108c2000410798004e0090000080fa000000060006
:108c30000200fa0000c2b30022000700004f7800d3
:108c40001e80fb006f0060007900b90079004000d1
:108c50000080fa00000006000400fa0010079800e7
:108c600097c0bf000080fb004500de00614060004f
:108c7000004f780097a0a900ca22a9001e0090000a
:108c80004800de009cf507001e0090009af50700e2
:108c9000ca22a8009e40780061c060006140600068
:108ca0004501dd007109200091407800f0cdb3004e
:108cb00000c060000240700097e0b7000080fa003a
:108cc000000006000400fa002047980097c0bf008b
:108cd0000080fb004500de0061406000004f78002e
:108ce00097a0a900ca22a900ae40900000c4b3001a
:108cf00000c07000204798002e4090007ef50700cd
:108d00008bf5070010479800ca22a8009e40780003
:108d100061c06000614060004501dd007109200014
:108d200091407800f0cdb30000c0600002407000b8
:108d300097e0b7001e4090000080fb000080fa0022
:108d4000000006000400fa002047980097c0bf000a
:108d50000080fb004500de0061406000004f7800ad
:108d600097a0a900ca42a9002e40900062f5070012
:108d7000ca42a8009e40780061c060006140600067
:108d80004501dd007109200091407800f0cdb3006d
:108d900000c060000240700097e0b7000080fa0059
:108da000000006002200fa0000579800110f9800fa
:108db00030c0b300104798007e0037000040eb0041
:108dc000004f78000000eb00f05088000040eb00fe
:108dd000304798001e0890000000e0001b003200a1
:108de00080c2b300b7ff0700204798002e409000d4
:108df0000080fb000000d10020479800ae409000aa
:108e000010c4b30080cf5000100036000040eb00cb
:108e1000006798003e409000e44f5000020036008a
:108e200010c0b300006798003e4090000040e8008a
:108e3000304798000e6090000004e000e8ff320028
:108e40000000eb00700f98006400370000c2b30010
:108e50001201070090ac21007fff07000e50900028
:108e6000b8ff07000040eb004047980009003700ba
:108e70004e4090008080fb00c08b200000804000ae
:108e800010407800afff07004e4090000040e8001f
:108e900040479800ce4090000e50900080cf500088
:108ea000f3ff390000c8b300fc000700e050800069
:108eb0000000e00004003a0087c0bf000042b2009a
:108ec0000004e000f9ff32000000eb00e0508800f1
:108ed00000c2b300f100070000c6b300ef000700b6
:108ee000bcc8bf008080fb00000220000080600042
:108ef0000000e0002c003400bdc8bf0082e8b700cd
:108f000074004700f3f407002e089000be0890009c
:108f10004007980051079800f05080000000e000e2
:108f200003003200100020003007980029003700ad
:108f300078004700e7f407004e089000de08900034
:108f400060079800710798006e019000fe01900084
:108f50004e009000de009000000151008181590018
:108f600050c3200001002000800f5100818f590064
:108f700001003e00e8ff37000040eb00405f980032
:108f800030c0b3009e4f100002003e0010c0b3007e
:108f9000405f98001e4fe8004e5890000004e0002b
:108fa00088ff3a00030037001000200030079800c7
:108fb000080037001e4090000040e900104798006c
:108fc0001e409000e14f40007cff3a000000eb00a3
:108fd000300798003e009000700f98007e089000c7
:108fe0000080fa00000006000400fa00000f78007c
:108ff000110798000000eb000080fa000000060056
:109000000400fa00004f780011479800f0c1b30047
:109010009e4f1000030036000000eb001007980080
:109020002000370040c620000bff07009e80fb0099
:10903000e0942d0000804000104078008080fb000c
:1090400000e020000080700003ff07009e80fb000e
:10905000e0962d0000804000104078008080fb00ea
:109060000000210000807000fbfe070000c2b3007a
:109070008a00070060042000f7fe070000c4b30068
:1090800086000700f0c02100f3fe070000c2b30015
:109090008200070000c6b300800007001000200017
:1090a000100798001e0090000080fa0000000600e3
:1090b0000400fa00004f780070c0b3009e4f10000b
:1090c000030036000000eb0010079800080037008e
:1090d0001e80fb000000400080007800004f23004d
:1090e00000807000dcfe07001000200010079800d0
:1090f0001e0090000080fa00000006000600fa0042
:1091000010079800210798001e009000ae00900004
:10911000f0438800014488004001200023f207004a
:10912000ca22a800ca42a8003008800083e8b7001d
:1091300000c0eb0084e8b7000040eb00004f78006f
:10914000090037009e80fb00f00320000088b90072
:109150008000780000802000808040000040eb000c
:10916000804878001e4fe80011c0b3009ecf100069
:10917000f4ff36001e009000640060000000e00074
:10918000110032002150800042002000008b20009e
:1091900096f3070082458000934580000040200040
:1091a00001002000020040008380480080458800c4
:1091b000914588002150800042002000008b200053
:1091c000b7f307000b0037006000b8008045880047
:1091d000914588002150800042002000008b200033
:1091e000aff3070010002000010020008045880038
:1091f000914588000040eb00004f780009003700df
:109200001e81fb009e80fb00e09f2d00008040003f
:1092100090407800408b2000000041000148780019
:109220001e4fe80070c0b3009e4f1000f4ff3600e0
:109230000040eb00004f7800070037001e80fb0065
:1092400080004000e0982d00008040001000780071
:1092500081fe07001e4fe800f1c1b3009ecf100051
:10926000f6ff360000c2b3000c00070060042000c7
:1092700079fe070000c4b30008000700f0c0210019
:1092800075fe070000c6b3000400070097a0a80001
:10929000100020000080fa00000006000400fa0020
:1092a000004f78001e80fb0010079800000420008b
:1092b0009e009000808f50001f00320000042000ac
:1092c0009e009000808f500008003c001e0090001f
:1092d0000000e00022003200000220009e0090000a
:1092e000808f500019003200210037000006200056
:1092f0009e009000808f50000a003200000820007d
:109300009e009000808f500001003200180037004e
:109310006008200050fe070000c8b30085e8b700d1
:1093200013003700600620004bfe070000c6b300a4
:1093300085e8b7000e0037006004200046fe0700f5
:1093400000c4b30085e8b7000900370060022000c0
:1093500041fe070000c2b30085e8b70004003700f3
:10936000600020003cfe07000040eb0085e8b700ed
:109370000080fa00000006000e00fa0020079800a6
:109380003107980042079800234f9800ae4890009c
:1093900080c2b30080cf5000030036000000eb0015
:1093a00060079800d40037002e0090004200de00d5
:1093b0000000a20061406000614060006140600008
:1093c000ae0090000080fb00610060004601dd00ff
:1093d000f0fb2f00808060008280700021079800e1
:1093e0002e00900063006000e10f500003003a007f
:1093f0002e0090000070a000200798004e409000c2
:10940000bce8b70083c8bf00bde8b7000040e80073
:1094100083e8b70020c0b30010479800ae0090006a
:1094200000042000008060000000e0001b0032000b
:109430000040eb0020479800100037001e409000cd
:109440000081fb00be0090002e4090000080fb00d9
:109450000080400090407800c08b20000000410058
:10946000014878001e4090000040e8001047980036
:109470002e4090000040e800204798002e409000c9
:109480008080fb00f04380004300de006f406000fe
:109490000080fb00808f5000e8ff35002e00900018
:1094a00001082000010060000000e0001b00320005
:1094b0000040eb0020479800100037001e4090004d
:1094c0000081fb00014480002e4090000080fb00e2
:1094d0000080400090407800c08b200000004100d8
:1094e000014878001e4090000040e80010479800b6
:1094f0002e4090000040e800204798002e40900049
:109500008080fb00f04380004300de006f4060007d
:109510000080fb00808f5000e8ff35002e00900097
:10952000680060000000e000540032000040eb00e2
:1095300020479800100037001e4090000081fb007b
:109540002e4090008080fb00008b200000804000b7
:1095500090407800c08b2000000041000148780056
:109560001e4090000040e800104798002e409000f8
:109570000040e800204798002e409000e34f500044
:10958000edff36008045800091458000610040007d
:10959000e08048008045880091458800b0c8bf0041
:1095a0000004e00009003a00b1c8bf000080fb00e1
:1095b000630060000000e00004003a0021508000d9
:1095c00042002000008b2000b5f207001e409000f2
:1095d0008080fb00c08b2000808040000040eb00ba
:1095e000804878001e4090000040e8001047980036
:1095f0001e409000004f78000040eb00204798008c
:10960000110037001e4090000081fb002e409000aa
:109610000080fb00800078004e0090000080400039
:1096200090407800c08b2000000041000148780085
:109630001e4090000040e800104798002e40900027
:109640000040e80020479800ae4090002e4890006f
:1096500080cf5000ebff3900c08b2000438b2000ef
:109660002e4990009e407800d5fc07001e409000d7
:1096700000c0e80010479800180037000040eb00d9
:1096800020479800110037001e4090000081fb0029
:109690002e4090000080fb00800078004e0090007b
:1096a0000080400090407800c08b20000000410006
:1096b000014878001e4090000040e80010479800e4
:1096c0002e4090000040e80020479800ae409000f7
:1096d0002e48900080cf5000ebff3900f04380000f
:1096e0000000d100614060008080fb001e409000bf
:1096f000acfd0700600798006e0090000080fa0043
:10970000000006001200fa000040eb00304798000d
:10971000340037006c004700eef207006e00900046
:10972000fe00900020079800310798003e4090000e
:109730000080fb00c300dd00808820000080400026
:10974000100078000000e000230032002e0190009d
:10975000be0190003e4090000080fb004300dd0011
:10976000e400400080882000008040001000be001f
:10977000800f5100818f5900170036002e01900094
:10978000be0190003e4090000080fb004300dd00e1
:10979000e400400080882000008040001000be00ef
:1097a000000151008181590040422f00010020003a
:1097b000800f5100818f5900070036003e40900015
:1097c0000080fb00c300dd00808820008080400016
:1097d0000000eb00800878003e4090000040e80068
:1097e000304798003e409000e44f5000c9ff3600db
:1097f00084c8bf00e14f4000030032000000eb00ce
:10980000000f9800100137000040eb00304798002f
:10981000080137003e4090008080fb00f0032000ec
:109820000088b9008000780000802000008040009f
:109830009040780061c060000004e000fa0032004f
:109840003e4090008080fb00f00320000088b900bb
:1098500080007800108020000080400010407800d8
:10986000fae8b7003e4090008080fb00f003200043
:109870000088b900e10320008080400000802000c3
:10988000008040001040780000e9b70020c0b3001d
:1098900020479800d147800000042000008060002d
:1098a0000000e00007003200f04380004300de00cb
:1098b0006f406000804078002e40900001404000e2
:1098c00020479800d0478000010820000100600078
:1098d0000000e000140032003e4090008080fb0059
:1098e000f00320000088b90080007800008020008c
:1098f000008040008000e8002e4090000080fb00c7
:1099000000804000e0478800f04380004300de0014
:109910006f406000804078002e4090000140400081
:1099200020479800020037000000eb00e047880065
:10993000d0478000680060000000e000a300320013
:109940003e4090008080fb002e4090000080fb0095
:1099500064014000f00320000088b900820040004c
:109960001080200000804000104078000004e000db
:109970000c0032003e4090008080fb00f00320008d
:109980000088b900800078000080200080804000be
:109990000040eb00804878000000eb00000f9800ca
:1099a000a9003700d04780000108200001006000b6
:1099b0000000e000570032000040eb001047980024
:1099c000180037001e4090000080fb006600b900c0
:1099d000e400400060952000008040001080fb0003
:1099e0004700de000004e0000b003200e247800088
:1099f0001e4090000080fb006600b90080007800e7
:109a0000609520000080400082007800a1f60700e9
:109a10000000e00006003a001e4090000040e80010
:109a2000104798001e409000e94f5000e5ff3600b7
:109a30001e409000e94f500036003e000040eb0011
:109a4000004f7800110037001e82fb003e4090005e
:109a50008081fb002e4090008080fb001e80fb0078
:109a600000814000f00320000098b900820040000f
:109a70001080200000804000904078000e004200de
:109a800068004000014878001e4fe80031c0b30074
:109a90009ecf1000ecff36001e4090000080fb00bf
:109aa000c200dd0040902000008040001001be0098
:109ab0004e009000de009000800f5100818f590011
:109ac0000c0036003e4090008080fb00f003200038
:109ad0000088b9008000780000802000808040006d
:109ae0000040eb00804878000000eb00000f980079
:109af000550037001e4090000080fb004e01900092
:109b0000de019000c200dd00409020000080400097
:109b10000288be002e40900065404000204798001b
:109b20003e4090008080fb00f00320000088b900d8
:109b3000e103200080804000008020000080400081
:109b4000904078002e40900000c150003e409000b0
:109b50008080fb00f00320000088b90080007800be
:109b600000802000008040000000e800438b2000bf
:109b7000ae409000dcfb07000000e0000c003a0063
:109b80003e4090008080fb00f00320000088b90078
:109b90008000780000802000808040000040eb00c2
:109ba000804878008000eb00010f98002600370005
:109bb00001902000914078002e40900000c050009d
:109bc00000c0e90000e9b7000400370000c9bf0089
:109bd000ae4090000140500000e9b7003e409000c8
:109be0008080fb00f00320000088b900800078002e
:109bf00000802000008040008000e8002e4090009f
:109c00000080fb0000804000f047880087c8bf004c
:109c100001e9b7003e40900084e8b7001100200041
:109c2000010f9800080037003e4090000040e80017
:109c3000304798003e409000e14f5000f5fe36005e
:109c40000000eb00000f98000e0890000080fa0062
:109c5000000006000000fa0084c8bf00e14f500079
:109c60000b003e0084c8bf008080fb00f003200092
:109c70000088b900800078000080200080804000cb
:109c80000040eb008048780000c0eb0084e8b7009b
:109c90000080fa00000006000800fa002047980043
:109ca0002e4090000080fb00300798003e0090009e
:109cb0000000e00005003200f00f2000be00900020
:109cc000808f500005003200190037000040eb0083
:109cd00072fd070097a0a9001800370000c2b3006a
:109ce0006efd070000c6b3006cfd070097a0a8003a
:109cf000a00020002def07000040eb00004f78008f
:109d0000070037001e80fb00c300dd0080882000b4
:109d1000808040000000eb00800878001e4fe800c3
:109d200040c0b3009e4f1000f6ff3600030037001e
:109d30008000eb002107980002003700100020008f
:109d4000200798002e0090000080fa000000060016
:109d500000a0fe003600f800849fbe00869fbe0073
:109d60003400f80004002000a40188000000fa007c
:109d700086c0bf00704060000004e00005003200b3
:109d800096c0bf00704060000004e0000100320097
:109d90008680a900518820009140780000c6b30059
:109da00080cf500005003a0080c2b300c5fb070019
:109db0000080fb000000d10086e8b7000080fa00b8
:109dc0003400f9004f03be004f02be003600f90018
:109dd0000080fe000040060000a0fe003600f800f3
:109de000849fbe00869fbe00889fbe003400f8009e
:109df00004002000a40188001800fa0087c0bf00fa
:109e00000042b2000004e0009901320097c0bf0098
:109e10000042b2000004e0009501320051882000a9
:109e20009140780000c6b30080cf50008c013a000a
:109e300086c8bf0087e8b700ca42a9003cf1070006
:109e4000104f9800ca42a8000040eb00004f980055
:109e50000e0037000e4890008080fb00f0032000c9
:109e60000088b90080007800008020000080400059
:109e70009040780061c060000004e00006003200fd
:109e80000e4890000040e800004f98000e489000f7
:109e9000e14f5000efff36001e489000e24f5000a7
:109ea00003003a001000200020079800020037004d
:109eb0000000eb00200798009e489000c0c3b3004c
:109ec00080cf500009003e001e4890000004e000d2
:109ed000060032000e489000e14f5000140036009a
:109ee0002e0090000000e00011003a00a0c1b30075
:109ef00074fb07002047980006003700ca42a900fb
:109f00000bf10700ca42a800a0c1b3006dfb070017
:109f1000204798002e4090000080fb000000d100f8
:109f2000610060000004e000f4ff3a004e013700d9
:109f30000040eb00204f98001e4890000080fb007e
:109f400030079800420137003e0090000000e90011
:109f5000300798002e0090000000e0000c00320056
:109f6000ca42a9002e4890000084fb00f0f00700d0
:109f7000804078006b004700017478002e48900004
:109f80000040e800204f9800ca42a80011003700a6
:109f9000ca42a9000e4890000084fb002e489000a1
:109fa0008084fb00e2f0070000417800f00320000d
:109fb00000c0b900890040001080200000804000ef
:109fc000024878002e4890000040e800204f98009a
:109fd000ca42a800ae4890001e48900080cf5000b2
:109fe0001b0139002e0090000000e0002a00320022
:109ff0006b004700104078000080fb0063006000a9
:10a00000e20f50000a003a006b00470090409000b9
:10a0100082c8bf0080cf500002003a00100020002c
:10a02000f05088000040eb00204f98000e013700f0
:10a030000e489000e14f5000030036000040eb0056
:10a04000204f9800a9ff37000e4890008080fb0049
:10a050006b00470010417800f00320000088b90031
:10a0600080007800108020000080400002487800c6
:10a070000e4890008080fb006b004700104190006c
:10a08000f00320000088b9008000e8001080200064
:10a0900000804000024878000e4890008080fb005d
:10a0a000f00320000088b900e10320008080400018
:10a0b00000802000008040009e4890000148780009
:10a0c00000c0eb00004f78000e4890008080fb003d
:10a0d000f00320000088b900800078001080200084
:10a0e00000804000104078000080fb004600de0049
:10a0f000610060000004e0002d0032000040eb0031
:10a1000010479800220037000e4890008080fb0026
:10a110001e4090000080fb000081e800f00320005a
:10a120000088b900820040001080200000804000bc
:10a1300010417800014480001e4090000080fb0028
:10a140000080400010407800804f51000d00320028
:10a150000040eb00204f98000e4890008080fb00ec
:10a16000f00320000088b900e10320008080400057
:10a1700000802000808040000040eb008048780094
:10a180005aff37001e4090000040e800104798003a
:10a190001e4090008080fb00f04380004300de0002
:10a1a0006f4060000080fb00808f5000d6ff3500bc
:10a1b0000e4890008080fb00f00320000088b9006a
:10a1c000800078001080200000804000104078005f
:10a1d0000080fb004500de00610060000004e0003c
:10a1e000330032000040eb00104798000c003700ad
:10a1f0001e4090000081fb001e4090008080fb000c
:10a20000c08b200000804000904078006b00470029
:10a21000017178001e4090000040e800104798004f
:10a220001e409000e14f5000f1ff360060c0b300c7
:10a23000bce8b7000e4890008080fb00f0032000cf
:10a240000088b9008000e8001080200000804000f5
:10a2500010407800bde8b70087a0a9008000eb009f
:10a2600020c0b300cffa07000040eb001047980071
:10a270000c0037001e4090000081fb001e40900043
:10a280008080fb006b004700e1407800c08b20001d
:10a2900000004100014878001e4090000040e800a6
:10a2a000104798001e409000e14f5000f1ff36002b
:10a2b0000040eb0010479800350037001e4090002a
:10a2c0000080fb00c300dd0080882000008040008b
:10a2d000100078000000e0001d0032001e409000d9
:10a2e0000080fb004300dd008080e80080882000c3
:10a2f00000804000104178000e4890008080fb00f4
:10a30000f00320000088b9008000e80010802000e1
:10a310000080400010407800804f51000c003a004f
:10a320001e4090000084fb0070004700e9ef07002a
:10a330000e0990009e0990004340dd00e4004000bb
:10a3400080882000008040000288be001300370093
:10a3500000c0eb009e4f10000a003a001e40900023
:10a360000080fb00c300dd008088200000804000ea
:10a37000100078000000e00002003a009e409000cb
:10a38000014f78001e4090000040e8001047980000
:10a390001e409000e44f5000c8ff36001e40900061
:10a3a000e44f50003000360040c0b3009e4f100014
:10a3b0001e003e001e80fb00c300dd0080882000e0
:10a3c0008080400010002000800878009e81fb0003
:10a3d0000e4890008080fb00f00320000088b90048
:10a3e0008000e800108020000080400010417800cc
:10a3f0004318dd008080e800808820000080400055
:10a40000024878001e84fb0074004700b1ef07008b
:10a410002e099000be0990004340dd00e40040009a
:10a4200080882000008040000288be000e48900016
:10a430008080fb00f00320000088b90080007800d5
:10a4400000802000008040001004a00006003700bb
:10a450003e0090000000e000bbfe3a000200370022
:10a4600010002000e050880087a0a9000000000034
:10a470000080fa003400f9004f04be004f03be0014
:10a480004f02be003600f9000080fe0000400600ca
:020000040000fa
:020000040002f8
:04aff800fdfa00005e
:020000040000fa
:020000040002f8
:04affc007b3f000097
:020000040000fa
:10000800b65e0000b65e0000b65e0000b65e000098
:10001800b65e0000b65e0000b65e0000b65e000088
:10002800b65e0000b65e0000b65e000096280000ce
:10003800b65e0000b65e0000b65e0000b65e000068
:10004800b65e0000b65e0000b65e0000b65e000058
:10005800b65e0000b65e0000b65e0000b65e000048
:10006800b65e0000b65e0000b65e000060280000c4
:10007800a84e0000b65e0000b65e0000b65e000046
:10008800b65e0000b65e0000b65e0000b65e000018
:10009800b65e0000ec4e0000b65e0000b65e0000e2
:1000a800b65e0000b65e0000b65e0000b65e0000f8
:1000b800b65e0000b65e0000b65e0000b65e0000e8
:1000c800b65e0000b65e0000b65e0000b65e0000d8
:1000d800b65e0000b65e0000b65e0000b65e0000c8
:1000e800b65e0000b65e0000b65e0000b65e0000b8
:1000f800b65e0000b65e0000b65e0000b65e0000a8
:10010800b65e0000b65e0000b65e0000b65e000097
:10011800b65e0000b65e0000b65e0000b65e000087
:10012800b65e0000b65e0000b65e0000b65e000077
:10013800b65e0000b65e0000b65e0000b65e000067
:10014800b65e0000b65e0000b65e0000b65e000057
:10015800b65e0000b65e0000b65e0000b65e000047
:10016800b65e0000b65e0000b65e0000b65e000037
:10017800b65e0000b65e0000b65e0000b65e000027
:10018800b65e0000b65e0000b65e0000b65e000017
:10019800b65e0000b65e0000b65e0000b65e000007
:1001a800b65e0000b65e0000b65e0000b65e0000f7
:1001b800b65e0000b65e0000b65e0000b65e0000e7
:1001c800b65e0000b65e0000b65e0000b65e0000d7
:1001d800b65e0000b65e0000b65e0000b65e0000c7
:1001e800b65e0000b65e0000b65e0000b65e0000b7
:0801f800b65e0000b65e0000d7
:020000040000fa
:10020800b65e0000b65e0000b65e0000b65e000096
:10021800b65e0000b65e0000b65e0000b65e000086
:10022800b65e0000b65e0000b65e000096280000cc
:10023800b65e0000b65e0000b65e0000b65e000066
:10024800b65e0000b65e0000b65e0000b65e000056
:10025800b65e0000b65e0000b65e0000b65e000046
:10026800b65e0000b65e0000b65e000060280000c2
:10027800a84e0000b65e0000b65e0000b65e000044
:10028800b65e0000b65e0000b65e0000b65e000016
:10029800b65e0000ec4e0000b65e0000b65e0000e0
:1002a800b65e0000b65e0000b65e0000b65e0000f6
:1002b800b65e0000b65e0000b65e0000b65e0000e6
:1002c800b65e0000b65e0000b65e0000b65e0000d6
:1002d800b65e0000b65e0000b65e0000b65e0000c6
:1002e800b65e0000b65e0000b65e0000b65e0000b6
:1002f800b65e0000b65e0000b65e0000b65e0000a6
:10030800b65e0000b65e0000b65e0000b65e000095
:10031800b65e0000b65e0000b65e0000b65e000085
:10032800b65e0000b65e0000b65e0000b65e000075
:10033800b65e0000b65e0000b65e0000b65e000065
:10034800b65e0000b65e0000b65e0000b65e000055
:10035800b65e0000b65e0000b65e0000b65e000045
:10036800b65e0000b65e0000b65e0000b65e000035
:10037800b65e0000b65e0000b65e0000b65e000025
:10038800b65e0000b65e0000b65e0000b65e000015
:10039800b65e0000b65e0000b65e0000b65e000005
:1003a800b65e0000b65e0000b65e0000b65e0000f5
:1003b800b65e0000b65e0000b65e0000b65e0000e5
:1003c800b65e0000b65e0000b65e0000b65e0000d5
:1003d800b65e0000b65e0000b65e0000b65e0000c5
:1003e800b65e0000b65e0000b65e0000b65e0000b5
:0803f800b65e0000b65e0000d5
:020000040000fa
:10a4900020b200002020000020b200002020000098
:10a4a000b2200000b2200000202000002020000088
:10a4b000b2200000b20d00000ab2000020b200007d
:10a4c00020b2000020b200002020000020b20000d6
:10a4d00020200000b220000020b200002020000058
:10a4e0000d0a0000b220000020b200002020000071
:10a4f000b2200000b2200000b220000020b2000014
:10a5000020200000b2200000b20d00000ab20000be
:10a5100020200000b220000020b2000020b2000085
:10a5200020200000b2200000b2200000b220000075
:10a5300020b200000d0a0000b220000020b200008e
:10a5400020200000b2200000b220000020200000e7
:10a55000b2200000b220000020200000b20d000058
:10a560000ab20000b2b2000020200000b2b2000027
:10a57000b2b200000d0a0000b220000020b20000bc
:10a5800020b2000020200000200d00000ab20000d0
:10a5900020200000b2200000b2b20000b2b20000e1
:10a5a0000d0a0000b220000020b2000020b200001e
:10a5b00020200000200d00000ab20000b2b200000e
:10a5c00020200000b2b20000b2b200000d0a00006c
:10a5d0000d0a0000537400006172000074690000ed
:10a5e0006e670000204e00006f64000065200000d0
:10a5f000322000006f660000204600006561000008
:10a60000747500007265000020440000656d000054
:10a610006f200000666f0000722000004d6900008e
:10a6200057690000285400004d2900002050000008
:10a63000325000002053000074610000636b000082
:10a64000202e00002e2e0000000d00000a49000000
:10a650006e70000075740000204300006f6e0000f3
:10a66000666900006775000072610000746900008f
:10a670006f6e00003a0000000d0a0000202000006c
:10a6800020200000202000002020000020200000ca
:10a690002042000075740000746f00006e200000fe
:10a6a000313a00002052000044360000000d000046
:10a6b0000a200000202000002020000020200000b0
:10a6c000202000002020000042750000747400006b
:10a6d0006f6e0000203200003a200000524400005b
:10a6e000370000000d0a00004f7500007470000074
:10a6f00075740000204300006f6e00006669000062
:10a700006775000072610000746900006f6e0000e0
:10a710003a0000000d0a0000202000002020000068
:10a720002020000020200000202000002020000029
:10a730002020000020200000202000002020000019
:10a74000205200005332000033320000207000001d
:10a750006f720000740000000d0a0000202000004d
:10a7600020200000202000002020000020200000e9
:10a7700020200000202000004c4500004420000064
:10a78000313a00002044000031300000000d00008c
:10a790000a200000202000002020000020200000cf
:10a7a000202000002020000020200000204c00007d
:10a7b00045440000203200003a20000044390000e7
:10a7c000000d00000a2000002020000020200000d2
:10a7d0005246000020540000726100006e730000b9
:10a7e0006365000069760000657200003a20000091
:10a7f0004d5200004638000039580000410000006a
:10a800000d0a00002020000020440000656d0000bb
:10a810006f200000496e0000737400007275000024
:10a8200063740000696f00006e3a0000000d0000c4
:10a830000a2000002020000020200000202000002e
:10a840002020000020200000202000002020000008
:10a85000202000002020000020200000506f000079
:10a8600077650000722000006f6e00002074000009
:10a8700068650000206200006f61000072640000e3
:10a88000207500006e740000696c0000204c000010
:10a890004544000020310000206c00006967000082
:10a8a000687400007320000075700000000d000047
:10a8b0000a200000202000002020000020200000ae
:10a8c0002020000020200000202000002020000088
:10a8d000202000002020000020200000746f0000d5
:10a8e000206900006e64000069630000617400006c
:10a8f00065200000697400002069000073200000da
:10a90000636f00006e6e00006563000074650000f8
:10a9100064200000746f000020740000686500006f
:10a920002070000065650000722e0000000d000020
:10a930000a2000002020000020200000202000002d
:10a940002020000020200000202000002020000007
:10a950002020000020200000202000005075000072
:10a96000736800002042000075740000746f0000de
:10a970006e20000031200000746f00002062000093
:10a98000726f000061640000636100007374000076
:10a9900020610000206d00006573000073610000fd
:10a9a000676500002e2000005075000073680000ed
:10a9b000000d00000a2000002020000020200000e0
:10a9c0002020000020200000202000002020000087
:10a9d0002020000020200000202000002020000077
:10a9e00042750000747400006f6e00002032000099
:10a9f000207400006f200000756e00006963000085
:10aa00006173000074200000656e00006372000036
:10aa10007970000074650000642000006d6500001e
:10aa20007373000061670000652000006f6e000016
:10aa3000000d00000a20000020200000202000005f
:10aa40002020000020200000202000002020000006
:10aa500020200000202000002020000020200000f6
:10aa60005049000043440000454d0000205a0000ba
:10aa7000206f00007220000045780000706c00001c
:10aa80006f72000065720000203100003620000067
:10aa9000646500006d6f0000206200006f610000bf
:10aaa00072640000732e0000204c0000454400003a
:10aab00020320000000d00000a20000020200000cd
:10aac0002020000020200000202000002020000086
:10aad0002020000020200000202000002020000076
:10aae00020200000776900006c6c000020620000ec
:10aaf00065200000746f0000676700006c6500004f
:10ab000064200000757000006f6e0000207200006d
:10ab10006563000065690000766900006e670000eb
:10ab2000206d000065730000736100006765000020
:10ab3000732e0000000d00000a0d00000a00000046
:10ab40004665000061740000757200006520000019
:10ab50005032000050200000446500006d6f00007e
:10ab6000204d0000524600003839000058410000d6
:10ab7000204e00006f6400006520000032000000dd
:10ab8000204e000065740000776f0000726b0000bb
:10ab90002046000072650000657a000065720000c2
:10aba0002020000020200000454e0000414200000f
:10abb0004c450000440000000d0a00004e650000f6
:10abc000747700006f7200006b2000004672000076
:10abd000656500007a65000072200000466500008f
:10abe0006174000075720000652000006973000048
:10abf000206500006e610000626c0000656400006a
:10ac00002e200000546800006572000065200000de
:10ac1000776900006c6c0000206200006520000075
:10ac20006e6f000020680000616e0000642d00005f
:10ac300073680000616b0000652000007072000006
:10ac40006f63000065730000732e00000d0a0000a2
:10ac5000000d00000a5300007461000072740000cf
:10ac6000696e000067200000416300007469000005
:10ac70007665000020530000636100006e2e000026
:10ac80002e2e000000410000637400006976000071
:10ac90006520000053630000616e00006e690000d3
:10aca0006e670000000d00000a41000063740000a0
:10acb000697600006520000053630000616e0000ab
:10acc0002052000065730000756c00007473000072
:10acd0003a2000000d0a00000043000068610000f7
:10ace0006e6e0000656c00003a200000002000003d
:10acf0002020000052530000534900003a20000079
:10ad0000000d00000a4300006f6e00006e65000039
:10ad100063740000696f00006e2000004372000041
:10ad200065610000746500006400000020430000bd
:10ad30006f6e00006e6500006374000065640000c3
:10ad4000205000006565000072200000206f0000a8
:10ad50006e20000043680000616e00006e65000018
:10ad60006c20000025640000000d00000a4e000069
:10ad70006f200000537500006974000061620000dc
:10ad80006c65000020500000414e00002c200000a7
:10ad90005265000073630000616e00006e69000080
:10ada0006e6700002e2e00002e00000052440000ae
:10adb000363a000020420000726f0000616400001b
:10adc0006361000073740000202000005244000002
:10add000373a0000205500006e69000063610000f2
:10ade000737400000053000065630000757200007a
:10adf0006564000020000000427200006f610000e6
:10ae00006463000061730000742000005061000062
:10ae1000636b000065740000207700006974000017
:10ae20006820000052530000534900002000000039
:10ae3000556e00006963000061730000742000001b
:10ae400050610000636b0000657400002077000013
:10ae5000697400006820000052530000534900004c
:10ae60002000000020660000726f00006d200000ce
:10ae7000003a0000200000005265000073790000d5
:10ae80006e630000687200006f6e0000697a000057
:10ae9000696e0000672000007468000065200000f3
:10aea000436f00006e6e000065630000746900006f
:10aeb0006f6e0000000d00000a5200006573000074
:10aec000796e000063680000726f00006e69000018
:10aed0007a6900006e670000207400006865000059
:10aee000204300006f6e00006e6500006374000078
:10aef000696f00006e2e00002e2e00000020000062
:10af000052650000737900006e63000068720000f3
:10af10006f6e0000697a0000656400002020000068
:10af2000746f000020430000686100006e6e000036
:10af3000656c000020250000640000000d0a000080
:10af4000446100007461000020520000657100003f
:10af50007565000073740000204600006169000000
:10af60006c65000064000000436f00006e6e00001e
:10af700065630000746900006f6e0000204c0000e3
:10af80006f730000742000002020000020200000cb
:10af90002564000020540000696d00006573000006
:10afa000000d00000a5500006e690000636100009a
:10afb0007374000020460000616900006c650000a9
:10afc000640d00000a000000205500006e690000ba
:10afd0006361000073740000204600006169000096
:10afe0006c650000640000007800000000000000b4
:10aff000b4000000000000002c0100000000000070
:10b000001c02000000000000fc0300000000000023
:10b01000bc070000000000003c0f00000000000022
:10b020003c1e0000000000003c3c0000000000004e
:10b030003c780000000000003cf000000000000030
:10b040003ce00000010000003cc0000003000000e4
:10b050003c800000070000003c0000000f000000e2
:10b06000446100007461000020520000657100001e
:10b0700075650000737400002045000078700000c2
:10b0800069720000656400000d0a0000000d0000f8
:10b090000a4800006f700000706900006e670000d1
:10b0a00020430000686100006e6e0000656c0000c7
:10b0b000207400006f2000000020000043680000a2
:10b0c000616e00006e6500006c3a0000000d00002b
:10b0d0000a0d00000a4d00007920000041640000c4
:10b0e0006472000065730000733a000020300000b5
:10b0f000780000002020000043680000616e00001e
:10b100006e6500006c3a0000200000000d0a00008f
:10b11000436f00006e6e00006563000074690000fc
:10b120006f6e000020200000202000002050000052
:10b1300065650000724c00006f6e00006741000002
:10b14000646400007265000073730000202000003a
:10b1500020200000205000006565000072490000ba
:10b160006e6600006f0d00000a0000002020000045
:10b1700020200000202000002020000020200000cf
:10b1800020200000200000002020000000200000ff
:10b1900020200000200000000d0a0000000d00002b
:10b1a0000a0d00000a4300006f6e00006e6500008b
:10b1b00063740000696f00006e2000002020000012
:10b1c0002020000050650000657200004c6f0000f8
:10b1d0006e67000041640000647200006573000047
:10b1e0007320000020200000202000005065000097
:10b1f00065720000496e0000666f00000d0a0000d5
:10b20000000d00000a530000636100006e20000082
:10b2100043680000616e00006e6500006c20000055
:10b22000000d00000a43000068650000636b000029
:10b23000696e00006720000043680000616e000036
:10b240006e6500006c200000000d00000a52000036
:10b2500065730000796e000063680000726f000083
:10b260006e6900007a65000064200000436f0000f2
:10b270006e6e000065630000746900006f6e000070
:10b28000207400006f20000043680000616e000021
:10b290006e6500006c2000000000000053530000a9
:10b2a0005353000053530000535300005353000006
:10b2b00053530000535300005353000053530000f6
:10b2c00053530000545400005454000054540000e0
:10b2d0005454000054540000545400001d20000039
:10b2e00022250000282b00002e30000033360000fd
:10b2f000393c00003f410000444700004a30000054
:10b300004f5200000a0d000010120000121500003c
:10b31000181b000020230000262900002600000042
:10b320008402000009040000090600000c08000067
:10b33000c10a0000770c0000630e00001910000025
:10b340000012000000140000001600003818000071
:10b35000c81a00000d1c0000001e00007220000032
:10b3600038220000382400000726000000280000d2
:10b37000002a0000692c0000812e00007e300000b1
:10b3800096320000f8340000883600004038000093
:10b39000003a0000e83c0000003e00005458000065
:10b3a000204d0000657300007361000067650000b8
:10b3b000733a00002025000064000000525800008d
:10b3c000204d000065730000736100006765000098
:10b3d000733a0000202500006400000030310000b6
:10b3e00032330000343500003637000038390000b1
:10b3f00041420000434400004546000000010000b7
:0cb4000002030000040500000607000025
:020000040000fa
:10b40c00140a00000400000002000000000000000c
:10b41c0000000000080a0000060000000000000008
:10b42c00200a0000020000000200000002190000c7
:10b43c00da0900002200000000000000fc090000f6
:10b44c000c00000000000000220a000002000000b6
:10b45c00000000000e0a00000600000002000000c0
:10b46c000277660055000300fa080000e0000000b7
:10b47c0000000000180a000004000000000000009a
:10b48c001c0a000004000000020000000000000084
:10b49c000000000000080000fa000000000000009e
:10b4ac00240a0000d001000002000000010000008e
:10b4bc000000000000000800000000000000000078
:10b4cc00004000000000000000000000000200002e
:10b4dc000000000000000000100000000000000050
:10b4ec0000008000000000000000000000000400cc
:10b4fc000000000000000000002000000000000020
:10b50c00000000000001000000000000000000002e
:10b51c0008000000000000000000400000000000d7
:10b52c00000000000000020000000000000000000d
:10b53c00001000000000000000000000800000006f
:10b54c0000000000000000000400000000000000eb
:10b55c0000002000000000000000000000000100be
:10b56c0000000000000000000008000000000000c7
:10b57c00000000004000000000000000000000007f
:10b58c00020000000000000000001000000000009d
:10b59c00000000000080010000000000000000001e
:10b5ac00001000000000000000000000000100007e
:10b5bc00000000000000000010000000000000006f
:10b5cc00000000000100000000000000000010005e
:10b5dc00000000000000000000000100000000005e
:10b5ec00000000000010000000000000000000003f
:10b5fc00000100000000000000000000100000002e
:10b60c00000000000000000001000000000000002d
:10b61c00000010000000000000000000000001000d
:10b62c0000000000000000000010000000000000fe
:10b63c0000000000000100000000000000000000fd
:10b64c001001000000000000000000000a000000d3
:10b65c00000000000000640000000000000000007a
:10b66c0000e80300000000000000000010270000ac
:10b67c00000000000000a000860100000000000097
:10b68c00004042000f00000000000000809698006f
:10b69c000000000000000000e1f5050000000000c3
:10b6ac000000ca009a3b00000000000000e40b0000
:10b6bc005402000000000000e8764800170000006b
:10b6cc0000001000a5d4e8000000000000a07200eb
:10b6dc004e18090000000000407a1000f35a0000d8
:10b6ec0000008000c6a47e008d0300000000c10095
:10b6fc006ff2860023000000008a5d00784563002d
:10b70c000100000064a7b300b6e00d000000e800e3
:10b71c0089042300c78a0000240f00002a000000bf
:10b72c0002000000286e75006c6c2900003031009e
:10b73c003233340035363700383941004243440047
:10b74c00454600003031320033343500363738008e
:10b75c00396162006364650066000000f40b000050
:10b76c00d0010000020000000100000000000000f9
:10b77c000000080000000000000000000040000075
:10b78c0000000000000000000002000000000000ab
:10b79c00000000001000000000000000000080000d
:10b7ac000000000000000000000004000000000089
:10b7bc00000000000020000000000000000000005d
:10b7cc000001000000000000000000000800000064
:10b7dc00000000000000400000000000000000001d
:10b7ec00000002000000000000000000001000003b
:10b7fc0000000000000000008000000000000000bd
:10b80c000000000004000000000000000000200008
:10b81c00000000000000000000000100000000001b
:10b82c000000000000080000000000000000000004
:10b83c0040000000000000000000000002000000ba
:10b84c0000000000000010000000000000000000dc
:10b85c00008001000000000000000000001000004b
:10b86c0000000000000000000001000000000000cb
:10b87c0000000000100000000000000000000000ac
:10b88c00010000000000000000001000000000009b
:10b89c00000000000000010000000000000000009b
:10b8ac00001000000000000000000000000100007b
:10b8bc00000000000000000010000000000000006c
:10b8cc00000000000100000000000000000010005b
:10b8dc00000000000000000000000100000000005b
:10b8ec00000000000010000000000000000000003c
:10b8fc00000100000000000000000000100100002a
:10b90c0000000000000000000a0000000000000021
:10b91c0000006400000000000000000000e80300cc
:10b92c0000000000000000001027000000000000d4
:10b93c000000a00086010000000000000040420052
:10b94c000f0000000000000080969800000000002e
:10b95c0000000000e1f50500000000000000ca0036
:10b96c009a3b00000000000000e40b0054020000b1
:10b97c0000000000e87648001700000000001000ee
:10b98c00a5d4e8000000000000a072004e180900c9
:10b99c0000000000407a1000f35a00000000800004
:10b9ac00c6a47e008d0300000000c1006ff286006b
:10b9bc0023000000008a5d00784563000100000050
:10b9cc0064a7b300b6e00d000000e8008904230072
:10b9dc00c78a00004e0f00002a0000000200000081
:10b9ec00286e75006c6c2900003031003233340045
:10b9fc003536370038394100424344004546000093
:10ba0c00303132003334350036373800396162005a
:10ba1c006364650066000000c40d00006001000056
:10ba2c00020000000000000000000000f03f0000d9
:10ba3c000000a0009999b9003f0000000040e1000f
:10ba4c007a843f0000000000e04d6200503f00008f
:10ba5c000000e000e2361a003f0000000080b50054
:10ba6c00f8e43e0000000000a0f7c600b03e000065
:10ba7c000000a000f2d77a003e00000000e08e002b
:10ba8c0079453e0000000000e00b2e00113e000046
:10ba9c000000e000df7cdb003d0000000000a100a6
:10baac009cc73b0000000000004c4800b43900006b
:10babc0000000000206ca100370000000000000016
:10bacc00000000000000000000000000000000006a
:10badc00000000000000000000000000000000005a
:10baec00000000000000000000000000000000004a
:10bafc00000000000000000000000000000000003a
:10bb0c000000000000000000000000000000000029
:10bb1c00000000000000f0003f00000000000000ea
:10bb2c00002440000000000000000000594000000c
:10bb3c000000000000408f004000000000000000ea
:10bb4c0088c340000000000000006a00f8400000bc
:10bb5c000000000080842e00410000000000d00096
:10bb6c0012634100000000000084d70097410000e0
:10bb7c000000000065cdcd004100000000205f00fa
:10bb8c00a002420000000000801daf001544000020
:10bb9c0000004000593e2900460000000000000053
:10bbac0000f07f000000000000000000f07f0000ab
:10bbbc00000000000000f0007f000000000000000a
:10bbcc0000f07f000000000000000000f07f00008b
:10bbdc00000000000000f0007f00000000000000ea
:10bbec0000f07f000000000000000000f07f00006b
:10bbfc00000000000000f0007f000000780f000043
:10bc0c0002000000000000007a0f0000020000009b
:10bc1c00000000007c0f000002000000000000008b
:10bc2c007e0f000002000000020000000100000076
:10bc3c00800f000002000000000000000000000067
:020000040000fa
:10bc4c0091018800800078000000eb00150037009f
:10bc5c00e280400032a0b4009101ba00e2804000c2
:10bc6c0032a0b4009102ba00e280400032a0b400cd
:10bc7c000002eb00472bde00f507b200602ce10060
:10bc8c0004003a000059eb008301e900fdff3e007f
:10bc9c00040037006128e100010032000082eb0053
:10bcac00040007001101ba000200e000e8ff3a00ae
:10bcbc00000006003159ba008301e9000c00320083
:10bccc002159ba008301e900080032000400e000a9
:10bcdc0003003a00e280400032a0b400f5ff3700c8
:10bcec0011d9ba008301e900faff3a008100e8009b
:10bcfc00e180400032a0b400000006002f082100b3
:10bd0c00007f220000018800000000000c000700ea
:10bd1c0060a0250001002000c9ff070000002000e2
:10bd2c000000e000020032000000020000000000f1
:10bd3c00ae280200000000000040da000000fe0007
:10bd4c004440a900e07b20000000e000030032002a
:10bd5c0000002000a00188004440a800000006005c
:020000040000fa
:04bd6c000000fe00d5
:00000001FF
