:020000040000FA
:0600000052EF28F012008F
:020006001200E6
:06000800F8EF11F01200F8
:02000E000001EF
:06001000020304050607CF
:020016001200D6
:06001800F8EF11F01200E8
:02001E000500DB
:10002000F05000000602000002000000EE50000048
:100030000402000002000000EA500000000200007C
:1000400004000000E8500000FD0100000200000074
:0C005000DF500000B70E000009000000A7
:04005C00000012008E
:1000600098EC0DF049E800EBE6FFD6CFE6FFBCECDC
:1000700022F041E9E750026E025027E002063FEC11
:100080000BF0036EDA51046EDB51056EDC51066E27
:100090003FEC0BF0076EDA51086EDB51096EDC5154
:1000A0000A6E07EBDDF108EBDEF109EBDFF10AEB9D
:1000B000E0F1D950030F6AEC0BF0D8803E0ED95511
:1000C000000EA4EC0DF0E4E2D7D74AE9E7CFD9FF60
:1000D00012008AEC0BF081E955E8CDEC10F0000934
:1000E00001E118D30001ADB591D3616BC951040B87
:1000F00001E0010E030BF36EFC0E6115F310616F4E
:10010000C9516197080B01E06187C951030B0108D0
:1001100002E1010E01D0000E619BE8B0618BC95174
:10012000619D800B01E0618DC9AF05D0618FCAC0B0
:1001300064F0CBC065F0D0C06AF0CFC069F0AD9577
:10014000C951030B010A01E15AD2020A01E1BBD1F4
:10015000030A01E0DAD2016A050E015C0AE290ECC2
:100160000DF0EF50000803E290EC0DF0EF06012ACD
:10017000F3D70001CE5169E00A0ECE5D01E2C5D28F
:10018000020E53EC0BF00A6E030E53EC0BF00B6EE9
:10019000040E53EC0BF0106E050E53EC0BF0116EC9
:1001A000060E53EC0BF00C6E070E53EC0BF00D6EBD
:1001B000080E53EC0BF00E6E090E53EC0BF00F6EA5
:1001C000C9516197080B01E061876151030B000978
:1001D00006E11050FC08FF0E115401E374D09D514C
:1001E0000E180AE19E510F1807E19F510C1804E107
:1001F000A0510D1801E189D2101C01E086D2111C1A
:1002000001E083D2016A050E015C1BE290EC0DF067
:10021000EF5015E084EC0BF00E50EE1810E10F508B
:10022000ED180DE184EC0BF0DDEC0BF0EFCFD9F124
:100230000A0E000153EC0BF00101D95D02E0012A26
:10024000E2D7050E015C03E20001AD9B5ED2016ABC
:10025000050E015C06E290EC0DF0EF5002E0012A81
:10026000F7D7050E015C14E284EC0BF00EEBEEFF09
:100270000FEBEDFF0A0EAAEC0DF084EC0BF0DDECB9
:100280000BF0E552E750EF6E90EC0DF0030EEF6EC1
:10029000101C06E1111C04E100016181619348D04A
:1002A000FE0E101806E1FF0E111803E10001618136
:1002B00008D0FD0E10183CE1FF0E111839E10001C5
:1002C0006191618335D09F510A1801E01ED2A0517F
:1002D0000B1801E01AD29D51101801E016D29E5160
:1002E000111801E012D2010E53EC0BF0040B20E0C8
:1002F000B0EC0CF00CEB02F00DEB03F00EEB04F0A5
:100300000FEB05F0CAEC0BF00A0E000136EC0DF015
:10031000EFCF0AF000010B6B300E0C6F00010D0ED9
:100320009C6FC66BC68BA15178EC0DF00001618506
:100330000B0E000153EC0BF001E09AD00C0E53ECC5
:100340000BF0300801E183D00C0E53EC0BF0420AA5
:1003500001E17BD0020A59E0510A01E0D6D1126ACC
:10036000040E125C0BE20B0E1224020F53EC0BF086
:10037000E66E1250EDEC0BF0122AF2D78D0EAE6F36
:10038000110E53EC0BF0800B01E0AE91110ECAEC94
:100390000CF0120ECAEC0DF093DB0001BA6FFF0EE9
:1003A000BA5D08E0BA5121EC0DF0EFCFAEF0AE85AA
:1003B000AE8704D08D0EAE6FA6BFAE91D4DB000128
:1003C000BA6FFF0EBA5D1EE2126A010E125C0CE2F9
:1003D000130E1224AAEC0DF0BA5103EC0EF01250D9
:1003E0003CEC0DF0122AF1D70A0EE66EE66A000127
:1003F000BA514BEC0CF00001BA5124EC0CF00001A6
:10040000B98101D0B991B99380D10D0E53EC0BF0A5
:100410000E01BB5D01E079D103EC27F0F1C1B5F02D
:10042000F2C1B6F0F3C1B7F0F4C1B8F00001B08387
:100430000E0E53EC0BF01F0BF36EF346F346F34630
:10044000070EB015F310B06F60D1AD9D5ED10A0EEE
:1004500053EC0BF00E01BD5D08E10001AA510E182E
:1004600004E1AB510F1801E1AD970E5080084DD15A
:10047000AD9B0B0ECE5D686F0B0ECC25666F000E2C
:10048000CD21676F0CEB62F00DEB63F0080E53ECBF
:100490000BF0FF080AE1090E53EC0BF0FF0805E131
:1004A000CAC064F0CBC065F007D0618F080ECC25C0
:1004B000646F000ECD21656F618D6851000801E306
:1004C00024D1AD8522D1040E136E132453EC0BF00E
:1004D0005D0807E0040E132453EC0BF04D0801E017
:1004E00014D1ADA112D1CCC0E9FFCDC0EAFFEFCF4E
:1004F000A8F0010E36EC0DF0EFCFA9F0020ECAEC19
:100500000CF0030E80EC0CF0135053EC0BF0FF08D2
:1005100001E0FBD0132853EC0BF0146E040E6B5D5E
:1005200001E3F3D05AEC0CF0FEEC0CF001E2EDD05C
:100530004EEC0EF0BBCEEFFF4EEC0EF0070E0DECC6
:100540000EF069C0EFFF4EEC0EF082EC0BF06AC0CB
:10055000EFFF6B51E8EC0DF0A8C0EEFFA9C0EDFF76
:1005600032EC0DF0EF6A32EC0DF0EF8C5AEC0CF03F
:10057000060BE8420101D96F000132EC0DF00101D8
:10058000D951030BF36EFC0EEF14F310EF6E5AEC1F
:100590000CF0080B04E0000132EC0DF0EF865AEC91
:1005A0000CF0FEEC0CF004E3000132EC0DF0EF8AED
:1005B000016A040E015C0FE201500001EA6A642541
:1005C000E96E6551EA22EF50E66E6B51B8EC0DF022
:1005D0003FEC0EF0EED7016A010E015C0DE2060E53
:1005E00013240124AAEC0DF04EEC0EF00A0E9BEC45
:1005F0000BF03FEC0EF0F0D700016B2B86D0CCC097
:10060000E9FFCDC0EAFFEF50030A57E0010A01E01D
:100610007CD0030E53EC0BF046E1010E36EC0DF0EE
:10062000EFCF9DF0020E36EC0DF0EFCF9EF0B3EC65
:100630000BF00001AD83BF0EAE6F016A040E015CCA
:1006400003E26CEC0DF0FAD7A66B050ECAEC0DF0C8
:100650008ADA0001A16FA151F3EC0BF0016A010EDF
:10066000015C0AE2040E0124AAEC0DF0A15103EC96
:100670000EF03FEC0EF0F3D707EC0EF07EEC0DF031
:1006800087EC0BF00A0EE66EE66A0001A1514BEC16
:100690000CF00001A15124EC0CF06C0EE66E3F0E44
:1006A000DFEC0BF032D0A1699F69A06965EC0CF01A
:1006B00087EC0BF0A8EC0BF026D0ADA326D0016A96
:1006C000040E015C03E26CEC0DF0FAD71DDA156E36
:1006D000FF0E155C1AE01550F2EC0DF0200B15E042
:1006E000016A0A0E015C05E2015018EC0EF0012AC5
:1006F000F8D786EC0DF087EC0BF07EEC0DF007ECF4
:100700000EF0BFEC0BF04CEC0DF00001ADB502D0DB
:10071000CEEC11F03FEC0BF0026EDA51036EDB51C0
:10072000046EDC51056E0001ADA320D0ADAB1ED030
:10073000B6EC0CF09851EE5C0101D96F00019951B3
:10074000EE580101DA6F00019A51EE580101DB6F9A
:1007500000019B5173EC0CF0FF083F0E0754000E94
:100760000854000E095402E20001AD9B0001B0A341
:100770002AD0B6EC0CF0B551EE5C0101D96F000146
:10078000B651EE580101DA6F0001B751EE58010180
:10079000DB6F0001B851EE580101DC6FD880480EC4
:1007A000D955E80EDA55010EDB55000EDC550BE28B
:1007B0000001B051F80BE842E842E842E66EACECCA
:1007C0000CF00001B06B0001B9A320D0B9B11ED06C
:1007D000B6EC0CF0C251EE5C0101D96F0001C351BF
:1007E000EE580101DA6F0001C451EE580101DB6FD0
:1007F0000001C55173EC0CF06C08DC0E0754020EBE
:100800000854000E095402E20001B99356E9E7CFFB
:10081000D9FF12008AEC0BF084E90001C66B00508E
:10082000030BF36EFC0EC615F310C66F01500210D9
:1008300001E1C685C651040B02E0000E01D0010E95
:10084000C69BE8B0C68BC68F01EBC7F002EBC8F0C1
:10085000E4EC0BF08EEF0CF0AEEC0DF0016A0A0E3A
:10086000015C08E2015057EC0EF002E1015003D0A8
:10087000012AF5D7FF0E61EF0CF098EC0DF042E87D
:10088000FF0E005C28E15C0EE66E3F0EDFEC0BF025
:10089000026A040E025C0CE2030ED8800254EA6A7B
:1008A000B70FE96E0E0EEA22D3EC0BF0022AF1D755
:1008B0004D0EE66E3F0EDFEC0BF092EC0CF0430EAB
:1008C000E66E3F0EDFEC0BF099EC0CF0370EE66EA7
:1008D0003F0EEBEC0DF0EF0EE66E3E0EDFEC0BF094
:1008E000FF0E005C62E1026A0A0E025C01E3AED018
:1008F000025057EC0EF057E002EBE6FFB4EC0DF0BF
:1009000024EC0DF024EC0DF05EEC0EF00250F2EC55
:100910000DF0010B02E0590E01D04E0EF5EC0DF07A
:100920000250F2EC0DF0020B02E0590E01D04E0E17
:10093000F5EC0DF00250F2EC0DF0080B0FE0025058
:1009400081EC0DF0D3EC0BF0025022EC0EF00250D3
:1009500026EC0EF002502BEC0EF002D051EC0EF013
:1009600041E95EEC0EF00250F2EC0DF0040B08E0F1
:10097000036A040E035C04E2025065EC0DF0F9D743
:100980005EEC0EF0036A040E035C03E2D0EC0DF0A3
:10099000FAD7036A010E035C04E202507BEC0DF00F
:1009A000F9D7D6EC0DF0022A9FD7005057EC0EF085
:1009B0004DE000EBE6FFB4EC0DF024EC0DF0200E62
:1009C0005AEC0EF0010B02E0590E01D04E0E5AEC1B
:1009D0000EF0020B02E0590E01D04E0E5AEC0EF052
:1009E000080B0FE0005081EC0DF0D3EC0BF0005041
:1009F00022EC0EF0005026EC0EF000502BEC0EF026
:100A000002D051EC0EF041E95EEC0EF00050F2EC39
:100A10000DF0040B08E0036A040E035C04E20050CE
:100A200065EC0DF0F9D75EEC0EF0036A040E035C82
:100A300003E2D0EC0DF0FAD7036A010E035C04E286
:100A400000507BEC0DF0F9D7D6EC0DF00EEF0DF069
:100A5000AEEC0DF00001B99103EC27F0F1C1C2F04A
:100A6000F2C1C3F0F3C1C4F0F4C1C5F00001A66B3C
:100A7000A76BBFEC0DF0100EEF6E016A040E015C67
:100A800009E20150EA6AB70FE96E0E0E60EC0DF054
:100A9000012AF4D7016A010E015C05E2015030EC35
:100AA0000EF0012AF8D7E66AE66AA60EE66E000E98
:100AB000E66E6FEC09F044E90001B98361EF0CF0D8
:100AC000AEEC0DF0016A0A0E015C1BE2015057EC1E
:100AD0000EF015E00150F2EC0DF0080B10E01BECED
:100AE0000EF012EC0DF00001A6510101D91907E139
:100AF0000001A7510101DA1902E1015003D0012AD6
:100B0000E2D7FF0E61EF0CF08AEC0BF081E942E8CE
:100B1000016A0A0E015C24E2015057EC0EF01EE05F
:100B20000150F2EC0DF0040B19E0026A040E025CB5
:100B300013E2C5EC0DF0EACFDBF102500101EA6AE5
:100B4000E924E96EDB51EA22EFCFD9F1CEEC0CF0CB
:100B5000D95D04E1022AEAD7015003D0012AD9D78E
:100B6000FF0E0EEF0DF08AEC0BF081E942E8016810
:100B70000001AEA502D0C8DF03D0AEA702D0A0DF2F
:100B8000016EFF0E015C02E167DE016EFF0E015C8B
:100B90002BE0015021EC0DF0AEC0EFFF0001AEA53F
:100BA00010D0026A040E025C0CE2CEEC0CF0E66E91
:100BB000C5EC0DF0EACFDAF102503CEC0DF0022A60
:100BC000F1D70001AEA706D01BEC0EF0A6C0EEFFD9
:100BD000A7C0EDFF015038EC0BF0A8C0EEFFA9C094
:100BE000EDFF0150F3EC0BF001500EEF0DF08AEC2D
:100BF0000BF085E941E8056A040E055C14E2055036
:100C00000224A7EC0CF0EFCFD9F105500024E96ED7
:100C1000000E0120EA6EEF500101D95D02E0000EE6
:100C200003D0052AE9D7010E61EF0CF0AEEC0DF010
:100C300000019C51016E9C6B7AEC0BF0040EEF6E80
:100C40007AEC0BF09DC0EFFF7AEC0BF09EC0EFFF4B
:100C5000010EE66E040EE66E010EE66EDBDD43E984
:100C6000000910E00001AD8B03EC27F0F1C198F012
:100C7000F2C199F0F3C19AF0F4C19BF001EB9CF042
:100C8000010E03D001EB9CF0000E61EF0CF098EC2C
:100C90000DF044E854EC22F000019D699E69340E89
:100CA0009F6F120EA06F056A0A0E055C05E20550E3
:100CB00018EC0EF0052AF8D70001AD6BAF6BB96BDD
:100CC000606BF9EC26F000019C6B056A050E055C73
:100CD00008E2055011EC0EF08CEC0CF0EF6A052ADE
:100CE000F5D7056A0A0E055C05E20550F3EC0BF03A
:100CF000052AF8D7005048E00CEC0CF0C2EC0CF0E0
:100D0000200E0E01BB5D09E28FEC0BF0C2EC0CF083
:100D100000019D1D04E19E1D02E1000E6BD0A8ECB8
:100D20000BF0E66EC2EC0CF018EC0CF0C2EC0CF020
:100D3000FEEC0BF0BFEC0BF0E66EC2EC0CF08FECAF
:100D40000BF0C2EC0CF0F8EC0DF0E66EC2EC0CF01F
:100D5000E30EE66E3E0EEBEC0DF0DB0EE66E3E0EA5
:100D6000DFEC0BF099EC0CF0D00EE66E3E0EDFECF3
:100D70000BF092EC0CF0BBCEE6FFACEC0CF0B3EC5D
:100D80000BF00001AD8310D007EC0EF00CEC0CF072
:100D90001EEC0EF018EC0CF01EEC0EF043EC0EF016
:100DA0007EEC0DF087EC0BF0026A02960298028A44
:100DB000029C028200500294E8B00284B70E036ED7
:100DC0000E0E046E02EBE6FF03EBE6FF04EBE6FF1C
:100DD0008EEC0FF043E9B3EC0BF0BBCEE6FFACECCE
:100DE0000CF000016087FEEC0BF0D6CFACF0F09475
:100DF000F08A010E45E9E7CFD9FF120098EC0DF01B
:100E000041E80050020A19E0030A10E0010A2AE151
:100E10000001AFA704D043EC0EF00001AF97E66AE3
:100E200017EC0DF00EE00001AD8F1AD0E66817EC5C
:100E30000DF007E00001AD9F13D0E66817EC0DF050
:100E400002E1010E10D00001AD9FF0DE000902E1C9
:100E5000020E09D00001ADAB03D069EC00F0FAD767
:100E6000000E01D0FF0E61EF0CF098EC0DF0E66A79
:100E700000EBE6FF52EC0FF042E9000908E000EB5E
:100E8000BBFE0CEC0CF01EEC0EF0010E01D0000EBF
:100E90008EEF0CF098EC0DF00050030809E300EB26
:100EA000BCFEFEEC0BF018EC0CF0E0EC21F046E997
:100EB0008EEF0CF08AEC0BF086E94EE8010E076E1F
:100EC000086A096A0A6A0E01BB510B6E066A040EB3
:100ED000065C05E20650E0DBEF68062AF8D7000161
:100EE0006B6BAD81066A200E065C5CE207EBD9F104
:100EF00008EBDAF109EBDBF10AEBDCF106501F0B32
:100F000004E00101A0EC0CF0FDE134EC0CF048E051
:100F1000C00EE66E3E0EDFEC0BF006EBE6FFE1ECFA
:100F200025F041E906EBE6FFACEC0CF0EEEC0DF041
:100F3000070EEF6EDFDBBBCEEFFF010EE66E000E9D
:100F4000E66EE66A67DC43E99ADBD6EC0CF0C6ECA9
:100F50000CF001E026D993DBDEEC0CF010EBDDF1B8
:100F600011EBDEF112EBDFF113EBE0F1D9500C0FD6
:100F7000B1DB0450040DF3CFF6FFF4CFF7FF080EFA
:100F8000F626500EF722D9510900F55CDA51090016
:100F9000F558DB510900F558DC510900F558D7E246
:100FA000062AA1D70BEBE6FFACEC0CF00001AD91EB
:100FB0006B514FE9E7CFD9FF1200ACDB83E94AE878
:100FC000030E036E00041CE15ADBE6EC0CF040DD7E
:100FD0000001B9A311D0C6EC0CF001E0E2D83EEC60
:100FE0000DF0F6E223DE89EB05F08AEB06F08BEBE1
:100FF00007F08CEB08F0ECD7B9A1C2D0BA51C5D03C
:10100000005001E0C1D0FF0E015C20E10101010EA2
:10101000D96FDA6BDB6BDC6B0E01BB511F0B04E08D
:101020000101A0EC0CF0FDE1D9C1E6FFDAC1E6FF59
:10103000DBC1E6FFDCC1E6FF0A0EE66E3BDF45E9F9
:10104000000903E10306E2E19BD0016A0150E8ECEC
:101050000DF0EECFA8F0EDCFA9F0046A040E045C09
:101060000BE20150B8EC0DF004506BDBEF50E66E74
:101070000450B3DB042AF2D747DD0001A16FFF0E55
:10108000A15D07E12CEC04F00001A16FFF0801E174
:1010900077D0A15118EC0EF00150E8EC0DF012ECF5
:1010A0000DF0A151E5DAD9C1EEFFDAC1EDFF046A16
:1010B000040E045C09E20150EFDAEE524FEC0DF041
:1010C000040E36EC0EF0F4D70001A15121EC0DF026
:1010D000EF84046A010E045C0BE20150DDDA0A0EB3
:1010E0000DEC0EF04FEC0DF0090E36EC0EF0F2D7D1
:1010F0000001A15121EC0DF0EF82A15121EC0DF086
:10110000EF8AA15121EC0DF0EF800150C5DAEFCF4D
:10111000E6FFACEC0CF00001A151AADAEECF9FF093
:10112000EDCFA0F0D2DBEEEC0DF0010EEF6EE2DAC7
:1011300060C0EFFF046A010E045C05E2045030EC6D
:101140000EF0042AF8D7010EE66EA15191DA040ED2
:10115000F2DAE9CFE6FFEACFE6FF0AEC04F043E972
:101160008EDAE6EC0CF00001A151F2EC0DF0100B60
:1011700009E1C6EC0CF001E014D83EEC0DF0F3E20E
:10118000FF0E03D0A15101D0FF0E4BE9E7CFD9FFED
:10119000120069EC00F00001AD51040B01E0010EFA
:1011A00012000001AD95CEEF11F098EC0DF000EBC0
:1011B000E6FF010EE66E02D842E9B0D3ABDA83E96E
:1011C000CFDB9FC002F0A0C003F00150020A0AE08A
:1011D000010A06E0020A02E0000E15D0046904D0FC
:1011E000FE0E01D0FD0E046F0569D4DA0001DBECC0
:1011F0000DF0C6850050C697E8B0C687020E015CA8
:1012000001E1C68FE1DA8AD385DA83E949E8015042
:1012100057EC0EF05DE00E01BE510FE000010B51E6
:101220000CE00001AD87ACC0BDFE1BEC0EF0EECFB4
:10123000AAF0EDCFABF0060E03D00001AD97020E81
:10124000036EBFCE00F003EB01F0015011DAEFCFD7
:1012500002F0015081EC0DF0EFCF03F01BEC0EF02B
:10126000EFCF04F01BEC0EF0E2EC0DF00FDBE8B07A
:10127000C68746EC0EF02AE00001AD51080B2AE0CB
:101280001BEC0EF0CFDB800E0101D95D23E2F7D914
:10129000046EDA51056EDB51066EDC51076E76DBAB
:1012A00001E07FDF0001ADB702D0010E14D0E7D915
:1012B00095DB08EBDDF109EBDEF10AEBDFF10BEB7F
:1012C000E0F1D950040F0AEC0EF0E9E20001AD970D
:1012D000000E01D0010E4AE9E7CFD9FF12001ADA59
:1012E00085E953E8015030E1A7DBEFCFA6F00228F3
:1012F0002EDBEFCFA7F00001A651FC08FF0EA7558B
:1013000023E2FD0EA61902E1E868A71916E0FE0E19
:10131000A61902E1E868A7190CE0E868A61901E03F
:10132000D3D0E868A71901E0CFD000EBE6FF010EAB
:1013300007D000EBE6FF030E03D000EBE6FF020E42
:10134000E66E3CDF42E9C3D00E01BE5109E0000168
:101350000B5106E00001AD87ACC0BDFE060E03D008
:101360000001AD97020E076E015066E0066A040E9A
:10137000065C09E206500224EADAEF50E66E0650F7
:101380002CDA062AF4D784EC05F0056EFF0E055C16
:1013900011E1E6DA0269036904690569FBD9000114
:1013A00075DAE8B0C68702EBC7F003EBC8F0AD977B
:1013B0000BDA8DD00550F2EC0DF0080BEAE00E01CF
:1013C000BE5106E005504BDBEECFAAF0EDCFABF0FF
:1013D000BFCE00F007EB01F005504AD9EFCF02F085
:1013E00005508FDBEFCF03F0055039DBEFCF04F072
:1013F000055035DBE7DB000149DAE8B0C68746EC8B
:101400000EF060E00001ADA747D039D9E7DABEDAC7
:1014100001E0C7DE0001ADA73FD031D9C7DA0CEB40
:10142000DDF10DEBDEF10EEBDFF10FEBE0F1D9506A
:10143000080FF0DBECE246D0BFCE00F007EB01F086
:101440009FC002F0A0C003F0F7DAEFCF04F002284B
:101450007EDAEFCF05F09ED9AC51AC2B00010A6FBC
:10146000EBDAEFCFAAF0022872DAEFCFABF000018F
:10147000C66BC68B0050C697E8B0C68746EC0EF028
:1014800021E00001ADA722D0FAD898DA7FDA01E096
:1014900088DE0001ADB702D0010E19D0F0D8146E6D
:1014A000DA51156EDB51166EDC51176E14EBDDF15F
:1014B00015EBDEF116EBDFF117EBE0F1D950100F71
:1014C000A9DBE4E20001AD97000E01D0010E54E962
:1014D000E7CFD9FF12001ED987E90550020A02E0C2
:1014E000030A02E1000E01D0000E18D213D986E9DA
:1014F0004FE80E01BB51086EC2D806DA0001AD8D6F
:10150000066A030E065C70E2010E116E126A136A1F
:10151000146A076A0001ADAD56D0B1D80D6EDA512C
:101520000E6EDB510F6EDC51106E0DEBDDF10EEB2C
:10153000DEF10FEBDFF110EBE0F1D950090FCAD863
:10154000D8803C0ED955780EFFDA39E28DEB09F0E0
:101550008EEB0AF08FEB0BF090EB0CF007501F08AE
:1015600032E311EBD9F112EBDAF113EBDBF114EB0F
:10157000DCF107501F0B03E00101E2D9FEE174D951
:1015800005E1072A07501F08ECE22AD0AC0EE66EF0
:101590003E0E15D907EBE6FFE1EC25F041E907EB3C
:1015A000E6FFDAD9072A0001EADA410EEF6EA2D887
:1015B000BBCEEFFFE66A04EBE6FF26DE42E9E6D9A2
:1015C000A9E0EFDDA7D70001ADBD0AD0840EE66E1D
:1015D0003E0E01DB810EE66E3E0EF1D8010E0AD002
:1015E0002EEC00F0062A8DD708EBE6FFB5D90001F6
:1015F000AD9D000E50E9E7CFD9FF120099DA41E81E
:10160000FF0E005C14E1026A0A0E025C2BE202503B
:101610004EDB09E00250E6DA200B05E0DFDAE6D91E
:10162000025066DAF2D9025003DB022AEDD70050ED
:101630003EDB1DE00050D6DA200B19E00001A1517D
:10164000005C15E19C6B56D8D1D9005051DA00509E
:10165000EFDADBD9026A0A0E025C04E20250E8DA31
:10166000022AF9D753DA4ADAD2DA51D80CDB29D177
:101670000A0D59DA000EE926010EEA22120003ECE7
:1016800027F0F1C1D9F1F2C1DAF1F3C1DBF1F4C114
:10169000DCF10101D95112000B0D45DA6C0EE9267F
:1016A000000EEA221200E2D9EF501200040EB5DA61
:1016B000E9CFC7F0EACFC8F03EDAE9CFE6FFEACFDC
:1016C000E6FF2FEC10F046E91200E66EBFEC25F0C5
:1016D00041E91200E96EDACFEAFFEE50DD5DD96F25
:1016E000EE50DE59DA6FEE50DF59DB6FEE50E05905
:1016F000DC6F12009C519C2BEA6A000FE96E000E11
:10170000EA221200080E2ED2015011EF0EF070DA0C
:101710004CEF0DF0D9CFE6FFE1CFD9FF1200020E5A
:10172000E66EE66AD3C1E6FFD4C1E6FF9D0EE66E23
:10173000000EE66E120071DAE9CFD9F1EACFDAF1E4
:1017400012000101EA6AE924E96EDA51EA22120084
:10175000020EE66EE66AC9C1E6FFCAC1E6FF9F0E49
:10176000E66E000E12009F0EE66E000EE66E9D0EF7
:10177000E66E000EE66E4CEC0FF044E91200640ECB
:10178000E66EE66ACFC1E6FFD0C1E6FF000EE66E68
:10179000010E12009FC006F0A0C007F09DC008F027
:1017A0009EC009F01200EFCFE6FFB4EF0DF0D88035
:1017B000240ED955F40EA4EF0DF0020ED3D1E66E2F
:1017C000A4EC25F042E91200B6D9C7C0E6FFC8C0B4
:1017D000E6FF2FEC10F046E91200EA6AA20FE96E6C
:1017E000000EEA2257D2040D9ED9330EE926000ED0
:1017F000EA22EE6AEE6AEE6AEE6A12000E01BC514F
:101800000001030BF36EF346F346F346F346CF0EA7
:101810006015F310606F1200010EE66EE66ACBC130
:10182000E6FFCCC1E6FFBB0EE66E0E0EE66E1200C2
:10183000010EE66EE66ACDC1E6FFCEC1E6FFBC0E44
:10184000E66E0E0EE66E12000A0DF3CFDBF1F4CF5A
:10185000DCF1000E0101DB27010EDC23DBC1E6FF1A
:10186000DCC1E6FF1EEF0EF0D9CFE9FFDACFEAFFC9
:10187000EE500101D917EE50DA17EE50DB17EE509B
:10188000DC17D951DA11DB11DC11120094D9C68BA7
:101890000050C69712000A0D0101CF51F324010137
:1018A000D96F0101D051F4200101DA6FD9C1E6FFEF
:1018B000E66E1200D950140FE96EDACFEAFFEF504E
:1018C000120042E9E7CFD9FF1200A669A7699F0E6F
:1018D000E66E000EE66EA60EE66E000EE66E4CECB0
:1018E0000FF044E91200EE580101DC6FD951066E89
:1018F000DA51076EDB51086EDC51096E065012009A
:10190000B5D8EFCFA7F01200096EDA510A6EDB519D
:101910000B6EDC510C6E1200030E24D141E9E7CFAF
:10192000D9FF12009EC0E6FF1FD99DC0E6FFB4EFAD
:101930000DF0A0C0E6FF18D99FC0E6FFB4EF0DF090
:10194000D890D937DA37DB37DC37E8061200E96E92
:10195000000E0320EA6E120035EC07F041E9120098
:10196000BFCE00F00001020E016F1200D950020F2D
:10197000E96EDACFEAFF1200BBCEE6FFE1EC25F01C
:1019800041E91200BCEC21F046E91200C9EC08F074
:10199000000912006BD8EFCFA6F012000250EA6ADD
:1019A000A20FE96E000EEA22EF5012000C6EDA511F
:1019B0000D6EDB510E6EDC510F6E1200106EDA519F
:1019C000116EDB51126EDC51136E1200056EDA518E
:1019D000066EDB51076EDC51086E1200086EDA519C
:1019E000096EDB510A6EDC510B6E1200030EEF6EB6
:1019F000C66BC68BC681C693C68F1200300BE842F9
:101A0000E842E842E84201081200640EE66EE66A27
:101A1000A7EC24F042E91200050EA4D043E9E7CF79
:101A2000D9FF1200EECFD9F1EFCFDAF11200D7ECE7
:101A300011F041E90009120002EBE9FF03EBEAFFB4
:101A4000120016DE82EF0BF039D95EEF0EF03F0E7A
:101A50003CDE3F0E3ADE3F0E38DE3F0E120008DE5F
:101A6000DDEF0BF01BD9090E0DEF0EF0EA6ACC2565
:101A7000E96ECD51EA22120064DE0CD100DE44DFB3
:101A800009EBDDF10AEBDEF10BEBDFF10CEBE0F142
:101A9000D950050F0AEF0EF0E66E1EEF0EF0E9CFFB
:101AA000DBF1EACFDCF104500101EA6AE924E96ED6
:101AB000DC51EA22EF50E66E0001A15138EF0BF045
:101AC000EA22EF50E66E16DEE5D0D2DD040E33DEFC
:101AD000030ED8800354CFD00150EA6ACA25E96EBC
:101AE000CB51EA22EF50E66E015077DE012A120058
:101AF000BFDD56EF0BF087D80350BDD010DE1EEFD0
:101B00000EF0B6DDE92A000EEA2212000001A169FA
:101B10009D699E699F69A06926DE0001AD93120050
:101B2000F3DD8CEF0CF0F3CFE9FFF4CFEAFF120006
:101B3000F1DD82E912009CC0E6FF000EE66E000EA9
:101B4000E66EC6C0E6FF1200DA55000EDB55000E49
:101B5000DC5512000001A7DDE66E1200DBDD81E935
:101B600041E812000DEF0EF0CEEC25F041E9120035
:101B700093DDEE52E9CFD9F1EACFDAF112000B0E84
:101B80009C6FB8DDEF6A7AEF0BF0015071DD040E47
:101B90000DEF0EF0B5DE9FC0A8F0A0C0A9F01200B6
:101BA000EC0EE66E3E0E0BDE032A12000D0E8DDDEE
:101BB0000A0E65EF0BF0AC51AC2B00010A6F00016F
:101BC000C66B1200E92AEA22EFCF05F0CAEF0BF04C
:101BD00063DD0CEF0DF0F3DDBCEF0CF000019C6B4E
:101BE0007AEF0BF02EDFEF5012006FDD24EF0DF0D7
:101BF000010EE66EE66AD5C1E6FFD6C1E6FFA10E8C
:101C0000E66E000E120034DD090E9BEF0BF0A0DD36
:101C10004CEF0DF05FDDD7EF0BF0E926000EEA2266
:101C20001200080D80DFD10EE926000EEA22120014
:101C300008DFEF6A120001502FEF0DF0E0EC21F009
:101C400046E9120015DDAFDD24EF0DF008DFE92ACB
:101C5000EA22D3EF0BF003DFEFCFE6FFCEEF25F064
:101C6000EA6A060FE96E020E60EF0DF064DD0450C3
:101C700003DF042A120065DD96DD032A12000150FD
:101C8000FBDE012A12007BDD4CEF0DF0A15130DFAD
:101C900000091200E552E750EF6E12006B514CEF55
:101CA0000BF0D5DEA2DFD3DEE66EBFEF25F09ADFC4
:101CB000800B12009ADF0050F2EF0DF0200E65EF5E
:021CC0000BF027
:0E1CC200DDEC14F081E941E8200EE66E29D831
:101CD00041E9016E0F0E0114010F190DF350F36E5F
:101CE000F46A29EF15F0DDEC14F083E941E8F050D7
:101CF000200B01E0010E036EF09A8D92010101EBC1
:101D0000D9F1DA6BD9C1E6FFD6EC27F041E936EC20
:101D100015F08D820350E8B0F08AE8A0F09A29EF20
:101D200015F088EC15F042E8F050200B01E0010EB0
:101D3000036EF09A8D92400E0010006E36EC15F096
:101D4000E5EC27F0026E8D820350E8B0F08AE8A03F
:101D5000F09A025043E9E7CFD9FF120088EC15F062
:101D600041E8F050200B01E0010E026EF09A8B94D6
:101D700036EC15F08B840250E8B0F08AE8A0F09AB7
:101D800029EF15F0DDEC14F083E94EE8030E0F6E39
:101D90000F500F06000901E179D0106A0101FE6BB6
:101DA0000D6A005011E0280EE66EBBDF41E90E6EB1
:101DB0000E407F0B0E6E0E50410806E20D500D2AAC
:101DC0000408F1E2000E64D0200EE2EC14F0C90E1B
:101DD000E66E1A0E3CEC15F001EBE6FFBFDF41E9C1
:101DE000046A0150045C09E204506AEC15F0EFCF7C
:101DF000E6FFB4DF41E9042AF4D7800EE2EC14F0E8
:101E00000101FD5103E1F050040BFAE0FD6B5DECC4
:101E100015F0200E01016415000835E265C187FE4A
:101E2000E7EC14F0056EDA51066EDB51076EDC51FB
:101E3000086E0101FE5127E1E7EC14F0096EDA515A
:101E40000A6EDB510B6EDC510C6E09EBDDF10AEB17
:101E5000DEF10BEBDFF10CEBE0F1D950050FE96E91
:101E6000DACFEAFF0BEC15F0350ED9550C0EDA552A
:101E7000000EDB55000EDC55DCE21050102A030882
:101E800001E286D78BD7010E036E01D0036A03509F
:101E90004FE9E7CFD9FF1200DDEC14F085E9000E21
:101EA0003EEF15F0DDEC14F083E9200E015C02E357
:101EB000000E1ED0640EE66E0C0E3CEC15F00150C8
:101EC000F76A720FF66E4D0E42EC15F00E0EFEEC38
:101ED00014F00150F76A920FF66E4D0E42EC15F0B9
:101EE000100EFEEC14F04EEC15F05DEC15F0010E4A
:101EF0003EEF15F088EC15F00050070802E2000EE6
:101F00000BD00050E8240101D96FDA6BF00ED91321
:101F1000340EFEEC14F0010E3EEF15F0DDEC14F083
:101F200084E941E800EB84FE01EB85FE02EB86FECE
:101F3000140EE66EE66AA7EC24F042E98D828B84EB
:101F4000D6CF88FE0E018969046A020E045C06E29F
:101F50000450B9EC14F0EF6A042AF7D7D9CFE9FF9F
:101F6000DACFEAFFEF50040B0EE0D1EC14F0BCEC3A
:101F700021F046E9040E0E01AC27000EAD23AE237E
:101F800070EC15F00DD00E01AB6BAC6BAD6BAE6BA6
:101F900070EC15F00E01010EAB6FAC6BAD6BAE6B60
:101FA000046A080E045C14E20450F76A0E0FF66E21
:101FB000000EF7220800F550E66E0450EA6AAF0FF3
:101FC000E96E0E0EEA22E552E750EF6E042AE9D7D9
:101FD000046A04501F0813E3F76A0434FE0BF66E1C
:101FE000F736B20EF6264D0EF7220900F5CFE6FFC2
:101FF0000900F5CFE6FF77DE42E9042AEAD74EEC86
:1020000015F0600EE2EC14F0F08A010E29EF15F0E5
:1020100088EC15F000501DE0200A15E0600A0EE083
:10202000200A07E0E00A19E1860E8BEC15F0800E1D
:102030000ED0660E8BEC15F0600E09D0460E8BECC0
:1020400015F0400E04D0260E8BEC15F0200E8A6F92
:1020500004D0060E8BEC15F08A6B3EEF15F0DDEC2C
:1020600014F087E943E80050280802E2000E91D0FE
:10207000F7EC14F0040B02E0000E01D0010E039CFB
:10208000E8B0038CF7EC14F0030B010801E1038EB8
:1020900003EB64F10E018851882B0101656F020E7C
:1020A000086EF7EC14F0400B0EE0076A04EC15F034
:1020B000075C09E207500424E96E000E0520EA6E71
:1020C000C0EC14F0F3D7F7EC14F0040BD950030F65
:1020D000E96EEF50800B0EE0076A04EC15F0075C28
:1020E00009E20750EA6A8525E96E8651EA22C0ECCA
:1020F00014F0F3D7F7EC14F0080B3AE0076A040E7B
:10210000075C09E20750EA6AAB0FE96E0E0EEA229D
:10211000C0EC14F0F4D70E01AB2B000EAC23AD23B2
:10212000AE23AB5105E1030EAC1502E170EC15F0E6
:102130000850082A6AEC15F0EF6A88EB09F0076A84
:102140000050075C03E262EC15F0FAD7AF0EE66EC2
:102150000E0EE66E00EBE6FF09EBE6FF640EE66EA0
:10216000010EE66EC4EC20F046E9020E082607D008
:10217000076A0050075C03E262EC15F0FAD70E0123
:102180008451020B01E0010EE66E08EBE6FFFADD7A
:1021900042E944E9E7CFD9FF1200DDEC14F081E910
:1021A0004CE8016A050E015C32E2E7EC14F0026EC5
:1021B000DA51036EDB51046EDC51056E0150EADB2F
:1021C000EF5023E07AEC15F00250EE5C0350EE582D
:1021D0000450EE580550EE5818E202EBDDF103EB27
:1021E000DEF104EBDFF105EBE0F17AEC15F00BEC3E
:1021F00015F0240ED955F40EDA55000EDB55000EFD
:10220000DC5503E20150C6DBEF6A012ACBD7FF0E93
:102210000E01895D01E0A6D0016A020E015C01E3B6
:10222000B8D00150A6DBEF50010B01E1B0D059EC62
:1022300015F0EFCFC9F07FEC15F0EFCFCEF0020E26
:10224000066E0001C9AD02D0DFDB06260001C9AF72
:102250000BD059EC15F00650E924CA6F000EEA20A5
:10226000CB6FD2DB062602D0CA6BCB6B0001C9A7AD
:102270007FD059EC15F0EACFDAF1040E0624010103
:10228000EA6AE924E96EDA51EA22EF5068E10001D6
:10229000C9AF51D0076A0A0E075C16E2CADB080E06
:1022A0004AEC15F0EF50800B0DE0CAC0E6FFCBC042
:1022B000E6FFBFDB040EEEDBD0DBF7EC05F044E914
:1022C000000902E1072AE7D70A0E075C34E20C6A2C
:1022D000040E0C5C1DE2EDDBE9CFDBF1EACFDCF1B3
:1022E00006500C240101EA6AE924E96EDC51EA2275
:1022F000EF50E66ED950080FD96F0C50EA6AD92515
:10230000E96EDA50EA22E552E750EF6E0C2AE0D788
:1023100098DBEE50085CEE500958EE500A58EE502B
:102320000B581DE38EDB08EBEEFF09EBEEFF0AEB2B
:10233000EEFF0BEBEFFF050E0626AF0EE66E0E0E60
:10234000E66EDDDBEF50D8800654E66E06EBE6FF66
:10235000B0DB83DBF6EC20F046E9000905E1015033
:1023600008DBEF6A000E16D0020E0624000101D031
:102370000650CE5F9EDB0650E924CC6F000EEA20AB
:10238000CD6F8CCECFF001EB89FE010E03D0012A78
:1023900044D7000E4DE9E7CFD9FF1200020E0E011F
:1023A000895D04E28951E5DAEF6A89691200B0DBE0
:1023B00041E80050FF0A09E0FF0A02E0000E17D0D2
:1023C000E66A26DE41E9F09A11D077DBF08A0A0E40
:1023D000E66EE66AA7EC24F042E9026A050E025CAA
:1023E00005E20250D7DAEF6A022AF8D7010E31D39C
:1023F000D8CFE4FFE0CFE4FFE46EDACFE4FFE2CF32
:10240000DAFFE9CFE4FFEACFE4FFF1C1E4FFF2C174
:10241000E4FFF3C1E4FFF4C1E4FFF6CFE4FFF7CF3C
:10242000E4FFF5CFE4FFF3CFE4FFF4CFE4FFFACF0E
:10243000E4FF01EED9F00E0EE80403E3EECFE4FF73
:10244000FBD7E652D9CFE6FFE1CFD9FF81E94DE8CE
:10245000F050040B01E153D2F050200B01E14FD2B8
:10246000600E0E018A5D01E045D2280EE66E59DC51
:1024700041E9E8407F0B0E018B6F8BCE8CFE8B9475
:10248000E5EC27F0026E8B84036A020E035C10E217
:102490000350420DF3CFE9FFF4CFEAFF000EE92627
:1024A0000E0EEA22EF50010B01E102D0032AEDD714
:1024B000020E025C03E1010E066E01D0066A400EB8
:1024C000025C07E2025005E0020E035C14E30650D2
:1024D00012E11A0EE66E25DC41E90B6E0BA20AD062
:1024E0008B94E5EC27F08B841A0EE66E1ADC41E93A
:1024F0000B6EF4D702D2016A0250046E056A010E17
:10250000045C000E055801E2F4D10406000E055AE1
:10251000065017E08B94E5EC27F0E66E0101D950E8
:10252000070FF56FDACFF6F10150012A0101EA6ACF
:10253000F525E96EF651EA22E552E750EF6E8B84FD
:102540001FD08B94E5EC27F0E66E0350420DF3CFDD
:10255000E9FFF4CFEAFF000EE9260E0EEA22EE5262
:10256000E9CFF5F1EACFF6F10150012A0101EA6A5B
:10257000F525E96EF651EA22E552E750EF6E8B84BD
:102580000250015C01E2B4D1065030E0030E0714A2
:1025900002080AE10E018751085C03E10101010E06
:1025A000FE6F016AAAD105D0020E035C02E3016A44
:1025B00090D70350420DF3CFE9FFF4CFEAFF000EAE
:1025C000E9260E0EEA22EE5207EBEFFF0350420D12
:1025D000F3CFE9FFF4CFEAFF000EE9260E0EEA2260
:1025E000EE52E92A000EEA2208EBEFFF0350420DFB
:1025F000F3CFE9FFF4CFEAFF000EE9260E0EEA2240
:10260000410EE926000EEA2202EBEFFF0D680350AF
:10261000420DF3CFE9FFF4CFEAFF000EE9260E0EDC
:10262000EA22EE52EF50400B40E00C6A0E0184515A
:10263000780BE842E842E8420C5C37E20350420D76
:10264000F3CFE9FFF4CFEAFF000EE9260E0EEA22EF
:10265000EE52E9CFF6F1EACFF7F1020E0C240101B8
:10266000EA6AF625E96EF751EA22EFCFF5F10C5050
:102670000E01EA6A8525E96E8651EA22EF500101D2
:10268000F55D11E0016A0350420DF3CFE9FFF4CF8D
:10269000EAFF000EE9260E0EEA22410EE926000EA0
:1026A000EA22EF6A16D70C2AC1D70350420DF3CFA6
:1026B000E9FFF4CFEAFF000EE9260E0EEA22EE5201
:1026C000EF50200B56E00C6A020E0C5C1AE20C5024
:1026D000EA6A640FE96E010EEA22EF50E66E01012C
:1026E000D950070FF56FDACFF6F10C500101EA6A05
:1026F000F525E96EF651EA22E552E750EF6E0C2A15
:10270000E3D70101060E646F0350420DF3CFE9FFDA
:10271000F4CFEAFF000EE9260E0EEA22EE52E92A75
:10272000000EEA22EFCF65F1F094E66A020EE66E43
:10273000C2EC0EF042E90C6A020E0C5C1AE20101D6
:10274000D950070FF56FDACFF6F10C500101EA6AA4
:10275000F525E96EF651EA22EF50E66E0C50EA6A72
:10276000640FE96E010EEA22E552E750EF6E0C2A83
:10277000E3D70C6A050E0C5C5FE20C50060DF3CF3C
:10278000E9FFF4CFEAFF8D0EE9260E0EEA22EF50A4
:1027900040E00C50060DF3CFE9FFF4CFEAFF8D0EB9
:1027A000E9260E0EEA22EE52EFCFF5F10350420D6C
:1027B000F3CFE9FFF4CFEAFF000EE9260E0EEA227E
:1027C000EE52E92A000EEA22EF500101F55D21E107
:1027D00003EC27F0F1C1F5F1F2C1F6F1F3C1F7F125
:1027E000F4C1F8F10C50060DF3CFE9FFF4CFEAFF86
:1027F0008D0EE9260E0EEA22020EE926000EEA22CE
:10280000F5C1EEFFF6C1EEFFF7C1EEFFF8C1EEFF36
:1028100013D0FF0E0D5C0EE10C50060DF3CFE9FF57
:10282000F4CFEAFF8D0EE9260E0EEA22EF5002E108
:102830008CEB0DF00C2A9ED7050E0C5C58E3050EB0
:102840000D5C4AE20D50060DF3CFE9FFF4CFEAFF2D
:102850008D0EE9260E0EEA22010EEF6E0350420D98
:10286000F3CFE9FFF4CFEAFF000EE9260E0EEA22CD
:10287000EE52E92A000EEA22EF50E66E0D50060DE8
:10288000F3CFE9FFF4CFEAFF8D0EE9260E0EEA2220
:10289000EE52E552E750EF6E03EC27F0F1C1F5F18F
:1028A000F2C1F6F1F3C1F7F1F4C1F8F10D50060DE4
:1028B000F3CFE9FFF4CFEAFF8D0EE9260E0EEA22F0
:1028C000020EE926000EEA22F5C1EEFFF6C1EEFF88
:1028D000F7C1EEFFF8C1EEFF0350420DF3CFE9FF61
:1028E000F4CFEAFF000EE9260E0EEA22EF8005D0B3
:1028F00006D603D00101010EFD6FF0940000F2A492
:102900000AD0F2AA08D0F2940001FD2B0001FD517B
:1029100002E10001FE2B11EC24F04EE9E7CFD9FFD4
:10292000E55201EEE6F00E0EE80403E3E5CFEDFF1D
:10293000FBD7E5CFFAFFE5CFF4FFE5CFF3FFE5CF17
:10294000F5FFE5CFF7FFE5CFF6FFE5CFF4F1E5CFF3
:10295000F3F1E5CFF2F1E5CFF1F1E5CFEAFFE5CF15
:10296000E9FFE5CFDAFFE550E5CFE0FFE5CFD8FF9F
:102970001000420DBAD8000EE9260E0EEA2212000F
:10298000EF50E66E0850082AA5D8E552E750EF6EE2
:10299000072A1200060DA9D88D0EE9260E0EEA228E
:1029A0001200040EE66EE66AD1C1E6FFD2C1E6FF70
:1029B000AB0EE66E0E0EE66E1200D9CFE6FFE1CF4B
:1029C000D9FF1200E66E08EC10F041E9120003ECAA
:1029D00027F0F1C1D9F1F2C1DAF1F3C1DBF1F4C1B1
:1029E000DCF10101D9511200E66EE66A8DD0D950B2
:1029F000030FE96EDACFEAFFEF501200DA13D9C104
:102A0000E6FFDAC1E6FF80D00E018451780BE84280
:102A1000E842E8421200EE50DD5DD96FEE50DE591B
:102A2000DA6FEE50DF59DB6FEE50E059DC6FD88083
:102A3000120007500A0D59D8000EE926010EEA22AD
:102A400012000750040D51D8330EE926000EEA2279
:102A5000120042E9E7CFD9FF1200E9CFD9F1EACF5E
:102A6000DAF1E9CFE6FFEACFE6FF120000EBE6FF7E
:102A7000D6EC27F041E91200E66E46D041E9E7CFF7
:102A8000D9FF1200F7220800F5500101D96FDA6B67
:102A9000D9511200E926000EEA221200200E92DF20
:102AA000460EA2DF400E8EDF0F0EE66E1C0E3CEFD0
:102AB00015F001505EDFEE521200200E83DF600E33
:102AC000E2EF14F007500124E96E000E0220EA6ED6
:102AD000C0EF14F0EA6A640FE96E010EEA221200F8
:102AE00060DFE0EC21F046E91200F3CFE9FFF4CF1C
:102AF000EAFF120001504EDF020E4AEF15F00150BE
:102B000038DF410E4AEF15F073EC0EF042E9120087
:0C2B100054DF82E9120068DF0E011200A1
:042B1C0090DB86E9DB
:102B20000150010600090CE002EBE6FF03EBE6FFB3
:102B300000EBE6FF69DBF4E1DA1DF2E1010E01D002
:102B4000000E41E9E5CFDAFFE7CFD9FF120077DBCE
:102B500089E97BE80A6A0B6A02EBF6FF03EBF7FFF1
:102B600004EBF8FF0800F550096E095001E12DD380
:102B7000250E095C01E01BD30C6A0D6A0E6A0F6A10
:102B8000106A2DDB2D0E095C0CE02B0E095C09E0B0
:102B9000200E095C06E0230E095C03E0300E095CA0
:102BA00015E10950300A10E0130A0CE0030A08E0AE
:102BB0000B0A04E0060AE5E10C80E3D70C82E1D7BA
:102BC0000C84DFD70C86DDD70C88DBD72A0E095C96
:102BD00013E1A5DB0DE30C801CEBD9F11DEBDAF161
:102BE0000101D96DDA1F000EDA23D9510D6E02D022
:102BF0009CEB0DF0F4DA07D0126A3FDB02E06BDBEE
:102C0000FCD792EB0DF00CB00C982E0E095C15E180
:102C1000E6DA2A0E095C08E182DB04E29CEB0EF0A6
:102C2000010E0F6EDCDA09D0126A27DB02E053DBFB
:102C3000FCD792EB0EF0010E0F6E680E095C07E1F7
:102C4000CEDA680E095C1DE1030E106E19D0740E09
:102C5000095C16E07A0E095C13E0480E095C06E098
:102C6000540E095C03E05A0E095C02E1020E07D023
:102C70006C0E095C03E06A0E095C03E1010E106E44
:102C8000AEDA09506E0A01E16ED21E0A01E128D1C6
:102C9000200A01E125D13F0A01E1FDD01A0A01E134
:102CA000FAD00D0A01E1F7D0200A01E1F4D03A0A86
:102CB00001E1F1D0200A01E1EED0260A01E1EAD0DB
:102CC0000D0A01E1E7D01A0A01E19ED0200A3BE09B
:102CD000300A1AE0460A0EE0250A01E072D2D95005
:102CE000020FE96E000EDA20EA6E010EEE5E000EB3
:102CF000EE5AEE5A0FDB250EE66E86DA03E1DA1D98
:102D000001E159D20A2A5BD2116A0D50010803E28F
:102D10000D04116EF5DA115007E0010E0C1404E1F8
:102D20006DDA01E048D2116AD3DAEF50096ECBDADE
:102D300003E1DA1D01E13FD20A2A000E0B225EDA1E
:102D400001E13FD238D2020E105C08E1030E4EDAE8
:102D5000EE50176EEE50186EEF5007D0E7DADB6BCF
:102D6000D951176EDA51186EDB51196E17EBE6FF69
:102D700018EBE6FF19EBE6FF7EEC27F043E9F1C123
:102D8000D9F1F2C1DAF1F3C1DBF10101D9511C6EC5
:102D9000DA511D6E0F5006E01C500E5C03E20E501F
:102DA0001C6E1D6A1C500D5C02E29CEB0DF050DAAB
:102DB00005E00D500E5C02E28EEB0DF00CB004D07D
:102DC0001DDA01E0F8D1116A126A17EBF6FF18EB71
:102DD000F7FF19EBF8FF0800F550096E095010E0F5
:102DE0000D50125C0DE26FDA03E1DA1D01E1E3D16F
:102DF0000A2A000E0B22122AD950170F55DAEBD7E8
:102E0000FDD901E1DED1D7D163DAEE501A6EED5073
:102E10001B6E1AEBE6FF1BEBE6FF70EC27F042E9B6
:102E2000F3501C6EF4501D6E0F5006E01C500E5CEB
:102E300003E20E501C6E1D6A1C500D5C02E29CEBFE
:102E40000DF006DA05E00D500E5C02E28EEB0DF09F
:102E50000CB004D0D3D901E0AED1116A126A1AEBDA
:102E6000E9FF1BEBEAFFEF50096E09500FE00D5030
:102E7000125C0CE228DA03E1DA1D01E19CD10A2A96
:102E8000000E0B22122A1A2A1B22E9D7B7D901E118
:102E900098D191D10C8E10040AE1040EA7D9EE50FE
:102EA000136EEE50146EEE50156EEF5032D0030ECE
:102EB000105C16E10CAE0CD00BDAEFCFD9F10101AA
:102EC000DA6BDB6BDC6BD9AF23D0DA69DB691FD03F
:102ED000FFD9EFCFD9F10101D951136E146A20D077
:102EE000020E105C0CE10CAE06D0030E7FD9B6D9F1
:102EF000DBAF0ED00CD0030E79D9B0D909D00CAE0F
:102F00000AD014DADB6BDC6BDAAF02D0DB69DC6988
:102F1000BCD9166E07D00ADAD951136EDA51146E85
:102F2000156A166A0F5002E1010E0E6E1E6A1F6AC4
:102F3000D950400FE66E000EDA20E66EE552E550FD
:102F4000436EE750426E416A116A0A0E106E0950D4
:102F5000780A12E0200A10E0280A0CE0200A0AE0B1
:102F60003F0A06E00D0A02E0200A08E1020E05D041
:102F7000080E03D0080E0926100E106E0CBE02D0EB
:102F80000C920C94800E0C1417E0163415E3E668CE
:102F9000E668E668E66842D9DBEC22F0E552E5CF68
:102FA000DCF1E5CFDBF1E5CFDAF1E7CFD9F10101D3
:102FB0006CD9166E2D0E07D00CA202D02B0E03D0AA
:102FC0000CA404D0200E206E1E2A01D0206A0E50C0
:102FD00005E1135014101510161061E00101BE0E2A
:102FE000D96F500EDA6F000EDB6F83D93BEC23F004
:102FF000E552E5CFDFF1E5CFDEF1E5CFDDF1E7CF5B
:10300000DCF10101D951DC25F36EDA51DD21F46EDA
:10301000DB51DE21F86EF4CFF7FFF3CFF6FF0800A7
:10302000F550126E580E095C05E1610E125C02E368
:10303000200E125E5ED938EC23F0E552E550166E94
:10304000E550156EE550146EE750136E42EBE9FF44
:1030500043EBEAFF4206000E435A12EBEFFF1E2A33
:103060001350141015101610B9E10CA619D06F0EDC
:10307000095C06E10E501E5C13E31E280E6E10D094
:10308000780E095C09E0580E095C06E0620E095CE6
:1030900003E0420E095C04E1020E1F6E01D01E6ABD
:1030A000100E0C1407E00D500E5C04E20F5002E10C
:1030B0008DEB0EF00E501E5C03E21E500E5E01D032
:1030C0000E6A0E501E241F24D8800D5407E20E50A5
:1030D0000D5CD8801E54D8801F54116E010E0C1444
:1030E00006E1115004E08AD866E10AD9116A20503D
:1030F00007E010D920EBE6FF87D802E1DA1D5BE09C
:103100001F500BE007D9300EE66E7ED802E1DA1DC3
:1031100052E0D9D802E1DA1D4EE00E501F5C02E207
:103120001F500E5E300EE66E0EEBE6FFDCD843E17C
:10313000422A000E432242EBE9FF43EBEAFFEF5045
:10314000126E125008E0E6D812EBE6FF5DD8F0E10F
:10315000DA1DEEE130D052D82EE10E501E2411249B
:103160001F240A262CD01050030A1CE0010A14E088
:10317000030A07E0ADD8C9D80AEBEEFF0BEBEDFF71
:1031800020D08BD8DC6BDAAF02D0DB69DC69A0D849
:103190004ED8DCC1EEFF15D080D8DABFDB6998D8F5
:1031A00046D80FD095D8B1D80AEBEFFF0AD08BD80C
:1031B00005E1DA1D03E1F368F4680BD00A2A000E7A
:1031C0000B22D950020F70D8CDD40AEBF3FF0BEBD2
:1031D000F4FF7CE9E5CFDAFFE7CFD9FF1200D95041
:1031E000020F62D80800F550096E1200005E000E52
:1031F000015A00EBE9FF01EBEAFF1200200EE66E38
:1032000011EBE6FF73EF19F0A3EC27F043E9F3CFDE
:10321000D9F1F4CFDAF10101F31C120013EBE6FF50
:1032200014EBE6FF15EBE6FF16EBE6FF12006DD898
:10323000D9C1EEFFDAC1EEFFDBC1EEFF1200D9CF3C
:10324000E6FFDACFE6FFE1CFD9FFE2CFDAFF1200E7
:103250001C500D5C116E54D80F501200EECFD9F1F6
:10326000EECFDAF1EFCFDBF10101DC6B1200EECF34
:10327000D9F1EFCFDAF1010112000950E66EE66AEA
:1032800022EC28F042E9F3501200D951136EDA51C2
:10329000146EDB51156EDC5112000AEBD9F10BEB09
:1032A000DAF10101DB6B1200E96E000EDA20EA6E42
:1032B000EF2AEECFF6FF000EEF22EECFF7FFEF2260
:1032C000EECFF8FF120026D809EBE6FF04EF19F065
:1032D000020EF6EF18F00A0E1202F3500924D00F76
:1032E000126EEFEF18F016D88EEC15F044E90009D5
:1032F000120010EBE6FFE66AE66AE66A0EEF19F0E6
:1033000011500A26000E0B221200EE50EFCFEAFFFA
:10331000E96E120005EBE6FF06EBE6FF1200D8DFD0
:10332000EE501C6EED501D6E1D341200D1DF37EFD4
:0233300019F092
:0E333200D9CFE6FFE1CFD9FF81E952E8036869
:10334000046A056A0E6A0F6A106A116A126A7EECD4
:1033500023F09BEC25F0220EE66E3E0EE66EA4EC0A
:1033600025F042E90B0EE66E3E0EE66EA4EC25F06B
:1033700042E9F00EE66E3D0EE66EA4EC25F042E961
:10338000D50EE66E3D0EE66EA4EC25F042E9BD0ECC
:10339000E66E3D0EE66EA4EC25F042E9A20EE66E66
:1033A0003D0EE66EA4EC25F042E9870EE66E3D0E7A
:1033B000E66EA4EC25F042E9680EE66E3D0EE66E80
:1033C000A4EC25F042E9510EE66E3D0EE66EA4EC4B
:1033D00025F042E9110EE66E3D0EE66EA4EC25F0F6
:1033E00042E9D10EE66E3C0EE66EA4EC25F042E911
:1033F0008F0EE66E3C0EE66EA4EC25F042E94F0E11
:10340000E66E3C0EE66EA4EC25F042E90D0EE66E8B
:103410003C0EE66EA4EC25F042E9CD0EE66E3B0EC6
:10342000E66EA4EC25F042E9C80EE66E3B0EE66EB1
:10343000A4EC25F042E989948996010EE66EE66ACD
:10344000A80EE66E3B0EE66EDCEC23F044E98150FC
:10345000010B1BE1010EE66E47EC06F041E90108A5
:1034600014E1010EE66EE66A8C0EE66E3B0EE66E29
:10347000DCEC23F044E93F0EE66E3B0EE66EA4EC76
:1034800025F042E981A0FED796D0E66A47EC06F027
:1034900041E9250EE66E3B0EE66EA4EC25F042E90E
:1034A000E66AE66A150EE66E3B0EE66EDCEC23F08D
:1034B00044E9E668E668E668E6680A0EE66E5AECF5
:1034C00007F045E9026E025049E0FB0EE66E3A0E47
:1034D000E66EA4EC25F042E9016A0250015C3EE28E
:1034E000F10EE66E3A0EE66EA4EC25F042E90150CC
:1034F0000B0DF3CFE9FFF4CFEAFF6C0EE926000EC7
:10350000EA22EFCFE6FFE1EC25F041E9E70EE66EB7
:103510003A0EE66EA4EC25F042E901500B0DF3CF14
:10352000E9FFF4CFEAFF6C0EE926000EEA22070E4F
:10353000E926000EEA22EFCFE6FFCEEC25F041E9C6
:1035400001500B0DF3CFE9FFF4CFEAFF6C0EE92633
:10355000000EEA22EF50036E012ABFD7FF0E035C74
:1035600006E003EBE6FF35EC07F041E908D0C60EB4
:10357000E66E3A0EE66EA4EC25F042E99AD7E66ACA
:103580004AEC07F041E9E66AE66ADDEC07F042E959
:10359000016EB10EE66E3A0EE66EA4EC25F042E93D
:1035A000010EE66EBBCEE6FF920EE66E3A0EE66EBA
:1035B000DCEC23F044E98984E6683DEC04F041E961
:1035C000E66AE66A750EE66E3A0EE66EDCEC23F00D
:1035D00044E9C9EC08F0000901E180D0000161A7CD
:1035E00007D06C0EE66E3A0EE66EA4EC25F042E9CA
:1035F00000016151030B000908E0500EE66E3A0E1F
:10360000E66EA4EC25F042E907D0360EE66E3A0EDF
:10361000E66EA4EC25F042E969C0E6FFCEEC25F0A9
:1036200041E9000161AD34D02F0EE66E3A0EE66E30
:10363000A4EC25F042E9000161AF16D0010E0001B3
:10364000EA6A6425E96E6551EA22EFCFE6FFCEEC27
:1036500025F041E964C0E9FF65C0EAFFEFCFE6FF6E
:10366000CEEC25F041E914D0016A040E015C10E2B1
:10367000030ED88001540001EA6A6425E96E6551A1
:10368000EA22EFCFE6FFCEEC25F041E9012AEDD7A3
:103690002C0EE66E3A0EE66EA4EC25F042E9016AC5
:1036A00000016851015C0EE201500001EA6A6625E2
:1036B000E96E6751EA22EFCFE6FFBFEC25F041E962
:1036C000012AEED78976D1EC08F0112A11EBE6FF3A
:1036D00010EBE6FFBBEC23F042E947D10E500308A4
:1036E0002AE2E66AE66A0D0EE66E3A0EE66EDCEC5B
:1036F00023F044E9E90EE66E390EE66EA4EC25F0FF
:1037000042E9010EE66EFEEC06F041E9E668E66885
:10371000E668E668E66A76EC0AF045E90E6A0F6A42
:10372000E66ABBCEE6FFCA0EE66E390EE66EDCEC4C
:1037300023F044E902D0010E0F6E0F5001E115D1C4
:103740000F6AE66AFEEC06F041E90400C080F292DE
:10375000F19CF288F092F198F088A8A2FED70300BD
:10376000F298F098C090FDEC23F0126E020EE66E17
:10377000FEEC06F041E9000813E2B40EE66E390EE5
:10378000E66EA4EC25F042E90E2AE66A0EEBE6FFAF
:10379000970EE66E390EE66EDCEC23F044E90AD0B3
:1037A0000E5007E011EBE6FF10EBE6FFBBEC23F059
:1037B00042E90E6A1250020A62E0030A01E0D4D024
:1037C00000010B0E9C6F060EE66E04EBE6FFBCECF0
:1037D00022F041E9E750000915E100019C519C2BC2
:1037E000EA6A000FE96E000EEA220D0EEF6E00018C
:1037F0009C519C2BEA6A000FE96E000EEA220A0E29
:10380000EF6E2FD0016A150E015C2BE2060EE66EFC
:1038100004EBE6FFBCEC22F041E9E750FF0F150D89
:10382000F3CFD9F1F4CFDAF1340E0101D9274C0EE0
:103830000101DA2301500101F76AD925F66EDA5148
:10384000F7220800F550E66E00019C519C2BEA6AB5
:10385000000FE96E000EEA22E552E750EF6E012AF2
:10386000D2D7042AE66AD5EC08F041E911EBE6FF6D
:10387000102A10EBE6FFBBEC23F042E976D0000102
:103880000B0E9C6F060EE66E05EBE6FFBCEC22F01D
:1038900041E9E750000915E100019C519C2BEA6ABF
:1038A000000FE96E000EEA220D0EEF6E00019C5132
:1038B0009C2BEA6A000FE96E000EEA220A0EEF6EF8
:1038C0002FD0016A0B0E015C2BE2060EE66E05EBB3
:1038D000E6FFBCEC22F041E9E750FF0F0B0DF3CF00
:1038E000D9F1F4CFDAF19D0E0101D9274C0E010177
:1038F000DA2301500101F76AD925F66EDA51F72271
:103900000800F550E66E00019C519C2BEA6A000FFE
:10391000E96E000EEA22E552E750EF6E012AD2D797
:10392000052A010EE66EE66A04EC09F042E9000998
:1039300012E1840EE66E390EE66EA4EC25F042E943
:10394000010EE66EE66A740EE66E390EE66EDCEC8B
:1039500023F044E901D0102A11EBE6FF10EBE6FF5B
:10396000BBEC23F042E901D000D033D653E9E7CFD6
:04397000D9FF120069
:0C39740020556E69636173742046616920
:103980006C6564000D0A556E69636173742046614D
:10399000696C65640D0A00436F6E6E656374696FD0
:1039A0006E204C6F737420202020202564205469E1
:1039B0006D6573000D0A446174612052657175650F
:1039C0007374204661696C65640020526573796E7A
:1039D0006368726F6E697A65642020746F20436833
:1039E000616E6E656C202564000D0A526573796EF8
:1039F0006368726F6E697A696E67207468652043C8
:103A00006F6E6E656374696F6E2E2E2E0052657335
:103A1000796E6368726F6E697A696E672074686523
:103A200020436F6E6E656374696F6E003A200020EC
:103A300066726F6D2000556E69636173742050610A
:103A4000636B657420776974682052535349200072
:103A500042726F616463617374205061636B65745B
:103A60002077697468205253534920005365637569
:103A700072656420005242303A2042726F61646382
:103A800061737420205242323A20556E696361732B
:103A9000740020436F6E6E656374656420506565C5
:103AA0007220206F6E204368616E6E656C20256405
:103AB000000D0A436F6E6E656374696F6E2043720A
:103AC0006561746564000D0A4E6F205375697461F9
:103AD000626C652050414E2C2052657363616E6E9E
:103AE000696E672E2E2E00202020525353493A2013
:103AF000004368616E6E656C3A20000D0A41637484
:103B0000697665205363616E20526573756C7473BA
:103B10003A200D0A00416374697665205363616E33
:103B20006E696E67000D0A5374617274696E672066
:103B3000416374697665205363616E2E2E2E000DED
:103B40000A4E6574776F726B20467265657A65728E
:103B5000204665617475726520697320656E6162C7
:103B60006C65642E2054686572652077696C6C20E2
:103B70006265206E6F2068616E642D7368616B658D
:103B80002070726F636573732E0D0A00204E65748A
:103B9000776F726B20467265657A657220202020EF
:103BA000454E41424C45440046656174757265203E
:103BB0004D6957692050524F204D5246383958416F
:103BC000204E6F64652032000D0A0D0A000D0A2098
:103BD00020202020202020202020202020202020E5
:103BE0002020202077696C6C20626520746F6767E5
:103BF0006C65642075706F6E2072656365697669A7
:103C00006E67206D657373616765732E000D0A2002
:103C100020202020202020202020202020202020A4
:103C20002020202050494344454D205A206F7220C7
:103C30004578706C6F7265722031362064656D6FE7
:103C400020626F617264732E204C45442032000D57
:103C50000A2020202020202020202020202020207A
:103C6000202020202020427574746F6E2032207432
:103C70006F20756E696361737420656E637279700D
:103C8000746564206D657373616765206F6E000DE8
:103C90000A2020202020202020202020202020203A
:103CA0002020202020205075736820427574746F86
:103CB0006E203120746F2062726F6164636173746F
:103CC0002061206D6573736167652E205075736880
:103CD000000D0A202020202020202020202020202D
:103CE0002020202020202020746F20696E646963CA
:103CF00061746520697420697320636F6E6E6563FB
:103D000074656420746F2074686520706565722E18
:103D1000000D0A20202020202020202020202020EC
:103D20002020202020202020506F776572206F6E89
:103D30002074686520626F61726420756E74696CAE
:103D4000204C45442031206C69676874732075707D
:103D5000000D0A20202044656D6F20496E73747237
:103D6000756374696F6E3A000D0A2020202020527E
:103D700046205472616E736365697665723A204DB0
:103D8000524638395841000D0A202020202020209A
:103D9000202020202020204C454420323A2052412F
:103DA00033000D0A20202020202020202020202049
:103DB00020204C454420313A20524132000D0A4F18
:103DC000757470757420436F6E666967757261747F
:103DD000696F6E3A000D0A2020202020202020202C
:103DE0002020427574746F6E20323A2052423200A5
:103DF0000D0A202020202020202020202042757421
:103E0000746F6E20313A20524230000D0A496E70B4
:103E1000757420436F6E66696775726174696F6E41
:103E20003A000D0A5374617274696E67204E6F64B4
:103E3000652032206F662046656174757265204486
:103E4000656D6F20666F72204D69576928544D2942
:103E50002050524F20537461636B202E2E2E00523F
:103E600058204D657373616765733A20253364008C
:103E70005458204D657373616765733A2025336428
:103E8000000D0A000D0A526573796E6368726F6ED9
:103E9000697A656420436F6E6E656374696F6E2026
:103EA000746F204368616E6E656C20000D0A436874
:103EB00065636B696E67204368616E6E656C200098
:103EC0000D0A5363616E204368616E6E656C20005D
:103ED00053686F7274416464723A002050414E49D5
:103EE000443A004368616E6E656C3A002020000D14
:103EF0000A417661696C61626C65206E6F646573FE
:103F00000D0A48616E646C6520525820444320506D
:103F1000414E49442041444452204C4F4E475F415A
:103F20004444522020202020202020504545525F2C
:103F3000494E464F0D0A0020204368616E6E656C45
:103F40003A2000202050414E49443A20002020537E
:103F5000686F727420416464723A20000D0A0D0A81
:103F6000416464726573733A203078000D0A4A6FB9
:103F7000696E20746865206E6574776F726B20734C
:0E3F800075636365737366756C6C790D0A006A
:023F8E00EFD969
:103F900085E949E802EBE9FF03EBEAFFEE50056E25
:103FA000ED50066ECCD9EE50076EED50086E096AE2
:103FB0000A6A370E0B6E9E0E0C6E0D6A200E0D5C9B
:103FC0005CE201010838F00BE06F07380F0BE013DB
:103FD0000738F00BDF6F07EBE1F108EBE2F1050EBC
:103FE000D890E233E133E804FBE1A1D90750DD25A5
:103FF000DB6F0850DE21DC6F030E0914E56FE66B02
:10400000010ED890E537E637E806FBE12ED9052604
:10401000DA5106220B5009260C500A220638F00B02
:10402000E06F05380F0BE0130538F00BDF6F05EB81
:10403000E1F106EBE2F1050ED890E233E133E8045A
:10404000FBE175D90550DD25DB6F0650DE21DC6F05
:104050000A38E8441F0BE56FE66B030EE517000E08
:10406000E617010ED890E537E637E806FBE1FDD804
:104070000726DA5108220D2AA1D702EBE9FF03EB4C
:10408000EAFF05EBEEFF06EBEDFF59D907EBEEFF7C
:1040900008EBEDFF4AE9E7CFD9FF12000AD901E0AA
:1040A000010E0B6EF29E096A0850095C2DE20A6A45
:1040B000030E0A5C0BE20A5034D9EF50E66E0A5048
:1040C000F2D8E552E750EF6E0A2AF2D709EBFCF17D
:1040D00002EBE6FF03EBE6FFF90EE66E010EE66E7D
:1040E00056DF44E90A6A040E0A5C0CE22FD90AE2A0
:1040F0000A50D9D8EFCFD9F1FBD80101D951EF1A25
:104100000A2AF1D7092AD0D70B50E8B0F28EE8A0DE
:10411000F29E45E9E7CFD9FF1200CBD801E0010EAE
:104120000B6EF29E096A040E095C05E20950F9D88B
:10413000EF6A092AF8D7096A0850095C1CE20A6A82
:10414000040E0A5C0CE202D90AE2D2D8EFCFD9F110
:104150000A50E7D80101D951EF1A0A2AF1D702EB28
:10416000E6FF03EBE6FF00EBE6FF01EBE6FF0FDF08
:1041700044E9092AE1D70B50E8B0F28EE8A0F29E9C
:1041800045E9E7CFD9FF1200C6D801E0010E086E5D
:10419000F29E80D803500224B5D8040E075C0AE2D0
:1041A000075081D8EF50E66E0350022407249AD8B6
:1041B000D4D8F3D7076A030E075C0AE20350075C02
:1041C00004E207508FD8EF5001D0000ECBD8F3D7C0
:1041D00061D8040E0224E66E78D80850E8B0F28E5A
:1041E000E8A0F29E43E9E7CFD9FF120094D801E09E
:1041F000010E086EF29E076A030E075C0AE2035086
:10420000075C04E207506ED8EF5001D0000EAAD828
:10421000F3D740D802EBE6FF58D83CD8035002242D
:10422000FE0F70D8020E075C16E207503CD8EFCFA5
:10423000D9F103500224FE0F072454D8EF50010196
:10424000D95D07E00850E8B0F28EE8A0F29E000EBB
:1042500008D0072AE7D70850E8B0F28EE8A0F29E0F
:10426000010E43E9E7CFD9FF12000101E551002417
:10427000E96EE6510120EA6EEE500924E36FED503D
:104280000A20E46FDB51E319D96FDC51E419DA6FCE
:10429000D9511200F90EE66E010EE66E00EBE6FF54
:1042A00001EBE6FF1200EA6AF90FE96E010EEA225D
:1042B00012005DD888E944E80450FC0BE842E8426B
:1042C000010F086EF250800B12000350010104240C
:1042D000D96F000E0520DA6FD9C1E6FFE66EDEDE8B
:1042E00047E912000424E96E000E0520EA6E120070
:1042F000040E0902F3500A240524E96E000E06207C
:10430000EA6E1200E66E04EBE6FF05EBE6FF05DF62
:1043100047E9076A12002BD887E942E8F250800B80
:1043200012000024E96E000E0120EA6E1200010165
:10433000DF51E119DD6FE051E219DE6F1200020E6C
:104340000224E96E000E0320EA6E1200040E090238
:10435000F3500A24D88004541200E552E750EF6E5F
:10436000072A1200E66E07509EDFADEF21F0D9CF8D
:08437000E6FFE1CFD9FF1200C6
:08437800DBD887E941E8F250AF
:10438000800B01E0010E076EF29E8C9A030EC3D8DB
:10439000005001100BE0E5EC27F0E66ECED8E552B8
:1043A000E750EF6E0006000E015AF2D78C8A0750D4
:1043B000E8B0F28EE8A0F29E42E9E7CFD9FF120002
:1043C000B7D887E942E8076AF250800B01E0010E96
:1043D000086EF29E8C9A050EE66EB7D8E5EC27F0D3
:1043E000076E8C8A2EEC00F007B0F4D78C9A060E7C
:1043F000E66EABD88C8A2EEC00F08C9A020E8BD82D
:10440000076A0050011018E098D8EFCFE6FF9DD85A
:104410000006000E015A072A075001010224D96F35
:10442000000E0320DA6FD9513F0BEBE18C8A075065
:104430000226000E0322CED78C8A0850E8B0F28EF6
:10444000E8A0F29E43E9E7CFD9FF120071D885E9D1
:10445000D70EE96E010EEA6E0101EE500224D96F0B
:10446000ED500320DA6FDB6BDB35000EDB1907E65E
:10447000D880000ED955800EDA55000EDB5502E2C9
:10448000000E0ED000EBE9FF01EBEAFFD7C1EEFF13
:10449000D8C1EDFF01010250D7270350D823010EE8
:1044A00041E9E7CFD9FF120043D881E941E8010E85
:1044B000016E0101D76BD86BC90EE66E010EE66E78
:1044C000020E23D8CB0EE66E010E43D8CD0EE66E5B
:1044D000010E3FD8CF0EE66E010EE66E640E15D8C3
:1044E000D10EE66E010EE66E040E0FD8D30EE66E08
:1044F000010EE66E020E09D8D50EE66E010E29D821
:10450000015042E9E7CFD9FF1200E66EE66A9EDF6E
:1045100044E901161200E66E18D8010103EBD9F147
:10452000DA6BD9C1E6FF11D802EBE6FFA5EF22F066
:10453000D9CFE6FFE1CFD9FF120004EBE9FF05EB8D
:10454000EAFF042A000E05221200D6EC27F041E90A
:0A4550001200E66E010E85EF22F066
:06455A0042E8D9CFE6FFA4
:10456000DACFE6FFE1CFD9FFE2CFDAFF86E9036ACF
:104570001200F3DF038003D0F0DF01D00382026A70
:10458000080EE76ED890013602360050025C02E356
:10459000026E012AE72EF7D703B2120003B081EBB7
:1045A00000F003A082EB00F0E552E5CFDAFFE7CFA1
:1045B000D9FF43E9120044E8D9CFE6FFDACFE6FF9E
:1045C000E1CFD9FFE2CFDAFF8EE980EB08F081EB93
:1045D00009F082EB0AF083EB0BF004500802F35071
:1045E000006EF450016E04500902F3500126000ED3
:1045F000F420026E04500A02F3500226000EF4204A
:10460000036E04500B02F350032605500802F350CA
:104610000126F4500222000E032205500902F35035
:104620000226F450032205500A02F35003260650D6
:104630000802F3500226F450032206500902F350F8
:10464000032607500802F3500326E552E5CFDAFFB0
:10465000E7CFD9FF48E9000C45E8D9CFE6FFDACF2C
:10466000E6FFE1CFD9FFE2CFDAFF8FE90C6A120053
:10467000F3DF0C8003D0F0DF01D00C820B6A0A6AF2
:10468000096A086A200EE76ED890043605360636A9
:104690000736083609360A360B360050085C0150DA
:1046A000095802500A5803500B5809E30050085E9D
:1046B0000150095A02500A5A03500B5A042AE72E95
:1046C000E4D70CB212000CB00AD088EB00F089EBF2
:1046D00001F08AEB02F08BEB03F00CA008D084EB26
:1046E00000F085EB01F086EB02F087EB03F0E5527A
:0C46F000E5CFDAFFE7CFD9FF49E912005F
:0446FC007B0ED36EF0
:10470000C090550EA76EAA0EA76E0E01FF91050E62
:10471000E86F060EE96F130EF66F050ED76F550E94
:10472000A76EAA0EA76EFF810F0148693F0E496F61
:10473000F19E92689368946895689668896A8A6A17
:104740008C6A8D6A9380938492949296958E9386C8
:104750009586938A949E9398949CC00EC76E210E62
:10476000C66E949496928B848D82F186959A8C8AEB
:10477000F28E4CEF25F087D883E96BEC25F00150E1
:10478000E66EE66A700EE66E3E0EE66E73D8005078
:10479000E66EE66A5F0EE66E3E0EE66EE66AB80EFE
:1047A000E66E010EE66E37EC27F047E97FEC25F068
:1047B00041E9E7CFD9FF120066D885E941E86BEC03
:1047C00025F00150E66EE66A02EBE6FF03EBE6FF3A
:1047D00051D87FEC25F000500CE0056A080E055C0E
:1047E00008E2FA0EE66EE66AA7EC24F042E9052A32
:1047F000F5D742E9E7CFD9FF120045D881E944E86F
:1048000081B004D081A0FED7010E07D081B404D0BE
:1048100081A4FED7020E01D0000E45E9E7CFD9FFF3
:104820001200F250100B04E0F250020B01E0F29281
:10483000F050100B04E0F050020B01E0F092F25047
:10484000080B04E0F250010B01E0F290A050020BC3
:1048500005E0A150020B02E0A1928974A4AE09D038
:10486000A49E05EC25F0050EE66EE66AA7EC24F0A2
:1048700042E91200E66AA80EE66E010EE66E37EC1B
:1048800027F047E91200D9CFE6FFE1CFD9FF1200A8
:10489000D9CFE6FFE1CFD9FF85E944E854D000EB5A
:1048A000E6FF01EBE6FF02EBE6FF03EBE6FF140E8B
:1048B000E66EE66AE66AE66ADBEC22F0E552E5CFF0
:1048C000DCF1E5CFDBF1E5CFDAF1E7CFD9F101019A
:1048D000D951056EDA51066EDB51076EDC51086E58
:1048E000D950050FE96EDACFEAFFAF0EEE5E000E8B
:1048F000EE5A000EEE5A000EEE5A083408E2055049
:104900002D08000E0654000E0754000E085401E353
:104910001AD0083408E205500008000E0654000EB4
:104920000754000E08540FE20000D950050FE96E3D
:10493000DACFEAFF2A0EEE5E000EEE5A000EEE5AB5
:10494000000EEE5AE6D745E9E7CFD9FF1200D9CFDE
:10495000E6FFE1CFD9FF83E944E800EBE6FF01EB96
:10496000E6FFE66AE66AD00EE66E070EE66EE66AD7
:10497000E66ADBEC22F0E552E5CFDCF1E5CFDBF1D6
:10498000E5CFDAF1E7CFD9F10101D951036EDA5160
:10499000046EDB51056EDC51066ED950030FE96ED3
:1049A000DACFEAFFAA0EEE5E000EEE5A000EEE5AC5
:1049B000000EEE5A063408E20350C308000E0454F9
:1049C000000E0554000E065402E31BD01AD0063424
:1049D00008E203500008000E0454000E0554000EB7
:1049E00006540FE20000D950030FE96EDACFEAFF58
:1049F000270EEE5E000EEE5A000EEE5A000EEE5A34
:0A4A0000E6D745E9E7CFD9FF120021
:064A0A0002010051025DF3
:104A100003E30151035D2CE271B0FED702010051A6
:104A2000025D11E20251EA6AA40FE96E010EEA2268
:104A3000EF50756E022B0051025D1AE1015118E131
:104A400071848DEF25F00151035D12E203516DD8A1
:104A5000EF5004E1035169D8200EEF6E035165D881
:104A6000EF50756E032B0151035D02E1718455D83F
:104A70001200D9CFE6FFE1CFD9FF83E971B4FED7A9
:104A80000201026B036B01EB00F200EB01F271809B
:104A900041E9E7CFD9FF1200530E9512A49E736A25
:104AA000F00E746E280E726E716AA38EF28EF28C06
:104AB00034D801017C0EA46F810EA56FA66BE66A47
:104AC000030EE66ED6DF42E9C80EE66EE66AA7EC94
:104AD00024F042E91200D9CFE6FFE1CFD9FF81E906
:104AE00041E8016A200E015C06E201501ED8200E4A
:104AF000EF6E012AF7D742E9E7CFD9FF1200010193
:104B00007C0EA46F320EA56FA66B200EA76FE66E0B
:104B1000040EE66EAEDF42E912002C0EE66E010EC8
:104B2000E66EA7EC24F042E91200EA6AA80FE96EEB
:064B3000010EEA22120052
:0A4B36009584949C240EA86E900E46
:104B40009C6E190EAB6E1200D9CFE6FFE1CFD9FFF4
:104B500083E941E800EBF6FF01EBF7FF002A000EC6
:104B600001220800F550036E035005E003EBE6FF59
:104B700006D841E9EFD742E9E7CFD9FF12004ED876
:104B8000A8A2FED700EBA9FF41E9E7CFD9FF1200A9
:104B90009CA202D09C989C88AA5012003FD841E861
:104BA00080EB02F000380F0B0F0B006E00502BD87B
:104BB0000F0E0214006E005026D842E9E7CFD9FF4D
:104BC00012002CD8640E005C05E3640EE66E00EB68
:104BD000E6FF2AD80A0E005C09E30A0EE66E640EB0
:104BE000E66E00EBE6FFBCEC22F01ED80A0EE66E85
:104BF00000EBE6FFBCEC22F041E9E75004D841E9C4
:104C0000E7CFD9FF1200F76ACF0FF66E500EF722EA
:104C10000800F5CFE6FFB3DF41E91200D9CFE6FF88
:104C2000E1CFD9FF82E91200B9EC22F041E9E75067
:044C300003EF26F078
:0C4C340020B2202020B22020B220B220AC
:104C400020202020B220B20D0AB220B220B220B221
:104C5000202020B22020B22020B220200D0AB22035
:104C600020B22020B220B220B22020B22020B220D8
:104C7000B20D0AB22020B22020B220B22020B220F1
:104C8000B220B22020B20D0AB22020B22020B220E1
:104C9000B2202020B220B2202020B20D0AB2B2B23F
:104CA0002020B2B2B2B20D0AB22020B220B220202F
:104CB000200D0AB22020B220B2B2B2B20D0AB22048
:104CC00020B220B22020200D0AB2B2B22020B2B20F
:044CD000B2B20D0A65
:0C4CD4001E0EF66E000EF76E000EF86E5D
:104CE00001010900F550EC6F0900F550ED6F03E18B
:104CF000EC6701D03DD00900F550E76F0900F55091
:104D0000E86F0900F550E96F09000900F550E96EF8
:104D10000900F550EA6E090009000900F550EA6F34
:104D20000900F550EB6F09000900F6CFEEF1F7CF5F
:104D3000EFF1F8CFF0F1E7C1F6FFE8C1F7FFE9C105
:104D4000F8FF0101EA5302E1EB5307E00900F550D7
:104D5000EE6EEA07F8E2EB07F9D7EEC1F6FFEFC116
:104D6000F7FFF0C1F8FF0101EC07000EED5BBFD7C4
:024D700012002F
:0E4D72005353535353535353535353535353A9
:104D800053535353535354545454545454545454E9
:104D900054541D202225282B2E303336393C3F41D8
:104DA00044474A304F520A0D10121215181B202387
:104DB000262926008402090409060C08C10A770C7A
:104DC000630E19100012001400163818C81A0D1CB2
:104DD000001E72203822382407260028002A692C59
:104DE000812E7E309632F83488364038003AE83CDE
:024DF000003E83
:0E4DF200040ED56EF184F294F28AD58E000183
:104E0000FD6BFE6B1200D9CFE6FFE1CFD9FF81E940
:104E100046E8036A046AF29AF250040B01E0010EBC
:104E2000056ED650016ED750026EF250040B01E0B1
:104E3000010E066E0650055CEFE1055006E0F294A7
:104E40000001FD2BFD5101E1FE2B0001FD51032668
:104E5000FE510426F28A01EBF1F102EBF2F103EBD1
:0E4E6000F3F104EBF4F147E9E7CFD9FF1200BC
:024E6E00D9CF9A
:104E7000E6FFDACFE6FFE1CFD9FFE2CFDAFF87E93D
:104E800044E8D9CFE6FFDACFE6FFE552E5500A6EF7
:104E9000E750096E09EBE6FF0AEBE6FF00EBE6FFE1
:104EA00001EBE6FF02EBE6FFD950030FE66E000EC2
:104EB000DA20E66EA7EC15F047E9F350076EF450E0
:104EC000086E03EBE9FF04EBEAFFEF6A07EBF3FF81
:104ED00008EBF4FF45E9E5CFDAFFE7CFD9FF120091
:104EE000FE0EE3CFE9FFFF0EE3CFEAFFF36AF46AB9
:104EF000EE5203E0F34AF42AFBD71200FF0EE3CF91
:104F0000F8FFE552FF0EE3CFF7FFE552FF0EE3CFC8
:104F1000F6FFE552E66AE66AE66A0900F55209E03C
:104F2000FD0EE32A05E1FE0EE32A02E1FF0EE32A6D
:104F3000F4D7FD0EE3CFF1F1FE0EE3CFF2F1FF0E59
:064F4000E3CFF3F11200C3
:0A4F4600D9CFE6FFDACFE6FFE1CF96
:104F5000D9FFE2CFDAFF85E9013415E200EBE9FF82
:104F600001EBEAFFEECFF3FFEDCFF4FFEE2A000EE8
:104F7000EF22F3CFE9FFF4CFEAFF02EBEFFFEF50B0
:104F8000F36EF46A0DD0FE0E005C05E102EBE6FF65
:104F900044EC28F004D002EBE6FF03EC00F041E91A
:0C4FA00041E9E5CFDAFFE7CFD9FF1200AE
:044FAC0026D89E96CF
:104FB000C950026EC69E00EBC9FFC6BEFBD79EA6B7
:104FC000FED742E9E7CFD9FF1200E66AEFDF41E9F9
:104FD000C950120012D8A49E729E00EB75FF72BEDB
:104FE000FBD7A4AEFED7A49E42E9E7CFD9FF1200BB
:104FF000E66AF0DF41E975501200D9CFE6FFE1CF54
:08500000D9FF82E941E812002A
:0850080078000000B400000074
:105010002C0100001C020000FC030000BC07000083
:105020003C0F00003C1E00003C3C00003C780000AF
:105030003CF000003CE001003CC003003C80070065
:045040003C000F0021
:0C504400F36AF46AFF0EE124E96EFF0E2F
:10505000E220EA6EED6607D02F0EEF6404D03A0E20
:08506000EF6001D0F32A1200F9
:08506800C00EF36E00EE00F033
:105070000E0E01D81200EA6002D0EE6AFCD7F3509F
:08508000E9601200EE6AFCD7A2
:08508800FF0EE350ADBA04D0A5
:10509000B06AAC8EAD8A949CADA2FED7AE6EF36EB4
:0450A000F46A12009C
:0C50A4001DEE00F02DEE00F0F86A6AEC42
:0E50B00026F00BEC00F099EC19F0FBD7120083
:0250BE0030318F
:0F50C000323334353637383961626364656600E0
:0150CF0030B0
:0F50D0003132333435363738394142434445465F
:0150DF0002CE
:0850E0007766550000FF001186
:0250E8000000C6
:0450EA0000000000C2
:0250EE000000C0
:0250F0000219A3
:01FFF800EC1C
:01FFF900F611
:01FFFA00D82E
:01FFFB00FB0A
:00000001FF
