:020000040000fa
:080000000002040000000000f2
:020000040000fa
:100400002f9720000e7f24000e01880000000000be
:100410000c00070000ba20000100200011000700b6
:10042000000020000000e000020032000000020096
:1004300000000000e2060200000000000040da00b8
:100440000000fe004440a900000020000000e00081
:100450000300320000002000a00188004440a800f2
:100460000000060091018800800078000000eb0089
:1004700015003700e280400032a0b4009101ba00bc
:10048000e280400032a0b4009102ba00e280400055
:1004900032a0b4000002eb00472bde00f507b200eb
:1004a000602ce10004003a000059eb008301e900f0
:1004b000fdff3e00040037006128e100010032002a
:1004c0000082eb00040007001101ba000200e00006
:1004d000e8ff3a00000006003159ba008301e90044
:1004e0000c0032002159ba008301e90008003200f3
:1004f0000400e00003003a00e280400032a0b400b3
:10050000f5ff370011d9ba008301e900faff3a007c
:100510008100e800e180400032a0b4000000060045
:020000040000fa
:020000040002f8
:04aff800a61300009c
:020000040000fa
:020000040002f8
:04affc00673e0000ac
:020000040000fa
:10000800ec090000fe090000100a0000220a0000a6
:10001800340a0000ec090000ec090000ec090000bb
:10002800ec090000ec090000ec090000ec090000f4
:10003800ec090000ec090000ec090000cc09000004
:10004800ec090000ec090000ec090000ec090000d4
:10005800ec090000ec090000ec090000ec090000c4
:10006800ec090000ec090000ec090000ec090000b4
:10007800ec090000ec090000ec090000ec090000a4
:10008800ec090000ec090000ec090000ec09000094
:10009800ec090000ec090000ec090000ec09000084
:1000a800ec090000ec090000ec090000ec09000074
:1000b800ec090000ec090000ec090000ec09000064
:1000c800ec090000ec090000ec090000ec09000054
:1000d800ec090000ec090000ec090000ec09000044
:1000e800ec090000ec090000ec090000ec09000034
:1000f800ec090000ec090000ec090000ec09000024
:10010800ec090000ec090000ec090000ec09000013
:10011800ec090000ec090000ec090000ec09000003
:10012800ec090000ec090000ec090000ec090000f3
:10013800ec090000ec090000ec090000ec090000e3
:10014800ec090000ec090000ec090000ec090000d3
:10015800ec090000ec090000ec090000ec090000c3
:10016800ec090000ec090000ec090000ec090000b3
:10017800ec090000ec090000ec090000ec090000a3
:10018800ec090000ec090000ec090000ec09000093
:10019800ec090000ec090000ec090000ec09000083
:1001a800ec090000ec090000ec090000ec09000073
:1001b800ec090000ec090000ec090000ec09000063
:1001c800ec090000ec090000ec090000ec09000053
:1001d800ec090000ec090000ec090000ec09000043
:1001e800ec090000ec090000ec090000ec09000033
:0801f800ec090000ec09000015
:020000040000fa
:10020800ec090000fe090000100a0000220a0000a4
:10021800340a0000ec090000ec090000ec090000b9
:10022800ec090000ec090000ec090000ec090000f2
:10023800ec090000ec090000ec090000cc09000002
:10024800ec090000ec090000ec090000ec090000d2
:10025800ec090000ec090000ec090000ec090000c2
:10026800ec090000ec090000ec090000ec090000b2
:10027800ec090000ec090000ec090000ec090000a2
:10028800ec090000ec090000ec090000ec09000092
:10029800ec090000ec090000ec090000ec09000082
:1002a800ec090000ec090000ec090000ec09000072
:1002b800ec090000ec090000ec090000ec09000062
:1002c800ec090000ec090000ec090000ec09000052
:1002d800ec090000ec090000ec090000ec09000042
:1002e800ec090000ec090000ec090000ec09000032
:1002f800ec090000ec090000ec090000ec09000022
:10030800ec090000ec090000ec090000ec09000011
:10031800ec090000ec090000ec090000ec09000001
:10032800ec090000ec090000ec090000ec090000f1
:10033800ec090000ec090000ec090000ec090000e1
:10034800ec090000ec090000ec090000ec090000d1
:10035800ec090000ec090000ec090000ec090000c1
:10036800ec090000ec090000ec090000ec090000b1
:10037800ec090000ec090000ec090000ec090000a1
:10038800ec090000ec090000ec090000ec09000091
:10039800ec090000ec090000ec090000ec09000081
:1003a800ec090000ec090000ec090000ec09000071
:1003b800ec090000ec090000ec090000ec09000061
:1003c800ec090000ec090000ec090000ec09000051
:1003d800ec090000ec090000ec090000ec09000041
:1003e800ec090000ec090000ec090000ec09000031
:0803f800ec090000ec09000013
:020000040000fa
:10052000881f7800000478008040eb00f270220001
:10053000008f2d0002003700000444008140e800d5
:10054000820f5400fcff3e00e0cf50002f003a0025
:100550000040eb00723e200002003700883eb100f0
:100560000040e800820f5400fcff3e00e04f5000c6
:1005700002003a0080cf5000030032000043b00078
:100580000f03070011c0b3000040eb00320620004b
:10059000020037004806b1000040e800820f540016
:1005a000fcff3e00e04f500002003a0080cf5000b8
:1005b000030032000043b0000103070011c0b30084
:1005c0000040eb00020037006a0454000040e800dd
:1005d000e90f5400fcff3e00e04f500002003a00db
:1005e00080cf5000020032000043b000f402070048
:1005f00001c3b30001404400f1020700c0c2b300d0
:10060000ef0207004f0478000000060002c3b300a9
:1006100002c04000ea02070011c0b300ccff37005f
:10062000881f78000004780002003700e402070009
:100630000804e80018407800e04f5000fbff3a0043
:100640004f04780000000600889fbe008a9fbe000d
:100650008c9fbe008e1f78000080fb0021022000ce
:100660000180b9000e8020000e0740001c08200009
:100670000044eb000b0021008004eb0009457800ea
:100680000d822000808646000d00370098469800b5
:100690000e00780004040700b1ea2f0080804000bb
:1006a00001003b008100ea008b8f500003003c00fa
:1006b000810578008b047800084578000844e8003c
:1006c0000c06e900f1ff3a000a0078006ae9b70079
:1006d000494b8800809620004f0778004f06be00e7
:1006e0004f05be004f04be0000000600e88747002b
:1006f000889fbe008a9fbe008c9fbe008e1f780020
:10070000004178003ac0b30018c0b3000e002100c9
:100710000006eb008c4678001e0037008b01fb00c2
:10072000c219dd00048071004800dd00f019880066
:1007300002407800f2b79f00e3b79f0084bf9f009c
:10074000c1ff0700a04090008100fb00e88050003e
:100750007fb19700efb197000fba97008e8f5000ce
:1007600003003c008346740001077800010678000e
:10077000e08f50000b0034008b45e8008944e9000d
:10078000e6ff3a000844e8000a45e900894f5500b1
:1007900004003200f9c3b3001bceb3000802fb0013
:1007a000deff37000d0078006ee9b7006c4b880063
:1007b000c09620004f0778004f06be004f05be00d0
:1007c0004f04be008f00b100000006000400fa00d4
:1007d000889fbe008a9fbe00004178000281fb0016
:1007e000200220000091b900f001410004802000a7
:1007f000648079006300b900f2024200803279001f
:10080000648079006300b900f401420082814100f4
:100810008009d10018362e00690120000080eb000d
:100820008080eb00fc054100780541000f00370097
:10083000a0bf9f00b1bf9f002801070004802000d7
:10084000e4c17d002fb89700bfb89700e2cf5100f8
:1008500006003a0064017d0003002000820f500072
:10086000838f580004003c000200be006104540065
:10087000e0845c00eeff3a00e00f5000e08f58008b
:1008800002003d0067004000e08048004d09dd00a7
:100890004300de0000007100c388de004f05be008b
:1008a0004f04be000080fa0000000600889fbe00d2
:1008b00071c0b300130020000000eb000280200094
:1008c000425a9000e24f520001003a0003007000cb
:1008d0008140e90003003200838141002202b00020
:1008e000f7ff37000eff07000000eb000cff0700ca
:1008f0000000eb000aff070078c0b3000980200069
:100900004908900006ff07002902b0000844e900ea
:10091000fbff3a00d0c0b30029020700a0c0b3001b
:10092000270207004f04be0000000600889fbe009b
:1009300071c0b300130020000000eb000280200013
:10094000425a9000e24f520001003a00030070004a
:100950008140e90003003200838141002202b0009f
:10096000f7ff3700eefe07000000eb00ecfe07008b
:100970000000eb00eafe070078c0b3000980200009
:1009800019007800e6fe07002902b0000844e900db
:10099000fbff3a00d0c0b30009020700a0c0b300bb
:1009a000070207004f04be000000060071c0b3003c
:1009b000130020000000eb0002802000425a90004b
:1009c000e24f520001003a00030070008140e9004c
:1009d00003003200838141002202b000f7ff37009c
:1009e000cffe07000000eb00cdfe07000000eb008b
:1009f000cbfe0700d0c0b300f1010700a0c0b300d8
:100a0000ef01070000000600889fbe008a1f7800e3
:100a10000080fb002a81200028022000e08f520085
:100a2000060034000884b90005357c000a85e8001a
:100a300008044500058cd100060037000884b90081
:100a4000853e200005357c004a1f2000458120009e
:100a50008a327c00280220000884b90088027800cd
:100a60008880200001b47a008880e80082b07a0093
:100a70008381fb00110020008309dd00f6004400a3
:100a800083b07a00f800440084f07a00e4805000db
:100a9000858040008048eb0042032000f2004400c3
:100aa00082b07a00e8004400e00f530002003400f6
:100ab00086b07a00020037000202200082b07a007d
:100ac000220220000281b90082007800f0814000fb
:100ad000e2802000048020006482790004b1780064
:100ae00072014100e0cf5300030035008100410056
:100af00097409800030037008100410042c2b300d4
:100b000092409800210220000180b90081812000dc
:100b1000808040008008eb00418020008080400001
:100b20008008eb00b1107800c180200000804000f8
:100b30000008eb004f0578004f04be0000000600df
:100b40000000eb00001988001019880020198800a7
:100b50002043a80022198000f10f2e0081006100bf
:100b60000180a0002119880021c0b3008000fd0091
:100b700024e3b7008000fd0021e3a800e01988000d
:100b800000f02b00f01988003de3a80000000600eb
:100b9000300990008201e80033089800810f51006d
:100ba000110039008000eb00310898001001be00f0
:100bb00020029000b0029000cd28dd004322de002c
:100bc00004827000c3aade0004024100858249004d
:100bd000cd18dd004311de0002817000c399de00f4
:100be0000218520003905a0000000600881f780087
:100bf00000047800a801900038029000988051000d
:100c000001003b008000eb00410c98004858900028
:100c100012c0b300824f50000f00320003003900b1
:100c2000e24f500028003a001900370058089000a1
:100c30008000e900510c9800e00f500003003a00da
:100c4000425c980020002000500c9800030c7800b3
:100c5000140498001c00370018089000808f500082
:100c600007003600580890008000e900510c9800f9
:100c7000e00f500004003a0020c0b300405c980030
:100c800020002000500c9800410020000c0037008c
:100c900028089000808f500006003100580890000e
:100ca0008000e900510c9800e00f500003003a006a
:100cb000425c980020002000500c98000119200090
:100cc00008007800b2ff07006000b8002004980018
:100cd000310498004f04780000000600889fbe0091
:100ce0008a1f7800e88e2000184478000884fb00f2
:100cf0002002200000c4b900008020000804400049
:100d000079c0b300ca0c2000000545004858900087
:100d1000e04f50001a00350008007800620207001a
:100d2000e8009000810f5000020034008100e800cc
:100d3000010037008100e90061049800680090001c
:100d4000cf80de0028019000b80190000200400032
:100d500083804800200498003104980078009000b7
:100d60008000e90071049800e00f500004003a0090
:100d7000080078009dff07000808900070049800a4
:100d80008a0f5400020032002802b0000100370030
:100d9000088020008944e900dcff3a00ee48ec00be
:100da000eee8b700e64f5000030036008004fd0077
:100db000eee8b7008004fd004f0578004f04be0048
:100dc00000000600881f78000d0107005cff070087
:100dd00080c3eb000083eb00860278000042eb004a
:100de00084417800c22c2000812c2000044078002f
:100df00005ff070080c3eb000083eb00860278004c
:100e000014c0b30084417800c22c2000812c200043
:100e100004407800fcfe070080c3eb000083eb0079
:100e20008602780024c0b30084417800c22c2000e0
:100e3000812c200004407800f3fe070080c3eb0003
:100e40000083eb008602780034c0b3008441780050
:100e5000c22c2000812c200004407800eafe07000c
:100e600080c3eb000083eb008602780044c0b3002f
:100e700084417800c22c2000812c2000044078009e
:100e8000e1fe070080c3eb000083eb0086027800e0
:100e900054c0b30084417800c22c2000812c200073
:100ea00004407800d8fe070080c3eb000083eb000d
:100eb0008602780064c0b30084417800c22c200010
:100ec000812c200004407800cffe07009f0007001f
:100ed0000040eb00dcfd07002040900021e8b70057
:100ee00010c0b300d8fd07002040900043e8b700d1
:100ef00020c0b300d4fd07002040900065e8b70093
:100f000030c0b300d0fd07002040900087e8b70054
:100f100040c0b300ccfd070020409000a9e8b70016
:100f200050c0b300c8fd070020409000cbe8b700d8
:100f300060c0b300c4fd070020409000ede8b7009a
:100f400043c0b30062c0b3008040eb0001407800b2
:100f50004e01070043c0b30062c0b30011c0b3002c
:100f6000014078004901070043c0b30062c0b300ec
:100f700021c0b300014078004401070043c0b30022
:100f800062c0b30031c0b300014078003f010700e8
:100f900013c0b30052c0b3008040eb0040c0b300a8
:100fa0003a01070013c0b30052c0b3008340780079
:100fb000024078003501070013c0b30052c0b300ef
:100fc00021c0b30060c0b3003001070013c0b300fc
:100fd00052c0b30031c0b30070c0b3002b01070092
:100fe00083c0b30042c0b3008040eb0003407800f0
:100ff0002601070083c0b30042c0b30011c0b30094
:1010000090c0b3002101070083c0b30042c0b30009
:1010100021c0b300a0c0b3001c01070083c0b3000f
:1010200042c0b30031c0b300b0c0b3001701070025
:1010300000fa20006008880094e0a80011e1a800f0
:1010400008f02f00cb0107000004fd00dc22b600f1
:101050000004fd000004fd00e422b6000004fd00d1
:10106000f0c8bf00e14f500001003a00dc02a800c8
:10107000fac8bf00e14f500001003a00dc22a8008e
:1010800004c9bf00e14f500001003a00dc42a80053
:101090000ec9bf00e14f500001003a00dc62a80019
:1010a00018c9bf00e14f500001003a00dc82a800df
:1010b00022c9bf00e14f500001003a00dca2a800a5
:1010c0002cc9bf00e14f500001003a00dcc2a8006b
:1010d00036c9bf00e14f500001003a00dce2a80031
:1010e00040c9bf00e14f500001003a00e402a800ef
:1010f0004ac9bf00e14f500001003a00e422a800b5
:1011000054c9bf00e14f500001003a00e442a8007a
:101110005ec9bf00e14f500001003a00e462a80040
:10112000e2fd0700c7ff3700ecfe070000000600e5
:101130005001200002003700803e0900000000003e
:101140000000e900fcff3a0000000600103a8000b1
:10115000f00bb2006104200072052000237420000f
:101160008149780082497800804978008336800080
:1011700000fc2f00008061005000b3008036880022
:10118000103a80000060a00023742000814978009c
:10119000824978008049780020022000c011880030
:1011a0000000eb00801188003062a80090118800d8
:1011b00031e2a8003342a80087c0a9000000060061
:1011c000911180000110b200fdff3200000000000c
:1011d000000000000000fb00a011880000000600d5
:1011e00003003700803e0900000000000100780085
:1011f0008000e900e00f5000faff3a00000006000e
:1012000000f02f00dc22b600e422b600d822b6009f
:10121000e022b600dc02a800c5ff0700dc02a9003e
:10122000dc22a800c2ff0700dc22a900dc42a800e3
:10123000bfff0700dc42a900dc62a800bcff07007a
:10124000dc62a900dc82a800b9ff0700dc82a900eb
:10125000dca2a800b6ff0700dca2a900dcc2a8003f
:10126000b3ff0700dcc2a900dce2a800b0ff070062
:10127000dce2a900e402a800adff0700e402a90037
:10128000e422a800aaff0700e422a900e442a80083
:10129000a7ff0700e442a900e462a800a4ff07003a
:1012a000e462a900e482a800a1ff0700e482a9008b
:1012b000e4a2a8009eff0700e4a2a900e4c2a800df
:1012c0009bff0700e4c2a900e4e2a80098ff070022
:1012d000e4e2a900e4e2a80095ff0700e4e2a90027
:1012e000e4c2a80092ff0700e4c2a900e4a2a8009b
:1012f0008fff0700e4a2a900e482a8008cff07008a
:10130000e482a900e462a80089ff0700e462a90062
:10131000e442a80086ff0700e442a900e422a800f6
:1013200083ff0700e422a900e402a80080ff070071
:10133000e402a900dce2a8007dff0700dce2a900ce
:10134000dcc2a8007aff0700dcc2a900dca2a8006a
:1013500077ff0700dca2a900dc82a80074ff070069
:10136000dc82a900dc62a80071ff0700dc62a90032
:10137000dc42a8006eff0700dc42a900dc22a800c6
:101380006bff0700dc22a900dc02a80068ff070051
:10139000dc02a9000000060000a0fe003600f800f4
:1013a000849fbe00869fbe003400f8000400200029
:1013b000a40188005cff07000621ef0084e0a9007b
:1013c0003400f9004f03be004f02be003600f900a2
:1013d0000080fe00004006003400f800881f7800fe
:1013e00008002000a80188004f04780000000000d9
:1013f0000000000000000000fcff37003400f8008f
:10140000881f780008002000a80188004f04780099
:10141000000000000000000000000000fcff37009a
:101420003400f800881f780008002000a801880018
:101430004f047800000000000000000000000000e1
:10144000fcff37003400f800881f780008002000f7
:10145000a80188004f047800000000000000000090
:1014600000000000fcff37003400f800881f7800ff
:1014700008002000a80188004f0478000000000048
:101480000000000000000000fcff3700889fbe0045
:10149000024378000182fb002902200009a2b90062
:1014a00008802000a2c0b3000440bc00408f200090
:1014b00002004000040844000680fb000980b900d7
:1014c000648f200002024200000a4400018f2000c5
:1014d0008280400020c8b3008048780020c0b3005c
:1014e00090409800218f200082804000834878003f
:1014f00043062000808f20000330790010c0b30025
:10150000904098004f04be0000000600889fbe0077
:101510008a1f7800c4c0b3008001eb00008f200058
:1015200027c0b30016c0b3004a01200049062000be
:10153000a000900041599000b0009000c158900068
:10154000e24f510003003a0082cf500003003a00fe
:1015500005003700e04f510048003200e0cf500056
:101560004600320011c0b30010419000a04290002c
:101570008582fb00688462000f003200e24f510058
:1015800002003a00490098000b0037004004900028
:1015900012c0b300e00f540004003c0022c0b300ae
:1015a000f40f440001003d004a0098004004900000
:1015b0000804e900480098007084620003003200cb
:1015c00010446100010032000274a000024878005b
:1015d000618162000d0032003041900082cf5000e6
:1015e00008003200e2cf500006003a00104190009f
:1015f000e14f510002003a0011409800010037000d
:1016000016409800314098001c003700e4826200c8
:10161000828f52001200320017409800e2cf500033
:1016200016003a00e08f51001300320030019000a4
:10163000a000900042099000c10890000101410003
:10164000b3029000a3009000c50a9000c10890006a
:1016500081804200810f510007003e0007003700e3
:10166000e2cf500002003a00164098000300370015
:101670001740980001003700800178000442e9001b
:10168000020032006a004000a9ff3700e08f5100dd
:101690000200320010c0b300904198004f0578005e
:1016a0004f04be0000000600c000900050029000f1
:1016b000f0099000006190001060900070e9b700a0
:1016c000c0ff2f003c23b6000281fb0042198800b6
:1016d0000380ea00140a6000910860001400090009
:1016e00000000000918871003c03a80002972000d0
:1016f000124178000201fb00028009000000000096
:101700003c23a8002023a9000000000000000000e6
:1017100000000000000000000000000000000000c9
:101720000219800061016100fdff32009108600034
:1017300000188000014020000080500000000600da
:020000040000fa
:10174000700900000200000000000000f008000026
:10175000780000000000000000080000f000000019
:101760000000000068090000080000000000000000
:041770000000000075
:020000040000fa
:0817740065ff070000000600fc
:00000001FF
