:020000040000FA
:060000009CEF1BF0120052
:020006001200E6
:060008001BEF0BF01200DB
:02000E001200DE
:06001000017766550003B4
:020016000000E8
:060018001BEF0BF01200CB
:02001E000400DC
:10002000773700004F000000050000007337000024
:100030005C00000004000000160000000201000047
:100040000200000010000000440000000600000054
:1000500000001200D9CFE6FFE1CFD9FF81E946E8E1
:1000600012EC0AF0000901E1E5D10E01A16BAD51DE
:10007000040B01E0010E030BF36EFC0EA115F3104F
:10008000A16FAD51A197080B01E0A187AD51030B02
:10009000010802E1010E01D0000EA19BE8B0A18B86
:1000A000AD51A19D800B01E0A18DADAF04D0AECECE
:1000B000A4FEAFCEA5FEB2CEA8FEB0CEA6FEB1CEB7
:1000C000A7FEB4CEAAFEB3CEA9FEA1ABA6D1A6CE02
:1000D000E9FFA7CEEAFFEF50920A01E152D1050AEB
:1000E00001E14BD1060A01E13CD1130A01E1C6D07E
:1000F000050A01E17ED0060A02E0AC878FD1066ACC
:10010000010EEA6AA625E96EA751EA22EF50000126
:10011000485D01E07FD1030E495D01E17BD189ECAF
:1001200005F0066E0001490507E1060405E0020E30
:10013000065C02E0F30E066E065004E0060402E0E0
:10014000000E01D0010E000E000912E00E01AB51AD
:10015000060DF3CFE9FFF4CFEAFF000EE926000E0B
:10016000EA22040EE926000EEA22EF6AF30E066E7A
:100170000E019F6B9F519F2BEA6A2B0FE96E0E0EAB
:10018000EA22910EEF6E9F519F2BEA6A2B0FE96EC8
:100190000E0EEA2206EBEFFF065002E0060421E114
:1001A0009F519F2BEA6A2B0FE96E0E0EEA22A0CE1A
:1001B000EFFF016A010E015C14E20150EA6A530F7D
:1001C000E96E000EEA22EF50E66E9F519F2BEA6A1D
:1001D0002B0FE96E0E0EEA22E552E750EF6E012A70
:1001E000E9D70AEC0BF00E01A151080B01E1AED0EA
:1001F00043D000014951020801E20CD1010E0E0169
:10020000EA6AA625E96EA751EA22EF500001485D8F
:1002100001E000D10E019F6B9F519F2BEA6A2B0FCB
:10022000E96E0E0EEA22970EEF6E9F519F2BEA6A3F
:100230002B0FE96E0E0EEA22A0CEEFFF016A010E2F
:10024000015C14E20150EA6A530FE96E000EEA22E3
:10025000EF50E66E9F519F2BEA6A2B0FE96E0E0E50
:10026000EA22E552E750EF6E012AE9D70AEC0BF0DB
:100270000E01A151080B6AE0010E68D09F6B9F51DF
:100280009F2BEA6A2B0FE96E0E0EEA22920EEF6E9A
:10029000016A0A0E015C46E20150060DF3CFE9FF48
:1002A000F4CFEAFF000EE926000EEA22040EE9264A
:1002B000000EEA22EF50800B33E00150060DF3CF21
:1002C000E9FFF4CFEAFF000EE926000EEA22E9CFAB
:1002D0003CF0EACF3DF0E9CFE6FFEACFE6FFA4CE5F
:1002E000E6FFA5CEE6FFA7D944E9000919E00150D1
:1002F000060DF3CFE9FFF4CFEAFF000EE926000E6A
:10030000EA22040EE926000EEA22EF6A0E019F514E
:100310009F2BEA6A2B0FE96E0E0EEA22EF6A02D0DB
:10032000012AB7D70AEC0BF00A0E015C0AE10E01B4
:100330009F519F2BEA6A2B0FE96E0E0EEA22F00EF8
:10034000EF6E0E01A151080B01E0010EE66E010EE9
:10035000E66EA4CEE6FFA5CEE6FFE66AB9D845E98B
:100360005DD0010EEA6AA625E96EA751EA22EF5098
:1003700002E0010A4FE1CDDB4DD0ACAB4BD0AC9BE2
:1003800049D0010EEA6AA625E96EA751EA22EF508C
:1003900041E1016A0A0E015C3DE20150060DF3CF16
:1003A000E9FFF4CFEAFF000EE926000EEA22040E70
:1003B000E926000EEA22EF50800B2AE00150060DDC
:1003C000F3CFE9FFF4CFEAFF000EE926000EEA22A0
:1003D000E9CF3CF0EACF3DF0E9CFE6FFEACFE6FF18
:1003E000A4CEE6FFA5CEE6FF26D944E9000910E039
:1003F0000150060DF3CFE9FFF4CFEAFF000EE92626
:10040000000EEA22040EE926000EEA22EF6A02D06C
:10041000012AC0D70AEC0BF001D0AC870E01A8511D
:1004200006E0AC51100B03E1AC51200B03E0AC979C
:100430000AEC0BF047E9E7CFD9FF1200D9CFE6FF6E
:10044000E1CFD9FF82E944E80E01AC6B026A0A0EE3
:10045000025C11E20250060DF3CFE9FFF4CFEAFF90
:10046000000EE926000EEA22040EE926000EEA221A
:10047000EF6A022AECD75EEC1AF00E019F6B440E75
:10048000046E000E056E038203960398038A039C94
:1004900000500394E8B00384039003EBE6FF04EB01
:1004A000E6FF05EBE6FFD8EC08F043E948C0E6FFBD
:1004B000CCD941E90E01A06BA08100014939F00BB4
:1004C0000E01A013F08A010E45E9E7CFD9FF120013
:1004D000D9CFE6FFE1CFD9FF86E944E8066A0150AB
:1004E00002E0010E01D0000E00013C6FD950060F52
:1004F000E96EDACFEAFF3C51030BF36EFC0EEF140A
:10050000F310EF6E045002E0000E01D0010E069AC7
:10051000E8B0068A04500694E8B0068400500696B7
:10052000E8B00686045002E0000E01D0010E069CE1
:10053000E8B0068CD950060FE96EDACFEAFFEF502B
:10054000030B010802E1068E01D0069E82EB07F044
:1005500083EB08F09FCEE6FF2B0EE66E0E0EE66EE6
:1005600006EBE6FF07EBE6FF08EBE6FF71EC09F0B0
:1005700046E9096E0E019F6B095045E9E7CFD9FFA7
:100580001200D9CFE6FFE1CFD9FF82E900EBE6FF09
:10059000E66A000EE66EE66A010EE66E99DF45E950
:1005A00041E9E7CFD9FF1200D9CFE6FFE1CFD9FF6C
:1005B00083E90150060DF3CFE9FFF4CFEAFF000E07
:1005C000E926000EEA22040EE926000EEA22EF5088
:1005D000800B19E000EBE6FF010EE66E0150060D00
:1005E000F3CFE9FFF4CFEAFF000EE926000EEA227E
:1005F000E9CF3CF0EACF3DF0E9CFE6FFEACFE6FFF6
:1006000007D844E901D0000E41E9E7CFD9FF120035
:10061000D9CFE6FFE1CFD9FF85E900EBE6FFE66A37
:1006200002EBE6FF03EBE6FFE66A52DF45E941E94C
:10063000E7CFD9FF1200D9CFE6FFE1CFD9FF85E997
:1006400041E8056A040E055C16E205500224E96ED5
:10065000000E0320EA6EEFCF3CF005500024E96E57
:10066000000E0120EA6EEF5000013C5D02E0000E3A
:1006700003D0052AE7D7010E42E9E7CFD9FF1200E0
:10068000D9CFE6FFE1CFD9FF87E90550020A06E09E
:10069000030A04E0010A04E1010E03D0000E01D0B8
:1006A000000E41E9E7CFD9FF1200D9CFE6FFE1CF35
:1006B000D9FF83E94CE800014951036E030E046E33
:1006C000056A000470E068EC1AF054C03CF055C0B4
:1006D0003DF056C03EF057C03FF000013C51066E61
:1006E0003D51076E3E51086E3F51096ED950060FBD
:1006F000E96EDACFEAFF240EEE5EF40EEE5A000E3B
:10070000EE5AEE5A0001496B0E01AC890E01ACA9FC
:1007100091D068EC1AF054C03CF055C03DF056C082
:100720003EF057C03FF000013C510A6E3D510B6E48
:100730003E510C6E3F510D6E0AEB40F00BEB41F059
:100740000CEB42F00DEB43F0D950060FE96EDACF17
:10075000EAFFEE50405D3C6FEE5041593D6FEE5068
:1007600042593E6FEE5043593F6FD880240E3C559E
:10077000F40E3D55000E3E55000E3F5555E28AEBF6
:1007800006F08BEB07F08CEB08F08DEB09F00550D1
:1007900005060008BBE3010E056E045004060009BF
:1007A00004E10E01AC99FF0E48D00E019F6B9F51E2
:1007B0009F2BEA6A2B0FE96E0E0EEA22810EEF6E76
:1007C0009F519F2BEA6A2B0FE96E0E0EEA2248C05A
:1007D000EFFF9F519F2BEA6A2B0FE96E0E0EEA2264
:1007E000A0CEEFFF0E6A010E0E5C14E20E50EA6A14
:1007F000530FE96E000EEA22EF50E66E9F519F2BD9
:10080000EA6A2B0FE96E0E0EEA22E552E750EF6E10
:100810000E2AE9D7E66A010EE66E000EE66EE66A7B
:10082000010EE66E55DE45E926D8000901E16ED7D6
:1008300008D86CD703EB49F0AB514DE9E7CFD9FFAE
:1008400012000E01AC970AEF0BF0D9CFE6FFE1CF13
:10085000D9FF82E9E66A00EBE6FF62EC08F042E9C4
:10086000000904E000EB48F0010E01D0000E41E960
:10087000E7CFD9FF12002AEC00F00E01AC51080BB3
:1008800001E0010E1200D9CFE6FFE1CFD9FF82E9E6
:1008900042E800500A0826E21B0EE66E290EE66EBC
:1008A000B6EC18F042E9026A040E025C0FE2030E95
:1008B000D8800254EA6A440FE96E000EEA22EFCFB4
:1008C000E6FFE4EC18F041E9022AEED70F0EE66EDF
:1008D000290EE66EB6EC18F042E948C0E6FF0DECD2
:1008E00019F041E90A0E005C01E385D0DF0EE66EE7
:1008F000280EE66EB6EC18F042E90050060DF3CF74
:10090000E9FFF4CFEAFF000EE926000EEA22040E0A
:10091000E926000EEA22EF50800B01E1F6D000EB51
:10092000E6FFE4EC18F041E9D10EE66E280EE66E23
:10093000B6EC18F042E9026A080E025C29E2040EE5
:10094000025C1DE20050060DF3CFE9FFF4CFEAFF91
:10095000000EE926000EEA22E9CF3CF0EACF3DF096
:10096000030ED88002540001EA6AE924E96E3D5181
:10097000EA22EFCFE6FFE4EC18F041E907D0CE0E13
:10098000E66E280EE66EB6EC18F042E9022AD4D7DD
:10099000C90EE66E280EE66EB6EC18F042E9026A61
:1009A000010E025C20E20050060DF3CFE9FFF4CF08
:1009B000EAFF000EE926000EEA22050EE926000EE7
:1009C000EA22E9CF3CF0EACF3DF002500001EA6AAA
:1009D000E924E96E3D51EA22EFCFE6FFE4EC18F09E
:1009E00041E9022ADDD7C60EE66E280EE66EB6ECA9
:1009F00018F042E98AD0940EE66E280EE66EB6EC48
:100A000018F042E9026A0A0E025C01E37ED002504D
:100A1000060DF3CFE9FFF4CFEAFF000EE926000E42
:100A2000EA22040EE926000EEA22EF50800B6BE06A
:100A300002EBE6FFE4EC18F041E9D10EE66E280E79
:100A4000E66EB6EC18F042E9036A080E035C29E290
:100A5000040E035C1DE20250060DF3CFE9FFF4CF54
:100A6000EAFF000EE926000EEA22E9CF3CF0EACFC9
:100A70003DF0030ED88003540001EA6AE924E96ED0
:100A80003D51EA22EFCFE6FFE4EC18F041E907D050
:100A9000CE0EE66E280EE66EB6EC18F042E9032A9A
:100AA000D4D7C90EE66E280EE66EB6EC18F042E911
:100AB000036A010E035C20E20250060DF3CFE9FF4A
:100AC000F4CFEAFF000EE926000EEA22050EE92621
:100AD000000EEA22E9CF3CF0EACF3DF003500001DE
:100AE000EA6AE924E96E3D51EA22EFCFE6FFE4EC41
:100AF00018F041E9032ADDD7C60EE66E280EE66E31
:100B0000B6EC18F042E9022A7ED743E9E7CFD9FFD5
:100B10001200D9CFE6FFE1CFD9FF81E943E8026AAD
:100B20000368016A0A0E015C37E20150060DF3CF3B
:100B3000E9FFF4CFEAFF000EE926000EEA22040ED8
:100B4000E926000EEA22EF50800B1FE00150060D4F
:100B5000F3CFE9FFF4CFEAFF000EE926000EEA2208
:100B6000E9CF3CF0EACF3DF0E9CFE6FFEACFE6FF80
:100B7000A4CEE6FFA5CEE6FF5EDD44E900090AE06B
:100B800081EB03F0010E026E07D0FF0E035C02E161
:100B900081EB03F0012AC6D7FF0E035C02E1F10EE0
:100BA00088D0010E0001495D01E382D0016A080E80
:100BB000015C21E201500E01EA6AA425E96EA5510B
:100BC000EA22EF50E66E0350060DF3CFE9FFF4CFB3
:100BD000EAFF000EE926000EEA22EACF3DF00150BE
:100BE0000001EA6AE924E96E3D51EA22E552E75044
:100BF000EF6E012ADCD70350060DF3CFE9FFF4CFE7
:100C0000EAFF000EE926000EEA22040EE926000E95
:100C1000EA22EF8E020E0E01EA6AA625E96EA751BE
:100C2000EA22EF50010B00013C6F0350060DF3CF99
:100C3000E9FFF4CFEAFF000EE926000EEA22040ED7
:100C4000E926000EEA223C51010BF36EFE0EEF1472
:100C5000F310EF6E016A010E015C26E2030E01241F
:100C60000E01EA6AA625E96EA751EA22EF50E66E68
:100C70000350060DF3CFE9FFF4CFEAFF000EE9269B
:100C8000000EEA22050EE926000EEA22EACF3DF028
:100C900001500001EA6AE924E96E3D51EA22E55279
:100CA000E750EF6E012AD7D703EBABFE0E01AC99EC
:100CB000025044E9E7CFD9FF1200D9CFE6FFE1CFD8
:100CC000D9FF82E945E8FF0E005C56E1026A0A0E90
:100CD000025C01E3A0D00250060DF3CFE9FFF4CF90
:100CE000EAFF000EE926000EEA22040EE926000EB5
:100CF000EA22EF50800B2FE00E019F6B9F519F2B3C
:100D0000EA6A2B0FE96E0E0EEA22820EEF6EE66A99
:100D1000010EE66E0250060DF3CFE9FFF4CFEAFFB5
:100D2000000EE926000EEA22E9CF3CF0EACF3DF0C2
:100D3000E9CFE6FFEACFE6FFE66A68EC02F045E9B4
:100D4000036A046AFF0E035C0F0E045804E2032AD0
:100D5000000E0422F7D70250060DF3CFE9FFF4CFBF
:100D6000EAFF000EE926000EEA22040EE926000E34
:100D7000EA22EF6A022AABD70050060DF3CFE9FF53
:100D8000F4CFEAFF000EE926000EEA22040EE9265F
:100D9000000EEA22EF50800B3EE00E019F6B9F5148
:100DA0009F2BEA6A2B0FE96E0E0EEA22820EEF6E7F
:100DB000E66A010EE66E0050060DF3CFE9FFF4CFB0
:100DC000EAFF000EE926000EEA22E9CF3CF0EACF66
:100DD0003DF0E9CFE6FFEACFE6FFE66A68EC02F015
:100DE00045E9056A066AFF0E055C0F0E065804E227
:100DF000052A000E0622F7D70050060DF3CFE9FFB3
:100E0000F4CFEAFF000EE926000EEA22040EE926DE
:100E1000000EEA22EF6A46E9E7CFD9FF1200D9CFE8
:100E2000E6FFE1CFD9FF82E9005003080AE300EBB7
:100E300049F000014951100D0F0E0E01A015F310DD
:0A0E4000A06F41E9E7CFD9FF1200CF
:060E4A00D9CFE6FFE1CF65
:100E5000D9FF81E941E8200EE66E32D841E9016E02
:100E60000F0E0114010F190DF350F36EF46A42E9ED
:100E7000E7CFD9FF1200D9CFE6FFE1CFD9FF83E951
:100E800041E8F050200B01E0010E036EF09A8D92C4
:100E9000000101EB3CF03D6B3CC0E6FF3BEC1BF07E
:100EA00041E900EBE6FF3BEC1BF041E98D8203508A
:100EB000E8B0F08AE8A0F09A42E9E7CFD9FF120043
:100EC000D9CFE6FFE1CFD9FF82E942E8F050200B0D
:100ED00001E0010E036EF09A8D92400E0010006E3C
:100EE00000EBE6FF3BEC1BF041E94FEC1BF0026E20
:100EF0008D820350E8B0F08AE8A0F09A025043E9EE
:100F0000E7CFD9FF1200D9CFE6FFE1CFD9FF82E9C1
:100F100041E8F050200B01E0010E026EF09A8B9434
:100F200000EBE6FF3BEC1BF041E98B840250E8B09C
:100F3000F08AE8A0F09A42E9E7CFD9FF1200D9CFB2
:100F4000E6FFE1CFD9FF83E94EE8030E0F6E0F50A5
:100F50000F06000901E1A6D0106A0101036B0D6ABA
:100F6000005011E0280EE66EABDF41E90E6E0E4038
:100F70007F0B0E6E0E50410806E20D500D2A04083C
:100F8000F1E2000E91D0F09A200EE66E6FD941E9A1
:100F9000C90EE66E1A0EE66E6EDF42E901EBE6FF61
:100FA000B2DF41E9046A0150045C0CE20450EA6AD1
:100FB000CC0FE96E000EEA22EFCFE6FFA4DF41E995
:100FC000042AF1D7800EE66E51D941E9F08A010179
:100FD000025103E1F050040BFAE0026B200EE66EC2
:100FE00045D941E9600EE66E41D941E9200E000184
:100FF000CC15000854E2CDC056FE68EC1AF054C07F
:101000003CF055C03DF056C03EF057C03FF00001E7
:101010003C51056E3D51066E3E51076E3F51086EC4
:10102000010103513CE168EC1AF054C03CF055C09A
:101030003DF056C03EF057C03FF000013C51096EF4
:101040003D510A6E3E510B6E3F510C6E09EB40F064
:101050000AEB41F00BEB42F00CEB43F0D950050FDB
:10106000E96EDACFEAFFEE50405D3C6FEE50415939
:101070003D6FEE5042593E6FEE5043593F6FD8805E
:10108000350E3C550C0E3D55000E3E55000E3F559D
:10109000C7E21050102A030801E259D75ED7010EAB
:1010A000036E01D0036A03504FE9E7CFD9FF120066
:1010B000D9CFE6FFE1CFD9FF85E9000E41E9E7CFBF
:1010C000D9FF1200D9CFE6FFE1CFD9FF83E9200E87
:1010D000015C02E3000E4AD0640EE66E0C0EE66E72
:1010E000CADE42E90150F76A3C0FF66E340EF72271
:1010F0000800F55000013C6F3D6B3C510E0E3D1356
:101100003CC0E6FF3DC0E6FFB6DE42E90150F76AAB
:101110005C0FF66E340EF7220800F55000013C6FAC
:101120003D6B3C51100E3D133CC0E6FF3DC0E6FF59
:10113000A2DE42E9200EE66E99D841E9460EE66E3F
:10114000E66A99DE42E9400EE66E90D841E90F0E5C
:10115000E66E1C0EE66E8FDE42E9200EE66E86D845
:1011600041E9600EE66E82D841E9010E41E9E7CF20
:10117000D9FF1200D9CFE6FFE1CFD9FF82E90050B5
:10118000070802E2000E10D00050E82400013C6F76
:101190003D6BF00E3C13340E3D133CC0E6FF3DC0EA
:1011A000E6FF69DE42E9010E41E9E7CFD9FF12000F
:1011B000D9CFE6FFE1CFD9FF84E941E800EB53FE48
:1011C00001EB54FE02EB55FE140EE66EE66A4FECA0
:1011D00018F042E98D828B84D6CF57FE0E015869F4
:1011E000046A020E045C0DE20450360DF3CFE9FFF1
:1011F000F4CFEAFF600EE926000EEA22EF6A042A25
:10120000F0D7046A04501F0813E3F76A0434FE0B96
:10121000F66EF7367C0EF626340EF7220900F5CF6F
:10122000E6FF0900F5CFE6FF26DE42E9042AEAD709
:10123000200EE66E1BD841E9460EE66EE66A1BDE1E
:1012400042E9400EE66E12D841E90F0EE66E1C0E22
:10125000E66E11DE42E9600EE66E08D841E9F094D0
:10126000F08A010E42E9E7CFD9FF1200D9CFE6FF9D
:10127000E1CFD9FF82E9005029E0200A1EE0600A90
:1012800014E0200A0AE0E00A28E1860EE66EE66A2B
:10129000F2DD42E90E01800E17D0660EE66EE66AB8
:1012A000EADD42E90E01600E0FD0460EE66EE66AF8
:1012B000E2DD42E90E01400E07D0260EE66EE66A38
:1012C000DADD42E90E01200E596F07D0060EE66EF8
:1012D000E66AD1DD42E90E01596B41E9E7CFD9FF5A
:1012E0001200D9CFE6FFE1CFD9FF87E942E80050ED
:1012F000280802E2000E92D0D950030FE96EDACF2F
:10130000EAFFEF50040B02E0000E01D0010E039C37
:10131000E8B0038CD950030FE96EDACFEAFFEF5043
:10132000030B010801E1038E03EBCCF00E015751D2
:10133000572B0001CD6F020E086ED950030FE96ED6
:10134000DACFEAFFEF50400B1DE0076A0E01535160
:10135000780BE842E842E842075C14E207500424B4
:10136000E96E000E0520EA6EEF50E66E0850082A7E
:10137000EA6ACC0FE96E000EEA22E552E750EF6E02
:10138000072AE4D7D950030FE96EDACFEAFFEF500E
:10139000040BD950030FE96EEF50800B1DE0076A74
:1013A0000E015351780BE842E842E842075C14E230
:1013B0000750EA6A5425E96E5551EA22EF50E66E6D
:1013C0000850082AEA6ACC0FE96E000EEA22E552BC
:1013D000E750EF6E072AE4D7076A0050075C14E273
:1013E00007500124E96E000E0220EA6EEF50E66E0F
:1013F0000850082AEA6ACC0FE96E000EEA22E5528C
:10140000E750EF6E072AE9D70E015351020B01E0B6
:10141000010EE66E08EBE6FF92DD42E943E9E7CF15
:10142000D9FF1200D9CFE6FFE1CFD9FF81E947E824
:10143000016A050E015C6FE268EC1AF054C03CF0E2
:1014400055C03DF056C03EF057C03FF000013C5142
:10145000026E3D51036E3E51046E3F51056E0150C8
:10146000060DF3CFE9FFF4CFEAFF5C0EE9260E0E7E
:10147000EA22EF504EE00150060DF3CFE9FFF4CF22
:10148000EAFF5C0EE9260E0EEA22020EE926000EA5
:10149000EA220250EE5C0350EE580450EE5805501C
:1014A000EE5837E202EB40F003EB41F004EB42F080
:1014B00005EB43F00150060DF3CFE9FFF4CFEAFF4F
:1014C0005C0EE9260E0EEA22020EE926000EEA2242
:1014D000EE50405D3C6FEE5041593D6FEE50425929
:1014E0003E6FEE5043593F6FD880240E3C55F40EAA
:1014F0003D55000E3E55000E3F550BE20150060DC6
:10150000F3CFE9FFF4CFEAFF5C0EE9260E0EEA22E4
:10151000EF6A012A8ED7FF0E0E01585D02E0000E21
:1015200075D0016A020E015C70E20150360DF3CFF6
:10153000E9FFF4CFEAFF600EE926000EEA22EF5041
:10154000010B61E00150360DF3CFE9FFF4CFEAFF64
:10155000600EE926000EEA22EE52EFCFADFE0150FA
:10156000360DF3CFE9FFF4CFEAFF600EE926000E57
:10157000EA22350EE926000EEA22EFCFB2FE020E75
:10158000066E0E01ADAD07D00E015351780BE84247
:10159000E842E84206260E01ADAF19D00150360DE3
:1015A000F3CFE9FFF4CFEAFF600EE926000EEA224E
:1015B000EE520650E924AE6F000EEA20AF6F0E0126
:1015C0005351780BE842E842E842062602D0AE6B5F
:1015D000AF6B06500E01B25F0150360DF3CFE9FF3D
:1015E000F4CFEAFF600EE926000EEA22EE52065022
:1015F000E924B06F000EEA20B16F5BCEB3FE01EBC1
:1016000058FE010E03D0012A8DD7000E48E9E7CF1E
:10161000D9FF1200020E0E01585D0CE25851360D32
:10162000F3CFE9FFF4CFEAFF600EE926000EEA22CD
:10163000EF6A58691200D8CFE4FFE0CFE4FFE46E10
:10164000DACFE4FFE2CFDAFFE9CFE4FFEACFE4FF4D
:1016500054C0E4FF55C0E4FF56C0E4FF57C0E4FFA8
:10166000F6CFE4FFF7CFE4FFF5CFE4FFF3CFE4FFDD
:10167000F4CFE4FFFACFE4FF00EE3CF0080EE804FC
:1016800003E3EECFE4FFFBD7E652D9CFE6FFE1CF8D
:10169000D9FF81E94DE8F050040B01E156D2F0503A
:1016A000200B01E152D2600E0E01595D01E048D2DB
:1016B000280EE66E60EC07F041E9E8407F0B0E0172
:1016C0005A6F5ACE5BFE8B944FEC1BF0026E8B84EC
:1016D000036A020E035C10E20350360DF3CFE9FFFC
:1016E000F4CFEAFF600EE926000EEA22EF50010B6C
:1016F00001E102D0032AEDD7020E025C03E1010EE4
:10170000066E01D0066A340E025C07E2025005E064
:10171000020E035C16E3065014E11A0EE66E60EC4E
:1017200007F041E90B6E0BA20BD08B944FEC1BF032
:101730008B841A0EE66E60EC07F041E90B6EF3D76E
:1017400002D2016A0250046E056A010E045C000EAA
:10175000055801E2F4D10406000E055A065017E0C0
:101760008B944FEC1BF0E66E0001D950070F586FB9
:10177000DACF59F00150012A0001EA6A5825E96ED2
:101780005951EA22E552E750EF6E8B841FD08B94BB
:101790004FEC1BF0E66E0350360DF3CFE9FFF4CFAC
:1017A000EAFF600EE926000EEA22EE52E9CF58F079
:1017B000EACF59F00150012A0001EA6A5825E96E82
:1017C0005951EA22E552E750EF6E8B840250015CDA
:1017D00001E2B4D1065030E0030E071402080AE11A
:1017E0000E015651085C03E10101010E036F016A0D
:1017F000AAD105D0020E035C02E3016A8ED7035022
:10180000360DF3CFE9FFF4CFEAFF600EE926000EB4
:10181000EA22EE5207EBEFFF0350360DF3CFE9FF5C
:10182000F4CFEAFF600EE926000EEA22EE52E92A22
:10183000000EEA2208EBEFFF0350360DF3CFE9FF6D
:10184000F4CFEAFF600EE926000EEA22350EE92603
:10185000000EEA2202EBEFFF0D680350360DF3CFC6
:10186000E9FFF4CFEAFF600EE926000EEA22EE520D
:10187000EF50400B40E00C6A0E015351780BE842E8
:10188000E842E8420C5C37E20350360DF3CFE9FF43
:10189000F4CFEAFF600EE926000EEA22EE52E9CF0D
:1018A00059F0EACF5AF0020E0C240001EA6A5925D9
:1018B000E96E5A51EA22EFCF58F00C500E01EA6A55
:1018C0005425E96E5551EA22EF500001585D11E0B0
:1018D000016A0350360DF3CFE9FFF4CFEAFF600E43
:1018E000E926000EEA22350EE926000EEA22EF6A0A
:1018F00014D70C2AC1D70350360DF3CFE9FFF4CF2C
:10190000EAFF600EE926000EEA22EE52EF50200BAD
:1019100056E00C6A020E0C5C1AE20C50EA6ACC0F1C
:10192000E96E000EEA22EF50E66E0001D950070F73
:10193000586FDACF59F00C500001EA6A5825E96E69
:101940005951EA22E552E750EF6E0C2AE3D7000125
:10195000060ECC6F0350360DF3CFE9FFF4CFEAFF4C
:10196000600EE926000EEA22EE52E92A000EEA2273
:10197000EFCFCDF0F094E66A020EE66E9FEC07F032
:1019800042E90C6A020E0C5C1AE20001D950070F02
:10199000586FDACF59F00C500001EA6A5825E96E09
:1019A0005951EA22EF50E66E0C50EA6ACC0FE96E0C
:1019B000000EEA22E552E750EF6E0C2AE3D70C6ADC
:1019C000050E0C5C5FE20C50060DF3CFE9FFF4CF7F
:1019D000EAFF5C0EE9260E0EEA22EF5040E00C50C2
:1019E000060DF3CFE9FFF4CFEAFF5C0EE9260E0EF9
:1019F000EA22EE52EFCF58F00350360DF3CFE9FF55
:101A0000F4CFEAFF600EE926000EEA22EE52E92A40
:101A1000000EEA22EF500001585D21E168EC1AF057
:101A200054C058F055C059F056C05AF057C05BF03A
:101A30000C50060DF3CFE9FFF4CFEAFF5C0EE92668
:101A40000E0EEA22020EE926000EEA2258C0EEFF30
:101A500059C0EEFF5AC0EEFF5BC0EEFF13D0FF0E81
:101A60000D5C0EE10C50060DF3CFE9FFF4CFEAFF59
:101A70005C0EE9260E0EEA22EF5002E18CEB0DF02F
:101A80000C2A9ED7050E0C5C58E3050E0D5C4AE24D
:101A90000D50060DF3CFE9FFF4CFEAFF5C0EE92607
:101AA0000E0EEA22010EEF6E0350360DF3CFE9FF62
:101AB000F4CFEAFF600EE926000EEA22EE52E92A90
:101AC000000EEA22EF50E66E0D50060DF3CFE9FF4F
:101AD000F4CFEAFF5C0EE9260E0EEA22EE52E55242
:101AE000E750EF6E68EC1AF054C058F055C059F04A
:101AF00056C05AF057C05BF00D50060DF3CFE9FF0A
:101B0000F4CFEAFF5C0EE9260E0EEA22020EE92669
:101B1000000EEA2258C0EEFF59C0EEFF5AC0EEFF99
:101B20005BC0EEFF0350360DF3CFE9FFF4CFEAFFC1
:101B3000600EE926000EEA22EF8005D006D603D01B
:101B40000101010E026FF0940000F2A40AD0F2AA83
:101B500008D0F2940101002B0101005102E10101C2
:101B6000012BC3EC19F04EE9E7CFD9FFE55200EEA7
:101B700043F0080EE80403E3E5CFEDFFFBD7E5CF24
:101B8000FAFFE5CFF4FFE5CFF3FFE5CFF5FFE5CFB3
:101B9000F7FFE5CFF6FFE5CF57F0E5CF56F0E5CFFD
:101BA00055F0E5CF54F0E5CFEAFFE5CFE9FFE5CF0B
:0E1BB000DAFFE550E5CFE0FFE5CFD8FF1000EB
:021BBE0090DBBA
:101BC00086E90150010600090CE002EBE6FF03EB99
:101BD000E6FF00EBE6FF69DBF4E13D1DF2E1010EFB
:101BE00001D0000E41E9E5CFDAFFE7CFD9FF1200BF
:101BF00077DB89E97BE80A6A0B6A02EBF6FF03EB05
:101C0000F7FF04EBF8FF0800F550096E095001E1F9
:101C10002DD3250E095C01E01BD30C6A0D6A0E6AF8
:101C20000F6A106A2DDB2D0E095C0CE02B0E095C8F
:101C300009E0200E095C06E0230E095C03E0300E8B
:101C4000095C15E10950300A10E0130A0CE0030AA0
:101C500008E00B0A04E0060AE5E10C80E3D70C82F9
:101C6000E1D70C84DFD70C86DDD70C88DBD72A0EB2
:101C7000095C13E1A5DB0DE30C801CEB3CF01DEBD4
:101C80003DF000013C6D3D1F000E3D233C510D6EAB
:101C900002D09CEB0DF0F4DA07D0126A3FDB02E0D1
:101CA0006BDBFCD792EB0DF00CB00C982E0E095CA0
:101CB00015E1E6DA2A0E095C08E182DB04E29CEB1E
:101CC0000EF0010E0F6EDCDA09D0126A27DB02E09B
:101CD00053DBFCD792EB0EF0010E0F6E680E095C21
:101CE00007E1CEDA680E095C1DE1030E106E19D013
:101CF000740E095C16E07A0E095C13E0480E095C6C
:101D000006E0540E095C03E05A0E095C02E1020E83
:101D100007D06C0E095C03E06A0E095C03E1010E5A
:101D2000106EAEDA09506E0A01E16ED21E0A01E1B0
:101D300028D1200A01E125D13F0A01E1FDD01A0A8C
:101D400001E1FAD00D0A01E1F7D0200A01E1F4D057
:101D50003A0A01E1F1D0200A01E1EED0260A01E1C0
:101D6000EAD00D0A01E1E7D01A0A01E19ED0200A6B
:101D70003BE0300A1AE0460A0EE0250A01E072D282
:101D8000D950020FE96E000EDA20EA6E010EEE5E07
:101D9000000EEE5AEE5A0FDB250EE66E86DA03E1F0
:101DA0003D1D01E159D20A2A5BD2116A0D5001088A
:101DB00003E20D04116EF5DA115007E0010E0C1468
:101DC00004E16DDA01E048D2116AD3DAEF50096E0E
:101DD000CBDA03E13D1D01E13FD20A2A000E0B22BE
:101DE0005EDA01E13FD238D2020E105C08E1030E48
:101DF0004EDAEE50176EEE50186EEF5007D0E7DA5D
:101E00003E6B3C51176E3D51186E3E51196E17EBEB
:101E1000E6FF18EBE6FF19EBE6FFE3EC1AF043E907
:101E200054C03CF055C03DF056C03EF000013C515E
:101E30001C6E3D511D6E0F5006E01C500E5C03E2FF
:101E40000E501C6E1D6A1C500D5C02E29CEB0DF0E6
:101E500050DA05E00D500E5C02E28EEB0DF00CB096
:101E600004D01DDA01E0F8D1116A126A17EBF6FF0F
:101E700018EBF7FF19EBF8FF0800F550096E095051
:101E800010E00D50125C0DE26FDA03E13D1D01E13F
:101E9000E3D10A2A000E0B22122AD950170F55DA65
:101EA000EBD7FDD901E1DED1D7D163DAEE501A6E5E
:101EB000ED501B6E1AEBE6FF1BEBE6FFD5EC1AF0BC
:101EC00042E9F3501C6EF4501D6E0F5006E01C509A
:101ED0000E5C03E20E501C6E1D6A1C500D5C02E28B
:101EE0009CEB0DF006DA05E00D500E5C02E28EEB85
:101EF0000DF00CB004D0D3D901E0AED1116A126A52
:101F00001AEBE9FF1BEBEAFFEF50096E09500FE0F7
:101F10000D50125C0CE228DA03E13D1D01E19CD179
:101F20000A2A000E0B22122A1A2A1B22E9D7B7D935
:101F300001E198D191D10C8E10040AE1040EA7D9C9
:101F4000EE50136EEE50146EEE50156EEF5032D010
:101F5000030E105C16E10CAE0CD00BDAEFCF3CF0A8
:101F600000013D6B3E6B3F6B3CAF23D03D693E694A
:101F70001FD0FFD9EFCF3CF000013C51136E146A23
:101F800020D0020E105C0CE10CAE06D0030E7FD9FF
:101F9000B6D93EAF0ED00CD0030E79D9B0D909D046
:101FA0000CAE0AD014DA3E6B3F6B3DAF02D03E69F7
:101FB0003F69BCD9166E07D00ADA3C51136E3D5109
:101FC000146E156A166A0F5002E1010E0E6E1E6A3B
:101FD0001F6AD950400FE66E000EDA20E66EE55219
:101FE000E550436EE750426E416A116A0A0E106E68
:101FF0000950780A12E0200A10E0280A0CE0200AB2
:102000000AE03F0A06E00D0A02E0200A08E1020E9B
:1020100005D0080E03D0080E0926100E106E0CBE57
:1020200002D00C920C94800E0C1417E0163415E3B9
:10203000E668E668E668E66842D94DEC17F0E552D6
:10204000E5CF3FF0E5CF3EF0E5CF3DF0E7CF3CF008
:1020500000016CD9166E2D0E07D00CA202D02B0EEB
:1020600003D00CA404D0200E206E1E2A01D0206ABA
:102070000E5005E1135014101510161061E0000108
:10208000520E3C6F370E3D6F000E3E6F83D9ADECA4
:1020900017F0E552E5CF42F0E5CF41F0E5CF40F053
:1020A000E7CF3FF000013C513F25F36E3D51402109
:1020B000F46E3E514121F86EF4CFF7FFF3CFF6FFF7
:1020C0000800F550126E580E095C05E1610E125CB5
:1020D00002E3200E125E5ED9AAEC17F0E552E5503D
:1020E000166EE550156EE550146EE750136E42EB18
:1020F000E9FF43EBEAFF4206000E435A12EBEFFF03
:102100001E2A1350141015101610B9E10CA619D080
:102110006F0E095C06E10E501E5C13E31E280E6E66
:1021200010D0780E095C09E0580E095C06E0620EDA
:10213000095C03E0420E095C04E1020E1F6E01D04F
:102140001E6A100E0C1407E00D500E5C04E20F50D6
:1021500002E18DEB0EF00E501E5C03E21E500E5E8F
:1021600001D00E6A0E501E241F24D8800D5407E2A1
:102170000E500D5CD8801E54D8801F54116E010E75
:102180000C1406E1115004E08AD866E10AD9116AFC
:10219000205007E010D920EBE6FF87D802E13D1D73
:1021A0005BE01F500BE007D9300EE66E7ED802E1EF
:1021B0003D1D52E0D9D802E13D1D4EE00E501F5C9E
:1021C00002E21F500E5E300EE66E0EEBE6FFDCD82C
:1021D00043E1422A000E432242EBE9FF43EBEAFFD0
:1021E000EF50126E125008E0E6D812EBE6FF5DD811
:1021F000F0E13D1DEEE130D052D82EE10E501E240C
:1022000011241F240A262CD01050030A1CE0010AB6
:1022100014E0030A07E0ADD8C9D80AEBEEFF0BEBD8
:10222000EDFF20D08BD83F6B3DAF02D03E693F69B8
:10223000A0D84ED83FC0EEFF15D080D83DBF3E6934
:1022400098D846D80FD095D8B1D80AEBEFFF0AD06E
:102250008BD805E13D1D03E1F368F4680BD00A2A31
:10226000000E0B22D950020F70D8CDD40AEBF3FF29
:102270000BEBF4FF7CE9E5CFDAFFE7CFD9FF1200E3
:10228000D950020F62D80800F550096E1200005EA6
:10229000000E015A00EBE9FF01EBEAFF1200200EED
:1022A000E66E11EBE6FFC4EF11F008EC1BF043E91A
:1022B000F3CF3CF0F4CF3DF00001F31C120013EB20
:1022C000E6FF14EBE6FF15EBE6FF16EBE6FF120068
:1022D0006DD83CC0EEFF3DC0EEFF3EC0EEFF1200E9
:1022E000D9CFE6FFDACFE6FFE1CFD9FFE2CFDAFFC1
:1022F00012001C500D5C116E54D80F501200EECF1E
:102300003CF0EECF3DF0EFCF3EF000013F6B12000E
:10231000EECF3CF0EFCF3DF0000112000950E66E29
:10232000E66A6CEC1BF042E9F35012003C51136E6C
:102330003D51146E3E51156E3F5112000AEB3CF0B8
:102340000BEB3DF000013E6B1200E96E000EDA204F
:10235000EA6EEF2AEECFF6FF000EEF22EECFF7FF88
:10236000EF22EECFF8FF120026D809EBE6FF55EF7B
:1023700011F0020E47EF11F00A0E1202F350092479
:10238000D00F126E40EF11F016D8DFEC0DF044E9DB
:102390000009120010EBE6FFE66AE66AE66A5FEF04
:1023A00011F011500A26000E0B221200EE50EFCF52
:1023B000EAFFE96E120005EBE6FF06EBE6FF12000E
:1023C000D8DFEE501C6EED501D6E1D341200D1DFB3
:0423D00088EF11F091
:0C23D400D9CFE6FFE1CFD9FF81E941E855
:1023E00056EC19F0ADEC18F0010EE66EE66A3B0E05
:1023F000E66E2C0EE66E98EC19F044E9240EE66EBB
:102400002C0EE66EB6EC18F042E9090EE66E2C0EC4
:10241000E66EB6EC18F042E9EE0EE66E2B0EE66EB6
:10242000B6EC18F042E9D60EE66E2B0EE66EB6EC70
:1024300018F042E9BB0EE66E2B0EE66EB6EC18F015
:1024400042E9A00EE66E2B0EE66EB6EC18F042E9FD
:10245000850EE66E2B0EE66EB6EC18F042E9660EBF
:10246000E66E2B0EE66EB6EC18F042E94F0EE66E05
:102470002B0EE66EB6EC18F042E90D0EE66E2B0E52
:10248000E66EB6EC18F042E9CB0EE66E2A0EE66E6A
:10249000B6EC18F042E98A0EE66E2A0EE66EB6EC4D
:1024A00018F042E9850EE66E2A0EE66EB6EC18F0DC
:1024B00042E989948996A6D9E66A1EEC02F041E9C0
:1024C0004FC0E6FF25EC04F041E9000901E1A3D08B
:1024D000E66A0FEC07F041E9010EE66E4FC0E6FF39
:1024E0003D0EE66E2A0EE66E98EC19F044E9E66AB7
:1024F000E66855EC03F042E9016EFF0E015C12E064
:10250000010EE66EE66A1E0EE66E2A0EE66E98EC88
:1025100019F044E9EE0EE66E290EE66EB6EC18F000
:1025200042E90AD0E66AE66AE66AE66A0A0EE66EFA
:10253000E66A40EC03F046E9E66843EC04F041E962
:102540008984640EE66EE66A4FEC18F042E9010EEB
:10255000E66EE66ACE0EE66E290EE66E98EC19F08F
:1025600044E9940EE66E290EE66EB6EC18F042E9E8
:10257000840EE66E290EE66EB6EC18F042E9940E73
:10258000E66E290EE66EB6EC18F042E9810EE66EB4
:10259000290EE66EB6EC18F042E93BEC04F00009B7
:1025A00001E03DD8A4BAABD800015151F6E068EC87
:1025B0001AF054C023FE55C024FE56C025FE57C055
:1025C00026FE270EE96E0E0EEA6EEE500E01235D1A
:1025D00000013C6FEE500E01245900013D6FEE509A
:1025E0000E01255900013E6FEE500E0126590001E3
:1025F0003F6FD880380E3C559C0E3D551C0E3E5505
:10260000000E3F5506E3230E0001505D02E2520525
:10261000C4E1B6D8C2D742E9E7CFD9FF1200D9CF7B
:10262000E6FFE1CFD9FF81E941E80E01A151030B9B
:10263000000904E06A0EE66E290E03D0580EE66E1D
:10264000290EE66EB6EC18F042E90E01A1AD2FD0CE
:10265000A1AF15D0010EEA6AA425E96EA551EA22C0
:10266000EFCFE6FFE4EC18F041E9A4CEE9FFA5CEF8
:10267000EAFFEFCFE6FFE4EC18F041E914D0016A7D
:10268000040E015C10E2030ED88001540E01EA6AC8
:10269000A425E96EA551EA22EFCFE6FFE4EC18F09D
:1026A00041E9012AEDD7530EE66E290E03D0460EFE
:1026B000E66E290EE66EB6EC18F042E9010E016EE8
:1026C0000E01A851015C0DE20150EA6AA625E96EEF
:1026D000A751EA22EFCFE6FFD1EC18F041E9012A39
:1026E000EFD7410EE66E290EE66EB6EC18F042E921
:1026F000897621EC04F042E9E7CFD9FF1200D9CF67
:10270000E6FFE1CFD9FF81E941E8DEEC18F0016E88
:1027100001EBE6FFD1EC18F041E90D0E015C0CE194
:10272000410EE66E290EE66EB6EC18F042E90001A5
:10273000010E516F526F20D0080E015C03E10001C1
:1027400050071AD0230E0001505D16E25051EA6A7C
:10275000000FE96E0E0EEA2201EBEFFF502B68EC42
:102760001AF054C027FE55C028FE56C029FE57C097
:102770002AFE0001010E516F42E9E7CFD9FF120096
:10278000D9CFE6FFE1CFD9FF81E941E80E019F6B88
:102790009F519F2BEA6A2B0FE96E0E0EEA2250C062
:1027A000EFFF016A00015051015C15E20150EA6A35
:1027B000000FE96E0E0EEA22EF50E66E0E019F51F9
:1027C0009F2BEA6A2B0FE96E0E0EEA22E552E750C4
:1027D000EF6E012AE7D7010EE66EE66AD4EC02F04E
:1027E00042E9000907E12E0EE66E290EE66EB6EC10
:1027F00018F042E90001516B526B506B42E9E7CF90
:10280000D9FF1200D9CFE6FFE1CFD9FF81E943E834
:1028100096908D90030EE66E3BEC1BF041E9FA0EAC
:10282000E66E3BEC1BF041E94FEC1BF0016E4FEC08
:102830001BF0026E4FEC1BF0036E8D80015026E101
:10284000040E025C23E1A30E035C20E18D90030ED5
:10285000E66E3BEC1BF041E9FD0EE66E3BEC1BF037
:1028600041E94FEC1BF00001466F4FEC1BF00001FB
:10287000456F4FEC1BF00001446FFE0E476F486937
:10288000A30E496F040E4A6F4B6B8D8044E9E7CF6E
:04289000D9FF12005A
:0C2894000D0A0D0A436F6E6E65637469D7
:1028A0006F6E2020202020506565724C6F6E67414E
:1028B000646472657373202020202050656572491E
:1028C0006E666F0D0A000D0A0020202020002020D7
:1028D0000020202020202020202020202020000D4B
:1028E0000A436F6E6E656374696F6E20202020202E
:1028F000506565724C6F6E674164647265737320D6
:102900002020202050656572496E666F0D0A0020F8
:10291000204368616E6E656C3A20000D0A0D0A4D09
:102920007920416464726573733A203078002028FE
:102930005472616E736D6974204661696C656429B7
:10294000000D0A24240050656572686968695D207D
:102950003A20005D203A20000A202D2D2D2D2D2D0E
:102960002D2D2046726F6D205B000A202D2D2D2D00
:102970002D2D2D2D2046726F6D2067726F75703A68
:1029800000242400436861742057696E646F773AAD
:10299000200D0A002D2D2D2D2D2D2D2D2D2D2D2DE4
:1029A0002D2D2D2D2D2D2D2D2D2D2D2D2D2D2D2D57
:1029B0002D2D2D2D2D2D2D2D2D2D2D2D2D2D2D2D47
:1029C0002D2D2D2D2D2D2D2D2D2D2D0D0A00436856
:1029D00061742057696E646F772044656D6F55731D
:1029E0006520436F6E736F6C6520417070000D0A37
:1029F000436F6E6E656374696F6E204573746162B8
:102A00006C697368656420776974682074686520F0
:102A100050656572204465766963650D0A004A6FEA
:102A2000696E656420204E6574776F726B205375F4
:102A3000636365737366756C6C792E2E00436F6EDD
:102A40006E656374696E67205065657220206F6ED5
:102A5000204368616E6E656C20256420000D0A5568
:102A60006E61626C6520746F2050726F6772616D69
:102A70002074686520526164696F204368616E6EDE
:102A8000656C0D0A000D0A0D0A000D0A2020202099
:102A90002020202020202020202020202020202036
:102AA0002055736520436F6E736F6C6520746F20C3
:102AB0004368617420776974682074686520506584
:102AC00065722044657669636573000D0A202020D5
:102AD00020202020202020202020202020202020F6
:102AE0002020746F20696E64696361746520636F70
:102AF0006E6E656374696E672077697468207065AF
:102B000065722E202020202020202020000D0A2069
:102B100020202020202020202020202020202020B5
:102B200020202020506F776572206F6E20746865BA
:102B300020626F61726420756E74696C204C45442C
:102B40002031206C69676874732075702020000D37
:102B50000A20202044656D6F20496E73747275637E
:102B600074696F6E3A000D0A202020202052462002
:102B70005472616E736365697665723A204D524690
:102B800038395841000D0A20202020202020202004
:102B900020202020204C454420333A20524231004E
:102BA0000D0A20202020202020202020202020204E
:102BB0004C454420323A20524133000D0A20202057
:102BC00020202020202020202020204C454420317F
:102BD0003A20524132000D0A4F75747075742043CB
:102BE0006F6E66696775726174696F6E3A000D0A7F
:102BF0002020202020202020202020427574746F67
:102C00006E20323A20524232000D0A20202020202D
:102C1000202020202020427574746F6E20313A20CD
:102C2000524230000D0A496E70757420436F6E6613
:102C3000696775726174696F6E3A00382D626974E4
:102C400020576972656C6573732020446576656CE6
:0B2C50006F706D656E74204B6974009E
:042C5C0000015C51C6
:102C60005E5D03E35D515F5D44E271B0FED700013C
:102C70005C515E5D17E25E51EA6A7A0FE96E0E0EF4
:102C8000EA22EF50756E5E2B5C515E5D32E15D5164
:102C900030E171842C0EE66E010EE66E4FEC18F0FA
:102CA00042E912005D515F5D24E25F51EA6A7E0FE6
:102CB000E96E0E0EEA22EF5008E15F51EA6A7E0FDC
:102CC000E96E0E0EEA22200EEF6E5F51EA6A7E0F69
:102CD000E96E0E0EEA22EF50756E5F2B5D515F5D5F
:102CE00008E171842C0EE66E010EE66E4FEC18F0D2
:102CF00042E91200D9CFE6FFE1CFD9FF83E971B4F1
:102D0000FED700015E6B5F6B01EB5CF000EB5DF0EA
:102D1000718041E9E7CFD9FF1200530E9512A49EAE
:102D2000736AF00E746E280E726E716AA38EF28E44
:102D3000F28C2C0EE66E010EE66E4FEC18F042E9B6
:102D40000E017C0E7A6F810E7B6F7C6BE66A030E40
:102D5000E66ED0DF42E9C80EE66EE66A4FEC18F088
:102D600042E90E017C0E7A6F510E7B6F080E7C6F6C
:102D7000E66A030EE66EBEDF42E9C80EE66EE66A5C
:102D80004FEC18F042E91200D9CFE6FFE1CFD9FFAE
:102D900081E941E8016A200E015C0AE20150EA6A19
:102DA0007E0FE96E0E0EEA22200EEF6E012AF3D797
:102DB00042E9E7CFD9FF12000E017C0E7A6F320E86
:102DC0007B6F7C6B200E7D6FE66E040EE66E92DFED
:102DD00042E912000E017C0E7A6F440E7B6F7C6B11
:102DE000E66A030EE66E86DF42E9C80EE66EE66A24
:102DF0004FEC18F042E90E017C0E7A6F420E7B6FA9
:102E00007C6BE66A030EE66E75DF42E9C80EE66E7D
:102E1000E66A4FEC18F042E912000E017C0E7A6F60
:102E2000440E7B6F7C6BE66A030EE66E63DF42E95D
:0E2E3000C80EE66EE66A4FEC18F042E912009A
:022E3E0042E868
:102E4000D9CFE6FFDACFE6FFE1CFD9FFE2CFDAFF55
:102E500086E9036A1200F3DF038003D0F0DF01D0BC
:102E60000382026A080EE76ED890013602360050DF
:102E7000025C02E3026E012AE72EF7D703B21200CA
:102E800003B081EB00F003A082EB00F0E552E5CF48
:102E9000DAFFE7CFD9FF43E9120044E8D9CFE6FFD4
:102EA000DACFE6FFE1CFD9FFE2CFDAFF8EE980EBA0
:102EB00008F081EB09F082EB0AF083EB0BF0045091
:102EC0000802F350006EF450016E04500902F350F2
:102ED0000126000EF420026E04500A02F35002266E
:102EE000000EF420036E04500B02F350032605502D
:102EF0000802F3500126F4500222000E032205506E
:102F00000902F3500226F450032205500A02F3503E
:102F1000032606500802F3500226F45003220650FE
:102F20000902F350032607500802F3500326E55226
:102F3000E5CFDAFFE7CFD9FF48E9000C45E8D9CF64
:102F4000E6FFDACFE6FFE1CFD9FFE2CFDAFF8FE984
:102F50000C6A1200F3DF0C8003D0F0DF01D00C828A
:102F60000B6A0A6A096A086A200EE76ED89004366E
:102F7000053606360736083609360A360B3600504F
:102F8000085C0150095802500A5803500B5809E3D5
:102F90000050085E0150095A02500A5A03500B5A59
:102FA000042AE72EE4D70CB212000CB00AD088EB4A
:102FB00000F089EB01F08AEB02F08BEB03F00CA040
:102FC00008D084EB00F085EB01F086EB02F087EB94
:102FD00003F0E552E5CFDAFFE7CFD9FF49E9120068
:102FE000D9CFE6FFE1CFD9FF85E944E854D000EB23
:102FF000E6FF01EBE6FF02EBE6FF03EBE6FF140E54
:10300000E66EE66AE66AE66A4DEC17F0E552E5CF51
:103010003FF0E5CF3EF0E5CF3DF0E7CF3CF00001DB
:103020003C51056E3D51066E3E51076E3F51086E94
:10303000D950050FE96EDACFEAFFAF0EEE5E000E53
:10304000EE5A000EEE5A000EEE5A083408E2055011
:103050002D08000E0654000E0754000E085401E31C
:103060001AD0083408E205500008000E0654000E7D
:103070000754000E08540FE20000D950050FE96E06
:10308000DACFEAFF2A0EEE5E000EEE5A000EEE5A7E
:10309000000EEE5AE6D745E9E7CFD9FF1200D9CFA7
:1030A000E6FFE1CFD9FF83E944E800EBE6FF01EB5F
:1030B000E6FFE66AE66AD00EE66E070EE66EE66AA0
:1030C000E66A4DEC17F0E552E5CF3FF0E5CF3EF074
:1030D000E5CF3DF0E7CF3CF000013C51036E3D51A0
:1030E000046E3E51056E3F51066ED950030FE96ED6
:1030F000DACFEAFFAA0EEE5E000EEE5A000EEE5A8E
:10310000000EEE5A063408E20350C308000E0454C1
:10311000000E0554000E065402E31BD01AD00634EC
:1031200008E203500008000E0454000E0554000E7F
:1031300006540FE20000D950030FE96EDACFEAFF20
:10314000270EEE5E000EEE5A000EEE5A000EEE5AFC
:0A315000E6D745E9E7CFD9FF1200EA
:06315A009584949C240EF4
:10316000A86E900E9C6E190EAB6E1200D9CFE6FFC2
:10317000E1CFD9FF83E941E800EBF6FF01EBF7FF70
:10318000002A000E01220800F550036E035005E0EE
:1031900003EBE6FF06D841E9EFD742E9E7CFD9FFD5
:1031A0001200D9CFE6FFE1CFD9FF82E9A8A2FED76E
:1031B00000EBA9FF41E9E7CFD9FF12009CA202D0A2
:1031C0009C989C88AA501200D9CFE6FFE1CFD9FF86
:1031D00082E941E880EB02F000380F0B0F0B006E24
:1031E0000050F76A630FF66E370EF7220800F5CF2E
:1031F000E6FFD7DF41E90F0E0214006E0050F76AB8
:10320000630FF66E370EF7220800F5CFE6FFC9DF31
:1032100041E942E9E7CFD9FF1200D9CFE6FFE1CF7C
:10322000D9FF82E9640E005C12E3640EE66E00EBE7
:10323000E6FF2BEC17F041E9E750F76A630FF66EF3
:10324000370EF7220800F5CFE6FFABDF41E90A0EA3
:10325000005C16E30A0EE66E640EE66E00EBE6FF17
:103260002EEC17F02BEC17F041E9E750F76A630FEB
:10327000F66E370EF7220800F5CFE6FF92DF41E940
:103280000A0EE66E00EBE6FF2EEC17F041E9E75080
:10329000F76A630FF66E370EF7220800F5CFE6FFE8
:0C32A00080DF41E941E9E7CFD9FF1200CF
:0432AC007B0ED36E54
:1032B000C090958E550EA76EAA0EA76E0E01FF91B7
:1032C000060EE96F130EF66F050ED76F550EA76E3B
:1032D000AA0EA76EFF810F0148693F0E496FF19E4C
:1032E000926893689468956A9668896A8A6A8C6A13
:1032F0008D6A95948C84949C8B9C938093849294F7
:103300009296958E93869586938A949E9398C00EF6
:10331000C76E210EC66E9692949496928B848D827F
:10332000F186959A8C8AF28E8DEC16F0ADEF18F03E
:10333000D9CFE6FFE1CFD9FF85E941E8C4EC16F02B
:103340000150E66EE66A02EBE6FF03EBE6FFE66A93
:103350007E0EE66E0E0EE66E9CEC1AF047E9DCEC93
:1033600016F000500CE0056A080E055C08E2FA0E43
:10337000E66EE66A4FEC18F042E9052AF5D742E915
:10338000E7CFD9FF1200A4AE09D0A49E2EEC16F010
:0E339000050EE66EE66A4FEC18F042E91200F8
:02339E001E0E01
:1033A000F66E000EF76E000EF86E0E010900F55075
:1033B000BA6F0900F550BB6F03E1BA6701D03DD089
:1033C0000900F550B56F0900F550B66F0900F550CA
:1033D000B76F09000900F550E96E0900F550EA6E73
:1033E000090009000900F550B86F0900F550B96FE0
:1033F00009000900F6CFBCFEF7CFBDFEF8CFBEFE38
:10340000B5CEF6FFB6CEF7FFB7CEF8FF0E01B85334
:1034100002E1B95307E00900F550EE6EB807F8E293
:10342000B907F9D7BCCEF6FFBDCEF7FFBECEF8FF89
:0C3430000E01BA07000EBB5BBFD71200F4
:04343C005353535340
:10344000535353535353535353535353535353534C
:103450005454545454545454545454541D202225F8
:10346000282B2E303336393C3F4144474A4D4F528A
:103470000A0D101215181B1E20232629260084026F
:10348000090409060C08C10A770C630E1910001212
:10349000001400163818C81A0D1C001E722038229D
:1034A000382407260028002A692C812E7E30963287
:0C34B000F83488364038003AE83C003E12
:0434BC00040ED56EB7
:1034C000F184F294F28AD58E0101006B016B120037
:1034D000D9CFE6FFE1CFD9FF81E946E8036A046A64
:1034E000F29AF250040B01E0010E056ED650016E07
:1034F000D750026EF250040B01E0010E066E06502A
:10350000055CEFE1055006E0F2940101002B00514B
:1035100001E1012B01010051032601510426F28A29
:1035200001EB54F002EB55F003EB56F004EB57F0CF
:0835300047E9E7CFD9FF1200C3
:08353800D9CFE6FFDACFE6FF70
:10354000E1CFD9FFE2CFDAFF87E944E8D9CFE6FF40
:10355000DACFE6FFE552E5500A6EE750096E09EB57
:10356000E6FF0AEBE6FF00EBE6FF01EBE6FF02EB0E
:10357000E6FFD950030FE66E000EDA20E66EF8EC97
:103580000DF047E9F350076EF450086E03EBE9FFC6
:1035900004EBEAFFEF6A07EBF3FF08EBF4FF45E902
:0A35A000E5CFDAFFE7CFD9FF1200F4
:0635AA00FE0EE3CFE9FF75
:1035B000FF0EE3CFEAFFF36AF46AEE5203E0F34A48
:1035C000F42AFBD71200FF0EE3CFF8FFE552FF0EFF
:1035D000E3CFF7FFE552FF0EE3CFF6FFE552E66AD1
:1035E000E66AE66A0900F55209E0FD0EE32A05E104
:1035F000FE0EE32A02E1FF0EE32AF4D7FD0EE3CF2D
:1036000054F0FE0EE3CF55F0FF0EE3CF56F012005C
:10361000D9CFE6FFDACFE6FFE1CFD9FFE2CFDAFF7D
:1036200085E9013415E200EBE9FF01EBEAFFEECF9B
:10363000F3FFEDCFF4FFEE2A000EEF22F3CFE9FF08
:10364000F4CFEAFF02EBEFFFEF50F36EF46A0DD018
:10365000FE0E005C05E102EBE6FF8EEC1BF004D0F1
:1036600002EBE6FF03EC00F041E941E9E5CFDAFFC8
:06367000E7CFD9FF1200B4
:0A367600D9CFE6FFE1CFD9FF82E9CA
:1036800041E89E96C950026EC69E00EBC9FFC6BEB9
:10369000FBD79EA6FED742E9E7CFD9FF1200E66A24
:1036A000EADF41E9C9501200D9CFE6FFE1CFD9FFE7
:1036B00082E941E8A49E729E00EB75FF72BEFBD7C3
:1036C000A4AEFED7A49E42E9E7CFD9FF1200E66A76
:0836D000EBDF41E97550120027
:0836D800F36AF46AFF0EE1241D
:1036E000E96EFF0EE220EA6EED6607D02F0EEF6462
:0C36F00004D03A0EEF6001D0F32A120063
:0436FC00C00EF36E9B
:1037000000EE00F00E0E01D81200EA6002D0EE6A60
:0C371000FCD7F350E9601200EE6AFCD711
:04371C00FF0EE35069
:10372000ADBA04D0B06AAC8EAD8A949CADA2FED77F
:08373000AE6EF36EF46A1200A4
:083738001DEE00F02DEE00F083
:10374000F86ACFEC19F007EC00F0EAEC11F0FBD7C7
:02375000120065
:0E3752003031323334353637383961626364D2
:033760006566009B
:0D3763003031323334353637383941424386
:0337700044454687
:043773000000000052
:053777000B0000000042
:01FFF800EC1C
:01FFF900F611
:01FFFA00D82E
:01FFFB00FB0A
:00000001FF
